{
  "_format": "hh3-artifact-1",
  "contractName": "InterfoldTicketToken",
  "sourceName": "contracts/token/InterfoldTicketToken.sol",
  "abi": [
    {
      "inputs": [
        {
          "internalType": "contract IERC20",
          "name": "baseToken",
          "type": "address"
        },
        {
          "internalType": "address",
          "name": "registry_",
          "type": "address"
        },
        {
          "internalType": "address",
          "name": "initialOwner_",
          "type": "address"
        }
      ],
      "stateMutability": "nonpayable",
      "type": "constructor"
    },
    {
      "inputs": [],
      "name": "CannotRescueUnderlying",
      "type": "error"
    },
    {
      "inputs": [],
      "name": "CheckpointUnorderedInsertion",
      "type": "error"
    },
    {
      "inputs": [],
      "name": "DelegationLocked",
      "type": "error"
    },
    {
      "inputs": [
        {
          "internalType": "uint256",
          "name": "increasedSupply",
          "type": "uint256"
        },
        {
          "internalType": "uint256",
          "name": "cap",
          "type": "uint256"
        }
      ],
      "name": "ERC20ExceededSafeSupply",
      "type": "error"
    },
    {
      "inputs": [
        {
          "internalType": "address",
          "name": "spender",
          "type": "address"
        },
        {
          "internalType": "uint256",
          "name": "allowance",
          "type": "uint256"
        },
        {
          "internalType": "uint256",
          "name": "needed",
          "type": "uint256"
        }
      ],
      "name": "ERC20InsufficientAllowance",
      "type": "error"
    },
    {
      "inputs": [
        {
          "internalType": "address",
          "name": "sender",
          "type": "address"
        },
        {
          "internalType": "uint256",
          "name": "balance",
          "type": "uint256"
        },
        {
          "internalType": "uint256",
          "name": "needed",
          "type": "uint256"
        }
      ],
      "name": "ERC20InsufficientBalance",
      "type": "error"
    },
    {
      "inputs": [
        {
          "internalType": "address",
          "name": "approver",
          "type": "address"
        }
      ],
      "name": "ERC20InvalidApprover",
      "type": "error"
    },
    {
      "inputs": [
        {
          "internalType": "address",
          "name": "receiver",
          "type": "address"
        }
      ],
      "name": "ERC20InvalidReceiver",
      "type": "error"
    },
    {
      "inputs": [
        {
          "internalType": "address",
          "name": "sender",
          "type": "address"
        }
      ],
      "name": "ERC20InvalidSender",
      "type": "error"
    },
    {
      "inputs": [
        {
          "internalType": "address",
          "name": "spender",
          "type": "address"
        }
      ],
      "name": "ERC20InvalidSpender",
      "type": "error"
    },
    {
      "inputs": [
        {
          "internalType": "address",
          "name": "token",
          "type": "address"
        }
      ],
      "name": "ERC20InvalidUnderlying",
      "type": "error"
    },
    {
      "inputs": [
        {
          "internalType": "uint256",
          "name": "deadline",
          "type": "uint256"
        }
      ],
      "name": "ERC2612ExpiredSignature",
      "type": "error"
    },
    {
      "inputs": [
        {
          "internalType": "address",
          "name": "signer",
          "type": "address"
        },
        {
          "internalType": "address",
          "name": "owner",
          "type": "address"
        }
      ],
      "name": "ERC2612InvalidSigner",
      "type": "error"
    },
    {
      "inputs": [
        {
          "internalType": "uint256",
          "name": "timepoint",
          "type": "uint256"
        },
        {
          "internalType": "uint48",
          "name": "clock",
          "type": "uint48"
        }
      ],
      "name": "ERC5805FutureLookup",
      "type": "error"
    },
    {
      "inputs": [],
      "name": "ERC6372InconsistentClock",
      "type": "error"
    },
    {
      "inputs": [
        {
          "internalType": "address",
          "name": "account",
          "type": "address"
        },
        {
          "internalType": "uint256",
          "name": "currentNonce",
          "type": "uint256"
        }
      ],
      "name": "InvalidAccountNonce",
      "type": "error"
    },
    {
      "inputs": [],
      "name": "InvalidShortString",
      "type": "error"
    },
    {
      "inputs": [],
      "name": "NoPendingRegistry",
      "type": "error"
    },
    {
      "inputs": [],
      "name": "NotRegistry",
      "type": "error"
    },
    {
      "inputs": [
        {
          "internalType": "address",
          "name": "owner",
          "type": "address"
        }
      ],
      "name": "OwnableInvalidOwner",
      "type": "error"
    },
    {
      "inputs": [
        {
          "internalType": "address",
          "name": "account",
          "type": "address"
        }
      ],
      "name": "OwnableUnauthorizedAccount",
      "type": "error"
    },
    {
      "inputs": [],
      "name": "PermitDisabled",
      "type": "error"
    },
    {
      "inputs": [],
      "name": "ReentrancyGuardReentrantCall",
      "type": "error"
    },
    {
      "inputs": [],
      "name": "RegistryAlreadyLocked",
      "type": "error"
    },
    {
      "inputs": [],
      "name": "RegistryChangeNotReady",
      "type": "error"
    },
    {
      "inputs": [],
      "name": "RegistryLockAlreadySet",
      "type": "error"
    },
    {
      "inputs": [],
      "name": "RegistryNotLocked",
      "type": "error"
    },
    {
      "inputs": [],
      "name": "RenounceOwnershipDisabled",
      "type": "error"
    },
    {
      "inputs": [
        {
          "internalType": "uint8",
          "name": "bits",
          "type": "uint8"
        },
        {
          "internalType": "uint256",
          "name": "value",
          "type": "uint256"
        }
      ],
      "name": "SafeCastOverflowedUintDowncast",
      "type": "error"
    },
    {
      "inputs": [
        {
          "internalType": "address",
          "name": "token",
          "type": "address"
        }
      ],
      "name": "SafeERC20FailedOperation",
      "type": "error"
    },
    {
      "inputs": [
        {
          "internalType": "string",
          "name": "str",
          "type": "string"
        }
      ],
      "name": "StringTooLong",
      "type": "error"
    },
    {
      "inputs": [],
      "name": "TransferNotAllowed",
      "type": "error"
    },
    {
      "inputs": [
        {
          "internalType": "uint256",
          "name": "expiry",
          "type": "uint256"
        }
      ],
      "name": "VotesExpiredSignature",
      "type": "error"
    },
    {
      "inputs": [],
      "name": "ZeroAddress",
      "type": "error"
    },
    {
      "anonymous": false,
      "inputs": [
        {
          "indexed": true,
          "internalType": "address",
          "name": "owner",
          "type": "address"
        },
        {
          "indexed": true,
          "internalType": "address",
          "name": "spender",
          "type": "address"
        },
        {
          "indexed": false,
          "internalType": "uint256",
          "name": "value",
          "type": "uint256"
        }
      ],
      "name": "Approval",
      "type": "event"
    },
    {
      "anonymous": false,
      "inputs": [
        {
          "indexed": true,
          "internalType": "address",
          "name": "delegator",
          "type": "address"
        },
        {
          "indexed": true,
          "internalType": "address",
          "name": "fromDelegate",
          "type": "address"
        },
        {
          "indexed": true,
          "internalType": "address",
          "name": "toDelegate",
          "type": "address"
        }
      ],
      "name": "DelegateChanged",
      "type": "event"
    },
    {
      "anonymous": false,
      "inputs": [
        {
          "indexed": true,
          "internalType": "address",
          "name": "delegate",
          "type": "address"
        },
        {
          "indexed": false,
          "internalType": "uint256",
          "name": "previousVotes",
          "type": "uint256"
        },
        {
          "indexed": false,
          "internalType": "uint256",
          "name": "newVotes",
          "type": "uint256"
        }
      ],
      "name": "DelegateVotesChanged",
      "type": "event"
    },
    {
      "anonymous": false,
      "inputs": [],
      "name": "EIP712DomainChanged",
      "type": "event"
    },
    {
      "anonymous": false,
      "inputs": [
        {
          "indexed": true,
          "internalType": "address",
          "name": "token",
          "type": "address"
        },
        {
          "indexed": true,
          "internalType": "address",
          "name": "to",
          "type": "address"
        },
        {
          "indexed": false,
          "internalType": "uint256",
          "name": "amount",
          "type": "uint256"
        }
      ],
      "name": "ERC20Rescued",
      "type": "event"
    },
    {
      "anonymous": false,
      "inputs": [
        {
          "indexed": true,
          "internalType": "address",
          "name": "previousOwner",
          "type": "address"
        },
        {
          "indexed": true,
          "internalType": "address",
          "name": "newOwner",
          "type": "address"
        }
      ],
      "name": "OwnershipTransferStarted",
      "type": "event"
    },
    {
      "anonymous": false,
      "inputs": [
        {
          "indexed": true,
          "internalType": "address",
          "name": "previousOwner",
          "type": "address"
        },
        {
          "indexed": true,
          "internalType": "address",
          "name": "newOwner",
          "type": "address"
        }
      ],
      "name": "OwnershipTransferred",
      "type": "event"
    },
    {
      "anonymous": false,
      "inputs": [
        {
          "indexed": true,
          "internalType": "address",
          "name": "to",
          "type": "address"
        },
        {
          "indexed": false,
          "internalType": "uint256",
          "name": "amount",
          "type": "uint256"
        }
      ],
      "name": "Payout",
      "type": "event"
    },
    {
      "anonymous": false,
      "inputs": [
        {
          "indexed": true,
          "internalType": "address",
          "name": "pendingRegistry",
          "type": "address"
        }
      ],
      "name": "RegistryChangeCancelled",
      "type": "event"
    },
    {
      "anonymous": false,
      "inputs": [
        {
          "indexed": true,
          "internalType": "address",
          "name": "newRegistry",
          "type": "address"
        },
        {
          "indexed": false,
          "internalType": "uint64",
          "name": "activatesAt",
          "type": "uint64"
        }
      ],
      "name": "RegistryChangeRequested",
      "type": "event"
    },
    {
      "anonymous": false,
      "inputs": [
        {
          "indexed": true,
          "internalType": "address",
          "name": "oldRegistry",
          "type": "address"
        },
        {
          "indexed": true,
          "internalType": "address",
          "name": "newRegistry",
          "type": "address"
        }
      ],
      "name": "RegistryChanged",
      "type": "event"
    },
    {
      "anonymous": false,
      "inputs": [],
      "name": "RegistryLocked",
      "type": "event"
    },
    {
      "anonymous": false,
      "inputs": [
        {
          "indexed": true,
          "internalType": "address",
          "name": "from",
          "type": "address"
        },
        {
          "indexed": true,
          "internalType": "address",
          "name": "to",
          "type": "address"
        },
        {
          "indexed": false,
          "internalType": "uint256",
          "name": "value",
          "type": "uint256"
        }
      ],
      "name": "Transfer",
      "type": "event"
    },
    {
      "inputs": [],
      "name": "CLOCK_MODE",
      "outputs": [
        {
          "internalType": "string",
          "name": "",
          "type": "string"
        }
      ],
      "stateMutability": "pure",
      "type": "function"
    },
    {
      "inputs": [],
      "name": "DOMAIN_SEPARATOR",
      "outputs": [
        {
          "internalType": "bytes32",
          "name": "",
          "type": "bytes32"
        }
      ],
      "stateMutability": "view",
      "type": "function"
    },
    {
      "inputs": [],
      "name": "REGISTRY_CHANGE_DELAY",
      "outputs": [
        {
          "internalType": "uint64",
          "name": "",
          "type": "uint64"
        }
      ],
      "stateMutability": "view",
      "type": "function"
    },
    {
      "inputs": [],
      "name": "acceptOwnership",
      "outputs": [],
      "stateMutability": "nonpayable",
      "type": "function"
    },
    {
      "inputs": [],
      "name": "activateRegistryChange",
      "outputs": [],
      "stateMutability": "nonpayable",
      "type": "function"
    },
    {
      "inputs": [
        {
          "internalType": "address",
          "name": "owner",
          "type": "address"
        },
        {
          "internalType": "address",
          "name": "spender",
          "type": "address"
        }
      ],
      "name": "allowance",
      "outputs": [
        {
          "internalType": "uint256",
          "name": "",
          "type": "uint256"
        }
      ],
      "stateMutability": "view",
      "type": "function"
    },
    {
      "inputs": [
        {
          "internalType": "address",
          "name": "",
          "type": "address"
        },
        {
          "internalType": "uint256",
          "name": "",
          "type": "uint256"
        }
      ],
      "name": "approve",
      "outputs": [
        {
          "internalType": "bool",
          "name": "",
          "type": "bool"
        }
      ],
      "stateMutability": "pure",
      "type": "function"
    },
    {
      "inputs": [
        {
          "internalType": "address",
          "name": "account",
          "type": "address"
        }
      ],
      "name": "balanceOf",
      "outputs": [
        {
          "internalType": "uint256",
          "name": "",
          "type": "uint256"
        }
      ],
      "stateMutability": "view",
      "type": "function"
    },
    {
      "inputs": [
        {
          "internalType": "address",
          "name": "operator",
          "type": "address"
        },
        {
          "internalType": "uint256",
          "name": "amount",
          "type": "uint256"
        }
      ],
      "name": "burnTickets",
      "outputs": [],
      "stateMutability": "nonpayable",
      "type": "function"
    },
    {
      "inputs": [],
      "name": "cancelRegistryChange",
      "outputs": [],
      "stateMutability": "nonpayable",
      "type": "function"
    },
    {
      "inputs": [
        {
          "internalType": "address",
          "name": "account",
          "type": "address"
        },
        {
          "internalType": "uint32",
          "name": "pos",
          "type": "uint32"
        }
      ],
      "name": "checkpoints",
      "outputs": [
        {
          "components": [
            {
              "internalType": "uint48",
              "name": "_key",
              "type": "uint48"
            },
            {
              "internalType": "uint208",
              "name": "_value",
              "type": "uint208"
            }
          ],
          "internalType": "struct Checkpoints.Checkpoint208",
          "name": "",
          "type": "tuple"
        }
      ],
      "stateMutability": "view",
      "type": "function"
    },
    {
      "inputs": [],
      "name": "clock",
      "outputs": [
        {
          "internalType": "uint48",
          "name": "",
          "type": "uint48"
        }
      ],
      "stateMutability": "view",
      "type": "function"
    },
    {
      "inputs": [],
      "name": "decimals",
      "outputs": [
        {
          "internalType": "uint8",
          "name": "",
          "type": "uint8"
        }
      ],
      "stateMutability": "view",
      "type": "function"
    },
    {
      "inputs": [
        {
          "internalType": "address",
          "name": "delegatee",
          "type": "address"
        }
      ],
      "name": "delegate",
      "outputs": [],
      "stateMutability": "nonpayable",
      "type": "function"
    },
    {
      "inputs": [
        {
          "internalType": "address",
          "name": "",
          "type": "address"
        },
        {
          "internalType": "uint256",
          "name": "",
          "type": "uint256"
        },
        {
          "internalType": "uint256",
          "name": "",
          "type": "uint256"
        },
        {
          "internalType": "uint8",
          "name": "",
          "type": "uint8"
        },
        {
          "internalType": "bytes32",
          "name": "",
          "type": "bytes32"
        },
        {
          "internalType": "bytes32",
          "name": "",
          "type": "bytes32"
        }
      ],
      "name": "delegateBySig",
      "outputs": [],
      "stateMutability": "pure",
      "type": "function"
    },
    {
      "inputs": [
        {
          "internalType": "address",
          "name": "account",
          "type": "address"
        }
      ],
      "name": "delegates",
      "outputs": [
        {
          "internalType": "address",
          "name": "",
          "type": "address"
        }
      ],
      "stateMutability": "view",
      "type": "function"
    },
    {
      "inputs": [
        {
          "internalType": "address",
          "name": "operator",
          "type": "address"
        },
        {
          "internalType": "uint256",
          "name": "amount",
          "type": "uint256"
        }
      ],
      "name": "depositFor",
      "outputs": [
        {
          "internalType": "bool",
          "name": "success",
          "type": "bool"
        }
      ],
      "stateMutability": "nonpayable",
      "type": "function"
    },
    {
      "inputs": [
        {
          "internalType": "address",
          "name": "from",
          "type": "address"
        },
        {
          "internalType": "address",
          "name": "to",
          "type": "address"
        },
        {
          "internalType": "uint256",
          "name": "amount",
          "type": "uint256"
        }
      ],
      "name": "depositFrom",
      "outputs": [
        {
          "internalType": "bool",
          "name": "",
          "type": "bool"
        }
      ],
      "stateMutability": "nonpayable",
      "type": "function"
    },
    {
      "inputs": [],
      "name": "eip712Domain",
      "outputs": [
        {
          "internalType": "bytes1",
          "name": "fields",
          "type": "bytes1"
        },
        {
          "internalType": "string",
          "name": "name",
          "type": "string"
        },
        {
          "internalType": "string",
          "name": "version",
          "type": "string"
        },
        {
          "internalType": "uint256",
          "name": "chainId",
          "type": "uint256"
        },
        {
          "internalType": "address",
          "name": "verifyingContract",
          "type": "address"
        },
        {
          "internalType": "bytes32",
          "name": "salt",
          "type": "bytes32"
        },
        {
          "internalType": "uint256[]",
          "name": "extensions",
          "type": "uint256[]"
        }
      ],
      "stateMutability": "view",
      "type": "function"
    },
    {
      "inputs": [
        {
          "internalType": "uint256",
          "name": "timepoint",
          "type": "uint256"
        }
      ],
      "name": "getPastTotalSupply",
      "outputs": [
        {
          "internalType": "uint256",
          "name": "",
          "type": "uint256"
        }
      ],
      "stateMutability": "view",
      "type": "function"
    },
    {
      "inputs": [
        {
          "internalType": "address",
          "name": "account",
          "type": "address"
        },
        {
          "internalType": "uint256",
          "name": "timepoint",
          "type": "uint256"
        }
      ],
      "name": "getPastVotes",
      "outputs": [
        {
          "internalType": "uint256",
          "name": "",
          "type": "uint256"
        }
      ],
      "stateMutability": "view",
      "type": "function"
    },
    {
      "inputs": [
        {
          "internalType": "address",
          "name": "account",
          "type": "address"
        }
      ],
      "name": "getVotes",
      "outputs": [
        {
          "internalType": "uint256",
          "name": "",
          "type": "uint256"
        }
      ],
      "stateMutability": "view",
      "type": "function"
    },
    {
      "inputs": [],
      "name": "lockRegistry",
      "outputs": [],
      "stateMutability": "nonpayable",
      "type": "function"
    },
    {
      "inputs": [],
      "name": "name",
      "outputs": [
        {
          "internalType": "string",
          "name": "",
          "type": "string"
        }
      ],
      "stateMutability": "view",
      "type": "function"
    },
    {
      "inputs": [
        {
          "internalType": "address",
          "name": "owner",
          "type": "address"
        }
      ],
      "name": "nonces",
      "outputs": [
        {
          "internalType": "uint256",
          "name": "",
          "type": "uint256"
        }
      ],
      "stateMutability": "view",
      "type": "function"
    },
    {
      "inputs": [
        {
          "internalType": "address",
          "name": "account",
          "type": "address"
        }
      ],
      "name": "numCheckpoints",
      "outputs": [
        {
          "internalType": "uint32",
          "name": "",
          "type": "uint32"
        }
      ],
      "stateMutability": "view",
      "type": "function"
    },
    {
      "inputs": [],
      "name": "owner",
      "outputs": [
        {
          "internalType": "address",
          "name": "",
          "type": "address"
        }
      ],
      "stateMutability": "view",
      "type": "function"
    },
    {
      "inputs": [],
      "name": "payableBalance",
      "outputs": [
        {
          "internalType": "uint256",
          "name": "",
          "type": "uint256"
        }
      ],
      "stateMutability": "view",
      "type": "function"
    },
    {
      "inputs": [
        {
          "internalType": "address",
          "name": "to",
          "type": "address"
        },
        {
          "internalType": "uint256",
          "name": "amount",
          "type": "uint256"
        }
      ],
      "name": "payout",
      "outputs": [],
      "stateMutability": "nonpayable",
      "type": "function"
    },
    {
      "inputs": [],
      "name": "pendingOwner",
      "outputs": [
        {
          "internalType": "address",
          "name": "",
          "type": "address"
        }
      ],
      "stateMutability": "view",
      "type": "function"
    },
    {
      "inputs": [],
      "name": "pendingRegistry",
      "outputs": [
        {
          "internalType": "address",
          "name": "",
          "type": "address"
        }
      ],
      "stateMutability": "view",
      "type": "function"
    },
    {
      "inputs": [],
      "name": "pendingRegistryActivationTime",
      "outputs": [
        {
          "internalType": "uint64",
          "name": "",
          "type": "uint64"
        }
      ],
      "stateMutability": "view",
      "type": "function"
    },
    {
      "inputs": [
        {
          "internalType": "address",
          "name": "",
          "type": "address"
        },
        {
          "internalType": "address",
          "name": "",
          "type": "address"
        },
        {
          "internalType": "uint256",
          "name": "",
          "type": "uint256"
        },
        {
          "internalType": "uint256",
          "name": "",
          "type": "uint256"
        },
        {
          "internalType": "uint8",
          "name": "",
          "type": "uint8"
        },
        {
          "internalType": "bytes32",
          "name": "",
          "type": "bytes32"
        },
        {
          "internalType": "bytes32",
          "name": "",
          "type": "bytes32"
        }
      ],
      "name": "permit",
      "outputs": [],
      "stateMutability": "pure",
      "type": "function"
    },
    {
      "inputs": [],
      "name": "registry",
      "outputs": [
        {
          "internalType": "address",
          "name": "",
          "type": "address"
        }
      ],
      "stateMutability": "view",
      "type": "function"
    },
    {
      "inputs": [],
      "name": "registryLocked",
      "outputs": [
        {
          "internalType": "bool",
          "name": "",
          "type": "bool"
        }
      ],
      "stateMutability": "view",
      "type": "function"
    },
    {
      "inputs": [],
      "name": "renounceOwnership",
      "outputs": [],
      "stateMutability": "view",
      "type": "function"
    },
    {
      "inputs": [
        {
          "internalType": "address",
          "name": "newRegistry",
          "type": "address"
        }
      ],
      "name": "requestRegistryChange",
      "outputs": [],
      "stateMutability": "nonpayable",
      "type": "function"
    },
    {
      "inputs": [
        {
          "internalType": "contract IERC20",
          "name": "token",
          "type": "address"
        },
        {
          "internalType": "address",
          "name": "to",
          "type": "address"
        },
        {
          "internalType": "uint256",
          "name": "amount",
          "type": "uint256"
        }
      ],
      "name": "rescueERC20",
      "outputs": [],
      "stateMutability": "nonpayable",
      "type": "function"
    },
    {
      "inputs": [
        {
          "internalType": "address",
          "name": "newRegistry",
          "type": "address"
        }
      ],
      "name": "setRegistry",
      "outputs": [],
      "stateMutability": "nonpayable",
      "type": "function"
    },
    {
      "inputs": [],
      "name": "symbol",
      "outputs": [
        {
          "internalType": "string",
          "name": "",
          "type": "string"
        }
      ],
      "stateMutability": "view",
      "type": "function"
    },
    {
      "inputs": [],
      "name": "totalSupply",
      "outputs": [
        {
          "internalType": "uint256",
          "name": "",
          "type": "uint256"
        }
      ],
      "stateMutability": "view",
      "type": "function"
    },
    {
      "inputs": [
        {
          "internalType": "address",
          "name": "to",
          "type": "address"
        },
        {
          "internalType": "uint256",
          "name": "value",
          "type": "uint256"
        }
      ],
      "name": "transfer",
      "outputs": [
        {
          "internalType": "bool",
          "name": "",
          "type": "bool"
        }
      ],
      "stateMutability": "nonpayable",
      "type": "function"
    },
    {
      "inputs": [
        {
          "internalType": "address",
          "name": "from",
          "type": "address"
        },
        {
          "internalType": "address",
          "name": "to",
          "type": "address"
        },
        {
          "internalType": "uint256",
          "name": "value",
          "type": "uint256"
        }
      ],
      "name": "transferFrom",
      "outputs": [
        {
          "internalType": "bool",
          "name": "",
          "type": "bool"
        }
      ],
      "stateMutability": "nonpayable",
      "type": "function"
    },
    {
      "inputs": [
        {
          "internalType": "address",
          "name": "newOwner",
          "type": "address"
        }
      ],
      "name": "transferOwnership",
      "outputs": [],
      "stateMutability": "nonpayable",
      "type": "function"
    },
    {
      "inputs": [],
      "name": "underlying",
      "outputs": [
        {
          "internalType": "contract IERC20",
          "name": "",
          "type": "address"
        }
      ],
      "stateMutability": "view",
      "type": "function"
    },
    {
      "inputs": [
        {
          "internalType": "address",
          "name": "receiver",
          "type": "address"
        },
        {
          "internalType": "uint256",
          "name": "amount",
          "type": "uint256"
        }
      ],
      "name": "withdrawTo",
      "outputs": [
        {
          "internalType": "bool",
          "name": "success",
          "type": "bool"
        }
      ],
      "stateMutability": "nonpayable",
      "type": "function"
    }
  ],
  "bytecode": "0x61018060405234801561001157600080fd5b50604051613f24380380613f2483398101604081905261003091610477565b82816040518060400160405280601681526020017f496e746572666f6c64205469636b657420546f6b656e0000000000000000000081525080604051806040016040528060018152602001603160f81b8152506040518060400160405280601681526020017f496e746572666f6c64205469636b657420546f6b656e000000000000000000008152506040518060400160405280600381526020016249544b60e81b81525081600390816100e49190610563565b5060046100f18282610563565b5061010191508390506005610345565b61012052610110816006610345565b61014052815160208084019190912060e052815190820120610100524660a05261019d60e05161010051604080517f8b73c3c69bb8fe3d512ecc4cf759cc79239f7b179b0ffacaa9a75d522b39400f60208201529081019290925260608201524660808201523060a082015260009060c00160405160208183030381529060405280519060200120905090565b60805250503060c052506001600160a01b0381166101da576000604051631e4fbdf760e01b81526004016101d19190610621565b60405180910390fd5b6101e381610378565b50306001600160a01b0382160361020f573060405163438d6fe360e01b81526004016101d19190610621565b6001600160a01b0316610160526001600d5561024a7f19fac8dd8592a4890adebe934d2f48afd428e88e62a592d382c52100a35a42c0610394565b6001600160a01b03821661029a576102817fb9da44263cb598da1849b157541fba920a20cb3d8c2b6ff40cb07882dba6a33c610394565b60405163d92e233d60e01b815260040160405180910390fd5b6102c37f1841ccce3a63e2992a2b32a2a9bc2e5873b44d86568cc142a8abab8d6eb4731c610394565b600e80546001600160a01b0319166001600160a01b0384161790556103077f29cbb5f79d54ad25eee040d74113d0724dacdf0e1f542d4c59645f8d36422476610394565b6040516001600160a01b038316906000907f4803049971913703d2dd43c06110dc7fad451e4603e9f485cbeebdda11263ab0908290a35050506106a7565b60006020835110156103615761035a836103a7565b9050610372565b8161036c8482610563565b5060ff90505b92915050565b600c80546001600160a01b0319169055610391816103e5565b50565b6103918161043760201b61208f1760201c565b600080829050601f815111156103d2578260405163305a27a960e01b81526004016101d19190610635565b80516103dd82610683565b179392505050565b600b80546001600160a01b038381166001600160a01b0319831681179093556040519116919082907f8be0079c531659141344cd1fd0a4f28419497f9722a3daafe3b4186f6b6457e090600090a35050565b60405181815273c0bec0bec0bec0bec0bec0bec0bec0bec0bec0be90600080602083855afa50505050565b6001600160a01b038116811461039157600080fd5b60008060006060848603121561048c57600080fd5b835161049781610462565b60208501519093506104a881610462565b60408501519092506104b981610462565b809150509250925092565b634e487b7160e01b600052604160045260246000fd5b600181811c908216806104ee57607f821691505b60208210810361050e57634e487b7160e01b600052602260045260246000fd5b50919050565b601f82111561055e57806000526020600020601f840160051c8101602085101561053b5750805b601f840160051c820191505b8181101561055b5760008155600101610547565b50505b505050565b81516001600160401b0381111561057c5761057c6104c4565b6105908161058a84546104da565b84610514565b6020601f8211600181146105c457600083156105ac5750848201515b600019600385901b1c1916600184901b17845561055b565b600084815260208120601f198516915b828110156105f457878501518255602094850194600190920191016105d4565b50848210156106125786840151600019600387901b60f8161c191681555b50505050600190811b01905550565b6001600160a01b0391909116815260200190565b602081526000825180602084015260005b818110156106635760208186018101516040868401015201610646565b506000604082850101526040601f19601f83011684010191505092915050565b8051602080830151919081101561050e5760001960209190910360031b1b16919050565b60805160a05160c05160e0516101005161012051610140516101605161380a61071a600039600081816113070152818161218d0152612391015260006126d5015260006126a8015260006124f2015260006124ca015260006124250152600061244f01526000612479015261380a6000f3fe608060405234801561001057600080fd5b506004361061021a5760003560e01c806306fdde031461021f578063095ea7b31461023d578063117de2fd1461026057806318160ddd14610275578063205c28781461028757806323b872dd1461029a5780632b596f6d146102ad5780632f4f21e2146102b5578063313ce567146102c85780633644e515146102e25780633a46b1a8146102ea578063406c66e7146102fd57806341da29801461032457806344b279a2146103445780634bf5d7e91461034d5780635146034a14610355578063587cde1e1461035f5780635c19a95c1461037257806368a9674d146103855780636f307dc3146103985780636fcfff45146103a057806370a08231146103c8578063715018a6146103db57806379b47f40146103e357806379ba5097146103f75780637b103999146103ff5780637ecebe001461041257806384b0196e1461042557806385bc898c146104405780638da5cb5b146104535780638e539e8c1461045b57806391ddadf41461046e578063930004871461048d57806395d89b41146104955780639ab24eb01461049d578063a9059cbb146104b0578063a91ee0dc146104c3578063aabf2d60146104d6578063b2118a8d146104de578063c3cda520146104f1578063d505accf14610504578063dd62ed3e14610517578063e30c39781461052a578063e8ba647114610532578063f1127ed814610545578063f2fde38b14610584575b600080fd5b610227610597565b6040516102349190613305565b60405180910390f35b61025061024b36600461332d565b610629565b6040519015158152602001610234565b61027361026e36600461332d565b61066d565b005b6002545b604051908152602001610234565b61025061029536600461332d565b610801565b6102506102a8366004613359565b6108a7565b6102736108cd565b6102506102c336600461332d565b6109e2565b6102d0610d8f565b60405160ff9091168152602001610234565b610279610dc7565b6102796102f836600461332d565b610dd1565b600f5461031790600160a01b90046001600160401b031681565b604051610234919061339a565b600f54610337906001600160a01b031681565b60405161023491906133ae565b61027960105481565b610227610e0d565b6103176201518081565b61033761036d3660046133c2565b610e61565b6102736103803660046133c2565b610e7f565b610250610393366004613359565b610f9a565b610337611305565b6103b36103ae3660046133c2565b611329565b60405163ffffffff9091168152602001610234565b6102796103d63660046133c2565b611334565b61027361134f565b600f5461025090600160e01b900460ff1681565b61027361139c565b600e54610337906001600160a01b031681565b6102796104203660046133c2565b6113e1565b61042d611415565b60405161023497969594939291906133df565b61027361044e36600461332d565b61145b565b61033761152a565b610279610469366004613477565b611539565b61047661155e565b60405165ffffffffffff9091168152602001610234565b61027361158e565b61022761184d565b6102796104ab3660046133c2565b61185c565b6102506104be36600461332d565b61187d565b6102736104d13660046133c2565b611895565b610273611a1c565b6102736104ec366004613359565b611b8e565b6102736104ff36600461349f565b611d62565b6102736105123660046134fb565b611d8b565b61027961052536600461356c565b611dcc565b610337611df7565b6102736105403660046133c2565b611e06565b6105586105533660046135a5565b612017565b60408051825165ffffffffffff1681526020928301516001600160d01b03169281019290925201610234565b6102736105923660046133c2565b612029565b6060600380546105a6906135dc565b80601f01602080910402602001604051908101604052809291908181526020018280546105d2906135dc565b801561061f5780601f106105f45761010080835404028352916020019161061f565b820191906000526020600020905b81548152906001019060200180831161060257829003601f168201915b5050505050905090565b60006106547f53584a1be8d51c717fdc3bb84f4167fff3115a68ce51fdcc1139d04c059d7a366120ba565b604051638cd22d1960e01b815260040160405180910390fd5b61068460008051602061377e8339815191526120ba565b600e546001600160a01b031633146106c6576106ad6000805160206137be8339815191526120ba565b604051633217675b60e21b815260040160405180910390fd5b6106dd60008051602061379e8339815191526120ba565b6107067fa5559f901806d3a5045759985391e2df3d6d7f5db425fd03c7871e43a6b394176120ba565b60105481111561071557600080fd5b61073e7f403874e3fb6e6667a641a77da10263409807feb782fef85f60300b7d43a3eb8e6120ba565b8060106000828254610750919061362c565b9091555061077f90507feb0af96e669ffd68ebb556a317c62d7e884e7826398c8bb227f3a15808f4e9d86120ba565b61079161078a611305565b83836120c3565b6107ba7f2dc32e1098a7ecc652c2553232de4792f3bc1f32b84b420486997f0acefae19c6120ba565b816001600160a01b03167f5afeca38b2064c23a692c4cf353015d80ab3ecc417b4f893f372690c11fbd9a6826040516107f591815260200190565b60405180910390a25050565b600061081a60008051602061377e8339815191526120ba565b600e546001600160a01b03163314610843576106ad6000805160206137be8339815191526120ba565b61085a60008051602061379e8339815191526120ba565b610862612127565b61088b7fb40138e457f91fd4f8d4b3c3b99d7fadd50527045f54b013c77f31abba94fe6f6120ba565b6108958383612151565b90506108a16001600d55565b92915050565b6000336108b58582856121bc565b6108c0858585612210565b60019150505b9392505050565b6108d561226f565b6108fe7f7407bc606c176d2113cc25668244219a29d0f258bf7532ed962384ec46022db96120ba565b600f54600160e01b900460ff1615610952576109397f5504675a7f342289037efa7d6daa5e3d3d45fa1c5469c1c0abb5fca74343ffe96120ba565b604051630e92b53f60e01b815260040160405180910390fd5b61097b7f4911105418650597a8d51fee451489b667dab6a318347347320a42d3aeccaf8d6120ba565b600f805460ff60e01b1916600160e01b1790556109b77f21daa3944598e7ef6a2a8c93c37ffb284cc63dcb4098bc0e179dcae16ab6b5e36120ba565b6040517f78a4e7d992eeb14841bd804441e7062105649d0bcc77a4c0dfa33b28f438937e90600090a1565b60006109fb60008051602061377e8339815191526120ba565b600e546001600160a01b03163314610a24576106ad6000805160206137be8339815191526120ba565b610a3b60008051602061379e8339815191526120ba565b610a43612127565b610a6c7f2c266c3f74c0cb5a84e05937b9148765d2be708cad89ce8459b6b20da3eae8aa6120ba565b6001600160a01b0383161580610a8a57506001600160a01b03831630145b15610afa57610ab87f94e3adf6c7cc3fa0fb5ac6f34ec7fac5bb191a9e1ffb6cad8d990c66818b82626120ba565b610ae17f1acb93f6a7856b35c49d716c9fb339dbafce4eeb46d6e5766ac61dbf60ca553f6120ba565b60405163d92e233d60e01b815260040160405180910390fd5b610b237f6ce6ec8e90dce25da7d5e61339d128b22fac48080d1221224855cd7dc124f52d6120ba565b6000610b2d611305565b9050610b587fd4584e60d3f96837b2957246d4fc71a9c838346ddf1c1ceebf73dde0fb17dba96120ba565b6040516370a0823160e01b81526000906001600160a01b038316906370a0823190610b879030906004016133ae565b602060405180830381865afa158015610ba4573d6000803e3d6000fd5b505050506040513d601f19601f82011682018060405250810190610bc8919061363f565b9050610bf37f60ebe61f830394906f8d2ada68edccedff043b47f30967c30d3c3f65a84c06cb6120ba565b610c086001600160a01b0383163330876122a3565b610c317ffb8b62c44f47dd7060b85321cb0836eb81aa903f98ab2615be3cee5f9ed69c306120ba565b600081836001600160a01b03166370a08231306040518263ffffffff1660e01b8152600401610c6091906133ae565b602060405180830381865afa158015610c7d573d6000803e3d6000fd5b505050506040513d601f19601f82011682018060405250810190610ca1919061363f565b610cab919061362c565b9050610cd67f5bb95b856d1b63ba753d0af2ea94f7d1cdb957f878ae0ff26a5cfc5090e8181d6120ba565b610ce086826122dc565b610d097f1b767000f30deb7df83dfd2ba767665fff0ac4450f6591fce30d8ea33626d6766120ba565b6000610d1487610e61565b6001600160a01b031603610d5557610d4b7f6ff53e502d4305ef236a50d1b1f32a72e2e0fe7b9748ff2b711dec2281747d186120ba565b610d558687612312565b610d7e7f17d14167abce8af8d53be7f88d37856d03f25f5e36fc91c13c8f8890aba777086120ba565b600193505050506108a16001600d55565b6000610dba7f36a6f8598b6af4a440672d350696082731765e658c2e239364f8312f7aeda0fb6120ba565b610dc261238d565b905090565b6000610dc2612418565b6000610dfd610ddf83612543565b6001600160a01b038516600090815260096020526040902090612592565b6001600160d01b03169392505050565b6060610e387f6ca3d35c1e690d25ad555c2e6800fb7a23c442ce1beabfc4b60a04d7b98aec956120ba565b5060408051808201909152600e81526d06d6f64653d74696d657374616d760941b602082015290565b6001600160a01b039081166000908152600860205260409020541690565b610ea87fc84f37f973c865924285d91bb315bd60f0621398ba6f00e2ae9ab36f436a3fb76120ba565b6001600160a01b0381163314610efa57610ee17fa8a5d064092a2700f5a7c151335356bb930235aded66eb234fe8cdad5d1d0f826120ba565b604051635e81118160e11b815260040160405180910390fd5b610f237fc698d143af280586c5afff979af3f24943d9f61fc69a21802cca27e377f7f3866120ba565b33610f2d81610e61565b6001600160a01b031614610f9757610f647fae2a78eb1573af52ba71ddd94a2af6563e7c1a95d243dc216201aeff992ba6cd6120ba565b610f8d7fd5df225b8f488da67594a2498d80f8827e9bd7e9b472bd420e73ef78fc7038326120ba565b610f973333612312565b50565b6000610fb360008051602061377e8339815191526120ba565b600e546001600160a01b03163314610fdc576106ad6000805160206137be8339815191526120ba565b610ff360008051602061379e8339815191526120ba565b610ffb612127565b6110247fa9aaed60b443825854966101bdaf544f810a15dcb87dd698be8c9aedfdcafca26120ba565b6001600160a01b038316158061104257506001600160a01b03831630145b1561107057610ae17feeef93c2311a7e1d4c798aac98fd72b6c748401d4669f77e16973dc91dc3dac96120ba565b6110997f0b906002d66d1367c78a45d6f854ff033389e21d43b4713f7124c984665656826120ba565b60006110a3611305565b90506110ce7f8ac4d630890fbfaa9df85e6f321bfa439351f737142183c5337445897a69f1b86120ba565b6040516370a0823160e01b81526000906001600160a01b038316906370a08231906110fd9030906004016133ae565b602060405180830381865afa15801561111a573d6000803e3d6000fd5b505050506040513d601f19601f8201168201806040525081019061113e919061363f565b90506111697fff13e4ebd2a3cc37252cc8f21aecc5aac841335da49e5cba8a4076696bbd234e6120ba565b61117e6001600160a01b0383168730876122a3565b6111a77f1cef5cfd7f6bf0156b135472bc56ec0abc13cd7cc95909687e4c203768fc85fe6120ba565b600081836001600160a01b03166370a08231306040518263ffffffff1660e01b81526004016111d691906133ae565b602060405180830381865afa1580156111f3573d6000803e3d6000fd5b505050506040513d601f19601f82011682018060405250810190611217919061363f565b611221919061362c565b905061124c7f3879125d7ed6583205d04451af18040cb98256ffa3a730e411788e17f04a991a6120ba565b61125686826122dc565b61127f7f6f79cc214edffe77d93879ed1573d6218d59b5b60ec7f86bfe8c9cdd1d690b576120ba565b600061128a87610e61565b6001600160a01b0316036112cb576112c17fbd507ef31d0e516be891d081669139abf60d76d6e8d1e4af1facc15d84f929156120ba565b6112cb8687612312565b6112f47fa155bdf715397721066164a74c431c4552a0fcd90e2d54dd0700d6c47224d4bb6120ba565b600193505050506108c66001600d55565b7f000000000000000000000000000000000000000000000000000000000000000090565b60006108a182612648565b6001600160a01b031660009081526020819052604090205490565b61135761226f565b6113807f899c2d7a6b84b8621edb9486030abdd80a8c5ac09f2e98bb5ea2696b193023c76120ba565b6040516001623f026d60e01b0319815260040160405180910390fd5b33806113a6611df7565b6001600160a01b0316146113d8578060405163118cdaa760e01b81526004016113cf91906133ae565b60405180910390fd5b610f978161266a565b600061140c7f2453d7f327a494811b02e79e1fcb7ec979c2cc6e27c119a10f58a50b174455696120ba565b6108a182612683565b6000606080600080600060606114296126a1565b6114316126ce565b60408051600080825260208201909252600f60f81b9b939a50919850469750309650945092509050565b61147260008051602061377e8339815191526120ba565b600e546001600160a01b0316331461149b576106ad6000805160206137be8339815191526120ba565b6114b260008051602061379e8339815191526120ba565b6114db7fa8ece38d1f656faad0d27839cf141bdc9eb408b047957ad7891664898897b69a6120ba565b80601060008282546114ed9190613658565b9091555061151c90507f35290fc65894777eeebbe15622aa13d927fb5ec3c5e6ef4b9d06ad66e2e2c0376120ba565b61152682826126fb565b5050565b600b546001600160a01b031690565b600061154f61154783612543565b600a90612592565b6001600160d01b031692915050565b60006115897fc0e1fb40ec712c3e48a967434981ed48470aaab2e26afd98c7afdb84e1df0d906120ba565b504290565b61159661226f565b6115bf7f64206b4d2b72895d49d00e11d58013292b60847f5b062fdc0159fb7ec5d3607d6120ba565b600f546001600160a01b03166115f47f6fc7c57a698d2975097b37ff7ff25fc265767932d5319707f38ff144b1366c4e6120ba565b6001600160a01b0381166116445761162b7f7d8d621c3cade2e2bf02f2956846dc91e3cc6ba099258ade51dfcdff7668802c6120ba565b604051632810857b60e01b815260040160405180910390fd5b61166d7f5fa484881d641a4778921c1301793bdaf5e34a1483794dee017c8ecfe4b02ef06120ba565b600f54600160a01b90046001600160401b03164210156116f2576116b07fb81571679c9a410d48c322cb97bb0722aa54745fc033a6f343d913a5d9f2f2226120ba565b6116d97f17155874983a347f26b7b908cf9d589d0b11261d5b587fbb27fc90f072b2b6af6120ba565b60405163dc25bbd360e01b815260040160405180910390fd5b61171b7f460c100215b3de3589f505b7a0fa4f77be9f170da9ac71575b909997a265d82c6120ba565b600e546001600160a01b03166117507fc8b1dcfd88c4b17a655ab0cdbc1130e77db7d6e6264e2ac1bc278a00a606aedb6120ba565b600e80546001600160a01b0319166001600160a01b0384161790556117947f27c5168c4a96f20c5104c1607ce68589e045f52c2496501625bd8b2162efdc406120ba565b600f80546001600160a01b03191690556117cd7f379e2d87f641ac3087c88324cc96a6344b39da969d330bfa93521bafdff53e1b6120ba565b600f8054600160a01b600160e01b03191690556118097ff687cff3909469a6fcb0125d55eed71f6e29b829b0dbe9a8653bb6cf78236aa86120ba565b816001600160a01b0316816001600160a01b03167f4803049971913703d2dd43c06110dc7fad451e4603e9f485cbeebdda11263ab060405160405180910390a35050565b6060600480546105a6906135dc565b6001600160a01b038116600090815260096020526040812061154f90612731565b60003361188b818585612210565b5060019392505050565b61189d61226f565b6118c67fc6871e6b06c0425ed44f7ebcaf052d8adaf62a37d9a745ae7de40a7fcaceafd86120ba565b600f54600160e01b900460ff161561191a576119017fd2882ca70cc7922aaa5d4b24bcb19688127709188de0e92d93684718c8493aed6120ba565b60405163e4d1dbdb60e01b815260040160405180910390fd5b6119437f0768ca3f0a06ae44a3142482c3de971314bb6f1ac5cefca027fabc6214ca22f56120ba565b6001600160a01b03811661197a57610ae17f2ada424141ee71a79c0bd283e8955333fcb273d7de3f0829e79432b5495662196120ba565b6119a37ff0f0576fa288746ec85d97d32d798c4c81d1ff98361458fc740d2e25e83eedf16120ba565b600e546001600160a01b03166119d87f12401d5fae99eee2aec75cb542f0d418a861c121998b51d21086c611f052a4d66120ba565b600e80546001600160a01b0319166001600160a01b0384161790556118097f98d630d4c560893c9abb2b50d43e764577ad9a337fcff66b87f63b777ea560d16120ba565b611a2461226f565b611a4d7f7dc73d124db316624299324e402b8f845b98823f5ae3f0e584d06193f35141b66120ba565b600f546001600160a01b0316611a827f958608d94680accfe360229606b03f1f0e29522c3edab8dbf58e316c7ba6b6946120ba565b6001600160a01b038116611ab95761162b7fd798047d90494671668e2efe565ae5018ee0ef4b6731aa9c7c299b4ff4210a796120ba565b611ae27fd940ed328835dedce5c04b440366472640470b4918550c33235175210bf68b146120ba565b600f80546001600160a01b0319169055611b1b7f3c68b98741ff8b70b1bf6537ab74df55e91daf0c5ace159c01c65d000e30df1d6120ba565b600f8054600160a01b600160e01b0319169055611b577f10d866250d62ca5fddaacfd8722de01ff23bdf058fd1478375d1a81c6d0626b06120ba565b6040516001600160a01b038216907fa129fdeaad5381eaad4da2f3131ccb44f798dc53387876fb9ecf6eb3a94c7be890600090a250565b611b9661226f565b611bbf7f6f9ff56df71381977947e7830021dc2724dc52b78b4b2d5a956f63953b7569cc6120ba565b611bc7611305565b6001600160a01b0316836001600160a01b031603611c4a57611c087fef92862fc65b40e66587d8863701083a938ff5211ad34267d21c7976127678136120ba565b611c317f77a64c719d519f7552c73bd2188783b26f83a68a21c5f605f183aacf3e872c4c6120ba565b60405163068a860d60e41b815260040160405180910390fd5b611c737fc2c70429a04f97e0fcbc5e8b1a407cfda7482b7cbf7aa8c62456cd9d8273b1d86120ba565b6001600160a01b038216611caa57610ae17f8978d7a8c8637573f4accf8ad609623a5755d9a6facda3589cf7febbc4a64d8f6120ba565b611cd37f13ffd8683b4883d16ce15ef19d2699ad3bfbe967e91a7b02d9d86ff369da2fe46120ba565b611ce76001600160a01b03841683836120c3565b611d107f57e7f86c1ed7821351f6d54c688cb87edac5377fabf6b3e338bc7effe3e443986120ba565b816001600160a01b0316836001600160a01b03167f8bbfbb5d7fcacf6fc74005cdede0635561638507f576c95f7f294c22141be2e583604051611d5591815260200190565b60405180910390a3505050565b610ee17f3c11500243c00cdae3c7e276d2dbd617d72a810c1448ac2536201c9245d969386120ba565b611db47ff16fa909eabfff95527e2f46ad0a82c149feaa3738b4a07742e0f63fa43317c06120ba565b604051624d381d60e41b815260040160405180910390fd5b6001600160a01b03918216600090815260016020908152604080832093909416825291909152205490565b600c546001600160a01b031690565b611e0e61226f565b611e377fb296e6ab9625776669bc891ab799758adec8accf9027cd649dace88c3427361f6120ba565b600f54600160e01b900460ff16611e8a57611e717f344b4dd7ff99a4819c8ce0463185bb97c5ac8cc657254514831868f6ed2737fd6120ba565b6040516305a2606f60e11b815260040160405180910390fd5b611eb37fbc1de34fa523a4a00092408db3c26e993503da68c8f361ef0e197a1d198832226120ba565b6001600160a01b038116611eea57610ae17f0677ba303302eb606cccaab673d7c90ff48e6ad46ca9b0c42734b8492a9d70766120ba565b611f137f7750ac7425e3590177d4880bb86d3d9ed692b479652c3602426e88143f7783e96120ba565b600f80546001600160a01b0319166001600160a01b038316179055611f577f5181a4267d0c7ce894deef2f85fbb14261683baaff58abe49bbd52b33fc7f2f66120ba565b6000611f66620151804261366b565b9050611f917fbeb3087082fd8dae16acebd2378edd5f0d3c5bb2d081a1acff240c9a96e93c686120ba565b600f8054600160a01b600160e01b031916600160a01b6001600160401b03841602179055611fde7ffc9b6237a740e809deb8d839eb26b0d122bef04e4f729a0741fc620a27a701fb6120ba565b816001600160a01b03167f1801c99f71f2ce0769882ce1c9c5f45a726be342fc22e404fc331e4186a9c12d826040516107f5919061339a565b61201f6132a8565b6108c6838361276a565b61203161226f565b600c80546001600160a01b0319166001600160a01b03831690811790915561205761152a565b6001600160a01b03167f38d16b8cac22d99fc7c124b9cd0de2d3fa1faef420bfe791d8c362d765e2270060405160405180910390a350565b60405181815273c0bec0bec0bec0bec0bec0bec0bec0bec0bec0be90600080602083855afa50505050565b610f978161208f565b6040516001600160a01b0383811660248301526044820183905261212291859182169063a9059cbb906064015b604051602081830303815290604052915060e01b6020820180516001600160e01b038381831617835250505050612794565b505050565b6002600d540361214a57604051633ee5aeb560e01b815260040160405180910390fd5b6002600d55565b6000306001600160a01b0384160361217e578260405163ec442f0560e01b81526004016113cf91906133ae565b61218833836126fb565b6121b37f000000000000000000000000000000000000000000000000000000000000000084846120c3565b50600192915050565b60006121c88484611dcc565b905060001981101561220a57818110156121fb57828183604051637dc7a0d960e11b81526004016113cf9392919061368a565b61220a848484840360006127fc565b50505050565b6001600160a01b03831661223a576000604051634b637e8f60e11b81526004016113cf91906133ae565b6001600160a01b03821661226457600060405163ec442f0560e01b81526004016113cf91906133ae565b6121228383836128d1565b3361227861152a565b6001600160a01b0316146122a1573360405163118cdaa760e01b81526004016113cf91906133ae565b565b6040516001600160a01b03848116602483015283811660448301526064820183905261220a9186918216906323b872dd906084016120f0565b6001600160a01b03821661230657600060405163ec442f0560e01b81526004016113cf91906133ae565b611526600083836128d1565b600061231d83610e61565b6001600160a01b0384811660008181526008602052604080822080546001600160a01b031916888616908117909155905194955093928516927f3134e8a2e6d97e929a7e54011ea5485d7d196dd5f0ba4d4ef95803e8e3fc257f9190a46121228183612388866129a5565b6129b0565b60007f00000000000000000000000000000000000000000000000000000000000000006001600160a01b031663313ce5676040518163ffffffff1660e01b8152600401602060405180830381865afa925050508015612409575060408051601f3d908101601f19168201909252612406918101906136ab565b60015b6124135750601290565b919050565b6000306001600160a01b037f00000000000000000000000000000000000000000000000000000000000000001614801561247157507f000000000000000000000000000000000000000000000000000000000000000046145b1561249b57507f000000000000000000000000000000000000000000000000000000000000000090565b610dc2604080517f8b73c3c69bb8fe3d512ecc4cf759cc79239f7b179b0ffacaa9a75d522b39400f60208201527f0000000000000000000000000000000000000000000000000000000000000000918101919091527f000000000000000000000000000000000000000000000000000000000000000060608201524660808201523060a082015260009060c00160405160208183030381529060405280519060200120905090565b60008061254e61155e565b90508065ffffffffffff16831061258957604051637669fc0f60e11b81526004810184905265ffffffffffff821660248201526044016113cf565b6108c683612af8565b8154600090818160058111156125f15760006125ad84612b2a565b6125b7908561362c565b60008881526020902090915081015465ffffffffffff90811690871610156125e1578091506125ef565b6125ec816001613658565b92505b505b60006125ff87878585612c7d565b9050801561263a576126248761261660018461362c565b600091825260209091200190565b54600160301b90046001600160d01b031661263d565b60005b979650505050505050565b6001600160a01b0381166000908152600960205260408120546108a190612cdf565b600c80546001600160a01b0319169055610f9781612d0b565b6001600160a01b0381166000908152600760205260408120546108a1565b6060610dc27f00000000000000000000000000000000000000000000000000000000000000006005612d5d565b6060610dc27f00000000000000000000000000000000000000000000000000000000000000006006612d5d565b6001600160a01b038216612725576000604051634b637e8f60e11b81526004016113cf91906133ae565b611526826000836128d1565b805460009080156127615761274b8361261660018461362c565b54600160301b90046001600160d01b03166108c6565b60009392505050565b6127726132a8565b6001600160a01b03831660009081526009602052604090206108c69083612e08565b600080602060008451602086016000885af1806127b7576040513d6000823e3d81fd5b50506000513d915081156127cf5780600114156127dc565b6001600160a01b0384163b155b1561220a5783604051635274afe760e01b81526004016113cf91906133ae565b6001600160a01b03841661282657600060405163e602df0560e01b81526004016113cf91906133ae565b6001600160a01b038316612850576000604051634a1406b160e11b81526004016113cf91906133ae565b6001600160a01b038085166000908152600160209081526040808320938716835292905220829055801561220a57826001600160a01b0316846001600160a01b03167f8c5be1e5ebec7d5bd14f71427d1e84f3dd0314c0f7b2291e5b200ac8c7c3b925846040516128c391815260200190565b60405180910390a350505050565b6128fa7f954bf11fe0a1a1ccff7ef81903b84c3d946cbf877911099657f1eccfe85f36856120ba565b6001600160a01b0383161580159061291a57506001600160a01b03821615155b15612971576129487f4524a1717d4b43c9efa78cd294982741ea12bbfc35b1e8b0e67c6a099d4127816120ba565b6106547f2fdd8f2fd779bd9fcf9fd9537a0c7e8b937065c441f941bd9f095f7d64e08b1f6120ba565b61299a7fcc9672e611613d1d66e4444ad9d11382b0bb78a8c406dbde1f4d0364f2ad34a56120ba565b612122838383612e6c565b60006108a182611334565b816001600160a01b0316836001600160a01b0316141580156129d25750600081115b15612122576001600160a01b03831615612a68576001600160a01b03831660009081526009602052604081208190612a1590612ed3612a1086612edf565b612f0e565b6001600160d01b031691506001600160d01b03169150846001600160a01b03166000805160206137de8339815191528383604051612a5d929190918252602082015260400190565b60405180910390a250505b6001600160a01b03821615612122576001600160a01b03821660009081526009602052604081208190612aa190612f47612a1086612edf565b6001600160d01b031691506001600160d01b03169150836001600160a01b03166000805160206137de8339815191528383604051612ae9929190918252602082015260400190565b60405180910390a25050505050565b600065ffffffffffff821115612b26576030826040516306dfcc6560e41b81526004016113cf9291906136c8565b5090565b600060018211612b38575090565b816001600160801b8210612b515760809190911c9060401b5b600160401b8210612b675760409190911c9060201b5b600160201b8210612b7d5760209190911c9060101b5b620100008210612b925760109190911c9060081b5b6101008210612ba65760089190911c9060041b5b60108210612bb95760049190911c9060021b5b60048210612bc55760011b5b600302600190811c90818581612bdd57612bdd6136db565b048201901c90506001818581612bf557612bf56136db565b048201901c90506001818581612c0d57612c0d6136db565b048201901c90506001818581612c2557612c256136db565b048201901c90506001818581612c3d57612c3d6136db565b048201901c90506001818581612c5557612c556136db565b048201901c9050612c74818581612c6e57612c6e6136db565b04821190565b90039392505050565b60005b81831015612cd7576000612c948484612f53565b60008781526020902090915065ffffffffffff86169082015465ffffffffffff161115612cc357809250612cd1565b612cce816001613658565b93505b50612c80565b509392505050565b600063ffffffff821115612b26576020826040516306dfcc6560e41b81526004016113cf9291906136c8565b600b80546001600160a01b038381166001600160a01b0319831681179093556040519116919082907f8be0079c531659141344cd1fd0a4f28419497f9722a3daafe3b4186f6b6457e090600090a35050565b606060ff8314612d7757612d7083612f6e565b90506108a1565b818054612d83906135dc565b80601f0160208091040260200160405190810160405280929190818152602001828054612daf906135dc565b8015612dfc5780601f10612dd157610100808354040283529160200191612dfc565b820191906000526020600020905b815481529060010190602001808311612ddf57829003601f168201915b505050505090506108a1565b612e106132a8565b826000018263ffffffff1681548110612e2b57612e2b6136f1565b60009182526020918290206040805180820190915291015465ffffffffffff81168252600160301b90046001600160d01b0316918101919091529392505050565b612e77838383612fad565b6001600160a01b038316612ec8576000612e9060025490565b90506001600160d01b0380821115612ec557604051630e58ae9360e11b815260048101839052602481018290526044016113cf565b50505b6121228383836130b7565b60006108c68284613707565b60006001600160d01b03821115612b265760d0826040516306dfcc6560e41b81526004016113cf9291906136c8565b600080612f3a612f1c61155e565b612f32612f2888612731565b868863ffffffff16565b879190613116565b915091505b935093915050565b60006108c68284613726565b6000612f626002848418613745565b6108c690848416613658565b60606000612f7b83613124565b604080516020808252818301909252919250600091906020820181803683375050509182525060208101929092525090565b6001600160a01b038316612fd8578060026000828254612fcd9190613658565b909155506130379050565b6001600160a01b038316600090815260208190526040902054818110156130185783818360405163391434e360e21b81526004016113cf9392919061368a565b6001600160a01b03841660009081526020819052604090209082900390555b6001600160a01b03821661305357600280548290039055613072565b6001600160a01b03821660009081526020819052604090208054820190555b816001600160a01b0316836001600160a01b03167fddf252ad1be2c89b69c2b068fc378daa952ba7f163c4a11628f55a4df523b3ef83604051611d5591815260200190565b6001600160a01b0383166130d9576130d6600a612f47612a1084612edf565b50505b6001600160a01b0382166130fb576130f8600a612ed3612a1084612edf565b50505b61212261310784610e61565b61311084610e61565b836129b0565b600080612f3a85858561314c565b600060ff8216601f8111156108a157604051632cd44ac360e21b815260040160405180910390fd5b82546000908190801561324557600061316a8761261660018561362c565b805490915065ffffffffffff80821691600160301b90046001600160d01b03169088168211156131ad57604051632520601d60e01b815260040160405180910390fd5b8765ffffffffffff168265ffffffffffff16036131e657825465ffffffffffff16600160301b6001600160d01b03891602178355613237565b6040805180820190915265ffffffffffff808a1682526001600160d01b03808a1660208085019182528d54600181018f5560008f81529190912094519151909216600160301b029216919091179101555b9450859350612f3f92505050565b50506040805180820190915265ffffffffffff80851682526001600160d01b0380851660208085019182528854600181018a5560008a815291822095519251909316600160301b029190931617920191909155905081612f3f565b6122a1613767565b604080518082019091526000808252602082015290565b6000815180845260005b818110156132e5576020818501810151868301820152016132c9565b506000602082860101526020601f19601f83011685010191505092915050565b6020815260006108c660208301846132bf565b6001600160a01b0381168114610f9757600080fd5b6000806040838503121561334057600080fd5b823561334b81613318565b946020939093013593505050565b60008060006060848603121561336e57600080fd5b833561337981613318565b9250602084013561338981613318565b929592945050506040919091013590565b6001600160401b0391909116815260200190565b6001600160a01b0391909116815260200190565b6000602082840312156133d457600080fd5b81356108c681613318565b60ff60f81b8816815260e0602082015260006133fe60e08301896132bf565b828103604084015261341081896132bf565b606084018890526001600160a01b038716608085015260a0840186905283810360c08501528451808252602080870193509091019060005b81811015613466578351835260209384019390920191600101613448565b50909b9a5050505050505050505050565b60006020828403121561348957600080fd5b5035919050565b60ff81168114610f9757600080fd5b60008060008060008060c087890312156134b857600080fd5b86356134c381613318565b9550602087013594506040870135935060608701356134e181613490565b9598949750929560808101359460a0909101359350915050565b600080600080600080600060e0888a03121561351657600080fd5b873561352181613318565b9650602088013561353181613318565b95506040880135945060608801359350608088013561354f81613490565b9699959850939692959460a0840135945060c09093013592915050565b6000806040838503121561357f57600080fd5b823561358a81613318565b9150602083013561359a81613318565b809150509250929050565b600080604083850312156135b857600080fd5b82356135c381613318565b9150602083013563ffffffff8116811461359a57600080fd5b600181811c908216806135f057607f821691505b60208210810361361057634e487b7160e01b600052602260045260246000fd5b50919050565b634e487b7160e01b600052601160045260246000fd5b818103818111156108a1576108a1613616565b60006020828403121561365157600080fd5b5051919050565b808201808211156108a1576108a1613616565b6001600160401b0381811683821601908111156108a1576108a1613616565b6001600160a01b039390931683526020830191909152604082015260600190565b6000602082840312156136bd57600080fd5b81516108c681613490565b60ff929092168252602082015260400190565b634e487b7160e01b600052601260045260246000fd5b634e487b7160e01b600052603260045260246000fd5b6001600160d01b0382811682821603908111156108a1576108a1613616565b6001600160d01b0381811683821601908111156108a1576108a1613616565b60008261376257634e487b7160e01b600052601260045260246000fd5b500490565b634e487b7160e01b600052605160045260246000fdfee458ae5252f8c92d1e17af90ea9264f0605852ba24096f865dd8c1c6836ea9bd65e5a4998307f2c570a06424f4e9155cfea04cf3dcaa153527692b5ae689bd669c3a529bf1d8a18a1260fa68e33cebfef4534a82419ee5dbbd01675c3a3d1894dec2bacdd2f05b59de34da9b523dff8be42e5e38e818c82fdb0bae774387a724a164736f6c634300081c000a",
  "linkReferences": {},
  "deployedLinkReferences": {},
  "immutableReferences": {
    "4639": [
      {
        "length": 32,
        "start": 4871
      },
      {
        "length": 32,
        "start": 8589
      },
      {
        "length": 32,
        "start": 9105
      }
    ],
    "7977": [
      {
        "length": 32,
        "start": 9337
      }
    ],
    "7979": [
      {
        "length": 32,
        "start": 9295
      }
    ],
    "7981": [
      {
        "length": 32,
        "start": 9253
      }
    ],
    "7983": [
      {
        "length": 32,
        "start": 9418
      }
    ],
    "7985": [
      {
        "length": 32,
        "start": 9458
      }
    ],
    "7988": [
      {
        "length": 32,
        "start": 9896
      }
    ],
    "7991": [
      {
        "length": 32,
        "start": 9941
      }
    ]
  },
  "inputSourceName": "project/contracts/token/InterfoldTicketToken.sol",
  "buildInfoId": "solc-0_8_28-8757bfd0504e62665160df0f9c0661e1d7d47017"
}