{
  "_format": "hh3-artifact-1",
  "contractName": "EnclaveTicketToken",
  "sourceName": "contracts/token/EnclaveTicketToken.sol",
  "abi": [
    {
      "inputs": [
        {
          "internalType": "contract IERC20",
          "name": "baseToken",
          "type": "address"
        },
        {
          "internalType": "address",
          "name": "registry_",
          "type": "address"
        },
        {
          "internalType": "address",
          "name": "initialOwner_",
          "type": "address"
        }
      ],
      "stateMutability": "nonpayable",
      "type": "constructor"
    },
    {
      "inputs": [],
      "name": "CheckpointUnorderedInsertion",
      "type": "error"
    },
    {
      "inputs": [],
      "name": "DelegationLocked",
      "type": "error"
    },
    {
      "inputs": [],
      "name": "ECDSAInvalidSignature",
      "type": "error"
    },
    {
      "inputs": [
        {
          "internalType": "uint256",
          "name": "length",
          "type": "uint256"
        }
      ],
      "name": "ECDSAInvalidSignatureLength",
      "type": "error"
    },
    {
      "inputs": [
        {
          "internalType": "bytes32",
          "name": "s",
          "type": "bytes32"
        }
      ],
      "name": "ECDSAInvalidSignatureS",
      "type": "error"
    },
    {
      "inputs": [
        {
          "internalType": "uint256",
          "name": "increasedSupply",
          "type": "uint256"
        },
        {
          "internalType": "uint256",
          "name": "cap",
          "type": "uint256"
        }
      ],
      "name": "ERC20ExceededSafeSupply",
      "type": "error"
    },
    {
      "inputs": [
        {
          "internalType": "address",
          "name": "spender",
          "type": "address"
        },
        {
          "internalType": "uint256",
          "name": "allowance",
          "type": "uint256"
        },
        {
          "internalType": "uint256",
          "name": "needed",
          "type": "uint256"
        }
      ],
      "name": "ERC20InsufficientAllowance",
      "type": "error"
    },
    {
      "inputs": [
        {
          "internalType": "address",
          "name": "sender",
          "type": "address"
        },
        {
          "internalType": "uint256",
          "name": "balance",
          "type": "uint256"
        },
        {
          "internalType": "uint256",
          "name": "needed",
          "type": "uint256"
        }
      ],
      "name": "ERC20InsufficientBalance",
      "type": "error"
    },
    {
      "inputs": [
        {
          "internalType": "address",
          "name": "approver",
          "type": "address"
        }
      ],
      "name": "ERC20InvalidApprover",
      "type": "error"
    },
    {
      "inputs": [
        {
          "internalType": "address",
          "name": "receiver",
          "type": "address"
        }
      ],
      "name": "ERC20InvalidReceiver",
      "type": "error"
    },
    {
      "inputs": [
        {
          "internalType": "address",
          "name": "sender",
          "type": "address"
        }
      ],
      "name": "ERC20InvalidSender",
      "type": "error"
    },
    {
      "inputs": [
        {
          "internalType": "address",
          "name": "spender",
          "type": "address"
        }
      ],
      "name": "ERC20InvalidSpender",
      "type": "error"
    },
    {
      "inputs": [
        {
          "internalType": "address",
          "name": "token",
          "type": "address"
        }
      ],
      "name": "ERC20InvalidUnderlying",
      "type": "error"
    },
    {
      "inputs": [
        {
          "internalType": "uint256",
          "name": "deadline",
          "type": "uint256"
        }
      ],
      "name": "ERC2612ExpiredSignature",
      "type": "error"
    },
    {
      "inputs": [
        {
          "internalType": "address",
          "name": "signer",
          "type": "address"
        },
        {
          "internalType": "address",
          "name": "owner",
          "type": "address"
        }
      ],
      "name": "ERC2612InvalidSigner",
      "type": "error"
    },
    {
      "inputs": [
        {
          "internalType": "uint256",
          "name": "timepoint",
          "type": "uint256"
        },
        {
          "internalType": "uint48",
          "name": "clock",
          "type": "uint48"
        }
      ],
      "name": "ERC5805FutureLookup",
      "type": "error"
    },
    {
      "inputs": [],
      "name": "ERC6372InconsistentClock",
      "type": "error"
    },
    {
      "inputs": [
        {
          "internalType": "address",
          "name": "account",
          "type": "address"
        },
        {
          "internalType": "uint256",
          "name": "currentNonce",
          "type": "uint256"
        }
      ],
      "name": "InvalidAccountNonce",
      "type": "error"
    },
    {
      "inputs": [],
      "name": "InvalidShortString",
      "type": "error"
    },
    {
      "inputs": [],
      "name": "NotRegistry",
      "type": "error"
    },
    {
      "inputs": [
        {
          "internalType": "address",
          "name": "owner",
          "type": "address"
        }
      ],
      "name": "OwnableInvalidOwner",
      "type": "error"
    },
    {
      "inputs": [
        {
          "internalType": "address",
          "name": "account",
          "type": "address"
        }
      ],
      "name": "OwnableUnauthorizedAccount",
      "type": "error"
    },
    {
      "inputs": [
        {
          "internalType": "uint8",
          "name": "bits",
          "type": "uint8"
        },
        {
          "internalType": "uint256",
          "name": "value",
          "type": "uint256"
        }
      ],
      "name": "SafeCastOverflowedUintDowncast",
      "type": "error"
    },
    {
      "inputs": [
        {
          "internalType": "address",
          "name": "token",
          "type": "address"
        }
      ],
      "name": "SafeERC20FailedOperation",
      "type": "error"
    },
    {
      "inputs": [
        {
          "internalType": "string",
          "name": "str",
          "type": "string"
        }
      ],
      "name": "StringTooLong",
      "type": "error"
    },
    {
      "inputs": [],
      "name": "TransferNotAllowed",
      "type": "error"
    },
    {
      "inputs": [
        {
          "internalType": "uint256",
          "name": "expiry",
          "type": "uint256"
        }
      ],
      "name": "VotesExpiredSignature",
      "type": "error"
    },
    {
      "inputs": [],
      "name": "ZeroAddress",
      "type": "error"
    },
    {
      "anonymous": false,
      "inputs": [
        {
          "indexed": true,
          "internalType": "address",
          "name": "owner",
          "type": "address"
        },
        {
          "indexed": true,
          "internalType": "address",
          "name": "spender",
          "type": "address"
        },
        {
          "indexed": false,
          "internalType": "uint256",
          "name": "value",
          "type": "uint256"
        }
      ],
      "name": "Approval",
      "type": "event"
    },
    {
      "anonymous": false,
      "inputs": [
        {
          "indexed": true,
          "internalType": "address",
          "name": "delegator",
          "type": "address"
        },
        {
          "indexed": true,
          "internalType": "address",
          "name": "fromDelegate",
          "type": "address"
        },
        {
          "indexed": true,
          "internalType": "address",
          "name": "toDelegate",
          "type": "address"
        }
      ],
      "name": "DelegateChanged",
      "type": "event"
    },
    {
      "anonymous": false,
      "inputs": [
        {
          "indexed": true,
          "internalType": "address",
          "name": "delegate",
          "type": "address"
        },
        {
          "indexed": false,
          "internalType": "uint256",
          "name": "previousVotes",
          "type": "uint256"
        },
        {
          "indexed": false,
          "internalType": "uint256",
          "name": "newVotes",
          "type": "uint256"
        }
      ],
      "name": "DelegateVotesChanged",
      "type": "event"
    },
    {
      "anonymous": false,
      "inputs": [],
      "name": "EIP712DomainChanged",
      "type": "event"
    },
    {
      "anonymous": false,
      "inputs": [
        {
          "indexed": true,
          "internalType": "address",
          "name": "previousOwner",
          "type": "address"
        },
        {
          "indexed": true,
          "internalType": "address",
          "name": "newOwner",
          "type": "address"
        }
      ],
      "name": "OwnershipTransferred",
      "type": "event"
    },
    {
      "anonymous": false,
      "inputs": [
        {
          "indexed": true,
          "internalType": "address",
          "name": "from",
          "type": "address"
        },
        {
          "indexed": true,
          "internalType": "address",
          "name": "to",
          "type": "address"
        },
        {
          "indexed": false,
          "internalType": "uint256",
          "name": "value",
          "type": "uint256"
        }
      ],
      "name": "Transfer",
      "type": "event"
    },
    {
      "inputs": [],
      "name": "CLOCK_MODE",
      "outputs": [
        {
          "internalType": "string",
          "name": "",
          "type": "string"
        }
      ],
      "stateMutability": "view",
      "type": "function"
    },
    {
      "inputs": [],
      "name": "DOMAIN_SEPARATOR",
      "outputs": [
        {
          "internalType": "bytes32",
          "name": "",
          "type": "bytes32"
        }
      ],
      "stateMutability": "view",
      "type": "function"
    },
    {
      "inputs": [
        {
          "internalType": "address",
          "name": "owner",
          "type": "address"
        },
        {
          "internalType": "address",
          "name": "spender",
          "type": "address"
        }
      ],
      "name": "allowance",
      "outputs": [
        {
          "internalType": "uint256",
          "name": "",
          "type": "uint256"
        }
      ],
      "stateMutability": "view",
      "type": "function"
    },
    {
      "inputs": [
        {
          "internalType": "address",
          "name": "",
          "type": "address"
        },
        {
          "internalType": "uint256",
          "name": "",
          "type": "uint256"
        }
      ],
      "name": "approve",
      "outputs": [
        {
          "internalType": "bool",
          "name": "",
          "type": "bool"
        }
      ],
      "stateMutability": "pure",
      "type": "function"
    },
    {
      "inputs": [
        {
          "internalType": "address",
          "name": "account",
          "type": "address"
        }
      ],
      "name": "balanceOf",
      "outputs": [
        {
          "internalType": "uint256",
          "name": "",
          "type": "uint256"
        }
      ],
      "stateMutability": "view",
      "type": "function"
    },
    {
      "inputs": [
        {
          "internalType": "address",
          "name": "operator",
          "type": "address"
        },
        {
          "internalType": "uint256",
          "name": "amount",
          "type": "uint256"
        }
      ],
      "name": "burnTickets",
      "outputs": [],
      "stateMutability": "nonpayable",
      "type": "function"
    },
    {
      "inputs": [
        {
          "internalType": "address",
          "name": "account",
          "type": "address"
        },
        {
          "internalType": "uint32",
          "name": "pos",
          "type": "uint32"
        }
      ],
      "name": "checkpoints",
      "outputs": [
        {
          "components": [
            {
              "internalType": "uint48",
              "name": "_key",
              "type": "uint48"
            },
            {
              "internalType": "uint208",
              "name": "_value",
              "type": "uint208"
            }
          ],
          "internalType": "struct Checkpoints.Checkpoint208",
          "name": "",
          "type": "tuple"
        }
      ],
      "stateMutability": "view",
      "type": "function"
    },
    {
      "inputs": [],
      "name": "clock",
      "outputs": [
        {
          "internalType": "uint48",
          "name": "",
          "type": "uint48"
        }
      ],
      "stateMutability": "view",
      "type": "function"
    },
    {
      "inputs": [],
      "name": "decimals",
      "outputs": [
        {
          "internalType": "uint8",
          "name": "",
          "type": "uint8"
        }
      ],
      "stateMutability": "view",
      "type": "function"
    },
    {
      "inputs": [
        {
          "internalType": "address",
          "name": "",
          "type": "address"
        }
      ],
      "name": "delegate",
      "outputs": [],
      "stateMutability": "pure",
      "type": "function"
    },
    {
      "inputs": [
        {
          "internalType": "address",
          "name": "",
          "type": "address"
        },
        {
          "internalType": "uint256",
          "name": "",
          "type": "uint256"
        },
        {
          "internalType": "uint256",
          "name": "",
          "type": "uint256"
        },
        {
          "internalType": "uint8",
          "name": "",
          "type": "uint8"
        },
        {
          "internalType": "bytes32",
          "name": "",
          "type": "bytes32"
        },
        {
          "internalType": "bytes32",
          "name": "",
          "type": "bytes32"
        }
      ],
      "name": "delegateBySig",
      "outputs": [],
      "stateMutability": "pure",
      "type": "function"
    },
    {
      "inputs": [
        {
          "internalType": "address",
          "name": "account",
          "type": "address"
        }
      ],
      "name": "delegates",
      "outputs": [
        {
          "internalType": "address",
          "name": "",
          "type": "address"
        }
      ],
      "stateMutability": "view",
      "type": "function"
    },
    {
      "inputs": [
        {
          "internalType": "address",
          "name": "operator",
          "type": "address"
        },
        {
          "internalType": "uint256",
          "name": "amount",
          "type": "uint256"
        }
      ],
      "name": "depositFor",
      "outputs": [
        {
          "internalType": "bool",
          "name": "success",
          "type": "bool"
        }
      ],
      "stateMutability": "nonpayable",
      "type": "function"
    },
    {
      "inputs": [
        {
          "internalType": "address",
          "name": "from",
          "type": "address"
        },
        {
          "internalType": "address",
          "name": "to",
          "type": "address"
        },
        {
          "internalType": "uint256",
          "name": "amount",
          "type": "uint256"
        }
      ],
      "name": "depositFrom",
      "outputs": [
        {
          "internalType": "bool",
          "name": "",
          "type": "bool"
        }
      ],
      "stateMutability": "nonpayable",
      "type": "function"
    },
    {
      "inputs": [],
      "name": "eip712Domain",
      "outputs": [
        {
          "internalType": "bytes1",
          "name": "fields",
          "type": "bytes1"
        },
        {
          "internalType": "string",
          "name": "name",
          "type": "string"
        },
        {
          "internalType": "string",
          "name": "version",
          "type": "string"
        },
        {
          "internalType": "uint256",
          "name": "chainId",
          "type": "uint256"
        },
        {
          "internalType": "address",
          "name": "verifyingContract",
          "type": "address"
        },
        {
          "internalType": "bytes32",
          "name": "salt",
          "type": "bytes32"
        },
        {
          "internalType": "uint256[]",
          "name": "extensions",
          "type": "uint256[]"
        }
      ],
      "stateMutability": "view",
      "type": "function"
    },
    {
      "inputs": [
        {
          "internalType": "uint256",
          "name": "timepoint",
          "type": "uint256"
        }
      ],
      "name": "getPastTotalSupply",
      "outputs": [
        {
          "internalType": "uint256",
          "name": "",
          "type": "uint256"
        }
      ],
      "stateMutability": "view",
      "type": "function"
    },
    {
      "inputs": [
        {
          "internalType": "address",
          "name": "account",
          "type": "address"
        },
        {
          "internalType": "uint256",
          "name": "timepoint",
          "type": "uint256"
        }
      ],
      "name": "getPastVotes",
      "outputs": [
        {
          "internalType": "uint256",
          "name": "",
          "type": "uint256"
        }
      ],
      "stateMutability": "view",
      "type": "function"
    },
    {
      "inputs": [
        {
          "internalType": "address",
          "name": "account",
          "type": "address"
        }
      ],
      "name": "getVotes",
      "outputs": [
        {
          "internalType": "uint256",
          "name": "",
          "type": "uint256"
        }
      ],
      "stateMutability": "view",
      "type": "function"
    },
    {
      "inputs": [],
      "name": "name",
      "outputs": [
        {
          "internalType": "string",
          "name": "",
          "type": "string"
        }
      ],
      "stateMutability": "view",
      "type": "function"
    },
    {
      "inputs": [
        {
          "internalType": "address",
          "name": "owner",
          "type": "address"
        }
      ],
      "name": "nonces",
      "outputs": [
        {
          "internalType": "uint256",
          "name": "",
          "type": "uint256"
        }
      ],
      "stateMutability": "view",
      "type": "function"
    },
    {
      "inputs": [
        {
          "internalType": "address",
          "name": "account",
          "type": "address"
        }
      ],
      "name": "numCheckpoints",
      "outputs": [
        {
          "internalType": "uint32",
          "name": "",
          "type": "uint32"
        }
      ],
      "stateMutability": "view",
      "type": "function"
    },
    {
      "inputs": [],
      "name": "owner",
      "outputs": [
        {
          "internalType": "address",
          "name": "",
          "type": "address"
        }
      ],
      "stateMutability": "view",
      "type": "function"
    },
    {
      "inputs": [],
      "name": "payableBalance",
      "outputs": [
        {
          "internalType": "uint256",
          "name": "",
          "type": "uint256"
        }
      ],
      "stateMutability": "view",
      "type": "function"
    },
    {
      "inputs": [
        {
          "internalType": "address",
          "name": "to",
          "type": "address"
        },
        {
          "internalType": "uint256",
          "name": "amount",
          "type": "uint256"
        }
      ],
      "name": "payout",
      "outputs": [],
      "stateMutability": "nonpayable",
      "type": "function"
    },
    {
      "inputs": [
        {
          "internalType": "address",
          "name": "owner",
          "type": "address"
        },
        {
          "internalType": "address",
          "name": "spender",
          "type": "address"
        },
        {
          "internalType": "uint256",
          "name": "value",
          "type": "uint256"
        },
        {
          "internalType": "uint256",
          "name": "deadline",
          "type": "uint256"
        },
        {
          "internalType": "uint8",
          "name": "v",
          "type": "uint8"
        },
        {
          "internalType": "bytes32",
          "name": "r",
          "type": "bytes32"
        },
        {
          "internalType": "bytes32",
          "name": "s",
          "type": "bytes32"
        }
      ],
      "name": "permit",
      "outputs": [],
      "stateMutability": "nonpayable",
      "type": "function"
    },
    {
      "inputs": [],
      "name": "registry",
      "outputs": [
        {
          "internalType": "address",
          "name": "",
          "type": "address"
        }
      ],
      "stateMutability": "view",
      "type": "function"
    },
    {
      "inputs": [],
      "name": "renounceOwnership",
      "outputs": [],
      "stateMutability": "nonpayable",
      "type": "function"
    },
    {
      "inputs": [
        {
          "internalType": "address",
          "name": "newRegistry",
          "type": "address"
        }
      ],
      "name": "setRegistry",
      "outputs": [],
      "stateMutability": "nonpayable",
      "type": "function"
    },
    {
      "inputs": [],
      "name": "symbol",
      "outputs": [
        {
          "internalType": "string",
          "name": "",
          "type": "string"
        }
      ],
      "stateMutability": "view",
      "type": "function"
    },
    {
      "inputs": [],
      "name": "totalSupply",
      "outputs": [
        {
          "internalType": "uint256",
          "name": "",
          "type": "uint256"
        }
      ],
      "stateMutability": "view",
      "type": "function"
    },
    {
      "inputs": [
        {
          "internalType": "address",
          "name": "to",
          "type": "address"
        },
        {
          "internalType": "uint256",
          "name": "value",
          "type": "uint256"
        }
      ],
      "name": "transfer",
      "outputs": [
        {
          "internalType": "bool",
          "name": "",
          "type": "bool"
        }
      ],
      "stateMutability": "nonpayable",
      "type": "function"
    },
    {
      "inputs": [
        {
          "internalType": "address",
          "name": "from",
          "type": "address"
        },
        {
          "internalType": "address",
          "name": "to",
          "type": "address"
        },
        {
          "internalType": "uint256",
          "name": "value",
          "type": "uint256"
        }
      ],
      "name": "transferFrom",
      "outputs": [
        {
          "internalType": "bool",
          "name": "",
          "type": "bool"
        }
      ],
      "stateMutability": "nonpayable",
      "type": "function"
    },
    {
      "inputs": [
        {
          "internalType": "address",
          "name": "newOwner",
          "type": "address"
        }
      ],
      "name": "transferOwnership",
      "outputs": [],
      "stateMutability": "nonpayable",
      "type": "function"
    },
    {
      "inputs": [],
      "name": "underlying",
      "outputs": [
        {
          "internalType": "contract IERC20",
          "name": "",
          "type": "address"
        }
      ],
      "stateMutability": "view",
      "type": "function"
    },
    {
      "inputs": [
        {
          "internalType": "address",
          "name": "receiver",
          "type": "address"
        },
        {
          "internalType": "uint256",
          "name": "amount",
          "type": "uint256"
        }
      ],
      "name": "withdrawTo",
      "outputs": [
        {
          "internalType": "bool",
          "name": "success",
          "type": "bool"
        }
      ],
      "stateMutability": "nonpayable",
      "type": "function"
    }
  ],
  "bytecode": "0x610180604052348015610010575f5ffd5b5060405161292e38038061292e83398101604081905261002f9161037d565b82816040518060400160405280601481526020017f456e636c617665205469636b657420546f6b656e00000000000000000000000081525080604051806040016040528060018152602001603160f81b8152506040518060400160405280601481526020017f456e636c617665205469636b657420546f6b656e0000000000000000000000008152506040518060400160405280600381526020016245544b60e81b81525081600390816100e3919061045f565b5060046100f0828261045f565b5061010091508390506005610226565b6101205261010f816006610226565b61014052815160208084019190912060e052815190820120610100524660a05261019b60e05161010051604080517f8b73c3c69bb8fe3d512ecc4cf759cc79239f7b179b0ffacaa9a75d522b39400f60208201529081019290925260608201524660808201523060a08201525f9060c00160405160208183030381529060405280519060200120905090565b60805250503060c052506001600160a01b0381166101d357604051631e4fbdf760e01b81525f60048201526024015b60405180910390fd5b6101dc81610258565b50306001600160a01b038216036102085760405163438d6fe360e01b81523060048201526024016101ca565b6001600160a01b03166101605261021e826102a9565b505050610571565b5f6020835110156102415761023a836102fa565b9050610252565b8161024c848261045f565b5060ff90505b92915050565b600b80546001600160a01b038381166001600160a01b0319831681179093556040519116919082907f8be0079c531659141344cd1fd0a4f28419497f9722a3daafe3b4186f6b6457e0905f90a35050565b6102b1610337565b6001600160a01b0381166102d85760405163d92e233d60e01b815260040160405180910390fd5b600c80546001600160a01b0319166001600160a01b0392909216919091179055565b5f5f829050601f81511115610324578260405163305a27a960e01b81526004016101ca9190610519565b805161032f8261054e565b179392505050565b600b546001600160a01b031633146103645760405163118cdaa760e01b81523360048201526024016101ca565b565b6001600160a01b038116811461037a575f5ffd5b50565b5f5f5f6060848603121561038f575f5ffd5b835161039a81610366565b60208501519093506103ab81610366565b60408501519092506103bc81610366565b809150509250925092565b634e487b7160e01b5f52604160045260245ffd5b600181811c908216806103ef57607f821691505b60208210810361040d57634e487b7160e01b5f52602260045260245ffd5b50919050565b601f82111561045a57805f5260205f20601f840160051c810160208510156104385750805b601f840160051c820191505b81811015610457575f8155600101610444565b50505b505050565b81516001600160401b03811115610478576104786103c7565b61048c8161048684546103db565b84610413565b6020601f8211600181146104be575f83156104a75750848201515b5f19600385901b1c1916600184901b178455610457565b5f84815260208120601f198516915b828110156104ed57878501518255602094850194600190920191016104cd565b508482101561050a57868401515f19600387901b60f8161c191681555b50505050600190811b01905550565b602081525f82518060208401528060208501604085015e5f604082850101526040601f19601f83011684010191505092915050565b8051602080830151919081101561040d575f1960209190910360031b1b16919050565b60805160a05160c05160e0516101005161012051610140516101605161234d6105e15f395f818161084301528181610c2d01528181610d5e0152610e0b01525f61122701525f6111fa01525f610f6b01525f610f4301525f610e9e01525f610ec801525f610ef2015261234d5ff3fe608060405234801561000f575f5ffd5b50600436106101cc575f3560e01c806370a082311161010157806395d89b411161009a57806395d89b41146103f45780639ab24eb0146103fc578063a9059cbb1461040f578063a91ee0dc14610422578063c3cda52014610435578063d505accf14610443578063dd62ed3e14610456578063f1127ed814610469578063f2fde38b146104a8575f5ffd5b806370a082311461032d578063715018a6146103555780637b1039991461035d5780637ecebe001461037057806384b0196e1461038357806385bc898c1461039e5780638da5cb5b146103b15780638e539e8c146103c257806391ddadf4146103d5575f5ffd5b80633644e515116101735780633644e5151461028b5780633a46b1a81461029357806344b279a2146102a65780634bf5d7e9146102af578063587cde1e146102b75780635c19a95c146102d757806368a9674d146102ea5780636f307dc3146102fd5780636fcfff4514610305575f5ffd5b806306fdde03146101d0578063095ea7b3146101ee578063117de2fd1461021157806318160ddd14610226578063205c28781461023857806323b872dd1461024b5780632f4f21e21461025e578063313ce56714610271575b5f5ffd5b6101d86104bb565b6040516101e59190611f5b565b60405180910390f35b6102016101fc366004611f83565b61054b565b60405190151581526020016101e5565b61022461021f366004611f83565b610565565b005b6002545b6040519081526020016101e5565b610201610246366004611f83565b61060e565b610201610259366004611fab565b61064e565b61020161026c366004611f83565b610671565b6102796106cc565b60405160ff90911681526020016101e5565b61022a6106da565b61022a6102a1366004611f83565b6106e3565b61022a600d5481565b6101d861071d565b6102ca6102c5366004611fe5565b610795565b6040516101e59190611ffe565b6102246102e5366004611fe5565b6107b2565b6102016102f8366004611fab565b6107cb565b6102ca610841565b610318610313366004611fe5565b610865565b60405163ffffffff90911681526020016101e5565b61022a61033b366004611fe5565b6001600160a01b03165f9081526020819052604090205490565b61022461086f565b600c546102ca906001600160a01b031681565b61022a61037e366004611fe5565b610882565b61038b61088c565b6040516101e59796959493929190612012565b6102246103ac366004611f83565b6108ce565b600b546001600160a01b03166102ca565b61022a6103d03660046120a8565b61091a565b6103dd61093e565b60405165ffffffffffff90911681526020016101e5565b6101d8610947565b61022a61040a366004611fe5565b610956565b61020161041d366004611f83565b610976565b610224610430366004611fe5565b610983565b6102246102e53660046120cd565b610224610451366004612123565b6109d4565b61022a61046436600461218b565b610b0a565b61047c6104773660046121bc565b610b34565b60408051825165ffffffffffff1681526020928301516001600160d01b031692810192909252016101e5565b6102246104b6366004611fe5565b610b51565b6060600380546104ca906121f9565b80601f01602080910402602001604051908101604052809291908181526020018280546104f6906121f9565b80156105415780601f1061051857610100808354040283529160200191610541565b820191905f5260205f20905b81548152906001019060200180831161052457829003601f168201915b5050505050905090565b5f604051638cd22d1960e01b815260040160405180910390fd5b600c546001600160a01b0316331461059057604051633217675b60e21b815260040160405180910390fd5b600d548111156105e15760405162461bcd60e51b8152602060048201526017602482015276457863656564732070617961626c652062616c616e636560481b60448201526064015b60405180910390fd5b80600d5f8282546105f29190612245565b9091555061060a9050610603610841565b8383610b8e565b5050565b600c545f906001600160a01b0316331461063b57604051633217675b60e21b815260040160405180910390fd5b6106458383610bf2565b90505b92915050565b5f3361065b858285610c5c565b610666858585610cad565b506001949350505050565b600c545f906001600160a01b0316331461069e57604051633217675b60e21b815260040160405180910390fd5b6106a88383610d0a565b90505f6106b484610795565b6001600160a01b031603610648576106488384610d8f565b5f6106d5610e08565b905090565b5f6106d5610e92565b5f61070d6106f083610fbb565b6001600160a01b0385165f90815260096020526040902090611010565b6001600160d01b03169392505050565b60606107276110c0565b65ffffffffffff1661073761093e565b65ffffffffffff161461075d576040516301bfc1c560e61b815260040160405180910390fd5b5060408051808201909152601d81527f6d6f64653d626c6f636b6e756d6265722666726f6d3d64656661756c74000000602082015290565b6001600160a01b039081165f908152600860205260409020541690565b604051635e81118160e11b815260040160405180910390fd5b600c545f906001600160a01b031633146107f857604051633217675b60e21b815260040160405180910390fd5b61080b610803610841565b8530856110ca565b6108158383611103565b5f61081f84610795565b6001600160a01b031603610837576108378384610d8f565b5060019392505050565b7f000000000000000000000000000000000000000000000000000000000000000090565b5f61064882611137565b610877611158565b6108805f611185565b565b5f610648826111d6565b5f6060805f5f5f606061089d6111f3565b6108a5611220565b604080515f80825260208201909252600f60f81b9b939a50919850469750309650945092509050565b600c546001600160a01b031633146108f957604051633217675b60e21b815260040160405180910390fd5b80600d5f82825461090a9190612258565b9091555061060a9050828261124d565b5f61092f61092783610fbb565b600a90611010565b6001600160d01b031692915050565b5f6106d56110c0565b6060600480546104ca906121f9565b6001600160a01b0381165f90815260096020526040812061092f90611281565b5f33610837818585610cad565b61098b611158565b6001600160a01b0381166109b25760405163d92e233d60e01b815260040160405180910390fd5b600c80546001600160a01b0319166001600160a01b0392909216919091179055565b834211156109f85760405163313c898160e11b8152600481018590526024016105d8565b5f7f6e71edae12b1b97f4d1f60370fef10105fa2faae0126114a169c64845d6126c9888888610a438c6001600160a01b03165f90815260076020526040902080546001810190915590565b6040805160208101969096526001600160a01b0394851690860152929091166060840152608083015260a082015260c0810186905260e0016040516020818303038152906040528051906020012090505f610a9d826112b8565b90505f610aac828787876112e4565b9050896001600160a01b0316816001600160a01b031614610af3576040516325c0072360e11b81526001600160a01b0380831660048301528b1660248201526044016105d8565b610afe8a8a8a611310565b50505050505050505050565b6001600160a01b039182165f90815260016020908152604080832093909416825291909152205490565b604080518082019091525f8082526020820152610645838361131d565b610b59611158565b6001600160a01b038116610b82575f604051631e4fbdf760e01b81526004016105d89190611ffe565b610b8b81611185565b50565b6040516001600160a01b03838116602483015260448201839052610bed91859182169063a9059cbb906064015b604051602081830303815290604052915060e01b6020820180516001600160e01b038381831617835250505050611351565b505050565b5f306001600160a01b03841603610c1e578260405163ec442f0560e01b81526004016105d89190611ffe565b610c28338361124d565b610c537f00000000000000000000000000000000000000000000000000000000000000008484610b8e565b50600192915050565b5f610c678484610b0a565b90505f19811015610ca75781811015610c9957828183604051637dc7a0d960e11b81526004016105d89392919061226b565b610ca784848484035f6113b4565b50505050565b6001600160a01b038316610cd6575f604051634b637e8f60e11b81526004016105d89190611ffe565b6001600160a01b038216610cff575f60405163ec442f0560e01b81526004016105d89190611ffe565b610bed838383611486565b5f33308103610d2e5730604051634b637e8f60e11b81526004016105d89190611ffe565b306001600160a01b03851603610d59578360405163ec442f0560e01b81526004016105d89190611ffe565b610d857f00000000000000000000000000000000000000000000000000000000000000008230866110ca565b6108378484611103565b5f610d9983610795565b6001600160a01b038481165f8181526008602052604080822080546001600160a01b031916888616908117909155905194955093928516927f3134e8a2e6d97e929a7e54011ea5485d7d196dd5f0ba4d4ef95803e8e3fc257f9190a4610bed8183610e03866114cf565b6114ec565b5f7f00000000000000000000000000000000000000000000000000000000000000006001600160a01b031663313ce5676040518163ffffffff1660e01b8152600401602060405180830381865afa925050508015610e83575060408051601f3d908101601f19168201909252610e809181019061228c565b60015b610e8d5750601290565b919050565b5f306001600160a01b037f000000000000000000000000000000000000000000000000000000000000000016148015610eea57507f000000000000000000000000000000000000000000000000000000000000000046145b15610f1457507f000000000000000000000000000000000000000000000000000000000000000090565b6106d5604080517f8b73c3c69bb8fe3d512ecc4cf759cc79239f7b179b0ffacaa9a75d522b39400f60208201527f0000000000000000000000000000000000000000000000000000000000000000918101919091527f000000000000000000000000000000000000000000000000000000000000000060608201524660808201523060a08201525f9060c00160405160208183030381529060405280519060200120905090565b5f5f610fc561093e565b90508065ffffffffffff16831061100057604051637669fc0f60e11b81526004810184905265ffffffffffff821660248201526044016105d8565b61100983611655565b9392505050565b81545f908181600581111561106c575f6110298461168b565b6110339085612245565b5f8881526020902090915081015465ffffffffffff908116908716101561105c5780915061106a565b611067816001612258565b92505b505b5f611079878785856117de565b905080156110b35761109d87611090600184612245565b5f91825260209091200190565b54600160301b90046001600160d01b03166110b5565b5f5b979650505050505050565b5f6106d543611655565b6040516001600160a01b038481166024830152838116604483015260648201839052610ca79186918216906323b872dd90608401610bbb565b6001600160a01b03821661112c575f60405163ec442f0560e01b81526004016105d89190611ffe565b61060a5f8383611486565b6001600160a01b0381165f908152600960205260408120546106489061183d565b600b546001600160a01b03163314610880573360405163118cdaa760e01b81526004016105d89190611ffe565b600b80546001600160a01b038381166001600160a01b0319831681179093556040519116919082907f8be0079c531659141344cd1fd0a4f28419497f9722a3daafe3b4186f6b6457e0905f90a35050565b6001600160a01b0381165f90815260076020526040812054610648565b60606106d57f0000000000000000000000000000000000000000000000000000000000000000600561186d565b60606106d57f0000000000000000000000000000000000000000000000000000000000000000600661186d565b6001600160a01b038216611276575f604051634b637e8f60e11b81526004016105d89190611ffe565b61060a825f83611486565b80545f9080156112b05761129a83611090600184612245565b54600160301b90046001600160d01b0316611009565b5f9392505050565b5f6106486112c4610e92565b8360405161190160f01b8152600281019290925260228201526042902090565b5f5f5f5f6112f488888888611916565b92509250925061130482826119d4565b50909695505050505050565b610bed83838360016113b4565b604080518082019091525f80825260208201526001600160a01b0383165f9081526009602052604090206106459083611a8c565b5f5f60205f8451602086015f885af180611370576040513d5f823e3d81fd5b50505f513d91508115611387578060011415611394565b6001600160a01b0384163b155b15610ca75783604051635274afe760e01b81526004016105d89190611ffe565b6001600160a01b0384166113dd575f60405163e602df0560e01b81526004016105d89190611ffe565b6001600160a01b038316611406575f604051634a1406b160e11b81526004016105d89190611ffe565b6001600160a01b038085165f9081526001602090815260408083209387168352929052208290558015610ca757826001600160a01b0316846001600160a01b03167f8c5be1e5ebec7d5bd14f71427d1e84f3dd0314c0f7b2291e5b200ac8c7c3b9258460405161147891815260200190565b60405180910390a350505050565b6001600160a01b038316158015906114a657506001600160a01b03821615155b156114c457604051638cd22d1960e01b815260040160405180910390fd5b610bed838383611af9565b6001600160a01b0381165f90815260208190526040812054610648565b816001600160a01b0316836001600160a01b03161415801561150d57505f81115b15610bed576001600160a01b038316156115b4576001600160a01b0383165f908152600960205260408120819061154f90611b5f61154a86611b6a565b611b9d565b6001600160d01b031691506001600160d01b03169150846001600160a01b03167fdec2bacdd2f05b59de34da9b523dff8be42e5e38e818c82fdb0bae774387a72483836040516115a9929190918252602082015260400190565b60405180910390a250505b6001600160a01b03821615610bed576001600160a01b0382165f90815260096020526040812081906115ec90611bd561154a86611b6a565b6001600160d01b031691506001600160d01b03169150836001600160a01b03167fdec2bacdd2f05b59de34da9b523dff8be42e5e38e818c82fdb0bae774387a7248383604051611646929190918252602082015260400190565b60405180910390a25050505050565b5f65ffffffffffff821115611687576040516306dfcc6560e41b815260306004820152602481018390526044016105d8565b5090565b5f60018211611698575090565b816001600160801b82106116b15760809190911c9060401b5b600160401b82106116c75760409190911c9060201b5b64010000000082106116de5760209190911c9060101b5b6201000082106116f35760109190911c9060081b5b61010082106117075760089190911c9060041b5b6010821061171a5760049190911c9060021b5b600482106117265760011b5b600302600190811c9081858161173e5761173e6122a7565b048201901c90506001818581611756576117566122a7565b048201901c9050600181858161176e5761176e6122a7565b048201901c90506001818581611786576117866122a7565b048201901c9050600181858161179e5761179e6122a7565b048201901c905060018185816117b6576117b66122a7565b048201901c90506117d58185816117cf576117cf6122a7565b04821190565b90039392505050565b5f5b81831015611835575f6117f38484611be0565b5f8781526020902090915065ffffffffffff86169082015465ffffffffffff1611156118215780925061182f565b61182c816001612258565b93505b506117e0565b509392505050565b5f63ffffffff821115611687576040516306dfcc6560e41b815260206004820152602481018390526044016105d8565b606060ff83146118875761188083611bfa565b9050610648565b818054611893906121f9565b80601f01602080910402602001604051908101604052809291908181526020018280546118bf906121f9565b801561190a5780601f106118e15761010080835404028352916020019161190a565b820191905f5260205f20905b8154815290600101906020018083116118ed57829003601f168201915b50505050509050610648565b5f80806fa2a8918ca85bafe22016d0b997e4df60600160ff1b0384111561194557505f915060039050826119ca565b604080515f808252602082018084528a905260ff891692820192909252606081018790526080810186905260019060a0016020604051602081039080840390855afa158015611996573d5f5f3e3d5ffd5b5050604051601f1901519150506001600160a01b0381166119c157505f9250600191508290506119ca565b92505f91508190505b9450945094915050565b5f8260038111156119e7576119e76122bb565b036119f0575050565b6001826003811115611a0457611a046122bb565b03611a225760405163f645eedf60e01b815260040160405180910390fd5b6002826003811115611a3657611a366122bb565b03611a575760405163fce698f760e01b8152600481018290526024016105d8565b6003826003811115611a6b57611a6b6122bb565b0361060a576040516335e2f38360e21b8152600481018290526024016105d8565b604080518082019091525f8082526020820152825f018263ffffffff1681548110611ab957611ab96122cf565b5f9182526020918290206040805180820190915291015465ffffffffffff81168252600160301b90046001600160d01b0316918101919091529392505050565b611b04838383611c37565b6001600160a01b038316611b54575f611b1c60025490565b90506001600160d01b0380821115611b5157604051630e58ae9360e11b815260048101839052602481018290526044016105d8565b50505b610bed838383611d4a565b5f61064582846122e3565b5f6001600160d01b03821115611687576040516306dfcc6560e41b815260d06004820152602481018390526044016105d8565b5f5f611bc8611baa61093e565b611bc0611bb688611281565b868863ffffffff16565b879190611da9565b915091505b935093915050565b5f6106458284612302565b5f611bee6002848418612321565b61064590848416612258565b60605f611c0683611db6565b6040805160208082528183019092529192505f91906020820181803683375050509182525060208101929092525090565b6001600160a01b038316611c61578060025f828254611c569190612258565b90915550611cbe9050565b6001600160a01b0383165f9081526020819052604090205481811015611ca05783818360405163391434e360e21b81526004016105d89392919061226b565b6001600160a01b0384165f9081526020819052604090209082900390555b6001600160a01b038216611cda57600280548290039055611cf8565b6001600160a01b0382165f9081526020819052604090208054820190555b816001600160a01b0316836001600160a01b03167fddf252ad1be2c89b69c2b068fc378daa952ba7f163c4a11628f55a4df523b3ef83604051611d3d91815260200190565b60405180910390a3505050565b6001600160a01b038316611d6c57611d69600a611bd561154a84611b6a565b50505b6001600160a01b038216611d8e57611d8b600a611b5f61154a84611b6a565b50505b610bed611d9a84610795565b611da384610795565b836114ec565b5f80611bc8858585611ddd565b5f60ff8216601f81111561064857604051632cd44ac360e21b815260040160405180910390fd5b82545f9081908015611ed3575f611df987611090600185612245565b805490915065ffffffffffff80821691600160301b90046001600160d01b0316908816821115611e3c57604051632520601d60e01b815260040160405180910390fd5b8765ffffffffffff168265ffffffffffff1603611e7557825465ffffffffffff16600160301b6001600160d01b03891602178355611ec5565b6040805180820190915265ffffffffffff808a1682526001600160d01b03808a1660208085019182528d54600181018f555f8f81529190912094519151909216600160301b029216919091179101555b9450859350611bcd92505050565b50506040805180820190915265ffffffffffff80851682526001600160d01b0380851660208085019182528854600181018a555f8a815291822095519251909316600160301b029190931617920191909155905081611bcd565b5f81518084528060208401602086015e5f602082860101526020601f19601f83011685010191505092915050565b602081525f6106456020830184611f2d565b80356001600160a01b0381168114610e8d575f5ffd5b5f5f60408385031215611f94575f5ffd5b611f9d83611f6d565b946020939093013593505050565b5f5f5f60608486031215611fbd575f5ffd5b611fc684611f6d565b9250611fd460208501611f6d565b929592945050506040919091013590565b5f60208284031215611ff5575f5ffd5b61064582611f6d565b6001600160a01b0391909116815260200190565b60ff60f81b8816815260e060208201525f61203060e0830189611f2d565b82810360408401526120428189611f2d565b606084018890526001600160a01b038716608085015260a0840186905283810360c0850152845180825260208087019350909101905f5b81811015612097578351835260209384019390920191600101612079565b50909b9a5050505050505050505050565b5f602082840312156120b8575f5ffd5b5035919050565b60ff81168114610b8b575f5ffd5b5f5f5f5f5f5f60c087890312156120e2575f5ffd5b6120eb87611f6d565b955060208701359450604087013593506060870135612109816120bf565b9598949750929560808101359460a0909101359350915050565b5f5f5f5f5f5f5f60e0888a031215612139575f5ffd5b61214288611f6d565b965061215060208901611f6d565b95506040880135945060608801359350608088013561216e816120bf565b9699959850939692959460a0840135945060c09093013592915050565b5f5f6040838503121561219c575f5ffd5b6121a583611f6d565b91506121b360208401611f6d565b90509250929050565b5f5f604083850312156121cd575f5ffd5b6121d683611f6d565b9150602083013563ffffffff811681146121ee575f5ffd5b809150509250929050565b600181811c9082168061220d57607f821691505b60208210810361222b57634e487b7160e01b5f52602260045260245ffd5b50919050565b634e487b7160e01b5f52601160045260245ffd5b8181038181111561064857610648612231565b8082018082111561064857610648612231565b6001600160a01b039390931683526020830191909152604082015260600190565b5f6020828403121561229c575f5ffd5b8151611009816120bf565b634e487b7160e01b5f52601260045260245ffd5b634e487b7160e01b5f52602160045260245ffd5b634e487b7160e01b5f52603260045260245ffd5b6001600160d01b03828116828216039081111561064857610648612231565b6001600160d01b03818116838216019081111561064857610648612231565b5f8261233b57634e487b7160e01b5f52601260045260245ffd5b50049056fea164736f6c634300081c000a",
  "linkReferences": {},
  "deployedLinkReferences": {},
  "immutableReferences": {
    "3415": [
      {
        "length": 32,
        "start": 2115
      },
      {
        "length": 32,
        "start": 3117
      },
      {
        "length": 32,
        "start": 3422
      },
      {
        "length": 32,
        "start": 3595
      }
    ],
    "6684": [
      {
        "length": 32,
        "start": 3826
      }
    ],
    "6686": [
      {
        "length": 32,
        "start": 3784
      }
    ],
    "6688": [
      {
        "length": 32,
        "start": 3742
      }
    ],
    "6690": [
      {
        "length": 32,
        "start": 3907
      }
    ],
    "6692": [
      {
        "length": 32,
        "start": 3947
      }
    ],
    "6695": [
      {
        "length": 32,
        "start": 4602
      }
    ],
    "6698": [
      {
        "length": 32,
        "start": 4647
      }
    ]
  },
  "inputSourceName": "project/contracts/token/EnclaveTicketToken.sol",
  "buildInfoId": "solc-0_8_28-15d7734d5573c9c7fd167defb7acf0fe3bbd3190"
}