{
  "_format": "hh3-artifact-1",
  "contractName": "EnclaveTicketToken",
  "sourceName": "contracts/token/EnclaveTicketToken.sol",
  "abi": [
    {
      "inputs": [
        {
          "internalType": "contract IERC20",
          "name": "baseToken",
          "type": "address"
        },
        {
          "internalType": "address",
          "name": "registry_",
          "type": "address"
        },
        {
          "internalType": "address",
          "name": "initialOwner_",
          "type": "address"
        }
      ],
      "stateMutability": "nonpayable",
      "type": "constructor"
    },
    {
      "inputs": [],
      "name": "CheckpointUnorderedInsertion",
      "type": "error"
    },
    {
      "inputs": [],
      "name": "DelegationLocked",
      "type": "error"
    },
    {
      "inputs": [],
      "name": "ECDSAInvalidSignature",
      "type": "error"
    },
    {
      "inputs": [
        {
          "internalType": "uint256",
          "name": "length",
          "type": "uint256"
        }
      ],
      "name": "ECDSAInvalidSignatureLength",
      "type": "error"
    },
    {
      "inputs": [
        {
          "internalType": "bytes32",
          "name": "s",
          "type": "bytes32"
        }
      ],
      "name": "ECDSAInvalidSignatureS",
      "type": "error"
    },
    {
      "inputs": [
        {
          "internalType": "uint256",
          "name": "increasedSupply",
          "type": "uint256"
        },
        {
          "internalType": "uint256",
          "name": "cap",
          "type": "uint256"
        }
      ],
      "name": "ERC20ExceededSafeSupply",
      "type": "error"
    },
    {
      "inputs": [
        {
          "internalType": "address",
          "name": "spender",
          "type": "address"
        },
        {
          "internalType": "uint256",
          "name": "allowance",
          "type": "uint256"
        },
        {
          "internalType": "uint256",
          "name": "needed",
          "type": "uint256"
        }
      ],
      "name": "ERC20InsufficientAllowance",
      "type": "error"
    },
    {
      "inputs": [
        {
          "internalType": "address",
          "name": "sender",
          "type": "address"
        },
        {
          "internalType": "uint256",
          "name": "balance",
          "type": "uint256"
        },
        {
          "internalType": "uint256",
          "name": "needed",
          "type": "uint256"
        }
      ],
      "name": "ERC20InsufficientBalance",
      "type": "error"
    },
    {
      "inputs": [
        {
          "internalType": "address",
          "name": "approver",
          "type": "address"
        }
      ],
      "name": "ERC20InvalidApprover",
      "type": "error"
    },
    {
      "inputs": [
        {
          "internalType": "address",
          "name": "receiver",
          "type": "address"
        }
      ],
      "name": "ERC20InvalidReceiver",
      "type": "error"
    },
    {
      "inputs": [
        {
          "internalType": "address",
          "name": "sender",
          "type": "address"
        }
      ],
      "name": "ERC20InvalidSender",
      "type": "error"
    },
    {
      "inputs": [
        {
          "internalType": "address",
          "name": "spender",
          "type": "address"
        }
      ],
      "name": "ERC20InvalidSpender",
      "type": "error"
    },
    {
      "inputs": [
        {
          "internalType": "address",
          "name": "token",
          "type": "address"
        }
      ],
      "name": "ERC20InvalidUnderlying",
      "type": "error"
    },
    {
      "inputs": [
        {
          "internalType": "uint256",
          "name": "deadline",
          "type": "uint256"
        }
      ],
      "name": "ERC2612ExpiredSignature",
      "type": "error"
    },
    {
      "inputs": [
        {
          "internalType": "address",
          "name": "signer",
          "type": "address"
        },
        {
          "internalType": "address",
          "name": "owner",
          "type": "address"
        }
      ],
      "name": "ERC2612InvalidSigner",
      "type": "error"
    },
    {
      "inputs": [
        {
          "internalType": "uint256",
          "name": "timepoint",
          "type": "uint256"
        },
        {
          "internalType": "uint48",
          "name": "clock",
          "type": "uint48"
        }
      ],
      "name": "ERC5805FutureLookup",
      "type": "error"
    },
    {
      "inputs": [],
      "name": "ERC6372InconsistentClock",
      "type": "error"
    },
    {
      "inputs": [
        {
          "internalType": "address",
          "name": "account",
          "type": "address"
        },
        {
          "internalType": "uint256",
          "name": "currentNonce",
          "type": "uint256"
        }
      ],
      "name": "InvalidAccountNonce",
      "type": "error"
    },
    {
      "inputs": [],
      "name": "InvalidShortString",
      "type": "error"
    },
    {
      "inputs": [],
      "name": "NotRegistry",
      "type": "error"
    },
    {
      "inputs": [
        {
          "internalType": "address",
          "name": "owner",
          "type": "address"
        }
      ],
      "name": "OwnableInvalidOwner",
      "type": "error"
    },
    {
      "inputs": [
        {
          "internalType": "address",
          "name": "account",
          "type": "address"
        }
      ],
      "name": "OwnableUnauthorizedAccount",
      "type": "error"
    },
    {
      "inputs": [
        {
          "internalType": "uint8",
          "name": "bits",
          "type": "uint8"
        },
        {
          "internalType": "uint256",
          "name": "value",
          "type": "uint256"
        }
      ],
      "name": "SafeCastOverflowedUintDowncast",
      "type": "error"
    },
    {
      "inputs": [
        {
          "internalType": "address",
          "name": "token",
          "type": "address"
        }
      ],
      "name": "SafeERC20FailedOperation",
      "type": "error"
    },
    {
      "inputs": [
        {
          "internalType": "string",
          "name": "str",
          "type": "string"
        }
      ],
      "name": "StringTooLong",
      "type": "error"
    },
    {
      "inputs": [],
      "name": "TransferNotAllowed",
      "type": "error"
    },
    {
      "inputs": [
        {
          "internalType": "uint256",
          "name": "expiry",
          "type": "uint256"
        }
      ],
      "name": "VotesExpiredSignature",
      "type": "error"
    },
    {
      "inputs": [],
      "name": "ZeroAddress",
      "type": "error"
    },
    {
      "anonymous": false,
      "inputs": [
        {
          "indexed": true,
          "internalType": "address",
          "name": "owner",
          "type": "address"
        },
        {
          "indexed": true,
          "internalType": "address",
          "name": "spender",
          "type": "address"
        },
        {
          "indexed": false,
          "internalType": "uint256",
          "name": "value",
          "type": "uint256"
        }
      ],
      "name": "Approval",
      "type": "event"
    },
    {
      "anonymous": false,
      "inputs": [
        {
          "indexed": true,
          "internalType": "address",
          "name": "delegator",
          "type": "address"
        },
        {
          "indexed": true,
          "internalType": "address",
          "name": "fromDelegate",
          "type": "address"
        },
        {
          "indexed": true,
          "internalType": "address",
          "name": "toDelegate",
          "type": "address"
        }
      ],
      "name": "DelegateChanged",
      "type": "event"
    },
    {
      "anonymous": false,
      "inputs": [
        {
          "indexed": true,
          "internalType": "address",
          "name": "delegate",
          "type": "address"
        },
        {
          "indexed": false,
          "internalType": "uint256",
          "name": "previousVotes",
          "type": "uint256"
        },
        {
          "indexed": false,
          "internalType": "uint256",
          "name": "newVotes",
          "type": "uint256"
        }
      ],
      "name": "DelegateVotesChanged",
      "type": "event"
    },
    {
      "anonymous": false,
      "inputs": [],
      "name": "EIP712DomainChanged",
      "type": "event"
    },
    {
      "anonymous": false,
      "inputs": [
        {
          "indexed": true,
          "internalType": "address",
          "name": "previousOwner",
          "type": "address"
        },
        {
          "indexed": true,
          "internalType": "address",
          "name": "newOwner",
          "type": "address"
        }
      ],
      "name": "OwnershipTransferred",
      "type": "event"
    },
    {
      "anonymous": false,
      "inputs": [
        {
          "indexed": true,
          "internalType": "address",
          "name": "to",
          "type": "address"
        },
        {
          "indexed": false,
          "internalType": "uint256",
          "name": "amount",
          "type": "uint256"
        }
      ],
      "name": "Payout",
      "type": "event"
    },
    {
      "anonymous": false,
      "inputs": [
        {
          "indexed": true,
          "internalType": "address",
          "name": "newRegistry",
          "type": "address"
        }
      ],
      "name": "RegistrySet",
      "type": "event"
    },
    {
      "anonymous": false,
      "inputs": [
        {
          "indexed": true,
          "internalType": "address",
          "name": "from",
          "type": "address"
        },
        {
          "indexed": true,
          "internalType": "address",
          "name": "to",
          "type": "address"
        },
        {
          "indexed": false,
          "internalType": "uint256",
          "name": "value",
          "type": "uint256"
        }
      ],
      "name": "Transfer",
      "type": "event"
    },
    {
      "inputs": [],
      "name": "CLOCK_MODE",
      "outputs": [
        {
          "internalType": "string",
          "name": "",
          "type": "string"
        }
      ],
      "stateMutability": "view",
      "type": "function"
    },
    {
      "inputs": [],
      "name": "DOMAIN_SEPARATOR",
      "outputs": [
        {
          "internalType": "bytes32",
          "name": "",
          "type": "bytes32"
        }
      ],
      "stateMutability": "view",
      "type": "function"
    },
    {
      "inputs": [
        {
          "internalType": "address",
          "name": "owner",
          "type": "address"
        },
        {
          "internalType": "address",
          "name": "spender",
          "type": "address"
        }
      ],
      "name": "allowance",
      "outputs": [
        {
          "internalType": "uint256",
          "name": "",
          "type": "uint256"
        }
      ],
      "stateMutability": "view",
      "type": "function"
    },
    {
      "inputs": [
        {
          "internalType": "address",
          "name": "",
          "type": "address"
        },
        {
          "internalType": "uint256",
          "name": "",
          "type": "uint256"
        }
      ],
      "name": "approve",
      "outputs": [
        {
          "internalType": "bool",
          "name": "",
          "type": "bool"
        }
      ],
      "stateMutability": "pure",
      "type": "function"
    },
    {
      "inputs": [
        {
          "internalType": "address",
          "name": "account",
          "type": "address"
        }
      ],
      "name": "balanceOf",
      "outputs": [
        {
          "internalType": "uint256",
          "name": "",
          "type": "uint256"
        }
      ],
      "stateMutability": "view",
      "type": "function"
    },
    {
      "inputs": [
        {
          "internalType": "address",
          "name": "operator",
          "type": "address"
        },
        {
          "internalType": "uint256",
          "name": "amount",
          "type": "uint256"
        }
      ],
      "name": "burnTickets",
      "outputs": [],
      "stateMutability": "nonpayable",
      "type": "function"
    },
    {
      "inputs": [
        {
          "internalType": "address",
          "name": "account",
          "type": "address"
        },
        {
          "internalType": "uint32",
          "name": "pos",
          "type": "uint32"
        }
      ],
      "name": "checkpoints",
      "outputs": [
        {
          "components": [
            {
              "internalType": "uint48",
              "name": "_key",
              "type": "uint48"
            },
            {
              "internalType": "uint208",
              "name": "_value",
              "type": "uint208"
            }
          ],
          "internalType": "struct Checkpoints.Checkpoint208",
          "name": "",
          "type": "tuple"
        }
      ],
      "stateMutability": "view",
      "type": "function"
    },
    {
      "inputs": [],
      "name": "clock",
      "outputs": [
        {
          "internalType": "uint48",
          "name": "",
          "type": "uint48"
        }
      ],
      "stateMutability": "view",
      "type": "function"
    },
    {
      "inputs": [],
      "name": "decimals",
      "outputs": [
        {
          "internalType": "uint8",
          "name": "",
          "type": "uint8"
        }
      ],
      "stateMutability": "view",
      "type": "function"
    },
    {
      "inputs": [
        {
          "internalType": "address",
          "name": "",
          "type": "address"
        }
      ],
      "name": "delegate",
      "outputs": [],
      "stateMutability": "pure",
      "type": "function"
    },
    {
      "inputs": [
        {
          "internalType": "address",
          "name": "",
          "type": "address"
        },
        {
          "internalType": "uint256",
          "name": "",
          "type": "uint256"
        },
        {
          "internalType": "uint256",
          "name": "",
          "type": "uint256"
        },
        {
          "internalType": "uint8",
          "name": "",
          "type": "uint8"
        },
        {
          "internalType": "bytes32",
          "name": "",
          "type": "bytes32"
        },
        {
          "internalType": "bytes32",
          "name": "",
          "type": "bytes32"
        }
      ],
      "name": "delegateBySig",
      "outputs": [],
      "stateMutability": "pure",
      "type": "function"
    },
    {
      "inputs": [
        {
          "internalType": "address",
          "name": "account",
          "type": "address"
        }
      ],
      "name": "delegates",
      "outputs": [
        {
          "internalType": "address",
          "name": "",
          "type": "address"
        }
      ],
      "stateMutability": "view",
      "type": "function"
    },
    {
      "inputs": [
        {
          "internalType": "address",
          "name": "operator",
          "type": "address"
        },
        {
          "internalType": "uint256",
          "name": "amount",
          "type": "uint256"
        }
      ],
      "name": "depositFor",
      "outputs": [
        {
          "internalType": "bool",
          "name": "success",
          "type": "bool"
        }
      ],
      "stateMutability": "nonpayable",
      "type": "function"
    },
    {
      "inputs": [
        {
          "internalType": "address",
          "name": "from",
          "type": "address"
        },
        {
          "internalType": "address",
          "name": "to",
          "type": "address"
        },
        {
          "internalType": "uint256",
          "name": "amount",
          "type": "uint256"
        }
      ],
      "name": "depositFrom",
      "outputs": [
        {
          "internalType": "bool",
          "name": "",
          "type": "bool"
        }
      ],
      "stateMutability": "nonpayable",
      "type": "function"
    },
    {
      "inputs": [],
      "name": "eip712Domain",
      "outputs": [
        {
          "internalType": "bytes1",
          "name": "fields",
          "type": "bytes1"
        },
        {
          "internalType": "string",
          "name": "name",
          "type": "string"
        },
        {
          "internalType": "string",
          "name": "version",
          "type": "string"
        },
        {
          "internalType": "uint256",
          "name": "chainId",
          "type": "uint256"
        },
        {
          "internalType": "address",
          "name": "verifyingContract",
          "type": "address"
        },
        {
          "internalType": "bytes32",
          "name": "salt",
          "type": "bytes32"
        },
        {
          "internalType": "uint256[]",
          "name": "extensions",
          "type": "uint256[]"
        }
      ],
      "stateMutability": "view",
      "type": "function"
    },
    {
      "inputs": [
        {
          "internalType": "uint256",
          "name": "timepoint",
          "type": "uint256"
        }
      ],
      "name": "getPastTotalSupply",
      "outputs": [
        {
          "internalType": "uint256",
          "name": "",
          "type": "uint256"
        }
      ],
      "stateMutability": "view",
      "type": "function"
    },
    {
      "inputs": [
        {
          "internalType": "address",
          "name": "account",
          "type": "address"
        },
        {
          "internalType": "uint256",
          "name": "timepoint",
          "type": "uint256"
        }
      ],
      "name": "getPastVotes",
      "outputs": [
        {
          "internalType": "uint256",
          "name": "",
          "type": "uint256"
        }
      ],
      "stateMutability": "view",
      "type": "function"
    },
    {
      "inputs": [
        {
          "internalType": "address",
          "name": "account",
          "type": "address"
        }
      ],
      "name": "getVotes",
      "outputs": [
        {
          "internalType": "uint256",
          "name": "",
          "type": "uint256"
        }
      ],
      "stateMutability": "view",
      "type": "function"
    },
    {
      "inputs": [],
      "name": "name",
      "outputs": [
        {
          "internalType": "string",
          "name": "",
          "type": "string"
        }
      ],
      "stateMutability": "view",
      "type": "function"
    },
    {
      "inputs": [
        {
          "internalType": "address",
          "name": "owner",
          "type": "address"
        }
      ],
      "name": "nonces",
      "outputs": [
        {
          "internalType": "uint256",
          "name": "",
          "type": "uint256"
        }
      ],
      "stateMutability": "view",
      "type": "function"
    },
    {
      "inputs": [
        {
          "internalType": "address",
          "name": "account",
          "type": "address"
        }
      ],
      "name": "numCheckpoints",
      "outputs": [
        {
          "internalType": "uint32",
          "name": "",
          "type": "uint32"
        }
      ],
      "stateMutability": "view",
      "type": "function"
    },
    {
      "inputs": [],
      "name": "owner",
      "outputs": [
        {
          "internalType": "address",
          "name": "",
          "type": "address"
        }
      ],
      "stateMutability": "view",
      "type": "function"
    },
    {
      "inputs": [],
      "name": "payableBalance",
      "outputs": [
        {
          "internalType": "uint256",
          "name": "",
          "type": "uint256"
        }
      ],
      "stateMutability": "view",
      "type": "function"
    },
    {
      "inputs": [
        {
          "internalType": "address",
          "name": "to",
          "type": "address"
        },
        {
          "internalType": "uint256",
          "name": "amount",
          "type": "uint256"
        }
      ],
      "name": "payout",
      "outputs": [],
      "stateMutability": "nonpayable",
      "type": "function"
    },
    {
      "inputs": [
        {
          "internalType": "address",
          "name": "owner",
          "type": "address"
        },
        {
          "internalType": "address",
          "name": "spender",
          "type": "address"
        },
        {
          "internalType": "uint256",
          "name": "value",
          "type": "uint256"
        },
        {
          "internalType": "uint256",
          "name": "deadline",
          "type": "uint256"
        },
        {
          "internalType": "uint8",
          "name": "v",
          "type": "uint8"
        },
        {
          "internalType": "bytes32",
          "name": "r",
          "type": "bytes32"
        },
        {
          "internalType": "bytes32",
          "name": "s",
          "type": "bytes32"
        }
      ],
      "name": "permit",
      "outputs": [],
      "stateMutability": "nonpayable",
      "type": "function"
    },
    {
      "inputs": [],
      "name": "registry",
      "outputs": [
        {
          "internalType": "address",
          "name": "",
          "type": "address"
        }
      ],
      "stateMutability": "view",
      "type": "function"
    },
    {
      "inputs": [],
      "name": "renounceOwnership",
      "outputs": [],
      "stateMutability": "nonpayable",
      "type": "function"
    },
    {
      "inputs": [
        {
          "internalType": "address",
          "name": "newRegistry",
          "type": "address"
        }
      ],
      "name": "setRegistry",
      "outputs": [],
      "stateMutability": "nonpayable",
      "type": "function"
    },
    {
      "inputs": [],
      "name": "symbol",
      "outputs": [
        {
          "internalType": "string",
          "name": "",
          "type": "string"
        }
      ],
      "stateMutability": "view",
      "type": "function"
    },
    {
      "inputs": [],
      "name": "totalSupply",
      "outputs": [
        {
          "internalType": "uint256",
          "name": "",
          "type": "uint256"
        }
      ],
      "stateMutability": "view",
      "type": "function"
    },
    {
      "inputs": [
        {
          "internalType": "address",
          "name": "to",
          "type": "address"
        },
        {
          "internalType": "uint256",
          "name": "value",
          "type": "uint256"
        }
      ],
      "name": "transfer",
      "outputs": [
        {
          "internalType": "bool",
          "name": "",
          "type": "bool"
        }
      ],
      "stateMutability": "nonpayable",
      "type": "function"
    },
    {
      "inputs": [
        {
          "internalType": "address",
          "name": "from",
          "type": "address"
        },
        {
          "internalType": "address",
          "name": "to",
          "type": "address"
        },
        {
          "internalType": "uint256",
          "name": "value",
          "type": "uint256"
        }
      ],
      "name": "transferFrom",
      "outputs": [
        {
          "internalType": "bool",
          "name": "",
          "type": "bool"
        }
      ],
      "stateMutability": "nonpayable",
      "type": "function"
    },
    {
      "inputs": [
        {
          "internalType": "address",
          "name": "newOwner",
          "type": "address"
        }
      ],
      "name": "transferOwnership",
      "outputs": [],
      "stateMutability": "nonpayable",
      "type": "function"
    },
    {
      "inputs": [],
      "name": "underlying",
      "outputs": [
        {
          "internalType": "contract IERC20",
          "name": "",
          "type": "address"
        }
      ],
      "stateMutability": "view",
      "type": "function"
    },
    {
      "inputs": [
        {
          "internalType": "address",
          "name": "receiver",
          "type": "address"
        },
        {
          "internalType": "uint256",
          "name": "amount",
          "type": "uint256"
        }
      ],
      "name": "withdrawTo",
      "outputs": [
        {
          "internalType": "bool",
          "name": "success",
          "type": "bool"
        }
      ],
      "stateMutability": "nonpayable",
      "type": "function"
    }
  ],
  "bytecode": "0x610180604052348015610010575f5ffd5b506040516129c33803806129c383398101604081905261002f916103a4565b82816040518060400160405280601481526020017f456e636c617665205469636b657420546f6b656e00000000000000000000000081525080604051806040016040528060018152602001603160f81b8152506040518060400160405280601481526020017f456e636c617665205469636b657420546f6b656e0000000000000000000000008152506040518060400160405280600381526020016245544b60e81b81525081600390816100e39190610486565b5060046100f08282610486565b5061010091508390506005610226565b6101205261010f816006610226565b61014052815160208084019190912060e052815190820120610100524660a05261019b60e05161010051604080517f8b73c3c69bb8fe3d512ecc4cf759cc79239f7b179b0ffacaa9a75d522b39400f60208201529081019290925260608201524660808201523060a08201525f9060c00160405160208183030381529060405280519060200120905090565b60805250503060c052506001600160a01b0381166101d357604051631e4fbdf760e01b81525f60048201526024015b60405180910390fd5b6101dc81610258565b50306001600160a01b038216036102085760405163438d6fe360e01b81523060048201526024016101ca565b6001600160a01b03166101605261021e826102a9565b505050610598565b5f6020835110156102415761023a83610321565b9050610252565b8161024c8482610486565b5060ff90505b92915050565b600b80546001600160a01b038381166001600160a01b0319831681179093556040519116919082907f8be0079c531659141344cd1fd0a4f28419497f9722a3daafe3b4186f6b6457e0905f90a35050565b6102b161035e565b6001600160a01b0381166102d85760405163d92e233d60e01b815260040160405180910390fd5b600c80546001600160a01b0319166001600160a01b0383169081179091556040517f27fe5f0c1c3b1ed427cc63d0f05759ffdecf9aec9e18d31ef366fc8a6cb5dc3b905f90a250565b5f5f829050601f8151111561034b578260405163305a27a960e01b81526004016101ca9190610540565b805161035682610575565b179392505050565b600b546001600160a01b0316331461038b5760405163118cdaa760e01b81523360048201526024016101ca565b565b6001600160a01b03811681146103a1575f5ffd5b50565b5f5f5f606084860312156103b6575f5ffd5b83516103c18161038d565b60208501519093506103d28161038d565b60408501519092506103e38161038d565b809150509250925092565b634e487b7160e01b5f52604160045260245ffd5b600181811c9082168061041657607f821691505b60208210810361043457634e487b7160e01b5f52602260045260245ffd5b50919050565b601f82111561048157805f5260205f20601f840160051c8101602085101561045f5750805b601f840160051c820191505b8181101561047e575f815560010161046b565b50505b505050565b81516001600160401b0381111561049f5761049f6103ee565b6104b3816104ad8454610402565b8461043a565b6020601f8211600181146104e5575f83156104ce5750848201515b5f19600385901b1c1916600184901b17845561047e565b5f84815260208120601f198516915b8281101561051457878501518255602094850194600190920191016104f4565b508482101561053157868401515f19600387901b60f8161c191681555b50505050600190811b01905550565b602081525f82518060208401528060208501604085015e5f604082850101526040601f19601f83011684010191505092915050565b80516020808301519190811015610434575f1960209190910360031b1b16919050565b60805160a05160c05160e051610100516101205161014051610160516123bb6106085f395f818161088601528181610c9b01528181610dcc0152610e7901525f61129501525f61126801525f610fd901525f610fb101525f610f0c01525f610f3601525f610f6001526123bb5ff3fe608060405234801561000f575f5ffd5b50600436106101cc575f3560e01c806370a082311161010157806395d89b411161009a57806395d89b41146103f45780639ab24eb0146103fc578063a9059cbb1461040f578063a91ee0dc14610422578063c3cda52014610435578063d505accf14610443578063dd62ed3e14610456578063f1127ed814610469578063f2fde38b146104a8575f5ffd5b806370a082311461032d578063715018a6146103555780637b1039991461035d5780637ecebe001461037057806384b0196e1461038357806385bc898c1461039e5780638da5cb5b146103b15780638e539e8c146103c257806391ddadf4146103d5575f5ffd5b80633644e515116101735780633644e5151461028b5780633a46b1a81461029357806344b279a2146102a65780634bf5d7e9146102af578063587cde1e146102b75780635c19a95c146102d757806368a9674d146102ea5780636f307dc3146102fd5780636fcfff4514610305575f5ffd5b806306fdde03146101d0578063095ea7b3146101ee578063117de2fd1461021157806318160ddd14610226578063205c28781461023857806323b872dd1461024b5780632f4f21e21461025e578063313ce56714610271575b5f5ffd5b6101d86104bb565b6040516101e59190611fc9565b60405180910390f35b6102016101fc366004611ff1565b61054b565b60405190151581526020016101e5565b61022461021f366004611ff1565b610565565b005b6002545b6040519081526020016101e5565b610201610246366004611ff1565b610651565b610201610259366004612019565b610691565b61020161026c366004611ff1565b6106b4565b61027961070f565b60405160ff90911681526020016101e5565b61022a61071d565b61022a6102a1366004611ff1565b610726565b61022a600d5481565b6101d8610760565b6102ca6102c5366004612053565b6107d8565b6040516101e5919061206c565b6102246102e5366004612053565b6107f5565b6102016102f8366004612019565b61080e565b6102ca610884565b610318610313366004612053565b6108a8565b60405163ffffffff90911681526020016101e5565b61022a61033b366004612053565b6001600160a01b03165f9081526020819052604090205490565b6102246108b2565b600c546102ca906001600160a01b031681565b61022a61037e366004612053565b6108c5565b61038b6108cf565b6040516101e59796959493929190612080565b6102246103ac366004611ff1565b610911565b600b546001600160a01b03166102ca565b61022a6103d0366004612116565b610961565b6103dd610985565b60405165ffffffffffff90911681526020016101e5565b6101d861098e565b61022a61040a366004612053565b61099d565b61020161041d366004611ff1565b6109bd565b610224610430366004612053565b6109ca565b6102246102e536600461213b565b610224610451366004612191565b610a42565b61022a6104643660046121f9565b610b78565b61047c61047736600461222a565b610ba2565b60408051825165ffffffffffff1681526020928301516001600160d01b031692810192909252016101e5565b6102246104b6366004612053565b610bbf565b6060600380546104ca90612267565b80601f01602080910402602001604051908101604052809291908181526020018280546104f690612267565b80156105415780601f1061051857610100808354040283529160200191610541565b820191905f5260205f20905b81548152906001019060200180831161052457829003601f168201915b5050505050905090565b5f604051638cd22d1960e01b815260040160405180910390fd5b600c546001600160a01b0316331461059057604051633217675b60e21b815260040160405180910390fd5b600d548111156105e15760405162461bcd60e51b8152602060048201526017602482015276457863656564732070617961626c652062616c616e636560481b60448201526064015b60405180910390fd5b80600d5f8282546105f291906122b3565b9091555061060a9050610603610884565b8383610bfc565b816001600160a01b03167f5afeca38b2064c23a692c4cf353015d80ab3ecc417b4f893f372690c11fbd9a68260405161064591815260200190565b60405180910390a25050565b600c545f906001600160a01b0316331461067e57604051633217675b60e21b815260040160405180910390fd5b6106888383610c60565b90505b92915050565b5f3361069e858285610cca565b6106a9858585610d1b565b506001949350505050565b600c545f906001600160a01b031633146106e157604051633217675b60e21b815260040160405180910390fd5b6106eb8383610d78565b90505f6106f7846107d8565b6001600160a01b03160361068b5761068b8384610dfd565b5f610718610e76565b905090565b5f610718610f00565b5f61075061073383611029565b6001600160a01b0385165f9081526009602052604090209061107e565b6001600160d01b03169392505050565b606061076a61112e565b65ffffffffffff1661077a610985565b65ffffffffffff16146107a0576040516301bfc1c560e61b815260040160405180910390fd5b5060408051808201909152601d81527f6d6f64653d626c6f636b6e756d6265722666726f6d3d64656661756c74000000602082015290565b6001600160a01b039081165f908152600860205260409020541690565b604051635e81118160e11b815260040160405180910390fd5b600c545f906001600160a01b0316331461083b57604051633217675b60e21b815260040160405180910390fd5b61084e610846610884565b853085611138565b6108588383611171565b5f610862846107d8565b6001600160a01b03160361087a5761087a8384610dfd565b5060019392505050565b7f000000000000000000000000000000000000000000000000000000000000000090565b5f61068b826111a5565b6108ba6111c6565b6108c35f6111f3565b565b5f61068b82611244565b5f6060805f5f5f60606108e0611261565b6108e861128e565b604080515f80825260208201909252600f60f81b9b939a50919850469750309650945092509050565b600c546001600160a01b0316331461093c57604051633217675b60e21b815260040160405180910390fd5b80600d5f82825461094d91906122c6565b9091555061095d905082826112bb565b5050565b5f61097661096e83611029565b600a9061107e565b6001600160d01b031692915050565b5f61071861112e565b6060600480546104ca90612267565b6001600160a01b0381165f908152600960205260408120610976906112ef565b5f3361087a818585610d1b565b6109d26111c6565b6001600160a01b0381166109f95760405163d92e233d60e01b815260040160405180910390fd5b600c80546001600160a01b0319166001600160a01b0383169081179091556040517f27fe5f0c1c3b1ed427cc63d0f05759ffdecf9aec9e18d31ef366fc8a6cb5dc3b905f90a250565b83421115610a665760405163313c898160e11b8152600481018590526024016105d8565b5f7f6e71edae12b1b97f4d1f60370fef10105fa2faae0126114a169c64845d6126c9888888610ab18c6001600160a01b03165f90815260076020526040902080546001810190915590565b6040805160208101969096526001600160a01b0394851690860152929091166060840152608083015260a082015260c0810186905260e0016040516020818303038152906040528051906020012090505f610b0b82611326565b90505f610b1a82878787611352565b9050896001600160a01b0316816001600160a01b031614610b61576040516325c0072360e11b81526001600160a01b0380831660048301528b1660248201526044016105d8565b610b6c8a8a8a61137e565b50505050505050505050565b6001600160a01b039182165f90815260016020908152604080832093909416825291909152205490565b604080518082019091525f8082526020820152610688838361138b565b610bc76111c6565b6001600160a01b038116610bf0575f604051631e4fbdf760e01b81526004016105d8919061206c565b610bf9816111f3565b50565b6040516001600160a01b03838116602483015260448201839052610c5b91859182169063a9059cbb906064015b604051602081830303815290604052915060e01b6020820180516001600160e01b0383818316178352505050506113bf565b505050565b5f306001600160a01b03841603610c8c578260405163ec442f0560e01b81526004016105d8919061206c565b610c9633836112bb565b610cc17f00000000000000000000000000000000000000000000000000000000000000008484610bfc565b50600192915050565b5f610cd58484610b78565b90505f19811015610d155781811015610d0757828183604051637dc7a0d960e11b81526004016105d8939291906122d9565b610d1584848484035f611422565b50505050565b6001600160a01b038316610d44575f604051634b637e8f60e11b81526004016105d8919061206c565b6001600160a01b038216610d6d575f60405163ec442f0560e01b81526004016105d8919061206c565b610c5b8383836114f4565b5f33308103610d9c5730604051634b637e8f60e11b81526004016105d8919061206c565b306001600160a01b03851603610dc7578360405163ec442f0560e01b81526004016105d8919061206c565b610df37f0000000000000000000000000000000000000000000000000000000000000000823086611138565b61087a8484611171565b5f610e07836107d8565b6001600160a01b038481165f8181526008602052604080822080546001600160a01b031916888616908117909155905194955093928516927f3134e8a2e6d97e929a7e54011ea5485d7d196dd5f0ba4d4ef95803e8e3fc257f9190a4610c5b8183610e718661153d565b61155a565b5f7f00000000000000000000000000000000000000000000000000000000000000006001600160a01b031663313ce5676040518163ffffffff1660e01b8152600401602060405180830381865afa925050508015610ef1575060408051601f3d908101601f19168201909252610eee918101906122fa565b60015b610efb5750601290565b919050565b5f306001600160a01b037f000000000000000000000000000000000000000000000000000000000000000016148015610f5857507f000000000000000000000000000000000000000000000000000000000000000046145b15610f8257507f000000000000000000000000000000000000000000000000000000000000000090565b610718604080517f8b73c3c69bb8fe3d512ecc4cf759cc79239f7b179b0ffacaa9a75d522b39400f60208201527f0000000000000000000000000000000000000000000000000000000000000000918101919091527f000000000000000000000000000000000000000000000000000000000000000060608201524660808201523060a08201525f9060c00160405160208183030381529060405280519060200120905090565b5f5f611033610985565b90508065ffffffffffff16831061106e57604051637669fc0f60e11b81526004810184905265ffffffffffff821660248201526044016105d8565b611077836116c3565b9392505050565b81545f90818160058111156110da575f611097846116f9565b6110a190856122b3565b5f8881526020902090915081015465ffffffffffff90811690871610156110ca578091506110d8565b6110d58160016122c6565b92505b505b5f6110e78787858561184c565b905080156111215761110b876110fe6001846122b3565b5f91825260209091200190565b54600160301b90046001600160d01b0316611123565b5f5b979650505050505050565b5f610718436116c3565b6040516001600160a01b038481166024830152838116604483015260648201839052610d159186918216906323b872dd90608401610c29565b6001600160a01b03821661119a575f60405163ec442f0560e01b81526004016105d8919061206c565b61095d5f83836114f4565b6001600160a01b0381165f9081526009602052604081205461068b906118ab565b600b546001600160a01b031633146108c3573360405163118cdaa760e01b81526004016105d8919061206c565b600b80546001600160a01b038381166001600160a01b0319831681179093556040519116919082907f8be0079c531659141344cd1fd0a4f28419497f9722a3daafe3b4186f6b6457e0905f90a35050565b6001600160a01b0381165f9081526007602052604081205461068b565b60606107187f000000000000000000000000000000000000000000000000000000000000000060056118db565b60606107187f000000000000000000000000000000000000000000000000000000000000000060066118db565b6001600160a01b0382166112e4575f604051634b637e8f60e11b81526004016105d8919061206c565b61095d825f836114f4565b80545f90801561131e57611308836110fe6001846122b3565b54600160301b90046001600160d01b0316611077565b5f9392505050565b5f61068b611332610f00565b8360405161190160f01b8152600281019290925260228201526042902090565b5f5f5f5f61136288888888611984565b9250925092506113728282611a42565b50909695505050505050565b610c5b8383836001611422565b604080518082019091525f80825260208201526001600160a01b0383165f9081526009602052604090206106889083611afa565b5f5f60205f8451602086015f885af1806113de576040513d5f823e3d81fd5b50505f513d915081156113f5578060011415611402565b6001600160a01b0384163b155b15610d155783604051635274afe760e01b81526004016105d8919061206c565b6001600160a01b03841661144b575f60405163e602df0560e01b81526004016105d8919061206c565b6001600160a01b038316611474575f604051634a1406b160e11b81526004016105d8919061206c565b6001600160a01b038085165f9081526001602090815260408083209387168352929052208290558015610d1557826001600160a01b0316846001600160a01b03167f8c5be1e5ebec7d5bd14f71427d1e84f3dd0314c0f7b2291e5b200ac8c7c3b925846040516114e691815260200190565b60405180910390a350505050565b6001600160a01b0383161580159061151457506001600160a01b03821615155b1561153257604051638cd22d1960e01b815260040160405180910390fd5b610c5b838383611b67565b6001600160a01b0381165f9081526020819052604081205461068b565b816001600160a01b0316836001600160a01b03161415801561157b57505f81115b15610c5b576001600160a01b03831615611622576001600160a01b0383165f90815260096020526040812081906115bd90611bcd6115b886611bd8565b611c0b565b6001600160d01b031691506001600160d01b03169150846001600160a01b03167fdec2bacdd2f05b59de34da9b523dff8be42e5e38e818c82fdb0bae774387a7248383604051611617929190918252602082015260400190565b60405180910390a250505b6001600160a01b03821615610c5b576001600160a01b0382165f908152600960205260408120819061165a90611c436115b886611bd8565b6001600160d01b031691506001600160d01b03169150836001600160a01b03167fdec2bacdd2f05b59de34da9b523dff8be42e5e38e818c82fdb0bae774387a72483836040516116b4929190918252602082015260400190565b60405180910390a25050505050565b5f65ffffffffffff8211156116f5576040516306dfcc6560e41b815260306004820152602481018390526044016105d8565b5090565b5f60018211611706575090565b816001600160801b821061171f5760809190911c9060401b5b600160401b82106117355760409190911c9060201b5b640100000000821061174c5760209190911c9060101b5b6201000082106117615760109190911c9060081b5b61010082106117755760089190911c9060041b5b601082106117885760049190911c9060021b5b600482106117945760011b5b600302600190811c908185816117ac576117ac612315565b048201901c905060018185816117c4576117c4612315565b048201901c905060018185816117dc576117dc612315565b048201901c905060018185816117f4576117f4612315565b048201901c9050600181858161180c5761180c612315565b048201901c9050600181858161182457611824612315565b048201901c905061184381858161183d5761183d612315565b04821190565b90039392505050565b5f5b818310156118a3575f6118618484611c4e565b5f8781526020902090915065ffffffffffff86169082015465ffffffffffff16111561188f5780925061189d565b61189a8160016122c6565b93505b5061184e565b509392505050565b5f63ffffffff8211156116f5576040516306dfcc6560e41b815260206004820152602481018390526044016105d8565b606060ff83146118f5576118ee83611c68565b905061068b565b81805461190190612267565b80601f016020809104026020016040519081016040528092919081815260200182805461192d90612267565b80156119785780601f1061194f57610100808354040283529160200191611978565b820191905f5260205f20905b81548152906001019060200180831161195b57829003601f168201915b5050505050905061068b565b5f80806fa2a8918ca85bafe22016d0b997e4df60600160ff1b038411156119b357505f91506003905082611a38565b604080515f808252602082018084528a905260ff891692820192909252606081018790526080810186905260019060a0016020604051602081039080840390855afa158015611a04573d5f5f3e3d5ffd5b5050604051601f1901519150506001600160a01b038116611a2f57505f925060019150829050611a38565b92505f91508190505b9450945094915050565b5f826003811115611a5557611a55612329565b03611a5e575050565b6001826003811115611a7257611a72612329565b03611a905760405163f645eedf60e01b815260040160405180910390fd5b6002826003811115611aa457611aa4612329565b03611ac55760405163fce698f760e01b8152600481018290526024016105d8565b6003826003811115611ad957611ad9612329565b0361095d576040516335e2f38360e21b8152600481018290526024016105d8565b604080518082019091525f8082526020820152825f018263ffffffff1681548110611b2757611b2761233d565b5f9182526020918290206040805180820190915291015465ffffffffffff81168252600160301b90046001600160d01b0316918101919091529392505050565b611b72838383611ca5565b6001600160a01b038316611bc2575f611b8a60025490565b90506001600160d01b0380821115611bbf57604051630e58ae9360e11b815260048101839052602481018290526044016105d8565b50505b610c5b838383611db8565b5f6106888284612351565b5f6001600160d01b038211156116f5576040516306dfcc6560e41b815260d06004820152602481018390526044016105d8565b5f5f611c36611c18610985565b611c2e611c24886112ef565b868863ffffffff16565b879190611e17565b915091505b935093915050565b5f6106888284612370565b5f611c5c600284841861238f565b610688908484166122c6565b60605f611c7483611e24565b6040805160208082528183019092529192505f91906020820181803683375050509182525060208101929092525090565b6001600160a01b038316611ccf578060025f828254611cc491906122c6565b90915550611d2c9050565b6001600160a01b0383165f9081526020819052604090205481811015611d0e5783818360405163391434e360e21b81526004016105d8939291906122d9565b6001600160a01b0384165f9081526020819052604090209082900390555b6001600160a01b038216611d4857600280548290039055611d66565b6001600160a01b0382165f9081526020819052604090208054820190555b816001600160a01b0316836001600160a01b03167fddf252ad1be2c89b69c2b068fc378daa952ba7f163c4a11628f55a4df523b3ef83604051611dab91815260200190565b60405180910390a3505050565b6001600160a01b038316611dda57611dd7600a611c436115b884611bd8565b50505b6001600160a01b038216611dfc57611df9600a611bcd6115b884611bd8565b50505b610c5b611e08846107d8565b611e11846107d8565b8361155a565b5f80611c36858585611e4b565b5f60ff8216601f81111561068b57604051632cd44ac360e21b815260040160405180910390fd5b82545f9081908015611f41575f611e67876110fe6001856122b3565b805490915065ffffffffffff80821691600160301b90046001600160d01b0316908816821115611eaa57604051632520601d60e01b815260040160405180910390fd5b8765ffffffffffff168265ffffffffffff1603611ee357825465ffffffffffff16600160301b6001600160d01b03891602178355611f33565b6040805180820190915265ffffffffffff808a1682526001600160d01b03808a1660208085019182528d54600181018f555f8f81529190912094519151909216600160301b029216919091179101555b9450859350611c3b92505050565b50506040805180820190915265ffffffffffff80851682526001600160d01b0380851660208085019182528854600181018a555f8a815291822095519251909316600160301b029190931617920191909155905081611c3b565b5f81518084528060208401602086015e5f602082860101526020601f19601f83011685010191505092915050565b602081525f6106886020830184611f9b565b80356001600160a01b0381168114610efb575f5ffd5b5f5f60408385031215612002575f5ffd5b61200b83611fdb565b946020939093013593505050565b5f5f5f6060848603121561202b575f5ffd5b61203484611fdb565b925061204260208501611fdb565b929592945050506040919091013590565b5f60208284031215612063575f5ffd5b61068882611fdb565b6001600160a01b0391909116815260200190565b60ff60f81b8816815260e060208201525f61209e60e0830189611f9b565b82810360408401526120b08189611f9b565b606084018890526001600160a01b038716608085015260a0840186905283810360c0850152845180825260208087019350909101905f5b818110156121055783518352602093840193909201916001016120e7565b50909b9a5050505050505050505050565b5f60208284031215612126575f5ffd5b5035919050565b60ff81168114610bf9575f5ffd5b5f5f5f5f5f5f60c08789031215612150575f5ffd5b61215987611fdb565b9550602087013594506040870135935060608701356121778161212d565b9598949750929560808101359460a0909101359350915050565b5f5f5f5f5f5f5f60e0888a0312156121a7575f5ffd5b6121b088611fdb565b96506121be60208901611fdb565b9550604088013594506060880135935060808801356121dc8161212d565b9699959850939692959460a0840135945060c09093013592915050565b5f5f6040838503121561220a575f5ffd5b61221383611fdb565b915061222160208401611fdb565b90509250929050565b5f5f6040838503121561223b575f5ffd5b61224483611fdb565b9150602083013563ffffffff8116811461225c575f5ffd5b809150509250929050565b600181811c9082168061227b57607f821691505b60208210810361229957634e487b7160e01b5f52602260045260245ffd5b50919050565b634e487b7160e01b5f52601160045260245ffd5b8181038181111561068b5761068b61229f565b8082018082111561068b5761068b61229f565b6001600160a01b039390931683526020830191909152604082015260600190565b5f6020828403121561230a575f5ffd5b81516110778161212d565b634e487b7160e01b5f52601260045260245ffd5b634e487b7160e01b5f52602160045260245ffd5b634e487b7160e01b5f52603260045260245ffd5b6001600160d01b03828116828216039081111561068b5761068b61229f565b6001600160d01b03818116838216019081111561068b5761068b61229f565b5f826123a957634e487b7160e01b5f52601260045260245ffd5b50049056fea164736f6c634300081c000a",
  "linkReferences": {},
  "deployedLinkReferences": {},
  "immutableReferences": {
    "3415": [
      {
        "length": 32,
        "start": 2182
      },
      {
        "length": 32,
        "start": 3227
      },
      {
        "length": 32,
        "start": 3532
      },
      {
        "length": 32,
        "start": 3705
      }
    ],
    "6684": [
      {
        "length": 32,
        "start": 3936
      }
    ],
    "6686": [
      {
        "length": 32,
        "start": 3894
      }
    ],
    "6688": [
      {
        "length": 32,
        "start": 3852
      }
    ],
    "6690": [
      {
        "length": 32,
        "start": 4017
      }
    ],
    "6692": [
      {
        "length": 32,
        "start": 4057
      }
    ],
    "6695": [
      {
        "length": 32,
        "start": 4712
      }
    ],
    "6698": [
      {
        "length": 32,
        "start": 4757
      }
    ]
  },
  "inputSourceName": "project/contracts/token/EnclaveTicketToken.sol",
  "buildInfoId": "solc-0_8_28-ce9a7610acb826f83b656ea800eb1bae5dae3ce6"
}