{
  "_format": "hh3-artifact-1",
  "contractName": "EnclaveTicketToken",
  "sourceName": "contracts/token/EnclaveTicketToken.sol",
  "abi": [
    {
      "inputs": [
        {
          "internalType": "contract IERC20",
          "name": "baseToken",
          "type": "address"
        },
        {
          "internalType": "address",
          "name": "registry_",
          "type": "address"
        },
        {
          "internalType": "address",
          "name": "initialOwner_",
          "type": "address"
        }
      ],
      "stateMutability": "nonpayable",
      "type": "constructor"
    },
    {
      "inputs": [],
      "name": "CheckpointUnorderedInsertion",
      "type": "error"
    },
    {
      "inputs": [],
      "name": "DelegationLocked",
      "type": "error"
    },
    {
      "inputs": [],
      "name": "ECDSAInvalidSignature",
      "type": "error"
    },
    {
      "inputs": [
        {
          "internalType": "uint256",
          "name": "length",
          "type": "uint256"
        }
      ],
      "name": "ECDSAInvalidSignatureLength",
      "type": "error"
    },
    {
      "inputs": [
        {
          "internalType": "bytes32",
          "name": "s",
          "type": "bytes32"
        }
      ],
      "name": "ECDSAInvalidSignatureS",
      "type": "error"
    },
    {
      "inputs": [
        {
          "internalType": "uint256",
          "name": "increasedSupply",
          "type": "uint256"
        },
        {
          "internalType": "uint256",
          "name": "cap",
          "type": "uint256"
        }
      ],
      "name": "ERC20ExceededSafeSupply",
      "type": "error"
    },
    {
      "inputs": [
        {
          "internalType": "address",
          "name": "spender",
          "type": "address"
        },
        {
          "internalType": "uint256",
          "name": "allowance",
          "type": "uint256"
        },
        {
          "internalType": "uint256",
          "name": "needed",
          "type": "uint256"
        }
      ],
      "name": "ERC20InsufficientAllowance",
      "type": "error"
    },
    {
      "inputs": [
        {
          "internalType": "address",
          "name": "sender",
          "type": "address"
        },
        {
          "internalType": "uint256",
          "name": "balance",
          "type": "uint256"
        },
        {
          "internalType": "uint256",
          "name": "needed",
          "type": "uint256"
        }
      ],
      "name": "ERC20InsufficientBalance",
      "type": "error"
    },
    {
      "inputs": [
        {
          "internalType": "address",
          "name": "approver",
          "type": "address"
        }
      ],
      "name": "ERC20InvalidApprover",
      "type": "error"
    },
    {
      "inputs": [
        {
          "internalType": "address",
          "name": "receiver",
          "type": "address"
        }
      ],
      "name": "ERC20InvalidReceiver",
      "type": "error"
    },
    {
      "inputs": [
        {
          "internalType": "address",
          "name": "sender",
          "type": "address"
        }
      ],
      "name": "ERC20InvalidSender",
      "type": "error"
    },
    {
      "inputs": [
        {
          "internalType": "address",
          "name": "spender",
          "type": "address"
        }
      ],
      "name": "ERC20InvalidSpender",
      "type": "error"
    },
    {
      "inputs": [
        {
          "internalType": "address",
          "name": "token",
          "type": "address"
        }
      ],
      "name": "ERC20InvalidUnderlying",
      "type": "error"
    },
    {
      "inputs": [
        {
          "internalType": "uint256",
          "name": "deadline",
          "type": "uint256"
        }
      ],
      "name": "ERC2612ExpiredSignature",
      "type": "error"
    },
    {
      "inputs": [
        {
          "internalType": "address",
          "name": "signer",
          "type": "address"
        },
        {
          "internalType": "address",
          "name": "owner",
          "type": "address"
        }
      ],
      "name": "ERC2612InvalidSigner",
      "type": "error"
    },
    {
      "inputs": [
        {
          "internalType": "uint256",
          "name": "timepoint",
          "type": "uint256"
        },
        {
          "internalType": "uint48",
          "name": "clock",
          "type": "uint48"
        }
      ],
      "name": "ERC5805FutureLookup",
      "type": "error"
    },
    {
      "inputs": [],
      "name": "ERC6372InconsistentClock",
      "type": "error"
    },
    {
      "inputs": [
        {
          "internalType": "address",
          "name": "account",
          "type": "address"
        },
        {
          "internalType": "uint256",
          "name": "currentNonce",
          "type": "uint256"
        }
      ],
      "name": "InvalidAccountNonce",
      "type": "error"
    },
    {
      "inputs": [],
      "name": "InvalidShortString",
      "type": "error"
    },
    {
      "inputs": [],
      "name": "NotRegistry",
      "type": "error"
    },
    {
      "inputs": [
        {
          "internalType": "address",
          "name": "owner",
          "type": "address"
        }
      ],
      "name": "OwnableInvalidOwner",
      "type": "error"
    },
    {
      "inputs": [
        {
          "internalType": "address",
          "name": "account",
          "type": "address"
        }
      ],
      "name": "OwnableUnauthorizedAccount",
      "type": "error"
    },
    {
      "inputs": [
        {
          "internalType": "uint8",
          "name": "bits",
          "type": "uint8"
        },
        {
          "internalType": "uint256",
          "name": "value",
          "type": "uint256"
        }
      ],
      "name": "SafeCastOverflowedUintDowncast",
      "type": "error"
    },
    {
      "inputs": [
        {
          "internalType": "address",
          "name": "token",
          "type": "address"
        }
      ],
      "name": "SafeERC20FailedOperation",
      "type": "error"
    },
    {
      "inputs": [
        {
          "internalType": "string",
          "name": "str",
          "type": "string"
        }
      ],
      "name": "StringTooLong",
      "type": "error"
    },
    {
      "inputs": [],
      "name": "TransferNotAllowed",
      "type": "error"
    },
    {
      "inputs": [
        {
          "internalType": "uint256",
          "name": "expiry",
          "type": "uint256"
        }
      ],
      "name": "VotesExpiredSignature",
      "type": "error"
    },
    {
      "inputs": [],
      "name": "ZeroAddress",
      "type": "error"
    },
    {
      "anonymous": false,
      "inputs": [
        {
          "indexed": true,
          "internalType": "address",
          "name": "owner",
          "type": "address"
        },
        {
          "indexed": true,
          "internalType": "address",
          "name": "spender",
          "type": "address"
        },
        {
          "indexed": false,
          "internalType": "uint256",
          "name": "value",
          "type": "uint256"
        }
      ],
      "name": "Approval",
      "type": "event"
    },
    {
      "anonymous": false,
      "inputs": [
        {
          "indexed": true,
          "internalType": "address",
          "name": "delegator",
          "type": "address"
        },
        {
          "indexed": true,
          "internalType": "address",
          "name": "fromDelegate",
          "type": "address"
        },
        {
          "indexed": true,
          "internalType": "address",
          "name": "toDelegate",
          "type": "address"
        }
      ],
      "name": "DelegateChanged",
      "type": "event"
    },
    {
      "anonymous": false,
      "inputs": [
        {
          "indexed": true,
          "internalType": "address",
          "name": "delegate",
          "type": "address"
        },
        {
          "indexed": false,
          "internalType": "uint256",
          "name": "previousVotes",
          "type": "uint256"
        },
        {
          "indexed": false,
          "internalType": "uint256",
          "name": "newVotes",
          "type": "uint256"
        }
      ],
      "name": "DelegateVotesChanged",
      "type": "event"
    },
    {
      "anonymous": false,
      "inputs": [],
      "name": "EIP712DomainChanged",
      "type": "event"
    },
    {
      "anonymous": false,
      "inputs": [
        {
          "indexed": true,
          "internalType": "address",
          "name": "previousOwner",
          "type": "address"
        },
        {
          "indexed": true,
          "internalType": "address",
          "name": "newOwner",
          "type": "address"
        }
      ],
      "name": "OwnershipTransferred",
      "type": "event"
    },
    {
      "anonymous": false,
      "inputs": [
        {
          "indexed": true,
          "internalType": "address",
          "name": "from",
          "type": "address"
        },
        {
          "indexed": true,
          "internalType": "address",
          "name": "to",
          "type": "address"
        },
        {
          "indexed": false,
          "internalType": "uint256",
          "name": "value",
          "type": "uint256"
        }
      ],
      "name": "Transfer",
      "type": "event"
    },
    {
      "inputs": [],
      "name": "CLOCK_MODE",
      "outputs": [
        {
          "internalType": "string",
          "name": "",
          "type": "string"
        }
      ],
      "stateMutability": "view",
      "type": "function"
    },
    {
      "inputs": [],
      "name": "DOMAIN_SEPARATOR",
      "outputs": [
        {
          "internalType": "bytes32",
          "name": "",
          "type": "bytes32"
        }
      ],
      "stateMutability": "view",
      "type": "function"
    },
    {
      "inputs": [
        {
          "internalType": "address",
          "name": "owner",
          "type": "address"
        },
        {
          "internalType": "address",
          "name": "spender",
          "type": "address"
        }
      ],
      "name": "allowance",
      "outputs": [
        {
          "internalType": "uint256",
          "name": "",
          "type": "uint256"
        }
      ],
      "stateMutability": "view",
      "type": "function"
    },
    {
      "inputs": [
        {
          "internalType": "address",
          "name": "spender",
          "type": "address"
        },
        {
          "internalType": "uint256",
          "name": "value",
          "type": "uint256"
        }
      ],
      "name": "approve",
      "outputs": [
        {
          "internalType": "bool",
          "name": "",
          "type": "bool"
        }
      ],
      "stateMutability": "nonpayable",
      "type": "function"
    },
    {
      "inputs": [
        {
          "internalType": "address",
          "name": "account",
          "type": "address"
        }
      ],
      "name": "balanceOf",
      "outputs": [
        {
          "internalType": "uint256",
          "name": "",
          "type": "uint256"
        }
      ],
      "stateMutability": "view",
      "type": "function"
    },
    {
      "inputs": [
        {
          "internalType": "address",
          "name": "operator",
          "type": "address"
        },
        {
          "internalType": "uint256",
          "name": "amount",
          "type": "uint256"
        }
      ],
      "name": "burnTickets",
      "outputs": [],
      "stateMutability": "nonpayable",
      "type": "function"
    },
    {
      "inputs": [
        {
          "internalType": "address",
          "name": "account",
          "type": "address"
        },
        {
          "internalType": "uint32",
          "name": "pos",
          "type": "uint32"
        }
      ],
      "name": "checkpoints",
      "outputs": [
        {
          "components": [
            {
              "internalType": "uint48",
              "name": "_key",
              "type": "uint48"
            },
            {
              "internalType": "uint208",
              "name": "_value",
              "type": "uint208"
            }
          ],
          "internalType": "struct Checkpoints.Checkpoint208",
          "name": "",
          "type": "tuple"
        }
      ],
      "stateMutability": "view",
      "type": "function"
    },
    {
      "inputs": [],
      "name": "clock",
      "outputs": [
        {
          "internalType": "uint48",
          "name": "",
          "type": "uint48"
        }
      ],
      "stateMutability": "view",
      "type": "function"
    },
    {
      "inputs": [],
      "name": "decimals",
      "outputs": [
        {
          "internalType": "uint8",
          "name": "",
          "type": "uint8"
        }
      ],
      "stateMutability": "view",
      "type": "function"
    },
    {
      "inputs": [
        {
          "internalType": "address",
          "name": "",
          "type": "address"
        }
      ],
      "name": "delegate",
      "outputs": [],
      "stateMutability": "pure",
      "type": "function"
    },
    {
      "inputs": [
        {
          "internalType": "address",
          "name": "",
          "type": "address"
        },
        {
          "internalType": "uint256",
          "name": "",
          "type": "uint256"
        },
        {
          "internalType": "uint256",
          "name": "",
          "type": "uint256"
        },
        {
          "internalType": "uint8",
          "name": "",
          "type": "uint8"
        },
        {
          "internalType": "bytes32",
          "name": "",
          "type": "bytes32"
        },
        {
          "internalType": "bytes32",
          "name": "",
          "type": "bytes32"
        }
      ],
      "name": "delegateBySig",
      "outputs": [],
      "stateMutability": "pure",
      "type": "function"
    },
    {
      "inputs": [
        {
          "internalType": "address",
          "name": "account",
          "type": "address"
        }
      ],
      "name": "delegates",
      "outputs": [
        {
          "internalType": "address",
          "name": "",
          "type": "address"
        }
      ],
      "stateMutability": "view",
      "type": "function"
    },
    {
      "inputs": [
        {
          "internalType": "address",
          "name": "operator",
          "type": "address"
        },
        {
          "internalType": "uint256",
          "name": "amount",
          "type": "uint256"
        }
      ],
      "name": "depositFor",
      "outputs": [
        {
          "internalType": "bool",
          "name": "success",
          "type": "bool"
        }
      ],
      "stateMutability": "nonpayable",
      "type": "function"
    },
    {
      "inputs": [
        {
          "internalType": "address",
          "name": "from",
          "type": "address"
        },
        {
          "internalType": "address",
          "name": "to",
          "type": "address"
        },
        {
          "internalType": "uint256",
          "name": "amount",
          "type": "uint256"
        }
      ],
      "name": "depositFrom",
      "outputs": [
        {
          "internalType": "bool",
          "name": "",
          "type": "bool"
        }
      ],
      "stateMutability": "nonpayable",
      "type": "function"
    },
    {
      "inputs": [],
      "name": "eip712Domain",
      "outputs": [
        {
          "internalType": "bytes1",
          "name": "fields",
          "type": "bytes1"
        },
        {
          "internalType": "string",
          "name": "name",
          "type": "string"
        },
        {
          "internalType": "string",
          "name": "version",
          "type": "string"
        },
        {
          "internalType": "uint256",
          "name": "chainId",
          "type": "uint256"
        },
        {
          "internalType": "address",
          "name": "verifyingContract",
          "type": "address"
        },
        {
          "internalType": "bytes32",
          "name": "salt",
          "type": "bytes32"
        },
        {
          "internalType": "uint256[]",
          "name": "extensions",
          "type": "uint256[]"
        }
      ],
      "stateMutability": "view",
      "type": "function"
    },
    {
      "inputs": [
        {
          "internalType": "uint256",
          "name": "timepoint",
          "type": "uint256"
        }
      ],
      "name": "getPastTotalSupply",
      "outputs": [
        {
          "internalType": "uint256",
          "name": "",
          "type": "uint256"
        }
      ],
      "stateMutability": "view",
      "type": "function"
    },
    {
      "inputs": [
        {
          "internalType": "address",
          "name": "account",
          "type": "address"
        },
        {
          "internalType": "uint256",
          "name": "timepoint",
          "type": "uint256"
        }
      ],
      "name": "getPastVotes",
      "outputs": [
        {
          "internalType": "uint256",
          "name": "",
          "type": "uint256"
        }
      ],
      "stateMutability": "view",
      "type": "function"
    },
    {
      "inputs": [
        {
          "internalType": "address",
          "name": "account",
          "type": "address"
        }
      ],
      "name": "getVotes",
      "outputs": [
        {
          "internalType": "uint256",
          "name": "",
          "type": "uint256"
        }
      ],
      "stateMutability": "view",
      "type": "function"
    },
    {
      "inputs": [],
      "name": "name",
      "outputs": [
        {
          "internalType": "string",
          "name": "",
          "type": "string"
        }
      ],
      "stateMutability": "view",
      "type": "function"
    },
    {
      "inputs": [
        {
          "internalType": "address",
          "name": "owner",
          "type": "address"
        }
      ],
      "name": "nonces",
      "outputs": [
        {
          "internalType": "uint256",
          "name": "",
          "type": "uint256"
        }
      ],
      "stateMutability": "view",
      "type": "function"
    },
    {
      "inputs": [
        {
          "internalType": "address",
          "name": "account",
          "type": "address"
        }
      ],
      "name": "numCheckpoints",
      "outputs": [
        {
          "internalType": "uint32",
          "name": "",
          "type": "uint32"
        }
      ],
      "stateMutability": "view",
      "type": "function"
    },
    {
      "inputs": [],
      "name": "owner",
      "outputs": [
        {
          "internalType": "address",
          "name": "",
          "type": "address"
        }
      ],
      "stateMutability": "view",
      "type": "function"
    },
    {
      "inputs": [
        {
          "internalType": "address",
          "name": "to",
          "type": "address"
        },
        {
          "internalType": "uint256",
          "name": "amount",
          "type": "uint256"
        }
      ],
      "name": "payout",
      "outputs": [],
      "stateMutability": "nonpayable",
      "type": "function"
    },
    {
      "inputs": [
        {
          "internalType": "address",
          "name": "owner",
          "type": "address"
        },
        {
          "internalType": "address",
          "name": "spender",
          "type": "address"
        },
        {
          "internalType": "uint256",
          "name": "value",
          "type": "uint256"
        },
        {
          "internalType": "uint256",
          "name": "deadline",
          "type": "uint256"
        },
        {
          "internalType": "uint8",
          "name": "v",
          "type": "uint8"
        },
        {
          "internalType": "bytes32",
          "name": "r",
          "type": "bytes32"
        },
        {
          "internalType": "bytes32",
          "name": "s",
          "type": "bytes32"
        }
      ],
      "name": "permit",
      "outputs": [],
      "stateMutability": "nonpayable",
      "type": "function"
    },
    {
      "inputs": [],
      "name": "registry",
      "outputs": [
        {
          "internalType": "address",
          "name": "",
          "type": "address"
        }
      ],
      "stateMutability": "view",
      "type": "function"
    },
    {
      "inputs": [],
      "name": "renounceOwnership",
      "outputs": [],
      "stateMutability": "nonpayable",
      "type": "function"
    },
    {
      "inputs": [
        {
          "internalType": "address",
          "name": "newRegistry",
          "type": "address"
        }
      ],
      "name": "setRegistry",
      "outputs": [],
      "stateMutability": "nonpayable",
      "type": "function"
    },
    {
      "inputs": [],
      "name": "symbol",
      "outputs": [
        {
          "internalType": "string",
          "name": "",
          "type": "string"
        }
      ],
      "stateMutability": "view",
      "type": "function"
    },
    {
      "inputs": [],
      "name": "totalSupply",
      "outputs": [
        {
          "internalType": "uint256",
          "name": "",
          "type": "uint256"
        }
      ],
      "stateMutability": "view",
      "type": "function"
    },
    {
      "inputs": [
        {
          "internalType": "address",
          "name": "to",
          "type": "address"
        },
        {
          "internalType": "uint256",
          "name": "value",
          "type": "uint256"
        }
      ],
      "name": "transfer",
      "outputs": [
        {
          "internalType": "bool",
          "name": "",
          "type": "bool"
        }
      ],
      "stateMutability": "nonpayable",
      "type": "function"
    },
    {
      "inputs": [
        {
          "internalType": "address",
          "name": "from",
          "type": "address"
        },
        {
          "internalType": "address",
          "name": "to",
          "type": "address"
        },
        {
          "internalType": "uint256",
          "name": "value",
          "type": "uint256"
        }
      ],
      "name": "transferFrom",
      "outputs": [
        {
          "internalType": "bool",
          "name": "",
          "type": "bool"
        }
      ],
      "stateMutability": "nonpayable",
      "type": "function"
    },
    {
      "inputs": [
        {
          "internalType": "address",
          "name": "newOwner",
          "type": "address"
        }
      ],
      "name": "transferOwnership",
      "outputs": [],
      "stateMutability": "nonpayable",
      "type": "function"
    },
    {
      "inputs": [],
      "name": "underlying",
      "outputs": [
        {
          "internalType": "contract IERC20",
          "name": "",
          "type": "address"
        }
      ],
      "stateMutability": "view",
      "type": "function"
    },
    {
      "inputs": [
        {
          "internalType": "address",
          "name": "receiver",
          "type": "address"
        },
        {
          "internalType": "uint256",
          "name": "amount",
          "type": "uint256"
        }
      ],
      "name": "withdrawTo",
      "outputs": [
        {
          "internalType": "bool",
          "name": "success",
          "type": "bool"
        }
      ],
      "stateMutability": "nonpayable",
      "type": "function"
    }
  ],
  "bytecode": "0x610180604052348015610010575f5ffd5b5060405161289638038061289683398101604081905261002f9161037d565b82816040518060400160405280601481526020017f456e636c617665205469636b657420546f6b656e00000000000000000000000081525080604051806040016040528060018152602001603160f81b8152506040518060400160405280601481526020017f456e636c617665205469636b657420546f6b656e0000000000000000000000008152506040518060400160405280600381526020016245544b60e81b81525081600390816100e3919061045f565b5060046100f0828261045f565b5061010091508390506005610226565b6101205261010f816006610226565b61014052815160208084019190912060e052815190820120610100524660a05261019b60e05161010051604080517f8b73c3c69bb8fe3d512ecc4cf759cc79239f7b179b0ffacaa9a75d522b39400f60208201529081019290925260608201524660808201523060a08201525f9060c00160405160208183030381529060405280519060200120905090565b60805250503060c052506001600160a01b0381166101d357604051631e4fbdf760e01b81525f60048201526024015b60405180910390fd5b6101dc81610258565b50306001600160a01b038216036102085760405163438d6fe360e01b81523060048201526024016101ca565b6001600160a01b03166101605261021e826102a9565b505050610571565b5f6020835110156102415761023a836102fa565b9050610252565b8161024c848261045f565b5060ff90505b92915050565b600b80546001600160a01b038381166001600160a01b0319831681179093556040519116919082907f8be0079c531659141344cd1fd0a4f28419497f9722a3daafe3b4186f6b6457e0905f90a35050565b6102b1610337565b6001600160a01b0381166102d85760405163d92e233d60e01b815260040160405180910390fd5b600c80546001600160a01b0319166001600160a01b0392909216919091179055565b5f5f829050601f81511115610324578260405163305a27a960e01b81526004016101ca9190610519565b805161032f8261054e565b179392505050565b600b546001600160a01b031633146103645760405163118cdaa760e01b81523360048201526024016101ca565b565b6001600160a01b038116811461037a575f5ffd5b50565b5f5f5f6060848603121561038f575f5ffd5b835161039a81610366565b60208501519093506103ab81610366565b60408501519092506103bc81610366565b809150509250925092565b634e487b7160e01b5f52604160045260245ffd5b600181811c908216806103ef57607f821691505b60208210810361040d57634e487b7160e01b5f52602260045260245ffd5b50919050565b601f82111561045a57805f5260205f20601f840160051c810160208510156104385750805b601f840160051c820191505b81811015610457575f8155600101610444565b50505b505050565b81516001600160401b03811115610478576104786103c7565b61048c8161048684546103db565b84610413565b6020601f8211600181146104be575f83156104a75750848201515b5f19600385901b1c1916600184901b178455610457565b5f84815260208120601f198516915b828110156104ed57878501518255602094850194600190920191016104cd565b508482101561050a57868401515f19600387901b60f8161c191681555b50505050600190811b01905550565b602081525f82518060208401528060208501604085015e5f604082850101526040601f19601f83011684010191505092915050565b8051602080830151919081101561040d575f1960209190910360031b1b16919050565b60805160a05160c05160e051610100516101205161014051610160516122b56105e15f395f81816107c401528181610ba901528181610cda0152610d8701525f61119c01525f61116f01525f610ee701525f610ebf01525f610e1a01525f610e4401525f610e6e01526122b55ff3fe608060405234801561000f575f5ffd5b50600436106101c1575f3560e01c8063715018a6116100f657806395d89b411161009a57806395d89b41146103e05780639ab24eb0146103e8578063a9059cbb146103fb578063a91ee0dc1461040e578063c3cda52014610421578063d505accf1461042f578063dd62ed3e14610442578063f1127ed814610455578063f2fde38b14610494575f5ffd5b8063715018a6146103415780637b103999146103495780637ecebe001461035c57806384b0196e1461036f57806385bc898c1461038a5780638da5cb5b1461039d5780638e539e8c146103ae57806391ddadf4146103c1575f5ffd5b80633644e515116101685780633644e515146102805780633a46b1a8146102885780634bf5d7e91461029b578063587cde1e146102a35780635c19a95c146102c357806368a9674d146102d65780636f307dc3146102e95780636fcfff45146102f157806370a0823114610319575f5ffd5b806306fdde03146101c5578063095ea7b3146101e3578063117de2fd1461020657806318160ddd1461021b578063205c28781461022d57806323b872dd146102405780632f4f21e214610253578063313ce56714610266575b5f5ffd5b6101cd6104a7565b6040516101da9190611ec3565b60405180910390f35b6101f66101f1366004611eeb565b610537565b60405190151581526020016101da565b610219610214366004611eeb565b610550565b005b6002545b6040519081526020016101da565b6101f661023b366004611eeb565b610591565b6101f661024e366004611f13565b6105cf565b6101f6610261366004611eeb565b6105f2565b61026e61064d565b60405160ff90911681526020016101da565b61021f61065b565b61021f610296366004611eeb565b610664565b6101cd61069e565b6102b66102b1366004611f4d565b610716565b6040516101da9190611f66565b6102196102d1366004611f4d565b610733565b6101f66102e4366004611f13565b61074c565b6102b66107c2565b6103046102ff366004611f4d565b6107e6565b60405163ffffffff90911681526020016101da565b61021f610327366004611f4d565b6001600160a01b03165f9081526020819052604090205490565b6102196107f0565b600c546102b6906001600160a01b031681565b61021f61036a366004611f4d565b610803565b61037761080d565b6040516101da9796959493929190611f7a565b610219610398366004611eeb565b61084f565b600b546001600160a01b03166102b6565b61021f6103bc366004612010565b610884565b6103c96108a8565b60405165ffffffffffff90911681526020016101da565b6101cd6108b1565b61021f6103f6366004611f4d565b6108c0565b6101f6610409366004611eeb565b6108e0565b61021961041c366004611f4d565b6108ed565b6102196102d1366004612035565b61021961043d36600461208b565b61093e565b61021f6104503660046120f3565b610a79565b610468610463366004612124565b610aa3565b60408051825165ffffffffffff1681526020928301516001600160d01b031692810192909252016101da565b6102196104a2366004611f4d565b610ac0565b6060600380546104b690612161565b80601f01602080910402602001604051908101604052809291908181526020018280546104e290612161565b801561052d5780601f106105045761010080835404028352916020019161052d565b820191905f5260205f20905b81548152906001019060200180831161051057829003601f168201915b5050505050905090565b5f33610544818585610afd565b60019150505b92915050565b600c546001600160a01b0316331461057b57604051633217675b60e21b815260040160405180910390fd5b61058d6105866107c2565b8383610b0f565b5050565b600c545f906001600160a01b031633146105be57604051633217675b60e21b815260040160405180910390fd5b6105c88383610b6e565b9392505050565b5f336105dc858285610bd8565b6105e7858585610c29565b506001949350505050565b600c545f906001600160a01b0316331461061f57604051633217675b60e21b815260040160405180910390fd5b6106298383610c86565b90505f61063584610716565b6001600160a01b03160361054a5761054a8384610d0b565b5f610656610d84565b905090565b5f610656610e0e565b5f61068e61067183610f37565b6001600160a01b0385165f90815260096020526040902090610f85565b6001600160d01b03169392505050565b60606106a8611035565b65ffffffffffff166106b86108a8565b65ffffffffffff16146106de576040516301bfc1c560e61b815260040160405180910390fd5b5060408051808201909152601d81527f6d6f64653d626c6f636b6e756d6265722666726f6d3d64656661756c74000000602082015290565b6001600160a01b039081165f908152600860205260409020541690565b604051635e81118160e11b815260040160405180910390fd5b600c545f906001600160a01b0316331461077957604051633217675b60e21b815260040160405180910390fd5b61078c6107846107c2565b85308561103f565b6107968383611078565b5f6107a084610716565b6001600160a01b0316036107b8576107b88384610d0b565b5060019392505050565b7f000000000000000000000000000000000000000000000000000000000000000090565b5f61054a826110ac565b6107f86110cd565b6108015f6110fa565b565b5f61054a8261114b565b5f6060805f5f5f606061081e611168565b610826611195565b604080515f80825260208201909252600f60f81b9b939a50919850469750309650945092509050565b600c546001600160a01b0316331461087a57604051633217675b60e21b815260040160405180910390fd5b61058d82826111c2565b5f61089961089183610f37565b600a90610f85565b6001600160d01b031692915050565b5f610656611035565b6060600480546104b690612161565b6001600160a01b0381165f908152600960205260408120610899906111f6565b5f33610544818585610c29565b6108f56110cd565b6001600160a01b03811661091c5760405163d92e233d60e01b815260040160405180910390fd5b600c80546001600160a01b0319166001600160a01b0392909216919091179055565b834211156109675760405163313c898160e11b8152600481018590526024015b60405180910390fd5b5f7f6e71edae12b1b97f4d1f60370fef10105fa2faae0126114a169c64845d6126c98888886109b28c6001600160a01b03165f90815260076020526040902080546001810190915590565b6040805160208101969096526001600160a01b0394851690860152929091166060840152608083015260a082015260c0810186905260e0016040516020818303038152906040528051906020012090505f610a0c8261122d565b90505f610a1b82878787611259565b9050896001600160a01b0316816001600160a01b031614610a62576040516325c0072360e11b81526001600160a01b0380831660048301528b16602482015260440161095e565b610a6d8a8a8a610afd565b50505050505050505050565b6001600160a01b039182165f90815260016020908152604080832093909416825291909152205490565b604080518082019091525f80825260208201526105c88383611285565b610ac86110cd565b6001600160a01b038116610af1575f604051631e4fbdf760e01b815260040161095e9190611f66565b610afa816110fa565b50565b610b0a83838360016112b9565b505050565b6040516001600160a01b03838116602483015260448201839052610b0a91859182169063a9059cbb906064015b604051602081830303815290604052915060e01b6020820180516001600160e01b03838183161783525050505061138b565b5f306001600160a01b03841603610b9a578260405163ec442f0560e01b815260040161095e9190611f66565b610ba433836111c2565b610bcf7f00000000000000000000000000000000000000000000000000000000000000008484610b0f565b50600192915050565b5f610be38484610a79565b90505f19811015610c235781811015610c1557828183604051637dc7a0d960e11b815260040161095e93929190612199565b610c2384848484035f6112b9565b50505050565b6001600160a01b038316610c52575f604051634b637e8f60e11b815260040161095e9190611f66565b6001600160a01b038216610c7b575f60405163ec442f0560e01b815260040161095e9190611f66565b610b0a8383836113ee565b5f33308103610caa5730604051634b637e8f60e11b815260040161095e9190611f66565b306001600160a01b03851603610cd5578360405163ec442f0560e01b815260040161095e9190611f66565b610d017f000000000000000000000000000000000000000000000000000000000000000082308661103f565b6105448484611078565b5f610d1583610716565b6001600160a01b038481165f8181526008602052604080822080546001600160a01b031916888616908117909155905194955093928516927f3134e8a2e6d97e929a7e54011ea5485d7d196dd5f0ba4d4ef95803e8e3fc257f9190a4610b0a8183610d7f86611437565b611454565b5f7f00000000000000000000000000000000000000000000000000000000000000006001600160a01b031663313ce5676040518163ffffffff1660e01b8152600401602060405180830381865afa925050508015610dff575060408051601f3d908101601f19168201909252610dfc918101906121ba565b60015b610e095750601290565b919050565b5f306001600160a01b037f000000000000000000000000000000000000000000000000000000000000000016148015610e6657507f000000000000000000000000000000000000000000000000000000000000000046145b15610e9057507f000000000000000000000000000000000000000000000000000000000000000090565b610656604080517f8b73c3c69bb8fe3d512ecc4cf759cc79239f7b179b0ffacaa9a75d522b39400f60208201527f0000000000000000000000000000000000000000000000000000000000000000918101919091527f000000000000000000000000000000000000000000000000000000000000000060608201524660808201523060a08201525f9060c00160405160208183030381529060405280519060200120905090565b5f5f610f416108a8565b90508065ffffffffffff168310610f7c57604051637669fc0f60e11b81526004810184905265ffffffffffff8216602482015260440161095e565b6105c8836115bd565b81545f9081816005811115610fe1575f610f9e846115f3565b610fa890856121e9565b5f8881526020902090915081015465ffffffffffff9081169087161015610fd157809150610fdf565b610fdc8160016121fc565b92505b505b5f610fee87878585611746565b9050801561102857611012876110056001846121e9565b5f91825260209091200190565b54600160301b90046001600160d01b031661102a565b5f5b979650505050505050565b5f610656436115bd565b6040516001600160a01b038481166024830152838116604483015260648201839052610c239186918216906323b872dd90608401610b3c565b6001600160a01b0382166110a1575f60405163ec442f0560e01b815260040161095e9190611f66565b61058d5f83836113ee565b6001600160a01b0381165f9081526009602052604081205461054a906117a5565b600b546001600160a01b03163314610801573360405163118cdaa760e01b815260040161095e9190611f66565b600b80546001600160a01b038381166001600160a01b0319831681179093556040519116919082907f8be0079c531659141344cd1fd0a4f28419497f9722a3daafe3b4186f6b6457e0905f90a35050565b6001600160a01b0381165f9081526007602052604081205461054a565b60606106567f000000000000000000000000000000000000000000000000000000000000000060056117d5565b60606106567f000000000000000000000000000000000000000000000000000000000000000060066117d5565b6001600160a01b0382166111eb575f604051634b637e8f60e11b815260040161095e9190611f66565b61058d825f836113ee565b80545f9080156112255761120f836110056001846121e9565b54600160301b90046001600160d01b03166105c8565b5f9392505050565b5f61054a611239610e0e565b8360405161190160f01b8152600281019290925260228201526042902090565b5f5f5f5f6112698888888861187e565b925092509250611279828261193c565b50909695505050505050565b604080518082019091525f80825260208201526001600160a01b0383165f9081526009602052604090206105c890836119f4565b6001600160a01b0384166112e2575f60405163e602df0560e01b815260040161095e9190611f66565b6001600160a01b03831661130b575f604051634a1406b160e11b815260040161095e9190611f66565b6001600160a01b038085165f9081526001602090815260408083209387168352929052208290558015610c2357826001600160a01b0316846001600160a01b03167f8c5be1e5ebec7d5bd14f71427d1e84f3dd0314c0f7b2291e5b200ac8c7c3b9258460405161137d91815260200190565b60405180910390a350505050565b5f5f60205f8451602086015f885af1806113aa576040513d5f823e3d81fd5b50505f513d915081156113c15780600114156113ce565b6001600160a01b0384163b155b15610c235783604051635274afe760e01b815260040161095e9190611f66565b6001600160a01b0383161580159061140e57506001600160a01b03821615155b1561142c57604051638cd22d1960e01b815260040160405180910390fd5b610b0a838383611a61565b6001600160a01b0381165f9081526020819052604081205461054a565b816001600160a01b0316836001600160a01b03161415801561147557505f81115b15610b0a576001600160a01b0383161561151c576001600160a01b0383165f90815260096020526040812081906114b790611ac76114b286611ad2565b611b05565b6001600160d01b031691506001600160d01b03169150846001600160a01b03167fdec2bacdd2f05b59de34da9b523dff8be42e5e38e818c82fdb0bae774387a7248383604051611511929190918252602082015260400190565b60405180910390a250505b6001600160a01b03821615610b0a576001600160a01b0382165f908152600960205260408120819061155490611b3d6114b286611ad2565b6001600160d01b031691506001600160d01b03169150836001600160a01b03167fdec2bacdd2f05b59de34da9b523dff8be42e5e38e818c82fdb0bae774387a72483836040516115ae929190918252602082015260400190565b60405180910390a25050505050565b5f65ffffffffffff8211156115ef576040516306dfcc6560e41b8152603060048201526024810183905260440161095e565b5090565b5f60018211611600575090565b816001600160801b82106116195760809190911c9060401b5b600160401b821061162f5760409190911c9060201b5b64010000000082106116465760209190911c9060101b5b62010000821061165b5760109190911c9060081b5b610100821061166f5760089190911c9060041b5b601082106116825760049190911c9060021b5b6004821061168e5760011b5b600302600190811c908185816116a6576116a661220f565b048201901c905060018185816116be576116be61220f565b048201901c905060018185816116d6576116d661220f565b048201901c905060018185816116ee576116ee61220f565b048201901c905060018185816117065761170661220f565b048201901c9050600181858161171e5761171e61220f565b048201901c905061173d8185816117375761173761220f565b04821190565b90039392505050565b5f5b8183101561179d575f61175b8484611b48565b5f8781526020902090915065ffffffffffff86169082015465ffffffffffff16111561178957809250611797565b6117948160016121fc565b93505b50611748565b509392505050565b5f63ffffffff8211156115ef576040516306dfcc6560e41b8152602060048201526024810183905260440161095e565b606060ff83146117ef576117e883611b62565b905061054a565b8180546117fb90612161565b80601f016020809104026020016040519081016040528092919081815260200182805461182790612161565b80156118725780601f1061184957610100808354040283529160200191611872565b820191905f5260205f20905b81548152906001019060200180831161185557829003601f168201915b5050505050905061054a565b5f80806fa2a8918ca85bafe22016d0b997e4df60600160ff1b038411156118ad57505f91506003905082611932565b604080515f808252602082018084528a905260ff891692820192909252606081018790526080810186905260019060a0016020604051602081039080840390855afa1580156118fe573d5f5f3e3d5ffd5b5050604051601f1901519150506001600160a01b03811661192957505f925060019150829050611932565b92505f91508190505b9450945094915050565b5f82600381111561194f5761194f612223565b03611958575050565b600182600381111561196c5761196c612223565b0361198a5760405163f645eedf60e01b815260040160405180910390fd5b600282600381111561199e5761199e612223565b036119bf5760405163fce698f760e01b81526004810182905260240161095e565b60038260038111156119d3576119d3612223565b0361058d576040516335e2f38360e21b81526004810182905260240161095e565b604080518082019091525f8082526020820152825f018263ffffffff1681548110611a2157611a21612237565b5f9182526020918290206040805180820190915291015465ffffffffffff81168252600160301b90046001600160d01b0316918101919091529392505050565b611a6c838383611b9f565b6001600160a01b038316611abc575f611a8460025490565b90506001600160d01b0380821115611ab957604051630e58ae9360e11b8152600481018390526024810182905260440161095e565b50505b610b0a838383611cb2565b5f6105c8828461224b565b5f6001600160d01b038211156115ef576040516306dfcc6560e41b815260d060048201526024810183905260440161095e565b5f5f611b30611b126108a8565b611b28611b1e886111f6565b868863ffffffff16565b879190611d11565b915091505b935093915050565b5f6105c8828461226a565b5f611b566002848418612289565b6105c8908484166121fc565b60605f611b6e83611d1e565b6040805160208082528183019092529192505f91906020820181803683375050509182525060208101929092525090565b6001600160a01b038316611bc9578060025f828254611bbe91906121fc565b90915550611c269050565b6001600160a01b0383165f9081526020819052604090205481811015611c085783818360405163391434e360e21b815260040161095e93929190612199565b6001600160a01b0384165f9081526020819052604090209082900390555b6001600160a01b038216611c4257600280548290039055611c60565b6001600160a01b0382165f9081526020819052604090208054820190555b816001600160a01b0316836001600160a01b03167fddf252ad1be2c89b69c2b068fc378daa952ba7f163c4a11628f55a4df523b3ef83604051611ca591815260200190565b60405180910390a3505050565b6001600160a01b038316611cd457611cd1600a611b3d6114b284611ad2565b50505b6001600160a01b038216611cf657611cf3600a611ac76114b284611ad2565b50505b610b0a611d0284610716565b611d0b84610716565b83611454565b5f80611b30858585611d45565b5f60ff8216601f81111561054a57604051632cd44ac360e21b815260040160405180910390fd5b82545f9081908015611e3b575f611d61876110056001856121e9565b805490915065ffffffffffff80821691600160301b90046001600160d01b0316908816821115611da457604051632520601d60e01b815260040160405180910390fd5b8765ffffffffffff168265ffffffffffff1603611ddd57825465ffffffffffff16600160301b6001600160d01b03891602178355611e2d565b6040805180820190915265ffffffffffff808a1682526001600160d01b03808a1660208085019182528d54600181018f555f8f81529190912094519151909216600160301b029216919091179101555b9450859350611b3592505050565b50506040805180820190915265ffffffffffff80851682526001600160d01b0380851660208085019182528854600181018a555f8a815291822095519251909316600160301b029190931617920191909155905081611b35565b5f81518084528060208401602086015e5f602082860101526020601f19601f83011685010191505092915050565b602081525f6105c86020830184611e95565b80356001600160a01b0381168114610e09575f5ffd5b5f5f60408385031215611efc575f5ffd5b611f0583611ed5565b946020939093013593505050565b5f5f5f60608486031215611f25575f5ffd5b611f2e84611ed5565b9250611f3c60208501611ed5565b929592945050506040919091013590565b5f60208284031215611f5d575f5ffd5b6105c882611ed5565b6001600160a01b0391909116815260200190565b60ff60f81b8816815260e060208201525f611f9860e0830189611e95565b8281036040840152611faa8189611e95565b606084018890526001600160a01b038716608085015260a0840186905283810360c0850152845180825260208087019350909101905f5b81811015611fff578351835260209384019390920191600101611fe1565b50909b9a5050505050505050505050565b5f60208284031215612020575f5ffd5b5035919050565b60ff81168114610afa575f5ffd5b5f5f5f5f5f5f60c0878903121561204a575f5ffd5b61205387611ed5565b95506020870135945060408701359350606087013561207181612027565b9598949750929560808101359460a0909101359350915050565b5f5f5f5f5f5f5f60e0888a0312156120a1575f5ffd5b6120aa88611ed5565b96506120b860208901611ed5565b9550604088013594506060880135935060808801356120d681612027565b9699959850939692959460a0840135945060c09093013592915050565b5f5f60408385031215612104575f5ffd5b61210d83611ed5565b915061211b60208401611ed5565b90509250929050565b5f5f60408385031215612135575f5ffd5b61213e83611ed5565b9150602083013563ffffffff81168114612156575f5ffd5b809150509250929050565b600181811c9082168061217557607f821691505b60208210810361219357634e487b7160e01b5f52602260045260245ffd5b50919050565b6001600160a01b039390931683526020830191909152604082015260600190565b5f602082840312156121ca575f5ffd5b81516105c881612027565b634e487b7160e01b5f52601160045260245ffd5b8181038181111561054a5761054a6121d5565b8082018082111561054a5761054a6121d5565b634e487b7160e01b5f52601260045260245ffd5b634e487b7160e01b5f52602160045260245ffd5b634e487b7160e01b5f52603260045260245ffd5b6001600160d01b03828116828216039081111561054a5761054a6121d5565b6001600160d01b03818116838216019081111561054a5761054a6121d5565b5f826122a357634e487b7160e01b5f52601260045260245ffd5b50049056fea164736f6c634300081c000a",
  "linkReferences": {},
  "deployedLinkReferences": {},
  "immutableReferences": {
    "3415": [
      {
        "length": 32,
        "start": 1988
      },
      {
        "length": 32,
        "start": 2985
      },
      {
        "length": 32,
        "start": 3290
      },
      {
        "length": 32,
        "start": 3463
      }
    ],
    "6684": [
      {
        "length": 32,
        "start": 3694
      }
    ],
    "6686": [
      {
        "length": 32,
        "start": 3652
      }
    ],
    "6688": [
      {
        "length": 32,
        "start": 3610
      }
    ],
    "6690": [
      {
        "length": 32,
        "start": 3775
      }
    ],
    "6692": [
      {
        "length": 32,
        "start": 3815
      }
    ],
    "6695": [
      {
        "length": 32,
        "start": 4463
      }
    ],
    "6698": [
      {
        "length": 32,
        "start": 4508
      }
    ]
  },
  "inputSourceName": "project/contracts/token/EnclaveTicketToken.sol",
  "buildInfoId": "solc-0_8_28-ae0b6c33e5fca23f9554b44e15b97ffa4e4f6aed"
}