{
  "_format": "hh3-artifact-1",
  "contractName": "ThresholdDecryptedSharesAggregationBnVerifier",
  "sourceName": "contracts/verifier/ThresholdDecryptedSharesAggregationBnVerifier.sol",
  "abi": [
    {
      "inputs": [],
      "name": "ConsistencyCheckFailed",
      "type": "error"
    },
    {
      "inputs": [],
      "name": "GeminiChallengeInSubgroup",
      "type": "error"
    },
    {
      "inputs": [],
      "name": "ProofLengthWrong",
      "type": "error"
    },
    {
      "inputs": [
        {
          "internalType": "uint256",
          "name": "logN",
          "type": "uint256"
        },
        {
          "internalType": "uint256",
          "name": "actualLength",
          "type": "uint256"
        },
        {
          "internalType": "uint256",
          "name": "expectedLength",
          "type": "uint256"
        }
      ],
      "name": "ProofLengthWrongWithLogN",
      "type": "error"
    },
    {
      "inputs": [],
      "name": "PublicInputsLengthWrong",
      "type": "error"
    },
    {
      "inputs": [],
      "name": "ShpleminiFailed",
      "type": "error"
    },
    {
      "inputs": [],
      "name": "SumcheckFailed",
      "type": "error"
    },
    {
      "inputs": [
        {
          "internalType": "bytes",
          "name": "proof",
          "type": "bytes"
        },
        {
          "internalType": "bytes32[]",
          "name": "publicInputs",
          "type": "bytes32[]"
        }
      ],
      "name": "verify",
      "outputs": [
        {
          "internalType": "bool",
          "name": "verified",
          "type": "bool"
        }
      ],
      "stateMutability": "view",
      "type": "function"
    }
  ],
  "bytecode": "0x610120604052348015610010575f5ffd5b50620200006080819052601160a08190527f1eb29cc0a26390fad32af3a6275716d347fdcbdcc5f7c7c54c194a0cce5854e060c081905261024360e081905260038361005e6001602461008b565b610068919061008b565b610072919061008b565b61007d90600261008b565b61010052506100b092505050565b808201808211156100aa57634e487b7160e01b5f52601160045260245ffd5b92915050565b60805160a05160c05160e05161010051615cbb61014a5f395f8181610c5401528181610cb90152612ec301525f81816101b001526108ff01525f61018e01525f8181605b01528181609401528181610101015281816101d201528181610a2d01528181610b8e01528181610c2b01528181611523015281816115dd015281816116100152818161181a0152612ba001525f5050615cbb5ff3fe608060405234801561000f575f5ffd5b5060043610610029575f3560e01c8063ea50d0e41461002d575b5f5ffd5b61004061003b3660046154f2565b610054565b604051901515815260200160405180910390f35b5f5f61007f7f00000000000000000000000000000000000000000000000000000000000000006102ee565b905061008c8160206155ca565b85146100ee577f0000000000000000000000000000000000000000000000000000000000000000856100bf8360206155ca565b6040516359895a5360e01b81526004810193909352602483019190915260448201526064015b60405180910390fd5b5f6100f76103fb565b90505f61012588887f0000000000000000000000000000000000000000000000000000000000000000610410565b90506010826040015161013891906155e1565b85146101575760405163fa06659360e01b815260040160405180910390fd5b60405163995bf45760e01b81525f9073__$766c1d4ff1635319bed72d911807c12b70$__9063995bf457906101fa9085908b908b907f0000000000000000000000000000000000000000000000000000000000000000907f0000000000000000000000000000000000000000000000000000000000000000907f000000000000000000000000000000000000000000000000000000000000000090600401615764565b610be060405180830381865af4158015610216573d5f5f3e3d5ffd5b505050506040513d601f19601f8201168201806040525081019061023a9190615a90565b905061028a8787808060200260200160405190810160405280939291908181526020018383602002808284375f9201919091525050855185516060810151608090910151919350915060016108a9565b815160a0015261029a8282610a10565b6102b7576040516313f8744360e31b815260040160405180910390fd5b6102c2828483610c17565b6102df576040516352ec174560e11b815260040160405180910390fd5b50600198975050505050505050565b5f8060026102fe60016008615b3a565b61030891906155ca565b9050610316600260036155ca565b6103209082615b3a565b9050600161032f6009856155ca565b61033991906155ca565b6103439082615b3a565b90506001610352816029615b3a565b61035c91906155ca565b6103669082615b3a565b9050610374600160026155ca565b61037e9082615b3a565b905061038b6001846155ca565b6103959082615b3a565b90506103a3600160046155ca565b6103ad9082615b3a565b905060026103bc6001856155e1565b6103c691906155ca565b6103d09082615b3a565b90506103dd6002806155ca565b6103e79082615b3a565b90506103f4601082615b3a565b9392505050565b610403615025565b61040b611c14565b905090565b6104186151af565b5f805b601081101561047a57610447868387610435602083615b3a565b9261044293929190615b4d565b61254f565b8351826010811061045a5761045a615b74565b6020020181815250506020826104709190615b3a565b915060010161041b565b5061049e85828661048c604083615b3a565b9261049993929190615b4d565b612562565b60208301526104ae604082615b3a565b90506104c185828661048c604083615b3a565b6040808401919091526104d49082615b3a565b90506104e785828661048c604083615b3a565b60608301526104f7604082615b3a565b905061050a85828661048c604083615b3a565b608083015261051a604082615b3a565b905061052d85828661048c604083615b3a565b60c083015261053d604082615b3a565b905061055085828661048c604083615b3a565b60e0830152610560604082615b3a565b905061057385828661048c604083615b3a565b60a0830152610583604082615b3a565b905061059685828661048c604083615b3a565b6101008301526105a7604082615b3a565b90506105ba85828661048c604083615b3a565b6101208301526105cb604082615b3a565b90506105de85828661048c604083615b3a565b610140830151526105f0604082615b3a565b9050610603858286610435602083615b3a565b610160830152610614602082615b3a565b90505f5b83811015610692575f5b60098110156106895761063c878488610435602083615b3a565b84610180015183601c811061065357610653615b74565b6020020151826009811061066957610669615b74565b60200201818152505060208361067f9190615b3a565b9250600101610622565b50600101610618565b505f5b6106a160016029615b3a565b8110156106f0576106b9868387610435602083615b3a565b836101c0015182602a81106106d0576106d0615b74565b6020020181815250506020826106e69190615b3a565b9150600101610695565b50610702858286610435602083615b3a565b6101a0830152610713602082615b3a565b905061072685828661048c604083615b3a565b6101408301516020015261073b604082615b3a565b905061074e85828661048c604083615b3a565b61014083015160026020020152610766604082615b3a565b90505f5b6107756001856155e1565b8110156107be5761078d86838761048c604083615b3a565b836101e0015182601b81106107a4576107a4615b74565b60200201526107b4604083615b3a565b915060010161076a565b505f5b83811015610811576107da868387610435602083615b3a565b83610200015182601c81106107f1576107f1615b74565b6020020181815250506020826108079190615b3a565b91506001016107c1565b505f5b60048110156108655761082e868387610435602083615b3a565b836102200151826004811061084557610845615b74565b60200201818152505060208261085b9190615b3a565b9150600101610814565b5061087785828661048c604083615b3a565b610240830152610888604082615b3a565b905061089b85828661048c604083615b3a565b610260830152509392505050565b5f600180826108d6866108d1896108cc6108c78a6310000000615b3a565b6125e4565b6125fc565b612617565b90505f6108f4876108ef8a6108cc6108c78b6001615b3a565b612630565b90505f5b61092360107f00000000000000000000000000000000000000000000000000000000000000006155e1565b811015610990575f61094d8c838151811061094057610940615b74565b6020026020010151612658565b905061095d866108cc8684612617565b955061096d856108cc8584612617565b9450610979848b612617565b9350610985838b612630565b9250506001016108f8565b505f5b60108110156109f7575f8a82601081106109af576109af615b74565b602002015190506109c4866108cc8684612617565b95506109d4856108cc8584612617565b94506109e0848b612617565b93506109ec838b612630565b925050600101610993565b50610a02848461266d565b9a9950505050505050505050565b5f5f610a2583606001518561016001516125fc565b905060015f5b7f0000000000000000000000000000000000000000000000000000000000000000811015610b17575f86610180015182601c8110610a6b57610a6b615b74565b602002015180519091505f90610a89908360015b6020020151612617565b9050848114610aab576040516313f8744360e31b815260040160405180910390fd5b5f876080015184601c8110610ac257610ac2615b74565b60200201519050610ad3838261267b565b9550610b07856108cc60016108d1856108cc8e604001518b601c8110610afb57610afb615b74565b60200201516001612630565b9450505050806001019050610a2b565b50610b20615292565b5f5b6029811015610b70576101c0870151610b3c600183615b3a565b602a8110610b4c57610b4c615b74565b6020020151828260298110610b6357610b63615b74565b6020020152600101610b22565b505f610b8582875f0151886020015186612829565b9050600160025b7f0000000000000000000000000000000000000000000000000000000000000000811015610be257610bd882896080015183601c8110610bce57610bce615b74565b60200201516125fc565b9150600101610b8c565b50610c08610bf5836108cc600185612630565b6108d18a6101a001518a606001516125fc565b94909414979650505050505050565b5f610c206152b1565b5f610c4f8460c001517f00000000000000000000000000000000000000000000000000000000000000006128a2565b90505f7f00000000000000000000000000000000000000000000000000000000000000006001600160401b03811115610c8a57610c8a615941565b604051908082528060200260200182016040528015610cb3578160200160208202803683370190505b5090505f7f00000000000000000000000000000000000000000000000000000000000000006001600160401b03811115610cef57610cef615941565b604051908082528060200260200182016040528015610d2857816020015b610d15615321565b815260200190600190039081610d0d5790505b509050610d5b610d56876101000151855f81518110610d4957610d49615b74565b6020026020010151612630565b61296b565b84610120018181525050610d90610d56876101000151855f81518110610d8357610d83615b74565b6020026020010151612617565b610140850181905261012085015160e0880151610db1926108d191906125fc565b845260c0860151610de190610dc59061296b565b6108cc8661012001516108ef8a60e001518961014001516125fc565b6020850152815160019083905f90610dfb57610dfb615b74565b602002602001018181525050876102400151815f81518110610e1f57610e1f615b74565b6020908102919091010152600160a08501525f60c08501528351610e42906129db565b60408501526020840151610e55906129db565b606085015260015b610e6960016024615b3a565b8111610f0a57610e8185604001518660a001516125fc565b838281518110610e9357610e93615b74565b602002602001018181525050610edc8560c001516108d18b6101c00151600185610ebd91906155e1565b602a8110610ecd57610ecd615b74565b60200201518860a001516125fc565b60c086015260a08086015190880151610ef591906125fc565b60a0860152610f0381615b88565b9050610e5d565b505f5b6005811015610fe3575f610f22601e83615b3a565b90505f610f3160016024615b3a565b610f3b9084615b3a565b9050610f6c858381518110610f5257610f52615b74565b60200260200101516108d189606001518a60a001516125fc565b858381518110610f7e57610f7e615b74565b602002602001018181525050610fbb8760c001516108d18d6101c0015184602a8110610fac57610fac615b74565b60200201518a60a001516125fc565b60c088015260a080880151908a0151610fd491906125fc565b60a08801525050600101610f0d565b50876020015181600181518110610ffc57610ffc615b74565b602002602001018190525086606001518160028151811061101f5761101f615b74565b602002602001018190525086608001518160038151811061104257611042615b74565b60200260200101819052508660a001518160048151811061106557611065615b74565b60200260200101819052508660c001518160058151811061108857611088615b74565b60200260200101819052508660e00151816006815181106110ab576110ab615b74565b6020026020010181905250866101000151816007815181106110cf576110cf615b74565b6020026020010181905250866101200151816008815181106110f3576110f3615b74565b60200260200101819052508661014001518160098151811061111757611117615b74565b602002602001018190525086610160015181600a8151811061113b5761113b615b74565b6020026020010181905250866101c0015181600b8151811061115f5761115f615b74565b602002602001018190525086610180015181600c8151811061118357611183615b74565b6020026020010181905250866101a0015181600d815181106111a7576111a7615b74565b6020026020010181905250866101e0015181600e815181106111cb576111cb615b74565b602002602001018190525086610200015181600f815181106111ef576111ef615b74565b60200260200101819052508661022001518160108151811061121357611213615b74565b60200260200101819052508661024001518160118151811061123757611237615b74565b60200260200101819052508661026001518160128151811061125b5761125b615b74565b60200260200101819052508661028001518160138151811061127f5761127f615b74565b6020026020010181905250866102a00151816014815181106112a3576112a3615b74565b6020026020010181905250866102c00151816015815181106112c7576112c7615b74565b6020026020010181905250866102e00151816016815181106112eb576112eb615b74565b60200260200101819052508661030001518160178151811061130f5761130f615b74565b60200260200101819052508661032001518160188151811061133357611333615b74565b60200260200101819052508661034001518160198151811061135757611357615b74565b602002602001018190525086610360015181601a8151811061137b5761137b615b74565b602002602001018190525086610380015181601b8151811061139f5761139f615b74565b6020026020010181905250866103a0015181601c815181106113c3576113c3615b74565b6020026020010181905250866103c0015181601d815181106113e7576113e7615b74565b6020026020010181905250876040015181601e8151811061140a5761140a615b74565b6020026020010181905250876060015181601f8151811061142d5761142d615b74565b602002602001018190525087608001518160208151811061145057611450615b74565b60200260200101819052508760a001518160218151811061147357611473615b74565b60200260200101819052508761012001518160228151811061149757611497615b74565b6020026020010181905250876101000151816023815181106114bb576114bb615b74565b60200260200101819052508760c00151816024815181106114de576114de615b74565b60200260200101819052508760e001518160258151811061150157611501615b74565b60200260200101819052505f61154787608001518660c001518b6102000151877f00000000000000000000000000000000000000000000000000000000000000006129ed565b9050611571815f8151811061155e5761155e615b74565b60200260200101518661012001516125fc565b608086018190526102008a01515160e08901516115a292916108d19161159791906125fc565b8861014001516125fc565b608086015260e08701516115b590612b4b565b60a08601525f6115c760016024615b3a565b6115d2906001615b3a565b90505f5b61160160017f00000000000000000000000000000000000000000000000000000000000000006155e1565b811015611812575f61163460017f00000000000000000000000000000000000000000000000000000000000000006155e1565b8210159050806117a357611668610d568b6101000151898560016116589190615b3a565b81518110610d4957610d49615b74565b6101208901526101008a015161169890610d569089611688866001615b3a565b81518110610d8357610d83615b74565b61014089015260a08801516101208901516116b391906125fc565b61016089015260a088015160e08b01516116db916116d0916125fc565b8961014001516125fc565b61018089018190526116fe906116f0906129db565b6108d18a61016001516129db565b866117098486615b3a565b8151811061171957611719615b74565b6020026020010181815250505f6117528961018001518e61020001518560016117429190615b3a565b601c8110610bce57610bce615b74565b905061178c816108d18b61016001518887600161176f9190615b3a565b8151811061177f5761177f615b74565b60200260200101516125fc565b905061179c896080015182612617565b60808a0152505b6117c26117b88960a001518c60e001516125fc565b8b60e001516125fc565b60a08901526101e08c015182601b81106117de576117de615b74565b6020020151856117ee8486615b3a565b815181106117fe576117fe615b74565b6020908102919091010152506001016115d6565b5061183e60017f00000000000000000000000000000000000000000000000000000000000000006155e1565b6118489082615b3a565b90506118686118608961010001518a60c00151612630565b60019061266d565b60e08701515261010088015160c08901516118ac91611860916108ef907f07b0c561a6148404f086204a9f36ffb0617942546750f230c893619174a57a76906125fc565b60e0878101805160200192909252815180516040909101529051805160609091015260a0870151908901516118ee916118e4916125fc565b8960e001516125fc565b60a08701525f5b600481101561199c575f6119278860e00151836004811061191857611918615b74565b60200201518960a001516125fc565b9050611932816129db565b886101000151836004811061194957611949615b74565b602002015260a088015160e08b015161196291906125fc565b8860a001818152505061198e88608001516108d1838f61022001518660048110610bce57610bce615b74565b6080890152506001016118f5565b506101008601515184518590839081106119b8576119b8615b74565b602090810291909101810191909152610100870151908101516119dc916002610a7f565b846119e8836001615b3a565b815181106119f8576119f8615b74565b60209081029190910101526101008601516060015184611a19836002615b3a565b81518110611a2957611a29615b74565b60209081029190910101525f5b6003811015611a8b578a61014001518160038110611a5657611a56615b74565b60200201518483611a6681615b88565b945081518110611a7857611a78615b74565b6020908102919091010152600101611a36565b506040518060400160405280600181526020016002815250838281518110611ab557611ab5615b74565b60200260200101819052508560800151848280611ad190615b88565b935081518110611ae357611ae3615b74565b602002602001018181525050611b0d8a61022001518960c001518a608001518d6101a00151612b56565b611b2a5760405163a2a2ac8360e01b815260040160405180910390fd5b5f8a6102600151905080848381518110611b4657611b46615b74565b6020026020010181905250886101000151858381518110611b6957611b69615b74565b602002602001018181525050611b7d615339565b611b878587612eb9565b8152611b9282612fb1565b602082018190528c5182515f92611baa929190612ff7565b90505f5f611bba8f5f0151613088565b91509150611bc782613149565b611bd081613149565b8351611bdd9083856131e8565b84526020840151611bef9082856131e8565b602085018190528451611c0191613217565b9f9e505050505050505050505050505050565b611c1c615025565b50604080516103e081018252620200008152601160208083019190915261024382840152825180840184527f039702f4c2b2b49fd29d82b077cbf9d1df2871e0fbade17241573ca5021603fc81527f03270b3b2673844695842df11cdbabf54acafe03642adfdfbf69834247ed0720818301526060830152825180840184527f1ccb0308d0359b8835480fa7dd829fdbf16b136d57e85c1621efb1679fe1a94c81527f207076fed3c60bbeb2df5f48c86b12f4027c523f9b8e69456ca51643fea3de1d818301526080830152825180840184527f067b40a80be55b95cc17070cf5dc78441e4868acea0ac1e46b5708705151590581527f0792e6c3d76aeeed6ee7d7e443138c813b74dbcd8ce92990e6f6747adc0af0548183015260a0830152825180840184527f148a04387a9e0a8cec6a4a0d90706f5907e8bb257fb04f8a3cfe07c18a7c101481527f225866d9efd4a5be4eb9a00016f902f844e3d81e2768b24dc92ecbd6b34176bd8183015260c0830152825180840184527f0dacf57ed82c686ca051fca3f1820016cb49e91b5d3c4bee7f9fa19800d9ed0681527f22ba5fda41aa14aeb7a3a2731fbfe3a673cf7db1d2217d32db491f44344309058183015260e0830152825180840184527f0f783f69a36c2bac47b9c59ff33ccc583a284a46b282591b9e9bbb85d8b5e5dc81527f029b91609a06e94924f0d83530fc01f3427f5ab729a0959903108c2ccc86825c81830152610100830152825180840184527f11beb2731ab8cf46c0a52666bb457fa74d4b635043bb5689a35a2aee24990b8081527f2f1fba989036c44aedb609d0d3341ccb842c2d1cd7c80cea4a95d0eb4530577081830152610120830152825180840184527f28ae1f7459c3c5d9ca2f80f8e5c28bb301d0245228bade0e2bb962b4bfbe301b81527f0622f7db14381bbecf862e186cfa570588160466ae7d4fed4b35a70d99af914f81830152610140830152825180840184527f233983f621ab48bdce4f7216bdbc54c49463e90d88301b9ab224fca61c93dba081527f265c3834d63be0bc710c9b4a48015e2442a3b9bf63caec9db0064dfb1bd569c481830152610160830152825180840184527f06d21b82f49e04e078d4ad30cd6828eaa66c1bf984bc52b79de8c786fe4dfe7a81527f301aa91e167bbc765996ac6d2889e7d49f0734bc7abb3a4b85900143556a1b3f81830152610180830152825180840184527f1222d34f53e6b36138627277789ad131ea24f79caca2d5f59193c5e3a7dfdde781527f245a380726977d41c9f0a9a0ba33608994eb3660de6a8efba38009df93da679a818301526101a0830152825180840184527f2dfc248e28ad889b5b692077f338d28b2f687c6e909b9693f8e8fd25cefc352881527f16e2cbc305166ea90a426987efff2020827d8c548ea4155c659df296f14f00fd818301526101c0830152825180840184527f0d815a04effc6e57ec95f3ac112f76ab4a9d993d044626ceb54f967c8d77d8e181527f1df4c065a1129d5cbdf244cb9cc2eaf406c2f5fbab4c393347d57ae5e2ab881f818301526101e0830152825180840184527f118733dc1db84685f4160119cb0cd9a51b831cf0643e914daf1c63fc7967297981527f27b63107b52edf239acb1bd47e24c97094422cc2bba51ee0f54b2707946be55681830152610200830152825180840184527f2e7a11cec89df0ad6b730cf80be4246e56e1667f55e35a22c9b39b196226135b81527f0891267297e339bedeef69881477b4e5c19e761e127e3d3772714f92ade80fd381830152610220830152825180840184527f16f90d7d5c3fd7ab9f490dd5d2b94afea698039e2456c1d5f0e22159348d1e0c81527f29ad721b49b02192f5323326fd803b102f7a09b0371c537db998014fa14c307981830152610240830152825180840184527f0a5e4e29375b31024f09dd662b460eb25930835255c62dc74d62d0c983981e4281527f069adf56537452ecad2fcd8cdea1291fbf273d7e752d9ba0812900e7215c8fc081830152610260830152825180840184527f1bd554f207de2e42cbc94e8579154a07e37f3ba9d80832f28e38dffaaccd1ade81527f22261d045539dbaabf26f23773b365b2ddd30af639a8b15a56e777f5607bf43581830152610280830152825180840184527f11769064ef79db1f35b23b8b1e5c118e769e1a41b912f49dfdbffbacf23d056481527f16f17c1721186bbd19d09f1645f968677cb1ad0c6b656c3849a4b7f27d5279d9818301526102a0830152825180840184527f0cad91097e151471556985b94a0188b759472f9bb3295fe6de6846f2d4fe27e181527f042f4a199546b40704a9c4822bfd20a91bc478055dc5676c7347f64545b47f4d818301526102c0830152825180840184527f1286a8beb1993863980820c27dfb00f93f8949f60933042e5aa8275dd48e55f781527f2037878d67d1009eb6dac43c5f6f076f884d456e057b000912d40a2ec440df1f818301526102e0830152825180840184527f1c0413fa3552ba4738b423829d55fcc03c912bf931336778a458e1c25cd4f55881527f190904e6db04c862bd9d7406029e03a1103a513203eb6d8faa010021eedf18d481830152610300830152825180840184527f099e3bd5a0a00ab7fe18040105b9b395b5d8b7b4a63b05df652b0d10ef146d2681527e15b8d2515d76e2ccec99dcd194592129af3a637f5a622a32440f860d1e2a7f81830152610320830152825180840184527f1b917517920bad3d8bc01c9595092a222b888108dc25d1aa450e0b4bc212c37e81527f305e8992b148eedb22e6e992077a84482141c7ebe42000a1d58ccb74381f6d1981830152610340830152825180840184527f061f64497996e8915722501e9e367938ed8da2375186b518c7345c60b1134b2d81527f1b84d38339321f405ebaf6a2f830842ad3d7cb59792e11c0d2691f317fd50e6e81830152610360830152825180840184527f043d063b130adfb37342af45d0155a28edd1a7e46c840d9c943fdf45521c64ce81527f261522c4089330646aff96736194949330952ae74c573d1686d9cb4a007338548183015261038083015282518084018452600181526002818301526103a083015282518084019093527f0ad44c49c91e4374983e023f10e6256c39d27b2857eb2d2ce82a82b51e02dc3883527f23ad26f46d7b04b00d6ebe50273765d49c59d9db9ae22dd33909bc3c9efc5308908301526103c081019190915290565b5f6103f461255d8385615ba0565b612658565b61256a615321565b60408051808201909152805f516020615c6f5f395f51905f5261259060205f8789615b4d565b61259991615ba0565b6125a39190615bbd565b81526020908101905f516020615c6f5f395f51905f52906125c8906040908789615b4d565b6125d191615ba0565b6125db9190615bbd565b90529392505050565b5f5f516020615c8f5f395f51905f52825b0692915050565b5f5f516020615c8f5f395f51905f5282840990505b92915050565b5f5f516020615c8f5f395f51905f528284089392505050565b5f5f516020615c8f5f395f51905f52825f516020615c8f5f395f51905f520384089392505050565b5f5f516020615c8f5f395f51905f52826125f5565b5f6103f4836108cc8461296b565b5f5f604051806101200160405280619d8081526020017f30644e72e131a029b85045b68181585d2833e84879b9709143e1f593efffec5181526020016105a081526020017f30644e72e131a029b85045b68181585d2833e84879b9709143e1f593effffd31815260200161024081526020017f30644e72e131a029b85045b68181585d2833e84879b9709143e1f593effffd3181526020016105a081526020017f30644e72e131a029b85045b68181585d2833e84879b9709143e1f593efffec518152602001619d8081525090505f600190505f5f90505b60098110156127745761276a826108cc8784612630565b9150600101612753565b5061277d61534c565b5f5b60098110156127ce576127af610d568583600981106127a0576127a0615b74565b60200201516108cc8985612630565b8282600981106127c1576127c1615b74565b602002015260010161277f565b505f5b60098110156128145761280a856108d18984600981106127f3576127f3615b74565b6020020151858560098110610bce57610bce615b74565b94506001016127d1565b5061281f84836125fc565b9695505050505050565b5f61283261536b565b61283d86828561340b565b612849868683866135b7565b612855868683866137a3565b6128608682856139c8565b61286b868285613bbc565b61287786868386613f05565b6128828682856143b1565b61288d8682856147c3565b612898868285614b84565b61281f8185614e84565b60605f826001600160401b038111156128bd576128bd615941565b6040519080825280602002602001820160405280156128e6578160200160208202803683370190505b50905083815f815181106128fc576128fc615b74565b602090810291909101015260015b838110156129635761293e826129216001846155e1565b8151811061293157612931615b74565b6020026020010151612b4b565b82828151811061295057612950615b74565b602090810291909101015260010161290a565b509392505050565b5f5f8290505f604051602081526020808201526020604082015282606082015260025f516020615c8f5f395f51905f520360808201525f516020615c8f5f395f51905f5260a082015260205f60c08360055afa806129c7575f5ffd5b505f51608091909101604052949350505050565b5f516020615c8f5f395f51905f520390565b60605f826001600160401b03811115612a0857612a08615941565b604051908082528060200260200182016040528015612a31578160200160208202803683370190505b509050825b8015612b40575f85612a496001846155e1565b81518110612a5957612a59615b74565b602002602001015190505f89600184612a7291906155e1565b601c8110612a8257612a82615b74565b602002015190505f612add612aa1612a9a858d6125fc565b60026125fc565b6108ef8b612ab06001896155e1565b601c8110612ac057612ac0615b74565b60200201516108cc612ad7886108cc60018a612630565b87612630565b9050612afe816108cc610d56612af8876108cc600189612630565b86612617565b99508990508085612b106001876155e1565b81518110612b2057612b20615b74565b60200260200101818152505050505080612b3990615bdc565b9050612a36565b509695505050505050565b5f61261182836125fc565b5f600181612b6f612b6987610100614edd565b83612630565b905080612b8f5760405163835eb8f760e01b815260040160405180910390fd5b612b9761538a565b80518390525f5b7f0000000000000000000000000000000000000000000000000000000000000000811015612c80575f612bd28260096155ca565b612bdd906001615b3a565b905084835f0151826101008110612bf657612bf6615b74565b60200201525f612c07826001615b3a565b90505b612c15600983615b3a565b811015612c76578351612c5590612c2d6001846155e1565b6101008110612c3e57612c3e615b74565b60200201518a85601c8110610bce57610bce615b74565b8451826101008110612c6957612c69615b74565b6020020152600101612c0a565b5050600101612b9e565b50608081018390525f602082018190525b610100811015612d9157612cb2612cac83608001518a6125fc565b85612630565b8260a00151826101008110612cc957612cc9615b74565b602002015260a0820151612cf390826101008110612ce957612ce9615b74565b602002015161296b565b8260a00151826101008110612d0a57612d0a615b74565b602002018181525050612d5082602001516108d1845f0151846101008110612d3457612d34615b74565b60200201518560a00151856101008110610bce57610bce615b74565b60208301526080820151612d84907f204bd3277422fad364751ad938e2b5e6a54cf8c68712848a692c553d0329f5d66125fc565b6080830152600101612c91565b505f612da2836108cc61010061296b565b9050612db28260200151826125fc565b602083015260a0820151612dcd905f5b6020020151826125fc565b604083015260a0820151612df990612de860016101006155e1565b6101008110612dc257612dc2615b74565b60608301526040820151612e0f908a6002610bce565b60c08301819052612e6f906108d1612e478b7f204bd3277422fad364751ad938e2b5e6a54cf8c68712848a692c553d0329f5d6612630565b60208d015160408e01516108cc91612e5e91612630565b8e5160208901516108ef91906125fc565b60c083018190526060830151612ea491612e98916108d1906108cc8e600260200201518c612630565b6108ef858c6003610bce565b60c08301819052159998505050505050505050565b612ec1615321565b7f00000000000000000000000000000000000000000000000000000000000000005f5b81811015612f1657612f0e858281518110612f0157612f01615b74565b6020026020010151613149565b600101612ee4565b50604051600190815b60018401811015612f7b5760208102870160208202870181515160408501528151602001516060850152805160808501525050604080830160606040850160075afa8316925060408260808460065afa90921691600101612f1f565b5080518452602081015160208501525080612fa9576040516352ec174560e11b815260040160405180910390fd5b505092915050565b612fb9615321565b5f516020615c6f5f395f51905f5282602001515f516020615c6f5f395f51905f52612fe491906155e1565b612fee9190615bbd565b60208301525090565b5f5f5f61300386613088565b9150915061300f6153ce565b82518152602080840151818301528251604080840191909152838201516060840152875160808401528782015160a0840152865160c08401528682015160e08401525161307d9161306291849101615bf1565b60405160208183030381529060405280519060200120612658565b979650505050505050565b613090615321565b613098615321565b82516020808501516040860151606087015160cc90811b608892831b604494851b90961795909517949094178652608087015160a088015160c089015160e08a0151871b90841b91851b9092171717868401526101008701516101208801516101408901516101608a0151871b90841b91851b909217171785526101808701516101a08801516101c08901516101e09099015190951b9790911b9390911b1791909117939093179281019290925291565b805160208201515f5f516020615c6f5f395f51905f528380095f516020615c6f5f395f51905f5260035f516020615c6f5f395f51905f52838709085f516020615c6f5f395f51905f5284850914915050806131e25760405162461bcd60e51b8152602060048201526019602482015278706f696e74206973206e6f74206f6e2074686520637572766560381b60448201526064016100e5565b50505050565b6131f0615321565b6131f8615321565b6132028386614f3e565b905061320e8185614f94565b95945050505050565b81516020808401518351848301516040805194850195909552938301919091527f198e9393920d483a7260bfb731fb5d25f1aa493335a9e71297e485b7aef312c260608301527f1800deef121f1e76426a00665e5c4479674322d4f75edadd46debd5cd992f6ed60808301527f090689d0585ff075ec9e99ad690c3395bc4b313370b38ef355acdadcd122975b60a08301527f12c85ea5db8c6deb4aab71808dcb408fe3d1e7690c43d37b4ce6cc0166fa7daa60c083015260e08201526101008101919091527f260e01b251f6f1c7e7ff4e580791dee8ea51d87a358e038b4efe30fac09383c16101208201527f0118c4d5b837bcc2bc89b5b398b5974e9f5944073b32078b7e231fec938883b06101408201527f04fc6369f7110fe3d25156c1bb9a72859cf2a04641f99ba4ee413c80da6a5fe46101608201527f22febda3c0c0632a56475b4214e5615e11e6dd3f96e6cea2854a87d4dacc5e556101808201525f9081906101a00160405160208183030381529060405290505f5f60086001600160a01b0316836040516133ad9190615c25565b5f60405180830381855afa9150503d805f81146133e5576040519150601f19603f3d011682016040523d82523d5f602084013e6133ea565b606091505b509150915081801561281f57508080602001905181019061281f9190615c3b565b5f613417846007614ff5565b90507f183227397098d014dc2822db40c0ac2e9419f4243cdcb848a1f0fac9f80000005f61347861347261344c856003612630565b6108cc61346761345c8b5f614ff5565b6108cc8c601d614ff5565b6108cc8b601c614ff5565b836125fc565b90506134f96134ee6134d56134bc6134a3856108d16134988d6002614ff5565b6108cc8e601c614ff5565b6108d16134b18c6003614ff5565b6108cc8d601d614ff5565b6108d16134ca8b6004614ff5565b6108cc8c601e614ff5565b6108d16134e38a6005614ff5565b6108cc8b601f614ff5565b6108d1886001614ff5565b9050613518816108d161350d866001612630565b6108cc8a6027614ff5565b905061352481846125fc565b905061353081856125fc565b8552505f905061356a61356061355561354a88601c614ff5565b6108d189601f614ff5565b6108ef886024614ff5565b6108d1875f614ff5565b905061357b816108cc846002612630565b905061358c816108cc846001612630565b905061359881836125fc565b90506135a481846125fc565b9050808460015b60200201525050505050565b5f5f5f6135ed6135e36135cb89601c614ff5565b6108d16135d98b6012614ff5565b8a606001516125fc565b8760800151612617565b9050613626816108cc61361c6136048b601d614ff5565b6108d16136128d6013614ff5565b8c606001516125fc565b8960800151612617565b905061364b816108cc61361c61363d8b601e614ff5565b6108d16136128d6014614ff5565b9050613670816108cc61361c6136628b601f614ff5565b6108d16136128d6015614ff5565b92505f90506136946135e361368689601c614ff5565b6108d16135d98b600e614ff5565b90506136b9816108cc61361c6136ab8b601d614ff5565b6108d16136128d600f614ff5565b90506136de816108cc61361c6136d08b601e614ff5565b6108d16136128d6010614ff5565b9050613703816108cc61361c6136f58b601f614ff5565b6108d16136128d6011614ff5565b91505f905061372a613724613719896020614ff5565b6108d18a601a614ff5565b846125fc565b905061375f816108ef6137596137418b6028614ff5565b6108d161374f8d601b614ff5565b8c60a001516125fc565b856125fc565b905061376b81856125fc565b6040860152505f61378e61375961378389601b614ff5565b6108cc8a6028614ff5565b9050808560035b602002015250505050505050565b5f5f6138016137e96137d16137bc61361c8a6016614ff5565b6108d16137ca8b6017614ff5565b8a516125fc565b6108d16137df8a6018614ff5565b89602001516125fc565b6108d16137f7896019614ff5565b88604001516125fc565b91505f61383861381f61381589601c614ff5565b8860800151612617565b6108d161382d8a6003614ff5565b6108cc8b6024614ff5565b90505f61386161384989601d614ff5565b6108d16138568b5f614ff5565b6108cc8c6025614ff5565b90505f61388b6138728a601e614ff5565b6108d16138808c6001614ff5565b6108cc8d6026614ff5565b90506138ca6138b26138a4856108d1868d5f01516125fc565b6108d1848c602001516125fc565b6108d16138c08c6004614ff5565b8b604001516125fc565b93505050505f6138de613724886021614ff5565b90505f6138ef613724896021614ff5565b90505f61392761390e6139038b6023614ff5565b6108d18c6006614ff5565b6108ef61391c8c6023614ff5565b6108cc8d6006614ff5565b90505f613945612b6961393a87896125fc565b6108cc8d6021614ff5565b905061395181886125fc565b90505f61397961396b6139658d6006614ff5565b876125fc565b6108ef6139658e6022614ff5565b90505f6139878c6023614ff5565b90505f613997612b6983846125fc565b60808c0185905260a08c0184905290506139b1818b6125fc565b8b6006602002015250505050505050505050505050565b5f6139d45f6001612630565b90505f6139e25f6002612630565b90505f6139f05f6003612630565b90505f613a0c613a0188601d614ff5565b6108ef89601c614ff5565b90505f613a28613a1d89601e614ff5565b6108ef8a601d614ff5565b90505f613a44613a398a601f614ff5565b6108ef8b601e614ff5565b90505f613a60613a558b6024614ff5565b6108ef8c601f614ff5565b905083613a71816108cc818b612617565b9050613a81816108cc878a612617565b9050613a91816108cc8789612617565b9050613aa2816108cc8d6008614ff5565b9050613aae818a6125fc565b60e08b01525082613ac3816108cc818b612617565b9050613ad3816108cc868a612617565b9050613ae3816108cc8689612617565b9050613af4816108cc8d6008614ff5565b9050613b00818a6125fc565b6101008b01525081613b16816108cc818b612617565b9050613b26816108cc858a612617565b9050613b36816108cc8589612617565b9050613b47816108cc8d6008614ff5565b9050613b53818a6125fc565b6101208b01525080613b69816108cc818b612617565b9050613b79816108cc848a612617565b9050613b89816108cc8489612617565b9050613b9a816108cc8d6008614ff5565b9050613ba6818a6125fc565b610140909a019990995250505050505050505050565b613bf56040518060e001604052805f81526020015f81526020015f81526020015f81526020015f81526020015f81526020015f81525090565b613c0084601d614ff5565b8152613c0d84601e614ff5565b6020820152613c1d846024614ff5565b6040820152613c2d846027614ff5565b6060820152613c3d846026614ff5565b6080820152613c4d846025614ff5565b60a08201525f613c5e856002614ff5565b90505f613c6b865f614ff5565b90505f613c7f8460400151855f0151612630565b90505f613c94856020015186602001516125fc565b606086015190915086905f90613caa90806125fc565b90505f613cc8613cc289602001518a606001516125fc565b886125fc565b90505f613ce7613ce08a60a001518b60400151612617565b8a51612617565b9050613cf661396582886125fc565b9050613d1d613d17613d11613d0b8487612630565b88612630565b84612617565b83612617565b9050613d45613d3a613d2f83876125fc565b6108cc8f6009614ff5565b6108cc60018a612630565b6101608c015250505050602085015160808601515f91613d6491612617565b90505f613d82613d788860600151886125fc565b8860200151612630565b90505f613da6613d9284876125fc565b6108d16137598b60a001518c5f0151612630565b9050613dce613dc3613db8838c6125fc565b6108cc8e6009614ff5565b6108cc600189612630565b6101808b0152505f9150613def9050613de8836011612617565b87516125fc565b90505f613dfc8384612617565b9050613e088182612617565b90505f613e168360096125fc565b9050613e3f613e39613724613e328b60a001518c5f0151612617565b8b51612617565b82612630565b60c089018190525f90613e5a90613cc290613d2f908d6125fc565b9050613e6d8b600b602002015182612617565b6101608c0152505086515f9250613e949150613de890613e8d9080612617565b8851612617565b90505f613ed4613eaf836108cc8a5f01518b60a00151612630565b60208901516108ef90613ec29080612617565b6108cc8b602001518c60800151612617565b9050613ef189600c60200201516108d1613cc2613d2f858d6125fc565b89600c602002015250505050505050505050565b613f6f604051806101e001604052805f81526020015f81526020015f81526020015f81526020015f81526020015f81526020015f81526020015f81526020015f81526020015f81526020015f81526020015f81526020015f81526020015f81526020015f81525090565b613f87613f7d86601e614ff5565b85604001516125fc565b808252613fa6906108d1613f9c88601d614ff5565b87602001516125fc565b808252613fbb906108d1613de888601c614ff5565b808252613fcd906108d1876001614ff5565b80825260208201819052613fe6906108ef87601f614ff5565b8152614001613ff6866024614ff5565b6108ef87601c614ff5565b608082015261401f614014866027614ff5565b6108ef87601f614ff5565b60608201526080810151614038906108cc816001612630565b6101c082015260808101516140789061406e90614067906108cc60015f516020615c8f5f395f51905f526155e1565b6001612617565b82606001516125fc565b60a082018190526140ae906140a0906108cc614095896002614ff5565b6108cc8a6003614ff5565b6108cc61375988600a614ff5565b83600e60200201526101c08101516140d2906140a0906108cc614095896002614ff5565b6101e084015280516140f7906108cc6140ec886002614ff5565b6108cc896003614ff5565b6101208201525f61411661410c87601f614ff5565b8360200151612630565b9050614127816108cc836001612630565b60e083015261414461413a876026614ff5565b86604001516125fc565b60408301819052614167906108d161415d896025614ff5565b88602001516125fc565b60408301819052614187906108d1614180896024614ff5565b88516125fc565b60408301526141a461419a876027614ff5565b8360400151612630565b60408301525f6141c36141b8886026614ff5565b6108ef89601e614ff5565b90506142156141f0613472614067866080015160015f516020615c8f5f395f51905f526108cc91906155e1565b6108cc614067866040015160015f516020615c8f5f395f51905f526108cc91906155e1565b60c084015260408301516142379061422d90806125fc565b8460400151612630565b61010084015260c083015161426390614255906108cc8a6004614ff5565b6108cc6139658a600a614ff5565b6102008601526101c083015161428290614255906108cc8a6004614ff5565b6102208601526101008301516142a190614255906108cc8a6004614ff5565b61024086015260e08301516142bb906108cc896004614ff5565b6101408401526142da6142cf886025614ff5565b6108ef89601d614ff5565b6101608401526080830151614318906141b89061430d90614067906108cc60015f516020615c8f5f395f51905f526155e1565b8561016001516125fc565b61018084018190526101208401516101a0850181905261434f916108d1906108cc6143448c6005614ff5565b6108cc8d6002614ff5565b6101a08401819052835161436f91906108d1906108cc6143448c5f614ff5565b6101a084018190526101408401516143879190612617565b6101a084018190526143a1906108cc6139658a600a614ff5565b6101a0840181905285600d613795565b6143ea6040518060e001604052805f81526020015f81526020015f81526020015f81526020015f81526020015f81526020015f81525090565b61441f6144066143fb86601c614ff5565b6108cc876025614ff5565b6108d1614414876024614ff5565b6108cc88601d614ff5565b815261446461445961444061443587601c614ff5565b6108cc88601f614ff5565b6108d161444e88601d614ff5565b6108cc89601e614ff5565b6108ef866026614ff5565b6040820181905261447990600160441b6125fc565b6040820181905261448f906108ef866027614ff5565b6040820181905281516144a29190612617565b604082018190526144b8906108cc866005614ff5565b604082015280516144cd90600160441b6125fc565b8082526144ed906108d16144e2876024614ff5565b6108cc886025614ff5565b80825260208201819052614514906108ef61450987601e614ff5565b6108d188601f614ff5565b6020820181905261452a906108cc866004614ff5565b6020820152805160608201819052614547906108d186601f614ff5565b6060820181905261456b906108ef614560876026614ff5565b6108d1886027614ff5565b60608201819052614580906108cc865f614ff5565b8160600181815250505f6145a961459f83602001518460400151612617565b8360600151612617565b90506145ba816108cc876003614ff5565b90506145d26145ca866025614ff5565b6140006125fc565b608083018190526145e8906108d1876024614ff5565b608083018190526145fb906140006125fc565b60808301819052614611906108d187601e614ff5565b60808301819052614624906140006125fc565b6080830181905261463a906108d187601d614ff5565b6080830181905261464d906140006125fc565b60808301819052614663906108d187601c614ff5565b60808301819052614679906108ef87601f614ff5565b6080830181905261468f906108cc876005614ff5565b60808301526146a26145ca866026614ff5565b60a083018190526146b8906108d1876025614ff5565b60a083018190526146cb906140006125fc565b60a083018190526146e1906108d1876024614ff5565b60a083018190526146f4906140006125fc565b60a0830181905261470a906108d187601f614ff5565b60a0830181905261471d906140006125fc565b60a08301819052614733906108d187601e614ff5565b60a08301819052614749906108ef876027614ff5565b60a0830181905261475e906108cc875f614ff5565b60a0830181905260808301515f916147769190612617565b9050614787816108cc886004614ff5565b90506147938282612617565b60c084018190526147ac906108cc61396589600b614ff5565b60c084018190528560136020020152505050505050565b6148396040518061022001604052805f81526020015f81526020015f81526020015f81526020015f81526020015f81526020015f81526020015f81526020015f81526020015f81526020015f81526020015f81526020015f81526020015f81526020015f81526020015f81526020015f81525090565b61485261484785601c614ff5565b6108d1866002614ff5565b815261486d61486285601d614ff5565b6108d1866003614ff5565b602082015261488b61488085601e614ff5565b6108d1866004614ff5565b60408201526148a961489e85601f614ff5565b6108d1866005614ff5565b606082015280516148db906148d4906148cd906148c690806125fc565b84516125fc565b83516125fc565b82516125fc565b608082015260208101516149199061490f90614905906148fb90806125fc565b84602001516125fc565b83602001516125fc565b82602001516125fc565b60a082015260408101516149579061494d906149439061493990806125fc565b84604001516125fc565b83604001516125fc565b82604001516125fc565b60c0820152606081015161498b9061406e906149819061497790806125fc565b84606001516125fc565b83606001516125fc565b60e0820152608081015160a08201516149a49190612617565b61010082015260c081015160e08201516149be9190612617565b61012082015260a08101516149e2906149d79080612617565b826101200151612617565b61014082015260e0810151614a06906149fb9080612617565b826101000151612617565b610160820152610120810151614a1c9080612617565b6101e08201819052614a3d90614a329080612617565b826101600151612617565b6101e0820152610100810151614a539080612617565b6101a08201819052614a7490614a699080612617565b826101400151612617565b6101a08201819052610160820151614a8b91612617565b6101808201526101408101516101e0820151614aa79190612617565b6101c0820152614abb61347285600c614ff5565b6102008201819052610280840151610180830151614ae6926108d1916108cc906108ef8a6024614ff5565b8360146020020152614b1683601560200201516108d18361020001516108cc856101a001516108ef8a6025614ff5565b8360156020020152614b4683601660200201516108d18361020001516108cc856101c001516108ef8a6026614ff5565b8360166020020152614b7683601760200201516108d18361020001516108cc856101e001516108ef8a6027614ff5565b836017602002015250505050565b614bd66040518061016001604052805f81526020015f81526020015f81526020015f81526020015f81526020015f81526020015f81526020015f81526020015f81526020015f81526020015f81525090565b5f6040518060800160405280614c0b7f10dc6e9c006ea38b04b1e03b4bd9490c0d03f98929ca1d7fb56821fd19d3b6e76125e4565b8152602001614c397f0c28145b6a44df3e0149b3d0a30b3bb599df9756d4dd9b84a86b38cfb45a740b6125e4565b8152602001614c667e544b8338791518b2c7645a50392798b21f75bb60e3596170067d00141cac156125e4565b8152602001614c947f222c01175718386f2e2e82eb122789e352e105a3b8fa852613bc534433ee428b6125e4565b90529050614cb1614ca686601c614ff5565b6108d1876002614ff5565b6101208301819052614cf090614ce590614cda90614ccf90806125fc565b8561012001516125fc565b8461012001516125fc565b8361012001516125fc565b8252614cfd85601d614ff5565b6020830152614d0d85601e614ff5565b6040830152614d1d85601f614ff5565b606083015281516020830151614d459161459f91614d3b9190612617565b8460400151612617565b6080830152614d5861372486600d614ff5565b6101408301528151614d7990614d6f90835f610bce565b8360800151612617565b60a0830152614da584601860200201516108d18461014001516108cc8660a001516108ef8b6024614ff5565b6103008501526020820151614dc090614d6f90836001610bce565b60c0830152614dec84601960200201516108d18461014001516108cc8660c001516108ef8b6025614ff5565b6103208501526040820151614e0790614d6f90836002610bce565b60e0830152614e3384601a60200201516108d18461014001516108cc8660e001516108ef8b6026614ff5565b6103408501526060820151614e4e90614d6f90836003610bce565b610100830152614e7c84601b60200201516108d18461014001516108cc8661010001516108ef8b6027614ff5565b84601b6135ab565b815160015b601c811015614ed657614ecc826108d18684601c8110614eab57614eab615b74565b602002015186614ebc6001876155e1565b601b8110610bce57610bce615b74565b9150600101614e89565b5092915050565b5f5f8390505f60405160208152602080820152602060408201528260608201528460808201525f516020615c8f5f395f51905f5260a082015260205f60c08360055afa80614f29575f5ffd5b505f5160809190910160405295945050505050565b614f46615321565b614f4e615321565b604051835181526020840151602082015284604082015260408160608360075afa80614f78575f5ffd5b5080518252602080820151908301526060016040529392505050565b614f9c615321565b614fa4615321565b6040518451815260208501516020820152835160408201526020840151606082015260408160808360065afa80614fd9575f5ffd5b5080518252602080820151908301526080016040529392505050565b5f8282602881111561500957615009615c5a565b6029811061501957615019615b74565b60200201519392505050565b604051806103e001604052805f81526020015f81526020015f815260200161504b615321565b8152602001615058615321565b8152602001615065615321565b8152602001615072615321565b815260200161507f615321565b815260200161508c615321565b8152602001615099615321565b81526020016150a6615321565b81526020016150b3615321565b81526020016150c0615321565b81526020016150cd615321565b81526020016150da615321565b81526020016150e7615321565b81526020016150f4615321565b8152602001615101615321565b815260200161510e615321565b815260200161511b615321565b8152602001615128615321565b8152602001615135615321565b8152602001615142615321565b815260200161514f615321565b815260200161515c615321565b8152602001615169615321565b8152602001615176615321565b8152602001615183615321565b8152602001615190615321565b815260200161519d615321565b81526020016151aa615321565b905290565b6040518061028001604052806151c36153ed565b81526020016151d0615321565b81526020016151dd615321565b81526020016151ea615321565b81526020016151f7615321565b8152602001615204615321565b8152602001615211615321565b815260200161521e615321565b815260200161522b615321565b8152602001615238615321565b815260200161524561540c565b81526020015f8152602001615258615439565b81526020015f815260200161526b615467565b8152602001615278615486565b815260200161528561536b565b81526020016151906154b4565b6040518061052001604052806029906020820280368337509192915050565b604051806101c001604052805f81526020015f81526020015f81526020015f81526020015f81526020015f81526020015f81526020016152ef6154b4565b81526020016152fc6154b4565b81526020015f81526020015f81526020015f81526020015f8152602001606081525090565b60405180604001604052805f81526020015f81525090565b604051806040016040528061519d615321565b6040518061012001604052806009906020820280368337509192915050565b604051806103800160405280601c906020820280368337509192915050565b6040518060e0016040528061539d6154d2565b81526020015f81526020015f81526020015f81526020015f81526020016153c26154d2565b81526020015f81525090565b6040518061010001604052806008906020820280368337509192915050565b6040518061020001604052806010906020820280368337509192915050565b60405180606001604052806003905b615423615321565b81526020019060019003908161541b5790505090565b604051806103800160405280601c905b61545161534c565b8152602001906001900390816154495790505090565b604051806105400160405280602a906020820280368337509192915050565b604051806103600160405280601b905b61549e615321565b8152602001906001900390816154965790505090565b60405180608001604052806004906020820280368337509192915050565b604051806120000160405280610100906020820280368337509192915050565b5f5f5f5f60408587031215615505575f5ffd5b84356001600160401b0381111561551a575f5ffd5b8501601f8101871361552a575f5ffd5b80356001600160401b0381111561553f575f5ffd5b876020828401011115615550575f5ffd5b6020918201955093508501356001600160401b0381111561556f575f5ffd5b8501601f8101871361557f575f5ffd5b80356001600160401b03811115615594575f5ffd5b8760208260051b84010111156155a8575f5ffd5b949793965060200194505050565b634e487b7160e01b5f52601160045260245ffd5b8082028115828204841417612611576126116155b6565b81810381811115612611576126116155b6565b805f5b60108110156131e25781518452602093840193909101906001016155f7565b805f5b60038110156131e25761563784835180518252602090810151910152565b6040939093019260209190910190600101615619565b805f5b601c8110156131e2578151845f5b600981101561567d57825182526020928301929091019060010161565e565b505050610120939093019260209190910190600101615650565b805f5b602a8110156131e257815184526020938401939091019060010161569a565b805f5b601b8110156131e2576156da84835180518252602090810151910152565b60409390930192602091909101906001016156bc565b805f5b601c8110156131e25781518452602093840193909101906001016156f3565b805f5b60048110156131e2578151845260209384019390910190600101615715565b8183525f6001600160fb1b0383111561574b575f5ffd5b8260051b80836020870137939093016020019392505050565b61576f8188516155f4565b5f602088015161578d61020084018280518252602090810151910152565b5060408801518051610240840152602090810151610260840152606089015180516102808501528101516102a0840152608089015180516102c08501528101516102e084015260a0890151805161030085015281015161032084015260c0890151805161034085015281015161036084015260e089015180516103808501528101516103a084015261010089015180516103c08501528101516103e084015261012089015180516104008501520151610420830152610140880151615856610440840182615616565b5061016088015161050083015261018088015161587761052084018261564d565b506101a08801516124a08301526101c08801516158986124c0840182615697565b506101e08801516158ad612a008401826156b9565b506102008801516158c26130c08401826156f0565b506102208801516158d7613440840182615712565b5061024088015180516134c08401526020908101516134e0840152610260890151805161350085015201516135208301526135c061354083018190526159209083018789615734565b613560830195909552506135808101929092526135a0909101529392505050565b634e487b7160e01b5f52604160045260245ffd5b60405161014081016001600160401b038111828210171561597857615978615941565b60405290565b604051601f8201601f191681016001600160401b03811182821017156159a6576159a6615941565b604052919050565b5f60c082840312156159be575f5ffd5b60405160c081016001600160401b03811182821017156159e0576159e0615941565b604090815283518252602080850151908301528381015190820152606080840151908201526080808401519082015260a0928301519281019290925250919050565b5f82601f830112615a31575f5ffd5b5f610360615a3e8161597e565b915083018185821115615a4f575f5ffd5b845b82811015615a69578051825260209182019101615a51565b509195945050505050565b5f82601f830112615a83575f5ffd5b5f610380615a3e8161597e565b5f610be0828403128015615aa2575f5ffd5b50615aab615955565b615ab584846159ae565b8152615ac48460c08501615a22565b6020820152615ad7846104208501615a74565b60408201526107a08301516060820152615af5846107c08501615a74565b6080820152610b4083015160a0820152610b6083015160c0820152610b8083015160e0820152610ba0830151610100820152610bc09092015161012083015250919050565b80820180821115612611576126116155b6565b5f5f85851115615b5b575f5ffd5b83861115615b67575f5ffd5b5050820193919092039150565b634e487b7160e01b5f52603260045260245ffd5b5f60018201615b9957615b996155b6565b5060010190565b80356020831015612611575f19602084900360031b1b1692915050565b5f82615bd757634e487b7160e01b5f52601260045260245ffd5b500690565b5f81615bea57615bea6155b6565b505f190190565b5f8183825b6008811015615c15578151835260209283019290910190600101615bf6565b5050506101008201905092915050565b5f82518060208501845e5f920191825250919050565b5f60208284031215615c4b575f5ffd5b815180151581146103f4575f5ffd5b634e487b7160e01b5f52602160045260245ffdfe30644e72e131a029b85045b68181585d97816a916871ca8d3c208c16d87cfd4730644e72e131a029b85045b68181585d2833e84879b9709143e1f593f0000001a164736f6c634300081c000a",
  "linkReferences": {
    "project/contracts/verifier/ThresholdDecryptedSharesAggregationBnVerifier.sol": {
      "ZKTranscriptLib": [
        {
          "length": 20,
          "start": 690
        }
      ]
    }
  },
  "deployedLinkReferences": {
    "project/contracts/verifier/ThresholdDecryptedSharesAggregationBnVerifier.sol": {
      "ZKTranscriptLib": [
        {
          "length": 20,
          "start": 360
        }
      ]
    }
  },
  "immutableReferences": {
    "45189": [
      {
        "length": 32,
        "start": 91
      },
      {
        "length": 32,
        "start": 148
      },
      {
        "length": 32,
        "start": 257
      },
      {
        "length": 32,
        "start": 466
      },
      {
        "length": 32,
        "start": 2605
      },
      {
        "length": 32,
        "start": 2958
      },
      {
        "length": 32,
        "start": 3115
      },
      {
        "length": 32,
        "start": 5411
      },
      {
        "length": 32,
        "start": 5597
      },
      {
        "length": 32,
        "start": 5648
      },
      {
        "length": 32,
        "start": 6170
      },
      {
        "length": 32,
        "start": 11168
      }
    ],
    "45191": [
      {
        "length": 32,
        "start": 398
      }
    ],
    "45193": [
      {
        "length": 32,
        "start": 432
      },
      {
        "length": 32,
        "start": 2303
      }
    ],
    "45195": [
      {
        "length": 32,
        "start": 3156
      },
      {
        "length": 32,
        "start": 3257
      },
      {
        "length": 32,
        "start": 11971
      }
    ]
  },
  "inputSourceName": "project/contracts/verifier/ThresholdDecryptedSharesAggregationBnVerifier.sol",
  "buildInfoId": "solc-0_8_28-bd46eae6f77be9a8538850385226c1ee4fc57e42"
}