{
  "_format": "hh3-artifact-1",
  "contractName": "CiphernodeRegistryOwnable",
  "sourceName": "contracts/registry/CiphernodeRegistryOwnable.sol",
  "abi": [
    {
      "inputs": [],
      "stateMutability": "nonpayable",
      "type": "constructor"
    },
    {
      "inputs": [],
      "name": "BondingRegistryNotSet",
      "type": "error"
    },
    {
      "inputs": [
        {
          "internalType": "address",
          "name": "node",
          "type": "address"
        }
      ],
      "name": "CiphernodeNotEnabled",
      "type": "error"
    },
    {
      "inputs": [],
      "name": "CommitteeAlreadyFinalized",
      "type": "error"
    },
    {
      "inputs": [],
      "name": "CommitteeAlreadyPublished",
      "type": "error"
    },
    {
      "inputs": [],
      "name": "CommitteeAlreadyRequested",
      "type": "error"
    },
    {
      "inputs": [],
      "name": "CommitteeDeadlineReached",
      "type": "error"
    },
    {
      "inputs": [],
      "name": "CommitteeNotFinalized",
      "type": "error"
    },
    {
      "inputs": [],
      "name": "CommitteeNotInitializedOrFinalized",
      "type": "error"
    },
    {
      "inputs": [],
      "name": "CommitteeNotPublished",
      "type": "error"
    },
    {
      "inputs": [],
      "name": "CommitteeNotRequested",
      "type": "error"
    },
    {
      "inputs": [
        {
          "internalType": "uint256",
          "name": "requested",
          "type": "uint256"
        },
        {
          "internalType": "uint256",
          "name": "available",
          "type": "uint256"
        }
      ],
      "name": "InsufficientCiphernodes",
      "type": "error"
    },
    {
      "inputs": [],
      "name": "InvalidInitialization",
      "type": "error"
    },
    {
      "inputs": [],
      "name": "InvalidTicketNumber",
      "type": "error"
    },
    {
      "inputs": [],
      "name": "NodeAlreadySubmitted",
      "type": "error"
    },
    {
      "inputs": [
        {
          "internalType": "address",
          "name": "node",
          "type": "address"
        }
      ],
      "name": "NodeNotBonded",
      "type": "error"
    },
    {
      "inputs": [],
      "name": "NodeNotEligible",
      "type": "error"
    },
    {
      "inputs": [],
      "name": "NodeNotSubmitted",
      "type": "error"
    },
    {
      "inputs": [],
      "name": "NotInitializing",
      "type": "error"
    },
    {
      "inputs": [],
      "name": "NotOwnerOrBondingRegistry",
      "type": "error"
    },
    {
      "inputs": [],
      "name": "NotSlashingManager",
      "type": "error"
    },
    {
      "inputs": [],
      "name": "OnlyBondingRegistry",
      "type": "error"
    },
    {
      "inputs": [],
      "name": "OnlyEnclave",
      "type": "error"
    },
    {
      "inputs": [
        {
          "internalType": "address",
          "name": "owner",
          "type": "address"
        }
      ],
      "name": "OwnableInvalidOwner",
      "type": "error"
    },
    {
      "inputs": [
        {
          "internalType": "address",
          "name": "account",
          "type": "address"
        }
      ],
      "name": "OwnableUnauthorizedAccount",
      "type": "error"
    },
    {
      "inputs": [],
      "name": "SubmissionWindowClosed",
      "type": "error"
    },
    {
      "inputs": [],
      "name": "SubmissionWindowNotClosed",
      "type": "error"
    },
    {
      "inputs": [],
      "name": "ThresholdNotMet",
      "type": "error"
    },
    {
      "inputs": [],
      "name": "Unauthorized",
      "type": "error"
    },
    {
      "inputs": [],
      "name": "ZeroAddress",
      "type": "error"
    },
    {
      "anonymous": false,
      "inputs": [
        {
          "indexed": true,
          "internalType": "address",
          "name": "bondingRegistry",
          "type": "address"
        }
      ],
      "name": "BondingRegistrySet",
      "type": "event"
    },
    {
      "anonymous": false,
      "inputs": [
        {
          "indexed": true,
          "internalType": "address",
          "name": "node",
          "type": "address"
        },
        {
          "indexed": false,
          "internalType": "uint256",
          "name": "index",
          "type": "uint256"
        },
        {
          "indexed": false,
          "internalType": "uint256",
          "name": "numNodes",
          "type": "uint256"
        },
        {
          "indexed": false,
          "internalType": "uint256",
          "name": "size",
          "type": "uint256"
        }
      ],
      "name": "CiphernodeAdded",
      "type": "event"
    },
    {
      "anonymous": false,
      "inputs": [
        {
          "indexed": true,
          "internalType": "address",
          "name": "node",
          "type": "address"
        },
        {
          "indexed": false,
          "internalType": "uint256",
          "name": "index",
          "type": "uint256"
        },
        {
          "indexed": false,
          "internalType": "uint256",
          "name": "numNodes",
          "type": "uint256"
        },
        {
          "indexed": false,
          "internalType": "uint256",
          "name": "size",
          "type": "uint256"
        }
      ],
      "name": "CiphernodeRemoved",
      "type": "event"
    },
    {
      "anonymous": false,
      "inputs": [
        {
          "indexed": true,
          "internalType": "uint256",
          "name": "e3Id",
          "type": "uint256"
        },
        {
          "indexed": false,
          "internalType": "bool",
          "name": "active",
          "type": "bool"
        }
      ],
      "name": "CommitteeActivationChanged",
      "type": "event"
    },
    {
      "anonymous": false,
      "inputs": [
        {
          "indexed": true,
          "internalType": "uint256",
          "name": "e3Id",
          "type": "uint256"
        },
        {
          "indexed": false,
          "internalType": "address[]",
          "name": "committee",
          "type": "address[]"
        },
        {
          "indexed": false,
          "internalType": "uint256[]",
          "name": "scores",
          "type": "uint256[]"
        }
      ],
      "name": "CommitteeFinalized",
      "type": "event"
    },
    {
      "anonymous": false,
      "inputs": [
        {
          "indexed": true,
          "internalType": "uint256",
          "name": "e3Id",
          "type": "uint256"
        },
        {
          "indexed": false,
          "internalType": "uint256",
          "name": "nodesSubmitted",
          "type": "uint256"
        },
        {
          "indexed": false,
          "internalType": "uint256",
          "name": "thresholdRequired",
          "type": "uint256"
        }
      ],
      "name": "CommitteeFormationFailed",
      "type": "event"
    },
    {
      "anonymous": false,
      "inputs": [
        {
          "indexed": true,
          "internalType": "uint256",
          "name": "e3Id",
          "type": "uint256"
        },
        {
          "indexed": true,
          "internalType": "address",
          "name": "node",
          "type": "address"
        },
        {
          "indexed": false,
          "internalType": "bytes32",
          "name": "reason",
          "type": "bytes32"
        },
        {
          "indexed": false,
          "internalType": "uint256",
          "name": "activeCountAfter",
          "type": "uint256"
        }
      ],
      "name": "CommitteeMemberExpelled",
      "type": "event"
    },
    {
      "anonymous": false,
      "inputs": [
        {
          "indexed": true,
          "internalType": "uint256",
          "name": "e3Id",
          "type": "uint256"
        },
        {
          "indexed": false,
          "internalType": "address[]",
          "name": "nodes",
          "type": "address[]"
        },
        {
          "indexed": false,
          "internalType": "bytes",
          "name": "publicKey",
          "type": "bytes"
        },
        {
          "indexed": false,
          "internalType": "bytes",
          "name": "proof",
          "type": "bytes"
        }
      ],
      "name": "CommitteePublished",
      "type": "event"
    },
    {
      "anonymous": false,
      "inputs": [
        {
          "indexed": true,
          "internalType": "uint256",
          "name": "e3Id",
          "type": "uint256"
        },
        {
          "indexed": false,
          "internalType": "uint256",
          "name": "seed",
          "type": "uint256"
        },
        {
          "indexed": false,
          "internalType": "uint32[2]",
          "name": "threshold",
          "type": "uint32[2]"
        },
        {
          "indexed": false,
          "internalType": "uint256",
          "name": "requestBlock",
          "type": "uint256"
        },
        {
          "indexed": false,
          "internalType": "uint256",
          "name": "committeeDeadline",
          "type": "uint256"
        }
      ],
      "name": "CommitteeRequested",
      "type": "event"
    },
    {
      "anonymous": false,
      "inputs": [
        {
          "indexed": true,
          "internalType": "uint256",
          "name": "e3Id",
          "type": "uint256"
        },
        {
          "indexed": false,
          "internalType": "uint256",
          "name": "activeCount",
          "type": "uint256"
        },
        {
          "indexed": false,
          "internalType": "uint256",
          "name": "thresholdM",
          "type": "uint256"
        },
        {
          "indexed": false,
          "internalType": "bool",
          "name": "viable",
          "type": "bool"
        }
      ],
      "name": "CommitteeViabilityUpdated",
      "type": "event"
    },
    {
      "anonymous": false,
      "inputs": [
        {
          "indexed": true,
          "internalType": "address",
          "name": "enclave",
          "type": "address"
        }
      ],
      "name": "EnclaveSet",
      "type": "event"
    },
    {
      "anonymous": false,
      "inputs": [
        {
          "indexed": false,
          "internalType": "uint64",
          "name": "version",
          "type": "uint64"
        }
      ],
      "name": "Initialized",
      "type": "event"
    },
    {
      "anonymous": false,
      "inputs": [
        {
          "indexed": true,
          "internalType": "address",
          "name": "previousOwner",
          "type": "address"
        },
        {
          "indexed": true,
          "internalType": "address",
          "name": "newOwner",
          "type": "address"
        }
      ],
      "name": "OwnershipTransferred",
      "type": "event"
    },
    {
      "anonymous": false,
      "inputs": [
        {
          "indexed": false,
          "internalType": "uint256",
          "name": "sortitionSubmissionWindow",
          "type": "uint256"
        }
      ],
      "name": "SortitionSubmissionWindowSet",
      "type": "event"
    },
    {
      "anonymous": false,
      "inputs": [
        {
          "indexed": true,
          "internalType": "uint256",
          "name": "e3Id",
          "type": "uint256"
        },
        {
          "indexed": true,
          "internalType": "address",
          "name": "node",
          "type": "address"
        },
        {
          "indexed": false,
          "internalType": "uint256",
          "name": "ticketId",
          "type": "uint256"
        },
        {
          "indexed": false,
          "internalType": "uint256",
          "name": "score",
          "type": "uint256"
        }
      ],
      "name": "TicketSubmitted",
      "type": "event"
    },
    {
      "inputs": [],
      "name": "TREE_DEPTH",
      "outputs": [
        {
          "internalType": "uint8",
          "name": "",
          "type": "uint8"
        }
      ],
      "stateMutability": "view",
      "type": "function"
    },
    {
      "inputs": [
        {
          "internalType": "address",
          "name": "node",
          "type": "address"
        }
      ],
      "name": "addCiphernode",
      "outputs": [],
      "stateMutability": "nonpayable",
      "type": "function"
    },
    {
      "inputs": [],
      "name": "bondingRegistry",
      "outputs": [
        {
          "internalType": "contract IBondingRegistry",
          "name": "",
          "type": "address"
        }
      ],
      "stateMutability": "view",
      "type": "function"
    },
    {
      "inputs": [
        {
          "internalType": "address",
          "name": "node",
          "type": "address"
        }
      ],
      "name": "ciphernodeEnabled",
      "outputs": [
        {
          "internalType": "bool",
          "name": "enabled",
          "type": "bool"
        }
      ],
      "stateMutability": "view",
      "type": "function"
    },
    {
      "inputs": [
        {
          "internalType": "address",
          "name": "node",
          "type": "address"
        }
      ],
      "name": "ciphernodeTreeIndex",
      "outputs": [
        {
          "internalType": "uint40",
          "name": "index",
          "type": "uint40"
        }
      ],
      "stateMutability": "view",
      "type": "function"
    },
    {
      "inputs": [],
      "name": "ciphernodes",
      "outputs": [
        {
          "internalType": "uint40",
          "name": "maxIndex",
          "type": "uint40"
        },
        {
          "internalType": "uint40",
          "name": "numberOfLeaves",
          "type": "uint40"
        }
      ],
      "stateMutability": "view",
      "type": "function"
    },
    {
      "inputs": [
        {
          "internalType": "uint256",
          "name": "e3Id",
          "type": "uint256"
        }
      ],
      "name": "committeePublicKey",
      "outputs": [
        {
          "internalType": "bytes32",
          "name": "publicKeyHash",
          "type": "bytes32"
        }
      ],
      "stateMutability": "view",
      "type": "function"
    },
    {
      "inputs": [],
      "name": "enclave",
      "outputs": [
        {
          "internalType": "contract IEnclave",
          "name": "",
          "type": "address"
        }
      ],
      "stateMutability": "view",
      "type": "function"
    },
    {
      "inputs": [
        {
          "internalType": "uint256",
          "name": "e3Id",
          "type": "uint256"
        },
        {
          "internalType": "address",
          "name": "node",
          "type": "address"
        },
        {
          "internalType": "bytes32",
          "name": "reason",
          "type": "bytes32"
        }
      ],
      "name": "expelCommitteeMember",
      "outputs": [
        {
          "internalType": "uint256",
          "name": "activeCount",
          "type": "uint256"
        },
        {
          "internalType": "uint32",
          "name": "thresholdM",
          "type": "uint32"
        }
      ],
      "stateMutability": "nonpayable",
      "type": "function"
    },
    {
      "inputs": [
        {
          "internalType": "uint256",
          "name": "e3Id",
          "type": "uint256"
        }
      ],
      "name": "finalizeCommittee",
      "outputs": [
        {
          "internalType": "bool",
          "name": "success",
          "type": "bool"
        }
      ],
      "stateMutability": "nonpayable",
      "type": "function"
    },
    {
      "inputs": [
        {
          "internalType": "uint256",
          "name": "e3Id",
          "type": "uint256"
        }
      ],
      "name": "getActiveCommitteeNodes",
      "outputs": [
        {
          "internalType": "address[]",
          "name": "",
          "type": "address[]"
        }
      ],
      "stateMutability": "view",
      "type": "function"
    },
    {
      "inputs": [],
      "name": "getBondingRegistry",
      "outputs": [
        {
          "internalType": "address",
          "name": "",
          "type": "address"
        }
      ],
      "stateMutability": "view",
      "type": "function"
    },
    {
      "inputs": [
        {
          "internalType": "uint256",
          "name": "e3Id",
          "type": "uint256"
        }
      ],
      "name": "getCommitteeDeadline",
      "outputs": [
        {
          "internalType": "uint256",
          "name": "",
          "type": "uint256"
        }
      ],
      "stateMutability": "view",
      "type": "function"
    },
    {
      "inputs": [
        {
          "internalType": "uint256",
          "name": "e3Id",
          "type": "uint256"
        }
      ],
      "name": "getCommitteeNodes",
      "outputs": [
        {
          "internalType": "address[]",
          "name": "nodes",
          "type": "address[]"
        },
        {
          "internalType": "uint256[]",
          "name": "scores",
          "type": "uint256[]"
        }
      ],
      "stateMutability": "view",
      "type": "function"
    },
    {
      "inputs": [
        {
          "internalType": "uint256",
          "name": "e3Id",
          "type": "uint256"
        }
      ],
      "name": "getCommitteeStage",
      "outputs": [
        {
          "internalType": "enum ICiphernodeRegistry.CommitteeStage",
          "name": "",
          "type": "uint8"
        }
      ],
      "stateMutability": "view",
      "type": "function"
    },
    {
      "inputs": [
        {
          "internalType": "uint256",
          "name": "e3Id",
          "type": "uint256"
        }
      ],
      "name": "getCommitteeViability",
      "outputs": [
        {
          "internalType": "uint256",
          "name": "activeCount",
          "type": "uint256"
        },
        {
          "internalType": "uint32",
          "name": "thresholdM",
          "type": "uint32"
        },
        {
          "internalType": "uint32",
          "name": "thresholdN",
          "type": "uint32"
        },
        {
          "internalType": "bool",
          "name": "viable",
          "type": "bool"
        }
      ],
      "stateMutability": "view",
      "type": "function"
    },
    {
      "inputs": [
        {
          "internalType": "address",
          "name": "_owner",
          "type": "address"
        },
        {
          "internalType": "uint256",
          "name": "_submissionWindow",
          "type": "uint256"
        }
      ],
      "name": "initialize",
      "outputs": [],
      "stateMutability": "nonpayable",
      "type": "function"
    },
    {
      "inputs": [
        {
          "internalType": "address",
          "name": "node",
          "type": "address"
        }
      ],
      "name": "isCiphernodeEligible",
      "outputs": [
        {
          "internalType": "bool",
          "name": "",
          "type": "bool"
        }
      ],
      "stateMutability": "view",
      "type": "function"
    },
    {
      "inputs": [
        {
          "internalType": "uint256",
          "name": "e3Id",
          "type": "uint256"
        },
        {
          "internalType": "address",
          "name": "node",
          "type": "address"
        }
      ],
      "name": "isCommitteeMember",
      "outputs": [
        {
          "internalType": "bool",
          "name": "",
          "type": "bool"
        }
      ],
      "stateMutability": "view",
      "type": "function"
    },
    {
      "inputs": [
        {
          "internalType": "uint256",
          "name": "e3Id",
          "type": "uint256"
        },
        {
          "internalType": "address",
          "name": "node",
          "type": "address"
        }
      ],
      "name": "isCommitteeMemberActive",
      "outputs": [
        {
          "internalType": "bool",
          "name": "",
          "type": "bool"
        }
      ],
      "stateMutability": "view",
      "type": "function"
    },
    {
      "inputs": [
        {
          "internalType": "address",
          "name": "node",
          "type": "address"
        }
      ],
      "name": "isEnabled",
      "outputs": [
        {
          "internalType": "bool",
          "name": "",
          "type": "bool"
        }
      ],
      "stateMutability": "view",
      "type": "function"
    },
    {
      "inputs": [
        {
          "internalType": "uint256",
          "name": "e3Id",
          "type": "uint256"
        }
      ],
      "name": "isOpen",
      "outputs": [
        {
          "internalType": "bool",
          "name": "",
          "type": "bool"
        }
      ],
      "stateMutability": "view",
      "type": "function"
    },
    {
      "inputs": [],
      "name": "numCiphernodes",
      "outputs": [
        {
          "internalType": "uint256",
          "name": "",
          "type": "uint256"
        }
      ],
      "stateMutability": "view",
      "type": "function"
    },
    {
      "inputs": [],
      "name": "owner",
      "outputs": [
        {
          "internalType": "address",
          "name": "",
          "type": "address"
        }
      ],
      "stateMutability": "view",
      "type": "function"
    },
    {
      "inputs": [
        {
          "internalType": "uint256",
          "name": "e3Id",
          "type": "uint256"
        }
      ],
      "name": "publicKeyHashes",
      "outputs": [
        {
          "internalType": "bytes32",
          "name": "publicKeyHash",
          "type": "bytes32"
        }
      ],
      "stateMutability": "view",
      "type": "function"
    },
    {
      "inputs": [
        {
          "internalType": "uint256",
          "name": "e3Id",
          "type": "uint256"
        },
        {
          "internalType": "address[]",
          "name": "nodes",
          "type": "address[]"
        },
        {
          "internalType": "bytes",
          "name": "publicKey",
          "type": "bytes"
        },
        {
          "internalType": "bytes",
          "name": "proof",
          "type": "bytes"
        },
        {
          "internalType": "bytes",
          "name": "foldProof",
          "type": "bytes"
        }
      ],
      "name": "publishCommittee",
      "outputs": [],
      "stateMutability": "nonpayable",
      "type": "function"
    },
    {
      "inputs": [
        {
          "internalType": "address",
          "name": "node",
          "type": "address"
        }
      ],
      "name": "removeCiphernode",
      "outputs": [],
      "stateMutability": "nonpayable",
      "type": "function"
    },
    {
      "inputs": [],
      "name": "renounceOwnership",
      "outputs": [],
      "stateMutability": "nonpayable",
      "type": "function"
    },
    {
      "inputs": [
        {
          "internalType": "uint256",
          "name": "e3Id",
          "type": "uint256"
        },
        {
          "internalType": "uint256",
          "name": "seed",
          "type": "uint256"
        },
        {
          "internalType": "uint32[2]",
          "name": "threshold",
          "type": "uint32[2]"
        }
      ],
      "name": "requestCommittee",
      "outputs": [
        {
          "internalType": "bool",
          "name": "success",
          "type": "bool"
        }
      ],
      "stateMutability": "nonpayable",
      "type": "function"
    },
    {
      "inputs": [],
      "name": "root",
      "outputs": [
        {
          "internalType": "uint256",
          "name": "",
          "type": "uint256"
        }
      ],
      "stateMutability": "view",
      "type": "function"
    },
    {
      "inputs": [
        {
          "internalType": "uint256",
          "name": "e3Id",
          "type": "uint256"
        }
      ],
      "name": "rootAt",
      "outputs": [
        {
          "internalType": "uint256",
          "name": "",
          "type": "uint256"
        }
      ],
      "stateMutability": "view",
      "type": "function"
    },
    {
      "inputs": [
        {
          "internalType": "uint256",
          "name": "e3Id",
          "type": "uint256"
        }
      ],
      "name": "roots",
      "outputs": [
        {
          "internalType": "uint256",
          "name": "root",
          "type": "uint256"
        }
      ],
      "stateMutability": "view",
      "type": "function"
    },
    {
      "inputs": [
        {
          "internalType": "contract IBondingRegistry",
          "name": "_bondingRegistry",
          "type": "address"
        }
      ],
      "name": "setBondingRegistry",
      "outputs": [],
      "stateMutability": "nonpayable",
      "type": "function"
    },
    {
      "inputs": [
        {
          "internalType": "contract IEnclave",
          "name": "_enclave",
          "type": "address"
        }
      ],
      "name": "setEnclave",
      "outputs": [],
      "stateMutability": "nonpayable",
      "type": "function"
    },
    {
      "inputs": [
        {
          "internalType": "contract ISlashingManager",
          "name": "_slashingManager",
          "type": "address"
        }
      ],
      "name": "setSlashingManager",
      "outputs": [],
      "stateMutability": "nonpayable",
      "type": "function"
    },
    {
      "inputs": [
        {
          "internalType": "uint256",
          "name": "_sortitionSubmissionWindow",
          "type": "uint256"
        }
      ],
      "name": "setSortitionSubmissionWindow",
      "outputs": [],
      "stateMutability": "nonpayable",
      "type": "function"
    },
    {
      "inputs": [],
      "name": "slashingManager",
      "outputs": [
        {
          "internalType": "contract ISlashingManager",
          "name": "",
          "type": "address"
        }
      ],
      "stateMutability": "view",
      "type": "function"
    },
    {
      "inputs": [],
      "name": "sortitionSubmissionWindow",
      "outputs": [
        {
          "internalType": "uint256",
          "name": "",
          "type": "uint256"
        }
      ],
      "stateMutability": "view",
      "type": "function"
    },
    {
      "inputs": [
        {
          "internalType": "uint256",
          "name": "e3Id",
          "type": "uint256"
        },
        {
          "internalType": "uint256",
          "name": "ticketNumber",
          "type": "uint256"
        }
      ],
      "name": "submitTicket",
      "outputs": [],
      "stateMutability": "nonpayable",
      "type": "function"
    },
    {
      "inputs": [
        {
          "internalType": "address",
          "name": "newOwner",
          "type": "address"
        }
      ],
      "name": "transferOwnership",
      "outputs": [],
      "stateMutability": "nonpayable",
      "type": "function"
    },
    {
      "inputs": [],
      "name": "treeSize",
      "outputs": [
        {
          "internalType": "uint256",
          "name": "",
          "type": "uint256"
        }
      ],
      "stateMutability": "view",
      "type": "function"
    }
  ],
  "bytecode": "0x6080604052348015600e575f5ffd5b5060156019565b60c9565b7ff0c57e16840df040f15088dc2f81fe391c3923bec73e23a9662efc9c229c6a00805468010000000000000000900460ff161560685760405163f92ee8a960e01b815260040160405180910390fd5b80546001600160401b039081161460c65780546001600160401b0319166001600160401b0390811782556040519081527fc7f505b2f371ae2175ee4913f4499e1f2633a7b5936321eed1cdaeb6115181d29060200160405180910390a15b50565b613f81806100d65f395ff3fe608060405234801561000f575f5ffd5b506004361061024a575f3560e01c80639f0f874a11610140578063dbb06c93116100bf578063f165053611610084578063f16505361461059f578063f26ef74e146105b9578063f2fde38b146105cc578063f379b0df146105df578063f52fd80314610619578063f6fc05d51461068b575f5ffd5b8063dbb06c931461054c578063e59e46951461055e578063e6745e1314610571578063e82f3b7014610584578063ebf0c71714610597575f5ffd5b8063c3a0ec3011610105578063c3a0ec30146104c7578063ca2869a0146104d8578063cd6dc687146104f7578063d4c22f6e1461050a578063da881e5a14610539575f5ffd5b80639f0f874a14610458578063a016493014610461578063a8a4d69b14610482578063bff232c114610495578063c2b40ae4146104a8575f5ffd5b8063715018a6116101cc5780638d1ddfb1116101915780638d1ddfb1146103d85780638da5cb5b146103ee5780638e5ce3ad146103f65780639015d371146104095780639a7a2ffc1461041c575f5ffd5b8063715018a6146103515780637c92f5241461035957806385814243146103865780638a78bb15146103a65780638cb89ecb146103b9575f5ffd5b80632e7b716d116102125780632e7b716d146102e35780634d6861a6146102f657806350e6d94c146103095780635d5047761461032b57806370e36bbe1461033e575f5ffd5b8063096b810a1461024e5780630f3e34121461026357806317d61120146102765780632800d8291461029f578063291a691b146102c0575b5f5ffd5b61026161025c366004613336565b610694565b005b610261610271366004613351565b6107e0565b610289610284366004613351565b610823565b60405161029691906133ab565b60405180910390f35b6102b26102ad366004613351565b610965565b604051908152602001610296565b6102d36102ce3660046133bd565b6109b1565b6040519015158152602001610296565b6102d36102f1366004613336565b610b8b565b6102d3610304366004613351565b610c3e565b6102d3610317366004613336565b60066020525f908152604090205460ff1681565b6102d36103393660046133f6565b610c7d565b61026161034c366004613336565b610cc1565b610261610d37565b61036c610367366004613424565b610d4a565b6040805192835263ffffffff909116602083015201610296565b600154610399906001600160a01b031681565b6040516102969190613459565b6102616103b4366004613336565b610ef1565b6102b26103c7366004613351565b60096020525f908152604090205481565b600454600160281b900464ffffffffff166102b2565b61039961102f565b600b54610399906001600160a01b031681565b6102d3610417366004613336565b61105d565b61044261042a366004613336565b60076020525f908152604090205464ffffffffff1681565b60405164ffffffffff9091168152602001610296565b6102b260035481565b61047461046f366004613351565b61107a565b60405161029692919061349d565b6102d36104903660046133f6565b6111c9565b6102616104a3366004613336565b61120d565b6102b26104b6366004613351565b60086020525f908152604090205481565b6001546001600160a01b0316610399565b6102b26104e6366004613351565b5f9081526008602052604090205490565b6102616105053660046134ca565b61125e565b61052c610518366004613351565b5f908152600a602052604090205460ff1690565b6040516102969190613508565b6102d3610547366004613351565b6113bb565b5f54610399906001600160a01b031681565b61026161056c366004613336565b611696565b61026161057f36600461352e565b61170e565b6102b2610592366004613351565b6118d1565b6102b2611902565b6105a7601481565b60405160ff9091168152602001610296565b6102616105c7366004613592565b611914565b6102616105da366004613336565b611c06565b6004546105fb9064ffffffffff80821691600160281b90041682565b6040805164ffffffffff938416815292909116602083015201610296565b61065c610627366004613351565b5f908152600a6020819052604090912090810154600590910154909163ffffffff80831692600160201b900416908284101590565b604051610296949392919093845263ffffffff9283166020850152911660408301521515606082015260800190565b6102b260025481565b61069c61102f565b6001600160a01b0316336001600160a01b031614806106c557506001546001600160a01b031633145b6106e257604051632864c4e160e01b815260040160405180910390fd5b6106eb8161105d565b8190610714576040516381e5828960e01b815260040161070b9190613459565b60405180910390fd5b506001600160a01b0381165f9081526007602052604081205464ffffffffff16906107429060049083611c40565b6001600160a01b0382165f908152600660205260408120805460ff19169055600280549161076f836136ac565b90915550506002546004546040805164ffffffffff80861682526020820194909452600160281b909204909216918101919091526001600160a01b038316907f8c008e3835f6c79bfcdb89f0f6ca8705e0b01049ee84a90b0e4da1c7ba9405d5906060015b60405180910390a25050565b6107e8611ee2565b60038190556040518181527fbe772dc189863d512fa01e489c8eac204975aef1a8662d8b5a333804b5207ab79060200160405180910390a150565b5f818152600a602081905260408220600681015491810154606093919291816001600160401b03811115610859576108596136c1565b604051908082528060200260200182016040528015610882578160200160208202803683370190505b5090505f805b84811015610959576001866009015f8860060184815481106108ac576108ac6136d5565b5f9182526020808320909101546001600160a01b0316835282019290925260400190205460ff1660028111156108e4576108e46134f4565b03610951578560060181815481106108fe576108fe6136d5565b905f5260205f20015f9054906101000a90046001600160a01b031683838151811061092b5761092b6136d5565b6001600160a01b03909216602092830291909101909101528161094d816136e9565b9250505b600101610888565b50909695505050505050565b5f818152600a6020526040812081815460ff166003811115610989576109896134f4565b036109a757604051630d4c1d9760e41b815260040160405180910390fd5b6003015492915050565b5f80546001600160a01b031633146109dc5760405163e4c2a7eb60e01b815260040160405180910390fd5b5f848152600a6020526040812090815460ff166003811115610a0057610a006134f4565b14610a1e576040516374ff462560e11b815260040160405180910390fd5b60015460408051630cc37d8f60e11b815290515f926001600160a01b031691631986fb1e9160048083019260209291908290030181865afa158015610a65573d5f5f3e3d5ffd5b505050506040513d601f19601f82011682018060405250810190610a899190613701565b905080610a9c604086016020870161372b565b63ffffffff161115610ab4604086016020870161372b565b829091610ae2576040516344ec930f60e01b815263ffffffff9092166004830152602482015260440161070b565b5050815460ff1916600190811783558201859055436002830155600354610b099042613744565b6003830155610b1d6005830185600261326d565b50610b26611902565b5f87815260086020526040908190209190915560028301546003840154915188927f381d281d32f95ef8fe4e5f3b263ea6a32d03d331e1a141ae1da996dc02a7a17092610b77928a928a9291613757565b60405180910390a250600195945050505050565b5f610b958261105d565b610ba057505f919050565b6001546001600160a01b0316610bc9576040516350ca893360e01b815260040160405180910390fd5b600154604051639f8a13d760e01b81526001600160a01b0390911690639f8a13d790610bf9908590600401613459565b602060405180830381865afa158015610c14573d5f5f3e3d5ffd5b505050506040513d601f19601f82011682018060405250810190610c3891906137b6565b92915050565b5f818152600a602052604081206001815460ff166003811115610c6357610c636134f4565b14610c7057505f92915050565b6003015442111592915050565b5f60015f848152600a602090815260408083206001600160a01b038716845260090190915290205460ff166002811115610cb957610cb96134f4565b149392505050565b610cc9611ee2565b6001600160a01b038116610cf05760405163d92e233d60e01b815260040160405180910390fd5b5f80546001600160a01b0319166001600160a01b038316908117825560405190917f2c8267accd82e977550ed2349c73311183cd22e306347be4453c8d130995e3c991a250565b610d3f611ee2565b610d485f611f14565b565b600b545f9081906001600160a01b03163314610d795760405163fcef374960e01b815260040160405180910390fd5b5f858152600a602052604090206002815460ff166003811115610d9e57610d9e6134f4565b14610dbc57604051634f4b461f60e11b815260040160405180910390fd5b60058101546001600160a01b0386165f90815260098301602052604090205463ffffffff909116925060019060ff166002811115610dfc57610dfc6134f4565b14610e0c57600a01549150610ee9565b6001600160a01b0385165f9081526009820160205260408120805460ff19166002179055600a8201805491610e40836136ac565b919050555080600a01549250846001600160a01b0316867f6c783b92374361b4d6efaf29673b89437ee969bb3c9d2d5d86b143ad5447b8498686604051610e91929190918252602082015260400190565b60405180910390a36040805184815263ffffffff84166020820181905285101591810182905287907f119cb11dd0a68c257d6dc9b06dcb37dd422ce276eb8bf3cd0b7079a116b8e2989060600160405180910390a250505b935093915050565b610ef961102f565b6001600160a01b0316336001600160a01b03161480610f2257506001546001600160a01b031633145b610f3f57604051632864c4e160e01b815260040160405180910390fd5b610f488161105d565b61102c5760048054600160281b900464ffffffffff1690610f72906001600160a01b038416611f84565b6001600160a01b0382165f908152600660209081526040808320805460ff1916600117905560079091528120805464ffffffffff841664ffffffffff199091161790556002805491610fc3836136e9565b90915550506002546004546040805164ffffffffff80861682526020820194909452600160281b909204909216918101919091526001600160a01b038316907f3318d261fe14a5761d2d1e21555652f623d2134c430a9883c9ad6e958bb0db53906060016107d4565b50565b7f9016d09d72d40fdae2fd8ceac6b6234c7706214fd39c1cd1e609a0528c199300546001600160a01b031690565b6001600160a01b03165f9081526006602052604090205460ff1690565b5f818152600a60205260409020600481015460609182916110ae576040516322e679e360e11b815260040160405180910390fd5b8060060180548060200260200160405190810160405280929190818152602001828054801561110457602002820191905f5260205f20905b81546001600160a01b031681526001909101906020018083116110e6575b5050835193965083925050506001600160401b03811115611127576111276136c1565b604051908082528060200260200182016040528015611150578160200160208202803683370190505b5092505f5b818110156111c157826008015f868381518110611174576111746136d5565b60200260200101516001600160a01b03166001600160a01b031681526020019081526020015f20548482815181106111ae576111ae6136d5565b6020908102919091010152600101611155565b505050915091565b5f805f848152600a602090815260408083206001600160a01b038716845260090190915290205460ff166002811115611204576112046134f4565b14159392505050565b611215611ee2565b6001600160a01b03811661123c5760405163d92e233d60e01b815260040160405180910390fd5b600b80546001600160a01b0319166001600160a01b0392909216919091179055565b5f61126761215a565b805490915060ff600160401b82041615906001600160401b03165f8115801561128d5750825b90505f826001600160401b031660011480156112a85750303b155b9050811580156112b6575080155b156112d45760405163f92ee8a960e01b815260040160405180910390fd5b845467ffffffffffffffff1916600117855583156112fe57845460ff60401b1916600160401b1785555b6001600160a01b0387166113255760405163d92e233d60e01b815260040160405180910390fd5b61132e33612182565b61133a60046014612193565b611343866107e0565b61134b61102f565b6001600160a01b0316876001600160a01b03161461136c5761136c87611c06565b83156113b257845460ff60401b19168555604051600181527fc7f505b2f371ae2175ee4913f4499e1f2633a7b5936321eed1cdaeb6115181d29060200160405180910390a15b50505050505050565b5f818152600a6020526040812081815460ff1660038111156113df576113df6134f4565b036113fd57604051630d4c1d9760e41b815260040160405180910390fd5b6001815460ff166003811115611415576114156134f4565b1461143357604051631860f69960e31b815260040160405180910390fd5b806003015442101561145857604051632f021e8d60e11b815260040160405180910390fd5b60058101546006820154600160201b90910463ffffffff1611158061153d578154600360ff199091161782556006820154600583015460408051928352600160201b90910463ffffffff16602083015285917fecc4a9fb7e28d074cba7f5b227e9b5827823c850a385539b9a2f98a08f8c203d910160405180910390a25f54604051635d968dc160e11b815260048101869052600260248201526001600160a01b039091169063bb2d1b82906044015f604051808303815f87803b15801561151e575f5ffd5b505af1158015611530573d5f5f3e3d5ffd5b505f979650505050505050565b815460ff191660021782556006820154600a83018190555f816001600160401b0381111561156d5761156d6136c1565b604051908082528060200260200182016040528015611596578160200160208202803683370190505b5090505f5b8281101561160857846008015f8660060183815481106115bd576115bd6136d5565b5f9182526020808320909101546001600160a01b0316835282019290925260400190205482518390839081106115f5576115f56136d5565b602090810291909101015260010161159b565b505f54604051631f3ea75d60e21b8152600481018890526001600160a01b0390911690637cfa9d74906024015f604051808303815f87803b15801561164b575f5ffd5b505af115801561165d573d5f5f3e3d5ffd5b50505050857f4f1f5b329c741a8ba15e9645e301061294d0c1fdd455448ffd5e76ff255929d78560060183604051610b779291906137cf565b61169e611ee2565b6001600160a01b0381166116c55760405163d92e233d60e01b815260040160405180910390fd5b600180546001600160a01b0319166001600160a01b0383169081179091556040517fad4055f18cdad6f4bdd71afe3a72cbeee964217943e1bde38f138289e981a9a7905f90a250565b5f828152600a6020526040812090815460ff166003811115611732576117326134f4565b0361175057604051630d4c1d9760e41b815260040160405180910390fd5b6001815460ff166003811115611768576117686134f4565b1461178657604051631860f69960e31b815260040160405180910390fd5b80600301544211156117ab57604051639a19114d60e01b815260040160405180910390fd5b335f90815260078201602052604090205460ff16156117dd5760405163257309f160e11b815260040160405180910390fd5b6117e633610b8b565b6118035760405163149fbcfd60e11b815260040160405180910390fd5b61180e338385612212565b6001810154604080516bffffffffffffffffffffffff193360601b16602080830191909152603482018690526054820187905260748083019490945282518083039094018452609490910190915281519101205f90335f8181526007850160205260409020805460ff1916600117905590915061188d908390836123e3565b506040805184815260208101839052339186917f52999628fb1cb05707e842278833b22e511f11746202cecdf221968b0b89e8bd910160405180910390a350505050565b5f81815260096020526040902054806118fd576040516322e679e360e11b815260040160405180910390fd5b919050565b5f61190f600460146125e4565b905090565b5f898152600a602052604090206002815460ff166003811115611939576119396134f4565b1461195757604051634f4b461f60e11b815260040160405180910390fd5b60048101541561197a5760405163632a22bb60e01b815260040160405180910390fd5b600681015488146119c35760405162461bcd60e51b815260206004820152601360248201527209cdec8ca40c6deeadce840dad2e6dac2e8c6d606b1b604482015260640161070b565b5f6119d085870187613926565b9150505f815111611a1a5760405162461bcd60e51b815260206004820152601460248201527343353a206e6f207075626c696320696e7075747360601b604482015260640161070b565b5f8160018351611a2a91906139c9565b81518110611a3a57611a3a6136d5565b602002602001015190505f5f5f9054906101000a90046001600160a01b03166001600160a01b031663406ed35c8e6040518263ffffffff1660e01b8152600401611a8691815260200190565b5f60405180830381865afa158015611aa0573d5f5f3e3d5ffd5b505050506040513d5f823e601f3d908101601f19168201604052611ac79190810190613aae565b610120810151604051637bf41d7760e11b81529192506001600160a01b03169063f7e83aee90611b01908b908b908b908b90600401613c4d565b602060405180830381865afa158015611b1c573d5f5f3e3d5ffd5b505050506040513d601f19601f82011682018060405250810190611b409190613701565b5060048085018390555f8e815260096020526040808220859055905490516340a3b76160e11b81529182018f9052602482018490526001600160a01b0316906381476ec2906044015f604051808303815f87803b158015611b9f575f5ffd5b505af1158015611bb1573d5f5f3e3d5ffd5b505050508c7f49ac1dd411942113d1c5e6799c6379ce341afe85a4175fb562cf2a5fb886c27d8d8d8d8d8d8d604051611bef96959493929190613c7e565b60405180910390a250505050505050505050505050565b611c0e611ee2565b6001600160a01b038116611c37575f604051631e4fbdf760e01b815260040161070b9190613459565b61102c81611f14565b7f30644e72e131a029b85045b68181585d2833e84879b9709143e1f593f00000018210611c7f5760405162461bcd60e51b815260040161070b90613cf7565b825464ffffffffff600160281b90910481169082168111611cdd5760405162461bcd60e51b815260206004820152601860248201527713185e9e5253550e881b195859881b5d5cdd08195e1a5cdd60421b604482015260640161070b565b825f5b81866001015f611cf084886126dd565b64ffffffffff1681526020019081526020015f20819055505f816001611d169190613d41565b60ff168464ffffffffff16901c64ffffffffff16905060018564ffffffffff16901c64ffffffffff168111611d4b5750611eda565b600185165f03611e12575f611d6a83611d65886001613d5a565b6126dd565b60408051808201825286815264ffffffffff83165f90815260018c0160209081529083902054908201529051632b0aac7f60e11b815291925073__$078c82ddf6c95d34ea184ef1dd6130d136$__9163561558fe91611dcb91600401613d77565b602060405180830381865af4158015611de6573d5f5f3e3d5ffd5b505050506040513d601f19601f82011682018060405250810190611e0a9190613701565b935050611ec6565b5f611e2283611d65600189613da7565b60408051808201825264ffffffffff83165f90815260018c0160209081529083902054825281018790529051632b0aac7f60e11b815291925073__$078c82ddf6c95d34ea184ef1dd6130d136$__9163561558fe91611e8391600401613d77565b602060405180830381865af4158015611e9e573d5f5f3e3d5ffd5b505050506040513d601f19601f82011682018060405250810190611ec29190613701565b9350505b50647fffffffff600194851c169301611ce0565b505050505050565b33611eeb61102f565b6001600160a01b031614610d48573360405163118cdaa760e01b815260040161070b9190613459565b7f9016d09d72d40fdae2fd8ceac6b6234c7706214fd39c1cd1e609a0528c19930080546001600160a01b031981166001600160a01b03848116918217845560405192169182907f8be0079c531659141344cd1fd0a4f28419497f9722a3daafe3b4186f6b6457e0905f90a3505050565b8154600160281b900464ffffffffff167f30644e72e131a029b85045b68181585d2833e84879b9709143e1f593f00000018210611fd35760405162461bcd60e51b815260040161070b90613cf7565b825464ffffffffff908116908216106120265760405162461bcd60e51b815260206004820152601560248201527413185e9e5253550e881d1c9959481a5cc8199d5b1b605a1b604482015260640161070b565b612031816001613d5a565b835464ffffffffff91909116600160281b0269ffffffffff000000000019909116178355815f5b81856001015f61206884876126dd565b64ffffffffff16815260208101919091526040015f20556001831615612153575f61209882611d65600187613da7565b60408051808201825264ffffffffff83165f90815260018a0160209081529083902054825281018690529051632b0aac7f60e11b815291925073__$078c82ddf6c95d34ea184ef1dd6130d136$__9163561558fe916120f991600401613d77565b602060405180830381865af4158015612114573d5f5f3e3d5ffd5b505050506040513d601f19601f820116820180604052508101906121389190613701565b647fffffffff600195861c1694909350919091019050612058565b5050505050565b5f807ff0c57e16840df040f15088dc2f81fe391c3923bec73e23a9662efc9c229c6a00610c38565b61218a6126fa565b61102c8161271f565b602060ff821611156121e15760405162461bcd60e51b81526020600482015260176024820152764c617a79494d543a205472656520746f6f206c6172676560481b604482015260640161070b565b6121f2600160ff831681901b6139c9565b825469ffffffffffffffffffff191664ffffffffff919091161790915550565b5f82116122325760405163aeaddff160e01b815260040160405180910390fd5b6001546001600160a01b031661225b576040516350ca893360e01b815260040160405180910390fd5b5f818152600a602052604081206001805460028301549293926001600160a01b039091169163bb03bd71918891612291916139c9565b6040516001600160e01b031960e085901b1681526001600160a01b0390921660048301526024820152604401602060405180830381865afa1580156122d8573d5f5f3e3d5ffd5b505050506040513d601f19601f820116820180604052508101906122fc9190613701565b90505f60015f9054906101000a90046001600160a01b03166001600160a01b0316631209b1f66040518163ffffffff1660e01b8152600401602060405180830381865afa15801561234f573d5f5f3e3d5ffd5b505050506040513d601f19601f820116820180604052508101906123739190613701565b90505f81116123955760405163aeaddff160e01b815260040160405180910390fd5b5f6123a08284613dc4565b90505f81116123c25760405163149fbcfd60e11b815260040160405180910390fd5b808611156113b25760405163aeaddff160e01b815260040160405180910390fd5b60058301546006840180545f92600160201b900463ffffffff169081111561246157508054600180820183555f928352602080842090920180546001600160a01b0319166001600160a01b03881690811790915583526008870182526040808420869055600988019092529120805460ff19168217905590506125dd565b5f5f90505f876008015f855f8154811061247d5761247d6136d5565b5f9182526020808320909101546001600160a01b03168352820192909252604001902054905060015b8454811015612505575f896008015f8784815481106124c7576124c76136d5565b5f9182526020808320909101546001600160a01b031683528201929092526040019020549050828111156124fc578092508193505b506001016124a6565b50808610612519575f9450505050506125dd565b5f886009015f868581548110612531576125316136d5565b5f9182526020808320909101546001600160a01b031683528201929092526040019020805460ff1916600183600281111561256e5761256e6134f4565b021790555086848381548110612586576125866136d5565b5f91825260208083209190910180546001600160a01b0319166001600160a01b03948516179055918916815260088a018252604080822089905560098b0190925220805460ff191660019081179091559450505050505b9392505050565b5f5f8260ff16116126375760405162461bcd60e51b815260206004820152601a60248201527f4c617a79494d543a206465707468206d757374206265203e2030000000000000604482015260640161070b565b602060ff8316111561265b5760405162461bcd60e51b815260040161070b90613de3565b8254600160281b900464ffffffffff168061267a60ff85166002613f34565b64ffffffffff1610156126ca5760405162461bcd60e51b8152602060048201526018602482015277098c2f4f2929aa87440c2dac4d2ceeadeeae640c8cae0e8d60431b604482015260640161070b565b6126d5848285612727565b949350505050565b5f816126f060ff851663ffffffff613f4d565b6125dd9190613d5a565b6127026127ef565b610d4857604051631afcd79f60e31b815260040160405180910390fd5b611c0e6126fa565b5f602060ff8316111561274c5760405162461bcd60e51b815260040161070b90613de3565b8264ffffffffff165f0361276a5761276382612808565b90506125dd565b5f612776836001613d41565b60ff166001600160401b03811115612790576127906136c1565b6040519080825280602002602001820160405280156127b9578160200160208202803683370190505b5090506127c885858584612ea2565b808360ff16815181106127dd576127dd6136d5565b60200260200101519150509392505050565b5f6127f861215a565b54600160401b900460ff16919050565b5f8160ff165f0361281a57505f919050565b8160ff1660010361284c57507f2098f5fb9e239eab3ceac3f27b81e481dc3124d55ffed523a839ee8446b64864919050565b8160ff1660020361287e57507f1069673dcdb12263df301a6ff584a7ec261a44cb9dc68df067a4774460b1f1e1919050565b8160ff166003036128b057507f18f43331537ee2af2e3d758d50f72106467c6eea50371dd528d57eb2b856d238919050565b8160ff166004036128e257507f07f9d837cb17b0d36320ffe93ba52345f1b728571a568265caac97559dbc952a919050565b8160ff1660050361291457507f2b94cf5e8746b3f5c9631f4c5df32907a699c58c94b2ad4d7b5cec1639183f55919050565b8160ff1660060361294657507f2dee93c5a666459646ea7d22cca9e1bcfed71e6951b953611d11dda32ea09d78919050565b8160ff1660070361297857507f078295e5a22b84e982cf601eb639597b8b0515a88cb5ac7fa8a4aabe3c87349d919050565b8160ff166008036129aa57507f2fa5e5f18f6027a6501bec864564472a616b2e274a41211a444cbe3a99f3cc61919050565b8160ff166009036129dc57507f0e884376d0d8fd21ecb780389e941f66e45e7acce3e228ab3e2156a614fcd747919050565b8160ff16600a03612a0e57507f1b7201da72494f1e28717ad1a52eb469f95892f957713533de6175e5da190af2919050565b8160ff16600b03612a4057507f1f8d8822725e36385200c0b201249819a6e6e1e4650808b5bebc6bface7d7636919050565b8160ff16600c03612a7257507f2c5d82f66c914bafb9701589ba8cfcfb6162b0a12acf88a8d0879a0471b5f85a919050565b8160ff16600d03612aa457507f14c54148a0940bb820957f5adf3fa1134ef5c4aaa113f4646458f270e0bfbfd0919050565b8160ff16600e03612ad657507f190d33b12f986f961e10c0ee44d8b9af11be25588cad89d416118e4bf4ebe80c919050565b8160ff16600f03612b0857507f22f98aa9ce704152ac17354914ad73ed1167ae6596af510aa5b3649325e06c92919050565b8160ff16601003612b3a57507f2a7c7c9b6ce5880b9f6f228d72bf6a575a526f29c66ecceef8b753d38bba7323919050565b8160ff16601103612b6c57507f2e8186e558698ec1c67af9c14d463ffc470043c9c2988b954d75dd643f36b992919050565b8160ff16601203612b9e57507f0f57c5571e9a4eab49e2c8cf050dae948aef6ead647392273546249d1c1ff10f919050565b8160ff16601303612bd057507f1830ee67b5fb554ad5f63d4388800e1cfe78e310697d46e43c9ce36134f72cca919050565b8160ff16601403612c0257507f2134e76ac5d21aab186c2be1dd8f84ee880a1e46eaf712f9d371b6df22191f3e919050565b8160ff16601503612c3457507f19df90ec844ebc4ffeebd866f33859b0c051d8c958ee3aa88f8f8df3db91a5b1919050565b8160ff16601603612c6657507f18cca2a66b5c0787981e69aefd84852d74af0e93ef4912b4648c05f722efe52b919050565b8160ff16601703612c9857507f2388909415230d1b4d1304d2d54f473a628338f2efad83fadf05644549d2538d919050565b8160ff16601803612cca57507f27171fb4a97b6cc0e9e8f543b5294de866a2af2c9c8d0b1d96e673e4529ed540919050565b8160ff16601903612cfc57507f2ff6650540f629fd5711a0bc74fc0d28dcb230b9392583e5f8d59696dde6ae21919050565b8160ff16601a03612d2e57507f120c58f143d491e95902f7f5277778a2e0ad5168f6add75669932630ce611518919050565b8160ff16601b03612d6057507f1f21feb70d3f21b07bf853d5e5db03071ec495a0a565a21da2d665d279483795919050565b8160ff16601c03612d9257507f24be905fa71335e14c638cc0f66a8623a826e768068a9e968bb1a1dde18a72d2919050565b8160ff16601d03612dc457507f0f8666b62ed17491c50ceadead57d4cd597ef3821d65c328744c74e553dac26d919050565b8160ff16601e03612df657507f0918d46bf52d98b034413f4a1a1c41594e7a7a3f6ae08cb43d1a2a230e1959ef919050565b8160ff16601f03612e2857507f1bbeb01b4c479ecde76917645e404dfa2e26f90d0afc5a65128513ad375c5ff2919050565b8160ff16602003612e5a57507f2f68a1c58e257e42a17a6c61dff5551ed560b9922ab119d5ac8e184c9734ead9919050565b60405162461bcd60e51b815260206004820152601e60248201527f4c617a79494d543a2064656661756c745a65726f2062616420696e6465780000604482015260640161070b565b602060ff83161115612ec65760405162461bcd60e51b815260040161070b90613de3565b5f8364ffffffffff1611612f2a5760405162461bcd60e51b815260206004820152602560248201527f4c617a79494d543a206e756d626572206f66206c6561766573206d7573742062604482015264065203e20360dc1b606482015260840161070b565b5f612f36600185613da7565b9050600181165f03612f8957846001015f612f515f846126dd565b64ffffffffff1681526020019081526020015f2054825f81518110612f7857612f786136d5565b602002602001018181525050612fb1565b612f925f612808565b825f81518110612fa457612fa46136d5565b6020026020010181815250505b5f5b8360ff168160ff161015611eda57600182165f036130a95773__$078c82ddf6c95d34ea184ef1dd6130d136$__63561558fe6040518060400160405280868560ff1681518110613005576130056136d5565b6020026020010151815260200161301b85612808565b8152506040518263ffffffff1660e01b815260040161303a9190613d77565b602060405180830381865af4158015613055573d5f5f3e3d5ffd5b505050506040513d601f19601f820116820180604052508101906130799190613701565b83613085836001613d41565b60ff1681518110613098576130986136d5565b60200260200101818152505061325a565b5f6130b5826001613d41565b60ff168664ffffffffff16901c64ffffffffff16905060018364ffffffffff16901c64ffffffffff16811115613157575f876001015f61310c8560016130fb9190613d41565b60018864ffffffffff16901c6126dd565b64ffffffffff1681526020019081526020015f2054905080858460016131329190613d41565b60ff1681518110613145576131456136d5565b60200260200101818152505050613258565b5f876001015f61316e85600188611d659190613da7565b64ffffffffff1681526020019081526020015f2054905073__$078c82ddf6c95d34ea184ef1dd6130d136$__63561558fe6040518060400160405280848152602001888760ff16815181106131c5576131c56136d5565b60200260200101518152506040518263ffffffff1660e01b81526004016131ec9190613d77565b602060405180830381865af4158015613207573d5f5f3e3d5ffd5b505050506040513d601f19601f8201168201806040525081019061322b9190613701565b85613237856001613d41565b60ff168151811061324a5761324a6136d5565b602002602001018181525050505b505b647fffffffff600192831c169101612fb3565b6001830191839082156132fe579160200282015f5b838211156132cc57833563ffffffff1683826101000a81548163ffffffff021916908363ffffffff1602179055509260200192600401602081600301049283019260010302613282565b80156132fc5782816101000a81549063ffffffff02191690556004016020816003010492830192600103026132cc565b505b5061330a92915061330e565b5090565b5b8082111561330a575f815560010161330f565b6001600160a01b038116811461102c575f5ffd5b5f60208284031215613346575f5ffd5b81356125dd81613322565b5f60208284031215613361575f5ffd5b5035919050565b5f8151808452602084019350602083015f5b828110156133a15781516001600160a01b031686526020958601959091019060010161337a565b5093949350505050565b602081525f6125dd6020830184613368565b5f5f5f608084860312156133cf575f5ffd5b8335925060208401359150608084018510156133e9575f5ffd5b6040840190509250925092565b5f5f60408385031215613407575f5ffd5b82359150602083013561341981613322565b809150509250929050565b5f5f5f60608486031215613436575f5ffd5b83359250602084013561344881613322565b929592945050506040919091013590565b6001600160a01b0391909116815260200190565b5f8151808452602084019350602083015f5b828110156133a157815186526020958601959091019060010161347f565b604081525f6134af6040830185613368565b82810360208401526134c1818561346d565b95945050505050565b5f5f604083850312156134db575f5ffd5b82356134e681613322565b946020939093013593505050565b634e487b7160e01b5f52602160045260245ffd5b602081016004831061352857634e487b7160e01b5f52602160045260245ffd5b91905290565b5f5f6040838503121561353f575f5ffd5b50508035926020909101359150565b5f5f83601f84011261355e575f5ffd5b5081356001600160401b03811115613574575f5ffd5b60208301915083602082850101111561358b575f5ffd5b9250929050565b5f5f5f5f5f5f5f5f5f60a08a8c0312156135aa575f5ffd5b8935985060208a01356001600160401b038111156135c6575f5ffd5b8a01601f81018c136135d6575f5ffd5b80356001600160401b038111156135eb575f5ffd5b8c60208260051b84010111156135ff575f5ffd5b6020919091019850965060408a01356001600160401b03811115613621575f5ffd5b61362d8c828d0161354e565b90975095505060608a01356001600160401b0381111561364b575f5ffd5b6136578c828d0161354e565b90955093505060808a01356001600160401b03811115613675575f5ffd5b6136818c828d0161354e565b915080935050809150509295985092959850929598565b634e487b7160e01b5f52601160045260245ffd5b5f816136ba576136ba613698565b505f190190565b634e487b7160e01b5f52604160045260245ffd5b634e487b7160e01b5f52603260045260245ffd5b5f600182016136fa576136fa613698565b5060010190565b5f60208284031215613711575f5ffd5b5051919050565b803563ffffffff811681146118fd575f5ffd5b5f6020828403121561373b575f5ffd5b6125dd82613718565b80820180821115610c3857610c38613698565b84815260a0810160208201855f5b60028110156137925763ffffffff61377c83613718565b1683526020928301929190910190600101613765565b50505060608201939093526080015292915050565b805180151581146118fd575f5ffd5b5f602082840312156137c6575f5ffd5b6125dd826137a7565b604080825283549082018190525f8481526020812090916060840190835b818110156138145783546001600160a01b03168352600193840193602090930192016137ed565b50508381036020850152613828818661346d565b9695505050505050565b6040516101e081016001600160401b0381118282101715613855576138556136c1565b60405290565b604051601f8201601f191681016001600160401b0381118282101715613883576138836136c1565b604052919050565b5f6001600160401b038211156138a3576138a36136c1565b50601f01601f191660200190565b5f82601f8301126138c0575f5ffd5b81356001600160401b038111156138d9576138d96136c1565b8060051b6138e96020820161385b565b91825260208185018101929081019086841115613904575f5ffd5b6020860192505b8383101561382857823582526020928301929091019061390b565b5f5f60408385031215613937575f5ffd5b82356001600160401b0381111561394c575f5ffd5b8301601f8101851361395c575f5ffd5b803561396f61396a8261388b565b61385b565b818152866020838501011115613983575f5ffd5b816020840160208301375f6020838301015280945050505060208301356001600160401b038111156139b3575f5ffd5b6139bf858286016138b1565b9150509250929050565b81810381811115610c3857610c38613698565b8051600481106118fd575f5ffd5b5f82601f8301126139f9575f5ffd5b604080519081016001600160401b0381118282101715613a1b57613a1b6136c1565b8060405250806040840185811115613a31575f5ffd5b845b81811015613a4b578051835260209283019201613a33565b509195945050505050565b80516118fd81613322565b5f82601f830112613a70575f5ffd5b8151613a7e61396a8261388b565b818152846020838601011115613a92575f5ffd5b8160208501602083015e5f918101602001919091529392505050565b5f60208284031215613abe575f5ffd5b81516001600160401b03811115613ad3575f5ffd5b82016102008185031215613ae5575f5ffd5b613aed613832565b81518152613afd602083016139dc565b602082015260408281015190820152613b1985606084016139ea565b606082015260a08201516080820152613b3460c08301613a56565b60a082015260e08201516001600160401b03811115613b51575f5ffd5b613b5d86828501613a61565b60c0830152506101008201516001600160401b03811115613b7c575f5ffd5b613b8886828501613a61565b60e083015250613b9b6101208301613a56565b610100820152613bae6101408301613a56565b61012082015261016082810151610140830152610180830151908201526101a08201516001600160401b03811115613be4575f5ffd5b613bf086828501613a61565b61018083015250613c046101c08301613a56565b6101a0820152613c176101e083016137a7565b6101c0820152949350505050565b81835281816020850137505f828201602090810191909152601f909101601f19169091010190565b604081525f613c60604083018688613c25565b8281036020840152613c73818587613c25565b979650505050505050565b606080825281018690525f8760808301825b89811015613cc0578235613ca381613322565b6001600160a01b0316825260209283019290910190600101613c90565b508381036020850152613cd481888a613c25565b9150508281036040840152613cea818587613c25565b9998505050505050505050565b6020808252602a908201527f4c617a79494d543a206c656166206d757374206265203c20534e41524b5f53436040820152691053105497d19251531160b21b606082015260800190565b60ff8181168382160190811115610c3857610c38613698565b64ffffffffff8181168382160190811115610c3857610c38613698565b6040810181835f5b6002811015613d9e578151835260209283019290910190600101613d7f565b50505092915050565b64ffffffffff8281168282160390811115610c3857610c38613698565b5f82613dde57634e487b7160e01b5f52601260045260245ffd5b500490565b60208082526023908201527f4c617a79494d543a206465707468206d757374206265203c3d204d41585f44456040820152620a0a8960eb1b606082015260800190565b6001815b6001841115610ee957808504811115613e4557613e45613698565b6001841615613e5357908102905b60019390931c928002613e2a565b5f82613e6f57506001610c38565b81613e7b57505f610c38565b8160018114613e915760028114613e9b57613ecd565b6001915050610c38565b60ff841115613eac57613eac613698565b6001841b915064ffffffffff821115613ec757613ec7613698565b50610c38565b5060208310610133831016604e8410600b8410161715613f05575081810a64ffffffffff811115613f0057613f00613698565b610c38565b613f1564ffffffffff8484613e26565b8064ffffffffff04821115613f2c57613f2c613698565b029392505050565b5f6125dd64ffffffffff841664ffffffffff8416613e61565b64ffffffffff8181168382160290811690818114613f6d57613f6d613698565b509291505056fea164736f6c634300081c000a",
  "linkReferences": {
    "npm/poseidon-solidity@0.0.5/PoseidonT3.sol": {
      "PoseidonT3": [
        {
          "length": 20,
          "start": 7803
        },
        {
          "length": 20,
          "start": 7987
        },
        {
          "length": 20,
          "start": 8617
        },
        {
          "length": 20,
          "start": 12451
        },
        {
          "length": 20,
          "start": 12893
        }
      ]
    }
  },
  "deployedLinkReferences": {
    "npm/poseidon-solidity@0.0.5/PoseidonT3.sol": {
      "PoseidonT3": [
        {
          "length": 20,
          "start": 7589
        },
        {
          "length": 20,
          "start": 7773
        },
        {
          "length": 20,
          "start": 8403
        },
        {
          "length": 20,
          "start": 12237
        },
        {
          "length": 20,
          "start": 12679
        }
      ]
    }
  },
  "immutableReferences": {},
  "inputSourceName": "project/contracts/registry/CiphernodeRegistryOwnable.sol",
  "buildInfoId": "solc-0_8_28-a5c2ec0646a40f95c66bc21729b7a906479f7537"
}