{
  "_format": "hh3-artifact-1",
  "contractName": "CiphernodeRegistryOwnable",
  "sourceName": "contracts/registry/CiphernodeRegistryOwnable.sol",
  "abi": [
    {
      "inputs": [],
      "stateMutability": "nonpayable",
      "type": "constructor"
    },
    {
      "inputs": [],
      "name": "BondingRegistryNotSet",
      "type": "error"
    },
    {
      "inputs": [
        {
          "internalType": "address",
          "name": "node",
          "type": "address"
        }
      ],
      "name": "CiphernodeNotEnabled",
      "type": "error"
    },
    {
      "inputs": [],
      "name": "CommitteeAlreadyFinalized",
      "type": "error"
    },
    {
      "inputs": [],
      "name": "CommitteeAlreadyPublished",
      "type": "error"
    },
    {
      "inputs": [],
      "name": "CommitteeAlreadyRequested",
      "type": "error"
    },
    {
      "inputs": [],
      "name": "CommitteeDeadlineReached",
      "type": "error"
    },
    {
      "inputs": [],
      "name": "CommitteeNotFinalized",
      "type": "error"
    },
    {
      "inputs": [],
      "name": "CommitteeNotInitializedOrFinalized",
      "type": "error"
    },
    {
      "inputs": [],
      "name": "CommitteeNotPublished",
      "type": "error"
    },
    {
      "inputs": [],
      "name": "CommitteeNotRequested",
      "type": "error"
    },
    {
      "inputs": [
        {
          "internalType": "uint256",
          "name": "requested",
          "type": "uint256"
        },
        {
          "internalType": "uint256",
          "name": "available",
          "type": "uint256"
        }
      ],
      "name": "InsufficientCiphernodes",
      "type": "error"
    },
    {
      "inputs": [],
      "name": "InvalidInitialization",
      "type": "error"
    },
    {
      "inputs": [],
      "name": "InvalidTicketNumber",
      "type": "error"
    },
    {
      "inputs": [],
      "name": "NodeAlreadySubmitted",
      "type": "error"
    },
    {
      "inputs": [
        {
          "internalType": "address",
          "name": "node",
          "type": "address"
        }
      ],
      "name": "NodeNotBonded",
      "type": "error"
    },
    {
      "inputs": [],
      "name": "NodeNotEligible",
      "type": "error"
    },
    {
      "inputs": [],
      "name": "NodeNotSubmitted",
      "type": "error"
    },
    {
      "inputs": [],
      "name": "NotInitializing",
      "type": "error"
    },
    {
      "inputs": [],
      "name": "NotOwnerOrBondingRegistry",
      "type": "error"
    },
    {
      "inputs": [],
      "name": "NotSlashingManager",
      "type": "error"
    },
    {
      "inputs": [],
      "name": "OnlyBondingRegistry",
      "type": "error"
    },
    {
      "inputs": [],
      "name": "OnlyEnclave",
      "type": "error"
    },
    {
      "inputs": [
        {
          "internalType": "address",
          "name": "owner",
          "type": "address"
        }
      ],
      "name": "OwnableInvalidOwner",
      "type": "error"
    },
    {
      "inputs": [
        {
          "internalType": "address",
          "name": "account",
          "type": "address"
        }
      ],
      "name": "OwnableUnauthorizedAccount",
      "type": "error"
    },
    {
      "inputs": [],
      "name": "SubmissionWindowClosed",
      "type": "error"
    },
    {
      "inputs": [],
      "name": "SubmissionWindowNotClosed",
      "type": "error"
    },
    {
      "inputs": [],
      "name": "ThresholdNotMet",
      "type": "error"
    },
    {
      "inputs": [],
      "name": "Unauthorized",
      "type": "error"
    },
    {
      "inputs": [],
      "name": "ZeroAddress",
      "type": "error"
    },
    {
      "anonymous": false,
      "inputs": [
        {
          "indexed": true,
          "internalType": "address",
          "name": "bondingRegistry",
          "type": "address"
        }
      ],
      "name": "BondingRegistrySet",
      "type": "event"
    },
    {
      "anonymous": false,
      "inputs": [
        {
          "indexed": true,
          "internalType": "address",
          "name": "node",
          "type": "address"
        },
        {
          "indexed": false,
          "internalType": "uint256",
          "name": "index",
          "type": "uint256"
        },
        {
          "indexed": false,
          "internalType": "uint256",
          "name": "numNodes",
          "type": "uint256"
        },
        {
          "indexed": false,
          "internalType": "uint256",
          "name": "size",
          "type": "uint256"
        }
      ],
      "name": "CiphernodeAdded",
      "type": "event"
    },
    {
      "anonymous": false,
      "inputs": [
        {
          "indexed": true,
          "internalType": "address",
          "name": "node",
          "type": "address"
        },
        {
          "indexed": false,
          "internalType": "uint256",
          "name": "index",
          "type": "uint256"
        },
        {
          "indexed": false,
          "internalType": "uint256",
          "name": "numNodes",
          "type": "uint256"
        },
        {
          "indexed": false,
          "internalType": "uint256",
          "name": "size",
          "type": "uint256"
        }
      ],
      "name": "CiphernodeRemoved",
      "type": "event"
    },
    {
      "anonymous": false,
      "inputs": [
        {
          "indexed": true,
          "internalType": "uint256",
          "name": "e3Id",
          "type": "uint256"
        },
        {
          "indexed": false,
          "internalType": "bool",
          "name": "active",
          "type": "bool"
        }
      ],
      "name": "CommitteeActivationChanged",
      "type": "event"
    },
    {
      "anonymous": false,
      "inputs": [
        {
          "indexed": true,
          "internalType": "uint256",
          "name": "e3Id",
          "type": "uint256"
        },
        {
          "indexed": false,
          "internalType": "address[]",
          "name": "committee",
          "type": "address[]"
        }
      ],
      "name": "CommitteeFinalized",
      "type": "event"
    },
    {
      "anonymous": false,
      "inputs": [
        {
          "indexed": true,
          "internalType": "uint256",
          "name": "e3Id",
          "type": "uint256"
        },
        {
          "indexed": false,
          "internalType": "uint256",
          "name": "nodesSubmitted",
          "type": "uint256"
        },
        {
          "indexed": false,
          "internalType": "uint256",
          "name": "thresholdRequired",
          "type": "uint256"
        }
      ],
      "name": "CommitteeFormationFailed",
      "type": "event"
    },
    {
      "anonymous": false,
      "inputs": [
        {
          "indexed": true,
          "internalType": "uint256",
          "name": "e3Id",
          "type": "uint256"
        },
        {
          "indexed": true,
          "internalType": "address",
          "name": "node",
          "type": "address"
        },
        {
          "indexed": false,
          "internalType": "bytes32",
          "name": "reason",
          "type": "bytes32"
        },
        {
          "indexed": false,
          "internalType": "uint256",
          "name": "activeCountAfter",
          "type": "uint256"
        }
      ],
      "name": "CommitteeMemberExpelled",
      "type": "event"
    },
    {
      "anonymous": false,
      "inputs": [
        {
          "indexed": true,
          "internalType": "uint256",
          "name": "e3Id",
          "type": "uint256"
        },
        {
          "indexed": false,
          "internalType": "address[]",
          "name": "nodes",
          "type": "address[]"
        },
        {
          "indexed": false,
          "internalType": "bytes",
          "name": "publicKey",
          "type": "bytes"
        }
      ],
      "name": "CommitteePublished",
      "type": "event"
    },
    {
      "anonymous": false,
      "inputs": [
        {
          "indexed": true,
          "internalType": "uint256",
          "name": "e3Id",
          "type": "uint256"
        },
        {
          "indexed": false,
          "internalType": "uint256",
          "name": "seed",
          "type": "uint256"
        },
        {
          "indexed": false,
          "internalType": "uint32[2]",
          "name": "threshold",
          "type": "uint32[2]"
        },
        {
          "indexed": false,
          "internalType": "uint256",
          "name": "requestBlock",
          "type": "uint256"
        },
        {
          "indexed": false,
          "internalType": "uint256",
          "name": "committeeDeadline",
          "type": "uint256"
        }
      ],
      "name": "CommitteeRequested",
      "type": "event"
    },
    {
      "anonymous": false,
      "inputs": [
        {
          "indexed": true,
          "internalType": "uint256",
          "name": "e3Id",
          "type": "uint256"
        },
        {
          "indexed": false,
          "internalType": "uint256",
          "name": "activeCount",
          "type": "uint256"
        },
        {
          "indexed": false,
          "internalType": "uint256",
          "name": "thresholdM",
          "type": "uint256"
        },
        {
          "indexed": false,
          "internalType": "bool",
          "name": "viable",
          "type": "bool"
        }
      ],
      "name": "CommitteeViabilityUpdated",
      "type": "event"
    },
    {
      "anonymous": false,
      "inputs": [
        {
          "indexed": true,
          "internalType": "address",
          "name": "enclave",
          "type": "address"
        }
      ],
      "name": "EnclaveSet",
      "type": "event"
    },
    {
      "anonymous": false,
      "inputs": [
        {
          "indexed": false,
          "internalType": "uint64",
          "name": "version",
          "type": "uint64"
        }
      ],
      "name": "Initialized",
      "type": "event"
    },
    {
      "anonymous": false,
      "inputs": [
        {
          "indexed": true,
          "internalType": "address",
          "name": "previousOwner",
          "type": "address"
        },
        {
          "indexed": true,
          "internalType": "address",
          "name": "newOwner",
          "type": "address"
        }
      ],
      "name": "OwnershipTransferred",
      "type": "event"
    },
    {
      "anonymous": false,
      "inputs": [
        {
          "indexed": false,
          "internalType": "uint256",
          "name": "sortitionSubmissionWindow",
          "type": "uint256"
        }
      ],
      "name": "SortitionSubmissionWindowSet",
      "type": "event"
    },
    {
      "anonymous": false,
      "inputs": [
        {
          "indexed": true,
          "internalType": "uint256",
          "name": "e3Id",
          "type": "uint256"
        },
        {
          "indexed": true,
          "internalType": "address",
          "name": "node",
          "type": "address"
        },
        {
          "indexed": false,
          "internalType": "uint256",
          "name": "ticketId",
          "type": "uint256"
        },
        {
          "indexed": false,
          "internalType": "uint256",
          "name": "score",
          "type": "uint256"
        }
      ],
      "name": "TicketSubmitted",
      "type": "event"
    },
    {
      "inputs": [],
      "name": "TREE_DEPTH",
      "outputs": [
        {
          "internalType": "uint8",
          "name": "",
          "type": "uint8"
        }
      ],
      "stateMutability": "view",
      "type": "function"
    },
    {
      "inputs": [
        {
          "internalType": "address",
          "name": "node",
          "type": "address"
        }
      ],
      "name": "addCiphernode",
      "outputs": [],
      "stateMutability": "nonpayable",
      "type": "function"
    },
    {
      "inputs": [],
      "name": "bondingRegistry",
      "outputs": [
        {
          "internalType": "contract IBondingRegistry",
          "name": "",
          "type": "address"
        }
      ],
      "stateMutability": "view",
      "type": "function"
    },
    {
      "inputs": [
        {
          "internalType": "address",
          "name": "node",
          "type": "address"
        }
      ],
      "name": "ciphernodeEnabled",
      "outputs": [
        {
          "internalType": "bool",
          "name": "enabled",
          "type": "bool"
        }
      ],
      "stateMutability": "view",
      "type": "function"
    },
    {
      "inputs": [
        {
          "internalType": "address",
          "name": "node",
          "type": "address"
        }
      ],
      "name": "ciphernodeTreeIndex",
      "outputs": [
        {
          "internalType": "uint40",
          "name": "index",
          "type": "uint40"
        }
      ],
      "stateMutability": "view",
      "type": "function"
    },
    {
      "inputs": [],
      "name": "ciphernodes",
      "outputs": [
        {
          "internalType": "uint40",
          "name": "maxIndex",
          "type": "uint40"
        },
        {
          "internalType": "uint40",
          "name": "numberOfLeaves",
          "type": "uint40"
        }
      ],
      "stateMutability": "view",
      "type": "function"
    },
    {
      "inputs": [
        {
          "internalType": "uint256",
          "name": "e3Id",
          "type": "uint256"
        }
      ],
      "name": "committeePublicKey",
      "outputs": [
        {
          "internalType": "bytes32",
          "name": "publicKeyHash",
          "type": "bytes32"
        }
      ],
      "stateMutability": "view",
      "type": "function"
    },
    {
      "inputs": [],
      "name": "enclave",
      "outputs": [
        {
          "internalType": "contract IEnclave",
          "name": "",
          "type": "address"
        }
      ],
      "stateMutability": "view",
      "type": "function"
    },
    {
      "inputs": [
        {
          "internalType": "uint256",
          "name": "e3Id",
          "type": "uint256"
        },
        {
          "internalType": "address",
          "name": "node",
          "type": "address"
        },
        {
          "internalType": "bytes32",
          "name": "reason",
          "type": "bytes32"
        }
      ],
      "name": "expelCommitteeMember",
      "outputs": [
        {
          "internalType": "uint256",
          "name": "activeCount",
          "type": "uint256"
        },
        {
          "internalType": "uint32",
          "name": "thresholdM",
          "type": "uint32"
        }
      ],
      "stateMutability": "nonpayable",
      "type": "function"
    },
    {
      "inputs": [
        {
          "internalType": "uint256",
          "name": "e3Id",
          "type": "uint256"
        }
      ],
      "name": "finalizeCommittee",
      "outputs": [
        {
          "internalType": "bool",
          "name": "success",
          "type": "bool"
        }
      ],
      "stateMutability": "nonpayable",
      "type": "function"
    },
    {
      "inputs": [
        {
          "internalType": "uint256",
          "name": "e3Id",
          "type": "uint256"
        }
      ],
      "name": "getActiveCommitteeNodes",
      "outputs": [
        {
          "internalType": "address[]",
          "name": "",
          "type": "address[]"
        }
      ],
      "stateMutability": "view",
      "type": "function"
    },
    {
      "inputs": [],
      "name": "getBondingRegistry",
      "outputs": [
        {
          "internalType": "address",
          "name": "",
          "type": "address"
        }
      ],
      "stateMutability": "view",
      "type": "function"
    },
    {
      "inputs": [
        {
          "internalType": "uint256",
          "name": "e3Id",
          "type": "uint256"
        }
      ],
      "name": "getCommitteeDeadline",
      "outputs": [
        {
          "internalType": "uint256",
          "name": "",
          "type": "uint256"
        }
      ],
      "stateMutability": "view",
      "type": "function"
    },
    {
      "inputs": [
        {
          "internalType": "uint256",
          "name": "e3Id",
          "type": "uint256"
        }
      ],
      "name": "getCommitteeNodes",
      "outputs": [
        {
          "internalType": "address[]",
          "name": "nodes",
          "type": "address[]"
        }
      ],
      "stateMutability": "view",
      "type": "function"
    },
    {
      "inputs": [
        {
          "internalType": "uint256",
          "name": "e3Id",
          "type": "uint256"
        }
      ],
      "name": "getCommitteeViability",
      "outputs": [
        {
          "internalType": "uint256",
          "name": "activeCount",
          "type": "uint256"
        },
        {
          "internalType": "uint32",
          "name": "thresholdM",
          "type": "uint32"
        },
        {
          "internalType": "uint32",
          "name": "thresholdN",
          "type": "uint32"
        },
        {
          "internalType": "bool",
          "name": "viable",
          "type": "bool"
        }
      ],
      "stateMutability": "view",
      "type": "function"
    },
    {
      "inputs": [
        {
          "internalType": "address",
          "name": "_owner",
          "type": "address"
        },
        {
          "internalType": "uint256",
          "name": "_submissionWindow",
          "type": "uint256"
        }
      ],
      "name": "initialize",
      "outputs": [],
      "stateMutability": "nonpayable",
      "type": "function"
    },
    {
      "inputs": [
        {
          "internalType": "address",
          "name": "node",
          "type": "address"
        }
      ],
      "name": "isCiphernodeEligible",
      "outputs": [
        {
          "internalType": "bool",
          "name": "",
          "type": "bool"
        }
      ],
      "stateMutability": "view",
      "type": "function"
    },
    {
      "inputs": [
        {
          "internalType": "uint256",
          "name": "e3Id",
          "type": "uint256"
        },
        {
          "internalType": "address",
          "name": "node",
          "type": "address"
        }
      ],
      "name": "isCommitteeMember",
      "outputs": [
        {
          "internalType": "bool",
          "name": "",
          "type": "bool"
        }
      ],
      "stateMutability": "view",
      "type": "function"
    },
    {
      "inputs": [
        {
          "internalType": "uint256",
          "name": "e3Id",
          "type": "uint256"
        },
        {
          "internalType": "address",
          "name": "node",
          "type": "address"
        }
      ],
      "name": "isCommitteeMemberActive",
      "outputs": [
        {
          "internalType": "bool",
          "name": "",
          "type": "bool"
        }
      ],
      "stateMutability": "view",
      "type": "function"
    },
    {
      "inputs": [
        {
          "internalType": "address",
          "name": "node",
          "type": "address"
        }
      ],
      "name": "isEnabled",
      "outputs": [
        {
          "internalType": "bool",
          "name": "",
          "type": "bool"
        }
      ],
      "stateMutability": "view",
      "type": "function"
    },
    {
      "inputs": [
        {
          "internalType": "uint256",
          "name": "e3Id",
          "type": "uint256"
        }
      ],
      "name": "isOpen",
      "outputs": [
        {
          "internalType": "bool",
          "name": "",
          "type": "bool"
        }
      ],
      "stateMutability": "view",
      "type": "function"
    },
    {
      "inputs": [],
      "name": "numCiphernodes",
      "outputs": [
        {
          "internalType": "uint256",
          "name": "",
          "type": "uint256"
        }
      ],
      "stateMutability": "view",
      "type": "function"
    },
    {
      "inputs": [],
      "name": "owner",
      "outputs": [
        {
          "internalType": "address",
          "name": "",
          "type": "address"
        }
      ],
      "stateMutability": "view",
      "type": "function"
    },
    {
      "inputs": [
        {
          "internalType": "uint256",
          "name": "e3Id",
          "type": "uint256"
        }
      ],
      "name": "publicKeyHashes",
      "outputs": [
        {
          "internalType": "bytes32",
          "name": "publicKeyHash",
          "type": "bytes32"
        }
      ],
      "stateMutability": "view",
      "type": "function"
    },
    {
      "inputs": [
        {
          "internalType": "uint256",
          "name": "e3Id",
          "type": "uint256"
        },
        {
          "internalType": "address[]",
          "name": "nodes",
          "type": "address[]"
        },
        {
          "internalType": "bytes",
          "name": "publicKey",
          "type": "bytes"
        },
        {
          "internalType": "bytes32",
          "name": "publicKeyHash",
          "type": "bytes32"
        }
      ],
      "name": "publishCommittee",
      "outputs": [],
      "stateMutability": "nonpayable",
      "type": "function"
    },
    {
      "inputs": [
        {
          "internalType": "address",
          "name": "node",
          "type": "address"
        }
      ],
      "name": "removeCiphernode",
      "outputs": [],
      "stateMutability": "nonpayable",
      "type": "function"
    },
    {
      "inputs": [],
      "name": "renounceOwnership",
      "outputs": [],
      "stateMutability": "nonpayable",
      "type": "function"
    },
    {
      "inputs": [
        {
          "internalType": "uint256",
          "name": "e3Id",
          "type": "uint256"
        },
        {
          "internalType": "uint256",
          "name": "seed",
          "type": "uint256"
        },
        {
          "internalType": "uint32[2]",
          "name": "threshold",
          "type": "uint32[2]"
        }
      ],
      "name": "requestCommittee",
      "outputs": [
        {
          "internalType": "bool",
          "name": "success",
          "type": "bool"
        }
      ],
      "stateMutability": "nonpayable",
      "type": "function"
    },
    {
      "inputs": [],
      "name": "root",
      "outputs": [
        {
          "internalType": "uint256",
          "name": "",
          "type": "uint256"
        }
      ],
      "stateMutability": "view",
      "type": "function"
    },
    {
      "inputs": [
        {
          "internalType": "uint256",
          "name": "e3Id",
          "type": "uint256"
        }
      ],
      "name": "rootAt",
      "outputs": [
        {
          "internalType": "uint256",
          "name": "",
          "type": "uint256"
        }
      ],
      "stateMutability": "view",
      "type": "function"
    },
    {
      "inputs": [
        {
          "internalType": "uint256",
          "name": "e3Id",
          "type": "uint256"
        }
      ],
      "name": "roots",
      "outputs": [
        {
          "internalType": "uint256",
          "name": "root",
          "type": "uint256"
        }
      ],
      "stateMutability": "view",
      "type": "function"
    },
    {
      "inputs": [
        {
          "internalType": "contract IBondingRegistry",
          "name": "_bondingRegistry",
          "type": "address"
        }
      ],
      "name": "setBondingRegistry",
      "outputs": [],
      "stateMutability": "nonpayable",
      "type": "function"
    },
    {
      "inputs": [
        {
          "internalType": "contract IEnclave",
          "name": "_enclave",
          "type": "address"
        }
      ],
      "name": "setEnclave",
      "outputs": [],
      "stateMutability": "nonpayable",
      "type": "function"
    },
    {
      "inputs": [
        {
          "internalType": "contract ISlashingManager",
          "name": "_slashingManager",
          "type": "address"
        }
      ],
      "name": "setSlashingManager",
      "outputs": [],
      "stateMutability": "nonpayable",
      "type": "function"
    },
    {
      "inputs": [
        {
          "internalType": "uint256",
          "name": "_sortitionSubmissionWindow",
          "type": "uint256"
        }
      ],
      "name": "setSortitionSubmissionWindow",
      "outputs": [],
      "stateMutability": "nonpayable",
      "type": "function"
    },
    {
      "inputs": [],
      "name": "slashingManager",
      "outputs": [
        {
          "internalType": "contract ISlashingManager",
          "name": "",
          "type": "address"
        }
      ],
      "stateMutability": "view",
      "type": "function"
    },
    {
      "inputs": [],
      "name": "sortitionSubmissionWindow",
      "outputs": [
        {
          "internalType": "uint256",
          "name": "",
          "type": "uint256"
        }
      ],
      "stateMutability": "view",
      "type": "function"
    },
    {
      "inputs": [
        {
          "internalType": "uint256",
          "name": "e3Id",
          "type": "uint256"
        },
        {
          "internalType": "uint256",
          "name": "ticketNumber",
          "type": "uint256"
        }
      ],
      "name": "submitTicket",
      "outputs": [],
      "stateMutability": "nonpayable",
      "type": "function"
    },
    {
      "inputs": [
        {
          "internalType": "address",
          "name": "newOwner",
          "type": "address"
        }
      ],
      "name": "transferOwnership",
      "outputs": [],
      "stateMutability": "nonpayable",
      "type": "function"
    },
    {
      "inputs": [],
      "name": "treeSize",
      "outputs": [
        {
          "internalType": "uint256",
          "name": "",
          "type": "uint256"
        }
      ],
      "stateMutability": "view",
      "type": "function"
    }
  ],
  "bytecode": "0x6080604052348015600e575f5ffd5b5060156019565b60c9565b7ff0c57e16840df040f15088dc2f81fe391c3923bec73e23a9662efc9c229c6a00805468010000000000000000900460ff161560685760405163f92ee8a960e01b815260040160405180910390fd5b80546001600160401b039081161460c65780546001600160401b0319166001600160401b0390811782556040519081527fc7f505b2f371ae2175ee4913f4499e1f2633a7b5936321eed1cdaeb6115181d29060200160405180910390a15b50565b613711806100d65f395ff3fe608060405234801561000f575f5ffd5b506004361061023f575f3560e01c80639a7a2ffc11610135578063dbb06c93116100b4578063f165053611610079578063f16505361461056a578063f2fde38b14610584578063f379b0df14610597578063f52fd803146105d1578063f6fc05d514610643575f5ffd5b8063dbb06c9314610517578063e59e469514610529578063e6745e131461053c578063e82f3b701461054f578063ebf0c71714610562575f5ffd5b8063c2b40ae4116100fa578063c2b40ae4146104a2578063c3a0ec30146104c1578063ca2869a0146104d2578063cd6dc687146104f1578063da881e5a14610504575f5ffd5b80639a7a2ffc146104245780639f0f874a14610460578063a016493014610469578063a8a4d69b1461047c578063bff232c11461048f575f5ffd5b8063715018a6116101c15780638cb89ecb116101865780638cb89ecb146103c15780638d1ddfb1146103e05780638da5cb5b146103f65780638e5ce3ad146103fe5780639015d37114610411575f5ffd5b8063715018a6146103465780637c92f5241461034e578063858142431461037b5780638a78bb151461039b5780638b530cb5146103ae575f5ffd5b80632e7b716d116102075780632e7b716d146102d85780634d6861a6146102eb57806350e6d94c146102fe5780635d5047761461032057806370e36bbe14610333575f5ffd5b8063096b810a146102435780630f3e34121461025857806317d611201461026b5780632800d82914610294578063291a691b146102b5575b5f5ffd5b61025661025136600461300d565b61064c565b005b610256610266366004613028565b610798565b61027e610279366004613028565b6107db565b60405161028b919061303f565b60405180910390f35b6102a76102a2366004613028565b61091d565b60405190815260200161028b565b6102c86102c336600461308a565b610969565b604051901515815260200161028b565b6102c86102e636600461300d565b610b43565b6102c86102f9366004613028565b610bf6565b6102c861030c36600461300d565b60066020525f908152604090205460ff1681565b6102c861032e3660046130c3565b610c35565b61025661034136600461300d565b610c79565b610256610cef565b61036161035c3660046130f1565b610d02565b6040805192835263ffffffff90911660208301520161028b565b60015461038e906001600160a01b031681565b60405161028b9190613126565b6102566103a936600461300d565b610ea9565b6102566103bc36600461317e565b610fe7565b6102a76103cf366004613028565b60096020525f908152604090205481565b600454600160281b900464ffffffffff166102a7565b61038e611159565b600b5461038e906001600160a01b031681565b6102c861041f36600461300d565b611187565b61044a61043236600461300d565b60076020525f908152604090205464ffffffffff1681565b60405164ffffffffff909116815260200161028b565b6102a760035481565b61027e610477366004613028565b6111a4565b6102c861048a3660046130c3565b61123a565b61025661049d36600461300d565b61127e565b6102a76104b0366004613028565b60086020525f908152604090205481565b6001546001600160a01b031661038e565b6102a76104e0366004613028565b5f9081526008602052604090205490565b6102566104ff36600461322e565b6112cf565b6102c8610512366004613028565b61142c565b5f5461038e906001600160a01b031681565b61025661053736600461300d565b61165f565b61025661054a366004613258565b6116d7565b6102a761055d366004613028565b61189a565b6102a76118cb565b610572601481565b60405160ff909116815260200161028b565b61025661059236600461300d565b6118dd565b6004546105b39064ffffffffff80821691600160281b90041682565b6040805164ffffffffff93841681529290911660208301520161028b565b6106146105df366004613028565b5f908152600a6020819052604090912090810154600590910154909163ffffffff80831692600160201b900416908284101590565b60405161028b949392919093845263ffffffff9283166020850152911660408301521515606082015260800190565b6102a760025481565b610654611159565b6001600160a01b0316336001600160a01b0316148061067d57506001546001600160a01b031633145b61069a57604051632864c4e160e01b815260040160405180910390fd5b6106a381611187565b81906106cc576040516381e5828960e01b81526004016106c39190613126565b60405180910390fd5b506001600160a01b0381165f9081526007602052604081205464ffffffffff16906106fa9060049083611917565b6001600160a01b0382165f908152600660205260408120805460ff1916905560028054916107278361328c565b90915550506002546004546040805164ffffffffff80861682526020820194909452600160281b909204909216918101919091526001600160a01b038316907f8c008e3835f6c79bfcdb89f0f6ca8705e0b01049ee84a90b0e4da1c7ba9405d5906060015b60405180910390a25050565b6107a0611bb9565b60038190556040518181527fbe772dc189863d512fa01e489c8eac204975aef1a8662d8b5a333804b5207ab79060200160405180910390a150565b5f818152600a602081905260408220600681015491810154606093919291816001600160401b03811115610811576108116132a1565b60405190808252806020026020018201604052801561083a578160200160208202803683370190505b5090505f805b84811015610911576001866009015f886006018481548110610864576108646132c9565b5f9182526020808320909101546001600160a01b0316835282019290925260400190205460ff16600281111561089c5761089c6132b5565b03610909578560060181815481106108b6576108b66132c9565b905f5260205f20015f9054906101000a90046001600160a01b03168383815181106108e3576108e36132c9565b6001600160a01b039092166020928302919091019091015281610905816132dd565b9250505b600101610840565b50909695505050505050565b5f818152600a6020526040812081815460ff166003811115610941576109416132b5565b0361095f57604051630d4c1d9760e41b815260040160405180910390fd5b6003015492915050565b5f80546001600160a01b031633146109945760405163e4c2a7eb60e01b815260040160405180910390fd5b5f848152600a6020526040812090815460ff1660038111156109b8576109b86132b5565b146109d6576040516374ff462560e11b815260040160405180910390fd5b60015460408051630cc37d8f60e11b815290515f926001600160a01b031691631986fb1e9160048083019260209291908290030181865afa158015610a1d573d5f5f3e3d5ffd5b505050506040513d601f19601f82011682018060405250810190610a4191906132f5565b905080610a54604086016020870161331f565b63ffffffff161115610a6c604086016020870161331f565b829091610a9a576040516344ec930f60e01b815263ffffffff909216600483015260248201526044016106c3565b5050815460ff1916600190811783558201859055436002830155600354610ac19042613338565b6003830155610ad560058301856002612f44565b50610ade6118cb565b5f87815260086020526040908190209190915560028301546003840154915188927f381d281d32f95ef8fe4e5f3b263ea6a32d03d331e1a141ae1da996dc02a7a17092610b2f928a928a929161334b565b60405180910390a250600195945050505050565b5f610b4d82611187565b610b5857505f919050565b6001546001600160a01b0316610b81576040516350ca893360e01b815260040160405180910390fd5b600154604051639f8a13d760e01b81526001600160a01b0390911690639f8a13d790610bb1908590600401613126565b602060405180830381865afa158015610bcc573d5f5f3e3d5ffd5b505050506040513d601f19601f82011682018060405250810190610bf0919061339b565b92915050565b5f818152600a602052604081206001815460ff166003811115610c1b57610c1b6132b5565b14610c2857505f92915050565b6003015442111592915050565b5f60015f848152600a602090815260408083206001600160a01b038716845260090190915290205460ff166002811115610c7157610c716132b5565b149392505050565b610c81611bb9565b6001600160a01b038116610ca85760405163d92e233d60e01b815260040160405180910390fd5b5f80546001600160a01b0319166001600160a01b038316908117825560405190917f2c8267accd82e977550ed2349c73311183cd22e306347be4453c8d130995e3c991a250565b610cf7611bb9565b610d005f611beb565b565b600b545f9081906001600160a01b03163314610d315760405163fcef374960e01b815260040160405180910390fd5b5f858152600a602052604090206002815460ff166003811115610d5657610d566132b5565b14610d7457604051634f4b461f60e11b815260040160405180910390fd5b60058101546001600160a01b0386165f90815260098301602052604090205463ffffffff909116925060019060ff166002811115610db457610db46132b5565b14610dc457600a01549150610ea1565b6001600160a01b0385165f9081526009820160205260408120805460ff19166002179055600a8201805491610df88361328c565b919050555080600a01549250846001600160a01b0316867f6c783b92374361b4d6efaf29673b89437ee969bb3c9d2d5d86b143ad5447b8498686604051610e49929190918252602082015260400190565b60405180910390a36040805184815263ffffffff84166020820181905285101591810182905287907f119cb11dd0a68c257d6dc9b06dcb37dd422ce276eb8bf3cd0b7079a116b8e2989060600160405180910390a250505b935093915050565b610eb1611159565b6001600160a01b0316336001600160a01b03161480610eda57506001546001600160a01b031633145b610ef757604051632864c4e160e01b815260040160405180910390fd5b610f0081611187565b610fe45760048054600160281b900464ffffffffff1690610f2a906001600160a01b038416611c5b565b6001600160a01b0382165f908152600660209081526040808320805460ff1916600117905560079091528120805464ffffffffff841664ffffffffff199091161790556002805491610f7b836132dd565b90915550506002546004546040805164ffffffffff80861682526020820194909452600160281b909204909216918101919091526001600160a01b038316907f3318d261fe14a5761d2d1e21555652f623d2134c430a9883c9ad6e958bb0db539060600161078c565b50565b610fef611bb9565b5f868152600a602052604090206002815460ff166003811115611014576110146132b5565b1461103257604051634f4b461f60e11b815260040160405180910390fd5b6004810154156110555760405163632a22bb60e01b815260040160405180910390fd5b6006810154851461109e5760405162461bcd60e51b815260206004820152601360248201527209cdec8ca40c6deeadce840dad2e6dac2e8c6d606b1b60448201526064016106c3565b60048181018390555f88815260096020526040808220859055905490516340a3b76160e11b8152918201899052602482018490526001600160a01b0316906381476ec2906044015f604051808303815f87803b1580156110fc575f5ffd5b505af115801561110e573d5f5f3e3d5ffd5b50505050867ff7472ea3a028fe8a86ab1c9a3e2176b284c8c3a22675c101e0fa21c140b6678d8787878760405161114894939291906133ba565b60405180910390a250505050505050565b7f9016d09d72d40fdae2fd8ceac6b6234c7706214fd39c1cd1e609a0528c199300546001600160a01b031690565b6001600160a01b03165f9081526006602052604090205460ff1690565b5f818152600a602052604090206004810154606091906111d7576040516322e679e360e11b815260040160405180910390fd5b8060060180548060200260200160405190810160405280929190818152602001828054801561122d57602002820191905f5260205f20905b81546001600160a01b0316815260019091019060200180831161120f575b5050505050915050919050565b5f805f848152600a602090815260408083206001600160a01b038716845260090190915290205460ff166002811115611275576112756132b5565b14159392505050565b611286611bb9565b6001600160a01b0381166112ad5760405163d92e233d60e01b815260040160405180910390fd5b600b80546001600160a01b0319166001600160a01b0392909216919091179055565b5f6112d8611e31565b805490915060ff600160401b82041615906001600160401b03165f811580156112fe5750825b90505f826001600160401b031660011480156113195750303b155b905081158015611327575080155b156113455760405163f92ee8a960e01b815260040160405180910390fd5b845467ffffffffffffffff19166001178555831561136f57845460ff60401b1916600160401b1785555b6001600160a01b0387166113965760405163d92e233d60e01b815260040160405180910390fd5b61139f33611e59565b6113ab60046014611e6a565b6113b486610798565b6113bc611159565b6001600160a01b0316876001600160a01b0316146113dd576113dd876118dd565b831561142357845460ff60401b19168555604051600181527fc7f505b2f371ae2175ee4913f4499e1f2633a7b5936321eed1cdaeb6115181d29060200160405180910390a15b50505050505050565b5f818152600a6020526040812081815460ff166003811115611450576114506132b5565b0361146e57604051630d4c1d9760e41b815260040160405180910390fd5b6001815460ff166003811115611486576114866132b5565b146114a457604051631860f69960e31b815260040160405180910390fd5b806003015442116114c857604051632f021e8d60e11b815260040160405180910390fd5b60058101546006820154600160201b90910463ffffffff161115806115ad578154600360ff199091161782556006820154600583015460408051928352600160201b90910463ffffffff16602083015285917fecc4a9fb7e28d074cba7f5b227e9b5827823c850a385539b9a2f98a08f8c203d910160405180910390a25f54604051635d968dc160e11b815260048101869052600260248201526001600160a01b039091169063bb2d1b82906044015f604051808303815f87803b15801561158e575f5ffd5b505af11580156115a0573d5f5f3e3d5ffd5b505f979650505050505050565b815460ff191660021782556006820154600a8301555f54604051631f3ea75d60e21b8152600481018690526001600160a01b0390911690637cfa9d74906024015f604051808303815f87803b158015611604575f5ffd5b505af1158015611616573d5f5f3e3d5ffd5b50505050837fed38c6266ebed7c01d311349a7fa67e0ef0f1d2f4760d60dbb34ca4799a2e1328360060160405161164d9190613431565b60405180910390a25060019392505050565b611667611bb9565b6001600160a01b03811661168e5760405163d92e233d60e01b815260040160405180910390fd5b600180546001600160a01b0319166001600160a01b0383169081179091556040517fad4055f18cdad6f4bdd71afe3a72cbeee964217943e1bde38f138289e981a9a7905f90a250565b5f828152600a6020526040812090815460ff1660038111156116fb576116fb6132b5565b0361171957604051630d4c1d9760e41b815260040160405180910390fd5b6001815460ff166003811115611731576117316132b5565b1461174f57604051631860f69960e31b815260040160405180910390fd5b806003015442111561177457604051639a19114d60e01b815260040160405180910390fd5b335f90815260078201602052604090205460ff16156117a65760405163257309f160e11b815260040160405180910390fd5b6117af33610b43565b6117cc5760405163149fbcfd60e11b815260040160405180910390fd5b6117d7338385611ee9565b6001810154604080516bffffffffffffffffffffffff193360601b16602080830191909152603482018690526054820187905260748083019490945282518083039094018452609490910190915281519101205f90335f8181526007850160205260409020805460ff19166001179055909150611856908390836120ba565b506040805184815260208101839052339186917f52999628fb1cb05707e842278833b22e511f11746202cecdf221968b0b89e8bd910160405180910390a350505050565b5f81815260096020526040902054806118c6576040516322e679e360e11b815260040160405180910390fd5b919050565b5f6118d8600460146122bb565b905090565b6118e5611bb9565b6001600160a01b03811661190e575f604051631e4fbdf760e01b81526004016106c39190613126565b610fe481611beb565b7f30644e72e131a029b85045b68181585d2833e84879b9709143e1f593f000000182106119565760405162461bcd60e51b81526004016106c390613474565b825464ffffffffff600160281b909104811690821681116119b45760405162461bcd60e51b815260206004820152601860248201527713185e9e5253550e881b195859881b5d5cdd08195e1a5cdd60421b60448201526064016106c3565b825f5b81866001015f6119c784886123b4565b64ffffffffff1681526020019081526020015f20819055505f8160016119ed91906134be565b60ff168464ffffffffff16901c64ffffffffff16905060018564ffffffffff16901c64ffffffffff168111611a225750611bb1565b600185165f03611ae9575f611a4183611a3c8860016134d7565b6123b4565b60408051808201825286815264ffffffffff83165f90815260018c0160209081529083902054908201529051632b0aac7f60e11b815291925073__$078c82ddf6c95d34ea184ef1dd6130d136$__9163561558fe91611aa2916004016134f4565b602060405180830381865af4158015611abd573d5f5f3e3d5ffd5b505050506040513d601f19601f82011682018060405250810190611ae191906132f5565b935050611b9d565b5f611af983611a3c600189613524565b60408051808201825264ffffffffff83165f90815260018c0160209081529083902054825281018790529051632b0aac7f60e11b815291925073__$078c82ddf6c95d34ea184ef1dd6130d136$__9163561558fe91611b5a916004016134f4565b602060405180830381865af4158015611b75573d5f5f3e3d5ffd5b505050506040513d601f19601f82011682018060405250810190611b9991906132f5565b9350505b50647fffffffff600194851c1693016119b7565b505050505050565b33611bc2611159565b6001600160a01b031614610d00573360405163118cdaa760e01b81526004016106c39190613126565b7f9016d09d72d40fdae2fd8ceac6b6234c7706214fd39c1cd1e609a0528c19930080546001600160a01b031981166001600160a01b03848116918217845560405192169182907f8be0079c531659141344cd1fd0a4f28419497f9722a3daafe3b4186f6b6457e0905f90a3505050565b8154600160281b900464ffffffffff167f30644e72e131a029b85045b68181585d2833e84879b9709143e1f593f00000018210611caa5760405162461bcd60e51b81526004016106c390613474565b825464ffffffffff90811690821610611cfd5760405162461bcd60e51b815260206004820152601560248201527413185e9e5253550e881d1c9959481a5cc8199d5b1b605a1b60448201526064016106c3565b611d088160016134d7565b835464ffffffffff91909116600160281b0269ffffffffff000000000019909116178355815f5b81856001015f611d3f84876123b4565b64ffffffffff16815260208101919091526040015f20556001831615611e2a575f611d6f82611a3c600187613524565b60408051808201825264ffffffffff83165f90815260018a0160209081529083902054825281018690529051632b0aac7f60e11b815291925073__$078c82ddf6c95d34ea184ef1dd6130d136$__9163561558fe91611dd0916004016134f4565b602060405180830381865af4158015611deb573d5f5f3e3d5ffd5b505050506040513d601f19601f82011682018060405250810190611e0f91906132f5565b647fffffffff600195861c1694909350919091019050611d2f565b5050505050565b5f807ff0c57e16840df040f15088dc2f81fe391c3923bec73e23a9662efc9c229c6a00610bf0565b611e616123d1565b610fe4816123f6565b602060ff82161115611eb85760405162461bcd60e51b81526020600482015260176024820152764c617a79494d543a205472656520746f6f206c6172676560481b60448201526064016106c3565b611ec9600160ff831681901b613541565b825469ffffffffffffffffffff191664ffffffffff919091161790915550565b5f8211611f095760405163aeaddff160e01b815260040160405180910390fd5b6001546001600160a01b0316611f32576040516350ca893360e01b815260040160405180910390fd5b5f818152600a602052604081206001805460028301549293926001600160a01b039091169163bb03bd71918891611f6891613541565b6040516001600160e01b031960e085901b1681526001600160a01b0390921660048301526024820152604401602060405180830381865afa158015611faf573d5f5f3e3d5ffd5b505050506040513d601f19601f82011682018060405250810190611fd391906132f5565b90505f60015f9054906101000a90046001600160a01b03166001600160a01b0316631209b1f66040518163ffffffff1660e01b8152600401602060405180830381865afa158015612026573d5f5f3e3d5ffd5b505050506040513d601f19601f8201168201806040525081019061204a91906132f5565b90505f811161206c5760405163aeaddff160e01b815260040160405180910390fd5b5f6120778284613554565b90505f81116120995760405163149fbcfd60e11b815260040160405180910390fd5b808611156114235760405163aeaddff160e01b815260040160405180910390fd5b60058301546006840180545f92600160201b900463ffffffff169081111561213857508054600180820183555f928352602080842090920180546001600160a01b0319166001600160a01b03881690811790915583526008870182526040808420869055600988019092529120805460ff19168217905590506122b4565b5f5f90505f876008015f855f81548110612154576121546132c9565b5f9182526020808320909101546001600160a01b03168352820192909252604001902054905060015b84548110156121dc575f896008015f87848154811061219e5761219e6132c9565b5f9182526020808320909101546001600160a01b031683528201929092526040019020549050828111156121d3578092508193505b5060010161217d565b508086106121f0575f9450505050506122b4565b5f886009015f868581548110612208576122086132c9565b5f9182526020808320909101546001600160a01b031683528201929092526040019020805460ff19166001836002811115612245576122456132b5565b02179055508684838154811061225d5761225d6132c9565b5f91825260208083209190910180546001600160a01b0319166001600160a01b03948516179055918916815260088a018252604080822089905560098b0190925220805460ff191660019081179091559450505050505b9392505050565b5f5f8260ff161161230e5760405162461bcd60e51b815260206004820152601a60248201527f4c617a79494d543a206465707468206d757374206265203e203000000000000060448201526064016106c3565b602060ff831611156123325760405162461bcd60e51b81526004016106c390613573565b8254600160281b900464ffffffffff168061235160ff851660026136c4565b64ffffffffff1610156123a15760405162461bcd60e51b8152602060048201526018602482015277098c2f4f2929aa87440c2dac4d2ceeadeeae640c8cae0e8d60431b60448201526064016106c3565b6123ac8482856123fe565b949350505050565b5f816123c760ff851663ffffffff6136dd565b6122b491906134d7565b6123d96124c6565b610d0057604051631afcd79f60e31b815260040160405180910390fd5b6118e56123d1565b5f602060ff831611156124235760405162461bcd60e51b81526004016106c390613573565b8264ffffffffff165f036124415761243a826124df565b90506122b4565b5f61244d8360016134be565b60ff166001600160401b03811115612467576124676132a1565b604051908082528060200260200182016040528015612490578160200160208202803683370190505b50905061249f85858584612b79565b808360ff16815181106124b4576124b46132c9565b60200260200101519150509392505050565b5f6124cf611e31565b54600160401b900460ff16919050565b5f8160ff165f036124f157505f919050565b8160ff1660010361252357507f2098f5fb9e239eab3ceac3f27b81e481dc3124d55ffed523a839ee8446b64864919050565b8160ff1660020361255557507f1069673dcdb12263df301a6ff584a7ec261a44cb9dc68df067a4774460b1f1e1919050565b8160ff1660030361258757507f18f43331537ee2af2e3d758d50f72106467c6eea50371dd528d57eb2b856d238919050565b8160ff166004036125b957507f07f9d837cb17b0d36320ffe93ba52345f1b728571a568265caac97559dbc952a919050565b8160ff166005036125eb57507f2b94cf5e8746b3f5c9631f4c5df32907a699c58c94b2ad4d7b5cec1639183f55919050565b8160ff1660060361261d57507f2dee93c5a666459646ea7d22cca9e1bcfed71e6951b953611d11dda32ea09d78919050565b8160ff1660070361264f57507f078295e5a22b84e982cf601eb639597b8b0515a88cb5ac7fa8a4aabe3c87349d919050565b8160ff1660080361268157507f2fa5e5f18f6027a6501bec864564472a616b2e274a41211a444cbe3a99f3cc61919050565b8160ff166009036126b357507f0e884376d0d8fd21ecb780389e941f66e45e7acce3e228ab3e2156a614fcd747919050565b8160ff16600a036126e557507f1b7201da72494f1e28717ad1a52eb469f95892f957713533de6175e5da190af2919050565b8160ff16600b0361271757507f1f8d8822725e36385200c0b201249819a6e6e1e4650808b5bebc6bface7d7636919050565b8160ff16600c0361274957507f2c5d82f66c914bafb9701589ba8cfcfb6162b0a12acf88a8d0879a0471b5f85a919050565b8160ff16600d0361277b57507f14c54148a0940bb820957f5adf3fa1134ef5c4aaa113f4646458f270e0bfbfd0919050565b8160ff16600e036127ad57507f190d33b12f986f961e10c0ee44d8b9af11be25588cad89d416118e4bf4ebe80c919050565b8160ff16600f036127df57507f22f98aa9ce704152ac17354914ad73ed1167ae6596af510aa5b3649325e06c92919050565b8160ff1660100361281157507f2a7c7c9b6ce5880b9f6f228d72bf6a575a526f29c66ecceef8b753d38bba7323919050565b8160ff1660110361284357507f2e8186e558698ec1c67af9c14d463ffc470043c9c2988b954d75dd643f36b992919050565b8160ff1660120361287557507f0f57c5571e9a4eab49e2c8cf050dae948aef6ead647392273546249d1c1ff10f919050565b8160ff166013036128a757507f1830ee67b5fb554ad5f63d4388800e1cfe78e310697d46e43c9ce36134f72cca919050565b8160ff166014036128d957507f2134e76ac5d21aab186c2be1dd8f84ee880a1e46eaf712f9d371b6df22191f3e919050565b8160ff1660150361290b57507f19df90ec844ebc4ffeebd866f33859b0c051d8c958ee3aa88f8f8df3db91a5b1919050565b8160ff1660160361293d57507f18cca2a66b5c0787981e69aefd84852d74af0e93ef4912b4648c05f722efe52b919050565b8160ff1660170361296f57507f2388909415230d1b4d1304d2d54f473a628338f2efad83fadf05644549d2538d919050565b8160ff166018036129a157507f27171fb4a97b6cc0e9e8f543b5294de866a2af2c9c8d0b1d96e673e4529ed540919050565b8160ff166019036129d357507f2ff6650540f629fd5711a0bc74fc0d28dcb230b9392583e5f8d59696dde6ae21919050565b8160ff16601a03612a0557507f120c58f143d491e95902f7f5277778a2e0ad5168f6add75669932630ce611518919050565b8160ff16601b03612a3757507f1f21feb70d3f21b07bf853d5e5db03071ec495a0a565a21da2d665d279483795919050565b8160ff16601c03612a6957507f24be905fa71335e14c638cc0f66a8623a826e768068a9e968bb1a1dde18a72d2919050565b8160ff16601d03612a9b57507f0f8666b62ed17491c50ceadead57d4cd597ef3821d65c328744c74e553dac26d919050565b8160ff16601e03612acd57507f0918d46bf52d98b034413f4a1a1c41594e7a7a3f6ae08cb43d1a2a230e1959ef919050565b8160ff16601f03612aff57507f1bbeb01b4c479ecde76917645e404dfa2e26f90d0afc5a65128513ad375c5ff2919050565b8160ff16602003612b3157507f2f68a1c58e257e42a17a6c61dff5551ed560b9922ab119d5ac8e184c9734ead9919050565b60405162461bcd60e51b815260206004820152601e60248201527f4c617a79494d543a2064656661756c745a65726f2062616420696e646578000060448201526064016106c3565b602060ff83161115612b9d5760405162461bcd60e51b81526004016106c390613573565b5f8364ffffffffff1611612c015760405162461bcd60e51b815260206004820152602560248201527f4c617a79494d543a206e756d626572206f66206c6561766573206d7573742062604482015264065203e20360dc1b60648201526084016106c3565b5f612c0d600185613524565b9050600181165f03612c6057846001015f612c285f846123b4565b64ffffffffff1681526020019081526020015f2054825f81518110612c4f57612c4f6132c9565b602002602001018181525050612c88565b612c695f6124df565b825f81518110612c7b57612c7b6132c9565b6020026020010181815250505b5f5b8360ff168160ff161015611bb157600182165f03612d805773__$078c82ddf6c95d34ea184ef1dd6130d136$__63561558fe6040518060400160405280868560ff1681518110612cdc57612cdc6132c9565b60200260200101518152602001612cf2856124df565b8152506040518263ffffffff1660e01b8152600401612d1191906134f4565b602060405180830381865af4158015612d2c573d5f5f3e3d5ffd5b505050506040513d601f19601f82011682018060405250810190612d5091906132f5565b83612d5c8360016134be565b60ff1681518110612d6f57612d6f6132c9565b602002602001018181525050612f31565b5f612d8c8260016134be565b60ff168664ffffffffff16901c64ffffffffff16905060018364ffffffffff16901c64ffffffffff16811115612e2e575f876001015f612de3856001612dd291906134be565b60018864ffffffffff16901c6123b4565b64ffffffffff1681526020019081526020015f205490508085846001612e0991906134be565b60ff1681518110612e1c57612e1c6132c9565b60200260200101818152505050612f2f565b5f876001015f612e4585600188611a3c9190613524565b64ffffffffff1681526020019081526020015f2054905073__$078c82ddf6c95d34ea184ef1dd6130d136$__63561558fe6040518060400160405280848152602001888760ff1681518110612e9c57612e9c6132c9565b60200260200101518152506040518263ffffffff1660e01b8152600401612ec391906134f4565b602060405180830381865af4158015612ede573d5f5f3e3d5ffd5b505050506040513d601f19601f82011682018060405250810190612f0291906132f5565b85612f0e8560016134be565b60ff1681518110612f2157612f216132c9565b602002602001018181525050505b505b647fffffffff600192831c169101612c8a565b600183019183908215612fd5579160200282015f5b83821115612fa357833563ffffffff1683826101000a81548163ffffffff021916908363ffffffff1602179055509260200192600401602081600301049283019260010302612f59565b8015612fd35782816101000a81549063ffffffff0219169055600401602081600301049283019260010302612fa3565b505b50612fe1929150612fe5565b5090565b5b80821115612fe1575f8155600101612fe6565b6001600160a01b0381168114610fe4575f5ffd5b5f6020828403121561301d575f5ffd5b81356122b481612ff9565b5f60208284031215613038575f5ffd5b5035919050565b602080825282518282018190525f918401906040840190835b8181101561307f5783516001600160a01b0316835260209384019390920191600101613058565b509095945050505050565b5f5f5f6080848603121561309c575f5ffd5b8335925060208401359150608084018510156130b6575f5ffd5b6040840190509250925092565b5f5f604083850312156130d4575f5ffd5b8235915060208301356130e681612ff9565b809150509250929050565b5f5f5f60608486031215613103575f5ffd5b83359250602084013561311581612ff9565b929592945050506040919091013590565b6001600160a01b0391909116815260200190565b5f5f83601f84011261314a575f5ffd5b5081356001600160401b03811115613160575f5ffd5b602083019150836020828501011115613177575f5ffd5b9250929050565b5f5f5f5f5f5f60808789031215613193575f5ffd5b8635955060208701356001600160401b038111156131af575f5ffd5b8701601f810189136131bf575f5ffd5b80356001600160401b038111156131d4575f5ffd5b8960208260051b84010111156131e8575f5ffd5b6020919091019550935060408701356001600160401b0381111561320a575f5ffd5b61321689828a0161313a565b979a9699509497949695606090950135949350505050565b5f5f6040838503121561323f575f5ffd5b823561324a81612ff9565b946020939093013593505050565b5f5f60408385031215613269575f5ffd5b50508035926020909101359150565b634e487b7160e01b5f52601160045260245ffd5b5f8161329a5761329a613278565b505f190190565b634e487b7160e01b5f52604160045260245ffd5b634e487b7160e01b5f52602160045260245ffd5b634e487b7160e01b5f52603260045260245ffd5b5f600182016132ee576132ee613278565b5060010190565b5f60208284031215613305575f5ffd5b5051919050565b803563ffffffff811681146118c6575f5ffd5b5f6020828403121561332f575f5ffd5b6122b48261330c565b80820180821115610bf057610bf0613278565b84815260a0810160208201855f5b60028110156133865763ffffffff6133708361330c565b1683526020928301929190910190600101613359565b50505060608201939093526080015292915050565b5f602082840312156133ab575f5ffd5b815180151581146122b4575f5ffd5b604080825281018490525f8560608301825b878110156133fc5782356133df81612ff9565b6001600160a01b03168252602092830192909101906001016133cc565b508381036020850152848152848660208301375f602086830101526020601f19601f8701168201019250505095945050505050565b602080825282548282018190525f848152918220906040840190835b8181101561307f5783546001600160a01b031683526001938401936020909301920161344d565b6020808252602a908201527f4c617a79494d543a206c656166206d757374206265203c20534e41524b5f53436040820152691053105497d19251531160b21b606082015260800190565b60ff8181168382160190811115610bf057610bf0613278565b64ffffffffff8181168382160190811115610bf057610bf0613278565b6040810181835f5b600281101561351b5781518352602092830192909101906001016134fc565b50505092915050565b64ffffffffff8281168282160390811115610bf057610bf0613278565b81810381811115610bf057610bf0613278565b5f8261356e57634e487b7160e01b5f52601260045260245ffd5b500490565b60208082526023908201527f4c617a79494d543a206465707468206d757374206265203c3d204d41585f44456040820152620a0a8960eb1b606082015260800190565b6001815b6001841115610ea1578085048111156135d5576135d5613278565b60018416156135e357908102905b60019390931c9280026135ba565b5f826135ff57506001610bf0565b8161360b57505f610bf0565b8160018114613621576002811461362b5761365d565b6001915050610bf0565b60ff84111561363c5761363c613278565b6001841b915064ffffffffff82111561365757613657613278565b50610bf0565b5060208310610133831016604e8410600b8410161715613695575081810a64ffffffffff81111561369057613690613278565b610bf0565b6136a564ffffffffff84846135b6565b8064ffffffffff048211156136bc576136bc613278565b029392505050565b5f6122b464ffffffffff841664ffffffffff84166135f1565b64ffffffffff81811683821602908116908181146136fd576136fd613278565b509291505056fea164736f6c634300081c000a",
  "linkReferences": {
    "npm/poseidon-solidity@0.0.5/PoseidonT3.sol": {
      "PoseidonT3": [
        {
          "length": 20,
          "start": 6994
        },
        {
          "length": 20,
          "start": 7178
        },
        {
          "length": 20,
          "start": 7808
        },
        {
          "length": 20,
          "start": 11642
        },
        {
          "length": 20,
          "start": 12084
        }
      ]
    }
  },
  "deployedLinkReferences": {
    "npm/poseidon-solidity@0.0.5/PoseidonT3.sol": {
      "PoseidonT3": [
        {
          "length": 20,
          "start": 6780
        },
        {
          "length": 20,
          "start": 6964
        },
        {
          "length": 20,
          "start": 7594
        },
        {
          "length": 20,
          "start": 11428
        },
        {
          "length": 20,
          "start": 11870
        }
      ]
    }
  },
  "immutableReferences": {},
  "inputSourceName": "project/contracts/registry/CiphernodeRegistryOwnable.sol",
  "buildInfoId": "solc-0_8_28-69c949b7ddb3f16519fd68579dabe246a9022d23"
}