{
  "_format": "hh3-artifact-1",
  "contractName": "CiphernodeRegistryOwnable",
  "sourceName": "contracts/registry/CiphernodeRegistryOwnable.sol",
  "abi": [
    {
      "inputs": [],
      "stateMutability": "nonpayable",
      "type": "constructor"
    },
    {
      "inputs": [],
      "name": "BondingRegistryNotSet",
      "type": "error"
    },
    {
      "inputs": [
        {
          "internalType": "address",
          "name": "node",
          "type": "address"
        }
      ],
      "name": "CiphernodeNotEnabled",
      "type": "error"
    },
    {
      "inputs": [],
      "name": "CommitteeAlreadyFinalized",
      "type": "error"
    },
    {
      "inputs": [],
      "name": "CommitteeAlreadyPublished",
      "type": "error"
    },
    {
      "inputs": [],
      "name": "CommitteeAlreadyRequested",
      "type": "error"
    },
    {
      "inputs": [],
      "name": "CommitteeDeadlineReached",
      "type": "error"
    },
    {
      "inputs": [],
      "name": "CommitteeNotFinalized",
      "type": "error"
    },
    {
      "inputs": [],
      "name": "CommitteeNotInitializedOrFinalized",
      "type": "error"
    },
    {
      "inputs": [],
      "name": "CommitteeNotPublished",
      "type": "error"
    },
    {
      "inputs": [],
      "name": "CommitteeNotRequested",
      "type": "error"
    },
    {
      "inputs": [
        {
          "internalType": "uint256",
          "name": "requested",
          "type": "uint256"
        },
        {
          "internalType": "uint256",
          "name": "available",
          "type": "uint256"
        }
      ],
      "name": "InsufficientCiphernodes",
      "type": "error"
    },
    {
      "inputs": [],
      "name": "InvalidInitialization",
      "type": "error"
    },
    {
      "inputs": [],
      "name": "InvalidTicketNumber",
      "type": "error"
    },
    {
      "inputs": [],
      "name": "NodeAlreadySubmitted",
      "type": "error"
    },
    {
      "inputs": [
        {
          "internalType": "address",
          "name": "node",
          "type": "address"
        }
      ],
      "name": "NodeNotBonded",
      "type": "error"
    },
    {
      "inputs": [],
      "name": "NodeNotEligible",
      "type": "error"
    },
    {
      "inputs": [],
      "name": "NodeNotSubmitted",
      "type": "error"
    },
    {
      "inputs": [],
      "name": "NotInitializing",
      "type": "error"
    },
    {
      "inputs": [],
      "name": "NotOwnerOrBondingRegistry",
      "type": "error"
    },
    {
      "inputs": [],
      "name": "NotSlashingManager",
      "type": "error"
    },
    {
      "inputs": [],
      "name": "OnlyBondingRegistry",
      "type": "error"
    },
    {
      "inputs": [],
      "name": "OnlyEnclave",
      "type": "error"
    },
    {
      "inputs": [
        {
          "internalType": "address",
          "name": "owner",
          "type": "address"
        }
      ],
      "name": "OwnableInvalidOwner",
      "type": "error"
    },
    {
      "inputs": [
        {
          "internalType": "address",
          "name": "account",
          "type": "address"
        }
      ],
      "name": "OwnableUnauthorizedAccount",
      "type": "error"
    },
    {
      "inputs": [],
      "name": "SubmissionWindowClosed",
      "type": "error"
    },
    {
      "inputs": [],
      "name": "SubmissionWindowNotClosed",
      "type": "error"
    },
    {
      "inputs": [],
      "name": "ThresholdNotMet",
      "type": "error"
    },
    {
      "inputs": [],
      "name": "Unauthorized",
      "type": "error"
    },
    {
      "inputs": [],
      "name": "ZeroAddress",
      "type": "error"
    },
    {
      "anonymous": false,
      "inputs": [
        {
          "indexed": true,
          "internalType": "address",
          "name": "bondingRegistry",
          "type": "address"
        }
      ],
      "name": "BondingRegistrySet",
      "type": "event"
    },
    {
      "anonymous": false,
      "inputs": [
        {
          "indexed": true,
          "internalType": "address",
          "name": "node",
          "type": "address"
        },
        {
          "indexed": false,
          "internalType": "uint256",
          "name": "index",
          "type": "uint256"
        },
        {
          "indexed": false,
          "internalType": "uint256",
          "name": "numNodes",
          "type": "uint256"
        },
        {
          "indexed": false,
          "internalType": "uint256",
          "name": "size",
          "type": "uint256"
        }
      ],
      "name": "CiphernodeAdded",
      "type": "event"
    },
    {
      "anonymous": false,
      "inputs": [
        {
          "indexed": true,
          "internalType": "address",
          "name": "node",
          "type": "address"
        },
        {
          "indexed": false,
          "internalType": "uint256",
          "name": "index",
          "type": "uint256"
        },
        {
          "indexed": false,
          "internalType": "uint256",
          "name": "numNodes",
          "type": "uint256"
        },
        {
          "indexed": false,
          "internalType": "uint256",
          "name": "size",
          "type": "uint256"
        }
      ],
      "name": "CiphernodeRemoved",
      "type": "event"
    },
    {
      "anonymous": false,
      "inputs": [
        {
          "indexed": true,
          "internalType": "uint256",
          "name": "e3Id",
          "type": "uint256"
        },
        {
          "indexed": false,
          "internalType": "bool",
          "name": "active",
          "type": "bool"
        }
      ],
      "name": "CommitteeActivationChanged",
      "type": "event"
    },
    {
      "anonymous": false,
      "inputs": [
        {
          "indexed": true,
          "internalType": "uint256",
          "name": "e3Id",
          "type": "uint256"
        },
        {
          "indexed": false,
          "internalType": "address[]",
          "name": "committee",
          "type": "address[]"
        },
        {
          "indexed": false,
          "internalType": "uint256[]",
          "name": "scores",
          "type": "uint256[]"
        }
      ],
      "name": "CommitteeFinalized",
      "type": "event"
    },
    {
      "anonymous": false,
      "inputs": [
        {
          "indexed": true,
          "internalType": "uint256",
          "name": "e3Id",
          "type": "uint256"
        },
        {
          "indexed": false,
          "internalType": "uint256",
          "name": "nodesSubmitted",
          "type": "uint256"
        },
        {
          "indexed": false,
          "internalType": "uint256",
          "name": "thresholdRequired",
          "type": "uint256"
        }
      ],
      "name": "CommitteeFormationFailed",
      "type": "event"
    },
    {
      "anonymous": false,
      "inputs": [
        {
          "indexed": true,
          "internalType": "uint256",
          "name": "e3Id",
          "type": "uint256"
        },
        {
          "indexed": true,
          "internalType": "address",
          "name": "node",
          "type": "address"
        },
        {
          "indexed": false,
          "internalType": "bytes32",
          "name": "reason",
          "type": "bytes32"
        },
        {
          "indexed": false,
          "internalType": "uint256",
          "name": "activeCountAfter",
          "type": "uint256"
        }
      ],
      "name": "CommitteeMemberExpelled",
      "type": "event"
    },
    {
      "anonymous": false,
      "inputs": [
        {
          "indexed": true,
          "internalType": "uint256",
          "name": "e3Id",
          "type": "uint256"
        },
        {
          "indexed": false,
          "internalType": "address[]",
          "name": "nodes",
          "type": "address[]"
        },
        {
          "indexed": false,
          "internalType": "bytes",
          "name": "publicKey",
          "type": "bytes"
        },
        {
          "indexed": false,
          "internalType": "bytes",
          "name": "proof",
          "type": "bytes"
        }
      ],
      "name": "CommitteePublished",
      "type": "event"
    },
    {
      "anonymous": false,
      "inputs": [
        {
          "indexed": true,
          "internalType": "uint256",
          "name": "e3Id",
          "type": "uint256"
        },
        {
          "indexed": false,
          "internalType": "uint256",
          "name": "seed",
          "type": "uint256"
        },
        {
          "indexed": false,
          "internalType": "uint32[2]",
          "name": "threshold",
          "type": "uint32[2]"
        },
        {
          "indexed": false,
          "internalType": "uint256",
          "name": "requestBlock",
          "type": "uint256"
        },
        {
          "indexed": false,
          "internalType": "uint256",
          "name": "committeeDeadline",
          "type": "uint256"
        }
      ],
      "name": "CommitteeRequested",
      "type": "event"
    },
    {
      "anonymous": false,
      "inputs": [
        {
          "indexed": true,
          "internalType": "uint256",
          "name": "e3Id",
          "type": "uint256"
        },
        {
          "indexed": false,
          "internalType": "uint256",
          "name": "activeCount",
          "type": "uint256"
        },
        {
          "indexed": false,
          "internalType": "uint256",
          "name": "thresholdM",
          "type": "uint256"
        },
        {
          "indexed": false,
          "internalType": "bool",
          "name": "viable",
          "type": "bool"
        }
      ],
      "name": "CommitteeViabilityUpdated",
      "type": "event"
    },
    {
      "anonymous": false,
      "inputs": [
        {
          "indexed": true,
          "internalType": "address",
          "name": "enclave",
          "type": "address"
        }
      ],
      "name": "EnclaveSet",
      "type": "event"
    },
    {
      "anonymous": false,
      "inputs": [
        {
          "indexed": false,
          "internalType": "uint64",
          "name": "version",
          "type": "uint64"
        }
      ],
      "name": "Initialized",
      "type": "event"
    },
    {
      "anonymous": false,
      "inputs": [
        {
          "indexed": true,
          "internalType": "address",
          "name": "previousOwner",
          "type": "address"
        },
        {
          "indexed": true,
          "internalType": "address",
          "name": "newOwner",
          "type": "address"
        }
      ],
      "name": "OwnershipTransferred",
      "type": "event"
    },
    {
      "anonymous": false,
      "inputs": [
        {
          "indexed": false,
          "internalType": "uint256",
          "name": "sortitionSubmissionWindow",
          "type": "uint256"
        }
      ],
      "name": "SortitionSubmissionWindowSet",
      "type": "event"
    },
    {
      "anonymous": false,
      "inputs": [
        {
          "indexed": true,
          "internalType": "uint256",
          "name": "e3Id",
          "type": "uint256"
        },
        {
          "indexed": true,
          "internalType": "address",
          "name": "node",
          "type": "address"
        },
        {
          "indexed": false,
          "internalType": "uint256",
          "name": "ticketId",
          "type": "uint256"
        },
        {
          "indexed": false,
          "internalType": "uint256",
          "name": "score",
          "type": "uint256"
        }
      ],
      "name": "TicketSubmitted",
      "type": "event"
    },
    {
      "inputs": [],
      "name": "TREE_DEPTH",
      "outputs": [
        {
          "internalType": "uint8",
          "name": "",
          "type": "uint8"
        }
      ],
      "stateMutability": "view",
      "type": "function"
    },
    {
      "inputs": [
        {
          "internalType": "address",
          "name": "node",
          "type": "address"
        }
      ],
      "name": "addCiphernode",
      "outputs": [],
      "stateMutability": "nonpayable",
      "type": "function"
    },
    {
      "inputs": [],
      "name": "bondingRegistry",
      "outputs": [
        {
          "internalType": "contract IBondingRegistry",
          "name": "",
          "type": "address"
        }
      ],
      "stateMutability": "view",
      "type": "function"
    },
    {
      "inputs": [
        {
          "internalType": "address",
          "name": "node",
          "type": "address"
        }
      ],
      "name": "ciphernodeEnabled",
      "outputs": [
        {
          "internalType": "bool",
          "name": "enabled",
          "type": "bool"
        }
      ],
      "stateMutability": "view",
      "type": "function"
    },
    {
      "inputs": [
        {
          "internalType": "address",
          "name": "node",
          "type": "address"
        }
      ],
      "name": "ciphernodeTreeIndex",
      "outputs": [
        {
          "internalType": "uint40",
          "name": "index",
          "type": "uint40"
        }
      ],
      "stateMutability": "view",
      "type": "function"
    },
    {
      "inputs": [],
      "name": "ciphernodes",
      "outputs": [
        {
          "internalType": "uint40",
          "name": "maxIndex",
          "type": "uint40"
        },
        {
          "internalType": "uint40",
          "name": "numberOfLeaves",
          "type": "uint40"
        }
      ],
      "stateMutability": "view",
      "type": "function"
    },
    {
      "inputs": [
        {
          "internalType": "uint256",
          "name": "e3Id",
          "type": "uint256"
        }
      ],
      "name": "committeePublicKey",
      "outputs": [
        {
          "internalType": "bytes32",
          "name": "publicKeyHash",
          "type": "bytes32"
        }
      ],
      "stateMutability": "view",
      "type": "function"
    },
    {
      "inputs": [],
      "name": "enclave",
      "outputs": [
        {
          "internalType": "contract IEnclave",
          "name": "",
          "type": "address"
        }
      ],
      "stateMutability": "view",
      "type": "function"
    },
    {
      "inputs": [
        {
          "internalType": "uint256",
          "name": "e3Id",
          "type": "uint256"
        },
        {
          "internalType": "address",
          "name": "node",
          "type": "address"
        },
        {
          "internalType": "bytes32",
          "name": "reason",
          "type": "bytes32"
        }
      ],
      "name": "expelCommitteeMember",
      "outputs": [
        {
          "internalType": "uint256",
          "name": "activeCount",
          "type": "uint256"
        },
        {
          "internalType": "uint32",
          "name": "thresholdM",
          "type": "uint32"
        }
      ],
      "stateMutability": "nonpayable",
      "type": "function"
    },
    {
      "inputs": [
        {
          "internalType": "uint256",
          "name": "e3Id",
          "type": "uint256"
        }
      ],
      "name": "finalizeCommittee",
      "outputs": [
        {
          "internalType": "bool",
          "name": "success",
          "type": "bool"
        }
      ],
      "stateMutability": "nonpayable",
      "type": "function"
    },
    {
      "inputs": [
        {
          "internalType": "uint256",
          "name": "e3Id",
          "type": "uint256"
        }
      ],
      "name": "getActiveCommitteeNodes",
      "outputs": [
        {
          "internalType": "address[]",
          "name": "nodes",
          "type": "address[]"
        },
        {
          "internalType": "uint256[]",
          "name": "scores",
          "type": "uint256[]"
        }
      ],
      "stateMutability": "view",
      "type": "function"
    },
    {
      "inputs": [],
      "name": "getBondingRegistry",
      "outputs": [
        {
          "internalType": "address",
          "name": "",
          "type": "address"
        }
      ],
      "stateMutability": "view",
      "type": "function"
    },
    {
      "inputs": [
        {
          "internalType": "uint256",
          "name": "e3Id",
          "type": "uint256"
        }
      ],
      "name": "getCommitteeDeadline",
      "outputs": [
        {
          "internalType": "uint256",
          "name": "",
          "type": "uint256"
        }
      ],
      "stateMutability": "view",
      "type": "function"
    },
    {
      "inputs": [
        {
          "internalType": "uint256",
          "name": "e3Id",
          "type": "uint256"
        }
      ],
      "name": "getCommitteeNodes",
      "outputs": [
        {
          "internalType": "address[]",
          "name": "nodes",
          "type": "address[]"
        }
      ],
      "stateMutability": "view",
      "type": "function"
    },
    {
      "inputs": [
        {
          "internalType": "uint256",
          "name": "e3Id",
          "type": "uint256"
        }
      ],
      "name": "getCommitteeViability",
      "outputs": [
        {
          "internalType": "uint256",
          "name": "activeCount",
          "type": "uint256"
        },
        {
          "internalType": "uint32",
          "name": "thresholdM",
          "type": "uint32"
        },
        {
          "internalType": "uint32",
          "name": "thresholdN",
          "type": "uint32"
        },
        {
          "internalType": "bool",
          "name": "viable",
          "type": "bool"
        }
      ],
      "stateMutability": "view",
      "type": "function"
    },
    {
      "inputs": [
        {
          "internalType": "address",
          "name": "_owner",
          "type": "address"
        },
        {
          "internalType": "uint256",
          "name": "_submissionWindow",
          "type": "uint256"
        }
      ],
      "name": "initialize",
      "outputs": [],
      "stateMutability": "nonpayable",
      "type": "function"
    },
    {
      "inputs": [
        {
          "internalType": "address",
          "name": "node",
          "type": "address"
        }
      ],
      "name": "isCiphernodeEligible",
      "outputs": [
        {
          "internalType": "bool",
          "name": "",
          "type": "bool"
        }
      ],
      "stateMutability": "view",
      "type": "function"
    },
    {
      "inputs": [
        {
          "internalType": "uint256",
          "name": "e3Id",
          "type": "uint256"
        },
        {
          "internalType": "address",
          "name": "node",
          "type": "address"
        }
      ],
      "name": "isCommitteeMember",
      "outputs": [
        {
          "internalType": "bool",
          "name": "",
          "type": "bool"
        }
      ],
      "stateMutability": "view",
      "type": "function"
    },
    {
      "inputs": [
        {
          "internalType": "uint256",
          "name": "e3Id",
          "type": "uint256"
        },
        {
          "internalType": "address",
          "name": "node",
          "type": "address"
        }
      ],
      "name": "isCommitteeMemberActive",
      "outputs": [
        {
          "internalType": "bool",
          "name": "",
          "type": "bool"
        }
      ],
      "stateMutability": "view",
      "type": "function"
    },
    {
      "inputs": [
        {
          "internalType": "address",
          "name": "node",
          "type": "address"
        }
      ],
      "name": "isEnabled",
      "outputs": [
        {
          "internalType": "bool",
          "name": "",
          "type": "bool"
        }
      ],
      "stateMutability": "view",
      "type": "function"
    },
    {
      "inputs": [
        {
          "internalType": "uint256",
          "name": "e3Id",
          "type": "uint256"
        }
      ],
      "name": "isOpen",
      "outputs": [
        {
          "internalType": "bool",
          "name": "",
          "type": "bool"
        }
      ],
      "stateMutability": "view",
      "type": "function"
    },
    {
      "inputs": [],
      "name": "numCiphernodes",
      "outputs": [
        {
          "internalType": "uint256",
          "name": "",
          "type": "uint256"
        }
      ],
      "stateMutability": "view",
      "type": "function"
    },
    {
      "inputs": [],
      "name": "owner",
      "outputs": [
        {
          "internalType": "address",
          "name": "",
          "type": "address"
        }
      ],
      "stateMutability": "view",
      "type": "function"
    },
    {
      "inputs": [
        {
          "internalType": "uint256",
          "name": "e3Id",
          "type": "uint256"
        }
      ],
      "name": "publicKeyHashes",
      "outputs": [
        {
          "internalType": "bytes32",
          "name": "publicKeyHash",
          "type": "bytes32"
        }
      ],
      "stateMutability": "view",
      "type": "function"
    },
    {
      "inputs": [
        {
          "internalType": "uint256",
          "name": "e3Id",
          "type": "uint256"
        },
        {
          "internalType": "address[]",
          "name": "nodes",
          "type": "address[]"
        },
        {
          "internalType": "bytes",
          "name": "publicKey",
          "type": "bytes"
        },
        {
          "internalType": "bytes",
          "name": "proof",
          "type": "bytes"
        },
        {
          "internalType": "bytes",
          "name": "foldProof",
          "type": "bytes"
        }
      ],
      "name": "publishCommittee",
      "outputs": [],
      "stateMutability": "nonpayable",
      "type": "function"
    },
    {
      "inputs": [
        {
          "internalType": "address",
          "name": "node",
          "type": "address"
        }
      ],
      "name": "removeCiphernode",
      "outputs": [],
      "stateMutability": "nonpayable",
      "type": "function"
    },
    {
      "inputs": [],
      "name": "renounceOwnership",
      "outputs": [],
      "stateMutability": "nonpayable",
      "type": "function"
    },
    {
      "inputs": [
        {
          "internalType": "uint256",
          "name": "e3Id",
          "type": "uint256"
        },
        {
          "internalType": "uint256",
          "name": "seed",
          "type": "uint256"
        },
        {
          "internalType": "uint32[2]",
          "name": "threshold",
          "type": "uint32[2]"
        }
      ],
      "name": "requestCommittee",
      "outputs": [
        {
          "internalType": "bool",
          "name": "success",
          "type": "bool"
        }
      ],
      "stateMutability": "nonpayable",
      "type": "function"
    },
    {
      "inputs": [],
      "name": "root",
      "outputs": [
        {
          "internalType": "uint256",
          "name": "",
          "type": "uint256"
        }
      ],
      "stateMutability": "view",
      "type": "function"
    },
    {
      "inputs": [
        {
          "internalType": "uint256",
          "name": "e3Id",
          "type": "uint256"
        }
      ],
      "name": "rootAt",
      "outputs": [
        {
          "internalType": "uint256",
          "name": "",
          "type": "uint256"
        }
      ],
      "stateMutability": "view",
      "type": "function"
    },
    {
      "inputs": [
        {
          "internalType": "uint256",
          "name": "e3Id",
          "type": "uint256"
        }
      ],
      "name": "roots",
      "outputs": [
        {
          "internalType": "uint256",
          "name": "root",
          "type": "uint256"
        }
      ],
      "stateMutability": "view",
      "type": "function"
    },
    {
      "inputs": [
        {
          "internalType": "contract IBondingRegistry",
          "name": "_bondingRegistry",
          "type": "address"
        }
      ],
      "name": "setBondingRegistry",
      "outputs": [],
      "stateMutability": "nonpayable",
      "type": "function"
    },
    {
      "inputs": [
        {
          "internalType": "contract IEnclave",
          "name": "_enclave",
          "type": "address"
        }
      ],
      "name": "setEnclave",
      "outputs": [],
      "stateMutability": "nonpayable",
      "type": "function"
    },
    {
      "inputs": [
        {
          "internalType": "contract ISlashingManager",
          "name": "_slashingManager",
          "type": "address"
        }
      ],
      "name": "setSlashingManager",
      "outputs": [],
      "stateMutability": "nonpayable",
      "type": "function"
    },
    {
      "inputs": [
        {
          "internalType": "uint256",
          "name": "_sortitionSubmissionWindow",
          "type": "uint256"
        }
      ],
      "name": "setSortitionSubmissionWindow",
      "outputs": [],
      "stateMutability": "nonpayable",
      "type": "function"
    },
    {
      "inputs": [],
      "name": "slashingManager",
      "outputs": [
        {
          "internalType": "contract ISlashingManager",
          "name": "",
          "type": "address"
        }
      ],
      "stateMutability": "view",
      "type": "function"
    },
    {
      "inputs": [],
      "name": "sortitionSubmissionWindow",
      "outputs": [
        {
          "internalType": "uint256",
          "name": "",
          "type": "uint256"
        }
      ],
      "stateMutability": "view",
      "type": "function"
    },
    {
      "inputs": [
        {
          "internalType": "uint256",
          "name": "e3Id",
          "type": "uint256"
        },
        {
          "internalType": "uint256",
          "name": "ticketNumber",
          "type": "uint256"
        }
      ],
      "name": "submitTicket",
      "outputs": [],
      "stateMutability": "nonpayable",
      "type": "function"
    },
    {
      "inputs": [
        {
          "internalType": "address",
          "name": "newOwner",
          "type": "address"
        }
      ],
      "name": "transferOwnership",
      "outputs": [],
      "stateMutability": "nonpayable",
      "type": "function"
    },
    {
      "inputs": [],
      "name": "treeSize",
      "outputs": [
        {
          "internalType": "uint256",
          "name": "",
          "type": "uint256"
        }
      ],
      "stateMutability": "view",
      "type": "function"
    }
  ],
  "bytecode": "0x608060405234801561000f575f5ffd5b506100397f870fb76f20294b5979941236c4f11803caead75a09d664ffc6232ab2d53a599f610046565b61004161005c565b610137565b6100598161010d60201b6133cf1760201c565b50565b7ff0c57e16840df040f15088dc2f81fe391c3923bec73e23a9662efc9c229c6a00805468010000000000000000900460ff16156100ac5760405163f92ee8a960e01b815260040160405180910390fd5b80546001600160401b03908116146100595780546001600160401b0319166001600160401b0390811782556040519081527fc7f505b2f371ae2175ee4913f4499e1f2633a7b5936321eed1cdaeb6115181d29060200160405180910390a150565b60405181815273c0bec0bec0bec0bec0bec0bec0bec0bec0bec0be905f80602083855afa50505050565b615d49806101445f395ff3fe608060405234801561000f575f5ffd5b506004361061023f575f3560e01c80639f0f874a11610135578063e59e4695116100b4578063f26ef74e11610079578063f26ef74e1461055c578063f2fde38b1461056f578063f379b0df14610582578063f52fd803146105bc578063f6fc05d5146105fe575f5ffd5b8063e59e469514610501578063e6745e1314610514578063e82f3b7014610527578063ebf0c7171461053a578063f165053614610542575f5ffd5b8063c3a0ec30116100fa578063c3a0ec30146104ae578063ca2869a0146104b6578063cd6dc687146104c9578063da881e5a146104dc578063dbb06c93146104ef575f5ffd5b80639f0f874a14610440578063a016493014610449578063a8a4d69b14610469578063bff232c11461047c578063c2b40ae41461048f575f5ffd5b8063715018a6116101c15780638d1ddfb1116101865780638d1ddfb1146103ce5780638da5cb5b146103d65780638e5ce3ad146103de5780639015d371146103f15780639a7a2ffc14610404575f5ffd5b8063715018a6146103475780637c92f5241461034f578063858142431461037c5780638a78bb151461039c5780638cb89ecb146103af575f5ffd5b80632e7b716d116102075780632e7b716d146102d95780634d6861a6146102ec57806350e6d94c146102ff5780635d5047761461032157806370e36bbe14610334575f5ffd5b8063096b810a146102435780630f3e34121461025857806317d611201461026b5780632800d82914610295578063291a691b146102b6575b5f5ffd5b610256610251366004615119565b610607565b005b610256610266366004615134565b61089a565b61027e610279366004615134565b61092f565b60405161028c9291906151be565b60405180910390f35b6102a86102a3366004615134565b610d09565b60405190815260200161028c565b6102c96102c43660046151e2565b610dd1565b604051901515815260200161028c565b6102c96102e7366004615119565b6111e4565b6102c96102fa366004615134565b61133b565b6102c961030d366004615119565b60066020525f908152604090205460ff1681565b6102c961032f36600461521b565b61141f565b610256610342366004615119565b61148c565b610256611586565b61036261035d366004615249565b611599565b6040805192835263ffffffff90911660208301520161028c565b60015461038f906001600160a01b031681565b60405161028c919061527e565b6102566103aa366004615119565b6119a4565b6102a86103bd366004615134565b60096020525f908152604090205481565b6102a8611cb1565b61038f611cf0565b600b5461038f906001600160a01b031681565b6102c96103ff366004615119565b611d1e565b61042a610412366004615119565b60076020525f908152604090205464ffffffffff1681565b60405164ffffffffff909116815260200161028c565b6102a860035481565b61045c610457366004615134565b611d66565b60405161028c9190615292565b6102c961047736600461521b565b611e75565b61025661048a366004615119565b611ee1565b6102a861049d366004615134565b60086020525f908152604090205481565b61038f611f84565b6102a86104c4366004615134565b611fbe565b6102566104d73660046152a4565b611ffa565b6102c96104ea366004615134565b61224d565b5f5461038f906001600160a01b031681565b61025661050f366004615119565b61288e565b6102566105223660046152ce565b612989565b6102a8610535366004615134565b612cc9565b6102a8612d4e565b61054a601481565b60405160ff909116815260200161028c565b61025661056a366004615332565b612d89565b61025661057d366004615119565b61327b565b60045461059e9064ffffffffff80821691600160281b90041682565b6040805164ffffffffff93841681529290911660208301520161028c565b6105cf6105ca366004615134565b6132b5565b60405161028c949392919093845263ffffffff9283166020850152911660408301521515606082015260800190565b6102a860025481565b6106307feadfe22dab18c76643c9af42bdcc0562056e588ca0556baf848c3c6054cbf1c56133f9565b610638611cf0565b6001600160a01b0316336001600160a01b0316148061066157506001546001600160a01b031633145b61067e57604051632864c4e160e01b815260040160405180910390fd5b6106a77f1f15b4de21bf841414b0388e2b0164625211d9d6da58b72de3b34725601cecd56133f9565b6106d07fa4eafad7ecdd392ba96d419ff56d629bcb96d6b1f0bc9c0d39bc95ca2070274c6133f9565b6106d981611d1e565b8190610702576040516381e5828960e01b81526004016106f9919061527e565b60405180910390fd5b5061072c7f4e095366d3ac8d0771967b9259c25bb4339e32f976ee00fff53fd3fe0747d5cd6133f9565b6001600160a01b0381165f9081526007602052604090205464ffffffffff166107747f421acc43a749e2e7fb7123f80f38366ba10f0e892f38c5c105652ef35d1a51706133f9565b61078060045f83613402565b6107a97f021d570994889e5f0d70334159ed95355c455baeed69fccf2dae7891ff38c0866133f9565b6001600160a01b0382165f908152600660205260409020805460ff191690556107f17f38fa39973bff6262e3d1718de36115552847846107d9b937c71fa3daad5d4f566133f9565b60028054905f6108008361544c565b919050555061082e7f0630d3387425ca08a4401f6d9a9f6f1d7c08d82166f7a1332944722ded80baae6133f9565b6002546004546040805164ffffffffff80861682526020820194909452600160281b909204909216918101919091526001600160a01b038316907f8c008e3835f6c79bfcdb89f0f6ca8705e0b01049ee84a90b0e4da1c7ba9405d5906060015b60405180910390a25050565b6108a26136a4565b6108cb7faab53d518c486351d38828890f7d93c11dc3ec9b5e1df4f55e9b9396a57350796133f9565b60038190556108f97fff4dc0212fd960ea9dd66c9c91333fce27ed58e64fe9bdb0548c5b869de507966133f9565b6040518181527fbe772dc189863d512fa01e489c8eac204975aef1a8662d8b5a333804b5207ab79060200160405180910390a150565b60608061095b7fa272ddfb6aa7fc1619f75101c3bbddebd55c609de6f24b82a3a7b2365df2b5de6133f9565b5f838152600a602052604090206109917f7011ff026aeaed9e6ee2b7c689e45dfd8724cda0001f38b7ddc69a57ba7c17fd6133f9565b60068101546109bf7f980f1684a10478dcb446c2d59d77c610fdd084b2f40bc42c7810e75dd7922e136133f9565b600a8201546109ed7fc63f2affd627fc4b1c7b5e2f8b401949dcd0abe598ca84c414916415d7df142e6133f9565b806001600160401b03811115610a0557610a05615461565b604051908082528060200260200182016040528015610a2e578160200160208202803683370190505b509450610a5a7f57370c8834800c5e44c9f472e508f6d38ce39a4677951c5832cc5a02efab63816133f9565b806001600160401b03811115610a7257610a72615461565b604051908082528060200260200182016040528015610a9b578160200160208202803683370190505b509350610ac77f57523810fcc2729399f7fac82e76fe58c6c56294826939193de20b1967c896636133f9565b5f610af17f1c59736e92dfb04f6bcf8d9a70d919ddcf9edce2dad132f0e748213154f881546133f9565b5f5b83811015610cff57610b247f1eb67384e6f91dbc31112fd379a1ede6b51efc2e240ac2b8290ae1ac41ddca836133f9565b610b4d7f1625704ec49bff5c8f39111691d6c1755d4860c49eb83275cbb90273903ee4b26133f9565b5f856006018281548110610b6357610b63615475565b5f918252602090912001546001600160a01b03169050610ba27fd21ae981ce3614efb2d0c57b1bd14e4750e7984da76d8fef36b611fb3991c3d66133f9565b60016001600160a01b0382165f90815260098801602052604090205460ff166002811115610bd257610bd2615489565b03610cf657610c007f3bd38e9fd9b20422e5330c600eeb37d5c6b23b53676bb3ee73cbd6a2385fe7fa6133f9565b610c297fd513b7e3d93536469563e82e685caa71e9837ad44f189a68b8da3ac681ab0a626133f9565b80888481518110610c3c57610c3c615475565b60200260200101906001600160a01b031690816001600160a01b031681525050610c857f3ac3ce15698ea27fc4973f3bddf873701597b7110a095dc900111855d685c0926133f9565b6001600160a01b0381165f9081526008870160205260409020548751889085908110610cb357610cb3615475565b602002602001018181525050610ce87f73d89aa87bf18910cbe5d74053a207cdac49b497f8f5a463474b48fd17a8bc0d6133f9565b82610cf28161549d565b9350505b50600101610af3565b5050505050915091565b5f610d337f23635cad411b5410a650cbd49fb4b5c1fee26bdf362eb3a5a3e7e62994e36fae6133f9565b5f828152600a60205260409020610d697f43c266176f8ba22e40186552ccbee48f4fe604a62fe7fc8eecd00870b94f23626133f9565b5f815460ff166003811115610d8057610d80615489565b03610d9e57604051630d4c1d9760e41b815260040160405180910390fd5b610dc77f04bf2901b08cfcce667569adcd8cc74ad40b1ff1210eea85b7e0ffec7b4e1ad86133f9565b6003015492915050565b5f610dfb7f906849924b4a0443082e490cbcbedffbfd6a085ee5fdea695e2d2f25d3eac6ae6133f9565b5f546001600160a01b03163314610e255760405163e4c2a7eb60e01b815260040160405180910390fd5b610e4e7fb96690430e920b4a5b755a85a7414424a5a1d82031dd9686c5767ef7e1037e3f6133f9565b610e777f3b76bf511826a93e8f4e2c96f0c2cd9eb8767087f53f425cd81bb410ab0482956133f9565b5f848152600a60205260409020610ead7fc6339dcc405eb455efaf8554268ace47f4b1a62184ce61993b0bfc21566b35ea6133f9565b5f815460ff166003811115610ec457610ec4615489565b14610ee2576040516374ff462560e11b815260040160405180910390fd5b610f0b7fe79b06acb55a1258491862f66e23a2dc3a436c25ba08f25e6874c31f0e4096076133f9565b60015460408051630cc37d8f60e11b815290515f926001600160a01b031691631986fb1e9160048083019260209291908290030181865afa158015610f52573d5f5f3e3d5ffd5b505050506040513d601f19601f82011682018060405250810190610f7691906154b5565b9050610fa17ff00b8fcff8f301133b38d5f7266a9d36239703729a21741bb482cdbb72fa3d886133f9565b80610fb260408601602087016154df565b63ffffffff161115610fca60408601602087016154df565b829091610ff8576040516344ec930f60e01b815263ffffffff909216600483015260248201526044016106f9565b50506110237f48ac9f6ad93442019ba66b7a9c4350c90923145f59eb303d4fb97bfc05fbae716133f9565b815460ff191660011782556110577f75bc003f4165c97ddd513d5252cdcdef83fe8e3c5905bba4a9da0324e50c06a96133f9565b600182018590556110877f1e2743005d4573560e11247a29ccd150cd7d5a8d3e1ec9e54047c779a34c69836133f9565b4360028301556110b67f956a2e369354877d3d60b354dfc63212602ee4f483a4a36de7036a100bd713e06133f9565b6003546110c390426154f8565b60038301556110f17f877ad0ec13bca014660e5c580576b4347737baeade36f4f953bba410e45a518c6133f9565b61110060058301856002615050565b5061112a7fcb78aafe03efd9a67b09830b917a16de24c106a22b1a730cead7a5e81e00a1e36133f9565b611132612d4e565b5f878152600860205260409020556111697f5b478ec5857c73c8e4439f2ff627057e44ab75c19a2f95b25c3c3a907d4b96546133f9565b857f381d281d32f95ef8fe4e5f3b263ea6a32d03d331e1a141ae1da996dc02a7a1708686856002015486600301546040516111a7949392919061550b565b60405180910390a26111d87ff015a45004337f9718bd0a6c08b772390f917c8addccd25c2f1fdb5a863a2cf06133f9565b50600195945050505050565b5f61120e7f18b8eae350db0706537b7236327ddc4ca09155f5757e1e614d155f8e7915d43f6133f9565b61121782611d1e565b61124b576112447fa60a168e323f280f07a12d400adf06c9703958e439b5491678319eb426d984236133f9565b505f919050565b6112747f10c7aa50ea9fc6e4e87c600360a57f761ffbe8a66f96d14fe7e2b510b4d883ee6133f9565b6001546001600160a01b031661129d576040516350ca893360e01b815260040160405180910390fd5b6112c67f739290956cf58483276ee1b7fb2b56b22610ab98176d62f7db319d70592d80b46133f9565b600154604051639f8a13d760e01b81526001600160a01b0390911690639f8a13d7906112f690859060040161527e565b602060405180830381865afa158015611311573d5f5f3e3d5ffd5b505050506040513d601f19601f82011682018060405250810190611335919061556a565b92915050565b5f6113657fb09e44fb717624b4886f0dda5bbaf4119aa51d205422d15a6ff2fb47c5470caf6133f9565b5f828152600a6020526040902061139b7f589f42565019941b73563f4e48cef054cc342865744c43529908a9691a9684516133f9565b6001815460ff1660038111156113b3576113b3615489565b146113e9576113e17f0641e33771aafc8049200d65da7137d85d008c78c1d29766aab4a5a670dc59556133f9565b505f92915050565b6114127f64362cf7cb078320afe445f098782bf2230bad2ffd52521202a3a1bb3bb15f536133f9565b6003015442111592915050565b5f6114497f2fdf5d49c0ebc1a7c025b49cbdc0401e142028676572eeb2e78156a46dc2bc8c6133f9565b60015f848152600a602090815260408083206001600160a01b038716845260090190915290205460ff16600281111561148457611484615489565b149392505050565b6114946136a4565b6114bd7fa72d535a30d0856cae738aadedac44d0d23813276f21457ac19c7601927bd2146133f9565b6001600160a01b0381166114e45760405163d92e233d60e01b815260040160405180910390fd5b61150d7f4e272c6de7918994ae944acdbef60e9326a9b00be17b3478eb3a6a0ce14c70716133f9565b5f80546001600160a01b0319166001600160a01b0383161790556115507f06886b34bf51da017f012cbacb86bcdd7a5b5d2125da6008bfa1da2a056da8916133f9565b6040516001600160a01b038216907f2c8267accd82e977550ed2349c73311183cd22e306347be4453c8d130995e3c9905f90a250565b61158e6136a4565b6115975f6136d6565b565b5f5f6115c47fa43c4e72b6b740fb5ecc246c83f0bbce25177d78f03ef7d3f886c86b35aa51b06133f9565b600b546001600160a01b031633146115ef5760405163fcef374960e01b815260040160405180910390fd5b6116187fb0fe1dd26ab5ce12663a10fd64c79a4734271ccafa807385c0b3cd7a9ef9b3496133f9565b6116417fa00f30881bb59a28ecb2dfc73dc53c30a4a25814efb9d516793607071bceca7a6133f9565b5f858152600a602052604090206116777f11b9631dd67a694d91bed886c75f622e9ed19cf0a895a5bb236e1135b25f33da6133f9565b6002815460ff16600381111561168f5761168f615489565b146116ad57604051634f4b461f60e11b815260040160405180910390fd5b6116d67fedc244e002951607c09dc8c635756bdcf4bf9cb33fd99b86c46edc6712b5fd6e6133f9565b600581015463ffffffff16915061170c7f55685f3fb87552799e4652524e58685cf6e919a16c13a5315e64755b6f6ffae16133f9565b60016001600160a01b0386165f90815260098301602052604090205460ff16600281111561173c5761173c615489565b146117c95761176a7f8de8555067633b503fecbf5005a7c9ff0cddb4bf38658f80e2c2d44a337b26fc6133f9565b6117937fa0bc69c4c37dcc4dd6216493a8d3680e4ac523577accb4a7d9401b48bf0906ea6133f9565b80600a015492506117c37fbe97ab72e19c514cc16fe8c6a03b4dd31b852fd6b9cf3d759335afc58b062f066133f9565b5061199c565b6117f27f8f3275df039abf1a213e599d3b1c0260b59f6e45411cd188e93514a957e844f56133f9565b6001600160a01b0385165f9081526009820160205260409020805460ff1916600217905561183f7f1c41ae7a874336e38fb7a488a7bb5aeb723400b07f66af72d5d8d76630ed9faf6133f9565b600a81018054905f6118508361544c565b919050555061187e7fa57c0635a5425b521b141c2a21418fd3feebbaf6552195225e8628cf8fb2c78d6133f9565b80600a015492506118ae7fa9397fac3e81c1b64fd46733dc9c3779ecd86317db7a3e2f312007a9d38bf0db6133f9565b60408051858152602081018590526001600160a01b0387169188917f6c783b92374361b4d6efaf29673b89437ee969bb3c9d2d5d86b143ad5447b849910160405180910390a361191d7f1252c70c6ad2b6e695f37a79fe0905df22612c399580960c2c71813dc1aa004b6133f9565b63ffffffff82168310156119507f0198114378813052ed013d1917ccc6b8a15244a7705a1b15e00736829d4d32666133f9565b6040805185815263ffffffff8516602082015282151581830152905188917f119cb11dd0a68c257d6dc9b06dcb37dd422ce276eb8bf3cd0b7079a116b8e298919081900360600190a250505b935093915050565b6119cd7feadfe22dab18c76643c9af42bdcc0562056e588ca0556baf848c3c6054cbf1c56133f9565b6119d5611cf0565b6001600160a01b0316336001600160a01b031614806119fe57506001546001600160a01b031633145b611a1b57604051632864c4e160e01b815260040160405180910390fd5b611a447f1f15b4de21bf841414b0388e2b0164625211d9d6da58b72de3b34725601cecd56133f9565b611a6d7f6940234e98d4c73cfc4f0e22c609e3767afec134f7fa3a4e00797aeada40bc366133f9565b611a7681611d1e565b15611ad057611aa47f5d37b9d2e5719d3482f19efe144c64ad177ecc5a4dbd9c1bd9f0cf3bf1baee8c6133f9565b611acd7fd6b9ba478028fb6a3419caa5a550bd99966df89dcd8d7042f54f5be98b73a25c6133f9565b50565b611af97f34a5c099c1865763a4d57e112b0667159fe589e88c3369f4e21c7090ab0e45386133f9565b600454600160281b900464ffffffffff16611b337f96dfc826d4a43bedb6c5369d7fd88702db6dbcc1b4dfd37a3c35ac488ec1980a6133f9565b611b4760046001600160a01b038416613746565b611b707fbf649b70624e716d8154ce90cb788ebbe8f5009495eefb20fb6d5537a5701feb6133f9565b6001600160a01b0382165f908152600660205260409020805460ff19166001179055611bbb7fb19a6a8f19053ddc0290d7588981f30d5c61dcda6ad51db48aef406eb5bc31d36133f9565b6001600160a01b0382165f908152600760205260409020805464ffffffffff191664ffffffffff8316179055611c107fadb85373bd8df5b9ee26c6fdae3239c84b1f15f39afb6babe49e1d489c3535856133f9565b60028054905f611c1f8361549d565b9190505550611c4d7f21c806d3546c4b09579154a6707330374a65b996d8657620c6fb18e2556920fe6133f9565b6002546004546040805164ffffffffff80861682526020820194909452600160281b909204909216918101919091526001600160a01b038316907f3318d261fe14a5761d2d1e21555652f623d2134c430a9883c9ad6e958bb0db539060600161088e565b5f611cdb7f2c665e97cdaf6bd722b13ef34a2e10efdc1a37f872b993003dac6a373eaca3956133f9565b50600454600160281b900464ffffffffff1690565b7f9016d09d72d40fdae2fd8ceac6b6234c7706214fd39c1cd1e609a0528c199300546001600160a01b031690565b5f611d487fbb82ac0f533108318325f7a3406bb6e0e8a61c6d8c916d12f22a33d17606898e6133f9565b506001600160a01b03165f9081526006602052604090205460ff1690565b6060611d917fb9ec53e739e22af4ad0ce9214b4f8267c84fb6c094e6d00a71b1de7204f9cc886133f9565b5f828152600a60205260409020611dc77fefb192b69b97870936ce0cd2710edffad2ac13425765907700a4188a258391c16133f9565b6004810154611de9576040516322e679e360e11b815260040160405180910390fd5b611e127f384991b567481e5e7612830ef16e2c184a800e89a1149e99ee5c8ac6d0b151f16133f9565b80600601805480602002602001604051908101604052809291908181526020018280548015611e6857602002820191905f5260205f20905b81546001600160a01b03168152600190910190602001808311611e4a575b5050505050915050919050565b5f611e9f7f25f3442683290dfcd0e50ba4a3dacab4c55442629eeb00dd3f78a3b25a45359d6133f9565b5f838152600a602090815260408083206001600160a01b038616845260090190915281205460ff166002811115611ed857611ed8615489565b14159392505050565b611ee96136a4565b611f127fa18a04afdd138d5e9eca21e3ec65a42d5decb27a5c33b90b7974869bdfcdf6ba6133f9565b6001600160a01b038116611f395760405163d92e233d60e01b815260040160405180910390fd5b611f627f85a73fdbf8d7a9b97a98cfe44e5e1890c352c025166df10a9258d8d942424c1f6133f9565b600b80546001600160a01b0319166001600160a01b0392909216919091179055565b5f611fae7fff71fc7887dea3c4f3918e8813abf1bd03c494a3e255b87639290cd36c0962616133f9565b506001546001600160a01b031690565b5f611fe87fdd021c4b83269a17db1e4c89f4ea42d731ccbc797dbd54eee40d002fa1bf06fe6133f9565b505f9081526008602052604090205490565b5f61200361391c565b805490915060ff600160401b82041615906001600160401b03165f811580156120295750825b90505f826001600160401b031660011480156120445750303b155b905081158015612052575080155b156120705760405163f92ee8a960e01b815260040160405180910390fd5b845467ffffffffffffffff19166001178555831561209a57845460ff60401b1916600160401b1785555b6120c37f52aa856923cc47cd71e62aa3924310551a08743a838fbcef1193875e960cdc956133f9565b6001600160a01b0387166120ea5760405163d92e233d60e01b815260040160405180910390fd5b6121137f6708037b2aab943ef56e2730ea7e5e4174627165eb369b686f1eb44e6041dac76133f9565b61211c33613944565b6121457fbc9ad86f8521fe7b266a49b719d5657887af0cb9b18535ed5a0846c928bd3ede6133f9565b61215160046014613955565b61217a7fe703d6e45f570d2c30a6a56124fa02276d4e7268288127a95480adbaafcb8d186133f9565b6121838661089a565b6121ac7feb0461c58f0288129d8f9e2136a70fd57bbbf91c965f77952c5228114f0ba0c66133f9565b6121b4611cf0565b6001600160a01b0316876001600160a01b0316146121fe576121f57f15c1d5a22a7c7e1472e4b317bfb18499e4f549f62f85c62e8355e5bfb762a8916133f9565b6121fe8761327b565b831561224457845460ff60401b19168555604051600181527fc7f505b2f371ae2175ee4913f4499e1f2633a7b5936321eed1cdaeb6115181d29060200160405180910390a15b50505050505050565b5f6122777fed51f33ba0ce53f0b89f16e7ecd44147336503bdace70b950f0aabb57857d91c6133f9565b5f828152600a602052604090206122ad7fafad7f63882445f034579d1749ecb4b7bdced66f256c6d52cb7f1e8f584c0f966133f9565b5f815460ff1660038111156122c4576122c4615489565b036122e257604051630d4c1d9760e41b815260040160405180910390fd5b61230b7f1404fe178caba058cd9a9054a16a38ea042123d17989c032dddead33db0777656133f9565b6001815460ff16600381111561232357612323615489565b1461234157604051631860f69960e31b815260040160405180910390fd5b61236a7ff782fe0f6b3af4f5ab513d06604ef457f88fbcc1d78165ef4570d54cdcd937376133f9565b8060030154421161238e57604051632f021e8d60e11b815260040160405180910390fd5b6123b77f2b2608d6ff5bab6a5b85aa3bceb5c1b309caa9725417e5e4a7f2e561c33b18f96133f9565b60058101546006820154600160201b90910463ffffffff1611156123fa7feec1954d97eee38a6cc6eb54be3c0c0ac260ac792c79cce1a4dff21fbf542f806133f9565b80612590576124287f4dbe19dd030d1a49eedccefdcd40b1768ffafff01f1f87348a405fc7378b5a126133f9565b6124517f9e93cab7b9c94bae550198c70cc64ebdd0fe0b00b5c031f3a048499a8a63a91e6133f9565b815460ff191660031782556124857fd8fdebd2715bfd8f01ccffcf3bfbd18b3d6abd0cf8fb97a55046637202cc09fb6133f9565b6006820154600583015460408051928352600160201b90910463ffffffff16602083015285917fecc4a9fb7e28d074cba7f5b227e9b5827823c850a385539b9a2f98a08f8c203d910160405180910390a26124ff7f4755340f2c82dce9da25685b88fc5d1cf2d1589ca55faca79ff24f0c2d06d2d26133f9565b5f54604051635d968dc160e11b815260048101869052600260248201526001600160a01b039091169063bb2d1b82906044015f604051808303815f87803b158015612548575f5ffd5b505af115801561255a573d5f5f3e3d5ffd5b505050506125877fa33c55025cc3eff39e61e66847b860c35d39250fa58b189254acb0dee731d09b6133f9565b505f9392505050565b6125b97f20189f5cd91d92302f3de0f395066433e5abd31a59f897ab4ac5230a8737b8d86133f9565b815460ff191660021782556125ed7fe13ee6ce8ec627d7ff7492e1502b537e3878494378c22d1559ffcb3674173fb76133f9565b6006820154600a8301556126207f382cc7ea37440ea9e54e59109e7f97e4ae5bc6a754def04c4ade9e1f74db35f86133f9565b600682015461264e7f35d4c6770514755857c9255079d5f3a2184b0be97a58e5eead20b1a09c0473436133f9565b5f816001600160401b0381111561266757612667615461565b604051908082528060200260200182016040528015612690578160200160208202803683370190505b5090506126bc7f089d104ba746d300478ac7f3df9d0c51370c080ad68a0d1ccd51a32bc1c1f3da6133f9565b5f5b8281101561277d576126ef7fd537d073e4d2948cb86f784794d846942f6b951de229e1e86b9707426a5f7fd76133f9565b6127187f52f2bf7a3d5bf4a1aa4ea12b8af53f7257b35a42929e238c6701d7ef1796cae76133f9565b846008015f86600601838154811061273257612732615475565b5f9182526020808320909101546001600160a01b03168352820192909252604001902054825183908390811061276a5761276a615475565b60209081029190910101526001016126be565b506127a77fce060d6eec534940979d636489fdee69842a94ded1508ed05b323c5e1a0a7b636133f9565b5f54604051631f3ea75d60e21b8152600481018890526001600160a01b0390911690637cfa9d74906024015f604051808303815f87803b1580156127e9575f5ffd5b505af11580156127fb573d5f5f3e3d5ffd5b505050506128287fbe6f065d07fedefe5d72cb980be24b7e79af57db82685bce3022849f43b4b6346133f9565b857f4f1f5b329c741a8ba15e9645e301061294d0c1fdd455448ffd5e76ff255929d7856006018360405161285d929190615583565b60405180910390a26111d87f7823179bda2802bd3217b3329df14cf5c43360bdcae2c231c645bdf97432ab216133f9565b6128966136a4565b6128bf7f7a033b30fde343a1c4c28c9b5129960a0748c8a63cde9b322a7907d9c1fb2e7e6133f9565b6001600160a01b0381166128e65760405163d92e233d60e01b815260040160405180910390fd5b61290f7f42045c586fa6db2e3c0d92e1edda674ac3b1368ac7e4ac237cc3918ba1d0c2bf6133f9565b600180546001600160a01b0319166001600160a01b0383161790556129537f3a36f210ad3f841629b1c851d1aa6b9721c5bb438f589c2a920a52a49859caa66133f9565b6040516001600160a01b038216907fad4055f18cdad6f4bdd71afe3a72cbeee964217943e1bde38f138289e981a9a7905f90a250565b6129b27f8d90dffa18fb163ded8aeb83ff09c69faf9bff88cb21a7cbfdf732697e3bd5886133f9565b5f828152600a602052604090206129e87fdcdb3a503359092d9f6d824e124b3ca2539773f496a58642a53ad0d187d94a526133f9565b5f815460ff1660038111156129ff576129ff615489565b03612a1d57604051630d4c1d9760e41b815260040160405180910390fd5b612a467f052902314f0b931acf795aaca042827eed1d2c2604fc908dbda0ede70df5606c6133f9565b6001815460ff166003811115612a5e57612a5e615489565b14612a7c57604051631860f69960e31b815260040160405180910390fd5b612aa57f266d559652140567973aa5bb985d178cac6e17b86df438123cbd97a5f34a57676133f9565b8060030154421115612aca57604051639a19114d60e01b815260040160405180910390fd5b612af37f1d43764474920e6883b80dba19b678a68024d8b98047fd02a133cc3653173e0c6133f9565b335f90815260078201602052604090205460ff1615612b255760405163257309f160e11b815260040160405180910390fd5b612b4e7f0bbe169f48ae471fda1182fb32114d84a0fef8667b96bd3fd1e55372870c9e036133f9565b612b57336111e4565b612b745760405163149fbcfd60e11b815260040160405180910390fd5b612b9d7f0e8ae0838923471d79b19edfed5f3bb19638a237f29bbee4861b616192e5c62c6133f9565b612ba83383856139d4565b612bd17f64b6548567ced76e5586f598c3ddf41b662f6390dde405400ba13fcc22937a306133f9565b5f612be23384868560010154613d0b565b9050612c0d7f260c02db8b652daebde800a8aa4930d243631e5f829c2ff6c43f4f17479988626133f9565b335f9081526007830160205260409020805460ff19166001179055612c517fb43b826aff8aa1879a085dfb225158cda6b28ff16e3414fb5c646c5ffacd493c6133f9565b612c5c823383613db5565b50612c867f1e478d4759e83a1e5f894753b3cc032d9374fa71f55e8bfd034f69307fbed6266133f9565b6040805184815260208101839052339186917f52999628fb1cb05707e842278833b22e511f11746202cecdf221968b0b89e8bd910160405180910390a350505050565b5f612cf37f8b2976d424b9c90b1e547434ea9f85b80e1209b74f880231b6af8762e47ff2456133f9565b505f81815260096020526040902054612d2b7fb88530de39a3e0c382854d38c5a9c8a7f3b8d790b9a52ff0f1c5035bd2e65b5e6133f9565b80612d49576040516322e679e360e11b815260040160405180910390fd5b919050565b5f612d787f6c39b7d8bc34cbabd4b97bfe27887163cda79417339874c5e19b9bf0143b3ab46133f9565b612d84600460146143bf565b905090565b612db27f283cdf2cae9d9b61f11bfc321df296f6118c9f3c0b632d1b27fd8fd9752542d66133f9565b5f898152600a60205260409020612de87f11cf43849fcadec45e6cbbe5d838512d8fc0789972b9b375018623880c0608e86133f9565b6002815460ff166003811115612e0057612e00615489565b14612e1e57604051634f4b461f60e11b815260040160405180910390fd5b612e477f8454ba69fea5e3940a085ad143c8ff5355db06c984af4e0c988a92aaa85173576133f9565b600481015415612e6a5760405163632a22bb60e01b815260040160405180910390fd5b612e937fd861d99aa040ed387a508108ee7fca5ca75bffedb144b01b4c54bed797073f266133f9565b60068101548814612edc5760405162461bcd60e51b815260206004820152601360248201527209cdec8ca40c6deeadce840dad2e6dac2e8c6d606b1b60448201526064016106f9565b612f057f64297264fc171f17aac0188aedfebfa7e5f95ad91ccd9e7641ce217384ad725e6133f9565b5f612f12858701876156da565b915050612f3e7ff449cc8548202db5f3ff461ac927d1414affe7899fd0f26fb266406db1ef269d6133f9565b5f815111612f855760405162461bcd60e51b815260206004820152601460248201527343353a206e6f207075626c696320696e7075747360601b60448201526064016106f9565b612fae7f051e3c9908d19fe2651a0812af4b45386611ceb4549068945704da7c50b118cc6133f9565b5f8160018351612fbe919061577d565b81518110612fce57612fce615475565b602002602001015190506130017fe92665acd3ce7dd597e85c7c44d07ebdfc9f29a91ea56b30d6578cd2f8e5474c6133f9565b5f805460405163101bb4d760e21b8152600481018f90526001600160a01b039091169063406ed35c906024015f60405180830381865afa158015613047573d5f5f3e3d5ffd5b505050506040513d5f823e601f3d908101601f1916820160405261306e9190810190615862565b90506130997f2d606f2d4a844765a627a7fa7081ce5b758f87fc46bb3ab795c761a58a1be58e6133f9565b8061012001516001600160a01b031663f7e83aee898989896040518563ffffffff1660e01b81526004016130d09493929190615a01565b602060405180830381865afa1580156130eb573d5f5f3e3d5ffd5b505050506040513d601f19601f8201168201806040525081019061310f91906154b5565b506131397f64e39ba91b3be0c5acd8ab43994c2c7594f5d41ae22f9ee3a1048291944f3aa96133f9565b600484018290556131697f7aebe85ca09e2823e32520afde3a94a30099336756cab4be4ed360a9d980f7a76133f9565b5f8d81526009602052604090208290556131a27f2f2b6df00eaa5b3179b42e00a902cb31b2b843692ef6f0ccf0cc78d5e3e6115d6133f9565b5f546040516340a3b76160e11b8152600481018f9052602481018490526001600160a01b03909116906381476ec2906044015f604051808303815f87803b1580156131eb575f5ffd5b505af11580156131fd573d5f5f3e3d5ffd5b5050505061322a7fa3403f4bf5254b9140ff21e4425c76006953c73d8c140e41671d69263110d2a16133f9565b8c7f49ac1dd411942113d1c5e6799c6379ce341afe85a4175fb562cf2a5fb886c27d8d8d8d8d8d8d60405161326496959493929190615a32565b60405180910390a250505050505050505050505050565b6132836136a4565b6001600160a01b0381166132ac575f604051631e4fbdf760e01b81526004016106f9919061527e565b611acd816136d6565b5f5f5f5f6132e27f5e0169991b67f5a4e74a7d1f3d4950f3db7b91f25eb56158283bc8b1f3921c886133f9565b5f858152600a602052604090206133187f8f5f0a634c3c9a47d01499ec25782ae7f49948a6c7d6b38460bd0caf93bd7eb66133f9565b80600a015494506133487f9afbca83adbe057cbc000f1dce82e2ac7d5082e3f70d1dc4875b1ff05f32d46a6133f9565b600581015463ffffffff16935061337e7f29e5fefa0cacd652e74700294586884274ec0a6425ae6122773ad7365ff5c95f6133f9565b6005810154600160201b900463ffffffff1692506133bb7f500422e2879da915f4eca40645b9840db17749a84e57f96253c51ba9d728826f6133f9565b8363ffffffff168510159150509193509193565b60405181815273c0bec0bec0bec0bec0bec0bec0bec0bec0bec0be905f80602083855afa50505050565b611acd816133cf565b7f30644e72e131a029b85045b68181585d2833e84879b9709143e1f593f000000182106134415760405162461bcd60e51b81526004016106f990615aab565b825464ffffffffff600160281b9091048116908216811161349f5760405162461bcd60e51b815260206004820152601860248201527713185e9e5253550e881b195859881b5d5cdd08195e1a5cdd60421b60448201526064016106f9565b825f5b81866001015f6134b284886144b8565b64ffffffffff1681526020019081526020015f20819055505f8160016134d89190615af5565b60ff168464ffffffffff16901c64ffffffffff16905060018564ffffffffff16901c64ffffffffff16811161350d575061369c565b600185165f036135d4575f61352c83613527886001615b0e565b6144b8565b60408051808201825286815264ffffffffff83165f90815260018c0160209081529083902054908201529051632b0aac7f60e11b815291925073__$078c82ddf6c95d34ea184ef1dd6130d136$__9163561558fe9161358d91600401615b2b565b602060405180830381865af41580156135a8573d5f5f3e3d5ffd5b505050506040513d601f19601f820116820180604052508101906135cc91906154b5565b935050613688565b5f6135e483613527600189615b5b565b60408051808201825264ffffffffff83165f90815260018c0160209081529083902054825281018790529051632b0aac7f60e11b815291925073__$078c82ddf6c95d34ea184ef1dd6130d136$__9163561558fe9161364591600401615b2b565b602060405180830381865af4158015613660573d5f5f3e3d5ffd5b505050506040513d601f19601f8201168201806040525081019061368491906154b5565b9350505b50647fffffffff600194851c1693016134a2565b505050505050565b336136ad611cf0565b6001600160a01b031614611597573360405163118cdaa760e01b81526004016106f9919061527e565b7f9016d09d72d40fdae2fd8ceac6b6234c7706214fd39c1cd1e609a0528c19930080546001600160a01b031981166001600160a01b03848116918217845560405192169182907f8be0079c531659141344cd1fd0a4f28419497f9722a3daafe3b4186f6b6457e0905f90a3505050565b8154600160281b900464ffffffffff167f30644e72e131a029b85045b68181585d2833e84879b9709143e1f593f000000182106137955760405162461bcd60e51b81526004016106f990615aab565b825464ffffffffff908116908216106137e85760405162461bcd60e51b815260206004820152601560248201527413185e9e5253550e881d1c9959481a5cc8199d5b1b605a1b60448201526064016106f9565b6137f3816001615b0e565b835464ffffffffff91909116600160281b0269ffffffffff000000000019909116178355815f5b81856001015f61382a84876144b8565b64ffffffffff16815260208101919091526040015f20556001831615613915575f61385a82613527600187615b5b565b60408051808201825264ffffffffff83165f90815260018a0160209081529083902054825281018690529051632b0aac7f60e11b815291925073__$078c82ddf6c95d34ea184ef1dd6130d136$__9163561558fe916138bb91600401615b2b565b602060405180830381865af41580156138d6573d5f5f3e3d5ffd5b505050506040513d601f19601f820116820180604052508101906138fa91906154b5565b647fffffffff600195861c169490935091909101905061381a565b5050505050565b5f807ff0c57e16840df040f15088dc2f81fe391c3923bec73e23a9662efc9c229c6a00611335565b61394c6144d5565b611acd816144fa565b602060ff821611156139a35760405162461bcd60e51b81526020600482015260176024820152764c617a79494d543a205472656520746f6f206c6172676560481b60448201526064016106f9565b6139b4600160ff831681901b61577d565b825469ffffffffffffffffffff191664ffffffffff919091161790915550565b6139fd7fc47725c9e52ba6fde0e14f06831f4a535c1f1f642758d84ef27b5d6079bb0c5b6133f9565b5f8211613a1d5760405163aeaddff160e01b815260040160405180910390fd5b613a467fb9ad5808bfd77d235c743a98d4295aa9b8bb576ca823f1105535aa554d4da05c6133f9565b6001546001600160a01b0316613a6f576040516350ca893360e01b815260040160405180910390fd5b613a987f25f464c6a1d1c315804b85f972d65061c460cbb0ba2a9894f42b96c359a71de36133f9565b5f818152600a60205260409020613ace7fa577f1f43fad206dd78d3dccf0f786673242951da74d5533fbe2e33b514a1d176133f9565b6001805460028301545f926001600160a01b039092169163bb03bd71918891613af69161577d565b6040516001600160e01b031960e085901b1681526001600160a01b0390921660048301526024820152604401602060405180830381865afa158015613b3d573d5f5f3e3d5ffd5b505050506040513d601f19601f82011682018060405250810190613b6191906154b5565b9050613b8c7f7923b7a847297e02408cca64c1b1a1132469b0980353124951683931daa38e1e6133f9565b60015460408051630904d8fb60e11b815290515f926001600160a01b031691631209b1f69160048083019260209291908290030181865afa158015613bd3573d5f5f3e3d5ffd5b505050506040513d601f19601f82011682018060405250810190613bf791906154b5565b9050613c227f8fd4d7b7e35e85f509b0d15b1bed8b45ac8eb3bc5d1d436eac43a2580e9bf2f36133f9565b5f8111613c425760405163aeaddff160e01b815260040160405180910390fd5b613c6b7fcb19613aaaba6b7bb06d422005a2c8307d11d3a852bb6653715bf0090016958d6133f9565b5f613c768284615b78565b9050613ca17f478e49866d100423a3f31a786d87765ccbc05fffa20bee8e697e6aaa1cbb74ee6133f9565b5f8111613cc15760405163149fbcfd60e11b815260040160405180910390fd5b613cea7fd5ce7a8a198c5d7b1491c2988d27225f3dadf1384716c8d9877dd3c9b1e8de8a6133f9565b808611156122445760405163aeaddff160e01b815260040160405180910390fd5b5f613d357fc5cdb4680be59866d6aeb31a8eda6c08a113927178a27a7e6adee81a0b4d9f266133f9565b6040516bffffffffffffffffffffffff19606087901b1660208201526034810185905260548101849052607481018390525f90609401604051602081830303815290604052805190602001209050613dac7f9e1e5994571f9ca6d5669ce1c0069ce27eeb2f5a51fd3b99c743cd521daedaa56133f9565b95945050505050565b5f613ddf7f2aa633f30b1cb841a42c5e7f7ddeaa3b72a29444b163388c028f02da2790cbb66133f9565b60068401613e0c7f08888570499d980d8a61accaecd77fcfaa0b96633de36ce8c37e5c9111136bac6133f9565b6005850154600160201b900463ffffffff16613e477f86282d137d479e34e1c336ab985852079c81ef5b828d39fdeaf3364e9ccf20cb6133f9565b8154811115613f9257613e797f81f320e0b0110e1e825c7143614f49ba1ad5c7864342404c6800fe204be9a9ba6133f9565b613ea27f2562cedb05415a0e44db33d78dd0e6ffe281476316a4ee3c096b242f0e02d8b46133f9565b81546001810183555f838152602090200180546001600160a01b0319166001600160a01b038716179055613ef57f821c8b2ab9817744f54c33978f1fa57cb41517079cf1c64fbc5e0ddee050c0946133f9565b6001600160a01b0385165f9081526008870160205260409020849055613f3a7f107bad1d320333860e73a99b81d195759ceb748fbb0b3f3b69fd0c2b80fefbac6133f9565b6001600160a01b0385165f9081526009870160205260409020805460ff19166001179055613f877f0347ead267a16cb5a684d4a6c71552d14c3a3dc09a11c622a09a3445efdd64a26133f9565b6001925050506143b8565b613fbb7ff0625e52b824eb60c799ff59fb391e969a2ff07603cc3d1343556fc2900f3c886133f9565b5f613fe57ff3341faa36dc022ceca29946a1232e44343e6720693802b2c7361810a6f0674f6133f9565b5f876008015f855f81548110613ffd57613ffd615475565b5f9182526020808320909101546001600160a01b03168352820192909252604001902054905061404c7fade4ffa7daa088d7d31627e8ca5659dd97f01c734c6f3a0ff0d0291d78bcc81b6133f9565b60015b84548110156141a4576140817f7ea0ec6802560d4c1b93743f16a993cc4928cb6ea2186f5b11538781e2a5e8006133f9565b6140aa7ff2c70368311d82f9b2c0195497a20bf31da14962c92bfd01a72c810a2b89fa5a6133f9565b5f896008015f8784815481106140c2576140c2615475565b5f9182526020808320909101546001600160a01b0316835282019290925260400190205490506141117fad3baaed56a8e36f0a396a603c49ef77a63e626b7f8f665c2093c5155c07a1ec6133f9565b8281111561419b576141427f8cf1e2a4b7f0d44de58a3899a3b6f0cf1fde3772569d6b4a86e2ef47a5c7c69f6133f9565b61416b7f33245842c83a6ba2e9471f4194ebccc5152d52074de010977024062c08782f676133f9565b8092506141977fa856510f7246a8c8c418739b337778d1db4b38371918aa9f669225c1642b73976133f9565b8193505b5060010161404f565b506141ce7ffe6bb1debfb0674333fb4ca294367be7d9363b43b3b3afd04899b119a35fd7cb6133f9565b80861061420a576141fe7fe1c8ed1454b5bc1eb248567b8ac590f2a9acac8f1d1e5ef8eb4911d9c74ecce26133f9565b5f9450505050506143b8565b6142337fabd738c3ac4243232a32a4f895517434cf882298d69cb4e7cd9d8ef319db3c686133f9565b5f886009015f86858154811061424b5761424b615475565b5f9182526020808320909101546001600160a01b031683528201929092526040019020805460ff1916600183600281111561428857614288615489565b02179055506142b67fb5ad4cd1698ac5b1e679b663db73f90cb8b77067cbd9329c696cf1cce84c98b36133f9565b868483815481106142c9576142c9615475565b905f5260205f20015f6101000a8154816001600160a01b0302191690836001600160a01b0316021790555061431d7fedafc5082f84859fdae19b878ea85504ccad95f17d3bde41389879fe93c2d9ef6133f9565b6001600160a01b0387165f90815260088901602052604090208690556143627fac327367e76e384814b886c950c542c5912a9d51fa60af429bd554146df813486133f9565b6001600160a01b0387165f9081526009890160205260409020805460ff191660011790556143af7f43bb6228c824eb7ee1e2244004e970416c16f2b8614a54c99d7c4a18ee6ef3706133f9565b60019450505050505b9392505050565b5f5f8260ff16116144125760405162461bcd60e51b815260206004820152601a60248201527f4c617a79494d543a206465707468206d757374206265203e203000000000000060448201526064016106f9565b602060ff831611156144365760405162461bcd60e51b81526004016106f990615b97565b8254600160281b900464ffffffffff168061445560ff85166002615ce8565b64ffffffffff1610156144a55760405162461bcd60e51b8152602060048201526018602482015277098c2f4f2929aa87440c2dac4d2ceeadeeae640c8cae0e8d60431b60448201526064016106f9565b6144b0848285614502565b949350505050565b5f816144cb60ff851663ffffffff615d01565b6143b89190615b0e565b6144dd6145ca565b61159757604051631afcd79f60e31b815260040160405180910390fd5b6132836144d5565b5f602060ff831611156145275760405162461bcd60e51b81526004016106f990615b97565b8264ffffffffff165f036145455761453e826145e3565b90506143b8565b5f614551836001615af5565b60ff166001600160401b0381111561456b5761456b615461565b604051908082528060200260200182016040528015614594578160200160208202803683370190505b5090506145a385858584614c7d565b808360ff16815181106145b8576145b8615475565b60200260200101519150509392505050565b5f6145d361391c565b54600160401b900460ff16919050565b5f8160ff165f036145f557505f919050565b8160ff1660010361462757507f2098f5fb9e239eab3ceac3f27b81e481dc3124d55ffed523a839ee8446b64864919050565b8160ff1660020361465957507f1069673dcdb12263df301a6ff584a7ec261a44cb9dc68df067a4774460b1f1e1919050565b8160ff1660030361468b57507f18f43331537ee2af2e3d758d50f72106467c6eea50371dd528d57eb2b856d238919050565b8160ff166004036146bd57507f07f9d837cb17b0d36320ffe93ba52345f1b728571a568265caac97559dbc952a919050565b8160ff166005036146ef57507f2b94cf5e8746b3f5c9631f4c5df32907a699c58c94b2ad4d7b5cec1639183f55919050565b8160ff1660060361472157507f2dee93c5a666459646ea7d22cca9e1bcfed71e6951b953611d11dda32ea09d78919050565b8160ff1660070361475357507f078295e5a22b84e982cf601eb639597b8b0515a88cb5ac7fa8a4aabe3c87349d919050565b8160ff1660080361478557507f2fa5e5f18f6027a6501bec864564472a616b2e274a41211a444cbe3a99f3cc61919050565b8160ff166009036147b757507f0e884376d0d8fd21ecb780389e941f66e45e7acce3e228ab3e2156a614fcd747919050565b8160ff16600a036147e957507f1b7201da72494f1e28717ad1a52eb469f95892f957713533de6175e5da190af2919050565b8160ff16600b0361481b57507f1f8d8822725e36385200c0b201249819a6e6e1e4650808b5bebc6bface7d7636919050565b8160ff16600c0361484d57507f2c5d82f66c914bafb9701589ba8cfcfb6162b0a12acf88a8d0879a0471b5f85a919050565b8160ff16600d0361487f57507f14c54148a0940bb820957f5adf3fa1134ef5c4aaa113f4646458f270e0bfbfd0919050565b8160ff16600e036148b157507f190d33b12f986f961e10c0ee44d8b9af11be25588cad89d416118e4bf4ebe80c919050565b8160ff16600f036148e357507f22f98aa9ce704152ac17354914ad73ed1167ae6596af510aa5b3649325e06c92919050565b8160ff1660100361491557507f2a7c7c9b6ce5880b9f6f228d72bf6a575a526f29c66ecceef8b753d38bba7323919050565b8160ff1660110361494757507f2e8186e558698ec1c67af9c14d463ffc470043c9c2988b954d75dd643f36b992919050565b8160ff1660120361497957507f0f57c5571e9a4eab49e2c8cf050dae948aef6ead647392273546249d1c1ff10f919050565b8160ff166013036149ab57507f1830ee67b5fb554ad5f63d4388800e1cfe78e310697d46e43c9ce36134f72cca919050565b8160ff166014036149dd57507f2134e76ac5d21aab186c2be1dd8f84ee880a1e46eaf712f9d371b6df22191f3e919050565b8160ff16601503614a0f57507f19df90ec844ebc4ffeebd866f33859b0c051d8c958ee3aa88f8f8df3db91a5b1919050565b8160ff16601603614a4157507f18cca2a66b5c0787981e69aefd84852d74af0e93ef4912b4648c05f722efe52b919050565b8160ff16601703614a7357507f2388909415230d1b4d1304d2d54f473a628338f2efad83fadf05644549d2538d919050565b8160ff16601803614aa557507f27171fb4a97b6cc0e9e8f543b5294de866a2af2c9c8d0b1d96e673e4529ed540919050565b8160ff16601903614ad757507f2ff6650540f629fd5711a0bc74fc0d28dcb230b9392583e5f8d59696dde6ae21919050565b8160ff16601a03614b0957507f120c58f143d491e95902f7f5277778a2e0ad5168f6add75669932630ce611518919050565b8160ff16601b03614b3b57507f1f21feb70d3f21b07bf853d5e5db03071ec495a0a565a21da2d665d279483795919050565b8160ff16601c03614b6d57507f24be905fa71335e14c638cc0f66a8623a826e768068a9e968bb1a1dde18a72d2919050565b8160ff16601d03614b9f57507f0f8666b62ed17491c50ceadead57d4cd597ef3821d65c328744c74e553dac26d919050565b8160ff16601e03614bd157507f0918d46bf52d98b034413f4a1a1c41594e7a7a3f6ae08cb43d1a2a230e1959ef919050565b8160ff16601f03614c0357507f1bbeb01b4c479ecde76917645e404dfa2e26f90d0afc5a65128513ad375c5ff2919050565b8160ff16602003614c3557507f2f68a1c58e257e42a17a6c61dff5551ed560b9922ab119d5ac8e184c9734ead9919050565b60405162461bcd60e51b815260206004820152601e60248201527f4c617a79494d543a2064656661756c745a65726f2062616420696e646578000060448201526064016106f9565b602060ff83161115614ca15760405162461bcd60e51b81526004016106f990615b97565b5f8364ffffffffff1611614d055760405162461bcd60e51b815260206004820152602560248201527f4c617a79494d543a206e756d626572206f66206c6561766573206d7573742062604482015264065203e20360dc1b60648201526084016106f9565b5f614d11600185615b5b565b9050600181165f03614d6457846001015f614d2c5f846144b8565b64ffffffffff1681526020019081526020015f2054825f81518110614d5357614d53615475565b602002602001018181525050614d8c565b614d6d5f6145e3565b825f81518110614d7f57614d7f615475565b6020026020010181815250505b5f5b8360ff168160ff16101561369c57600182165f03614e845773__$078c82ddf6c95d34ea184ef1dd6130d136$__63561558fe6040518060400160405280868560ff1681518110614de057614de0615475565b60200260200101518152602001614df6856145e3565b8152506040518263ffffffff1660e01b8152600401614e159190615b2b565b602060405180830381865af4158015614e30573d5f5f3e3d5ffd5b505050506040513d601f19601f82011682018060405250810190614e5491906154b5565b83614e60836001615af5565b60ff1681518110614e7357614e73615475565b602002602001018181525050615035565b5f614e90826001615af5565b60ff168664ffffffffff16901c64ffffffffff16905060018364ffffffffff16901c64ffffffffff16811115614f32575f876001015f614ee7856001614ed69190615af5565b60018864ffffffffff16901c6144b8565b64ffffffffff1681526020019081526020015f205490508085846001614f0d9190615af5565b60ff1681518110614f2057614f20615475565b60200260200101818152505050615033565b5f876001015f614f49856001886135279190615b5b565b64ffffffffff1681526020019081526020015f2054905073__$078c82ddf6c95d34ea184ef1dd6130d136$__63561558fe6040518060400160405280848152602001888760ff1681518110614fa057614fa0615475565b60200260200101518152506040518263ffffffff1660e01b8152600401614fc79190615b2b565b602060405180830381865af4158015614fe2573d5f5f3e3d5ffd5b505050506040513d601f19601f8201168201806040525081019061500691906154b5565b85615012856001615af5565b60ff168151811061502557615025615475565b602002602001018181525050505b505b647fffffffff600192831c169101614d8e565b611597615d28565b6001830191839082156150e1579160200282015f5b838211156150af57833563ffffffff1683826101000a81548163ffffffff021916908363ffffffff1602179055509260200192600401602081600301049283019260010302615065565b80156150df5782816101000a81549063ffffffff02191690556004016020816003010492830192600103026150af565b505b506150ed9291506150f1565b5090565b5b808211156150ed575f81556001016150f2565b6001600160a01b0381168114611acd575f5ffd5b5f60208284031215615129575f5ffd5b81356143b881615105565b5f60208284031215615144575f5ffd5b5035919050565b5f8151808452602084019350602083015f5b828110156151845781516001600160a01b031686526020958601959091019060010161515d565b5093949350505050565b5f8151808452602084019350602083015f5b828110156151845781518652602095860195909101906001016151a0565b604081525f6151d0604083018561514b565b8281036020840152613dac818561518e565b5f5f5f608084860312156151f4575f5ffd5b83359250602084013591506080840185101561520e575f5ffd5b6040840190509250925092565b5f5f6040838503121561522c575f5ffd5b82359150602083013561523e81615105565b809150509250929050565b5f5f5f6060848603121561525b575f5ffd5b83359250602084013561526d81615105565b929592945050506040919091013590565b6001600160a01b0391909116815260200190565b602081525f6143b8602083018461514b565b5f5f604083850312156152b5575f5ffd5b82356152c081615105565b946020939093013593505050565b5f5f604083850312156152df575f5ffd5b50508035926020909101359150565b5f5f83601f8401126152fe575f5ffd5b5081356001600160401b03811115615314575f5ffd5b60208301915083602082850101111561532b575f5ffd5b9250929050565b5f5f5f5f5f5f5f5f5f60a08a8c03121561534a575f5ffd5b8935985060208a01356001600160401b03811115615366575f5ffd5b8a01601f81018c13615376575f5ffd5b80356001600160401b0381111561538b575f5ffd5b8c60208260051b840101111561539f575f5ffd5b6020919091019850965060408a01356001600160401b038111156153c1575f5ffd5b6153cd8c828d016152ee565b90975095505060608a01356001600160401b038111156153eb575f5ffd5b6153f78c828d016152ee565b90955093505060808a01356001600160401b03811115615415575f5ffd5b6154218c828d016152ee565b915080935050809150509295985092959850929598565b634e487b7160e01b5f52601160045260245ffd5b5f8161545a5761545a615438565b505f190190565b634e487b7160e01b5f52604160045260245ffd5b634e487b7160e01b5f52603260045260245ffd5b634e487b7160e01b5f52602160045260245ffd5b5f600182016154ae576154ae615438565b5060010190565b5f602082840312156154c5575f5ffd5b5051919050565b803563ffffffff81168114612d49575f5ffd5b5f602082840312156154ef575f5ffd5b6143b8826154cc565b8082018082111561133557611335615438565b84815260a0810160208201855f5b60028110156155465763ffffffff615530836154cc565b1683526020928301929190910190600101615519565b50505060608201939093526080015292915050565b80518015158114612d49575f5ffd5b5f6020828403121561557a575f5ffd5b6143b88261555b565b604080825283549082018190525f8481526020812090916060840190835b818110156155c85783546001600160a01b03168352600193840193602090930192016155a1565b505083810360208501526155dc818661518e565b9695505050505050565b6040516101e081016001600160401b038111828210171561560957615609615461565b60405290565b604051601f8201601f191681016001600160401b038111828210171561563757615637615461565b604052919050565b5f6001600160401b0382111561565757615657615461565b50601f01601f191660200190565b5f82601f830112615674575f5ffd5b81356001600160401b0381111561568d5761568d615461565b8060051b61569d6020820161560f565b918252602081850181019290810190868411156156b8575f5ffd5b6020860192505b838310156155dc5782358252602092830192909101906156bf565b5f5f604083850312156156eb575f5ffd5b82356001600160401b03811115615700575f5ffd5b8301601f81018513615710575f5ffd5b803561572361571e8261563f565b61560f565b818152866020838501011115615737575f5ffd5b816020840160208301375f6020838301015280945050505060208301356001600160401b03811115615767575f5ffd5b61577385828601615665565b9150509250929050565b8181038181111561133557611335615438565b805160048110612d49575f5ffd5b5f82601f8301126157ad575f5ffd5b604080519081016001600160401b03811182821017156157cf576157cf615461565b80604052508060408401858111156157e5575f5ffd5b845b818110156157ff5780518352602092830192016157e7565b509195945050505050565b8051612d4981615105565b5f82601f830112615824575f5ffd5b815161583261571e8261563f565b818152846020838601011115615846575f5ffd5b8160208501602083015e5f918101602001919091529392505050565b5f60208284031215615872575f5ffd5b81516001600160401b03811115615887575f5ffd5b82016102008185031215615899575f5ffd5b6158a16155e6565b815181526158b160208301615790565b6020820152604082810151908201526158cd856060840161579e565b606082015260a082015160808201526158e860c0830161580a565b60a082015260e08201516001600160401b03811115615905575f5ffd5b61591186828501615815565b60c0830152506101008201516001600160401b03811115615930575f5ffd5b61593c86828501615815565b60e08301525061594f610120830161580a565b610100820152615962610140830161580a565b61012082015261016082810151610140830152610180830151908201526101a08201516001600160401b03811115615998575f5ffd5b6159a486828501615815565b610180830152506159b86101c0830161580a565b6101a08201526159cb6101e0830161555b565b6101c0820152949350505050565b81835281816020850137505f828201602090810191909152601f909101601f19169091010190565b604081525f615a146040830186886159d9565b8281036020840152615a278185876159d9565b979650505050505050565b606080825281018690525f8760808301825b89811015615a74578235615a5781615105565b6001600160a01b0316825260209283019290910190600101615a44565b508381036020850152615a8881888a6159d9565b9150508281036040840152615a9e8185876159d9565b9998505050505050505050565b6020808252602a908201527f4c617a79494d543a206c656166206d757374206265203c20534e41524b5f53436040820152691053105497d19251531160b21b606082015260800190565b60ff818116838216019081111561133557611335615438565b64ffffffffff818116838216019081111561133557611335615438565b6040810181835f5b6002811015615b52578151835260209283019290910190600101615b33565b50505092915050565b64ffffffffff828116828216039081111561133557611335615438565b5f82615b9257634e487b7160e01b5f52601260045260245ffd5b500490565b60208082526023908201527f4c617a79494d543a206465707468206d757374206265203c3d204d41585f44456040820152620a0a8960eb1b606082015260800190565b6001815b600184111561199c57808504811115615bf957615bf9615438565b6001841615615c0757908102905b60019390931c928002615bde565b5f82615c2357506001611335565b81615c2f57505f611335565b8160018114615c455760028114615c4f57615c81565b6001915050611335565b60ff841115615c6057615c60615438565b6001841b915064ffffffffff821115615c7b57615c7b615438565b50611335565b5060208310610133831016604e8410600b8410161715615cb9575081810a64ffffffffff811115615cb457615cb4615438565b611335565b615cc964ffffffffff8484615bda565b8064ffffffffff04821115615ce057615ce0615438565b029392505050565b5f6143b864ffffffffff841664ffffffffff8416615c15565b64ffffffffff8181168382160290811690818114615d2157615d21615438565b5092915050565b634e487b7160e01b5f52605160045260245ffdfea164736f6c634300081c000a",
  "linkReferences": {
    "npm/poseidon-solidity@0.0.5/PoseidonT3.sol": {
      "PoseidonT3": [
        {
          "length": 20,
          "start": 13995
        },
        {
          "length": 20,
          "start": 14179
        },
        {
          "length": 20,
          "start": 14809
        },
        {
          "length": 20,
          "start": 20204
        },
        {
          "length": 20,
          "start": 20646
        }
      ]
    }
  },
  "deployedLinkReferences": {
    "npm/poseidon-solidity@0.0.5/PoseidonT3.sol": {
      "PoseidonT3": [
        {
          "length": 20,
          "start": 13671
        },
        {
          "length": 20,
          "start": 13855
        },
        {
          "length": 20,
          "start": 14485
        },
        {
          "length": 20,
          "start": 19880
        },
        {
          "length": 20,
          "start": 20322
        }
      ]
    }
  },
  "immutableReferences": {},
  "inputSourceName": "project/contracts/registry/CiphernodeRegistryOwnable.sol",
  "buildInfoId": "solc-0_8_28-8e4ddba5351ffe479fc9c79b4375f45de89a5d3b"
}