{
  "_format": "hh3-artifact-1",
  "contractName": "CiphernodeRegistryOwnable",
  "sourceName": "contracts/registry/CiphernodeRegistryOwnable.sol",
  "abi": [
    {
      "inputs": [],
      "stateMutability": "nonpayable",
      "type": "constructor"
    },
    {
      "inputs": [],
      "name": "BondingRegistryNotSet",
      "type": "error"
    },
    {
      "inputs": [
        {
          "internalType": "address",
          "name": "node",
          "type": "address"
        }
      ],
      "name": "CiphernodeNotEnabled",
      "type": "error"
    },
    {
      "inputs": [],
      "name": "CommitteeAlreadyFinalized",
      "type": "error"
    },
    {
      "inputs": [],
      "name": "CommitteeAlreadyPublished",
      "type": "error"
    },
    {
      "inputs": [],
      "name": "CommitteeAlreadyRequested",
      "type": "error"
    },
    {
      "inputs": [],
      "name": "CommitteeDeadlineReached",
      "type": "error"
    },
    {
      "inputs": [],
      "name": "CommitteeNotFinalized",
      "type": "error"
    },
    {
      "inputs": [],
      "name": "CommitteeNotInitializedOrFinalized",
      "type": "error"
    },
    {
      "inputs": [],
      "name": "CommitteeNotPublished",
      "type": "error"
    },
    {
      "inputs": [],
      "name": "CommitteeNotRequested",
      "type": "error"
    },
    {
      "inputs": [
        {
          "internalType": "uint256",
          "name": "requested",
          "type": "uint256"
        },
        {
          "internalType": "uint256",
          "name": "available",
          "type": "uint256"
        }
      ],
      "name": "InsufficientCiphernodes",
      "type": "error"
    },
    {
      "inputs": [],
      "name": "InvalidInitialization",
      "type": "error"
    },
    {
      "inputs": [],
      "name": "InvalidTicketNumber",
      "type": "error"
    },
    {
      "inputs": [],
      "name": "NodeAlreadySubmitted",
      "type": "error"
    },
    {
      "inputs": [
        {
          "internalType": "address",
          "name": "node",
          "type": "address"
        }
      ],
      "name": "NodeNotBonded",
      "type": "error"
    },
    {
      "inputs": [],
      "name": "NodeNotEligible",
      "type": "error"
    },
    {
      "inputs": [],
      "name": "NodeNotSubmitted",
      "type": "error"
    },
    {
      "inputs": [],
      "name": "NotInitializing",
      "type": "error"
    },
    {
      "inputs": [],
      "name": "NotOwnerOrBondingRegistry",
      "type": "error"
    },
    {
      "inputs": [],
      "name": "NotSlashingManager",
      "type": "error"
    },
    {
      "inputs": [],
      "name": "OnlyBondingRegistry",
      "type": "error"
    },
    {
      "inputs": [],
      "name": "OnlyEnclave",
      "type": "error"
    },
    {
      "inputs": [
        {
          "internalType": "address",
          "name": "owner",
          "type": "address"
        }
      ],
      "name": "OwnableInvalidOwner",
      "type": "error"
    },
    {
      "inputs": [
        {
          "internalType": "address",
          "name": "account",
          "type": "address"
        }
      ],
      "name": "OwnableUnauthorizedAccount",
      "type": "error"
    },
    {
      "inputs": [],
      "name": "SubmissionWindowClosed",
      "type": "error"
    },
    {
      "inputs": [],
      "name": "SubmissionWindowNotClosed",
      "type": "error"
    },
    {
      "inputs": [],
      "name": "ThresholdNotMet",
      "type": "error"
    },
    {
      "inputs": [],
      "name": "Unauthorized",
      "type": "error"
    },
    {
      "inputs": [],
      "name": "ZeroAddress",
      "type": "error"
    },
    {
      "anonymous": false,
      "inputs": [
        {
          "indexed": true,
          "internalType": "address",
          "name": "bondingRegistry",
          "type": "address"
        }
      ],
      "name": "BondingRegistrySet",
      "type": "event"
    },
    {
      "anonymous": false,
      "inputs": [
        {
          "indexed": true,
          "internalType": "address",
          "name": "node",
          "type": "address"
        },
        {
          "indexed": false,
          "internalType": "uint256",
          "name": "index",
          "type": "uint256"
        },
        {
          "indexed": false,
          "internalType": "uint256",
          "name": "numNodes",
          "type": "uint256"
        },
        {
          "indexed": false,
          "internalType": "uint256",
          "name": "size",
          "type": "uint256"
        }
      ],
      "name": "CiphernodeAdded",
      "type": "event"
    },
    {
      "anonymous": false,
      "inputs": [
        {
          "indexed": true,
          "internalType": "address",
          "name": "node",
          "type": "address"
        },
        {
          "indexed": false,
          "internalType": "uint256",
          "name": "index",
          "type": "uint256"
        },
        {
          "indexed": false,
          "internalType": "uint256",
          "name": "numNodes",
          "type": "uint256"
        },
        {
          "indexed": false,
          "internalType": "uint256",
          "name": "size",
          "type": "uint256"
        }
      ],
      "name": "CiphernodeRemoved",
      "type": "event"
    },
    {
      "anonymous": false,
      "inputs": [
        {
          "indexed": true,
          "internalType": "uint256",
          "name": "e3Id",
          "type": "uint256"
        },
        {
          "indexed": false,
          "internalType": "bool",
          "name": "active",
          "type": "bool"
        }
      ],
      "name": "CommitteeActivationChanged",
      "type": "event"
    },
    {
      "anonymous": false,
      "inputs": [
        {
          "indexed": true,
          "internalType": "uint256",
          "name": "e3Id",
          "type": "uint256"
        },
        {
          "indexed": false,
          "internalType": "address[]",
          "name": "committee",
          "type": "address[]"
        },
        {
          "indexed": false,
          "internalType": "uint256[]",
          "name": "scores",
          "type": "uint256[]"
        }
      ],
      "name": "CommitteeFinalized",
      "type": "event"
    },
    {
      "anonymous": false,
      "inputs": [
        {
          "indexed": true,
          "internalType": "uint256",
          "name": "e3Id",
          "type": "uint256"
        },
        {
          "indexed": false,
          "internalType": "uint256",
          "name": "nodesSubmitted",
          "type": "uint256"
        },
        {
          "indexed": false,
          "internalType": "uint256",
          "name": "thresholdRequired",
          "type": "uint256"
        }
      ],
      "name": "CommitteeFormationFailed",
      "type": "event"
    },
    {
      "anonymous": false,
      "inputs": [
        {
          "indexed": true,
          "internalType": "uint256",
          "name": "e3Id",
          "type": "uint256"
        },
        {
          "indexed": true,
          "internalType": "address",
          "name": "node",
          "type": "address"
        },
        {
          "indexed": false,
          "internalType": "bytes32",
          "name": "reason",
          "type": "bytes32"
        },
        {
          "indexed": false,
          "internalType": "uint256",
          "name": "activeCountAfter",
          "type": "uint256"
        }
      ],
      "name": "CommitteeMemberExpelled",
      "type": "event"
    },
    {
      "anonymous": false,
      "inputs": [
        {
          "indexed": true,
          "internalType": "uint256",
          "name": "e3Id",
          "type": "uint256"
        },
        {
          "indexed": false,
          "internalType": "address[]",
          "name": "nodes",
          "type": "address[]"
        },
        {
          "indexed": false,
          "internalType": "bytes",
          "name": "publicKey",
          "type": "bytes"
        },
        {
          "indexed": false,
          "internalType": "bytes32",
          "name": "pkCommitment",
          "type": "bytes32"
        },
        {
          "indexed": false,
          "internalType": "bytes",
          "name": "proof",
          "type": "bytes"
        }
      ],
      "name": "CommitteePublished",
      "type": "event"
    },
    {
      "anonymous": false,
      "inputs": [
        {
          "indexed": true,
          "internalType": "uint256",
          "name": "e3Id",
          "type": "uint256"
        },
        {
          "indexed": false,
          "internalType": "uint256",
          "name": "seed",
          "type": "uint256"
        },
        {
          "indexed": false,
          "internalType": "uint32[2]",
          "name": "threshold",
          "type": "uint32[2]"
        },
        {
          "indexed": false,
          "internalType": "uint256",
          "name": "requestBlock",
          "type": "uint256"
        },
        {
          "indexed": false,
          "internalType": "uint256",
          "name": "committeeDeadline",
          "type": "uint256"
        }
      ],
      "name": "CommitteeRequested",
      "type": "event"
    },
    {
      "anonymous": false,
      "inputs": [
        {
          "indexed": true,
          "internalType": "uint256",
          "name": "e3Id",
          "type": "uint256"
        },
        {
          "indexed": false,
          "internalType": "uint256",
          "name": "activeCount",
          "type": "uint256"
        },
        {
          "indexed": false,
          "internalType": "uint256",
          "name": "thresholdM",
          "type": "uint256"
        },
        {
          "indexed": false,
          "internalType": "bool",
          "name": "viable",
          "type": "bool"
        }
      ],
      "name": "CommitteeViabilityUpdated",
      "type": "event"
    },
    {
      "anonymous": false,
      "inputs": [
        {
          "indexed": true,
          "internalType": "address",
          "name": "enclave",
          "type": "address"
        }
      ],
      "name": "EnclaveSet",
      "type": "event"
    },
    {
      "anonymous": false,
      "inputs": [
        {
          "indexed": false,
          "internalType": "uint64",
          "name": "version",
          "type": "uint64"
        }
      ],
      "name": "Initialized",
      "type": "event"
    },
    {
      "anonymous": false,
      "inputs": [
        {
          "indexed": true,
          "internalType": "address",
          "name": "previousOwner",
          "type": "address"
        },
        {
          "indexed": true,
          "internalType": "address",
          "name": "newOwner",
          "type": "address"
        }
      ],
      "name": "OwnershipTransferred",
      "type": "event"
    },
    {
      "anonymous": false,
      "inputs": [
        {
          "indexed": true,
          "internalType": "address",
          "name": "slashingManager",
          "type": "address"
        }
      ],
      "name": "SlashingManagerSet",
      "type": "event"
    },
    {
      "anonymous": false,
      "inputs": [
        {
          "indexed": false,
          "internalType": "uint256",
          "name": "sortitionSubmissionWindow",
          "type": "uint256"
        }
      ],
      "name": "SortitionSubmissionWindowSet",
      "type": "event"
    },
    {
      "anonymous": false,
      "inputs": [
        {
          "indexed": true,
          "internalType": "uint256",
          "name": "e3Id",
          "type": "uint256"
        },
        {
          "indexed": true,
          "internalType": "address",
          "name": "node",
          "type": "address"
        },
        {
          "indexed": false,
          "internalType": "uint256",
          "name": "ticketId",
          "type": "uint256"
        },
        {
          "indexed": false,
          "internalType": "uint256",
          "name": "score",
          "type": "uint256"
        }
      ],
      "name": "TicketSubmitted",
      "type": "event"
    },
    {
      "inputs": [],
      "name": "TREE_DEPTH",
      "outputs": [
        {
          "internalType": "uint8",
          "name": "",
          "type": "uint8"
        }
      ],
      "stateMutability": "view",
      "type": "function"
    },
    {
      "inputs": [
        {
          "internalType": "address",
          "name": "node",
          "type": "address"
        }
      ],
      "name": "addCiphernode",
      "outputs": [],
      "stateMutability": "nonpayable",
      "type": "function"
    },
    {
      "inputs": [],
      "name": "bondingRegistry",
      "outputs": [
        {
          "internalType": "contract IBondingRegistry",
          "name": "",
          "type": "address"
        }
      ],
      "stateMutability": "view",
      "type": "function"
    },
    {
      "inputs": [
        {
          "internalType": "address",
          "name": "node",
          "type": "address"
        }
      ],
      "name": "ciphernodeEnabled",
      "outputs": [
        {
          "internalType": "bool",
          "name": "enabled",
          "type": "bool"
        }
      ],
      "stateMutability": "view",
      "type": "function"
    },
    {
      "inputs": [
        {
          "internalType": "address",
          "name": "node",
          "type": "address"
        }
      ],
      "name": "ciphernodeTreeIndex",
      "outputs": [
        {
          "internalType": "uint40",
          "name": "index",
          "type": "uint40"
        }
      ],
      "stateMutability": "view",
      "type": "function"
    },
    {
      "inputs": [],
      "name": "ciphernodes",
      "outputs": [
        {
          "internalType": "uint40",
          "name": "maxIndex",
          "type": "uint40"
        },
        {
          "internalType": "uint40",
          "name": "numberOfLeaves",
          "type": "uint40"
        }
      ],
      "stateMutability": "view",
      "type": "function"
    },
    {
      "inputs": [
        {
          "internalType": "uint256",
          "name": "e3Id",
          "type": "uint256"
        }
      ],
      "name": "committeePublicKey",
      "outputs": [
        {
          "internalType": "bytes32",
          "name": "publicKeyHash",
          "type": "bytes32"
        }
      ],
      "stateMutability": "view",
      "type": "function"
    },
    {
      "inputs": [],
      "name": "enclave",
      "outputs": [
        {
          "internalType": "contract IEnclave",
          "name": "",
          "type": "address"
        }
      ],
      "stateMutability": "view",
      "type": "function"
    },
    {
      "inputs": [
        {
          "internalType": "uint256",
          "name": "e3Id",
          "type": "uint256"
        },
        {
          "internalType": "address",
          "name": "node",
          "type": "address"
        },
        {
          "internalType": "bytes32",
          "name": "reason",
          "type": "bytes32"
        }
      ],
      "name": "expelCommitteeMember",
      "outputs": [
        {
          "internalType": "uint256",
          "name": "activeCount",
          "type": "uint256"
        },
        {
          "internalType": "uint32",
          "name": "thresholdM",
          "type": "uint32"
        }
      ],
      "stateMutability": "nonpayable",
      "type": "function"
    },
    {
      "inputs": [
        {
          "internalType": "uint256",
          "name": "e3Id",
          "type": "uint256"
        }
      ],
      "name": "finalizeCommittee",
      "outputs": [
        {
          "internalType": "bool",
          "name": "success",
          "type": "bool"
        }
      ],
      "stateMutability": "nonpayable",
      "type": "function"
    },
    {
      "inputs": [
        {
          "internalType": "uint256",
          "name": "e3Id",
          "type": "uint256"
        }
      ],
      "name": "getActiveCommitteeNodes",
      "outputs": [
        {
          "internalType": "address[]",
          "name": "nodes",
          "type": "address[]"
        },
        {
          "internalType": "uint256[]",
          "name": "scores",
          "type": "uint256[]"
        }
      ],
      "stateMutability": "view",
      "type": "function"
    },
    {
      "inputs": [],
      "name": "getBondingRegistry",
      "outputs": [
        {
          "internalType": "address",
          "name": "",
          "type": "address"
        }
      ],
      "stateMutability": "view",
      "type": "function"
    },
    {
      "inputs": [
        {
          "internalType": "uint256",
          "name": "e3Id",
          "type": "uint256"
        }
      ],
      "name": "getCommitteeDeadline",
      "outputs": [
        {
          "internalType": "uint256",
          "name": "",
          "type": "uint256"
        }
      ],
      "stateMutability": "view",
      "type": "function"
    },
    {
      "inputs": [
        {
          "internalType": "uint256",
          "name": "e3Id",
          "type": "uint256"
        }
      ],
      "name": "getCommitteeHash",
      "outputs": [
        {
          "internalType": "bytes32",
          "name": "committeeHash",
          "type": "bytes32"
        }
      ],
      "stateMutability": "view",
      "type": "function"
    },
    {
      "inputs": [
        {
          "internalType": "uint256",
          "name": "e3Id",
          "type": "uint256"
        }
      ],
      "name": "getCommitteeNodes",
      "outputs": [
        {
          "internalType": "address[]",
          "name": "nodes",
          "type": "address[]"
        }
      ],
      "stateMutability": "view",
      "type": "function"
    },
    {
      "inputs": [
        {
          "internalType": "uint256",
          "name": "e3Id",
          "type": "uint256"
        }
      ],
      "name": "getCommitteeViability",
      "outputs": [
        {
          "internalType": "uint256",
          "name": "activeCount",
          "type": "uint256"
        },
        {
          "internalType": "uint32",
          "name": "thresholdM",
          "type": "uint32"
        },
        {
          "internalType": "uint32",
          "name": "thresholdN",
          "type": "uint32"
        },
        {
          "internalType": "bool",
          "name": "viable",
          "type": "bool"
        }
      ],
      "stateMutability": "view",
      "type": "function"
    },
    {
      "inputs": [
        {
          "internalType": "address",
          "name": "_owner",
          "type": "address"
        },
        {
          "internalType": "uint256",
          "name": "_submissionWindow",
          "type": "uint256"
        }
      ],
      "name": "initialize",
      "outputs": [],
      "stateMutability": "nonpayable",
      "type": "function"
    },
    {
      "inputs": [
        {
          "internalType": "address",
          "name": "node",
          "type": "address"
        }
      ],
      "name": "isCiphernodeEligible",
      "outputs": [
        {
          "internalType": "bool",
          "name": "",
          "type": "bool"
        }
      ],
      "stateMutability": "view",
      "type": "function"
    },
    {
      "inputs": [
        {
          "internalType": "uint256",
          "name": "e3Id",
          "type": "uint256"
        },
        {
          "internalType": "address",
          "name": "node",
          "type": "address"
        }
      ],
      "name": "isCommitteeMember",
      "outputs": [
        {
          "internalType": "bool",
          "name": "",
          "type": "bool"
        }
      ],
      "stateMutability": "view",
      "type": "function"
    },
    {
      "inputs": [
        {
          "internalType": "uint256",
          "name": "e3Id",
          "type": "uint256"
        },
        {
          "internalType": "address",
          "name": "node",
          "type": "address"
        }
      ],
      "name": "isCommitteeMemberActive",
      "outputs": [
        {
          "internalType": "bool",
          "name": "",
          "type": "bool"
        }
      ],
      "stateMutability": "view",
      "type": "function"
    },
    {
      "inputs": [
        {
          "internalType": "address",
          "name": "node",
          "type": "address"
        }
      ],
      "name": "isEnabled",
      "outputs": [
        {
          "internalType": "bool",
          "name": "",
          "type": "bool"
        }
      ],
      "stateMutability": "view",
      "type": "function"
    },
    {
      "inputs": [
        {
          "internalType": "uint256",
          "name": "e3Id",
          "type": "uint256"
        }
      ],
      "name": "isOpen",
      "outputs": [
        {
          "internalType": "bool",
          "name": "",
          "type": "bool"
        }
      ],
      "stateMutability": "view",
      "type": "function"
    },
    {
      "inputs": [],
      "name": "numCiphernodes",
      "outputs": [
        {
          "internalType": "uint256",
          "name": "",
          "type": "uint256"
        }
      ],
      "stateMutability": "view",
      "type": "function"
    },
    {
      "inputs": [],
      "name": "owner",
      "outputs": [
        {
          "internalType": "address",
          "name": "",
          "type": "address"
        }
      ],
      "stateMutability": "view",
      "type": "function"
    },
    {
      "inputs": [
        {
          "internalType": "uint256",
          "name": "e3Id",
          "type": "uint256"
        }
      ],
      "name": "publicKeyHashes",
      "outputs": [
        {
          "internalType": "bytes32",
          "name": "publicKeyHash",
          "type": "bytes32"
        }
      ],
      "stateMutability": "view",
      "type": "function"
    },
    {
      "inputs": [
        {
          "internalType": "uint256",
          "name": "e3Id",
          "type": "uint256"
        },
        {
          "internalType": "bytes",
          "name": "publicKey",
          "type": "bytes"
        },
        {
          "internalType": "bytes32",
          "name": "pkCommitment",
          "type": "bytes32"
        },
        {
          "internalType": "bytes",
          "name": "proof",
          "type": "bytes"
        }
      ],
      "name": "publishCommittee",
      "outputs": [],
      "stateMutability": "nonpayable",
      "type": "function"
    },
    {
      "inputs": [
        {
          "internalType": "address",
          "name": "node",
          "type": "address"
        }
      ],
      "name": "removeCiphernode",
      "outputs": [],
      "stateMutability": "nonpayable",
      "type": "function"
    },
    {
      "inputs": [],
      "name": "renounceOwnership",
      "outputs": [],
      "stateMutability": "nonpayable",
      "type": "function"
    },
    {
      "inputs": [
        {
          "internalType": "uint256",
          "name": "e3Id",
          "type": "uint256"
        },
        {
          "internalType": "uint256",
          "name": "seed",
          "type": "uint256"
        },
        {
          "internalType": "uint32[2]",
          "name": "threshold",
          "type": "uint32[2]"
        }
      ],
      "name": "requestCommittee",
      "outputs": [
        {
          "internalType": "bool",
          "name": "success",
          "type": "bool"
        }
      ],
      "stateMutability": "nonpayable",
      "type": "function"
    },
    {
      "inputs": [],
      "name": "root",
      "outputs": [
        {
          "internalType": "uint256",
          "name": "",
          "type": "uint256"
        }
      ],
      "stateMutability": "view",
      "type": "function"
    },
    {
      "inputs": [
        {
          "internalType": "uint256",
          "name": "e3Id",
          "type": "uint256"
        }
      ],
      "name": "rootAt",
      "outputs": [
        {
          "internalType": "uint256",
          "name": "",
          "type": "uint256"
        }
      ],
      "stateMutability": "view",
      "type": "function"
    },
    {
      "inputs": [
        {
          "internalType": "uint256",
          "name": "e3Id",
          "type": "uint256"
        }
      ],
      "name": "roots",
      "outputs": [
        {
          "internalType": "uint256",
          "name": "root",
          "type": "uint256"
        }
      ],
      "stateMutability": "view",
      "type": "function"
    },
    {
      "inputs": [
        {
          "internalType": "contract IBondingRegistry",
          "name": "_bondingRegistry",
          "type": "address"
        }
      ],
      "name": "setBondingRegistry",
      "outputs": [],
      "stateMutability": "nonpayable",
      "type": "function"
    },
    {
      "inputs": [
        {
          "internalType": "contract IEnclave",
          "name": "_enclave",
          "type": "address"
        }
      ],
      "name": "setEnclave",
      "outputs": [],
      "stateMutability": "nonpayable",
      "type": "function"
    },
    {
      "inputs": [
        {
          "internalType": "contract ISlashingManager",
          "name": "_slashingManager",
          "type": "address"
        }
      ],
      "name": "setSlashingManager",
      "outputs": [],
      "stateMutability": "nonpayable",
      "type": "function"
    },
    {
      "inputs": [
        {
          "internalType": "uint256",
          "name": "_sortitionSubmissionWindow",
          "type": "uint256"
        }
      ],
      "name": "setSortitionSubmissionWindow",
      "outputs": [],
      "stateMutability": "nonpayable",
      "type": "function"
    },
    {
      "inputs": [],
      "name": "slashingManager",
      "outputs": [
        {
          "internalType": "contract ISlashingManager",
          "name": "",
          "type": "address"
        }
      ],
      "stateMutability": "view",
      "type": "function"
    },
    {
      "inputs": [],
      "name": "sortitionSubmissionWindow",
      "outputs": [
        {
          "internalType": "uint256",
          "name": "",
          "type": "uint256"
        }
      ],
      "stateMutability": "view",
      "type": "function"
    },
    {
      "inputs": [
        {
          "internalType": "uint256",
          "name": "e3Id",
          "type": "uint256"
        },
        {
          "internalType": "uint256",
          "name": "ticketNumber",
          "type": "uint256"
        }
      ],
      "name": "submitTicket",
      "outputs": [],
      "stateMutability": "nonpayable",
      "type": "function"
    },
    {
      "inputs": [
        {
          "internalType": "address",
          "name": "newOwner",
          "type": "address"
        }
      ],
      "name": "transferOwnership",
      "outputs": [],
      "stateMutability": "nonpayable",
      "type": "function"
    },
    {
      "inputs": [],
      "name": "treeSize",
      "outputs": [
        {
          "internalType": "uint256",
          "name": "",
          "type": "uint256"
        }
      ],
      "stateMutability": "view",
      "type": "function"
    }
  ],
  "bytecode": "0x6080604052348015600e575f5ffd5b5060156019565b60c9565b7ff0c57e16840df040f15088dc2f81fe391c3923bec73e23a9662efc9c229c6a00805468010000000000000000900460ff161560685760405163f92ee8a960e01b815260040160405180910390fd5b80546001600160401b039081161460c65780546001600160401b0319166001600160401b0390811782556040519081527fc7f505b2f371ae2175ee4913f4499e1f2633a7b5936321eed1cdaeb6115181d29060200160405180910390a15b50565b613e01806100d65f395ff3fe608060405234801561000f575f5ffd5b506004361061024a575f3560e01c80639a7a2ffc11610140578063da881e5a116100bf578063ebf0c71711610084578063ebf0c7171461058a578063f165053614610592578063f2fde38b146105ac578063f379b0df146105bf578063f52fd803146105f9578063f6fc05d514610669575f5ffd5b8063da881e5a1461052c578063dbb06c931461053f578063e59e469514610551578063e6745e1314610564578063e82f3b7014610577575f5ffd5b8063c2b40ae411610105578063c2b40ae4146104b7578063c3a0ec30146104d6578063c6b2a438146104e7578063ca2869a0146104fa578063cd6dc68714610519575f5ffd5b80639a7a2ffc1461042c5780639f0f874a14610468578063a016493014610471578063a8a4d69b14610491578063bff232c1146104a4575f5ffd5b806370e36bbe116101cc5780638cb89ecb116101915780638cb89ecb146103c95780638d1ddfb1146103e85780638da5cb5b146103fe5780638e5ce3ad146104065780639015d37114610419575f5ffd5b806370e36bbe1461034e578063715018a6146103615780637c92f5241461036957806385814243146103965780638a78bb15146103b6575f5ffd5b8063291a691b11610212578063291a691b146102d05780632e7b716d146102f35780634d6861a61461030657806350e6d94c146103195780635d5047761461033b575f5ffd5b8063096b810a1461024e578063099a161a146102635780630f3e34121461028957806317d611201461029c5780632800d829146102bd575b5f5ffd5b61026161025c3660046133b3565b610672565b005b6102766102713660046133ce565b6107be565b6040519081526020015b60405180910390f35b6102616102973660046133ce565b6107f7565b6102af6102aa3660046133ce565b61083a565b604051610280929190613458565b6102766102cb3660046133ce565b6109e3565b6102e36102de366004613485565b610a2f565b6040519015158152602001610280565b6102e36103013660046133b3565b610c09565b6102e36103143660046133ce565b610cbc565b6102e36103273660046133b3565b60066020525f908152604090205460ff1681565b6102e36103493660046134be565b610cfb565b61026161035c3660046133b3565b610d3e565b610261610db4565b61037c6103773660046134ec565b610dc7565b6040805192835263ffffffff909116602083015201610280565b6001546103a9906001600160a01b031681565b6040516102809190613521565b6102616103c43660046133b3565b610f6e565b6102766103d73660046133ce565b60096020525f908152604090205481565b600454600160281b900464ffffffffff16610276565b6103a96110ac565b600b546103a9906001600160a01b031681565b6102e36104273660046133b3565b6110da565b61045261043a3660046133b3565b60076020525f908152604090205464ffffffffff1681565b60405164ffffffffff9091168152602001610280565b61027660035481565b61048461047f3660046133ce565b6110f7565b6040516102809190613535565b6102e361049f3660046134be565b61118d565b6102616104b23660046133b3565b6111d0565b6102766104c53660046133ce565b60086020525f908152604090205481565b6001546001600160a01b03166103a9565b6102616104f536600461358b565b611248565b6102766105083660046133ce565b5f9081526008602052604090205490565b61026161052736600461360b565b61153e565b6102e361053a3660046133ce565b61169b565b5f546103a9906001600160a01b031681565b61026161055f3660046133b3565b611975565b610261610572366004613635565b6119ed565b6102766105853660046133ce565b611bb0565b610276611be1565b61059a601481565b60405160ff9091168152602001610280565b6102616105ba3660046133b3565b611bf3565b6004546105db9064ffffffffff80821691600160281b90041682565b6040805164ffffffffff938416815292909116602083015201610280565b61063a6106073660046133ce565b5f908152600a60205260409020600b810154600590910154909163ffffffff80831692600160201b900416908284101590565b604051610280949392919093845263ffffffff9283166020850152911660408301521515606082015260800190565b61027660025481565b61067a6110ac565b6001600160a01b0316336001600160a01b031614806106a357506001546001600160a01b031633145b6106c057604051632864c4e160e01b815260040160405180910390fd5b6106c9816110da565b81906106f2576040516381e5828960e01b81526004016106e99190613521565b60405180910390fd5b506001600160a01b0381165f9081526007602052604081205464ffffffffff16906107209060049083611c2d565b6001600160a01b0382165f908152600660205260408120805460ff19169055600280549161074d83613669565b90915550506002546004546040805164ffffffffff80861682526020820194909452600160281b909204909216918101919091526001600160a01b038316907f8c008e3835f6c79bfcdb89f0f6ca8705e0b01049ee84a90b0e4da1c7ba9405d5906060015b60405180910390a25050565b5f818152600a6020526040812060048101546107ed576040516322e679e360e11b815260040160405180910390fd5b6007015492915050565b6107ff611ecf565b60038190556040518181527fbe772dc189863d512fa01e489c8eac204975aef1a8662d8b5a333804b5207ab79060200160405180910390a150565b5f818152600a602052604090206006810154600b82015460609283929091806001600160401b038111156108705761087061367e565b604051908082528060200260200182016040528015610899578160200160208202803683370190505b509450806001600160401b038111156108b4576108b461367e565b6040519080825280602002602001820160405280156108dd578160200160208202803683370190505b5093505f805b838110156109d9575f85600601828154811061090157610901613692565b5f918252602090912001546001600160a01b0316905060016001600160a01b0382165f908152600a8801602052604090205460ff166002811115610947576109476136a6565b036109d0578088848151811061095f5761095f613692565b60200260200101906001600160a01b031690816001600160a01b031681525050856009015f826001600160a01b03166001600160a01b031681526020019081526020015f20548784815181106109b7576109b7613692565b6020908102919091010152826109cc816136ba565b9350505b506001016108e3565b5050505050915091565b5f818152600a6020526040812081815460ff166003811115610a0757610a076136a6565b03610a2557604051630d4c1d9760e41b815260040160405180910390fd5b6003015492915050565b5f80546001600160a01b03163314610a5a5760405163e4c2a7eb60e01b815260040160405180910390fd5b5f848152600a6020526040812090815460ff166003811115610a7e57610a7e6136a6565b14610a9c576040516374ff462560e11b815260040160405180910390fd5b60015460408051630cc37d8f60e11b815290515f926001600160a01b031691631986fb1e9160048083019260209291908290030181865afa158015610ae3573d5f5f3e3d5ffd5b505050506040513d601f19601f82011682018060405250810190610b0791906136d2565b905080610b1a60408601602087016136fc565b63ffffffff161115610b3260408601602087016136fc565b829091610b60576040516344ec930f60e01b815263ffffffff909216600483015260248201526044016106e9565b5050815460ff1916600190811783558201859055436002830155600354610b879042613715565b6003830155610b9b600583018560026132ea565b50610ba4611be1565b5f87815260086020526040908190209190915560028301546003840154915188927f381d281d32f95ef8fe4e5f3b263ea6a32d03d331e1a141ae1da996dc02a7a17092610bf5928a928a9291613728565b60405180910390a250600195945050505050565b5f610c13826110da565b610c1e57505f919050565b6001546001600160a01b0316610c47576040516350ca893360e01b815260040160405180910390fd5b600154604051639f8a13d760e01b81526001600160a01b0390911690639f8a13d790610c77908590600401613521565b602060405180830381865afa158015610c92573d5f5f3e3d5ffd5b505050506040513d601f19601f82011682018060405250810190610cb69190613787565b92915050565b5f818152600a602052604081206001815460ff166003811115610ce157610ce16136a6565b14610cee57505f92915050565b6003015442111592915050565b5f60015f848152600a602081815260408084206001600160a01b0388168552909201905290205460ff166002811115610d3657610d366136a6565b149392505050565b610d46611ecf565b6001600160a01b038116610d6d5760405163d92e233d60e01b815260040160405180910390fd5b5f80546001600160a01b0319166001600160a01b038316908117825560405190917f2c8267accd82e977550ed2349c73311183cd22e306347be4453c8d130995e3c991a250565b610dbc611ecf565b610dc55f611f01565b565b600b545f9081906001600160a01b03163314610df65760405163fcef374960e01b815260040160405180910390fd5b5f858152600a602052604090206002815460ff166003811115610e1b57610e1b6136a6565b14610e3957604051634f4b461f60e11b815260040160405180910390fd5b60058101546001600160a01b0386165f908152600a8301602052604090205463ffffffff909116925060019060ff166002811115610e7957610e796136a6565b14610e8957600b01549150610f66565b6001600160a01b0385165f908152600a820160205260408120805460ff19166002179055600b8201805491610ebd83613669565b919050555080600b01549250846001600160a01b0316867f6c783b92374361b4d6efaf29673b89437ee969bb3c9d2d5d86b143ad5447b8498686604051610f0e929190918252602082015260400190565b60405180910390a36040805184815263ffffffff84166020820181905285101591810182905287907f119cb11dd0a68c257d6dc9b06dcb37dd422ce276eb8bf3cd0b7079a116b8e2989060600160405180910390a250505b935093915050565b610f766110ac565b6001600160a01b0316336001600160a01b03161480610f9f57506001546001600160a01b031633145b610fbc57604051632864c4e160e01b815260040160405180910390fd5b610fc5816110da565b6110a95760048054600160281b900464ffffffffff1690610fef906001600160a01b038416611f71565b6001600160a01b0382165f908152600660209081526040808320805460ff1916600117905560079091528120805464ffffffffff841664ffffffffff199091161790556002805491611040836136ba565b90915550506002546004546040805164ffffffffff80861682526020820194909452600160281b909204909216918101919091526001600160a01b038316907f3318d261fe14a5761d2d1e21555652f623d2134c430a9883c9ad6e958bb0db53906060016107b2565b50565b7f9016d09d72d40fdae2fd8ceac6b6234c7706214fd39c1cd1e609a0528c199300546001600160a01b031690565b6001600160a01b03165f9081526006602052604090205460ff1690565b5f818152600a6020526040902060048101546060919061112a576040516322e679e360e11b815260040160405180910390fd5b8060060180548060200260200160405190810160405280929190818152602001828054801561118057602002820191905f5260205f20905b81546001600160a01b03168152600190910190602001808311611162575b5050505050915050919050565b5f805f848152600a602081815260408084206001600160a01b0388168552909201905290205460ff1660028111156111c7576111c76136a6565b14159392505050565b6111d8611ecf565b6001600160a01b0381166111ff5760405163d92e233d60e01b815260040160405180910390fd5b600b80546001600160a01b0319166001600160a01b0383169081179091556040517f4ccc8ed483c7c44c3602c3c38afc2c014a8f1d2dc210dfe58ebeeeead230f8e0905f90a250565b5f868152600a602052604090206002815460ff16600381111561126d5761126d6136a6565b1461128b57604051634f4b461f60e11b815260040160405180910390fd5b6004810154156112ae5760405163632a22bb60e01b815260040160405180910390fd5b836112f35760405162461bcd60e51b81526020600482015260156024820152741c1ad0dbdb5b5a5d1b595b9d081c995c5d5a5c9959605a1b60448201526064016106e9565b5f61130082600601612147565b600783018190555f805460405163101bb4d760e21b8152600481018c905292935090916001600160a01b039091169063406ed35c906024015f60405180830381865afa158015611352573d5f5f3e3d5ffd5b505050506040513d5f823e601f3d908101601f1916820160405261137991908101906138e7565b9050806101c001511561147a57836113c45760405162461bcd60e51b815260206004820152600e60248201526d1c1c9bdbd9881c995c5d5a5c995960921b60448201526064016106e9565b8061012001516001600160a01b031663de12c640878488886040518563ffffffff1660e01b81526004016113fb9493929190613a6d565b602060405180830381865afa158015611416573d5f5f3e3d5ffd5b505050506040513d601f19601f8201168201806040525081019061143a9190613787565b61147a5760405162461bcd60e51b815260206004820152601160248201527024b73b30b634b2102225a390383937b7b360791b60448201526064016106e9565b60048381018790555f8a815260096020526040808220899055905490516340a3b76160e11b81529182018b9052602482018890526001600160a01b0316906381476ec2906044015f604051808303815f87803b1580156114d8575f5ffd5b505af11580156114ea573d5f5f3e3d5ffd5b50505050887fbf0636a312095f6c09c909823813b50e392323588d2d83432e7512c64041e67f846006018a8a8a8a8a60405161152b96959493929190613ad2565b60405180910390a2505050505050505050565b5f6115476121a8565b805490915060ff600160401b82041615906001600160401b03165f8115801561156d5750825b90505f826001600160401b031660011480156115885750303b155b905081158015611596575080155b156115b45760405163f92ee8a960e01b815260040160405180910390fd5b845467ffffffffffffffff1916600117855583156115de57845460ff60401b1916600160401b1785555b6001600160a01b0387166116055760405163d92e233d60e01b815260040160405180910390fd5b61160e336121d0565b61161a600460146121e1565b611623866107f7565b61162b6110ac565b6001600160a01b0316876001600160a01b03161461164c5761164c87611bf3565b831561169257845460ff60401b19168555604051600181527fc7f505b2f371ae2175ee4913f4499e1f2633a7b5936321eed1cdaeb6115181d29060200160405180910390a15b50505050505050565b5f818152600a6020526040812081815460ff1660038111156116bf576116bf6136a6565b036116dd57604051630d4c1d9760e41b815260040160405180910390fd5b6001815460ff1660038111156116f5576116f56136a6565b1461171357604051631860f69960e31b815260040160405180910390fd5b8060030154421161173757604051632f021e8d60e11b815260040160405180910390fd5b60058101546006820154600160201b90910463ffffffff1611158061181c578154600360ff199091161782556006820154600583015460408051928352600160201b90910463ffffffff16602083015285917fecc4a9fb7e28d074cba7f5b227e9b5827823c850a385539b9a2f98a08f8c203d910160405180910390a25f54604051635d968dc160e11b815260048101869052600260248201526001600160a01b039091169063bb2d1b82906044015f604051808303815f87803b1580156117fd575f5ffd5b505af115801561180f573d5f5f3e3d5ffd5b505f979650505050505050565b815460ff191660021782556006820154600b83018190555f816001600160401b0381111561184c5761184c61367e565b604051908082528060200260200182016040528015611875578160200160208202803683370190505b5090505f5b828110156118e757846009015f86600601838154811061189c5761189c613692565b5f9182526020808320909101546001600160a01b0316835282019290925260400190205482518390839081106118d4576118d4613692565b602090810291909101015260010161187a565b505f54604051631f3ea75d60e21b8152600481018890526001600160a01b0390911690637cfa9d74906024015f604051808303815f87803b15801561192a575f5ffd5b505af115801561193c573d5f5f3e3d5ffd5b50505050857f4f1f5b329c741a8ba15e9645e301061294d0c1fdd455448ffd5e76ff255929d78560060183604051610bf5929190613b1f565b61197d611ecf565b6001600160a01b0381166119a45760405163d92e233d60e01b815260040160405180910390fd5b600180546001600160a01b0319166001600160a01b0383169081179091556040517fad4055f18cdad6f4bdd71afe3a72cbeee964217943e1bde38f138289e981a9a7905f90a250565b5f828152600a6020526040812090815460ff166003811115611a1157611a116136a6565b03611a2f57604051630d4c1d9760e41b815260040160405180910390fd5b6001815460ff166003811115611a4757611a476136a6565b14611a6557604051631860f69960e31b815260040160405180910390fd5b8060030154421115611a8a57604051639a19114d60e01b815260040160405180910390fd5b335f90815260088201602052604090205460ff1615611abc5760405163257309f160e11b815260040160405180910390fd5b611ac533610c09565b611ae25760405163149fbcfd60e11b815260040160405180910390fd5b611aed338385612260565b6001810154604080516bffffffffffffffffffffffff193360601b16602080830191909152603482018690526054820187905260748083019490945282518083039094018452609490910190915281519101205f90335f8181526008850160205260409020805460ff19166001179055909150611b6c90839083612431565b506040805184815260208101839052339186917f52999628fb1cb05707e842278833b22e511f11746202cecdf221968b0b89e8bd910160405180910390a350505050565b5f8181526009602052604090205480611bdc576040516322e679e360e11b815260040160405180910390fd5b919050565b5f611bee60046014612632565b905090565b611bfb611ecf565b6001600160a01b038116611c24575f604051631e4fbdf760e01b81526004016106e99190613521565b6110a981611f01565b7f30644e72e131a029b85045b68181585d2833e84879b9709143e1f593f00000018210611c6c5760405162461bcd60e51b81526004016106e990613b31565b825464ffffffffff600160281b90910481169082168111611cca5760405162461bcd60e51b815260206004820152601860248201527713185e9e5253550e881b195859881b5d5cdd08195e1a5cdd60421b60448201526064016106e9565b825f5b81866001015f611cdd848861272b565b64ffffffffff1681526020019081526020015f20819055505f816001611d039190613b7b565b60ff168464ffffffffff16901c64ffffffffff16905060018564ffffffffff16901c64ffffffffff168111611d385750611ec7565b600185165f03611dff575f611d5783611d52886001613b94565b61272b565b60408051808201825286815264ffffffffff83165f90815260018c0160209081529083902054908201529051632b0aac7f60e11b815291925073__$078c82ddf6c95d34ea184ef1dd6130d136$__9163561558fe91611db891600401613bb1565b602060405180830381865af4158015611dd3573d5f5f3e3d5ffd5b505050506040513d601f19601f82011682018060405250810190611df791906136d2565b935050611eb3565b5f611e0f83611d52600189613be1565b60408051808201825264ffffffffff83165f90815260018c0160209081529083902054825281018790529051632b0aac7f60e11b815291925073__$078c82ddf6c95d34ea184ef1dd6130d136$__9163561558fe91611e7091600401613bb1565b602060405180830381865af4158015611e8b573d5f5f3e3d5ffd5b505050506040513d601f19601f82011682018060405250810190611eaf91906136d2565b9350505b50647fffffffff600194851c169301611ccd565b505050505050565b33611ed86110ac565b6001600160a01b031614610dc5573360405163118cdaa760e01b81526004016106e99190613521565b7f9016d09d72d40fdae2fd8ceac6b6234c7706214fd39c1cd1e609a0528c19930080546001600160a01b031981166001600160a01b03848116918217845560405192169182907f8be0079c531659141344cd1fd0a4f28419497f9722a3daafe3b4186f6b6457e0905f90a3505050565b8154600160281b900464ffffffffff167f30644e72e131a029b85045b68181585d2833e84879b9709143e1f593f00000018210611fc05760405162461bcd60e51b81526004016106e990613b31565b825464ffffffffff908116908216106120135760405162461bcd60e51b815260206004820152601560248201527413185e9e5253550e881d1c9959481a5cc8199d5b1b605a1b60448201526064016106e9565b61201e816001613b94565b835464ffffffffff91909116600160281b0269ffffffffff000000000019909116178355815f5b81856001015f612055848761272b565b64ffffffffff16815260208101919091526040015f20556001831615612140575f61208582611d52600187613be1565b60408051808201825264ffffffffff83165f90815260018a0160209081529083902054825281018690529051632b0aac7f60e11b815291925073__$078c82ddf6c95d34ea184ef1dd6130d136$__9163561558fe916120e691600401613bb1565b602060405180830381865af4158015612101573d5f5f3e3d5ffd5b505050506040513d601f19601f8201168201806040525081019061212591906136d2565b647fffffffff600195861c1694909350919091019050612045565b5050505050565b5f610cb68280548060200260200160405190810160405280929190818152602001828054801561219e57602002820191905f5260205f20905b81546001600160a01b03168152600190910190602001808311612180575b5050505050612748565b5f807ff0c57e16840df040f15088dc2f81fe391c3923bec73e23a9662efc9c229c6a00610cb6565b6121d8612777565b6110a98161279c565b602060ff8216111561222f5760405162461bcd60e51b81526020600482015260176024820152764c617a79494d543a205472656520746f6f206c6172676560481b60448201526064016106e9565b612240600160ff831681901b613bfe565b825469ffffffffffffffffffff191664ffffffffff919091161790915550565b5f82116122805760405163aeaddff160e01b815260040160405180910390fd5b6001546001600160a01b03166122a9576040516350ca893360e01b815260040160405180910390fd5b5f818152600a602052604081206001805460028301549293926001600160a01b039091169163bb03bd719188916122df91613bfe565b6040516001600160e01b031960e085901b1681526001600160a01b0390921660048301526024820152604401602060405180830381865afa158015612326573d5f5f3e3d5ffd5b505050506040513d601f19601f8201168201806040525081019061234a91906136d2565b90505f60015f9054906101000a90046001600160a01b03166001600160a01b0316631209b1f66040518163ffffffff1660e01b8152600401602060405180830381865afa15801561239d573d5f5f3e3d5ffd5b505050506040513d601f19601f820116820180604052508101906123c191906136d2565b90505f81116123e35760405163aeaddff160e01b815260040160405180910390fd5b5f6123ee8284613c11565b90505f81116124105760405163149fbcfd60e11b815260040160405180910390fd5b808611156116925760405163aeaddff160e01b815260040160405180910390fd5b60058301546006840180545f92600160201b900463ffffffff16908111156124af57508054600180820183555f928352602080842090920180546001600160a01b0319166001600160a01b03881690811790915583526009870182526040808420869055600a88019092529120805460ff191682179055905061262b565b5f5f90505f876009015f855f815481106124cb576124cb613692565b5f9182526020808320909101546001600160a01b03168352820192909252604001902054905060015b8454811015612553575f896009015f87848154811061251557612515613692565b5f9182526020808320909101546001600160a01b0316835282019290925260400190205490508281111561254a578092508193505b506001016124f4565b50808610612567575f94505050505061262b565b5f88600a015f86858154811061257f5761257f613692565b5f9182526020808320909101546001600160a01b031683528201929092526040019020805460ff191660018360028111156125bc576125bc6136a6565b0217905550868483815481106125d4576125d4613692565b5f91825260208083209190910180546001600160a01b0319166001600160a01b03948516179055918916815260098a0182526040808220899055600a8b0190925220805460ff191660019081179091559450505050505b9392505050565b5f5f8260ff16116126855760405162461bcd60e51b815260206004820152601a60248201527f4c617a79494d543a206465707468206d757374206265203e203000000000000060448201526064016106e9565b602060ff831611156126a95760405162461bcd60e51b81526004016106e990613c30565b8254600160281b900464ffffffffff16806126c860ff85166002613d81565b64ffffffffff1610156127185760405162461bcd60e51b8152602060048201526018602482015277098c2f4f2929aa87440c2dac4d2ceeadeeae640c8cae0e8d60431b60448201526064016106e9565b6127238482856127a4565b949350505050565b5f8161273e60ff851663ffffffff613d9a565b61262b9190613b94565b5f8160405160200161275a9190613dc1565b604051602081830303815290604052805190602001209050919050565b61277f61286c565b610dc557604051631afcd79f60e31b815260040160405180910390fd5b611bfb612777565b5f602060ff831611156127c95760405162461bcd60e51b81526004016106e990613c30565b8264ffffffffff165f036127e7576127e082612885565b905061262b565b5f6127f3836001613b7b565b60ff166001600160401b0381111561280d5761280d61367e565b604051908082528060200260200182016040528015612836578160200160208202803683370190505b50905061284585858584612f1f565b808360ff168151811061285a5761285a613692565b60200260200101519150509392505050565b5f6128756121a8565b54600160401b900460ff16919050565b5f8160ff165f0361289757505f919050565b8160ff166001036128c957507f2098f5fb9e239eab3ceac3f27b81e481dc3124d55ffed523a839ee8446b64864919050565b8160ff166002036128fb57507f1069673dcdb12263df301a6ff584a7ec261a44cb9dc68df067a4774460b1f1e1919050565b8160ff1660030361292d57507f18f43331537ee2af2e3d758d50f72106467c6eea50371dd528d57eb2b856d238919050565b8160ff1660040361295f57507f07f9d837cb17b0d36320ffe93ba52345f1b728571a568265caac97559dbc952a919050565b8160ff1660050361299157507f2b94cf5e8746b3f5c9631f4c5df32907a699c58c94b2ad4d7b5cec1639183f55919050565b8160ff166006036129c357507f2dee93c5a666459646ea7d22cca9e1bcfed71e6951b953611d11dda32ea09d78919050565b8160ff166007036129f557507f078295e5a22b84e982cf601eb639597b8b0515a88cb5ac7fa8a4aabe3c87349d919050565b8160ff16600803612a2757507f2fa5e5f18f6027a6501bec864564472a616b2e274a41211a444cbe3a99f3cc61919050565b8160ff16600903612a5957507f0e884376d0d8fd21ecb780389e941f66e45e7acce3e228ab3e2156a614fcd747919050565b8160ff16600a03612a8b57507f1b7201da72494f1e28717ad1a52eb469f95892f957713533de6175e5da190af2919050565b8160ff16600b03612abd57507f1f8d8822725e36385200c0b201249819a6e6e1e4650808b5bebc6bface7d7636919050565b8160ff16600c03612aef57507f2c5d82f66c914bafb9701589ba8cfcfb6162b0a12acf88a8d0879a0471b5f85a919050565b8160ff16600d03612b2157507f14c54148a0940bb820957f5adf3fa1134ef5c4aaa113f4646458f270e0bfbfd0919050565b8160ff16600e03612b5357507f190d33b12f986f961e10c0ee44d8b9af11be25588cad89d416118e4bf4ebe80c919050565b8160ff16600f03612b8557507f22f98aa9ce704152ac17354914ad73ed1167ae6596af510aa5b3649325e06c92919050565b8160ff16601003612bb757507f2a7c7c9b6ce5880b9f6f228d72bf6a575a526f29c66ecceef8b753d38bba7323919050565b8160ff16601103612be957507f2e8186e558698ec1c67af9c14d463ffc470043c9c2988b954d75dd643f36b992919050565b8160ff16601203612c1b57507f0f57c5571e9a4eab49e2c8cf050dae948aef6ead647392273546249d1c1ff10f919050565b8160ff16601303612c4d57507f1830ee67b5fb554ad5f63d4388800e1cfe78e310697d46e43c9ce36134f72cca919050565b8160ff16601403612c7f57507f2134e76ac5d21aab186c2be1dd8f84ee880a1e46eaf712f9d371b6df22191f3e919050565b8160ff16601503612cb157507f19df90ec844ebc4ffeebd866f33859b0c051d8c958ee3aa88f8f8df3db91a5b1919050565b8160ff16601603612ce357507f18cca2a66b5c0787981e69aefd84852d74af0e93ef4912b4648c05f722efe52b919050565b8160ff16601703612d1557507f2388909415230d1b4d1304d2d54f473a628338f2efad83fadf05644549d2538d919050565b8160ff16601803612d4757507f27171fb4a97b6cc0e9e8f543b5294de866a2af2c9c8d0b1d96e673e4529ed540919050565b8160ff16601903612d7957507f2ff6650540f629fd5711a0bc74fc0d28dcb230b9392583e5f8d59696dde6ae21919050565b8160ff16601a03612dab57507f120c58f143d491e95902f7f5277778a2e0ad5168f6add75669932630ce611518919050565b8160ff16601b03612ddd57507f1f21feb70d3f21b07bf853d5e5db03071ec495a0a565a21da2d665d279483795919050565b8160ff16601c03612e0f57507f24be905fa71335e14c638cc0f66a8623a826e768068a9e968bb1a1dde18a72d2919050565b8160ff16601d03612e4157507f0f8666b62ed17491c50ceadead57d4cd597ef3821d65c328744c74e553dac26d919050565b8160ff16601e03612e7357507f0918d46bf52d98b034413f4a1a1c41594e7a7a3f6ae08cb43d1a2a230e1959ef919050565b8160ff16601f03612ea557507f1bbeb01b4c479ecde76917645e404dfa2e26f90d0afc5a65128513ad375c5ff2919050565b8160ff16602003612ed757507f2f68a1c58e257e42a17a6c61dff5551ed560b9922ab119d5ac8e184c9734ead9919050565b60405162461bcd60e51b815260206004820152601e60248201527f4c617a79494d543a2064656661756c745a65726f2062616420696e646578000060448201526064016106e9565b602060ff83161115612f435760405162461bcd60e51b81526004016106e990613c30565b5f8364ffffffffff1611612fa75760405162461bcd60e51b815260206004820152602560248201527f4c617a79494d543a206e756d626572206f66206c6561766573206d7573742062604482015264065203e20360dc1b60648201526084016106e9565b5f612fb3600185613be1565b9050600181165f0361300657846001015f612fce5f8461272b565b64ffffffffff1681526020019081526020015f2054825f81518110612ff557612ff5613692565b60200260200101818152505061302e565b61300f5f612885565b825f8151811061302157613021613692565b6020026020010181815250505b5f5b8360ff168160ff161015611ec757600182165f036131265773__$078c82ddf6c95d34ea184ef1dd6130d136$__63561558fe6040518060400160405280868560ff168151811061308257613082613692565b6020026020010151815260200161309885612885565b8152506040518263ffffffff1660e01b81526004016130b79190613bb1565b602060405180830381865af41580156130d2573d5f5f3e3d5ffd5b505050506040513d601f19601f820116820180604052508101906130f691906136d2565b83613102836001613b7b565b60ff168151811061311557613115613692565b6020026020010181815250506132d7565b5f613132826001613b7b565b60ff168664ffffffffff16901c64ffffffffff16905060018364ffffffffff16901c64ffffffffff168111156131d4575f876001015f6131898560016131789190613b7b565b60018864ffffffffff16901c61272b565b64ffffffffff1681526020019081526020015f2054905080858460016131af9190613b7b565b60ff16815181106131c2576131c2613692565b602002602001018181525050506132d5565b5f876001015f6131eb85600188611d529190613be1565b64ffffffffff1681526020019081526020015f2054905073__$078c82ddf6c95d34ea184ef1dd6130d136$__63561558fe6040518060400160405280848152602001888760ff168151811061324257613242613692565b60200260200101518152506040518263ffffffff1660e01b81526004016132699190613bb1565b602060405180830381865af4158015613284573d5f5f3e3d5ffd5b505050506040513d601f19601f820116820180604052508101906132a891906136d2565b856132b4856001613b7b565b60ff16815181106132c7576132c7613692565b602002602001018181525050505b505b647fffffffff600192831c169101613030565b60018301918390821561337b579160200282015f5b8382111561334957833563ffffffff1683826101000a81548163ffffffff021916908363ffffffff16021790555092602001926004016020816003010492830192600103026132ff565b80156133795782816101000a81549063ffffffff0219169055600401602081600301049283019260010302613349565b505b5061338792915061338b565b5090565b5b80821115613387575f815560010161338c565b6001600160a01b03811681146110a9575f5ffd5b5f602082840312156133c3575f5ffd5b813561262b8161339f565b5f602082840312156133de575f5ffd5b5035919050565b5f8151808452602084019350602083015f5b8281101561341e5781516001600160a01b03168652602095860195909101906001016133f7565b5093949350505050565b5f8151808452602084019350602083015f5b8281101561341e57815186526020958601959091019060010161343a565b604081525f61346a60408301856133e5565b828103602084015261347c8185613428565b95945050505050565b5f5f5f60808486031215613497575f5ffd5b8335925060208401359150608084018510156134b1575f5ffd5b6040840190509250925092565b5f5f604083850312156134cf575f5ffd5b8235915060208301356134e18161339f565b809150509250929050565b5f5f5f606084860312156134fe575f5ffd5b8335925060208401356135108161339f565b929592945050506040919091013590565b6001600160a01b0391909116815260200190565b602081525f61262b60208301846133e5565b5f5f83601f840112613557575f5ffd5b5081356001600160401b0381111561356d575f5ffd5b602083019150836020828501011115613584575f5ffd5b9250929050565b5f5f5f5f5f5f608087890312156135a0575f5ffd5b8635955060208701356001600160401b038111156135bc575f5ffd5b6135c889828a01613547565b9096509450506040870135925060608701356001600160401b038111156135ed575f5ffd5b6135f989828a01613547565b979a9699509497509295939492505050565b5f5f6040838503121561361c575f5ffd5b82356136278161339f565b946020939093013593505050565b5f5f60408385031215613646575f5ffd5b50508035926020909101359150565b634e487b7160e01b5f52601160045260245ffd5b5f8161367757613677613655565b505f190190565b634e487b7160e01b5f52604160045260245ffd5b634e487b7160e01b5f52603260045260245ffd5b634e487b7160e01b5f52602160045260245ffd5b5f600182016136cb576136cb613655565b5060010190565b5f602082840312156136e2575f5ffd5b5051919050565b803563ffffffff81168114611bdc575f5ffd5b5f6020828403121561370c575f5ffd5b61262b826136e9565b80820180821115610cb657610cb6613655565b84815260a0810160208201855f5b60028110156137635763ffffffff61374d836136e9565b1683526020928301929190910190600101613736565b50505060608201939093526080015292915050565b80518015158114611bdc575f5ffd5b5f60208284031215613797575f5ffd5b61262b82613778565b6040516101e081016001600160401b03811182821017156137c3576137c361367e565b60405290565b805160048110611bdc575f5ffd5b5f82601f8301126137e6575f5ffd5b604080519081016001600160401b03811182821017156138085761380861367e565b806040525080604084018581111561381e575f5ffd5b845b81811015613838578051835260209283019201613820565b509195945050505050565b8051611bdc8161339f565b805160ff81168114611bdc575f5ffd5b5f82601f83011261386d575f5ffd5b81516001600160401b038111156138865761388661367e565b604051601f8201601f19908116603f011681016001600160401b03811182821017156138b4576138b461367e565b6040528181528382016020018510156138cb575f5ffd5b8160208501602083015e5f918101602001919091529392505050565b5f602082840312156138f7575f5ffd5b81516001600160401b0381111561390c575f5ffd5b8201610200818503121561391e575f5ffd5b6139266137a0565b81518152613936602083016137c9565b60208201526040828101519082015261395285606084016137d7565b606082015260a0820151608082015261396d60c08301613843565b60a082015261397e60e0830161384e565b60c08201526101008201516001600160401b0381111561399c575f5ffd5b6139a88682850161385e565b60e0830152506139bb6101208301613843565b6101008201526139ce6101408301613843565b61012082015261016082810151610140830152610180830151908201526101a08201516001600160401b03811115613a04575f5ffd5b613a108682850161385e565b61018083015250613a246101c08301613843565b6101a0820152613a376101e08301613778565b6101c0820152949350505050565b81835281816020850137505f828201602090810191909152601f909101601f19169091010190565b848152836020820152606060408201525f613a8c606083018486613a45565b9695505050505050565b5f8154808452602084019350825f5260205f205f5b8281101561341e5781546001600160a01b0316865260209095019460019182019101613aab565b608081525f613ae46080830189613a96565b8281036020840152613af781888a613a45565b90508560408401528281036060840152613b12818587613a45565b9998505050505050505050565b604081525f61346a6040830185613a96565b6020808252602a908201527f4c617a79494d543a206c656166206d757374206265203c20534e41524b5f53436040820152691053105497d19251531160b21b606082015260800190565b60ff8181168382160190811115610cb657610cb6613655565b64ffffffffff8181168382160190811115610cb657610cb6613655565b6040810181835f5b6002811015613bd8578151835260209283019290910190600101613bb9565b50505092915050565b64ffffffffff8281168282160390811115610cb657610cb6613655565b81810381811115610cb657610cb6613655565b5f82613c2b57634e487b7160e01b5f52601260045260245ffd5b500490565b60208082526023908201527f4c617a79494d543a206465707468206d757374206265203c3d204d41585f44456040820152620a0a8960eb1b606082015260800190565b6001815b6001841115610f6657808504811115613c9257613c92613655565b6001841615613ca057908102905b60019390931c928002613c77565b5f82613cbc57506001610cb6565b81613cc857505f610cb6565b8160018114613cde5760028114613ce857613d1a565b6001915050610cb6565b60ff841115613cf957613cf9613655565b6001841b915064ffffffffff821115613d1457613d14613655565b50610cb6565b5060208310610133831016604e8410600b8410161715613d52575081810a64ffffffffff811115613d4d57613d4d613655565b610cb6565b613d6264ffffffffff8484613c73565b8064ffffffffff04821115613d7957613d79613655565b029392505050565b5f61262b64ffffffffff841664ffffffffff8416613cae565b64ffffffffff8181168382160290811690818114613dba57613dba613655565b5092915050565b81515f90829060208501835b828110156138385781516001600160a01b0316845260209384019390910190600101613dcd56fea164736f6c634300081c000a",
  "linkReferences": {
    "npm/poseidon-solidity@0.0.5/PoseidonT3.sol": {
      "PoseidonT3": [
        {
          "length": 20,
          "start": 7784
        },
        {
          "length": 20,
          "start": 7968
        },
        {
          "length": 20,
          "start": 8598
        },
        {
          "length": 20,
          "start": 12576
        },
        {
          "length": 20,
          "start": 13018
        }
      ]
    }
  },
  "deployedLinkReferences": {
    "npm/poseidon-solidity@0.0.5/PoseidonT3.sol": {
      "PoseidonT3": [
        {
          "length": 20,
          "start": 7570
        },
        {
          "length": 20,
          "start": 7754
        },
        {
          "length": 20,
          "start": 8384
        },
        {
          "length": 20,
          "start": 12362
        },
        {
          "length": 20,
          "start": 12804
        }
      ]
    }
  },
  "immutableReferences": {},
  "inputSourceName": "project/contracts/registry/CiphernodeRegistryOwnable.sol",
  "buildInfoId": "solc-0_8_28-e33d1cfedc69d8ad74eec5a84c8ef358a020ec1a"
}