{
  "_format": "hh3-artifact-1",
  "contractName": "CiphernodeRegistryOwnable",
  "sourceName": "contracts/registry/CiphernodeRegistryOwnable.sol",
  "abi": [
    {
      "inputs": [],
      "stateMutability": "nonpayable",
      "type": "constructor"
    },
    {
      "inputs": [],
      "name": "AttestationBindingCountMismatch",
      "type": "error"
    },
    {
      "inputs": [],
      "name": "BondingRegistryNotSet",
      "type": "error"
    },
    {
      "inputs": [
        {
          "internalType": "address",
          "name": "node",
          "type": "address"
        }
      ],
      "name": "CiphernodeNotEnabled",
      "type": "error"
    },
    {
      "inputs": [],
      "name": "CommitteeAlreadyFinalized",
      "type": "error"
    },
    {
      "inputs": [],
      "name": "CommitteeAlreadyPublished",
      "type": "error"
    },
    {
      "inputs": [],
      "name": "CommitteeAlreadyRequested",
      "type": "error"
    },
    {
      "inputs": [],
      "name": "CommitteeDeadlineReached",
      "type": "error"
    },
    {
      "inputs": [],
      "name": "CommitteeNotFinalized",
      "type": "error"
    },
    {
      "inputs": [],
      "name": "CommitteeNotInitializedOrFinalized",
      "type": "error"
    },
    {
      "inputs": [],
      "name": "CommitteeNotPublished",
      "type": "error"
    },
    {
      "inputs": [],
      "name": "CommitteeNotRequested",
      "type": "error"
    },
    {
      "inputs": [],
      "name": "DkgProofRequired",
      "type": "error"
    },
    {
      "inputs": [],
      "name": "FoldAttestationVerifierNotSet",
      "type": "error"
    },
    {
      "inputs": [],
      "name": "FoldAttestationsRequired",
      "type": "error"
    },
    {
      "inputs": [
        {
          "internalType": "uint256",
          "name": "requested",
          "type": "uint256"
        },
        {
          "internalType": "uint256",
          "name": "available",
          "type": "uint256"
        }
      ],
      "name": "InsufficientCiphernodes",
      "type": "error"
    },
    {
      "inputs": [],
      "name": "InvalidDkgProof",
      "type": "error"
    },
    {
      "inputs": [],
      "name": "InvalidFoldAttestation",
      "type": "error"
    },
    {
      "inputs": [],
      "name": "InvalidInitialization",
      "type": "error"
    },
    {
      "inputs": [],
      "name": "InvalidTicketNumber",
      "type": "error"
    },
    {
      "inputs": [],
      "name": "NodeAlreadySubmitted",
      "type": "error"
    },
    {
      "inputs": [
        {
          "internalType": "address",
          "name": "node",
          "type": "address"
        }
      ],
      "name": "NodeNotBonded",
      "type": "error"
    },
    {
      "inputs": [],
      "name": "NodeNotEligible",
      "type": "error"
    },
    {
      "inputs": [],
      "name": "NodeNotSubmitted",
      "type": "error"
    },
    {
      "inputs": [],
      "name": "NotInitializing",
      "type": "error"
    },
    {
      "inputs": [],
      "name": "NotOwnerOrBondingRegistry",
      "type": "error"
    },
    {
      "inputs": [],
      "name": "NotSlashingManager",
      "type": "error"
    },
    {
      "inputs": [],
      "name": "OnlyBondingRegistry",
      "type": "error"
    },
    {
      "inputs": [],
      "name": "OnlyEnclave",
      "type": "error"
    },
    {
      "inputs": [
        {
          "internalType": "address",
          "name": "owner",
          "type": "address"
        }
      ],
      "name": "OwnableInvalidOwner",
      "type": "error"
    },
    {
      "inputs": [
        {
          "internalType": "address",
          "name": "account",
          "type": "address"
        }
      ],
      "name": "OwnableUnauthorizedAccount",
      "type": "error"
    },
    {
      "inputs": [],
      "name": "PartyIdNotInProof",
      "type": "error"
    },
    {
      "inputs": [
        {
          "internalType": "uint256",
          "name": "partyId",
          "type": "uint256"
        },
        {
          "internalType": "uint256",
          "name": "committeeSize",
          "type": "uint256"
        }
      ],
      "name": "PartyIdOutOfBounds",
      "type": "error"
    },
    {
      "inputs": [],
      "name": "PkCommitmentRequired",
      "type": "error"
    },
    {
      "inputs": [],
      "name": "SubmissionWindowClosed",
      "type": "error"
    },
    {
      "inputs": [],
      "name": "SubmissionWindowNotClosed",
      "type": "error"
    },
    {
      "inputs": [],
      "name": "ThresholdNotMet",
      "type": "error"
    },
    {
      "inputs": [],
      "name": "Unauthorized",
      "type": "error"
    },
    {
      "inputs": [],
      "name": "ZeroAddress",
      "type": "error"
    },
    {
      "anonymous": false,
      "inputs": [
        {
          "indexed": true,
          "internalType": "address",
          "name": "bondingRegistry",
          "type": "address"
        }
      ],
      "name": "BondingRegistrySet",
      "type": "event"
    },
    {
      "anonymous": false,
      "inputs": [
        {
          "indexed": true,
          "internalType": "address",
          "name": "node",
          "type": "address"
        },
        {
          "indexed": false,
          "internalType": "uint256",
          "name": "index",
          "type": "uint256"
        },
        {
          "indexed": false,
          "internalType": "uint256",
          "name": "numNodes",
          "type": "uint256"
        },
        {
          "indexed": false,
          "internalType": "uint256",
          "name": "size",
          "type": "uint256"
        }
      ],
      "name": "CiphernodeAdded",
      "type": "event"
    },
    {
      "anonymous": false,
      "inputs": [
        {
          "indexed": true,
          "internalType": "address",
          "name": "node",
          "type": "address"
        },
        {
          "indexed": false,
          "internalType": "uint256",
          "name": "index",
          "type": "uint256"
        },
        {
          "indexed": false,
          "internalType": "uint256",
          "name": "numNodes",
          "type": "uint256"
        },
        {
          "indexed": false,
          "internalType": "uint256",
          "name": "size",
          "type": "uint256"
        }
      ],
      "name": "CiphernodeRemoved",
      "type": "event"
    },
    {
      "anonymous": false,
      "inputs": [
        {
          "indexed": true,
          "internalType": "uint256",
          "name": "e3Id",
          "type": "uint256"
        },
        {
          "indexed": false,
          "internalType": "bool",
          "name": "active",
          "type": "bool"
        }
      ],
      "name": "CommitteeActivationChanged",
      "type": "event"
    },
    {
      "anonymous": false,
      "inputs": [
        {
          "indexed": true,
          "internalType": "uint256",
          "name": "e3Id",
          "type": "uint256"
        },
        {
          "indexed": false,
          "internalType": "address[]",
          "name": "committee",
          "type": "address[]"
        },
        {
          "indexed": false,
          "internalType": "uint256[]",
          "name": "scores",
          "type": "uint256[]"
        }
      ],
      "name": "CommitteeFinalized",
      "type": "event"
    },
    {
      "anonymous": false,
      "inputs": [
        {
          "indexed": true,
          "internalType": "uint256",
          "name": "e3Id",
          "type": "uint256"
        },
        {
          "indexed": false,
          "internalType": "uint256",
          "name": "nodesSubmitted",
          "type": "uint256"
        },
        {
          "indexed": false,
          "internalType": "uint256",
          "name": "thresholdRequired",
          "type": "uint256"
        }
      ],
      "name": "CommitteeFormationFailed",
      "type": "event"
    },
    {
      "anonymous": false,
      "inputs": [
        {
          "indexed": true,
          "internalType": "uint256",
          "name": "e3Id",
          "type": "uint256"
        },
        {
          "indexed": true,
          "internalType": "address",
          "name": "node",
          "type": "address"
        },
        {
          "indexed": false,
          "internalType": "bytes32",
          "name": "reason",
          "type": "bytes32"
        },
        {
          "indexed": false,
          "internalType": "uint256",
          "name": "activeCountAfter",
          "type": "uint256"
        }
      ],
      "name": "CommitteeMemberExpelled",
      "type": "event"
    },
    {
      "anonymous": false,
      "inputs": [
        {
          "indexed": true,
          "internalType": "uint256",
          "name": "e3Id",
          "type": "uint256"
        },
        {
          "indexed": false,
          "internalType": "address[]",
          "name": "nodes",
          "type": "address[]"
        },
        {
          "indexed": false,
          "internalType": "bytes",
          "name": "publicKey",
          "type": "bytes"
        },
        {
          "indexed": false,
          "internalType": "bytes32",
          "name": "pkCommitment",
          "type": "bytes32"
        },
        {
          "indexed": false,
          "internalType": "bytes",
          "name": "proof",
          "type": "bytes"
        }
      ],
      "name": "CommitteePublished",
      "type": "event"
    },
    {
      "anonymous": false,
      "inputs": [
        {
          "indexed": true,
          "internalType": "uint256",
          "name": "e3Id",
          "type": "uint256"
        },
        {
          "indexed": false,
          "internalType": "uint256",
          "name": "seed",
          "type": "uint256"
        },
        {
          "indexed": false,
          "internalType": "uint32[2]",
          "name": "threshold",
          "type": "uint32[2]"
        },
        {
          "indexed": false,
          "internalType": "uint256",
          "name": "requestBlock",
          "type": "uint256"
        },
        {
          "indexed": false,
          "internalType": "uint256",
          "name": "committeeDeadline",
          "type": "uint256"
        }
      ],
      "name": "CommitteeRequested",
      "type": "event"
    },
    {
      "anonymous": false,
      "inputs": [
        {
          "indexed": true,
          "internalType": "uint256",
          "name": "e3Id",
          "type": "uint256"
        },
        {
          "indexed": false,
          "internalType": "uint256",
          "name": "activeCount",
          "type": "uint256"
        },
        {
          "indexed": false,
          "internalType": "uint256",
          "name": "thresholdM",
          "type": "uint256"
        },
        {
          "indexed": false,
          "internalType": "bool",
          "name": "viable",
          "type": "bool"
        }
      ],
      "name": "CommitteeViabilityUpdated",
      "type": "event"
    },
    {
      "anonymous": false,
      "inputs": [
        {
          "indexed": true,
          "internalType": "address",
          "name": "enclave",
          "type": "address"
        }
      ],
      "name": "EnclaveSet",
      "type": "event"
    },
    {
      "anonymous": false,
      "inputs": [
        {
          "indexed": false,
          "internalType": "uint64",
          "name": "version",
          "type": "uint64"
        }
      ],
      "name": "Initialized",
      "type": "event"
    },
    {
      "anonymous": false,
      "inputs": [
        {
          "indexed": true,
          "internalType": "address",
          "name": "previousOwner",
          "type": "address"
        },
        {
          "indexed": true,
          "internalType": "address",
          "name": "newOwner",
          "type": "address"
        }
      ],
      "name": "OwnershipTransferred",
      "type": "event"
    },
    {
      "anonymous": false,
      "inputs": [
        {
          "indexed": true,
          "internalType": "address",
          "name": "slashingManager",
          "type": "address"
        }
      ],
      "name": "SlashingManagerSet",
      "type": "event"
    },
    {
      "anonymous": false,
      "inputs": [
        {
          "indexed": false,
          "internalType": "uint256",
          "name": "sortitionSubmissionWindow",
          "type": "uint256"
        }
      ],
      "name": "SortitionSubmissionWindowSet",
      "type": "event"
    },
    {
      "anonymous": false,
      "inputs": [
        {
          "indexed": true,
          "internalType": "uint256",
          "name": "e3Id",
          "type": "uint256"
        },
        {
          "indexed": true,
          "internalType": "address",
          "name": "node",
          "type": "address"
        },
        {
          "indexed": false,
          "internalType": "uint256",
          "name": "ticketId",
          "type": "uint256"
        },
        {
          "indexed": false,
          "internalType": "uint256",
          "name": "score",
          "type": "uint256"
        }
      ],
      "name": "TicketSubmitted",
      "type": "event"
    },
    {
      "inputs": [],
      "name": "TREE_DEPTH",
      "outputs": [
        {
          "internalType": "uint8",
          "name": "",
          "type": "uint8"
        }
      ],
      "stateMutability": "view",
      "type": "function"
    },
    {
      "inputs": [
        {
          "internalType": "address",
          "name": "node",
          "type": "address"
        }
      ],
      "name": "addCiphernode",
      "outputs": [],
      "stateMutability": "nonpayable",
      "type": "function"
    },
    {
      "inputs": [],
      "name": "bondingRegistry",
      "outputs": [
        {
          "internalType": "contract IBondingRegistry",
          "name": "",
          "type": "address"
        }
      ],
      "stateMutability": "view",
      "type": "function"
    },
    {
      "inputs": [
        {
          "internalType": "address",
          "name": "node",
          "type": "address"
        }
      ],
      "name": "ciphernodeEnabled",
      "outputs": [
        {
          "internalType": "bool",
          "name": "enabled",
          "type": "bool"
        }
      ],
      "stateMutability": "view",
      "type": "function"
    },
    {
      "inputs": [
        {
          "internalType": "address",
          "name": "node",
          "type": "address"
        }
      ],
      "name": "ciphernodeTreeIndex",
      "outputs": [
        {
          "internalType": "uint40",
          "name": "index",
          "type": "uint40"
        }
      ],
      "stateMutability": "view",
      "type": "function"
    },
    {
      "inputs": [],
      "name": "ciphernodes",
      "outputs": [
        {
          "internalType": "uint40",
          "name": "maxIndex",
          "type": "uint40"
        },
        {
          "internalType": "uint40",
          "name": "numberOfLeaves",
          "type": "uint40"
        }
      ],
      "stateMutability": "view",
      "type": "function"
    },
    {
      "inputs": [
        {
          "internalType": "uint256",
          "name": "e3Id",
          "type": "uint256"
        }
      ],
      "name": "committeePublicKey",
      "outputs": [
        {
          "internalType": "bytes32",
          "name": "publicKeyHash",
          "type": "bytes32"
        }
      ],
      "stateMutability": "view",
      "type": "function"
    },
    {
      "inputs": [],
      "name": "dkgFoldAttestationVerifier",
      "outputs": [
        {
          "internalType": "contract IDkgFoldAttestationVerifier",
          "name": "",
          "type": "address"
        }
      ],
      "stateMutability": "view",
      "type": "function"
    },
    {
      "inputs": [],
      "name": "enclave",
      "outputs": [
        {
          "internalType": "contract IEnclave",
          "name": "",
          "type": "address"
        }
      ],
      "stateMutability": "view",
      "type": "function"
    },
    {
      "inputs": [
        {
          "internalType": "uint256",
          "name": "e3Id",
          "type": "uint256"
        },
        {
          "internalType": "address",
          "name": "node",
          "type": "address"
        },
        {
          "internalType": "bytes32",
          "name": "reason",
          "type": "bytes32"
        }
      ],
      "name": "expelCommitteeMember",
      "outputs": [
        {
          "internalType": "uint256",
          "name": "activeCount",
          "type": "uint256"
        },
        {
          "internalType": "uint32",
          "name": "thresholdM",
          "type": "uint32"
        }
      ],
      "stateMutability": "nonpayable",
      "type": "function"
    },
    {
      "inputs": [
        {
          "internalType": "uint256",
          "name": "e3Id",
          "type": "uint256"
        }
      ],
      "name": "finalizeCommittee",
      "outputs": [
        {
          "internalType": "bool",
          "name": "success",
          "type": "bool"
        }
      ],
      "stateMutability": "nonpayable",
      "type": "function"
    },
    {
      "inputs": [
        {
          "internalType": "uint256",
          "name": "e3Id",
          "type": "uint256"
        }
      ],
      "name": "getActiveCommitteeNodes",
      "outputs": [
        {
          "internalType": "address[]",
          "name": "nodes",
          "type": "address[]"
        },
        {
          "internalType": "uint256[]",
          "name": "scores",
          "type": "uint256[]"
        }
      ],
      "stateMutability": "view",
      "type": "function"
    },
    {
      "inputs": [],
      "name": "getBondingRegistry",
      "outputs": [
        {
          "internalType": "address",
          "name": "",
          "type": "address"
        }
      ],
      "stateMutability": "view",
      "type": "function"
    },
    {
      "inputs": [
        {
          "internalType": "uint256",
          "name": "e3Id",
          "type": "uint256"
        }
      ],
      "name": "getCommitteeDeadline",
      "outputs": [
        {
          "internalType": "uint256",
          "name": "",
          "type": "uint256"
        }
      ],
      "stateMutability": "view",
      "type": "function"
    },
    {
      "inputs": [
        {
          "internalType": "uint256",
          "name": "e3Id",
          "type": "uint256"
        }
      ],
      "name": "getCommitteeHash",
      "outputs": [
        {
          "internalType": "bytes32",
          "name": "committeeHash",
          "type": "bytes32"
        }
      ],
      "stateMutability": "view",
      "type": "function"
    },
    {
      "inputs": [
        {
          "internalType": "uint256",
          "name": "e3Id",
          "type": "uint256"
        },
        {
          "internalType": "uint256",
          "name": "partyId",
          "type": "uint256"
        }
      ],
      "name": "getCommitteeNodeAt",
      "outputs": [
        {
          "internalType": "address",
          "name": "",
          "type": "address"
        }
      ],
      "stateMutability": "view",
      "type": "function"
    },
    {
      "inputs": [
        {
          "internalType": "uint256",
          "name": "e3Id",
          "type": "uint256"
        }
      ],
      "name": "getCommitteeNodes",
      "outputs": [
        {
          "internalType": "address[]",
          "name": "nodes",
          "type": "address[]"
        }
      ],
      "stateMutability": "view",
      "type": "function"
    },
    {
      "inputs": [
        {
          "internalType": "uint256",
          "name": "e3Id",
          "type": "uint256"
        }
      ],
      "name": "getCommitteeViability",
      "outputs": [
        {
          "internalType": "uint256",
          "name": "activeCount",
          "type": "uint256"
        },
        {
          "internalType": "uint32",
          "name": "thresholdM",
          "type": "uint32"
        },
        {
          "internalType": "uint32",
          "name": "thresholdN",
          "type": "uint32"
        },
        {
          "internalType": "bool",
          "name": "viable",
          "type": "bool"
        }
      ],
      "stateMutability": "view",
      "type": "function"
    },
    {
      "inputs": [
        {
          "internalType": "uint256",
          "name": "e3Id",
          "type": "uint256"
        }
      ],
      "name": "getDkgAnchors",
      "outputs": [
        {
          "internalType": "uint256[]",
          "name": "partyIds",
          "type": "uint256[]"
        },
        {
          "internalType": "bytes32[]",
          "name": "skAggCommits",
          "type": "bytes32[]"
        },
        {
          "internalType": "bytes32[]",
          "name": "esmAggCommits",
          "type": "bytes32[]"
        }
      ],
      "stateMutability": "view",
      "type": "function"
    },
    {
      "inputs": [
        {
          "internalType": "address",
          "name": "_owner",
          "type": "address"
        },
        {
          "internalType": "uint256",
          "name": "_submissionWindow",
          "type": "uint256"
        }
      ],
      "name": "initialize",
      "outputs": [],
      "stateMutability": "nonpayable",
      "type": "function"
    },
    {
      "inputs": [
        {
          "internalType": "address",
          "name": "node",
          "type": "address"
        }
      ],
      "name": "isCiphernodeEligible",
      "outputs": [
        {
          "internalType": "bool",
          "name": "",
          "type": "bool"
        }
      ],
      "stateMutability": "view",
      "type": "function"
    },
    {
      "inputs": [
        {
          "internalType": "uint256",
          "name": "e3Id",
          "type": "uint256"
        },
        {
          "internalType": "address",
          "name": "node",
          "type": "address"
        }
      ],
      "name": "isCommitteeMember",
      "outputs": [
        {
          "internalType": "bool",
          "name": "",
          "type": "bool"
        }
      ],
      "stateMutability": "view",
      "type": "function"
    },
    {
      "inputs": [
        {
          "internalType": "uint256",
          "name": "e3Id",
          "type": "uint256"
        },
        {
          "internalType": "address",
          "name": "node",
          "type": "address"
        }
      ],
      "name": "isCommitteeMemberActive",
      "outputs": [
        {
          "internalType": "bool",
          "name": "",
          "type": "bool"
        }
      ],
      "stateMutability": "view",
      "type": "function"
    },
    {
      "inputs": [
        {
          "internalType": "address",
          "name": "node",
          "type": "address"
        }
      ],
      "name": "isEnabled",
      "outputs": [
        {
          "internalType": "bool",
          "name": "",
          "type": "bool"
        }
      ],
      "stateMutability": "view",
      "type": "function"
    },
    {
      "inputs": [
        {
          "internalType": "uint256",
          "name": "e3Id",
          "type": "uint256"
        }
      ],
      "name": "isOpen",
      "outputs": [
        {
          "internalType": "bool",
          "name": "",
          "type": "bool"
        }
      ],
      "stateMutability": "view",
      "type": "function"
    },
    {
      "inputs": [],
      "name": "numCiphernodes",
      "outputs": [
        {
          "internalType": "uint256",
          "name": "",
          "type": "uint256"
        }
      ],
      "stateMutability": "view",
      "type": "function"
    },
    {
      "inputs": [],
      "name": "owner",
      "outputs": [
        {
          "internalType": "address",
          "name": "",
          "type": "address"
        }
      ],
      "stateMutability": "view",
      "type": "function"
    },
    {
      "inputs": [
        {
          "internalType": "uint256",
          "name": "e3Id",
          "type": "uint256"
        }
      ],
      "name": "publicKeyHashes",
      "outputs": [
        {
          "internalType": "bytes32",
          "name": "publicKeyHash",
          "type": "bytes32"
        }
      ],
      "stateMutability": "view",
      "type": "function"
    },
    {
      "inputs": [
        {
          "internalType": "uint256",
          "name": "e3Id",
          "type": "uint256"
        },
        {
          "internalType": "bytes",
          "name": "publicKey",
          "type": "bytes"
        },
        {
          "internalType": "bytes32",
          "name": "pkCommitment",
          "type": "bytes32"
        },
        {
          "internalType": "bytes",
          "name": "proof",
          "type": "bytes"
        },
        {
          "internalType": "bytes",
          "name": "dkgAttestationBundle",
          "type": "bytes"
        }
      ],
      "name": "publishCommittee",
      "outputs": [],
      "stateMutability": "nonpayable",
      "type": "function"
    },
    {
      "inputs": [
        {
          "internalType": "address",
          "name": "node",
          "type": "address"
        }
      ],
      "name": "removeCiphernode",
      "outputs": [],
      "stateMutability": "nonpayable",
      "type": "function"
    },
    {
      "inputs": [],
      "name": "renounceOwnership",
      "outputs": [],
      "stateMutability": "nonpayable",
      "type": "function"
    },
    {
      "inputs": [
        {
          "internalType": "uint256",
          "name": "e3Id",
          "type": "uint256"
        },
        {
          "internalType": "uint256",
          "name": "seed",
          "type": "uint256"
        },
        {
          "internalType": "uint32[2]",
          "name": "threshold",
          "type": "uint32[2]"
        }
      ],
      "name": "requestCommittee",
      "outputs": [
        {
          "internalType": "bool",
          "name": "success",
          "type": "bool"
        }
      ],
      "stateMutability": "nonpayable",
      "type": "function"
    },
    {
      "inputs": [],
      "name": "root",
      "outputs": [
        {
          "internalType": "uint256",
          "name": "",
          "type": "uint256"
        }
      ],
      "stateMutability": "view",
      "type": "function"
    },
    {
      "inputs": [
        {
          "internalType": "uint256",
          "name": "e3Id",
          "type": "uint256"
        }
      ],
      "name": "rootAt",
      "outputs": [
        {
          "internalType": "uint256",
          "name": "",
          "type": "uint256"
        }
      ],
      "stateMutability": "view",
      "type": "function"
    },
    {
      "inputs": [
        {
          "internalType": "uint256",
          "name": "e3Id",
          "type": "uint256"
        }
      ],
      "name": "roots",
      "outputs": [
        {
          "internalType": "uint256",
          "name": "root",
          "type": "uint256"
        }
      ],
      "stateMutability": "view",
      "type": "function"
    },
    {
      "inputs": [
        {
          "internalType": "contract IBondingRegistry",
          "name": "_bondingRegistry",
          "type": "address"
        }
      ],
      "name": "setBondingRegistry",
      "outputs": [],
      "stateMutability": "nonpayable",
      "type": "function"
    },
    {
      "inputs": [
        {
          "internalType": "contract IDkgFoldAttestationVerifier",
          "name": "verifier",
          "type": "address"
        }
      ],
      "name": "setDkgFoldAttestationVerifier",
      "outputs": [],
      "stateMutability": "nonpayable",
      "type": "function"
    },
    {
      "inputs": [
        {
          "internalType": "contract IEnclave",
          "name": "_enclave",
          "type": "address"
        }
      ],
      "name": "setEnclave",
      "outputs": [],
      "stateMutability": "nonpayable",
      "type": "function"
    },
    {
      "inputs": [
        {
          "internalType": "contract ISlashingManager",
          "name": "_slashingManager",
          "type": "address"
        }
      ],
      "name": "setSlashingManager",
      "outputs": [],
      "stateMutability": "nonpayable",
      "type": "function"
    },
    {
      "inputs": [
        {
          "internalType": "uint256",
          "name": "_sortitionSubmissionWindow",
          "type": "uint256"
        }
      ],
      "name": "setSortitionSubmissionWindow",
      "outputs": [],
      "stateMutability": "nonpayable",
      "type": "function"
    },
    {
      "inputs": [],
      "name": "slashingManager",
      "outputs": [
        {
          "internalType": "contract ISlashingManager",
          "name": "",
          "type": "address"
        }
      ],
      "stateMutability": "view",
      "type": "function"
    },
    {
      "inputs": [],
      "name": "sortitionSubmissionWindow",
      "outputs": [
        {
          "internalType": "uint256",
          "name": "",
          "type": "uint256"
        }
      ],
      "stateMutability": "view",
      "type": "function"
    },
    {
      "inputs": [
        {
          "internalType": "uint256",
          "name": "e3Id",
          "type": "uint256"
        },
        {
          "internalType": "uint256",
          "name": "ticketNumber",
          "type": "uint256"
        }
      ],
      "name": "submitTicket",
      "outputs": [],
      "stateMutability": "nonpayable",
      "type": "function"
    },
    {
      "inputs": [
        {
          "internalType": "address",
          "name": "newOwner",
          "type": "address"
        }
      ],
      "name": "transferOwnership",
      "outputs": [],
      "stateMutability": "nonpayable",
      "type": "function"
    },
    {
      "inputs": [],
      "name": "treeSize",
      "outputs": [
        {
          "internalType": "uint256",
          "name": "",
          "type": "uint256"
        }
      ],
      "stateMutability": "view",
      "type": "function"
    }
  ],
  "bytecode": "0x6080604052348015600e575f5ffd5b5060156019565b60c9565b7ff0c57e16840df040f15088dc2f81fe391c3923bec73e23a9662efc9c229c6a00805468010000000000000000900460ff161560685760405163f92ee8a960e01b815260040160405180910390fd5b80546001600160401b039081161460c65780546001600160401b0319166001600160401b0390811782556040519081527fc7f505b2f371ae2175ee4913f4499e1f2633a7b5936321eed1cdaeb6115181d29060200160405180910390a15b50565b6145d3806100d65f395ff3fe608060405234801561000f575f5ffd5b5060043610610276575f3560e01c80639a7a2ffc11610156578063dbb06c93116100ca578063f165053611610084578063f165053614610606578063f2fde38b14610620578063f379b0df14610633578063f52fd8031461066d578063f6fc05d5146106dd578063fa932569146106e6575f5ffd5b8063dbb06c93146105a0578063e4be6e3d146105b2578063e59e4695146105c5578063e6745e13146105d8578063e82f3b70146105eb578063ebf0c717146105fe575f5ffd5b8063bff232c11161011b578063bff232c114610518578063c2b40ae41461052b578063c3a0ec301461054a578063ca2869a01461055b578063cd6dc6871461057a578063da881e5a1461058d575f5ffd5b80639a7a2ffc1461047e5780639f0f874a146104ba578063a0164930146104c3578063a8a4d69b146104e3578063b8ab4704146104f6575f5ffd5b80635d504776116101ed5780638a78bb15116101b25780638a78bb15146104085780638cb89ecb1461041b5780638d1ddfb11461043a5780638da5cb5b146104505780638e5ce3ad146104585780639015d3711461046b575f5ffd5b80635d5047761461038d57806370e36bbe146103a0578063715018a6146103b35780637c92f524146103bb57806385814243146103e8575f5ffd5b80632800d8291161023e5780632800d829146102fc578063291a691b1461030f5780632e7b716d146103325780634d6861a61461034557806350e6d94c146103585780635302670f1461037a575f5ffd5b8063096b810a1461027a578063099a161a1461028f5780630bbfade7146102b55780630f3e3412146102c857806317d61120146102db575b5f5ffd5b61028d61028836600461396b565b6106f9565b005b6102a261029d366004613986565b610845565b6040519081526020015b60405180910390f35b61028d6102c33660046139e1565b61087e565b61028d6102d6366004613986565b610ac2565b6102ee6102e9366004613986565b610b05565b6040516102ac929190613b02565b6102a261030a366004613986565b610cae565b61032261031d366004613b2f565b610cfa565b60405190151581526020016102ac565b61032261034036600461396b565b610ed4565b610322610353366004613986565b610f87565b61032261036636600461396b565b60066020525f908152604090205460ff1681565b61028d61038836600461396b565b610fc6565b61032261039b366004613b68565b611017565b61028d6103ae36600461396b565b61105a565b61028d6110d0565b6103ce6103c9366004613b96565b6110e3565b6040805192835263ffffffff9091166020830152016102ac565b6001546103fb906001600160a01b031681565b6040516102ac9190613bcb565b61028d61041636600461396b565b61128a565b6102a2610429366004613986565b60096020525f908152604090205481565b600454600160281b900464ffffffffff166102a2565b6103fb6113c8565b600b546103fb906001600160a01b031681565b61032261047936600461396b565b6113f6565b6104a461048c36600461396b565b60076020525f908152604090205464ffffffffff1681565b60405164ffffffffff90911681526020016102ac565b6102a260035481565b6104d66104d1366004613986565b611413565b6040516102ac9190613bdf565b6103226104f1366004613b68565b6114a9565b610509610504366004613986565b6114ec565b6040516102ac93929190613bf1565b61028d61052636600461396b565b611637565b6102a2610539366004613986565b60086020525f908152604090205481565b6001546001600160a01b03166103fb565b6102a2610569366004613986565b5f9081526008602052604090205490565b61028d610588366004613c33565b6116af565b61032261059b366004613986565b61180c565b5f546103fb906001600160a01b031681565b600c546103fb906001600160a01b031681565b61028d6105d336600461396b565b611aef565b61028d6105e6366004613c5d565b611b67565b6102a26105f9366004613986565b611d2a565b6102a2611d5b565b61060e601481565b60405160ff90911681526020016102ac565b61028d61062e36600461396b565b611d6d565b60045461064f9064ffffffffff80821691600160281b90041682565b6040805164ffffffffff9384168152929091166020830152016102ac565b6106ae61067b366004613986565b5f908152600a60205260409020600b810154600590910154909163ffffffff80831692600160201b900416908284101590565b6040516102ac949392919093845263ffffffff9283166020850152911660408301521515606082015260800190565b6102a260025481565b6103fb6106f4366004613c5d565b611da7565b6107016113c8565b6001600160a01b0316336001600160a01b0316148061072a57506001546001600160a01b031633145b61074757604051632864c4e160e01b815260040160405180910390fd5b610750816113f6565b8190610779576040516381e5828960e01b81526004016107709190613bcb565b60405180910390fd5b506001600160a01b0381165f9081526007602052604081205464ffffffffff16906107a79060049083611e14565b6001600160a01b0382165f908152600660205260408120805460ff1916905560028054916107d483613c91565b90915550506002546004546040805164ffffffffff80861682526020820194909452600160281b909204909216918101919091526001600160a01b038316907f8c008e3835f6c79bfcdb89f0f6ca8705e0b01049ee84a90b0e4da1c7ba9405d5906060015b60405180910390a25050565b5f818152600a602052604081206004810154610874576040516322e679e360e11b815260040160405180910390fd5b6007015492915050565b5f888152600a602052604090206002815460ff1660038111156108a3576108a3613ca6565b146108c157604051634f4b461f60e11b815260040160405180910390fd5b6004810154156108e45760405163632a22bb60e01b815260040160405180910390fd5b8561090257604051636caad1ed60e11b815260040160405180910390fd5b5f6109668260060180548060200260200160405190810160405280929190818152602001828054801561095c57602002820191905f5260205f20905b81546001600160a01b0316815260019091019060200180831161093e575b50505050506120b6565b600783018190555f805460405163101bb4d760e21b8152600481018e905292935090916001600160a01b039091169063406ed35c906024015f60405180830381865afa1580156109b8573d5f5f3e3d5ffd5b505050506040513d5f823e601f3d908101601f191682016040526109df9190810190613e36565b9050806101c00151156109fc576109fc8b828a858b8b8b8b6121bc565b60048381018990555f8c8152600960205260408082208b9055905490516340a3b76160e11b81529182018d9052602482018a90526001600160a01b0316906381476ec2906044015f604051808303815f87803b158015610a5a575f5ffd5b505af1158015610a6c573d5f5f3e3d5ffd5b505050508a7fbf0636a312095f6c09c909823813b50e392323588d2d83432e7512c64041e67f846006018c8c8c8c8c604051610aad96959493929190613ff8565b60405180910390a25050505050505050505050565b610aca6123b8565b60038190556040518181527fbe772dc189863d512fa01e489c8eac204975aef1a8662d8b5a333804b5207ab79060200160405180910390a150565b5f818152600a602052604090206006810154600b82015460609283929091806001600160401b03811115610b3b57610b3b613cba565b604051908082528060200260200182016040528015610b64578160200160208202803683370190505b509450806001600160401b03811115610b7f57610b7f613cba565b604051908082528060200260200182016040528015610ba8578160200160208202803683370190505b5093505f805b83811015610ca4575f856006018281548110610bcc57610bcc614045565b5f918252602090912001546001600160a01b0316905060016001600160a01b0382165f908152600a8801602052604090205460ff166002811115610c1257610c12613ca6565b03610c9b5780888481518110610c2a57610c2a614045565b60200260200101906001600160a01b031690816001600160a01b031681525050856009015f826001600160a01b03166001600160a01b031681526020019081526020015f2054878481518110610c8257610c82614045565b602090810291909101015282610c9781614059565b9350505b50600101610bae565b5050505050915091565b5f818152600a6020526040812081815460ff166003811115610cd257610cd2613ca6565b03610cf057604051630d4c1d9760e41b815260040160405180910390fd5b6003015492915050565b5f80546001600160a01b03163314610d255760405163e4c2a7eb60e01b815260040160405180910390fd5b5f848152600a6020526040812090815460ff166003811115610d4957610d49613ca6565b14610d67576040516374ff462560e11b815260040160405180910390fd5b60015460408051630cc37d8f60e11b815290515f926001600160a01b031691631986fb1e9160048083019260209291908290030181865afa158015610dae573d5f5f3e3d5ffd5b505050506040513d601f19601f82011682018060405250810190610dd29190614071565b905080610de5604086016020870161409b565b63ffffffff161115610dfd604086016020870161409b565b829091610e2b576040516344ec930f60e01b815263ffffffff90921660048301526024820152604401610770565b5050815460ff1916600190811783558201859055436002830155600354610e5290426140b4565b6003830155610e6660058301856002613869565b50610e6f611d5b565b5f87815260086020526040908190209190915560028301546003840154915188927f381d281d32f95ef8fe4e5f3b263ea6a32d03d331e1a141ae1da996dc02a7a17092610ec0928a928a92916140c7565b60405180910390a250600195945050505050565b5f610ede826113f6565b610ee957505f919050565b6001546001600160a01b0316610f12576040516350ca893360e01b815260040160405180910390fd5b600154604051639f8a13d760e01b81526001600160a01b0390911690639f8a13d790610f42908590600401613bcb565b602060405180830381865afa158015610f5d573d5f5f3e3d5ffd5b505050506040513d601f19601f82011682018060405250810190610f819190614117565b92915050565b5f818152600a602052604081206001815460ff166003811115610fac57610fac613ca6565b14610fb957505f92915050565b6003015442111592915050565b610fce6123b8565b6001600160a01b038116610ff55760405163d92e233d60e01b815260040160405180910390fd5b600c80546001600160a01b0319166001600160a01b0392909216919091179055565b5f60015f848152600a602081815260408084206001600160a01b0388168552909201905290205460ff16600281111561105257611052613ca6565b149392505050565b6110626123b8565b6001600160a01b0381166110895760405163d92e233d60e01b815260040160405180910390fd5b5f80546001600160a01b0319166001600160a01b038316908117825560405190917f2c8267accd82e977550ed2349c73311183cd22e306347be4453c8d130995e3c991a250565b6110d86123b8565b6110e15f6123ea565b565b600b545f9081906001600160a01b031633146111125760405163fcef374960e01b815260040160405180910390fd5b5f858152600a602052604090206002815460ff16600381111561113757611137613ca6565b1461115557604051634f4b461f60e11b815260040160405180910390fd5b60058101546001600160a01b0386165f908152600a8301602052604090205463ffffffff909116925060019060ff16600281111561119557611195613ca6565b146111a557600b01549150611282565b6001600160a01b0385165f908152600a820160205260408120805460ff19166002179055600b82018054916111d983613c91565b919050555080600b01549250846001600160a01b0316867f6c783b92374361b4d6efaf29673b89437ee969bb3c9d2d5d86b143ad5447b849868660405161122a929190918252602082015260400190565b60405180910390a36040805184815263ffffffff84166020820181905285101591810182905287907f119cb11dd0a68c257d6dc9b06dcb37dd422ce276eb8bf3cd0b7079a116b8e2989060600160405180910390a250505b935093915050565b6112926113c8565b6001600160a01b0316336001600160a01b031614806112bb57506001546001600160a01b031633145b6112d857604051632864c4e160e01b815260040160405180910390fd5b6112e1816113f6565b6113c55760048054600160281b900464ffffffffff169061130b906001600160a01b03841661245a565b6001600160a01b0382165f908152600660209081526040808320805460ff1916600117905560079091528120805464ffffffffff841664ffffffffff19909116179055600280549161135c83614059565b90915550506002546004546040805164ffffffffff80861682526020820194909452600160281b909204909216918101919091526001600160a01b038316907f3318d261fe14a5761d2d1e21555652f623d2134c430a9883c9ad6e958bb0db5390606001610839565b50565b7f9016d09d72d40fdae2fd8ceac6b6234c7706214fd39c1cd1e609a0528c199300546001600160a01b031690565b6001600160a01b03165f9081526006602052604090205460ff1690565b5f818152600a60205260409020600481015460609190611446576040516322e679e360e11b815260040160405180910390fd5b8060060180548060200260200160405190810160405280929190818152602001828054801561149c57602002820191905f5260205f20905b81546001600160a01b0316815260019091019060200180831161147e575b5050505050915050919050565b5f805f848152600a602081815260408084206001600160a01b0388168552909201905290205460ff1660028111156114e3576114e3613ca6565b14159392505050565b5f818152600960205260409020546060908190819061151e576040516322e679e360e11b815260040160405180910390fd5b5f848152600d60209081526040808320600e8352818420600f8452938290208154835181860281018601909452808452919493909291859183018282801561158357602002820191905f5260205f20905b81548152602001906001019080831161156f575b50505050509250818054806020026020016040519081016040528092919081815260200182805480156115d357602002820191905f5260205f20905b8154815260200190600101908083116115bf575b505050505091508080548060200260200160405190810160405280929190818152602001828054801561162357602002820191905f5260205f20905b81548152602001906001019080831161160f575b505050505090509250925092509193909250565b61163f6123b8565b6001600160a01b0381166116665760405163d92e233d60e01b815260040160405180910390fd5b600b80546001600160a01b0319166001600160a01b0383169081179091556040517f4ccc8ed483c7c44c3602c3c38afc2c014a8f1d2dc210dfe58ebeeeead230f8e0905f90a250565b5f6116b8612630565b805490915060ff600160401b82041615906001600160401b03165f811580156116de5750825b90505f826001600160401b031660011480156116f95750303b155b905081158015611707575080155b156117255760405163f92ee8a960e01b815260040160405180910390fd5b845467ffffffffffffffff19166001178555831561174f57845460ff60401b1916600160401b1785555b6001600160a01b0387166117765760405163d92e233d60e01b815260040160405180910390fd5b61177f33612658565b61178b60046014612669565b61179486610ac2565b61179c6113c8565b6001600160a01b0316876001600160a01b0316146117bd576117bd87611d6d565b831561180357845460ff60401b19168555604051600181527fc7f505b2f371ae2175ee4913f4499e1f2633a7b5936321eed1cdaeb6115181d29060200160405180910390a15b50505050505050565b5f818152600a6020526040812081815460ff16600381111561183057611830613ca6565b0361184e57604051630d4c1d9760e41b815260040160405180910390fd5b6001815460ff16600381111561186657611866613ca6565b1461188457604051631860f69960e31b815260040160405180910390fd5b806003015442116118a857604051632f021e8d60e11b815260040160405180910390fd5b60058101546006820154600160201b90910463ffffffff1611158061198d578154600360ff199091161782556006820154600583015460408051928352600160201b90910463ffffffff16602083015285917fecc4a9fb7e28d074cba7f5b227e9b5827823c850a385539b9a2f98a08f8c203d910160405180910390a25f54604051635d968dc160e11b815260048101869052600260248201526001600160a01b039091169063bb2d1b82906044015f604051808303815f87803b15801561196e575f5ffd5b505af1158015611980573d5f5f3e3d5ffd5b505f979650505050505050565b611996826126e8565b815460ff191660021782556006820154600b83018190555f816001600160401b038111156119c6576119c6613cba565b6040519080825280602002602001820160405280156119ef578160200160208202803683370190505b5090505f5b82811015611a6157846009015f866006018381548110611a1657611a16614045565b5f9182526020808320909101546001600160a01b031683528201929092526040019020548251839083908110611a4e57611a4e614045565b60209081029190910101526001016119f4565b505f54604051631f3ea75d60e21b8152600481018890526001600160a01b0390911690637cfa9d74906024015f604051808303815f87803b158015611aa4575f5ffd5b505af1158015611ab6573d5f5f3e3d5ffd5b50505050857f4f1f5b329c741a8ba15e9645e301061294d0c1fdd455448ffd5e76ff255929d78560060183604051610ec0929190614130565b611af76123b8565b6001600160a01b038116611b1e5760405163d92e233d60e01b815260040160405180910390fd5b600180546001600160a01b0319166001600160a01b0383169081179091556040517fad4055f18cdad6f4bdd71afe3a72cbeee964217943e1bde38f138289e981a9a7905f90a250565b5f828152600a6020526040812090815460ff166003811115611b8b57611b8b613ca6565b03611ba957604051630d4c1d9760e41b815260040160405180910390fd5b6001815460ff166003811115611bc157611bc1613ca6565b14611bdf57604051631860f69960e31b815260040160405180910390fd5b8060030154421115611c0457604051639a19114d60e01b815260040160405180910390fd5b335f90815260088201602052604090205460ff1615611c365760405163257309f160e11b815260040160405180910390fd5b611c3f33610ed4565b611c5c5760405163149fbcfd60e11b815260040160405180910390fd5b611c6733838561280e565b6001810154604080516bffffffffffffffffffffffff193360601b16602080830191909152603482018690526054820187905260748083019490945282518083039094018452609490910190915281519101205f90335f8181526008850160205260409020805460ff19166001179055909150611ce6908390836129df565b506040805184815260208101839052339186917f52999628fb1cb05707e842278833b22e511f11746202cecdf221968b0b89e8bd910160405180910390a350505050565b5f8181526009602052604090205480611d56576040516322e679e360e11b815260040160405180910390fd5b919050565b5f611d6860046014612be0565b905090565b611d756123b8565b6001600160a01b038116611d9e575f604051631e4fbdf760e01b81526004016107709190613bcb565b6113c5816123ea565b5f828152600a6020526040812060060180548390808210611de4576040516326c5c55b60e11b815260048101929092526024820152604401610770565b5050808381548110611df857611df8614045565b5f918252602090912001546001600160a01b0316949350505050565b7f30644e72e131a029b85045b68181585d2833e84879b9709143e1f593f00000018210611e535760405162461bcd60e51b815260040161077090614142565b825464ffffffffff600160281b90910481169082168111611eb15760405162461bcd60e51b815260206004820152601860248201527713185e9e5253550e881b195859881b5d5cdd08195e1a5cdd60421b6044820152606401610770565b825f5b81866001015f611ec48488612cd9565b64ffffffffff1681526020019081526020015f20819055505f816001611eea919061418c565b60ff168464ffffffffff16901c64ffffffffff16905060018564ffffffffff16901c64ffffffffff168111611f1f57506120ae565b600185165f03611fe6575f611f3e83611f398860016141a5565b612cd9565b60408051808201825286815264ffffffffff83165f90815260018c0160209081529083902054908201529051632b0aac7f60e11b815291925073__$078c82ddf6c95d34ea184ef1dd6130d136$__9163561558fe91611f9f916004016141c2565b602060405180830381865af4158015611fba573d5f5f3e3d5ffd5b505050506040513d601f19601f82011682018060405250810190611fde9190614071565b93505061209a565b5f611ff683611f396001896141f2565b60408051808201825264ffffffffff83165f90815260018c0160209081529083902054825281018790529051632b0aac7f60e11b815291925073__$078c82ddf6c95d34ea184ef1dd6130d136$__9163561558fe91612057916004016141c2565b602060405180830381865af4158015612072573d5f5f3e3d5ffd5b505050506040513d601f19601f820116820180604052508101906120969190614071565b9350505b50647fffffffff600194851c169301611eb4565b505050505050565b80515f90816120c682601461420f565b6001600160401b038111156120dd576120dd613cba565b6040519080825280601f01601f191660200182016040528015612107576020820181803683370190505b5090505f5b828110156121ac575f85828151811061212757612127614045565b602002602001015160601b90505f826014612142919061420f565b90505f5b601481101561219e5782816014811061216157612161614045565b1a60f81b8561217083856140b4565b8151811061218057612180614045565b60200101906001600160f81b03191690815f1a905350600101612146565b50505080600101905061210c565b5080516020909101209392505050565b826121da57604051630fb0193f60e41b815260040160405180910390fd5b8661012001516001600160a01b031663de12c640878787876040518563ffffffff1660e01b81526004016122119493929190614226565b602060405180830381865afa15801561222c573d5f5f3e3d5ffd5b505050506040513d601f19601f820116820180604052508101906122509190614117565b61226d5760405163051d8aa760e51b815260040160405180910390fd5b8061228b57604051639914ab1b60e01b815260040160405180910390fd5b600c546001600160a01b03166122b457604051630d6eeecb60e01b815260040160405180910390fd5b5f5f5f600c5f9054906101000a90046001600160a01b03166001600160a01b031663b476c31e30468e8b8b8b8b6040518863ffffffff1660e01b81526004016123039796959493929190614245565b5f60405180830381865afa15801561231d573d5f5f3e3d5ffd5b505050506040513d5f823e601f3d908101601f19168201604052612344919081019061431f565b5f8e8152600d60209081526040909120845194975092955090935061236c929086019061390a565b505f8b8152600e60209081526040909120835161238b9285019061390a565b505f8b8152600f6020908152604090912082516123aa9284019061390a565b505050505050505050505050565b336123c16113c8565b6001600160a01b0316146110e1573360405163118cdaa760e01b81526004016107709190613bcb565b7f9016d09d72d40fdae2fd8ceac6b6234c7706214fd39c1cd1e609a0528c19930080546001600160a01b031981166001600160a01b03848116918217845560405192169182907f8be0079c531659141344cd1fd0a4f28419497f9722a3daafe3b4186f6b6457e0905f90a3505050565b8154600160281b900464ffffffffff167f30644e72e131a029b85045b68181585d2833e84879b9709143e1f593f000000182106124a95760405162461bcd60e51b815260040161077090614142565b825464ffffffffff908116908216106124fc5760405162461bcd60e51b815260206004820152601560248201527413185e9e5253550e881d1c9959481a5cc8199d5b1b605a1b6044820152606401610770565b6125078160016141a5565b835464ffffffffff91909116600160281b0269ffffffffff000000000019909116178355815f5b81856001015f61253e8487612cd9565b64ffffffffff16815260208101919091526040015f20556001831615612629575f61256e82611f396001876141f2565b60408051808201825264ffffffffff83165f90815260018a0160209081529083902054825281018690529051632b0aac7f60e11b815291925073__$078c82ddf6c95d34ea184ef1dd6130d136$__9163561558fe916125cf916004016141c2565b602060405180830381865af41580156125ea573d5f5f3e3d5ffd5b505050506040513d601f19601f8201168201806040525081019061260e9190614071565b647fffffffff600195861c169490935091909101905061252e565b5050505050565b5f807ff0c57e16840df040f15088dc2f81fe391c3923bec73e23a9662efc9c229c6a00610f81565b612660612cf6565b6113c581612d1b565b602060ff821611156126b75760405162461bcd60e51b81526020600482015260176024820152764c617a79494d543a205472656520746f6f206c6172676560481b6044820152606401610770565b6126c8600160ff831681901b614403565b825469ffffffffffffffffffff191664ffffffffff919091161790915550565b60068101545f5b81811015612809575f6127038260016140b4565b90505b82811015612800575f84600601838154811061272457612724614045565b5f9182526020822001546006870180546001600160a01b039092169350908490811061275257612752614045565b5f918252602090912001546001600160a01b03908116915082168110156127f6578086600601858154811061278957612789614045565b905f5260205f20015f6101000a8154816001600160a01b0302191690836001600160a01b03160217905550818660060184815481106127ca576127ca614045565b905f5260205f20015f6101000a8154816001600160a01b0302191690836001600160a01b031602179055505b5050600101612706565b506001016126ef565b505050565b5f821161282e5760405163aeaddff160e01b815260040160405180910390fd5b6001546001600160a01b0316612857576040516350ca893360e01b815260040160405180910390fd5b5f818152600a602052604081206001805460028301549293926001600160a01b039091169163bb03bd7191889161288d91614403565b6040516001600160e01b031960e085901b1681526001600160a01b0390921660048301526024820152604401602060405180830381865afa1580156128d4573d5f5f3e3d5ffd5b505050506040513d601f19601f820116820180604052508101906128f89190614071565b90505f60015f9054906101000a90046001600160a01b03166001600160a01b0316631209b1f66040518163ffffffff1660e01b8152600401602060405180830381865afa15801561294b573d5f5f3e3d5ffd5b505050506040513d601f19601f8201168201806040525081019061296f9190614071565b90505f81116129915760405163aeaddff160e01b815260040160405180910390fd5b5f61299c8284614416565b90505f81116129be5760405163149fbcfd60e11b815260040160405180910390fd5b808611156118035760405163aeaddff160e01b815260040160405180910390fd5b60058301546006840180545f92600160201b900463ffffffff1690811115612a5d57508054600180820183555f928352602080842090920180546001600160a01b0319166001600160a01b03881690811790915583526009870182526040808420869055600a88019092529120805460ff1916821790559050612bd9565b5f5f90505f876009015f855f81548110612a7957612a79614045565b5f9182526020808320909101546001600160a01b03168352820192909252604001902054905060015b8454811015612b01575f896009015f878481548110612ac357612ac3614045565b5f9182526020808320909101546001600160a01b03168352820192909252604001902054905082811115612af8578092508193505b50600101612aa2565b50808610612b15575f945050505050612bd9565b5f88600a015f868581548110612b2d57612b2d614045565b5f9182526020808320909101546001600160a01b031683528201929092526040019020805460ff19166001836002811115612b6a57612b6a613ca6565b021790555086848381548110612b8257612b82614045565b5f91825260208083209190910180546001600160a01b0319166001600160a01b03948516179055918916815260098a0182526040808220899055600a8b0190925220805460ff191660019081179091559450505050505b9392505050565b5f5f8260ff1611612c335760405162461bcd60e51b815260206004820152601a60248201527f4c617a79494d543a206465707468206d757374206265203e20300000000000006044820152606401610770565b602060ff83161115612c575760405162461bcd60e51b815260040161077090614435565b8254600160281b900464ffffffffff1680612c7660ff85166002614586565b64ffffffffff161015612cc65760405162461bcd60e51b8152602060048201526018602482015277098c2f4f2929aa87440c2dac4d2ceeadeeae640c8cae0e8d60431b6044820152606401610770565b612cd1848285612d23565b949350505050565b5f81612cec60ff851663ffffffff61459f565b612bd991906141a5565b612cfe612deb565b6110e157604051631afcd79f60e31b815260040160405180910390fd5b611d75612cf6565b5f602060ff83161115612d485760405162461bcd60e51b815260040161077090614435565b8264ffffffffff165f03612d6657612d5f82612e04565b9050612bd9565b5f612d7283600161418c565b60ff166001600160401b03811115612d8c57612d8c613cba565b604051908082528060200260200182016040528015612db5578160200160208202803683370190505b509050612dc48585858461349e565b808360ff1681518110612dd957612dd9614045565b60200260200101519150509392505050565b5f612df4612630565b54600160401b900460ff16919050565b5f8160ff165f03612e1657505f919050565b8160ff16600103612e4857507f2098f5fb9e239eab3ceac3f27b81e481dc3124d55ffed523a839ee8446b64864919050565b8160ff16600203612e7a57507f1069673dcdb12263df301a6ff584a7ec261a44cb9dc68df067a4774460b1f1e1919050565b8160ff16600303612eac57507f18f43331537ee2af2e3d758d50f72106467c6eea50371dd528d57eb2b856d238919050565b8160ff16600403612ede57507f07f9d837cb17b0d36320ffe93ba52345f1b728571a568265caac97559dbc952a919050565b8160ff16600503612f1057507f2b94cf5e8746b3f5c9631f4c5df32907a699c58c94b2ad4d7b5cec1639183f55919050565b8160ff16600603612f4257507f2dee93c5a666459646ea7d22cca9e1bcfed71e6951b953611d11dda32ea09d78919050565b8160ff16600703612f7457507f078295e5a22b84e982cf601eb639597b8b0515a88cb5ac7fa8a4aabe3c87349d919050565b8160ff16600803612fa657507f2fa5e5f18f6027a6501bec864564472a616b2e274a41211a444cbe3a99f3cc61919050565b8160ff16600903612fd857507f0e884376d0d8fd21ecb780389e941f66e45e7acce3e228ab3e2156a614fcd747919050565b8160ff16600a0361300a57507f1b7201da72494f1e28717ad1a52eb469f95892f957713533de6175e5da190af2919050565b8160ff16600b0361303c57507f1f8d8822725e36385200c0b201249819a6e6e1e4650808b5bebc6bface7d7636919050565b8160ff16600c0361306e57507f2c5d82f66c914bafb9701589ba8cfcfb6162b0a12acf88a8d0879a0471b5f85a919050565b8160ff16600d036130a057507f14c54148a0940bb820957f5adf3fa1134ef5c4aaa113f4646458f270e0bfbfd0919050565b8160ff16600e036130d257507f190d33b12f986f961e10c0ee44d8b9af11be25588cad89d416118e4bf4ebe80c919050565b8160ff16600f0361310457507f22f98aa9ce704152ac17354914ad73ed1167ae6596af510aa5b3649325e06c92919050565b8160ff1660100361313657507f2a7c7c9b6ce5880b9f6f228d72bf6a575a526f29c66ecceef8b753d38bba7323919050565b8160ff1660110361316857507f2e8186e558698ec1c67af9c14d463ffc470043c9c2988b954d75dd643f36b992919050565b8160ff1660120361319a57507f0f57c5571e9a4eab49e2c8cf050dae948aef6ead647392273546249d1c1ff10f919050565b8160ff166013036131cc57507f1830ee67b5fb554ad5f63d4388800e1cfe78e310697d46e43c9ce36134f72cca919050565b8160ff166014036131fe57507f2134e76ac5d21aab186c2be1dd8f84ee880a1e46eaf712f9d371b6df22191f3e919050565b8160ff1660150361323057507f19df90ec844ebc4ffeebd866f33859b0c051d8c958ee3aa88f8f8df3db91a5b1919050565b8160ff1660160361326257507f18cca2a66b5c0787981e69aefd84852d74af0e93ef4912b4648c05f722efe52b919050565b8160ff1660170361329457507f2388909415230d1b4d1304d2d54f473a628338f2efad83fadf05644549d2538d919050565b8160ff166018036132c657507f27171fb4a97b6cc0e9e8f543b5294de866a2af2c9c8d0b1d96e673e4529ed540919050565b8160ff166019036132f857507f2ff6650540f629fd5711a0bc74fc0d28dcb230b9392583e5f8d59696dde6ae21919050565b8160ff16601a0361332a57507f120c58f143d491e95902f7f5277778a2e0ad5168f6add75669932630ce611518919050565b8160ff16601b0361335c57507f1f21feb70d3f21b07bf853d5e5db03071ec495a0a565a21da2d665d279483795919050565b8160ff16601c0361338e57507f24be905fa71335e14c638cc0f66a8623a826e768068a9e968bb1a1dde18a72d2919050565b8160ff16601d036133c057507f0f8666b62ed17491c50ceadead57d4cd597ef3821d65c328744c74e553dac26d919050565b8160ff16601e036133f257507f0918d46bf52d98b034413f4a1a1c41594e7a7a3f6ae08cb43d1a2a230e1959ef919050565b8160ff16601f0361342457507f1bbeb01b4c479ecde76917645e404dfa2e26f90d0afc5a65128513ad375c5ff2919050565b8160ff1660200361345657507f2f68a1c58e257e42a17a6c61dff5551ed560b9922ab119d5ac8e184c9734ead9919050565b60405162461bcd60e51b815260206004820152601e60248201527f4c617a79494d543a2064656661756c745a65726f2062616420696e64657800006044820152606401610770565b602060ff831611156134c25760405162461bcd60e51b815260040161077090614435565b5f8364ffffffffff16116135265760405162461bcd60e51b815260206004820152602560248201527f4c617a79494d543a206e756d626572206f66206c6561766573206d7573742062604482015264065203e20360dc1b6064820152608401610770565b5f6135326001856141f2565b9050600181165f0361358557846001015f61354d5f84612cd9565b64ffffffffff1681526020019081526020015f2054825f8151811061357457613574614045565b6020026020010181815250506135ad565b61358e5f612e04565b825f815181106135a0576135a0614045565b6020026020010181815250505b5f5b8360ff168160ff1610156120ae57600182165f036136a55773__$078c82ddf6c95d34ea184ef1dd6130d136$__63561558fe6040518060400160405280868560ff168151811061360157613601614045565b6020026020010151815260200161361785612e04565b8152506040518263ffffffff1660e01b815260040161363691906141c2565b602060405180830381865af4158015613651573d5f5f3e3d5ffd5b505050506040513d601f19601f820116820180604052508101906136759190614071565b8361368183600161418c565b60ff168151811061369457613694614045565b602002602001018181525050613856565b5f6136b182600161418c565b60ff168664ffffffffff16901c64ffffffffff16905060018364ffffffffff16901c64ffffffffff16811115613753575f876001015f6137088560016136f7919061418c565b60018864ffffffffff16901c612cd9565b64ffffffffff1681526020019081526020015f20549050808584600161372e919061418c565b60ff168151811061374157613741614045565b60200260200101818152505050613854565b5f876001015f61376a85600188611f3991906141f2565b64ffffffffff1681526020019081526020015f2054905073__$078c82ddf6c95d34ea184ef1dd6130d136$__63561558fe6040518060400160405280848152602001888760ff16815181106137c1576137c1614045565b60200260200101518152506040518263ffffffff1660e01b81526004016137e891906141c2565b602060405180830381865af4158015613803573d5f5f3e3d5ffd5b505050506040513d601f19601f820116820180604052508101906138279190614071565b8561383385600161418c565b60ff168151811061384657613846614045565b602002602001018181525050505b505b647fffffffff600192831c1691016135af565b6001830191839082156138fa579160200282015f5b838211156138c857833563ffffffff1683826101000a81548163ffffffff021916908363ffffffff160217905550926020019260040160208160030104928301926001030261387e565b80156138f85782816101000a81549063ffffffff02191690556004016020816003010492830192600103026138c8565b505b50613906929150613943565b5090565b828054828255905f5260205f209081019282156138fa579160200282015b828111156138fa578251825591602001919060010190613928565b5b80821115613906575f8155600101613944565b6001600160a01b03811681146113c5575f5ffd5b5f6020828403121561397b575f5ffd5b8135612bd981613957565b5f60208284031215613996575f5ffd5b5035919050565b5f5f83601f8401126139ad575f5ffd5b5081356001600160401b038111156139c3575f5ffd5b6020830191508360208285010111156139da575f5ffd5b9250929050565b5f5f5f5f5f5f5f5f60a0898b0312156139f8575f5ffd5b8835975060208901356001600160401b03811115613a14575f5ffd5b613a208b828c0161399d565b9098509650506040890135945060608901356001600160401b03811115613a45575f5ffd5b613a518b828c0161399d565b90955093505060808901356001600160401b03811115613a6f575f5ffd5b613a7b8b828c0161399d565b999c989b5096995094979396929594505050565b5f8151808452602084019350602083015f5b82811015613ac85781516001600160a01b0316865260209586019590910190600101613aa1565b5093949350505050565b5f8151808452602084019350602083015f5b82811015613ac8578151865260209586019590910190600101613ae4565b604081525f613b146040830185613a8f565b8281036020840152613b268185613ad2565b95945050505050565b5f5f5f60808486031215613b41575f5ffd5b833592506020840135915060808401851015613b5b575f5ffd5b6040840190509250925092565b5f5f60408385031215613b79575f5ffd5b823591506020830135613b8b81613957565b809150509250929050565b5f5f5f60608486031215613ba8575f5ffd5b833592506020840135613bba81613957565b929592945050506040919091013590565b6001600160a01b0391909116815260200190565b602081525f612bd96020830184613a8f565b606081525f613c036060830186613ad2565b8281036020840152613c158186613ad2565b90508281036040840152613c298185613ad2565b9695505050505050565b5f5f60408385031215613c44575f5ffd5b8235613c4f81613957565b946020939093013593505050565b5f5f60408385031215613c6e575f5ffd5b50508035926020909101359150565b634e487b7160e01b5f52601160045260245ffd5b5f81613c9f57613c9f613c7d565b505f190190565b634e487b7160e01b5f52602160045260245ffd5b634e487b7160e01b5f52604160045260245ffd5b6040516101e081016001600160401b0381118282101715613cf157613cf1613cba565b60405290565b604051601f8201601f191681016001600160401b0381118282101715613d1f57613d1f613cba565b604052919050565b805160048110611d56575f5ffd5b5f82601f830112613d44575f5ffd5b604080519081016001600160401b0381118282101715613d6657613d66613cba565b8060405250806040840185811115613d7c575f5ffd5b845b81811015613d96578051835260209283019201613d7e565b509195945050505050565b8051611d5681613957565b805160ff81168114611d56575f5ffd5b5f82601f830112613dcb575f5ffd5b81516001600160401b03811115613de457613de4613cba565b613df7601f8201601f1916602001613cf7565b818152846020838601011115613e0b575f5ffd5b8160208501602083015e5f918101602001919091529392505050565b80518015158114611d56575f5ffd5b5f60208284031215613e46575f5ffd5b81516001600160401b03811115613e5b575f5ffd5b82016102008185031215613e6d575f5ffd5b613e75613cce565b81518152613e8560208301613d27565b602082015260408281015190820152613ea18560608401613d35565b606082015260a08201516080820152613ebc60c08301613da1565b60a0820152613ecd60e08301613dac565b60c08201526101008201516001600160401b03811115613eeb575f5ffd5b613ef786828501613dbc565b60e083015250613f0a6101208301613da1565b610100820152613f1d6101408301613da1565b61012082015261016082810151610140830152610180830151908201526101a08201516001600160401b03811115613f53575f5ffd5b613f5f86828501613dbc565b61018083015250613f736101c08301613da1565b6101a0820152613f866101e08301613e27565b6101c0820152949350505050565b5f8154808452602084019350825f5260205f205f5b82811015613ac85781546001600160a01b0316865260209095019460019182019101613fa9565b81835281816020850137505f828201602090810191909152601f909101601f19169091010190565b608081525f61400a6080830189613f94565b828103602084015261401d81888a613fd0565b90508560408401528281036060840152614038818587613fd0565b9998505050505050505050565b634e487b7160e01b5f52603260045260245ffd5b5f6001820161406a5761406a613c7d565b5060010190565b5f60208284031215614081575f5ffd5b5051919050565b803563ffffffff81168114611d56575f5ffd5b5f602082840312156140ab575f5ffd5b612bd982614088565b80820180821115610f8157610f81613c7d565b84815260a0810160208201855f5b60028110156141025763ffffffff6140ec83614088565b16835260209283019291909101906001016140d5565b50505060608201939093526080015292915050565b5f60208284031215614127575f5ffd5b612bd982613e27565b604081525f613b146040830185613f94565b6020808252602a908201527f4c617a79494d543a206c656166206d757374206265203c20534e41524b5f53436040820152691053105497d19251531160b21b606082015260800190565b60ff8181168382160190811115610f8157610f81613c7d565b64ffffffffff8181168382160190811115610f8157610f81613c7d565b6040810181835f5b60028110156141e95781518352602092830192909101906001016141ca565b50505092915050565b64ffffffffff8281168282160390811115610f8157610f81613c7d565b8082028115828204841417610f8157610f81613c7d565b848152836020820152606060408201525f613c29606083018486613fd0565b60018060a01b038816815286602082015285604082015260a060608201525f61427260a083018688613fd0565b8281036080840152614285818587613fd0565b9a9950505050505050505050565b5f6001600160401b038211156142ab576142ab613cba565b5060051b60200190565b5f82601f8301126142c4575f5ffd5b81516142d76142d282614293565b613cf7565b8082825260208201915060208360051b8601019250858311156142f8575f5ffd5b602085015b838110156143155780518352602092830192016142fd565b5095945050505050565b5f5f5f60608486031215614331575f5ffd5b83516001600160401b03811115614346575f5ffd5b8401601f81018613614356575f5ffd5b80516143646142d282614293565b8082825260208201915060208360051b850101925088831115614385575f5ffd5b6020840193505b828410156143a757835182526020938401939091019061438c565b8096505050505060208401516001600160401b038111156143c6575f5ffd5b6143d2868287016142b5565b92505060408401516001600160401b038111156143ed575f5ffd5b6143f9868287016142b5565b9150509250925092565b81810381811115610f8157610f81613c7d565b5f8261443057634e487b7160e01b5f52601260045260245ffd5b500490565b60208082526023908201527f4c617a79494d543a206465707468206d757374206265203c3d204d41585f44456040820152620a0a8960eb1b606082015260800190565b6001815b60018411156112825780850481111561449757614497613c7d565b60018416156144a557908102905b60019390931c92800261447c565b5f826144c157506001610f81565b816144cd57505f610f81565b81600181146144e357600281146144ed5761451f565b6001915050610f81565b60ff8411156144fe576144fe613c7d565b6001841b915064ffffffffff82111561451957614519613c7d565b50610f81565b5060208310610133831016604e8410600b8410161715614557575081810a64ffffffffff81111561455257614552613c7d565b610f81565b61456764ffffffffff8484614478565b8064ffffffffff0482111561457e5761457e613c7d565b029392505050565b5f612bd964ffffffffff841664ffffffffff84166144b3565b64ffffffffff81811683821602908116908181146145bf576145bf613c7d565b509291505056fea164736f6c634300081c000a",
  "linkReferences": {
    "npm/poseidon-solidity@0.0.5/PoseidonT3.sol": {
      "PoseidonT3": [
        {
          "length": 20,
          "start": 8271
        },
        {
          "length": 20,
          "start": 8455
        },
        {
          "length": 20,
          "start": 9855
        },
        {
          "length": 20,
          "start": 13983
        },
        {
          "length": 20,
          "start": 14425
        }
      ]
    }
  },
  "deployedLinkReferences": {
    "npm/poseidon-solidity@0.0.5/PoseidonT3.sol": {
      "PoseidonT3": [
        {
          "length": 20,
          "start": 8057
        },
        {
          "length": 20,
          "start": 8241
        },
        {
          "length": 20,
          "start": 9641
        },
        {
          "length": 20,
          "start": 13769
        },
        {
          "length": 20,
          "start": 14211
        }
      ]
    }
  },
  "immutableReferences": {},
  "inputSourceName": "project/contracts/registry/CiphernodeRegistryOwnable.sol",
  "buildInfoId": "solc-0_8_28-369f1ad8eea78d4c2afd75f88d1b51906ad9ac6c"
}