{
  "_format": "hh3-artifact-1",
  "contractName": "CiphernodeRegistryOwnable",
  "sourceName": "contracts/registry/CiphernodeRegistryOwnable.sol",
  "abi": [
    {
      "inputs": [],
      "stateMutability": "nonpayable",
      "type": "constructor"
    },
    {
      "inputs": [],
      "name": "AttestationBindingCountMismatch",
      "type": "error"
    },
    {
      "inputs": [],
      "name": "BondingRegistryNotSet",
      "type": "error"
    },
    {
      "inputs": [
        {
          "internalType": "address",
          "name": "node",
          "type": "address"
        }
      ],
      "name": "CiphernodeNotEnabled",
      "type": "error"
    },
    {
      "inputs": [],
      "name": "CommitteeAlreadyFinalized",
      "type": "error"
    },
    {
      "inputs": [],
      "name": "CommitteeAlreadyPublished",
      "type": "error"
    },
    {
      "inputs": [],
      "name": "CommitteeAlreadyRequested",
      "type": "error"
    },
    {
      "inputs": [],
      "name": "CommitteeDeadlineReached",
      "type": "error"
    },
    {
      "inputs": [],
      "name": "CommitteeNotFinalized",
      "type": "error"
    },
    {
      "inputs": [],
      "name": "CommitteeNotInitializedOrFinalized",
      "type": "error"
    },
    {
      "inputs": [],
      "name": "CommitteeNotPublished",
      "type": "error"
    },
    {
      "inputs": [],
      "name": "CommitteeNotRequested",
      "type": "error"
    },
    {
      "inputs": [],
      "name": "DkgProofRequired",
      "type": "error"
    },
    {
      "inputs": [],
      "name": "FoldAttestationVerifierAlreadySet",
      "type": "error"
    },
    {
      "inputs": [],
      "name": "FoldAttestationVerifierNotSet",
      "type": "error"
    },
    {
      "inputs": [],
      "name": "FoldAttestationsRequired",
      "type": "error"
    },
    {
      "inputs": [
        {
          "internalType": "uint256",
          "name": "requested",
          "type": "uint256"
        },
        {
          "internalType": "uint256",
          "name": "available",
          "type": "uint256"
        }
      ],
      "name": "InsufficientCiphernodes",
      "type": "error"
    },
    {
      "inputs": [],
      "name": "InvalidDkgProof",
      "type": "error"
    },
    {
      "inputs": [],
      "name": "InvalidFoldAttestation",
      "type": "error"
    },
    {
      "inputs": [],
      "name": "InvalidInitialization",
      "type": "error"
    },
    {
      "inputs": [],
      "name": "InvalidTicketNumber",
      "type": "error"
    },
    {
      "inputs": [],
      "name": "NoPendingVerifierUpdate",
      "type": "error"
    },
    {
      "inputs": [],
      "name": "NodeAlreadySubmitted",
      "type": "error"
    },
    {
      "inputs": [
        {
          "internalType": "address",
          "name": "node",
          "type": "address"
        }
      ],
      "name": "NodeNotBonded",
      "type": "error"
    },
    {
      "inputs": [],
      "name": "NodeNotEligible",
      "type": "error"
    },
    {
      "inputs": [],
      "name": "NodeNotSubmitted",
      "type": "error"
    },
    {
      "inputs": [],
      "name": "NotInitializing",
      "type": "error"
    },
    {
      "inputs": [],
      "name": "NotOwnerOrBondingRegistry",
      "type": "error"
    },
    {
      "inputs": [],
      "name": "NotSlashingManager",
      "type": "error"
    },
    {
      "inputs": [],
      "name": "OnlyBondingRegistry",
      "type": "error"
    },
    {
      "inputs": [],
      "name": "OnlyEnclave",
      "type": "error"
    },
    {
      "inputs": [
        {
          "internalType": "address",
          "name": "owner",
          "type": "address"
        }
      ],
      "name": "OwnableInvalidOwner",
      "type": "error"
    },
    {
      "inputs": [
        {
          "internalType": "address",
          "name": "account",
          "type": "address"
        }
      ],
      "name": "OwnableUnauthorizedAccount",
      "type": "error"
    },
    {
      "inputs": [],
      "name": "PartyIdNotInProof",
      "type": "error"
    },
    {
      "inputs": [
        {
          "internalType": "uint256",
          "name": "partyId",
          "type": "uint256"
        },
        {
          "internalType": "uint256",
          "name": "committeeSize",
          "type": "uint256"
        }
      ],
      "name": "PartyIdOutOfBounds",
      "type": "error"
    },
    {
      "inputs": [],
      "name": "PkCommitmentRequired",
      "type": "error"
    },
    {
      "inputs": [],
      "name": "SubmissionWindowClosed",
      "type": "error"
    },
    {
      "inputs": [],
      "name": "SubmissionWindowNotClosed",
      "type": "error"
    },
    {
      "inputs": [],
      "name": "ThresholdNotMet",
      "type": "error"
    },
    {
      "inputs": [],
      "name": "Unauthorized",
      "type": "error"
    },
    {
      "inputs": [
        {
          "internalType": "address",
          "name": "pending",
          "type": "address"
        },
        {
          "internalType": "address",
          "name": "provided",
          "type": "address"
        }
      ],
      "name": "VerifierMismatch",
      "type": "error"
    },
    {
      "inputs": [
        {
          "internalType": "uint256",
          "name": "readyAt",
          "type": "uint256"
        },
        {
          "internalType": "uint256",
          "name": "nowAt",
          "type": "uint256"
        }
      ],
      "name": "VerifierUpdateTimelockActive",
      "type": "error"
    },
    {
      "inputs": [],
      "name": "ZeroAddress",
      "type": "error"
    },
    {
      "anonymous": false,
      "inputs": [
        {
          "indexed": true,
          "internalType": "address",
          "name": "bondingRegistry",
          "type": "address"
        }
      ],
      "name": "BondingRegistrySet",
      "type": "event"
    },
    {
      "anonymous": false,
      "inputs": [
        {
          "indexed": true,
          "internalType": "address",
          "name": "node",
          "type": "address"
        },
        {
          "indexed": false,
          "internalType": "uint256",
          "name": "index",
          "type": "uint256"
        },
        {
          "indexed": false,
          "internalType": "uint256",
          "name": "numNodes",
          "type": "uint256"
        },
        {
          "indexed": false,
          "internalType": "uint256",
          "name": "size",
          "type": "uint256"
        }
      ],
      "name": "CiphernodeAdded",
      "type": "event"
    },
    {
      "anonymous": false,
      "inputs": [
        {
          "indexed": true,
          "internalType": "address",
          "name": "node",
          "type": "address"
        },
        {
          "indexed": false,
          "internalType": "uint256",
          "name": "index",
          "type": "uint256"
        },
        {
          "indexed": false,
          "internalType": "uint256",
          "name": "numNodes",
          "type": "uint256"
        },
        {
          "indexed": false,
          "internalType": "uint256",
          "name": "size",
          "type": "uint256"
        }
      ],
      "name": "CiphernodeRemoved",
      "type": "event"
    },
    {
      "anonymous": false,
      "inputs": [
        {
          "indexed": true,
          "internalType": "uint256",
          "name": "e3Id",
          "type": "uint256"
        },
        {
          "indexed": false,
          "internalType": "bool",
          "name": "active",
          "type": "bool"
        }
      ],
      "name": "CommitteeActivationChanged",
      "type": "event"
    },
    {
      "anonymous": false,
      "inputs": [
        {
          "indexed": true,
          "internalType": "uint256",
          "name": "e3Id",
          "type": "uint256"
        },
        {
          "indexed": false,
          "internalType": "address[]",
          "name": "committee",
          "type": "address[]"
        },
        {
          "indexed": false,
          "internalType": "uint256[]",
          "name": "scores",
          "type": "uint256[]"
        }
      ],
      "name": "CommitteeFinalized",
      "type": "event"
    },
    {
      "anonymous": false,
      "inputs": [
        {
          "indexed": true,
          "internalType": "uint256",
          "name": "e3Id",
          "type": "uint256"
        },
        {
          "indexed": false,
          "internalType": "uint256",
          "name": "nodesSubmitted",
          "type": "uint256"
        },
        {
          "indexed": false,
          "internalType": "uint256",
          "name": "thresholdRequired",
          "type": "uint256"
        }
      ],
      "name": "CommitteeFormationFailed",
      "type": "event"
    },
    {
      "anonymous": false,
      "inputs": [
        {
          "indexed": true,
          "internalType": "uint256",
          "name": "e3Id",
          "type": "uint256"
        },
        {
          "indexed": true,
          "internalType": "address",
          "name": "node",
          "type": "address"
        },
        {
          "indexed": false,
          "internalType": "bytes32",
          "name": "reason",
          "type": "bytes32"
        },
        {
          "indexed": false,
          "internalType": "uint256",
          "name": "activeCountAfter",
          "type": "uint256"
        }
      ],
      "name": "CommitteeMemberExpelled",
      "type": "event"
    },
    {
      "anonymous": false,
      "inputs": [
        {
          "indexed": true,
          "internalType": "uint256",
          "name": "e3Id",
          "type": "uint256"
        },
        {
          "indexed": false,
          "internalType": "address[]",
          "name": "nodes",
          "type": "address[]"
        },
        {
          "indexed": false,
          "internalType": "bytes",
          "name": "publicKey",
          "type": "bytes"
        },
        {
          "indexed": false,
          "internalType": "bytes32",
          "name": "pkCommitment",
          "type": "bytes32"
        },
        {
          "indexed": false,
          "internalType": "bytes",
          "name": "proof",
          "type": "bytes"
        }
      ],
      "name": "CommitteePublished",
      "type": "event"
    },
    {
      "anonymous": false,
      "inputs": [
        {
          "indexed": true,
          "internalType": "uint256",
          "name": "e3Id",
          "type": "uint256"
        },
        {
          "indexed": false,
          "internalType": "uint256",
          "name": "seed",
          "type": "uint256"
        },
        {
          "indexed": false,
          "internalType": "uint32[2]",
          "name": "threshold",
          "type": "uint32[2]"
        },
        {
          "indexed": false,
          "internalType": "uint256",
          "name": "requestBlock",
          "type": "uint256"
        },
        {
          "indexed": false,
          "internalType": "uint256",
          "name": "committeeDeadline",
          "type": "uint256"
        }
      ],
      "name": "CommitteeRequested",
      "type": "event"
    },
    {
      "anonymous": false,
      "inputs": [
        {
          "indexed": true,
          "internalType": "uint256",
          "name": "e3Id",
          "type": "uint256"
        },
        {
          "indexed": false,
          "internalType": "uint256",
          "name": "activeCount",
          "type": "uint256"
        },
        {
          "indexed": false,
          "internalType": "uint256",
          "name": "thresholdM",
          "type": "uint256"
        },
        {
          "indexed": false,
          "internalType": "bool",
          "name": "viable",
          "type": "bool"
        }
      ],
      "name": "CommitteeViabilityUpdated",
      "type": "event"
    },
    {
      "anonymous": false,
      "inputs": [
        {
          "indexed": true,
          "internalType": "address",
          "name": "verifier",
          "type": "address"
        }
      ],
      "name": "DkgFoldAttestationVerifierProposalCancelled",
      "type": "event"
    },
    {
      "anonymous": false,
      "inputs": [
        {
          "indexed": true,
          "internalType": "address",
          "name": "verifier",
          "type": "address"
        },
        {
          "indexed": false,
          "internalType": "uint256",
          "name": "readyAt",
          "type": "uint256"
        }
      ],
      "name": "DkgFoldAttestationVerifierProposed",
      "type": "event"
    },
    {
      "anonymous": false,
      "inputs": [
        {
          "indexed": true,
          "internalType": "address",
          "name": "verifier",
          "type": "address"
        }
      ],
      "name": "DkgFoldAttestationVerifierUpdated",
      "type": "event"
    },
    {
      "anonymous": false,
      "inputs": [
        {
          "indexed": true,
          "internalType": "address",
          "name": "enclave",
          "type": "address"
        }
      ],
      "name": "EnclaveSet",
      "type": "event"
    },
    {
      "anonymous": false,
      "inputs": [
        {
          "indexed": false,
          "internalType": "uint64",
          "name": "version",
          "type": "uint64"
        }
      ],
      "name": "Initialized",
      "type": "event"
    },
    {
      "anonymous": false,
      "inputs": [
        {
          "indexed": true,
          "internalType": "address",
          "name": "previousOwner",
          "type": "address"
        },
        {
          "indexed": true,
          "internalType": "address",
          "name": "newOwner",
          "type": "address"
        }
      ],
      "name": "OwnershipTransferred",
      "type": "event"
    },
    {
      "anonymous": false,
      "inputs": [
        {
          "indexed": true,
          "internalType": "address",
          "name": "slashingManager",
          "type": "address"
        }
      ],
      "name": "SlashingManagerSet",
      "type": "event"
    },
    {
      "anonymous": false,
      "inputs": [
        {
          "indexed": false,
          "internalType": "uint256",
          "name": "sortitionSubmissionWindow",
          "type": "uint256"
        }
      ],
      "name": "SortitionSubmissionWindowSet",
      "type": "event"
    },
    {
      "anonymous": false,
      "inputs": [
        {
          "indexed": true,
          "internalType": "uint256",
          "name": "e3Id",
          "type": "uint256"
        },
        {
          "indexed": true,
          "internalType": "address",
          "name": "node",
          "type": "address"
        },
        {
          "indexed": false,
          "internalType": "uint256",
          "name": "ticketId",
          "type": "uint256"
        },
        {
          "indexed": false,
          "internalType": "uint256",
          "name": "score",
          "type": "uint256"
        }
      ],
      "name": "TicketSubmitted",
      "type": "event"
    },
    {
      "inputs": [],
      "name": "DKG_FOLD_VERIFIER_TIMELOCK",
      "outputs": [
        {
          "internalType": "uint256",
          "name": "",
          "type": "uint256"
        }
      ],
      "stateMutability": "view",
      "type": "function"
    },
    {
      "inputs": [],
      "name": "TREE_DEPTH",
      "outputs": [
        {
          "internalType": "uint8",
          "name": "",
          "type": "uint8"
        }
      ],
      "stateMutability": "view",
      "type": "function"
    },
    {
      "inputs": [
        {
          "internalType": "address",
          "name": "node",
          "type": "address"
        }
      ],
      "name": "addCiphernode",
      "outputs": [],
      "stateMutability": "nonpayable",
      "type": "function"
    },
    {
      "inputs": [],
      "name": "bondingRegistry",
      "outputs": [
        {
          "internalType": "contract IBondingRegistry",
          "name": "",
          "type": "address"
        }
      ],
      "stateMutability": "view",
      "type": "function"
    },
    {
      "inputs": [],
      "name": "cancelDkgFoldAttestationVerifierProposal",
      "outputs": [],
      "stateMutability": "nonpayable",
      "type": "function"
    },
    {
      "inputs": [
        {
          "internalType": "address",
          "name": "node",
          "type": "address"
        }
      ],
      "name": "ciphernodeEnabled",
      "outputs": [
        {
          "internalType": "bool",
          "name": "enabled",
          "type": "bool"
        }
      ],
      "stateMutability": "view",
      "type": "function"
    },
    {
      "inputs": [
        {
          "internalType": "address",
          "name": "node",
          "type": "address"
        }
      ],
      "name": "ciphernodeTreeIndex",
      "outputs": [
        {
          "internalType": "uint40",
          "name": "index",
          "type": "uint40"
        }
      ],
      "stateMutability": "view",
      "type": "function"
    },
    {
      "inputs": [],
      "name": "ciphernodes",
      "outputs": [
        {
          "internalType": "uint40",
          "name": "maxIndex",
          "type": "uint40"
        },
        {
          "internalType": "uint40",
          "name": "numberOfLeaves",
          "type": "uint40"
        }
      ],
      "stateMutability": "view",
      "type": "function"
    },
    {
      "inputs": [
        {
          "internalType": "contract IDkgFoldAttestationVerifier",
          "name": "verifier",
          "type": "address"
        }
      ],
      "name": "commitDkgFoldAttestationVerifier",
      "outputs": [],
      "stateMutability": "nonpayable",
      "type": "function"
    },
    {
      "inputs": [
        {
          "internalType": "uint256",
          "name": "e3Id",
          "type": "uint256"
        }
      ],
      "name": "committeePublicKey",
      "outputs": [
        {
          "internalType": "bytes32",
          "name": "publicKeyHash",
          "type": "bytes32"
        }
      ],
      "stateMutability": "view",
      "type": "function"
    },
    {
      "inputs": [],
      "name": "dkgFoldAttestationVerifier",
      "outputs": [
        {
          "internalType": "contract IDkgFoldAttestationVerifier",
          "name": "",
          "type": "address"
        }
      ],
      "stateMutability": "view",
      "type": "function"
    },
    {
      "inputs": [],
      "name": "enclave",
      "outputs": [
        {
          "internalType": "contract IEnclave",
          "name": "",
          "type": "address"
        }
      ],
      "stateMutability": "view",
      "type": "function"
    },
    {
      "inputs": [
        {
          "internalType": "uint256",
          "name": "e3Id",
          "type": "uint256"
        },
        {
          "internalType": "address",
          "name": "node",
          "type": "address"
        },
        {
          "internalType": "bytes32",
          "name": "reason",
          "type": "bytes32"
        }
      ],
      "name": "expelCommitteeMember",
      "outputs": [
        {
          "internalType": "uint256",
          "name": "activeCount",
          "type": "uint256"
        },
        {
          "internalType": "uint32",
          "name": "thresholdM",
          "type": "uint32"
        }
      ],
      "stateMutability": "nonpayable",
      "type": "function"
    },
    {
      "inputs": [
        {
          "internalType": "uint256",
          "name": "e3Id",
          "type": "uint256"
        }
      ],
      "name": "finalizeCommittee",
      "outputs": [
        {
          "internalType": "bool",
          "name": "success",
          "type": "bool"
        }
      ],
      "stateMutability": "nonpayable",
      "type": "function"
    },
    {
      "inputs": [
        {
          "internalType": "uint256",
          "name": "e3Id",
          "type": "uint256"
        }
      ],
      "name": "getActiveCommitteeNodes",
      "outputs": [
        {
          "internalType": "address[]",
          "name": "nodes",
          "type": "address[]"
        },
        {
          "internalType": "uint256[]",
          "name": "scores",
          "type": "uint256[]"
        }
      ],
      "stateMutability": "view",
      "type": "function"
    },
    {
      "inputs": [],
      "name": "getBondingRegistry",
      "outputs": [
        {
          "internalType": "address",
          "name": "",
          "type": "address"
        }
      ],
      "stateMutability": "view",
      "type": "function"
    },
    {
      "inputs": [
        {
          "internalType": "uint256",
          "name": "e3Id",
          "type": "uint256"
        }
      ],
      "name": "getCommitteeDeadline",
      "outputs": [
        {
          "internalType": "uint256",
          "name": "",
          "type": "uint256"
        }
      ],
      "stateMutability": "view",
      "type": "function"
    },
    {
      "inputs": [
        {
          "internalType": "uint256",
          "name": "e3Id",
          "type": "uint256"
        }
      ],
      "name": "getCommitteeHash",
      "outputs": [
        {
          "internalType": "bytes32",
          "name": "committeeHash",
          "type": "bytes32"
        }
      ],
      "stateMutability": "view",
      "type": "function"
    },
    {
      "inputs": [
        {
          "internalType": "uint256",
          "name": "e3Id",
          "type": "uint256"
        },
        {
          "internalType": "uint256",
          "name": "partyId",
          "type": "uint256"
        }
      ],
      "name": "getCommitteeNodeAt",
      "outputs": [
        {
          "internalType": "address",
          "name": "",
          "type": "address"
        }
      ],
      "stateMutability": "view",
      "type": "function"
    },
    {
      "inputs": [
        {
          "internalType": "uint256",
          "name": "e3Id",
          "type": "uint256"
        }
      ],
      "name": "getCommitteeNodes",
      "outputs": [
        {
          "internalType": "address[]",
          "name": "nodes",
          "type": "address[]"
        }
      ],
      "stateMutability": "view",
      "type": "function"
    },
    {
      "inputs": [
        {
          "internalType": "uint256",
          "name": "e3Id",
          "type": "uint256"
        }
      ],
      "name": "getCommitteeViability",
      "outputs": [
        {
          "internalType": "uint256",
          "name": "activeCount",
          "type": "uint256"
        },
        {
          "internalType": "uint32",
          "name": "thresholdM",
          "type": "uint32"
        },
        {
          "internalType": "uint32",
          "name": "thresholdN",
          "type": "uint32"
        },
        {
          "internalType": "bool",
          "name": "viable",
          "type": "bool"
        }
      ],
      "stateMutability": "view",
      "type": "function"
    },
    {
      "inputs": [
        {
          "internalType": "uint256",
          "name": "e3Id",
          "type": "uint256"
        }
      ],
      "name": "getDkgAnchors",
      "outputs": [
        {
          "internalType": "uint256[]",
          "name": "partyIds",
          "type": "uint256[]"
        },
        {
          "internalType": "bytes32[]",
          "name": "skAggCommits",
          "type": "bytes32[]"
        },
        {
          "internalType": "bytes32[]",
          "name": "esmAggCommits",
          "type": "bytes32[]"
        }
      ],
      "stateMutability": "view",
      "type": "function"
    },
    {
      "inputs": [
        {
          "internalType": "address",
          "name": "_owner",
          "type": "address"
        },
        {
          "internalType": "uint256",
          "name": "_submissionWindow",
          "type": "uint256"
        }
      ],
      "name": "initialize",
      "outputs": [],
      "stateMutability": "nonpayable",
      "type": "function"
    },
    {
      "inputs": [
        {
          "internalType": "address",
          "name": "node",
          "type": "address"
        }
      ],
      "name": "isCiphernodeEligible",
      "outputs": [
        {
          "internalType": "bool",
          "name": "",
          "type": "bool"
        }
      ],
      "stateMutability": "view",
      "type": "function"
    },
    {
      "inputs": [
        {
          "internalType": "uint256",
          "name": "e3Id",
          "type": "uint256"
        },
        {
          "internalType": "address",
          "name": "node",
          "type": "address"
        }
      ],
      "name": "isCommitteeMember",
      "outputs": [
        {
          "internalType": "bool",
          "name": "",
          "type": "bool"
        }
      ],
      "stateMutability": "view",
      "type": "function"
    },
    {
      "inputs": [
        {
          "internalType": "uint256",
          "name": "e3Id",
          "type": "uint256"
        },
        {
          "internalType": "address",
          "name": "node",
          "type": "address"
        }
      ],
      "name": "isCommitteeMemberActive",
      "outputs": [
        {
          "internalType": "bool",
          "name": "",
          "type": "bool"
        }
      ],
      "stateMutability": "view",
      "type": "function"
    },
    {
      "inputs": [
        {
          "internalType": "address",
          "name": "node",
          "type": "address"
        }
      ],
      "name": "isEnabled",
      "outputs": [
        {
          "internalType": "bool",
          "name": "",
          "type": "bool"
        }
      ],
      "stateMutability": "view",
      "type": "function"
    },
    {
      "inputs": [
        {
          "internalType": "uint256",
          "name": "e3Id",
          "type": "uint256"
        }
      ],
      "name": "isOpen",
      "outputs": [
        {
          "internalType": "bool",
          "name": "",
          "type": "bool"
        }
      ],
      "stateMutability": "view",
      "type": "function"
    },
    {
      "inputs": [],
      "name": "numCiphernodes",
      "outputs": [
        {
          "internalType": "uint256",
          "name": "",
          "type": "uint256"
        }
      ],
      "stateMutability": "view",
      "type": "function"
    },
    {
      "inputs": [],
      "name": "owner",
      "outputs": [
        {
          "internalType": "address",
          "name": "",
          "type": "address"
        }
      ],
      "stateMutability": "view",
      "type": "function"
    },
    {
      "inputs": [],
      "name": "pendingDkgFoldAttestationVerifier",
      "outputs": [
        {
          "internalType": "address",
          "name": "",
          "type": "address"
        }
      ],
      "stateMutability": "view",
      "type": "function"
    },
    {
      "inputs": [],
      "name": "pendingDkgFoldAttestationVerifierAt",
      "outputs": [
        {
          "internalType": "uint256",
          "name": "",
          "type": "uint256"
        }
      ],
      "stateMutability": "view",
      "type": "function"
    },
    {
      "inputs": [
        {
          "internalType": "contract IDkgFoldAttestationVerifier",
          "name": "verifier",
          "type": "address"
        }
      ],
      "name": "proposeDkgFoldAttestationVerifier",
      "outputs": [],
      "stateMutability": "nonpayable",
      "type": "function"
    },
    {
      "inputs": [
        {
          "internalType": "uint256",
          "name": "e3Id",
          "type": "uint256"
        }
      ],
      "name": "publicKeyHashes",
      "outputs": [
        {
          "internalType": "bytes32",
          "name": "publicKeyHash",
          "type": "bytes32"
        }
      ],
      "stateMutability": "view",
      "type": "function"
    },
    {
      "inputs": [
        {
          "internalType": "uint256",
          "name": "e3Id",
          "type": "uint256"
        },
        {
          "internalType": "bytes",
          "name": "publicKey",
          "type": "bytes"
        },
        {
          "internalType": "bytes32",
          "name": "pkCommitment",
          "type": "bytes32"
        },
        {
          "internalType": "bytes",
          "name": "proof",
          "type": "bytes"
        },
        {
          "internalType": "bytes",
          "name": "dkgAttestationBundle",
          "type": "bytes"
        }
      ],
      "name": "publishCommittee",
      "outputs": [],
      "stateMutability": "nonpayable",
      "type": "function"
    },
    {
      "inputs": [
        {
          "internalType": "address",
          "name": "node",
          "type": "address"
        }
      ],
      "name": "removeCiphernode",
      "outputs": [],
      "stateMutability": "nonpayable",
      "type": "function"
    },
    {
      "inputs": [],
      "name": "renounceOwnership",
      "outputs": [],
      "stateMutability": "nonpayable",
      "type": "function"
    },
    {
      "inputs": [
        {
          "internalType": "uint256",
          "name": "e3Id",
          "type": "uint256"
        },
        {
          "internalType": "uint256",
          "name": "seed",
          "type": "uint256"
        },
        {
          "internalType": "uint32[2]",
          "name": "threshold",
          "type": "uint32[2]"
        }
      ],
      "name": "requestCommittee",
      "outputs": [
        {
          "internalType": "bool",
          "name": "success",
          "type": "bool"
        }
      ],
      "stateMutability": "nonpayable",
      "type": "function"
    },
    {
      "inputs": [],
      "name": "root",
      "outputs": [
        {
          "internalType": "uint256",
          "name": "",
          "type": "uint256"
        }
      ],
      "stateMutability": "view",
      "type": "function"
    },
    {
      "inputs": [
        {
          "internalType": "uint256",
          "name": "e3Id",
          "type": "uint256"
        }
      ],
      "name": "rootAt",
      "outputs": [
        {
          "internalType": "uint256",
          "name": "",
          "type": "uint256"
        }
      ],
      "stateMutability": "view",
      "type": "function"
    },
    {
      "inputs": [
        {
          "internalType": "uint256",
          "name": "e3Id",
          "type": "uint256"
        }
      ],
      "name": "roots",
      "outputs": [
        {
          "internalType": "uint256",
          "name": "root",
          "type": "uint256"
        }
      ],
      "stateMutability": "view",
      "type": "function"
    },
    {
      "inputs": [
        {
          "internalType": "contract IBondingRegistry",
          "name": "_bondingRegistry",
          "type": "address"
        }
      ],
      "name": "setBondingRegistry",
      "outputs": [],
      "stateMutability": "nonpayable",
      "type": "function"
    },
    {
      "inputs": [
        {
          "internalType": "contract IEnclave",
          "name": "_enclave",
          "type": "address"
        }
      ],
      "name": "setEnclave",
      "outputs": [],
      "stateMutability": "nonpayable",
      "type": "function"
    },
    {
      "inputs": [
        {
          "internalType": "contract IDkgFoldAttestationVerifier",
          "name": "verifier",
          "type": "address"
        }
      ],
      "name": "setInitialDkgFoldAttestationVerifier",
      "outputs": [],
      "stateMutability": "nonpayable",
      "type": "function"
    },
    {
      "inputs": [
        {
          "internalType": "contract ISlashingManager",
          "name": "_slashingManager",
          "type": "address"
        }
      ],
      "name": "setSlashingManager",
      "outputs": [],
      "stateMutability": "nonpayable",
      "type": "function"
    },
    {
      "inputs": [
        {
          "internalType": "uint256",
          "name": "_sortitionSubmissionWindow",
          "type": "uint256"
        }
      ],
      "name": "setSortitionSubmissionWindow",
      "outputs": [],
      "stateMutability": "nonpayable",
      "type": "function"
    },
    {
      "inputs": [],
      "name": "slashingManager",
      "outputs": [
        {
          "internalType": "contract ISlashingManager",
          "name": "",
          "type": "address"
        }
      ],
      "stateMutability": "view",
      "type": "function"
    },
    {
      "inputs": [],
      "name": "sortitionSubmissionWindow",
      "outputs": [
        {
          "internalType": "uint256",
          "name": "",
          "type": "uint256"
        }
      ],
      "stateMutability": "view",
      "type": "function"
    },
    {
      "inputs": [
        {
          "internalType": "uint256",
          "name": "e3Id",
          "type": "uint256"
        },
        {
          "internalType": "uint256",
          "name": "ticketNumber",
          "type": "uint256"
        }
      ],
      "name": "submitTicket",
      "outputs": [],
      "stateMutability": "nonpayable",
      "type": "function"
    },
    {
      "inputs": [
        {
          "internalType": "address",
          "name": "newOwner",
          "type": "address"
        }
      ],
      "name": "transferOwnership",
      "outputs": [],
      "stateMutability": "nonpayable",
      "type": "function"
    },
    {
      "inputs": [],
      "name": "treeSize",
      "outputs": [
        {
          "internalType": "uint256",
          "name": "",
          "type": "uint256"
        }
      ],
      "stateMutability": "view",
      "type": "function"
    }
  ],
  "bytecode": "0x6080604052348015600e575f5ffd5b5060156019565b60c9565b7ff0c57e16840df040f15088dc2f81fe391c3923bec73e23a9662efc9c229c6a00805468010000000000000000900460ff161560685760405163f92ee8a960e01b815260040160405180910390fd5b80546001600160401b039081161460c65780546001600160401b0319166001600160401b0390811782556040519081527fc7f505b2f371ae2175ee4913f4499e1f2633a7b5936321eed1cdaeb6115181d29060200160405180910390a15b50565b6148dd806100d65f395ff3fe608060405234801561000f575f5ffd5b50600436106102b8575f3560e01c80639a7a2ffc11610177578063da881e5a116100d5578063ebf0c7171161008f578063ebf0c71714610694578063f16505361461069c578063f2fde38b146106b6578063f379b0df146106c9578063f52fd80314610703578063f6fc05d514610773578063fa9325691461077c575f5ffd5b8063da881e5a14610623578063dbb06c9314610636578063e4be6e3d14610648578063e59e46951461065b578063e6745e131461066e578063e82f3b7014610681575f5ffd5b8063b8ab470411610131578063b8ab470414610584578063bff232c1146105a6578063c2b40ae4146105b9578063c3a0ec30146105d8578063c8fe182d146105e9578063ca2869a0146105f1578063cd6dc68714610610575f5ffd5b80639a7a2ffc146104f05780639f0f874a1461052c578063a016493014610535578063a8a4d69b14610555578063acc5249414610568578063b2d5d1ac1461057b575f5ffd5b806350e6fad31161022457806385814243116101de57806385814243146104675780638a78bb151461047a5780638cb89ecb1461048d5780638d1ddfb1146104ac5780638da5cb5b146104c25780638e5ce3ad146104ca5780639015d371146104dd575f5ffd5b806350e6fad3146103e25780635d504776146103ec57806362cc89a8146103ff57806370e36bbe1461041f578063715018a6146104325780637c92f5241461043a575f5ffd5b80632800d829116102755780632800d82914610351578063291a691b146103645780632e7b716d14610387578063323beaa51461039a5780634d6861a6146103ad57806350e6d94c146103c0575f5ffd5b8063096b810a146102bc578063099a161a146102d15780630b45f8e9146102f75780630bbfade71461030a5780630f3e34121461031d57806317d6112014610330575b5f5ffd5b6102cf6102ca366004613c75565b61078f565b005b6102e46102df366004613c90565b6108db565b6040519081526020015b60405180910390f35b6102cf610305366004613c75565b610914565b6102cf610318366004613ceb565b6109b5565b6102cf61032b366004613c90565b610bf9565b61034361033e366004613c90565b610c3c565b6040516102ee929190613e0c565b6102e461035f366004613c90565b610de5565b610377610372366004613e39565b610e31565b60405190151581526020016102ee565b610377610395366004613c75565b61100b565b6102cf6103a8366004613c75565b6110be565b6103776103bb366004613c90565b6111cf565b6103776103ce366004613c75565b60066020525f908152604090205460ff1681565b6102e46202a30081565b6103776103fa366004613e72565b61120e565b600d54610412906001600160a01b031681565b6040516102ee9190613ea0565b6102cf61042d366004613c75565b611251565b6102cf6112c7565b61044d610448366004613eb4565b6112da565b6040805192835263ffffffff9091166020830152016102ee565b600154610412906001600160a01b031681565b6102cf610488366004613c75565b611481565b6102e461049b366004613c90565b60096020525f908152604090205481565b600454600160281b900464ffffffffff166102e4565b6104126115bf565b600b54610412906001600160a01b031681565b6103776104eb366004613c75565b6115ed565b6105166104fe366004613c75565b60076020525f908152604090205464ffffffffff1681565b60405164ffffffffff90911681526020016102ee565b6102e460035481565b610548610543366004613c90565b61160a565b6040516102ee9190613ee9565b610377610563366004613e72565b6116a0565b6102cf610576366004613c75565b6116e3565b6102e4600e5481565b610597610592366004613c90565b61177a565b6040516102ee93929190613efb565b6102cf6105b4366004613c75565b6118c5565b6102e46105c7366004613c90565b60086020525f908152604090205481565b6001546001600160a01b0316610412565b6102cf61193d565b6102e46105ff366004613c90565b5f9081526008602052604090205490565b6102cf61061e366004613f3d565b6119b9565b610377610631366004613c90565b611b16565b5f54610412906001600160a01b031681565b600c54610412906001600160a01b031681565b6102cf610669366004613c75565b611df9565b6102cf61067c366004613f67565b611e71565b6102e461068f366004613c90565b612034565b6102e4612065565b6106a4601481565b60405160ff90911681526020016102ee565b6102cf6106c4366004613c75565b612077565b6004546106e59064ffffffffff80821691600160281b90041682565b6040805164ffffffffff9384168152929091166020830152016102ee565b610744610711366004613c90565b5f908152600a60205260409020600b810154600590910154909163ffffffff80831692600160201b900416908284101590565b6040516102ee949392919093845263ffffffff9283166020850152911660408301521515606082015260800190565b6102e460025481565b61041261078a366004613f67565b6120b1565b6107976115bf565b6001600160a01b0316336001600160a01b031614806107c057506001546001600160a01b031633145b6107dd57604051632864c4e160e01b815260040160405180910390fd5b6107e6816115ed565b819061080f576040516381e5828960e01b81526004016108069190613ea0565b60405180910390fd5b506001600160a01b0381165f9081526007602052604081205464ffffffffff169061083d906004908361211e565b6001600160a01b0382165f908152600660205260408120805460ff19169055600280549161086a83613f9b565b90915550506002546004546040805164ffffffffff80861682526020820194909452600160281b909204909216918101919091526001600160a01b038316907f8c008e3835f6c79bfcdb89f0f6ca8705e0b01049ee84a90b0e4da1c7ba9405d5906060015b60405180910390a25050565b5f818152600a60205260408120600481015461090a576040516322e679e360e11b815260040160405180910390fd5b6007015492915050565b61091c6123c0565b600c546001600160a01b0316156109455760405162035f5560e61b815260040160405180910390fd5b6001600160a01b03811661096c5760405163d92e233d60e01b815260040160405180910390fd5b600c80546001600160a01b0319166001600160a01b0383169081179091556040517f69d0aaccd9fd7c013f79cb6049c6c097cf0c02dd6111daf1f7be30836a119a1b905f90a250565b5f888152600a602052604090206002815460ff1660038111156109da576109da613fb0565b146109f857604051634f4b461f60e11b815260040160405180910390fd5b600481015415610a1b5760405163632a22bb60e01b815260040160405180910390fd5b85610a3957604051636caad1ed60e11b815260040160405180910390fd5b5f610a9d82600601805480602002602001604051908101604052809291908181526020018280548015610a9357602002820191905f5260205f20905b81546001600160a01b03168152600190910190602001808311610a75575b50505050506123f2565b600783018190555f805460405163101bb4d760e21b8152600481018e905292935090916001600160a01b039091169063406ed35c906024015f60405180830381865afa158015610aef573d5f5f3e3d5ffd5b505050506040513d5f823e601f3d908101601f19168201604052610b169190810190614140565b9050806101c0015115610b3357610b338b828a858b8b8b8b6124f8565b60048381018990555f8c8152600960205260408082208b9055905490516340a3b76160e11b81529182018d9052602482018a90526001600160a01b0316906381476ec2906044015f604051808303815f87803b158015610b91575f5ffd5b505af1158015610ba3573d5f5f3e3d5ffd5b505050508a7fbf0636a312095f6c09c909823813b50e392323588d2d83432e7512c64041e67f846006018c8c8c8c8c604051610be496959493929190614302565b60405180910390a25050505050505050505050565b610c016123c0565b60038190556040518181527fbe772dc189863d512fa01e489c8eac204975aef1a8662d8b5a333804b5207ab79060200160405180910390a150565b5f818152600a602052604090206006810154600b82015460609283929091806001600160401b03811115610c7257610c72613fc4565b604051908082528060200260200182016040528015610c9b578160200160208202803683370190505b509450806001600160401b03811115610cb657610cb6613fc4565b604051908082528060200260200182016040528015610cdf578160200160208202803683370190505b5093505f805b83811015610ddb575f856006018281548110610d0357610d0361434f565b5f918252602090912001546001600160a01b0316905060016001600160a01b0382165f908152600a8801602052604090205460ff166002811115610d4957610d49613fb0565b03610dd25780888481518110610d6157610d6161434f565b60200260200101906001600160a01b031690816001600160a01b031681525050856009015f826001600160a01b03166001600160a01b031681526020019081526020015f2054878481518110610db957610db961434f565b602090810291909101015282610dce81614363565b9350505b50600101610ce5565b5050505050915091565b5f818152600a6020526040812081815460ff166003811115610e0957610e09613fb0565b03610e2757604051630d4c1d9760e41b815260040160405180910390fd5b6003015492915050565b5f80546001600160a01b03163314610e5c5760405163e4c2a7eb60e01b815260040160405180910390fd5b5f848152600a6020526040812090815460ff166003811115610e8057610e80613fb0565b14610e9e576040516374ff462560e11b815260040160405180910390fd5b60015460408051630cc37d8f60e11b815290515f926001600160a01b031691631986fb1e9160048083019260209291908290030181865afa158015610ee5573d5f5f3e3d5ffd5b505050506040513d601f19601f82011682018060405250810190610f09919061437b565b905080610f1c60408601602087016143a5565b63ffffffff161115610f3460408601602087016143a5565b829091610f62576040516344ec930f60e01b815263ffffffff90921660048301526024820152604401610806565b5050815460ff1916600190811783558201859055436002830155600354610f8990426143be565b6003830155610f9d60058301856002613b73565b50610fa6612065565b5f87815260086020526040908190209190915560028301546003840154915188927f381d281d32f95ef8fe4e5f3b263ea6a32d03d331e1a141ae1da996dc02a7a17092610ff7928a928a92916143d1565b60405180910390a250600195945050505050565b5f611015826115ed565b61102057505f919050565b6001546001600160a01b0316611049576040516350ca893360e01b815260040160405180910390fd5b600154604051639f8a13d760e01b81526001600160a01b0390911690639f8a13d790611079908590600401613ea0565b602060405180830381865afa158015611094573d5f5f3e3d5ffd5b505050506040513d601f19601f820116820180604052508101906110b89190614421565b92915050565b6110c66123c0565b600d546001600160a01b0316806110f05760405163366ca30560e11b815260040160405180910390fd5b80826001600160a01b038281169082161461113157604051630d77758160e31b81526001600160a01b03928316600482015291166024820152604401610806565b50505f6202a300600e5461114591906143be565b9050804281811015611173576040516337c8270b60e01b815260048101929092526024820152604401610806565b5050600c80546001600160a01b0385166001600160a01b03199182168117909255600d805490911690555f600e8190556040517f69d0aaccd9fd7c013f79cb6049c6c097cf0c02dd6111daf1f7be30836a119a1b9190a2505050565b5f818152600a602052604081206001815460ff1660038111156111f4576111f4613fb0565b1461120157505f92915050565b6003015442111592915050565b5f60015f848152600a602081815260408084206001600160a01b0388168552909201905290205460ff16600281111561124957611249613fb0565b149392505050565b6112596123c0565b6001600160a01b0381166112805760405163d92e233d60e01b815260040160405180910390fd5b5f80546001600160a01b0319166001600160a01b038316908117825560405190917f2c8267accd82e977550ed2349c73311183cd22e306347be4453c8d130995e3c991a250565b6112cf6123c0565b6112d85f6126f4565b565b600b545f9081906001600160a01b031633146113095760405163fcef374960e01b815260040160405180910390fd5b5f858152600a602052604090206002815460ff16600381111561132e5761132e613fb0565b1461134c57604051634f4b461f60e11b815260040160405180910390fd5b60058101546001600160a01b0386165f908152600a8301602052604090205463ffffffff909116925060019060ff16600281111561138c5761138c613fb0565b1461139c57600b01549150611479565b6001600160a01b0385165f908152600a820160205260408120805460ff19166002179055600b82018054916113d083613f9b565b919050555080600b01549250846001600160a01b0316867f6c783b92374361b4d6efaf29673b89437ee969bb3c9d2d5d86b143ad5447b8498686604051611421929190918252602082015260400190565b60405180910390a36040805184815263ffffffff84166020820181905285101591810182905287907f119cb11dd0a68c257d6dc9b06dcb37dd422ce276eb8bf3cd0b7079a116b8e2989060600160405180910390a250505b935093915050565b6114896115bf565b6001600160a01b0316336001600160a01b031614806114b257506001546001600160a01b031633145b6114cf57604051632864c4e160e01b815260040160405180910390fd5b6114d8816115ed565b6115bc5760048054600160281b900464ffffffffff1690611502906001600160a01b038416612764565b6001600160a01b0382165f908152600660209081526040808320805460ff1916600117905560079091528120805464ffffffffff841664ffffffffff19909116179055600280549161155383614363565b90915550506002546004546040805164ffffffffff80861682526020820194909452600160281b909204909216918101919091526001600160a01b038316907f3318d261fe14a5761d2d1e21555652f623d2134c430a9883c9ad6e958bb0db53906060016108cf565b50565b7f9016d09d72d40fdae2fd8ceac6b6234c7706214fd39c1cd1e609a0528c199300546001600160a01b031690565b6001600160a01b03165f9081526006602052604090205460ff1690565b5f818152600a6020526040902060048101546060919061163d576040516322e679e360e11b815260040160405180910390fd5b8060060180548060200260200160405190810160405280929190818152602001828054801561169357602002820191905f5260205f20905b81546001600160a01b03168152600190910190602001808311611675575b5050505050915050919050565b5f805f848152600a602081815260408084206001600160a01b0388168552909201905290205460ff1660028111156116da576116da613fb0565b14159392505050565b6116eb6123c0565b6001600160a01b0381166117125760405163d92e233d60e01b815260040160405180910390fd5b600d80546001600160a01b0319166001600160a01b03831690811790915542600e8190557fc4d0d0b50812c7ced0867d68b80682e9c1f549fe4f7b398a3a10054d3d9f0f2590611766906202a300906143be565b60405190815260200160405180910390a250565b5f81815260096020526040902054606090819081906117ac576040516322e679e360e11b815260040160405180910390fd5b5f848152600f602090815260408083206010835281842060118452938290208154835181860281018601909452808452919493909291859183018282801561181157602002820191905f5260205f20905b8154815260200190600101908083116117fd575b505050505092508180548060200260200160405190810160405280929190818152602001828054801561186157602002820191905f5260205f20905b81548152602001906001019080831161184d575b50505050509150808054806020026020016040519081016040528092919081815260200182805480156118b157602002820191905f5260205f20905b81548152602001906001019080831161189d575b505050505090509250925092509193909250565b6118cd6123c0565b6001600160a01b0381166118f45760405163d92e233d60e01b815260040160405180910390fd5b600b80546001600160a01b0319166001600160a01b0383169081179091556040517f4ccc8ed483c7c44c3602c3c38afc2c014a8f1d2dc210dfe58ebeeeead230f8e0905f90a250565b6119456123c0565b600d546001600160a01b03168061196f5760405163366ca30560e11b815260040160405180910390fd5b600d80546001600160a01b03191690555f600e8190556040516001600160a01b038316917f70d4f2aeee99318ec9b9950ac8942b1853f1271010f9afec7d5d51d16145eb8c91a250565b5f6119c261293a565b805490915060ff600160401b82041615906001600160401b03165f811580156119e85750825b90505f826001600160401b03166001148015611a035750303b155b905081158015611a11575080155b15611a2f5760405163f92ee8a960e01b815260040160405180910390fd5b845467ffffffffffffffff191660011785558315611a5957845460ff60401b1916600160401b1785555b6001600160a01b038716611a805760405163d92e233d60e01b815260040160405180910390fd5b611a8933612962565b611a9560046014612973565b611a9e86610bf9565b611aa66115bf565b6001600160a01b0316876001600160a01b031614611ac757611ac787612077565b8315611b0d57845460ff60401b19168555604051600181527fc7f505b2f371ae2175ee4913f4499e1f2633a7b5936321eed1cdaeb6115181d29060200160405180910390a15b50505050505050565b5f818152600a6020526040812081815460ff166003811115611b3a57611b3a613fb0565b03611b5857604051630d4c1d9760e41b815260040160405180910390fd5b6001815460ff166003811115611b7057611b70613fb0565b14611b8e57604051631860f69960e31b815260040160405180910390fd5b80600301544211611bb257604051632f021e8d60e11b815260040160405180910390fd5b60058101546006820154600160201b90910463ffffffff16111580611c97578154600360ff199091161782556006820154600583015460408051928352600160201b90910463ffffffff16602083015285917fecc4a9fb7e28d074cba7f5b227e9b5827823c850a385539b9a2f98a08f8c203d910160405180910390a25f54604051635d968dc160e11b815260048101869052600260248201526001600160a01b039091169063bb2d1b82906044015f604051808303815f87803b158015611c78575f5ffd5b505af1158015611c8a573d5f5f3e3d5ffd5b505f979650505050505050565b611ca0826129f2565b815460ff191660021782556006820154600b83018190555f816001600160401b03811115611cd057611cd0613fc4565b604051908082528060200260200182016040528015611cf9578160200160208202803683370190505b5090505f5b82811015611d6b57846009015f866006018381548110611d2057611d2061434f565b5f9182526020808320909101546001600160a01b031683528201929092526040019020548251839083908110611d5857611d5861434f565b6020908102919091010152600101611cfe565b505f54604051631f3ea75d60e21b8152600481018890526001600160a01b0390911690637cfa9d74906024015f604051808303815f87803b158015611dae575f5ffd5b505af1158015611dc0573d5f5f3e3d5ffd5b50505050857f4f1f5b329c741a8ba15e9645e301061294d0c1fdd455448ffd5e76ff255929d78560060183604051610ff792919061443a565b611e016123c0565b6001600160a01b038116611e285760405163d92e233d60e01b815260040160405180910390fd5b600180546001600160a01b0319166001600160a01b0383169081179091556040517fad4055f18cdad6f4bdd71afe3a72cbeee964217943e1bde38f138289e981a9a7905f90a250565b5f828152600a6020526040812090815460ff166003811115611e9557611e95613fb0565b03611eb357604051630d4c1d9760e41b815260040160405180910390fd5b6001815460ff166003811115611ecb57611ecb613fb0565b14611ee957604051631860f69960e31b815260040160405180910390fd5b8060030154421115611f0e57604051639a19114d60e01b815260040160405180910390fd5b335f90815260088201602052604090205460ff1615611f405760405163257309f160e11b815260040160405180910390fd5b611f493361100b565b611f665760405163149fbcfd60e11b815260040160405180910390fd5b611f71338385612b18565b6001810154604080516bffffffffffffffffffffffff193360601b16602080830191909152603482018690526054820187905260748083019490945282518083039094018452609490910190915281519101205f90335f8181526008850160205260409020805460ff19166001179055909150611ff090839083612ce9565b506040805184815260208101839052339186917f52999628fb1cb05707e842278833b22e511f11746202cecdf221968b0b89e8bd910160405180910390a350505050565b5f8181526009602052604090205480612060576040516322e679e360e11b815260040160405180910390fd5b919050565b5f61207260046014612eea565b905090565b61207f6123c0565b6001600160a01b0381166120a8575f604051631e4fbdf760e01b81526004016108069190613ea0565b6115bc816126f4565b5f828152600a60205260408120600601805483908082106120ee576040516326c5c55b60e11b815260048101929092526024820152604401610806565b50508083815481106121025761210261434f565b5f918252602090912001546001600160a01b0316949350505050565b7f30644e72e131a029b85045b68181585d2833e84879b9709143e1f593f0000001821061215d5760405162461bcd60e51b81526004016108069061444c565b825464ffffffffff600160281b909104811690821681116121bb5760405162461bcd60e51b815260206004820152601860248201527713185e9e5253550e881b195859881b5d5cdd08195e1a5cdd60421b6044820152606401610806565b825f5b81866001015f6121ce8488612fe3565b64ffffffffff1681526020019081526020015f20819055505f8160016121f49190614496565b60ff168464ffffffffff16901c64ffffffffff16905060018564ffffffffff16901c64ffffffffff16811161222957506123b8565b600185165f036122f0575f612248836122438860016144af565b612fe3565b60408051808201825286815264ffffffffff83165f90815260018c0160209081529083902054908201529051632b0aac7f60e11b815291925073__$078c82ddf6c95d34ea184ef1dd6130d136$__9163561558fe916122a9916004016144cc565b602060405180830381865af41580156122c4573d5f5f3e3d5ffd5b505050506040513d601f19601f820116820180604052508101906122e8919061437b565b9350506123a4565b5f612300836122436001896144fc565b60408051808201825264ffffffffff83165f90815260018c0160209081529083902054825281018790529051632b0aac7f60e11b815291925073__$078c82ddf6c95d34ea184ef1dd6130d136$__9163561558fe91612361916004016144cc565b602060405180830381865af415801561237c573d5f5f3e3d5ffd5b505050506040513d601f19601f820116820180604052508101906123a0919061437b565b9350505b50647fffffffff600194851c1693016121be565b505050505050565b336123c96115bf565b6001600160a01b0316146112d8573360405163118cdaa760e01b81526004016108069190613ea0565b80515f9081612402826014614519565b6001600160401b0381111561241957612419613fc4565b6040519080825280601f01601f191660200182016040528015612443576020820181803683370190505b5090505f5b828110156124e8575f8582815181106124635761246361434f565b602002602001015160601b90505f82601461247e9190614519565b90505f5b60148110156124da5782816014811061249d5761249d61434f565b1a60f81b856124ac83856143be565b815181106124bc576124bc61434f565b60200101906001600160f81b03191690815f1a905350600101612482565b505050806001019050612448565b5080516020909101209392505050565b8261251657604051630fb0193f60e41b815260040160405180910390fd5b8661012001516001600160a01b031663de12c640878787876040518563ffffffff1660e01b815260040161254d9493929190614530565b602060405180830381865afa158015612568573d5f5f3e3d5ffd5b505050506040513d601f19601f8201168201806040525081019061258c9190614421565b6125a95760405163051d8aa760e51b815260040160405180910390fd5b806125c757604051639914ab1b60e01b815260040160405180910390fd5b600c546001600160a01b03166125f057604051630d6eeecb60e01b815260040160405180910390fd5b5f5f5f600c5f9054906101000a90046001600160a01b03166001600160a01b031663b476c31e30468e8b8b8b8b6040518863ffffffff1660e01b815260040161263f979695949392919061454f565b5f60405180830381865afa158015612659573d5f5f3e3d5ffd5b505050506040513d5f823e601f3d908101601f191682016040526126809190810190614629565b5f8e8152600f6020908152604090912084519497509295509093506126a89290860190613c14565b505f8b815260106020908152604090912083516126c792850190613c14565b505f8b815260116020908152604090912082516126e692840190613c14565b505050505050505050505050565b7f9016d09d72d40fdae2fd8ceac6b6234c7706214fd39c1cd1e609a0528c19930080546001600160a01b031981166001600160a01b03848116918217845560405192169182907f8be0079c531659141344cd1fd0a4f28419497f9722a3daafe3b4186f6b6457e0905f90a3505050565b8154600160281b900464ffffffffff167f30644e72e131a029b85045b68181585d2833e84879b9709143e1f593f000000182106127b35760405162461bcd60e51b81526004016108069061444c565b825464ffffffffff908116908216106128065760405162461bcd60e51b815260206004820152601560248201527413185e9e5253550e881d1c9959481a5cc8199d5b1b605a1b6044820152606401610806565b6128118160016144af565b835464ffffffffff91909116600160281b0269ffffffffff000000000019909116178355815f5b81856001015f6128488487612fe3565b64ffffffffff16815260208101919091526040015f20556001831615612933575f612878826122436001876144fc565b60408051808201825264ffffffffff83165f90815260018a0160209081529083902054825281018690529051632b0aac7f60e11b815291925073__$078c82ddf6c95d34ea184ef1dd6130d136$__9163561558fe916128d9916004016144cc565b602060405180830381865af41580156128f4573d5f5f3e3d5ffd5b505050506040513d601f19601f82011682018060405250810190612918919061437b565b647fffffffff600195861c1694909350919091019050612838565b5050505050565b5f807ff0c57e16840df040f15088dc2f81fe391c3923bec73e23a9662efc9c229c6a006110b8565b61296a613000565b6115bc81613025565b602060ff821611156129c15760405162461bcd60e51b81526020600482015260176024820152764c617a79494d543a205472656520746f6f206c6172676560481b6044820152606401610806565b6129d2600160ff831681901b61470d565b825469ffffffffffffffffffff191664ffffffffff919091161790915550565b60068101545f5b81811015612b13575f612a0d8260016143be565b90505b82811015612b0a575f846006018381548110612a2e57612a2e61434f565b5f9182526020822001546006870180546001600160a01b0390921693509084908110612a5c57612a5c61434f565b5f918252602090912001546001600160a01b0390811691508216811015612b005780866006018581548110612a9357612a9361434f565b905f5260205f20015f6101000a8154816001600160a01b0302191690836001600160a01b0316021790555081866006018481548110612ad457612ad461434f565b905f5260205f20015f6101000a8154816001600160a01b0302191690836001600160a01b031602179055505b5050600101612a10565b506001016129f9565b505050565b5f8211612b385760405163aeaddff160e01b815260040160405180910390fd5b6001546001600160a01b0316612b61576040516350ca893360e01b815260040160405180910390fd5b5f818152600a602052604081206001805460028301549293926001600160a01b039091169163bb03bd71918891612b979161470d565b6040516001600160e01b031960e085901b1681526001600160a01b0390921660048301526024820152604401602060405180830381865afa158015612bde573d5f5f3e3d5ffd5b505050506040513d601f19601f82011682018060405250810190612c02919061437b565b90505f60015f9054906101000a90046001600160a01b03166001600160a01b0316631209b1f66040518163ffffffff1660e01b8152600401602060405180830381865afa158015612c55573d5f5f3e3d5ffd5b505050506040513d601f19601f82011682018060405250810190612c79919061437b565b90505f8111612c9b5760405163aeaddff160e01b815260040160405180910390fd5b5f612ca68284614720565b90505f8111612cc85760405163149fbcfd60e11b815260040160405180910390fd5b80861115611b0d5760405163aeaddff160e01b815260040160405180910390fd5b60058301546006840180545f92600160201b900463ffffffff1690811115612d6757508054600180820183555f928352602080842090920180546001600160a01b0319166001600160a01b03881690811790915583526009870182526040808420869055600a88019092529120805460ff1916821790559050612ee3565b5f5f90505f876009015f855f81548110612d8357612d8361434f565b5f9182526020808320909101546001600160a01b03168352820192909252604001902054905060015b8454811015612e0b575f896009015f878481548110612dcd57612dcd61434f565b5f9182526020808320909101546001600160a01b03168352820192909252604001902054905082811115612e02578092508193505b50600101612dac565b50808610612e1f575f945050505050612ee3565b5f88600a015f868581548110612e3757612e3761434f565b5f9182526020808320909101546001600160a01b031683528201929092526040019020805460ff19166001836002811115612e7457612e74613fb0565b021790555086848381548110612e8c57612e8c61434f565b5f91825260208083209190910180546001600160a01b0319166001600160a01b03948516179055918916815260098a0182526040808220899055600a8b0190925220805460ff191660019081179091559450505050505b9392505050565b5f5f8260ff1611612f3d5760405162461bcd60e51b815260206004820152601a60248201527f4c617a79494d543a206465707468206d757374206265203e20300000000000006044820152606401610806565b602060ff83161115612f615760405162461bcd60e51b81526004016108069061473f565b8254600160281b900464ffffffffff1680612f8060ff85166002614890565b64ffffffffff161015612fd05760405162461bcd60e51b8152602060048201526018602482015277098c2f4f2929aa87440c2dac4d2ceeadeeae640c8cae0e8d60431b6044820152606401610806565b612fdb84828561302d565b949350505050565b5f81612ff660ff851663ffffffff6148a9565b612ee391906144af565b6130086130f5565b6112d857604051631afcd79f60e31b815260040160405180910390fd5b61207f613000565b5f602060ff831611156130525760405162461bcd60e51b81526004016108069061473f565b8264ffffffffff165f03613070576130698261310e565b9050612ee3565b5f61307c836001614496565b60ff166001600160401b0381111561309657613096613fc4565b6040519080825280602002602001820160405280156130bf578160200160208202803683370190505b5090506130ce858585846137a8565b808360ff16815181106130e3576130e361434f565b60200260200101519150509392505050565b5f6130fe61293a565b54600160401b900460ff16919050565b5f8160ff165f0361312057505f919050565b8160ff1660010361315257507f2098f5fb9e239eab3ceac3f27b81e481dc3124d55ffed523a839ee8446b64864919050565b8160ff1660020361318457507f1069673dcdb12263df301a6ff584a7ec261a44cb9dc68df067a4774460b1f1e1919050565b8160ff166003036131b657507f18f43331537ee2af2e3d758d50f72106467c6eea50371dd528d57eb2b856d238919050565b8160ff166004036131e857507f07f9d837cb17b0d36320ffe93ba52345f1b728571a568265caac97559dbc952a919050565b8160ff1660050361321a57507f2b94cf5e8746b3f5c9631f4c5df32907a699c58c94b2ad4d7b5cec1639183f55919050565b8160ff1660060361324c57507f2dee93c5a666459646ea7d22cca9e1bcfed71e6951b953611d11dda32ea09d78919050565b8160ff1660070361327e57507f078295e5a22b84e982cf601eb639597b8b0515a88cb5ac7fa8a4aabe3c87349d919050565b8160ff166008036132b057507f2fa5e5f18f6027a6501bec864564472a616b2e274a41211a444cbe3a99f3cc61919050565b8160ff166009036132e257507f0e884376d0d8fd21ecb780389e941f66e45e7acce3e228ab3e2156a614fcd747919050565b8160ff16600a0361331457507f1b7201da72494f1e28717ad1a52eb469f95892f957713533de6175e5da190af2919050565b8160ff16600b0361334657507f1f8d8822725e36385200c0b201249819a6e6e1e4650808b5bebc6bface7d7636919050565b8160ff16600c0361337857507f2c5d82f66c914bafb9701589ba8cfcfb6162b0a12acf88a8d0879a0471b5f85a919050565b8160ff16600d036133aa57507f14c54148a0940bb820957f5adf3fa1134ef5c4aaa113f4646458f270e0bfbfd0919050565b8160ff16600e036133dc57507f190d33b12f986f961e10c0ee44d8b9af11be25588cad89d416118e4bf4ebe80c919050565b8160ff16600f0361340e57507f22f98aa9ce704152ac17354914ad73ed1167ae6596af510aa5b3649325e06c92919050565b8160ff1660100361344057507f2a7c7c9b6ce5880b9f6f228d72bf6a575a526f29c66ecceef8b753d38bba7323919050565b8160ff1660110361347257507f2e8186e558698ec1c67af9c14d463ffc470043c9c2988b954d75dd643f36b992919050565b8160ff166012036134a457507f0f57c5571e9a4eab49e2c8cf050dae948aef6ead647392273546249d1c1ff10f919050565b8160ff166013036134d657507f1830ee67b5fb554ad5f63d4388800e1cfe78e310697d46e43c9ce36134f72cca919050565b8160ff1660140361350857507f2134e76ac5d21aab186c2be1dd8f84ee880a1e46eaf712f9d371b6df22191f3e919050565b8160ff1660150361353a57507f19df90ec844ebc4ffeebd866f33859b0c051d8c958ee3aa88f8f8df3db91a5b1919050565b8160ff1660160361356c57507f18cca2a66b5c0787981e69aefd84852d74af0e93ef4912b4648c05f722efe52b919050565b8160ff1660170361359e57507f2388909415230d1b4d1304d2d54f473a628338f2efad83fadf05644549d2538d919050565b8160ff166018036135d057507f27171fb4a97b6cc0e9e8f543b5294de866a2af2c9c8d0b1d96e673e4529ed540919050565b8160ff1660190361360257507f2ff6650540f629fd5711a0bc74fc0d28dcb230b9392583e5f8d59696dde6ae21919050565b8160ff16601a0361363457507f120c58f143d491e95902f7f5277778a2e0ad5168f6add75669932630ce611518919050565b8160ff16601b0361366657507f1f21feb70d3f21b07bf853d5e5db03071ec495a0a565a21da2d665d279483795919050565b8160ff16601c0361369857507f24be905fa71335e14c638cc0f66a8623a826e768068a9e968bb1a1dde18a72d2919050565b8160ff16601d036136ca57507f0f8666b62ed17491c50ceadead57d4cd597ef3821d65c328744c74e553dac26d919050565b8160ff16601e036136fc57507f0918d46bf52d98b034413f4a1a1c41594e7a7a3f6ae08cb43d1a2a230e1959ef919050565b8160ff16601f0361372e57507f1bbeb01b4c479ecde76917645e404dfa2e26f90d0afc5a65128513ad375c5ff2919050565b8160ff1660200361376057507f2f68a1c58e257e42a17a6c61dff5551ed560b9922ab119d5ac8e184c9734ead9919050565b60405162461bcd60e51b815260206004820152601e60248201527f4c617a79494d543a2064656661756c745a65726f2062616420696e64657800006044820152606401610806565b602060ff831611156137cc5760405162461bcd60e51b81526004016108069061473f565b5f8364ffffffffff16116138305760405162461bcd60e51b815260206004820152602560248201527f4c617a79494d543a206e756d626572206f66206c6561766573206d7573742062604482015264065203e20360dc1b6064820152608401610806565b5f61383c6001856144fc565b9050600181165f0361388f57846001015f6138575f84612fe3565b64ffffffffff1681526020019081526020015f2054825f8151811061387e5761387e61434f565b6020026020010181815250506138b7565b6138985f61310e565b825f815181106138aa576138aa61434f565b6020026020010181815250505b5f5b8360ff168160ff1610156123b857600182165f036139af5773__$078c82ddf6c95d34ea184ef1dd6130d136$__63561558fe6040518060400160405280868560ff168151811061390b5761390b61434f565b602002602001015181526020016139218561310e565b8152506040518263ffffffff1660e01b815260040161394091906144cc565b602060405180830381865af415801561395b573d5f5f3e3d5ffd5b505050506040513d601f19601f8201168201806040525081019061397f919061437b565b8361398b836001614496565b60ff168151811061399e5761399e61434f565b602002602001018181525050613b60565b5f6139bb826001614496565b60ff168664ffffffffff16901c64ffffffffff16905060018364ffffffffff16901c64ffffffffff16811115613a5d575f876001015f613a12856001613a019190614496565b60018864ffffffffff16901c612fe3565b64ffffffffff1681526020019081526020015f205490508085846001613a389190614496565b60ff1681518110613a4b57613a4b61434f565b60200260200101818152505050613b5e565b5f876001015f613a748560018861224391906144fc565b64ffffffffff1681526020019081526020015f2054905073__$078c82ddf6c95d34ea184ef1dd6130d136$__63561558fe6040518060400160405280848152602001888760ff1681518110613acb57613acb61434f565b60200260200101518152506040518263ffffffff1660e01b8152600401613af291906144cc565b602060405180830381865af4158015613b0d573d5f5f3e3d5ffd5b505050506040513d601f19601f82011682018060405250810190613b31919061437b565b85613b3d856001614496565b60ff1681518110613b5057613b5061434f565b602002602001018181525050505b505b647fffffffff600192831c1691016138b9565b600183019183908215613c04579160200282015f5b83821115613bd257833563ffffffff1683826101000a81548163ffffffff021916908363ffffffff1602179055509260200192600401602081600301049283019260010302613b88565b8015613c025782816101000a81549063ffffffff0219169055600401602081600301049283019260010302613bd2565b505b50613c10929150613c4d565b5090565b828054828255905f5260205f20908101928215613c04579160200282015b82811115613c04578251825591602001919060010190613c32565b5b80821115613c10575f8155600101613c4e565b6001600160a01b03811681146115bc575f5ffd5b5f60208284031215613c85575f5ffd5b8135612ee381613c61565b5f60208284031215613ca0575f5ffd5b5035919050565b5f5f83601f840112613cb7575f5ffd5b5081356001600160401b03811115613ccd575f5ffd5b602083019150836020828501011115613ce4575f5ffd5b9250929050565b5f5f5f5f5f5f5f5f60a0898b031215613d02575f5ffd5b8835975060208901356001600160401b03811115613d1e575f5ffd5b613d2a8b828c01613ca7565b9098509650506040890135945060608901356001600160401b03811115613d4f575f5ffd5b613d5b8b828c01613ca7565b90955093505060808901356001600160401b03811115613d79575f5ffd5b613d858b828c01613ca7565b999c989b5096995094979396929594505050565b5f8151808452602084019350602083015f5b82811015613dd25781516001600160a01b0316865260209586019590910190600101613dab565b5093949350505050565b5f8151808452602084019350602083015f5b82811015613dd2578151865260209586019590910190600101613dee565b604081525f613e1e6040830185613d99565b8281036020840152613e308185613ddc565b95945050505050565b5f5f5f60808486031215613e4b575f5ffd5b833592506020840135915060808401851015613e65575f5ffd5b6040840190509250925092565b5f5f60408385031215613e83575f5ffd5b823591506020830135613e9581613c61565b809150509250929050565b6001600160a01b0391909116815260200190565b5f5f5f60608486031215613ec6575f5ffd5b833592506020840135613ed881613c61565b929592945050506040919091013590565b602081525f612ee36020830184613d99565b606081525f613f0d6060830186613ddc565b8281036020840152613f1f8186613ddc565b90508281036040840152613f338185613ddc565b9695505050505050565b5f5f60408385031215613f4e575f5ffd5b8235613f5981613c61565b946020939093013593505050565b5f5f60408385031215613f78575f5ffd5b50508035926020909101359150565b634e487b7160e01b5f52601160045260245ffd5b5f81613fa957613fa9613f87565b505f190190565b634e487b7160e01b5f52602160045260245ffd5b634e487b7160e01b5f52604160045260245ffd5b6040516101e081016001600160401b0381118282101715613ffb57613ffb613fc4565b60405290565b604051601f8201601f191681016001600160401b038111828210171561402957614029613fc4565b604052919050565b805160048110612060575f5ffd5b5f82601f83011261404e575f5ffd5b604080519081016001600160401b038111828210171561407057614070613fc4565b8060405250806040840185811115614086575f5ffd5b845b818110156140a0578051835260209283019201614088565b509195945050505050565b805161206081613c61565b805160ff81168114612060575f5ffd5b5f82601f8301126140d5575f5ffd5b81516001600160401b038111156140ee576140ee613fc4565b614101601f8201601f1916602001614001565b818152846020838601011115614115575f5ffd5b8160208501602083015e5f918101602001919091529392505050565b80518015158114612060575f5ffd5b5f60208284031215614150575f5ffd5b81516001600160401b03811115614165575f5ffd5b82016102008185031215614177575f5ffd5b61417f613fd8565b8151815261418f60208301614031565b6020820152604082810151908201526141ab856060840161403f565b606082015260a082015160808201526141c660c083016140ab565b60a08201526141d760e083016140b6565b60c08201526101008201516001600160401b038111156141f5575f5ffd5b614201868285016140c6565b60e08301525061421461012083016140ab565b61010082015261422761014083016140ab565b61012082015261016082810151610140830152610180830151908201526101a08201516001600160401b0381111561425d575f5ffd5b614269868285016140c6565b6101808301525061427d6101c083016140ab565b6101a08201526142906101e08301614131565b6101c0820152949350505050565b5f8154808452602084019350825f5260205f205f5b82811015613dd25781546001600160a01b03168652602090950194600191820191016142b3565b81835281816020850137505f828201602090810191909152601f909101601f19169091010190565b608081525f614314608083018961429e565b828103602084015261432781888a6142da565b905085604084015282810360608401526143428185876142da565b9998505050505050505050565b634e487b7160e01b5f52603260045260245ffd5b5f6001820161437457614374613f87565b5060010190565b5f6020828403121561438b575f5ffd5b5051919050565b803563ffffffff81168114612060575f5ffd5b5f602082840312156143b5575f5ffd5b612ee382614392565b808201808211156110b8576110b8613f87565b84815260a0810160208201855f5b600281101561440c5763ffffffff6143f683614392565b16835260209283019291909101906001016143df565b50505060608201939093526080015292915050565b5f60208284031215614431575f5ffd5b612ee382614131565b604081525f613e1e604083018561429e565b6020808252602a908201527f4c617a79494d543a206c656166206d757374206265203c20534e41524b5f53436040820152691053105497d19251531160b21b606082015260800190565b60ff81811683821601908111156110b8576110b8613f87565b64ffffffffff81811683821601908111156110b8576110b8613f87565b6040810181835f5b60028110156144f35781518352602092830192909101906001016144d4565b50505092915050565b64ffffffffff82811682821603908111156110b8576110b8613f87565b80820281158282048414176110b8576110b8613f87565b848152836020820152606060408201525f613f336060830184866142da565b60018060a01b038816815286602082015285604082015260a060608201525f61457c60a0830186886142da565b828103608084015261458f8185876142da565b9a9950505050505050505050565b5f6001600160401b038211156145b5576145b5613fc4565b5060051b60200190565b5f82601f8301126145ce575f5ffd5b81516145e16145dc8261459d565b614001565b8082825260208201915060208360051b860101925085831115614602575f5ffd5b602085015b8381101561461f578051835260209283019201614607565b5095945050505050565b5f5f5f6060848603121561463b575f5ffd5b83516001600160401b03811115614650575f5ffd5b8401601f81018613614660575f5ffd5b805161466e6145dc8261459d565b8082825260208201915060208360051b85010192508883111561468f575f5ffd5b6020840193505b828410156146b1578351825260209384019390910190614696565b8096505050505060208401516001600160401b038111156146d0575f5ffd5b6146dc868287016145bf565b92505060408401516001600160401b038111156146f7575f5ffd5b614703868287016145bf565b9150509250925092565b818103818111156110b8576110b8613f87565b5f8261473a57634e487b7160e01b5f52601260045260245ffd5b500490565b60208082526023908201527f4c617a79494d543a206465707468206d757374206265203c3d204d41585f44456040820152620a0a8960eb1b606082015260800190565b6001815b6001841115611479578085048111156147a1576147a1613f87565b60018416156147af57908102905b60019390931c928002614786565b5f826147cb575060016110b8565b816147d757505f6110b8565b81600181146147ed57600281146147f757614829565b60019150506110b8565b60ff84111561480857614808613f87565b6001841b915064ffffffffff82111561482357614823613f87565b506110b8565b5060208310610133831016604e8410600b8410161715614861575081810a64ffffffffff81111561485c5761485c613f87565b6110b8565b61487164ffffffffff8484614782565b8064ffffffffff0482111561488857614888613f87565b029392505050565b5f612ee364ffffffffff841664ffffffffff84166147bd565b64ffffffffff81811683821602908116908181146148c9576148c9613f87565b509291505056fea164736f6c634300081c000a",
  "linkReferences": {
    "npm/poseidon-solidity@0.0.5/PoseidonT3.sol": {
      "PoseidonT3": [
        {
          "length": 20,
          "start": 9049
        },
        {
          "length": 20,
          "start": 9233
        },
        {
          "length": 20,
          "start": 10633
        },
        {
          "length": 20,
          "start": 14761
        },
        {
          "length": 20,
          "start": 15203
        }
      ]
    }
  },
  "deployedLinkReferences": {
    "npm/poseidon-solidity@0.0.5/PoseidonT3.sol": {
      "PoseidonT3": [
        {
          "length": 20,
          "start": 8835
        },
        {
          "length": 20,
          "start": 9019
        },
        {
          "length": 20,
          "start": 10419
        },
        {
          "length": 20,
          "start": 14547
        },
        {
          "length": 20,
          "start": 14989
        }
      ]
    }
  },
  "immutableReferences": {},
  "inputSourceName": "project/contracts/registry/CiphernodeRegistryOwnable.sol",
  "buildInfoId": "solc-0_8_28-da8d0a9494cb27300af0bf31d68e29d6a69f32c3"
}