{
  "_format": "hh3-artifact-1",
  "contractName": "CiphernodeRegistryOwnable",
  "sourceName": "contracts/registry/CiphernodeRegistryOwnable.sol",
  "abi": [
    {
      "inputs": [],
      "stateMutability": "nonpayable",
      "type": "constructor"
    },
    {
      "inputs": [],
      "name": "AttestationBindingCountMismatch",
      "type": "error"
    },
    {
      "inputs": [],
      "name": "BondingRegistryNotSet",
      "type": "error"
    },
    {
      "inputs": [
        {
          "internalType": "address",
          "name": "node",
          "type": "address"
        }
      ],
      "name": "CiphernodeNotEnabled",
      "type": "error"
    },
    {
      "inputs": [],
      "name": "CommitteeAlreadyFinalized",
      "type": "error"
    },
    {
      "inputs": [],
      "name": "CommitteeAlreadyPublished",
      "type": "error"
    },
    {
      "inputs": [],
      "name": "CommitteeAlreadyRequested",
      "type": "error"
    },
    {
      "inputs": [],
      "name": "CommitteeDeadlineReached",
      "type": "error"
    },
    {
      "inputs": [],
      "name": "CommitteeNotFinalized",
      "type": "error"
    },
    {
      "inputs": [],
      "name": "CommitteeNotInitializedOrFinalized",
      "type": "error"
    },
    {
      "inputs": [],
      "name": "CommitteeNotPublished",
      "type": "error"
    },
    {
      "inputs": [],
      "name": "CommitteeNotRequested",
      "type": "error"
    },
    {
      "inputs": [],
      "name": "DkgProofRequired",
      "type": "error"
    },
    {
      "inputs": [],
      "name": "FoldAttestationVerifierAlreadySet",
      "type": "error"
    },
    {
      "inputs": [],
      "name": "FoldAttestationVerifierNotSet",
      "type": "error"
    },
    {
      "inputs": [],
      "name": "FoldAttestationsRequired",
      "type": "error"
    },
    {
      "inputs": [
        {
          "internalType": "uint256",
          "name": "requested",
          "type": "uint256"
        },
        {
          "internalType": "uint256",
          "name": "available",
          "type": "uint256"
        }
      ],
      "name": "InsufficientCiphernodes",
      "type": "error"
    },
    {
      "inputs": [],
      "name": "InvalidDkgProof",
      "type": "error"
    },
    {
      "inputs": [],
      "name": "InvalidFoldAttestation",
      "type": "error"
    },
    {
      "inputs": [],
      "name": "InvalidInitialization",
      "type": "error"
    },
    {
      "inputs": [],
      "name": "InvalidTicketNumber",
      "type": "error"
    },
    {
      "inputs": [],
      "name": "NoPendingVerifierUpdate",
      "type": "error"
    },
    {
      "inputs": [],
      "name": "NodeAlreadySubmitted",
      "type": "error"
    },
    {
      "inputs": [
        {
          "internalType": "address",
          "name": "node",
          "type": "address"
        }
      ],
      "name": "NodeNotBonded",
      "type": "error"
    },
    {
      "inputs": [],
      "name": "NodeNotEligible",
      "type": "error"
    },
    {
      "inputs": [],
      "name": "NodeNotSubmitted",
      "type": "error"
    },
    {
      "inputs": [],
      "name": "NotInitializing",
      "type": "error"
    },
    {
      "inputs": [],
      "name": "NotOwnerOrBondingRegistry",
      "type": "error"
    },
    {
      "inputs": [],
      "name": "NotSlashingManager",
      "type": "error"
    },
    {
      "inputs": [],
      "name": "OnlyBondingRegistry",
      "type": "error"
    },
    {
      "inputs": [],
      "name": "OnlyEnclave",
      "type": "error"
    },
    {
      "inputs": [
        {
          "internalType": "address",
          "name": "owner",
          "type": "address"
        }
      ],
      "name": "OwnableInvalidOwner",
      "type": "error"
    },
    {
      "inputs": [
        {
          "internalType": "address",
          "name": "account",
          "type": "address"
        }
      ],
      "name": "OwnableUnauthorizedAccount",
      "type": "error"
    },
    {
      "inputs": [],
      "name": "PartyIdNotInProof",
      "type": "error"
    },
    {
      "inputs": [
        {
          "internalType": "uint256",
          "name": "partyId",
          "type": "uint256"
        },
        {
          "internalType": "uint256",
          "name": "committeeSize",
          "type": "uint256"
        }
      ],
      "name": "PartyIdOutOfBounds",
      "type": "error"
    },
    {
      "inputs": [],
      "name": "PkCommitmentRequired",
      "type": "error"
    },
    {
      "inputs": [],
      "name": "SubmissionWindowClosed",
      "type": "error"
    },
    {
      "inputs": [],
      "name": "SubmissionWindowNotClosed",
      "type": "error"
    },
    {
      "inputs": [],
      "name": "ThresholdNotMet",
      "type": "error"
    },
    {
      "inputs": [],
      "name": "Unauthorized",
      "type": "error"
    },
    {
      "inputs": [
        {
          "internalType": "address",
          "name": "pending",
          "type": "address"
        },
        {
          "internalType": "address",
          "name": "provided",
          "type": "address"
        }
      ],
      "name": "VerifierMismatch",
      "type": "error"
    },
    {
      "inputs": [
        {
          "internalType": "uint256",
          "name": "readyAt",
          "type": "uint256"
        },
        {
          "internalType": "uint256",
          "name": "nowAt",
          "type": "uint256"
        }
      ],
      "name": "VerifierUpdateTimelockActive",
      "type": "error"
    },
    {
      "inputs": [],
      "name": "ZeroAddress",
      "type": "error"
    },
    {
      "anonymous": false,
      "inputs": [
        {
          "indexed": true,
          "internalType": "address",
          "name": "bondingRegistry",
          "type": "address"
        }
      ],
      "name": "BondingRegistrySet",
      "type": "event"
    },
    {
      "anonymous": false,
      "inputs": [
        {
          "indexed": true,
          "internalType": "address",
          "name": "node",
          "type": "address"
        },
        {
          "indexed": false,
          "internalType": "uint256",
          "name": "index",
          "type": "uint256"
        },
        {
          "indexed": false,
          "internalType": "uint256",
          "name": "numNodes",
          "type": "uint256"
        },
        {
          "indexed": false,
          "internalType": "uint256",
          "name": "size",
          "type": "uint256"
        }
      ],
      "name": "CiphernodeAdded",
      "type": "event"
    },
    {
      "anonymous": false,
      "inputs": [
        {
          "indexed": true,
          "internalType": "address",
          "name": "node",
          "type": "address"
        },
        {
          "indexed": false,
          "internalType": "uint256",
          "name": "index",
          "type": "uint256"
        },
        {
          "indexed": false,
          "internalType": "uint256",
          "name": "numNodes",
          "type": "uint256"
        },
        {
          "indexed": false,
          "internalType": "uint256",
          "name": "size",
          "type": "uint256"
        }
      ],
      "name": "CiphernodeRemoved",
      "type": "event"
    },
    {
      "anonymous": false,
      "inputs": [
        {
          "indexed": true,
          "internalType": "uint256",
          "name": "e3Id",
          "type": "uint256"
        },
        {
          "indexed": false,
          "internalType": "bool",
          "name": "active",
          "type": "bool"
        }
      ],
      "name": "CommitteeActivationChanged",
      "type": "event"
    },
    {
      "anonymous": false,
      "inputs": [
        {
          "indexed": true,
          "internalType": "uint256",
          "name": "e3Id",
          "type": "uint256"
        },
        {
          "indexed": false,
          "internalType": "address[]",
          "name": "committee",
          "type": "address[]"
        },
        {
          "indexed": false,
          "internalType": "uint256[]",
          "name": "scores",
          "type": "uint256[]"
        }
      ],
      "name": "CommitteeFinalized",
      "type": "event"
    },
    {
      "anonymous": false,
      "inputs": [
        {
          "indexed": true,
          "internalType": "uint256",
          "name": "e3Id",
          "type": "uint256"
        },
        {
          "indexed": false,
          "internalType": "uint256",
          "name": "nodesSubmitted",
          "type": "uint256"
        },
        {
          "indexed": false,
          "internalType": "uint256",
          "name": "thresholdRequired",
          "type": "uint256"
        }
      ],
      "name": "CommitteeFormationFailed",
      "type": "event"
    },
    {
      "anonymous": false,
      "inputs": [
        {
          "indexed": true,
          "internalType": "uint256",
          "name": "e3Id",
          "type": "uint256"
        },
        {
          "indexed": true,
          "internalType": "address",
          "name": "node",
          "type": "address"
        },
        {
          "indexed": false,
          "internalType": "bytes32",
          "name": "reason",
          "type": "bytes32"
        },
        {
          "indexed": false,
          "internalType": "uint256",
          "name": "activeCountAfter",
          "type": "uint256"
        }
      ],
      "name": "CommitteeMemberExpelled",
      "type": "event"
    },
    {
      "anonymous": false,
      "inputs": [
        {
          "indexed": true,
          "internalType": "uint256",
          "name": "e3Id",
          "type": "uint256"
        },
        {
          "indexed": false,
          "internalType": "address[]",
          "name": "nodes",
          "type": "address[]"
        },
        {
          "indexed": false,
          "internalType": "bytes",
          "name": "publicKey",
          "type": "bytes"
        },
        {
          "indexed": false,
          "internalType": "bytes32",
          "name": "pkCommitment",
          "type": "bytes32"
        },
        {
          "indexed": false,
          "internalType": "bytes",
          "name": "proof",
          "type": "bytes"
        }
      ],
      "name": "CommitteePublished",
      "type": "event"
    },
    {
      "anonymous": false,
      "inputs": [
        {
          "indexed": true,
          "internalType": "uint256",
          "name": "e3Id",
          "type": "uint256"
        },
        {
          "indexed": false,
          "internalType": "uint256",
          "name": "seed",
          "type": "uint256"
        },
        {
          "indexed": false,
          "internalType": "uint32[2]",
          "name": "threshold",
          "type": "uint32[2]"
        },
        {
          "indexed": false,
          "internalType": "uint256",
          "name": "requestBlock",
          "type": "uint256"
        },
        {
          "indexed": false,
          "internalType": "uint256",
          "name": "committeeDeadline",
          "type": "uint256"
        }
      ],
      "name": "CommitteeRequested",
      "type": "event"
    },
    {
      "anonymous": false,
      "inputs": [
        {
          "indexed": true,
          "internalType": "uint256",
          "name": "e3Id",
          "type": "uint256"
        },
        {
          "indexed": false,
          "internalType": "uint256",
          "name": "activeCount",
          "type": "uint256"
        },
        {
          "indexed": false,
          "internalType": "uint256",
          "name": "thresholdM",
          "type": "uint256"
        },
        {
          "indexed": false,
          "internalType": "bool",
          "name": "viable",
          "type": "bool"
        }
      ],
      "name": "CommitteeViabilityUpdated",
      "type": "event"
    },
    {
      "anonymous": false,
      "inputs": [
        {
          "indexed": true,
          "internalType": "address",
          "name": "verifier",
          "type": "address"
        }
      ],
      "name": "DkgFoldAttestationVerifierProposalCancelled",
      "type": "event"
    },
    {
      "anonymous": false,
      "inputs": [
        {
          "indexed": true,
          "internalType": "address",
          "name": "verifier",
          "type": "address"
        },
        {
          "indexed": false,
          "internalType": "uint256",
          "name": "readyAt",
          "type": "uint256"
        }
      ],
      "name": "DkgFoldAttestationVerifierProposed",
      "type": "event"
    },
    {
      "anonymous": false,
      "inputs": [
        {
          "indexed": true,
          "internalType": "address",
          "name": "verifier",
          "type": "address"
        }
      ],
      "name": "DkgFoldAttestationVerifierUpdated",
      "type": "event"
    },
    {
      "anonymous": false,
      "inputs": [
        {
          "indexed": true,
          "internalType": "address",
          "name": "enclave",
          "type": "address"
        }
      ],
      "name": "EnclaveSet",
      "type": "event"
    },
    {
      "anonymous": false,
      "inputs": [
        {
          "indexed": false,
          "internalType": "uint64",
          "name": "version",
          "type": "uint64"
        }
      ],
      "name": "Initialized",
      "type": "event"
    },
    {
      "anonymous": false,
      "inputs": [
        {
          "indexed": true,
          "internalType": "address",
          "name": "previousOwner",
          "type": "address"
        },
        {
          "indexed": true,
          "internalType": "address",
          "name": "newOwner",
          "type": "address"
        }
      ],
      "name": "OwnershipTransferred",
      "type": "event"
    },
    {
      "anonymous": false,
      "inputs": [
        {
          "indexed": true,
          "internalType": "address",
          "name": "slashingManager",
          "type": "address"
        }
      ],
      "name": "SlashingManagerSet",
      "type": "event"
    },
    {
      "anonymous": false,
      "inputs": [
        {
          "indexed": false,
          "internalType": "uint256",
          "name": "sortitionSubmissionWindow",
          "type": "uint256"
        }
      ],
      "name": "SortitionSubmissionWindowSet",
      "type": "event"
    },
    {
      "anonymous": false,
      "inputs": [
        {
          "indexed": true,
          "internalType": "uint256",
          "name": "e3Id",
          "type": "uint256"
        },
        {
          "indexed": true,
          "internalType": "address",
          "name": "node",
          "type": "address"
        },
        {
          "indexed": false,
          "internalType": "uint256",
          "name": "ticketId",
          "type": "uint256"
        },
        {
          "indexed": false,
          "internalType": "uint256",
          "name": "score",
          "type": "uint256"
        }
      ],
      "name": "TicketSubmitted",
      "type": "event"
    },
    {
      "inputs": [],
      "name": "DKG_FOLD_VERIFIER_TIMELOCK",
      "outputs": [
        {
          "internalType": "uint256",
          "name": "",
          "type": "uint256"
        }
      ],
      "stateMutability": "view",
      "type": "function"
    },
    {
      "inputs": [],
      "name": "TREE_DEPTH",
      "outputs": [
        {
          "internalType": "uint8",
          "name": "",
          "type": "uint8"
        }
      ],
      "stateMutability": "view",
      "type": "function"
    },
    {
      "inputs": [
        {
          "internalType": "address",
          "name": "node",
          "type": "address"
        }
      ],
      "name": "addCiphernode",
      "outputs": [],
      "stateMutability": "nonpayable",
      "type": "function"
    },
    {
      "inputs": [],
      "name": "bondingRegistry",
      "outputs": [
        {
          "internalType": "contract IBondingRegistry",
          "name": "",
          "type": "address"
        }
      ],
      "stateMutability": "view",
      "type": "function"
    },
    {
      "inputs": [],
      "name": "cancelDkgFoldAttestationVerifierProposal",
      "outputs": [],
      "stateMutability": "nonpayable",
      "type": "function"
    },
    {
      "inputs": [
        {
          "internalType": "uint256",
          "name": "e3Id",
          "type": "uint256"
        },
        {
          "internalType": "uint256",
          "name": "partyId",
          "type": "uint256"
        }
      ],
      "name": "canonicalCommitteeNodeAt",
      "outputs": [
        {
          "internalType": "address",
          "name": "",
          "type": "address"
        }
      ],
      "stateMutability": "view",
      "type": "function"
    },
    {
      "inputs": [
        {
          "internalType": "address",
          "name": "node",
          "type": "address"
        }
      ],
      "name": "ciphernodeEnabled",
      "outputs": [
        {
          "internalType": "bool",
          "name": "enabled",
          "type": "bool"
        }
      ],
      "stateMutability": "view",
      "type": "function"
    },
    {
      "inputs": [
        {
          "internalType": "address",
          "name": "node",
          "type": "address"
        }
      ],
      "name": "ciphernodeTreeIndex",
      "outputs": [
        {
          "internalType": "uint40",
          "name": "index",
          "type": "uint40"
        }
      ],
      "stateMutability": "view",
      "type": "function"
    },
    {
      "inputs": [],
      "name": "ciphernodes",
      "outputs": [
        {
          "internalType": "uint40",
          "name": "maxIndex",
          "type": "uint40"
        },
        {
          "internalType": "uint40",
          "name": "numberOfLeaves",
          "type": "uint40"
        }
      ],
      "stateMutability": "view",
      "type": "function"
    },
    {
      "inputs": [
        {
          "internalType": "contract IDkgFoldAttestationVerifier",
          "name": "verifier",
          "type": "address"
        }
      ],
      "name": "commitDkgFoldAttestationVerifier",
      "outputs": [],
      "stateMutability": "nonpayable",
      "type": "function"
    },
    {
      "inputs": [
        {
          "internalType": "uint256",
          "name": "e3Id",
          "type": "uint256"
        }
      ],
      "name": "committeePublicKey",
      "outputs": [
        {
          "internalType": "bytes32",
          "name": "publicKeyHash",
          "type": "bytes32"
        }
      ],
      "stateMutability": "view",
      "type": "function"
    },
    {
      "inputs": [],
      "name": "dkgFoldAttestationVerifier",
      "outputs": [
        {
          "internalType": "contract IDkgFoldAttestationVerifier",
          "name": "",
          "type": "address"
        }
      ],
      "stateMutability": "view",
      "type": "function"
    },
    {
      "inputs": [],
      "name": "enclave",
      "outputs": [
        {
          "internalType": "contract IEnclave",
          "name": "",
          "type": "address"
        }
      ],
      "stateMutability": "view",
      "type": "function"
    },
    {
      "inputs": [
        {
          "internalType": "uint256",
          "name": "e3Id",
          "type": "uint256"
        },
        {
          "internalType": "address",
          "name": "node",
          "type": "address"
        },
        {
          "internalType": "bytes32",
          "name": "reason",
          "type": "bytes32"
        }
      ],
      "name": "expelCommitteeMember",
      "outputs": [
        {
          "internalType": "uint256",
          "name": "activeCount",
          "type": "uint256"
        },
        {
          "internalType": "uint32",
          "name": "thresholdM",
          "type": "uint32"
        }
      ],
      "stateMutability": "nonpayable",
      "type": "function"
    },
    {
      "inputs": [
        {
          "internalType": "uint256",
          "name": "e3Id",
          "type": "uint256"
        }
      ],
      "name": "finalizeCommittee",
      "outputs": [
        {
          "internalType": "bool",
          "name": "success",
          "type": "bool"
        }
      ],
      "stateMutability": "nonpayable",
      "type": "function"
    },
    {
      "inputs": [
        {
          "internalType": "uint256",
          "name": "e3Id",
          "type": "uint256"
        }
      ],
      "name": "getActiveCommitteeNodes",
      "outputs": [
        {
          "internalType": "address[]",
          "name": "nodes",
          "type": "address[]"
        },
        {
          "internalType": "uint256[]",
          "name": "scores",
          "type": "uint256[]"
        }
      ],
      "stateMutability": "view",
      "type": "function"
    },
    {
      "inputs": [],
      "name": "getBondingRegistry",
      "outputs": [
        {
          "internalType": "address",
          "name": "",
          "type": "address"
        }
      ],
      "stateMutability": "view",
      "type": "function"
    },
    {
      "inputs": [
        {
          "internalType": "uint256",
          "name": "e3Id",
          "type": "uint256"
        }
      ],
      "name": "getCommitteeDeadline",
      "outputs": [
        {
          "internalType": "uint256",
          "name": "",
          "type": "uint256"
        }
      ],
      "stateMutability": "view",
      "type": "function"
    },
    {
      "inputs": [
        {
          "internalType": "uint256",
          "name": "e3Id",
          "type": "uint256"
        }
      ],
      "name": "getCommitteeHash",
      "outputs": [
        {
          "internalType": "bytes32",
          "name": "committeeHash",
          "type": "bytes32"
        }
      ],
      "stateMutability": "view",
      "type": "function"
    },
    {
      "inputs": [
        {
          "internalType": "uint256",
          "name": "e3Id",
          "type": "uint256"
        }
      ],
      "name": "getCommitteeNodes",
      "outputs": [
        {
          "internalType": "address[]",
          "name": "nodes",
          "type": "address[]"
        }
      ],
      "stateMutability": "view",
      "type": "function"
    },
    {
      "inputs": [
        {
          "internalType": "uint256",
          "name": "e3Id",
          "type": "uint256"
        }
      ],
      "name": "getCommitteeViability",
      "outputs": [
        {
          "internalType": "uint256",
          "name": "activeCount",
          "type": "uint256"
        },
        {
          "internalType": "uint32",
          "name": "thresholdM",
          "type": "uint32"
        },
        {
          "internalType": "uint32",
          "name": "thresholdN",
          "type": "uint32"
        },
        {
          "internalType": "bool",
          "name": "viable",
          "type": "bool"
        }
      ],
      "stateMutability": "view",
      "type": "function"
    },
    {
      "inputs": [
        {
          "internalType": "uint256",
          "name": "e3Id",
          "type": "uint256"
        }
      ],
      "name": "getDkgAnchors",
      "outputs": [
        {
          "internalType": "uint256[]",
          "name": "partyIds",
          "type": "uint256[]"
        },
        {
          "internalType": "bytes32[]",
          "name": "skAggCommits",
          "type": "bytes32[]"
        },
        {
          "internalType": "bytes32[]",
          "name": "esmAggCommits",
          "type": "bytes32[]"
        }
      ],
      "stateMutability": "view",
      "type": "function"
    },
    {
      "inputs": [
        {
          "internalType": "address",
          "name": "_owner",
          "type": "address"
        },
        {
          "internalType": "uint256",
          "name": "_submissionWindow",
          "type": "uint256"
        }
      ],
      "name": "initialize",
      "outputs": [],
      "stateMutability": "nonpayable",
      "type": "function"
    },
    {
      "inputs": [
        {
          "internalType": "address",
          "name": "node",
          "type": "address"
        }
      ],
      "name": "isCiphernodeEligible",
      "outputs": [
        {
          "internalType": "bool",
          "name": "",
          "type": "bool"
        }
      ],
      "stateMutability": "view",
      "type": "function"
    },
    {
      "inputs": [
        {
          "internalType": "uint256",
          "name": "e3Id",
          "type": "uint256"
        },
        {
          "internalType": "address",
          "name": "node",
          "type": "address"
        }
      ],
      "name": "isCommitteeMember",
      "outputs": [
        {
          "internalType": "bool",
          "name": "",
          "type": "bool"
        }
      ],
      "stateMutability": "view",
      "type": "function"
    },
    {
      "inputs": [
        {
          "internalType": "uint256",
          "name": "e3Id",
          "type": "uint256"
        },
        {
          "internalType": "address",
          "name": "node",
          "type": "address"
        }
      ],
      "name": "isCommitteeMemberActive",
      "outputs": [
        {
          "internalType": "bool",
          "name": "",
          "type": "bool"
        }
      ],
      "stateMutability": "view",
      "type": "function"
    },
    {
      "inputs": [
        {
          "internalType": "address",
          "name": "node",
          "type": "address"
        }
      ],
      "name": "isEnabled",
      "outputs": [
        {
          "internalType": "bool",
          "name": "",
          "type": "bool"
        }
      ],
      "stateMutability": "view",
      "type": "function"
    },
    {
      "inputs": [
        {
          "internalType": "uint256",
          "name": "e3Id",
          "type": "uint256"
        }
      ],
      "name": "isOpen",
      "outputs": [
        {
          "internalType": "bool",
          "name": "",
          "type": "bool"
        }
      ],
      "stateMutability": "view",
      "type": "function"
    },
    {
      "inputs": [],
      "name": "numCiphernodes",
      "outputs": [
        {
          "internalType": "uint256",
          "name": "",
          "type": "uint256"
        }
      ],
      "stateMutability": "view",
      "type": "function"
    },
    {
      "inputs": [],
      "name": "owner",
      "outputs": [
        {
          "internalType": "address",
          "name": "",
          "type": "address"
        }
      ],
      "stateMutability": "view",
      "type": "function"
    },
    {
      "inputs": [],
      "name": "pendingDkgFoldAttestationVerifier",
      "outputs": [
        {
          "internalType": "address",
          "name": "",
          "type": "address"
        }
      ],
      "stateMutability": "view",
      "type": "function"
    },
    {
      "inputs": [],
      "name": "pendingDkgFoldAttestationVerifierAt",
      "outputs": [
        {
          "internalType": "uint256",
          "name": "",
          "type": "uint256"
        }
      ],
      "stateMutability": "view",
      "type": "function"
    },
    {
      "inputs": [
        {
          "internalType": "contract IDkgFoldAttestationVerifier",
          "name": "verifier",
          "type": "address"
        }
      ],
      "name": "proposeDkgFoldAttestationVerifier",
      "outputs": [],
      "stateMutability": "nonpayable",
      "type": "function"
    },
    {
      "inputs": [
        {
          "internalType": "uint256",
          "name": "e3Id",
          "type": "uint256"
        }
      ],
      "name": "publicKeyHashes",
      "outputs": [
        {
          "internalType": "bytes32",
          "name": "publicKeyHash",
          "type": "bytes32"
        }
      ],
      "stateMutability": "view",
      "type": "function"
    },
    {
      "inputs": [
        {
          "internalType": "uint256",
          "name": "e3Id",
          "type": "uint256"
        },
        {
          "internalType": "bytes",
          "name": "publicKey",
          "type": "bytes"
        },
        {
          "internalType": "bytes32",
          "name": "pkCommitment",
          "type": "bytes32"
        },
        {
          "internalType": "bytes",
          "name": "proof",
          "type": "bytes"
        },
        {
          "internalType": "bytes",
          "name": "dkgAttestationBundle",
          "type": "bytes"
        }
      ],
      "name": "publishCommittee",
      "outputs": [],
      "stateMutability": "nonpayable",
      "type": "function"
    },
    {
      "inputs": [
        {
          "internalType": "address",
          "name": "node",
          "type": "address"
        }
      ],
      "name": "removeCiphernode",
      "outputs": [],
      "stateMutability": "nonpayable",
      "type": "function"
    },
    {
      "inputs": [],
      "name": "renounceOwnership",
      "outputs": [],
      "stateMutability": "nonpayable",
      "type": "function"
    },
    {
      "inputs": [
        {
          "internalType": "uint256",
          "name": "e3Id",
          "type": "uint256"
        },
        {
          "internalType": "uint256",
          "name": "seed",
          "type": "uint256"
        },
        {
          "internalType": "uint32[2]",
          "name": "threshold",
          "type": "uint32[2]"
        }
      ],
      "name": "requestCommittee",
      "outputs": [
        {
          "internalType": "bool",
          "name": "success",
          "type": "bool"
        }
      ],
      "stateMutability": "nonpayable",
      "type": "function"
    },
    {
      "inputs": [],
      "name": "root",
      "outputs": [
        {
          "internalType": "uint256",
          "name": "",
          "type": "uint256"
        }
      ],
      "stateMutability": "view",
      "type": "function"
    },
    {
      "inputs": [
        {
          "internalType": "uint256",
          "name": "e3Id",
          "type": "uint256"
        }
      ],
      "name": "rootAt",
      "outputs": [
        {
          "internalType": "uint256",
          "name": "",
          "type": "uint256"
        }
      ],
      "stateMutability": "view",
      "type": "function"
    },
    {
      "inputs": [
        {
          "internalType": "uint256",
          "name": "e3Id",
          "type": "uint256"
        }
      ],
      "name": "roots",
      "outputs": [
        {
          "internalType": "uint256",
          "name": "root",
          "type": "uint256"
        }
      ],
      "stateMutability": "view",
      "type": "function"
    },
    {
      "inputs": [
        {
          "internalType": "contract IBondingRegistry",
          "name": "_bondingRegistry",
          "type": "address"
        }
      ],
      "name": "setBondingRegistry",
      "outputs": [],
      "stateMutability": "nonpayable",
      "type": "function"
    },
    {
      "inputs": [
        {
          "internalType": "contract IEnclave",
          "name": "_enclave",
          "type": "address"
        }
      ],
      "name": "setEnclave",
      "outputs": [],
      "stateMutability": "nonpayable",
      "type": "function"
    },
    {
      "inputs": [
        {
          "internalType": "contract IDkgFoldAttestationVerifier",
          "name": "verifier",
          "type": "address"
        }
      ],
      "name": "setInitialDkgFoldAttestationVerifier",
      "outputs": [],
      "stateMutability": "nonpayable",
      "type": "function"
    },
    {
      "inputs": [
        {
          "internalType": "contract ISlashingManager",
          "name": "_slashingManager",
          "type": "address"
        }
      ],
      "name": "setSlashingManager",
      "outputs": [],
      "stateMutability": "nonpayable",
      "type": "function"
    },
    {
      "inputs": [
        {
          "internalType": "uint256",
          "name": "_sortitionSubmissionWindow",
          "type": "uint256"
        }
      ],
      "name": "setSortitionSubmissionWindow",
      "outputs": [],
      "stateMutability": "nonpayable",
      "type": "function"
    },
    {
      "inputs": [],
      "name": "slashingManager",
      "outputs": [
        {
          "internalType": "contract ISlashingManager",
          "name": "",
          "type": "address"
        }
      ],
      "stateMutability": "view",
      "type": "function"
    },
    {
      "inputs": [],
      "name": "sortitionSubmissionWindow",
      "outputs": [
        {
          "internalType": "uint256",
          "name": "",
          "type": "uint256"
        }
      ],
      "stateMutability": "view",
      "type": "function"
    },
    {
      "inputs": [
        {
          "internalType": "uint256",
          "name": "e3Id",
          "type": "uint256"
        },
        {
          "internalType": "uint256",
          "name": "ticketNumber",
          "type": "uint256"
        }
      ],
      "name": "submitTicket",
      "outputs": [],
      "stateMutability": "nonpayable",
      "type": "function"
    },
    {
      "inputs": [
        {
          "internalType": "address",
          "name": "newOwner",
          "type": "address"
        }
      ],
      "name": "transferOwnership",
      "outputs": [],
      "stateMutability": "nonpayable",
      "type": "function"
    },
    {
      "inputs": [],
      "name": "treeSize",
      "outputs": [
        {
          "internalType": "uint256",
          "name": "",
          "type": "uint256"
        }
      ],
      "stateMutability": "view",
      "type": "function"
    }
  ],
  "bytecode": "0x6080604052348015600e575f5ffd5b5060156019565b60c9565b7ff0c57e16840df040f15088dc2f81fe391c3923bec73e23a9662efc9c229c6a00805468010000000000000000900460ff161560685760405163f92ee8a960e01b815260040160405180910390fd5b80546001600160401b039081161460c65780546001600160401b0319166001600160401b0390811782556040519081527fc7f505b2f371ae2175ee4913f4499e1f2633a7b5936321eed1cdaeb6115181d29060200160405180910390a15b50565b61497a806100d65f395ff3fe608060405234801561000f575f5ffd5b50600436106102b8575f3560e01c80639a7a2ffc11610177578063da881e5a116100d5578063e82f3b701161008f578063e82f3b7014610694578063ebf0c717146106a7578063f1650536146106af578063f2fde38b146106c9578063f379b0df146106dc578063f52fd80314610716578063f6fc05d514610786575f5ffd5b8063da881e5a14610623578063dbb06c9314610636578063e4be6e3d14610648578063e4d185db1461065b578063e59e46951461066e578063e6745e1314610681575f5ffd5b8063b8ab470411610131578063b8ab470414610584578063bff232c1146105a6578063c2b40ae4146105b9578063c3a0ec30146105d8578063c8fe182d146105e9578063ca2869a0146105f1578063cd6dc68714610610575f5ffd5b80639a7a2ffc146104f05780639f0f874a1461052c578063a016493014610535578063a8a4d69b14610555578063acc5249414610568578063b2d5d1ac1461057b575f5ffd5b806350e6fad31161022457806385814243116101de57806385814243146104675780638a78bb151461047a5780638cb89ecb1461048d5780638d1ddfb1146104ac5780638da5cb5b146104c25780638e5ce3ad146104ca5780639015d371146104dd575f5ffd5b806350e6fad3146103e25780635d504776146103ec57806362cc89a8146103ff57806370e36bbe1461041f578063715018a6146104325780637c92f5241461043a575f5ffd5b80632800d829116102755780632800d82914610351578063291a691b146103645780632e7b716d14610387578063323beaa51461039a5780634d6861a6146103ad57806350e6d94c146103c0575f5ffd5b8063096b810a146102bc578063099a161a146102d15780630b45f8e9146102f75780630bbfade71461030a5780630f3e34121461031d57806317d6112014610330575b5f5ffd5b6102cf6102ca366004613d12565b61078f565b005b6102e46102df366004613d2d565b6108db565b6040519081526020015b60405180910390f35b6102cf610305366004613d12565b610914565b6102cf610318366004613d88565b610a19565b6102cf61032b366004613d2d565b610c5d565b61034361033e366004613d2d565b610ca0565b6040516102ee929190613ea9565b6102e461035f366004613d2d565b610e49565b610377610372366004613ed6565b610e95565b60405190151581526020016102ee565b610377610395366004613d12565b61106f565b6102cf6103a8366004613d12565b611122565b6103776103bb366004613d2d565b611233565b6103776103ce366004613d12565b60066020525f908152604090205460ff1681565b6102e46202a30081565b6103776103fa366004613f0f565b611272565b600d54610412906001600160a01b031681565b6040516102ee9190613f3d565b6102cf61042d366004613d12565b6112b5565b6102cf61132b565b61044d610448366004613f51565b61133e565b6040805192835263ffffffff9091166020830152016102ee565b600154610412906001600160a01b031681565b6102cf610488366004613d12565b6114e5565b6102e461049b366004613d2d565b60096020525f908152604090205481565b600454600160281b900464ffffffffff166102e4565b610412611623565b600b54610412906001600160a01b031681565b6103776104eb366004613d12565b611651565b6105166104fe366004613d12565b60076020525f908152604090205464ffffffffff1681565b60405164ffffffffff90911681526020016102ee565b6102e460035481565b610548610543366004613d2d565b61166e565b6040516102ee9190613f86565b610377610563366004613f0f565b611704565b6102cf610576366004613d12565b611747565b6102e4600e5481565b610597610592366004613d2d565b6117de565b6040516102ee93929190613f98565b6102cf6105b4366004613d12565b611929565b6102e46105c7366004613d2d565b60086020525f908152604090205481565b6001546001600160a01b0316610412565b6102cf6119a1565b6102e46105ff366004613d2d565b5f9081526008602052604090205490565b6102cf61061e366004613fda565b611a1d565b610377610631366004613d2d565b611b7a565b5f54610412906001600160a01b031681565b600c54610412906001600160a01b031681565b610412610669366004614004565b611e5d565b6102cf61067c366004613d12565b611f03565b6102cf61068f366004614004565b611f7b565b6102e46106a2366004613d2d565b61213e565b6102e461216f565b6106b7601481565b60405160ff90911681526020016102ee565b6102cf6106d7366004613d12565b612181565b6004546106f89064ffffffffff80821691600160281b90041682565b6040805164ffffffffff9384168152929091166020830152016102ee565b610757610724366004613d2d565b5f908152600a60205260409020600b810154600590910154909163ffffffff80831692600160201b900416908284101590565b6040516102ee949392919093845263ffffffff9283166020850152911660408301521515606082015260800190565b6102e460025481565b610797611623565b6001600160a01b0316336001600160a01b031614806107c057506001546001600160a01b031633145b6107dd57604051632864c4e160e01b815260040160405180910390fd5b6107e681611651565b819061080f576040516381e5828960e01b81526004016108069190613f3d565b60405180910390fd5b506001600160a01b0381165f9081526007602052604081205464ffffffffff169061083d90600490836121bb565b6001600160a01b0382165f908152600660205260408120805460ff19169055600280549161086a83614038565b90915550506002546004546040805164ffffffffff80861682526020820194909452600160281b909204909216918101919091526001600160a01b038316907f8c008e3835f6c79bfcdb89f0f6ca8705e0b01049ee84a90b0e4da1c7ba9405d5906060015b60405180910390a25050565b5f818152600a60205260408120600481015461090a576040516322e679e360e11b815260040160405180910390fd5b6007015492915050565b61091c61245d565b600c546001600160a01b0316156109455760405162035f5560e61b815260040160405180910390fd5b6001600160a01b03811661096c5760405163d92e233d60e01b815260040160405180910390fd5b600c80546001600160a01b0319166001600160a01b0383811691909117909155600d5416156109e357600d80546001600160a01b031981169091555f600e8190556040516001600160a01b039092169182917f70d4f2aeee99318ec9b9950ac8942b1853f1271010f9afec7d5d51d16145eb8c91a2505b6040516001600160a01b038216907f69d0aaccd9fd7c013f79cb6049c6c097cf0c02dd6111daf1f7be30836a119a1b905f90a250565b5f888152600a602052604090206002815460ff166003811115610a3e57610a3e61404d565b14610a5c57604051634f4b461f60e11b815260040160405180910390fd5b600481015415610a7f5760405163632a22bb60e01b815260040160405180910390fd5b85610a9d57604051636caad1ed60e11b815260040160405180910390fd5b5f610b0182600601805480602002602001604051908101604052809291908181526020018280548015610af757602002820191905f5260205f20905b81546001600160a01b03168152600190910190602001808311610ad9575b505050505061248f565b600783018190555f805460405163101bb4d760e21b8152600481018e905292935090916001600160a01b039091169063406ed35c906024015f60405180830381865afa158015610b53573d5f5f3e3d5ffd5b505050506040513d5f823e601f3d908101601f19168201604052610b7a91908101906141dd565b9050806101c0015115610b9757610b978b828a858b8b8b8b612595565b60048381018990555f8c8152600960205260408082208b9055905490516340a3b76160e11b81529182018d9052602482018a90526001600160a01b0316906381476ec2906044015f604051808303815f87803b158015610bf5575f5ffd5b505af1158015610c07573d5f5f3e3d5ffd5b505050508a7fbf0636a312095f6c09c909823813b50e392323588d2d83432e7512c64041e67f846006018c8c8c8c8c604051610c489695949392919061439f565b60405180910390a25050505050505050505050565b610c6561245d565b60038190556040518181527fbe772dc189863d512fa01e489c8eac204975aef1a8662d8b5a333804b5207ab79060200160405180910390a150565b5f818152600a602052604090206006810154600b82015460609283929091806001600160401b03811115610cd657610cd6614061565b604051908082528060200260200182016040528015610cff578160200160208202803683370190505b509450806001600160401b03811115610d1a57610d1a614061565b604051908082528060200260200182016040528015610d43578160200160208202803683370190505b5093505f805b83811015610e3f575f856006018281548110610d6757610d676143ec565b5f918252602090912001546001600160a01b0316905060016001600160a01b0382165f908152600a8801602052604090205460ff166002811115610dad57610dad61404d565b03610e365780888481518110610dc557610dc56143ec565b60200260200101906001600160a01b031690816001600160a01b031681525050856009015f826001600160a01b03166001600160a01b031681526020019081526020015f2054878481518110610e1d57610e1d6143ec565b602090810291909101015282610e3281614400565b9350505b50600101610d49565b5050505050915091565b5f818152600a6020526040812081815460ff166003811115610e6d57610e6d61404d565b03610e8b57604051630d4c1d9760e41b815260040160405180910390fd5b6003015492915050565b5f80546001600160a01b03163314610ec05760405163e4c2a7eb60e01b815260040160405180910390fd5b5f848152600a6020526040812090815460ff166003811115610ee457610ee461404d565b14610f02576040516374ff462560e11b815260040160405180910390fd5b60015460408051630cc37d8f60e11b815290515f926001600160a01b031691631986fb1e9160048083019260209291908290030181865afa158015610f49573d5f5f3e3d5ffd5b505050506040513d601f19601f82011682018060405250810190610f6d9190614418565b905080610f806040860160208701614442565b63ffffffff161115610f986040860160208701614442565b829091610fc6576040516344ec930f60e01b815263ffffffff90921660048301526024820152604401610806565b5050815460ff1916600190811783558201859055436002830155600354610fed904261445b565b600383015561100160058301856002613c10565b5061100a61216f565b5f87815260086020526040908190209190915560028301546003840154915188927f381d281d32f95ef8fe4e5f3b263ea6a32d03d331e1a141ae1da996dc02a7a1709261105b928a928a929161446e565b60405180910390a250600195945050505050565b5f61107982611651565b61108457505f919050565b6001546001600160a01b03166110ad576040516350ca893360e01b815260040160405180910390fd5b600154604051639f8a13d760e01b81526001600160a01b0390911690639f8a13d7906110dd908590600401613f3d565b602060405180830381865afa1580156110f8573d5f5f3e3d5ffd5b505050506040513d601f19601f8201168201806040525081019061111c91906144be565b92915050565b61112a61245d565b600d546001600160a01b0316806111545760405163366ca30560e11b815260040160405180910390fd5b80826001600160a01b038281169082161461119557604051630d77758160e31b81526001600160a01b03928316600482015291166024820152604401610806565b50505f6202a300600e546111a9919061445b565b90508042818110156111d7576040516337c8270b60e01b815260048101929092526024820152604401610806565b5050600c80546001600160a01b0385166001600160a01b03199182168117909255600d805490911690555f600e8190556040517f69d0aaccd9fd7c013f79cb6049c6c097cf0c02dd6111daf1f7be30836a119a1b9190a2505050565b5f818152600a602052604081206001815460ff1660038111156112585761125861404d565b1461126557505f92915050565b6003015442111592915050565b5f60015f848152600a602081815260408084206001600160a01b0388168552909201905290205460ff1660028111156112ad576112ad61404d565b149392505050565b6112bd61245d565b6001600160a01b0381166112e45760405163d92e233d60e01b815260040160405180910390fd5b5f80546001600160a01b0319166001600160a01b038316908117825560405190917f2c8267accd82e977550ed2349c73311183cd22e306347be4453c8d130995e3c991a250565b61133361245d565b61133c5f612791565b565b600b545f9081906001600160a01b0316331461136d5760405163fcef374960e01b815260040160405180910390fd5b5f858152600a602052604090206002815460ff1660038111156113925761139261404d565b146113b057604051634f4b461f60e11b815260040160405180910390fd5b60058101546001600160a01b0386165f908152600a8301602052604090205463ffffffff909116925060019060ff1660028111156113f0576113f061404d565b1461140057600b015491506114dd565b6001600160a01b0385165f908152600a820160205260408120805460ff19166002179055600b820180549161143483614038565b919050555080600b01549250846001600160a01b0316867f6c783b92374361b4d6efaf29673b89437ee969bb3c9d2d5d86b143ad5447b8498686604051611485929190918252602082015260400190565b60405180910390a36040805184815263ffffffff84166020820181905285101591810182905287907f119cb11dd0a68c257d6dc9b06dcb37dd422ce276eb8bf3cd0b7079a116b8e2989060600160405180910390a250505b935093915050565b6114ed611623565b6001600160a01b0316336001600160a01b0316148061151657506001546001600160a01b031633145b61153357604051632864c4e160e01b815260040160405180910390fd5b61153c81611651565b6116205760048054600160281b900464ffffffffff1690611566906001600160a01b038416612801565b6001600160a01b0382165f908152600660209081526040808320805460ff1916600117905560079091528120805464ffffffffff841664ffffffffff1990911617905560028054916115b783614400565b90915550506002546004546040805164ffffffffff80861682526020820194909452600160281b909204909216918101919091526001600160a01b038316907f3318d261fe14a5761d2d1e21555652f623d2134c430a9883c9ad6e958bb0db53906060016108cf565b50565b7f9016d09d72d40fdae2fd8ceac6b6234c7706214fd39c1cd1e609a0528c199300546001600160a01b031690565b6001600160a01b03165f9081526006602052604090205460ff1690565b5f818152600a602052604090206004810154606091906116a1576040516322e679e360e11b815260040160405180910390fd5b806006018054806020026020016040519081016040528092919081815260200182805480156116f757602002820191905f5260205f20905b81546001600160a01b031681526001909101906020018083116116d9575b5050505050915050919050565b5f805f848152600a602081815260408084206001600160a01b0388168552909201905290205460ff16600281111561173e5761173e61404d565b14159392505050565b61174f61245d565b6001600160a01b0381166117765760405163d92e233d60e01b815260040160405180910390fd5b600d80546001600160a01b0319166001600160a01b03831690811790915542600e8190557fc4d0d0b50812c7ced0867d68b80682e9c1f549fe4f7b398a3a10054d3d9f0f25906117ca906202a3009061445b565b60405190815260200160405180910390a250565b5f8181526009602052604090205460609081908190611810576040516322e679e360e11b815260040160405180910390fd5b5f848152600f602090815260408083206010835281842060118452938290208154835181860281018601909452808452919493909291859183018282801561187557602002820191905f5260205f20905b815481526020019060010190808311611861575b50505050509250818054806020026020016040519081016040528092919081815260200182805480156118c557602002820191905f5260205f20905b8154815260200190600101908083116118b1575b505050505091508080548060200260200160405190810160405280929190818152602001828054801561191557602002820191905f5260205f20905b815481526020019060010190808311611901575b505050505090509250925092509193909250565b61193161245d565b6001600160a01b0381166119585760405163d92e233d60e01b815260040160405180910390fd5b600b80546001600160a01b0319166001600160a01b0383169081179091556040517f4ccc8ed483c7c44c3602c3c38afc2c014a8f1d2dc210dfe58ebeeeead230f8e0905f90a250565b6119a961245d565b600d546001600160a01b0316806119d35760405163366ca30560e11b815260040160405180910390fd5b600d80546001600160a01b03191690555f600e8190556040516001600160a01b038316917f70d4f2aeee99318ec9b9950ac8942b1853f1271010f9afec7d5d51d16145eb8c91a250565b5f611a266129d7565b805490915060ff600160401b82041615906001600160401b03165f81158015611a4c5750825b90505f826001600160401b03166001148015611a675750303b155b905081158015611a75575080155b15611a935760405163f92ee8a960e01b815260040160405180910390fd5b845467ffffffffffffffff191660011785558315611abd57845460ff60401b1916600160401b1785555b6001600160a01b038716611ae45760405163d92e233d60e01b815260040160405180910390fd5b611aed336129ff565b611af960046014612a10565b611b0286610c5d565b611b0a611623565b6001600160a01b0316876001600160a01b031614611b2b57611b2b87612181565b8315611b7157845460ff60401b19168555604051600181527fc7f505b2f371ae2175ee4913f4499e1f2633a7b5936321eed1cdaeb6115181d29060200160405180910390a15b50505050505050565b5f818152600a6020526040812081815460ff166003811115611b9e57611b9e61404d565b03611bbc57604051630d4c1d9760e41b815260040160405180910390fd5b6001815460ff166003811115611bd457611bd461404d565b14611bf257604051631860f69960e31b815260040160405180910390fd5b80600301544211611c1657604051632f021e8d60e11b815260040160405180910390fd5b60058101546006820154600160201b90910463ffffffff16111580611cfb578154600360ff199091161782556006820154600583015460408051928352600160201b90910463ffffffff16602083015285917fecc4a9fb7e28d074cba7f5b227e9b5827823c850a385539b9a2f98a08f8c203d910160405180910390a25f54604051635d968dc160e11b815260048101869052600260248201526001600160a01b039091169063bb2d1b82906044015f604051808303815f87803b158015611cdc575f5ffd5b505af1158015611cee573d5f5f3e3d5ffd5b505f979650505050505050565b611d0482612a8f565b815460ff191660021782556006820154600b83018190555f816001600160401b03811115611d3457611d34614061565b604051908082528060200260200182016040528015611d5d578160200160208202803683370190505b5090505f5b82811015611dcf57846009015f866006018381548110611d8457611d846143ec565b5f9182526020808320909101546001600160a01b031683528201929092526040019020548251839083908110611dbc57611dbc6143ec565b6020908102919091010152600101611d62565b505f54604051631f3ea75d60e21b8152600481018890526001600160a01b0390911690637cfa9d74906024015f604051808303815f87803b158015611e12575f5ffd5b505af1158015611e24573d5f5f3e3d5ffd5b50505050857f4f1f5b329c741a8ba15e9645e301061294d0c1fdd455448ffd5e76ff255929d7856006018360405161105b9291906144d7565b5f828152600a602052604081206002815460ff166003811115611e8257611e8261404d565b14611ea057604051634f4b461f60e11b815260040160405180910390fd5b60068101548390808210611ed0576040516326c5c55b60e11b815260048101929092526024820152604401610806565b5050806006018381548110611ee757611ee76143ec565b5f918252602090912001546001600160a01b0316949350505050565b611f0b61245d565b6001600160a01b038116611f325760405163d92e233d60e01b815260040160405180910390fd5b600180546001600160a01b0319166001600160a01b0383169081179091556040517fad4055f18cdad6f4bdd71afe3a72cbeee964217943e1bde38f138289e981a9a7905f90a250565b5f828152600a6020526040812090815460ff166003811115611f9f57611f9f61404d565b03611fbd57604051630d4c1d9760e41b815260040160405180910390fd5b6001815460ff166003811115611fd557611fd561404d565b14611ff357604051631860f69960e31b815260040160405180910390fd5b806003015442111561201857604051639a19114d60e01b815260040160405180910390fd5b335f90815260088201602052604090205460ff161561204a5760405163257309f160e11b815260040160405180910390fd5b6120533361106f565b6120705760405163149fbcfd60e11b815260040160405180910390fd5b61207b338385612bb5565b6001810154604080516bffffffffffffffffffffffff193360601b16602080830191909152603482018690526054820187905260748083019490945282518083039094018452609490910190915281519101205f90335f8181526008850160205260409020805460ff191660011790559091506120fa90839083612d86565b506040805184815260208101839052339186917f52999628fb1cb05707e842278833b22e511f11746202cecdf221968b0b89e8bd910160405180910390a350505050565b5f818152600960205260409020548061216a576040516322e679e360e11b815260040160405180910390fd5b919050565b5f61217c60046014612f87565b905090565b61218961245d565b6001600160a01b0381166121b2575f604051631e4fbdf760e01b81526004016108069190613f3d565b61162081612791565b7f30644e72e131a029b85045b68181585d2833e84879b9709143e1f593f000000182106121fa5760405162461bcd60e51b8152600401610806906144e9565b825464ffffffffff600160281b909104811690821681116122585760405162461bcd60e51b815260206004820152601860248201527713185e9e5253550e881b195859881b5d5cdd08195e1a5cdd60421b6044820152606401610806565b825f5b81866001015f61226b8488613080565b64ffffffffff1681526020019081526020015f20819055505f8160016122919190614533565b60ff168464ffffffffff16901c64ffffffffff16905060018564ffffffffff16901c64ffffffffff1681116122c65750612455565b600185165f0361238d575f6122e5836122e088600161454c565b613080565b60408051808201825286815264ffffffffff83165f90815260018c0160209081529083902054908201529051632b0aac7f60e11b815291925073__$078c82ddf6c95d34ea184ef1dd6130d136$__9163561558fe9161234691600401614569565b602060405180830381865af4158015612361573d5f5f3e3d5ffd5b505050506040513d601f19601f820116820180604052508101906123859190614418565b935050612441565b5f61239d836122e0600189614599565b60408051808201825264ffffffffff83165f90815260018c0160209081529083902054825281018790529051632b0aac7f60e11b815291925073__$078c82ddf6c95d34ea184ef1dd6130d136$__9163561558fe916123fe91600401614569565b602060405180830381865af4158015612419573d5f5f3e3d5ffd5b505050506040513d601f19601f8201168201806040525081019061243d9190614418565b9350505b50647fffffffff600194851c16930161225b565b505050505050565b33612466611623565b6001600160a01b03161461133c573360405163118cdaa760e01b81526004016108069190613f3d565b80515f908161249f8260146145b6565b6001600160401b038111156124b6576124b6614061565b6040519080825280601f01601f1916602001820160405280156124e0576020820181803683370190505b5090505f5b82811015612585575f858281518110612500576125006143ec565b602002602001015160601b90505f82601461251b91906145b6565b90505f5b60148110156125775782816014811061253a5761253a6143ec565b1a60f81b85612549838561445b565b81518110612559576125596143ec565b60200101906001600160f81b03191690815f1a90535060010161251f565b5050508060010190506124e5565b5080516020909101209392505050565b826125b357604051630fb0193f60e41b815260040160405180910390fd5b8661012001516001600160a01b031663de12c640878787876040518563ffffffff1660e01b81526004016125ea94939291906145cd565b602060405180830381865afa158015612605573d5f5f3e3d5ffd5b505050506040513d601f19601f8201168201806040525081019061262991906144be565b6126465760405163051d8aa760e51b815260040160405180910390fd5b8061266457604051639914ab1b60e01b815260040160405180910390fd5b600c546001600160a01b031661268d57604051630d6eeecb60e01b815260040160405180910390fd5b5f5f5f600c5f9054906101000a90046001600160a01b03166001600160a01b031663b476c31e30468e8b8b8b8b6040518863ffffffff1660e01b81526004016126dc97969594939291906145ec565b5f60405180830381865afa1580156126f6573d5f5f3e3d5ffd5b505050506040513d5f823e601f3d908101601f1916820160405261271d91908101906146c6565b5f8e8152600f6020908152604090912084519497509295509093506127459290860190613cb1565b505f8b8152601060209081526040909120835161276492850190613cb1565b505f8b8152601160209081526040909120825161278392840190613cb1565b505050505050505050505050565b7f9016d09d72d40fdae2fd8ceac6b6234c7706214fd39c1cd1e609a0528c19930080546001600160a01b031981166001600160a01b03848116918217845560405192169182907f8be0079c531659141344cd1fd0a4f28419497f9722a3daafe3b4186f6b6457e0905f90a3505050565b8154600160281b900464ffffffffff167f30644e72e131a029b85045b68181585d2833e84879b9709143e1f593f000000182106128505760405162461bcd60e51b8152600401610806906144e9565b825464ffffffffff908116908216106128a35760405162461bcd60e51b815260206004820152601560248201527413185e9e5253550e881d1c9959481a5cc8199d5b1b605a1b6044820152606401610806565b6128ae81600161454c565b835464ffffffffff91909116600160281b0269ffffffffff000000000019909116178355815f5b81856001015f6128e58487613080565b64ffffffffff16815260208101919091526040015f205560018316156129d0575f612915826122e0600187614599565b60408051808201825264ffffffffff83165f90815260018a0160209081529083902054825281018690529051632b0aac7f60e11b815291925073__$078c82ddf6c95d34ea184ef1dd6130d136$__9163561558fe9161297691600401614569565b602060405180830381865af4158015612991573d5f5f3e3d5ffd5b505050506040513d601f19601f820116820180604052508101906129b59190614418565b647fffffffff600195861c16949093509190910190506128d5565b5050505050565b5f807ff0c57e16840df040f15088dc2f81fe391c3923bec73e23a9662efc9c229c6a0061111c565b612a0761309d565b611620816130c2565b602060ff82161115612a5e5760405162461bcd60e51b81526020600482015260176024820152764c617a79494d543a205472656520746f6f206c6172676560481b6044820152606401610806565b612a6f600160ff831681901b6147aa565b825469ffffffffffffffffffff191664ffffffffff919091161790915550565b60068101545f5b81811015612bb0575f612aaa82600161445b565b90505b82811015612ba7575f846006018381548110612acb57612acb6143ec565b5f9182526020822001546006870180546001600160a01b0390921693509084908110612af957612af96143ec565b5f918252602090912001546001600160a01b0390811691508216811015612b9d5780866006018581548110612b3057612b306143ec565b905f5260205f20015f6101000a8154816001600160a01b0302191690836001600160a01b0316021790555081866006018481548110612b7157612b716143ec565b905f5260205f20015f6101000a8154816001600160a01b0302191690836001600160a01b031602179055505b5050600101612aad565b50600101612a96565b505050565b5f8211612bd55760405163aeaddff160e01b815260040160405180910390fd5b6001546001600160a01b0316612bfe576040516350ca893360e01b815260040160405180910390fd5b5f818152600a602052604081206001805460028301549293926001600160a01b039091169163bb03bd71918891612c34916147aa565b6040516001600160e01b031960e085901b1681526001600160a01b0390921660048301526024820152604401602060405180830381865afa158015612c7b573d5f5f3e3d5ffd5b505050506040513d601f19601f82011682018060405250810190612c9f9190614418565b90505f60015f9054906101000a90046001600160a01b03166001600160a01b0316631209b1f66040518163ffffffff1660e01b8152600401602060405180830381865afa158015612cf2573d5f5f3e3d5ffd5b505050506040513d601f19601f82011682018060405250810190612d169190614418565b90505f8111612d385760405163aeaddff160e01b815260040160405180910390fd5b5f612d4382846147bd565b90505f8111612d655760405163149fbcfd60e11b815260040160405180910390fd5b80861115611b715760405163aeaddff160e01b815260040160405180910390fd5b60058301546006840180545f92600160201b900463ffffffff1690811115612e0457508054600180820183555f928352602080842090920180546001600160a01b0319166001600160a01b03881690811790915583526009870182526040808420869055600a88019092529120805460ff1916821790559050612f80565b5f5f90505f876009015f855f81548110612e2057612e206143ec565b5f9182526020808320909101546001600160a01b03168352820192909252604001902054905060015b8454811015612ea8575f896009015f878481548110612e6a57612e6a6143ec565b5f9182526020808320909101546001600160a01b03168352820192909252604001902054905082811115612e9f578092508193505b50600101612e49565b50808610612ebc575f945050505050612f80565b5f88600a015f868581548110612ed457612ed46143ec565b5f9182526020808320909101546001600160a01b031683528201929092526040019020805460ff19166001836002811115612f1157612f1161404d565b021790555086848381548110612f2957612f296143ec565b5f91825260208083209190910180546001600160a01b0319166001600160a01b03948516179055918916815260098a0182526040808220899055600a8b0190925220805460ff191660019081179091559450505050505b9392505050565b5f5f8260ff1611612fda5760405162461bcd60e51b815260206004820152601a60248201527f4c617a79494d543a206465707468206d757374206265203e20300000000000006044820152606401610806565b602060ff83161115612ffe5760405162461bcd60e51b8152600401610806906147dc565b8254600160281b900464ffffffffff168061301d60ff8516600261492d565b64ffffffffff16101561306d5760405162461bcd60e51b8152602060048201526018602482015277098c2f4f2929aa87440c2dac4d2ceeadeeae640c8cae0e8d60431b6044820152606401610806565b6130788482856130ca565b949350505050565b5f8161309360ff851663ffffffff614946565b612f80919061454c565b6130a5613192565b61133c57604051631afcd79f60e31b815260040160405180910390fd5b61218961309d565b5f602060ff831611156130ef5760405162461bcd60e51b8152600401610806906147dc565b8264ffffffffff165f0361310d57613106826131ab565b9050612f80565b5f613119836001614533565b60ff166001600160401b0381111561313357613133614061565b60405190808252806020026020018201604052801561315c578160200160208202803683370190505b50905061316b85858584613845565b808360ff1681518110613180576131806143ec565b60200260200101519150509392505050565b5f61319b6129d7565b54600160401b900460ff16919050565b5f8160ff165f036131bd57505f919050565b8160ff166001036131ef57507f2098f5fb9e239eab3ceac3f27b81e481dc3124d55ffed523a839ee8446b64864919050565b8160ff1660020361322157507f1069673dcdb12263df301a6ff584a7ec261a44cb9dc68df067a4774460b1f1e1919050565b8160ff1660030361325357507f18f43331537ee2af2e3d758d50f72106467c6eea50371dd528d57eb2b856d238919050565b8160ff1660040361328557507f07f9d837cb17b0d36320ffe93ba52345f1b728571a568265caac97559dbc952a919050565b8160ff166005036132b757507f2b94cf5e8746b3f5c9631f4c5df32907a699c58c94b2ad4d7b5cec1639183f55919050565b8160ff166006036132e957507f2dee93c5a666459646ea7d22cca9e1bcfed71e6951b953611d11dda32ea09d78919050565b8160ff1660070361331b57507f078295e5a22b84e982cf601eb639597b8b0515a88cb5ac7fa8a4aabe3c87349d919050565b8160ff1660080361334d57507f2fa5e5f18f6027a6501bec864564472a616b2e274a41211a444cbe3a99f3cc61919050565b8160ff1660090361337f57507f0e884376d0d8fd21ecb780389e941f66e45e7acce3e228ab3e2156a614fcd747919050565b8160ff16600a036133b157507f1b7201da72494f1e28717ad1a52eb469f95892f957713533de6175e5da190af2919050565b8160ff16600b036133e357507f1f8d8822725e36385200c0b201249819a6e6e1e4650808b5bebc6bface7d7636919050565b8160ff16600c0361341557507f2c5d82f66c914bafb9701589ba8cfcfb6162b0a12acf88a8d0879a0471b5f85a919050565b8160ff16600d0361344757507f14c54148a0940bb820957f5adf3fa1134ef5c4aaa113f4646458f270e0bfbfd0919050565b8160ff16600e0361347957507f190d33b12f986f961e10c0ee44d8b9af11be25588cad89d416118e4bf4ebe80c919050565b8160ff16600f036134ab57507f22f98aa9ce704152ac17354914ad73ed1167ae6596af510aa5b3649325e06c92919050565b8160ff166010036134dd57507f2a7c7c9b6ce5880b9f6f228d72bf6a575a526f29c66ecceef8b753d38bba7323919050565b8160ff1660110361350f57507f2e8186e558698ec1c67af9c14d463ffc470043c9c2988b954d75dd643f36b992919050565b8160ff1660120361354157507f0f57c5571e9a4eab49e2c8cf050dae948aef6ead647392273546249d1c1ff10f919050565b8160ff1660130361357357507f1830ee67b5fb554ad5f63d4388800e1cfe78e310697d46e43c9ce36134f72cca919050565b8160ff166014036135a557507f2134e76ac5d21aab186c2be1dd8f84ee880a1e46eaf712f9d371b6df22191f3e919050565b8160ff166015036135d757507f19df90ec844ebc4ffeebd866f33859b0c051d8c958ee3aa88f8f8df3db91a5b1919050565b8160ff1660160361360957507f18cca2a66b5c0787981e69aefd84852d74af0e93ef4912b4648c05f722efe52b919050565b8160ff1660170361363b57507f2388909415230d1b4d1304d2d54f473a628338f2efad83fadf05644549d2538d919050565b8160ff1660180361366d57507f27171fb4a97b6cc0e9e8f543b5294de866a2af2c9c8d0b1d96e673e4529ed540919050565b8160ff1660190361369f57507f2ff6650540f629fd5711a0bc74fc0d28dcb230b9392583e5f8d59696dde6ae21919050565b8160ff16601a036136d157507f120c58f143d491e95902f7f5277778a2e0ad5168f6add75669932630ce611518919050565b8160ff16601b0361370357507f1f21feb70d3f21b07bf853d5e5db03071ec495a0a565a21da2d665d279483795919050565b8160ff16601c0361373557507f24be905fa71335e14c638cc0f66a8623a826e768068a9e968bb1a1dde18a72d2919050565b8160ff16601d0361376757507f0f8666b62ed17491c50ceadead57d4cd597ef3821d65c328744c74e553dac26d919050565b8160ff16601e0361379957507f0918d46bf52d98b034413f4a1a1c41594e7a7a3f6ae08cb43d1a2a230e1959ef919050565b8160ff16601f036137cb57507f1bbeb01b4c479ecde76917645e404dfa2e26f90d0afc5a65128513ad375c5ff2919050565b8160ff166020036137fd57507f2f68a1c58e257e42a17a6c61dff5551ed560b9922ab119d5ac8e184c9734ead9919050565b60405162461bcd60e51b815260206004820152601e60248201527f4c617a79494d543a2064656661756c745a65726f2062616420696e64657800006044820152606401610806565b602060ff831611156138695760405162461bcd60e51b8152600401610806906147dc565b5f8364ffffffffff16116138cd5760405162461bcd60e51b815260206004820152602560248201527f4c617a79494d543a206e756d626572206f66206c6561766573206d7573742062604482015264065203e20360dc1b6064820152608401610806565b5f6138d9600185614599565b9050600181165f0361392c57846001015f6138f45f84613080565b64ffffffffff1681526020019081526020015f2054825f8151811061391b5761391b6143ec565b602002602001018181525050613954565b6139355f6131ab565b825f81518110613947576139476143ec565b6020026020010181815250505b5f5b8360ff168160ff16101561245557600182165f03613a4c5773__$078c82ddf6c95d34ea184ef1dd6130d136$__63561558fe6040518060400160405280868560ff16815181106139a8576139a86143ec565b602002602001015181526020016139be856131ab565b8152506040518263ffffffff1660e01b81526004016139dd9190614569565b602060405180830381865af41580156139f8573d5f5f3e3d5ffd5b505050506040513d601f19601f82011682018060405250810190613a1c9190614418565b83613a28836001614533565b60ff1681518110613a3b57613a3b6143ec565b602002602001018181525050613bfd565b5f613a58826001614533565b60ff168664ffffffffff16901c64ffffffffff16905060018364ffffffffff16901c64ffffffffff16811115613afa575f876001015f613aaf856001613a9e9190614533565b60018864ffffffffff16901c613080565b64ffffffffff1681526020019081526020015f205490508085846001613ad59190614533565b60ff1681518110613ae857613ae86143ec565b60200260200101818152505050613bfb565b5f876001015f613b11856001886122e09190614599565b64ffffffffff1681526020019081526020015f2054905073__$078c82ddf6c95d34ea184ef1dd6130d136$__63561558fe6040518060400160405280848152602001888760ff1681518110613b6857613b686143ec565b60200260200101518152506040518263ffffffff1660e01b8152600401613b8f9190614569565b602060405180830381865af4158015613baa573d5f5f3e3d5ffd5b505050506040513d601f19601f82011682018060405250810190613bce9190614418565b85613bda856001614533565b60ff1681518110613bed57613bed6143ec565b602002602001018181525050505b505b647fffffffff600192831c169101613956565b600183019183908215613ca1579160200282015f5b83821115613c6f57833563ffffffff1683826101000a81548163ffffffff021916908363ffffffff1602179055509260200192600401602081600301049283019260010302613c25565b8015613c9f5782816101000a81549063ffffffff0219169055600401602081600301049283019260010302613c6f565b505b50613cad929150613cea565b5090565b828054828255905f5260205f20908101928215613ca1579160200282015b82811115613ca1578251825591602001919060010190613ccf565b5b80821115613cad575f8155600101613ceb565b6001600160a01b0381168114611620575f5ffd5b5f60208284031215613d22575f5ffd5b8135612f8081613cfe565b5f60208284031215613d3d575f5ffd5b5035919050565b5f5f83601f840112613d54575f5ffd5b5081356001600160401b03811115613d6a575f5ffd5b602083019150836020828501011115613d81575f5ffd5b9250929050565b5f5f5f5f5f5f5f5f60a0898b031215613d9f575f5ffd5b8835975060208901356001600160401b03811115613dbb575f5ffd5b613dc78b828c01613d44565b9098509650506040890135945060608901356001600160401b03811115613dec575f5ffd5b613df88b828c01613d44565b90955093505060808901356001600160401b03811115613e16575f5ffd5b613e228b828c01613d44565b999c989b5096995094979396929594505050565b5f8151808452602084019350602083015f5b82811015613e6f5781516001600160a01b0316865260209586019590910190600101613e48565b5093949350505050565b5f8151808452602084019350602083015f5b82811015613e6f578151865260209586019590910190600101613e8b565b604081525f613ebb6040830185613e36565b8281036020840152613ecd8185613e79565b95945050505050565b5f5f5f60808486031215613ee8575f5ffd5b833592506020840135915060808401851015613f02575f5ffd5b6040840190509250925092565b5f5f60408385031215613f20575f5ffd5b823591506020830135613f3281613cfe565b809150509250929050565b6001600160a01b0391909116815260200190565b5f5f5f60608486031215613f63575f5ffd5b833592506020840135613f7581613cfe565b929592945050506040919091013590565b602081525f612f806020830184613e36565b606081525f613faa6060830186613e79565b8281036020840152613fbc8186613e79565b90508281036040840152613fd08185613e79565b9695505050505050565b5f5f60408385031215613feb575f5ffd5b8235613ff681613cfe565b946020939093013593505050565b5f5f60408385031215614015575f5ffd5b50508035926020909101359150565b634e487b7160e01b5f52601160045260245ffd5b5f8161404657614046614024565b505f190190565b634e487b7160e01b5f52602160045260245ffd5b634e487b7160e01b5f52604160045260245ffd5b6040516101e081016001600160401b038111828210171561409857614098614061565b60405290565b604051601f8201601f191681016001600160401b03811182821017156140c6576140c6614061565b604052919050565b80516004811061216a575f5ffd5b5f82601f8301126140eb575f5ffd5b604080519081016001600160401b038111828210171561410d5761410d614061565b8060405250806040840185811115614123575f5ffd5b845b8181101561413d578051835260209283019201614125565b509195945050505050565b805161216a81613cfe565b805160ff8116811461216a575f5ffd5b5f82601f830112614172575f5ffd5b81516001600160401b0381111561418b5761418b614061565b61419e601f8201601f191660200161409e565b8181528460208386010111156141b2575f5ffd5b8160208501602083015e5f918101602001919091529392505050565b8051801515811461216a575f5ffd5b5f602082840312156141ed575f5ffd5b81516001600160401b03811115614202575f5ffd5b82016102008185031215614214575f5ffd5b61421c614075565b8151815261422c602083016140ce565b60208201526040828101519082015261424885606084016140dc565b606082015260a0820151608082015261426360c08301614148565b60a082015261427460e08301614153565b60c08201526101008201516001600160401b03811115614292575f5ffd5b61429e86828501614163565b60e0830152506142b16101208301614148565b6101008201526142c46101408301614148565b61012082015261016082810151610140830152610180830151908201526101a08201516001600160401b038111156142fa575f5ffd5b61430686828501614163565b6101808301525061431a6101c08301614148565b6101a082015261432d6101e083016141ce565b6101c0820152949350505050565b5f8154808452602084019350825f5260205f205f5b82811015613e6f5781546001600160a01b0316865260209095019460019182019101614350565b81835281816020850137505f828201602090810191909152601f909101601f19169091010190565b608081525f6143b1608083018961433b565b82810360208401526143c481888a614377565b905085604084015282810360608401526143df818587614377565b9998505050505050505050565b634e487b7160e01b5f52603260045260245ffd5b5f6001820161441157614411614024565b5060010190565b5f60208284031215614428575f5ffd5b5051919050565b803563ffffffff8116811461216a575f5ffd5b5f60208284031215614452575f5ffd5b612f808261442f565b8082018082111561111c5761111c614024565b84815260a0810160208201855f5b60028110156144a95763ffffffff6144938361442f565b168352602092830192919091019060010161447c565b50505060608201939093526080015292915050565b5f602082840312156144ce575f5ffd5b612f80826141ce565b604081525f613ebb604083018561433b565b6020808252602a908201527f4c617a79494d543a206c656166206d757374206265203c20534e41524b5f53436040820152691053105497d19251531160b21b606082015260800190565b60ff818116838216019081111561111c5761111c614024565b64ffffffffff818116838216019081111561111c5761111c614024565b6040810181835f5b6002811015614590578151835260209283019290910190600101614571565b50505092915050565b64ffffffffff828116828216039081111561111c5761111c614024565b808202811582820484141761111c5761111c614024565b848152836020820152606060408201525f613fd0606083018486614377565b60018060a01b038816815286602082015285604082015260a060608201525f61461960a083018688614377565b828103608084015261462c818587614377565b9a9950505050505050505050565b5f6001600160401b0382111561465257614652614061565b5060051b60200190565b5f82601f83011261466b575f5ffd5b815161467e6146798261463a565b61409e565b8082825260208201915060208360051b86010192508583111561469f575f5ffd5b602085015b838110156146bc5780518352602092830192016146a4565b5095945050505050565b5f5f5f606084860312156146d8575f5ffd5b83516001600160401b038111156146ed575f5ffd5b8401601f810186136146fd575f5ffd5b805161470b6146798261463a565b8082825260208201915060208360051b85010192508883111561472c575f5ffd5b6020840193505b8284101561474e578351825260209384019390910190614733565b8096505050505060208401516001600160401b0381111561476d575f5ffd5b6147798682870161465c565b92505060408401516001600160401b03811115614794575f5ffd5b6147a08682870161465c565b9150509250925092565b8181038181111561111c5761111c614024565b5f826147d757634e487b7160e01b5f52601260045260245ffd5b500490565b60208082526023908201527f4c617a79494d543a206465707468206d757374206265203c3d204d41585f44456040820152620a0a8960eb1b606082015260800190565b6001815b60018411156114dd5780850481111561483e5761483e614024565b600184161561484c57908102905b60019390931c928002614823565b5f826148685750600161111c565b8161487457505f61111c565b816001811461488a5760028114614894576148c6565b600191505061111c565b60ff8411156148a5576148a5614024565b6001841b915064ffffffffff8211156148c0576148c0614024565b5061111c565b5060208310610133831016604e8410600b84101617156148fe575081810a64ffffffffff8111156148f9576148f9614024565b61111c565b61490e64ffffffffff848461481f565b8064ffffffffff0482111561492557614925614024565b029392505050565b5f612f8064ffffffffff841664ffffffffff841661485a565b64ffffffffff818116838216029081169081811461496657614966614024565b509291505056fea164736f6c634300081c000a",
  "linkReferences": {
    "npm/poseidon-solidity@0.0.5/PoseidonT3.sol": {
      "PoseidonT3": [
        {
          "length": 20,
          "start": 9206
        },
        {
          "length": 20,
          "start": 9390
        },
        {
          "length": 20,
          "start": 10790
        },
        {
          "length": 20,
          "start": 14918
        },
        {
          "length": 20,
          "start": 15360
        }
      ]
    }
  },
  "deployedLinkReferences": {
    "npm/poseidon-solidity@0.0.5/PoseidonT3.sol": {
      "PoseidonT3": [
        {
          "length": 20,
          "start": 8992
        },
        {
          "length": 20,
          "start": 9176
        },
        {
          "length": 20,
          "start": 10576
        },
        {
          "length": 20,
          "start": 14704
        },
        {
          "length": 20,
          "start": 15146
        }
      ]
    }
  },
  "immutableReferences": {},
  "inputSourceName": "project/contracts/registry/CiphernodeRegistryOwnable.sol",
  "buildInfoId": "solc-0_8_28-c510d3f82db7eda6957be691c11709bfbc8fd9ed"
}