{
  "_format": "hh3-artifact-1",
  "contractName": "CiphernodeRegistryOwnable",
  "sourceName": "contracts/registry/CiphernodeRegistryOwnable.sol",
  "abi": [
    {
      "inputs": [],
      "stateMutability": "nonpayable",
      "type": "constructor"
    },
    {
      "inputs": [],
      "name": "BondingRegistryNotSet",
      "type": "error"
    },
    {
      "inputs": [
        {
          "internalType": "address",
          "name": "node",
          "type": "address"
        }
      ],
      "name": "CiphernodeNotEnabled",
      "type": "error"
    },
    {
      "inputs": [],
      "name": "CiphernodeTreeExhausted",
      "type": "error"
    },
    {
      "inputs": [],
      "name": "CommitteeAlreadyFinalized",
      "type": "error"
    },
    {
      "inputs": [],
      "name": "CommitteeAlreadyPublished",
      "type": "error"
    },
    {
      "inputs": [],
      "name": "CommitteeAlreadyRequested",
      "type": "error"
    },
    {
      "inputs": [],
      "name": "CommitteeDeadlineReached",
      "type": "error"
    },
    {
      "inputs": [],
      "name": "CommitteeNotFinalized",
      "type": "error"
    },
    {
      "inputs": [],
      "name": "CommitteeNotInitializedOrFinalized",
      "type": "error"
    },
    {
      "inputs": [],
      "name": "CommitteeNotPublished",
      "type": "error"
    },
    {
      "inputs": [],
      "name": "CommitteeNotRequested",
      "type": "error"
    },
    {
      "inputs": [],
      "name": "DkgProofRequired",
      "type": "error"
    },
    {
      "inputs": [
        {
          "internalType": "uint256",
          "name": "requested",
          "type": "uint256"
        },
        {
          "internalType": "uint256",
          "name": "available",
          "type": "uint256"
        }
      ],
      "name": "InsufficientCiphernodes",
      "type": "error"
    },
    {
      "inputs": [],
      "name": "InvalidDkgProof",
      "type": "error"
    },
    {
      "inputs": [],
      "name": "InvalidInitialization",
      "type": "error"
    },
    {
      "inputs": [],
      "name": "InvalidTicketNumber",
      "type": "error"
    },
    {
      "inputs": [],
      "name": "NodeAlreadySubmitted",
      "type": "error"
    },
    {
      "inputs": [
        {
          "internalType": "address",
          "name": "node",
          "type": "address"
        }
      ],
      "name": "NodeNotBonded",
      "type": "error"
    },
    {
      "inputs": [],
      "name": "NodeNotEligible",
      "type": "error"
    },
    {
      "inputs": [],
      "name": "NodeNotSubmitted",
      "type": "error"
    },
    {
      "inputs": [],
      "name": "NotInitializing",
      "type": "error"
    },
    {
      "inputs": [],
      "name": "NotOwnerOrBondingRegistry",
      "type": "error"
    },
    {
      "inputs": [],
      "name": "NotSlashingManager",
      "type": "error"
    },
    {
      "inputs": [],
      "name": "OnlyBondingRegistry",
      "type": "error"
    },
    {
      "inputs": [],
      "name": "OnlyEnclave",
      "type": "error"
    },
    {
      "inputs": [
        {
          "internalType": "address",
          "name": "owner",
          "type": "address"
        }
      ],
      "name": "OwnableInvalidOwner",
      "type": "error"
    },
    {
      "inputs": [
        {
          "internalType": "address",
          "name": "account",
          "type": "address"
        }
      ],
      "name": "OwnableUnauthorizedAccount",
      "type": "error"
    },
    {
      "inputs": [],
      "name": "PkCommitmentRequired",
      "type": "error"
    },
    {
      "inputs": [],
      "name": "ReentrancyGuardReentrantCall",
      "type": "error"
    },
    {
      "inputs": [],
      "name": "RenounceOwnershipDisabled",
      "type": "error"
    },
    {
      "inputs": [
        {
          "internalType": "uint256",
          "name": "window",
          "type": "uint256"
        }
      ],
      "name": "SortitionSubmissionWindowOutOfBounds",
      "type": "error"
    },
    {
      "inputs": [],
      "name": "SubmissionWindowClosed",
      "type": "error"
    },
    {
      "inputs": [],
      "name": "SubmissionWindowNotClosed",
      "type": "error"
    },
    {
      "inputs": [],
      "name": "ThresholdNotMet",
      "type": "error"
    },
    {
      "inputs": [],
      "name": "Unauthorized",
      "type": "error"
    },
    {
      "inputs": [],
      "name": "ZeroAddress",
      "type": "error"
    },
    {
      "anonymous": false,
      "inputs": [
        {
          "indexed": true,
          "internalType": "address",
          "name": "bondingRegistry",
          "type": "address"
        }
      ],
      "name": "BondingRegistrySet",
      "type": "event"
    },
    {
      "anonymous": false,
      "inputs": [
        {
          "indexed": true,
          "internalType": "address",
          "name": "node",
          "type": "address"
        },
        {
          "indexed": false,
          "internalType": "uint256",
          "name": "index",
          "type": "uint256"
        },
        {
          "indexed": false,
          "internalType": "uint256",
          "name": "numNodes",
          "type": "uint256"
        },
        {
          "indexed": false,
          "internalType": "uint256",
          "name": "size",
          "type": "uint256"
        }
      ],
      "name": "CiphernodeAdded",
      "type": "event"
    },
    {
      "anonymous": false,
      "inputs": [
        {
          "indexed": true,
          "internalType": "address",
          "name": "node",
          "type": "address"
        },
        {
          "indexed": false,
          "internalType": "uint256",
          "name": "index",
          "type": "uint256"
        },
        {
          "indexed": false,
          "internalType": "uint256",
          "name": "numNodes",
          "type": "uint256"
        },
        {
          "indexed": false,
          "internalType": "uint256",
          "name": "size",
          "type": "uint256"
        }
      ],
      "name": "CiphernodeRemoved",
      "type": "event"
    },
    {
      "anonymous": false,
      "inputs": [
        {
          "indexed": true,
          "internalType": "uint256",
          "name": "e3Id",
          "type": "uint256"
        },
        {
          "indexed": false,
          "internalType": "bool",
          "name": "active",
          "type": "bool"
        }
      ],
      "name": "CommitteeActivationChanged",
      "type": "event"
    },
    {
      "anonymous": false,
      "inputs": [
        {
          "indexed": true,
          "internalType": "uint256",
          "name": "e3Id",
          "type": "uint256"
        },
        {
          "indexed": false,
          "internalType": "uint256",
          "name": "nodesSubmitted",
          "type": "uint256"
        },
        {
          "indexed": false,
          "internalType": "uint256",
          "name": "thresholdRequired",
          "type": "uint256"
        }
      ],
      "name": "CommitteeFormationFailed",
      "type": "event"
    },
    {
      "anonymous": false,
      "inputs": [
        {
          "indexed": true,
          "internalType": "uint256",
          "name": "e3Id",
          "type": "uint256"
        },
        {
          "indexed": true,
          "internalType": "address",
          "name": "node",
          "type": "address"
        },
        {
          "indexed": false,
          "internalType": "bytes32",
          "name": "reason",
          "type": "bytes32"
        },
        {
          "indexed": false,
          "internalType": "uint256",
          "name": "activeCountAfter",
          "type": "uint256"
        }
      ],
      "name": "CommitteeMemberExpelled",
      "type": "event"
    },
    {
      "anonymous": false,
      "inputs": [
        {
          "indexed": true,
          "internalType": "uint256",
          "name": "e3Id",
          "type": "uint256"
        },
        {
          "indexed": false,
          "internalType": "address[]",
          "name": "nodes",
          "type": "address[]"
        },
        {
          "indexed": false,
          "internalType": "bytes",
          "name": "publicKey",
          "type": "bytes"
        },
        {
          "indexed": false,
          "internalType": "bytes32",
          "name": "pkCommitment",
          "type": "bytes32"
        },
        {
          "indexed": false,
          "internalType": "bytes",
          "name": "proof",
          "type": "bytes"
        }
      ],
      "name": "CommitteePublished",
      "type": "event"
    },
    {
      "anonymous": false,
      "inputs": [
        {
          "indexed": true,
          "internalType": "uint256",
          "name": "e3Id",
          "type": "uint256"
        },
        {
          "indexed": false,
          "internalType": "uint256",
          "name": "seed",
          "type": "uint256"
        },
        {
          "indexed": false,
          "internalType": "uint32[2]",
          "name": "threshold",
          "type": "uint32[2]"
        },
        {
          "indexed": false,
          "internalType": "uint256",
          "name": "requestBlock",
          "type": "uint256"
        },
        {
          "indexed": false,
          "internalType": "uint256",
          "name": "committeeDeadline",
          "type": "uint256"
        }
      ],
      "name": "CommitteeRequested",
      "type": "event"
    },
    {
      "anonymous": false,
      "inputs": [
        {
          "indexed": true,
          "internalType": "uint256",
          "name": "e3Id",
          "type": "uint256"
        },
        {
          "indexed": false,
          "internalType": "uint256",
          "name": "activeCount",
          "type": "uint256"
        },
        {
          "indexed": false,
          "internalType": "uint256",
          "name": "thresholdM",
          "type": "uint256"
        },
        {
          "indexed": false,
          "internalType": "bool",
          "name": "viable",
          "type": "bool"
        }
      ],
      "name": "CommitteeViabilityUpdated",
      "type": "event"
    },
    {
      "anonymous": false,
      "inputs": [
        {
          "indexed": true,
          "internalType": "address",
          "name": "enclave",
          "type": "address"
        }
      ],
      "name": "EnclaveSet",
      "type": "event"
    },
    {
      "anonymous": false,
      "inputs": [
        {
          "indexed": false,
          "internalType": "uint64",
          "name": "version",
          "type": "uint64"
        }
      ],
      "name": "Initialized",
      "type": "event"
    },
    {
      "anonymous": false,
      "inputs": [
        {
          "indexed": true,
          "internalType": "address",
          "name": "previousOwner",
          "type": "address"
        },
        {
          "indexed": true,
          "internalType": "address",
          "name": "newOwner",
          "type": "address"
        }
      ],
      "name": "OwnershipTransferStarted",
      "type": "event"
    },
    {
      "anonymous": false,
      "inputs": [
        {
          "indexed": true,
          "internalType": "address",
          "name": "previousOwner",
          "type": "address"
        },
        {
          "indexed": true,
          "internalType": "address",
          "name": "newOwner",
          "type": "address"
        }
      ],
      "name": "OwnershipTransferred",
      "type": "event"
    },
    {
      "anonymous": false,
      "inputs": [
        {
          "indexed": true,
          "internalType": "address",
          "name": "slashingManager",
          "type": "address"
        }
      ],
      "name": "RegistrySlashingManagerSet",
      "type": "event"
    },
    {
      "anonymous": false,
      "inputs": [
        {
          "indexed": true,
          "internalType": "address",
          "name": "slashingManager",
          "type": "address"
        }
      ],
      "name": "SlashingManagerSet",
      "type": "event"
    },
    {
      "anonymous": false,
      "inputs": [
        {
          "indexed": true,
          "internalType": "uint256",
          "name": "e3Id",
          "type": "uint256"
        },
        {
          "indexed": false,
          "internalType": "address[]",
          "name": "committee",
          "type": "address[]"
        },
        {
          "indexed": false,
          "internalType": "uint256[]",
          "name": "scores",
          "type": "uint256[]"
        }
      ],
      "name": "SortitionCommitteeFinalized",
      "type": "event"
    },
    {
      "anonymous": false,
      "inputs": [
        {
          "indexed": false,
          "internalType": "uint256",
          "name": "sortitionSubmissionWindow",
          "type": "uint256"
        }
      ],
      "name": "SortitionSubmissionWindowSet",
      "type": "event"
    },
    {
      "anonymous": false,
      "inputs": [
        {
          "indexed": true,
          "internalType": "uint256",
          "name": "e3Id",
          "type": "uint256"
        },
        {
          "indexed": true,
          "internalType": "address",
          "name": "node",
          "type": "address"
        },
        {
          "indexed": false,
          "internalType": "uint256",
          "name": "ticketId",
          "type": "uint256"
        },
        {
          "indexed": false,
          "internalType": "uint256",
          "name": "score",
          "type": "uint256"
        }
      ],
      "name": "TicketSubmitted",
      "type": "event"
    },
    {
      "inputs": [],
      "name": "MAX_CIPHERNODE_LEAVES",
      "outputs": [
        {
          "internalType": "uint256",
          "name": "",
          "type": "uint256"
        }
      ],
      "stateMutability": "view",
      "type": "function"
    },
    {
      "inputs": [],
      "name": "MAX_SORTITION_SUBMISSION_WINDOW",
      "outputs": [
        {
          "internalType": "uint256",
          "name": "",
          "type": "uint256"
        }
      ],
      "stateMutability": "view",
      "type": "function"
    },
    {
      "inputs": [],
      "name": "MIN_SORTITION_SUBMISSION_WINDOW",
      "outputs": [
        {
          "internalType": "uint256",
          "name": "",
          "type": "uint256"
        }
      ],
      "stateMutability": "view",
      "type": "function"
    },
    {
      "inputs": [],
      "name": "TREE_DEPTH",
      "outputs": [
        {
          "internalType": "uint8",
          "name": "",
          "type": "uint8"
        }
      ],
      "stateMutability": "view",
      "type": "function"
    },
    {
      "inputs": [],
      "name": "acceptOwnership",
      "outputs": [],
      "stateMutability": "nonpayable",
      "type": "function"
    },
    {
      "inputs": [
        {
          "internalType": "address",
          "name": "node",
          "type": "address"
        }
      ],
      "name": "addCiphernode",
      "outputs": [],
      "stateMutability": "nonpayable",
      "type": "function"
    },
    {
      "inputs": [],
      "name": "bondingRegistry",
      "outputs": [
        {
          "internalType": "contract IBondingRegistry",
          "name": "",
          "type": "address"
        }
      ],
      "stateMutability": "view",
      "type": "function"
    },
    {
      "inputs": [
        {
          "internalType": "address",
          "name": "node",
          "type": "address"
        }
      ],
      "name": "ciphernodeEnabled",
      "outputs": [
        {
          "internalType": "bool",
          "name": "enabled",
          "type": "bool"
        }
      ],
      "stateMutability": "view",
      "type": "function"
    },
    {
      "inputs": [
        {
          "internalType": "address",
          "name": "node",
          "type": "address"
        }
      ],
      "name": "ciphernodeTreeIndex",
      "outputs": [
        {
          "internalType": "uint40",
          "name": "index",
          "type": "uint40"
        }
      ],
      "stateMutability": "view",
      "type": "function"
    },
    {
      "inputs": [],
      "name": "ciphernodes",
      "outputs": [
        {
          "internalType": "uint40",
          "name": "maxIndex",
          "type": "uint40"
        },
        {
          "internalType": "uint40",
          "name": "numberOfLeaves",
          "type": "uint40"
        }
      ],
      "stateMutability": "view",
      "type": "function"
    },
    {
      "inputs": [
        {
          "internalType": "uint256",
          "name": "e3Id",
          "type": "uint256"
        }
      ],
      "name": "committeePublicKey",
      "outputs": [
        {
          "internalType": "bytes32",
          "name": "publicKeyHash",
          "type": "bytes32"
        }
      ],
      "stateMutability": "view",
      "type": "function"
    },
    {
      "inputs": [],
      "name": "enclave",
      "outputs": [
        {
          "internalType": "contract IEnclave",
          "name": "",
          "type": "address"
        }
      ],
      "stateMutability": "view",
      "type": "function"
    },
    {
      "inputs": [
        {
          "internalType": "uint256",
          "name": "e3Id",
          "type": "uint256"
        },
        {
          "internalType": "address",
          "name": "node",
          "type": "address"
        },
        {
          "internalType": "bytes32",
          "name": "reason",
          "type": "bytes32"
        }
      ],
      "name": "expelCommitteeMember",
      "outputs": [
        {
          "internalType": "uint256",
          "name": "activeCount",
          "type": "uint256"
        },
        {
          "internalType": "uint32",
          "name": "thresholdM",
          "type": "uint32"
        }
      ],
      "stateMutability": "nonpayable",
      "type": "function"
    },
    {
      "inputs": [
        {
          "internalType": "uint256",
          "name": "e3Id",
          "type": "uint256"
        }
      ],
      "name": "finalizeCommittee",
      "outputs": [
        {
          "internalType": "bool",
          "name": "success",
          "type": "bool"
        }
      ],
      "stateMutability": "nonpayable",
      "type": "function"
    },
    {
      "inputs": [
        {
          "internalType": "uint256",
          "name": "e3Id",
          "type": "uint256"
        }
      ],
      "name": "getActiveCommitteeNodes",
      "outputs": [
        {
          "internalType": "address[]",
          "name": "nodes",
          "type": "address[]"
        },
        {
          "internalType": "uint256[]",
          "name": "scores",
          "type": "uint256[]"
        }
      ],
      "stateMutability": "view",
      "type": "function"
    },
    {
      "inputs": [],
      "name": "getBondingRegistry",
      "outputs": [
        {
          "internalType": "address",
          "name": "",
          "type": "address"
        }
      ],
      "stateMutability": "view",
      "type": "function"
    },
    {
      "inputs": [
        {
          "internalType": "uint256",
          "name": "e3Id",
          "type": "uint256"
        }
      ],
      "name": "getCommitteeDeadline",
      "outputs": [
        {
          "internalType": "uint256",
          "name": "",
          "type": "uint256"
        }
      ],
      "stateMutability": "view",
      "type": "function"
    },
    {
      "inputs": [
        {
          "internalType": "uint256",
          "name": "e3Id",
          "type": "uint256"
        }
      ],
      "name": "getCommitteeHash",
      "outputs": [
        {
          "internalType": "bytes32",
          "name": "committeeHash",
          "type": "bytes32"
        }
      ],
      "stateMutability": "view",
      "type": "function"
    },
    {
      "inputs": [
        {
          "internalType": "uint256",
          "name": "e3Id",
          "type": "uint256"
        }
      ],
      "name": "getCommitteeNodes",
      "outputs": [
        {
          "internalType": "address[]",
          "name": "nodes",
          "type": "address[]"
        }
      ],
      "stateMutability": "view",
      "type": "function"
    },
    {
      "inputs": [
        {
          "internalType": "uint256",
          "name": "e3Id",
          "type": "uint256"
        }
      ],
      "name": "getCommitteeViability",
      "outputs": [
        {
          "internalType": "uint256",
          "name": "activeCount",
          "type": "uint256"
        },
        {
          "internalType": "uint32",
          "name": "thresholdM",
          "type": "uint32"
        },
        {
          "internalType": "uint32",
          "name": "thresholdN",
          "type": "uint32"
        },
        {
          "internalType": "bool",
          "name": "viable",
          "type": "bool"
        }
      ],
      "stateMutability": "view",
      "type": "function"
    },
    {
      "inputs": [
        {
          "internalType": "address",
          "name": "_owner",
          "type": "address"
        },
        {
          "internalType": "uint256",
          "name": "_submissionWindow",
          "type": "uint256"
        }
      ],
      "name": "initialize",
      "outputs": [],
      "stateMutability": "nonpayable",
      "type": "function"
    },
    {
      "inputs": [
        {
          "internalType": "address",
          "name": "node",
          "type": "address"
        }
      ],
      "name": "isCiphernodeEligible",
      "outputs": [
        {
          "internalType": "bool",
          "name": "",
          "type": "bool"
        }
      ],
      "stateMutability": "view",
      "type": "function"
    },
    {
      "inputs": [
        {
          "internalType": "uint256",
          "name": "e3Id",
          "type": "uint256"
        },
        {
          "internalType": "address",
          "name": "node",
          "type": "address"
        }
      ],
      "name": "isCommitteeMember",
      "outputs": [
        {
          "internalType": "bool",
          "name": "",
          "type": "bool"
        }
      ],
      "stateMutability": "view",
      "type": "function"
    },
    {
      "inputs": [
        {
          "internalType": "uint256",
          "name": "e3Id",
          "type": "uint256"
        },
        {
          "internalType": "address",
          "name": "node",
          "type": "address"
        }
      ],
      "name": "isCommitteeMemberActive",
      "outputs": [
        {
          "internalType": "bool",
          "name": "",
          "type": "bool"
        }
      ],
      "stateMutability": "view",
      "type": "function"
    },
    {
      "inputs": [
        {
          "internalType": "address",
          "name": "node",
          "type": "address"
        }
      ],
      "name": "isEnabled",
      "outputs": [
        {
          "internalType": "bool",
          "name": "",
          "type": "bool"
        }
      ],
      "stateMutability": "view",
      "type": "function"
    },
    {
      "inputs": [
        {
          "internalType": "uint256",
          "name": "e3Id",
          "type": "uint256"
        }
      ],
      "name": "isOpen",
      "outputs": [
        {
          "internalType": "bool",
          "name": "",
          "type": "bool"
        }
      ],
      "stateMutability": "view",
      "type": "function"
    },
    {
      "inputs": [],
      "name": "numCiphernodes",
      "outputs": [
        {
          "internalType": "uint256",
          "name": "",
          "type": "uint256"
        }
      ],
      "stateMutability": "view",
      "type": "function"
    },
    {
      "inputs": [],
      "name": "owner",
      "outputs": [
        {
          "internalType": "address",
          "name": "",
          "type": "address"
        }
      ],
      "stateMutability": "view",
      "type": "function"
    },
    {
      "inputs": [],
      "name": "pendingOwner",
      "outputs": [
        {
          "internalType": "address",
          "name": "",
          "type": "address"
        }
      ],
      "stateMutability": "view",
      "type": "function"
    },
    {
      "inputs": [
        {
          "internalType": "uint256",
          "name": "e3Id",
          "type": "uint256"
        }
      ],
      "name": "publicKeyHashes",
      "outputs": [
        {
          "internalType": "bytes32",
          "name": "publicKeyHash",
          "type": "bytes32"
        }
      ],
      "stateMutability": "view",
      "type": "function"
    },
    {
      "inputs": [
        {
          "internalType": "uint256",
          "name": "e3Id",
          "type": "uint256"
        },
        {
          "internalType": "bytes",
          "name": "publicKey",
          "type": "bytes"
        },
        {
          "internalType": "bytes32",
          "name": "pkCommitment",
          "type": "bytes32"
        },
        {
          "internalType": "bytes",
          "name": "proof",
          "type": "bytes"
        }
      ],
      "name": "publishCommittee",
      "outputs": [],
      "stateMutability": "nonpayable",
      "type": "function"
    },
    {
      "inputs": [
        {
          "internalType": "address",
          "name": "node",
          "type": "address"
        }
      ],
      "name": "removeCiphernode",
      "outputs": [],
      "stateMutability": "nonpayable",
      "type": "function"
    },
    {
      "inputs": [],
      "name": "renounceOwnership",
      "outputs": [],
      "stateMutability": "view",
      "type": "function"
    },
    {
      "inputs": [
        {
          "internalType": "uint256",
          "name": "e3Id",
          "type": "uint256"
        },
        {
          "internalType": "uint256",
          "name": "seed",
          "type": "uint256"
        },
        {
          "internalType": "uint32[2]",
          "name": "threshold",
          "type": "uint32[2]"
        }
      ],
      "name": "requestCommittee",
      "outputs": [
        {
          "internalType": "bool",
          "name": "success",
          "type": "bool"
        }
      ],
      "stateMutability": "nonpayable",
      "type": "function"
    },
    {
      "inputs": [],
      "name": "root",
      "outputs": [
        {
          "internalType": "uint256",
          "name": "",
          "type": "uint256"
        }
      ],
      "stateMutability": "view",
      "type": "function"
    },
    {
      "inputs": [
        {
          "internalType": "uint256",
          "name": "e3Id",
          "type": "uint256"
        }
      ],
      "name": "rootAt",
      "outputs": [
        {
          "internalType": "uint256",
          "name": "",
          "type": "uint256"
        }
      ],
      "stateMutability": "view",
      "type": "function"
    },
    {
      "inputs": [
        {
          "internalType": "uint256",
          "name": "e3Id",
          "type": "uint256"
        }
      ],
      "name": "roots",
      "outputs": [
        {
          "internalType": "uint256",
          "name": "root",
          "type": "uint256"
        }
      ],
      "stateMutability": "view",
      "type": "function"
    },
    {
      "inputs": [
        {
          "internalType": "contract IBondingRegistry",
          "name": "_bondingRegistry",
          "type": "address"
        }
      ],
      "name": "setBondingRegistry",
      "outputs": [],
      "stateMutability": "nonpayable",
      "type": "function"
    },
    {
      "inputs": [
        {
          "internalType": "contract IEnclave",
          "name": "_enclave",
          "type": "address"
        }
      ],
      "name": "setEnclave",
      "outputs": [],
      "stateMutability": "nonpayable",
      "type": "function"
    },
    {
      "inputs": [
        {
          "internalType": "contract ISlashingManager",
          "name": "_slashingManager",
          "type": "address"
        }
      ],
      "name": "setSlashingManager",
      "outputs": [],
      "stateMutability": "nonpayable",
      "type": "function"
    },
    {
      "inputs": [
        {
          "internalType": "uint256",
          "name": "_sortitionSubmissionWindow",
          "type": "uint256"
        }
      ],
      "name": "setSortitionSubmissionWindow",
      "outputs": [],
      "stateMutability": "nonpayable",
      "type": "function"
    },
    {
      "inputs": [],
      "name": "slashingManager",
      "outputs": [
        {
          "internalType": "contract ISlashingManager",
          "name": "",
          "type": "address"
        }
      ],
      "stateMutability": "view",
      "type": "function"
    },
    {
      "inputs": [],
      "name": "sortitionSubmissionWindow",
      "outputs": [
        {
          "internalType": "uint256",
          "name": "",
          "type": "uint256"
        }
      ],
      "stateMutability": "view",
      "type": "function"
    },
    {
      "inputs": [
        {
          "internalType": "uint256",
          "name": "e3Id",
          "type": "uint256"
        },
        {
          "internalType": "uint256",
          "name": "ticketNumber",
          "type": "uint256"
        }
      ],
      "name": "submitTicket",
      "outputs": [],
      "stateMutability": "nonpayable",
      "type": "function"
    },
    {
      "inputs": [
        {
          "internalType": "bytes4",
          "name": "interfaceId",
          "type": "bytes4"
        }
      ],
      "name": "supportsInterface",
      "outputs": [
        {
          "internalType": "bool",
          "name": "",
          "type": "bool"
        }
      ],
      "stateMutability": "pure",
      "type": "function"
    },
    {
      "inputs": [
        {
          "internalType": "address",
          "name": "newOwner",
          "type": "address"
        }
      ],
      "name": "transferOwnership",
      "outputs": [],
      "stateMutability": "nonpayable",
      "type": "function"
    },
    {
      "inputs": [],
      "name": "treeSize",
      "outputs": [
        {
          "internalType": "uint256",
          "name": "",
          "type": "uint256"
        }
      ],
      "stateMutability": "view",
      "type": "function"
    }
  ],
  "bytecode": "0x6080604052348015600f57600080fd5b506016601a565b60ca565b7ff0c57e16840df040f15088dc2f81fe391c3923bec73e23a9662efc9c229c6a00805468010000000000000000900460ff161560695760405163f92ee8a960e01b815260040160405180910390fd5b80546001600160401b039081161460c75780546001600160401b0319166001600160401b0390811782556040519081527fc7f505b2f371ae2175ee4913f4499e1f2633a7b5936321eed1cdaeb6115181d29060200160405180910390a15b50565b613e90806100d96000396000f3fe608060405234801561001057600080fd5b50600436106102255760003560e01c806301ffc9a71461022a578063096b810a14610252578063099a161a146102675780630f3e34121461028857806317d611201461029b5780631e08d0e8146102bc5780632800d829146102c4578063291a691b146102d75780632e7b716d146102ea5780634d6861a6146102fd57806350e6d94c146103105780635d5047761461033357806370e36bbe14610346578063715018a61461035957806379ba5097146103615780637c92f5241461036957806385814243146103965780638a78bb15146103b65780638cb89ecb146103c95780638d1ddfb1146103e95780638da5cb5b146103ff5780638e5ce3ad146104075780639015d3711461041a5780639a7a2ffc1461042d5780639f0f874a1461046a578063a016493014610473578063a8a4d69b14610493578063bbe4b803146104a6578063bff232c1146104b0578063c2b40ae4146104c3578063c3a0ec30146104e3578063c6b2a438146104f4578063ca2869a014610507578063cd6dc68714610527578063cf90b6ed1461053a578063da881e5a14610544578063dbb06c9314610557578063e30c39781461056a578063e59e469514610572578063e6745e1314610585578063e82f3b7014610598578063ebf0c717146105ab578063f1650536146105b3578063f2fde38b146105cd578063f379b0df146105e0578063f52fd8031461061a578063f6fc05d51461068b575b600080fd5b61023d6102383660046133b1565b610694565b60405190151581526020015b60405180910390f35b6102656102603660046133f0565b6106cb565b005b61027a61027536600461340d565b61080a565b604051908152602001610249565b61026561029636600461340d565b610844565b6102ae6102a936600461340d565b6108be565b60405161024992919061349d565b61027a600181565b61027a6102d236600461340d565b610a6e565b61023d6102e53660046134cb565b610abb565b61023d6102f83660046133f0565b610c9c565b61023d61030b36600461340d565b610d4d565b61023d61031e3660046133f0565b60066020526000908152604090205460ff1681565b61023d610341366004613508565b610d8e565b6102656103543660046133f0565b610dd3565b610265610e4a565b610265610e6e565b61037c610377366004613538565b610ead565b6040805192835263ffffffff909116602083015201610249565b6001546103a9906001600160a01b031681565b6040516102499190613570565b6102656103c43660046133f0565b611058565b61027a6103d736600461340d565b60096020526000908152604090205481565b600454600160281b900464ffffffffff1661027a565b6103a96111a3565b600b546103a9906001600160a01b031681565b61023d6104283660046133f0565b6111be565b61045461043b3660046133f0565b60076020526000908152604090205464ffffffffff1681565b60405164ffffffffff9091168152602001610249565b61027a60035481565b61048661048136600461340d565b6111dc565b6040516102499190613584565b61023d6104a1366004613508565b611275565b61027a6210000081565b6102656104be3660046133f0565b6112ba565b61027a6104d136600461340d565b60086020526000908152604090205481565b6001546001600160a01b03166103a9565b6102656105023660046135df565b611333565b61027a61051536600461340d565b60009081526008602052604090205490565b610265610535366004613665565b611636565b61027a62093a8081565b61023d61055236600461340d565b61179d565b6000546103a9906001600160a01b031681565b6103a9611ab2565b6102656105803660046133f0565b611abd565b610265610593366004613691565b611b36565b61027a6105a636600461340d565b611cf8565b61027a611d25565b6105bb601481565b60405160ff9091168152602001610249565b6102656105db3660046133f0565b611d38565b6004546105fc9064ffffffffff80821691600160281b90041682565b6040805164ffffffffff938416815292909116602083015201610249565b61065c61062836600461340d565b6000908152600a60205260409020600b810154600590910154909163ffffffff80831692600160201b900416908284101590565b604051610249949392919093845263ffffffff9283166020850152911660408301521515606082015260800190565b61027a60025481565b60006001600160e01b0319821663cb54661360e01b14806106c557506001600160e01b031982166301ffc9a760e01b145b92915050565b6106d36111a3565b6001600160a01b0316336001600160a01b031614806106fc57506001546001600160a01b031633145b61071957604051632864c4e160e01b815260040160405180910390fd5b610722816111be565b819061074b576040516381e5828960e01b81526004016107429190613570565b60405180910390fd5b506001600160a01b03811660009081526007602052604081205464ffffffffff169061077a9060049083611da9565b6001600160a01b0382166000908152600660205260408120805460ff1916905560028054916107a8836136c9565b90915550506002546004546040516001600160a01b038516927f8c008e3835f6c79bfcdb89f0f6ca8705e0b01049ee84a90b0e4da1c7ba9405d5926107fe92869291600160281b900464ffffffffff16906136e0565b60405180910390a25050565b6000818152600a60205260408120600481015461083a576040516322e679e360e11b815260040160405180910390fd5b6007015492915050565b61084c611fed565b60018110158015610860575062093a808111155b81906108825760405163028237cd60e61b815260040161074291815260200190565b5060038190556040518181527fbe772dc189863d512fa01e489c8eac204975aef1a8662d8b5a333804b5207ab79060200160405180910390a150565b6000818152600a602052604090206006810154600b82015460609283929091806001600160401b038111156108f5576108f5613701565b60405190808252806020026020018201604052801561091e578160200160208202803683370190505b509450806001600160401b0381111561093957610939613701565b604051908082528060200260200182016040528015610962578160200160208202803683370190505b5093506000805b83811015610a6457600085600601828154811061098857610988613717565b6000918252602090912001546001600160a01b0316905060016001600160a01b0382166000908152600a8801602052604090205460ff1660028111156109d0576109d061372d565b03610a5b57808884815181106109e8576109e8613717565b60200260200101906001600160a01b031690816001600160a01b031681525050856009016000826001600160a01b03166001600160a01b0316815260200190815260200160002054878481518110610a4257610a42613717565b602090810291909101015282610a5781613743565b9350505b50600101610969565b5050505050915091565b6000818152600a6020526040812081815460ff166003811115610a9357610a9361372d565b03610ab157604051630d4c1d9760e41b815260040160405180910390fd5b6003015492915050565b600080546001600160a01b03163314610ae75760405163e4c2a7eb60e01b815260040160405180910390fd5b6000848152600a6020526040812090815460ff166003811115610b0c57610b0c61372d565b14610b2a576040516374ff462560e11b815260040160405180910390fd5b60015460408051630cc37d8f60e11b815290516000926001600160a01b031691631986fb1e9160048083019260209291908290030181865afa158015610b74573d6000803e3d6000fd5b505050506040513d601f19601f82011682018060405250810190610b98919061375c565b905080610bab6040860160208701613789565b63ffffffff161115610bc36040860160208701613789565b829091610bf1576040516344ec930f60e01b815263ffffffff90921660048301526024820152604401610742565b5050815460ff19166001908117835582018590554260028301819055600354610c19916137a4565b6003830155610c2d600583018560026132fa565b50610c36611d25565b600087815260086020526040908190209190915560028301546003840154915188927f381d281d32f95ef8fe4e5f3b263ea6a32d03d331e1a141ae1da996dc02a7a17092610c88928a928a92916137b7565b60405180910390a250600195945050505050565b6000610ca7826111be565b610cb357506000919050565b6001546001600160a01b0316610cdc576040516350ca893360e01b815260040160405180910390fd5b600154604051639f8a13d760e01b81526001600160a01b0390911690639f8a13d790610d0c908590600401613570565b602060405180830381865afa158015610d29573d6000803e3d6000fd5b505050506040513d601f19601f820116820180604052508101906106c59190613818565b6000818152600a602052604081206001815460ff166003811115610d7357610d7361372d565b14610d815750600092915050565b6003015442111592915050565b600060016000848152600a602081815260408084206001600160a01b0388168552909201905290205460ff166002811115610dcb57610dcb61372d565b149392505050565b610ddb611fed565b6001600160a01b038116610e025760405163d92e233d60e01b815260040160405180910390fd5b600080546001600160a01b0319166001600160a01b038316908117825560405190917f2c8267accd82e977550ed2349c73311183cd22e306347be4453c8d130995e3c991a250565b610e52611fed565b6040516001623f026d60e01b0319815260040160405180910390fd5b3380610e78611ab2565b6001600160a01b031614610ea1578060405163118cdaa760e01b81526004016107429190613570565b610eaa81612021565b50565b600b5460009081906001600160a01b03163314610edd5760405163fcef374960e01b815260040160405180910390fd5b6000858152600a602052604090206002815460ff166003811115610f0357610f0361372d565b14610f2157604051634f4b461f60e11b815260040160405180910390fd5b60058101546001600160a01b0386166000908152600a8301602052604090205463ffffffff909116925060019060ff166002811115610f6257610f6261372d565b14610f7257600b01549150611050565b6001600160a01b0385166000908152600a820160205260408120805460ff19166002179055600b8201805491610fa7836136c9565b919050555080600b01549250846001600160a01b0316867f6c783b92374361b4d6efaf29673b89437ee969bb3c9d2d5d86b143ad5447b8498686604051610ff8929190918252602082015260400190565b60405180910390a36040805184815263ffffffff84166020820181905285101591810182905287907f119cb11dd0a68c257d6dc9b06dcb37dd422ce276eb8bf3cd0b7079a116b8e2989060600160405180910390a250505b935093915050565b6110606111a3565b6001600160a01b0316336001600160a01b0316148061108957506001546001600160a01b031633145b6110a657604051632864c4e160e01b815260040160405180910390fd5b6110af816111be565b610eaa57600454600160281b900464ffffffffff166210000081106110e7576040516335b4ac3f60e01b815260040160405180910390fd5b6110fb60046001600160a01b038416612048565b6001600160a01b0382166000908152600660209081526040808320805460ff1916600117905560079091528120805464ffffffffff841664ffffffffff19909116179055600280549161114d83613743565b90915550506002546004546040516001600160a01b038516927f3318d261fe14a5761d2d1e21555652f623d2134c430a9883c9ad6e958bb0db53926107fe92869291600160281b900464ffffffffff16906136e0565b6000806111ae6121c3565b546001600160a01b031692915050565b6001600160a01b031660009081526006602052604090205460ff1690565b6000818152600a60205260409020600481015460609190611210576040516322e679e360e11b815260040160405180910390fd5b8060060180548060200260200160405190810160405280929190818152602001828054801561126857602002820191906000526020600020905b81546001600160a01b0316815260019091019060200180831161124a575b5050505050915050919050565b6000806000848152600a602081815260408084206001600160a01b0388168552909201905290205460ff1660028111156112b1576112b161372d565b14159392505050565b6112c2611fed565b6001600160a01b0381166112e95760405163d92e233d60e01b815260040160405180910390fd5b600b80546001600160a01b0319166001600160a01b0383169081179091556040517fb73e5a0813d035641a46672d94cff1b110eae2a87ac75a0e31134dfba06cffe290600090a250565b61133b6121e7565b6000868152600a602052604090206002815460ff1660038111156113615761136161372d565b1461137f57604051634f4b461f60e11b815260040160405180910390fd5b6004810154156113a25760405163632a22bb60e01b815260040160405180910390fd5b836113c057604051636caad1ed60e11b815260040160405180910390fd5b60006114278260060180548060200260200160405190810160405280929190818152602001828054801561141d57602002820191906000526020600020905b81546001600160a01b031681526001909101906020018083116113ff575b505050505061221d565b600783018190556000805460405163101bb4d760e21b8152600481018c905292935090916001600160a01b039091169063406ed35c90602401600060405180830381865afa15801561147d573d6000803e3d6000fd5b505050506040513d6000823e601f3d908101601f191682016040526114a591908101906139ab565b9050806101c001511561156457836114d057604051630fb0193f60e41b815260040160405180910390fd5b61012081015160008a815260086020526040908190205490516303a0d4ed60e11b81526001600160a01b0390921691630741a9da91611521918d919060068901908c9089908d908d90600401613b78565b602060405180830381865afa15801561153e573d6000803e3d6000fd5b505050506040513d601f19601f820116820180604052508101906115629190613818565b505b600483810187905560008a815260096020526040808220899055905490516340a3b76160e11b81529182018b9052602482018890526001600160a01b0316906381476ec290604401600060405180830381600087803b1580156115c657600080fd5b505af11580156115da573d6000803e3d6000fd5b50505050887fbf0636a312095f6c09c909823813b50e392323588d2d83432e7512c64041e67f846006018a8a8a8a8a60405161161b96959493929190613bc4565b60405180910390a250505061162e61224d565b505050505050565b600061164061225e565b805490915060ff600160401b82041615906001600160401b03166000811580156116675750825b90506000826001600160401b031660011480156116835750303b155b905081158015611691575080155b156116af5760405163f92ee8a960e01b815260040160405180910390fd5b84546001600160401b031916600117855583156116d857845460ff60401b1916600160401b1785555b6001600160a01b0387166116ff5760405163d92e233d60e01b815260040160405180910390fd5b61170833612287565b611710612298565b61171c600460146122a8565b61172586610844565b61172d6111a3565b6001600160a01b0316876001600160a01b03161461174e5761174e87612021565b831561179457845460ff60401b19168555604051600181527fc7f505b2f371ae2175ee4913f4499e1f2633a7b5936321eed1cdaeb6115181d29060200160405180910390a15b50505050505050565b60006117a76121e7565b6000828152600a6020526040812090815460ff1660038111156117cc576117cc61372d565b036117ea57604051630d4c1d9760e41b815260040160405180910390fd5b6001815460ff1660038111156118025761180261372d565b1461182057604051631860f69960e31b815260040160405180910390fd5b8060030154421161184457604051632f021e8d60e11b815260040160405180910390fd5b60058101546006820154600160201b90910463ffffffff16111580611931578154600360ff199091161782556006820154600583015460408051928352600160201b90910463ffffffff16602083015285917fecc4a9fb7e28d074cba7f5b227e9b5827823c850a385539b9a2f98a08f8c203d910160405180910390a2600054604051635d968dc160e11b815260048101869052600260248201526001600160a01b039091169063bb2d1b8290604401600060405180830381600087803b15801561190e57600080fd5b505af1158015611922573d6000803e3d6000fd5b50505050600092505050611aa5565b815460ff191660021782556006820154600b83018190556000816001600160401b0381111561196257611962613701565b60405190808252806020026020018201604052801561198b578160200160208202803683370190505b50905060005b82811015611a00578460090160008660060183815481106119b4576119b4613717565b60009182526020808320909101546001600160a01b0316835282019290925260400190205482518390839081106119ed576119ed613717565b6020908102919091010152600101611991565b50600054604051631f3ea75d60e21b8152600481018890526001600160a01b0390911690637cfa9d7490602401600060405180830381600087803b158015611a4757600080fd5b505af1158015611a5b573d6000803e3d6000fd5b50505050857f965338df36bd39d668fe7694af5c34a5e37fb2cdc450ce4e99c0e71deb7c11e58560060183604051611a94929190613c12565b60405180910390a260019450505050505b611aad61224d565b919050565b6000806111ae6122e7565b611ac5611fed565b6001600160a01b038116611aec5760405163d92e233d60e01b815260040160405180910390fd5b600180546001600160a01b0319166001600160a01b0383169081179091556040517fad4055f18cdad6f4bdd71afe3a72cbeee964217943e1bde38f138289e981a9a790600090a250565b6000828152600a6020526040812090815460ff166003811115611b5b57611b5b61372d565b03611b7957604051630d4c1d9760e41b815260040160405180910390fd5b6001815460ff166003811115611b9157611b9161372d565b14611baf57604051631860f69960e31b815260040160405180910390fd5b8060030154421115611bd457604051639a19114d60e01b815260040160405180910390fd5b33600090815260088201602052604090205460ff1615611c075760405163257309f160e11b815260040160405180910390fd5b611c1033610c9c565b611c2d5760405163149fbcfd60e11b815260040160405180910390fd5b611c3833838561230b565b6001810154604080516001600160601b03193360601b16602080830191909152603482018690526054820187905260748083019490945282518083039094018452609490910190915281519101206000903360008181526008850160205260409020805460ff19166001179055909150611cb4908390836124e7565b506040805184815260208101839052339186917f52999628fb1cb05707e842278833b22e511f11746202cecdf221968b0b89e8bd910160405180910390a350505050565b60008181526009602052604090205480611aad576040516322e679e360e11b815260040160405180910390fd5b6000611d33600460146126f3565b905090565b611d40611fed565b6000611d4a6122e7565b80546001600160a01b0319166001600160a01b0384169081178255909150611d706111a3565b6001600160a01b03167f38d16b8cac22d99fc7c124b9cd0de2d3fa1faef420bfe791d8c362d765e2270060405160405180910390a35050565b600080516020613e648339815191528210611dc357600080fd5b825464ffffffffff600160281b90910481169082168111611de357600080fd5b8260005b81866001016000611df88488612759565b64ffffffffff168152602001908152602001600020819055506000816001611e209190613c25565b60ff168464ffffffffff16901c64ffffffffff16905060018564ffffffffff16901c64ffffffffff168111611e55575061162e565b60018516600003611f21576000611e7683611e71886001613c3e565b612759565b60408051808201825286815264ffffffffff8316600090815260018c0160209081529083902054908201529051632b0aac7f60e11b815291925073__$078c82ddf6c95d34ea184ef1dd6130d136$__9163561558fe91611ed891600401613c5b565b602060405180830381865af4158015611ef5573d6000803e3d6000fd5b505050506040513d601f19601f82011682018060405250810190611f19919061375c565b935050611fd9565b6000611f3283611e71600189613c8c565b60408051808201825264ffffffffff8316600090815260018c0160209081529083902054825281018790529051632b0aac7f60e11b815291925073__$078c82ddf6c95d34ea184ef1dd6130d136$__9163561558fe91611f9491600401613c5b565b602060405180830381865af4158015611fb1573d6000803e3d6000fd5b505050506040513d601f19601f82011682018060405250810190611fd5919061375c565b9350505b50647fffffffff600194851c169301611de7565b33611ff66111a3565b6001600160a01b03161461201f573360405163118cdaa760e01b81526004016107429190613570565b565b600061202b6122e7565b80546001600160a01b0319168155905061204482612777565b5050565b8154600160281b900464ffffffffff16600080516020613e64833981519152821061207257600080fd5b825464ffffffffff9081169082161061208a57600080fd5b612095816001613c3e565b835464ffffffffff91909116600160281b0264ffffffffff60281b199091161783558160005b818560010160006120cc8487612759565b64ffffffffff16815260208101919091526040016000205560018316156121bc5760006120fe82611e71600187613c8c565b60408051808201825264ffffffffff8316600090815260018a0160209081529083902054825281018690529051632b0aac7f60e11b815291925073__$078c82ddf6c95d34ea184ef1dd6130d136$__9163561558fe9161216091600401613c5b565b602060405180830381865af415801561217d573d6000803e3d6000fd5b505050506040513d601f19601f820116820180604052508101906121a1919061375c565b647fffffffff600195861c16949093509190910190506120bb565b5050505050565b7f9016d09d72d40fdae2fd8ceac6b6234c7706214fd39c1cd1e609a0528c19930090565b60006121f16127d3565b80549091506001190161221757604051633ee5aeb560e01b815260040160405180910390fd5b60029055565b6000816040516020016122309190613ca9565b604051602081830303815290604052805190602001209050919050565b60006122576127d3565b6001905550565b6000807ff0c57e16840df040f15088dc2f81fe391c3923bec73e23a9662efc9c229c6a006106c5565b61228f6127f7565b610eaa8161281c565b6122a06127f7565b61201f61284e565b602060ff821611156122b957600080fd5b6122ca600160ff831681901b613cdd565b82546001600160501b03191664ffffffffff919091161790915550565b7f237e158222e3e6968b72b9db0d8043aacf074ad9f650f0d1606b4d82ee432c0090565b6000821161232c5760405163aeaddff160e01b815260040160405180910390fd5b6001546001600160a01b0316612355576040516350ca893360e01b815260040160405180910390fd5b6000818152600a602052604081206001805460028301549293926001600160a01b039091169163bb03bd7191889161238c91613cdd565b6040516001600160e01b031960e085901b1681526001600160a01b0390921660048301526024820152604401602060405180830381865afa1580156123d5573d6000803e3d6000fd5b505050506040513d601f19601f820116820180604052508101906123f9919061375c565b90506000600160009054906101000a90046001600160a01b03166001600160a01b0316631209b1f66040518163ffffffff1660e01b8152600401602060405180830381865afa158015612450573d6000803e3d6000fd5b505050506040513d601f19601f82011682018060405250810190612474919061375c565b9050600081116124975760405163aeaddff160e01b815260040160405180910390fd5b60006124a38284613cf0565b9050600081116124c65760405163149fbcfd60e11b815260040160405180910390fd5b808611156117945760405163aeaddff160e01b815260040160405180910390fd5b6005830154600684018054600092600160201b900463ffffffff169081111561256757508054600180820183556000928352602080842090920180546001600160a01b0319166001600160a01b03881690811790915583526009870182526040808420869055600a88019092529120805460ff19168217905590506126ec565b6000808760090160008560008154811061258357612583613717565b60009182526020808320909101546001600160a01b03168352820192909252604001902054905060015b845481101561260f5760008960090160008784815481106125d0576125d0613717565b60009182526020808320909101546001600160a01b03168352820192909252604001902054905082811115612606578092508193505b506001016125ad565b508086106126245760009450505050506126ec565b600088600a01600086858154811061263e5761263e613717565b60009182526020808320909101546001600160a01b031683528201929092526040019020805460ff1916600183600281111561267c5761267c61372d565b02179055508684838154811061269457612694613717565b600091825260208083209190910180546001600160a01b0319166001600160a01b03948516179055918916815260098a0182526040808220899055600a8b0190925220805460ff191660019081179091559450505050505b9392505050565b6000808260ff161161270457600080fd5b602060ff8316111561271557600080fd5b8254600160281b900464ffffffffff168061273460ff85166002613e22565b64ffffffffff16101561274657600080fd5b612751848285612856565b949350505050565b60008161276d60ff851663ffffffff613e3c565b6126ec9190613c3e565b60006127816121c3565b80546001600160a01b038481166001600160a01b031983168117845560405193945091169182907f8be0079c531659141344cd1fd0a4f28419497f9722a3daafe3b4186f6b6457e090600090a3505050565b7f9b779b17422d0df92223018b32b4d1fa46e071723d6817e2486d003becc55f0090565b6127ff61290e565b61201f57604051631afcd79f60e31b815260040160405180910390fd5b6128246127f7565b6001600160a01b038116610ea1576000604051631e4fbdf760e01b81526004016107429190613570565b61224d6127f7565b6000602060ff8316111561286957600080fd5b8264ffffffffff166000036128885761288182612928565b90506126ec565b6000612895836001613c25565b60ff166001600160401b038111156128af576128af613701565b6040519080825280602002602001820160405280156128d8578160200160208202803683370190505b5090506128e785858584612f7d565b808360ff16815181106128fc576128fc613717565b60200260200101519150509392505050565b600061291861225e565b54600160401b900460ff16919050565b60008160ff1660000361293d57506000919050565b8160ff1660010361296f57507f2098f5fb9e239eab3ceac3f27b81e481dc3124d55ffed523a839ee8446b64864919050565b8160ff166002036129a157507f1069673dcdb12263df301a6ff584a7ec261a44cb9dc68df067a4774460b1f1e1919050565b8160ff166003036129d357507f18f43331537ee2af2e3d758d50f72106467c6eea50371dd528d57eb2b856d238919050565b8160ff16600403612a0557507f07f9d837cb17b0d36320ffe93ba52345f1b728571a568265caac97559dbc952a919050565b8160ff16600503612a3757507f2b94cf5e8746b3f5c9631f4c5df32907a699c58c94b2ad4d7b5cec1639183f55919050565b8160ff16600603612a6957507f2dee93c5a666459646ea7d22cca9e1bcfed71e6951b953611d11dda32ea09d78919050565b8160ff16600703612a9b57507f078295e5a22b84e982cf601eb639597b8b0515a88cb5ac7fa8a4aabe3c87349d919050565b8160ff16600803612acd57507f2fa5e5f18f6027a6501bec864564472a616b2e274a41211a444cbe3a99f3cc61919050565b8160ff16600903612aff57507f0e884376d0d8fd21ecb780389e941f66e45e7acce3e228ab3e2156a614fcd747919050565b8160ff16600a03612b3157507f1b7201da72494f1e28717ad1a52eb469f95892f957713533de6175e5da190af2919050565b8160ff16600b03612b6357507f1f8d8822725e36385200c0b201249819a6e6e1e4650808b5bebc6bface7d7636919050565b8160ff16600c03612b9557507f2c5d82f66c914bafb9701589ba8cfcfb6162b0a12acf88a8d0879a0471b5f85a919050565b8160ff16600d03612bc757507f14c54148a0940bb820957f5adf3fa1134ef5c4aaa113f4646458f270e0bfbfd0919050565b8160ff16600e03612bf957507f190d33b12f986f961e10c0ee44d8b9af11be25588cad89d416118e4bf4ebe80c919050565b8160ff16600f03612c2b57507f22f98aa9ce704152ac17354914ad73ed1167ae6596af510aa5b3649325e06c92919050565b8160ff16601003612c5d57507f2a7c7c9b6ce5880b9f6f228d72bf6a575a526f29c66ecceef8b753d38bba7323919050565b8160ff16601103612c8f57507f2e8186e558698ec1c67af9c14d463ffc470043c9c2988b954d75dd643f36b992919050565b8160ff16601203612cc157507f0f57c5571e9a4eab49e2c8cf050dae948aef6ead647392273546249d1c1ff10f919050565b8160ff16601303612cf357507f1830ee67b5fb554ad5f63d4388800e1cfe78e310697d46e43c9ce36134f72cca919050565b8160ff16601403612d2557507f2134e76ac5d21aab186c2be1dd8f84ee880a1e46eaf712f9d371b6df22191f3e919050565b8160ff16601503612d5757507f19df90ec844ebc4ffeebd866f33859b0c051d8c958ee3aa88f8f8df3db91a5b1919050565b8160ff16601603612d8957507f18cca2a66b5c0787981e69aefd84852d74af0e93ef4912b4648c05f722efe52b919050565b8160ff16601703612dbb57507f2388909415230d1b4d1304d2d54f473a628338f2efad83fadf05644549d2538d919050565b8160ff16601803612ded57507f27171fb4a97b6cc0e9e8f543b5294de866a2af2c9c8d0b1d96e673e4529ed540919050565b8160ff16601903612e1f57507f2ff6650540f629fd5711a0bc74fc0d28dcb230b9392583e5f8d59696dde6ae21919050565b8160ff16601a03612e5157507f120c58f143d491e95902f7f5277778a2e0ad5168f6add75669932630ce611518919050565b8160ff16601b03612e8357507f1f21feb70d3f21b07bf853d5e5db03071ec495a0a565a21da2d665d279483795919050565b8160ff16601c03612eb557507f24be905fa71335e14c638cc0f66a8623a826e768068a9e968bb1a1dde18a72d2919050565b8160ff16601d03612ee757507f0f8666b62ed17491c50ceadead57d4cd597ef3821d65c328744c74e553dac26d919050565b8160ff16601e03612f1957507f0918d46bf52d98b034413f4a1a1c41594e7a7a3f6ae08cb43d1a2a230e1959ef919050565b8160ff16601f03612f4b57507f1bbeb01b4c479ecde76917645e404dfa2e26f90d0afc5a65128513ad375c5ff2919050565b8160ff1660200361022557507f2f68a1c58e257e42a17a6c61dff5551ed560b9922ab119d5ac8e184c9734ead9919050565b602060ff83161115612f8e57600080fd5b60008364ffffffffff1611612fa257600080fd5b6000612faf600185613c8c565b90506001811660000361300757846001016000612fcd600084612759565b64ffffffffff1681526020019081526020016000205482600081518110612ff657612ff6613717565b602002602001018181525050613031565b6130116000612928565b8260008151811061302457613024613717565b6020026020010181815250505b60005b8360ff168160ff16101561162e576001821660000361312d5773__$078c82ddf6c95d34ea184ef1dd6130d136$__63561558fe6040518060400160405280868560ff168151811061308757613087613717565b6020026020010151815260200161309d85612928565b8152506040518263ffffffff1660e01b81526004016130bc9190613c5b565b602060405180830381865af41580156130d9573d6000803e3d6000fd5b505050506040513d601f19601f820116820180604052508101906130fd919061375c565b83613109836001613c25565b60ff168151811061311c5761311c613717565b6020026020010181815250506132e7565b600061313a826001613c25565b60ff168664ffffffffff16901c64ffffffffff16905060018364ffffffffff16901c64ffffffffff168111156131df5760008760010160006131938560016131829190613c25565b60018864ffffffffff16901c612759565b64ffffffffff16815260200190815260200160002054905080858460016131ba9190613c25565b60ff16815181106131cd576131cd613717565b602002602001018181525050506132e5565b60008760010160006131f885600188611e719190613c8c565b64ffffffffff16815260200190815260200160002054905073__$078c82ddf6c95d34ea184ef1dd6130d136$__63561558fe6040518060400160405280848152602001888760ff168151811061325057613250613717565b60200260200101518152506040518263ffffffff1660e01b81526004016132779190613c5b565b602060405180830381865af4158015613294573d6000803e3d6000fd5b505050506040513d601f19601f820116820180604052508101906132b8919061375c565b856132c4856001613c25565b60ff16815181106132d7576132d7613717565b602002602001018181525050505b505b647fffffffff600192831c169101613034565b60018301918390821561338c5791602002820160005b8382111561335a57833563ffffffff1683826101000a81548163ffffffff021916908363ffffffff1602179055509260200192600401602081600301049283019260010302613310565b801561338a5782816101000a81549063ffffffff021916905560040160208160030104928301926001030261335a565b505b5061339892915061339c565b5090565b5b80821115613398576000815560010161339d565b6000602082840312156133c357600080fd5b81356001600160e01b0319811681146126ec57600080fd5b6001600160a01b0381168114610eaa57600080fd5b60006020828403121561340257600080fd5b81356126ec816133db565b60006020828403121561341f57600080fd5b5035919050565b600081518084526020840193506020830160005b828110156134615781516001600160a01b031686526020958601959091019060010161343a565b5093949350505050565b600081518084526020840193506020830160005b8281101561346157815186526020958601959091019060010161347f565b6040815260006134b06040830185613426565b82810360208401526134c2818561346b565b95945050505050565b6000806000608084860312156134e057600080fd5b8335925060208401359150608084018510156134fb57600080fd5b6040840190509250925092565b6000806040838503121561351b57600080fd5b82359150602083013561352d816133db565b809150509250929050565b60008060006060848603121561354d57600080fd5b83359250602084013561355f816133db565b929592945050506040919091013590565b6001600160a01b0391909116815260200190565b6020815260006126ec6020830184613426565b60008083601f8401126135a957600080fd5b5081356001600160401b038111156135c057600080fd5b6020830191508360208285010111156135d857600080fd5b9250929050565b600080600080600080608087890312156135f857600080fd5b8635955060208701356001600160401b0381111561361557600080fd5b61362189828a01613597565b9096509450506040870135925060608701356001600160401b0381111561364757600080fd5b61365389828a01613597565b979a9699509497509295939492505050565b6000806040838503121561367857600080fd5b8235613683816133db565b946020939093013593505050565b600080604083850312156136a457600080fd5b50508035926020909101359150565b634e487b7160e01b600052601160045260246000fd5b6000816136d8576136d86136b3565b506000190190565b64ffffffffff93841681526020810192909252909116604082015260600190565b634e487b7160e01b600052604160045260246000fd5b634e487b7160e01b600052603260045260246000fd5b634e487b7160e01b600052602160045260246000fd5b600060018201613755576137556136b3565b5060010190565b60006020828403121561376e57600080fd5b5051919050565b803563ffffffff81168114611aad57600080fd5b60006020828403121561379b57600080fd5b6126ec82613775565b808201808211156106c5576106c56136b3565b84815260a08101602082018560005b60028110156137f35763ffffffff6137dd83613775565b16835260209283019291909101906001016137c6565b50505060608201939093526080015292915050565b80518015158114611aad57600080fd5b60006020828403121561382a57600080fd5b6126ec82613808565b6040516101e081016001600160401b038111828210171561385657613856613701565b60405290565b604051601f8201601f191681016001600160401b038111828210171561388457613884613701565b604052919050565b805160048110611aad57600080fd5b600082601f8301126138ac57600080fd5b604080519081016001600160401b03811182821017156138ce576138ce613701565b80604052508060408401858111156138e557600080fd5b845b818110156138ff5780518352602092830192016138e7565b509195945050505050565b8051611aad816133db565b805160ff81168114611aad57600080fd5b600082601f83011261393757600080fd5b81516001600160401b0381111561395057613950613701565b613963601f8201601f191660200161385c565b81815284602083860101111561397857600080fd5b60005b828110156139975760208186018101518383018201520161397b565b506000918101602001919091529392505050565b6000602082840312156139bd57600080fd5b81516001600160401b038111156139d357600080fd5b820161020081850312156139e657600080fd5b6139ee613833565b815181526139fe6020830161388c565b602082015260408281015190820152613a1a856060840161389b565b606082015260a08201516080820152613a3560c0830161390a565b60a0820152613a4660e08301613915565b60c08201526101008201516001600160401b03811115613a6557600080fd5b613a7186828501613926565b60e083015250613a84610120830161390a565b610100820152613a97610140830161390a565b61012082015261016082810151610140830152610180830151908201526101a08201516001600160401b03811115613ace57600080fd5b613ada86828501613926565b61018083015250613aee6101c0830161390a565b6101a0820152613b016101e08301613808565b6101c0820152949350505050565b6000815480845260208401935082600052602060002060005b828110156134615781546001600160a01b0316865260209095019460019182019101613b28565b81835281816020850137506000828201602090810191909152601f909101601f19169091010190565b87815286602082015260c060408201526000613b9760c0830188613b0f565b86606084015285608084015282810360a0840152613bb6818587613b4f565b9a9950505050505050505050565b608081526000613bd76080830189613b0f565b8281036020840152613bea81888a613b4f565b90508560408401528281036060840152613c05818587613b4f565b9998505050505050505050565b6040815260006134b06040830185613b0f565b60ff81811683821601908111156106c5576106c56136b3565b64ffffffffff81811683821601908111156106c5576106c56136b3565b60408101818360005b6002811015613c83578151835260209283019290910190600101613c64565b50505092915050565b64ffffffffff82811682821603908111156106c5576106c56136b3565b8151600090829060208501835b828110156138ff5781516001600160a01b0316845260209384019390910190600101613cb6565b818103818111156106c5576106c56136b3565b600082613d0d57634e487b7160e01b600052601260045260246000fd5b500490565b6001815b600184111561105057808504811115613d3157613d316136b3565b6001841615613d3f57908102905b60019390931c928002613d16565b600082613d5c575060016106c5565b81613d69575060006106c5565b8160018114613d7f5760028114613d8957613dbb565b60019150506106c5565b60ff841115613d9a57613d9a6136b3565b6001841b915064ffffffffff821115613db557613db56136b3565b506106c5565b5060208310610133831016604e8410600b8410161715613df3575081810a64ffffffffff811115613dee57613dee6136b3565b6106c5565b613e0364ffffffffff8484613d12565b8064ffffffffff04821115613e1a57613e1a6136b3565b029392505050565b60006126ec64ffffffffff841664ffffffffff8416613d4d565b64ffffffffff8181168382160290811690818114613e5c57613e5c6136b3565b509291505056fe30644e72e131a029b85045b68181585d2833e84879b9709143e1f593f0000001a164736f6c634300081c000a",
  "linkReferences": {
    "npm/poseidon-solidity@0.0.5/PoseidonT3.sol": {
      "PoseidonT3": [
        {
          "length": 20,
          "start": 8075
        },
        {
          "length": 20,
          "start": 8263
        },
        {
          "length": 20,
          "start": 8723
        },
        {
          "length": 20,
          "start": 12584
        },
        {
          "length": 20,
          "start": 13035
        }
      ]
    }
  },
  "deployedLinkReferences": {
    "npm/poseidon-solidity@0.0.5/PoseidonT3.sol": {
      "PoseidonT3": [
        {
          "length": 20,
          "start": 7858
        },
        {
          "length": 20,
          "start": 8046
        },
        {
          "length": 20,
          "start": 8506
        },
        {
          "length": 20,
          "start": 12367
        },
        {
          "length": 20,
          "start": 12818
        }
      ]
    }
  },
  "immutableReferences": {},
  "inputSourceName": "project/contracts/registry/CiphernodeRegistryOwnable.sol",
  "buildInfoId": "solc-0_8_28-6326ac427a5471359bd6a3cc51e54c590daedb09"
}