{
  "_format": "hh3-artifact-1",
  "contractName": "CiphernodeRegistryOwnable",
  "sourceName": "contracts/registry/CiphernodeRegistryOwnable.sol",
  "abi": [
    {
      "inputs": [],
      "stateMutability": "nonpayable",
      "type": "constructor"
    },
    {
      "inputs": [],
      "name": "BondingRegistryNotSet",
      "type": "error"
    },
    {
      "inputs": [
        {
          "internalType": "address",
          "name": "node",
          "type": "address"
        }
      ],
      "name": "CiphernodeNotEnabled",
      "type": "error"
    },
    {
      "inputs": [],
      "name": "CommitteeAlreadyFinalized",
      "type": "error"
    },
    {
      "inputs": [],
      "name": "CommitteeAlreadyPublished",
      "type": "error"
    },
    {
      "inputs": [],
      "name": "CommitteeAlreadyRequested",
      "type": "error"
    },
    {
      "inputs": [],
      "name": "CommitteeDeadlineReached",
      "type": "error"
    },
    {
      "inputs": [],
      "name": "CommitteeNotFinalized",
      "type": "error"
    },
    {
      "inputs": [],
      "name": "CommitteeNotInitializedOrFinalized",
      "type": "error"
    },
    {
      "inputs": [],
      "name": "CommitteeNotPublished",
      "type": "error"
    },
    {
      "inputs": [],
      "name": "CommitteeNotRequested",
      "type": "error"
    },
    {
      "inputs": [
        {
          "internalType": "uint256",
          "name": "requested",
          "type": "uint256"
        },
        {
          "internalType": "uint256",
          "name": "available",
          "type": "uint256"
        }
      ],
      "name": "InsufficientCiphernodes",
      "type": "error"
    },
    {
      "inputs": [],
      "name": "InvalidInitialization",
      "type": "error"
    },
    {
      "inputs": [],
      "name": "InvalidTicketNumber",
      "type": "error"
    },
    {
      "inputs": [],
      "name": "NodeAlreadySubmitted",
      "type": "error"
    },
    {
      "inputs": [
        {
          "internalType": "address",
          "name": "node",
          "type": "address"
        }
      ],
      "name": "NodeNotBonded",
      "type": "error"
    },
    {
      "inputs": [],
      "name": "NodeNotEligible",
      "type": "error"
    },
    {
      "inputs": [],
      "name": "NodeNotSubmitted",
      "type": "error"
    },
    {
      "inputs": [],
      "name": "NotInitializing",
      "type": "error"
    },
    {
      "inputs": [],
      "name": "NotOwnerOrBondingRegistry",
      "type": "error"
    },
    {
      "inputs": [],
      "name": "NotSlashingManager",
      "type": "error"
    },
    {
      "inputs": [],
      "name": "OnlyBondingRegistry",
      "type": "error"
    },
    {
      "inputs": [],
      "name": "OnlyEnclave",
      "type": "error"
    },
    {
      "inputs": [
        {
          "internalType": "address",
          "name": "owner",
          "type": "address"
        }
      ],
      "name": "OwnableInvalidOwner",
      "type": "error"
    },
    {
      "inputs": [
        {
          "internalType": "address",
          "name": "account",
          "type": "address"
        }
      ],
      "name": "OwnableUnauthorizedAccount",
      "type": "error"
    },
    {
      "inputs": [],
      "name": "SubmissionWindowClosed",
      "type": "error"
    },
    {
      "inputs": [],
      "name": "SubmissionWindowNotClosed",
      "type": "error"
    },
    {
      "inputs": [],
      "name": "ThresholdNotMet",
      "type": "error"
    },
    {
      "inputs": [],
      "name": "Unauthorized",
      "type": "error"
    },
    {
      "inputs": [],
      "name": "ZeroAddress",
      "type": "error"
    },
    {
      "anonymous": false,
      "inputs": [
        {
          "indexed": true,
          "internalType": "address",
          "name": "bondingRegistry",
          "type": "address"
        }
      ],
      "name": "BondingRegistrySet",
      "type": "event"
    },
    {
      "anonymous": false,
      "inputs": [
        {
          "indexed": true,
          "internalType": "address",
          "name": "node",
          "type": "address"
        },
        {
          "indexed": false,
          "internalType": "uint256",
          "name": "index",
          "type": "uint256"
        },
        {
          "indexed": false,
          "internalType": "uint256",
          "name": "numNodes",
          "type": "uint256"
        },
        {
          "indexed": false,
          "internalType": "uint256",
          "name": "size",
          "type": "uint256"
        }
      ],
      "name": "CiphernodeAdded",
      "type": "event"
    },
    {
      "anonymous": false,
      "inputs": [
        {
          "indexed": true,
          "internalType": "address",
          "name": "node",
          "type": "address"
        },
        {
          "indexed": false,
          "internalType": "uint256",
          "name": "index",
          "type": "uint256"
        },
        {
          "indexed": false,
          "internalType": "uint256",
          "name": "numNodes",
          "type": "uint256"
        },
        {
          "indexed": false,
          "internalType": "uint256",
          "name": "size",
          "type": "uint256"
        }
      ],
      "name": "CiphernodeRemoved",
      "type": "event"
    },
    {
      "anonymous": false,
      "inputs": [
        {
          "indexed": true,
          "internalType": "uint256",
          "name": "e3Id",
          "type": "uint256"
        },
        {
          "indexed": false,
          "internalType": "bool",
          "name": "active",
          "type": "bool"
        }
      ],
      "name": "CommitteeActivationChanged",
      "type": "event"
    },
    {
      "anonymous": false,
      "inputs": [
        {
          "indexed": true,
          "internalType": "uint256",
          "name": "e3Id",
          "type": "uint256"
        },
        {
          "indexed": false,
          "internalType": "address[]",
          "name": "committee",
          "type": "address[]"
        }
      ],
      "name": "CommitteeFinalized",
      "type": "event"
    },
    {
      "anonymous": false,
      "inputs": [
        {
          "indexed": true,
          "internalType": "uint256",
          "name": "e3Id",
          "type": "uint256"
        },
        {
          "indexed": false,
          "internalType": "uint256",
          "name": "nodesSubmitted",
          "type": "uint256"
        },
        {
          "indexed": false,
          "internalType": "uint256",
          "name": "thresholdRequired",
          "type": "uint256"
        }
      ],
      "name": "CommitteeFormationFailed",
      "type": "event"
    },
    {
      "anonymous": false,
      "inputs": [
        {
          "indexed": true,
          "internalType": "uint256",
          "name": "e3Id",
          "type": "uint256"
        },
        {
          "indexed": true,
          "internalType": "address",
          "name": "node",
          "type": "address"
        },
        {
          "indexed": false,
          "internalType": "bytes32",
          "name": "reason",
          "type": "bytes32"
        },
        {
          "indexed": false,
          "internalType": "uint256",
          "name": "activeCountAfter",
          "type": "uint256"
        }
      ],
      "name": "CommitteeMemberExpelled",
      "type": "event"
    },
    {
      "anonymous": false,
      "inputs": [
        {
          "indexed": true,
          "internalType": "uint256",
          "name": "e3Id",
          "type": "uint256"
        },
        {
          "indexed": false,
          "internalType": "address[]",
          "name": "nodes",
          "type": "address[]"
        },
        {
          "indexed": false,
          "internalType": "bytes",
          "name": "publicKey",
          "type": "bytes"
        }
      ],
      "name": "CommitteePublished",
      "type": "event"
    },
    {
      "anonymous": false,
      "inputs": [
        {
          "indexed": true,
          "internalType": "uint256",
          "name": "e3Id",
          "type": "uint256"
        },
        {
          "indexed": false,
          "internalType": "uint256",
          "name": "seed",
          "type": "uint256"
        },
        {
          "indexed": false,
          "internalType": "uint32[2]",
          "name": "threshold",
          "type": "uint32[2]"
        },
        {
          "indexed": false,
          "internalType": "uint256",
          "name": "requestBlock",
          "type": "uint256"
        },
        {
          "indexed": false,
          "internalType": "uint256",
          "name": "committeeDeadline",
          "type": "uint256"
        }
      ],
      "name": "CommitteeRequested",
      "type": "event"
    },
    {
      "anonymous": false,
      "inputs": [
        {
          "indexed": true,
          "internalType": "uint256",
          "name": "e3Id",
          "type": "uint256"
        },
        {
          "indexed": false,
          "internalType": "uint256",
          "name": "activeCount",
          "type": "uint256"
        },
        {
          "indexed": false,
          "internalType": "uint256",
          "name": "thresholdM",
          "type": "uint256"
        },
        {
          "indexed": false,
          "internalType": "bool",
          "name": "viable",
          "type": "bool"
        }
      ],
      "name": "CommitteeViabilityUpdated",
      "type": "event"
    },
    {
      "anonymous": false,
      "inputs": [
        {
          "indexed": true,
          "internalType": "address",
          "name": "enclave",
          "type": "address"
        }
      ],
      "name": "EnclaveSet",
      "type": "event"
    },
    {
      "anonymous": false,
      "inputs": [
        {
          "indexed": false,
          "internalType": "uint64",
          "name": "version",
          "type": "uint64"
        }
      ],
      "name": "Initialized",
      "type": "event"
    },
    {
      "anonymous": false,
      "inputs": [
        {
          "indexed": true,
          "internalType": "address",
          "name": "previousOwner",
          "type": "address"
        },
        {
          "indexed": true,
          "internalType": "address",
          "name": "newOwner",
          "type": "address"
        }
      ],
      "name": "OwnershipTransferred",
      "type": "event"
    },
    {
      "anonymous": false,
      "inputs": [
        {
          "indexed": false,
          "internalType": "uint256",
          "name": "sortitionSubmissionWindow",
          "type": "uint256"
        }
      ],
      "name": "SortitionSubmissionWindowSet",
      "type": "event"
    },
    {
      "anonymous": false,
      "inputs": [
        {
          "indexed": true,
          "internalType": "uint256",
          "name": "e3Id",
          "type": "uint256"
        },
        {
          "indexed": true,
          "internalType": "address",
          "name": "node",
          "type": "address"
        },
        {
          "indexed": false,
          "internalType": "uint256",
          "name": "ticketId",
          "type": "uint256"
        },
        {
          "indexed": false,
          "internalType": "uint256",
          "name": "score",
          "type": "uint256"
        }
      ],
      "name": "TicketSubmitted",
      "type": "event"
    },
    {
      "inputs": [],
      "name": "TREE_DEPTH",
      "outputs": [
        {
          "internalType": "uint8",
          "name": "",
          "type": "uint8"
        }
      ],
      "stateMutability": "view",
      "type": "function"
    },
    {
      "inputs": [
        {
          "internalType": "address",
          "name": "node",
          "type": "address"
        }
      ],
      "name": "addCiphernode",
      "outputs": [],
      "stateMutability": "nonpayable",
      "type": "function"
    },
    {
      "inputs": [],
      "name": "bondingRegistry",
      "outputs": [
        {
          "internalType": "contract IBondingRegistry",
          "name": "",
          "type": "address"
        }
      ],
      "stateMutability": "view",
      "type": "function"
    },
    {
      "inputs": [
        {
          "internalType": "address",
          "name": "node",
          "type": "address"
        }
      ],
      "name": "ciphernodeEnabled",
      "outputs": [
        {
          "internalType": "bool",
          "name": "enabled",
          "type": "bool"
        }
      ],
      "stateMutability": "view",
      "type": "function"
    },
    {
      "inputs": [
        {
          "internalType": "address",
          "name": "node",
          "type": "address"
        }
      ],
      "name": "ciphernodeTreeIndex",
      "outputs": [
        {
          "internalType": "uint40",
          "name": "index",
          "type": "uint40"
        }
      ],
      "stateMutability": "view",
      "type": "function"
    },
    {
      "inputs": [],
      "name": "ciphernodes",
      "outputs": [
        {
          "internalType": "uint40",
          "name": "maxIndex",
          "type": "uint40"
        },
        {
          "internalType": "uint40",
          "name": "numberOfLeaves",
          "type": "uint40"
        }
      ],
      "stateMutability": "view",
      "type": "function"
    },
    {
      "inputs": [
        {
          "internalType": "uint256",
          "name": "e3Id",
          "type": "uint256"
        }
      ],
      "name": "committeePublicKey",
      "outputs": [
        {
          "internalType": "bytes32",
          "name": "publicKeyHash",
          "type": "bytes32"
        }
      ],
      "stateMutability": "view",
      "type": "function"
    },
    {
      "inputs": [],
      "name": "enclave",
      "outputs": [
        {
          "internalType": "contract IEnclave",
          "name": "",
          "type": "address"
        }
      ],
      "stateMutability": "view",
      "type": "function"
    },
    {
      "inputs": [
        {
          "internalType": "uint256",
          "name": "e3Id",
          "type": "uint256"
        },
        {
          "internalType": "address",
          "name": "node",
          "type": "address"
        },
        {
          "internalType": "bytes32",
          "name": "reason",
          "type": "bytes32"
        }
      ],
      "name": "expelCommitteeMember",
      "outputs": [
        {
          "internalType": "uint256",
          "name": "activeCount",
          "type": "uint256"
        },
        {
          "internalType": "uint32",
          "name": "thresholdM",
          "type": "uint32"
        }
      ],
      "stateMutability": "nonpayable",
      "type": "function"
    },
    {
      "inputs": [
        {
          "internalType": "uint256",
          "name": "e3Id",
          "type": "uint256"
        }
      ],
      "name": "finalizeCommittee",
      "outputs": [
        {
          "internalType": "bool",
          "name": "success",
          "type": "bool"
        }
      ],
      "stateMutability": "nonpayable",
      "type": "function"
    },
    {
      "inputs": [
        {
          "internalType": "uint256",
          "name": "e3Id",
          "type": "uint256"
        }
      ],
      "name": "getActiveCommitteeNodes",
      "outputs": [
        {
          "internalType": "address[]",
          "name": "",
          "type": "address[]"
        }
      ],
      "stateMutability": "view",
      "type": "function"
    },
    {
      "inputs": [],
      "name": "getBondingRegistry",
      "outputs": [
        {
          "internalType": "address",
          "name": "",
          "type": "address"
        }
      ],
      "stateMutability": "view",
      "type": "function"
    },
    {
      "inputs": [
        {
          "internalType": "uint256",
          "name": "e3Id",
          "type": "uint256"
        }
      ],
      "name": "getCommitteeDeadline",
      "outputs": [
        {
          "internalType": "uint256",
          "name": "",
          "type": "uint256"
        }
      ],
      "stateMutability": "view",
      "type": "function"
    },
    {
      "inputs": [
        {
          "internalType": "uint256",
          "name": "e3Id",
          "type": "uint256"
        }
      ],
      "name": "getCommitteeNodes",
      "outputs": [
        {
          "internalType": "address[]",
          "name": "nodes",
          "type": "address[]"
        }
      ],
      "stateMutability": "view",
      "type": "function"
    },
    {
      "inputs": [
        {
          "internalType": "uint256",
          "name": "e3Id",
          "type": "uint256"
        }
      ],
      "name": "getCommitteeViability",
      "outputs": [
        {
          "internalType": "uint256",
          "name": "activeCount",
          "type": "uint256"
        },
        {
          "internalType": "uint32",
          "name": "thresholdM",
          "type": "uint32"
        },
        {
          "internalType": "uint32",
          "name": "thresholdN",
          "type": "uint32"
        },
        {
          "internalType": "bool",
          "name": "viable",
          "type": "bool"
        }
      ],
      "stateMutability": "view",
      "type": "function"
    },
    {
      "inputs": [
        {
          "internalType": "address",
          "name": "_owner",
          "type": "address"
        },
        {
          "internalType": "uint256",
          "name": "_submissionWindow",
          "type": "uint256"
        }
      ],
      "name": "initialize",
      "outputs": [],
      "stateMutability": "nonpayable",
      "type": "function"
    },
    {
      "inputs": [
        {
          "internalType": "address",
          "name": "node",
          "type": "address"
        }
      ],
      "name": "isCiphernodeEligible",
      "outputs": [
        {
          "internalType": "bool",
          "name": "",
          "type": "bool"
        }
      ],
      "stateMutability": "view",
      "type": "function"
    },
    {
      "inputs": [
        {
          "internalType": "uint256",
          "name": "e3Id",
          "type": "uint256"
        },
        {
          "internalType": "address",
          "name": "node",
          "type": "address"
        }
      ],
      "name": "isCommitteeMember",
      "outputs": [
        {
          "internalType": "bool",
          "name": "",
          "type": "bool"
        }
      ],
      "stateMutability": "view",
      "type": "function"
    },
    {
      "inputs": [
        {
          "internalType": "uint256",
          "name": "e3Id",
          "type": "uint256"
        },
        {
          "internalType": "address",
          "name": "node",
          "type": "address"
        }
      ],
      "name": "isCommitteeMemberActive",
      "outputs": [
        {
          "internalType": "bool",
          "name": "",
          "type": "bool"
        }
      ],
      "stateMutability": "view",
      "type": "function"
    },
    {
      "inputs": [
        {
          "internalType": "address",
          "name": "node",
          "type": "address"
        }
      ],
      "name": "isEnabled",
      "outputs": [
        {
          "internalType": "bool",
          "name": "",
          "type": "bool"
        }
      ],
      "stateMutability": "view",
      "type": "function"
    },
    {
      "inputs": [
        {
          "internalType": "uint256",
          "name": "e3Id",
          "type": "uint256"
        }
      ],
      "name": "isOpen",
      "outputs": [
        {
          "internalType": "bool",
          "name": "",
          "type": "bool"
        }
      ],
      "stateMutability": "view",
      "type": "function"
    },
    {
      "inputs": [],
      "name": "numCiphernodes",
      "outputs": [
        {
          "internalType": "uint256",
          "name": "",
          "type": "uint256"
        }
      ],
      "stateMutability": "view",
      "type": "function"
    },
    {
      "inputs": [],
      "name": "owner",
      "outputs": [
        {
          "internalType": "address",
          "name": "",
          "type": "address"
        }
      ],
      "stateMutability": "view",
      "type": "function"
    },
    {
      "inputs": [
        {
          "internalType": "uint256",
          "name": "e3Id",
          "type": "uint256"
        }
      ],
      "name": "publicKeyHashes",
      "outputs": [
        {
          "internalType": "bytes32",
          "name": "publicKeyHash",
          "type": "bytes32"
        }
      ],
      "stateMutability": "view",
      "type": "function"
    },
    {
      "inputs": [
        {
          "internalType": "uint256",
          "name": "e3Id",
          "type": "uint256"
        },
        {
          "internalType": "address[]",
          "name": "nodes",
          "type": "address[]"
        },
        {
          "internalType": "bytes",
          "name": "publicKey",
          "type": "bytes"
        },
        {
          "internalType": "bytes",
          "name": "proof",
          "type": "bytes"
        }
      ],
      "name": "publishCommittee",
      "outputs": [],
      "stateMutability": "nonpayable",
      "type": "function"
    },
    {
      "inputs": [
        {
          "internalType": "address",
          "name": "node",
          "type": "address"
        }
      ],
      "name": "removeCiphernode",
      "outputs": [],
      "stateMutability": "nonpayable",
      "type": "function"
    },
    {
      "inputs": [],
      "name": "renounceOwnership",
      "outputs": [],
      "stateMutability": "nonpayable",
      "type": "function"
    },
    {
      "inputs": [
        {
          "internalType": "uint256",
          "name": "e3Id",
          "type": "uint256"
        },
        {
          "internalType": "uint256",
          "name": "seed",
          "type": "uint256"
        },
        {
          "internalType": "uint32[2]",
          "name": "threshold",
          "type": "uint32[2]"
        }
      ],
      "name": "requestCommittee",
      "outputs": [
        {
          "internalType": "bool",
          "name": "success",
          "type": "bool"
        }
      ],
      "stateMutability": "nonpayable",
      "type": "function"
    },
    {
      "inputs": [],
      "name": "root",
      "outputs": [
        {
          "internalType": "uint256",
          "name": "",
          "type": "uint256"
        }
      ],
      "stateMutability": "view",
      "type": "function"
    },
    {
      "inputs": [
        {
          "internalType": "uint256",
          "name": "e3Id",
          "type": "uint256"
        }
      ],
      "name": "rootAt",
      "outputs": [
        {
          "internalType": "uint256",
          "name": "",
          "type": "uint256"
        }
      ],
      "stateMutability": "view",
      "type": "function"
    },
    {
      "inputs": [
        {
          "internalType": "uint256",
          "name": "e3Id",
          "type": "uint256"
        }
      ],
      "name": "roots",
      "outputs": [
        {
          "internalType": "uint256",
          "name": "root",
          "type": "uint256"
        }
      ],
      "stateMutability": "view",
      "type": "function"
    },
    {
      "inputs": [
        {
          "internalType": "contract IBondingRegistry",
          "name": "_bondingRegistry",
          "type": "address"
        }
      ],
      "name": "setBondingRegistry",
      "outputs": [],
      "stateMutability": "nonpayable",
      "type": "function"
    },
    {
      "inputs": [
        {
          "internalType": "contract IEnclave",
          "name": "_enclave",
          "type": "address"
        }
      ],
      "name": "setEnclave",
      "outputs": [],
      "stateMutability": "nonpayable",
      "type": "function"
    },
    {
      "inputs": [
        {
          "internalType": "contract ISlashingManager",
          "name": "_slashingManager",
          "type": "address"
        }
      ],
      "name": "setSlashingManager",
      "outputs": [],
      "stateMutability": "nonpayable",
      "type": "function"
    },
    {
      "inputs": [
        {
          "internalType": "uint256",
          "name": "_sortitionSubmissionWindow",
          "type": "uint256"
        }
      ],
      "name": "setSortitionSubmissionWindow",
      "outputs": [],
      "stateMutability": "nonpayable",
      "type": "function"
    },
    {
      "inputs": [],
      "name": "slashingManager",
      "outputs": [
        {
          "internalType": "contract ISlashingManager",
          "name": "",
          "type": "address"
        }
      ],
      "stateMutability": "view",
      "type": "function"
    },
    {
      "inputs": [],
      "name": "sortitionSubmissionWindow",
      "outputs": [
        {
          "internalType": "uint256",
          "name": "",
          "type": "uint256"
        }
      ],
      "stateMutability": "view",
      "type": "function"
    },
    {
      "inputs": [
        {
          "internalType": "uint256",
          "name": "e3Id",
          "type": "uint256"
        },
        {
          "internalType": "uint256",
          "name": "ticketNumber",
          "type": "uint256"
        }
      ],
      "name": "submitTicket",
      "outputs": [],
      "stateMutability": "nonpayable",
      "type": "function"
    },
    {
      "inputs": [
        {
          "internalType": "address",
          "name": "newOwner",
          "type": "address"
        }
      ],
      "name": "transferOwnership",
      "outputs": [],
      "stateMutability": "nonpayable",
      "type": "function"
    },
    {
      "inputs": [],
      "name": "treeSize",
      "outputs": [
        {
          "internalType": "uint256",
          "name": "",
          "type": "uint256"
        }
      ],
      "stateMutability": "view",
      "type": "function"
    }
  ],
  "bytecode": "0x6080604052348015600e575f5ffd5b5060156019565b60c9565b7ff0c57e16840df040f15088dc2f81fe391c3923bec73e23a9662efc9c229c6a00805468010000000000000000900460ff161560685760405163f92ee8a960e01b815260040160405180910390fd5b80546001600160401b039081161460c65780546001600160401b0319166001600160401b0390811782556040519081527fc7f505b2f371ae2175ee4913f4499e1f2633a7b5936321eed1cdaeb6115181d29060200160405180910390a15b50565b613cbe806100d65f395ff3fe608060405234801561000f575f5ffd5b506004361061023f575f3560e01c80639a7a2ffc11610135578063dbb06c93116100b4578063f165053611610079578063f16505361461056a578063f2fde38b14610584578063f379b0df14610597578063f52fd803146105d1578063f6fc05d514610643575f5ffd5b8063dbb06c9314610517578063e59e469514610529578063e6745e131461053c578063e82f3b701461054f578063ebf0c71714610562575f5ffd5b8063c2b40ae4116100fa578063c2b40ae4146104a2578063c3a0ec30146104c1578063ca2869a0146104d2578063cd6dc687146104f1578063da881e5a14610504575f5ffd5b80639a7a2ffc146104245780639f0f874a14610460578063a016493014610469578063a8a4d69b1461047c578063bff232c11461048f575f5ffd5b806370e36bbe116101c15780638cb89ecb116101865780638cb89ecb146103c15780638d1ddfb1146103e05780638da5cb5b146103f65780638e5ce3ad146103fe5780639015d37114610411575f5ffd5b806370e36bbe14610346578063715018a6146103595780637c92f52414610361578063858142431461038e5780638a78bb15146103ae575f5ffd5b80632e7b716d116102075780632e7b716d146102d85780634d6861a6146102eb57806350e6d94c146102fe5780635d504776146103205780635e1d33bd14610333575f5ffd5b8063096b810a146102435780630f3e34121461025857806317d611201461026b5780632800d82914610294578063291a691b146102b5575b5f5ffd5b61025661025136600461317b565b61064c565b005b610256610266366004613196565b610798565b61027e610279366004613196565b6107db565b60405161028b91906131ad565b60405180910390f35b6102a76102a2366004613196565b61091d565b60405190815260200161028b565b6102c86102c33660046131f8565b610969565b604051901515815260200161028b565b6102c86102e636600461317b565b610b43565b6102c86102f9366004613196565b610bf6565b6102c861030c36600461317b565b60066020525f908152604090205460ff1681565b6102c861032e366004613231565b610c35565b6102566103413660046132a3565b610c79565b61025661035436600461317b565b610f59565b610256610fcf565b61037461036f366004613379565b610fe2565b6040805192835263ffffffff90911660208301520161028b565b6001546103a1906001600160a01b031681565b60405161028b91906133ae565b6102566103bc36600461317b565b611189565b6102a76103cf366004613196565b60096020525f908152604090205481565b600454600160281b900464ffffffffff166102a7565b6103a16112c7565b600b546103a1906001600160a01b031681565b6102c861041f36600461317b565b6112f5565b61044a61043236600461317b565b60076020525f908152604090205464ffffffffff1681565b60405164ffffffffff909116815260200161028b565b6102a760035481565b61027e610477366004613196565b611312565b6102c861048a366004613231565b6113a8565b61025661049d36600461317b565b6113ec565b6102a76104b0366004613196565b60086020525f908152604090205481565b6001546001600160a01b03166103a1565b6102a76104e0366004613196565b5f9081526008602052604090205490565b6102566104ff3660046133c2565b61143d565b6102c8610512366004613196565b61159a565b5f546103a1906001600160a01b031681565b61025661053736600461317b565b6117cd565b61025661054a3660046133ec565b611845565b6102a761055d366004613196565b611a08565b6102a7611a39565b610572601481565b60405160ff909116815260200161028b565b61025661059236600461317b565b611a4b565b6004546105b39064ffffffffff80821691600160281b90041682565b6040805164ffffffffff93841681529290911660208301520161028b565b6106146105df366004613196565b5f908152600a6020819052604090912090810154600590910154909163ffffffff80831692600160201b900416908284101590565b60405161028b949392919093845263ffffffff9283166020850152911660408301521515606082015260800190565b6102a760025481565b6106546112c7565b6001600160a01b0316336001600160a01b0316148061067d57506001546001600160a01b031633145b61069a57604051632864c4e160e01b815260040160405180910390fd5b6106a3816112f5565b81906106cc576040516381e5828960e01b81526004016106c391906133ae565b60405180910390fd5b506001600160a01b0381165f9081526007602052604081205464ffffffffff16906106fa9060049083611a85565b6001600160a01b0382165f908152600660205260408120805460ff19169055600280549161072783613420565b90915550506002546004546040805164ffffffffff80861682526020820194909452600160281b909204909216918101919091526001600160a01b038316907f8c008e3835f6c79bfcdb89f0f6ca8705e0b01049ee84a90b0e4da1c7ba9405d5906060015b60405180910390a25050565b6107a0611d27565b60038190556040518181527fbe772dc189863d512fa01e489c8eac204975aef1a8662d8b5a333804b5207ab79060200160405180910390a150565b5f818152600a602081905260408220600681015491810154606093919291816001600160401b0381111561081157610811613435565b60405190808252806020026020018201604052801561083a578160200160208202803683370190505b5090505f805b84811015610911576001866009015f8860060184815481106108645761086461345d565b5f9182526020808320909101546001600160a01b0316835282019290925260400190205460ff16600281111561089c5761089c613449565b03610909578560060181815481106108b6576108b661345d565b905f5260205f20015f9054906101000a90046001600160a01b03168383815181106108e3576108e361345d565b6001600160a01b03909216602092830291909101909101528161090581613471565b9250505b600101610840565b50909695505050505050565b5f818152600a6020526040812081815460ff16600381111561094157610941613449565b0361095f57604051630d4c1d9760e41b815260040160405180910390fd5b6003015492915050565b5f80546001600160a01b031633146109945760405163e4c2a7eb60e01b815260040160405180910390fd5b5f848152600a6020526040812090815460ff1660038111156109b8576109b8613449565b146109d6576040516374ff462560e11b815260040160405180910390fd5b60015460408051630cc37d8f60e11b815290515f926001600160a01b031691631986fb1e9160048083019260209291908290030181865afa158015610a1d573d5f5f3e3d5ffd5b505050506040513d601f19601f82011682018060405250810190610a419190613489565b905080610a5460408601602087016134b3565b63ffffffff161115610a6c60408601602087016134b3565b829091610a9a576040516344ec930f60e01b815263ffffffff909216600483015260248201526044016106c3565b5050815460ff1916600190811783558201859055436002830155600354610ac190426134cc565b6003830155610ad5600583018560026130b2565b50610ade611a39565b5f87815260086020526040908190209190915560028301546003840154915188927f381d281d32f95ef8fe4e5f3b263ea6a32d03d331e1a141ae1da996dc02a7a17092610b2f928a928a92916134df565b60405180910390a250600195945050505050565b5f610b4d826112f5565b610b5857505f919050565b6001546001600160a01b0316610b81576040516350ca893360e01b815260040160405180910390fd5b600154604051639f8a13d760e01b81526001600160a01b0390911690639f8a13d790610bb19085906004016133ae565b602060405180830381865afa158015610bcc573d5f5f3e3d5ffd5b505050506040513d601f19601f82011682018060405250810190610bf0919061353e565b92915050565b5f818152600a602052604081206001815460ff166003811115610c1b57610c1b613449565b14610c2857505f92915050565b6003015442111592915050565b5f60015f848152600a602090815260408083206001600160a01b038716845260090190915290205460ff166002811115610c7157610c71613449565b149392505050565b610c81611d27565b5f878152600a602052604090206002815460ff166003811115610ca657610ca6613449565b14610cc457604051634f4b461f60e11b815260040160405180910390fd5b600481015415610ce75760405163632a22bb60e01b815260040160405180910390fd5b60068101548614610d305760405162461bcd60e51b815260206004820152601360248201527209cdec8ca40c6deeadce840dad2e6dac2e8c6d606b1b60448201526064016106c3565b5f610d3d83850185613655565b9150505f815111610d875760405162461bcd60e51b815260206004820152601460248201527343353a206e6f207075626c696320696e7075747360601b60448201526064016106c3565b5f8160018351610d9791906136f8565b81518110610da757610da761345d565b60209081029190910101515f805460405163101bb4d760e21b8152600481018e905292935090916001600160a01b039091169063406ed35c906024015f60405180830381865afa158015610dfd573d5f5f3e3d5ffd5b505050506040513d5f823e601f3d908101601f19168201604052610e2491908101906137dd565b61012081015160405163473b057f60e11b81529192506001600160a01b031690638e760afe90610e5a908990899060040161397c565b602060405180830381865afa158015610e75573d5f5f3e3d5ffd5b505050506040513d601f19601f82011682018060405250810190610e999190613489565b5060048481018390555f8c815260096020526040808220859055905490516340a3b76160e11b81529182018d9052602482018490526001600160a01b0316906381476ec2906044015f604051808303815f87803b158015610ef8575f5ffd5b505af1158015610f0a573d5f5f3e3d5ffd5b505050508a7ff7472ea3a028fe8a86ab1c9a3e2176b284c8c3a22675c101e0fa21c140b6678d8b8b8b8b604051610f44949392919061398f565b60405180910390a25050505050505050505050565b610f61611d27565b6001600160a01b038116610f885760405163d92e233d60e01b815260040160405180910390fd5b5f80546001600160a01b0319166001600160a01b038316908117825560405190917f2c8267accd82e977550ed2349c73311183cd22e306347be4453c8d130995e3c991a250565b610fd7611d27565b610fe05f611d59565b565b600b545f9081906001600160a01b031633146110115760405163fcef374960e01b815260040160405180910390fd5b5f858152600a602052604090206002815460ff16600381111561103657611036613449565b1461105457604051634f4b461f60e11b815260040160405180910390fd5b60058101546001600160a01b0386165f90815260098301602052604090205463ffffffff909116925060019060ff16600281111561109457611094613449565b146110a457600a01549150611181565b6001600160a01b0385165f9081526009820160205260408120805460ff19166002179055600a82018054916110d883613420565b919050555080600a01549250846001600160a01b0316867f6c783b92374361b4d6efaf29673b89437ee969bb3c9d2d5d86b143ad5447b8498686604051611129929190918252602082015260400190565b60405180910390a36040805184815263ffffffff84166020820181905285101591810182905287907f119cb11dd0a68c257d6dc9b06dcb37dd422ce276eb8bf3cd0b7079a116b8e2989060600160405180910390a250505b935093915050565b6111916112c7565b6001600160a01b0316336001600160a01b031614806111ba57506001546001600160a01b031633145b6111d757604051632864c4e160e01b815260040160405180910390fd5b6111e0816112f5565b6112c45760048054600160281b900464ffffffffff169061120a906001600160a01b038416611dc9565b6001600160a01b0382165f908152600660209081526040808320805460ff1916600117905560079091528120805464ffffffffff841664ffffffffff19909116179055600280549161125b83613471565b90915550506002546004546040805164ffffffffff80861682526020820194909452600160281b909204909216918101919091526001600160a01b038316907f3318d261fe14a5761d2d1e21555652f623d2134c430a9883c9ad6e958bb0db539060600161078c565b50565b7f9016d09d72d40fdae2fd8ceac6b6234c7706214fd39c1cd1e609a0528c199300546001600160a01b031690565b6001600160a01b03165f9081526006602052604090205460ff1690565b5f818152600a60205260409020600481015460609190611345576040516322e679e360e11b815260040160405180910390fd5b8060060180548060200260200160405190810160405280929190818152602001828054801561139b57602002820191905f5260205f20905b81546001600160a01b0316815260019091019060200180831161137d575b5050505050915050919050565b5f805f848152600a602090815260408083206001600160a01b038716845260090190915290205460ff1660028111156113e3576113e3613449565b14159392505050565b6113f4611d27565b6001600160a01b03811661141b5760405163d92e233d60e01b815260040160405180910390fd5b600b80546001600160a01b0319166001600160a01b0392909216919091179055565b5f611446611f9f565b805490915060ff600160401b82041615906001600160401b03165f8115801561146c5750825b90505f826001600160401b031660011480156114875750303b155b905081158015611495575080155b156114b35760405163f92ee8a960e01b815260040160405180910390fd5b845467ffffffffffffffff1916600117855583156114dd57845460ff60401b1916600160401b1785555b6001600160a01b0387166115045760405163d92e233d60e01b815260040160405180910390fd5b61150d33611fc7565b61151960046014611fd8565b61152286610798565b61152a6112c7565b6001600160a01b0316876001600160a01b03161461154b5761154b87611a4b565b831561159157845460ff60401b19168555604051600181527fc7f505b2f371ae2175ee4913f4499e1f2633a7b5936321eed1cdaeb6115181d29060200160405180910390a15b50505050505050565b5f818152600a6020526040812081815460ff1660038111156115be576115be613449565b036115dc57604051630d4c1d9760e41b815260040160405180910390fd5b6001815460ff1660038111156115f4576115f4613449565b1461161257604051631860f69960e31b815260040160405180910390fd5b8060030154421161163657604051632f021e8d60e11b815260040160405180910390fd5b60058101546006820154600160201b90910463ffffffff1611158061171b578154600360ff199091161782556006820154600583015460408051928352600160201b90910463ffffffff16602083015285917fecc4a9fb7e28d074cba7f5b227e9b5827823c850a385539b9a2f98a08f8c203d910160405180910390a25f54604051635d968dc160e11b815260048101869052600260248201526001600160a01b039091169063bb2d1b82906044015f604051808303815f87803b1580156116fc575f5ffd5b505af115801561170e573d5f5f3e3d5ffd5b505f979650505050505050565b815460ff191660021782556006820154600a8301555f54604051631f3ea75d60e21b8152600481018690526001600160a01b0390911690637cfa9d74906024015f604051808303815f87803b158015611772575f5ffd5b505af1158015611784573d5f5f3e3d5ffd5b50505050837fed38c6266ebed7c01d311349a7fa67e0ef0f1d2f4760d60dbb34ca4799a2e132836006016040516117bb91906139f1565b60405180910390a25060019392505050565b6117d5611d27565b6001600160a01b0381166117fc5760405163d92e233d60e01b815260040160405180910390fd5b600180546001600160a01b0319166001600160a01b0383169081179091556040517fad4055f18cdad6f4bdd71afe3a72cbeee964217943e1bde38f138289e981a9a7905f90a250565b5f828152600a6020526040812090815460ff16600381111561186957611869613449565b0361188757604051630d4c1d9760e41b815260040160405180910390fd5b6001815460ff16600381111561189f5761189f613449565b146118bd57604051631860f69960e31b815260040160405180910390fd5b80600301544211156118e257604051639a19114d60e01b815260040160405180910390fd5b335f90815260078201602052604090205460ff16156119145760405163257309f160e11b815260040160405180910390fd5b61191d33610b43565b61193a5760405163149fbcfd60e11b815260040160405180910390fd5b611945338385612057565b6001810154604080516bffffffffffffffffffffffff193360601b16602080830191909152603482018690526054820187905260748083019490945282518083039094018452609490910190915281519101205f90335f8181526007850160205260409020805460ff191660011790559091506119c490839083612228565b506040805184815260208101839052339186917f52999628fb1cb05707e842278833b22e511f11746202cecdf221968b0b89e8bd910160405180910390a350505050565b5f8181526009602052604090205480611a34576040516322e679e360e11b815260040160405180910390fd5b919050565b5f611a4660046014612429565b905090565b611a53611d27565b6001600160a01b038116611a7c575f604051631e4fbdf760e01b81526004016106c391906133ae565b6112c481611d59565b7f30644e72e131a029b85045b68181585d2833e84879b9709143e1f593f00000018210611ac45760405162461bcd60e51b81526004016106c390613a34565b825464ffffffffff600160281b90910481169082168111611b225760405162461bcd60e51b815260206004820152601860248201527713185e9e5253550e881b195859881b5d5cdd08195e1a5cdd60421b60448201526064016106c3565b825f5b81866001015f611b358488612522565b64ffffffffff1681526020019081526020015f20819055505f816001611b5b9190613a7e565b60ff168464ffffffffff16901c64ffffffffff16905060018564ffffffffff16901c64ffffffffff168111611b905750611d1f565b600185165f03611c57575f611baf83611baa886001613a97565b612522565b60408051808201825286815264ffffffffff83165f90815260018c0160209081529083902054908201529051632b0aac7f60e11b815291925073__$078c82ddf6c95d34ea184ef1dd6130d136$__9163561558fe91611c1091600401613ab4565b602060405180830381865af4158015611c2b573d5f5f3e3d5ffd5b505050506040513d601f19601f82011682018060405250810190611c4f9190613489565b935050611d0b565b5f611c6783611baa600189613ae4565b60408051808201825264ffffffffff83165f90815260018c0160209081529083902054825281018790529051632b0aac7f60e11b815291925073__$078c82ddf6c95d34ea184ef1dd6130d136$__9163561558fe91611cc891600401613ab4565b602060405180830381865af4158015611ce3573d5f5f3e3d5ffd5b505050506040513d601f19601f82011682018060405250810190611d079190613489565b9350505b50647fffffffff600194851c169301611b25565b505050505050565b33611d306112c7565b6001600160a01b031614610fe0573360405163118cdaa760e01b81526004016106c391906133ae565b7f9016d09d72d40fdae2fd8ceac6b6234c7706214fd39c1cd1e609a0528c19930080546001600160a01b031981166001600160a01b03848116918217845560405192169182907f8be0079c531659141344cd1fd0a4f28419497f9722a3daafe3b4186f6b6457e0905f90a3505050565b8154600160281b900464ffffffffff167f30644e72e131a029b85045b68181585d2833e84879b9709143e1f593f00000018210611e185760405162461bcd60e51b81526004016106c390613a34565b825464ffffffffff90811690821610611e6b5760405162461bcd60e51b815260206004820152601560248201527413185e9e5253550e881d1c9959481a5cc8199d5b1b605a1b60448201526064016106c3565b611e76816001613a97565b835464ffffffffff91909116600160281b0269ffffffffff000000000019909116178355815f5b81856001015f611ead8487612522565b64ffffffffff16815260208101919091526040015f20556001831615611f98575f611edd82611baa600187613ae4565b60408051808201825264ffffffffff83165f90815260018a0160209081529083902054825281018690529051632b0aac7f60e11b815291925073__$078c82ddf6c95d34ea184ef1dd6130d136$__9163561558fe91611f3e91600401613ab4565b602060405180830381865af4158015611f59573d5f5f3e3d5ffd5b505050506040513d601f19601f82011682018060405250810190611f7d9190613489565b647fffffffff600195861c1694909350919091019050611e9d565b5050505050565b5f807ff0c57e16840df040f15088dc2f81fe391c3923bec73e23a9662efc9c229c6a00610bf0565b611fcf61253f565b6112c481612564565b602060ff821611156120265760405162461bcd60e51b81526020600482015260176024820152764c617a79494d543a205472656520746f6f206c6172676560481b60448201526064016106c3565b612037600160ff831681901b6136f8565b825469ffffffffffffffffffff191664ffffffffff919091161790915550565b5f82116120775760405163aeaddff160e01b815260040160405180910390fd5b6001546001600160a01b03166120a0576040516350ca893360e01b815260040160405180910390fd5b5f818152600a602052604081206001805460028301549293926001600160a01b039091169163bb03bd719188916120d6916136f8565b6040516001600160e01b031960e085901b1681526001600160a01b0390921660048301526024820152604401602060405180830381865afa15801561211d573d5f5f3e3d5ffd5b505050506040513d601f19601f820116820180604052508101906121419190613489565b90505f60015f9054906101000a90046001600160a01b03166001600160a01b0316631209b1f66040518163ffffffff1660e01b8152600401602060405180830381865afa158015612194573d5f5f3e3d5ffd5b505050506040513d601f19601f820116820180604052508101906121b89190613489565b90505f81116121da5760405163aeaddff160e01b815260040160405180910390fd5b5f6121e58284613b01565b90505f81116122075760405163149fbcfd60e11b815260040160405180910390fd5b808611156115915760405163aeaddff160e01b815260040160405180910390fd5b60058301546006840180545f92600160201b900463ffffffff16908111156122a657508054600180820183555f928352602080842090920180546001600160a01b0319166001600160a01b03881690811790915583526008870182526040808420869055600988019092529120805460ff1916821790559050612422565b5f5f90505f876008015f855f815481106122c2576122c261345d565b5f9182526020808320909101546001600160a01b03168352820192909252604001902054905060015b845481101561234a575f896008015f87848154811061230c5761230c61345d565b5f9182526020808320909101546001600160a01b03168352820192909252604001902054905082811115612341578092508193505b506001016122eb565b5080861061235e575f945050505050612422565b5f886009015f8685815481106123765761237661345d565b5f9182526020808320909101546001600160a01b031683528201929092526040019020805460ff191660018360028111156123b3576123b3613449565b0217905550868483815481106123cb576123cb61345d565b5f91825260208083209190910180546001600160a01b0319166001600160a01b03948516179055918916815260088a018252604080822089905560098b0190925220805460ff191660019081179091559450505050505b9392505050565b5f5f8260ff161161247c5760405162461bcd60e51b815260206004820152601a60248201527f4c617a79494d543a206465707468206d757374206265203e203000000000000060448201526064016106c3565b602060ff831611156124a05760405162461bcd60e51b81526004016106c390613b20565b8254600160281b900464ffffffffff16806124bf60ff85166002613c71565b64ffffffffff16101561250f5760405162461bcd60e51b8152602060048201526018602482015277098c2f4f2929aa87440c2dac4d2ceeadeeae640c8cae0e8d60431b60448201526064016106c3565b61251a84828561256c565b949350505050565b5f8161253560ff851663ffffffff613c8a565b6124229190613a97565b612547612634565b610fe057604051631afcd79f60e31b815260040160405180910390fd5b611a5361253f565b5f602060ff831611156125915760405162461bcd60e51b81526004016106c390613b20565b8264ffffffffff165f036125af576125a88261264d565b9050612422565b5f6125bb836001613a7e565b60ff166001600160401b038111156125d5576125d5613435565b6040519080825280602002602001820160405280156125fe578160200160208202803683370190505b50905061260d85858584612ce7565b808360ff16815181106126225761262261345d565b60200260200101519150509392505050565b5f61263d611f9f565b54600160401b900460ff16919050565b5f8160ff165f0361265f57505f919050565b8160ff1660010361269157507f2098f5fb9e239eab3ceac3f27b81e481dc3124d55ffed523a839ee8446b64864919050565b8160ff166002036126c357507f1069673dcdb12263df301a6ff584a7ec261a44cb9dc68df067a4774460b1f1e1919050565b8160ff166003036126f557507f18f43331537ee2af2e3d758d50f72106467c6eea50371dd528d57eb2b856d238919050565b8160ff1660040361272757507f07f9d837cb17b0d36320ffe93ba52345f1b728571a568265caac97559dbc952a919050565b8160ff1660050361275957507f2b94cf5e8746b3f5c9631f4c5df32907a699c58c94b2ad4d7b5cec1639183f55919050565b8160ff1660060361278b57507f2dee93c5a666459646ea7d22cca9e1bcfed71e6951b953611d11dda32ea09d78919050565b8160ff166007036127bd57507f078295e5a22b84e982cf601eb639597b8b0515a88cb5ac7fa8a4aabe3c87349d919050565b8160ff166008036127ef57507f2fa5e5f18f6027a6501bec864564472a616b2e274a41211a444cbe3a99f3cc61919050565b8160ff1660090361282157507f0e884376d0d8fd21ecb780389e941f66e45e7acce3e228ab3e2156a614fcd747919050565b8160ff16600a0361285357507f1b7201da72494f1e28717ad1a52eb469f95892f957713533de6175e5da190af2919050565b8160ff16600b0361288557507f1f8d8822725e36385200c0b201249819a6e6e1e4650808b5bebc6bface7d7636919050565b8160ff16600c036128b757507f2c5d82f66c914bafb9701589ba8cfcfb6162b0a12acf88a8d0879a0471b5f85a919050565b8160ff16600d036128e957507f14c54148a0940bb820957f5adf3fa1134ef5c4aaa113f4646458f270e0bfbfd0919050565b8160ff16600e0361291b57507f190d33b12f986f961e10c0ee44d8b9af11be25588cad89d416118e4bf4ebe80c919050565b8160ff16600f0361294d57507f22f98aa9ce704152ac17354914ad73ed1167ae6596af510aa5b3649325e06c92919050565b8160ff1660100361297f57507f2a7c7c9b6ce5880b9f6f228d72bf6a575a526f29c66ecceef8b753d38bba7323919050565b8160ff166011036129b157507f2e8186e558698ec1c67af9c14d463ffc470043c9c2988b954d75dd643f36b992919050565b8160ff166012036129e357507f0f57c5571e9a4eab49e2c8cf050dae948aef6ead647392273546249d1c1ff10f919050565b8160ff16601303612a1557507f1830ee67b5fb554ad5f63d4388800e1cfe78e310697d46e43c9ce36134f72cca919050565b8160ff16601403612a4757507f2134e76ac5d21aab186c2be1dd8f84ee880a1e46eaf712f9d371b6df22191f3e919050565b8160ff16601503612a7957507f19df90ec844ebc4ffeebd866f33859b0c051d8c958ee3aa88f8f8df3db91a5b1919050565b8160ff16601603612aab57507f18cca2a66b5c0787981e69aefd84852d74af0e93ef4912b4648c05f722efe52b919050565b8160ff16601703612add57507f2388909415230d1b4d1304d2d54f473a628338f2efad83fadf05644549d2538d919050565b8160ff16601803612b0f57507f27171fb4a97b6cc0e9e8f543b5294de866a2af2c9c8d0b1d96e673e4529ed540919050565b8160ff16601903612b4157507f2ff6650540f629fd5711a0bc74fc0d28dcb230b9392583e5f8d59696dde6ae21919050565b8160ff16601a03612b7357507f120c58f143d491e95902f7f5277778a2e0ad5168f6add75669932630ce611518919050565b8160ff16601b03612ba557507f1f21feb70d3f21b07bf853d5e5db03071ec495a0a565a21da2d665d279483795919050565b8160ff16601c03612bd757507f24be905fa71335e14c638cc0f66a8623a826e768068a9e968bb1a1dde18a72d2919050565b8160ff16601d03612c0957507f0f8666b62ed17491c50ceadead57d4cd597ef3821d65c328744c74e553dac26d919050565b8160ff16601e03612c3b57507f0918d46bf52d98b034413f4a1a1c41594e7a7a3f6ae08cb43d1a2a230e1959ef919050565b8160ff16601f03612c6d57507f1bbeb01b4c479ecde76917645e404dfa2e26f90d0afc5a65128513ad375c5ff2919050565b8160ff16602003612c9f57507f2f68a1c58e257e42a17a6c61dff5551ed560b9922ab119d5ac8e184c9734ead9919050565b60405162461bcd60e51b815260206004820152601e60248201527f4c617a79494d543a2064656661756c745a65726f2062616420696e646578000060448201526064016106c3565b602060ff83161115612d0b5760405162461bcd60e51b81526004016106c390613b20565b5f8364ffffffffff1611612d6f5760405162461bcd60e51b815260206004820152602560248201527f4c617a79494d543a206e756d626572206f66206c6561766573206d7573742062604482015264065203e20360dc1b60648201526084016106c3565b5f612d7b600185613ae4565b9050600181165f03612dce57846001015f612d965f84612522565b64ffffffffff1681526020019081526020015f2054825f81518110612dbd57612dbd61345d565b602002602001018181525050612df6565b612dd75f61264d565b825f81518110612de957612de961345d565b6020026020010181815250505b5f5b8360ff168160ff161015611d1f57600182165f03612eee5773__$078c82ddf6c95d34ea184ef1dd6130d136$__63561558fe6040518060400160405280868560ff1681518110612e4a57612e4a61345d565b60200260200101518152602001612e608561264d565b8152506040518263ffffffff1660e01b8152600401612e7f9190613ab4565b602060405180830381865af4158015612e9a573d5f5f3e3d5ffd5b505050506040513d601f19601f82011682018060405250810190612ebe9190613489565b83612eca836001613a7e565b60ff1681518110612edd57612edd61345d565b60200260200101818152505061309f565b5f612efa826001613a7e565b60ff168664ffffffffff16901c64ffffffffff16905060018364ffffffffff16901c64ffffffffff16811115612f9c575f876001015f612f51856001612f409190613a7e565b60018864ffffffffff16901c612522565b64ffffffffff1681526020019081526020015f205490508085846001612f779190613a7e565b60ff1681518110612f8a57612f8a61345d565b6020026020010181815250505061309d565b5f876001015f612fb385600188611baa9190613ae4565b64ffffffffff1681526020019081526020015f2054905073__$078c82ddf6c95d34ea184ef1dd6130d136$__63561558fe6040518060400160405280848152602001888760ff168151811061300a5761300a61345d565b60200260200101518152506040518263ffffffff1660e01b81526004016130319190613ab4565b602060405180830381865af415801561304c573d5f5f3e3d5ffd5b505050506040513d601f19601f820116820180604052508101906130709190613489565b8561307c856001613a7e565b60ff168151811061308f5761308f61345d565b602002602001018181525050505b505b647fffffffff600192831c169101612df8565b600183019183908215613143579160200282015f5b8382111561311157833563ffffffff1683826101000a81548163ffffffff021916908363ffffffff16021790555092602001926004016020816003010492830192600103026130c7565b80156131415782816101000a81549063ffffffff0219169055600401602081600301049283019260010302613111565b505b5061314f929150613153565b5090565b5b8082111561314f575f8155600101613154565b6001600160a01b03811681146112c4575f5ffd5b5f6020828403121561318b575f5ffd5b813561242281613167565b5f602082840312156131a6575f5ffd5b5035919050565b602080825282518282018190525f918401906040840190835b818110156131ed5783516001600160a01b03168352602093840193909201916001016131c6565b509095945050505050565b5f5f5f6080848603121561320a575f5ffd5b833592506020840135915060808401851015613224575f5ffd5b6040840190509250925092565b5f5f60408385031215613242575f5ffd5b82359150602083013561325481613167565b809150509250929050565b5f5f83601f84011261326f575f5ffd5b5081356001600160401b03811115613285575f5ffd5b60208301915083602082850101111561329c575f5ffd5b9250929050565b5f5f5f5f5f5f5f6080888a0312156132b9575f5ffd5b8735965060208801356001600160401b038111156132d5575f5ffd5b8801601f81018a136132e5575f5ffd5b80356001600160401b038111156132fa575f5ffd5b8a60208260051b840101111561330e575f5ffd5b6020919091019650945060408801356001600160401b03811115613330575f5ffd5b61333c8a828b0161325f565b90955093505060608801356001600160401b0381111561335a575f5ffd5b6133668a828b0161325f565b989b979a50959850939692959293505050565b5f5f5f6060848603121561338b575f5ffd5b83359250602084013561339d81613167565b929592945050506040919091013590565b6001600160a01b0391909116815260200190565b5f5f604083850312156133d3575f5ffd5b82356133de81613167565b946020939093013593505050565b5f5f604083850312156133fd575f5ffd5b50508035926020909101359150565b634e487b7160e01b5f52601160045260245ffd5b5f8161342e5761342e61340c565b505f190190565b634e487b7160e01b5f52604160045260245ffd5b634e487b7160e01b5f52602160045260245ffd5b634e487b7160e01b5f52603260045260245ffd5b5f600182016134825761348261340c565b5060010190565b5f60208284031215613499575f5ffd5b5051919050565b803563ffffffff81168114611a34575f5ffd5b5f602082840312156134c3575f5ffd5b612422826134a0565b80820180821115610bf057610bf061340c565b84815260a0810160208201855f5b600281101561351a5763ffffffff613504836134a0565b16835260209283019291909101906001016134ed565b50505060608201939093526080015292915050565b80518015158114611a34575f5ffd5b5f6020828403121561354e575f5ffd5b6124228261352f565b6040516101e081016001600160401b038111828210171561357a5761357a613435565b60405290565b604051601f8201601f191681016001600160401b03811182821017156135a8576135a8613435565b604052919050565b5f6001600160401b038211156135c8576135c8613435565b50601f01601f191660200190565b5f82601f8301126135e5575f5ffd5b81356001600160401b038111156135fe576135fe613435565b8060051b61360e60208201613580565b91825260208185018101929081019086841115613629575f5ffd5b6020860192505b8383101561364b578235825260209283019290910190613630565b9695505050505050565b5f5f60408385031215613666575f5ffd5b82356001600160401b0381111561367b575f5ffd5b8301601f8101851361368b575f5ffd5b803561369e613699826135b0565b613580565b8181528660208385010111156136b2575f5ffd5b816020840160208301375f6020838301015280945050505060208301356001600160401b038111156136e2575f5ffd5b6136ee858286016135d6565b9150509250929050565b81810381811115610bf057610bf061340c565b805160048110611a34575f5ffd5b5f82601f830112613728575f5ffd5b604080519081016001600160401b038111828210171561374a5761374a613435565b8060405250806040840185811115613760575f5ffd5b845b8181101561377a578051835260209283019201613762565b509195945050505050565b8051611a3481613167565b5f82601f83011261379f575f5ffd5b81516137ad613699826135b0565b8181528460208386010111156137c1575f5ffd5b8160208501602083015e5f918101602001919091529392505050565b5f602082840312156137ed575f5ffd5b81516001600160401b03811115613802575f5ffd5b82016102008185031215613814575f5ffd5b61381c613557565b8151815261382c6020830161370b565b6020820152604082810151908201526138488560608401613719565b606082015260a0820151608082015261386360c08301613785565b60a082015260e08201516001600160401b03811115613880575f5ffd5b61388c86828501613790565b60c0830152506101008201516001600160401b038111156138ab575f5ffd5b6138b786828501613790565b60e0830152506138ca6101208301613785565b6101008201526138dd6101408301613785565b61012082015261016082810151610140830152610180830151908201526101a08201516001600160401b03811115613913575f5ffd5b61391f86828501613790565b610180830152506139336101c08301613785565b6101a08201526139466101e0830161352f565b6101c0820152949350505050565b81835281816020850137505f828201602090810191909152601f909101601f19169091010190565b602081525f61251a602083018486613954565b604080825281018490525f8560608301825b878110156139d15782356139b481613167565b6001600160a01b03168252602092830192909101906001016139a1565b5083810360208501526139e5818688613954565b98975050505050505050565b602080825282548282018190525f848152918220906040840190835b818110156131ed5783546001600160a01b0316835260019384019360209093019201613a0d565b6020808252602a908201527f4c617a79494d543a206c656166206d757374206265203c20534e41524b5f53436040820152691053105497d19251531160b21b606082015260800190565b60ff8181168382160190811115610bf057610bf061340c565b64ffffffffff8181168382160190811115610bf057610bf061340c565b6040810181835f5b6002811015613adb578151835260209283019290910190600101613abc565b50505092915050565b64ffffffffff8281168282160390811115610bf057610bf061340c565b5f82613b1b57634e487b7160e01b5f52601260045260245ffd5b500490565b60208082526023908201527f4c617a79494d543a206465707468206d757374206265203c3d204d41585f44456040820152620a0a8960eb1b606082015260800190565b6001815b600184111561118157808504811115613b8257613b8261340c565b6001841615613b9057908102905b60019390931c928002613b67565b5f82613bac57506001610bf0565b81613bb857505f610bf0565b8160018114613bce5760028114613bd857613c0a565b6001915050610bf0565b60ff841115613be957613be961340c565b6001841b915064ffffffffff821115613c0457613c0461340c565b50610bf0565b5060208310610133831016604e8410600b8410161715613c42575081810a64ffffffffff811115613c3d57613c3d61340c565b610bf0565b613c5264ffffffffff8484613b63565b8064ffffffffff04821115613c6957613c6961340c565b029392505050565b5f61242264ffffffffff841664ffffffffff8416613b9e565b64ffffffffff8181168382160290811690818114613caa57613caa61340c565b509291505056fea164736f6c634300081c000a",
  "linkReferences": {
    "npm/poseidon-solidity@0.0.5/PoseidonT3.sol": {
      "PoseidonT3": [
        {
          "length": 20,
          "start": 7360
        },
        {
          "length": 20,
          "start": 7544
        },
        {
          "length": 20,
          "start": 8174
        },
        {
          "length": 20,
          "start": 12008
        },
        {
          "length": 20,
          "start": 12450
        }
      ]
    }
  },
  "deployedLinkReferences": {
    "npm/poseidon-solidity@0.0.5/PoseidonT3.sol": {
      "PoseidonT3": [
        {
          "length": 20,
          "start": 7146
        },
        {
          "length": 20,
          "start": 7330
        },
        {
          "length": 20,
          "start": 7960
        },
        {
          "length": 20,
          "start": 11794
        },
        {
          "length": 20,
          "start": 12236
        }
      ]
    }
  },
  "immutableReferences": {},
  "inputSourceName": "project/contracts/registry/CiphernodeRegistryOwnable.sol",
  "buildInfoId": "solc-0_8_28-48efe0838d1e7fb2ef1a3cba330cb80744c9a50e"
}