{
  "_format": "hh3-artifact-1",
  "contractName": "CiphernodeRegistryOwnable",
  "sourceName": "contracts/registry/CiphernodeRegistryOwnable.sol",
  "abi": [
    {
      "inputs": [],
      "stateMutability": "nonpayable",
      "type": "constructor"
    },
    {
      "inputs": [],
      "name": "BondingRegistryNotSet",
      "type": "error"
    },
    {
      "inputs": [
        {
          "internalType": "address",
          "name": "node",
          "type": "address"
        }
      ],
      "name": "CiphernodeNotEnabled",
      "type": "error"
    },
    {
      "inputs": [],
      "name": "CommitteeAlreadyFinalized",
      "type": "error"
    },
    {
      "inputs": [],
      "name": "CommitteeAlreadyPublished",
      "type": "error"
    },
    {
      "inputs": [],
      "name": "CommitteeAlreadyRequested",
      "type": "error"
    },
    {
      "inputs": [],
      "name": "CommitteeDeadlineReached",
      "type": "error"
    },
    {
      "inputs": [],
      "name": "CommitteeNotFinalized",
      "type": "error"
    },
    {
      "inputs": [],
      "name": "CommitteeNotInitializedOrFinalized",
      "type": "error"
    },
    {
      "inputs": [],
      "name": "CommitteeNotPublished",
      "type": "error"
    },
    {
      "inputs": [],
      "name": "CommitteeNotRequested",
      "type": "error"
    },
    {
      "inputs": [
        {
          "internalType": "uint256",
          "name": "requested",
          "type": "uint256"
        },
        {
          "internalType": "uint256",
          "name": "available",
          "type": "uint256"
        }
      ],
      "name": "InsufficientCiphernodes",
      "type": "error"
    },
    {
      "inputs": [],
      "name": "InvalidInitialization",
      "type": "error"
    },
    {
      "inputs": [],
      "name": "InvalidTicketNumber",
      "type": "error"
    },
    {
      "inputs": [],
      "name": "NodeAlreadySubmitted",
      "type": "error"
    },
    {
      "inputs": [
        {
          "internalType": "address",
          "name": "node",
          "type": "address"
        }
      ],
      "name": "NodeNotBonded",
      "type": "error"
    },
    {
      "inputs": [],
      "name": "NodeNotEligible",
      "type": "error"
    },
    {
      "inputs": [],
      "name": "NodeNotSubmitted",
      "type": "error"
    },
    {
      "inputs": [],
      "name": "NotInitializing",
      "type": "error"
    },
    {
      "inputs": [],
      "name": "NotOwnerOrBondingRegistry",
      "type": "error"
    },
    {
      "inputs": [],
      "name": "NotSlashingManager",
      "type": "error"
    },
    {
      "inputs": [],
      "name": "OnlyBondingRegistry",
      "type": "error"
    },
    {
      "inputs": [],
      "name": "OnlyEnclave",
      "type": "error"
    },
    {
      "inputs": [
        {
          "internalType": "address",
          "name": "owner",
          "type": "address"
        }
      ],
      "name": "OwnableInvalidOwner",
      "type": "error"
    },
    {
      "inputs": [
        {
          "internalType": "address",
          "name": "account",
          "type": "address"
        }
      ],
      "name": "OwnableUnauthorizedAccount",
      "type": "error"
    },
    {
      "inputs": [],
      "name": "SubmissionWindowClosed",
      "type": "error"
    },
    {
      "inputs": [],
      "name": "SubmissionWindowNotClosed",
      "type": "error"
    },
    {
      "inputs": [],
      "name": "ThresholdNotMet",
      "type": "error"
    },
    {
      "inputs": [],
      "name": "Unauthorized",
      "type": "error"
    },
    {
      "inputs": [],
      "name": "ZeroAddress",
      "type": "error"
    },
    {
      "anonymous": false,
      "inputs": [
        {
          "indexed": true,
          "internalType": "address",
          "name": "bondingRegistry",
          "type": "address"
        }
      ],
      "name": "BondingRegistrySet",
      "type": "event"
    },
    {
      "anonymous": false,
      "inputs": [
        {
          "indexed": true,
          "internalType": "address",
          "name": "node",
          "type": "address"
        },
        {
          "indexed": false,
          "internalType": "uint256",
          "name": "index",
          "type": "uint256"
        },
        {
          "indexed": false,
          "internalType": "uint256",
          "name": "numNodes",
          "type": "uint256"
        },
        {
          "indexed": false,
          "internalType": "uint256",
          "name": "size",
          "type": "uint256"
        }
      ],
      "name": "CiphernodeAdded",
      "type": "event"
    },
    {
      "anonymous": false,
      "inputs": [
        {
          "indexed": true,
          "internalType": "address",
          "name": "node",
          "type": "address"
        },
        {
          "indexed": false,
          "internalType": "uint256",
          "name": "index",
          "type": "uint256"
        },
        {
          "indexed": false,
          "internalType": "uint256",
          "name": "numNodes",
          "type": "uint256"
        },
        {
          "indexed": false,
          "internalType": "uint256",
          "name": "size",
          "type": "uint256"
        }
      ],
      "name": "CiphernodeRemoved",
      "type": "event"
    },
    {
      "anonymous": false,
      "inputs": [
        {
          "indexed": true,
          "internalType": "uint256",
          "name": "e3Id",
          "type": "uint256"
        },
        {
          "indexed": false,
          "internalType": "bool",
          "name": "active",
          "type": "bool"
        }
      ],
      "name": "CommitteeActivationChanged",
      "type": "event"
    },
    {
      "anonymous": false,
      "inputs": [
        {
          "indexed": true,
          "internalType": "uint256",
          "name": "e3Id",
          "type": "uint256"
        },
        {
          "indexed": false,
          "internalType": "address[]",
          "name": "committee",
          "type": "address[]"
        },
        {
          "indexed": false,
          "internalType": "uint256[]",
          "name": "scores",
          "type": "uint256[]"
        }
      ],
      "name": "CommitteeFinalized",
      "type": "event"
    },
    {
      "anonymous": false,
      "inputs": [
        {
          "indexed": true,
          "internalType": "uint256",
          "name": "e3Id",
          "type": "uint256"
        },
        {
          "indexed": false,
          "internalType": "uint256",
          "name": "nodesSubmitted",
          "type": "uint256"
        },
        {
          "indexed": false,
          "internalType": "uint256",
          "name": "thresholdRequired",
          "type": "uint256"
        }
      ],
      "name": "CommitteeFormationFailed",
      "type": "event"
    },
    {
      "anonymous": false,
      "inputs": [
        {
          "indexed": true,
          "internalType": "uint256",
          "name": "e3Id",
          "type": "uint256"
        },
        {
          "indexed": true,
          "internalType": "address",
          "name": "node",
          "type": "address"
        },
        {
          "indexed": false,
          "internalType": "bytes32",
          "name": "reason",
          "type": "bytes32"
        },
        {
          "indexed": false,
          "internalType": "uint256",
          "name": "activeCountAfter",
          "type": "uint256"
        }
      ],
      "name": "CommitteeMemberExpelled",
      "type": "event"
    },
    {
      "anonymous": false,
      "inputs": [
        {
          "indexed": true,
          "internalType": "uint256",
          "name": "e3Id",
          "type": "uint256"
        },
        {
          "indexed": false,
          "internalType": "address[]",
          "name": "nodes",
          "type": "address[]"
        },
        {
          "indexed": false,
          "internalType": "bytes",
          "name": "publicKey",
          "type": "bytes"
        },
        {
          "indexed": false,
          "internalType": "bytes32",
          "name": "pkCommitment",
          "type": "bytes32"
        },
        {
          "indexed": false,
          "internalType": "bytes",
          "name": "proof",
          "type": "bytes"
        }
      ],
      "name": "CommitteePublished",
      "type": "event"
    },
    {
      "anonymous": false,
      "inputs": [
        {
          "indexed": true,
          "internalType": "uint256",
          "name": "e3Id",
          "type": "uint256"
        },
        {
          "indexed": false,
          "internalType": "uint256",
          "name": "seed",
          "type": "uint256"
        },
        {
          "indexed": false,
          "internalType": "uint32[2]",
          "name": "threshold",
          "type": "uint32[2]"
        },
        {
          "indexed": false,
          "internalType": "uint256",
          "name": "requestBlock",
          "type": "uint256"
        },
        {
          "indexed": false,
          "internalType": "uint256",
          "name": "committeeDeadline",
          "type": "uint256"
        }
      ],
      "name": "CommitteeRequested",
      "type": "event"
    },
    {
      "anonymous": false,
      "inputs": [
        {
          "indexed": true,
          "internalType": "uint256",
          "name": "e3Id",
          "type": "uint256"
        },
        {
          "indexed": false,
          "internalType": "uint256",
          "name": "activeCount",
          "type": "uint256"
        },
        {
          "indexed": false,
          "internalType": "uint256",
          "name": "thresholdM",
          "type": "uint256"
        },
        {
          "indexed": false,
          "internalType": "bool",
          "name": "viable",
          "type": "bool"
        }
      ],
      "name": "CommitteeViabilityUpdated",
      "type": "event"
    },
    {
      "anonymous": false,
      "inputs": [
        {
          "indexed": true,
          "internalType": "address",
          "name": "enclave",
          "type": "address"
        }
      ],
      "name": "EnclaveSet",
      "type": "event"
    },
    {
      "anonymous": false,
      "inputs": [
        {
          "indexed": false,
          "internalType": "uint64",
          "name": "version",
          "type": "uint64"
        }
      ],
      "name": "Initialized",
      "type": "event"
    },
    {
      "anonymous": false,
      "inputs": [
        {
          "indexed": true,
          "internalType": "address",
          "name": "previousOwner",
          "type": "address"
        },
        {
          "indexed": true,
          "internalType": "address",
          "name": "newOwner",
          "type": "address"
        }
      ],
      "name": "OwnershipTransferred",
      "type": "event"
    },
    {
      "anonymous": false,
      "inputs": [
        {
          "indexed": true,
          "internalType": "address",
          "name": "slashingManager",
          "type": "address"
        }
      ],
      "name": "SlashingManagerSet",
      "type": "event"
    },
    {
      "anonymous": false,
      "inputs": [
        {
          "indexed": false,
          "internalType": "uint256",
          "name": "sortitionSubmissionWindow",
          "type": "uint256"
        }
      ],
      "name": "SortitionSubmissionWindowSet",
      "type": "event"
    },
    {
      "anonymous": false,
      "inputs": [
        {
          "indexed": true,
          "internalType": "uint256",
          "name": "e3Id",
          "type": "uint256"
        },
        {
          "indexed": true,
          "internalType": "address",
          "name": "node",
          "type": "address"
        },
        {
          "indexed": false,
          "internalType": "uint256",
          "name": "ticketId",
          "type": "uint256"
        },
        {
          "indexed": false,
          "internalType": "uint256",
          "name": "score",
          "type": "uint256"
        }
      ],
      "name": "TicketSubmitted",
      "type": "event"
    },
    {
      "inputs": [],
      "name": "TREE_DEPTH",
      "outputs": [
        {
          "internalType": "uint8",
          "name": "",
          "type": "uint8"
        }
      ],
      "stateMutability": "view",
      "type": "function"
    },
    {
      "inputs": [
        {
          "internalType": "address",
          "name": "node",
          "type": "address"
        }
      ],
      "name": "addCiphernode",
      "outputs": [],
      "stateMutability": "nonpayable",
      "type": "function"
    },
    {
      "inputs": [],
      "name": "bondingRegistry",
      "outputs": [
        {
          "internalType": "contract IBondingRegistry",
          "name": "",
          "type": "address"
        }
      ],
      "stateMutability": "view",
      "type": "function"
    },
    {
      "inputs": [
        {
          "internalType": "address",
          "name": "node",
          "type": "address"
        }
      ],
      "name": "ciphernodeEnabled",
      "outputs": [
        {
          "internalType": "bool",
          "name": "enabled",
          "type": "bool"
        }
      ],
      "stateMutability": "view",
      "type": "function"
    },
    {
      "inputs": [
        {
          "internalType": "address",
          "name": "node",
          "type": "address"
        }
      ],
      "name": "ciphernodeTreeIndex",
      "outputs": [
        {
          "internalType": "uint40",
          "name": "index",
          "type": "uint40"
        }
      ],
      "stateMutability": "view",
      "type": "function"
    },
    {
      "inputs": [],
      "name": "ciphernodes",
      "outputs": [
        {
          "internalType": "uint40",
          "name": "maxIndex",
          "type": "uint40"
        },
        {
          "internalType": "uint40",
          "name": "numberOfLeaves",
          "type": "uint40"
        }
      ],
      "stateMutability": "view",
      "type": "function"
    },
    {
      "inputs": [
        {
          "internalType": "uint256",
          "name": "e3Id",
          "type": "uint256"
        }
      ],
      "name": "committeePublicKey",
      "outputs": [
        {
          "internalType": "bytes32",
          "name": "publicKeyHash",
          "type": "bytes32"
        }
      ],
      "stateMutability": "view",
      "type": "function"
    },
    {
      "inputs": [],
      "name": "enclave",
      "outputs": [
        {
          "internalType": "contract IEnclave",
          "name": "",
          "type": "address"
        }
      ],
      "stateMutability": "view",
      "type": "function"
    },
    {
      "inputs": [
        {
          "internalType": "uint256",
          "name": "e3Id",
          "type": "uint256"
        },
        {
          "internalType": "address",
          "name": "node",
          "type": "address"
        },
        {
          "internalType": "bytes32",
          "name": "reason",
          "type": "bytes32"
        }
      ],
      "name": "expelCommitteeMember",
      "outputs": [
        {
          "internalType": "uint256",
          "name": "activeCount",
          "type": "uint256"
        },
        {
          "internalType": "uint32",
          "name": "thresholdM",
          "type": "uint32"
        }
      ],
      "stateMutability": "nonpayable",
      "type": "function"
    },
    {
      "inputs": [
        {
          "internalType": "uint256",
          "name": "e3Id",
          "type": "uint256"
        }
      ],
      "name": "finalizeCommittee",
      "outputs": [
        {
          "internalType": "bool",
          "name": "success",
          "type": "bool"
        }
      ],
      "stateMutability": "nonpayable",
      "type": "function"
    },
    {
      "inputs": [
        {
          "internalType": "uint256",
          "name": "e3Id",
          "type": "uint256"
        }
      ],
      "name": "getActiveCommitteeNodes",
      "outputs": [
        {
          "internalType": "address[]",
          "name": "nodes",
          "type": "address[]"
        },
        {
          "internalType": "uint256[]",
          "name": "scores",
          "type": "uint256[]"
        }
      ],
      "stateMutability": "view",
      "type": "function"
    },
    {
      "inputs": [],
      "name": "getBondingRegistry",
      "outputs": [
        {
          "internalType": "address",
          "name": "",
          "type": "address"
        }
      ],
      "stateMutability": "view",
      "type": "function"
    },
    {
      "inputs": [
        {
          "internalType": "uint256",
          "name": "e3Id",
          "type": "uint256"
        }
      ],
      "name": "getCommitteeDeadline",
      "outputs": [
        {
          "internalType": "uint256",
          "name": "",
          "type": "uint256"
        }
      ],
      "stateMutability": "view",
      "type": "function"
    },
    {
      "inputs": [
        {
          "internalType": "uint256",
          "name": "e3Id",
          "type": "uint256"
        }
      ],
      "name": "getCommitteeNodes",
      "outputs": [
        {
          "internalType": "address[]",
          "name": "nodes",
          "type": "address[]"
        }
      ],
      "stateMutability": "view",
      "type": "function"
    },
    {
      "inputs": [
        {
          "internalType": "uint256",
          "name": "e3Id",
          "type": "uint256"
        }
      ],
      "name": "getCommitteeViability",
      "outputs": [
        {
          "internalType": "uint256",
          "name": "activeCount",
          "type": "uint256"
        },
        {
          "internalType": "uint32",
          "name": "thresholdM",
          "type": "uint32"
        },
        {
          "internalType": "uint32",
          "name": "thresholdN",
          "type": "uint32"
        },
        {
          "internalType": "bool",
          "name": "viable",
          "type": "bool"
        }
      ],
      "stateMutability": "view",
      "type": "function"
    },
    {
      "inputs": [
        {
          "internalType": "address",
          "name": "_owner",
          "type": "address"
        },
        {
          "internalType": "uint256",
          "name": "_submissionWindow",
          "type": "uint256"
        }
      ],
      "name": "initialize",
      "outputs": [],
      "stateMutability": "nonpayable",
      "type": "function"
    },
    {
      "inputs": [
        {
          "internalType": "address",
          "name": "node",
          "type": "address"
        }
      ],
      "name": "isCiphernodeEligible",
      "outputs": [
        {
          "internalType": "bool",
          "name": "",
          "type": "bool"
        }
      ],
      "stateMutability": "view",
      "type": "function"
    },
    {
      "inputs": [
        {
          "internalType": "uint256",
          "name": "e3Id",
          "type": "uint256"
        },
        {
          "internalType": "address",
          "name": "node",
          "type": "address"
        }
      ],
      "name": "isCommitteeMember",
      "outputs": [
        {
          "internalType": "bool",
          "name": "",
          "type": "bool"
        }
      ],
      "stateMutability": "view",
      "type": "function"
    },
    {
      "inputs": [
        {
          "internalType": "uint256",
          "name": "e3Id",
          "type": "uint256"
        },
        {
          "internalType": "address",
          "name": "node",
          "type": "address"
        }
      ],
      "name": "isCommitteeMemberActive",
      "outputs": [
        {
          "internalType": "bool",
          "name": "",
          "type": "bool"
        }
      ],
      "stateMutability": "view",
      "type": "function"
    },
    {
      "inputs": [
        {
          "internalType": "address",
          "name": "node",
          "type": "address"
        }
      ],
      "name": "isEnabled",
      "outputs": [
        {
          "internalType": "bool",
          "name": "",
          "type": "bool"
        }
      ],
      "stateMutability": "view",
      "type": "function"
    },
    {
      "inputs": [
        {
          "internalType": "uint256",
          "name": "e3Id",
          "type": "uint256"
        }
      ],
      "name": "isOpen",
      "outputs": [
        {
          "internalType": "bool",
          "name": "",
          "type": "bool"
        }
      ],
      "stateMutability": "view",
      "type": "function"
    },
    {
      "inputs": [],
      "name": "numCiphernodes",
      "outputs": [
        {
          "internalType": "uint256",
          "name": "",
          "type": "uint256"
        }
      ],
      "stateMutability": "view",
      "type": "function"
    },
    {
      "inputs": [],
      "name": "owner",
      "outputs": [
        {
          "internalType": "address",
          "name": "",
          "type": "address"
        }
      ],
      "stateMutability": "view",
      "type": "function"
    },
    {
      "inputs": [
        {
          "internalType": "uint256",
          "name": "e3Id",
          "type": "uint256"
        }
      ],
      "name": "publicKeyHashes",
      "outputs": [
        {
          "internalType": "bytes32",
          "name": "publicKeyHash",
          "type": "bytes32"
        }
      ],
      "stateMutability": "view",
      "type": "function"
    },
    {
      "inputs": [
        {
          "internalType": "uint256",
          "name": "e3Id",
          "type": "uint256"
        },
        {
          "internalType": "address[]",
          "name": "nodes",
          "type": "address[]"
        },
        {
          "internalType": "bytes",
          "name": "publicKey",
          "type": "bytes"
        },
        {
          "internalType": "bytes32",
          "name": "pkCommitment",
          "type": "bytes32"
        },
        {
          "internalType": "bytes",
          "name": "proof",
          "type": "bytes"
        }
      ],
      "name": "publishCommittee",
      "outputs": [],
      "stateMutability": "nonpayable",
      "type": "function"
    },
    {
      "inputs": [
        {
          "internalType": "address",
          "name": "node",
          "type": "address"
        }
      ],
      "name": "removeCiphernode",
      "outputs": [],
      "stateMutability": "nonpayable",
      "type": "function"
    },
    {
      "inputs": [],
      "name": "renounceOwnership",
      "outputs": [],
      "stateMutability": "nonpayable",
      "type": "function"
    },
    {
      "inputs": [
        {
          "internalType": "uint256",
          "name": "e3Id",
          "type": "uint256"
        },
        {
          "internalType": "uint256",
          "name": "seed",
          "type": "uint256"
        },
        {
          "internalType": "uint32[2]",
          "name": "threshold",
          "type": "uint32[2]"
        }
      ],
      "name": "requestCommittee",
      "outputs": [
        {
          "internalType": "bool",
          "name": "success",
          "type": "bool"
        }
      ],
      "stateMutability": "nonpayable",
      "type": "function"
    },
    {
      "inputs": [],
      "name": "root",
      "outputs": [
        {
          "internalType": "uint256",
          "name": "",
          "type": "uint256"
        }
      ],
      "stateMutability": "view",
      "type": "function"
    },
    {
      "inputs": [
        {
          "internalType": "uint256",
          "name": "e3Id",
          "type": "uint256"
        }
      ],
      "name": "rootAt",
      "outputs": [
        {
          "internalType": "uint256",
          "name": "",
          "type": "uint256"
        }
      ],
      "stateMutability": "view",
      "type": "function"
    },
    {
      "inputs": [
        {
          "internalType": "uint256",
          "name": "e3Id",
          "type": "uint256"
        }
      ],
      "name": "roots",
      "outputs": [
        {
          "internalType": "uint256",
          "name": "root",
          "type": "uint256"
        }
      ],
      "stateMutability": "view",
      "type": "function"
    },
    {
      "inputs": [
        {
          "internalType": "contract IBondingRegistry",
          "name": "_bondingRegistry",
          "type": "address"
        }
      ],
      "name": "setBondingRegistry",
      "outputs": [],
      "stateMutability": "nonpayable",
      "type": "function"
    },
    {
      "inputs": [
        {
          "internalType": "contract IEnclave",
          "name": "_enclave",
          "type": "address"
        }
      ],
      "name": "setEnclave",
      "outputs": [],
      "stateMutability": "nonpayable",
      "type": "function"
    },
    {
      "inputs": [
        {
          "internalType": "contract ISlashingManager",
          "name": "_slashingManager",
          "type": "address"
        }
      ],
      "name": "setSlashingManager",
      "outputs": [],
      "stateMutability": "nonpayable",
      "type": "function"
    },
    {
      "inputs": [
        {
          "internalType": "uint256",
          "name": "_sortitionSubmissionWindow",
          "type": "uint256"
        }
      ],
      "name": "setSortitionSubmissionWindow",
      "outputs": [],
      "stateMutability": "nonpayable",
      "type": "function"
    },
    {
      "inputs": [],
      "name": "slashingManager",
      "outputs": [
        {
          "internalType": "contract ISlashingManager",
          "name": "",
          "type": "address"
        }
      ],
      "stateMutability": "view",
      "type": "function"
    },
    {
      "inputs": [],
      "name": "sortitionSubmissionWindow",
      "outputs": [
        {
          "internalType": "uint256",
          "name": "",
          "type": "uint256"
        }
      ],
      "stateMutability": "view",
      "type": "function"
    },
    {
      "inputs": [
        {
          "internalType": "uint256",
          "name": "e3Id",
          "type": "uint256"
        },
        {
          "internalType": "uint256",
          "name": "ticketNumber",
          "type": "uint256"
        }
      ],
      "name": "submitTicket",
      "outputs": [],
      "stateMutability": "nonpayable",
      "type": "function"
    },
    {
      "inputs": [
        {
          "internalType": "address",
          "name": "newOwner",
          "type": "address"
        }
      ],
      "name": "transferOwnership",
      "outputs": [],
      "stateMutability": "nonpayable",
      "type": "function"
    },
    {
      "inputs": [],
      "name": "treeSize",
      "outputs": [
        {
          "internalType": "uint256",
          "name": "",
          "type": "uint256"
        }
      ],
      "stateMutability": "view",
      "type": "function"
    }
  ],
  "bytecode": "0x6080604052348015600e575f5ffd5b5060156019565b60c9565b7ff0c57e16840df040f15088dc2f81fe391c3923bec73e23a9662efc9c229c6a00805468010000000000000000900460ff161560685760405163f92ee8a960e01b815260040160405180910390fd5b80546001600160401b039081161460c65780546001600160401b0319166001600160401b0390811782556040519081527fc7f505b2f371ae2175ee4913f4499e1f2633a7b5936321eed1cdaeb6115181d29060200160405180910390a15b50565b613db5806100d65f395ff3fe608060405234801561000f575f5ffd5b506004361061023f575f3560e01c80639a7a2ffc11610135578063dbb06c93116100b4578063f165053611610079578063f165053614610578578063f2fde38b14610592578063f379b0df146105a5578063f52fd803146105df578063f6fc05d514610651575f5ffd5b8063dbb06c9314610525578063e59e469514610537578063e6745e131461054a578063e82f3b701461055d578063ebf0c71714610570575f5ffd5b8063c2b40ae4116100fa578063c2b40ae4146104b0578063c3a0ec30146104cf578063ca2869a0146104e0578063cd6dc687146104ff578063da881e5a14610512575f5ffd5b80639a7a2ffc146104255780639f0f874a14610461578063a01649301461046a578063a8a4d69b1461048a578063bff232c11461049d575f5ffd5b806370e36bbe116101c15780638cb89ecb116101865780638cb89ecb146103c25780638d1ddfb1146103e15780638da5cb5b146103f75780638e5ce3ad146103ff5780639015d37114610412575f5ffd5b806370e36bbe14610347578063715018a61461035a5780637c92f52414610362578063858142431461038f5780638a78bb15146103af575f5ffd5b8063291a691b11610207578063291a691b146102c95780632e7b716d146102ec5780634d6861a6146102ff57806350e6d94c146103125780635d50477614610334575f5ffd5b8063096b810a146102435780630f3e34121461025857806317d611201461026b5780631cc321b5146102955780632800d829146102a8575b5f5ffd5b610256610251366004613303565b61065a565b005b61025661026636600461331e565b6107a6565b61027e61027936600461331e565b6107e9565b60405161028c9291906133a8565b60405180910390f35b6102566102a3366004613419565b610993565b6102bb6102b636600461331e565b610cb7565b60405190815260200161028c565b6102dc6102d73660046134f8565b610d03565b604051901515815260200161028c565b6102dc6102fa366004613303565b610edd565b6102dc61030d36600461331e565b610f90565b6102dc610320366004613303565b60066020525f908152604090205460ff1681565b6102dc610342366004613531565b610fcf565b610256610355366004613303565b611013565b610256611089565b61037561037036600461355f565b61109c565b6040805192835263ffffffff90911660208301520161028c565b6001546103a2906001600160a01b031681565b60405161028c9190613594565b6102566103bd366004613303565b611243565b6102bb6103d036600461331e565b60096020525f908152604090205481565b600454600160281b900464ffffffffff166102bb565b6103a2611381565b600b546103a2906001600160a01b031681565b6102dc610420366004613303565b6113af565b61044b610433366004613303565b60076020525f908152604090205464ffffffffff1681565b60405164ffffffffff909116815260200161028c565b6102bb60035481565b61047d61047836600461331e565b6113cc565b60405161028c91906135a8565b6102dc610498366004613531565b611462565b6102566104ab366004613303565b6114a6565b6102bb6104be36600461331e565b60086020525f908152604090205481565b6001546001600160a01b03166103a2565b6102bb6104ee36600461331e565b5f9081526008602052604090205490565b61025661050d3660046135ba565b61151e565b6102dc61052036600461331e565b61167b565b5f546103a2906001600160a01b031681565b610256610545366004613303565b611955565b6102566105583660046135e4565b6119cd565b6102bb61056b36600461331e565b611b90565b6102bb611bc1565b610580601481565b60405160ff909116815260200161028c565b6102566105a0366004613303565b611bd3565b6004546105c19064ffffffffff80821691600160281b90041682565b6040805164ffffffffff93841681529290911660208301520161028c565b6106226105ed36600461331e565b5f908152600a6020819052604090912090810154600590910154909163ffffffff80831692600160201b900416908284101590565b60405161028c949392919093845263ffffffff9283166020850152911660408301521515606082015260800190565b6102bb60025481565b610662611381565b6001600160a01b0316336001600160a01b0316148061068b57506001546001600160a01b031633145b6106a857604051632864c4e160e01b815260040160405180910390fd5b6106b1816113af565b81906106da576040516381e5828960e01b81526004016106d19190613594565b60405180910390fd5b506001600160a01b0381165f9081526007602052604081205464ffffffffff16906107089060049083611c0d565b6001600160a01b0382165f908152600660205260408120805460ff19169055600280549161073583613618565b90915550506002546004546040805164ffffffffff80861682526020820194909452600160281b909204909216918101919091526001600160a01b038316907f8c008e3835f6c79bfcdb89f0f6ca8705e0b01049ee84a90b0e4da1c7ba9405d5906060015b60405180910390a25050565b6107ae611eaf565b60038190556040518181527fbe772dc189863d512fa01e489c8eac204975aef1a8662d8b5a333804b5207ab79060200160405180910390a150565b5f818152600a60208190526040909120600681015491810154606092839291806001600160401b038111156108205761082061362d565b604051908082528060200260200182016040528015610849578160200160208202803683370190505b509450806001600160401b038111156108645761086461362d565b60405190808252806020026020018201604052801561088d578160200160208202803683370190505b5093505f805b83811015610989575f8560060182815481106108b1576108b1613641565b5f918252602090912001546001600160a01b0316905060016001600160a01b0382165f90815260098801602052604090205460ff1660028111156108f7576108f7613655565b03610980578088848151811061090f5761090f613641565b60200260200101906001600160a01b031690816001600160a01b031681525050856008015f826001600160a01b03166001600160a01b031681526020019081526020015f205487848151811061096757610967613641565b60209081029190910101528261097c81613669565b9350505b50600101610893565b5050505050915091565b5f888152600a602052604090206002815460ff1660038111156109b8576109b8613655565b146109d657604051634f4b461f60e11b815260040160405180910390fd5b6004810154156109f95760405163632a22bb60e01b815260040160405180910390fd5b60068101548714610a425760405162461bcd60e51b815260206004820152601360248201527209cdec8ca40c6deeadce840dad2e6dac2e8c6d606b1b60448201526064016106d1565b83610a875760405162461bcd60e51b81526020600482015260156024820152741c1ad0dbdb5b5a5d1b595b9d081c995c5d5a5c9959605a1b60448201526064016106d1565b5f805460405163101bb4d760e21b8152600481018c90526001600160a01b039091169063406ed35c906024015f60405180830381865afa158015610acd573d5f5f3e3d5ffd5b505050506040513d5f823e601f3d908101601f19168201604052610af491908101906137d7565b9050806101c0015115610bf35782610b3f5760405162461bcd60e51b815260206004820152600e60248201526d1c1c9bdbd9881c995c5d5a5c995960921b60448201526064016106d1565b8061012001516001600160a01b031663258ae5828686866040518463ffffffff1660e01b8152600401610b749392919061395d565b602060405180830381865afa158015610b8f573d5f5f3e3d5ffd5b505050506040513d601f19601f82011682018060405250810190610bb39190613976565b610bf35760405162461bcd60e51b815260206004820152601160248201527024b73b30b634b2102225a390383937b7b360791b60448201526064016106d1565b60048281018690555f8b815260096020526040808220889055905490516340a3b76160e11b81529182018c9052602482018790526001600160a01b0316906381476ec2906044015f604051808303815f87803b158015610c51575f5ffd5b505af1158015610c63573d5f5f3e3d5ffd5b50505050897fbf0636a312095f6c09c909823813b50e392323588d2d83432e7512c64041e67f8a8a8a8a8a8a8a604051610ca3979695949392919061398f565b60405180910390a250505050505050505050565b5f818152600a6020526040812081815460ff166003811115610cdb57610cdb613655565b03610cf957604051630d4c1d9760e41b815260040160405180910390fd5b6003015492915050565b5f80546001600160a01b03163314610d2e5760405163e4c2a7eb60e01b815260040160405180910390fd5b5f848152600a6020526040812090815460ff166003811115610d5257610d52613655565b14610d70576040516374ff462560e11b815260040160405180910390fd5b60015460408051630cc37d8f60e11b815290515f926001600160a01b031691631986fb1e9160048083019260209291908290030181865afa158015610db7573d5f5f3e3d5ffd5b505050506040513d601f19601f82011682018060405250810190610ddb9190613a0f565b905080610dee6040860160208701613a39565b63ffffffff161115610e066040860160208701613a39565b829091610e34576040516344ec930f60e01b815263ffffffff909216600483015260248201526044016106d1565b5050815460ff1916600190811783558201859055436002830155600354610e5b9042613a52565b6003830155610e6f6005830185600261323a565b50610e78611bc1565b5f87815260086020526040908190209190915560028301546003840154915188927f381d281d32f95ef8fe4e5f3b263ea6a32d03d331e1a141ae1da996dc02a7a17092610ec9928a928a9291613a65565b60405180910390a250600195945050505050565b5f610ee7826113af565b610ef257505f919050565b6001546001600160a01b0316610f1b576040516350ca893360e01b815260040160405180910390fd5b600154604051639f8a13d760e01b81526001600160a01b0390911690639f8a13d790610f4b908590600401613594565b602060405180830381865afa158015610f66573d5f5f3e3d5ffd5b505050506040513d601f19601f82011682018060405250810190610f8a9190613976565b92915050565b5f818152600a602052604081206001815460ff166003811115610fb557610fb5613655565b14610fc257505f92915050565b6003015442111592915050565b5f60015f848152600a602090815260408083206001600160a01b038716845260090190915290205460ff16600281111561100b5761100b613655565b149392505050565b61101b611eaf565b6001600160a01b0381166110425760405163d92e233d60e01b815260040160405180910390fd5b5f80546001600160a01b0319166001600160a01b038316908117825560405190917f2c8267accd82e977550ed2349c73311183cd22e306347be4453c8d130995e3c991a250565b611091611eaf565b61109a5f611ee1565b565b600b545f9081906001600160a01b031633146110cb5760405163fcef374960e01b815260040160405180910390fd5b5f858152600a602052604090206002815460ff1660038111156110f0576110f0613655565b1461110e57604051634f4b461f60e11b815260040160405180910390fd5b60058101546001600160a01b0386165f90815260098301602052604090205463ffffffff909116925060019060ff16600281111561114e5761114e613655565b1461115e57600a0154915061123b565b6001600160a01b0385165f9081526009820160205260408120805460ff19166002179055600a820180549161119283613618565b919050555080600a01549250846001600160a01b0316867f6c783b92374361b4d6efaf29673b89437ee969bb3c9d2d5d86b143ad5447b84986866040516111e3929190918252602082015260400190565b60405180910390a36040805184815263ffffffff84166020820181905285101591810182905287907f119cb11dd0a68c257d6dc9b06dcb37dd422ce276eb8bf3cd0b7079a116b8e2989060600160405180910390a250505b935093915050565b61124b611381565b6001600160a01b0316336001600160a01b0316148061127457506001546001600160a01b031633145b61129157604051632864c4e160e01b815260040160405180910390fd5b61129a816113af565b61137e5760048054600160281b900464ffffffffff16906112c4906001600160a01b038416611f51565b6001600160a01b0382165f908152600660209081526040808320805460ff1916600117905560079091528120805464ffffffffff841664ffffffffff19909116179055600280549161131583613669565b90915550506002546004546040805164ffffffffff80861682526020820194909452600160281b909204909216918101919091526001600160a01b038316907f3318d261fe14a5761d2d1e21555652f623d2134c430a9883c9ad6e958bb0db539060600161079a565b50565b7f9016d09d72d40fdae2fd8ceac6b6234c7706214fd39c1cd1e609a0528c199300546001600160a01b031690565b6001600160a01b03165f9081526006602052604090205460ff1690565b5f818152600a602052604090206004810154606091906113ff576040516322e679e360e11b815260040160405180910390fd5b8060060180548060200260200160405190810160405280929190818152602001828054801561145557602002820191905f5260205f20905b81546001600160a01b03168152600190910190602001808311611437575b5050505050915050919050565b5f805f848152600a602090815260408083206001600160a01b038716845260090190915290205460ff16600281111561149d5761149d613655565b14159392505050565b6114ae611eaf565b6001600160a01b0381166114d55760405163d92e233d60e01b815260040160405180910390fd5b600b80546001600160a01b0319166001600160a01b0383169081179091556040517f4ccc8ed483c7c44c3602c3c38afc2c014a8f1d2dc210dfe58ebeeeead230f8e0905f90a250565b5f611527612127565b805490915060ff600160401b82041615906001600160401b03165f8115801561154d5750825b90505f826001600160401b031660011480156115685750303b155b905081158015611576575080155b156115945760405163f92ee8a960e01b815260040160405180910390fd5b845467ffffffffffffffff1916600117855583156115be57845460ff60401b1916600160401b1785555b6001600160a01b0387166115e55760405163d92e233d60e01b815260040160405180910390fd5b6115ee3361214f565b6115fa60046014612160565b611603866107a6565b61160b611381565b6001600160a01b0316876001600160a01b03161461162c5761162c87611bd3565b831561167257845460ff60401b19168555604051600181527fc7f505b2f371ae2175ee4913f4499e1f2633a7b5936321eed1cdaeb6115181d29060200160405180910390a15b50505050505050565b5f818152600a6020526040812081815460ff16600381111561169f5761169f613655565b036116bd57604051630d4c1d9760e41b815260040160405180910390fd5b6001815460ff1660038111156116d5576116d5613655565b146116f357604051631860f69960e31b815260040160405180910390fd5b8060030154421161171757604051632f021e8d60e11b815260040160405180910390fd5b60058101546006820154600160201b90910463ffffffff161115806117fc578154600360ff199091161782556006820154600583015460408051928352600160201b90910463ffffffff16602083015285917fecc4a9fb7e28d074cba7f5b227e9b5827823c850a385539b9a2f98a08f8c203d910160405180910390a25f54604051635d968dc160e11b815260048101869052600260248201526001600160a01b039091169063bb2d1b82906044015f604051808303815f87803b1580156117dd575f5ffd5b505af11580156117ef573d5f5f3e3d5ffd5b505f979650505050505050565b815460ff191660021782556006820154600a83018190555f816001600160401b0381111561182c5761182c61362d565b604051908082528060200260200182016040528015611855578160200160208202803683370190505b5090505f5b828110156118c757846008015f86600601838154811061187c5761187c613641565b5f9182526020808320909101546001600160a01b0316835282019290925260400190205482518390839081106118b4576118b4613641565b602090810291909101015260010161185a565b505f54604051631f3ea75d60e21b8152600481018890526001600160a01b0390911690637cfa9d74906024015f604051808303815f87803b15801561190a575f5ffd5b505af115801561191c573d5f5f3e3d5ffd5b50505050857f4f1f5b329c741a8ba15e9645e301061294d0c1fdd455448ffd5e76ff255929d78560060183604051610ec9929190613ab5565b61195d611eaf565b6001600160a01b0381166119845760405163d92e233d60e01b815260040160405180910390fd5b600180546001600160a01b0319166001600160a01b0383169081179091556040517fad4055f18cdad6f4bdd71afe3a72cbeee964217943e1bde38f138289e981a9a7905f90a250565b5f828152600a6020526040812090815460ff1660038111156119f1576119f1613655565b03611a0f57604051630d4c1d9760e41b815260040160405180910390fd5b6001815460ff166003811115611a2757611a27613655565b14611a4557604051631860f69960e31b815260040160405180910390fd5b8060030154421115611a6a57604051639a19114d60e01b815260040160405180910390fd5b335f90815260078201602052604090205460ff1615611a9c5760405163257309f160e11b815260040160405180910390fd5b611aa533610edd565b611ac25760405163149fbcfd60e11b815260040160405180910390fd5b611acd3383856121df565b6001810154604080516bffffffffffffffffffffffff193360601b16602080830191909152603482018690526054820187905260748083019490945282518083039094018452609490910190915281519101205f90335f8181526007850160205260409020805460ff19166001179055909150611b4c908390836123b0565b506040805184815260208101839052339186917f52999628fb1cb05707e842278833b22e511f11746202cecdf221968b0b89e8bd910160405180910390a350505050565b5f8181526009602052604090205480611bbc576040516322e679e360e11b815260040160405180910390fd5b919050565b5f611bce600460146125b1565b905090565b611bdb611eaf565b6001600160a01b038116611c04575f604051631e4fbdf760e01b81526004016106d19190613594565b61137e81611ee1565b7f30644e72e131a029b85045b68181585d2833e84879b9709143e1f593f00000018210611c4c5760405162461bcd60e51b81526004016106d190613b18565b825464ffffffffff600160281b90910481169082168111611caa5760405162461bcd60e51b815260206004820152601860248201527713185e9e5253550e881b195859881b5d5cdd08195e1a5cdd60421b60448201526064016106d1565b825f5b81866001015f611cbd84886126aa565b64ffffffffff1681526020019081526020015f20819055505f816001611ce39190613b62565b60ff168464ffffffffff16901c64ffffffffff16905060018564ffffffffff16901c64ffffffffff168111611d185750611ea7565b600185165f03611ddf575f611d3783611d32886001613b7b565b6126aa565b60408051808201825286815264ffffffffff83165f90815260018c0160209081529083902054908201529051632b0aac7f60e11b815291925073__$078c82ddf6c95d34ea184ef1dd6130d136$__9163561558fe91611d9891600401613b98565b602060405180830381865af4158015611db3573d5f5f3e3d5ffd5b505050506040513d601f19601f82011682018060405250810190611dd79190613a0f565b935050611e93565b5f611def83611d32600189613bc8565b60408051808201825264ffffffffff83165f90815260018c0160209081529083902054825281018790529051632b0aac7f60e11b815291925073__$078c82ddf6c95d34ea184ef1dd6130d136$__9163561558fe91611e5091600401613b98565b602060405180830381865af4158015611e6b573d5f5f3e3d5ffd5b505050506040513d601f19601f82011682018060405250810190611e8f9190613a0f565b9350505b50647fffffffff600194851c169301611cad565b505050505050565b33611eb8611381565b6001600160a01b03161461109a573360405163118cdaa760e01b81526004016106d19190613594565b7f9016d09d72d40fdae2fd8ceac6b6234c7706214fd39c1cd1e609a0528c19930080546001600160a01b031981166001600160a01b03848116918217845560405192169182907f8be0079c531659141344cd1fd0a4f28419497f9722a3daafe3b4186f6b6457e0905f90a3505050565b8154600160281b900464ffffffffff167f30644e72e131a029b85045b68181585d2833e84879b9709143e1f593f00000018210611fa05760405162461bcd60e51b81526004016106d190613b18565b825464ffffffffff90811690821610611ff35760405162461bcd60e51b815260206004820152601560248201527413185e9e5253550e881d1c9959481a5cc8199d5b1b605a1b60448201526064016106d1565b611ffe816001613b7b565b835464ffffffffff91909116600160281b0269ffffffffff000000000019909116178355815f5b81856001015f61203584876126aa565b64ffffffffff16815260208101919091526040015f20556001831615612120575f61206582611d32600187613bc8565b60408051808201825264ffffffffff83165f90815260018a0160209081529083902054825281018690529051632b0aac7f60e11b815291925073__$078c82ddf6c95d34ea184ef1dd6130d136$__9163561558fe916120c691600401613b98565b602060405180830381865af41580156120e1573d5f5f3e3d5ffd5b505050506040513d601f19601f820116820180604052508101906121059190613a0f565b647fffffffff600195861c1694909350919091019050612025565b5050505050565b5f807ff0c57e16840df040f15088dc2f81fe391c3923bec73e23a9662efc9c229c6a00610f8a565b6121576126c7565b61137e816126ec565b602060ff821611156121ae5760405162461bcd60e51b81526020600482015260176024820152764c617a79494d543a205472656520746f6f206c6172676560481b60448201526064016106d1565b6121bf600160ff831681901b613be5565b825469ffffffffffffffffffff191664ffffffffff919091161790915550565b5f82116121ff5760405163aeaddff160e01b815260040160405180910390fd5b6001546001600160a01b0316612228576040516350ca893360e01b815260040160405180910390fd5b5f818152600a602052604081206001805460028301549293926001600160a01b039091169163bb03bd7191889161225e91613be5565b6040516001600160e01b031960e085901b1681526001600160a01b0390921660048301526024820152604401602060405180830381865afa1580156122a5573d5f5f3e3d5ffd5b505050506040513d601f19601f820116820180604052508101906122c99190613a0f565b90505f60015f9054906101000a90046001600160a01b03166001600160a01b0316631209b1f66040518163ffffffff1660e01b8152600401602060405180830381865afa15801561231c573d5f5f3e3d5ffd5b505050506040513d601f19601f820116820180604052508101906123409190613a0f565b90505f81116123625760405163aeaddff160e01b815260040160405180910390fd5b5f61236d8284613bf8565b90505f811161238f5760405163149fbcfd60e11b815260040160405180910390fd5b808611156116725760405163aeaddff160e01b815260040160405180910390fd5b60058301546006840180545f92600160201b900463ffffffff169081111561242e57508054600180820183555f928352602080842090920180546001600160a01b0319166001600160a01b03881690811790915583526008870182526040808420869055600988019092529120805460ff19168217905590506125aa565b5f5f90505f876008015f855f8154811061244a5761244a613641565b5f9182526020808320909101546001600160a01b03168352820192909252604001902054905060015b84548110156124d2575f896008015f87848154811061249457612494613641565b5f9182526020808320909101546001600160a01b031683528201929092526040019020549050828111156124c9578092508193505b50600101612473565b508086106124e6575f9450505050506125aa565b5f886009015f8685815481106124fe576124fe613641565b5f9182526020808320909101546001600160a01b031683528201929092526040019020805460ff1916600183600281111561253b5761253b613655565b02179055508684838154811061255357612553613641565b5f91825260208083209190910180546001600160a01b0319166001600160a01b03948516179055918916815260088a018252604080822089905560098b0190925220805460ff191660019081179091559450505050505b9392505050565b5f5f8260ff16116126045760405162461bcd60e51b815260206004820152601a60248201527f4c617a79494d543a206465707468206d757374206265203e203000000000000060448201526064016106d1565b602060ff831611156126285760405162461bcd60e51b81526004016106d190613c17565b8254600160281b900464ffffffffff168061264760ff85166002613d68565b64ffffffffff1610156126975760405162461bcd60e51b8152602060048201526018602482015277098c2f4f2929aa87440c2dac4d2ceeadeeae640c8cae0e8d60431b60448201526064016106d1565b6126a28482856126f4565b949350505050565b5f816126bd60ff851663ffffffff613d81565b6125aa9190613b7b565b6126cf6127bc565b61109a57604051631afcd79f60e31b815260040160405180910390fd5b611bdb6126c7565b5f602060ff831611156127195760405162461bcd60e51b81526004016106d190613c17565b8264ffffffffff165f0361273757612730826127d5565b90506125aa565b5f612743836001613b62565b60ff166001600160401b0381111561275d5761275d61362d565b604051908082528060200260200182016040528015612786578160200160208202803683370190505b50905061279585858584612e6f565b808360ff16815181106127aa576127aa613641565b60200260200101519150509392505050565b5f6127c5612127565b54600160401b900460ff16919050565b5f8160ff165f036127e757505f919050565b8160ff1660010361281957507f2098f5fb9e239eab3ceac3f27b81e481dc3124d55ffed523a839ee8446b64864919050565b8160ff1660020361284b57507f1069673dcdb12263df301a6ff584a7ec261a44cb9dc68df067a4774460b1f1e1919050565b8160ff1660030361287d57507f18f43331537ee2af2e3d758d50f72106467c6eea50371dd528d57eb2b856d238919050565b8160ff166004036128af57507f07f9d837cb17b0d36320ffe93ba52345f1b728571a568265caac97559dbc952a919050565b8160ff166005036128e157507f2b94cf5e8746b3f5c9631f4c5df32907a699c58c94b2ad4d7b5cec1639183f55919050565b8160ff1660060361291357507f2dee93c5a666459646ea7d22cca9e1bcfed71e6951b953611d11dda32ea09d78919050565b8160ff1660070361294557507f078295e5a22b84e982cf601eb639597b8b0515a88cb5ac7fa8a4aabe3c87349d919050565b8160ff1660080361297757507f2fa5e5f18f6027a6501bec864564472a616b2e274a41211a444cbe3a99f3cc61919050565b8160ff166009036129a957507f0e884376d0d8fd21ecb780389e941f66e45e7acce3e228ab3e2156a614fcd747919050565b8160ff16600a036129db57507f1b7201da72494f1e28717ad1a52eb469f95892f957713533de6175e5da190af2919050565b8160ff16600b03612a0d57507f1f8d8822725e36385200c0b201249819a6e6e1e4650808b5bebc6bface7d7636919050565b8160ff16600c03612a3f57507f2c5d82f66c914bafb9701589ba8cfcfb6162b0a12acf88a8d0879a0471b5f85a919050565b8160ff16600d03612a7157507f14c54148a0940bb820957f5adf3fa1134ef5c4aaa113f4646458f270e0bfbfd0919050565b8160ff16600e03612aa357507f190d33b12f986f961e10c0ee44d8b9af11be25588cad89d416118e4bf4ebe80c919050565b8160ff16600f03612ad557507f22f98aa9ce704152ac17354914ad73ed1167ae6596af510aa5b3649325e06c92919050565b8160ff16601003612b0757507f2a7c7c9b6ce5880b9f6f228d72bf6a575a526f29c66ecceef8b753d38bba7323919050565b8160ff16601103612b3957507f2e8186e558698ec1c67af9c14d463ffc470043c9c2988b954d75dd643f36b992919050565b8160ff16601203612b6b57507f0f57c5571e9a4eab49e2c8cf050dae948aef6ead647392273546249d1c1ff10f919050565b8160ff16601303612b9d57507f1830ee67b5fb554ad5f63d4388800e1cfe78e310697d46e43c9ce36134f72cca919050565b8160ff16601403612bcf57507f2134e76ac5d21aab186c2be1dd8f84ee880a1e46eaf712f9d371b6df22191f3e919050565b8160ff16601503612c0157507f19df90ec844ebc4ffeebd866f33859b0c051d8c958ee3aa88f8f8df3db91a5b1919050565b8160ff16601603612c3357507f18cca2a66b5c0787981e69aefd84852d74af0e93ef4912b4648c05f722efe52b919050565b8160ff16601703612c6557507f2388909415230d1b4d1304d2d54f473a628338f2efad83fadf05644549d2538d919050565b8160ff16601803612c9757507f27171fb4a97b6cc0e9e8f543b5294de866a2af2c9c8d0b1d96e673e4529ed540919050565b8160ff16601903612cc957507f2ff6650540f629fd5711a0bc74fc0d28dcb230b9392583e5f8d59696dde6ae21919050565b8160ff16601a03612cfb57507f120c58f143d491e95902f7f5277778a2e0ad5168f6add75669932630ce611518919050565b8160ff16601b03612d2d57507f1f21feb70d3f21b07bf853d5e5db03071ec495a0a565a21da2d665d279483795919050565b8160ff16601c03612d5f57507f24be905fa71335e14c638cc0f66a8623a826e768068a9e968bb1a1dde18a72d2919050565b8160ff16601d03612d9157507f0f8666b62ed17491c50ceadead57d4cd597ef3821d65c328744c74e553dac26d919050565b8160ff16601e03612dc357507f0918d46bf52d98b034413f4a1a1c41594e7a7a3f6ae08cb43d1a2a230e1959ef919050565b8160ff16601f03612df557507f1bbeb01b4c479ecde76917645e404dfa2e26f90d0afc5a65128513ad375c5ff2919050565b8160ff16602003612e2757507f2f68a1c58e257e42a17a6c61dff5551ed560b9922ab119d5ac8e184c9734ead9919050565b60405162461bcd60e51b815260206004820152601e60248201527f4c617a79494d543a2064656661756c745a65726f2062616420696e646578000060448201526064016106d1565b602060ff83161115612e935760405162461bcd60e51b81526004016106d190613c17565b5f8364ffffffffff1611612ef75760405162461bcd60e51b815260206004820152602560248201527f4c617a79494d543a206e756d626572206f66206c6561766573206d7573742062604482015264065203e20360dc1b60648201526084016106d1565b5f612f03600185613bc8565b9050600181165f03612f5657846001015f612f1e5f846126aa565b64ffffffffff1681526020019081526020015f2054825f81518110612f4557612f45613641565b602002602001018181525050612f7e565b612f5f5f6127d5565b825f81518110612f7157612f71613641565b6020026020010181815250505b5f5b8360ff168160ff161015611ea757600182165f036130765773__$078c82ddf6c95d34ea184ef1dd6130d136$__63561558fe6040518060400160405280868560ff1681518110612fd257612fd2613641565b60200260200101518152602001612fe8856127d5565b8152506040518263ffffffff1660e01b81526004016130079190613b98565b602060405180830381865af4158015613022573d5f5f3e3d5ffd5b505050506040513d601f19601f820116820180604052508101906130469190613a0f565b83613052836001613b62565b60ff168151811061306557613065613641565b602002602001018181525050613227565b5f613082826001613b62565b60ff168664ffffffffff16901c64ffffffffff16905060018364ffffffffff16901c64ffffffffff16811115613124575f876001015f6130d98560016130c89190613b62565b60018864ffffffffff16901c6126aa565b64ffffffffff1681526020019081526020015f2054905080858460016130ff9190613b62565b60ff168151811061311257613112613641565b60200260200101818152505050613225565b5f876001015f61313b85600188611d329190613bc8565b64ffffffffff1681526020019081526020015f2054905073__$078c82ddf6c95d34ea184ef1dd6130d136$__63561558fe6040518060400160405280848152602001888760ff168151811061319257613192613641565b60200260200101518152506040518263ffffffff1660e01b81526004016131b99190613b98565b602060405180830381865af41580156131d4573d5f5f3e3d5ffd5b505050506040513d601f19601f820116820180604052508101906131f89190613a0f565b85613204856001613b62565b60ff168151811061321757613217613641565b602002602001018181525050505b505b647fffffffff600192831c169101612f80565b6001830191839082156132cb579160200282015f5b8382111561329957833563ffffffff1683826101000a81548163ffffffff021916908363ffffffff160217905550926020019260040160208160030104928301926001030261324f565b80156132c95782816101000a81549063ffffffff0219169055600401602081600301049283019260010302613299565b505b506132d79291506132db565b5090565b5b808211156132d7575f81556001016132dc565b6001600160a01b038116811461137e575f5ffd5b5f60208284031215613313575f5ffd5b81356125aa816132ef565b5f6020828403121561332e575f5ffd5b5035919050565b5f8151808452602084019350602083015f5b8281101561336e5781516001600160a01b0316865260209586019590910190600101613347565b5093949350505050565b5f8151808452602084019350602083015f5b8281101561336e57815186526020958601959091019060010161338a565b604081525f6133ba6040830185613335565b82810360208401526133cc8185613378565b95945050505050565b5f5f83601f8401126133e5575f5ffd5b5081356001600160401b038111156133fb575f5ffd5b602083019150836020828501011115613412575f5ffd5b9250929050565b5f5f5f5f5f5f5f5f60a0898b031215613430575f5ffd5b8835975060208901356001600160401b0381111561344c575f5ffd5b8901601f81018b1361345c575f5ffd5b80356001600160401b03811115613471575f5ffd5b8b60208260051b8401011115613485575f5ffd5b6020919091019750955060408901356001600160401b038111156134a7575f5ffd5b6134b38b828c016133d5565b9096509450506060890135925060808901356001600160401b038111156134d8575f5ffd5b6134e48b828c016133d5565b999c989b5096995094979396929594505050565b5f5f5f6080848603121561350a575f5ffd5b833592506020840135915060808401851015613524575f5ffd5b6040840190509250925092565b5f5f60408385031215613542575f5ffd5b823591506020830135613554816132ef565b809150509250929050565b5f5f5f60608486031215613571575f5ffd5b833592506020840135613583816132ef565b929592945050506040919091013590565b6001600160a01b0391909116815260200190565b602081525f6125aa6020830184613335565b5f5f604083850312156135cb575f5ffd5b82356135d6816132ef565b946020939093013593505050565b5f5f604083850312156135f5575f5ffd5b50508035926020909101359150565b634e487b7160e01b5f52601160045260245ffd5b5f8161362657613626613604565b505f190190565b634e487b7160e01b5f52604160045260245ffd5b634e487b7160e01b5f52603260045260245ffd5b634e487b7160e01b5f52602160045260245ffd5b5f6001820161367a5761367a613604565b5060010190565b6040516101e081016001600160401b03811182821017156136a4576136a461362d565b60405290565b805160048110611bbc575f5ffd5b5f82601f8301126136c7575f5ffd5b604080519081016001600160401b03811182821017156136e9576136e961362d565b80604052508060408401858111156136ff575f5ffd5b845b81811015613719578051835260209283019201613701565b509195945050505050565b8051611bbc816132ef565b805160ff81168114611bbc575f5ffd5b5f82601f83011261374e575f5ffd5b81516001600160401b038111156137675761376761362d565b604051601f8201601f19908116603f011681016001600160401b03811182821017156137955761379561362d565b6040528181528382016020018510156137ac575f5ffd5b8160208501602083015e5f918101602001919091529392505050565b80518015158114611bbc575f5ffd5b5f602082840312156137e7575f5ffd5b81516001600160401b038111156137fc575f5ffd5b8201610200818503121561380e575f5ffd5b613816613681565b81518152613826602083016136aa565b60208201526040828101519082015261384285606084016136b8565b606082015260a0820151608082015261385d60c08301613724565b60a082015261386e60e0830161372f565b60c08201526101008201516001600160401b0381111561388c575f5ffd5b6138988682850161373f565b60e0830152506138ab6101208301613724565b6101008201526138be6101408301613724565b61012082015261016082810151610140830152610180830151908201526101a08201516001600160401b038111156138f4575f5ffd5b6139008682850161373f565b610180830152506139146101c08301613724565b6101a08201526139276101e083016137c8565b6101c0820152949350505050565b81835281816020850137505f828201602090810191909152601f909101601f19169091010190565b838152604060208201525f6133cc604083018486613935565b5f60208284031215613986575f5ffd5b6125aa826137c8565b608080825281018790525f8860a08301825b8a8110156139d15782356139b4816132ef565b6001600160a01b03168252602092830192909101906001016139a1565b5083810360208501526139e581898b613935565b9150508560408401528281036060840152613a01818587613935565b9a9950505050505050505050565b5f60208284031215613a1f575f5ffd5b5051919050565b803563ffffffff81168114611bbc575f5ffd5b5f60208284031215613a49575f5ffd5b6125aa82613a26565b80820180821115610f8a57610f8a613604565b84815260a0810160208201855f5b6002811015613aa05763ffffffff613a8a83613a26565b1683526020928301929190910190600101613a73565b50505060608201939093526080015292915050565b604080825283549082018190525f8481526020812090916060840190835b81811015613afa5783546001600160a01b0316835260019384019360209093019201613ad3565b50508381036020850152613b0e8186613378565b9695505050505050565b6020808252602a908201527f4c617a79494d543a206c656166206d757374206265203c20534e41524b5f53436040820152691053105497d19251531160b21b606082015260800190565b60ff8181168382160190811115610f8a57610f8a613604565b64ffffffffff8181168382160190811115610f8a57610f8a613604565b6040810181835f5b6002811015613bbf578151835260209283019290910190600101613ba0565b50505092915050565b64ffffffffff8281168282160390811115610f8a57610f8a613604565b81810381811115610f8a57610f8a613604565b5f82613c1257634e487b7160e01b5f52601260045260245ffd5b500490565b60208082526023908201527f4c617a79494d543a206465707468206d757374206265203c3d204d41585f44456040820152620a0a8960eb1b606082015260800190565b6001815b600184111561123b57808504811115613c7957613c79613604565b6001841615613c8757908102905b60019390931c928002613c5e565b5f82613ca357506001610f8a565b81613caf57505f610f8a565b8160018114613cc55760028114613ccf57613d01565b6001915050610f8a565b60ff841115613ce057613ce0613604565b6001841b915064ffffffffff821115613cfb57613cfb613604565b50610f8a565b5060208310610133831016604e8410600b8410161715613d39575081810a64ffffffffff811115613d3457613d34613604565b610f8a565b613d4964ffffffffff8484613c5a565b8064ffffffffff04821115613d6057613d60613604565b029392505050565b5f6125aa64ffffffffff841664ffffffffff8416613c95565b64ffffffffff8181168382160290811690818114613da157613da1613604565b509291505056fea164736f6c634300081c000a",
  "linkReferences": {
    "npm/poseidon-solidity@0.0.5/PoseidonT3.sol": {
      "PoseidonT3": [
        {
          "length": 20,
          "start": 7752
        },
        {
          "length": 20,
          "start": 7936
        },
        {
          "length": 20,
          "start": 8566
        },
        {
          "length": 20,
          "start": 12400
        },
        {
          "length": 20,
          "start": 12842
        }
      ]
    }
  },
  "deployedLinkReferences": {
    "npm/poseidon-solidity@0.0.5/PoseidonT3.sol": {
      "PoseidonT3": [
        {
          "length": 20,
          "start": 7538
        },
        {
          "length": 20,
          "start": 7722
        },
        {
          "length": 20,
          "start": 8352
        },
        {
          "length": 20,
          "start": 12186
        },
        {
          "length": 20,
          "start": 12628
        }
      ]
    }
  },
  "immutableReferences": {},
  "inputSourceName": "project/contracts/registry/CiphernodeRegistryOwnable.sol",
  "buildInfoId": "solc-0_8_28-2705a75bc2d2d1f8b1e08ebca4cc37d76480abc8"
}