{
  "_format": "hh3-artifact-1",
  "contractName": "CiphernodeRegistryOwnable",
  "sourceName": "contracts/registry/CiphernodeRegistryOwnable.sol",
  "abi": [
    {
      "inputs": [],
      "stateMutability": "nonpayable",
      "type": "constructor"
    },
    {
      "inputs": [],
      "name": "BondingRegistryNotSet",
      "type": "error"
    },
    {
      "inputs": [
        {
          "internalType": "address",
          "name": "node",
          "type": "address"
        }
      ],
      "name": "CiphernodeNotEnabled",
      "type": "error"
    },
    {
      "inputs": [],
      "name": "CommitteeAlreadyFinalized",
      "type": "error"
    },
    {
      "inputs": [],
      "name": "CommitteeAlreadyPublished",
      "type": "error"
    },
    {
      "inputs": [],
      "name": "CommitteeAlreadyRequested",
      "type": "error"
    },
    {
      "inputs": [],
      "name": "CommitteeDeadlineReached",
      "type": "error"
    },
    {
      "inputs": [],
      "name": "CommitteeNotFinalized",
      "type": "error"
    },
    {
      "inputs": [],
      "name": "CommitteeNotInitializedOrFinalized",
      "type": "error"
    },
    {
      "inputs": [],
      "name": "CommitteeNotPublished",
      "type": "error"
    },
    {
      "inputs": [],
      "name": "CommitteeNotRequested",
      "type": "error"
    },
    {
      "inputs": [
        {
          "internalType": "uint256",
          "name": "requested",
          "type": "uint256"
        },
        {
          "internalType": "uint256",
          "name": "available",
          "type": "uint256"
        }
      ],
      "name": "InsufficientCiphernodes",
      "type": "error"
    },
    {
      "inputs": [],
      "name": "InvalidInitialization",
      "type": "error"
    },
    {
      "inputs": [],
      "name": "InvalidTicketNumber",
      "type": "error"
    },
    {
      "inputs": [],
      "name": "NodeAlreadySubmitted",
      "type": "error"
    },
    {
      "inputs": [
        {
          "internalType": "address",
          "name": "node",
          "type": "address"
        }
      ],
      "name": "NodeNotBonded",
      "type": "error"
    },
    {
      "inputs": [],
      "name": "NodeNotEligible",
      "type": "error"
    },
    {
      "inputs": [],
      "name": "NodeNotSubmitted",
      "type": "error"
    },
    {
      "inputs": [],
      "name": "NotInitializing",
      "type": "error"
    },
    {
      "inputs": [],
      "name": "NotOwnerOrBondingRegistry",
      "type": "error"
    },
    {
      "inputs": [],
      "name": "NotSlashingManager",
      "type": "error"
    },
    {
      "inputs": [],
      "name": "OnlyBondingRegistry",
      "type": "error"
    },
    {
      "inputs": [],
      "name": "OnlyEnclave",
      "type": "error"
    },
    {
      "inputs": [
        {
          "internalType": "address",
          "name": "owner",
          "type": "address"
        }
      ],
      "name": "OwnableInvalidOwner",
      "type": "error"
    },
    {
      "inputs": [
        {
          "internalType": "address",
          "name": "account",
          "type": "address"
        }
      ],
      "name": "OwnableUnauthorizedAccount",
      "type": "error"
    },
    {
      "inputs": [],
      "name": "SubmissionWindowClosed",
      "type": "error"
    },
    {
      "inputs": [],
      "name": "SubmissionWindowNotClosed",
      "type": "error"
    },
    {
      "inputs": [],
      "name": "ThresholdNotMet",
      "type": "error"
    },
    {
      "inputs": [],
      "name": "Unauthorized",
      "type": "error"
    },
    {
      "inputs": [],
      "name": "ZeroAddress",
      "type": "error"
    },
    {
      "anonymous": false,
      "inputs": [
        {
          "indexed": true,
          "internalType": "address",
          "name": "bondingRegistry",
          "type": "address"
        }
      ],
      "name": "BondingRegistrySet",
      "type": "event"
    },
    {
      "anonymous": false,
      "inputs": [
        {
          "indexed": true,
          "internalType": "address",
          "name": "node",
          "type": "address"
        },
        {
          "indexed": false,
          "internalType": "uint256",
          "name": "index",
          "type": "uint256"
        },
        {
          "indexed": false,
          "internalType": "uint256",
          "name": "numNodes",
          "type": "uint256"
        },
        {
          "indexed": false,
          "internalType": "uint256",
          "name": "size",
          "type": "uint256"
        }
      ],
      "name": "CiphernodeAdded",
      "type": "event"
    },
    {
      "anonymous": false,
      "inputs": [
        {
          "indexed": true,
          "internalType": "address",
          "name": "node",
          "type": "address"
        },
        {
          "indexed": false,
          "internalType": "uint256",
          "name": "index",
          "type": "uint256"
        },
        {
          "indexed": false,
          "internalType": "uint256",
          "name": "numNodes",
          "type": "uint256"
        },
        {
          "indexed": false,
          "internalType": "uint256",
          "name": "size",
          "type": "uint256"
        }
      ],
      "name": "CiphernodeRemoved",
      "type": "event"
    },
    {
      "anonymous": false,
      "inputs": [
        {
          "indexed": true,
          "internalType": "uint256",
          "name": "e3Id",
          "type": "uint256"
        },
        {
          "indexed": false,
          "internalType": "bool",
          "name": "active",
          "type": "bool"
        }
      ],
      "name": "CommitteeActivationChanged",
      "type": "event"
    },
    {
      "anonymous": false,
      "inputs": [
        {
          "indexed": true,
          "internalType": "uint256",
          "name": "e3Id",
          "type": "uint256"
        },
        {
          "indexed": false,
          "internalType": "address[]",
          "name": "committee",
          "type": "address[]"
        }
      ],
      "name": "CommitteeFinalized",
      "type": "event"
    },
    {
      "anonymous": false,
      "inputs": [
        {
          "indexed": true,
          "internalType": "uint256",
          "name": "e3Id",
          "type": "uint256"
        },
        {
          "indexed": false,
          "internalType": "uint256",
          "name": "nodesSubmitted",
          "type": "uint256"
        },
        {
          "indexed": false,
          "internalType": "uint256",
          "name": "thresholdRequired",
          "type": "uint256"
        }
      ],
      "name": "CommitteeFormationFailed",
      "type": "event"
    },
    {
      "anonymous": false,
      "inputs": [
        {
          "indexed": true,
          "internalType": "uint256",
          "name": "e3Id",
          "type": "uint256"
        },
        {
          "indexed": true,
          "internalType": "address",
          "name": "node",
          "type": "address"
        },
        {
          "indexed": false,
          "internalType": "bytes32",
          "name": "reason",
          "type": "bytes32"
        },
        {
          "indexed": false,
          "internalType": "uint256",
          "name": "activeCountAfter",
          "type": "uint256"
        }
      ],
      "name": "CommitteeMemberExpelled",
      "type": "event"
    },
    {
      "anonymous": false,
      "inputs": [
        {
          "indexed": true,
          "internalType": "uint256",
          "name": "e3Id",
          "type": "uint256"
        },
        {
          "indexed": false,
          "internalType": "address[]",
          "name": "nodes",
          "type": "address[]"
        },
        {
          "indexed": false,
          "internalType": "bytes",
          "name": "publicKey",
          "type": "bytes"
        }
      ],
      "name": "CommitteePublished",
      "type": "event"
    },
    {
      "anonymous": false,
      "inputs": [
        {
          "indexed": true,
          "internalType": "uint256",
          "name": "e3Id",
          "type": "uint256"
        },
        {
          "indexed": false,
          "internalType": "uint256",
          "name": "seed",
          "type": "uint256"
        },
        {
          "indexed": false,
          "internalType": "uint32[2]",
          "name": "threshold",
          "type": "uint32[2]"
        },
        {
          "indexed": false,
          "internalType": "uint256",
          "name": "requestBlock",
          "type": "uint256"
        },
        {
          "indexed": false,
          "internalType": "uint256",
          "name": "committeeDeadline",
          "type": "uint256"
        }
      ],
      "name": "CommitteeRequested",
      "type": "event"
    },
    {
      "anonymous": false,
      "inputs": [
        {
          "indexed": true,
          "internalType": "uint256",
          "name": "e3Id",
          "type": "uint256"
        },
        {
          "indexed": false,
          "internalType": "uint256",
          "name": "activeCount",
          "type": "uint256"
        },
        {
          "indexed": false,
          "internalType": "uint256",
          "name": "thresholdM",
          "type": "uint256"
        },
        {
          "indexed": false,
          "internalType": "bool",
          "name": "viable",
          "type": "bool"
        }
      ],
      "name": "CommitteeViabilityUpdated",
      "type": "event"
    },
    {
      "anonymous": false,
      "inputs": [
        {
          "indexed": true,
          "internalType": "address",
          "name": "enclave",
          "type": "address"
        }
      ],
      "name": "EnclaveSet",
      "type": "event"
    },
    {
      "anonymous": false,
      "inputs": [
        {
          "indexed": false,
          "internalType": "uint64",
          "name": "version",
          "type": "uint64"
        }
      ],
      "name": "Initialized",
      "type": "event"
    },
    {
      "anonymous": false,
      "inputs": [
        {
          "indexed": true,
          "internalType": "address",
          "name": "previousOwner",
          "type": "address"
        },
        {
          "indexed": true,
          "internalType": "address",
          "name": "newOwner",
          "type": "address"
        }
      ],
      "name": "OwnershipTransferred",
      "type": "event"
    },
    {
      "anonymous": false,
      "inputs": [
        {
          "indexed": false,
          "internalType": "uint256",
          "name": "sortitionSubmissionWindow",
          "type": "uint256"
        }
      ],
      "name": "SortitionSubmissionWindowSet",
      "type": "event"
    },
    {
      "anonymous": false,
      "inputs": [
        {
          "indexed": true,
          "internalType": "uint256",
          "name": "e3Id",
          "type": "uint256"
        },
        {
          "indexed": true,
          "internalType": "address",
          "name": "node",
          "type": "address"
        },
        {
          "indexed": false,
          "internalType": "uint256",
          "name": "ticketId",
          "type": "uint256"
        },
        {
          "indexed": false,
          "internalType": "uint256",
          "name": "score",
          "type": "uint256"
        }
      ],
      "name": "TicketSubmitted",
      "type": "event"
    },
    {
      "inputs": [],
      "name": "TREE_DEPTH",
      "outputs": [
        {
          "internalType": "uint8",
          "name": "",
          "type": "uint8"
        }
      ],
      "stateMutability": "view",
      "type": "function"
    },
    {
      "inputs": [
        {
          "internalType": "address",
          "name": "node",
          "type": "address"
        }
      ],
      "name": "addCiphernode",
      "outputs": [],
      "stateMutability": "nonpayable",
      "type": "function"
    },
    {
      "inputs": [],
      "name": "bondingRegistry",
      "outputs": [
        {
          "internalType": "contract IBondingRegistry",
          "name": "",
          "type": "address"
        }
      ],
      "stateMutability": "view",
      "type": "function"
    },
    {
      "inputs": [
        {
          "internalType": "address",
          "name": "node",
          "type": "address"
        }
      ],
      "name": "ciphernodeEnabled",
      "outputs": [
        {
          "internalType": "bool",
          "name": "enabled",
          "type": "bool"
        }
      ],
      "stateMutability": "view",
      "type": "function"
    },
    {
      "inputs": [
        {
          "internalType": "address",
          "name": "node",
          "type": "address"
        }
      ],
      "name": "ciphernodeTreeIndex",
      "outputs": [
        {
          "internalType": "uint40",
          "name": "index",
          "type": "uint40"
        }
      ],
      "stateMutability": "view",
      "type": "function"
    },
    {
      "inputs": [],
      "name": "ciphernodes",
      "outputs": [
        {
          "internalType": "uint40",
          "name": "maxIndex",
          "type": "uint40"
        },
        {
          "internalType": "uint40",
          "name": "numberOfLeaves",
          "type": "uint40"
        }
      ],
      "stateMutability": "view",
      "type": "function"
    },
    {
      "inputs": [
        {
          "internalType": "uint256",
          "name": "e3Id",
          "type": "uint256"
        }
      ],
      "name": "committeePublicKey",
      "outputs": [
        {
          "internalType": "bytes32",
          "name": "publicKeyHash",
          "type": "bytes32"
        }
      ],
      "stateMutability": "view",
      "type": "function"
    },
    {
      "inputs": [],
      "name": "enclave",
      "outputs": [
        {
          "internalType": "contract IEnclave",
          "name": "",
          "type": "address"
        }
      ],
      "stateMutability": "view",
      "type": "function"
    },
    {
      "inputs": [
        {
          "internalType": "uint256",
          "name": "e3Id",
          "type": "uint256"
        },
        {
          "internalType": "address",
          "name": "node",
          "type": "address"
        },
        {
          "internalType": "bytes32",
          "name": "reason",
          "type": "bytes32"
        }
      ],
      "name": "expelCommitteeMember",
      "outputs": [
        {
          "internalType": "uint256",
          "name": "activeCount",
          "type": "uint256"
        },
        {
          "internalType": "uint32",
          "name": "thresholdM",
          "type": "uint32"
        }
      ],
      "stateMutability": "nonpayable",
      "type": "function"
    },
    {
      "inputs": [
        {
          "internalType": "uint256",
          "name": "e3Id",
          "type": "uint256"
        }
      ],
      "name": "finalizeCommittee",
      "outputs": [
        {
          "internalType": "bool",
          "name": "success",
          "type": "bool"
        }
      ],
      "stateMutability": "nonpayable",
      "type": "function"
    },
    {
      "inputs": [
        {
          "internalType": "uint256",
          "name": "e3Id",
          "type": "uint256"
        }
      ],
      "name": "getActiveCommitteeNodes",
      "outputs": [
        {
          "internalType": "address[]",
          "name": "",
          "type": "address[]"
        }
      ],
      "stateMutability": "view",
      "type": "function"
    },
    {
      "inputs": [],
      "name": "getBondingRegistry",
      "outputs": [
        {
          "internalType": "address",
          "name": "",
          "type": "address"
        }
      ],
      "stateMutability": "view",
      "type": "function"
    },
    {
      "inputs": [
        {
          "internalType": "uint256",
          "name": "e3Id",
          "type": "uint256"
        }
      ],
      "name": "getCommitteeDeadline",
      "outputs": [
        {
          "internalType": "uint256",
          "name": "",
          "type": "uint256"
        }
      ],
      "stateMutability": "view",
      "type": "function"
    },
    {
      "inputs": [
        {
          "internalType": "uint256",
          "name": "e3Id",
          "type": "uint256"
        }
      ],
      "name": "getCommitteeNodes",
      "outputs": [
        {
          "internalType": "address[]",
          "name": "nodes",
          "type": "address[]"
        }
      ],
      "stateMutability": "view",
      "type": "function"
    },
    {
      "inputs": [
        {
          "internalType": "uint256",
          "name": "e3Id",
          "type": "uint256"
        }
      ],
      "name": "getCommitteeViability",
      "outputs": [
        {
          "internalType": "uint256",
          "name": "activeCount",
          "type": "uint256"
        },
        {
          "internalType": "uint32",
          "name": "thresholdM",
          "type": "uint32"
        },
        {
          "internalType": "uint32",
          "name": "thresholdN",
          "type": "uint32"
        },
        {
          "internalType": "bool",
          "name": "viable",
          "type": "bool"
        }
      ],
      "stateMutability": "view",
      "type": "function"
    },
    {
      "inputs": [
        {
          "internalType": "address",
          "name": "_owner",
          "type": "address"
        },
        {
          "internalType": "uint256",
          "name": "_submissionWindow",
          "type": "uint256"
        }
      ],
      "name": "initialize",
      "outputs": [],
      "stateMutability": "nonpayable",
      "type": "function"
    },
    {
      "inputs": [
        {
          "internalType": "address",
          "name": "node",
          "type": "address"
        }
      ],
      "name": "isCiphernodeEligible",
      "outputs": [
        {
          "internalType": "bool",
          "name": "",
          "type": "bool"
        }
      ],
      "stateMutability": "view",
      "type": "function"
    },
    {
      "inputs": [
        {
          "internalType": "uint256",
          "name": "e3Id",
          "type": "uint256"
        },
        {
          "internalType": "address",
          "name": "node",
          "type": "address"
        }
      ],
      "name": "isCommitteeMember",
      "outputs": [
        {
          "internalType": "bool",
          "name": "",
          "type": "bool"
        }
      ],
      "stateMutability": "view",
      "type": "function"
    },
    {
      "inputs": [
        {
          "internalType": "uint256",
          "name": "e3Id",
          "type": "uint256"
        },
        {
          "internalType": "address",
          "name": "node",
          "type": "address"
        }
      ],
      "name": "isCommitteeMemberActive",
      "outputs": [
        {
          "internalType": "bool",
          "name": "",
          "type": "bool"
        }
      ],
      "stateMutability": "view",
      "type": "function"
    },
    {
      "inputs": [
        {
          "internalType": "address",
          "name": "node",
          "type": "address"
        }
      ],
      "name": "isEnabled",
      "outputs": [
        {
          "internalType": "bool",
          "name": "",
          "type": "bool"
        }
      ],
      "stateMutability": "view",
      "type": "function"
    },
    {
      "inputs": [
        {
          "internalType": "uint256",
          "name": "e3Id",
          "type": "uint256"
        }
      ],
      "name": "isOpen",
      "outputs": [
        {
          "internalType": "bool",
          "name": "",
          "type": "bool"
        }
      ],
      "stateMutability": "view",
      "type": "function"
    },
    {
      "inputs": [],
      "name": "numCiphernodes",
      "outputs": [
        {
          "internalType": "uint256",
          "name": "",
          "type": "uint256"
        }
      ],
      "stateMutability": "view",
      "type": "function"
    },
    {
      "inputs": [],
      "name": "owner",
      "outputs": [
        {
          "internalType": "address",
          "name": "",
          "type": "address"
        }
      ],
      "stateMutability": "view",
      "type": "function"
    },
    {
      "inputs": [
        {
          "internalType": "uint256",
          "name": "e3Id",
          "type": "uint256"
        }
      ],
      "name": "publicKeyHashes",
      "outputs": [
        {
          "internalType": "bytes32",
          "name": "publicKeyHash",
          "type": "bytes32"
        }
      ],
      "stateMutability": "view",
      "type": "function"
    },
    {
      "inputs": [
        {
          "internalType": "uint256",
          "name": "e3Id",
          "type": "uint256"
        },
        {
          "internalType": "address[]",
          "name": "nodes",
          "type": "address[]"
        },
        {
          "internalType": "bytes",
          "name": "publicKey",
          "type": "bytes"
        },
        {
          "internalType": "bytes",
          "name": "proof",
          "type": "bytes"
        }
      ],
      "name": "publishCommittee",
      "outputs": [],
      "stateMutability": "nonpayable",
      "type": "function"
    },
    {
      "inputs": [
        {
          "internalType": "address",
          "name": "node",
          "type": "address"
        }
      ],
      "name": "removeCiphernode",
      "outputs": [],
      "stateMutability": "nonpayable",
      "type": "function"
    },
    {
      "inputs": [],
      "name": "renounceOwnership",
      "outputs": [],
      "stateMutability": "nonpayable",
      "type": "function"
    },
    {
      "inputs": [
        {
          "internalType": "uint256",
          "name": "e3Id",
          "type": "uint256"
        },
        {
          "internalType": "uint256",
          "name": "seed",
          "type": "uint256"
        },
        {
          "internalType": "uint32[2]",
          "name": "threshold",
          "type": "uint32[2]"
        }
      ],
      "name": "requestCommittee",
      "outputs": [
        {
          "internalType": "bool",
          "name": "success",
          "type": "bool"
        }
      ],
      "stateMutability": "nonpayable",
      "type": "function"
    },
    {
      "inputs": [],
      "name": "root",
      "outputs": [
        {
          "internalType": "uint256",
          "name": "",
          "type": "uint256"
        }
      ],
      "stateMutability": "view",
      "type": "function"
    },
    {
      "inputs": [
        {
          "internalType": "uint256",
          "name": "e3Id",
          "type": "uint256"
        }
      ],
      "name": "rootAt",
      "outputs": [
        {
          "internalType": "uint256",
          "name": "",
          "type": "uint256"
        }
      ],
      "stateMutability": "view",
      "type": "function"
    },
    {
      "inputs": [
        {
          "internalType": "uint256",
          "name": "e3Id",
          "type": "uint256"
        }
      ],
      "name": "roots",
      "outputs": [
        {
          "internalType": "uint256",
          "name": "root",
          "type": "uint256"
        }
      ],
      "stateMutability": "view",
      "type": "function"
    },
    {
      "inputs": [
        {
          "internalType": "contract IBondingRegistry",
          "name": "_bondingRegistry",
          "type": "address"
        }
      ],
      "name": "setBondingRegistry",
      "outputs": [],
      "stateMutability": "nonpayable",
      "type": "function"
    },
    {
      "inputs": [
        {
          "internalType": "contract IEnclave",
          "name": "_enclave",
          "type": "address"
        }
      ],
      "name": "setEnclave",
      "outputs": [],
      "stateMutability": "nonpayable",
      "type": "function"
    },
    {
      "inputs": [
        {
          "internalType": "contract ISlashingManager",
          "name": "_slashingManager",
          "type": "address"
        }
      ],
      "name": "setSlashingManager",
      "outputs": [],
      "stateMutability": "nonpayable",
      "type": "function"
    },
    {
      "inputs": [
        {
          "internalType": "uint256",
          "name": "_sortitionSubmissionWindow",
          "type": "uint256"
        }
      ],
      "name": "setSortitionSubmissionWindow",
      "outputs": [],
      "stateMutability": "nonpayable",
      "type": "function"
    },
    {
      "inputs": [],
      "name": "slashingManager",
      "outputs": [
        {
          "internalType": "contract ISlashingManager",
          "name": "",
          "type": "address"
        }
      ],
      "stateMutability": "view",
      "type": "function"
    },
    {
      "inputs": [],
      "name": "sortitionSubmissionWindow",
      "outputs": [
        {
          "internalType": "uint256",
          "name": "",
          "type": "uint256"
        }
      ],
      "stateMutability": "view",
      "type": "function"
    },
    {
      "inputs": [
        {
          "internalType": "uint256",
          "name": "e3Id",
          "type": "uint256"
        },
        {
          "internalType": "uint256",
          "name": "ticketNumber",
          "type": "uint256"
        }
      ],
      "name": "submitTicket",
      "outputs": [],
      "stateMutability": "nonpayable",
      "type": "function"
    },
    {
      "inputs": [
        {
          "internalType": "address",
          "name": "newOwner",
          "type": "address"
        }
      ],
      "name": "transferOwnership",
      "outputs": [],
      "stateMutability": "nonpayable",
      "type": "function"
    },
    {
      "inputs": [],
      "name": "treeSize",
      "outputs": [
        {
          "internalType": "uint256",
          "name": "",
          "type": "uint256"
        }
      ],
      "stateMutability": "view",
      "type": "function"
    }
  ],
  "bytecode": "0x6080604052348015600e575f5ffd5b5060156019565b60c9565b7ff0c57e16840df040f15088dc2f81fe391c3923bec73e23a9662efc9c229c6a00805468010000000000000000900460ff161560685760405163f92ee8a960e01b815260040160405180910390fd5b80546001600160401b039081161460c65780546001600160401b0319166001600160401b0390811782556040519081527fc7f505b2f371ae2175ee4913f4499e1f2633a7b5936321eed1cdaeb6115181d29060200160405180910390a15b50565b613962806100d65f395ff3fe608060405234801561000f575f5ffd5b506004361061023f575f3560e01c80639a7a2ffc11610135578063dbb06c93116100b4578063f165053611610079578063f16505361461056a578063f2fde38b14610584578063f379b0df14610597578063f52fd803146105d1578063f6fc05d514610643575f5ffd5b8063dbb06c9314610517578063e59e469514610529578063e6745e131461053c578063e82f3b701461054f578063ebf0c71714610562575f5ffd5b8063c2b40ae4116100fa578063c2b40ae4146104a2578063c3a0ec30146104c1578063ca2869a0146104d2578063cd6dc687146104f1578063da881e5a14610504575f5ffd5b80639a7a2ffc146104245780639f0f874a14610460578063a016493014610469578063a8a4d69b1461047c578063bff232c11461048f575f5ffd5b806370e36bbe116101c15780638cb89ecb116101865780638cb89ecb146103c15780638d1ddfb1146103e05780638da5cb5b146103f65780638e5ce3ad146103fe5780639015d37114610411575f5ffd5b806370e36bbe14610346578063715018a6146103595780637c92f52414610361578063858142431461038e5780638a78bb15146103ae575f5ffd5b80632e7b716d116102075780632e7b716d146102d85780634d6861a6146102eb57806350e6d94c146102fe5780635d504776146103205780635e1d33bd14610333575f5ffd5b8063096b810a146102435780630f3e34121461025857806317d611201461026b5780632800d82914610294578063291a691b146102b5575b5f5ffd5b610256610251366004613098565b61064c565b005b6102566102663660046130b3565b610798565b61027e6102793660046130b3565b6107db565b60405161028b91906130ca565b60405180910390f35b6102a76102a23660046130b3565b61091d565b60405190815260200161028b565b6102c86102c3366004613115565b610969565b604051901515815260200161028b565b6102c86102e6366004613098565b610b43565b6102c86102f93660046130b3565b610bf6565b6102c861030c366004613098565b60066020525f908152604090205460ff1681565b6102c861032e36600461314e565b610c35565b6102566103413660046131c0565b610c79565b610256610354366004613098565b610e76565b610256610eec565b61037461036f366004613296565b610eff565b6040805192835263ffffffff90911660208301520161028b565b6001546103a1906001600160a01b031681565b60405161028b91906132cb565b6102566103bc366004613098565b6110a6565b6102a76103cf3660046130b3565b60096020525f908152604090205481565b600454600160281b900464ffffffffff166102a7565b6103a16111e4565b600b546103a1906001600160a01b031681565b6102c861041f366004613098565b611212565b61044a610432366004613098565b60076020525f908152604090205464ffffffffff1681565b60405164ffffffffff909116815260200161028b565b6102a760035481565b61027e6104773660046130b3565b61122f565b6102c861048a36600461314e565b6112c5565b61025661049d366004613098565b611309565b6102a76104b03660046130b3565b60086020525f908152604090205481565b6001546001600160a01b03166103a1565b6102a76104e03660046130b3565b5f9081526008602052604090205490565b6102566104ff3660046132df565b61135a565b6102c86105123660046130b3565b6114b7565b5f546103a1906001600160a01b031681565b610256610537366004613098565b6116ea565b61025661054a366004613309565b611762565b6102a761055d3660046130b3565b611925565b6102a7611956565b610572601481565b60405160ff909116815260200161028b565b610256610592366004613098565b611968565b6004546105b39064ffffffffff80821691600160281b90041682565b6040805164ffffffffff93841681529290911660208301520161028b565b6106146105df3660046130b3565b5f908152600a6020819052604090912090810154600590910154909163ffffffff80831692600160201b900416908284101590565b60405161028b949392919093845263ffffffff9283166020850152911660408301521515606082015260800190565b6102a760025481565b6106546111e4565b6001600160a01b0316336001600160a01b0316148061067d57506001546001600160a01b031633145b61069a57604051632864c4e160e01b815260040160405180910390fd5b6106a381611212565b81906106cc576040516381e5828960e01b81526004016106c391906132cb565b60405180910390fd5b506001600160a01b0381165f9081526007602052604081205464ffffffffff16906106fa90600490836119a2565b6001600160a01b0382165f908152600660205260408120805460ff1916905560028054916107278361333d565b90915550506002546004546040805164ffffffffff80861682526020820194909452600160281b909204909216918101919091526001600160a01b038316907f8c008e3835f6c79bfcdb89f0f6ca8705e0b01049ee84a90b0e4da1c7ba9405d5906060015b60405180910390a25050565b6107a0611c44565b60038190556040518181527fbe772dc189863d512fa01e489c8eac204975aef1a8662d8b5a333804b5207ab79060200160405180910390a150565b5f818152600a602081905260408220600681015491810154606093919291816001600160401b0381111561081157610811613352565b60405190808252806020026020018201604052801561083a578160200160208202803683370190505b5090505f805b84811015610911576001866009015f8860060184815481106108645761086461337a565b5f9182526020808320909101546001600160a01b0316835282019290925260400190205460ff16600281111561089c5761089c613366565b03610909578560060181815481106108b6576108b661337a565b905f5260205f20015f9054906101000a90046001600160a01b03168383815181106108e3576108e361337a565b6001600160a01b0390921660209283029190910190910152816109058161338e565b9250505b600101610840565b50909695505050505050565b5f818152600a6020526040812081815460ff16600381111561094157610941613366565b0361095f57604051630d4c1d9760e41b815260040160405180910390fd5b6003015492915050565b5f80546001600160a01b031633146109945760405163e4c2a7eb60e01b815260040160405180910390fd5b5f848152600a6020526040812090815460ff1660038111156109b8576109b8613366565b146109d6576040516374ff462560e11b815260040160405180910390fd5b60015460408051630cc37d8f60e11b815290515f926001600160a01b031691631986fb1e9160048083019260209291908290030181865afa158015610a1d573d5f5f3e3d5ffd5b505050506040513d601f19601f82011682018060405250810190610a4191906133a6565b905080610a5460408601602087016133d0565b63ffffffff161115610a6c60408601602087016133d0565b829091610a9a576040516344ec930f60e01b815263ffffffff909216600483015260248201526044016106c3565b5050815460ff1916600190811783558201859055436002830155600354610ac190426133e9565b6003830155610ad560058301856002612fcf565b50610ade611956565b5f87815260086020526040908190209190915560028301546003840154915188927f381d281d32f95ef8fe4e5f3b263ea6a32d03d331e1a141ae1da996dc02a7a17092610b2f928a928a92916133fc565b60405180910390a250600195945050505050565b5f610b4d82611212565b610b5857505f919050565b6001546001600160a01b0316610b81576040516350ca893360e01b815260040160405180910390fd5b600154604051639f8a13d760e01b81526001600160a01b0390911690639f8a13d790610bb19085906004016132cb565b602060405180830381865afa158015610bcc573d5f5f3e3d5ffd5b505050506040513d601f19601f82011682018060405250810190610bf0919061344c565b92915050565b5f818152600a602052604081206001815460ff166003811115610c1b57610c1b613366565b14610c2857505f92915050565b6003015442111592915050565b5f60015f848152600a602090815260408083206001600160a01b038716845260090190915290205460ff166002811115610c7157610c71613366565b149392505050565b610c81611c44565b5f878152600a602052604090206002815460ff166003811115610ca657610ca6613366565b14610cc457604051634f4b461f60e11b815260040160405180910390fd5b600481015415610ce75760405163632a22bb60e01b815260040160405180910390fd5b60068101548614610d305760405162461bcd60e51b815260206004820152601360248201527209cdec8ca40c6deeadce840dad2e6dac2e8c6d606b1b60448201526064016106c3565b5f610d3d8385018561351a565b9150505f815111610d875760405162461bcd60e51b815260206004820152601460248201527343353a206e6f207075626c696320696e7075747360601b60448201526064016106c3565b5f8160018351610d9791906135d6565b81518110610da757610da761337a565b60209081029190910181015160048086018290555f8d815260099093526040808420839055925492516302b4363560e21b81529193506001600160a01b0390921691630ad0d8d491610dff918e918a918a9101613611565b5f604051808303815f87803b158015610e16575f5ffd5b505af1158015610e28573d5f5f3e3d5ffd5b50505050897ff7472ea3a028fe8a86ab1c9a3e2176b284c8c3a22675c101e0fa21c140b6678d8a8a8a8a604051610e629493929190613633565b60405180910390a250505050505050505050565b610e7e611c44565b6001600160a01b038116610ea55760405163d92e233d60e01b815260040160405180910390fd5b5f80546001600160a01b0319166001600160a01b038316908117825560405190917f2c8267accd82e977550ed2349c73311183cd22e306347be4453c8d130995e3c991a250565b610ef4611c44565b610efd5f611c76565b565b600b545f9081906001600160a01b03163314610f2e5760405163fcef374960e01b815260040160405180910390fd5b5f858152600a602052604090206002815460ff166003811115610f5357610f53613366565b14610f7157604051634f4b461f60e11b815260040160405180910390fd5b60058101546001600160a01b0386165f90815260098301602052604090205463ffffffff909116925060019060ff166002811115610fb157610fb1613366565b14610fc157600a0154915061109e565b6001600160a01b0385165f9081526009820160205260408120805460ff19166002179055600a8201805491610ff58361333d565b919050555080600a01549250846001600160a01b0316867f6c783b92374361b4d6efaf29673b89437ee969bb3c9d2d5d86b143ad5447b8498686604051611046929190918252602082015260400190565b60405180910390a36040805184815263ffffffff84166020820181905285101591810182905287907f119cb11dd0a68c257d6dc9b06dcb37dd422ce276eb8bf3cd0b7079a116b8e2989060600160405180910390a250505b935093915050565b6110ae6111e4565b6001600160a01b0316336001600160a01b031614806110d757506001546001600160a01b031633145b6110f457604051632864c4e160e01b815260040160405180910390fd5b6110fd81611212565b6111e15760048054600160281b900464ffffffffff1690611127906001600160a01b038416611ce6565b6001600160a01b0382165f908152600660209081526040808320805460ff1916600117905560079091528120805464ffffffffff841664ffffffffff1990911617905560028054916111788361338e565b90915550506002546004546040805164ffffffffff80861682526020820194909452600160281b909204909216918101919091526001600160a01b038316907f3318d261fe14a5761d2d1e21555652f623d2134c430a9883c9ad6e958bb0db539060600161078c565b50565b7f9016d09d72d40fdae2fd8ceac6b6234c7706214fd39c1cd1e609a0528c199300546001600160a01b031690565b6001600160a01b03165f9081526006602052604090205460ff1690565b5f818152600a60205260409020600481015460609190611262576040516322e679e360e11b815260040160405180910390fd5b806006018054806020026020016040519081016040528092919081815260200182805480156112b857602002820191905f5260205f20905b81546001600160a01b0316815260019091019060200180831161129a575b5050505050915050919050565b5f805f848152600a602090815260408083206001600160a01b038716845260090190915290205460ff16600281111561130057611300613366565b14159392505050565b611311611c44565b6001600160a01b0381166113385760405163d92e233d60e01b815260040160405180910390fd5b600b80546001600160a01b0319166001600160a01b0392909216919091179055565b5f611363611ebc565b805490915060ff600160401b82041615906001600160401b03165f811580156113895750825b90505f826001600160401b031660011480156113a45750303b155b9050811580156113b2575080155b156113d05760405163f92ee8a960e01b815260040160405180910390fd5b845467ffffffffffffffff1916600117855583156113fa57845460ff60401b1916600160401b1785555b6001600160a01b0387166114215760405163d92e233d60e01b815260040160405180910390fd5b61142a33611ee4565b61143660046014611ef5565b61143f86610798565b6114476111e4565b6001600160a01b0316876001600160a01b0316146114685761146887611968565b83156114ae57845460ff60401b19168555604051600181527fc7f505b2f371ae2175ee4913f4499e1f2633a7b5936321eed1cdaeb6115181d29060200160405180910390a15b50505050505050565b5f818152600a6020526040812081815460ff1660038111156114db576114db613366565b036114f957604051630d4c1d9760e41b815260040160405180910390fd5b6001815460ff16600381111561151157611511613366565b1461152f57604051631860f69960e31b815260040160405180910390fd5b8060030154421161155357604051632f021e8d60e11b815260040160405180910390fd5b60058101546006820154600160201b90910463ffffffff16111580611638578154600360ff199091161782556006820154600583015460408051928352600160201b90910463ffffffff16602083015285917fecc4a9fb7e28d074cba7f5b227e9b5827823c850a385539b9a2f98a08f8c203d910160405180910390a25f54604051635d968dc160e11b815260048101869052600260248201526001600160a01b039091169063bb2d1b82906044015f604051808303815f87803b158015611619575f5ffd5b505af115801561162b573d5f5f3e3d5ffd5b505f979650505050505050565b815460ff191660021782556006820154600a8301555f54604051631f3ea75d60e21b8152600481018690526001600160a01b0390911690637cfa9d74906024015f604051808303815f87803b15801561168f575f5ffd5b505af11580156116a1573d5f5f3e3d5ffd5b50505050837fed38c6266ebed7c01d311349a7fa67e0ef0f1d2f4760d60dbb34ca4799a2e132836006016040516116d89190613695565b60405180910390a25060019392505050565b6116f2611c44565b6001600160a01b0381166117195760405163d92e233d60e01b815260040160405180910390fd5b600180546001600160a01b0319166001600160a01b0383169081179091556040517fad4055f18cdad6f4bdd71afe3a72cbeee964217943e1bde38f138289e981a9a7905f90a250565b5f828152600a6020526040812090815460ff16600381111561178657611786613366565b036117a457604051630d4c1d9760e41b815260040160405180910390fd5b6001815460ff1660038111156117bc576117bc613366565b146117da57604051631860f69960e31b815260040160405180910390fd5b80600301544211156117ff57604051639a19114d60e01b815260040160405180910390fd5b335f90815260078201602052604090205460ff16156118315760405163257309f160e11b815260040160405180910390fd5b61183a33610b43565b6118575760405163149fbcfd60e11b815260040160405180910390fd5b611862338385611f74565b6001810154604080516bffffffffffffffffffffffff193360601b16602080830191909152603482018690526054820187905260748083019490945282518083039094018452609490910190915281519101205f90335f8181526007850160205260409020805460ff191660011790559091506118e190839083612145565b506040805184815260208101839052339186917f52999628fb1cb05707e842278833b22e511f11746202cecdf221968b0b89e8bd910160405180910390a350505050565b5f8181526009602052604090205480611951576040516322e679e360e11b815260040160405180910390fd5b919050565b5f61196360046014612346565b905090565b611970611c44565b6001600160a01b038116611999575f604051631e4fbdf760e01b81526004016106c391906132cb565b6111e181611c76565b7f30644e72e131a029b85045b68181585d2833e84879b9709143e1f593f000000182106119e15760405162461bcd60e51b81526004016106c3906136d8565b825464ffffffffff600160281b90910481169082168111611a3f5760405162461bcd60e51b815260206004820152601860248201527713185e9e5253550e881b195859881b5d5cdd08195e1a5cdd60421b60448201526064016106c3565b825f5b81866001015f611a52848861243f565b64ffffffffff1681526020019081526020015f20819055505f816001611a789190613722565b60ff168464ffffffffff16901c64ffffffffff16905060018564ffffffffff16901c64ffffffffff168111611aad5750611c3c565b600185165f03611b74575f611acc83611ac788600161373b565b61243f565b60408051808201825286815264ffffffffff83165f90815260018c0160209081529083902054908201529051632b0aac7f60e11b815291925073__$078c82ddf6c95d34ea184ef1dd6130d136$__9163561558fe91611b2d91600401613758565b602060405180830381865af4158015611b48573d5f5f3e3d5ffd5b505050506040513d601f19601f82011682018060405250810190611b6c91906133a6565b935050611c28565b5f611b8483611ac7600189613788565b60408051808201825264ffffffffff83165f90815260018c0160209081529083902054825281018790529051632b0aac7f60e11b815291925073__$078c82ddf6c95d34ea184ef1dd6130d136$__9163561558fe91611be591600401613758565b602060405180830381865af4158015611c00573d5f5f3e3d5ffd5b505050506040513d601f19601f82011682018060405250810190611c2491906133a6565b9350505b50647fffffffff600194851c169301611a42565b505050505050565b33611c4d6111e4565b6001600160a01b031614610efd573360405163118cdaa760e01b81526004016106c391906132cb565b7f9016d09d72d40fdae2fd8ceac6b6234c7706214fd39c1cd1e609a0528c19930080546001600160a01b031981166001600160a01b03848116918217845560405192169182907f8be0079c531659141344cd1fd0a4f28419497f9722a3daafe3b4186f6b6457e0905f90a3505050565b8154600160281b900464ffffffffff167f30644e72e131a029b85045b68181585d2833e84879b9709143e1f593f00000018210611d355760405162461bcd60e51b81526004016106c3906136d8565b825464ffffffffff90811690821610611d885760405162461bcd60e51b815260206004820152601560248201527413185e9e5253550e881d1c9959481a5cc8199d5b1b605a1b60448201526064016106c3565b611d9381600161373b565b835464ffffffffff91909116600160281b0269ffffffffff000000000019909116178355815f5b81856001015f611dca848761243f565b64ffffffffff16815260208101919091526040015f20556001831615611eb5575f611dfa82611ac7600187613788565b60408051808201825264ffffffffff83165f90815260018a0160209081529083902054825281018690529051632b0aac7f60e11b815291925073__$078c82ddf6c95d34ea184ef1dd6130d136$__9163561558fe91611e5b91600401613758565b602060405180830381865af4158015611e76573d5f5f3e3d5ffd5b505050506040513d601f19601f82011682018060405250810190611e9a91906133a6565b647fffffffff600195861c1694909350919091019050611dba565b5050505050565b5f807ff0c57e16840df040f15088dc2f81fe391c3923bec73e23a9662efc9c229c6a00610bf0565b611eec61245c565b6111e181612481565b602060ff82161115611f435760405162461bcd60e51b81526020600482015260176024820152764c617a79494d543a205472656520746f6f206c6172676560481b60448201526064016106c3565b611f54600160ff831681901b6135d6565b825469ffffffffffffffffffff191664ffffffffff919091161790915550565b5f8211611f945760405163aeaddff160e01b815260040160405180910390fd5b6001546001600160a01b0316611fbd576040516350ca893360e01b815260040160405180910390fd5b5f818152600a602052604081206001805460028301549293926001600160a01b039091169163bb03bd71918891611ff3916135d6565b6040516001600160e01b031960e085901b1681526001600160a01b0390921660048301526024820152604401602060405180830381865afa15801561203a573d5f5f3e3d5ffd5b505050506040513d601f19601f8201168201806040525081019061205e91906133a6565b90505f60015f9054906101000a90046001600160a01b03166001600160a01b0316631209b1f66040518163ffffffff1660e01b8152600401602060405180830381865afa1580156120b1573d5f5f3e3d5ffd5b505050506040513d601f19601f820116820180604052508101906120d591906133a6565b90505f81116120f75760405163aeaddff160e01b815260040160405180910390fd5b5f61210282846137a5565b90505f81116121245760405163149fbcfd60e11b815260040160405180910390fd5b808611156114ae5760405163aeaddff160e01b815260040160405180910390fd5b60058301546006840180545f92600160201b900463ffffffff16908111156121c357508054600180820183555f928352602080842090920180546001600160a01b0319166001600160a01b03881690811790915583526008870182526040808420869055600988019092529120805460ff191682179055905061233f565b5f5f90505f876008015f855f815481106121df576121df61337a565b5f9182526020808320909101546001600160a01b03168352820192909252604001902054905060015b8454811015612267575f896008015f8784815481106122295761222961337a565b5f9182526020808320909101546001600160a01b0316835282019290925260400190205490508281111561225e578092508193505b50600101612208565b5080861061227b575f94505050505061233f565b5f886009015f8685815481106122935761229361337a565b5f9182526020808320909101546001600160a01b031683528201929092526040019020805460ff191660018360028111156122d0576122d0613366565b0217905550868483815481106122e8576122e861337a565b5f91825260208083209190910180546001600160a01b0319166001600160a01b03948516179055918916815260088a018252604080822089905560098b0190925220805460ff191660019081179091559450505050505b9392505050565b5f5f8260ff16116123995760405162461bcd60e51b815260206004820152601a60248201527f4c617a79494d543a206465707468206d757374206265203e203000000000000060448201526064016106c3565b602060ff831611156123bd5760405162461bcd60e51b81526004016106c3906137c4565b8254600160281b900464ffffffffff16806123dc60ff85166002613915565b64ffffffffff16101561242c5760405162461bcd60e51b8152602060048201526018602482015277098c2f4f2929aa87440c2dac4d2ceeadeeae640c8cae0e8d60431b60448201526064016106c3565b612437848285612489565b949350505050565b5f8161245260ff851663ffffffff61392e565b61233f919061373b565b612464612551565b610efd57604051631afcd79f60e31b815260040160405180910390fd5b61197061245c565b5f602060ff831611156124ae5760405162461bcd60e51b81526004016106c3906137c4565b8264ffffffffff165f036124cc576124c58261256a565b905061233f565b5f6124d8836001613722565b60ff166001600160401b038111156124f2576124f2613352565b60405190808252806020026020018201604052801561251b578160200160208202803683370190505b50905061252a85858584612c04565b808360ff168151811061253f5761253f61337a565b60200260200101519150509392505050565b5f61255a611ebc565b54600160401b900460ff16919050565b5f8160ff165f0361257c57505f919050565b8160ff166001036125ae57507f2098f5fb9e239eab3ceac3f27b81e481dc3124d55ffed523a839ee8446b64864919050565b8160ff166002036125e057507f1069673dcdb12263df301a6ff584a7ec261a44cb9dc68df067a4774460b1f1e1919050565b8160ff1660030361261257507f18f43331537ee2af2e3d758d50f72106467c6eea50371dd528d57eb2b856d238919050565b8160ff1660040361264457507f07f9d837cb17b0d36320ffe93ba52345f1b728571a568265caac97559dbc952a919050565b8160ff1660050361267657507f2b94cf5e8746b3f5c9631f4c5df32907a699c58c94b2ad4d7b5cec1639183f55919050565b8160ff166006036126a857507f2dee93c5a666459646ea7d22cca9e1bcfed71e6951b953611d11dda32ea09d78919050565b8160ff166007036126da57507f078295e5a22b84e982cf601eb639597b8b0515a88cb5ac7fa8a4aabe3c87349d919050565b8160ff1660080361270c57507f2fa5e5f18f6027a6501bec864564472a616b2e274a41211a444cbe3a99f3cc61919050565b8160ff1660090361273e57507f0e884376d0d8fd21ecb780389e941f66e45e7acce3e228ab3e2156a614fcd747919050565b8160ff16600a0361277057507f1b7201da72494f1e28717ad1a52eb469f95892f957713533de6175e5da190af2919050565b8160ff16600b036127a257507f1f8d8822725e36385200c0b201249819a6e6e1e4650808b5bebc6bface7d7636919050565b8160ff16600c036127d457507f2c5d82f66c914bafb9701589ba8cfcfb6162b0a12acf88a8d0879a0471b5f85a919050565b8160ff16600d0361280657507f14c54148a0940bb820957f5adf3fa1134ef5c4aaa113f4646458f270e0bfbfd0919050565b8160ff16600e0361283857507f190d33b12f986f961e10c0ee44d8b9af11be25588cad89d416118e4bf4ebe80c919050565b8160ff16600f0361286a57507f22f98aa9ce704152ac17354914ad73ed1167ae6596af510aa5b3649325e06c92919050565b8160ff1660100361289c57507f2a7c7c9b6ce5880b9f6f228d72bf6a575a526f29c66ecceef8b753d38bba7323919050565b8160ff166011036128ce57507f2e8186e558698ec1c67af9c14d463ffc470043c9c2988b954d75dd643f36b992919050565b8160ff1660120361290057507f0f57c5571e9a4eab49e2c8cf050dae948aef6ead647392273546249d1c1ff10f919050565b8160ff1660130361293257507f1830ee67b5fb554ad5f63d4388800e1cfe78e310697d46e43c9ce36134f72cca919050565b8160ff1660140361296457507f2134e76ac5d21aab186c2be1dd8f84ee880a1e46eaf712f9d371b6df22191f3e919050565b8160ff1660150361299657507f19df90ec844ebc4ffeebd866f33859b0c051d8c958ee3aa88f8f8df3db91a5b1919050565b8160ff166016036129c857507f18cca2a66b5c0787981e69aefd84852d74af0e93ef4912b4648c05f722efe52b919050565b8160ff166017036129fa57507f2388909415230d1b4d1304d2d54f473a628338f2efad83fadf05644549d2538d919050565b8160ff16601803612a2c57507f27171fb4a97b6cc0e9e8f543b5294de866a2af2c9c8d0b1d96e673e4529ed540919050565b8160ff16601903612a5e57507f2ff6650540f629fd5711a0bc74fc0d28dcb230b9392583e5f8d59696dde6ae21919050565b8160ff16601a03612a9057507f120c58f143d491e95902f7f5277778a2e0ad5168f6add75669932630ce611518919050565b8160ff16601b03612ac257507f1f21feb70d3f21b07bf853d5e5db03071ec495a0a565a21da2d665d279483795919050565b8160ff16601c03612af457507f24be905fa71335e14c638cc0f66a8623a826e768068a9e968bb1a1dde18a72d2919050565b8160ff16601d03612b2657507f0f8666b62ed17491c50ceadead57d4cd597ef3821d65c328744c74e553dac26d919050565b8160ff16601e03612b5857507f0918d46bf52d98b034413f4a1a1c41594e7a7a3f6ae08cb43d1a2a230e1959ef919050565b8160ff16601f03612b8a57507f1bbeb01b4c479ecde76917645e404dfa2e26f90d0afc5a65128513ad375c5ff2919050565b8160ff16602003612bbc57507f2f68a1c58e257e42a17a6c61dff5551ed560b9922ab119d5ac8e184c9734ead9919050565b60405162461bcd60e51b815260206004820152601e60248201527f4c617a79494d543a2064656661756c745a65726f2062616420696e646578000060448201526064016106c3565b602060ff83161115612c285760405162461bcd60e51b81526004016106c3906137c4565b5f8364ffffffffff1611612c8c5760405162461bcd60e51b815260206004820152602560248201527f4c617a79494d543a206e756d626572206f66206c6561766573206d7573742062604482015264065203e20360dc1b60648201526084016106c3565b5f612c98600185613788565b9050600181165f03612ceb57846001015f612cb35f8461243f565b64ffffffffff1681526020019081526020015f2054825f81518110612cda57612cda61337a565b602002602001018181525050612d13565b612cf45f61256a565b825f81518110612d0657612d0661337a565b6020026020010181815250505b5f5b8360ff168160ff161015611c3c57600182165f03612e0b5773__$078c82ddf6c95d34ea184ef1dd6130d136$__63561558fe6040518060400160405280868560ff1681518110612d6757612d6761337a565b60200260200101518152602001612d7d8561256a565b8152506040518263ffffffff1660e01b8152600401612d9c9190613758565b602060405180830381865af4158015612db7573d5f5f3e3d5ffd5b505050506040513d601f19601f82011682018060405250810190612ddb91906133a6565b83612de7836001613722565b60ff1681518110612dfa57612dfa61337a565b602002602001018181525050612fbc565b5f612e17826001613722565b60ff168664ffffffffff16901c64ffffffffff16905060018364ffffffffff16901c64ffffffffff16811115612eb9575f876001015f612e6e856001612e5d9190613722565b60018864ffffffffff16901c61243f565b64ffffffffff1681526020019081526020015f205490508085846001612e949190613722565b60ff1681518110612ea757612ea761337a565b60200260200101818152505050612fba565b5f876001015f612ed085600188611ac79190613788565b64ffffffffff1681526020019081526020015f2054905073__$078c82ddf6c95d34ea184ef1dd6130d136$__63561558fe6040518060400160405280848152602001888760ff1681518110612f2757612f2761337a565b60200260200101518152506040518263ffffffff1660e01b8152600401612f4e9190613758565b602060405180830381865af4158015612f69573d5f5f3e3d5ffd5b505050506040513d601f19601f82011682018060405250810190612f8d91906133a6565b85612f99856001613722565b60ff1681518110612fac57612fac61337a565b602002602001018181525050505b505b647fffffffff600192831c169101612d15565b600183019183908215613060579160200282015f5b8382111561302e57833563ffffffff1683826101000a81548163ffffffff021916908363ffffffff1602179055509260200192600401602081600301049283019260010302612fe4565b801561305e5782816101000a81549063ffffffff021916905560040160208160030104928301926001030261302e565b505b5061306c929150613070565b5090565b5b8082111561306c575f8155600101613071565b6001600160a01b03811681146111e1575f5ffd5b5f602082840312156130a8575f5ffd5b813561233f81613084565b5f602082840312156130c3575f5ffd5b5035919050565b602080825282518282018190525f918401906040840190835b8181101561310a5783516001600160a01b03168352602093840193909201916001016130e3565b509095945050505050565b5f5f5f60808486031215613127575f5ffd5b833592506020840135915060808401851015613141575f5ffd5b6040840190509250925092565b5f5f6040838503121561315f575f5ffd5b82359150602083013561317181613084565b809150509250929050565b5f5f83601f84011261318c575f5ffd5b5081356001600160401b038111156131a2575f5ffd5b6020830191508360208285010111156131b9575f5ffd5b9250929050565b5f5f5f5f5f5f5f6080888a0312156131d6575f5ffd5b8735965060208801356001600160401b038111156131f2575f5ffd5b8801601f81018a13613202575f5ffd5b80356001600160401b03811115613217575f5ffd5b8a60208260051b840101111561322b575f5ffd5b6020919091019650945060408801356001600160401b0381111561324d575f5ffd5b6132598a828b0161317c565b90955093505060608801356001600160401b03811115613277575f5ffd5b6132838a828b0161317c565b989b979a50959850939692959293505050565b5f5f5f606084860312156132a8575f5ffd5b8335925060208401356132ba81613084565b929592945050506040919091013590565b6001600160a01b0391909116815260200190565b5f5f604083850312156132f0575f5ffd5b82356132fb81613084565b946020939093013593505050565b5f5f6040838503121561331a575f5ffd5b50508035926020909101359150565b634e487b7160e01b5f52601160045260245ffd5b5f8161334b5761334b613329565b505f190190565b634e487b7160e01b5f52604160045260245ffd5b634e487b7160e01b5f52602160045260245ffd5b634e487b7160e01b5f52603260045260245ffd5b5f6001820161339f5761339f613329565b5060010190565b5f602082840312156133b6575f5ffd5b5051919050565b803563ffffffff81168114611951575f5ffd5b5f602082840312156133e0575f5ffd5b61233f826133bd565b80820180821115610bf057610bf0613329565b84815260a0810160208201855f5b60028110156134375763ffffffff613421836133bd565b168352602092830192919091019060010161340a565b50505060608201939093526080015292915050565b5f6020828403121561345c575f5ffd5b8151801515811461233f575f5ffd5b604051601f8201601f191681016001600160401b038111828210171561349357613493613352565b604052919050565b5f82601f8301126134aa575f5ffd5b81356001600160401b038111156134c3576134c3613352565b8060051b6134d36020820161346b565b918252602081850181019290810190868411156134ee575f5ffd5b6020860192505b838310156135105782358252602092830192909101906134f5565b9695505050505050565b5f5f6040838503121561352b575f5ffd5b82356001600160401b03811115613540575f5ffd5b8301601f81018513613550575f5ffd5b80356001600160401b0381111561356957613569613352565b61357c601f8201601f191660200161346b565b818152866020838501011115613590575f5ffd5b816020840160208301375f6020838301015280945050505060208301356001600160401b038111156135c0575f5ffd5b6135cc8582860161349b565b9150509250929050565b81810381811115610bf057610bf0613329565b81835281816020850137505f828201602090810191909152601f909101601f19169091010190565b838152604060208201525f61362a6040830184866135e9565b95945050505050565b604080825281018490525f8560608301825b8781101561367557823561365881613084565b6001600160a01b0316825260209283019290910190600101613645565b5083810360208501526136898186886135e9565b98975050505050505050565b602080825282548282018190525f848152918220906040840190835b8181101561310a5783546001600160a01b03168352600193840193602090930192016136b1565b6020808252602a908201527f4c617a79494d543a206c656166206d757374206265203c20534e41524b5f53436040820152691053105497d19251531160b21b606082015260800190565b60ff8181168382160190811115610bf057610bf0613329565b64ffffffffff8181168382160190811115610bf057610bf0613329565b6040810181835f5b600281101561377f578151835260209283019290910190600101613760565b50505092915050565b64ffffffffff8281168282160390811115610bf057610bf0613329565b5f826137bf57634e487b7160e01b5f52601260045260245ffd5b500490565b60208082526023908201527f4c617a79494d543a206465707468206d757374206265203c3d204d41585f44456040820152620a0a8960eb1b606082015260800190565b6001815b600184111561109e5780850481111561382657613826613329565b600184161561383457908102905b60019390931c92800261380b565b5f8261385057506001610bf0565b8161385c57505f610bf0565b8160018114613872576002811461387c576138ae565b6001915050610bf0565b60ff84111561388d5761388d613329565b6001841b915064ffffffffff8211156138a8576138a8613329565b50610bf0565b5060208310610133831016604e8410600b84101617156138e6575081810a64ffffffffff8111156138e1576138e1613329565b610bf0565b6138f664ffffffffff8484613807565b8064ffffffffff0482111561390d5761390d613329565b029392505050565b5f61233f64ffffffffff841664ffffffffff8416613842565b64ffffffffff818116838216029081169081811461394e5761394e613329565b509291505056fea164736f6c634300081c000a",
  "linkReferences": {
    "npm/poseidon-solidity@0.0.5/PoseidonT3.sol": {
      "PoseidonT3": [
        {
          "length": 20,
          "start": 7133
        },
        {
          "length": 20,
          "start": 7317
        },
        {
          "length": 20,
          "start": 7947
        },
        {
          "length": 20,
          "start": 11781
        },
        {
          "length": 20,
          "start": 12223
        }
      ]
    }
  },
  "deployedLinkReferences": {
    "npm/poseidon-solidity@0.0.5/PoseidonT3.sol": {
      "PoseidonT3": [
        {
          "length": 20,
          "start": 6919
        },
        {
          "length": 20,
          "start": 7103
        },
        {
          "length": 20,
          "start": 7733
        },
        {
          "length": 20,
          "start": 11567
        },
        {
          "length": 20,
          "start": 12009
        }
      ]
    }
  },
  "immutableReferences": {},
  "inputSourceName": "project/contracts/registry/CiphernodeRegistryOwnable.sol",
  "buildInfoId": "solc-0_8_28-16cf43f6814888a6b7f512f8d4a2a360fcb66d4c"
}