{
  "_format": "hh3-artifact-1",
  "contractName": "CiphernodeRegistryOwnable",
  "sourceName": "contracts/registry/CiphernodeRegistryOwnable.sol",
  "abi": [
    {
      "inputs": [],
      "stateMutability": "nonpayable",
      "type": "constructor"
    },
    {
      "inputs": [],
      "name": "BondingRegistryNotSet",
      "type": "error"
    },
    {
      "inputs": [
        {
          "internalType": "address",
          "name": "node",
          "type": "address"
        }
      ],
      "name": "CiphernodeNotEnabled",
      "type": "error"
    },
    {
      "inputs": [],
      "name": "CommitteeAlreadyFinalized",
      "type": "error"
    },
    {
      "inputs": [],
      "name": "CommitteeAlreadyPublished",
      "type": "error"
    },
    {
      "inputs": [],
      "name": "CommitteeAlreadyRequested",
      "type": "error"
    },
    {
      "inputs": [],
      "name": "CommitteeDeadlineReached",
      "type": "error"
    },
    {
      "inputs": [],
      "name": "CommitteeNotFinalized",
      "type": "error"
    },
    {
      "inputs": [],
      "name": "CommitteeNotInitializedOrFinalized",
      "type": "error"
    },
    {
      "inputs": [],
      "name": "CommitteeNotPublished",
      "type": "error"
    },
    {
      "inputs": [],
      "name": "CommitteeNotRequested",
      "type": "error"
    },
    {
      "inputs": [
        {
          "internalType": "uint256",
          "name": "requested",
          "type": "uint256"
        },
        {
          "internalType": "uint256",
          "name": "available",
          "type": "uint256"
        }
      ],
      "name": "InsufficientCiphernodes",
      "type": "error"
    },
    {
      "inputs": [],
      "name": "InvalidInitialization",
      "type": "error"
    },
    {
      "inputs": [],
      "name": "InvalidTicketNumber",
      "type": "error"
    },
    {
      "inputs": [],
      "name": "NodeAlreadySubmitted",
      "type": "error"
    },
    {
      "inputs": [
        {
          "internalType": "address",
          "name": "node",
          "type": "address"
        }
      ],
      "name": "NodeNotBonded",
      "type": "error"
    },
    {
      "inputs": [],
      "name": "NodeNotEligible",
      "type": "error"
    },
    {
      "inputs": [],
      "name": "NodeNotSubmitted",
      "type": "error"
    },
    {
      "inputs": [],
      "name": "NotInitializing",
      "type": "error"
    },
    {
      "inputs": [],
      "name": "NotOwnerOrBondingRegistry",
      "type": "error"
    },
    {
      "inputs": [],
      "name": "NotSlashingManager",
      "type": "error"
    },
    {
      "inputs": [],
      "name": "OnlyBondingRegistry",
      "type": "error"
    },
    {
      "inputs": [],
      "name": "OnlyEnclave",
      "type": "error"
    },
    {
      "inputs": [
        {
          "internalType": "address",
          "name": "owner",
          "type": "address"
        }
      ],
      "name": "OwnableInvalidOwner",
      "type": "error"
    },
    {
      "inputs": [
        {
          "internalType": "address",
          "name": "account",
          "type": "address"
        }
      ],
      "name": "OwnableUnauthorizedAccount",
      "type": "error"
    },
    {
      "inputs": [],
      "name": "SubmissionWindowClosed",
      "type": "error"
    },
    {
      "inputs": [],
      "name": "SubmissionWindowNotClosed",
      "type": "error"
    },
    {
      "inputs": [],
      "name": "ThresholdNotMet",
      "type": "error"
    },
    {
      "inputs": [],
      "name": "Unauthorized",
      "type": "error"
    },
    {
      "inputs": [],
      "name": "ZeroAddress",
      "type": "error"
    },
    {
      "anonymous": false,
      "inputs": [
        {
          "indexed": true,
          "internalType": "address",
          "name": "bondingRegistry",
          "type": "address"
        }
      ],
      "name": "BondingRegistrySet",
      "type": "event"
    },
    {
      "anonymous": false,
      "inputs": [
        {
          "indexed": true,
          "internalType": "address",
          "name": "node",
          "type": "address"
        },
        {
          "indexed": false,
          "internalType": "uint256",
          "name": "index",
          "type": "uint256"
        },
        {
          "indexed": false,
          "internalType": "uint256",
          "name": "numNodes",
          "type": "uint256"
        },
        {
          "indexed": false,
          "internalType": "uint256",
          "name": "size",
          "type": "uint256"
        }
      ],
      "name": "CiphernodeAdded",
      "type": "event"
    },
    {
      "anonymous": false,
      "inputs": [
        {
          "indexed": true,
          "internalType": "address",
          "name": "node",
          "type": "address"
        },
        {
          "indexed": false,
          "internalType": "uint256",
          "name": "index",
          "type": "uint256"
        },
        {
          "indexed": false,
          "internalType": "uint256",
          "name": "numNodes",
          "type": "uint256"
        },
        {
          "indexed": false,
          "internalType": "uint256",
          "name": "size",
          "type": "uint256"
        }
      ],
      "name": "CiphernodeRemoved",
      "type": "event"
    },
    {
      "anonymous": false,
      "inputs": [
        {
          "indexed": true,
          "internalType": "uint256",
          "name": "e3Id",
          "type": "uint256"
        },
        {
          "indexed": false,
          "internalType": "bool",
          "name": "active",
          "type": "bool"
        }
      ],
      "name": "CommitteeActivationChanged",
      "type": "event"
    },
    {
      "anonymous": false,
      "inputs": [
        {
          "indexed": true,
          "internalType": "uint256",
          "name": "e3Id",
          "type": "uint256"
        },
        {
          "indexed": false,
          "internalType": "address[]",
          "name": "committee",
          "type": "address[]"
        },
        {
          "indexed": false,
          "internalType": "uint256[]",
          "name": "scores",
          "type": "uint256[]"
        }
      ],
      "name": "CommitteeFinalized",
      "type": "event"
    },
    {
      "anonymous": false,
      "inputs": [
        {
          "indexed": true,
          "internalType": "uint256",
          "name": "e3Id",
          "type": "uint256"
        },
        {
          "indexed": false,
          "internalType": "uint256",
          "name": "nodesSubmitted",
          "type": "uint256"
        },
        {
          "indexed": false,
          "internalType": "uint256",
          "name": "thresholdRequired",
          "type": "uint256"
        }
      ],
      "name": "CommitteeFormationFailed",
      "type": "event"
    },
    {
      "anonymous": false,
      "inputs": [
        {
          "indexed": true,
          "internalType": "uint256",
          "name": "e3Id",
          "type": "uint256"
        },
        {
          "indexed": true,
          "internalType": "address",
          "name": "node",
          "type": "address"
        },
        {
          "indexed": false,
          "internalType": "bytes32",
          "name": "reason",
          "type": "bytes32"
        },
        {
          "indexed": false,
          "internalType": "uint256",
          "name": "activeCountAfter",
          "type": "uint256"
        }
      ],
      "name": "CommitteeMemberExpelled",
      "type": "event"
    },
    {
      "anonymous": false,
      "inputs": [
        {
          "indexed": true,
          "internalType": "uint256",
          "name": "e3Id",
          "type": "uint256"
        },
        {
          "indexed": false,
          "internalType": "address[]",
          "name": "nodes",
          "type": "address[]"
        },
        {
          "indexed": false,
          "internalType": "bytes",
          "name": "publicKey",
          "type": "bytes"
        },
        {
          "indexed": false,
          "internalType": "bytes32",
          "name": "pkCommitment",
          "type": "bytes32"
        },
        {
          "indexed": false,
          "internalType": "bytes",
          "name": "proof",
          "type": "bytes"
        }
      ],
      "name": "CommitteePublished",
      "type": "event"
    },
    {
      "anonymous": false,
      "inputs": [
        {
          "indexed": true,
          "internalType": "uint256",
          "name": "e3Id",
          "type": "uint256"
        },
        {
          "indexed": false,
          "internalType": "uint256",
          "name": "seed",
          "type": "uint256"
        },
        {
          "indexed": false,
          "internalType": "uint32[2]",
          "name": "threshold",
          "type": "uint32[2]"
        },
        {
          "indexed": false,
          "internalType": "uint256",
          "name": "requestBlock",
          "type": "uint256"
        },
        {
          "indexed": false,
          "internalType": "uint256",
          "name": "committeeDeadline",
          "type": "uint256"
        }
      ],
      "name": "CommitteeRequested",
      "type": "event"
    },
    {
      "anonymous": false,
      "inputs": [
        {
          "indexed": true,
          "internalType": "uint256",
          "name": "e3Id",
          "type": "uint256"
        },
        {
          "indexed": false,
          "internalType": "uint256",
          "name": "activeCount",
          "type": "uint256"
        },
        {
          "indexed": false,
          "internalType": "uint256",
          "name": "thresholdM",
          "type": "uint256"
        },
        {
          "indexed": false,
          "internalType": "bool",
          "name": "viable",
          "type": "bool"
        }
      ],
      "name": "CommitteeViabilityUpdated",
      "type": "event"
    },
    {
      "anonymous": false,
      "inputs": [
        {
          "indexed": true,
          "internalType": "address",
          "name": "enclave",
          "type": "address"
        }
      ],
      "name": "EnclaveSet",
      "type": "event"
    },
    {
      "anonymous": false,
      "inputs": [
        {
          "indexed": false,
          "internalType": "uint64",
          "name": "version",
          "type": "uint64"
        }
      ],
      "name": "Initialized",
      "type": "event"
    },
    {
      "anonymous": false,
      "inputs": [
        {
          "indexed": true,
          "internalType": "address",
          "name": "previousOwner",
          "type": "address"
        },
        {
          "indexed": true,
          "internalType": "address",
          "name": "newOwner",
          "type": "address"
        }
      ],
      "name": "OwnershipTransferred",
      "type": "event"
    },
    {
      "anonymous": false,
      "inputs": [
        {
          "indexed": false,
          "internalType": "uint256",
          "name": "sortitionSubmissionWindow",
          "type": "uint256"
        }
      ],
      "name": "SortitionSubmissionWindowSet",
      "type": "event"
    },
    {
      "anonymous": false,
      "inputs": [
        {
          "indexed": true,
          "internalType": "uint256",
          "name": "e3Id",
          "type": "uint256"
        },
        {
          "indexed": true,
          "internalType": "address",
          "name": "node",
          "type": "address"
        },
        {
          "indexed": false,
          "internalType": "uint256",
          "name": "ticketId",
          "type": "uint256"
        },
        {
          "indexed": false,
          "internalType": "uint256",
          "name": "score",
          "type": "uint256"
        }
      ],
      "name": "TicketSubmitted",
      "type": "event"
    },
    {
      "inputs": [],
      "name": "TREE_DEPTH",
      "outputs": [
        {
          "internalType": "uint8",
          "name": "",
          "type": "uint8"
        }
      ],
      "stateMutability": "view",
      "type": "function"
    },
    {
      "inputs": [
        {
          "internalType": "address",
          "name": "node",
          "type": "address"
        }
      ],
      "name": "addCiphernode",
      "outputs": [],
      "stateMutability": "nonpayable",
      "type": "function"
    },
    {
      "inputs": [],
      "name": "bondingRegistry",
      "outputs": [
        {
          "internalType": "contract IBondingRegistry",
          "name": "",
          "type": "address"
        }
      ],
      "stateMutability": "view",
      "type": "function"
    },
    {
      "inputs": [
        {
          "internalType": "address",
          "name": "node",
          "type": "address"
        }
      ],
      "name": "ciphernodeEnabled",
      "outputs": [
        {
          "internalType": "bool",
          "name": "enabled",
          "type": "bool"
        }
      ],
      "stateMutability": "view",
      "type": "function"
    },
    {
      "inputs": [
        {
          "internalType": "address",
          "name": "node",
          "type": "address"
        }
      ],
      "name": "ciphernodeTreeIndex",
      "outputs": [
        {
          "internalType": "uint40",
          "name": "index",
          "type": "uint40"
        }
      ],
      "stateMutability": "view",
      "type": "function"
    },
    {
      "inputs": [],
      "name": "ciphernodes",
      "outputs": [
        {
          "internalType": "uint40",
          "name": "maxIndex",
          "type": "uint40"
        },
        {
          "internalType": "uint40",
          "name": "numberOfLeaves",
          "type": "uint40"
        }
      ],
      "stateMutability": "view",
      "type": "function"
    },
    {
      "inputs": [
        {
          "internalType": "uint256",
          "name": "e3Id",
          "type": "uint256"
        }
      ],
      "name": "committeePublicKey",
      "outputs": [
        {
          "internalType": "bytes32",
          "name": "publicKeyHash",
          "type": "bytes32"
        }
      ],
      "stateMutability": "view",
      "type": "function"
    },
    {
      "inputs": [],
      "name": "enclave",
      "outputs": [
        {
          "internalType": "contract IEnclave",
          "name": "",
          "type": "address"
        }
      ],
      "stateMutability": "view",
      "type": "function"
    },
    {
      "inputs": [
        {
          "internalType": "uint256",
          "name": "e3Id",
          "type": "uint256"
        },
        {
          "internalType": "address",
          "name": "node",
          "type": "address"
        },
        {
          "internalType": "bytes32",
          "name": "reason",
          "type": "bytes32"
        }
      ],
      "name": "expelCommitteeMember",
      "outputs": [
        {
          "internalType": "uint256",
          "name": "activeCount",
          "type": "uint256"
        },
        {
          "internalType": "uint32",
          "name": "thresholdM",
          "type": "uint32"
        }
      ],
      "stateMutability": "nonpayable",
      "type": "function"
    },
    {
      "inputs": [
        {
          "internalType": "uint256",
          "name": "e3Id",
          "type": "uint256"
        }
      ],
      "name": "finalizeCommittee",
      "outputs": [
        {
          "internalType": "bool",
          "name": "success",
          "type": "bool"
        }
      ],
      "stateMutability": "nonpayable",
      "type": "function"
    },
    {
      "inputs": [
        {
          "internalType": "uint256",
          "name": "e3Id",
          "type": "uint256"
        }
      ],
      "name": "getActiveCommitteeNodes",
      "outputs": [
        {
          "internalType": "address[]",
          "name": "nodes",
          "type": "address[]"
        },
        {
          "internalType": "uint256[]",
          "name": "scores",
          "type": "uint256[]"
        }
      ],
      "stateMutability": "view",
      "type": "function"
    },
    {
      "inputs": [],
      "name": "getBondingRegistry",
      "outputs": [
        {
          "internalType": "address",
          "name": "",
          "type": "address"
        }
      ],
      "stateMutability": "view",
      "type": "function"
    },
    {
      "inputs": [
        {
          "internalType": "uint256",
          "name": "e3Id",
          "type": "uint256"
        }
      ],
      "name": "getCommitteeDeadline",
      "outputs": [
        {
          "internalType": "uint256",
          "name": "",
          "type": "uint256"
        }
      ],
      "stateMutability": "view",
      "type": "function"
    },
    {
      "inputs": [
        {
          "internalType": "uint256",
          "name": "e3Id",
          "type": "uint256"
        }
      ],
      "name": "getCommitteeNodes",
      "outputs": [
        {
          "internalType": "address[]",
          "name": "nodes",
          "type": "address[]"
        }
      ],
      "stateMutability": "view",
      "type": "function"
    },
    {
      "inputs": [
        {
          "internalType": "uint256",
          "name": "e3Id",
          "type": "uint256"
        }
      ],
      "name": "getCommitteeViability",
      "outputs": [
        {
          "internalType": "uint256",
          "name": "activeCount",
          "type": "uint256"
        },
        {
          "internalType": "uint32",
          "name": "thresholdM",
          "type": "uint32"
        },
        {
          "internalType": "uint32",
          "name": "thresholdN",
          "type": "uint32"
        },
        {
          "internalType": "bool",
          "name": "viable",
          "type": "bool"
        }
      ],
      "stateMutability": "view",
      "type": "function"
    },
    {
      "inputs": [
        {
          "internalType": "address",
          "name": "_owner",
          "type": "address"
        },
        {
          "internalType": "uint256",
          "name": "_submissionWindow",
          "type": "uint256"
        }
      ],
      "name": "initialize",
      "outputs": [],
      "stateMutability": "nonpayable",
      "type": "function"
    },
    {
      "inputs": [
        {
          "internalType": "address",
          "name": "node",
          "type": "address"
        }
      ],
      "name": "isCiphernodeEligible",
      "outputs": [
        {
          "internalType": "bool",
          "name": "",
          "type": "bool"
        }
      ],
      "stateMutability": "view",
      "type": "function"
    },
    {
      "inputs": [
        {
          "internalType": "uint256",
          "name": "e3Id",
          "type": "uint256"
        },
        {
          "internalType": "address",
          "name": "node",
          "type": "address"
        }
      ],
      "name": "isCommitteeMember",
      "outputs": [
        {
          "internalType": "bool",
          "name": "",
          "type": "bool"
        }
      ],
      "stateMutability": "view",
      "type": "function"
    },
    {
      "inputs": [
        {
          "internalType": "uint256",
          "name": "e3Id",
          "type": "uint256"
        },
        {
          "internalType": "address",
          "name": "node",
          "type": "address"
        }
      ],
      "name": "isCommitteeMemberActive",
      "outputs": [
        {
          "internalType": "bool",
          "name": "",
          "type": "bool"
        }
      ],
      "stateMutability": "view",
      "type": "function"
    },
    {
      "inputs": [
        {
          "internalType": "address",
          "name": "node",
          "type": "address"
        }
      ],
      "name": "isEnabled",
      "outputs": [
        {
          "internalType": "bool",
          "name": "",
          "type": "bool"
        }
      ],
      "stateMutability": "view",
      "type": "function"
    },
    {
      "inputs": [
        {
          "internalType": "uint256",
          "name": "e3Id",
          "type": "uint256"
        }
      ],
      "name": "isOpen",
      "outputs": [
        {
          "internalType": "bool",
          "name": "",
          "type": "bool"
        }
      ],
      "stateMutability": "view",
      "type": "function"
    },
    {
      "inputs": [],
      "name": "numCiphernodes",
      "outputs": [
        {
          "internalType": "uint256",
          "name": "",
          "type": "uint256"
        }
      ],
      "stateMutability": "view",
      "type": "function"
    },
    {
      "inputs": [],
      "name": "owner",
      "outputs": [
        {
          "internalType": "address",
          "name": "",
          "type": "address"
        }
      ],
      "stateMutability": "view",
      "type": "function"
    },
    {
      "inputs": [
        {
          "internalType": "uint256",
          "name": "e3Id",
          "type": "uint256"
        }
      ],
      "name": "publicKeyHashes",
      "outputs": [
        {
          "internalType": "bytes32",
          "name": "publicKeyHash",
          "type": "bytes32"
        }
      ],
      "stateMutability": "view",
      "type": "function"
    },
    {
      "inputs": [
        {
          "internalType": "uint256",
          "name": "e3Id",
          "type": "uint256"
        },
        {
          "internalType": "address[]",
          "name": "nodes",
          "type": "address[]"
        },
        {
          "internalType": "bytes",
          "name": "publicKey",
          "type": "bytes"
        },
        {
          "internalType": "bytes32",
          "name": "pkCommitment",
          "type": "bytes32"
        },
        {
          "internalType": "bytes",
          "name": "proof",
          "type": "bytes"
        }
      ],
      "name": "publishCommittee",
      "outputs": [],
      "stateMutability": "nonpayable",
      "type": "function"
    },
    {
      "inputs": [
        {
          "internalType": "address",
          "name": "node",
          "type": "address"
        }
      ],
      "name": "removeCiphernode",
      "outputs": [],
      "stateMutability": "nonpayable",
      "type": "function"
    },
    {
      "inputs": [],
      "name": "renounceOwnership",
      "outputs": [],
      "stateMutability": "nonpayable",
      "type": "function"
    },
    {
      "inputs": [
        {
          "internalType": "uint256",
          "name": "e3Id",
          "type": "uint256"
        },
        {
          "internalType": "uint256",
          "name": "seed",
          "type": "uint256"
        },
        {
          "internalType": "uint32[2]",
          "name": "threshold",
          "type": "uint32[2]"
        }
      ],
      "name": "requestCommittee",
      "outputs": [
        {
          "internalType": "bool",
          "name": "success",
          "type": "bool"
        }
      ],
      "stateMutability": "nonpayable",
      "type": "function"
    },
    {
      "inputs": [],
      "name": "root",
      "outputs": [
        {
          "internalType": "uint256",
          "name": "",
          "type": "uint256"
        }
      ],
      "stateMutability": "view",
      "type": "function"
    },
    {
      "inputs": [
        {
          "internalType": "uint256",
          "name": "e3Id",
          "type": "uint256"
        }
      ],
      "name": "rootAt",
      "outputs": [
        {
          "internalType": "uint256",
          "name": "",
          "type": "uint256"
        }
      ],
      "stateMutability": "view",
      "type": "function"
    },
    {
      "inputs": [
        {
          "internalType": "uint256",
          "name": "e3Id",
          "type": "uint256"
        }
      ],
      "name": "roots",
      "outputs": [
        {
          "internalType": "uint256",
          "name": "root",
          "type": "uint256"
        }
      ],
      "stateMutability": "view",
      "type": "function"
    },
    {
      "inputs": [
        {
          "internalType": "contract IBondingRegistry",
          "name": "_bondingRegistry",
          "type": "address"
        }
      ],
      "name": "setBondingRegistry",
      "outputs": [],
      "stateMutability": "nonpayable",
      "type": "function"
    },
    {
      "inputs": [
        {
          "internalType": "contract IEnclave",
          "name": "_enclave",
          "type": "address"
        }
      ],
      "name": "setEnclave",
      "outputs": [],
      "stateMutability": "nonpayable",
      "type": "function"
    },
    {
      "inputs": [
        {
          "internalType": "contract ISlashingManager",
          "name": "_slashingManager",
          "type": "address"
        }
      ],
      "name": "setSlashingManager",
      "outputs": [],
      "stateMutability": "nonpayable",
      "type": "function"
    },
    {
      "inputs": [
        {
          "internalType": "uint256",
          "name": "_sortitionSubmissionWindow",
          "type": "uint256"
        }
      ],
      "name": "setSortitionSubmissionWindow",
      "outputs": [],
      "stateMutability": "nonpayable",
      "type": "function"
    },
    {
      "inputs": [],
      "name": "slashingManager",
      "outputs": [
        {
          "internalType": "contract ISlashingManager",
          "name": "",
          "type": "address"
        }
      ],
      "stateMutability": "view",
      "type": "function"
    },
    {
      "inputs": [],
      "name": "sortitionSubmissionWindow",
      "outputs": [
        {
          "internalType": "uint256",
          "name": "",
          "type": "uint256"
        }
      ],
      "stateMutability": "view",
      "type": "function"
    },
    {
      "inputs": [
        {
          "internalType": "uint256",
          "name": "e3Id",
          "type": "uint256"
        },
        {
          "internalType": "uint256",
          "name": "ticketNumber",
          "type": "uint256"
        }
      ],
      "name": "submitTicket",
      "outputs": [],
      "stateMutability": "nonpayable",
      "type": "function"
    },
    {
      "inputs": [
        {
          "internalType": "address",
          "name": "newOwner",
          "type": "address"
        }
      ],
      "name": "transferOwnership",
      "outputs": [],
      "stateMutability": "nonpayable",
      "type": "function"
    },
    {
      "inputs": [],
      "name": "treeSize",
      "outputs": [
        {
          "internalType": "uint256",
          "name": "",
          "type": "uint256"
        }
      ],
      "stateMutability": "view",
      "type": "function"
    }
  ],
  "bytecode": "0x6080604052348015600e575f5ffd5b5060156019565b60c9565b7ff0c57e16840df040f15088dc2f81fe391c3923bec73e23a9662efc9c229c6a00805468010000000000000000900460ff161560685760405163f92ee8a960e01b815260040160405180910390fd5b80546001600160401b039081161460c65780546001600160401b0319166001600160401b0390811782556040519081527fc7f505b2f371ae2175ee4913f4499e1f2633a7b5936321eed1cdaeb6115181d29060200160405180910390a15b50565b613d8e806100d65f395ff3fe608060405234801561000f575f5ffd5b506004361061023f575f3560e01c80639a7a2ffc11610135578063dbb06c93116100b4578063f165053611610079578063f165053614610578578063f2fde38b14610592578063f379b0df146105a5578063f52fd803146105df578063f6fc05d514610651575f5ffd5b8063dbb06c9314610525578063e59e469514610537578063e6745e131461054a578063e82f3b701461055d578063ebf0c71714610570575f5ffd5b8063c2b40ae4116100fa578063c2b40ae4146104b0578063c3a0ec30146104cf578063ca2869a0146104e0578063cd6dc687146104ff578063da881e5a14610512575f5ffd5b80639a7a2ffc146104255780639f0f874a14610461578063a01649301461046a578063a8a4d69b1461048a578063bff232c11461049d575f5ffd5b806370e36bbe116101c15780638cb89ecb116101865780638cb89ecb146103c25780638d1ddfb1146103e15780638da5cb5b146103f75780638e5ce3ad146103ff5780639015d37114610412575f5ffd5b806370e36bbe14610347578063715018a61461035a5780637c92f52414610362578063858142431461038f5780638a78bb15146103af575f5ffd5b8063291a691b11610207578063291a691b146102c95780632e7b716d146102ec5780634d6861a6146102ff57806350e6d94c146103125780635d50477614610334575f5ffd5b8063096b810a146102435780630f3e34121461025857806317d611201461026b5780631cc321b5146102955780632800d829146102a8575b5f5ffd5b6102566102513660046132dc565b61065a565b005b6102566102663660046132f7565b6107a6565b61027e6102793660046132f7565b6107e9565b60405161028c929190613381565b60405180910390f35b6102566102a33660046133f2565b610993565b6102bb6102b63660046132f7565b610cb7565b60405190815260200161028c565b6102dc6102d73660046134d1565b610d03565b604051901515815260200161028c565b6102dc6102fa3660046132dc565b610edd565b6102dc61030d3660046132f7565b610f90565b6102dc6103203660046132dc565b60066020525f908152604090205460ff1681565b6102dc61034236600461350a565b610fcf565b6102566103553660046132dc565b611013565b610256611089565b610375610370366004613538565b61109c565b6040805192835263ffffffff90911660208301520161028c565b6001546103a2906001600160a01b031681565b60405161028c919061356d565b6102566103bd3660046132dc565b611243565b6102bb6103d03660046132f7565b60096020525f908152604090205481565b600454600160281b900464ffffffffff166102bb565b6103a2611381565b600b546103a2906001600160a01b031681565b6102dc6104203660046132dc565b6113af565b61044b6104333660046132dc565b60076020525f908152604090205464ffffffffff1681565b60405164ffffffffff909116815260200161028c565b6102bb60035481565b61047d6104783660046132f7565b6113cc565b60405161028c9190613581565b6102dc61049836600461350a565b611462565b6102566104ab3660046132dc565b6114a6565b6102bb6104be3660046132f7565b60086020525f908152604090205481565b6001546001600160a01b03166103a2565b6102bb6104ee3660046132f7565b5f9081526008602052604090205490565b61025661050d366004613593565b6114f7565b6102dc6105203660046132f7565b611654565b5f546103a2906001600160a01b031681565b6102566105453660046132dc565b61192e565b6102566105583660046135bd565b6119a6565b6102bb61056b3660046132f7565b611b69565b6102bb611b9a565b610580601481565b60405160ff909116815260200161028c565b6102566105a03660046132dc565b611bac565b6004546105c19064ffffffffff80821691600160281b90041682565b6040805164ffffffffff93841681529290911660208301520161028c565b6106226105ed3660046132f7565b5f908152600a6020819052604090912090810154600590910154909163ffffffff80831692600160201b900416908284101590565b60405161028c949392919093845263ffffffff9283166020850152911660408301521515606082015260800190565b6102bb60025481565b610662611381565b6001600160a01b0316336001600160a01b0316148061068b57506001546001600160a01b031633145b6106a857604051632864c4e160e01b815260040160405180910390fd5b6106b1816113af565b81906106da576040516381e5828960e01b81526004016106d1919061356d565b60405180910390fd5b506001600160a01b0381165f9081526007602052604081205464ffffffffff16906107089060049083611be6565b6001600160a01b0382165f908152600660205260408120805460ff191690556002805491610735836135f1565b90915550506002546004546040805164ffffffffff80861682526020820194909452600160281b909204909216918101919091526001600160a01b038316907f8c008e3835f6c79bfcdb89f0f6ca8705e0b01049ee84a90b0e4da1c7ba9405d5906060015b60405180910390a25050565b6107ae611e88565b60038190556040518181527fbe772dc189863d512fa01e489c8eac204975aef1a8662d8b5a333804b5207ab79060200160405180910390a150565b5f818152600a60208190526040909120600681015491810154606092839291806001600160401b0381111561082057610820613606565b604051908082528060200260200182016040528015610849578160200160208202803683370190505b509450806001600160401b0381111561086457610864613606565b60405190808252806020026020018201604052801561088d578160200160208202803683370190505b5093505f805b83811015610989575f8560060182815481106108b1576108b161361a565b5f918252602090912001546001600160a01b0316905060016001600160a01b0382165f90815260098801602052604090205460ff1660028111156108f7576108f761362e565b03610980578088848151811061090f5761090f61361a565b60200260200101906001600160a01b031690816001600160a01b031681525050856008015f826001600160a01b03166001600160a01b031681526020019081526020015f20548784815181106109675761096761361a565b60209081029190910101528261097c81613642565b9350505b50600101610893565b5050505050915091565b5f888152600a602052604090206002815460ff1660038111156109b8576109b861362e565b146109d657604051634f4b461f60e11b815260040160405180910390fd5b6004810154156109f95760405163632a22bb60e01b815260040160405180910390fd5b60068101548714610a425760405162461bcd60e51b815260206004820152601360248201527209cdec8ca40c6deeadce840dad2e6dac2e8c6d606b1b60448201526064016106d1565b83610a875760405162461bcd60e51b81526020600482015260156024820152741c1ad0dbdb5b5a5d1b595b9d081c995c5d5a5c9959605a1b60448201526064016106d1565b5f805460405163101bb4d760e21b8152600481018c90526001600160a01b039091169063406ed35c906024015f60405180830381865afa158015610acd573d5f5f3e3d5ffd5b505050506040513d5f823e601f3d908101601f19168201604052610af491908101906137b0565b9050806101c0015115610bf35782610b3f5760405162461bcd60e51b815260206004820152600e60248201526d1c1c9bdbd9881c995c5d5a5c995960921b60448201526064016106d1565b8061012001516001600160a01b031663258ae5828686866040518463ffffffff1660e01b8152600401610b7493929190613936565b602060405180830381865afa158015610b8f573d5f5f3e3d5ffd5b505050506040513d601f19601f82011682018060405250810190610bb3919061394f565b610bf35760405162461bcd60e51b815260206004820152601160248201527024b73b30b634b2102225a390383937b7b360791b60448201526064016106d1565b60048281018690555f8b815260096020526040808220889055905490516340a3b76160e11b81529182018c9052602482018790526001600160a01b0316906381476ec2906044015f604051808303815f87803b158015610c51575f5ffd5b505af1158015610c63573d5f5f3e3d5ffd5b50505050897fbf0636a312095f6c09c909823813b50e392323588d2d83432e7512c64041e67f8a8a8a8a8a8a8a604051610ca39796959493929190613968565b60405180910390a250505050505050505050565b5f818152600a6020526040812081815460ff166003811115610cdb57610cdb61362e565b03610cf957604051630d4c1d9760e41b815260040160405180910390fd5b6003015492915050565b5f80546001600160a01b03163314610d2e5760405163e4c2a7eb60e01b815260040160405180910390fd5b5f848152600a6020526040812090815460ff166003811115610d5257610d5261362e565b14610d70576040516374ff462560e11b815260040160405180910390fd5b60015460408051630cc37d8f60e11b815290515f926001600160a01b031691631986fb1e9160048083019260209291908290030181865afa158015610db7573d5f5f3e3d5ffd5b505050506040513d601f19601f82011682018060405250810190610ddb91906139e8565b905080610dee6040860160208701613a12565b63ffffffff161115610e066040860160208701613a12565b829091610e34576040516344ec930f60e01b815263ffffffff909216600483015260248201526044016106d1565b5050815460ff1916600190811783558201859055436002830155600354610e5b9042613a2b565b6003830155610e6f60058301856002613213565b50610e78611b9a565b5f87815260086020526040908190209190915560028301546003840154915188927f381d281d32f95ef8fe4e5f3b263ea6a32d03d331e1a141ae1da996dc02a7a17092610ec9928a928a9291613a3e565b60405180910390a250600195945050505050565b5f610ee7826113af565b610ef257505f919050565b6001546001600160a01b0316610f1b576040516350ca893360e01b815260040160405180910390fd5b600154604051639f8a13d760e01b81526001600160a01b0390911690639f8a13d790610f4b90859060040161356d565b602060405180830381865afa158015610f66573d5f5f3e3d5ffd5b505050506040513d601f19601f82011682018060405250810190610f8a919061394f565b92915050565b5f818152600a602052604081206001815460ff166003811115610fb557610fb561362e565b14610fc257505f92915050565b6003015442111592915050565b5f60015f848152600a602090815260408083206001600160a01b038716845260090190915290205460ff16600281111561100b5761100b61362e565b149392505050565b61101b611e88565b6001600160a01b0381166110425760405163d92e233d60e01b815260040160405180910390fd5b5f80546001600160a01b0319166001600160a01b038316908117825560405190917f2c8267accd82e977550ed2349c73311183cd22e306347be4453c8d130995e3c991a250565b611091611e88565b61109a5f611eba565b565b600b545f9081906001600160a01b031633146110cb5760405163fcef374960e01b815260040160405180910390fd5b5f858152600a602052604090206002815460ff1660038111156110f0576110f061362e565b1461110e57604051634f4b461f60e11b815260040160405180910390fd5b60058101546001600160a01b0386165f90815260098301602052604090205463ffffffff909116925060019060ff16600281111561114e5761114e61362e565b1461115e57600a0154915061123b565b6001600160a01b0385165f9081526009820160205260408120805460ff19166002179055600a8201805491611192836135f1565b919050555080600a01549250846001600160a01b0316867f6c783b92374361b4d6efaf29673b89437ee969bb3c9d2d5d86b143ad5447b84986866040516111e3929190918252602082015260400190565b60405180910390a36040805184815263ffffffff84166020820181905285101591810182905287907f119cb11dd0a68c257d6dc9b06dcb37dd422ce276eb8bf3cd0b7079a116b8e2989060600160405180910390a250505b935093915050565b61124b611381565b6001600160a01b0316336001600160a01b0316148061127457506001546001600160a01b031633145b61129157604051632864c4e160e01b815260040160405180910390fd5b61129a816113af565b61137e5760048054600160281b900464ffffffffff16906112c4906001600160a01b038416611f2a565b6001600160a01b0382165f908152600660209081526040808320805460ff1916600117905560079091528120805464ffffffffff841664ffffffffff19909116179055600280549161131583613642565b90915550506002546004546040805164ffffffffff80861682526020820194909452600160281b909204909216918101919091526001600160a01b038316907f3318d261fe14a5761d2d1e21555652f623d2134c430a9883c9ad6e958bb0db539060600161079a565b50565b7f9016d09d72d40fdae2fd8ceac6b6234c7706214fd39c1cd1e609a0528c199300546001600160a01b031690565b6001600160a01b03165f9081526006602052604090205460ff1690565b5f818152600a602052604090206004810154606091906113ff576040516322e679e360e11b815260040160405180910390fd5b8060060180548060200260200160405190810160405280929190818152602001828054801561145557602002820191905f5260205f20905b81546001600160a01b03168152600190910190602001808311611437575b5050505050915050919050565b5f805f848152600a602090815260408083206001600160a01b038716845260090190915290205460ff16600281111561149d5761149d61362e565b14159392505050565b6114ae611e88565b6001600160a01b0381166114d55760405163d92e233d60e01b815260040160405180910390fd5b600b80546001600160a01b0319166001600160a01b0392909216919091179055565b5f611500612100565b805490915060ff600160401b82041615906001600160401b03165f811580156115265750825b90505f826001600160401b031660011480156115415750303b155b90508115801561154f575080155b1561156d5760405163f92ee8a960e01b815260040160405180910390fd5b845467ffffffffffffffff19166001178555831561159757845460ff60401b1916600160401b1785555b6001600160a01b0387166115be5760405163d92e233d60e01b815260040160405180910390fd5b6115c733612128565b6115d360046014612139565b6115dc866107a6565b6115e4611381565b6001600160a01b0316876001600160a01b0316146116055761160587611bac565b831561164b57845460ff60401b19168555604051600181527fc7f505b2f371ae2175ee4913f4499e1f2633a7b5936321eed1cdaeb6115181d29060200160405180910390a15b50505050505050565b5f818152600a6020526040812081815460ff1660038111156116785761167861362e565b0361169657604051630d4c1d9760e41b815260040160405180910390fd5b6001815460ff1660038111156116ae576116ae61362e565b146116cc57604051631860f69960e31b815260040160405180910390fd5b806003015442116116f057604051632f021e8d60e11b815260040160405180910390fd5b60058101546006820154600160201b90910463ffffffff161115806117d5578154600360ff199091161782556006820154600583015460408051928352600160201b90910463ffffffff16602083015285917fecc4a9fb7e28d074cba7f5b227e9b5827823c850a385539b9a2f98a08f8c203d910160405180910390a25f54604051635d968dc160e11b815260048101869052600260248201526001600160a01b039091169063bb2d1b82906044015f604051808303815f87803b1580156117b6575f5ffd5b505af11580156117c8573d5f5f3e3d5ffd5b505f979650505050505050565b815460ff191660021782556006820154600a83018190555f816001600160401b0381111561180557611805613606565b60405190808252806020026020018201604052801561182e578160200160208202803683370190505b5090505f5b828110156118a057846008015f8660060183815481106118555761185561361a565b5f9182526020808320909101546001600160a01b03168352820192909252604001902054825183908390811061188d5761188d61361a565b6020908102919091010152600101611833565b505f54604051631f3ea75d60e21b8152600481018890526001600160a01b0390911690637cfa9d74906024015f604051808303815f87803b1580156118e3575f5ffd5b505af11580156118f5573d5f5f3e3d5ffd5b50505050857f4f1f5b329c741a8ba15e9645e301061294d0c1fdd455448ffd5e76ff255929d78560060183604051610ec9929190613a8e565b611936611e88565b6001600160a01b03811661195d5760405163d92e233d60e01b815260040160405180910390fd5b600180546001600160a01b0319166001600160a01b0383169081179091556040517fad4055f18cdad6f4bdd71afe3a72cbeee964217943e1bde38f138289e981a9a7905f90a250565b5f828152600a6020526040812090815460ff1660038111156119ca576119ca61362e565b036119e857604051630d4c1d9760e41b815260040160405180910390fd5b6001815460ff166003811115611a0057611a0061362e565b14611a1e57604051631860f69960e31b815260040160405180910390fd5b8060030154421115611a4357604051639a19114d60e01b815260040160405180910390fd5b335f90815260078201602052604090205460ff1615611a755760405163257309f160e11b815260040160405180910390fd5b611a7e33610edd565b611a9b5760405163149fbcfd60e11b815260040160405180910390fd5b611aa63383856121b8565b6001810154604080516bffffffffffffffffffffffff193360601b16602080830191909152603482018690526054820187905260748083019490945282518083039094018452609490910190915281519101205f90335f8181526007850160205260409020805460ff19166001179055909150611b2590839083612389565b506040805184815260208101839052339186917f52999628fb1cb05707e842278833b22e511f11746202cecdf221968b0b89e8bd910160405180910390a350505050565b5f8181526009602052604090205480611b95576040516322e679e360e11b815260040160405180910390fd5b919050565b5f611ba76004601461258a565b905090565b611bb4611e88565b6001600160a01b038116611bdd575f604051631e4fbdf760e01b81526004016106d1919061356d565b61137e81611eba565b7f30644e72e131a029b85045b68181585d2833e84879b9709143e1f593f00000018210611c255760405162461bcd60e51b81526004016106d190613af1565b825464ffffffffff600160281b90910481169082168111611c835760405162461bcd60e51b815260206004820152601860248201527713185e9e5253550e881b195859881b5d5cdd08195e1a5cdd60421b60448201526064016106d1565b825f5b81866001015f611c968488612683565b64ffffffffff1681526020019081526020015f20819055505f816001611cbc9190613b3b565b60ff168464ffffffffff16901c64ffffffffff16905060018564ffffffffff16901c64ffffffffff168111611cf15750611e80565b600185165f03611db8575f611d1083611d0b886001613b54565b612683565b60408051808201825286815264ffffffffff83165f90815260018c0160209081529083902054908201529051632b0aac7f60e11b815291925073__$078c82ddf6c95d34ea184ef1dd6130d136$__9163561558fe91611d7191600401613b71565b602060405180830381865af4158015611d8c573d5f5f3e3d5ffd5b505050506040513d601f19601f82011682018060405250810190611db091906139e8565b935050611e6c565b5f611dc883611d0b600189613ba1565b60408051808201825264ffffffffff83165f90815260018c0160209081529083902054825281018790529051632b0aac7f60e11b815291925073__$078c82ddf6c95d34ea184ef1dd6130d136$__9163561558fe91611e2991600401613b71565b602060405180830381865af4158015611e44573d5f5f3e3d5ffd5b505050506040513d601f19601f82011682018060405250810190611e6891906139e8565b9350505b50647fffffffff600194851c169301611c86565b505050505050565b33611e91611381565b6001600160a01b03161461109a573360405163118cdaa760e01b81526004016106d1919061356d565b7f9016d09d72d40fdae2fd8ceac6b6234c7706214fd39c1cd1e609a0528c19930080546001600160a01b031981166001600160a01b03848116918217845560405192169182907f8be0079c531659141344cd1fd0a4f28419497f9722a3daafe3b4186f6b6457e0905f90a3505050565b8154600160281b900464ffffffffff167f30644e72e131a029b85045b68181585d2833e84879b9709143e1f593f00000018210611f795760405162461bcd60e51b81526004016106d190613af1565b825464ffffffffff90811690821610611fcc5760405162461bcd60e51b815260206004820152601560248201527413185e9e5253550e881d1c9959481a5cc8199d5b1b605a1b60448201526064016106d1565b611fd7816001613b54565b835464ffffffffff91909116600160281b0269ffffffffff000000000019909116178355815f5b81856001015f61200e8487612683565b64ffffffffff16815260208101919091526040015f205560018316156120f9575f61203e82611d0b600187613ba1565b60408051808201825264ffffffffff83165f90815260018a0160209081529083902054825281018690529051632b0aac7f60e11b815291925073__$078c82ddf6c95d34ea184ef1dd6130d136$__9163561558fe9161209f91600401613b71565b602060405180830381865af41580156120ba573d5f5f3e3d5ffd5b505050506040513d601f19601f820116820180604052508101906120de91906139e8565b647fffffffff600195861c1694909350919091019050611ffe565b5050505050565b5f807ff0c57e16840df040f15088dc2f81fe391c3923bec73e23a9662efc9c229c6a00610f8a565b6121306126a0565b61137e816126c5565b602060ff821611156121875760405162461bcd60e51b81526020600482015260176024820152764c617a79494d543a205472656520746f6f206c6172676560481b60448201526064016106d1565b612198600160ff831681901b613bbe565b825469ffffffffffffffffffff191664ffffffffff919091161790915550565b5f82116121d85760405163aeaddff160e01b815260040160405180910390fd5b6001546001600160a01b0316612201576040516350ca893360e01b815260040160405180910390fd5b5f818152600a602052604081206001805460028301549293926001600160a01b039091169163bb03bd7191889161223791613bbe565b6040516001600160e01b031960e085901b1681526001600160a01b0390921660048301526024820152604401602060405180830381865afa15801561227e573d5f5f3e3d5ffd5b505050506040513d601f19601f820116820180604052508101906122a291906139e8565b90505f60015f9054906101000a90046001600160a01b03166001600160a01b0316631209b1f66040518163ffffffff1660e01b8152600401602060405180830381865afa1580156122f5573d5f5f3e3d5ffd5b505050506040513d601f19601f8201168201806040525081019061231991906139e8565b90505f811161233b5760405163aeaddff160e01b815260040160405180910390fd5b5f6123468284613bd1565b90505f81116123685760405163149fbcfd60e11b815260040160405180910390fd5b8086111561164b5760405163aeaddff160e01b815260040160405180910390fd5b60058301546006840180545f92600160201b900463ffffffff169081111561240757508054600180820183555f928352602080842090920180546001600160a01b0319166001600160a01b03881690811790915583526008870182526040808420869055600988019092529120805460ff1916821790559050612583565b5f5f90505f876008015f855f815481106124235761242361361a565b5f9182526020808320909101546001600160a01b03168352820192909252604001902054905060015b84548110156124ab575f896008015f87848154811061246d5761246d61361a565b5f9182526020808320909101546001600160a01b031683528201929092526040019020549050828111156124a2578092508193505b5060010161244c565b508086106124bf575f945050505050612583565b5f886009015f8685815481106124d7576124d761361a565b5f9182526020808320909101546001600160a01b031683528201929092526040019020805460ff191660018360028111156125145761251461362e565b02179055508684838154811061252c5761252c61361a565b5f91825260208083209190910180546001600160a01b0319166001600160a01b03948516179055918916815260088a018252604080822089905560098b0190925220805460ff191660019081179091559450505050505b9392505050565b5f5f8260ff16116125dd5760405162461bcd60e51b815260206004820152601a60248201527f4c617a79494d543a206465707468206d757374206265203e203000000000000060448201526064016106d1565b602060ff831611156126015760405162461bcd60e51b81526004016106d190613bf0565b8254600160281b900464ffffffffff168061262060ff85166002613d41565b64ffffffffff1610156126705760405162461bcd60e51b8152602060048201526018602482015277098c2f4f2929aa87440c2dac4d2ceeadeeae640c8cae0e8d60431b60448201526064016106d1565b61267b8482856126cd565b949350505050565b5f8161269660ff851663ffffffff613d5a565b6125839190613b54565b6126a8612795565b61109a57604051631afcd79f60e31b815260040160405180910390fd5b611bb46126a0565b5f602060ff831611156126f25760405162461bcd60e51b81526004016106d190613bf0565b8264ffffffffff165f0361271057612709826127ae565b9050612583565b5f61271c836001613b3b565b60ff166001600160401b0381111561273657612736613606565b60405190808252806020026020018201604052801561275f578160200160208202803683370190505b50905061276e85858584612e48565b808360ff16815181106127835761278361361a565b60200260200101519150509392505050565b5f61279e612100565b54600160401b900460ff16919050565b5f8160ff165f036127c057505f919050565b8160ff166001036127f257507f2098f5fb9e239eab3ceac3f27b81e481dc3124d55ffed523a839ee8446b64864919050565b8160ff1660020361282457507f1069673dcdb12263df301a6ff584a7ec261a44cb9dc68df067a4774460b1f1e1919050565b8160ff1660030361285657507f18f43331537ee2af2e3d758d50f72106467c6eea50371dd528d57eb2b856d238919050565b8160ff1660040361288857507f07f9d837cb17b0d36320ffe93ba52345f1b728571a568265caac97559dbc952a919050565b8160ff166005036128ba57507f2b94cf5e8746b3f5c9631f4c5df32907a699c58c94b2ad4d7b5cec1639183f55919050565b8160ff166006036128ec57507f2dee93c5a666459646ea7d22cca9e1bcfed71e6951b953611d11dda32ea09d78919050565b8160ff1660070361291e57507f078295e5a22b84e982cf601eb639597b8b0515a88cb5ac7fa8a4aabe3c87349d919050565b8160ff1660080361295057507f2fa5e5f18f6027a6501bec864564472a616b2e274a41211a444cbe3a99f3cc61919050565b8160ff1660090361298257507f0e884376d0d8fd21ecb780389e941f66e45e7acce3e228ab3e2156a614fcd747919050565b8160ff16600a036129b457507f1b7201da72494f1e28717ad1a52eb469f95892f957713533de6175e5da190af2919050565b8160ff16600b036129e657507f1f8d8822725e36385200c0b201249819a6e6e1e4650808b5bebc6bface7d7636919050565b8160ff16600c03612a1857507f2c5d82f66c914bafb9701589ba8cfcfb6162b0a12acf88a8d0879a0471b5f85a919050565b8160ff16600d03612a4a57507f14c54148a0940bb820957f5adf3fa1134ef5c4aaa113f4646458f270e0bfbfd0919050565b8160ff16600e03612a7c57507f190d33b12f986f961e10c0ee44d8b9af11be25588cad89d416118e4bf4ebe80c919050565b8160ff16600f03612aae57507f22f98aa9ce704152ac17354914ad73ed1167ae6596af510aa5b3649325e06c92919050565b8160ff16601003612ae057507f2a7c7c9b6ce5880b9f6f228d72bf6a575a526f29c66ecceef8b753d38bba7323919050565b8160ff16601103612b1257507f2e8186e558698ec1c67af9c14d463ffc470043c9c2988b954d75dd643f36b992919050565b8160ff16601203612b4457507f0f57c5571e9a4eab49e2c8cf050dae948aef6ead647392273546249d1c1ff10f919050565b8160ff16601303612b7657507f1830ee67b5fb554ad5f63d4388800e1cfe78e310697d46e43c9ce36134f72cca919050565b8160ff16601403612ba857507f2134e76ac5d21aab186c2be1dd8f84ee880a1e46eaf712f9d371b6df22191f3e919050565b8160ff16601503612bda57507f19df90ec844ebc4ffeebd866f33859b0c051d8c958ee3aa88f8f8df3db91a5b1919050565b8160ff16601603612c0c57507f18cca2a66b5c0787981e69aefd84852d74af0e93ef4912b4648c05f722efe52b919050565b8160ff16601703612c3e57507f2388909415230d1b4d1304d2d54f473a628338f2efad83fadf05644549d2538d919050565b8160ff16601803612c7057507f27171fb4a97b6cc0e9e8f543b5294de866a2af2c9c8d0b1d96e673e4529ed540919050565b8160ff16601903612ca257507f2ff6650540f629fd5711a0bc74fc0d28dcb230b9392583e5f8d59696dde6ae21919050565b8160ff16601a03612cd457507f120c58f143d491e95902f7f5277778a2e0ad5168f6add75669932630ce611518919050565b8160ff16601b03612d0657507f1f21feb70d3f21b07bf853d5e5db03071ec495a0a565a21da2d665d279483795919050565b8160ff16601c03612d3857507f24be905fa71335e14c638cc0f66a8623a826e768068a9e968bb1a1dde18a72d2919050565b8160ff16601d03612d6a57507f0f8666b62ed17491c50ceadead57d4cd597ef3821d65c328744c74e553dac26d919050565b8160ff16601e03612d9c57507f0918d46bf52d98b034413f4a1a1c41594e7a7a3f6ae08cb43d1a2a230e1959ef919050565b8160ff16601f03612dce57507f1bbeb01b4c479ecde76917645e404dfa2e26f90d0afc5a65128513ad375c5ff2919050565b8160ff16602003612e0057507f2f68a1c58e257e42a17a6c61dff5551ed560b9922ab119d5ac8e184c9734ead9919050565b60405162461bcd60e51b815260206004820152601e60248201527f4c617a79494d543a2064656661756c745a65726f2062616420696e646578000060448201526064016106d1565b602060ff83161115612e6c5760405162461bcd60e51b81526004016106d190613bf0565b5f8364ffffffffff1611612ed05760405162461bcd60e51b815260206004820152602560248201527f4c617a79494d543a206e756d626572206f66206c6561766573206d7573742062604482015264065203e20360dc1b60648201526084016106d1565b5f612edc600185613ba1565b9050600181165f03612f2f57846001015f612ef75f84612683565b64ffffffffff1681526020019081526020015f2054825f81518110612f1e57612f1e61361a565b602002602001018181525050612f57565b612f385f6127ae565b825f81518110612f4a57612f4a61361a565b6020026020010181815250505b5f5b8360ff168160ff161015611e8057600182165f0361304f5773__$078c82ddf6c95d34ea184ef1dd6130d136$__63561558fe6040518060400160405280868560ff1681518110612fab57612fab61361a565b60200260200101518152602001612fc1856127ae565b8152506040518263ffffffff1660e01b8152600401612fe09190613b71565b602060405180830381865af4158015612ffb573d5f5f3e3d5ffd5b505050506040513d601f19601f8201168201806040525081019061301f91906139e8565b8361302b836001613b3b565b60ff168151811061303e5761303e61361a565b602002602001018181525050613200565b5f61305b826001613b3b565b60ff168664ffffffffff16901c64ffffffffff16905060018364ffffffffff16901c64ffffffffff168111156130fd575f876001015f6130b28560016130a19190613b3b565b60018864ffffffffff16901c612683565b64ffffffffff1681526020019081526020015f2054905080858460016130d89190613b3b565b60ff16815181106130eb576130eb61361a565b602002602001018181525050506131fe565b5f876001015f61311485600188611d0b9190613ba1565b64ffffffffff1681526020019081526020015f2054905073__$078c82ddf6c95d34ea184ef1dd6130d136$__63561558fe6040518060400160405280848152602001888760ff168151811061316b5761316b61361a565b60200260200101518152506040518263ffffffff1660e01b81526004016131929190613b71565b602060405180830381865af41580156131ad573d5f5f3e3d5ffd5b505050506040513d601f19601f820116820180604052508101906131d191906139e8565b856131dd856001613b3b565b60ff16815181106131f0576131f061361a565b602002602001018181525050505b505b647fffffffff600192831c169101612f59565b6001830191839082156132a4579160200282015f5b8382111561327257833563ffffffff1683826101000a81548163ffffffff021916908363ffffffff1602179055509260200192600401602081600301049283019260010302613228565b80156132a25782816101000a81549063ffffffff0219169055600401602081600301049283019260010302613272565b505b506132b09291506132b4565b5090565b5b808211156132b0575f81556001016132b5565b6001600160a01b038116811461137e575f5ffd5b5f602082840312156132ec575f5ffd5b8135612583816132c8565b5f60208284031215613307575f5ffd5b5035919050565b5f8151808452602084019350602083015f5b828110156133475781516001600160a01b0316865260209586019590910190600101613320565b5093949350505050565b5f8151808452602084019350602083015f5b82811015613347578151865260209586019590910190600101613363565b604081525f613393604083018561330e565b82810360208401526133a58185613351565b95945050505050565b5f5f83601f8401126133be575f5ffd5b5081356001600160401b038111156133d4575f5ffd5b6020830191508360208285010111156133eb575f5ffd5b9250929050565b5f5f5f5f5f5f5f5f60a0898b031215613409575f5ffd5b8835975060208901356001600160401b03811115613425575f5ffd5b8901601f81018b13613435575f5ffd5b80356001600160401b0381111561344a575f5ffd5b8b60208260051b840101111561345e575f5ffd5b6020919091019750955060408901356001600160401b03811115613480575f5ffd5b61348c8b828c016133ae565b9096509450506060890135925060808901356001600160401b038111156134b1575f5ffd5b6134bd8b828c016133ae565b999c989b5096995094979396929594505050565b5f5f5f608084860312156134e3575f5ffd5b8335925060208401359150608084018510156134fd575f5ffd5b6040840190509250925092565b5f5f6040838503121561351b575f5ffd5b82359150602083013561352d816132c8565b809150509250929050565b5f5f5f6060848603121561354a575f5ffd5b83359250602084013561355c816132c8565b929592945050506040919091013590565b6001600160a01b0391909116815260200190565b602081525f612583602083018461330e565b5f5f604083850312156135a4575f5ffd5b82356135af816132c8565b946020939093013593505050565b5f5f604083850312156135ce575f5ffd5b50508035926020909101359150565b634e487b7160e01b5f52601160045260245ffd5b5f816135ff576135ff6135dd565b505f190190565b634e487b7160e01b5f52604160045260245ffd5b634e487b7160e01b5f52603260045260245ffd5b634e487b7160e01b5f52602160045260245ffd5b5f60018201613653576136536135dd565b5060010190565b6040516101e081016001600160401b038111828210171561367d5761367d613606565b60405290565b805160048110611b95575f5ffd5b5f82601f8301126136a0575f5ffd5b604080519081016001600160401b03811182821017156136c2576136c2613606565b80604052508060408401858111156136d8575f5ffd5b845b818110156136f25780518352602092830192016136da565b509195945050505050565b8051611b95816132c8565b805160ff81168114611b95575f5ffd5b5f82601f830112613727575f5ffd5b81516001600160401b0381111561374057613740613606565b604051601f8201601f19908116603f011681016001600160401b038111828210171561376e5761376e613606565b604052818152838201602001851015613785575f5ffd5b8160208501602083015e5f918101602001919091529392505050565b80518015158114611b95575f5ffd5b5f602082840312156137c0575f5ffd5b81516001600160401b038111156137d5575f5ffd5b820161020081850312156137e7575f5ffd5b6137ef61365a565b815181526137ff60208301613683565b60208201526040828101519082015261381b8560608401613691565b606082015260a0820151608082015261383660c083016136fd565b60a082015261384760e08301613708565b60c08201526101008201516001600160401b03811115613865575f5ffd5b61387186828501613718565b60e08301525061388461012083016136fd565b61010082015261389761014083016136fd565b61012082015261016082810151610140830152610180830151908201526101a08201516001600160401b038111156138cd575f5ffd5b6138d986828501613718565b610180830152506138ed6101c083016136fd565b6101a08201526139006101e083016137a1565b6101c0820152949350505050565b81835281816020850137505f828201602090810191909152601f909101601f19169091010190565b838152604060208201525f6133a560408301848661390e565b5f6020828403121561395f575f5ffd5b612583826137a1565b608080825281018790525f8860a08301825b8a8110156139aa57823561398d816132c8565b6001600160a01b031682526020928301929091019060010161397a565b5083810360208501526139be81898b61390e565b91505085604084015282810360608401526139da81858761390e565b9a9950505050505050505050565b5f602082840312156139f8575f5ffd5b5051919050565b803563ffffffff81168114611b95575f5ffd5b5f60208284031215613a22575f5ffd5b612583826139ff565b80820180821115610f8a57610f8a6135dd565b84815260a0810160208201855f5b6002811015613a795763ffffffff613a63836139ff565b1683526020928301929190910190600101613a4c565b50505060608201939093526080015292915050565b604080825283549082018190525f8481526020812090916060840190835b81811015613ad35783546001600160a01b0316835260019384019360209093019201613aac565b50508381036020850152613ae78186613351565b9695505050505050565b6020808252602a908201527f4c617a79494d543a206c656166206d757374206265203c20534e41524b5f53436040820152691053105497d19251531160b21b606082015260800190565b60ff8181168382160190811115610f8a57610f8a6135dd565b64ffffffffff8181168382160190811115610f8a57610f8a6135dd565b6040810181835f5b6002811015613b98578151835260209283019290910190600101613b79565b50505092915050565b64ffffffffff8281168282160390811115610f8a57610f8a6135dd565b81810381811115610f8a57610f8a6135dd565b5f82613beb57634e487b7160e01b5f52601260045260245ffd5b500490565b60208082526023908201527f4c617a79494d543a206465707468206d757374206265203c3d204d41585f44456040820152620a0a8960eb1b606082015260800190565b6001815b600184111561123b57808504811115613c5257613c526135dd565b6001841615613c6057908102905b60019390931c928002613c37565b5f82613c7c57506001610f8a565b81613c8857505f610f8a565b8160018114613c9e5760028114613ca857613cda565b6001915050610f8a565b60ff841115613cb957613cb96135dd565b6001841b915064ffffffffff821115613cd457613cd46135dd565b50610f8a565b5060208310610133831016604e8410600b8410161715613d12575081810a64ffffffffff811115613d0d57613d0d6135dd565b610f8a565b613d2264ffffffffff8484613c33565b8064ffffffffff04821115613d3957613d396135dd565b029392505050565b5f61258364ffffffffff841664ffffffffff8416613c6e565b64ffffffffff8181168382160290811690818114613d7a57613d7a6135dd565b509291505056fea164736f6c634300081c000a",
  "linkReferences": {
    "npm/poseidon-solidity@0.0.5/PoseidonT3.sol": {
      "PoseidonT3": [
        {
          "length": 20,
          "start": 7713
        },
        {
          "length": 20,
          "start": 7897
        },
        {
          "length": 20,
          "start": 8527
        },
        {
          "length": 20,
          "start": 12361
        },
        {
          "length": 20,
          "start": 12803
        }
      ]
    }
  },
  "deployedLinkReferences": {
    "npm/poseidon-solidity@0.0.5/PoseidonT3.sol": {
      "PoseidonT3": [
        {
          "length": 20,
          "start": 7499
        },
        {
          "length": 20,
          "start": 7683
        },
        {
          "length": 20,
          "start": 8313
        },
        {
          "length": 20,
          "start": 12147
        },
        {
          "length": 20,
          "start": 12589
        }
      ]
    }
  },
  "immutableReferences": {},
  "inputSourceName": "project/contracts/registry/CiphernodeRegistryOwnable.sol",
  "buildInfoId": "solc-0_8_28-c0b8c83a50a4590efd059f18044a061de0a8cc5d"
}