{
  "_format": "hh3-artifact-1",
  "contractName": "CiphernodeRegistryOwnable",
  "sourceName": "contracts/registry/CiphernodeRegistryOwnable.sol",
  "abi": [
    {
      "inputs": [],
      "stateMutability": "nonpayable",
      "type": "constructor"
    },
    {
      "inputs": [],
      "name": "AttestationBindingCountMismatch",
      "type": "error"
    },
    {
      "inputs": [],
      "name": "BondingRegistryNotSet",
      "type": "error"
    },
    {
      "inputs": [
        {
          "internalType": "address",
          "name": "node",
          "type": "address"
        }
      ],
      "name": "CiphernodeNotEnabled",
      "type": "error"
    },
    {
      "inputs": [],
      "name": "CiphernodeTreeExhausted",
      "type": "error"
    },
    {
      "inputs": [],
      "name": "CommitteeAlreadyFinalized",
      "type": "error"
    },
    {
      "inputs": [],
      "name": "CommitteeAlreadyPublished",
      "type": "error"
    },
    {
      "inputs": [],
      "name": "CommitteeAlreadyRequested",
      "type": "error"
    },
    {
      "inputs": [],
      "name": "CommitteeDeadlineReached",
      "type": "error"
    },
    {
      "inputs": [],
      "name": "CommitteeNotFinalized",
      "type": "error"
    },
    {
      "inputs": [],
      "name": "CommitteeNotInitializedOrFinalized",
      "type": "error"
    },
    {
      "inputs": [],
      "name": "CommitteeNotPublished",
      "type": "error"
    },
    {
      "inputs": [],
      "name": "CommitteeNotRequested",
      "type": "error"
    },
    {
      "inputs": [],
      "name": "DkgProofRequired",
      "type": "error"
    },
    {
      "inputs": [],
      "name": "FoldAttestationVerifierAlreadySet",
      "type": "error"
    },
    {
      "inputs": [],
      "name": "FoldAttestationVerifierNotSet",
      "type": "error"
    },
    {
      "inputs": [],
      "name": "FoldAttestationsRequired",
      "type": "error"
    },
    {
      "inputs": [
        {
          "internalType": "uint256",
          "name": "requested",
          "type": "uint256"
        },
        {
          "internalType": "uint256",
          "name": "available",
          "type": "uint256"
        }
      ],
      "name": "InsufficientCiphernodes",
      "type": "error"
    },
    {
      "inputs": [],
      "name": "InvalidDkgProof",
      "type": "error"
    },
    {
      "inputs": [],
      "name": "InvalidFoldAttestation",
      "type": "error"
    },
    {
      "inputs": [],
      "name": "InvalidInitialization",
      "type": "error"
    },
    {
      "inputs": [],
      "name": "InvalidTicketNumber",
      "type": "error"
    },
    {
      "inputs": [],
      "name": "NoPendingVerifierUpdate",
      "type": "error"
    },
    {
      "inputs": [],
      "name": "NodeAlreadySubmitted",
      "type": "error"
    },
    {
      "inputs": [
        {
          "internalType": "address",
          "name": "node",
          "type": "address"
        }
      ],
      "name": "NodeNotBonded",
      "type": "error"
    },
    {
      "inputs": [],
      "name": "NodeNotEligible",
      "type": "error"
    },
    {
      "inputs": [],
      "name": "NodeNotSubmitted",
      "type": "error"
    },
    {
      "inputs": [],
      "name": "NotInitializing",
      "type": "error"
    },
    {
      "inputs": [],
      "name": "NotOwnerOrBondingRegistry",
      "type": "error"
    },
    {
      "inputs": [],
      "name": "NotSlashingManager",
      "type": "error"
    },
    {
      "inputs": [],
      "name": "OnlyBondingRegistry",
      "type": "error"
    },
    {
      "inputs": [],
      "name": "OnlyEnclave",
      "type": "error"
    },
    {
      "inputs": [
        {
          "internalType": "address",
          "name": "owner",
          "type": "address"
        }
      ],
      "name": "OwnableInvalidOwner",
      "type": "error"
    },
    {
      "inputs": [
        {
          "internalType": "address",
          "name": "account",
          "type": "address"
        }
      ],
      "name": "OwnableUnauthorizedAccount",
      "type": "error"
    },
    {
      "inputs": [],
      "name": "PartyIdNotInProof",
      "type": "error"
    },
    {
      "inputs": [
        {
          "internalType": "uint256",
          "name": "partyId",
          "type": "uint256"
        },
        {
          "internalType": "uint256",
          "name": "committeeSize",
          "type": "uint256"
        }
      ],
      "name": "PartyIdOutOfBounds",
      "type": "error"
    },
    {
      "inputs": [],
      "name": "PkCommitmentRequired",
      "type": "error"
    },
    {
      "inputs": [],
      "name": "RenounceOwnershipDisabled",
      "type": "error"
    },
    {
      "inputs": [
        {
          "internalType": "uint256",
          "name": "window",
          "type": "uint256"
        }
      ],
      "name": "SortitionSubmissionWindowOutOfBounds",
      "type": "error"
    },
    {
      "inputs": [],
      "name": "SubmissionWindowClosed",
      "type": "error"
    },
    {
      "inputs": [],
      "name": "SubmissionWindowNotClosed",
      "type": "error"
    },
    {
      "inputs": [],
      "name": "ThresholdNotMet",
      "type": "error"
    },
    {
      "inputs": [],
      "name": "Unauthorized",
      "type": "error"
    },
    {
      "inputs": [
        {
          "internalType": "address",
          "name": "pending",
          "type": "address"
        },
        {
          "internalType": "address",
          "name": "provided",
          "type": "address"
        }
      ],
      "name": "VerifierMismatch",
      "type": "error"
    },
    {
      "inputs": [
        {
          "internalType": "uint256",
          "name": "readyAt",
          "type": "uint256"
        },
        {
          "internalType": "uint256",
          "name": "nowAt",
          "type": "uint256"
        }
      ],
      "name": "VerifierUpdateTimelockActive",
      "type": "error"
    },
    {
      "inputs": [],
      "name": "ZeroAddress",
      "type": "error"
    },
    {
      "anonymous": false,
      "inputs": [
        {
          "indexed": true,
          "internalType": "address",
          "name": "bondingRegistry",
          "type": "address"
        }
      ],
      "name": "BondingRegistrySet",
      "type": "event"
    },
    {
      "anonymous": false,
      "inputs": [
        {
          "indexed": true,
          "internalType": "address",
          "name": "node",
          "type": "address"
        },
        {
          "indexed": false,
          "internalType": "uint256",
          "name": "index",
          "type": "uint256"
        },
        {
          "indexed": false,
          "internalType": "uint256",
          "name": "numNodes",
          "type": "uint256"
        },
        {
          "indexed": false,
          "internalType": "uint256",
          "name": "size",
          "type": "uint256"
        }
      ],
      "name": "CiphernodeAdded",
      "type": "event"
    },
    {
      "anonymous": false,
      "inputs": [
        {
          "indexed": true,
          "internalType": "address",
          "name": "node",
          "type": "address"
        },
        {
          "indexed": false,
          "internalType": "uint256",
          "name": "index",
          "type": "uint256"
        },
        {
          "indexed": false,
          "internalType": "uint256",
          "name": "numNodes",
          "type": "uint256"
        },
        {
          "indexed": false,
          "internalType": "uint256",
          "name": "size",
          "type": "uint256"
        }
      ],
      "name": "CiphernodeRemoved",
      "type": "event"
    },
    {
      "anonymous": false,
      "inputs": [
        {
          "indexed": true,
          "internalType": "uint256",
          "name": "e3Id",
          "type": "uint256"
        },
        {
          "indexed": false,
          "internalType": "bool",
          "name": "active",
          "type": "bool"
        }
      ],
      "name": "CommitteeActivationChanged",
      "type": "event"
    },
    {
      "anonymous": false,
      "inputs": [
        {
          "indexed": true,
          "internalType": "uint256",
          "name": "e3Id",
          "type": "uint256"
        },
        {
          "indexed": false,
          "internalType": "uint256",
          "name": "nodesSubmitted",
          "type": "uint256"
        },
        {
          "indexed": false,
          "internalType": "uint256",
          "name": "thresholdRequired",
          "type": "uint256"
        }
      ],
      "name": "CommitteeFormationFailed",
      "type": "event"
    },
    {
      "anonymous": false,
      "inputs": [
        {
          "indexed": true,
          "internalType": "uint256",
          "name": "e3Id",
          "type": "uint256"
        },
        {
          "indexed": true,
          "internalType": "address",
          "name": "node",
          "type": "address"
        },
        {
          "indexed": false,
          "internalType": "bytes32",
          "name": "reason",
          "type": "bytes32"
        },
        {
          "indexed": false,
          "internalType": "uint256",
          "name": "activeCountAfter",
          "type": "uint256"
        }
      ],
      "name": "CommitteeMemberExpelled",
      "type": "event"
    },
    {
      "anonymous": false,
      "inputs": [
        {
          "indexed": true,
          "internalType": "uint256",
          "name": "e3Id",
          "type": "uint256"
        },
        {
          "indexed": false,
          "internalType": "address[]",
          "name": "nodes",
          "type": "address[]"
        },
        {
          "indexed": false,
          "internalType": "bytes",
          "name": "publicKey",
          "type": "bytes"
        },
        {
          "indexed": false,
          "internalType": "bytes32",
          "name": "pkCommitment",
          "type": "bytes32"
        },
        {
          "indexed": false,
          "internalType": "bytes",
          "name": "proof",
          "type": "bytes"
        }
      ],
      "name": "CommitteePublished",
      "type": "event"
    },
    {
      "anonymous": false,
      "inputs": [
        {
          "indexed": true,
          "internalType": "uint256",
          "name": "e3Id",
          "type": "uint256"
        },
        {
          "indexed": false,
          "internalType": "uint256",
          "name": "seed",
          "type": "uint256"
        },
        {
          "indexed": false,
          "internalType": "uint32[2]",
          "name": "threshold",
          "type": "uint32[2]"
        },
        {
          "indexed": false,
          "internalType": "uint256",
          "name": "requestBlock",
          "type": "uint256"
        },
        {
          "indexed": false,
          "internalType": "uint256",
          "name": "committeeDeadline",
          "type": "uint256"
        }
      ],
      "name": "CommitteeRequested",
      "type": "event"
    },
    {
      "anonymous": false,
      "inputs": [
        {
          "indexed": true,
          "internalType": "uint256",
          "name": "e3Id",
          "type": "uint256"
        },
        {
          "indexed": false,
          "internalType": "uint256",
          "name": "activeCount",
          "type": "uint256"
        },
        {
          "indexed": false,
          "internalType": "uint256",
          "name": "thresholdM",
          "type": "uint256"
        },
        {
          "indexed": false,
          "internalType": "bool",
          "name": "viable",
          "type": "bool"
        }
      ],
      "name": "CommitteeViabilityUpdated",
      "type": "event"
    },
    {
      "anonymous": false,
      "inputs": [
        {
          "indexed": true,
          "internalType": "address",
          "name": "verifier",
          "type": "address"
        }
      ],
      "name": "DkgFoldAttestationVerifierProposalCancelled",
      "type": "event"
    },
    {
      "anonymous": false,
      "inputs": [
        {
          "indexed": true,
          "internalType": "address",
          "name": "verifier",
          "type": "address"
        },
        {
          "indexed": false,
          "internalType": "uint256",
          "name": "readyAt",
          "type": "uint256"
        }
      ],
      "name": "DkgFoldAttestationVerifierProposed",
      "type": "event"
    },
    {
      "anonymous": false,
      "inputs": [
        {
          "indexed": true,
          "internalType": "address",
          "name": "verifier",
          "type": "address"
        }
      ],
      "name": "DkgFoldAttestationVerifierUpdated",
      "type": "event"
    },
    {
      "anonymous": false,
      "inputs": [
        {
          "indexed": true,
          "internalType": "address",
          "name": "enclave",
          "type": "address"
        }
      ],
      "name": "EnclaveSet",
      "type": "event"
    },
    {
      "anonymous": false,
      "inputs": [
        {
          "indexed": false,
          "internalType": "uint64",
          "name": "version",
          "type": "uint64"
        }
      ],
      "name": "Initialized",
      "type": "event"
    },
    {
      "anonymous": false,
      "inputs": [
        {
          "indexed": true,
          "internalType": "address",
          "name": "previousOwner",
          "type": "address"
        },
        {
          "indexed": true,
          "internalType": "address",
          "name": "newOwner",
          "type": "address"
        }
      ],
      "name": "OwnershipTransferStarted",
      "type": "event"
    },
    {
      "anonymous": false,
      "inputs": [
        {
          "indexed": true,
          "internalType": "address",
          "name": "previousOwner",
          "type": "address"
        },
        {
          "indexed": true,
          "internalType": "address",
          "name": "newOwner",
          "type": "address"
        }
      ],
      "name": "OwnershipTransferred",
      "type": "event"
    },
    {
      "anonymous": false,
      "inputs": [
        {
          "indexed": true,
          "internalType": "address",
          "name": "slashingManager",
          "type": "address"
        }
      ],
      "name": "RegistrySlashingManagerSet",
      "type": "event"
    },
    {
      "anonymous": false,
      "inputs": [
        {
          "indexed": true,
          "internalType": "address",
          "name": "slashingManager",
          "type": "address"
        }
      ],
      "name": "SlashingManagerSet",
      "type": "event"
    },
    {
      "anonymous": false,
      "inputs": [
        {
          "indexed": true,
          "internalType": "uint256",
          "name": "e3Id",
          "type": "uint256"
        },
        {
          "indexed": false,
          "internalType": "address[]",
          "name": "committee",
          "type": "address[]"
        },
        {
          "indexed": false,
          "internalType": "uint256[]",
          "name": "scores",
          "type": "uint256[]"
        }
      ],
      "name": "SortitionCommitteeFinalized",
      "type": "event"
    },
    {
      "anonymous": false,
      "inputs": [
        {
          "indexed": false,
          "internalType": "uint256",
          "name": "sortitionSubmissionWindow",
          "type": "uint256"
        }
      ],
      "name": "SortitionSubmissionWindowSet",
      "type": "event"
    },
    {
      "anonymous": false,
      "inputs": [
        {
          "indexed": true,
          "internalType": "uint256",
          "name": "e3Id",
          "type": "uint256"
        },
        {
          "indexed": true,
          "internalType": "address",
          "name": "node",
          "type": "address"
        },
        {
          "indexed": false,
          "internalType": "uint256",
          "name": "ticketId",
          "type": "uint256"
        },
        {
          "indexed": false,
          "internalType": "uint256",
          "name": "score",
          "type": "uint256"
        }
      ],
      "name": "TicketSubmitted",
      "type": "event"
    },
    {
      "inputs": [],
      "name": "DKG_FOLD_VERIFIER_TIMELOCK",
      "outputs": [
        {
          "internalType": "uint256",
          "name": "",
          "type": "uint256"
        }
      ],
      "stateMutability": "view",
      "type": "function"
    },
    {
      "inputs": [],
      "name": "MAX_CIPHERNODE_LEAVES",
      "outputs": [
        {
          "internalType": "uint256",
          "name": "",
          "type": "uint256"
        }
      ],
      "stateMutability": "view",
      "type": "function"
    },
    {
      "inputs": [],
      "name": "MAX_SORTITION_SUBMISSION_WINDOW",
      "outputs": [
        {
          "internalType": "uint256",
          "name": "",
          "type": "uint256"
        }
      ],
      "stateMutability": "view",
      "type": "function"
    },
    {
      "inputs": [],
      "name": "MIN_SORTITION_SUBMISSION_WINDOW",
      "outputs": [
        {
          "internalType": "uint256",
          "name": "",
          "type": "uint256"
        }
      ],
      "stateMutability": "view",
      "type": "function"
    },
    {
      "inputs": [],
      "name": "TREE_DEPTH",
      "outputs": [
        {
          "internalType": "uint8",
          "name": "",
          "type": "uint8"
        }
      ],
      "stateMutability": "view",
      "type": "function"
    },
    {
      "inputs": [],
      "name": "acceptOwnership",
      "outputs": [],
      "stateMutability": "nonpayable",
      "type": "function"
    },
    {
      "inputs": [
        {
          "internalType": "address",
          "name": "node",
          "type": "address"
        }
      ],
      "name": "addCiphernode",
      "outputs": [],
      "stateMutability": "nonpayable",
      "type": "function"
    },
    {
      "inputs": [],
      "name": "bondingRegistry",
      "outputs": [
        {
          "internalType": "contract IBondingRegistry",
          "name": "",
          "type": "address"
        }
      ],
      "stateMutability": "view",
      "type": "function"
    },
    {
      "inputs": [],
      "name": "cancelDkgFoldAttestationVerifierProposal",
      "outputs": [],
      "stateMutability": "nonpayable",
      "type": "function"
    },
    {
      "inputs": [
        {
          "internalType": "uint256",
          "name": "e3Id",
          "type": "uint256"
        },
        {
          "internalType": "uint256",
          "name": "partyId",
          "type": "uint256"
        }
      ],
      "name": "canonicalCommitteeNodeAt",
      "outputs": [
        {
          "internalType": "address",
          "name": "",
          "type": "address"
        }
      ],
      "stateMutability": "view",
      "type": "function"
    },
    {
      "inputs": [
        {
          "internalType": "address",
          "name": "node",
          "type": "address"
        }
      ],
      "name": "ciphernodeEnabled",
      "outputs": [
        {
          "internalType": "bool",
          "name": "enabled",
          "type": "bool"
        }
      ],
      "stateMutability": "view",
      "type": "function"
    },
    {
      "inputs": [
        {
          "internalType": "address",
          "name": "node",
          "type": "address"
        }
      ],
      "name": "ciphernodeTreeIndex",
      "outputs": [
        {
          "internalType": "uint40",
          "name": "index",
          "type": "uint40"
        }
      ],
      "stateMutability": "view",
      "type": "function"
    },
    {
      "inputs": [],
      "name": "ciphernodes",
      "outputs": [
        {
          "internalType": "uint40",
          "name": "maxIndex",
          "type": "uint40"
        },
        {
          "internalType": "uint40",
          "name": "numberOfLeaves",
          "type": "uint40"
        }
      ],
      "stateMutability": "view",
      "type": "function"
    },
    {
      "inputs": [
        {
          "internalType": "contract IDkgFoldAttestationVerifier",
          "name": "verifier",
          "type": "address"
        }
      ],
      "name": "commitDkgFoldAttestationVerifier",
      "outputs": [],
      "stateMutability": "nonpayable",
      "type": "function"
    },
    {
      "inputs": [
        {
          "internalType": "uint256",
          "name": "e3Id",
          "type": "uint256"
        }
      ],
      "name": "committeePublicKey",
      "outputs": [
        {
          "internalType": "bytes32",
          "name": "publicKeyHash",
          "type": "bytes32"
        }
      ],
      "stateMutability": "view",
      "type": "function"
    },
    {
      "inputs": [],
      "name": "dkgFoldAttestationVerifier",
      "outputs": [
        {
          "internalType": "contract IDkgFoldAttestationVerifier",
          "name": "",
          "type": "address"
        }
      ],
      "stateMutability": "view",
      "type": "function"
    },
    {
      "inputs": [],
      "name": "enclave",
      "outputs": [
        {
          "internalType": "contract IEnclave",
          "name": "",
          "type": "address"
        }
      ],
      "stateMutability": "view",
      "type": "function"
    },
    {
      "inputs": [
        {
          "internalType": "uint256",
          "name": "e3Id",
          "type": "uint256"
        },
        {
          "internalType": "address",
          "name": "node",
          "type": "address"
        },
        {
          "internalType": "bytes32",
          "name": "reason",
          "type": "bytes32"
        }
      ],
      "name": "expelCommitteeMember",
      "outputs": [
        {
          "internalType": "uint256",
          "name": "activeCount",
          "type": "uint256"
        },
        {
          "internalType": "uint32",
          "name": "thresholdM",
          "type": "uint32"
        }
      ],
      "stateMutability": "nonpayable",
      "type": "function"
    },
    {
      "inputs": [
        {
          "internalType": "uint256",
          "name": "e3Id",
          "type": "uint256"
        }
      ],
      "name": "finalizeCommittee",
      "outputs": [
        {
          "internalType": "bool",
          "name": "success",
          "type": "bool"
        }
      ],
      "stateMutability": "nonpayable",
      "type": "function"
    },
    {
      "inputs": [
        {
          "internalType": "uint256",
          "name": "e3Id",
          "type": "uint256"
        }
      ],
      "name": "getActiveCommitteeNodes",
      "outputs": [
        {
          "internalType": "address[]",
          "name": "nodes",
          "type": "address[]"
        },
        {
          "internalType": "uint256[]",
          "name": "scores",
          "type": "uint256[]"
        }
      ],
      "stateMutability": "view",
      "type": "function"
    },
    {
      "inputs": [],
      "name": "getBondingRegistry",
      "outputs": [
        {
          "internalType": "address",
          "name": "",
          "type": "address"
        }
      ],
      "stateMutability": "view",
      "type": "function"
    },
    {
      "inputs": [
        {
          "internalType": "uint256",
          "name": "e3Id",
          "type": "uint256"
        }
      ],
      "name": "getCommitteeDeadline",
      "outputs": [
        {
          "internalType": "uint256",
          "name": "",
          "type": "uint256"
        }
      ],
      "stateMutability": "view",
      "type": "function"
    },
    {
      "inputs": [
        {
          "internalType": "uint256",
          "name": "e3Id",
          "type": "uint256"
        }
      ],
      "name": "getCommitteeHash",
      "outputs": [
        {
          "internalType": "bytes32",
          "name": "committeeHash",
          "type": "bytes32"
        }
      ],
      "stateMutability": "view",
      "type": "function"
    },
    {
      "inputs": [
        {
          "internalType": "uint256",
          "name": "e3Id",
          "type": "uint256"
        }
      ],
      "name": "getCommitteeNodes",
      "outputs": [
        {
          "internalType": "address[]",
          "name": "nodes",
          "type": "address[]"
        }
      ],
      "stateMutability": "view",
      "type": "function"
    },
    {
      "inputs": [
        {
          "internalType": "uint256",
          "name": "e3Id",
          "type": "uint256"
        }
      ],
      "name": "getCommitteeViability",
      "outputs": [
        {
          "internalType": "uint256",
          "name": "activeCount",
          "type": "uint256"
        },
        {
          "internalType": "uint32",
          "name": "thresholdM",
          "type": "uint32"
        },
        {
          "internalType": "uint32",
          "name": "thresholdN",
          "type": "uint32"
        },
        {
          "internalType": "bool",
          "name": "viable",
          "type": "bool"
        }
      ],
      "stateMutability": "view",
      "type": "function"
    },
    {
      "inputs": [
        {
          "internalType": "uint256",
          "name": "e3Id",
          "type": "uint256"
        }
      ],
      "name": "getDkgAnchors",
      "outputs": [
        {
          "internalType": "uint256[]",
          "name": "partyIds",
          "type": "uint256[]"
        },
        {
          "internalType": "bytes32[]",
          "name": "skAggCommits",
          "type": "bytes32[]"
        },
        {
          "internalType": "bytes32[]",
          "name": "esmAggCommits",
          "type": "bytes32[]"
        }
      ],
      "stateMutability": "view",
      "type": "function"
    },
    {
      "inputs": [
        {
          "internalType": "address",
          "name": "_owner",
          "type": "address"
        },
        {
          "internalType": "uint256",
          "name": "_submissionWindow",
          "type": "uint256"
        }
      ],
      "name": "initialize",
      "outputs": [],
      "stateMutability": "nonpayable",
      "type": "function"
    },
    {
      "inputs": [
        {
          "internalType": "address",
          "name": "node",
          "type": "address"
        }
      ],
      "name": "isCiphernodeEligible",
      "outputs": [
        {
          "internalType": "bool",
          "name": "",
          "type": "bool"
        }
      ],
      "stateMutability": "view",
      "type": "function"
    },
    {
      "inputs": [
        {
          "internalType": "uint256",
          "name": "e3Id",
          "type": "uint256"
        },
        {
          "internalType": "address",
          "name": "node",
          "type": "address"
        }
      ],
      "name": "isCommitteeMember",
      "outputs": [
        {
          "internalType": "bool",
          "name": "",
          "type": "bool"
        }
      ],
      "stateMutability": "view",
      "type": "function"
    },
    {
      "inputs": [
        {
          "internalType": "uint256",
          "name": "e3Id",
          "type": "uint256"
        },
        {
          "internalType": "address",
          "name": "node",
          "type": "address"
        }
      ],
      "name": "isCommitteeMemberActive",
      "outputs": [
        {
          "internalType": "bool",
          "name": "",
          "type": "bool"
        }
      ],
      "stateMutability": "view",
      "type": "function"
    },
    {
      "inputs": [
        {
          "internalType": "address",
          "name": "node",
          "type": "address"
        }
      ],
      "name": "isEnabled",
      "outputs": [
        {
          "internalType": "bool",
          "name": "",
          "type": "bool"
        }
      ],
      "stateMutability": "view",
      "type": "function"
    },
    {
      "inputs": [
        {
          "internalType": "uint256",
          "name": "e3Id",
          "type": "uint256"
        }
      ],
      "name": "isOpen",
      "outputs": [
        {
          "internalType": "bool",
          "name": "",
          "type": "bool"
        }
      ],
      "stateMutability": "view",
      "type": "function"
    },
    {
      "inputs": [],
      "name": "numCiphernodes",
      "outputs": [
        {
          "internalType": "uint256",
          "name": "",
          "type": "uint256"
        }
      ],
      "stateMutability": "view",
      "type": "function"
    },
    {
      "inputs": [],
      "name": "owner",
      "outputs": [
        {
          "internalType": "address",
          "name": "",
          "type": "address"
        }
      ],
      "stateMutability": "view",
      "type": "function"
    },
    {
      "inputs": [],
      "name": "pendingDkgFoldAttestationVerifier",
      "outputs": [
        {
          "internalType": "address",
          "name": "",
          "type": "address"
        }
      ],
      "stateMutability": "view",
      "type": "function"
    },
    {
      "inputs": [],
      "name": "pendingDkgFoldAttestationVerifierAt",
      "outputs": [
        {
          "internalType": "uint256",
          "name": "",
          "type": "uint256"
        }
      ],
      "stateMutability": "view",
      "type": "function"
    },
    {
      "inputs": [],
      "name": "pendingOwner",
      "outputs": [
        {
          "internalType": "address",
          "name": "",
          "type": "address"
        }
      ],
      "stateMutability": "view",
      "type": "function"
    },
    {
      "inputs": [
        {
          "internalType": "contract IDkgFoldAttestationVerifier",
          "name": "verifier",
          "type": "address"
        }
      ],
      "name": "proposeDkgFoldAttestationVerifier",
      "outputs": [],
      "stateMutability": "nonpayable",
      "type": "function"
    },
    {
      "inputs": [
        {
          "internalType": "uint256",
          "name": "e3Id",
          "type": "uint256"
        }
      ],
      "name": "publicKeyHashes",
      "outputs": [
        {
          "internalType": "bytes32",
          "name": "publicKeyHash",
          "type": "bytes32"
        }
      ],
      "stateMutability": "view",
      "type": "function"
    },
    {
      "inputs": [
        {
          "internalType": "uint256",
          "name": "e3Id",
          "type": "uint256"
        },
        {
          "internalType": "bytes",
          "name": "publicKey",
          "type": "bytes"
        },
        {
          "internalType": "bytes32",
          "name": "pkCommitment",
          "type": "bytes32"
        },
        {
          "internalType": "bytes",
          "name": "proof",
          "type": "bytes"
        },
        {
          "internalType": "bytes",
          "name": "dkgAttestationBundle",
          "type": "bytes"
        }
      ],
      "name": "publishCommittee",
      "outputs": [],
      "stateMutability": "nonpayable",
      "type": "function"
    },
    {
      "inputs": [
        {
          "internalType": "address",
          "name": "node",
          "type": "address"
        }
      ],
      "name": "removeCiphernode",
      "outputs": [],
      "stateMutability": "nonpayable",
      "type": "function"
    },
    {
      "inputs": [],
      "name": "renounceOwnership",
      "outputs": [],
      "stateMutability": "view",
      "type": "function"
    },
    {
      "inputs": [
        {
          "internalType": "uint256",
          "name": "e3Id",
          "type": "uint256"
        },
        {
          "internalType": "uint256",
          "name": "seed",
          "type": "uint256"
        },
        {
          "internalType": "uint32[2]",
          "name": "threshold",
          "type": "uint32[2]"
        }
      ],
      "name": "requestCommittee",
      "outputs": [
        {
          "internalType": "bool",
          "name": "success",
          "type": "bool"
        }
      ],
      "stateMutability": "nonpayable",
      "type": "function"
    },
    {
      "inputs": [],
      "name": "root",
      "outputs": [
        {
          "internalType": "uint256",
          "name": "",
          "type": "uint256"
        }
      ],
      "stateMutability": "view",
      "type": "function"
    },
    {
      "inputs": [
        {
          "internalType": "uint256",
          "name": "e3Id",
          "type": "uint256"
        }
      ],
      "name": "rootAt",
      "outputs": [
        {
          "internalType": "uint256",
          "name": "",
          "type": "uint256"
        }
      ],
      "stateMutability": "view",
      "type": "function"
    },
    {
      "inputs": [
        {
          "internalType": "uint256",
          "name": "e3Id",
          "type": "uint256"
        }
      ],
      "name": "roots",
      "outputs": [
        {
          "internalType": "uint256",
          "name": "root",
          "type": "uint256"
        }
      ],
      "stateMutability": "view",
      "type": "function"
    },
    {
      "inputs": [
        {
          "internalType": "contract IBondingRegistry",
          "name": "_bondingRegistry",
          "type": "address"
        }
      ],
      "name": "setBondingRegistry",
      "outputs": [],
      "stateMutability": "nonpayable",
      "type": "function"
    },
    {
      "inputs": [
        {
          "internalType": "contract IEnclave",
          "name": "_enclave",
          "type": "address"
        }
      ],
      "name": "setEnclave",
      "outputs": [],
      "stateMutability": "nonpayable",
      "type": "function"
    },
    {
      "inputs": [
        {
          "internalType": "contract IDkgFoldAttestationVerifier",
          "name": "verifier",
          "type": "address"
        }
      ],
      "name": "setInitialDkgFoldAttestationVerifier",
      "outputs": [],
      "stateMutability": "nonpayable",
      "type": "function"
    },
    {
      "inputs": [
        {
          "internalType": "contract ISlashingManager",
          "name": "_slashingManager",
          "type": "address"
        }
      ],
      "name": "setSlashingManager",
      "outputs": [],
      "stateMutability": "nonpayable",
      "type": "function"
    },
    {
      "inputs": [
        {
          "internalType": "uint256",
          "name": "_sortitionSubmissionWindow",
          "type": "uint256"
        }
      ],
      "name": "setSortitionSubmissionWindow",
      "outputs": [],
      "stateMutability": "nonpayable",
      "type": "function"
    },
    {
      "inputs": [],
      "name": "slashingManager",
      "outputs": [
        {
          "internalType": "contract ISlashingManager",
          "name": "",
          "type": "address"
        }
      ],
      "stateMutability": "view",
      "type": "function"
    },
    {
      "inputs": [],
      "name": "sortitionSubmissionWindow",
      "outputs": [
        {
          "internalType": "uint256",
          "name": "",
          "type": "uint256"
        }
      ],
      "stateMutability": "view",
      "type": "function"
    },
    {
      "inputs": [
        {
          "internalType": "uint256",
          "name": "e3Id",
          "type": "uint256"
        },
        {
          "internalType": "uint256",
          "name": "ticketNumber",
          "type": "uint256"
        }
      ],
      "name": "submitTicket",
      "outputs": [],
      "stateMutability": "nonpayable",
      "type": "function"
    },
    {
      "inputs": [
        {
          "internalType": "bytes4",
          "name": "interfaceId",
          "type": "bytes4"
        }
      ],
      "name": "supportsInterface",
      "outputs": [
        {
          "internalType": "bool",
          "name": "",
          "type": "bool"
        }
      ],
      "stateMutability": "pure",
      "type": "function"
    },
    {
      "inputs": [
        {
          "internalType": "address",
          "name": "newOwner",
          "type": "address"
        }
      ],
      "name": "transferOwnership",
      "outputs": [],
      "stateMutability": "nonpayable",
      "type": "function"
    },
    {
      "inputs": [],
      "name": "treeSize",
      "outputs": [
        {
          "internalType": "uint256",
          "name": "",
          "type": "uint256"
        }
      ],
      "stateMutability": "view",
      "type": "function"
    }
  ],
  "bytecode": "0x6080604052348015600f57600080fd5b506016601a565b60ca565b7ff0c57e16840df040f15088dc2f81fe391c3923bec73e23a9662efc9c229c6a00805468010000000000000000900460ff161560695760405163f92ee8a960e01b815260040160405180910390fd5b80546001600160401b039081161460c75780546001600160401b0319166001600160401b0390811782556040519081527fc7f505b2f371ae2175ee4913f4499e1f2633a7b5936321eed1cdaeb6115181d29060200160405180910390a15b50565b614a40806100d96000396000f3fe608060405234801561001057600080fd5b50600436106102935760003560e01c806301ffc9a714610298578063096b810a146102c0578063099a161a146102d55780630b45f8e9146102f65780630bbfade7146103095780630f3e34121461031c57806317d611201461032f5780631e08d0e8146103505780632800d82914610358578063291a691b1461036b5780632e7b716d1461037e578063323beaa5146103915780634d6861a6146103a457806350e6d94c146103b757806350e6fad3146103da5780635d504776146103e457806362cc89a8146103f757806370e36bbe14610417578063715018a61461042a57806379ba5097146104325780637c92f5241461043a57806385814243146104675780638a78bb151461047a5780638cb89ecb1461048d5780638d1ddfb1146104ad5780638da5cb5b146104c35780638e5ce3ad146104cb5780639015d371146104de5780639a7a2ffc146104f15780639f0f874a1461052e578063a016493014610537578063a8a4d69b14610557578063acc524941461056a578063b2d5d1ac1461057d578063b8ab470414610586578063bbe4b803146105a8578063bff232c1146105b2578063c2b40ae4146105c5578063c3a0ec30146105e5578063c8fe182d146105f6578063ca2869a0146105fe578063cd6dc6871461061e578063cf90b6ed14610631578063da881e5a1461063b578063dbb06c931461064e578063e30c397814610661578063e4be6e3d14610669578063e4d185db1461067c578063e59e46951461068f578063e6745e13146106a2578063e82f3b70146106b5578063ebf0c717146106c8578063f1650536146106d0578063f2fde38b146106ea578063f379b0df146106fd578063f52fd80314610737578063f6fc05d5146107a8575b600080fd5b6102ab6102a6366004613cfe565b6107b1565b60405190151581526020015b60405180910390f35b6102d36102ce366004613d3d565b6107e8565b005b6102e86102e3366004613d5a565b610927565b6040519081526020016102b7565b6102d3610304366004613d3d565b610961565b6102d3610317366004613dbb565b610a44565b6102d361032a366004613d5a565b610d05565b61034261033d366004613d5a565b610d7f565b6040516102b7929190613ee8565b6102e8600181565b6102e8610366366004613d5a565b610f2f565b6102ab610379366004613f16565b610f7c565b6102ab61038c366004613d3d565b61115d565b6102d361039f366004613d3d565b61120e565b6102ab6103b2366004613d5a565b611308565b6102ab6103c5366004613d3d565b60066020526000908152604090205460ff1681565b6102e86202a30081565b6102ab6103f2366004613f53565b611349565b600d5461040a906001600160a01b031681565b6040516102b79190613f83565b6102d3610425366004613d3d565b61138e565b6102d3611405565b6102d3611429565b61044d610448366004613f97565b611468565b6040805192835263ffffffff9091166020830152016102b7565b60015461040a906001600160a01b031681565b6102d3610488366004613d3d565b61160a565b6102e861049b366004613d5a565b60096020526000908152604090205481565b600454600160281b900464ffffffffff166102e8565b61040a611755565b600b5461040a906001600160a01b031681565b6102ab6104ec366004613d3d565b611770565b6105186104ff366004613d3d565b60076020526000908152604090205464ffffffffff1681565b60405164ffffffffff90911681526020016102b7565b6102e860035481565b61054a610545366004613d5a565b61178e565b6040516102b79190613fcf565b6102ab610565366004613f53565b611827565b6102d3610578366004613d3d565b61186c565b6102e8600e5481565b610599610594366004613d5a565b611903565b6040516102b793929190613fe2565b6102e86210000081565b6102d36105c0366004613d3d565b611a56565b6102e86105d3366004613d5a565b60086020526000908152604090205481565b6001546001600160a01b031661040a565b6102d3611acf565b6102e861060c366004613d5a565b60009081526008602052604090205490565b6102d361062c366004614025565b611b3a565b6102e862093a8081565b6102ab610649366004613d5a565b611c99565b60005461040a906001600160a01b031681565b61040a611f8e565b600c5461040a906001600160a01b031681565b61040a61068a366004614051565b611f99565b6102d361069d366004613d3d565b61203a565b6102d36106b0366004614051565b6120b3565b6102e86106c3366004613d5a565b61227c565b6102e86122ae565b6106d8601481565b60405160ff90911681526020016102b7565b6102d36106f8366004613d3d565b6122c1565b6004546107199064ffffffffff80821691600160281b90041682565b6040805164ffffffffff9384168152929091166020830152016102b7565b610779610745366004613d5a565b6000908152600a60205260409020600b810154600590910154909163ffffffff80831692600160201b900416908284101590565b6040516102b7949392919093845263ffffffff9283166020850152911660408301521515606082015260800190565b6102e860025481565b60006001600160e01b03198216635a23ad1360e01b14806107e257506001600160e01b031982166301ffc9a760e01b145b92915050565b6107f0611755565b6001600160a01b0316336001600160a01b0316148061081957506001546001600160a01b031633145b61083657604051632864c4e160e01b815260040160405180910390fd5b61083f81611770565b8190610868576040516381e5828960e01b815260040161085f9190613f83565b60405180910390fd5b506001600160a01b03811660009081526007602052604081205464ffffffffff16906108979060049083612332565b6001600160a01b0382166000908152600660205260408120805460ff1916905560028054916108c583614089565b90915550506002546004546040516001600160a01b038516927f8c008e3835f6c79bfcdb89f0f6ca8705e0b01049ee84a90b0e4da1c7ba9405d59261091b92869291600160281b900464ffffffffff16906140a0565b60405180910390a25050565b6000818152600a602052604081206004810154610957576040516322e679e360e11b815260040160405180910390fd5b6007015492915050565b61096961257e565b600c546001600160a01b0316156109925760405162035f5560e61b815260040160405180910390fd5b6001600160a01b0381166109b95760405163d92e233d60e01b815260040160405180910390fd5b600c80546001600160a01b0319166001600160a01b0383811691909117909155600d541615610a1f57600d80546001600160a01b031981169091556000600e8190556040516001600160a01b039092169182916000805160206149d483398151915291a2505b6040516001600160a01b038216906000805160206149f483398151915290600090a250565b6000888152600a602052604090206002815460ff166003811115610a6a57610a6a6140c1565b14610a8857604051634f4b461f60e11b815260040160405180910390fd5b600481015415610aab5760405163632a22bb60e01b815260040160405180910390fd5b85610ac957604051636caad1ed60e11b815260040160405180910390fd5b6000610b3082600601805480602002602001604051908101604052809291908181526020018280548015610b2657602002820191906000526020600020905b81546001600160a01b03168152600190910190602001808311610b08575b50505050506125b2565b60078301819055600480840189905560008c8152600960205260408082208b90558154905163101bb4d760e21b81529283018e9052929350916001600160a01b03169063406ed35c90602401600060405180830381865afa158015610b99573d6000803e3d6000fd5b505050506040513d6000823e601f3d908101601f19168201604052610bc19190810190614275565b9050806101c0015115610c4f57610c4f8b82600860008f81526020019081526020016000205486600601805480602002602001604051908101604052809291908181526020018280548015610c3f57602002820191906000526020600020905b81546001600160a01b03168152600190910190602001808311610c21575b50505050508c878d8d8d8d6126be565b6000546040516340a3b76160e11b81526001600160a01b03909116906381476ec290610c81908e908c906004016143d9565b600060405180830381600087803b158015610c9b57600080fd5b505af1158015610caf573d6000803e3d6000fd5b505050508a7fbf0636a312095f6c09c909823813b50e392323588d2d83432e7512c64041e67f846006018c8c8c8c8c604051610cf096959493929190614450565b60405180910390a25050505050505050505050565b610d0d61257e565b60018110158015610d21575062093a808111155b8190610d435760405163028237cd60e61b815260040161085f91815260200190565b5060038190556040518181527fbe772dc189863d512fa01e489c8eac204975aef1a8662d8b5a333804b5207ab79060200160405180910390a150565b6000818152600a602052604090206006810154600b82015460609283929091806001600160401b03811115610db657610db66140d7565b604051908082528060200260200182016040528015610ddf578160200160208202803683370190505b509450806001600160401b03811115610dfa57610dfa6140d7565b604051908082528060200260200182016040528015610e23578160200160208202803683370190505b5093506000805b83811015610f25576000856006018281548110610e4957610e4961449e565b6000918252602090912001546001600160a01b0316905060016001600160a01b0382166000908152600a8801602052604090205460ff166002811115610e9157610e916140c1565b03610f1c5780888481518110610ea957610ea961449e565b60200260200101906001600160a01b031690816001600160a01b031681525050856009016000826001600160a01b03166001600160a01b0316815260200190815260200160002054878481518110610f0357610f0361449e565b602090810291909101015282610f18816144b4565b9350505b50600101610e2a565b5050505050915091565b6000818152600a6020526040812081815460ff166003811115610f5457610f546140c1565b03610f7257604051630d4c1d9760e41b815260040160405180910390fd5b6003015492915050565b600080546001600160a01b03163314610fa85760405163e4c2a7eb60e01b815260040160405180910390fd5b6000848152600a6020526040812090815460ff166003811115610fcd57610fcd6140c1565b14610feb576040516374ff462560e11b815260040160405180910390fd5b60015460408051630cc37d8f60e11b815290516000926001600160a01b031691631986fb1e9160048083019260209291908290030181865afa158015611035573d6000803e3d6000fd5b505050506040513d601f19601f8201168201806040525081019061105991906144cd565b90508061106c60408601602087016144fa565b63ffffffff16111561108460408601602087016144fa565b8290916110b2576040516344ec930f60e01b815263ffffffff9092166004830152602482015260440161085f565b5050815460ff191660019081178355820185905542600283018190556003546110da91614515565b60038301556110ee60058301856002613c0c565b506110f76122ae565b600087815260086020526040908190209190915560028301546003840154915188927f381d281d32f95ef8fe4e5f3b263ea6a32d03d331e1a141ae1da996dc02a7a17092611149928a928a9291614528565b60405180910390a250600195945050505050565b600061116882611770565b61117457506000919050565b6001546001600160a01b031661119d576040516350ca893360e01b815260040160405180910390fd5b600154604051639f8a13d760e01b81526001600160a01b0390911690639f8a13d7906111cd908590600401613f83565b602060405180830381865afa1580156111ea573d6000803e3d6000fd5b505050506040513d601f19601f820116820180604052508101906107e29190614579565b61121661257e565b600d546001600160a01b0316806112405760405163366ca30560e11b815260040160405180910390fd5b80826001600160a01b038281169082161461128157604051630d77758160e31b81526001600160a01b0392831660048201529116602482015260440161085f565b505060006202a300600e546112969190614515565b90508042818110156112bd576040516337c8270b60e01b815260040161085f9291906143d9565b5050600c80546001600160a01b0385166001600160a01b03199182168117909255600d805490911690556000600e8190556040516000805160206149f48339815191529190a2505050565b6000818152600a602052604081206001815460ff16600381111561132e5761132e6140c1565b1461133c5750600092915050565b6003015442111592915050565b600060016000848152600a602081815260408084206001600160a01b0388168552909201905290205460ff166002811115611386576113866140c1565b149392505050565b61139661257e565b6001600160a01b0381166113bd5760405163d92e233d60e01b815260040160405180910390fd5b600080546001600160a01b0319166001600160a01b038316908117825560405190917f2c8267accd82e977550ed2349c73311183cd22e306347be4453c8d130995e3c991a250565b61140d61257e565b6040516001623f026d60e01b0319815260040160405180910390fd5b3380611433611f8e565b6001600160a01b03161461145c578060405163118cdaa760e01b815260040161085f9190613f83565b61146581612774565b50565b600b5460009081906001600160a01b031633146114985760405163fcef374960e01b815260040160405180910390fd5b6000858152600a602052604090206002815460ff1660038111156114be576114be6140c1565b146114dc57604051634f4b461f60e11b815260040160405180910390fd5b60058101546001600160a01b0386166000908152600a8301602052604090205463ffffffff909116925060019060ff16600281111561151d5761151d6140c1565b1461152d57600b01549150611602565b6001600160a01b0385166000908152600a820160205260408120805460ff19166002179055600b820180549161156283614089565b919050555080600b01549250846001600160a01b0316867f6c783b92374361b4d6efaf29673b89437ee969bb3c9d2d5d86b143ad5447b84986866040516115aa9291906143d9565b60405180910390a36040805184815263ffffffff84166020820181905285101591810182905287907f119cb11dd0a68c257d6dc9b06dcb37dd422ce276eb8bf3cd0b7079a116b8e2989060600160405180910390a250505b935093915050565b611612611755565b6001600160a01b0316336001600160a01b0316148061163b57506001546001600160a01b031633145b61165857604051632864c4e160e01b815260040160405180910390fd5b61166181611770565b61146557600454600160281b900464ffffffffff16621000008110611699576040516335b4ac3f60e01b815260040160405180910390fd5b6116ad60046001600160a01b03841661279b565b6001600160a01b0382166000908152600660209081526040808320805460ff1916600117905560079091528120805464ffffffffff841664ffffffffff1990911617905560028054916116ff836144b4565b90915550506002546004546040516001600160a01b038516927f3318d261fe14a5761d2d1e21555652f623d2134c430a9883c9ad6e958bb0db539261091b92869291600160281b900464ffffffffff16906140a0565b600080611760612916565b546001600160a01b031692915050565b6001600160a01b031660009081526006602052604090205460ff1690565b6000818152600a602052604090206004810154606091906117c2576040516322e679e360e11b815260040160405180910390fd5b8060060180548060200260200160405190810160405280929190818152602001828054801561181a57602002820191906000526020600020905b81546001600160a01b031681526001909101906020018083116117fc575b5050505050915050919050565b6000806000848152600a602081815260408084206001600160a01b0388168552909201905290205460ff166002811115611863576118636140c1565b14159392505050565b61187461257e565b6001600160a01b03811661189b5760405163d92e233d60e01b815260040160405180910390fd5b600d80546001600160a01b0319166001600160a01b03831690811790915542600e8190557fc4d0d0b50812c7ced0867d68b80682e9c1f549fe4f7b398a3a10054d3d9f0f25906118ef906202a30090614515565b60405190815260200160405180910390a250565b60008181526009602052604090205460609081908190611936576040516322e679e360e11b815260040160405180910390fd5b6000848152600f602090815260408083206010835281842060118452938290208154835181860281018601909452808452919493909291859183018282801561199e57602002820191906000526020600020905b81548152602001906001019080831161198a575b50505050509250818054806020026020016040519081016040528092919081815260200182805480156119f057602002820191906000526020600020905b8154815260200190600101908083116119dc575b5050505050915080805480602002602001604051908101604052809291908181526020018280548015611a4257602002820191906000526020600020905b815481526020019060010190808311611a2e575b505050505090509250925092509193909250565b611a5e61257e565b6001600160a01b038116611a855760405163d92e233d60e01b815260040160405180910390fd5b600b80546001600160a01b0319166001600160a01b0383169081179091556040517fb73e5a0813d035641a46672d94cff1b110eae2a87ac75a0e31134dfba06cffe290600090a250565b611ad761257e565b600d546001600160a01b031680611b015760405163366ca30560e11b815260040160405180910390fd5b600d80546001600160a01b03191690556000600e8190556040516001600160a01b038316916000805160206149d483398151915291a250565b6000611b4461293a565b805490915060ff600160401b82041615906001600160401b0316600081158015611b6b5750825b90506000826001600160401b03166001148015611b875750303b155b905081158015611b95575080155b15611bb35760405163f92ee8a960e01b815260040160405180910390fd5b84546001600160401b03191660011785558315611bdc57845460ff60401b1916600160401b1785555b6001600160a01b038716611c035760405163d92e233d60e01b815260040160405180910390fd5b611c0c33612963565b611c1860046014612974565b611c2186610d05565b611c29611755565b6001600160a01b0316876001600160a01b031614611c4a57611c4a87612774565b8315611c9057845460ff60401b19168555604051600181527fc7f505b2f371ae2175ee4913f4499e1f2633a7b5936321eed1cdaeb6115181d29060200160405180910390a15b50505050505050565b6000818152600a6020526040812081815460ff166003811115611cbe57611cbe6140c1565b03611cdc57604051630d4c1d9760e41b815260040160405180910390fd5b6001815460ff166003811115611cf457611cf46140c1565b14611d1257604051631860f69960e31b815260040160405180910390fd5b80600301544211611d3657604051632f021e8d60e11b815260040160405180910390fd5b60058101546006820154600160201b90910463ffffffff16111580611e22578154600360ff199091161782556006820154600583015460408051928352600160201b90910463ffffffff16602083015285917fecc4a9fb7e28d074cba7f5b227e9b5827823c850a385539b9a2f98a08f8c203d910160405180910390a2600054604051635d968dc160e11b815260048101869052600260248201526001600160a01b039091169063bb2d1b8290604401600060405180830381600087803b158015611e0057600080fd5b505af1158015611e14573d6000803e3d6000fd5b506000979650505050505050565b611e2b826129b3565b815460ff191660021782556006820154600b83018190556000816001600160401b03811115611e5c57611e5c6140d7565b604051908082528060200260200182016040528015611e85578160200160208202803683370190505b50905060005b82811015611efa57846009016000866006018381548110611eae57611eae61449e565b60009182526020808320909101546001600160a01b031683528201929092526040019020548251839083908110611ee757611ee761449e565b6020908102919091010152600101611e8b565b50600054604051631f3ea75d60e21b8152600481018890526001600160a01b0390911690637cfa9d7490602401600060405180830381600087803b158015611f4157600080fd5b505af1158015611f55573d6000803e3d6000fd5b50505050857f965338df36bd39d668fe7694af5c34a5e37fb2cdc450ce4e99c0e71deb7c11e58560060183604051611149929190614594565b600080611760612ae4565b6000828152600a602052604081206002815460ff166003811115611fbf57611fbf6140c1565b14611fdd57604051634f4b461f60e11b815260040160405180910390fd5b60068101548390808210612006576040516326c5c55b60e11b815260040161085f9291906143d9565b505080600601838154811061201d5761201d61449e565b6000918252602090912001546001600160a01b0316949350505050565b61204261257e565b6001600160a01b0381166120695760405163d92e233d60e01b815260040160405180910390fd5b600180546001600160a01b0319166001600160a01b0383169081179091556040517fad4055f18cdad6f4bdd71afe3a72cbeee964217943e1bde38f138289e981a9a790600090a250565b6000828152600a6020526040812090815460ff1660038111156120d8576120d86140c1565b036120f657604051630d4c1d9760e41b815260040160405180910390fd5b6001815460ff16600381111561210e5761210e6140c1565b1461212c57604051631860f69960e31b815260040160405180910390fd5b806003015442111561215157604051639a19114d60e01b815260040160405180910390fd5b33600090815260088201602052604090205460ff16156121845760405163257309f160e11b815260040160405180910390fd5b61218d3361115d565b6121aa5760405163149fbcfd60e11b815260040160405180910390fd5b6121b5338385612b08565b6001810154604080516001600160601b03193360601b16602080830191909152603482018690526054820187905260748083019490945282518083039094018452609490910190915281519101206000903360008181526008850160205260409020805460ff1916600117905590915061223190839083612ce4565b50336001600160a01b0316847f52999628fb1cb05707e842278833b22e511f11746202cecdf221968b0b89e8bd858460405161226e9291906143d9565b60405180910390a350505050565b600081815260096020526040902054806122a9576040516322e679e360e11b815260040160405180910390fd5b919050565b60006122bc60046014612ef0565b905090565b6122c961257e565b60006122d3612ae4565b80546001600160a01b0319166001600160a01b03841690811782559091506122f9611755565b6001600160a01b03167f38d16b8cac22d99fc7c124b9cd0de2d3fa1faef420bfe791d8c362d765e2270060405160405180910390a35050565b600080516020614a14833981519152821061234c57600080fd5b825464ffffffffff600160281b9091048116908216811161236c57600080fd5b8260005b818660010160006123818488612f56565b64ffffffffff1681526020019081526020016000208190555060008160016123a991906145a7565b60ff168464ffffffffff16901c64ffffffffff16905060018564ffffffffff16901c64ffffffffff1681116123de5750612576565b600185166000036124aa5760006123ff836123fa8860016145c0565b612f56565b60408051808201825286815264ffffffffff8316600090815260018c0160209081529083902054908201529051632b0aac7f60e11b815291925073__$078c82ddf6c95d34ea184ef1dd6130d136$__9163561558fe91612461916004016145dd565b602060405180830381865af415801561247e573d6000803e3d6000fd5b505050506040513d601f19601f820116820180604052508101906124a291906144cd565b935050612562565b60006124bb836123fa60018961460e565b60408051808201825264ffffffffff8316600090815260018c0160209081529083902054825281018790529051632b0aac7f60e11b815291925073__$078c82ddf6c95d34ea184ef1dd6130d136$__9163561558fe9161251d916004016145dd565b602060405180830381865af415801561253a573d6000803e3d6000fd5b505050506040513d601f19601f8201168201806040525081019061255e91906144cd565b9350505b50647fffffffff600194851c169301612370565b505050505050565b33612587611755565b6001600160a01b0316146125b0573360405163118cdaa760e01b815260040161085f9190613f83565b565b8051600090816125c382601461462b565b6001600160401b038111156125da576125da6140d7565b6040519080825280601f01601f191660200182016040528015612604576020820181803683370190505b50905060005b828110156126ae5760008582815181106126265761262661449e565b602002602001015160601b90506000826014612642919061462b565b905060005b60148110156126a0578281601481106126625761266261449e565b1a60f81b856126718385614515565b815181106126815761268161449e565b60200101906001600160f81b031916908160001a905350600101612647565b50505080600101905061260a565b5080516020909101209392505050565b826126dc57604051630fb0193f60e41b815260040160405180910390fd5b8861012001516001600160a01b0316630741a9da8b8a8a8a8a8a8a6040518863ffffffff1660e01b81526004016127199796959493929190614642565b602060405180830381865afa158015612736573d6000803e3d6000fd5b505050506040513d601f19601f8201168201806040525081019061275a9190614579565b506127688a85858585612f74565b50505050505050505050565b600061277e612ae4565b80546001600160a01b03191681559050612797826130b5565b5050565b8154600160281b900464ffffffffff16600080516020614a1483398151915282106127c557600080fd5b825464ffffffffff908116908216106127dd57600080fd5b6127e88160016145c0565b835464ffffffffff91909116600160281b0264ffffffffff60281b199091161783558160005b8185600101600061281f8487612f56565b64ffffffffff168152602081019190915260400160002055600183161561290f576000612851826123fa60018761460e565b60408051808201825264ffffffffff8316600090815260018a0160209081529083902054825281018690529051632b0aac7f60e11b815291925073__$078c82ddf6c95d34ea184ef1dd6130d136$__9163561558fe916128b3916004016145dd565b602060405180830381865af41580156128d0573d6000803e3d6000fd5b505050506040513d601f19601f820116820180604052508101906128f491906144cd565b647fffffffff600195861c169490935091909101905061280e565b5050505050565b7f9016d09d72d40fdae2fd8ceac6b6234c7706214fd39c1cd1e609a0528c19930090565b6000807ff0c57e16840df040f15088dc2f81fe391c3923bec73e23a9662efc9c229c6a006107e2565b61296b613111565b61146581613136565b602060ff8216111561298557600080fd5b612996600160ff831681901b61468e565b82546001600160501b03191664ffffffffff919091161790915550565b600681015460005b81811015612adf5760006129d0826001614515565b90505b82811015612ad65760008460060183815481106129f2576129f261449e565b60009182526020822001546006870180546001600160a01b0390921693509084908110612a2157612a2161449e565b6000918252602090912001546001600160a01b0390811691508216811015612acc5780866006018581548110612a5957612a5961449e565b9060005260206000200160006101000a8154816001600160a01b0302191690836001600160a01b0316021790555081866006018481548110612a9d57612a9d61449e565b9060005260206000200160006101000a8154816001600160a01b0302191690836001600160a01b031602179055505b50506001016129d3565b506001016129bb565b505050565b7f237e158222e3e6968b72b9db0d8043aacf074ad9f650f0d1606b4d82ee432c0090565b60008211612b295760405163aeaddff160e01b815260040160405180910390fd5b6001546001600160a01b0316612b52576040516350ca893360e01b815260040160405180910390fd5b6000818152600a602052604081206001805460028301549293926001600160a01b039091169163bb03bd71918891612b899161468e565b6040516001600160e01b031960e085901b1681526001600160a01b0390921660048301526024820152604401602060405180830381865afa158015612bd2573d6000803e3d6000fd5b505050506040513d601f19601f82011682018060405250810190612bf691906144cd565b90506000600160009054906101000a90046001600160a01b03166001600160a01b0316631209b1f66040518163ffffffff1660e01b8152600401602060405180830381865afa158015612c4d573d6000803e3d6000fd5b505050506040513d601f19601f82011682018060405250810190612c7191906144cd565b905060008111612c945760405163aeaddff160e01b815260040160405180910390fd5b6000612ca082846146a1565b905060008111612cc35760405163149fbcfd60e11b815260040160405180910390fd5b80861115611c905760405163aeaddff160e01b815260040160405180910390fd5b6005830154600684018054600092600160201b900463ffffffff1690811115612d6457508054600180820183556000928352602080842090920180546001600160a01b0319166001600160a01b03881690811790915583526009870182526040808420869055600a88019092529120805460ff1916821790559050612ee9565b60008087600901600085600081548110612d8057612d8061449e565b60009182526020808320909101546001600160a01b03168352820192909252604001902054905060015b8454811015612e0c576000896009016000878481548110612dcd57612dcd61449e565b60009182526020808320909101546001600160a01b03168352820192909252604001902054905082811115612e03578092508193505b50600101612daa565b50808610612e21576000945050505050612ee9565b600088600a016000868581548110612e3b57612e3b61449e565b60009182526020808320909101546001600160a01b031683528201929092526040019020805460ff19166001836002811115612e7957612e796140c1565b021790555086848381548110612e9157612e9161449e565b600091825260208083209190910180546001600160a01b0319166001600160a01b03948516179055918916815260098a0182526040808220899055600a8b0190925220805460ff191660019081179091559450505050505b9392505050565b6000808260ff1611612f0157600080fd5b602060ff83161115612f1257600080fd5b8254600160281b900464ffffffffff1680612f3160ff851660026147d3565b64ffffffffff161015612f4357600080fd5b612f4e848285613168565b949350505050565b600081612f6a60ff851663ffffffff6147ed565b612ee991906145c0565b80612f9257604051639914ab1b60e01b815260040160405180910390fd5b600c546001600160a01b0316612fbb57604051630d6eeecb60e01b815260040160405180910390fd5b600c54604051635a3b618f60e11b8152600091829182916001600160a01b03169063b476c31e90612ffc90309046908d908d908d908d908d90600401614814565b600060405180830381865afa158015613019573d6000803e3d6000fd5b505050506040513d6000823e601f3d908101601f1916820160405261304191908101906148e5565b60008b8152600f60209081526040909120845194975092955090935061306a9290860190613cae565b506000888152601060209081526040909120835161308a92850190613cae565b50600088815260116020908152604090912082516130aa92840190613cae565b505050505050505050565b60006130bf612916565b80546001600160a01b038481166001600160a01b031983168117845560405193945091169182907f8be0079c531659141344cd1fd0a4f28419497f9722a3daafe3b4186f6b6457e090600090a3505050565b613119613220565b6125b057604051631afcd79f60e31b815260040160405180910390fd5b61313e613111565b6001600160a01b03811661145c576000604051631e4fbdf760e01b815260040161085f9190613f83565b6000602060ff8316111561317b57600080fd5b8264ffffffffff1660000361319a576131938261323a565b9050612ee9565b60006131a78360016145a7565b60ff166001600160401b038111156131c1576131c16140d7565b6040519080825280602002602001820160405280156131ea578160200160208202803683370190505b5090506131f98585858461388f565b808360ff168151811061320e5761320e61449e565b60200260200101519150509392505050565b600061322a61293a565b54600160401b900460ff16919050565b60008160ff1660000361324f57506000919050565b8160ff1660010361328157507f2098f5fb9e239eab3ceac3f27b81e481dc3124d55ffed523a839ee8446b64864919050565b8160ff166002036132b357507f1069673dcdb12263df301a6ff584a7ec261a44cb9dc68df067a4774460b1f1e1919050565b8160ff166003036132e557507f18f43331537ee2af2e3d758d50f72106467c6eea50371dd528d57eb2b856d238919050565b8160ff1660040361331757507f07f9d837cb17b0d36320ffe93ba52345f1b728571a568265caac97559dbc952a919050565b8160ff1660050361334957507f2b94cf5e8746b3f5c9631f4c5df32907a699c58c94b2ad4d7b5cec1639183f55919050565b8160ff1660060361337b57507f2dee93c5a666459646ea7d22cca9e1bcfed71e6951b953611d11dda32ea09d78919050565b8160ff166007036133ad57507f078295e5a22b84e982cf601eb639597b8b0515a88cb5ac7fa8a4aabe3c87349d919050565b8160ff166008036133df57507f2fa5e5f18f6027a6501bec864564472a616b2e274a41211a444cbe3a99f3cc61919050565b8160ff1660090361341157507f0e884376d0d8fd21ecb780389e941f66e45e7acce3e228ab3e2156a614fcd747919050565b8160ff16600a0361344357507f1b7201da72494f1e28717ad1a52eb469f95892f957713533de6175e5da190af2919050565b8160ff16600b0361347557507f1f8d8822725e36385200c0b201249819a6e6e1e4650808b5bebc6bface7d7636919050565b8160ff16600c036134a757507f2c5d82f66c914bafb9701589ba8cfcfb6162b0a12acf88a8d0879a0471b5f85a919050565b8160ff16600d036134d957507f14c54148a0940bb820957f5adf3fa1134ef5c4aaa113f4646458f270e0bfbfd0919050565b8160ff16600e0361350b57507f190d33b12f986f961e10c0ee44d8b9af11be25588cad89d416118e4bf4ebe80c919050565b8160ff16600f0361353d57507f22f98aa9ce704152ac17354914ad73ed1167ae6596af510aa5b3649325e06c92919050565b8160ff1660100361356f57507f2a7c7c9b6ce5880b9f6f228d72bf6a575a526f29c66ecceef8b753d38bba7323919050565b8160ff166011036135a157507f2e8186e558698ec1c67af9c14d463ffc470043c9c2988b954d75dd643f36b992919050565b8160ff166012036135d357507f0f57c5571e9a4eab49e2c8cf050dae948aef6ead647392273546249d1c1ff10f919050565b8160ff1660130361360557507f1830ee67b5fb554ad5f63d4388800e1cfe78e310697d46e43c9ce36134f72cca919050565b8160ff1660140361363757507f2134e76ac5d21aab186c2be1dd8f84ee880a1e46eaf712f9d371b6df22191f3e919050565b8160ff1660150361366957507f19df90ec844ebc4ffeebd866f33859b0c051d8c958ee3aa88f8f8df3db91a5b1919050565b8160ff1660160361369b57507f18cca2a66b5c0787981e69aefd84852d74af0e93ef4912b4648c05f722efe52b919050565b8160ff166017036136cd57507f2388909415230d1b4d1304d2d54f473a628338f2efad83fadf05644549d2538d919050565b8160ff166018036136ff57507f27171fb4a97b6cc0e9e8f543b5294de866a2af2c9c8d0b1d96e673e4529ed540919050565b8160ff1660190361373157507f2ff6650540f629fd5711a0bc74fc0d28dcb230b9392583e5f8d59696dde6ae21919050565b8160ff16601a0361376357507f120c58f143d491e95902f7f5277778a2e0ad5168f6add75669932630ce611518919050565b8160ff16601b0361379557507f1f21feb70d3f21b07bf853d5e5db03071ec495a0a565a21da2d665d279483795919050565b8160ff16601c036137c757507f24be905fa71335e14c638cc0f66a8623a826e768068a9e968bb1a1dde18a72d2919050565b8160ff16601d036137f957507f0f8666b62ed17491c50ceadead57d4cd597ef3821d65c328744c74e553dac26d919050565b8160ff16601e0361382b57507f0918d46bf52d98b034413f4a1a1c41594e7a7a3f6ae08cb43d1a2a230e1959ef919050565b8160ff16601f0361385d57507f1bbeb01b4c479ecde76917645e404dfa2e26f90d0afc5a65128513ad375c5ff2919050565b8160ff1660200361029357507f2f68a1c58e257e42a17a6c61dff5551ed560b9922ab119d5ac8e184c9734ead9919050565b602060ff831611156138a057600080fd5b60008364ffffffffff16116138b457600080fd5b60006138c160018561460e565b905060018116600003613919578460010160006138df600084612f56565b64ffffffffff16815260200190815260200160002054826000815181106139085761390861449e565b602002602001018181525050613943565b613923600061323a565b826000815181106139365761393661449e565b6020026020010181815250505b60005b8360ff168160ff1610156125765760018216600003613a3f5773__$078c82ddf6c95d34ea184ef1dd6130d136$__63561558fe6040518060400160405280868560ff16815181106139995761399961449e565b602002602001015181526020016139af8561323a565b8152506040518263ffffffff1660e01b81526004016139ce91906145dd565b602060405180830381865af41580156139eb573d6000803e3d6000fd5b505050506040513d601f19601f82011682018060405250810190613a0f91906144cd565b83613a1b8360016145a7565b60ff1681518110613a2e57613a2e61449e565b602002602001018181525050613bf9565b6000613a4c8260016145a7565b60ff168664ffffffffff16901c64ffffffffff16905060018364ffffffffff16901c64ffffffffff16811115613af1576000876001016000613aa5856001613a9491906145a7565b60018864ffffffffff16901c612f56565b64ffffffffff1681526020019081526020016000205490508085846001613acc91906145a7565b60ff1681518110613adf57613adf61449e565b60200260200101818152505050613bf7565b6000876001016000613b0a856001886123fa919061460e565b64ffffffffff16815260200190815260200160002054905073__$078c82ddf6c95d34ea184ef1dd6130d136$__63561558fe6040518060400160405280848152602001888760ff1681518110613b6257613b6261449e565b60200260200101518152506040518263ffffffff1660e01b8152600401613b8991906145dd565b602060405180830381865af4158015613ba6573d6000803e3d6000fd5b505050506040513d601f19601f82011682018060405250810190613bca91906144cd565b85613bd68560016145a7565b60ff1681518110613be957613be961449e565b602002602001018181525050505b505b647fffffffff600192831c169101613946565b600183019183908215613c9e5791602002820160005b83821115613c6c57833563ffffffff1683826101000a81548163ffffffff021916908363ffffffff1602179055509260200192600401602081600301049283019260010302613c22565b8015613c9c5782816101000a81549063ffffffff0219169055600401602081600301049283019260010302613c6c565b505b50613caa929150613ce9565b5090565b828054828255906000526020600020908101928215613c9e579160200282015b82811115613c9e578251825591602001919060010190613cce565b5b80821115613caa5760008155600101613cea565b600060208284031215613d1057600080fd5b81356001600160e01b031981168114612ee957600080fd5b6001600160a01b038116811461146557600080fd5b600060208284031215613d4f57600080fd5b8135612ee981613d28565b600060208284031215613d6c57600080fd5b5035919050565b60008083601f840112613d8557600080fd5b5081356001600160401b03811115613d9c57600080fd5b602083019150836020828501011115613db457600080fd5b9250929050565b60008060008060008060008060a0898b031215613dd757600080fd5b8835975060208901356001600160401b03811115613df457600080fd5b613e008b828c01613d73565b9098509650506040890135945060608901356001600160401b03811115613e2657600080fd5b613e328b828c01613d73565b90955093505060808901356001600160401b03811115613e5157600080fd5b613e5d8b828c01613d73565b999c989b5096995094979396929594505050565b600081518084526020840193506020830160005b82811015613eac5781516001600160a01b0316865260209586019590910190600101613e85565b5093949350505050565b600081518084526020840193506020830160005b82811015613eac578151865260209586019590910190600101613eca565b604081526000613efb6040830185613e71565b8281036020840152613f0d8185613eb6565b95945050505050565b600080600060808486031215613f2b57600080fd5b833592506020840135915060808401851015613f4657600080fd5b6040840190509250925092565b60008060408385031215613f6657600080fd5b823591506020830135613f7881613d28565b809150509250929050565b6001600160a01b0391909116815260200190565b600080600060608486031215613fac57600080fd5b833592506020840135613fbe81613d28565b929592945050506040919091013590565b602081526000612ee96020830184613e71565b606081526000613ff56060830186613eb6565b82810360208401526140078186613eb6565b9050828103604084015261401b8185613eb6565b9695505050505050565b6000806040838503121561403857600080fd5b823561404381613d28565b946020939093013593505050565b6000806040838503121561406457600080fd5b50508035926020909101359150565b634e487b7160e01b600052601160045260246000fd5b60008161409857614098614073565b506000190190565b64ffffffffff93841681526020810192909252909116604082015260600190565b634e487b7160e01b600052602160045260246000fd5b634e487b7160e01b600052604160045260246000fd5b6040516101e081016001600160401b0381118282101715614110576141106140d7565b60405290565b604051601f8201601f191681016001600160401b038111828210171561413e5761413e6140d7565b604052919050565b8051600481106122a957600080fd5b600082601f83011261416657600080fd5b604080519081016001600160401b0381118282101715614188576141886140d7565b806040525080604084018581111561419f57600080fd5b845b818110156141b95780518352602092830192016141a1565b509195945050505050565b80516122a981613d28565b805160ff811681146122a957600080fd5b600082601f8301126141f157600080fd5b81516001600160401b0381111561420a5761420a6140d7565b61421d601f8201601f1916602001614116565b81815284602083860101111561423257600080fd5b60005b8281101561425157602081860181015183830182015201614235565b506000918101602001919091529392505050565b805180151581146122a957600080fd5b60006020828403121561428757600080fd5b81516001600160401b0381111561429d57600080fd5b820161020081850312156142b057600080fd5b6142b86140ed565b815181526142c860208301614146565b6020820152604082810151908201526142e48560608401614155565b606082015260a082015160808201526142ff60c083016141c4565b60a082015261431060e083016141cf565b60c08201526101008201516001600160401b0381111561432f57600080fd5b61433b868285016141e0565b60e08301525061434e61012083016141c4565b61010082015261436161014083016141c4565b61012082015261016082810151610140830152610180830151908201526101a08201516001600160401b0381111561439857600080fd5b6143a4868285016141e0565b610180830152506143b86101c083016141c4565b6101a08201526143cb6101e08301614265565b6101c0820152949350505050565b918252602082015260400190565b6000815480845260208401935082600052602060002060005b82811015613eac5781546001600160a01b0316865260209095019460019182019101614400565b81835281816020850137506000828201602090810191909152601f909101601f19169091010190565b60808152600061446360808301896143e7565b828103602084015261447681888a614427565b90508560408401528281036060840152614491818587614427565b9998505050505050505050565b634e487b7160e01b600052603260045260246000fd5b6000600182016144c6576144c6614073565b5060010190565b6000602082840312156144df57600080fd5b5051919050565b803563ffffffff811681146122a957600080fd5b60006020828403121561450c57600080fd5b612ee9826144e6565b808201808211156107e2576107e2614073565b84815260a08101602082018560005b60028110156145645763ffffffff61454e836144e6565b1683526020928301929190910190600101614537565b50505060608201939093526080015292915050565b60006020828403121561458b57600080fd5b612ee982614265565b604081526000613efb60408301856143e7565b60ff81811683821601908111156107e2576107e2614073565b64ffffffffff81811683821601908111156107e2576107e2614073565b60408101818360005b60028110156146055781518352602092830192909101906001016145e6565b50505092915050565b64ffffffffff82811682821603908111156107e2576107e2614073565b80820281158282048414176107e2576107e2614073565b87815286602082015260c06040820152600061466160c0830188613e71565b86606084015285608084015282810360a0840152614680818587614427565b9a9950505050505050505050565b818103818111156107e2576107e2614073565b6000826146be57634e487b7160e01b600052601260045260246000fd5b500490565b6001815b6001841115611602578085048111156146e2576146e2614073565b60018416156146f057908102905b60019390931c9280026146c7565b60008261470d575060016107e2565b8161471a575060006107e2565b8160018114614730576002811461473a5761476c565b60019150506107e2565b60ff84111561474b5761474b614073565b6001841b915064ffffffffff82111561476657614766614073565b506107e2565b5060208310610133831016604e8410600b84101617156147a4575081810a64ffffffffff81111561479f5761479f614073565b6107e2565b6147b464ffffffffff84846146c3565b8064ffffffffff048211156147cb576147cb614073565b029392505050565b6000612ee964ffffffffff841664ffffffffff84166146fe565b64ffffffffff818116838216029081169081811461480d5761480d614073565b5092915050565b60018060a01b038816815286602082015285604082015260a06060820152600061484260a083018688614427565b8281036080840152614680818587614427565b60006001600160401b0382111561486e5761486e6140d7565b5060051b60200190565b600082601f83011261488957600080fd5b815161489c61489782614855565b614116565b8082825260208201915060208360051b8601019250858311156148be57600080fd5b602085015b838110156148db5780518352602092830192016148c3565b5095945050505050565b6000806000606084860312156148fa57600080fd5b83516001600160401b0381111561491057600080fd5b8401601f8101861361492157600080fd5b805161492f61489782614855565b8082825260208201915060208360051b85010192508883111561495157600080fd5b6020840193505b82841015614973578351825260209384019390910190614958565b6020880151909650925050506001600160401b0381111561499357600080fd5b61499f86828701614878565b604086015190935090506001600160401b038111156149bd57600080fd5b6149c986828701614878565b915050925092509256fe70d4f2aeee99318ec9b9950ac8942b1853f1271010f9afec7d5d51d16145eb8c69d0aaccd9fd7c013f79cb6049c6c097cf0c02dd6111daf1f7be30836a119a1b30644e72e131a029b85045b68181585d2833e84879b9709143e1f593f0000001a164736f6c634300081c000a",
  "linkReferences": {
    "npm/poseidon-solidity@0.0.5/PoseidonT3.sol": {
      "PoseidonT3": [
        {
          "length": 20,
          "start": 9492
        },
        {
          "length": 20,
          "start": 9680
        },
        {
          "length": 20,
          "start": 10598
        },
        {
          "length": 20,
          "start": 14906
        },
        {
          "length": 20,
          "start": 15357
        }
      ]
    }
  },
  "deployedLinkReferences": {
    "npm/poseidon-solidity@0.0.5/PoseidonT3.sol": {
      "PoseidonT3": [
        {
          "length": 20,
          "start": 9275
        },
        {
          "length": 20,
          "start": 9463
        },
        {
          "length": 20,
          "start": 10381
        },
        {
          "length": 20,
          "start": 14689
        },
        {
          "length": 20,
          "start": 15140
        }
      ]
    }
  },
  "immutableReferences": {},
  "inputSourceName": "project/contracts/registry/CiphernodeRegistryOwnable.sol",
  "buildInfoId": "solc-0_8_28-b4c3d00ecb469b7feb2a44356615e2767397e101"
}