{
  "_format": "hh3-artifact-1",
  "contractName": "CiphernodeRegistryOwnable",
  "sourceName": "contracts/registry/CiphernodeRegistryOwnable.sol",
  "abi": [
    {
      "inputs": [],
      "stateMutability": "nonpayable",
      "type": "constructor"
    },
    {
      "inputs": [],
      "name": "AttestationBindingCountMismatch",
      "type": "error"
    },
    {
      "inputs": [],
      "name": "BondingRegistryNotSet",
      "type": "error"
    },
    {
      "inputs": [
        {
          "internalType": "address",
          "name": "node",
          "type": "address"
        }
      ],
      "name": "CiphernodeNotEnabled",
      "type": "error"
    },
    {
      "inputs": [],
      "name": "CommitteeAlreadyFinalized",
      "type": "error"
    },
    {
      "inputs": [],
      "name": "CommitteeAlreadyPublished",
      "type": "error"
    },
    {
      "inputs": [],
      "name": "CommitteeAlreadyRequested",
      "type": "error"
    },
    {
      "inputs": [],
      "name": "CommitteeDeadlineReached",
      "type": "error"
    },
    {
      "inputs": [],
      "name": "CommitteeNotFinalized",
      "type": "error"
    },
    {
      "inputs": [],
      "name": "CommitteeNotInitializedOrFinalized",
      "type": "error"
    },
    {
      "inputs": [],
      "name": "CommitteeNotPublished",
      "type": "error"
    },
    {
      "inputs": [],
      "name": "CommitteeNotRequested",
      "type": "error"
    },
    {
      "inputs": [],
      "name": "DkgProofRequired",
      "type": "error"
    },
    {
      "inputs": [],
      "name": "FoldAttestationVerifierNotSet",
      "type": "error"
    },
    {
      "inputs": [],
      "name": "FoldAttestationsRequired",
      "type": "error"
    },
    {
      "inputs": [
        {
          "internalType": "uint256",
          "name": "requested",
          "type": "uint256"
        },
        {
          "internalType": "uint256",
          "name": "available",
          "type": "uint256"
        }
      ],
      "name": "InsufficientCiphernodes",
      "type": "error"
    },
    {
      "inputs": [],
      "name": "InvalidDkgProof",
      "type": "error"
    },
    {
      "inputs": [],
      "name": "InvalidFoldAttestation",
      "type": "error"
    },
    {
      "inputs": [],
      "name": "InvalidInitialization",
      "type": "error"
    },
    {
      "inputs": [],
      "name": "InvalidTicketNumber",
      "type": "error"
    },
    {
      "inputs": [],
      "name": "NodeAlreadySubmitted",
      "type": "error"
    },
    {
      "inputs": [
        {
          "internalType": "address",
          "name": "node",
          "type": "address"
        }
      ],
      "name": "NodeNotBonded",
      "type": "error"
    },
    {
      "inputs": [],
      "name": "NodeNotEligible",
      "type": "error"
    },
    {
      "inputs": [],
      "name": "NodeNotSubmitted",
      "type": "error"
    },
    {
      "inputs": [],
      "name": "NotInitializing",
      "type": "error"
    },
    {
      "inputs": [],
      "name": "NotOwnerOrBondingRegistry",
      "type": "error"
    },
    {
      "inputs": [],
      "name": "NotSlashingManager",
      "type": "error"
    },
    {
      "inputs": [],
      "name": "OnlyBondingRegistry",
      "type": "error"
    },
    {
      "inputs": [],
      "name": "OnlyEnclave",
      "type": "error"
    },
    {
      "inputs": [
        {
          "internalType": "address",
          "name": "owner",
          "type": "address"
        }
      ],
      "name": "OwnableInvalidOwner",
      "type": "error"
    },
    {
      "inputs": [
        {
          "internalType": "address",
          "name": "account",
          "type": "address"
        }
      ],
      "name": "OwnableUnauthorizedAccount",
      "type": "error"
    },
    {
      "inputs": [],
      "name": "PartyIdNotInProof",
      "type": "error"
    },
    {
      "inputs": [],
      "name": "PkCommitmentRequired",
      "type": "error"
    },
    {
      "inputs": [],
      "name": "SubmissionWindowClosed",
      "type": "error"
    },
    {
      "inputs": [],
      "name": "SubmissionWindowNotClosed",
      "type": "error"
    },
    {
      "inputs": [],
      "name": "ThresholdNotMet",
      "type": "error"
    },
    {
      "inputs": [],
      "name": "Unauthorized",
      "type": "error"
    },
    {
      "inputs": [],
      "name": "ZeroAddress",
      "type": "error"
    },
    {
      "anonymous": false,
      "inputs": [
        {
          "indexed": true,
          "internalType": "address",
          "name": "bondingRegistry",
          "type": "address"
        }
      ],
      "name": "BondingRegistrySet",
      "type": "event"
    },
    {
      "anonymous": false,
      "inputs": [
        {
          "indexed": true,
          "internalType": "address",
          "name": "node",
          "type": "address"
        },
        {
          "indexed": false,
          "internalType": "uint256",
          "name": "index",
          "type": "uint256"
        },
        {
          "indexed": false,
          "internalType": "uint256",
          "name": "numNodes",
          "type": "uint256"
        },
        {
          "indexed": false,
          "internalType": "uint256",
          "name": "size",
          "type": "uint256"
        }
      ],
      "name": "CiphernodeAdded",
      "type": "event"
    },
    {
      "anonymous": false,
      "inputs": [
        {
          "indexed": true,
          "internalType": "address",
          "name": "node",
          "type": "address"
        },
        {
          "indexed": false,
          "internalType": "uint256",
          "name": "index",
          "type": "uint256"
        },
        {
          "indexed": false,
          "internalType": "uint256",
          "name": "numNodes",
          "type": "uint256"
        },
        {
          "indexed": false,
          "internalType": "uint256",
          "name": "size",
          "type": "uint256"
        }
      ],
      "name": "CiphernodeRemoved",
      "type": "event"
    },
    {
      "anonymous": false,
      "inputs": [
        {
          "indexed": true,
          "internalType": "uint256",
          "name": "e3Id",
          "type": "uint256"
        },
        {
          "indexed": false,
          "internalType": "bool",
          "name": "active",
          "type": "bool"
        }
      ],
      "name": "CommitteeActivationChanged",
      "type": "event"
    },
    {
      "anonymous": false,
      "inputs": [
        {
          "indexed": true,
          "internalType": "uint256",
          "name": "e3Id",
          "type": "uint256"
        },
        {
          "indexed": false,
          "internalType": "address[]",
          "name": "committee",
          "type": "address[]"
        },
        {
          "indexed": false,
          "internalType": "uint256[]",
          "name": "scores",
          "type": "uint256[]"
        }
      ],
      "name": "CommitteeFinalized",
      "type": "event"
    },
    {
      "anonymous": false,
      "inputs": [
        {
          "indexed": true,
          "internalType": "uint256",
          "name": "e3Id",
          "type": "uint256"
        },
        {
          "indexed": false,
          "internalType": "uint256",
          "name": "nodesSubmitted",
          "type": "uint256"
        },
        {
          "indexed": false,
          "internalType": "uint256",
          "name": "thresholdRequired",
          "type": "uint256"
        }
      ],
      "name": "CommitteeFormationFailed",
      "type": "event"
    },
    {
      "anonymous": false,
      "inputs": [
        {
          "indexed": true,
          "internalType": "uint256",
          "name": "e3Id",
          "type": "uint256"
        },
        {
          "indexed": true,
          "internalType": "address",
          "name": "node",
          "type": "address"
        },
        {
          "indexed": false,
          "internalType": "bytes32",
          "name": "reason",
          "type": "bytes32"
        },
        {
          "indexed": false,
          "internalType": "uint256",
          "name": "activeCountAfter",
          "type": "uint256"
        }
      ],
      "name": "CommitteeMemberExpelled",
      "type": "event"
    },
    {
      "anonymous": false,
      "inputs": [
        {
          "indexed": true,
          "internalType": "uint256",
          "name": "e3Id",
          "type": "uint256"
        },
        {
          "indexed": false,
          "internalType": "address[]",
          "name": "nodes",
          "type": "address[]"
        },
        {
          "indexed": false,
          "internalType": "bytes",
          "name": "publicKey",
          "type": "bytes"
        },
        {
          "indexed": false,
          "internalType": "bytes32",
          "name": "pkCommitment",
          "type": "bytes32"
        },
        {
          "indexed": false,
          "internalType": "bytes",
          "name": "proof",
          "type": "bytes"
        }
      ],
      "name": "CommitteePublished",
      "type": "event"
    },
    {
      "anonymous": false,
      "inputs": [
        {
          "indexed": true,
          "internalType": "uint256",
          "name": "e3Id",
          "type": "uint256"
        },
        {
          "indexed": false,
          "internalType": "uint256",
          "name": "seed",
          "type": "uint256"
        },
        {
          "indexed": false,
          "internalType": "uint32[2]",
          "name": "threshold",
          "type": "uint32[2]"
        },
        {
          "indexed": false,
          "internalType": "uint256",
          "name": "requestBlock",
          "type": "uint256"
        },
        {
          "indexed": false,
          "internalType": "uint256",
          "name": "committeeDeadline",
          "type": "uint256"
        }
      ],
      "name": "CommitteeRequested",
      "type": "event"
    },
    {
      "anonymous": false,
      "inputs": [
        {
          "indexed": true,
          "internalType": "uint256",
          "name": "e3Id",
          "type": "uint256"
        },
        {
          "indexed": false,
          "internalType": "uint256",
          "name": "activeCount",
          "type": "uint256"
        },
        {
          "indexed": false,
          "internalType": "uint256",
          "name": "thresholdM",
          "type": "uint256"
        },
        {
          "indexed": false,
          "internalType": "bool",
          "name": "viable",
          "type": "bool"
        }
      ],
      "name": "CommitteeViabilityUpdated",
      "type": "event"
    },
    {
      "anonymous": false,
      "inputs": [
        {
          "indexed": true,
          "internalType": "address",
          "name": "enclave",
          "type": "address"
        }
      ],
      "name": "EnclaveSet",
      "type": "event"
    },
    {
      "anonymous": false,
      "inputs": [
        {
          "indexed": false,
          "internalType": "uint64",
          "name": "version",
          "type": "uint64"
        }
      ],
      "name": "Initialized",
      "type": "event"
    },
    {
      "anonymous": false,
      "inputs": [
        {
          "indexed": true,
          "internalType": "address",
          "name": "previousOwner",
          "type": "address"
        },
        {
          "indexed": true,
          "internalType": "address",
          "name": "newOwner",
          "type": "address"
        }
      ],
      "name": "OwnershipTransferred",
      "type": "event"
    },
    {
      "anonymous": false,
      "inputs": [
        {
          "indexed": true,
          "internalType": "address",
          "name": "slashingManager",
          "type": "address"
        }
      ],
      "name": "SlashingManagerSet",
      "type": "event"
    },
    {
      "anonymous": false,
      "inputs": [
        {
          "indexed": false,
          "internalType": "uint256",
          "name": "sortitionSubmissionWindow",
          "type": "uint256"
        }
      ],
      "name": "SortitionSubmissionWindowSet",
      "type": "event"
    },
    {
      "anonymous": false,
      "inputs": [
        {
          "indexed": true,
          "internalType": "uint256",
          "name": "e3Id",
          "type": "uint256"
        },
        {
          "indexed": true,
          "internalType": "address",
          "name": "node",
          "type": "address"
        },
        {
          "indexed": false,
          "internalType": "uint256",
          "name": "ticketId",
          "type": "uint256"
        },
        {
          "indexed": false,
          "internalType": "uint256",
          "name": "score",
          "type": "uint256"
        }
      ],
      "name": "TicketSubmitted",
      "type": "event"
    },
    {
      "inputs": [],
      "name": "TREE_DEPTH",
      "outputs": [
        {
          "internalType": "uint8",
          "name": "",
          "type": "uint8"
        }
      ],
      "stateMutability": "view",
      "type": "function"
    },
    {
      "inputs": [
        {
          "internalType": "address",
          "name": "node",
          "type": "address"
        }
      ],
      "name": "addCiphernode",
      "outputs": [],
      "stateMutability": "nonpayable",
      "type": "function"
    },
    {
      "inputs": [],
      "name": "bondingRegistry",
      "outputs": [
        {
          "internalType": "contract IBondingRegistry",
          "name": "",
          "type": "address"
        }
      ],
      "stateMutability": "view",
      "type": "function"
    },
    {
      "inputs": [
        {
          "internalType": "address",
          "name": "node",
          "type": "address"
        }
      ],
      "name": "ciphernodeEnabled",
      "outputs": [
        {
          "internalType": "bool",
          "name": "enabled",
          "type": "bool"
        }
      ],
      "stateMutability": "view",
      "type": "function"
    },
    {
      "inputs": [
        {
          "internalType": "address",
          "name": "node",
          "type": "address"
        }
      ],
      "name": "ciphernodeTreeIndex",
      "outputs": [
        {
          "internalType": "uint40",
          "name": "index",
          "type": "uint40"
        }
      ],
      "stateMutability": "view",
      "type": "function"
    },
    {
      "inputs": [],
      "name": "ciphernodes",
      "outputs": [
        {
          "internalType": "uint40",
          "name": "maxIndex",
          "type": "uint40"
        },
        {
          "internalType": "uint40",
          "name": "numberOfLeaves",
          "type": "uint40"
        }
      ],
      "stateMutability": "view",
      "type": "function"
    },
    {
      "inputs": [
        {
          "internalType": "uint256",
          "name": "e3Id",
          "type": "uint256"
        }
      ],
      "name": "committeePublicKey",
      "outputs": [
        {
          "internalType": "bytes32",
          "name": "publicKeyHash",
          "type": "bytes32"
        }
      ],
      "stateMutability": "view",
      "type": "function"
    },
    {
      "inputs": [],
      "name": "dkgFoldAttestationVerifier",
      "outputs": [
        {
          "internalType": "contract IDkgFoldAttestationVerifier",
          "name": "",
          "type": "address"
        }
      ],
      "stateMutability": "view",
      "type": "function"
    },
    {
      "inputs": [],
      "name": "enclave",
      "outputs": [
        {
          "internalType": "contract IEnclave",
          "name": "",
          "type": "address"
        }
      ],
      "stateMutability": "view",
      "type": "function"
    },
    {
      "inputs": [
        {
          "internalType": "uint256",
          "name": "e3Id",
          "type": "uint256"
        },
        {
          "internalType": "address",
          "name": "node",
          "type": "address"
        },
        {
          "internalType": "bytes32",
          "name": "reason",
          "type": "bytes32"
        }
      ],
      "name": "expelCommitteeMember",
      "outputs": [
        {
          "internalType": "uint256",
          "name": "activeCount",
          "type": "uint256"
        },
        {
          "internalType": "uint32",
          "name": "thresholdM",
          "type": "uint32"
        }
      ],
      "stateMutability": "nonpayable",
      "type": "function"
    },
    {
      "inputs": [
        {
          "internalType": "uint256",
          "name": "e3Id",
          "type": "uint256"
        }
      ],
      "name": "finalizeCommittee",
      "outputs": [
        {
          "internalType": "bool",
          "name": "success",
          "type": "bool"
        }
      ],
      "stateMutability": "nonpayable",
      "type": "function"
    },
    {
      "inputs": [
        {
          "internalType": "uint256",
          "name": "e3Id",
          "type": "uint256"
        }
      ],
      "name": "getActiveCommitteeNodes",
      "outputs": [
        {
          "internalType": "address[]",
          "name": "nodes",
          "type": "address[]"
        },
        {
          "internalType": "uint256[]",
          "name": "scores",
          "type": "uint256[]"
        }
      ],
      "stateMutability": "view",
      "type": "function"
    },
    {
      "inputs": [],
      "name": "getBondingRegistry",
      "outputs": [
        {
          "internalType": "address",
          "name": "",
          "type": "address"
        }
      ],
      "stateMutability": "view",
      "type": "function"
    },
    {
      "inputs": [
        {
          "internalType": "uint256",
          "name": "e3Id",
          "type": "uint256"
        }
      ],
      "name": "getCommitteeDeadline",
      "outputs": [
        {
          "internalType": "uint256",
          "name": "",
          "type": "uint256"
        }
      ],
      "stateMutability": "view",
      "type": "function"
    },
    {
      "inputs": [
        {
          "internalType": "uint256",
          "name": "e3Id",
          "type": "uint256"
        }
      ],
      "name": "getCommitteeHash",
      "outputs": [
        {
          "internalType": "bytes32",
          "name": "committeeHash",
          "type": "bytes32"
        }
      ],
      "stateMutability": "view",
      "type": "function"
    },
    {
      "inputs": [
        {
          "internalType": "uint256",
          "name": "e3Id",
          "type": "uint256"
        }
      ],
      "name": "getCommitteeNodes",
      "outputs": [
        {
          "internalType": "address[]",
          "name": "nodes",
          "type": "address[]"
        }
      ],
      "stateMutability": "view",
      "type": "function"
    },
    {
      "inputs": [
        {
          "internalType": "uint256",
          "name": "e3Id",
          "type": "uint256"
        }
      ],
      "name": "getCommitteeViability",
      "outputs": [
        {
          "internalType": "uint256",
          "name": "activeCount",
          "type": "uint256"
        },
        {
          "internalType": "uint32",
          "name": "thresholdM",
          "type": "uint32"
        },
        {
          "internalType": "uint32",
          "name": "thresholdN",
          "type": "uint32"
        },
        {
          "internalType": "bool",
          "name": "viable",
          "type": "bool"
        }
      ],
      "stateMutability": "view",
      "type": "function"
    },
    {
      "inputs": [
        {
          "internalType": "uint256",
          "name": "e3Id",
          "type": "uint256"
        }
      ],
      "name": "getDkgAnchors",
      "outputs": [
        {
          "internalType": "uint256[]",
          "name": "partyIds",
          "type": "uint256[]"
        },
        {
          "internalType": "bytes32[]",
          "name": "skAggCommits",
          "type": "bytes32[]"
        },
        {
          "internalType": "bytes32[]",
          "name": "esmAggCommits",
          "type": "bytes32[]"
        }
      ],
      "stateMutability": "view",
      "type": "function"
    },
    {
      "inputs": [
        {
          "internalType": "address",
          "name": "_owner",
          "type": "address"
        },
        {
          "internalType": "uint256",
          "name": "_submissionWindow",
          "type": "uint256"
        }
      ],
      "name": "initialize",
      "outputs": [],
      "stateMutability": "nonpayable",
      "type": "function"
    },
    {
      "inputs": [
        {
          "internalType": "address",
          "name": "node",
          "type": "address"
        }
      ],
      "name": "isCiphernodeEligible",
      "outputs": [
        {
          "internalType": "bool",
          "name": "",
          "type": "bool"
        }
      ],
      "stateMutability": "view",
      "type": "function"
    },
    {
      "inputs": [
        {
          "internalType": "uint256",
          "name": "e3Id",
          "type": "uint256"
        },
        {
          "internalType": "address",
          "name": "node",
          "type": "address"
        }
      ],
      "name": "isCommitteeMember",
      "outputs": [
        {
          "internalType": "bool",
          "name": "",
          "type": "bool"
        }
      ],
      "stateMutability": "view",
      "type": "function"
    },
    {
      "inputs": [
        {
          "internalType": "uint256",
          "name": "e3Id",
          "type": "uint256"
        },
        {
          "internalType": "address",
          "name": "node",
          "type": "address"
        }
      ],
      "name": "isCommitteeMemberActive",
      "outputs": [
        {
          "internalType": "bool",
          "name": "",
          "type": "bool"
        }
      ],
      "stateMutability": "view",
      "type": "function"
    },
    {
      "inputs": [
        {
          "internalType": "address",
          "name": "node",
          "type": "address"
        }
      ],
      "name": "isEnabled",
      "outputs": [
        {
          "internalType": "bool",
          "name": "",
          "type": "bool"
        }
      ],
      "stateMutability": "view",
      "type": "function"
    },
    {
      "inputs": [
        {
          "internalType": "uint256",
          "name": "e3Id",
          "type": "uint256"
        }
      ],
      "name": "isOpen",
      "outputs": [
        {
          "internalType": "bool",
          "name": "",
          "type": "bool"
        }
      ],
      "stateMutability": "view",
      "type": "function"
    },
    {
      "inputs": [],
      "name": "numCiphernodes",
      "outputs": [
        {
          "internalType": "uint256",
          "name": "",
          "type": "uint256"
        }
      ],
      "stateMutability": "view",
      "type": "function"
    },
    {
      "inputs": [],
      "name": "owner",
      "outputs": [
        {
          "internalType": "address",
          "name": "",
          "type": "address"
        }
      ],
      "stateMutability": "view",
      "type": "function"
    },
    {
      "inputs": [
        {
          "internalType": "uint256",
          "name": "e3Id",
          "type": "uint256"
        }
      ],
      "name": "publicKeyHashes",
      "outputs": [
        {
          "internalType": "bytes32",
          "name": "publicKeyHash",
          "type": "bytes32"
        }
      ],
      "stateMutability": "view",
      "type": "function"
    },
    {
      "inputs": [
        {
          "internalType": "uint256",
          "name": "e3Id",
          "type": "uint256"
        },
        {
          "internalType": "bytes",
          "name": "publicKey",
          "type": "bytes"
        },
        {
          "internalType": "bytes32",
          "name": "pkCommitment",
          "type": "bytes32"
        },
        {
          "internalType": "bytes",
          "name": "proof",
          "type": "bytes"
        },
        {
          "internalType": "bytes",
          "name": "dkgAttestationBundle",
          "type": "bytes"
        }
      ],
      "name": "publishCommittee",
      "outputs": [],
      "stateMutability": "nonpayable",
      "type": "function"
    },
    {
      "inputs": [
        {
          "internalType": "address",
          "name": "node",
          "type": "address"
        }
      ],
      "name": "removeCiphernode",
      "outputs": [],
      "stateMutability": "nonpayable",
      "type": "function"
    },
    {
      "inputs": [],
      "name": "renounceOwnership",
      "outputs": [],
      "stateMutability": "nonpayable",
      "type": "function"
    },
    {
      "inputs": [
        {
          "internalType": "uint256",
          "name": "e3Id",
          "type": "uint256"
        },
        {
          "internalType": "uint256",
          "name": "seed",
          "type": "uint256"
        },
        {
          "internalType": "uint32[2]",
          "name": "threshold",
          "type": "uint32[2]"
        }
      ],
      "name": "requestCommittee",
      "outputs": [
        {
          "internalType": "bool",
          "name": "success",
          "type": "bool"
        }
      ],
      "stateMutability": "nonpayable",
      "type": "function"
    },
    {
      "inputs": [],
      "name": "root",
      "outputs": [
        {
          "internalType": "uint256",
          "name": "",
          "type": "uint256"
        }
      ],
      "stateMutability": "view",
      "type": "function"
    },
    {
      "inputs": [
        {
          "internalType": "uint256",
          "name": "e3Id",
          "type": "uint256"
        }
      ],
      "name": "rootAt",
      "outputs": [
        {
          "internalType": "uint256",
          "name": "",
          "type": "uint256"
        }
      ],
      "stateMutability": "view",
      "type": "function"
    },
    {
      "inputs": [
        {
          "internalType": "uint256",
          "name": "e3Id",
          "type": "uint256"
        }
      ],
      "name": "roots",
      "outputs": [
        {
          "internalType": "uint256",
          "name": "root",
          "type": "uint256"
        }
      ],
      "stateMutability": "view",
      "type": "function"
    },
    {
      "inputs": [
        {
          "internalType": "contract IBondingRegistry",
          "name": "_bondingRegistry",
          "type": "address"
        }
      ],
      "name": "setBondingRegistry",
      "outputs": [],
      "stateMutability": "nonpayable",
      "type": "function"
    },
    {
      "inputs": [
        {
          "internalType": "contract IDkgFoldAttestationVerifier",
          "name": "verifier",
          "type": "address"
        }
      ],
      "name": "setDkgFoldAttestationVerifier",
      "outputs": [],
      "stateMutability": "nonpayable",
      "type": "function"
    },
    {
      "inputs": [
        {
          "internalType": "contract IEnclave",
          "name": "_enclave",
          "type": "address"
        }
      ],
      "name": "setEnclave",
      "outputs": [],
      "stateMutability": "nonpayable",
      "type": "function"
    },
    {
      "inputs": [
        {
          "internalType": "contract ISlashingManager",
          "name": "_slashingManager",
          "type": "address"
        }
      ],
      "name": "setSlashingManager",
      "outputs": [],
      "stateMutability": "nonpayable",
      "type": "function"
    },
    {
      "inputs": [
        {
          "internalType": "uint256",
          "name": "_sortitionSubmissionWindow",
          "type": "uint256"
        }
      ],
      "name": "setSortitionSubmissionWindow",
      "outputs": [],
      "stateMutability": "nonpayable",
      "type": "function"
    },
    {
      "inputs": [],
      "name": "slashingManager",
      "outputs": [
        {
          "internalType": "contract ISlashingManager",
          "name": "",
          "type": "address"
        }
      ],
      "stateMutability": "view",
      "type": "function"
    },
    {
      "inputs": [],
      "name": "sortitionSubmissionWindow",
      "outputs": [
        {
          "internalType": "uint256",
          "name": "",
          "type": "uint256"
        }
      ],
      "stateMutability": "view",
      "type": "function"
    },
    {
      "inputs": [
        {
          "internalType": "uint256",
          "name": "e3Id",
          "type": "uint256"
        },
        {
          "internalType": "uint256",
          "name": "ticketNumber",
          "type": "uint256"
        }
      ],
      "name": "submitTicket",
      "outputs": [],
      "stateMutability": "nonpayable",
      "type": "function"
    },
    {
      "inputs": [
        {
          "internalType": "address",
          "name": "newOwner",
          "type": "address"
        }
      ],
      "name": "transferOwnership",
      "outputs": [],
      "stateMutability": "nonpayable",
      "type": "function"
    },
    {
      "inputs": [],
      "name": "treeSize",
      "outputs": [
        {
          "internalType": "uint256",
          "name": "",
          "type": "uint256"
        }
      ],
      "stateMutability": "view",
      "type": "function"
    }
  ],
  "bytecode": "0x6080604052348015600e575f5ffd5b5060156019565b60c9565b7ff0c57e16840df040f15088dc2f81fe391c3923bec73e23a9662efc9c229c6a00805468010000000000000000900460ff161560685760405163f92ee8a960e01b815260040160405180910390fd5b80546001600160401b039081161460c65780546001600160401b0319166001600160401b0390811782556040519081527fc7f505b2f371ae2175ee4913f4499e1f2633a7b5936321eed1cdaeb6115181d29060200160405180910390a15b50565b614548806100d65f395ff3fe608060405234801561000f575f5ffd5b506004361061026b575f3560e01c80639a7a2ffc1161014b578063dbb06c93116100bf578063ebf0c71711610084578063ebf0c717146105f3578063f1650536146105fb578063f2fde38b14610615578063f379b0df14610628578063f52fd80314610662578063f6fc05d5146106d2575f5ffd5b8063dbb06c9314610595578063e4be6e3d146105a7578063e59e4695146105ba578063e6745e13146105cd578063e82f3b70146105e0575f5ffd5b8063bff232c111610110578063bff232c11461050d578063c2b40ae414610520578063c3a0ec301461053f578063ca2869a014610550578063cd6dc6871461056f578063da881e5a14610582575f5ffd5b80639a7a2ffc146104735780639f0f874a146104af578063a0164930146104b8578063a8a4d69b146104d8578063b8ab4704146104eb575f5ffd5b80635d504776116101e25780638a78bb15116101a75780638a78bb15146103fd5780638cb89ecb146104105780638d1ddfb11461042f5780638da5cb5b146104455780638e5ce3ad1461044d5780639015d37114610460575f5ffd5b80635d5047761461038257806370e36bbe14610395578063715018a6146103a85780637c92f524146103b057806385814243146103dd575f5ffd5b80632800d829116102335780632800d829146102f1578063291a691b146103045780632e7b716d146103275780634d6861a61461033a57806350e6d94c1461034d5780635302670f1461036f575f5ffd5b8063096b810a1461026f578063099a161a146102845780630bbfade7146102aa5780630f3e3412146102bd57806317d61120146102d0575b5f5ffd5b61028261027d3660046138e0565b6106db565b005b6102976102923660046138fb565b610827565b6040519081526020015b60405180910390f35b6102826102b8366004613956565b610860565b6102826102cb3660046138fb565b610aa4565b6102e36102de3660046138fb565b610ae7565b6040516102a1929190613a77565b6102976102ff3660046138fb565b610c90565b610317610312366004613aa4565b610cdc565b60405190151581526020016102a1565b6103176103353660046138e0565b610eb6565b6103176103483660046138fb565b610f69565b61031761035b3660046138e0565b60066020525f908152604090205460ff1681565b61028261037d3660046138e0565b610fa8565b610317610390366004613add565b610ff9565b6102826103a33660046138e0565b61103c565b6102826110b2565b6103c36103be366004613b0b565b6110c5565b6040805192835263ffffffff9091166020830152016102a1565b6001546103f0906001600160a01b031681565b6040516102a19190613b40565b61028261040b3660046138e0565b61126c565b61029761041e3660046138fb565b60096020525f908152604090205481565b600454600160281b900464ffffffffff16610297565b6103f06113aa565b600b546103f0906001600160a01b031681565b61031761046e3660046138e0565b6113d8565b6104996104813660046138e0565b60076020525f908152604090205464ffffffffff1681565b60405164ffffffffff90911681526020016102a1565b61029760035481565b6104cb6104c63660046138fb565b6113f5565b6040516102a19190613b54565b6103176104e6366004613add565b61148b565b6104fe6104f93660046138fb565b6114ce565b6040516102a193929190613b66565b61028261051b3660046138e0565b611619565b61029761052e3660046138fb565b60086020525f908152604090205481565b6001546001600160a01b03166103f0565b61029761055e3660046138fb565b5f9081526008602052604090205490565b61028261057d366004613ba8565b611691565b6103176105903660046138fb565b6117ee565b5f546103f0906001600160a01b031681565b600c546103f0906001600160a01b031681565b6102826105c83660046138e0565b611ad1565b6102826105db366004613bd2565b611b49565b6102976105ee3660046138fb565b611d0c565b610297611d3d565b610603601481565b60405160ff90911681526020016102a1565b6102826106233660046138e0565b611d4f565b6004546106449064ffffffffff80821691600160281b90041682565b6040805164ffffffffff9384168152929091166020830152016102a1565b6106a36106703660046138fb565b5f908152600a60205260409020600b810154600590910154909163ffffffff80831692600160201b900416908284101590565b6040516102a1949392919093845263ffffffff9283166020850152911660408301521515606082015260800190565b61029760025481565b6106e36113aa565b6001600160a01b0316336001600160a01b0316148061070c57506001546001600160a01b031633145b61072957604051632864c4e160e01b815260040160405180910390fd5b610732816113d8565b819061075b576040516381e5828960e01b81526004016107529190613b40565b60405180910390fd5b506001600160a01b0381165f9081526007602052604081205464ffffffffff16906107899060049083611d89565b6001600160a01b0382165f908152600660205260408120805460ff1916905560028054916107b683613c06565b90915550506002546004546040805164ffffffffff80861682526020820194909452600160281b909204909216918101919091526001600160a01b038316907f8c008e3835f6c79bfcdb89f0f6ca8705e0b01049ee84a90b0e4da1c7ba9405d5906060015b60405180910390a25050565b5f818152600a602052604081206004810154610856576040516322e679e360e11b815260040160405180910390fd5b6007015492915050565b5f888152600a602052604090206002815460ff16600381111561088557610885613c1b565b146108a357604051634f4b461f60e11b815260040160405180910390fd5b6004810154156108c65760405163632a22bb60e01b815260040160405180910390fd5b856108e457604051636caad1ed60e11b815260040160405180910390fd5b5f6109488260060180548060200260200160405190810160405280929190818152602001828054801561093e57602002820191905f5260205f20905b81546001600160a01b03168152600190910190602001808311610920575b505050505061202b565b600783018190555f805460405163101bb4d760e21b8152600481018e905292935090916001600160a01b039091169063406ed35c906024015f60405180830381865afa15801561099a573d5f5f3e3d5ffd5b505050506040513d5f823e601f3d908101601f191682016040526109c19190810190613dab565b9050806101c00151156109de576109de8b828a858b8b8b8b612131565b60048381018990555f8c8152600960205260408082208b9055905490516340a3b76160e11b81529182018d9052602482018a90526001600160a01b0316906381476ec2906044015f604051808303815f87803b158015610a3c575f5ffd5b505af1158015610a4e573d5f5f3e3d5ffd5b505050508a7fbf0636a312095f6c09c909823813b50e392323588d2d83432e7512c64041e67f846006018c8c8c8c8c604051610a8f96959493929190613f6d565b60405180910390a25050505050505050505050565b610aac61232d565b60038190556040518181527fbe772dc189863d512fa01e489c8eac204975aef1a8662d8b5a333804b5207ab79060200160405180910390a150565b5f818152600a602052604090206006810154600b82015460609283929091806001600160401b03811115610b1d57610b1d613c2f565b604051908082528060200260200182016040528015610b46578160200160208202803683370190505b509450806001600160401b03811115610b6157610b61613c2f565b604051908082528060200260200182016040528015610b8a578160200160208202803683370190505b5093505f805b83811015610c86575f856006018281548110610bae57610bae613fba565b5f918252602090912001546001600160a01b0316905060016001600160a01b0382165f908152600a8801602052604090205460ff166002811115610bf457610bf4613c1b565b03610c7d5780888481518110610c0c57610c0c613fba565b60200260200101906001600160a01b031690816001600160a01b031681525050856009015f826001600160a01b03166001600160a01b031681526020019081526020015f2054878481518110610c6457610c64613fba565b602090810291909101015282610c7981613fce565b9350505b50600101610b90565b5050505050915091565b5f818152600a6020526040812081815460ff166003811115610cb457610cb4613c1b565b03610cd257604051630d4c1d9760e41b815260040160405180910390fd5b6003015492915050565b5f80546001600160a01b03163314610d075760405163e4c2a7eb60e01b815260040160405180910390fd5b5f848152600a6020526040812090815460ff166003811115610d2b57610d2b613c1b565b14610d49576040516374ff462560e11b815260040160405180910390fd5b60015460408051630cc37d8f60e11b815290515f926001600160a01b031691631986fb1e9160048083019260209291908290030181865afa158015610d90573d5f5f3e3d5ffd5b505050506040513d601f19601f82011682018060405250810190610db49190613fe6565b905080610dc76040860160208701614010565b63ffffffff161115610ddf6040860160208701614010565b829091610e0d576040516344ec930f60e01b815263ffffffff90921660048301526024820152604401610752565b5050815460ff1916600190811783558201859055436002830155600354610e349042614029565b6003830155610e48600583018560026137de565b50610e51611d3d565b5f87815260086020526040908190209190915560028301546003840154915188927f381d281d32f95ef8fe4e5f3b263ea6a32d03d331e1a141ae1da996dc02a7a17092610ea2928a928a929161403c565b60405180910390a250600195945050505050565b5f610ec0826113d8565b610ecb57505f919050565b6001546001600160a01b0316610ef4576040516350ca893360e01b815260040160405180910390fd5b600154604051639f8a13d760e01b81526001600160a01b0390911690639f8a13d790610f24908590600401613b40565b602060405180830381865afa158015610f3f573d5f5f3e3d5ffd5b505050506040513d601f19601f82011682018060405250810190610f63919061408c565b92915050565b5f818152600a602052604081206001815460ff166003811115610f8e57610f8e613c1b565b14610f9b57505f92915050565b6003015442111592915050565b610fb061232d565b6001600160a01b038116610fd75760405163d92e233d60e01b815260040160405180910390fd5b600c80546001600160a01b0319166001600160a01b0392909216919091179055565b5f60015f848152600a602081815260408084206001600160a01b0388168552909201905290205460ff16600281111561103457611034613c1b565b149392505050565b61104461232d565b6001600160a01b03811661106b5760405163d92e233d60e01b815260040160405180910390fd5b5f80546001600160a01b0319166001600160a01b038316908117825560405190917f2c8267accd82e977550ed2349c73311183cd22e306347be4453c8d130995e3c991a250565b6110ba61232d565b6110c35f61235f565b565b600b545f9081906001600160a01b031633146110f45760405163fcef374960e01b815260040160405180910390fd5b5f858152600a602052604090206002815460ff16600381111561111957611119613c1b565b1461113757604051634f4b461f60e11b815260040160405180910390fd5b60058101546001600160a01b0386165f908152600a8301602052604090205463ffffffff909116925060019060ff16600281111561117757611177613c1b565b1461118757600b01549150611264565b6001600160a01b0385165f908152600a820160205260408120805460ff19166002179055600b82018054916111bb83613c06565b919050555080600b01549250846001600160a01b0316867f6c783b92374361b4d6efaf29673b89437ee969bb3c9d2d5d86b143ad5447b849868660405161120c929190918252602082015260400190565b60405180910390a36040805184815263ffffffff84166020820181905285101591810182905287907f119cb11dd0a68c257d6dc9b06dcb37dd422ce276eb8bf3cd0b7079a116b8e2989060600160405180910390a250505b935093915050565b6112746113aa565b6001600160a01b0316336001600160a01b0316148061129d57506001546001600160a01b031633145b6112ba57604051632864c4e160e01b815260040160405180910390fd5b6112c3816113d8565b6113a75760048054600160281b900464ffffffffff16906112ed906001600160a01b0384166123cf565b6001600160a01b0382165f908152600660209081526040808320805460ff1916600117905560079091528120805464ffffffffff841664ffffffffff19909116179055600280549161133e83613fce565b90915550506002546004546040805164ffffffffff80861682526020820194909452600160281b909204909216918101919091526001600160a01b038316907f3318d261fe14a5761d2d1e21555652f623d2134c430a9883c9ad6e958bb0db539060600161081b565b50565b7f9016d09d72d40fdae2fd8ceac6b6234c7706214fd39c1cd1e609a0528c199300546001600160a01b031690565b6001600160a01b03165f9081526006602052604090205460ff1690565b5f818152600a60205260409020600481015460609190611428576040516322e679e360e11b815260040160405180910390fd5b8060060180548060200260200160405190810160405280929190818152602001828054801561147e57602002820191905f5260205f20905b81546001600160a01b03168152600190910190602001808311611460575b5050505050915050919050565b5f805f848152600a602081815260408084206001600160a01b0388168552909201905290205460ff1660028111156114c5576114c5613c1b565b14159392505050565b5f8181526009602052604090205460609081908190611500576040516322e679e360e11b815260040160405180910390fd5b5f848152600d60209081526040808320600e8352818420600f8452938290208154835181860281018601909452808452919493909291859183018282801561156557602002820191905f5260205f20905b815481526020019060010190808311611551575b50505050509250818054806020026020016040519081016040528092919081815260200182805480156115b557602002820191905f5260205f20905b8154815260200190600101908083116115a1575b505050505091508080548060200260200160405190810160405280929190818152602001828054801561160557602002820191905f5260205f20905b8154815260200190600101908083116115f1575b505050505090509250925092509193909250565b61162161232d565b6001600160a01b0381166116485760405163d92e233d60e01b815260040160405180910390fd5b600b80546001600160a01b0319166001600160a01b0383169081179091556040517f4ccc8ed483c7c44c3602c3c38afc2c014a8f1d2dc210dfe58ebeeeead230f8e0905f90a250565b5f61169a6125a5565b805490915060ff600160401b82041615906001600160401b03165f811580156116c05750825b90505f826001600160401b031660011480156116db5750303b155b9050811580156116e9575080155b156117075760405163f92ee8a960e01b815260040160405180910390fd5b845467ffffffffffffffff19166001178555831561173157845460ff60401b1916600160401b1785555b6001600160a01b0387166117585760405163d92e233d60e01b815260040160405180910390fd5b611761336125cd565b61176d600460146125de565b61177686610aa4565b61177e6113aa565b6001600160a01b0316876001600160a01b03161461179f5761179f87611d4f565b83156117e557845460ff60401b19168555604051600181527fc7f505b2f371ae2175ee4913f4499e1f2633a7b5936321eed1cdaeb6115181d29060200160405180910390a15b50505050505050565b5f818152600a6020526040812081815460ff16600381111561181257611812613c1b565b0361183057604051630d4c1d9760e41b815260040160405180910390fd5b6001815460ff16600381111561184857611848613c1b565b1461186657604051631860f69960e31b815260040160405180910390fd5b8060030154421161188a57604051632f021e8d60e11b815260040160405180910390fd5b60058101546006820154600160201b90910463ffffffff1611158061196f578154600360ff199091161782556006820154600583015460408051928352600160201b90910463ffffffff16602083015285917fecc4a9fb7e28d074cba7f5b227e9b5827823c850a385539b9a2f98a08f8c203d910160405180910390a25f54604051635d968dc160e11b815260048101869052600260248201526001600160a01b039091169063bb2d1b82906044015f604051808303815f87803b158015611950575f5ffd5b505af1158015611962573d5f5f3e3d5ffd5b505f979650505050505050565b6119788261265d565b815460ff191660021782556006820154600b83018190555f816001600160401b038111156119a8576119a8613c2f565b6040519080825280602002602001820160405280156119d1578160200160208202803683370190505b5090505f5b82811015611a4357846009015f8660060183815481106119f8576119f8613fba565b5f9182526020808320909101546001600160a01b031683528201929092526040019020548251839083908110611a3057611a30613fba565b60209081029190910101526001016119d6565b505f54604051631f3ea75d60e21b8152600481018890526001600160a01b0390911690637cfa9d74906024015f604051808303815f87803b158015611a86575f5ffd5b505af1158015611a98573d5f5f3e3d5ffd5b50505050857f4f1f5b329c741a8ba15e9645e301061294d0c1fdd455448ffd5e76ff255929d78560060183604051610ea29291906140a5565b611ad961232d565b6001600160a01b038116611b005760405163d92e233d60e01b815260040160405180910390fd5b600180546001600160a01b0319166001600160a01b0383169081179091556040517fad4055f18cdad6f4bdd71afe3a72cbeee964217943e1bde38f138289e981a9a7905f90a250565b5f828152600a6020526040812090815460ff166003811115611b6d57611b6d613c1b565b03611b8b57604051630d4c1d9760e41b815260040160405180910390fd5b6001815460ff166003811115611ba357611ba3613c1b565b14611bc157604051631860f69960e31b815260040160405180910390fd5b8060030154421115611be657604051639a19114d60e01b815260040160405180910390fd5b335f90815260088201602052604090205460ff1615611c185760405163257309f160e11b815260040160405180910390fd5b611c2133610eb6565b611c3e5760405163149fbcfd60e11b815260040160405180910390fd5b611c49338385612783565b6001810154604080516bffffffffffffffffffffffff193360601b16602080830191909152603482018690526054820187905260748083019490945282518083039094018452609490910190915281519101205f90335f8181526008850160205260409020805460ff19166001179055909150611cc890839083612954565b506040805184815260208101839052339186917f52999628fb1cb05707e842278833b22e511f11746202cecdf221968b0b89e8bd910160405180910390a350505050565b5f8181526009602052604090205480611d38576040516322e679e360e11b815260040160405180910390fd5b919050565b5f611d4a60046014612b55565b905090565b611d5761232d565b6001600160a01b038116611d80575f604051631e4fbdf760e01b81526004016107529190613b40565b6113a78161235f565b7f30644e72e131a029b85045b68181585d2833e84879b9709143e1f593f00000018210611dc85760405162461bcd60e51b8152600401610752906140b7565b825464ffffffffff600160281b90910481169082168111611e265760405162461bcd60e51b815260206004820152601860248201527713185e9e5253550e881b195859881b5d5cdd08195e1a5cdd60421b6044820152606401610752565b825f5b81866001015f611e398488612c4e565b64ffffffffff1681526020019081526020015f20819055505f816001611e5f9190614101565b60ff168464ffffffffff16901c64ffffffffff16905060018564ffffffffff16901c64ffffffffff168111611e945750612023565b600185165f03611f5b575f611eb383611eae88600161411a565b612c4e565b60408051808201825286815264ffffffffff83165f90815260018c0160209081529083902054908201529051632b0aac7f60e11b815291925073__$078c82ddf6c95d34ea184ef1dd6130d136$__9163561558fe91611f1491600401614137565b602060405180830381865af4158015611f2f573d5f5f3e3d5ffd5b505050506040513d601f19601f82011682018060405250810190611f539190613fe6565b93505061200f565b5f611f6b83611eae600189614167565b60408051808201825264ffffffffff83165f90815260018c0160209081529083902054825281018790529051632b0aac7f60e11b815291925073__$078c82ddf6c95d34ea184ef1dd6130d136$__9163561558fe91611fcc91600401614137565b602060405180830381865af4158015611fe7573d5f5f3e3d5ffd5b505050506040513d601f19601f8201168201806040525081019061200b9190613fe6565b9350505b50647fffffffff600194851c169301611e29565b505050505050565b80515f908161203b826014614184565b6001600160401b0381111561205257612052613c2f565b6040519080825280601f01601f19166020018201604052801561207c576020820181803683370190505b5090505f5b82811015612121575f85828151811061209c5761209c613fba565b602002602001015160601b90505f8260146120b79190614184565b90505f5b6014811015612113578281601481106120d6576120d6613fba565b1a60f81b856120e58385614029565b815181106120f5576120f5613fba565b60200101906001600160f81b03191690815f1a9053506001016120bb565b505050806001019050612081565b5080516020909101209392505050565b8261214f57604051630fb0193f60e41b815260040160405180910390fd5b8661012001516001600160a01b031663de12c640878787876040518563ffffffff1660e01b8152600401612186949392919061419b565b602060405180830381865afa1580156121a1573d5f5f3e3d5ffd5b505050506040513d601f19601f820116820180604052508101906121c5919061408c565b6121e25760405163051d8aa760e51b815260040160405180910390fd5b8061220057604051639914ab1b60e01b815260040160405180910390fd5b600c546001600160a01b031661222957604051630d6eeecb60e01b815260040160405180910390fd5b5f5f5f600c5f9054906101000a90046001600160a01b03166001600160a01b031663b476c31e30468e8b8b8b8b6040518863ffffffff1660e01b815260040161227897969594939291906141ba565b5f60405180830381865afa158015612292573d5f5f3e3d5ffd5b505050506040513d5f823e601f3d908101601f191682016040526122b99190810190614294565b5f8e8152600d6020908152604090912084519497509295509093506122e1929086019061387f565b505f8b8152600e6020908152604090912083516123009285019061387f565b505f8b8152600f60209081526040909120825161231f9284019061387f565b505050505050505050505050565b336123366113aa565b6001600160a01b0316146110c3573360405163118cdaa760e01b81526004016107529190613b40565b7f9016d09d72d40fdae2fd8ceac6b6234c7706214fd39c1cd1e609a0528c19930080546001600160a01b031981166001600160a01b03848116918217845560405192169182907f8be0079c531659141344cd1fd0a4f28419497f9722a3daafe3b4186f6b6457e0905f90a3505050565b8154600160281b900464ffffffffff167f30644e72e131a029b85045b68181585d2833e84879b9709143e1f593f0000001821061241e5760405162461bcd60e51b8152600401610752906140b7565b825464ffffffffff908116908216106124715760405162461bcd60e51b815260206004820152601560248201527413185e9e5253550e881d1c9959481a5cc8199d5b1b605a1b6044820152606401610752565b61247c81600161411a565b835464ffffffffff91909116600160281b0269ffffffffff000000000019909116178355815f5b81856001015f6124b38487612c4e565b64ffffffffff16815260208101919091526040015f2055600183161561259e575f6124e382611eae600187614167565b60408051808201825264ffffffffff83165f90815260018a0160209081529083902054825281018690529051632b0aac7f60e11b815291925073__$078c82ddf6c95d34ea184ef1dd6130d136$__9163561558fe9161254491600401614137565b602060405180830381865af415801561255f573d5f5f3e3d5ffd5b505050506040513d601f19601f820116820180604052508101906125839190613fe6565b647fffffffff600195861c16949093509190910190506124a3565b5050505050565b5f807ff0c57e16840df040f15088dc2f81fe391c3923bec73e23a9662efc9c229c6a00610f63565b6125d5612c6b565b6113a781612c90565b602060ff8216111561262c5760405162461bcd60e51b81526020600482015260176024820152764c617a79494d543a205472656520746f6f206c6172676560481b6044820152606401610752565b61263d600160ff831681901b614378565b825469ffffffffffffffffffff191664ffffffffff919091161790915550565b60068101545f5b8181101561277e575f612678826001614029565b90505b82811015612775575f84600601838154811061269957612699613fba565b5f9182526020822001546006870180546001600160a01b03909216935090849081106126c7576126c7613fba565b5f918252602090912001546001600160a01b039081169150821681101561276b57808660060185815481106126fe576126fe613fba565b905f5260205f20015f6101000a8154816001600160a01b0302191690836001600160a01b031602179055508186600601848154811061273f5761273f613fba565b905f5260205f20015f6101000a8154816001600160a01b0302191690836001600160a01b031602179055505b505060010161267b565b50600101612664565b505050565b5f82116127a35760405163aeaddff160e01b815260040160405180910390fd5b6001546001600160a01b03166127cc576040516350ca893360e01b815260040160405180910390fd5b5f818152600a602052604081206001805460028301549293926001600160a01b039091169163bb03bd7191889161280291614378565b6040516001600160e01b031960e085901b1681526001600160a01b0390921660048301526024820152604401602060405180830381865afa158015612849573d5f5f3e3d5ffd5b505050506040513d601f19601f8201168201806040525081019061286d9190613fe6565b90505f60015f9054906101000a90046001600160a01b03166001600160a01b0316631209b1f66040518163ffffffff1660e01b8152600401602060405180830381865afa1580156128c0573d5f5f3e3d5ffd5b505050506040513d601f19601f820116820180604052508101906128e49190613fe6565b90505f81116129065760405163aeaddff160e01b815260040160405180910390fd5b5f612911828461438b565b90505f81116129335760405163149fbcfd60e11b815260040160405180910390fd5b808611156117e55760405163aeaddff160e01b815260040160405180910390fd5b60058301546006840180545f92600160201b900463ffffffff16908111156129d257508054600180820183555f928352602080842090920180546001600160a01b0319166001600160a01b03881690811790915583526009870182526040808420869055600a88019092529120805460ff1916821790559050612b4e565b5f5f90505f876009015f855f815481106129ee576129ee613fba565b5f9182526020808320909101546001600160a01b03168352820192909252604001902054905060015b8454811015612a76575f896009015f878481548110612a3857612a38613fba565b5f9182526020808320909101546001600160a01b03168352820192909252604001902054905082811115612a6d578092508193505b50600101612a17565b50808610612a8a575f945050505050612b4e565b5f88600a015f868581548110612aa257612aa2613fba565b5f9182526020808320909101546001600160a01b031683528201929092526040019020805460ff19166001836002811115612adf57612adf613c1b565b021790555086848381548110612af757612af7613fba565b5f91825260208083209190910180546001600160a01b0319166001600160a01b03948516179055918916815260098a0182526040808220899055600a8b0190925220805460ff191660019081179091559450505050505b9392505050565b5f5f8260ff1611612ba85760405162461bcd60e51b815260206004820152601a60248201527f4c617a79494d543a206465707468206d757374206265203e20300000000000006044820152606401610752565b602060ff83161115612bcc5760405162461bcd60e51b8152600401610752906143aa565b8254600160281b900464ffffffffff1680612beb60ff851660026144fb565b64ffffffffff161015612c3b5760405162461bcd60e51b8152602060048201526018602482015277098c2f4f2929aa87440c2dac4d2ceeadeeae640c8cae0e8d60431b6044820152606401610752565b612c46848285612c98565b949350505050565b5f81612c6160ff851663ffffffff614514565b612b4e919061411a565b612c73612d60565b6110c357604051631afcd79f60e31b815260040160405180910390fd5b611d57612c6b565b5f602060ff83161115612cbd5760405162461bcd60e51b8152600401610752906143aa565b8264ffffffffff165f03612cdb57612cd482612d79565b9050612b4e565b5f612ce7836001614101565b60ff166001600160401b03811115612d0157612d01613c2f565b604051908082528060200260200182016040528015612d2a578160200160208202803683370190505b509050612d3985858584613413565b808360ff1681518110612d4e57612d4e613fba565b60200260200101519150509392505050565b5f612d696125a5565b54600160401b900460ff16919050565b5f8160ff165f03612d8b57505f919050565b8160ff16600103612dbd57507f2098f5fb9e239eab3ceac3f27b81e481dc3124d55ffed523a839ee8446b64864919050565b8160ff16600203612def57507f1069673dcdb12263df301a6ff584a7ec261a44cb9dc68df067a4774460b1f1e1919050565b8160ff16600303612e2157507f18f43331537ee2af2e3d758d50f72106467c6eea50371dd528d57eb2b856d238919050565b8160ff16600403612e5357507f07f9d837cb17b0d36320ffe93ba52345f1b728571a568265caac97559dbc952a919050565b8160ff16600503612e8557507f2b94cf5e8746b3f5c9631f4c5df32907a699c58c94b2ad4d7b5cec1639183f55919050565b8160ff16600603612eb757507f2dee93c5a666459646ea7d22cca9e1bcfed71e6951b953611d11dda32ea09d78919050565b8160ff16600703612ee957507f078295e5a22b84e982cf601eb639597b8b0515a88cb5ac7fa8a4aabe3c87349d919050565b8160ff16600803612f1b57507f2fa5e5f18f6027a6501bec864564472a616b2e274a41211a444cbe3a99f3cc61919050565b8160ff16600903612f4d57507f0e884376d0d8fd21ecb780389e941f66e45e7acce3e228ab3e2156a614fcd747919050565b8160ff16600a03612f7f57507f1b7201da72494f1e28717ad1a52eb469f95892f957713533de6175e5da190af2919050565b8160ff16600b03612fb157507f1f8d8822725e36385200c0b201249819a6e6e1e4650808b5bebc6bface7d7636919050565b8160ff16600c03612fe357507f2c5d82f66c914bafb9701589ba8cfcfb6162b0a12acf88a8d0879a0471b5f85a919050565b8160ff16600d0361301557507f14c54148a0940bb820957f5adf3fa1134ef5c4aaa113f4646458f270e0bfbfd0919050565b8160ff16600e0361304757507f190d33b12f986f961e10c0ee44d8b9af11be25588cad89d416118e4bf4ebe80c919050565b8160ff16600f0361307957507f22f98aa9ce704152ac17354914ad73ed1167ae6596af510aa5b3649325e06c92919050565b8160ff166010036130ab57507f2a7c7c9b6ce5880b9f6f228d72bf6a575a526f29c66ecceef8b753d38bba7323919050565b8160ff166011036130dd57507f2e8186e558698ec1c67af9c14d463ffc470043c9c2988b954d75dd643f36b992919050565b8160ff1660120361310f57507f0f57c5571e9a4eab49e2c8cf050dae948aef6ead647392273546249d1c1ff10f919050565b8160ff1660130361314157507f1830ee67b5fb554ad5f63d4388800e1cfe78e310697d46e43c9ce36134f72cca919050565b8160ff1660140361317357507f2134e76ac5d21aab186c2be1dd8f84ee880a1e46eaf712f9d371b6df22191f3e919050565b8160ff166015036131a557507f19df90ec844ebc4ffeebd866f33859b0c051d8c958ee3aa88f8f8df3db91a5b1919050565b8160ff166016036131d757507f18cca2a66b5c0787981e69aefd84852d74af0e93ef4912b4648c05f722efe52b919050565b8160ff1660170361320957507f2388909415230d1b4d1304d2d54f473a628338f2efad83fadf05644549d2538d919050565b8160ff1660180361323b57507f27171fb4a97b6cc0e9e8f543b5294de866a2af2c9c8d0b1d96e673e4529ed540919050565b8160ff1660190361326d57507f2ff6650540f629fd5711a0bc74fc0d28dcb230b9392583e5f8d59696dde6ae21919050565b8160ff16601a0361329f57507f120c58f143d491e95902f7f5277778a2e0ad5168f6add75669932630ce611518919050565b8160ff16601b036132d157507f1f21feb70d3f21b07bf853d5e5db03071ec495a0a565a21da2d665d279483795919050565b8160ff16601c0361330357507f24be905fa71335e14c638cc0f66a8623a826e768068a9e968bb1a1dde18a72d2919050565b8160ff16601d0361333557507f0f8666b62ed17491c50ceadead57d4cd597ef3821d65c328744c74e553dac26d919050565b8160ff16601e0361336757507f0918d46bf52d98b034413f4a1a1c41594e7a7a3f6ae08cb43d1a2a230e1959ef919050565b8160ff16601f0361339957507f1bbeb01b4c479ecde76917645e404dfa2e26f90d0afc5a65128513ad375c5ff2919050565b8160ff166020036133cb57507f2f68a1c58e257e42a17a6c61dff5551ed560b9922ab119d5ac8e184c9734ead9919050565b60405162461bcd60e51b815260206004820152601e60248201527f4c617a79494d543a2064656661756c745a65726f2062616420696e64657800006044820152606401610752565b602060ff831611156134375760405162461bcd60e51b8152600401610752906143aa565b5f8364ffffffffff161161349b5760405162461bcd60e51b815260206004820152602560248201527f4c617a79494d543a206e756d626572206f66206c6561766573206d7573742062604482015264065203e20360dc1b6064820152608401610752565b5f6134a7600185614167565b9050600181165f036134fa57846001015f6134c25f84612c4e565b64ffffffffff1681526020019081526020015f2054825f815181106134e9576134e9613fba565b602002602001018181525050613522565b6135035f612d79565b825f8151811061351557613515613fba565b6020026020010181815250505b5f5b8360ff168160ff16101561202357600182165f0361361a5773__$078c82ddf6c95d34ea184ef1dd6130d136$__63561558fe6040518060400160405280868560ff168151811061357657613576613fba565b6020026020010151815260200161358c85612d79565b8152506040518263ffffffff1660e01b81526004016135ab9190614137565b602060405180830381865af41580156135c6573d5f5f3e3d5ffd5b505050506040513d601f19601f820116820180604052508101906135ea9190613fe6565b836135f6836001614101565b60ff168151811061360957613609613fba565b6020026020010181815250506137cb565b5f613626826001614101565b60ff168664ffffffffff16901c64ffffffffff16905060018364ffffffffff16901c64ffffffffff168111156136c8575f876001015f61367d85600161366c9190614101565b60018864ffffffffff16901c612c4e565b64ffffffffff1681526020019081526020015f2054905080858460016136a39190614101565b60ff16815181106136b6576136b6613fba565b602002602001018181525050506137c9565b5f876001015f6136df85600188611eae9190614167565b64ffffffffff1681526020019081526020015f2054905073__$078c82ddf6c95d34ea184ef1dd6130d136$__63561558fe6040518060400160405280848152602001888760ff168151811061373657613736613fba565b60200260200101518152506040518263ffffffff1660e01b815260040161375d9190614137565b602060405180830381865af4158015613778573d5f5f3e3d5ffd5b505050506040513d601f19601f8201168201806040525081019061379c9190613fe6565b856137a8856001614101565b60ff16815181106137bb576137bb613fba565b602002602001018181525050505b505b647fffffffff600192831c169101613524565b60018301918390821561386f579160200282015f5b8382111561383d57833563ffffffff1683826101000a81548163ffffffff021916908363ffffffff16021790555092602001926004016020816003010492830192600103026137f3565b801561386d5782816101000a81549063ffffffff021916905560040160208160030104928301926001030261383d565b505b5061387b9291506138b8565b5090565b828054828255905f5260205f2090810192821561386f579160200282015b8281111561386f57825182559160200191906001019061389d565b5b8082111561387b575f81556001016138b9565b6001600160a01b03811681146113a7575f5ffd5b5f602082840312156138f0575f5ffd5b8135612b4e816138cc565b5f6020828403121561390b575f5ffd5b5035919050565b5f5f83601f840112613922575f5ffd5b5081356001600160401b03811115613938575f5ffd5b60208301915083602082850101111561394f575f5ffd5b9250929050565b5f5f5f5f5f5f5f5f60a0898b03121561396d575f5ffd5b8835975060208901356001600160401b03811115613989575f5ffd5b6139958b828c01613912565b9098509650506040890135945060608901356001600160401b038111156139ba575f5ffd5b6139c68b828c01613912565b90955093505060808901356001600160401b038111156139e4575f5ffd5b6139f08b828c01613912565b999c989b5096995094979396929594505050565b5f8151808452602084019350602083015f5b82811015613a3d5781516001600160a01b0316865260209586019590910190600101613a16565b5093949350505050565b5f8151808452602084019350602083015f5b82811015613a3d578151865260209586019590910190600101613a59565b604081525f613a896040830185613a04565b8281036020840152613a9b8185613a47565b95945050505050565b5f5f5f60808486031215613ab6575f5ffd5b833592506020840135915060808401851015613ad0575f5ffd5b6040840190509250925092565b5f5f60408385031215613aee575f5ffd5b823591506020830135613b00816138cc565b809150509250929050565b5f5f5f60608486031215613b1d575f5ffd5b833592506020840135613b2f816138cc565b929592945050506040919091013590565b6001600160a01b0391909116815260200190565b602081525f612b4e6020830184613a04565b606081525f613b786060830186613a47565b8281036020840152613b8a8186613a47565b90508281036040840152613b9e8185613a47565b9695505050505050565b5f5f60408385031215613bb9575f5ffd5b8235613bc4816138cc565b946020939093013593505050565b5f5f60408385031215613be3575f5ffd5b50508035926020909101359150565b634e487b7160e01b5f52601160045260245ffd5b5f81613c1457613c14613bf2565b505f190190565b634e487b7160e01b5f52602160045260245ffd5b634e487b7160e01b5f52604160045260245ffd5b6040516101e081016001600160401b0381118282101715613c6657613c66613c2f565b60405290565b604051601f8201601f191681016001600160401b0381118282101715613c9457613c94613c2f565b604052919050565b805160048110611d38575f5ffd5b5f82601f830112613cb9575f5ffd5b604080519081016001600160401b0381118282101715613cdb57613cdb613c2f565b8060405250806040840185811115613cf1575f5ffd5b845b81811015613d0b578051835260209283019201613cf3565b509195945050505050565b8051611d38816138cc565b805160ff81168114611d38575f5ffd5b5f82601f830112613d40575f5ffd5b81516001600160401b03811115613d5957613d59613c2f565b613d6c601f8201601f1916602001613c6c565b818152846020838601011115613d80575f5ffd5b8160208501602083015e5f918101602001919091529392505050565b80518015158114611d38575f5ffd5b5f60208284031215613dbb575f5ffd5b81516001600160401b03811115613dd0575f5ffd5b82016102008185031215613de2575f5ffd5b613dea613c43565b81518152613dfa60208301613c9c565b602082015260408281015190820152613e168560608401613caa565b606082015260a08201516080820152613e3160c08301613d16565b60a0820152613e4260e08301613d21565b60c08201526101008201516001600160401b03811115613e60575f5ffd5b613e6c86828501613d31565b60e083015250613e7f6101208301613d16565b610100820152613e926101408301613d16565b61012082015261016082810151610140830152610180830151908201526101a08201516001600160401b03811115613ec8575f5ffd5b613ed486828501613d31565b61018083015250613ee86101c08301613d16565b6101a0820152613efb6101e08301613d9c565b6101c0820152949350505050565b5f8154808452602084019350825f5260205f205f5b82811015613a3d5781546001600160a01b0316865260209095019460019182019101613f1e565b81835281816020850137505f828201602090810191909152601f909101601f19169091010190565b608081525f613f7f6080830189613f09565b8281036020840152613f9281888a613f45565b90508560408401528281036060840152613fad818587613f45565b9998505050505050505050565b634e487b7160e01b5f52603260045260245ffd5b5f60018201613fdf57613fdf613bf2565b5060010190565b5f60208284031215613ff6575f5ffd5b5051919050565b803563ffffffff81168114611d38575f5ffd5b5f60208284031215614020575f5ffd5b612b4e82613ffd565b80820180821115610f6357610f63613bf2565b84815260a0810160208201855f5b60028110156140775763ffffffff61406183613ffd565b168352602092830192919091019060010161404a565b50505060608201939093526080015292915050565b5f6020828403121561409c575f5ffd5b612b4e82613d9c565b604081525f613a896040830185613f09565b6020808252602a908201527f4c617a79494d543a206c656166206d757374206265203c20534e41524b5f53436040820152691053105497d19251531160b21b606082015260800190565b60ff8181168382160190811115610f6357610f63613bf2565b64ffffffffff8181168382160190811115610f6357610f63613bf2565b6040810181835f5b600281101561415e57815183526020928301929091019060010161413f565b50505092915050565b64ffffffffff8281168282160390811115610f6357610f63613bf2565b8082028115828204841417610f6357610f63613bf2565b848152836020820152606060408201525f613b9e606083018486613f45565b60018060a01b038816815286602082015285604082015260a060608201525f6141e760a083018688613f45565b82810360808401526141fa818587613f45565b9a9950505050505050505050565b5f6001600160401b0382111561422057614220613c2f565b5060051b60200190565b5f82601f830112614239575f5ffd5b815161424c61424782614208565b613c6c565b8082825260208201915060208360051b86010192508583111561426d575f5ffd5b602085015b8381101561428a578051835260209283019201614272565b5095945050505050565b5f5f5f606084860312156142a6575f5ffd5b83516001600160401b038111156142bb575f5ffd5b8401601f810186136142cb575f5ffd5b80516142d961424782614208565b8082825260208201915060208360051b8501019250888311156142fa575f5ffd5b6020840193505b8284101561431c578351825260209384019390910190614301565b8096505050505060208401516001600160401b0381111561433b575f5ffd5b6143478682870161422a565b92505060408401516001600160401b03811115614362575f5ffd5b61436e8682870161422a565b9150509250925092565b81810381811115610f6357610f63613bf2565b5f826143a557634e487b7160e01b5f52601260045260245ffd5b500490565b60208082526023908201527f4c617a79494d543a206465707468206d757374206265203c3d204d41585f44456040820152620a0a8960eb1b606082015260800190565b6001815b60018411156112645780850481111561440c5761440c613bf2565b600184161561441a57908102905b60019390931c9280026143f1565b5f8261443657506001610f63565b8161444257505f610f63565b8160018114614458576002811461446257614494565b6001915050610f63565b60ff84111561447357614473613bf2565b6001841b915064ffffffffff82111561448e5761448e613bf2565b50610f63565b5060208310610133831016604e8410600b84101617156144cc575081810a64ffffffffff8111156144c7576144c7613bf2565b610f63565b6144dc64ffffffffff84846143ed565b8064ffffffffff048211156144f3576144f3613bf2565b029392505050565b5f612b4e64ffffffffff841664ffffffffff8416614428565b64ffffffffff818116838216029081169081811461453457614534613bf2565b509291505056fea164736f6c634300081c000a",
  "linkReferences": {
    "npm/poseidon-solidity@0.0.5/PoseidonT3.sol": {
      "PoseidonT3": [
        {
          "length": 20,
          "start": 8132
        },
        {
          "length": 20,
          "start": 8316
        },
        {
          "length": 20,
          "start": 9716
        },
        {
          "length": 20,
          "start": 13844
        },
        {
          "length": 20,
          "start": 14286
        }
      ]
    }
  },
  "deployedLinkReferences": {
    "npm/poseidon-solidity@0.0.5/PoseidonT3.sol": {
      "PoseidonT3": [
        {
          "length": 20,
          "start": 7918
        },
        {
          "length": 20,
          "start": 8102
        },
        {
          "length": 20,
          "start": 9502
        },
        {
          "length": 20,
          "start": 13630
        },
        {
          "length": 20,
          "start": 14072
        }
      ]
    }
  },
  "immutableReferences": {},
  "inputSourceName": "project/contracts/registry/CiphernodeRegistryOwnable.sol",
  "buildInfoId": "solc-0_8_28-ce9a7610acb826f83b656ea800eb1bae5dae3ce6"
}