{
  "_format": "hh3-artifact-1",
  "contractName": "CiphernodeRegistryOwnable",
  "sourceName": "contracts/registry/CiphernodeRegistryOwnable.sol",
  "abi": [
    {
      "inputs": [],
      "stateMutability": "nonpayable",
      "type": "constructor"
    },
    {
      "inputs": [],
      "name": "AttestationBindingCountMismatch",
      "type": "error"
    },
    {
      "inputs": [],
      "name": "BondingRegistryNotSet",
      "type": "error"
    },
    {
      "inputs": [
        {
          "internalType": "address",
          "name": "node",
          "type": "address"
        }
      ],
      "name": "CiphernodeNotEnabled",
      "type": "error"
    },
    {
      "inputs": [],
      "name": "CiphernodeTreeExhausted",
      "type": "error"
    },
    {
      "inputs": [],
      "name": "CommitteeAlreadyFinalized",
      "type": "error"
    },
    {
      "inputs": [],
      "name": "CommitteeAlreadyPublished",
      "type": "error"
    },
    {
      "inputs": [],
      "name": "CommitteeAlreadyRequested",
      "type": "error"
    },
    {
      "inputs": [],
      "name": "CommitteeDeadlineReached",
      "type": "error"
    },
    {
      "inputs": [],
      "name": "CommitteeNotFinalized",
      "type": "error"
    },
    {
      "inputs": [],
      "name": "CommitteeNotInitializedOrFinalized",
      "type": "error"
    },
    {
      "inputs": [],
      "name": "CommitteeNotPublished",
      "type": "error"
    },
    {
      "inputs": [],
      "name": "CommitteeNotRequested",
      "type": "error"
    },
    {
      "inputs": [],
      "name": "DkgProofRequired",
      "type": "error"
    },
    {
      "inputs": [],
      "name": "FoldAttestationVerifierAlreadySet",
      "type": "error"
    },
    {
      "inputs": [],
      "name": "FoldAttestationVerifierNotSet",
      "type": "error"
    },
    {
      "inputs": [],
      "name": "FoldAttestationsRequired",
      "type": "error"
    },
    {
      "inputs": [
        {
          "internalType": "uint256",
          "name": "requested",
          "type": "uint256"
        },
        {
          "internalType": "uint256",
          "name": "available",
          "type": "uint256"
        }
      ],
      "name": "InsufficientCiphernodes",
      "type": "error"
    },
    {
      "inputs": [],
      "name": "InvalidDkgProof",
      "type": "error"
    },
    {
      "inputs": [],
      "name": "InvalidFoldAttestation",
      "type": "error"
    },
    {
      "inputs": [],
      "name": "InvalidInitialization",
      "type": "error"
    },
    {
      "inputs": [],
      "name": "InvalidTicketNumber",
      "type": "error"
    },
    {
      "inputs": [],
      "name": "NoPendingVerifierUpdate",
      "type": "error"
    },
    {
      "inputs": [],
      "name": "NodeAlreadySubmitted",
      "type": "error"
    },
    {
      "inputs": [
        {
          "internalType": "address",
          "name": "node",
          "type": "address"
        }
      ],
      "name": "NodeNotBonded",
      "type": "error"
    },
    {
      "inputs": [],
      "name": "NodeNotEligible",
      "type": "error"
    },
    {
      "inputs": [],
      "name": "NodeNotSubmitted",
      "type": "error"
    },
    {
      "inputs": [],
      "name": "NotInitializing",
      "type": "error"
    },
    {
      "inputs": [],
      "name": "NotOwnerOrBondingRegistry",
      "type": "error"
    },
    {
      "inputs": [],
      "name": "NotSlashingManager",
      "type": "error"
    },
    {
      "inputs": [],
      "name": "OnlyBondingRegistry",
      "type": "error"
    },
    {
      "inputs": [],
      "name": "OnlyEnclave",
      "type": "error"
    },
    {
      "inputs": [
        {
          "internalType": "address",
          "name": "owner",
          "type": "address"
        }
      ],
      "name": "OwnableInvalidOwner",
      "type": "error"
    },
    {
      "inputs": [
        {
          "internalType": "address",
          "name": "account",
          "type": "address"
        }
      ],
      "name": "OwnableUnauthorizedAccount",
      "type": "error"
    },
    {
      "inputs": [],
      "name": "PartyIdNotInProof",
      "type": "error"
    },
    {
      "inputs": [
        {
          "internalType": "uint256",
          "name": "partyId",
          "type": "uint256"
        },
        {
          "internalType": "uint256",
          "name": "committeeSize",
          "type": "uint256"
        }
      ],
      "name": "PartyIdOutOfBounds",
      "type": "error"
    },
    {
      "inputs": [],
      "name": "PkCommitmentRequired",
      "type": "error"
    },
    {
      "inputs": [],
      "name": "RenounceOwnershipDisabled",
      "type": "error"
    },
    {
      "inputs": [
        {
          "internalType": "uint256",
          "name": "window",
          "type": "uint256"
        }
      ],
      "name": "SortitionSubmissionWindowOutOfBounds",
      "type": "error"
    },
    {
      "inputs": [],
      "name": "SubmissionWindowClosed",
      "type": "error"
    },
    {
      "inputs": [],
      "name": "SubmissionWindowNotClosed",
      "type": "error"
    },
    {
      "inputs": [],
      "name": "ThresholdNotMet",
      "type": "error"
    },
    {
      "inputs": [],
      "name": "Unauthorized",
      "type": "error"
    },
    {
      "inputs": [
        {
          "internalType": "address",
          "name": "pending",
          "type": "address"
        },
        {
          "internalType": "address",
          "name": "provided",
          "type": "address"
        }
      ],
      "name": "VerifierMismatch",
      "type": "error"
    },
    {
      "inputs": [
        {
          "internalType": "uint256",
          "name": "readyAt",
          "type": "uint256"
        },
        {
          "internalType": "uint256",
          "name": "nowAt",
          "type": "uint256"
        }
      ],
      "name": "VerifierUpdateTimelockActive",
      "type": "error"
    },
    {
      "inputs": [],
      "name": "ZeroAddress",
      "type": "error"
    },
    {
      "anonymous": false,
      "inputs": [
        {
          "indexed": false,
          "internalType": "uint256",
          "name": "accusationVoteValidity",
          "type": "uint256"
        }
      ],
      "name": "AccusationVoteValiditySet",
      "type": "event"
    },
    {
      "anonymous": false,
      "inputs": [
        {
          "indexed": true,
          "internalType": "address",
          "name": "bondingRegistry",
          "type": "address"
        }
      ],
      "name": "BondingRegistrySet",
      "type": "event"
    },
    {
      "anonymous": false,
      "inputs": [
        {
          "indexed": true,
          "internalType": "address",
          "name": "node",
          "type": "address"
        },
        {
          "indexed": false,
          "internalType": "uint256",
          "name": "index",
          "type": "uint256"
        },
        {
          "indexed": false,
          "internalType": "uint256",
          "name": "numNodes",
          "type": "uint256"
        },
        {
          "indexed": false,
          "internalType": "uint256",
          "name": "size",
          "type": "uint256"
        }
      ],
      "name": "CiphernodeAdded",
      "type": "event"
    },
    {
      "anonymous": false,
      "inputs": [
        {
          "indexed": true,
          "internalType": "address",
          "name": "node",
          "type": "address"
        },
        {
          "indexed": false,
          "internalType": "uint256",
          "name": "index",
          "type": "uint256"
        },
        {
          "indexed": false,
          "internalType": "uint256",
          "name": "numNodes",
          "type": "uint256"
        },
        {
          "indexed": false,
          "internalType": "uint256",
          "name": "size",
          "type": "uint256"
        }
      ],
      "name": "CiphernodeRemoved",
      "type": "event"
    },
    {
      "anonymous": false,
      "inputs": [
        {
          "indexed": true,
          "internalType": "uint256",
          "name": "e3Id",
          "type": "uint256"
        },
        {
          "indexed": false,
          "internalType": "bool",
          "name": "active",
          "type": "bool"
        }
      ],
      "name": "CommitteeActivationChanged",
      "type": "event"
    },
    {
      "anonymous": false,
      "inputs": [
        {
          "indexed": true,
          "internalType": "uint256",
          "name": "e3Id",
          "type": "uint256"
        },
        {
          "indexed": false,
          "internalType": "uint256",
          "name": "nodesSubmitted",
          "type": "uint256"
        },
        {
          "indexed": false,
          "internalType": "uint256",
          "name": "thresholdRequired",
          "type": "uint256"
        }
      ],
      "name": "CommitteeFormationFailed",
      "type": "event"
    },
    {
      "anonymous": false,
      "inputs": [
        {
          "indexed": true,
          "internalType": "uint256",
          "name": "e3Id",
          "type": "uint256"
        },
        {
          "indexed": true,
          "internalType": "address",
          "name": "node",
          "type": "address"
        },
        {
          "indexed": false,
          "internalType": "bytes32",
          "name": "reason",
          "type": "bytes32"
        },
        {
          "indexed": false,
          "internalType": "uint256",
          "name": "activeCountAfter",
          "type": "uint256"
        }
      ],
      "name": "CommitteeMemberExpelled",
      "type": "event"
    },
    {
      "anonymous": false,
      "inputs": [
        {
          "indexed": true,
          "internalType": "uint256",
          "name": "e3Id",
          "type": "uint256"
        },
        {
          "indexed": false,
          "internalType": "address[]",
          "name": "nodes",
          "type": "address[]"
        },
        {
          "indexed": false,
          "internalType": "bytes",
          "name": "publicKey",
          "type": "bytes"
        },
        {
          "indexed": false,
          "internalType": "bytes32",
          "name": "pkCommitment",
          "type": "bytes32"
        },
        {
          "indexed": false,
          "internalType": "bytes",
          "name": "proof",
          "type": "bytes"
        }
      ],
      "name": "CommitteePublished",
      "type": "event"
    },
    {
      "anonymous": false,
      "inputs": [
        {
          "indexed": true,
          "internalType": "uint256",
          "name": "e3Id",
          "type": "uint256"
        },
        {
          "indexed": false,
          "internalType": "uint256",
          "name": "seed",
          "type": "uint256"
        },
        {
          "indexed": false,
          "internalType": "uint32[2]",
          "name": "threshold",
          "type": "uint32[2]"
        },
        {
          "indexed": false,
          "internalType": "uint256",
          "name": "requestBlock",
          "type": "uint256"
        },
        {
          "indexed": false,
          "internalType": "uint256",
          "name": "committeeDeadline",
          "type": "uint256"
        }
      ],
      "name": "CommitteeRequested",
      "type": "event"
    },
    {
      "anonymous": false,
      "inputs": [
        {
          "indexed": true,
          "internalType": "uint256",
          "name": "e3Id",
          "type": "uint256"
        },
        {
          "indexed": false,
          "internalType": "uint256",
          "name": "activeCount",
          "type": "uint256"
        },
        {
          "indexed": false,
          "internalType": "uint256",
          "name": "thresholdM",
          "type": "uint256"
        },
        {
          "indexed": false,
          "internalType": "bool",
          "name": "viable",
          "type": "bool"
        }
      ],
      "name": "CommitteeViabilityUpdated",
      "type": "event"
    },
    {
      "anonymous": false,
      "inputs": [
        {
          "indexed": true,
          "internalType": "address",
          "name": "verifier",
          "type": "address"
        }
      ],
      "name": "DkgFoldAttestationVerifierProposalCancelled",
      "type": "event"
    },
    {
      "anonymous": false,
      "inputs": [
        {
          "indexed": true,
          "internalType": "address",
          "name": "verifier",
          "type": "address"
        },
        {
          "indexed": false,
          "internalType": "uint256",
          "name": "readyAt",
          "type": "uint256"
        }
      ],
      "name": "DkgFoldAttestationVerifierProposed",
      "type": "event"
    },
    {
      "anonymous": false,
      "inputs": [
        {
          "indexed": true,
          "internalType": "address",
          "name": "verifier",
          "type": "address"
        }
      ],
      "name": "DkgFoldAttestationVerifierUpdated",
      "type": "event"
    },
    {
      "anonymous": false,
      "inputs": [
        {
          "indexed": true,
          "internalType": "address",
          "name": "enclave",
          "type": "address"
        }
      ],
      "name": "EnclaveSet",
      "type": "event"
    },
    {
      "anonymous": false,
      "inputs": [
        {
          "indexed": false,
          "internalType": "uint64",
          "name": "version",
          "type": "uint64"
        }
      ],
      "name": "Initialized",
      "type": "event"
    },
    {
      "anonymous": false,
      "inputs": [
        {
          "indexed": true,
          "internalType": "address",
          "name": "previousOwner",
          "type": "address"
        },
        {
          "indexed": true,
          "internalType": "address",
          "name": "newOwner",
          "type": "address"
        }
      ],
      "name": "OwnershipTransferStarted",
      "type": "event"
    },
    {
      "anonymous": false,
      "inputs": [
        {
          "indexed": true,
          "internalType": "address",
          "name": "previousOwner",
          "type": "address"
        },
        {
          "indexed": true,
          "internalType": "address",
          "name": "newOwner",
          "type": "address"
        }
      ],
      "name": "OwnershipTransferred",
      "type": "event"
    },
    {
      "anonymous": false,
      "inputs": [
        {
          "indexed": true,
          "internalType": "address",
          "name": "slashingManager",
          "type": "address"
        }
      ],
      "name": "RegistrySlashingManagerSet",
      "type": "event"
    },
    {
      "anonymous": false,
      "inputs": [
        {
          "indexed": true,
          "internalType": "address",
          "name": "slashingManager",
          "type": "address"
        }
      ],
      "name": "SlashingManagerSet",
      "type": "event"
    },
    {
      "anonymous": false,
      "inputs": [
        {
          "indexed": true,
          "internalType": "uint256",
          "name": "e3Id",
          "type": "uint256"
        },
        {
          "indexed": false,
          "internalType": "address[]",
          "name": "committee",
          "type": "address[]"
        },
        {
          "indexed": false,
          "internalType": "uint256[]",
          "name": "scores",
          "type": "uint256[]"
        }
      ],
      "name": "SortitionCommitteeFinalized",
      "type": "event"
    },
    {
      "anonymous": false,
      "inputs": [
        {
          "indexed": false,
          "internalType": "uint256",
          "name": "sortitionSubmissionWindow",
          "type": "uint256"
        }
      ],
      "name": "SortitionSubmissionWindowSet",
      "type": "event"
    },
    {
      "anonymous": false,
      "inputs": [
        {
          "indexed": true,
          "internalType": "uint256",
          "name": "e3Id",
          "type": "uint256"
        },
        {
          "indexed": true,
          "internalType": "address",
          "name": "node",
          "type": "address"
        },
        {
          "indexed": false,
          "internalType": "uint256",
          "name": "ticketId",
          "type": "uint256"
        },
        {
          "indexed": false,
          "internalType": "uint256",
          "name": "score",
          "type": "uint256"
        }
      ],
      "name": "TicketSubmitted",
      "type": "event"
    },
    {
      "inputs": [],
      "name": "DEFAULT_ACCUSATION_VOTE_VALIDITY",
      "outputs": [
        {
          "internalType": "uint256",
          "name": "",
          "type": "uint256"
        }
      ],
      "stateMutability": "view",
      "type": "function"
    },
    {
      "inputs": [],
      "name": "DKG_FOLD_VERIFIER_TIMELOCK",
      "outputs": [
        {
          "internalType": "uint256",
          "name": "",
          "type": "uint256"
        }
      ],
      "stateMutability": "view",
      "type": "function"
    },
    {
      "inputs": [],
      "name": "MAX_CIPHERNODE_LEAVES",
      "outputs": [
        {
          "internalType": "uint256",
          "name": "",
          "type": "uint256"
        }
      ],
      "stateMutability": "view",
      "type": "function"
    },
    {
      "inputs": [],
      "name": "MAX_SORTITION_SUBMISSION_WINDOW",
      "outputs": [
        {
          "internalType": "uint256",
          "name": "",
          "type": "uint256"
        }
      ],
      "stateMutability": "view",
      "type": "function"
    },
    {
      "inputs": [],
      "name": "MIN_SORTITION_SUBMISSION_WINDOW",
      "outputs": [
        {
          "internalType": "uint256",
          "name": "",
          "type": "uint256"
        }
      ],
      "stateMutability": "view",
      "type": "function"
    },
    {
      "inputs": [],
      "name": "TREE_DEPTH",
      "outputs": [
        {
          "internalType": "uint8",
          "name": "",
          "type": "uint8"
        }
      ],
      "stateMutability": "view",
      "type": "function"
    },
    {
      "inputs": [],
      "name": "acceptOwnership",
      "outputs": [],
      "stateMutability": "nonpayable",
      "type": "function"
    },
    {
      "inputs": [],
      "name": "accusationVoteValidity",
      "outputs": [
        {
          "internalType": "uint256",
          "name": "",
          "type": "uint256"
        }
      ],
      "stateMutability": "view",
      "type": "function"
    },
    {
      "inputs": [
        {
          "internalType": "address",
          "name": "node",
          "type": "address"
        }
      ],
      "name": "addCiphernode",
      "outputs": [],
      "stateMutability": "nonpayable",
      "type": "function"
    },
    {
      "inputs": [],
      "name": "bondingRegistry",
      "outputs": [
        {
          "internalType": "contract IBondingRegistry",
          "name": "",
          "type": "address"
        }
      ],
      "stateMutability": "view",
      "type": "function"
    },
    {
      "inputs": [],
      "name": "cancelDkgFoldAttestationVerifierProposal",
      "outputs": [],
      "stateMutability": "nonpayable",
      "type": "function"
    },
    {
      "inputs": [
        {
          "internalType": "uint256",
          "name": "e3Id",
          "type": "uint256"
        },
        {
          "internalType": "uint256",
          "name": "partyId",
          "type": "uint256"
        }
      ],
      "name": "canonicalCommitteeNodeAt",
      "outputs": [
        {
          "internalType": "address",
          "name": "",
          "type": "address"
        }
      ],
      "stateMutability": "view",
      "type": "function"
    },
    {
      "inputs": [
        {
          "internalType": "address",
          "name": "node",
          "type": "address"
        }
      ],
      "name": "ciphernodeEnabled",
      "outputs": [
        {
          "internalType": "bool",
          "name": "enabled",
          "type": "bool"
        }
      ],
      "stateMutability": "view",
      "type": "function"
    },
    {
      "inputs": [
        {
          "internalType": "address",
          "name": "node",
          "type": "address"
        }
      ],
      "name": "ciphernodeTreeIndex",
      "outputs": [
        {
          "internalType": "uint40",
          "name": "index",
          "type": "uint40"
        }
      ],
      "stateMutability": "view",
      "type": "function"
    },
    {
      "inputs": [],
      "name": "ciphernodes",
      "outputs": [
        {
          "internalType": "uint40",
          "name": "maxIndex",
          "type": "uint40"
        },
        {
          "internalType": "uint40",
          "name": "numberOfLeaves",
          "type": "uint40"
        }
      ],
      "stateMutability": "view",
      "type": "function"
    },
    {
      "inputs": [
        {
          "internalType": "contract IDkgFoldAttestationVerifier",
          "name": "verifier",
          "type": "address"
        }
      ],
      "name": "commitDkgFoldAttestationVerifier",
      "outputs": [],
      "stateMutability": "nonpayable",
      "type": "function"
    },
    {
      "inputs": [
        {
          "internalType": "uint256",
          "name": "e3Id",
          "type": "uint256"
        }
      ],
      "name": "committeePublicKey",
      "outputs": [
        {
          "internalType": "bytes32",
          "name": "publicKeyHash",
          "type": "bytes32"
        }
      ],
      "stateMutability": "view",
      "type": "function"
    },
    {
      "inputs": [],
      "name": "dkgFoldAttestationVerifier",
      "outputs": [
        {
          "internalType": "contract IDkgFoldAttestationVerifier",
          "name": "",
          "type": "address"
        }
      ],
      "stateMutability": "view",
      "type": "function"
    },
    {
      "inputs": [],
      "name": "enclave",
      "outputs": [
        {
          "internalType": "contract IEnclave",
          "name": "",
          "type": "address"
        }
      ],
      "stateMutability": "view",
      "type": "function"
    },
    {
      "inputs": [
        {
          "internalType": "uint256",
          "name": "e3Id",
          "type": "uint256"
        },
        {
          "internalType": "address",
          "name": "node",
          "type": "address"
        },
        {
          "internalType": "bytes32",
          "name": "reason",
          "type": "bytes32"
        }
      ],
      "name": "expelCommitteeMember",
      "outputs": [
        {
          "internalType": "uint256",
          "name": "activeCount",
          "type": "uint256"
        },
        {
          "internalType": "uint32",
          "name": "thresholdM",
          "type": "uint32"
        }
      ],
      "stateMutability": "nonpayable",
      "type": "function"
    },
    {
      "inputs": [
        {
          "internalType": "uint256",
          "name": "e3Id",
          "type": "uint256"
        }
      ],
      "name": "finalizeCommittee",
      "outputs": [
        {
          "internalType": "bool",
          "name": "success",
          "type": "bool"
        }
      ],
      "stateMutability": "nonpayable",
      "type": "function"
    },
    {
      "inputs": [
        {
          "internalType": "uint256",
          "name": "e3Id",
          "type": "uint256"
        }
      ],
      "name": "getActiveCommitteeNodes",
      "outputs": [
        {
          "internalType": "address[]",
          "name": "nodes",
          "type": "address[]"
        },
        {
          "internalType": "uint256[]",
          "name": "scores",
          "type": "uint256[]"
        }
      ],
      "stateMutability": "view",
      "type": "function"
    },
    {
      "inputs": [],
      "name": "getBondingRegistry",
      "outputs": [
        {
          "internalType": "address",
          "name": "",
          "type": "address"
        }
      ],
      "stateMutability": "view",
      "type": "function"
    },
    {
      "inputs": [
        {
          "internalType": "uint256",
          "name": "e3Id",
          "type": "uint256"
        }
      ],
      "name": "getCommitteeDeadline",
      "outputs": [
        {
          "internalType": "uint256",
          "name": "",
          "type": "uint256"
        }
      ],
      "stateMutability": "view",
      "type": "function"
    },
    {
      "inputs": [
        {
          "internalType": "uint256",
          "name": "e3Id",
          "type": "uint256"
        }
      ],
      "name": "getCommitteeHash",
      "outputs": [
        {
          "internalType": "bytes32",
          "name": "committeeHash",
          "type": "bytes32"
        }
      ],
      "stateMutability": "view",
      "type": "function"
    },
    {
      "inputs": [
        {
          "internalType": "uint256",
          "name": "e3Id",
          "type": "uint256"
        }
      ],
      "name": "getCommitteeNodes",
      "outputs": [
        {
          "internalType": "address[]",
          "name": "nodes",
          "type": "address[]"
        }
      ],
      "stateMutability": "view",
      "type": "function"
    },
    {
      "inputs": [
        {
          "internalType": "uint256",
          "name": "e3Id",
          "type": "uint256"
        }
      ],
      "name": "getCommitteeViability",
      "outputs": [
        {
          "internalType": "uint256",
          "name": "activeCount",
          "type": "uint256"
        },
        {
          "internalType": "uint32",
          "name": "thresholdM",
          "type": "uint32"
        },
        {
          "internalType": "uint32",
          "name": "thresholdN",
          "type": "uint32"
        },
        {
          "internalType": "bool",
          "name": "viable",
          "type": "bool"
        }
      ],
      "stateMutability": "view",
      "type": "function"
    },
    {
      "inputs": [
        {
          "internalType": "uint256",
          "name": "e3Id",
          "type": "uint256"
        }
      ],
      "name": "getDkgAnchors",
      "outputs": [
        {
          "internalType": "uint256[]",
          "name": "partyIds",
          "type": "uint256[]"
        },
        {
          "internalType": "bytes32[]",
          "name": "skAggCommits",
          "type": "bytes32[]"
        },
        {
          "internalType": "bytes32[]",
          "name": "esmAggCommits",
          "type": "bytes32[]"
        }
      ],
      "stateMutability": "view",
      "type": "function"
    },
    {
      "inputs": [
        {
          "internalType": "address",
          "name": "_owner",
          "type": "address"
        },
        {
          "internalType": "uint256",
          "name": "_submissionWindow",
          "type": "uint256"
        }
      ],
      "name": "initialize",
      "outputs": [],
      "stateMutability": "nonpayable",
      "type": "function"
    },
    {
      "inputs": [
        {
          "internalType": "address",
          "name": "node",
          "type": "address"
        }
      ],
      "name": "isCiphernodeEligible",
      "outputs": [
        {
          "internalType": "bool",
          "name": "",
          "type": "bool"
        }
      ],
      "stateMutability": "view",
      "type": "function"
    },
    {
      "inputs": [
        {
          "internalType": "uint256",
          "name": "e3Id",
          "type": "uint256"
        },
        {
          "internalType": "address",
          "name": "node",
          "type": "address"
        }
      ],
      "name": "isCommitteeMember",
      "outputs": [
        {
          "internalType": "bool",
          "name": "",
          "type": "bool"
        }
      ],
      "stateMutability": "view",
      "type": "function"
    },
    {
      "inputs": [
        {
          "internalType": "uint256",
          "name": "e3Id",
          "type": "uint256"
        },
        {
          "internalType": "address",
          "name": "node",
          "type": "address"
        }
      ],
      "name": "isCommitteeMemberActive",
      "outputs": [
        {
          "internalType": "bool",
          "name": "",
          "type": "bool"
        }
      ],
      "stateMutability": "view",
      "type": "function"
    },
    {
      "inputs": [
        {
          "internalType": "address",
          "name": "node",
          "type": "address"
        }
      ],
      "name": "isEnabled",
      "outputs": [
        {
          "internalType": "bool",
          "name": "",
          "type": "bool"
        }
      ],
      "stateMutability": "view",
      "type": "function"
    },
    {
      "inputs": [
        {
          "internalType": "uint256",
          "name": "e3Id",
          "type": "uint256"
        }
      ],
      "name": "isOpen",
      "outputs": [
        {
          "internalType": "bool",
          "name": "",
          "type": "bool"
        }
      ],
      "stateMutability": "view",
      "type": "function"
    },
    {
      "inputs": [],
      "name": "numCiphernodes",
      "outputs": [
        {
          "internalType": "uint256",
          "name": "",
          "type": "uint256"
        }
      ],
      "stateMutability": "view",
      "type": "function"
    },
    {
      "inputs": [],
      "name": "owner",
      "outputs": [
        {
          "internalType": "address",
          "name": "",
          "type": "address"
        }
      ],
      "stateMutability": "view",
      "type": "function"
    },
    {
      "inputs": [],
      "name": "pendingDkgFoldAttestationVerifier",
      "outputs": [
        {
          "internalType": "address",
          "name": "",
          "type": "address"
        }
      ],
      "stateMutability": "view",
      "type": "function"
    },
    {
      "inputs": [],
      "name": "pendingDkgFoldAttestationVerifierAt",
      "outputs": [
        {
          "internalType": "uint256",
          "name": "",
          "type": "uint256"
        }
      ],
      "stateMutability": "view",
      "type": "function"
    },
    {
      "inputs": [],
      "name": "pendingOwner",
      "outputs": [
        {
          "internalType": "address",
          "name": "",
          "type": "address"
        }
      ],
      "stateMutability": "view",
      "type": "function"
    },
    {
      "inputs": [
        {
          "internalType": "contract IDkgFoldAttestationVerifier",
          "name": "verifier",
          "type": "address"
        }
      ],
      "name": "proposeDkgFoldAttestationVerifier",
      "outputs": [],
      "stateMutability": "nonpayable",
      "type": "function"
    },
    {
      "inputs": [
        {
          "internalType": "uint256",
          "name": "e3Id",
          "type": "uint256"
        }
      ],
      "name": "publicKeyHashes",
      "outputs": [
        {
          "internalType": "bytes32",
          "name": "publicKeyHash",
          "type": "bytes32"
        }
      ],
      "stateMutability": "view",
      "type": "function"
    },
    {
      "inputs": [
        {
          "internalType": "uint256",
          "name": "e3Id",
          "type": "uint256"
        },
        {
          "internalType": "bytes",
          "name": "publicKey",
          "type": "bytes"
        },
        {
          "internalType": "bytes32",
          "name": "pkCommitment",
          "type": "bytes32"
        },
        {
          "internalType": "bytes",
          "name": "proof",
          "type": "bytes"
        },
        {
          "internalType": "bytes",
          "name": "dkgAttestationBundle",
          "type": "bytes"
        }
      ],
      "name": "publishCommittee",
      "outputs": [],
      "stateMutability": "nonpayable",
      "type": "function"
    },
    {
      "inputs": [
        {
          "internalType": "address",
          "name": "node",
          "type": "address"
        }
      ],
      "name": "removeCiphernode",
      "outputs": [],
      "stateMutability": "nonpayable",
      "type": "function"
    },
    {
      "inputs": [],
      "name": "renounceOwnership",
      "outputs": [],
      "stateMutability": "view",
      "type": "function"
    },
    {
      "inputs": [
        {
          "internalType": "uint256",
          "name": "e3Id",
          "type": "uint256"
        },
        {
          "internalType": "uint256",
          "name": "seed",
          "type": "uint256"
        },
        {
          "internalType": "uint32[2]",
          "name": "threshold",
          "type": "uint32[2]"
        }
      ],
      "name": "requestCommittee",
      "outputs": [
        {
          "internalType": "bool",
          "name": "success",
          "type": "bool"
        }
      ],
      "stateMutability": "nonpayable",
      "type": "function"
    },
    {
      "inputs": [],
      "name": "root",
      "outputs": [
        {
          "internalType": "uint256",
          "name": "",
          "type": "uint256"
        }
      ],
      "stateMutability": "view",
      "type": "function"
    },
    {
      "inputs": [
        {
          "internalType": "uint256",
          "name": "e3Id",
          "type": "uint256"
        }
      ],
      "name": "rootAt",
      "outputs": [
        {
          "internalType": "uint256",
          "name": "",
          "type": "uint256"
        }
      ],
      "stateMutability": "view",
      "type": "function"
    },
    {
      "inputs": [
        {
          "internalType": "uint256",
          "name": "e3Id",
          "type": "uint256"
        }
      ],
      "name": "roots",
      "outputs": [
        {
          "internalType": "uint256",
          "name": "root",
          "type": "uint256"
        }
      ],
      "stateMutability": "view",
      "type": "function"
    },
    {
      "inputs": [
        {
          "internalType": "uint256",
          "name": "_accusationVoteValidity",
          "type": "uint256"
        }
      ],
      "name": "setAccusationVoteValidity",
      "outputs": [],
      "stateMutability": "nonpayable",
      "type": "function"
    },
    {
      "inputs": [
        {
          "internalType": "contract IBondingRegistry",
          "name": "_bondingRegistry",
          "type": "address"
        }
      ],
      "name": "setBondingRegistry",
      "outputs": [],
      "stateMutability": "nonpayable",
      "type": "function"
    },
    {
      "inputs": [
        {
          "internalType": "contract IEnclave",
          "name": "_enclave",
          "type": "address"
        }
      ],
      "name": "setEnclave",
      "outputs": [],
      "stateMutability": "nonpayable",
      "type": "function"
    },
    {
      "inputs": [
        {
          "internalType": "contract IDkgFoldAttestationVerifier",
          "name": "verifier",
          "type": "address"
        }
      ],
      "name": "setInitialDkgFoldAttestationVerifier",
      "outputs": [],
      "stateMutability": "nonpayable",
      "type": "function"
    },
    {
      "inputs": [
        {
          "internalType": "contract ISlashingManager",
          "name": "_slashingManager",
          "type": "address"
        }
      ],
      "name": "setSlashingManager",
      "outputs": [],
      "stateMutability": "nonpayable",
      "type": "function"
    },
    {
      "inputs": [
        {
          "internalType": "uint256",
          "name": "_sortitionSubmissionWindow",
          "type": "uint256"
        }
      ],
      "name": "setSortitionSubmissionWindow",
      "outputs": [],
      "stateMutability": "nonpayable",
      "type": "function"
    },
    {
      "inputs": [],
      "name": "slashingManager",
      "outputs": [
        {
          "internalType": "contract ISlashingManager",
          "name": "",
          "type": "address"
        }
      ],
      "stateMutability": "view",
      "type": "function"
    },
    {
      "inputs": [],
      "name": "sortitionSubmissionWindow",
      "outputs": [
        {
          "internalType": "uint256",
          "name": "",
          "type": "uint256"
        }
      ],
      "stateMutability": "view",
      "type": "function"
    },
    {
      "inputs": [
        {
          "internalType": "uint256",
          "name": "e3Id",
          "type": "uint256"
        },
        {
          "internalType": "uint256",
          "name": "ticketNumber",
          "type": "uint256"
        }
      ],
      "name": "submitTicket",
      "outputs": [],
      "stateMutability": "nonpayable",
      "type": "function"
    },
    {
      "inputs": [
        {
          "internalType": "bytes4",
          "name": "interfaceId",
          "type": "bytes4"
        }
      ],
      "name": "supportsInterface",
      "outputs": [
        {
          "internalType": "bool",
          "name": "",
          "type": "bool"
        }
      ],
      "stateMutability": "pure",
      "type": "function"
    },
    {
      "inputs": [
        {
          "internalType": "address",
          "name": "newOwner",
          "type": "address"
        }
      ],
      "name": "transferOwnership",
      "outputs": [],
      "stateMutability": "nonpayable",
      "type": "function"
    },
    {
      "inputs": [],
      "name": "treeSize",
      "outputs": [
        {
          "internalType": "uint256",
          "name": "",
          "type": "uint256"
        }
      ],
      "stateMutability": "view",
      "type": "function"
    }
  ],
  "bytecode": "0x6080604052348015600f57600080fd5b506016601a565b60ca565b7ff0c57e16840df040f15088dc2f81fe391c3923bec73e23a9662efc9c229c6a00805468010000000000000000900460ff161560695760405163f92ee8a960e01b815260040160405180910390fd5b80546001600160401b039081161460c75780546001600160401b0319166001600160401b0390811782556040519081527fc7f505b2f371ae2175ee4913f4499e1f2633a7b5936321eed1cdaeb6115181d29060200160405180910390a15b50565b614afb806100d96000396000f3fe608060405234801561001057600080fd5b50600436106102b45760003560e01c806301ffc9a7146102b9578063096b810a146102e1578063099a161a146102f65780630b45f8e9146103175780630b88a79a1461032a5780630bbfade7146103335780630f3e34121461034657806317d61120146103595780631e08d0e81461037a5780632800d82914610382578063291a691b146103955780632e7b716d146103a8578063323beaa5146103bb5780634d6861a6146103ce57806350e6d94c146103e157806350e6fad3146104045780635d5047761461040e5780635efb633c1461042157806362cc89a81461042a5780636c120a951461044a57806370e36bbe1461045d578063715018a61461047057806379ba5097146104785780637c92f5241461048057806385814243146104ad5780638a78bb15146104c05780638cb89ecb146104d35780638d1ddfb1146104f35780638da5cb5b146105095780638e5ce3ad146105115780639015d371146105245780639a7a2ffc146105375780639f0f874a14610574578063a01649301461057d578063a8a4d69b1461059d578063acc52494146105b0578063b2d5d1ac146105c3578063b8ab4704146105cc578063bbe4b803146105ee578063bff232c1146105f8578063c2b40ae41461060b578063c3a0ec301461062b578063c8fe182d1461063c578063ca2869a014610644578063cd6dc68714610664578063cf90b6ed14610677578063da881e5a14610681578063dbb06c9314610694578063e30c3978146106a7578063e4be6e3d146106af578063e4d185db146106c2578063e59e4695146106d5578063e6745e13146106e8578063e82f3b70146106fb578063ebf0c7171461070e578063f165053614610716578063f2fde38b14610730578063f379b0df14610743578063f52fd8031461077d578063f6fc05d5146107ee575b600080fd5b6102cc6102c7366004613d99565b6107f7565b60405190151581526020015b60405180910390f35b6102f46102ef366004613dd8565b61082e565b005b610309610304366004613df5565b61096d565b6040519081526020016102d8565b6102f4610325366004613dd8565b6109a7565b61030961070881565b6102f4610341366004613e56565b610a8a565b6102f4610354366004613df5565b610d4b565b61036c610367366004613df5565b610dc6565b6040516102d8929190613f83565b610309600181565b610309610390366004613df5565b610f76565b6102cc6103a3366004613fb1565b610fc3565b6102cc6103b6366004613dd8565b6111a4565b6102f46103c9366004613dd8565b611255565b6102cc6103dc366004613df5565b61134f565b6102cc6103ef366004613dd8565b60066020526000908152604090205460ff1681565b6103096202a30081565b6102cc61041c366004613fee565b611390565b610309600f5481565b600d5461043d906001600160a01b031681565b6040516102d8919061401e565b6102f4610458366004613df5565b6113d5565b6102f461046b366004613dd8565b611400565b6102f4611477565b6102f461149b565b61049361048e366004614032565b6114da565b6040805192835263ffffffff9091166020830152016102d8565b60015461043d906001600160a01b031681565b6102f46104ce366004613dd8565b61167c565b6103096104e1366004613df5565b60096020526000908152604090205481565b600454600160281b900464ffffffffff16610309565b61043d6117c7565b600b5461043d906001600160a01b031681565b6102cc610532366004613dd8565b6117e2565b61055e610545366004613dd8565b60076020526000908152604090205464ffffffffff1681565b60405164ffffffffff90911681526020016102d8565b61030960035481565b61059061058b366004613df5565b611800565b6040516102d8919061406a565b6102cc6105ab366004613fee565b611899565b6102f46105be366004613dd8565b6118de565b610309600e5481565b6105df6105da366004613df5565b611975565b6040516102d89392919061407d565b6103096210000081565b6102f4610606366004613dd8565b611ac8565b610309610619366004613df5565b60086020526000908152604090205481565b6001546001600160a01b031661043d565b6102f4611b41565b610309610652366004613df5565b60009081526008602052604090205490565b6102f46106723660046140c0565b611bac565b61030962093a8081565b6102cc61068f366004613df5565b611d34565b60005461043d906001600160a01b031681565b61043d612029565b600c5461043d906001600160a01b031681565b61043d6106d03660046140ec565b612034565b6102f46106e3366004613dd8565b6120d5565b6102f46106f63660046140ec565b61214e565b610309610709366004613df5565b612317565b610309612349565b61071e601481565b60405160ff90911681526020016102d8565b6102f461073e366004613dd8565b61235c565b60045461075f9064ffffffffff80821691600160281b90041682565b6040805164ffffffffff9384168152929091166020830152016102d8565b6107bf61078b366004613df5565b6000908152600a60205260409020600b810154600590910154909163ffffffff80831692600160201b900416908284101590565b6040516102d8949392919093845263ffffffff9283166020850152911660408301521515606082015260800190565b61030960025481565b60006001600160e01b03198216635a23ad1360e01b148061082857506001600160e01b031982166301ffc9a760e01b145b92915050565b6108366117c7565b6001600160a01b0316336001600160a01b0316148061085f57506001546001600160a01b031633145b61087c57604051632864c4e160e01b815260040160405180910390fd5b610885816117e2565b81906108ae576040516381e5828960e01b81526004016108a5919061401e565b60405180910390fd5b506001600160a01b03811660009081526007602052604081205464ffffffffff16906108dd90600490836123cd565b6001600160a01b0382166000908152600660205260408120805460ff19169055600280549161090b83614124565b90915550506002546004546040516001600160a01b038516927f8c008e3835f6c79bfcdb89f0f6ca8705e0b01049ee84a90b0e4da1c7ba9405d59261096192869291600160281b900464ffffffffff169061413b565b60405180910390a25050565b6000818152600a60205260408120600481015461099d576040516322e679e360e11b815260040160405180910390fd5b6007015492915050565b6109af612619565b600c546001600160a01b0316156109d85760405162035f5560e61b815260040160405180910390fd5b6001600160a01b0381166109ff5760405163d92e233d60e01b815260040160405180910390fd5b600c80546001600160a01b0319166001600160a01b0383811691909117909155600d541615610a6557600d80546001600160a01b031981169091556000600e8190556040516001600160a01b03909216918291600080516020614a6f83398151915291a2505b6040516001600160a01b03821690600080516020614a8f83398151915290600090a250565b6000888152600a602052604090206002815460ff166003811115610ab057610ab061415c565b14610ace57604051634f4b461f60e11b815260040160405180910390fd5b600481015415610af15760405163632a22bb60e01b815260040160405180910390fd5b85610b0f57604051636caad1ed60e11b815260040160405180910390fd5b6000610b7682600601805480602002602001604051908101604052809291908181526020018280548015610b6c57602002820191906000526020600020905b81546001600160a01b03168152600190910190602001808311610b4e575b505050505061264d565b60078301819055600480840189905560008c8152600960205260408082208b90558154905163101bb4d760e21b81529283018e9052929350916001600160a01b03169063406ed35c90602401600060405180830381865afa158015610bdf573d6000803e3d6000fd5b505050506040513d6000823e601f3d908101601f19168201604052610c079190810190614310565b9050806101c0015115610c9557610c958b82600860008f81526020019081526020016000205486600601805480602002602001604051908101604052809291908181526020018280548015610c8557602002820191906000526020600020905b81546001600160a01b03168152600190910190602001808311610c67575b50505050508c878d8d8d8d612759565b6000546040516340a3b76160e11b81526001600160a01b03909116906381476ec290610cc7908e908c90600401614474565b600060405180830381600087803b158015610ce157600080fd5b505af1158015610cf5573d6000803e3d6000fd5b505050508a7fbf0636a312095f6c09c909823813b50e392323588d2d83432e7512c64041e67f846006018c8c8c8c8c604051610d36969594939291906144eb565b60405180910390a25050505050505050505050565b610d53612619565b60018110158015610d67575062093a808111155b8190610d895760405163028237cd60e61b81526004016108a591815260200190565b5060038190556040518181527fbe772dc189863d512fa01e489c8eac204975aef1a8662d8b5a333804b5207ab7906020015b60405180910390a150565b6000818152600a602052604090206006810154600b82015460609283929091806001600160401b03811115610dfd57610dfd614172565b604051908082528060200260200182016040528015610e26578160200160208202803683370190505b509450806001600160401b03811115610e4157610e41614172565b604051908082528060200260200182016040528015610e6a578160200160208202803683370190505b5093506000805b83811015610f6c576000856006018281548110610e9057610e90614539565b6000918252602090912001546001600160a01b0316905060016001600160a01b0382166000908152600a8801602052604090205460ff166002811115610ed857610ed861415c565b03610f635780888481518110610ef057610ef0614539565b60200260200101906001600160a01b031690816001600160a01b031681525050856009016000826001600160a01b03166001600160a01b0316815260200190815260200160002054878481518110610f4a57610f4a614539565b602090810291909101015282610f5f8161454f565b9350505b50600101610e71565b5050505050915091565b6000818152600a6020526040812081815460ff166003811115610f9b57610f9b61415c565b03610fb957604051630d4c1d9760e41b815260040160405180910390fd5b6003015492915050565b600080546001600160a01b03163314610fef5760405163e4c2a7eb60e01b815260040160405180910390fd5b6000848152600a6020526040812090815460ff1660038111156110145761101461415c565b14611032576040516374ff462560e11b815260040160405180910390fd5b60015460408051630cc37d8f60e11b815290516000926001600160a01b031691631986fb1e9160048083019260209291908290030181865afa15801561107c573d6000803e3d6000fd5b505050506040513d601f19601f820116820180604052508101906110a09190614568565b9050806110b36040860160208701614595565b63ffffffff1611156110cb6040860160208701614595565b8290916110f9576040516344ec930f60e01b815263ffffffff909216600483015260248201526044016108a5565b5050815460ff19166001908117835582018590554260028301819055600354611121916145b0565b600383015561113560058301856002613ca7565b5061113e612349565b600087815260086020526040908190209190915560028301546003840154915188927f381d281d32f95ef8fe4e5f3b263ea6a32d03d331e1a141ae1da996dc02a7a17092611190928a928a92916145c3565b60405180910390a250600195945050505050565b60006111af826117e2565b6111bb57506000919050565b6001546001600160a01b03166111e4576040516350ca893360e01b815260040160405180910390fd5b600154604051639f8a13d760e01b81526001600160a01b0390911690639f8a13d79061121490859060040161401e565b602060405180830381865afa158015611231573d6000803e3d6000fd5b505050506040513d601f19601f820116820180604052508101906108289190614614565b61125d612619565b600d546001600160a01b0316806112875760405163366ca30560e11b815260040160405180910390fd5b80826001600160a01b03828116908216146112c857604051630d77758160e31b81526001600160a01b039283166004820152911660248201526044016108a5565b505060006202a300600e546112dd91906145b0565b9050804281811015611304576040516337c8270b60e01b81526004016108a5929190614474565b5050600c80546001600160a01b0385166001600160a01b03199182168117909255600d805490911690556000600e819055604051600080516020614a8f8339815191529190a2505050565b6000818152600a602052604081206001815460ff1660038111156113755761137561415c565b146113835750600092915050565b6003015442111592915050565b600060016000848152600a602081815260408084206001600160a01b0388168552909201905290205460ff1660028111156113cd576113cd61415c565b149392505050565b6113dd612619565b600f819055604051818152600080516020614aaf83398151915290602001610dbb565b611408612619565b6001600160a01b03811661142f5760405163d92e233d60e01b815260040160405180910390fd5b600080546001600160a01b0319166001600160a01b038316908117825560405190917f2c8267accd82e977550ed2349c73311183cd22e306347be4453c8d130995e3c991a250565b61147f612619565b6040516001623f026d60e01b0319815260040160405180910390fd5b33806114a5612029565b6001600160a01b0316146114ce578060405163118cdaa760e01b81526004016108a5919061401e565b6114d78161280f565b50565b600b5460009081906001600160a01b0316331461150a5760405163fcef374960e01b815260040160405180910390fd5b6000858152600a602052604090206002815460ff1660038111156115305761153061415c565b1461154e57604051634f4b461f60e11b815260040160405180910390fd5b60058101546001600160a01b0386166000908152600a8301602052604090205463ffffffff909116925060019060ff16600281111561158f5761158f61415c565b1461159f57600b01549150611674565b6001600160a01b0385166000908152600a820160205260408120805460ff19166002179055600b82018054916115d483614124565b919050555080600b01549250846001600160a01b0316867f6c783b92374361b4d6efaf29673b89437ee969bb3c9d2d5d86b143ad5447b849868660405161161c929190614474565b60405180910390a36040805184815263ffffffff84166020820181905285101591810182905287907f119cb11dd0a68c257d6dc9b06dcb37dd422ce276eb8bf3cd0b7079a116b8e2989060600160405180910390a250505b935093915050565b6116846117c7565b6001600160a01b0316336001600160a01b031614806116ad57506001546001600160a01b031633145b6116ca57604051632864c4e160e01b815260040160405180910390fd5b6116d3816117e2565b6114d757600454600160281b900464ffffffffff1662100000811061170b576040516335b4ac3f60e01b815260040160405180910390fd5b61171f60046001600160a01b038416612836565b6001600160a01b0382166000908152600660209081526040808320805460ff1916600117905560079091528120805464ffffffffff841664ffffffffff1990911617905560028054916117718361454f565b90915550506002546004546040516001600160a01b038516927f3318d261fe14a5761d2d1e21555652f623d2134c430a9883c9ad6e958bb0db539261096192869291600160281b900464ffffffffff169061413b565b6000806117d26129b1565b546001600160a01b031692915050565b6001600160a01b031660009081526006602052604090205460ff1690565b6000818152600a60205260409020600481015460609190611834576040516322e679e360e11b815260040160405180910390fd5b8060060180548060200260200160405190810160405280929190818152602001828054801561188c57602002820191906000526020600020905b81546001600160a01b0316815260019091019060200180831161186e575b5050505050915050919050565b6000806000848152600a602081815260408084206001600160a01b0388168552909201905290205460ff1660028111156118d5576118d561415c565b14159392505050565b6118e6612619565b6001600160a01b03811661190d5760405163d92e233d60e01b815260040160405180910390fd5b600d80546001600160a01b0319166001600160a01b03831690811790915542600e8190557fc4d0d0b50812c7ced0867d68b80682e9c1f549fe4f7b398a3a10054d3d9f0f2590611961906202a300906145b0565b60405190815260200160405180910390a250565b600081815260096020526040902054606090819081906119a8576040516322e679e360e11b815260040160405180910390fd5b600084815260106020908152604080832060118352818420601284529382902081548351818602810186019094528084529194939092918591830182828015611a1057602002820191906000526020600020905b8154815260200190600101908083116119fc575b5050505050925081805480602002602001604051908101604052809291908181526020018280548015611a6257602002820191906000526020600020905b815481526020019060010190808311611a4e575b5050505050915080805480602002602001604051908101604052809291908181526020018280548015611ab457602002820191906000526020600020905b815481526020019060010190808311611aa0575b505050505090509250925092509193909250565b611ad0612619565b6001600160a01b038116611af75760405163d92e233d60e01b815260040160405180910390fd5b600b80546001600160a01b0319166001600160a01b0383169081179091556040517fb73e5a0813d035641a46672d94cff1b110eae2a87ac75a0e31134dfba06cffe290600090a250565b611b49612619565b600d546001600160a01b031680611b735760405163366ca30560e11b815260040160405180910390fd5b600d80546001600160a01b03191690556000600e8190556040516001600160a01b03831691600080516020614a6f83398151915291a250565b6000611bb66129d5565b805490915060ff600160401b82041615906001600160401b0316600081158015611bdd5750825b90506000826001600160401b03166001148015611bf95750303b155b905081158015611c07575080155b15611c255760405163f92ee8a960e01b815260040160405180910390fd5b84546001600160401b03191660011785558315611c4e57845460ff60401b1916600160401b1785555b6001600160a01b038716611c755760405163d92e233d60e01b815260040160405180910390fd5b611c7e336129fe565b611c8a60046014612a0f565b611c9386610d4b565b610708600f819055604051908152600080516020614aaf8339815191529060200160405180910390a1611cc46117c7565b6001600160a01b0316876001600160a01b031614611ce557611ce58761280f565b8315611d2b57845460ff60401b19168555604051600181527fc7f505b2f371ae2175ee4913f4499e1f2633a7b5936321eed1cdaeb6115181d29060200160405180910390a15b50505050505050565b6000818152600a6020526040812081815460ff166003811115611d5957611d5961415c565b03611d7757604051630d4c1d9760e41b815260040160405180910390fd5b6001815460ff166003811115611d8f57611d8f61415c565b14611dad57604051631860f69960e31b815260040160405180910390fd5b80600301544211611dd157604051632f021e8d60e11b815260040160405180910390fd5b60058101546006820154600160201b90910463ffffffff16111580611ebd578154600360ff199091161782556006820154600583015460408051928352600160201b90910463ffffffff16602083015285917fecc4a9fb7e28d074cba7f5b227e9b5827823c850a385539b9a2f98a08f8c203d910160405180910390a2600054604051635d968dc160e11b815260048101869052600260248201526001600160a01b039091169063bb2d1b8290604401600060405180830381600087803b158015611e9b57600080fd5b505af1158015611eaf573d6000803e3d6000fd5b506000979650505050505050565b611ec682612a4e565b815460ff191660021782556006820154600b83018190556000816001600160401b03811115611ef757611ef7614172565b604051908082528060200260200182016040528015611f20578160200160208202803683370190505b50905060005b82811015611f9557846009016000866006018381548110611f4957611f49614539565b60009182526020808320909101546001600160a01b031683528201929092526040019020548251839083908110611f8257611f82614539565b6020908102919091010152600101611f26565b50600054604051631f3ea75d60e21b8152600481018890526001600160a01b0390911690637cfa9d7490602401600060405180830381600087803b158015611fdc57600080fd5b505af1158015611ff0573d6000803e3d6000fd5b50505050857f965338df36bd39d668fe7694af5c34a5e37fb2cdc450ce4e99c0e71deb7c11e5856006018360405161119092919061462f565b6000806117d2612b7f565b6000828152600a602052604081206002815460ff16600381111561205a5761205a61415c565b1461207857604051634f4b461f60e11b815260040160405180910390fd5b600681015483908082106120a1576040516326c5c55b60e11b81526004016108a5929190614474565b50508060060183815481106120b8576120b8614539565b6000918252602090912001546001600160a01b0316949350505050565b6120dd612619565b6001600160a01b0381166121045760405163d92e233d60e01b815260040160405180910390fd5b600180546001600160a01b0319166001600160a01b0383169081179091556040517fad4055f18cdad6f4bdd71afe3a72cbeee964217943e1bde38f138289e981a9a790600090a250565b6000828152600a6020526040812090815460ff1660038111156121735761217361415c565b0361219157604051630d4c1d9760e41b815260040160405180910390fd5b6001815460ff1660038111156121a9576121a961415c565b146121c757604051631860f69960e31b815260040160405180910390fd5b80600301544211156121ec57604051639a19114d60e01b815260040160405180910390fd5b33600090815260088201602052604090205460ff161561221f5760405163257309f160e11b815260040160405180910390fd5b612228336111a4565b6122455760405163149fbcfd60e11b815260040160405180910390fd5b612250338385612ba3565b6001810154604080516001600160601b03193360601b16602080830191909152603482018690526054820187905260748083019490945282518083039094018452609490910190915281519101206000903360008181526008850160205260409020805460ff191660011790559091506122cc90839083612d7f565b50336001600160a01b0316847f52999628fb1cb05707e842278833b22e511f11746202cecdf221968b0b89e8bd8584604051612309929190614474565b60405180910390a350505050565b60008181526009602052604090205480612344576040516322e679e360e11b815260040160405180910390fd5b919050565b600061235760046014612f8b565b905090565b612364612619565b600061236e612b7f565b80546001600160a01b0319166001600160a01b03841690811782559091506123946117c7565b6001600160a01b03167f38d16b8cac22d99fc7c124b9cd0de2d3fa1faef420bfe791d8c362d765e2270060405160405180910390a35050565b600080516020614acf83398151915282106123e757600080fd5b825464ffffffffff600160281b9091048116908216811161240757600080fd5b8260005b8186600101600061241c8488612ff1565b64ffffffffff1681526020019081526020016000208190555060008160016124449190614642565b60ff168464ffffffffff16901c64ffffffffff16905060018564ffffffffff16901c64ffffffffff1681116124795750612611565b6001851660000361254557600061249a8361249588600161465b565b612ff1565b60408051808201825286815264ffffffffff8316600090815260018c0160209081529083902054908201529051632b0aac7f60e11b815291925073__$078c82ddf6c95d34ea184ef1dd6130d136$__9163561558fe916124fc91600401614678565b602060405180830381865af4158015612519573d6000803e3d6000fd5b505050506040513d601f19601f8201168201806040525081019061253d9190614568565b9350506125fd565b6000612556836124956001896146a9565b60408051808201825264ffffffffff8316600090815260018c0160209081529083902054825281018790529051632b0aac7f60e11b815291925073__$078c82ddf6c95d34ea184ef1dd6130d136$__9163561558fe916125b891600401614678565b602060405180830381865af41580156125d5573d6000803e3d6000fd5b505050506040513d601f19601f820116820180604052508101906125f99190614568565b9350505b50647fffffffff600194851c16930161240b565b505050505050565b336126226117c7565b6001600160a01b03161461264b573360405163118cdaa760e01b81526004016108a5919061401e565b565b80516000908161265e8260146146c6565b6001600160401b0381111561267557612675614172565b6040519080825280601f01601f19166020018201604052801561269f576020820181803683370190505b50905060005b828110156127495760008582815181106126c1576126c1614539565b602002602001015160601b905060008260146126dd91906146c6565b905060005b601481101561273b578281601481106126fd576126fd614539565b1a60f81b8561270c83856145b0565b8151811061271c5761271c614539565b60200101906001600160f81b031916908160001a9053506001016126e2565b5050508060010190506126a5565b5080516020909101209392505050565b8261277757604051630fb0193f60e41b815260040160405180910390fd5b8861012001516001600160a01b0316630741a9da8b8a8a8a8a8a8a6040518863ffffffff1660e01b81526004016127b497969594939291906146dd565b602060405180830381865afa1580156127d1573d6000803e3d6000fd5b505050506040513d601f19601f820116820180604052508101906127f59190614614565b506128038a8585858561300f565b50505050505050505050565b6000612819612b7f565b80546001600160a01b0319168155905061283282613150565b5050565b8154600160281b900464ffffffffff16600080516020614acf833981519152821061286057600080fd5b825464ffffffffff9081169082161061287857600080fd5b61288381600161465b565b835464ffffffffff91909116600160281b0264ffffffffff60281b199091161783558160005b818560010160006128ba8487612ff1565b64ffffffffff16815260208101919091526040016000205560018316156129aa5760006128ec826124956001876146a9565b60408051808201825264ffffffffff8316600090815260018a0160209081529083902054825281018690529051632b0aac7f60e11b815291925073__$078c82ddf6c95d34ea184ef1dd6130d136$__9163561558fe9161294e91600401614678565b602060405180830381865af415801561296b573d6000803e3d6000fd5b505050506040513d601f19601f8201168201806040525081019061298f9190614568565b647fffffffff600195861c16949093509190910190506128a9565b5050505050565b7f9016d09d72d40fdae2fd8ceac6b6234c7706214fd39c1cd1e609a0528c19930090565b6000807ff0c57e16840df040f15088dc2f81fe391c3923bec73e23a9662efc9c229c6a00610828565b612a066131ac565b6114d7816131d1565b602060ff82161115612a2057600080fd5b612a31600160ff831681901b614729565b82546001600160501b03191664ffffffffff919091161790915550565b600681015460005b81811015612b7a576000612a6b8260016145b0565b90505b82811015612b71576000846006018381548110612a8d57612a8d614539565b60009182526020822001546006870180546001600160a01b0390921693509084908110612abc57612abc614539565b6000918252602090912001546001600160a01b0390811691508216811015612b675780866006018581548110612af457612af4614539565b9060005260206000200160006101000a8154816001600160a01b0302191690836001600160a01b0316021790555081866006018481548110612b3857612b38614539565b9060005260206000200160006101000a8154816001600160a01b0302191690836001600160a01b031602179055505b5050600101612a6e565b50600101612a56565b505050565b7f237e158222e3e6968b72b9db0d8043aacf074ad9f650f0d1606b4d82ee432c0090565b60008211612bc45760405163aeaddff160e01b815260040160405180910390fd5b6001546001600160a01b0316612bed576040516350ca893360e01b815260040160405180910390fd5b6000818152600a602052604081206001805460028301549293926001600160a01b039091169163bb03bd71918891612c2491614729565b6040516001600160e01b031960e085901b1681526001600160a01b0390921660048301526024820152604401602060405180830381865afa158015612c6d573d6000803e3d6000fd5b505050506040513d601f19601f82011682018060405250810190612c919190614568565b90506000600160009054906101000a90046001600160a01b03166001600160a01b0316631209b1f66040518163ffffffff1660e01b8152600401602060405180830381865afa158015612ce8573d6000803e3d6000fd5b505050506040513d601f19601f82011682018060405250810190612d0c9190614568565b905060008111612d2f5760405163aeaddff160e01b815260040160405180910390fd5b6000612d3b828461473c565b905060008111612d5e5760405163149fbcfd60e11b815260040160405180910390fd5b80861115611d2b5760405163aeaddff160e01b815260040160405180910390fd5b6005830154600684018054600092600160201b900463ffffffff1690811115612dff57508054600180820183556000928352602080842090920180546001600160a01b0319166001600160a01b03881690811790915583526009870182526040808420869055600a88019092529120805460ff1916821790559050612f84565b60008087600901600085600081548110612e1b57612e1b614539565b60009182526020808320909101546001600160a01b03168352820192909252604001902054905060015b8454811015612ea7576000896009016000878481548110612e6857612e68614539565b60009182526020808320909101546001600160a01b03168352820192909252604001902054905082811115612e9e578092508193505b50600101612e45565b50808610612ebc576000945050505050612f84565b600088600a016000868581548110612ed657612ed6614539565b60009182526020808320909101546001600160a01b031683528201929092526040019020805460ff19166001836002811115612f1457612f1461415c565b021790555086848381548110612f2c57612f2c614539565b600091825260208083209190910180546001600160a01b0319166001600160a01b03948516179055918916815260098a0182526040808220899055600a8b0190925220805460ff191660019081179091559450505050505b9392505050565b6000808260ff1611612f9c57600080fd5b602060ff83161115612fad57600080fd5b8254600160281b900464ffffffffff1680612fcc60ff8516600261486e565b64ffffffffff161015612fde57600080fd5b612fe9848285613203565b949350505050565b60008161300560ff851663ffffffff614888565b612f84919061465b565b8061302d57604051639914ab1b60e01b815260040160405180910390fd5b600c546001600160a01b031661305657604051630d6eeecb60e01b815260040160405180910390fd5b600c54604051635a3b618f60e11b8152600091829182916001600160a01b03169063b476c31e9061309790309046908d908d908d908d908d906004016148af565b600060405180830381865afa1580156130b4573d6000803e3d6000fd5b505050506040513d6000823e601f3d908101601f191682016040526130dc9190810190614980565b60008b815260106020908152604090912084519497509295509093506131059290860190613d49565b506000888152601160209081526040909120835161312592850190613d49565b506000888152601260209081526040909120825161314592840190613d49565b505050505050505050565b600061315a6129b1565b80546001600160a01b038481166001600160a01b031983168117845560405193945091169182907f8be0079c531659141344cd1fd0a4f28419497f9722a3daafe3b4186f6b6457e090600090a3505050565b6131b46132bb565b61264b57604051631afcd79f60e31b815260040160405180910390fd5b6131d96131ac565b6001600160a01b0381166114ce576000604051631e4fbdf760e01b81526004016108a5919061401e565b6000602060ff8316111561321657600080fd5b8264ffffffffff166000036132355761322e826132d5565b9050612f84565b6000613242836001614642565b60ff166001600160401b0381111561325c5761325c614172565b604051908082528060200260200182016040528015613285578160200160208202803683370190505b5090506132948585858461392a565b808360ff16815181106132a9576132a9614539565b60200260200101519150509392505050565b60006132c56129d5565b54600160401b900460ff16919050565b60008160ff166000036132ea57506000919050565b8160ff1660010361331c57507f2098f5fb9e239eab3ceac3f27b81e481dc3124d55ffed523a839ee8446b64864919050565b8160ff1660020361334e57507f1069673dcdb12263df301a6ff584a7ec261a44cb9dc68df067a4774460b1f1e1919050565b8160ff1660030361338057507f18f43331537ee2af2e3d758d50f72106467c6eea50371dd528d57eb2b856d238919050565b8160ff166004036133b257507f07f9d837cb17b0d36320ffe93ba52345f1b728571a568265caac97559dbc952a919050565b8160ff166005036133e457507f2b94cf5e8746b3f5c9631f4c5df32907a699c58c94b2ad4d7b5cec1639183f55919050565b8160ff1660060361341657507f2dee93c5a666459646ea7d22cca9e1bcfed71e6951b953611d11dda32ea09d78919050565b8160ff1660070361344857507f078295e5a22b84e982cf601eb639597b8b0515a88cb5ac7fa8a4aabe3c87349d919050565b8160ff1660080361347a57507f2fa5e5f18f6027a6501bec864564472a616b2e274a41211a444cbe3a99f3cc61919050565b8160ff166009036134ac57507f0e884376d0d8fd21ecb780389e941f66e45e7acce3e228ab3e2156a614fcd747919050565b8160ff16600a036134de57507f1b7201da72494f1e28717ad1a52eb469f95892f957713533de6175e5da190af2919050565b8160ff16600b0361351057507f1f8d8822725e36385200c0b201249819a6e6e1e4650808b5bebc6bface7d7636919050565b8160ff16600c0361354257507f2c5d82f66c914bafb9701589ba8cfcfb6162b0a12acf88a8d0879a0471b5f85a919050565b8160ff16600d0361357457507f14c54148a0940bb820957f5adf3fa1134ef5c4aaa113f4646458f270e0bfbfd0919050565b8160ff16600e036135a657507f190d33b12f986f961e10c0ee44d8b9af11be25588cad89d416118e4bf4ebe80c919050565b8160ff16600f036135d857507f22f98aa9ce704152ac17354914ad73ed1167ae6596af510aa5b3649325e06c92919050565b8160ff1660100361360a57507f2a7c7c9b6ce5880b9f6f228d72bf6a575a526f29c66ecceef8b753d38bba7323919050565b8160ff1660110361363c57507f2e8186e558698ec1c67af9c14d463ffc470043c9c2988b954d75dd643f36b992919050565b8160ff1660120361366e57507f0f57c5571e9a4eab49e2c8cf050dae948aef6ead647392273546249d1c1ff10f919050565b8160ff166013036136a057507f1830ee67b5fb554ad5f63d4388800e1cfe78e310697d46e43c9ce36134f72cca919050565b8160ff166014036136d257507f2134e76ac5d21aab186c2be1dd8f84ee880a1e46eaf712f9d371b6df22191f3e919050565b8160ff1660150361370457507f19df90ec844ebc4ffeebd866f33859b0c051d8c958ee3aa88f8f8df3db91a5b1919050565b8160ff1660160361373657507f18cca2a66b5c0787981e69aefd84852d74af0e93ef4912b4648c05f722efe52b919050565b8160ff1660170361376857507f2388909415230d1b4d1304d2d54f473a628338f2efad83fadf05644549d2538d919050565b8160ff1660180361379a57507f27171fb4a97b6cc0e9e8f543b5294de866a2af2c9c8d0b1d96e673e4529ed540919050565b8160ff166019036137cc57507f2ff6650540f629fd5711a0bc74fc0d28dcb230b9392583e5f8d59696dde6ae21919050565b8160ff16601a036137fe57507f120c58f143d491e95902f7f5277778a2e0ad5168f6add75669932630ce611518919050565b8160ff16601b0361383057507f1f21feb70d3f21b07bf853d5e5db03071ec495a0a565a21da2d665d279483795919050565b8160ff16601c0361386257507f24be905fa71335e14c638cc0f66a8623a826e768068a9e968bb1a1dde18a72d2919050565b8160ff16601d0361389457507f0f8666b62ed17491c50ceadead57d4cd597ef3821d65c328744c74e553dac26d919050565b8160ff16601e036138c657507f0918d46bf52d98b034413f4a1a1c41594e7a7a3f6ae08cb43d1a2a230e1959ef919050565b8160ff16601f036138f857507f1bbeb01b4c479ecde76917645e404dfa2e26f90d0afc5a65128513ad375c5ff2919050565b8160ff166020036102b457507f2f68a1c58e257e42a17a6c61dff5551ed560b9922ab119d5ac8e184c9734ead9919050565b602060ff8316111561393b57600080fd5b60008364ffffffffff161161394f57600080fd5b600061395c6001856146a9565b9050600181166000036139b45784600101600061397a600084612ff1565b64ffffffffff16815260200190815260200160002054826000815181106139a3576139a3614539565b6020026020010181815250506139de565b6139be60006132d5565b826000815181106139d1576139d1614539565b6020026020010181815250505b60005b8360ff168160ff1610156126115760018216600003613ada5773__$078c82ddf6c95d34ea184ef1dd6130d136$__63561558fe6040518060400160405280868560ff1681518110613a3457613a34614539565b60200260200101518152602001613a4a856132d5565b8152506040518263ffffffff1660e01b8152600401613a699190614678565b602060405180830381865af4158015613a86573d6000803e3d6000fd5b505050506040513d601f19601f82011682018060405250810190613aaa9190614568565b83613ab6836001614642565b60ff1681518110613ac957613ac9614539565b602002602001018181525050613c94565b6000613ae7826001614642565b60ff168664ffffffffff16901c64ffffffffff16905060018364ffffffffff16901c64ffffffffff16811115613b8c576000876001016000613b40856001613b2f9190614642565b60018864ffffffffff16901c612ff1565b64ffffffffff1681526020019081526020016000205490508085846001613b679190614642565b60ff1681518110613b7a57613b7a614539565b60200260200101818152505050613c92565b6000876001016000613ba58560018861249591906146a9565b64ffffffffff16815260200190815260200160002054905073__$078c82ddf6c95d34ea184ef1dd6130d136$__63561558fe6040518060400160405280848152602001888760ff1681518110613bfd57613bfd614539565b60200260200101518152506040518263ffffffff1660e01b8152600401613c249190614678565b602060405180830381865af4158015613c41573d6000803e3d6000fd5b505050506040513d601f19601f82011682018060405250810190613c659190614568565b85613c71856001614642565b60ff1681518110613c8457613c84614539565b602002602001018181525050505b505b647fffffffff600192831c1691016139e1565b600183019183908215613d395791602002820160005b83821115613d0757833563ffffffff1683826101000a81548163ffffffff021916908363ffffffff1602179055509260200192600401602081600301049283019260010302613cbd565b8015613d375782816101000a81549063ffffffff0219169055600401602081600301049283019260010302613d07565b505b50613d45929150613d84565b5090565b828054828255906000526020600020908101928215613d39579160200282015b82811115613d39578251825591602001919060010190613d69565b5b80821115613d455760008155600101613d85565b600060208284031215613dab57600080fd5b81356001600160e01b031981168114612f8457600080fd5b6001600160a01b03811681146114d757600080fd5b600060208284031215613dea57600080fd5b8135612f8481613dc3565b600060208284031215613e0757600080fd5b5035919050565b60008083601f840112613e2057600080fd5b5081356001600160401b03811115613e3757600080fd5b602083019150836020828501011115613e4f57600080fd5b9250929050565b60008060008060008060008060a0898b031215613e7257600080fd5b8835975060208901356001600160401b03811115613e8f57600080fd5b613e9b8b828c01613e0e565b9098509650506040890135945060608901356001600160401b03811115613ec157600080fd5b613ecd8b828c01613e0e565b90955093505060808901356001600160401b03811115613eec57600080fd5b613ef88b828c01613e0e565b999c989b5096995094979396929594505050565b600081518084526020840193506020830160005b82811015613f475781516001600160a01b0316865260209586019590910190600101613f20565b5093949350505050565b600081518084526020840193506020830160005b82811015613f47578151865260209586019590910190600101613f65565b604081526000613f966040830185613f0c565b8281036020840152613fa88185613f51565b95945050505050565b600080600060808486031215613fc657600080fd5b833592506020840135915060808401851015613fe157600080fd5b6040840190509250925092565b6000806040838503121561400157600080fd5b82359150602083013561401381613dc3565b809150509250929050565b6001600160a01b0391909116815260200190565b60008060006060848603121561404757600080fd5b83359250602084013561405981613dc3565b929592945050506040919091013590565b602081526000612f846020830184613f0c565b6060815260006140906060830186613f51565b82810360208401526140a28186613f51565b905082810360408401526140b68185613f51565b9695505050505050565b600080604083850312156140d357600080fd5b82356140de81613dc3565b946020939093013593505050565b600080604083850312156140ff57600080fd5b50508035926020909101359150565b634e487b7160e01b600052601160045260246000fd5b6000816141335761413361410e565b506000190190565b64ffffffffff93841681526020810192909252909116604082015260600190565b634e487b7160e01b600052602160045260246000fd5b634e487b7160e01b600052604160045260246000fd5b6040516101e081016001600160401b03811182821017156141ab576141ab614172565b60405290565b604051601f8201601f191681016001600160401b03811182821017156141d9576141d9614172565b604052919050565b80516004811061234457600080fd5b600082601f83011261420157600080fd5b604080519081016001600160401b038111828210171561422357614223614172565b806040525080604084018581111561423a57600080fd5b845b8181101561425457805183526020928301920161423c565b509195945050505050565b805161234481613dc3565b805160ff8116811461234457600080fd5b600082601f83011261428c57600080fd5b81516001600160401b038111156142a5576142a5614172565b6142b8601f8201601f19166020016141b1565b8181528460208386010111156142cd57600080fd5b60005b828110156142ec576020818601810151838301820152016142d0565b506000918101602001919091529392505050565b8051801515811461234457600080fd5b60006020828403121561432257600080fd5b81516001600160401b0381111561433857600080fd5b8201610200818503121561434b57600080fd5b614353614188565b81518152614363602083016141e1565b60208201526040828101519082015261437f85606084016141f0565b606082015260a0820151608082015261439a60c0830161425f565b60a08201526143ab60e0830161426a565b60c08201526101008201516001600160401b038111156143ca57600080fd5b6143d68682850161427b565b60e0830152506143e9610120830161425f565b6101008201526143fc610140830161425f565b61012082015261016082810151610140830152610180830151908201526101a08201516001600160401b0381111561443357600080fd5b61443f8682850161427b565b610180830152506144536101c0830161425f565b6101a08201526144666101e08301614300565b6101c0820152949350505050565b918252602082015260400190565b6000815480845260208401935082600052602060002060005b82811015613f475781546001600160a01b031686526020909501946001918201910161449b565b81835281816020850137506000828201602090810191909152601f909101601f19169091010190565b6080815260006144fe6080830189614482565b828103602084015261451181888a6144c2565b9050856040840152828103606084015261452c8185876144c2565b9998505050505050505050565b634e487b7160e01b600052603260045260246000fd5b6000600182016145615761456161410e565b5060010190565b60006020828403121561457a57600080fd5b5051919050565b803563ffffffff8116811461234457600080fd5b6000602082840312156145a757600080fd5b612f8482614581565b808201808211156108285761082861410e565b84815260a08101602082018560005b60028110156145ff5763ffffffff6145e983614581565b16835260209283019291909101906001016145d2565b50505060608201939093526080015292915050565b60006020828403121561462657600080fd5b612f8482614300565b604081526000613f966040830185614482565b60ff81811683821601908111156108285761082861410e565b64ffffffffff81811683821601908111156108285761082861410e565b60408101818360005b60028110156146a0578151835260209283019290910190600101614681565b50505092915050565b64ffffffffff82811682821603908111156108285761082861410e565b80820281158282048414176108285761082861410e565b87815286602082015260c0604082015260006146fc60c0830188613f0c565b86606084015285608084015282810360a084015261471b8185876144c2565b9a9950505050505050505050565b818103818111156108285761082861410e565b60008261475957634e487b7160e01b600052601260045260246000fd5b500490565b6001815b60018411156116745780850481111561477d5761477d61410e565b600184161561478b57908102905b60019390931c928002614762565b6000826147a857506001610828565b816147b557506000610828565b81600181146147cb57600281146147d557614807565b6001915050610828565b60ff8411156147e6576147e661410e565b6001841b915064ffffffffff8211156148015761480161410e565b50610828565b5060208310610133831016604e8410600b841016171561483f575081810a64ffffffffff81111561483a5761483a61410e565b610828565b61484f64ffffffffff848461475e565b8064ffffffffff048211156148665761486661410e565b029392505050565b6000612f8464ffffffffff841664ffffffffff8416614799565b64ffffffffff81811683821602908116908181146148a8576148a861410e565b5092915050565b60018060a01b038816815286602082015285604082015260a0606082015260006148dd60a0830186886144c2565b828103608084015261471b8185876144c2565b60006001600160401b0382111561490957614909614172565b5060051b60200190565b600082601f83011261492457600080fd5b8151614937614932826148f0565b6141b1565b8082825260208201915060208360051b86010192508583111561495957600080fd5b602085015b8381101561497657805183526020928301920161495e565b5095945050505050565b60008060006060848603121561499557600080fd5b83516001600160401b038111156149ab57600080fd5b8401601f810186136149bc57600080fd5b80516149ca614932826148f0565b8082825260208201915060208360051b8501019250888311156149ec57600080fd5b6020840193505b82841015614a0e5783518252602093840193909101906149f3565b6020880151909650925050506001600160401b03811115614a2e57600080fd5b614a3a86828701614913565b604086015190935090506001600160401b03811115614a5857600080fd5b614a6486828701614913565b915050925092509256fe70d4f2aeee99318ec9b9950ac8942b1853f1271010f9afec7d5d51d16145eb8c69d0aaccd9fd7c013f79cb6049c6c097cf0c02dd6111daf1f7be30836a119a1bdd568bd039595fd4624b89bd697f998c689807d04c17303be9d1417adbdc056f30644e72e131a029b85045b68181585d2833e84879b9709143e1f593f0000001a164736f6c634300081c000a",
  "linkReferences": {
    "npm/poseidon-solidity@0.0.5/PoseidonT3.sol": {
      "PoseidonT3": [
        {
          "length": 20,
          "start": 9647
        },
        {
          "length": 20,
          "start": 9835
        },
        {
          "length": 20,
          "start": 10753
        },
        {
          "length": 20,
          "start": 15061
        },
        {
          "length": 20,
          "start": 15512
        }
      ]
    }
  },
  "deployedLinkReferences": {
    "npm/poseidon-solidity@0.0.5/PoseidonT3.sol": {
      "PoseidonT3": [
        {
          "length": 20,
          "start": 9430
        },
        {
          "length": 20,
          "start": 9618
        },
        {
          "length": 20,
          "start": 10536
        },
        {
          "length": 20,
          "start": 14844
        },
        {
          "length": 20,
          "start": 15295
        }
      ]
    }
  },
  "immutableReferences": {},
  "inputSourceName": "project/contracts/registry/CiphernodeRegistryOwnable.sol",
  "buildInfoId": "solc-0_8_28-4a1ab4524682ea3571c5165bfb08d5f4cb6afec8"
}