{
  "_format": "hh3-artifact-1",
  "contractName": "NaiveRegistryFilter",
  "sourceName": "contracts/registry/NaiveRegistryFilter.sol",
  "abi": [
    {
      "inputs": [
        {
          "internalType": "address",
          "name": "_owner",
          "type": "address"
        },
        {
          "internalType": "address",
          "name": "_registry",
          "type": "address"
        }
      ],
      "stateMutability": "nonpayable",
      "type": "constructor"
    },
    {
      "inputs": [
        {
          "internalType": "address",
          "name": "ciphernode",
          "type": "address"
        }
      ],
      "name": "CiphernodeNotEnabled",
      "type": "error"
    },
    {
      "inputs": [],
      "name": "CommitteeAlreadyExists",
      "type": "error"
    },
    {
      "inputs": [],
      "name": "CommitteeAlreadyPublished",
      "type": "error"
    },
    {
      "inputs": [],
      "name": "CommitteeDoesNotExist",
      "type": "error"
    },
    {
      "inputs": [],
      "name": "CommitteeNotPublished",
      "type": "error"
    },
    {
      "inputs": [],
      "name": "InvalidInitialization",
      "type": "error"
    },
    {
      "inputs": [],
      "name": "NotInitializing",
      "type": "error"
    },
    {
      "inputs": [],
      "name": "OnlyRegistry",
      "type": "error"
    },
    {
      "inputs": [
        {
          "internalType": "address",
          "name": "owner",
          "type": "address"
        }
      ],
      "name": "OwnableInvalidOwner",
      "type": "error"
    },
    {
      "inputs": [
        {
          "internalType": "address",
          "name": "account",
          "type": "address"
        }
      ],
      "name": "OwnableUnauthorizedAccount",
      "type": "error"
    },
    {
      "anonymous": false,
      "inputs": [
        {
          "indexed": false,
          "internalType": "uint64",
          "name": "version",
          "type": "uint64"
        }
      ],
      "name": "Initialized",
      "type": "event"
    },
    {
      "anonymous": false,
      "inputs": [
        {
          "indexed": true,
          "internalType": "address",
          "name": "previousOwner",
          "type": "address"
        },
        {
          "indexed": true,
          "internalType": "address",
          "name": "newOwner",
          "type": "address"
        }
      ],
      "name": "OwnershipTransferred",
      "type": "event"
    },
    {
      "inputs": [
        {
          "internalType": "uint256",
          "name": "e3",
          "type": "uint256"
        }
      ],
      "name": "committees",
      "outputs": [
        {
          "internalType": "bytes32",
          "name": "publicKey",
          "type": "bytes32"
        }
      ],
      "stateMutability": "view",
      "type": "function"
    },
    {
      "inputs": [
        {
          "internalType": "uint256",
          "name": "e3Id",
          "type": "uint256"
        }
      ],
      "name": "getCommittee",
      "outputs": [
        {
          "components": [
            {
              "internalType": "address[]",
              "name": "nodes",
              "type": "address[]"
            },
            {
              "internalType": "uint32[2]",
              "name": "threshold",
              "type": "uint32[2]"
            },
            {
              "internalType": "bytes32",
              "name": "publicKey",
              "type": "bytes32"
            }
          ],
          "internalType": "struct NaiveRegistryFilter.Committee",
          "name": "",
          "type": "tuple"
        }
      ],
      "stateMutability": "view",
      "type": "function"
    },
    {
      "inputs": [
        {
          "internalType": "address",
          "name": "_owner",
          "type": "address"
        },
        {
          "internalType": "address",
          "name": "_registry",
          "type": "address"
        }
      ],
      "name": "initialize",
      "outputs": [],
      "stateMutability": "nonpayable",
      "type": "function"
    },
    {
      "inputs": [],
      "name": "owner",
      "outputs": [
        {
          "internalType": "address",
          "name": "",
          "type": "address"
        }
      ],
      "stateMutability": "view",
      "type": "function"
    },
    {
      "inputs": [
        {
          "internalType": "uint256",
          "name": "e3Id",
          "type": "uint256"
        },
        {
          "internalType": "address[]",
          "name": "nodes",
          "type": "address[]"
        },
        {
          "internalType": "bytes",
          "name": "publicKey",
          "type": "bytes"
        }
      ],
      "name": "publishCommittee",
      "outputs": [],
      "stateMutability": "nonpayable",
      "type": "function"
    },
    {
      "inputs": [],
      "name": "registry",
      "outputs": [
        {
          "internalType": "address",
          "name": "",
          "type": "address"
        }
      ],
      "stateMutability": "view",
      "type": "function"
    },
    {
      "inputs": [],
      "name": "renounceOwnership",
      "outputs": [],
      "stateMutability": "nonpayable",
      "type": "function"
    },
    {
      "inputs": [
        {
          "internalType": "uint256",
          "name": "e3Id",
          "type": "uint256"
        },
        {
          "internalType": "uint32[2]",
          "name": "threshold",
          "type": "uint32[2]"
        }
      ],
      "name": "requestCommittee",
      "outputs": [
        {
          "internalType": "bool",
          "name": "success",
          "type": "bool"
        }
      ],
      "stateMutability": "nonpayable",
      "type": "function"
    },
    {
      "inputs": [
        {
          "internalType": "address",
          "name": "_registry",
          "type": "address"
        }
      ],
      "name": "setRegistry",
      "outputs": [],
      "stateMutability": "nonpayable",
      "type": "function"
    },
    {
      "inputs": [
        {
          "internalType": "address",
          "name": "newOwner",
          "type": "address"
        }
      ],
      "name": "transferOwnership",
      "outputs": [],
      "stateMutability": "nonpayable",
      "type": "function"
    }
  ],
  "bytecode": "0x608060405234801561000f575f5ffd5b50604051610f91380380610f9183398101604081905261002e916102f6565b610038828261003f565b5050610327565b5f516020610f715f395f51905f52805468010000000000000000810460ff1615906001600160401b03165f811580156100755750825b90505f826001600160401b031660011480156100905750303b155b90508115801561009e575080155b156100bc5760405163f92ee8a960e01b815260040160405180910390fd5b84546001600160401b031916600117855583156100ea57845460ff60401b1916680100000000000000001785555b6100f333610175565b6100fc86610189565b5f516020610f515f395f51905f52546001600160a01b0388811691161461012657610126876101b2565b831561016c57845460ff60401b19168555604051600181527fc7f505b2f371ae2175ee4913f4499e1f2633a7b5936321eed1cdaeb6115181d29060200160405180910390a15b50505050505050565b61017d6101f1565b6101868161022e565b50565b610191610236565b5f80546001600160a01b0319166001600160a01b0392909216919091179055565b6101ba610236565b6001600160a01b0381166101e857604051631e4fbdf760e01b81525f60048201526024015b60405180910390fd5b6101868161027e565b5f516020610f715f395f51905f525468010000000000000000900460ff1661022c57604051631afcd79f60e31b815260040160405180910390fd5b565b6101ba6101f1565b336102555f516020610f515f395f51905f52546001600160a01b031690565b6001600160a01b03161461022c5760405163118cdaa760e01b81523360048201526024016101df565b5f516020610f515f395f51905f5280546001600160a01b031981166001600160a01b03848116918217845560405192169182907f8be0079c531659141344cd1fd0a4f28419497f9722a3daafe3b4186f6b6457e0905f90a3505050565b80516001600160a01b03811681146102f1575f5ffd5b919050565b5f5f60408385031215610307575f5ffd5b610310836102db565b915061031e602084016102db565b90509250929050565b610c1d806103345f395ff3fe608060405234801561000f575f5ffd5b50600436106100b8575f3560e01c80637b10399911610072578063a91ee0dc11610058578063a91ee0dc14610192578063f2fde38b146101a5578063f5e820fd146101b8575f5ffd5b80637b103999146101385780638da5cb5b14610162575f5ffd5b80632b20a4f6116100a25780632b20a4f6146100fa578063485cc9551461011d578063715018a614610130575f5ffd5b806218449a146100bc57806329f73b9c146100e5575b5f5ffd5b6100cf6100ca3660046108e3565b6101e8565b6040516100dc91906108fa565b60405180910390f35b6100f86100f33660046109dc565b6102d3565b005b61010d610108366004610a87565b6103be565b60405190151581526020016100dc565b6100f861012b366004610ad2565b61044e565b6100f86105b7565b5f5461014a906001600160a01b031681565b6040516001600160a01b0390911681526020016100dc565b7f9016d09d72d40fdae2fd8ceac6b6234c7706214fd39c1cd1e609a0528c199300546001600160a01b031661014a565b6100f86101a0366004610b03565b6105ca565b6100f86101b3366004610b03565b610600565b6101da6101c63660046108e3565b60016020525f908152604090206002015481565b6040519081526020016100dc565b6101f0610781565b5f828152600160209081526040918290208251815460809381028201840190945260608101848152909391928492849184018282801561025757602002820191905f5260205f20905b81546001600160a01b03168152600190910190602001808311610239575b50505091835250506040805180820191829052602090920191906001840190600290825f855b82829054906101000a900463ffffffff1663ffffffff168152602001906004019060208260030104928301926001038202915080841161027d579050505050505081526020016002820154815250509050919050565b6102db610642565b5f85815260016020526040902060028101541561030b5760405163632a22bb60e01b815260040160405180910390fd5b6103168186866107a7565b508282604051610327929190610b23565b60405190819003812060028301555f546001600160a01b03169063d9bbec959088906103599089908990602001610b32565b60405160208183030381529060405286866040518563ffffffff1660e01b81526004016103899493929190610b7c565b5f604051808303815f87803b1580156103a0575f5ffd5b505af11580156103b2573d5f5f3e3d5ffd5b50505050505050505050565b5f80546001600160a01b031633146103e9576040516310f5403960e31b815260040160405180910390fd5b5f8381526001602081905260409091200154640100000000900463ffffffff1615610427576040516334c2a65d60e11b815260040160405180910390fd5b5f8381526001602081905260409091206104449101836002610815565b5060019392505050565b7ff0c57e16840df040f15088dc2f81fe391c3923bec73e23a9662efc9c229c6a00805468010000000000000000810460ff16159067ffffffffffffffff165f811580156104985750825b90505f8267ffffffffffffffff1660011480156104b45750303b155b9050811580156104c2575080155b156104e05760405163f92ee8a960e01b815260040160405180910390fd5b845467ffffffffffffffff19166001178555831561051457845468ff00000000000000001916680100000000000000001785555b61051d3361069d565b610526866105ca565b7f9016d09d72d40fdae2fd8ceac6b6234c7706214fd39c1cd1e609a0528c199300546001600160a01b038881169116146105635761056387610600565b83156105ae57845468ff000000000000000019168555604051600181527fc7f505b2f371ae2175ee4913f4499e1f2633a7b5936321eed1cdaeb6115181d29060200160405180910390a15b50505050505050565b6105bf610642565b6105c85f6106ae565b565b6105d2610642565b5f805473ffffffffffffffffffffffffffffffffffffffff19166001600160a01b0392909216919091179055565b610608610642565b6001600160a01b03811661063657604051631e4fbdf760e01b81525f60048201526024015b60405180910390fd5b61063f816106ae565b50565b336106747f9016d09d72d40fdae2fd8ceac6b6234c7706214fd39c1cd1e609a0528c199300546001600160a01b031690565b6001600160a01b0316146105c85760405163118cdaa760e01b815233600482015260240161062d565b6106a561072b565b61063f81610779565b7f9016d09d72d40fdae2fd8ceac6b6234c7706214fd39c1cd1e609a0528c199300805473ffffffffffffffffffffffffffffffffffffffff1981166001600160a01b03848116918217845560405192169182907f8be0079c531659141344cd1fd0a4f28419497f9722a3daafe3b4186f6b6457e0905f90a3505050565b7ff0c57e16840df040f15088dc2f81fe391c3923bec73e23a9662efc9c229c6a005468010000000000000000900460ff166105c857604051631afcd79f60e31b815260040160405180910390fd5b61060861072b565b60405180606001604052806060815260200161079b6108b1565b81526020015f81525090565b828054828255905f5260205f20908101928215610805579160200282015b8281111561080557815473ffffffffffffffffffffffffffffffffffffffff19166001600160a01b038435161782556020909201916001909101906107c5565b506108119291506108cf565b5090565b600183019183908215610805579160200282015f5b8382111561087457833563ffffffff1683826101000a81548163ffffffff021916908363ffffffff160217905550926020019260040160208160030104928301926001030261082a565b80156108a45782816101000a81549063ffffffff0219169055600401602081600301049283019260010302610874565b50506108119291506108cf565b60405180604001604052806002906020820280368337509192915050565b5b80821115610811575f81556001016108d0565b5f602082840312156108f3575f5ffd5b5035919050565b60208082528251608083830152805160a084018190525f929190910190829060c08501905b8083101561094b576001600160a01b03845116825260208201915060208401935060018301925061091f565b50602086015192506040850191505f5b600281101561098057835163ffffffff1683526020938401939092019160010161095b565b506040860151608086015280935050505092915050565b5f5f83601f8401126109a7575f5ffd5b50813567ffffffffffffffff8111156109be575f5ffd5b6020830191508360208285010111156109d5575f5ffd5b9250929050565b5f5f5f5f5f606086880312156109f0575f5ffd5b85359450602086013567ffffffffffffffff811115610a0d575f5ffd5b8601601f81018813610a1d575f5ffd5b803567ffffffffffffffff811115610a33575f5ffd5b8860208260051b8401011115610a47575f5ffd5b60209190910194509250604086013567ffffffffffffffff811115610a6a575f5ffd5b610a7688828901610997565b969995985093965092949392505050565b5f5f60608385031215610a98575f5ffd5b8235915060608301841015610aab575f5ffd5b50926020919091019150565b80356001600160a01b0381168114610acd575f5ffd5b919050565b5f5f60408385031215610ae3575f5ffd5b610aec83610ab7565b9150610afa60208401610ab7565b90509250929050565b5f60208284031215610b13575f5ffd5b610b1c82610ab7565b9392505050565b818382375f9101908152919050565b602080825281018290525f8360408301825b85811015610b72576001600160a01b03610b5d84610ab7565b16825260209283019290910190600101610b44565b5095945050505050565b848152606060208201525f84518060608401528060208701608085015e5f60808285010152601f19601f820116830190506080838203016040840152836080820152838560a08301375f60a0828601810191909152601f909401601f1916019092019594505050505056fea26469706673582212209cae0da68f48355c857d12fda7dedc1a308b96025595fea9c7f98c34a8d61ee664736f6c634300081b00339016d09d72d40fdae2fd8ceac6b6234c7706214fd39c1cd1e609a0528c199300f0c57e16840df040f15088dc2f81fe391c3923bec73e23a9662efc9c229c6a00",
  "linkReferences": {},
  "deployedLinkReferences": {},
  "immutableReferences": {},
  "inputSourceName": "project/contracts/registry/NaiveRegistryFilter.sol",
  "buildInfoId": "solc-0_8_27-97c5c59c2349d6c07bd9b7583fed40a5ace84d56"
}