{
  "_format": "hh3-artifact-1",
  "contractName": "NaiveRegistryFilter",
  "sourceName": "contracts/registry/NaiveRegistryFilter.sol",
  "abi": [
    {
      "inputs": [
        {
          "internalType": "address",
          "name": "_owner",
          "type": "address"
        },
        {
          "internalType": "address",
          "name": "_registry",
          "type": "address"
        }
      ],
      "stateMutability": "nonpayable",
      "type": "constructor"
    },
    {
      "inputs": [
        {
          "internalType": "address",
          "name": "ciphernode",
          "type": "address"
        }
      ],
      "name": "CiphernodeNotEnabled",
      "type": "error"
    },
    {
      "inputs": [],
      "name": "CommitteeAlreadyExists",
      "type": "error"
    },
    {
      "inputs": [],
      "name": "CommitteeAlreadyPublished",
      "type": "error"
    },
    {
      "inputs": [],
      "name": "CommitteeDoesNotExist",
      "type": "error"
    },
    {
      "inputs": [],
      "name": "CommitteeNotPublished",
      "type": "error"
    },
    {
      "inputs": [],
      "name": "InvalidInitialization",
      "type": "error"
    },
    {
      "inputs": [],
      "name": "NotInitializing",
      "type": "error"
    },
    {
      "inputs": [],
      "name": "OnlyRegistry",
      "type": "error"
    },
    {
      "inputs": [
        {
          "internalType": "address",
          "name": "owner",
          "type": "address"
        }
      ],
      "name": "OwnableInvalidOwner",
      "type": "error"
    },
    {
      "inputs": [
        {
          "internalType": "address",
          "name": "account",
          "type": "address"
        }
      ],
      "name": "OwnableUnauthorizedAccount",
      "type": "error"
    },
    {
      "anonymous": false,
      "inputs": [
        {
          "indexed": false,
          "internalType": "uint64",
          "name": "version",
          "type": "uint64"
        }
      ],
      "name": "Initialized",
      "type": "event"
    },
    {
      "anonymous": false,
      "inputs": [
        {
          "indexed": true,
          "internalType": "address",
          "name": "previousOwner",
          "type": "address"
        },
        {
          "indexed": true,
          "internalType": "address",
          "name": "newOwner",
          "type": "address"
        }
      ],
      "name": "OwnershipTransferred",
      "type": "event"
    },
    {
      "inputs": [
        {
          "internalType": "uint256",
          "name": "e3",
          "type": "uint256"
        }
      ],
      "name": "committees",
      "outputs": [
        {
          "internalType": "bytes32",
          "name": "publicKey",
          "type": "bytes32"
        }
      ],
      "stateMutability": "view",
      "type": "function"
    },
    {
      "inputs": [
        {
          "internalType": "uint256",
          "name": "e3Id",
          "type": "uint256"
        }
      ],
      "name": "getCommittee",
      "outputs": [
        {
          "components": [
            {
              "internalType": "address[]",
              "name": "nodes",
              "type": "address[]"
            },
            {
              "internalType": "uint32[2]",
              "name": "threshold",
              "type": "uint32[2]"
            },
            {
              "internalType": "bytes32",
              "name": "publicKey",
              "type": "bytes32"
            }
          ],
          "internalType": "struct NaiveRegistryFilter.Committee",
          "name": "",
          "type": "tuple"
        }
      ],
      "stateMutability": "view",
      "type": "function"
    },
    {
      "inputs": [
        {
          "internalType": "address",
          "name": "_owner",
          "type": "address"
        },
        {
          "internalType": "address",
          "name": "_registry",
          "type": "address"
        }
      ],
      "name": "initialize",
      "outputs": [],
      "stateMutability": "nonpayable",
      "type": "function"
    },
    {
      "inputs": [],
      "name": "owner",
      "outputs": [
        {
          "internalType": "address",
          "name": "",
          "type": "address"
        }
      ],
      "stateMutability": "view",
      "type": "function"
    },
    {
      "inputs": [
        {
          "internalType": "uint256",
          "name": "e3Id",
          "type": "uint256"
        },
        {
          "internalType": "address[]",
          "name": "nodes",
          "type": "address[]"
        },
        {
          "internalType": "bytes",
          "name": "publicKey",
          "type": "bytes"
        }
      ],
      "name": "publishCommittee",
      "outputs": [],
      "stateMutability": "nonpayable",
      "type": "function"
    },
    {
      "inputs": [],
      "name": "registry",
      "outputs": [
        {
          "internalType": "address",
          "name": "",
          "type": "address"
        }
      ],
      "stateMutability": "view",
      "type": "function"
    },
    {
      "inputs": [],
      "name": "renounceOwnership",
      "outputs": [],
      "stateMutability": "nonpayable",
      "type": "function"
    },
    {
      "inputs": [
        {
          "internalType": "uint256",
          "name": "e3Id",
          "type": "uint256"
        },
        {
          "internalType": "uint32[2]",
          "name": "threshold",
          "type": "uint32[2]"
        }
      ],
      "name": "requestCommittee",
      "outputs": [
        {
          "internalType": "bool",
          "name": "success",
          "type": "bool"
        }
      ],
      "stateMutability": "nonpayable",
      "type": "function"
    },
    {
      "inputs": [
        {
          "internalType": "address",
          "name": "_registry",
          "type": "address"
        }
      ],
      "name": "setRegistry",
      "outputs": [],
      "stateMutability": "nonpayable",
      "type": "function"
    },
    {
      "inputs": [
        {
          "internalType": "address",
          "name": "newOwner",
          "type": "address"
        }
      ],
      "name": "transferOwnership",
      "outputs": [],
      "stateMutability": "nonpayable",
      "type": "function"
    }
  ],
  "bytecode": "0x608060405234801561000f575f5ffd5b5060405161101638038061101683398101604081905261002e916102f6565b610038828261003f565b5050610327565b5f516020610ff65f395f51905f52805468010000000000000000810460ff1615906001600160401b03165f811580156100755750825b90505f826001600160401b031660011480156100905750303b155b90508115801561009e575080155b156100bc5760405163f92ee8a960e01b815260040160405180910390fd5b84546001600160401b031916600117855583156100ea57845460ff60401b1916680100000000000000001785555b6100f333610175565b6100fc86610189565b5f516020610fd65f395f51905f52546001600160a01b0388811691161461012657610126876101b2565b831561016c57845460ff60401b19168555604051600181527fc7f505b2f371ae2175ee4913f4499e1f2633a7b5936321eed1cdaeb6115181d29060200160405180910390a15b50505050505050565b61017d6101f1565b6101868161022e565b50565b610191610236565b5f80546001600160a01b0319166001600160a01b0392909216919091179055565b6101ba610236565b6001600160a01b0381166101e857604051631e4fbdf760e01b81525f60048201526024015b60405180910390fd5b6101868161027e565b5f516020610ff65f395f51905f525468010000000000000000900460ff1661022c57604051631afcd79f60e31b815260040160405180910390fd5b565b6101ba6101f1565b336102555f516020610fd65f395f51905f52546001600160a01b031690565b6001600160a01b03161461022c5760405163118cdaa760e01b81523360048201526024016101df565b5f516020610fd65f395f51905f5280546001600160a01b031981166001600160a01b03848116918217845560405192169182907f8be0079c531659141344cd1fd0a4f28419497f9722a3daafe3b4186f6b6457e0905f90a3505050565b80516001600160a01b03811681146102f1575f5ffd5b919050565b5f5f60408385031215610307575f5ffd5b610310836102db565b915061031e602084016102db565b90509250929050565b610ca2806103345f395ff3fe608060405234801561000f575f5ffd5b50600436106100b8575f3560e01c80637b10399911610072578063a91ee0dc11610058578063a91ee0dc14610192578063f2fde38b146101a5578063f5e820fd146101b8575f5ffd5b80637b103999146101385780638da5cb5b14610162575f5ffd5b80632b20a4f6116100a25780632b20a4f6146100fa578063485cc9551461011d578063715018a614610130575f5ffd5b806218449a146100bc57806329f73b9c146100e5575b5f5ffd5b6100cf6100ca3660046108db565b6101e8565b6040516100dc91906108f2565b60405180910390f35b6100f86100f3366004610a5b565b6102d3565b005b61010d610108366004610b3e565b6103b4565b60405190151581526020016100dc565b6100f861012b366004610b6e565b610444565b6100f86105ad565b5f5461014a906001600160a01b031681565b6040516001600160a01b0390911681526020016100dc565b7f9016d09d72d40fdae2fd8ceac6b6234c7706214fd39c1cd1e609a0528c199300546001600160a01b031661014a565b6100f86101a0366004610b9f565b6105c0565b6100f86101b3366004610b9f565b6105f6565b6101da6101c63660046108db565b60016020525f908152604090206002015481565b6040519081526020016100dc565b6101f0610777565b5f828152600160209081526040918290208251815460809381028201840190945260608101848152909391928492849184018282801561025757602002820191905f5260205f20905b81546001600160a01b03168152600190910190602001808311610239575b50505091835250506040805180820191829052602090920191906001840190600290825f855b82829054906101000a900463ffffffff1663ffffffff168152602001906004019060208260030104928301926001038202915080841161027d579050505050505081526020016002820154815250509050919050565b6102db610638565b5f83815260016020526040902060028101541561030b5760405163632a22bb60e01b815260040160405180910390fd5b825161031d908290602086019061079d565b50815160208084019190912060028301555f546040516001600160a01b039091169163d9bbec9591879161035391889101610bbf565b604051602081830303815290604052856040518463ffffffff1660e01b815260040161038193929190610c38565b5f604051808303815f87803b158015610398575f5ffd5b505af11580156103aa573d5f5f3e3d5ffd5b5050505050505050565b5f80546001600160a01b031633146103df576040516310f5403960e31b815260040160405180910390fd5b5f8381526001602081905260409091200154640100000000900463ffffffff161561041d576040516334c2a65d60e11b815260040160405180910390fd5b5f83815260016020819052604090912061043a910183600261080d565b5060019392505050565b7ff0c57e16840df040f15088dc2f81fe391c3923bec73e23a9662efc9c229c6a00805468010000000000000000810460ff16159067ffffffffffffffff165f8115801561048e5750825b90505f8267ffffffffffffffff1660011480156104aa5750303b155b9050811580156104b8575080155b156104d65760405163f92ee8a960e01b815260040160405180910390fd5b845467ffffffffffffffff19166001178555831561050a57845468ff00000000000000001916680100000000000000001785555b61051333610693565b61051c866105c0565b7f9016d09d72d40fdae2fd8ceac6b6234c7706214fd39c1cd1e609a0528c199300546001600160a01b0388811691161461055957610559876105f6565b83156105a457845468ff000000000000000019168555604051600181527fc7f505b2f371ae2175ee4913f4499e1f2633a7b5936321eed1cdaeb6115181d29060200160405180910390a15b50505050505050565b6105b5610638565b6105be5f6106a4565b565b6105c8610638565b5f805473ffffffffffffffffffffffffffffffffffffffff19166001600160a01b0392909216919091179055565b6105fe610638565b6001600160a01b03811661062c57604051631e4fbdf760e01b81525f60048201526024015b60405180910390fd5b610635816106a4565b50565b3361066a7f9016d09d72d40fdae2fd8ceac6b6234c7706214fd39c1cd1e609a0528c199300546001600160a01b031690565b6001600160a01b0316146105be5760405163118cdaa760e01b8152336004820152602401610623565b61069b610721565b6106358161076f565b7f9016d09d72d40fdae2fd8ceac6b6234c7706214fd39c1cd1e609a0528c199300805473ffffffffffffffffffffffffffffffffffffffff1981166001600160a01b03848116918217845560405192169182907f8be0079c531659141344cd1fd0a4f28419497f9722a3daafe3b4186f6b6457e0905f90a3505050565b7ff0c57e16840df040f15088dc2f81fe391c3923bec73e23a9662efc9c229c6a005468010000000000000000900460ff166105be57604051631afcd79f60e31b815260040160405180910390fd5b6105fe610721565b6040518060600160405280606081526020016107916108a9565b81526020015f81525090565b828054828255905f5260205f209081019282156107fd579160200282015b828111156107fd578251825473ffffffffffffffffffffffffffffffffffffffff19166001600160a01b039091161782556020909201916001909101906107bb565b506108099291506108c7565b5090565b6001830191839082156107fd579160200282015f5b8382111561086c57833563ffffffff1683826101000a81548163ffffffff021916908363ffffffff1602179055509260200192600401602081600301049283019260010302610822565b801561089c5782816101000a81549063ffffffff021916905560040160208160030104928301926001030261086c565b50506108099291506108c7565b60405180604001604052806002906020820280368337509192915050565b5b80821115610809575f81556001016108c8565b5f602082840312156108eb575f5ffd5b5035919050565b60208082528251608083830152805160a084018190525f929190910190829060c08501905b80831015610943576001600160a01b038451168252602082019150602084019350600183019250610917565b50602086015192506040850191505f5b600281101561097857835163ffffffff16835260209384019390920191600101610953565b506040860151608086015280935050505092915050565b634e487b7160e01b5f52604160045260245ffd5b604051601f8201601f1916810167ffffffffffffffff811182821017156109cc576109cc61098f565b604052919050565b80356001600160a01b03811681146109ea575f5ffd5b919050565b5f82601f8301126109fe575f5ffd5b813567ffffffffffffffff811115610a1857610a1861098f565b610a2b601f8201601f19166020016109a3565b818152846020838601011115610a3f575f5ffd5b816020850160208301375f918101602001919091529392505050565b5f5f5f60608486031215610a6d575f5ffd5b83359250602084013567ffffffffffffffff811115610a8a575f5ffd5b8401601f81018613610a9a575f5ffd5b803567ffffffffffffffff811115610ab457610ab461098f565b8060051b610ac4602082016109a3565b91825260208184018101929081019089841115610adf575f5ffd5b6020850194505b83851015610b0857610af7856109d4565b825260209485019490910190610ae6565b95505050506040850135905067ffffffffffffffff811115610b28575f5ffd5b610b34868287016109ef565b9150509250925092565b5f5f60608385031215610b4f575f5ffd5b8235915060608301841015610b62575f5ffd5b50926020919091019150565b5f5f60408385031215610b7f575f5ffd5b610b88836109d4565b9150610b96602084016109d4565b90509250929050565b5f60208284031215610baf575f5ffd5b610bb8826109d4565b9392505050565b602080825282518282018190525f918401906040840190835b81811015610bff5783516001600160a01b0316835260209384019390920191600101610bd8565b509095945050505050565b5f81518084528060208401602086015e5f602082860101526020601f19601f83011685010191505092915050565b838152606060208201525f610c506060830185610c0a565b8281036040840152610c628185610c0a565b969550505050505056fea264697066735822122068fdfe7cc2dabe1489d6e078852b41896b5861e2751c635ebac8bafdd7de81bf64736f6c634300081b00339016d09d72d40fdae2fd8ceac6b6234c7706214fd39c1cd1e609a0528c199300f0c57e16840df040f15088dc2f81fe391c3923bec73e23a9662efc9c229c6a00",
  "linkReferences": {},
  "deployedLinkReferences": {},
  "immutableReferences": {},
  "inputSourceName": "project/contracts/registry/NaiveRegistryFilter.sol",
  "buildInfoId": "solc-0_8_27-157031b2a056dc11b380d380e42831d0a7704b83"
}