{
  "address": "0xF9E3aeB059D699Ac4541625DE81062d6D8ad7e85",
  "abi": [
    {
      "inputs": [
        {
          "internalType": "address",
          "name": "_owner",
          "type": "address"
        },
        {
          "internalType": "address",
          "name": "_enclave",
          "type": "address"
        }
      ],
      "stateMutability": "nonpayable",
      "type": "constructor"
    },
    {
      "inputs": [],
      "name": "CommitteeAlreadyPublished",
      "type": "error"
    },
    {
      "inputs": [],
      "name": "CommitteeAlreadyRequested",
      "type": "error"
    },
    {
      "inputs": [],
      "name": "CommitteeDoesNotExist",
      "type": "error"
    },
    {
      "inputs": [],
      "name": "CommitteeNotPublished",
      "type": "error"
    },
    {
      "inputs": [
        {
          "internalType": "address",
          "name": "node",
          "type": "address"
        }
      ],
      "name": "CyphernodeNotEnabled",
      "type": "error"
    },
    {
      "inputs": [],
      "name": "InvalidInitialization",
      "type": "error"
    },
    {
      "inputs": [],
      "name": "NotInitializing",
      "type": "error"
    },
    {
      "inputs": [],
      "name": "OnlyEnclave",
      "type": "error"
    },
    {
      "inputs": [
        {
          "internalType": "address",
          "name": "owner",
          "type": "address"
        }
      ],
      "name": "OwnableInvalidOwner",
      "type": "error"
    },
    {
      "inputs": [
        {
          "internalType": "address",
          "name": "account",
          "type": "address"
        }
      ],
      "name": "OwnableUnauthorizedAccount",
      "type": "error"
    },
    {
      "anonymous": false,
      "inputs": [
        {
          "indexed": true,
          "internalType": "uint256",
          "name": "e3Id",
          "type": "uint256"
        },
        {
          "indexed": false,
          "internalType": "bytes",
          "name": "publicKey",
          "type": "bytes"
        }
      ],
      "name": "CommitteePublished",
      "type": "event"
    },
    {
      "anonymous": false,
      "inputs": [
        {
          "indexed": true,
          "internalType": "uint256",
          "name": "e3Id",
          "type": "uint256"
        },
        {
          "indexed": false,
          "internalType": "address",
          "name": "filter",
          "type": "address"
        },
        {
          "indexed": false,
          "internalType": "uint32[2]",
          "name": "threshold",
          "type": "uint32[2]"
        }
      ],
      "name": "CommitteeRequested",
      "type": "event"
    },
    {
      "anonymous": false,
      "inputs": [
        {
          "indexed": true,
          "internalType": "address",
          "name": "node",
          "type": "address"
        }
      ],
      "name": "CyphernodeAdded",
      "type": "event"
    },
    {
      "anonymous": false,
      "inputs": [
        {
          "indexed": true,
          "internalType": "address",
          "name": "node",
          "type": "address"
        }
      ],
      "name": "CyphernodeRemoved",
      "type": "event"
    },
    {
      "anonymous": false,
      "inputs": [
        {
          "indexed": true,
          "internalType": "address",
          "name": "enclave",
          "type": "address"
        }
      ],
      "name": "EnclaveSet",
      "type": "event"
    },
    {
      "anonymous": false,
      "inputs": [
        {
          "indexed": false,
          "internalType": "uint64",
          "name": "version",
          "type": "uint64"
        }
      ],
      "name": "Initialized",
      "type": "event"
    },
    {
      "anonymous": false,
      "inputs": [
        {
          "indexed": true,
          "internalType": "address",
          "name": "previousOwner",
          "type": "address"
        },
        {
          "indexed": true,
          "internalType": "address",
          "name": "newOwner",
          "type": "address"
        }
      ],
      "name": "OwnershipTransferred",
      "type": "event"
    },
    {
      "inputs": [
        {
          "internalType": "address",
          "name": "node",
          "type": "address"
        }
      ],
      "name": "addCyphernode",
      "outputs": [],
      "stateMutability": "nonpayable",
      "type": "function"
    },
    {
      "inputs": [
        {
          "internalType": "uint256",
          "name": "e3Id",
          "type": "uint256"
        }
      ],
      "name": "committeePublicKey",
      "outputs": [
        {
          "internalType": "bytes",
          "name": "publicKey",
          "type": "bytes"
        }
      ],
      "stateMutability": "view",
      "type": "function"
    },
    {
      "inputs": [],
      "name": "enclave",
      "outputs": [
        {
          "internalType": "address",
          "name": "",
          "type": "address"
        }
      ],
      "stateMutability": "view",
      "type": "function"
    },
    {
      "inputs": [
        {
          "internalType": "address",
          "name": "_owner",
          "type": "address"
        },
        {
          "internalType": "address",
          "name": "_enclave",
          "type": "address"
        }
      ],
      "name": "initialize",
      "outputs": [],
      "stateMutability": "nonpayable",
      "type": "function"
    },
    {
      "inputs": [
        {
          "internalType": "address",
          "name": "node",
          "type": "address"
        }
      ],
      "name": "isCyphernodeEligible",
      "outputs": [
        {
          "internalType": "bool",
          "name": "",
          "type": "bool"
        }
      ],
      "stateMutability": "view",
      "type": "function"
    },
    {
      "inputs": [
        {
          "internalType": "address",
          "name": "cyphernode",
          "type": "address"
        }
      ],
      "name": "isEnabled",
      "outputs": [
        {
          "internalType": "bool",
          "name": "isEnabled",
          "type": "bool"
        }
      ],
      "stateMutability": "view",
      "type": "function"
    },
    {
      "inputs": [],
      "name": "owner",
      "outputs": [
        {
          "internalType": "address",
          "name": "",
          "type": "address"
        }
      ],
      "stateMutability": "view",
      "type": "function"
    },
    {
      "inputs": [
        {
          "internalType": "uint256",
          "name": "e3Id",
          "type": "uint256"
        }
      ],
      "name": "publicKeys",
      "outputs": [
        {
          "internalType": "bytes",
          "name": "publicKey",
          "type": "bytes"
        }
      ],
      "stateMutability": "view",
      "type": "function"
    },
    {
      "inputs": [
        {
          "internalType": "uint256",
          "name": "e3Id",
          "type": "uint256"
        },
        {
          "internalType": "bytes",
          "name": "",
          "type": "bytes"
        },
        {
          "internalType": "bytes",
          "name": "publicKey",
          "type": "bytes"
        }
      ],
      "name": "publishCommittee",
      "outputs": [],
      "stateMutability": "nonpayable",
      "type": "function"
    },
    {
      "inputs": [
        {
          "internalType": "address",
          "name": "node",
          "type": "address"
        }
      ],
      "name": "removeCyphernode",
      "outputs": [],
      "stateMutability": "nonpayable",
      "type": "function"
    },
    {
      "inputs": [],
      "name": "renounceOwnership",
      "outputs": [],
      "stateMutability": "nonpayable",
      "type": "function"
    },
    {
      "inputs": [
        {
          "internalType": "uint256",
          "name": "e3Id",
          "type": "uint256"
        },
        {
          "internalType": "address",
          "name": "filter",
          "type": "address"
        },
        {
          "internalType": "uint32[2]",
          "name": "threshold",
          "type": "uint32[2]"
        }
      ],
      "name": "requestCommittee",
      "outputs": [
        {
          "internalType": "bool",
          "name": "success",
          "type": "bool"
        }
      ],
      "stateMutability": "nonpayable",
      "type": "function"
    },
    {
      "inputs": [
        {
          "internalType": "uint256",
          "name": "e3Id",
          "type": "uint256"
        }
      ],
      "name": "requests",
      "outputs": [
        {
          "internalType": "contract IRegistryFilter",
          "name": "filter",
          "type": "address"
        }
      ],
      "stateMutability": "view",
      "type": "function"
    },
    {
      "inputs": [
        {
          "internalType": "address",
          "name": "_enclave",
          "type": "address"
        }
      ],
      "name": "setEnclave",
      "outputs": [],
      "stateMutability": "nonpayable",
      "type": "function"
    },
    {
      "inputs": [
        {
          "internalType": "address",
          "name": "newOwner",
          "type": "address"
        }
      ],
      "name": "transferOwnership",
      "outputs": [],
      "stateMutability": "nonpayable",
      "type": "function"
    }
  ],
  "transactionHash": "0x52c081e0009793b5db42f4b17258c27a2a11c40c46df6fad4d183de612d68b43",
  "args": [
    "0x485E60C486671E932fd9C53d4110cdEab1E7F0eb",
    "0x083b0AE25fD41469Fd8857027B40e3f49A169375"
  ],
  "numDeployments": 1,
  "solcInputHash": "d0e6e4f19028714f394c36db62dff2be",
  "bytecode": "0x6080346101f957601f61105238819003918201601f19168301916001600160401b038311848410176101fe5780849260409485528339810103126101f957610052602061004b83610214565b9201610214565b60008051602061103283398151915254604081901c60ff16159290916001600160401b038316801590816101f1575b60011490816101e7575b1590816101de575b506101cd576001600160401b031983166001176000805160206110328339815191525561013292846101a2575b506100c96102b0565b6100d16102b0565b6100da33610228565b6100e26102de565b600080546001600160a01b0319166001600160a01b039290921691821781557f2c8267accd82e977550ed2349c73311183cd22e306347be4453c8d130995e3c99080a261012d6102de565b610228565b610146575b604051610d0b90816103278239f35b68ff0000000000000000196000805160206110328339815191525416600080516020611032833981519152557fc7f505b2f371ae2175ee4913f4499e1f2633a7b5936321eed1cdaeb6115181d2602060405160018152a1610137565b6001600160481b031916680100000000000000011760008051602061103283398151915255386100c0565b63f92ee8a960e01b60005260046000fd5b90501538610093565b303b15915061008b565b859150610081565b600080fd5b634e487b7160e01b600052604160045260246000fd5b51906001600160a01b03821682036101f957565b6001600160a01b0316801561029a577f9016d09d72d40fdae2fd8ceac6b6234c7706214fd39c1cd1e609a0528c19930080546001600160a01b0319811683179091556001600160a01b03167f8be0079c531659141344cd1fd0a4f28419497f9722a3daafe3b4186f6b6457e0600080a3565b631e4fbdf760e01b600052600060045260246000fd5b60ff6000805160206110328339815191525460401c16156102cd57565b631afcd79f60e31b60005260046000fd5b7f9016d09d72d40fdae2fd8ceac6b6234c7706214fd39c1cd1e609a0528c199300546001600160a01b0316330361031157565b63118cdaa760e01b6000523360045260246000fdfe608080604052600436101561001357600080fd5b60003560e01c9081632a8dc588146109b957508063476422f814610952578063485cc9551461074657806370e36bbe146106e3578063715018a61461064a578063770ad208146105e057806381d12c58146105ab5780638da5cb5b146105655780639015d371146105265780639ccb58d5146103cc578063c680f41014610394578063d9bbec9514610170578063dbb06c9314610149578063e82f3b70146100f45763f2fde38b146100c457600080fd5b346100ef5760203660031901126100ef576100ed6100e06109f4565b6100e8610c76565b610bd0565b005b600080fd5b346100ef5760203660031901126100ef57600435600052600360205261011d6040600020610a7c565b805115610138576101349060405191829182610b20565b0390f35b6322e679e360e11b60005260046000fd5b346100ef5760003660031901126100ef5760206001600160a01b0360005416604051908152f35b346100ef5760603660031901126100ef5760043560243567ffffffffffffffff81116100ef576101a4903690600401610b69565b505060443567ffffffffffffffff81116100ef576101c6903690600401610b69565b908260005260026020526001600160a01b0360406000205416330361038357826000526003602052604060002067ffffffffffffffff831161036d5761020c8154610a20565b601f8111610325575b506000601f841160011461029d5791604091847f8d0ca30515bbff1268ae5868080463444e5002373f7bc7d8d8869dca0a5ffc019594600091610292575b508460011b906000198660031b1c19161790555b82825193849260208452816020850152848401376000828201840152601f01601f19168101030190a2005b905082013587610253565b8181526020812090601f198516815b81811061030d57509160409391867f8d0ca30515bbff1268ae5868080463444e5002373f7bc7d8d8869dca0a5ffc01979694106102f3575b5050600184811b019055610267565b830135600019600387901b60f8161c1916905586806102e4565b919260206001819286890135815501940192016102ac565b816000526020600020601f850160051c81019160208610610363575b601f0160051c01905b8181106103575750610215565b6000815560010161034a565b9091508190610341565b634e487b7160e01b600052604160045260246000fd5b632a17a1f360e01b60005260046000fd5b346100ef5760203660031901126100ef5760043560005260036020526101346103c06040600020610a7c565b60405191829182610b20565b346100ef5760803660031901126100ef576004356103e8610a0a565b366084116100ef576001600160a01b03600054163303610515578160005260026020526001600160a01b0360406000205416610504576001600160a01b03168160005260026020526040600020816001600160a01b0319825416179055604051631590527b60e11b815282600482015261046460248201610b97565b6020816064816000865af180156104f8576104bd575b5060607fa17377d4a5c0ff5c67888a6b08d9bf3a8505b47e922b6186b259471ebf12738e916040519081526104b160208201610b97565ba2602060405160018152f35b6020813d6020116104f0575b816104d660209383610a5a565b810103126100ef575180151581036100ef5750606061047a565b3d91506104c9565b6040513d6000823e3d90fd5b6374ff462560e11b60005260046000fd5b63e4c2a7eb60e01b60005260046000fd5b346100ef5760203660031901126100ef576001600160a01b036105476109f4565b166000526001602052602060ff604060002054166040519015158152f35b346100ef5760003660031901126100ef5760206001600160a01b037f9016d09d72d40fdae2fd8ceac6b6234c7706214fd39c1cd1e609a0528c1993005416604051908152f35b346100ef5760203660031901126100ef57600435600052600260205260206001600160a01b0360406000205416604051908152f35b346100ef5760203660031901126100ef576001600160a01b036106016109f4565b610609610c76565b168060005260016020526040600020600160ff198254161790557f0fdc359cb937ddbe7734e324351ff282307ad333751a9e90f17e7330157ea579600080a2005b346100ef5760003660031901126100ef57610663610c76565b60006001600160a01b037f9016d09d72d40fdae2fd8ceac6b6234c7706214fd39c1cd1e609a0528c199300546001600160a01b031981167f9016d09d72d40fdae2fd8ceac6b6234c7706214fd39c1cd1e609a0528c19930055167f8be0079c531659141344cd1fd0a4f28419497f9722a3daafe3b4186f6b6457e08280a3005b346100ef5760203660031901126100ef576001600160a01b036107046109f4565b61070c610c76565b16806001600160a01b031960005416176000557f2c8267accd82e977550ed2349c73311183cd22e306347be4453c8d130995e3c9600080a2005b346100ef5760403660031901126100ef5761075f6109f4565b610767610a0a565b7ff0c57e16840df040f15088dc2f81fe391c3923bec73e23a9662efc9c229c6a00549160ff8360401c16159267ffffffffffffffff81168015908161094a575b6001149081610940575b159081610937575b506109265767ffffffffffffffff1981166001177ff0c57e16840df040f15088dc2f81fe391c3923bec73e23a9662efc9c229c6a0055610864926001600160a01b0391856108e7575b5061080b610cbe565b610813610cbe565b61081c33610bd0565b610824610c76565b16806001600160a01b031960005416176000557f2c8267accd82e977550ed2349c73311183cd22e306347be4453c8d130995e3c9600080a26100e8610c76565b61086a57005b68ff0000000000000000197ff0c57e16840df040f15088dc2f81fe391c3923bec73e23a9662efc9c229c6a0054167ff0c57e16840df040f15088dc2f81fe391c3923bec73e23a9662efc9c229c6a00557fc7f505b2f371ae2175ee4913f4499e1f2633a7b5936321eed1cdaeb6115181d2602060405160018152a1005b68ffffffffffffffffff191668010000000000000001177ff0c57e16840df040f15088dc2f81fe391c3923bec73e23a9662efc9c229c6a005585610802565b63f92ee8a960e01b60005260046000fd5b905015856107b9565b303b1591506107b1565b8591506107a7565b346100ef5760203660031901126100ef576001600160a01b036109736109f4565b61097b610c76565b16806000526001602052604060002060ff1981541690557f07f3f62f2502752da9299b12b0a9966cb97ace5e3ce476d04649d5f588ec4491600080a2005b346100ef5760203660031901126100ef576020906001600160a01b036109dd6109f4565b166000526001825260ff6040600020541615158152f35b600435906001600160a01b03821682036100ef57565b602435906001600160a01b03821682036100ef57565b90600182811c92168015610a50575b6020831014610a3a57565b634e487b7160e01b600052602260045260246000fd5b91607f1691610a2f565b90601f8019910116810190811067ffffffffffffffff82111761036d57604052565b9060405191826000825492610a9084610a20565b8084529360018116908115610afe5750600114610ab7575b50610ab592500383610a5a565b565b90506000929192526020600020906000915b818310610ae2575050906020610ab59282010138610aa8565b6020919350806001915483858901015201910190918492610ac9565b905060209250610ab594915060ff191682840152151560051b82010138610aa8565b91909160208152825180602083015260005b818110610b53575060409293506000838284010152601f8019910116010190565b8060208092870101516040828601015201610b32565b9181601f840112156100ef5782359167ffffffffffffffff83116100ef57602083818601950101116100ef57565b60446000915b60028310610baa57505050565b81359063ffffffff82168092036100ef5760208160019382935201920192019190610b9d565b6001600160a01b03168015610c60576001600160a01b037f9016d09d72d40fdae2fd8ceac6b6234c7706214fd39c1cd1e609a0528c19930054826001600160a01b03198216177f9016d09d72d40fdae2fd8ceac6b6234c7706214fd39c1cd1e609a0528c19930055167f8be0079c531659141344cd1fd0a4f28419497f9722a3daafe3b4186f6b6457e0600080a3565b631e4fbdf760e01b600052600060045260246000fd5b6001600160a01b037f9016d09d72d40fdae2fd8ceac6b6234c7706214fd39c1cd1e609a0528c19930054163303610ca957565b63118cdaa760e01b6000523360045260246000fd5b60ff7ff0c57e16840df040f15088dc2f81fe391c3923bec73e23a9662efc9c229c6a005460401c1615610ced57565b631afcd79f60e31b60005260046000fdfea164736f6c634300081a000af0c57e16840df040f15088dc2f81fe391c3923bec73e23a9662efc9c229c6a00",
  "devdoc": {
    "errors": {
      "InvalidInitialization()": [
        {
          "details": "The contract is already initialized."
        }
      ],
      "NotInitializing()": [
        {
          "details": "The contract is not initializing."
        }
      ],
      "OwnableInvalidOwner(address)": [
        {
          "details": "The owner is not a valid owner account. (eg. `address(0)`)"
        }
      ],
      "OwnableUnauthorizedAccount(address)": [
        {
          "details": "The caller account is not authorized to perform an operation."
        }
      ]
    },
    "events": {
      "CommitteePublished(uint256,bytes)": {
        "params": {
          "e3Id": "ID of the E3 for which the committee was selected.",
          "publicKey": "Public key of the committee."
        }
      },
      "CommitteeRequested(uint256,address,uint32[2])": {
        "params": {
          "e3Id": "ID of the E3 for which the committee was selected.",
          "filter": "Address of the contract that will coordinate committee selection.",
          "threshold": "The M/N threshold for the committee."
        }
      },
      "EnclaveSet(address)": {
        "params": {
          "enclave": "Address of the enclave contract."
        }
      },
      "Initialized(uint64)": {
        "details": "Triggered when the contract has been initialized or reinitialized."
      }
    },
    "kind": "dev",
    "methods": {
      "committeePublicKey(uint256)": {
        "details": "This function MUST revert if no committee has been requested for the given E3.This function MUST revert if the committee has not yet published a public key.",
        "params": {
          "e3Id": "ID of the E3 for which to get the committee public key."
        },
        "returns": {
          "publicKey": "The public key of the committee."
        }
      },
      "owner()": {
        "details": "Returns the address of the current owner."
      },
      "renounceOwnership()": {
        "details": "Leaves the contract without owner. It will not be possible to call `onlyOwner` functions. Can only be called by the current owner. NOTE: Renouncing ownership will leave the contract without an owner, thereby disabling any functionality that is only available to the owner."
      },
      "requestCommittee(uint256,address,uint32[2])": {
        "details": "This function MUST revert when not called by the Enclave contract.",
        "params": {
          "e3Id": "ID of the E3 for which to select the committee.",
          "filter": "The address of the filter responsible for the committee selection process.",
          "threshold": "The M/N threshold for the committee."
        },
        "returns": {
          "success": "True if committee selection was successfully initiated."
        }
      },
      "transferOwnership(address)": {
        "details": "Transfers ownership of the contract to a new account (`newOwner`). Can only be called by the current owner."
      }
    },
    "version": 1
  },
  "userdoc": {
    "events": {
      "CommitteePublished(uint256,bytes)": {
        "notice": "This event MUST be emitted when a committee is selected for an E3."
      },
      "CommitteeRequested(uint256,address,uint32[2])": {
        "notice": "This event MUST be emitted when a committee is selected for an E3."
      },
      "CyphernodeAdded(address)": {
        "notice": "This event MUST be emitted when a cyphernode is added to the registry."
      },
      "CyphernodeRemoved(address)": {
        "notice": "This event MUST be emitted when a cyphernode is removed from the registry."
      },
      "EnclaveSet(address)": {
        "notice": "This event MUST be emitted when `enclave` is set."
      }
    },
    "kind": "user",
    "methods": {
      "committeePublicKey(uint256)": {
        "notice": "This function should be called by the Enclave contract to get the public key of a committee."
      },
      "requestCommittee(uint256,address,uint32[2])": {
        "notice": "Initiates the committee selection process for a specified E3."
      }
    },
    "version": 1
  },
  "storageLayout": {
    "storage": [
      {
        "astId": 1860,
        "contract": "contracts/registry/CyphernodeRegistryOwnable.sol:CyphernodeRegistryOwnable",
        "label": "enclave",
        "offset": 0,
        "slot": "0",
        "type": "t_address"
      },
      {
        "astId": 1864,
        "contract": "contracts/registry/CyphernodeRegistryOwnable.sol:CyphernodeRegistryOwnable",
        "label": "isEnabled",
        "offset": 0,
        "slot": "1",
        "type": "t_mapping(t_address,t_bool)"
      },
      {
        "astId": 1869,
        "contract": "contracts/registry/CyphernodeRegistryOwnable.sol:CyphernodeRegistryOwnable",
        "label": "requests",
        "offset": 0,
        "slot": "2",
        "type": "t_mapping(t_uint256,t_contract(IRegistryFilter)1846)"
      },
      {
        "astId": 1873,
        "contract": "contracts/registry/CyphernodeRegistryOwnable.sol:CyphernodeRegistryOwnable",
        "label": "publicKeys",
        "offset": 0,
        "slot": "3",
        "type": "t_mapping(t_uint256,t_bytes_storage)"
      }
    ],
    "types": {
      "t_address": {
        "encoding": "inplace",
        "label": "address",
        "numberOfBytes": "20"
      },
      "t_bool": {
        "encoding": "inplace",
        "label": "bool",
        "numberOfBytes": "1"
      },
      "t_bytes_storage": {
        "encoding": "bytes",
        "label": "bytes",
        "numberOfBytes": "32"
      },
      "t_contract(IRegistryFilter)1846": {
        "encoding": "inplace",
        "label": "contract IRegistryFilter",
        "numberOfBytes": "20"
      },
      "t_mapping(t_address,t_bool)": {
        "encoding": "mapping",
        "key": "t_address",
        "label": "mapping(address => bool)",
        "numberOfBytes": "32",
        "value": "t_bool"
      },
      "t_mapping(t_uint256,t_bytes_storage)": {
        "encoding": "mapping",
        "key": "t_uint256",
        "label": "mapping(uint256 => bytes)",
        "numberOfBytes": "32",
        "value": "t_bytes_storage"
      },
      "t_mapping(t_uint256,t_contract(IRegistryFilter)1846)": {
        "encoding": "mapping",
        "key": "t_uint256",
        "label": "mapping(uint256 => contract IRegistryFilter)",
        "numberOfBytes": "32",
        "value": "t_contract(IRegistryFilter)1846"
      },
      "t_uint256": {
        "encoding": "inplace",
        "label": "uint256",
        "numberOfBytes": "32"
      }
    }
  }
}