{
  "address": "0x55eb3E7e3fFd6c5B7EF2C52c0744DC78aD26D2C9",
  "abi": [
    {
      "inputs": [
        {
          "internalType": "address",
          "name": "_owner",
          "type": "address"
        },
        {
          "internalType": "contract ICiphernodeRegistry",
          "name": "_ciphernodeRegistry",
          "type": "address"
        },
        {
          "internalType": "uint256",
          "name": "_maxDuration",
          "type": "uint256"
        }
      ],
      "stateMutability": "nonpayable",
      "type": "constructor"
    },
    {
      "inputs": [
        {
          "internalType": "uint256",
          "name": "e3Id",
          "type": "uint256"
        }
      ],
      "name": "CiphertextOutputAlreadyPublished",
      "type": "error"
    },
    {
      "inputs": [
        {
          "internalType": "uint256",
          "name": "e3Id",
          "type": "uint256"
        }
      ],
      "name": "CiphertextOutputNotPublished",
      "type": "error"
    },
    {
      "inputs": [],
      "name": "CommitteeSelectionFailed",
      "type": "error"
    },
    {
      "inputs": [
        {
          "internalType": "uint256",
          "name": "e3Id",
          "type": "uint256"
        }
      ],
      "name": "E3AlreadyActivated",
      "type": "error"
    },
    {
      "inputs": [
        {
          "internalType": "uint256",
          "name": "e3Id",
          "type": "uint256"
        }
      ],
      "name": "E3DoesNotExist",
      "type": "error"
    },
    {
      "inputs": [],
      "name": "E3Expired",
      "type": "error"
    },
    {
      "inputs": [
        {
          "internalType": "uint256",
          "name": "e3Id",
          "type": "uint256"
        }
      ],
      "name": "E3NotActivated",
      "type": "error"
    },
    {
      "inputs": [],
      "name": "E3NotReady",
      "type": "error"
    },
    {
      "inputs": [
        {
          "internalType": "contract IE3Program",
          "name": "e3Program",
          "type": "address"
        }
      ],
      "name": "E3ProgramNotAllowed",
      "type": "error"
    },
    {
      "inputs": [
        {
          "internalType": "uint256",
          "name": "e3Id",
          "type": "uint256"
        },
        {
          "internalType": "uint256",
          "name": "expiration",
          "type": "uint256"
        }
      ],
      "name": "InputDeadlineNotPassed",
      "type": "error"
    },
    {
      "inputs": [
        {
          "internalType": "uint256",
          "name": "e3Id",
          "type": "uint256"
        },
        {
          "internalType": "uint256",
          "name": "expiration",
          "type": "uint256"
        }
      ],
      "name": "InputDeadlinePassed",
      "type": "error"
    },
    {
      "inputs": [
        {
          "internalType": "contract ICiphernodeRegistry",
          "name": "ciphernodeRegistry",
          "type": "address"
        }
      ],
      "name": "InvalidCiphernodeRegistry",
      "type": "error"
    },
    {
      "inputs": [
        {
          "internalType": "contract IInputValidator",
          "name": "inputValidator",
          "type": "address"
        }
      ],
      "name": "InvalidComputationRequest",
      "type": "error"
    },
    {
      "inputs": [
        {
          "internalType": "uint256",
          "name": "duration",
          "type": "uint256"
        }
      ],
      "name": "InvalidDuration",
      "type": "error"
    },
    {
      "inputs": [
        {
          "internalType": "bytes32",
          "name": "encryptionSchemeId",
          "type": "bytes32"
        }
      ],
      "name": "InvalidEncryptionScheme",
      "type": "error"
    },
    {
      "inputs": [],
      "name": "InvalidInitialization",
      "type": "error"
    },
    {
      "inputs": [],
      "name": "InvalidInput",
      "type": "error"
    },
    {
      "inputs": [
        {
          "internalType": "bytes",
          "name": "output",
          "type": "bytes"
        }
      ],
      "name": "InvalidOutput",
      "type": "error"
    },
    {
      "inputs": [],
      "name": "InvalidStartWindow",
      "type": "error"
    },
    {
      "inputs": [
        {
          "internalType": "uint32[2]",
          "name": "threshold",
          "type": "uint32[2]"
        }
      ],
      "name": "InvalidThreshold",
      "type": "error"
    },
    {
      "inputs": [],
      "name": "LeafAlreadyExists",
      "type": "error"
    },
    {
      "inputs": [],
      "name": "LeafCannotBeZero",
      "type": "error"
    },
    {
      "inputs": [],
      "name": "LeafGreaterThanSnarkScalarField",
      "type": "error"
    },
    {
      "inputs": [
        {
          "internalType": "address",
          "name": "module",
          "type": "address"
        }
      ],
      "name": "ModuleAlreadyEnabled",
      "type": "error"
    },
    {
      "inputs": [
        {
          "internalType": "address",
          "name": "module",
          "type": "address"
        }
      ],
      "name": "ModuleNotEnabled",
      "type": "error"
    },
    {
      "inputs": [],
      "name": "NotInitializing",
      "type": "error"
    },
    {
      "inputs": [
        {
          "internalType": "address",
          "name": "owner",
          "type": "address"
        }
      ],
      "name": "OwnableInvalidOwner",
      "type": "error"
    },
    {
      "inputs": [
        {
          "internalType": "address",
          "name": "account",
          "type": "address"
        }
      ],
      "name": "OwnableUnauthorizedAccount",
      "type": "error"
    },
    {
      "inputs": [
        {
          "internalType": "uint256",
          "name": "value",
          "type": "uint256"
        }
      ],
      "name": "PaymentRequired",
      "type": "error"
    },
    {
      "inputs": [
        {
          "internalType": "uint256",
          "name": "e3Id",
          "type": "uint256"
        }
      ],
      "name": "PlaintextOutputAlreadyPublished",
      "type": "error"
    },
    {
      "anonymous": false,
      "inputs": [
        {
          "indexed": false,
          "internalType": "address",
          "name": "ciphernodeRegistry",
          "type": "address"
        }
      ],
      "name": "CiphernodeRegistrySet",
      "type": "event"
    },
    {
      "anonymous": false,
      "inputs": [
        {
          "indexed": true,
          "internalType": "uint256",
          "name": "e3Id",
          "type": "uint256"
        },
        {
          "indexed": false,
          "internalType": "bytes",
          "name": "ciphertextOutput",
          "type": "bytes"
        }
      ],
      "name": "CiphertextOutputPublished",
      "type": "event"
    },
    {
      "anonymous": false,
      "inputs": [
        {
          "indexed": false,
          "internalType": "uint256",
          "name": "e3Id",
          "type": "uint256"
        },
        {
          "indexed": false,
          "internalType": "uint256",
          "name": "expiration",
          "type": "uint256"
        },
        {
          "indexed": false,
          "internalType": "bytes",
          "name": "committeePublicKey",
          "type": "bytes"
        }
      ],
      "name": "E3Activated",
      "type": "event"
    },
    {
      "anonymous": false,
      "inputs": [
        {
          "indexed": false,
          "internalType": "contract IE3Program",
          "name": "e3Program",
          "type": "address"
        }
      ],
      "name": "E3ProgramDisabled",
      "type": "event"
    },
    {
      "anonymous": false,
      "inputs": [
        {
          "indexed": false,
          "internalType": "contract IE3Program",
          "name": "e3Program",
          "type": "address"
        }
      ],
      "name": "E3ProgramEnabled",
      "type": "event"
    },
    {
      "anonymous": false,
      "inputs": [
        {
          "indexed": false,
          "internalType": "uint256",
          "name": "e3Id",
          "type": "uint256"
        },
        {
          "components": [
            {
              "internalType": "uint256",
              "name": "seed",
              "type": "uint256"
            },
            {
              "internalType": "uint32[2]",
              "name": "threshold",
              "type": "uint32[2]"
            },
            {
              "internalType": "uint256",
              "name": "requestBlock",
              "type": "uint256"
            },
            {
              "internalType": "uint256[2]",
              "name": "startWindow",
              "type": "uint256[2]"
            },
            {
              "internalType": "uint256",
              "name": "duration",
              "type": "uint256"
            },
            {
              "internalType": "uint256",
              "name": "expiration",
              "type": "uint256"
            },
            {
              "internalType": "bytes32",
              "name": "encryptionSchemeId",
              "type": "bytes32"
            },
            {
              "internalType": "contract IE3Program",
              "name": "e3Program",
              "type": "address"
            },
            {
              "internalType": "bytes",
              "name": "e3ProgramParams",
              "type": "bytes"
            },
            {
              "internalType": "contract IInputValidator",
              "name": "inputValidator",
              "type": "address"
            },
            {
              "internalType": "contract IDecryptionVerifier",
              "name": "decryptionVerifier",
              "type": "address"
            },
            {
              "internalType": "bytes32",
              "name": "committeePublicKey",
              "type": "bytes32"
            },
            {
              "internalType": "bytes32",
              "name": "ciphertextOutput",
              "type": "bytes32"
            },
            {
              "internalType": "bytes",
              "name": "plaintextOutput",
              "type": "bytes"
            }
          ],
          "indexed": false,
          "internalType": "struct E3",
          "name": "e3",
          "type": "tuple"
        },
        {
          "indexed": false,
          "internalType": "address",
          "name": "filter",
          "type": "address"
        },
        {
          "indexed": true,
          "internalType": "contract IE3Program",
          "name": "e3Program",
          "type": "address"
        }
      ],
      "name": "E3Requested",
      "type": "event"
    },
    {
      "anonymous": false,
      "inputs": [
        {
          "indexed": false,
          "internalType": "bytes32",
          "name": "encryptionSchemeId",
          "type": "bytes32"
        }
      ],
      "name": "EncryptionSchemeDisabled",
      "type": "event"
    },
    {
      "anonymous": false,
      "inputs": [
        {
          "indexed": false,
          "internalType": "bytes32",
          "name": "encryptionSchemeId",
          "type": "bytes32"
        }
      ],
      "name": "EncryptionSchemeEnabled",
      "type": "event"
    },
    {
      "anonymous": false,
      "inputs": [
        {
          "indexed": false,
          "internalType": "uint64",
          "name": "version",
          "type": "uint64"
        }
      ],
      "name": "Initialized",
      "type": "event"
    },
    {
      "anonymous": false,
      "inputs": [
        {
          "indexed": true,
          "internalType": "uint256",
          "name": "e3Id",
          "type": "uint256"
        },
        {
          "indexed": false,
          "internalType": "bytes",
          "name": "data",
          "type": "bytes"
        },
        {
          "indexed": false,
          "internalType": "uint256",
          "name": "inputHash",
          "type": "uint256"
        },
        {
          "indexed": false,
          "internalType": "uint256",
          "name": "index",
          "type": "uint256"
        }
      ],
      "name": "InputPublished",
      "type": "event"
    },
    {
      "anonymous": false,
      "inputs": [
        {
          "indexed": false,
          "internalType": "uint256",
          "name": "maxDuration",
          "type": "uint256"
        }
      ],
      "name": "MaxDurationSet",
      "type": "event"
    },
    {
      "anonymous": false,
      "inputs": [
        {
          "indexed": true,
          "internalType": "address",
          "name": "previousOwner",
          "type": "address"
        },
        {
          "indexed": true,
          "internalType": "address",
          "name": "newOwner",
          "type": "address"
        }
      ],
      "name": "OwnershipTransferred",
      "type": "event"
    },
    {
      "anonymous": false,
      "inputs": [
        {
          "indexed": true,
          "internalType": "uint256",
          "name": "e3Id",
          "type": "uint256"
        },
        {
          "indexed": false,
          "internalType": "bytes",
          "name": "plaintextOutput",
          "type": "bytes"
        }
      ],
      "name": "PlaintextOutputPublished",
      "type": "event"
    },
    {
      "inputs": [
        {
          "internalType": "uint256",
          "name": "e3Id",
          "type": "uint256"
        },
        {
          "internalType": "bytes",
          "name": "publicKey",
          "type": "bytes"
        }
      ],
      "name": "activate",
      "outputs": [
        {
          "internalType": "bool",
          "name": "success",
          "type": "bool"
        }
      ],
      "stateMutability": "nonpayable",
      "type": "function"
    },
    {
      "inputs": [],
      "name": "ciphernodeRegistry",
      "outputs": [
        {
          "internalType": "contract ICiphernodeRegistry",
          "name": "",
          "type": "address"
        }
      ],
      "stateMutability": "view",
      "type": "function"
    },
    {
      "inputs": [
        {
          "internalType": "bytes32",
          "name": "encryptionSchemeId",
          "type": "bytes32"
        }
      ],
      "name": "decryptionVerifiers",
      "outputs": [
        {
          "internalType": "contract IDecryptionVerifier",
          "name": "decryptionVerifier",
          "type": "address"
        }
      ],
      "stateMutability": "view",
      "type": "function"
    },
    {
      "inputs": [
        {
          "internalType": "contract IE3Program",
          "name": "e3Program",
          "type": "address"
        }
      ],
      "name": "disableE3Program",
      "outputs": [
        {
          "internalType": "bool",
          "name": "success",
          "type": "bool"
        }
      ],
      "stateMutability": "nonpayable",
      "type": "function"
    },
    {
      "inputs": [
        {
          "internalType": "bytes32",
          "name": "encryptionSchemeId",
          "type": "bytes32"
        }
      ],
      "name": "disableEncryptionScheme",
      "outputs": [
        {
          "internalType": "bool",
          "name": "success",
          "type": "bool"
        }
      ],
      "stateMutability": "nonpayable",
      "type": "function"
    },
    {
      "inputs": [
        {
          "internalType": "contract IE3Program",
          "name": "e3Program",
          "type": "address"
        }
      ],
      "name": "e3Programs",
      "outputs": [
        {
          "internalType": "bool",
          "name": "allowed",
          "type": "bool"
        }
      ],
      "stateMutability": "view",
      "type": "function"
    },
    {
      "inputs": [
        {
          "internalType": "uint256",
          "name": "e3Id",
          "type": "uint256"
        }
      ],
      "name": "e3s",
      "outputs": [
        {
          "internalType": "uint256",
          "name": "seed",
          "type": "uint256"
        },
        {
          "internalType": "uint256",
          "name": "requestBlock",
          "type": "uint256"
        },
        {
          "internalType": "uint256",
          "name": "duration",
          "type": "uint256"
        },
        {
          "internalType": "uint256",
          "name": "expiration",
          "type": "uint256"
        },
        {
          "internalType": "bytes32",
          "name": "encryptionSchemeId",
          "type": "bytes32"
        },
        {
          "internalType": "contract IE3Program",
          "name": "e3Program",
          "type": "address"
        },
        {
          "internalType": "bytes",
          "name": "e3ProgramParams",
          "type": "bytes"
        },
        {
          "internalType": "contract IInputValidator",
          "name": "inputValidator",
          "type": "address"
        },
        {
          "internalType": "contract IDecryptionVerifier",
          "name": "decryptionVerifier",
          "type": "address"
        },
        {
          "internalType": "bytes32",
          "name": "committeePublicKey",
          "type": "bytes32"
        },
        {
          "internalType": "bytes32",
          "name": "ciphertextOutput",
          "type": "bytes32"
        },
        {
          "internalType": "bytes",
          "name": "plaintextOutput",
          "type": "bytes"
        }
      ],
      "stateMutability": "view",
      "type": "function"
    },
    {
      "inputs": [
        {
          "internalType": "contract IE3Program",
          "name": "e3Program",
          "type": "address"
        }
      ],
      "name": "enableE3Program",
      "outputs": [
        {
          "internalType": "bool",
          "name": "success",
          "type": "bool"
        }
      ],
      "stateMutability": "nonpayable",
      "type": "function"
    },
    {
      "inputs": [
        {
          "internalType": "bytes32",
          "name": "encryptionSchemeId",
          "type": "bytes32"
        }
      ],
      "name": "getDecryptionVerifier",
      "outputs": [
        {
          "internalType": "contract IDecryptionVerifier",
          "name": "",
          "type": "address"
        }
      ],
      "stateMutability": "view",
      "type": "function"
    },
    {
      "inputs": [
        {
          "internalType": "uint256",
          "name": "e3Id",
          "type": "uint256"
        }
      ],
      "name": "getE3",
      "outputs": [
        {
          "components": [
            {
              "internalType": "uint256",
              "name": "seed",
              "type": "uint256"
            },
            {
              "internalType": "uint32[2]",
              "name": "threshold",
              "type": "uint32[2]"
            },
            {
              "internalType": "uint256",
              "name": "requestBlock",
              "type": "uint256"
            },
            {
              "internalType": "uint256[2]",
              "name": "startWindow",
              "type": "uint256[2]"
            },
            {
              "internalType": "uint256",
              "name": "duration",
              "type": "uint256"
            },
            {
              "internalType": "uint256",
              "name": "expiration",
              "type": "uint256"
            },
            {
              "internalType": "bytes32",
              "name": "encryptionSchemeId",
              "type": "bytes32"
            },
            {
              "internalType": "contract IE3Program",
              "name": "e3Program",
              "type": "address"
            },
            {
              "internalType": "bytes",
              "name": "e3ProgramParams",
              "type": "bytes"
            },
            {
              "internalType": "contract IInputValidator",
              "name": "inputValidator",
              "type": "address"
            },
            {
              "internalType": "contract IDecryptionVerifier",
              "name": "decryptionVerifier",
              "type": "address"
            },
            {
              "internalType": "bytes32",
              "name": "committeePublicKey",
              "type": "bytes32"
            },
            {
              "internalType": "bytes32",
              "name": "ciphertextOutput",
              "type": "bytes32"
            },
            {
              "internalType": "bytes",
              "name": "plaintextOutput",
              "type": "bytes"
            }
          ],
          "internalType": "struct E3",
          "name": "e3",
          "type": "tuple"
        }
      ],
      "stateMutability": "view",
      "type": "function"
    },
    {
      "inputs": [
        {
          "internalType": "uint256",
          "name": "e3Id",
          "type": "uint256"
        }
      ],
      "name": "getInputRoot",
      "outputs": [
        {
          "internalType": "uint256",
          "name": "",
          "type": "uint256"
        }
      ],
      "stateMutability": "view",
      "type": "function"
    },
    {
      "inputs": [
        {
          "internalType": "address",
          "name": "_owner",
          "type": "address"
        },
        {
          "internalType": "contract ICiphernodeRegistry",
          "name": "_ciphernodeRegistry",
          "type": "address"
        },
        {
          "internalType": "uint256",
          "name": "_maxDuration",
          "type": "uint256"
        }
      ],
      "name": "initialize",
      "outputs": [],
      "stateMutability": "nonpayable",
      "type": "function"
    },
    {
      "inputs": [
        {
          "internalType": "uint256",
          "name": "e3Id",
          "type": "uint256"
        }
      ],
      "name": "inputCounts",
      "outputs": [
        {
          "internalType": "uint256",
          "name": "inputCount",
          "type": "uint256"
        }
      ],
      "stateMutability": "view",
      "type": "function"
    },
    {
      "inputs": [
        {
          "internalType": "uint256",
          "name": "e3Id",
          "type": "uint256"
        }
      ],
      "name": "inputs",
      "outputs": [
        {
          "internalType": "uint256",
          "name": "size",
          "type": "uint256"
        },
        {
          "internalType": "uint256",
          "name": "depth",
          "type": "uint256"
        }
      ],
      "stateMutability": "view",
      "type": "function"
    },
    {
      "inputs": [],
      "name": "maxDuration",
      "outputs": [
        {
          "internalType": "uint256",
          "name": "",
          "type": "uint256"
        }
      ],
      "stateMutability": "view",
      "type": "function"
    },
    {
      "inputs": [],
      "name": "nexte3Id",
      "outputs": [
        {
          "internalType": "uint256",
          "name": "",
          "type": "uint256"
        }
      ],
      "stateMutability": "view",
      "type": "function"
    },
    {
      "inputs": [],
      "name": "owner",
      "outputs": [
        {
          "internalType": "address",
          "name": "",
          "type": "address"
        }
      ],
      "stateMutability": "view",
      "type": "function"
    },
    {
      "inputs": [
        {
          "internalType": "uint256",
          "name": "e3Id",
          "type": "uint256"
        },
        {
          "internalType": "bytes",
          "name": "ciphertextOutput",
          "type": "bytes"
        },
        {
          "internalType": "bytes",
          "name": "proof",
          "type": "bytes"
        }
      ],
      "name": "publishCiphertextOutput",
      "outputs": [
        {
          "internalType": "bool",
          "name": "success",
          "type": "bool"
        }
      ],
      "stateMutability": "nonpayable",
      "type": "function"
    },
    {
      "inputs": [
        {
          "internalType": "uint256",
          "name": "e3Id",
          "type": "uint256"
        },
        {
          "internalType": "bytes",
          "name": "data",
          "type": "bytes"
        }
      ],
      "name": "publishInput",
      "outputs": [
        {
          "internalType": "bool",
          "name": "success",
          "type": "bool"
        }
      ],
      "stateMutability": "nonpayable",
      "type": "function"
    },
    {
      "inputs": [
        {
          "internalType": "uint256",
          "name": "e3Id",
          "type": "uint256"
        },
        {
          "internalType": "bytes",
          "name": "plaintextOutput",
          "type": "bytes"
        },
        {
          "internalType": "bytes",
          "name": "proof",
          "type": "bytes"
        }
      ],
      "name": "publishPlaintextOutput",
      "outputs": [
        {
          "internalType": "bool",
          "name": "success",
          "type": "bool"
        }
      ],
      "stateMutability": "nonpayable",
      "type": "function"
    },
    {
      "inputs": [],
      "name": "renounceOwnership",
      "outputs": [],
      "stateMutability": "nonpayable",
      "type": "function"
    },
    {
      "inputs": [
        {
          "internalType": "address",
          "name": "filter",
          "type": "address"
        },
        {
          "internalType": "uint32[2]",
          "name": "threshold",
          "type": "uint32[2]"
        },
        {
          "internalType": "uint256[2]",
          "name": "startWindow",
          "type": "uint256[2]"
        },
        {
          "internalType": "uint256",
          "name": "duration",
          "type": "uint256"
        },
        {
          "internalType": "contract IE3Program",
          "name": "e3Program",
          "type": "address"
        },
        {
          "internalType": "bytes",
          "name": "e3ProgramParams",
          "type": "bytes"
        },
        {
          "internalType": "bytes",
          "name": "computeProviderParams",
          "type": "bytes"
        }
      ],
      "name": "request",
      "outputs": [
        {
          "internalType": "uint256",
          "name": "e3Id",
          "type": "uint256"
        },
        {
          "components": [
            {
              "internalType": "uint256",
              "name": "seed",
              "type": "uint256"
            },
            {
              "internalType": "uint32[2]",
              "name": "threshold",
              "type": "uint32[2]"
            },
            {
              "internalType": "uint256",
              "name": "requestBlock",
              "type": "uint256"
            },
            {
              "internalType": "uint256[2]",
              "name": "startWindow",
              "type": "uint256[2]"
            },
            {
              "internalType": "uint256",
              "name": "duration",
              "type": "uint256"
            },
            {
              "internalType": "uint256",
              "name": "expiration",
              "type": "uint256"
            },
            {
              "internalType": "bytes32",
              "name": "encryptionSchemeId",
              "type": "bytes32"
            },
            {
              "internalType": "contract IE3Program",
              "name": "e3Program",
              "type": "address"
            },
            {
              "internalType": "bytes",
              "name": "e3ProgramParams",
              "type": "bytes"
            },
            {
              "internalType": "contract IInputValidator",
              "name": "inputValidator",
              "type": "address"
            },
            {
              "internalType": "contract IDecryptionVerifier",
              "name": "decryptionVerifier",
              "type": "address"
            },
            {
              "internalType": "bytes32",
              "name": "committeePublicKey",
              "type": "bytes32"
            },
            {
              "internalType": "bytes32",
              "name": "ciphertextOutput",
              "type": "bytes32"
            },
            {
              "internalType": "bytes",
              "name": "plaintextOutput",
              "type": "bytes"
            }
          ],
          "internalType": "struct E3",
          "name": "e3",
          "type": "tuple"
        }
      ],
      "stateMutability": "payable",
      "type": "function"
    },
    {
      "inputs": [],
      "name": "requests",
      "outputs": [
        {
          "internalType": "uint256",
          "name": "",
          "type": "uint256"
        }
      ],
      "stateMutability": "view",
      "type": "function"
    },
    {
      "inputs": [
        {
          "internalType": "contract ICiphernodeRegistry",
          "name": "_ciphernodeRegistry",
          "type": "address"
        }
      ],
      "name": "setCiphernodeRegistry",
      "outputs": [
        {
          "internalType": "bool",
          "name": "success",
          "type": "bool"
        }
      ],
      "stateMutability": "nonpayable",
      "type": "function"
    },
    {
      "inputs": [
        {
          "internalType": "bytes32",
          "name": "encryptionSchemeId",
          "type": "bytes32"
        },
        {
          "internalType": "contract IDecryptionVerifier",
          "name": "decryptionVerifier",
          "type": "address"
        }
      ],
      "name": "setDecryptionVerifier",
      "outputs": [
        {
          "internalType": "bool",
          "name": "success",
          "type": "bool"
        }
      ],
      "stateMutability": "nonpayable",
      "type": "function"
    },
    {
      "inputs": [
        {
          "internalType": "uint256",
          "name": "_maxDuration",
          "type": "uint256"
        }
      ],
      "name": "setMaxDuration",
      "outputs": [
        {
          "internalType": "bool",
          "name": "success",
          "type": "bool"
        }
      ],
      "stateMutability": "nonpayable",
      "type": "function"
    },
    {
      "inputs": [
        {
          "internalType": "address",
          "name": "newOwner",
          "type": "address"
        }
      ],
      "name": "transferOwnership",
      "outputs": [],
      "stateMutability": "nonpayable",
      "type": "function"
    }
  ],
  "transactionHash": "0xebc4f5263c91ed286bc907a82a642ee1c93cc7b86d36a75196317010ec695309",
  "args": [
    "0x8837e47c4Bb520ADE83AAB761C3B60679443af1B",
    "0x0000000000000000000000000000000000000001",
    2592000
  ],
  "numDeployments": 2,
  "solcInputHash": "af1a33d80136fdacbd4916512487a8ab",
  "bytecode": "0x6080346102a457601f61284638819003918201601f19168301916001600160401b038311848410176102a9578084926060946040528339810103126102a45780516001600160a01b0381168082036102a45760208301516001600160a01b03811693908490036102a457604090810151600080516020612826833981519152549182901c60ff161594916001600160401b0381168015908161029c575b6001149081610292575b159081610289575b50610278576001600160401b03198116600117600080516020612826833981519152557fba0716ba1ee2ea8ecc4c64119b4537cdb42a99d82acf92af5b87607b8b523552916020918761024d575b50610105610335565b61010d610335565b610116336102bf565b61011e610363565b80600155604051908152a1610131610363565b80151580610238575b1561022457600080546001600160a01b031916821790556040519081527f80052b810d39120cf6c976cca504a21703f585521dc7a41c6d241090e6c579b690602090a1600080516020612806833981519152546001600160a01b03160361020d575b506101b1575b60405161246c908161039a8239f35b68ff0000000000000000196000805160206128268339815191525416600080516020612826833981519152557fc7f505b2f371ae2175ee4913f4499e1f2633a7b5936321eed1cdaeb6115181d2602060405160018152a16101a2565b61021e90610219610363565b6102bf565b3861019c565b6375ac4eb760e11b60005260045260246000fd5b506000546001600160a01b031681141561013a565b6001600160481b031916680100000000000000011760008051602061282683398151915255386100fc565b63f92ee8a960e01b60005260046000fd5b905015386100ae565b303b1591506100a6565b87915061009c565b600080fd5b634e487b7160e01b600052604160045260246000fd5b6001600160a01b0316801561031f5760008051602061280683398151915280546001600160a01b0319811683179091556001600160a01b03167f8be0079c531659141344cd1fd0a4f28419497f9722a3daafe3b4186f6b6457e0600080a3565b631e4fbdf760e01b600052600060045260246000fd5b60ff6000805160206128268339815191525460401c161561035257565b631afcd79f60e31b60005260046000fd5b600080516020612806833981519152546001600160a01b0316330361038457565b63118cdaa760e01b6000523360045260246000fdfe6080604052600436101561001257600080fd5b60003560e01c80630e092fc314611b405780630ef81b2f14611b0b57806310bc628114611b0b5780631794bb3c146118e55780634017daf0146117f8578063406ed35c146117c55780634e92ec63146117375780634fc77264146116975780635314e9fa1461150d5780636db5c8fd146114ef578063715018a6146114565780637edcd7ab146111fd5780638da5cb5b146111b75780638dcdd86b1461119057806393b58f861461099b5780639c8570c814610828578063b3c88d67146107fc578063b74cb2db146107de578063c4ccafa21461079f578063cb64961714610781578063cbd16872146106c8578063cf0f34c4146106aa578063d016b08d14610279578063ddef9ea114610244578063f2fde38b14610219578063fad8e111146101ec5763fd2f3d011461014557600080fd5b346101e75760203660031901126101e7576001600160a01b03610166611ba5565b61016e6123d7565b1680600052600460205260ff604060002054166101d3576020817fb8d368517268f297fff00825d67d098763117d061360d31027be5b2e1a59d46792600052600482526040600020600160ff19825416179055604051908152a1602060405160018152f35b63b29d459560e01b60005260045260246000fd5b600080fd5b346101e75760203660031901126101e757602061020f61020a611ba5565b61234c565b6040519015158152f35b346101e75760203660031901126101e757610242610235611ba5565b61023d6123d7565b6122a6565b005b346101e75760203660031901126101e75760043560005260066020526040806000206001815491015482519182526020820152f35b346101e75761028736611ec0565b61029082611fea565b60a081016102a1848251151561213a565b514281111561069257506102ec6000926001600160a01b0361012085940151169060405194858094819363caf9278560e01b8352336004840152604060248401526044830190611d17565b03925af180156105915760009061060d575b61035a9150733333333C0A88F9BE4fd23ed0536F9B6c427e3B93602060405161032681611c12565b835182850120815285600052600782526040600020548282015260405180958192632b0aac7f60e11b835260048301612278565b0381845af4928315610591576000936105d9575b508360005260076020526040600020610387815461222d565b905560008481526006602052604090207f30644e72e131a029b85045b68181585d2833e84879b9709143e1f593f000000184106103cf576361c0541760e11b60005260046000fd5b836103e5576314b48df160e11b60005260046000fd5b83600052600381016020526040600020546105c857805491600182019283549360ff85116104d257600182018083116104d2576001861b106105b8575b84905585916000905b8582106104e8575050906104416003939261222d565b938483556000526002820160205260406000205584600052016020526040600020558260005260076020526040600020549060001982019182116104d2577f7555a0b1b87fe36304326aed23f5c78102b63922b1141f8df7d4593eff2021dd926104b992604051938493606085526060850190611d17565b91602084015260408301520390a2602060405160018152f35b634e487b7160e01b600052601160045260246000fd5b909260018084861c161460001461059d57602061053c916040519061050c82611c12565b8660005260028801835260406000205482528282015260405180938192632b0aac7f60e11b835260048301612278565b0381855af480156105915760009061055c575b60019150935b019061042b565b6020823d8211610589575b8161057460209383611c2e565b8101031261058657506001905161054f565b80fd5b3d9150610567565b6040513d6000823e3d90fd5b92806001916000526002860160205284604060002055610555565b936105c29061222d565b93610422565b6312c50cad60e11b60005260046000fd5b90926020823d602011610605575b816105f460209383611c2e565b81010312610586575051918461036e565b3d91506105e7565b3d8082843e61061c8184611c2e565b82019160208184031261068a5780519067ffffffffffffffff821161068e570182601f8201121561068a5780519161065383611e5d565b936106616040519586611c2e565b83855260208484010111610586575082916106859160208061035a96019101611cf4565b6102fe565b5080fd5b8280fd5b8363142c294360e31b60005260045260245260446000fd5b346101e75760203660031901126101e757602061020f60043561223c565b346101e75760403660031901126101e7576004356024356001600160a01b0381168091036101e7577ff4041a3f914dac3bc9bf5f003ba41f28dbb84abe42f4e07c76266f5c8ceecb699160209161071d6123d7565b801515828161075f575b6107309161211e565b81600052600883526040600020906001600160a01b0319825416179055604051908152a1602060405160018152f35b60009081526008855260409020546001600160a01b0316821415905082610727565b346101e75760003660031901126101e7576020600254604051908152f35b346101e75760203660031901126101e7576001600160a01b036107c0611ba5565b166000526004602052602060ff604060002054166040519015158152f35b346101e75760003660031901126101e7576020600354604051908152f35b346101e75760203660031901126101e75760043560005260076020526020604060002054604051908152f35b346101e75761083636611ef0565b9161084081611fea565b9160a08301610852838251151561213a565b51428111610983575061018083015161096e5760206108a06000956001600160a01b0360e08551858701209701511690604051978880948193632f0e1bbf60e01b83528a8a6004850161216e565b03925af192831561059157602094600094610917575b508161090a916108e77f7cc27e4a5626cbc4f8ba1a927b0448de55e6a114bc87660331270c5109ade071948761218a565b8460005260058752600d6040600020015560405191829187835287830190611d17565b0390a26040519015158152f35b61090a9194509161095e7f7cc27e4a5626cbc4f8ba1a927b0448de55e6a114bc87660331270c5109ade07193873d8911610967575b6109568183611c2e565b810190612156565b949150916108b6565b503d61094c565b50637eb9cea960e11b60005260045260246000fd5b826370c05fb960e11b60005260045260245260446000fd5b6101203660031901126101e7576109b0611ba5565b366064116101e7573660a4116101e75760a43560c435916001600160a01b03831683036101e75760e43567ffffffffffffffff81116101e7576109f7903690600401611e79565b906101043567ffffffffffffffff81116101e757610a19903690600401611e79565b90610a22611f5b565b50341561117b5760443563ffffffff8116908181036101e7575063ffffffff610a496121d2565b16111580611165575b1561114757608435606435811015908161113c575b501561112b578315158061111f575b1561110a576001600160a01b038516600052600460205260ff60406000205416156110ec57610b149060025493610aac8561222d565b6002556040805160208101904482528783820152828152610ace606082611c2e565b5190209481518095819263530ebf1f60e11b835289600484015288602484015260806044840152610b026084840187611d17565b83810360031901606485015290611d17565b038160006001600160a01b038c165af190811561059157600093849261109b575b506000848152600860205260409020546001600160a01b0390811692610b5d8685151561211e565b169081156110865760405195610b7287611bf5565b8652604094855198610b84878b611c2e565b6000996024815b6064821061106e575050602089015243878901528651610bab8882611c2e565b6064815b60a4821061105e575050606089015260808801528860a088015260c08701526001600160a01b03891660e087015261010086015261012085015261014084015284610160840152846101808401526020948251610c0c8782611c2e565b8181526101a0850152848152600586528281208451815560208501518290835b89600282106110365750505060018201558385015160028201556060850151825b600281106110215750506080850151600582015560a0850151600682015560c085015160078201556001600160a01b0360e0860151166001600160a01b036008830191166001600160a01b031982541617905561010085015180519067ffffffffffffffff8211610f6257610cc56009840154611bbb565b601f8111610ff0575b508890601f8311600114610f8157600e939291859183610f76575b50508160011b916000199060031b1c19161760098201555b6001600160a01b03610120870151166001600160a01b03600a830191166001600160a01b03198254161790556001600160a01b03610140870151166001600160a01b03600b830191166001600160a01b0319825416179055610160860151600c820155610180860151600d820155016101a085015180519067ffffffffffffffff8211610f62578190610d948454611bbb565b601f8111610f29575b508990601f8311600114610ec6578592610ebb575b50508160011b916000199060031b1c19161790555b80866001600160a01b036084818454169587519485938492639ccb58d560e01b84528c60048501521697886024840152610e03604484016121f6565b5af1908115610eb1578291610e94575b5015610e8557507fe31ba2ed37bce9c2bca28aabe3990572a1694b7a208f61e5cced4471fa33c8e56001600160a01b03610e81959697845191829189835260608b840152610e646060840189611d3c565b958784015216930390a28080519586958652850152830190611d3c565b0390f35b630d8dbe2560e01b8152600490fd5b610eab9150873d8911610967576109568183611c2e565b88610e13565b84513d84823e3d90fd5b015190508a80610db2565b8486528a86209250601f198416865b8c828210610f13575050908460019594939210610efa575b505050811b019055610dc7565b015160001960f88460031b161c191690558a8080610eed565b6001859682939686015181550195019301610ed5565b610f52908587528b8720601f850160051c8101918d8610610f58575b601f0160051c01906121bb565b8b610d9d565b9091508190610f45565b634e487b7160e01b84526041600452602484fd5b015190508b80610ce9565b9060098401855289852091855b8b601f1986168210610fda575050918391600193600e9695601f19811610610fc1575b505050811b016009820155610d01565b015160001960f88460031b161c191690558b8080610fb1565b6001849582939585015181550194019201610f8e565b61101b906009850186528a8620601f850160051c8101918c8610610f5857601f0160051c01906121bb565b8a610cce565b81518382016003015590880190600101610c4d565b829363ffffffff6001939451169063ffffffff8560051b92831b921b19161793019101610c2c565b8135815260209182019101610baf565b6020809161107b846121e5565b815201910190610b8b565b50633ca1cee360e11b60005260045260246000fd5b9091506040813d6040116110e4575b816110b760409383611c2e565b810103126110e05760208151910151936001600160a01b03851685036105865750929088610b35565b8380fd5b3d91506110aa565b6001600160a01b038563295a6a6f60e11b6000521660045260246000fd5b836313b783af60e21b60005260045260246000fd5b50600154841115610a76565b6308594fb760e01b60005260046000fd5b905042111586610a67565b604051633744092160e21b8152604490611163600482016121f6565bfd5b5063ffffffff6111736121d2565b161515610a52565b638c4fcd9360e01b6000523460045260246000fd5b346101e75760003660031901126101e75760206001600160a01b0360005416604051908152f35b346101e75760003660031901126101e75760206001600160a01b037f9016d09d72d40fdae2fd8ceac6b6234c7706214fd39c1cd1e609a0528c1993005416604051908152f35b346101e75761120b36611ef0565b611216839293611fea565b6112268360a0830151151561213a565b61018081015115611441576101a08101515161142c5761127592916001600160a01b03610140602093015116855183870120604051809681948293632f0e1bbf60e01b8452886004850161216e565b03915afa9182156105915760009261140b575b50611293838361218a565b806000526005602052600e6040600020019280519367ffffffffffffffff85116113f5576020946112c48254611bbb565b601f81116113c5575b5085601f821160011461133c5791817f02a24c3402076671e129905ba4579d884b1f94ded1c07fc03d26d11b60bca169949261090a94600091611331575b508160011b916000199060031b1c19161790555b60405191829187835287830190611d17565b90508301518961130b565b601f1982169083600052806000209160005b8181106113ae57509261090a9492600192827f02a24c3402076671e129905ba4579d884b1f94ded1c07fc03d26d11b60bca169989610611395575b5050811b01905561131f565b85015160001960f88460031b161c191690558980611389565b91928960018192868a01518155019401920161134e565b6113ef908360005287600020601f840160051c810191898510610f5857601f0160051c01906121bb565b866112cd565b634e487b7160e01b600052604160045260246000fd5b61142591925060203d602011610967576109568183611c2e565b9083611288565b826360ec327960e01b60005260045260246000fd5b8263032c20ef60e21b60005260045260246000fd5b346101e75760003660031901126101e75761146f6123d7565b60006001600160a01b037f9016d09d72d40fdae2fd8ceac6b6234c7706214fd39c1cd1e609a0528c199300546001600160a01b031981167f9016d09d72d40fdae2fd8ceac6b6234c7706214fd39c1cd1e609a0528c19930055167f8be0079c531659141344cd1fd0a4f28419497f9722a3daafe3b4186f6b6457e08280a3005b346101e75760003660031901126101e7576020600154604051908152f35b346101e75761151b36611ec0565b61152482611fea565b9160a083018051611682576060840180515142106116715760204291510151106116605760249360206001600160a01b036000541660405196878092630e82f3b760e41b82528760048301525afa9485156105915760009561162c575b50835194602085019586200361161b57608001514201908142116104d2577f50df9e2c9fc5a7f4a07e403fa0300b88fcc8c6943bdff4b8ae71f55b7fd95f899461160d9284600052600560205260066040600020015584519020836000526005602052600c60406000200155519260405193849384526020840152606060408401526060830190611d17565b0390a1602060405160018152f35b630d8dbe2560e01b60005260046000fd5b9094506020813d602011611658575b8161164860209383611c2e565b810103126101e757519385611581565b3d915061163b565b633d82a7cd60e11b60005260046000fd5b63a0750b5160e01b60005260046000fd5b50633e26347b60e21b60005260045260246000fd5b346101e75760203660031901126101e7576001600160a01b036116b8611ba5565b6116c06123d7565b1680600052600460205260ff6040600020541615611723576020817f56070b80bd617fcd2f7a284861edb488830a38f9dedcd77b2cb2f4eac17743e79260005260048252604060002060ff198154169055604051908152a1602060405160018152f35b6321ac7c5f60e01b60005260045260246000fd5b346101e75760203660031901126101e7577f104eb329a192aef26eddea07c2af5ad2587792e62b37ed4045b6ba59bc5540fc60206004356117766123d7565b8060005260088252611798816001600160a01b0360406000205416151561211e565b806000526008825260406000206001600160a01b03198154169055604051908152a1602060405160018152f35b346101e75760203660031901126101e757610e816117e4600435611fea565b604051918291602083526020830190611d3c565b346101e75760203660031901126101e757600435600052600560205260206040600020610e8181549160028101546005820154916006810154926007820154936118bf6001600160a01b0360088501541661185560098601611c50565b906001600160a01b03600a87015416976001600160a01b03600b8801541694600c8801549661188b600e600d8b01549a01611c50565b996040519e8f9e8f908152015260408d015260608c015260808b015260a08a015261018060c08a0152610180890190611d17565b9460e0880152610100870152610120860152610140850152838203610160850152611d17565b346101e75760603660031901126101e7576118fe611ba5565b602435906001600160a01b03821682036101e7577ff0c57e16840df040f15088dc2f81fe391c3923bec73e23a9662efc9c229c6a005460ff8160401c16159267ffffffffffffffff821680159081611b03575b6001149081611af9575b159081611af0575b50611adf5767ffffffffffffffff1982166001177ff0c57e16840df040f15088dc2f81fe391c3923bec73e23a9662efc9c229c6a00556119ce9184611aa0575b506119ac61241f565b6119b461241f565b6119bd336122a6565b6119c860443561223c565b5061234c565b506001600160a01b037f9016d09d72d40fdae2fd8ceac6b6234c7706214fd39c1cd1e609a0528c19930054166001600160a01b03821603611a8e575b50611a1157005b68ff0000000000000000197ff0c57e16840df040f15088dc2f81fe391c3923bec73e23a9662efc9c229c6a0054167ff0c57e16840df040f15088dc2f81fe391c3923bec73e23a9662efc9c229c6a00557fc7f505b2f371ae2175ee4913f4499e1f2633a7b5936321eed1cdaeb6115181d2602060405160018152a1005b611a9a9061023d6123d7565b81611a0a565b68ffffffffffffffffff191668010000000000000001177ff0c57e16840df040f15088dc2f81fe391c3923bec73e23a9662efc9c229c6a0055846119a3565b63f92ee8a960e01b60005260046000fd5b90501585611963565b303b15915061195b565b859150611951565b346101e75760203660031901126101e757600435600052600860205260206001600160a01b0360406000205416604051908152f35b346101e75760203660031901126101e757600435806000526005602052611b7a816001600160a01b03600860406000200154161515611f3f565b6000526006602052600260406000206001810154600052016020526020604060002054604051908152f35b600435906001600160a01b03821682036101e757565b90600182811c92168015611beb575b6020831014611bd557565b634e487b7160e01b600052602260045260246000fd5b91607f1691611bca565b6101c0810190811067ffffffffffffffff8211176113f557604052565b6040810190811067ffffffffffffffff8211176113f557604052565b90601f8019910116810190811067ffffffffffffffff8211176113f557604052565b9060405191826000825492611c6484611bbb565b8084529360018116908115611cd25750600114611c8b575b50611c8992500383611c2e565b565b90506000929192526020600020906000915b818310611cb6575050906020611c899282010138611c7c565b6020919350806001915483858901015201910190918492611c9d565b905060209250611c8994915060ff191682840152151560051b82010138611c7c565b60005b838110611d075750506000910152565b8181015183820152602001611cf7565b90602091611d3081518092818552858086019101611cf4565b601f01601f1916010190565b919091805183526020810151602084016000905b60028210611e415750505060408101516060840152606081015192608081016000905b60028210611e2b575050611e28929350608082015160c082015260a082015160e082015260c08201516101008201526001600160a01b0360e0830151166101208201526101a0611dd6610100840151610200610140850152610200840190611d17565b926001600160a01b03610120820151166101608401526001600160a01b0361014082015116610180840152610160810151828401526101808101516101c08401520151906101e0818403910152611d17565b90565b6020806001928851815201960191019094611d73565b60208060019263ffffffff865116815201930191019091611d50565b67ffffffffffffffff81116113f557601f01601f191660200190565b81601f820112156101e757803590611e9082611e5d565b92611e9e6040519485611c2e565b828452602083830101116101e757816000926020809301838601378301015290565b9060406003198301126101e757600435916024359067ffffffffffffffff82116101e757611e2891600401611e79565b60606003198201126101e7576004359160243567ffffffffffffffff81116101e75782611f1f91600401611e79565b916044359067ffffffffffffffff82116101e757611e2891600401611e79565b15611f475750565b63cd6f4a4f60e01b60005260045260246000fd5b60405190611f6882611bf5565b60606101a0836000815260408051611f808282611c2e565b813682376020830152600081830152805190611f9c8183611c2e565b3682378382015260006080820152600060a0820152600060c0820152600060e08201528261010082015260006101208201526000610140820152600061016082015260006101808201520152565b90611ff3611f5b565b5081600052600560205260406000209160405161200f81611bf5565b8354815260405163ffffffff6001860154818116835260201c166020820152612039604082611c2e565b6020820152600284015460408201526040518060038601906000905b6002821061210857505050611c8992918161207960406001600160a01b0394611c2e565b606082015260058601546080820152600686015460a0820152600786015460c08201526120f8600e836008890154169760e084019889526120bc60098201611c50565b61010085015284600a8201541661012085015284600b82015416610140850152600c810154610160850152600d81015461018085015201611c50565b6101a08201529451161515611f3f565b6001602081928554815201930191019091612055565b156121265750565b6381c4951960e01b60005260045260246000fd5b156121425750565b63166b4d0360e01b60005260045260246000fd5b908160209103126101e7575180151581036101e75790565b611e289392606092825260208201528160408201520190611d17565b156121925750565b604051632f9f8ab960e01b8152602060048201529081906121b7906024830190611d17565b0390fd5b8181106121c6575050565b600081556001016121bb565b60243563ffffffff811681036101e75790565b359063ffffffff821682036101e757565b6024906000905b6002821061220a57505050565b60208060019263ffffffff61221e876121e5565b168152019301910190916121fd565b60001981146104d25760010190565b60207fba0716ba1ee2ea8ecc4c64119b4537cdb42a99d82acf92af5b87607b8b523552916122686123d7565b80600155604051908152a1600190565b919060408301926000905b6002821061229057505050565b6020806001928551815201930191019091612283565b6001600160a01b03168015612336576001600160a01b037f9016d09d72d40fdae2fd8ceac6b6234c7706214fd39c1cd1e609a0528c19930054826001600160a01b03198216177f9016d09d72d40fdae2fd8ceac6b6234c7706214fd39c1cd1e609a0528c19930055167f8be0079c531659141344cd1fd0a4f28419497f9722a3daafe3b4186f6b6457e0600080a3565b631e4fbdf760e01b600052600060045260246000fd5b6001600160a01b039061235d6123d7565b16801515806123c2575b156123ae576020817f80052b810d39120cf6c976cca504a21703f585521dc7a41c6d241090e6c579b6926001600160a01b03196000541617600055604051908152a1600190565b6375ac4eb760e11b60005260045260246000fd5b506001600160a01b0360005416811415612367565b6001600160a01b037f9016d09d72d40fdae2fd8ceac6b6234c7706214fd39c1cd1e609a0528c1993005416330361240a57565b63118cdaa760e01b6000523360045260246000fd5b60ff7ff0c57e16840df040f15088dc2f81fe391c3923bec73e23a9662efc9c229c6a005460401c161561244e57565b631afcd79f60e31b60005260046000fdfea164736f6c634300081b000a9016d09d72d40fdae2fd8ceac6b6234c7706214fd39c1cd1e609a0528c199300f0c57e16840df040f15088dc2f81fe391c3923bec73e23a9662efc9c229c6a00",
  "deployedBytecode": "0x6080604052600436101561001257600080fd5b60003560e01c80630e092fc314611b405780630ef81b2f14611b0b57806310bc628114611b0b5780631794bb3c146118e55780634017daf0146117f8578063406ed35c146117c55780634e92ec63146117375780634fc77264146116975780635314e9fa1461150d5780636db5c8fd146114ef578063715018a6146114565780637edcd7ab146111fd5780638da5cb5b146111b75780638dcdd86b1461119057806393b58f861461099b5780639c8570c814610828578063b3c88d67146107fc578063b74cb2db146107de578063c4ccafa21461079f578063cb64961714610781578063cbd16872146106c8578063cf0f34c4146106aa578063d016b08d14610279578063ddef9ea114610244578063f2fde38b14610219578063fad8e111146101ec5763fd2f3d011461014557600080fd5b346101e75760203660031901126101e7576001600160a01b03610166611ba5565b61016e6123d7565b1680600052600460205260ff604060002054166101d3576020817fb8d368517268f297fff00825d67d098763117d061360d31027be5b2e1a59d46792600052600482526040600020600160ff19825416179055604051908152a1602060405160018152f35b63b29d459560e01b60005260045260246000fd5b600080fd5b346101e75760203660031901126101e757602061020f61020a611ba5565b61234c565b6040519015158152f35b346101e75760203660031901126101e757610242610235611ba5565b61023d6123d7565b6122a6565b005b346101e75760203660031901126101e75760043560005260066020526040806000206001815491015482519182526020820152f35b346101e75761028736611ec0565b61029082611fea565b60a081016102a1848251151561213a565b514281111561069257506102ec6000926001600160a01b0361012085940151169060405194858094819363caf9278560e01b8352336004840152604060248401526044830190611d17565b03925af180156105915760009061060d575b61035a915073__$75f79a42d9bcbdbb69ad79ebd80f556f39$__602060405161032681611c12565b835182850120815285600052600782526040600020548282015260405180958192632b0aac7f60e11b835260048301612278565b0381845af4928315610591576000936105d9575b508360005260076020526040600020610387815461222d565b905560008481526006602052604090207f30644e72e131a029b85045b68181585d2833e84879b9709143e1f593f000000184106103cf576361c0541760e11b60005260046000fd5b836103e5576314b48df160e11b60005260046000fd5b83600052600381016020526040600020546105c857805491600182019283549360ff85116104d257600182018083116104d2576001861b106105b8575b84905585916000905b8582106104e8575050906104416003939261222d565b938483556000526002820160205260406000205584600052016020526040600020558260005260076020526040600020549060001982019182116104d2577f7555a0b1b87fe36304326aed23f5c78102b63922b1141f8df7d4593eff2021dd926104b992604051938493606085526060850190611d17565b91602084015260408301520390a2602060405160018152f35b634e487b7160e01b600052601160045260246000fd5b909260018084861c161460001461059d57602061053c916040519061050c82611c12565b8660005260028801835260406000205482528282015260405180938192632b0aac7f60e11b835260048301612278565b0381855af480156105915760009061055c575b60019150935b019061042b565b6020823d8211610589575b8161057460209383611c2e565b8101031261058657506001905161054f565b80fd5b3d9150610567565b6040513d6000823e3d90fd5b92806001916000526002860160205284604060002055610555565b936105c29061222d565b93610422565b6312c50cad60e11b60005260046000fd5b90926020823d602011610605575b816105f460209383611c2e565b81010312610586575051918461036e565b3d91506105e7565b3d8082843e61061c8184611c2e565b82019160208184031261068a5780519067ffffffffffffffff821161068e570182601f8201121561068a5780519161065383611e5d565b936106616040519586611c2e565b83855260208484010111610586575082916106859160208061035a96019101611cf4565b6102fe565b5080fd5b8280fd5b8363142c294360e31b60005260045260245260446000fd5b346101e75760203660031901126101e757602061020f60043561223c565b346101e75760403660031901126101e7576004356024356001600160a01b0381168091036101e7577ff4041a3f914dac3bc9bf5f003ba41f28dbb84abe42f4e07c76266f5c8ceecb699160209161071d6123d7565b801515828161075f575b6107309161211e565b81600052600883526040600020906001600160a01b0319825416179055604051908152a1602060405160018152f35b60009081526008855260409020546001600160a01b0316821415905082610727565b346101e75760003660031901126101e7576020600254604051908152f35b346101e75760203660031901126101e7576001600160a01b036107c0611ba5565b166000526004602052602060ff604060002054166040519015158152f35b346101e75760003660031901126101e7576020600354604051908152f35b346101e75760203660031901126101e75760043560005260076020526020604060002054604051908152f35b346101e75761083636611ef0565b9161084081611fea565b9160a08301610852838251151561213a565b51428111610983575061018083015161096e5760206108a06000956001600160a01b0360e08551858701209701511690604051978880948193632f0e1bbf60e01b83528a8a6004850161216e565b03925af192831561059157602094600094610917575b508161090a916108e77f7cc27e4a5626cbc4f8ba1a927b0448de55e6a114bc87660331270c5109ade071948761218a565b8460005260058752600d6040600020015560405191829187835287830190611d17565b0390a26040519015158152f35b61090a9194509161095e7f7cc27e4a5626cbc4f8ba1a927b0448de55e6a114bc87660331270c5109ade07193873d8911610967575b6109568183611c2e565b810190612156565b949150916108b6565b503d61094c565b50637eb9cea960e11b60005260045260246000fd5b826370c05fb960e11b60005260045260245260446000fd5b6101203660031901126101e7576109b0611ba5565b366064116101e7573660a4116101e75760a43560c435916001600160a01b03831683036101e75760e43567ffffffffffffffff81116101e7576109f7903690600401611e79565b906101043567ffffffffffffffff81116101e757610a19903690600401611e79565b90610a22611f5b565b50341561117b5760443563ffffffff8116908181036101e7575063ffffffff610a496121d2565b16111580611165575b1561114757608435606435811015908161113c575b501561112b578315158061111f575b1561110a576001600160a01b038516600052600460205260ff60406000205416156110ec57610b149060025493610aac8561222d565b6002556040805160208101904482528783820152828152610ace606082611c2e565b5190209481518095819263530ebf1f60e11b835289600484015288602484015260806044840152610b026084840187611d17565b83810360031901606485015290611d17565b038160006001600160a01b038c165af190811561059157600093849261109b575b506000848152600860205260409020546001600160a01b0390811692610b5d8685151561211e565b169081156110865760405195610b7287611bf5565b8652604094855198610b84878b611c2e565b6000996024815b6064821061106e575050602089015243878901528651610bab8882611c2e565b6064815b60a4821061105e575050606089015260808801528860a088015260c08701526001600160a01b03891660e087015261010086015261012085015261014084015284610160840152846101808401526020948251610c0c8782611c2e565b8181526101a0850152848152600586528281208451815560208501518290835b89600282106110365750505060018201558385015160028201556060850151825b600281106110215750506080850151600582015560a0850151600682015560c085015160078201556001600160a01b0360e0860151166001600160a01b036008830191166001600160a01b031982541617905561010085015180519067ffffffffffffffff8211610f6257610cc56009840154611bbb565b601f8111610ff0575b508890601f8311600114610f8157600e939291859183610f76575b50508160011b916000199060031b1c19161760098201555b6001600160a01b03610120870151166001600160a01b03600a830191166001600160a01b03198254161790556001600160a01b03610140870151166001600160a01b03600b830191166001600160a01b0319825416179055610160860151600c820155610180860151600d820155016101a085015180519067ffffffffffffffff8211610f62578190610d948454611bbb565b601f8111610f29575b508990601f8311600114610ec6578592610ebb575b50508160011b916000199060031b1c19161790555b80866001600160a01b036084818454169587519485938492639ccb58d560e01b84528c60048501521697886024840152610e03604484016121f6565b5af1908115610eb1578291610e94575b5015610e8557507fe31ba2ed37bce9c2bca28aabe3990572a1694b7a208f61e5cced4471fa33c8e56001600160a01b03610e81959697845191829189835260608b840152610e646060840189611d3c565b958784015216930390a28080519586958652850152830190611d3c565b0390f35b630d8dbe2560e01b8152600490fd5b610eab9150873d8911610967576109568183611c2e565b88610e13565b84513d84823e3d90fd5b015190508a80610db2565b8486528a86209250601f198416865b8c828210610f13575050908460019594939210610efa575b505050811b019055610dc7565b015160001960f88460031b161c191690558a8080610eed565b6001859682939686015181550195019301610ed5565b610f52908587528b8720601f850160051c8101918d8610610f58575b601f0160051c01906121bb565b8b610d9d565b9091508190610f45565b634e487b7160e01b84526041600452602484fd5b015190508b80610ce9565b9060098401855289852091855b8b601f1986168210610fda575050918391600193600e9695601f19811610610fc1575b505050811b016009820155610d01565b015160001960f88460031b161c191690558b8080610fb1565b6001849582939585015181550194019201610f8e565b61101b906009850186528a8620601f850160051c8101918c8610610f5857601f0160051c01906121bb565b8a610cce565b81518382016003015590880190600101610c4d565b829363ffffffff6001939451169063ffffffff8560051b92831b921b19161793019101610c2c565b8135815260209182019101610baf565b6020809161107b846121e5565b815201910190610b8b565b50633ca1cee360e11b60005260045260246000fd5b9091506040813d6040116110e4575b816110b760409383611c2e565b810103126110e05760208151910151936001600160a01b03851685036105865750929088610b35565b8380fd5b3d91506110aa565b6001600160a01b038563295a6a6f60e11b6000521660045260246000fd5b836313b783af60e21b60005260045260246000fd5b50600154841115610a76565b6308594fb760e01b60005260046000fd5b905042111586610a67565b604051633744092160e21b8152604490611163600482016121f6565bfd5b5063ffffffff6111736121d2565b161515610a52565b638c4fcd9360e01b6000523460045260246000fd5b346101e75760003660031901126101e75760206001600160a01b0360005416604051908152f35b346101e75760003660031901126101e75760206001600160a01b037f9016d09d72d40fdae2fd8ceac6b6234c7706214fd39c1cd1e609a0528c1993005416604051908152f35b346101e75761120b36611ef0565b611216839293611fea565b6112268360a0830151151561213a565b61018081015115611441576101a08101515161142c5761127592916001600160a01b03610140602093015116855183870120604051809681948293632f0e1bbf60e01b8452886004850161216e565b03915afa9182156105915760009261140b575b50611293838361218a565b806000526005602052600e6040600020019280519367ffffffffffffffff85116113f5576020946112c48254611bbb565b601f81116113c5575b5085601f821160011461133c5791817f02a24c3402076671e129905ba4579d884b1f94ded1c07fc03d26d11b60bca169949261090a94600091611331575b508160011b916000199060031b1c19161790555b60405191829187835287830190611d17565b90508301518961130b565b601f1982169083600052806000209160005b8181106113ae57509261090a9492600192827f02a24c3402076671e129905ba4579d884b1f94ded1c07fc03d26d11b60bca169989610611395575b5050811b01905561131f565b85015160001960f88460031b161c191690558980611389565b91928960018192868a01518155019401920161134e565b6113ef908360005287600020601f840160051c810191898510610f5857601f0160051c01906121bb565b866112cd565b634e487b7160e01b600052604160045260246000fd5b61142591925060203d602011610967576109568183611c2e565b9083611288565b826360ec327960e01b60005260045260246000fd5b8263032c20ef60e21b60005260045260246000fd5b346101e75760003660031901126101e75761146f6123d7565b60006001600160a01b037f9016d09d72d40fdae2fd8ceac6b6234c7706214fd39c1cd1e609a0528c199300546001600160a01b031981167f9016d09d72d40fdae2fd8ceac6b6234c7706214fd39c1cd1e609a0528c19930055167f8be0079c531659141344cd1fd0a4f28419497f9722a3daafe3b4186f6b6457e08280a3005b346101e75760003660031901126101e7576020600154604051908152f35b346101e75761151b36611ec0565b61152482611fea565b9160a083018051611682576060840180515142106116715760204291510151106116605760249360206001600160a01b036000541660405196878092630e82f3b760e41b82528760048301525afa9485156105915760009561162c575b50835194602085019586200361161b57608001514201908142116104d2577f50df9e2c9fc5a7f4a07e403fa0300b88fcc8c6943bdff4b8ae71f55b7fd95f899461160d9284600052600560205260066040600020015584519020836000526005602052600c60406000200155519260405193849384526020840152606060408401526060830190611d17565b0390a1602060405160018152f35b630d8dbe2560e01b60005260046000fd5b9094506020813d602011611658575b8161164860209383611c2e565b810103126101e757519385611581565b3d915061163b565b633d82a7cd60e11b60005260046000fd5b63a0750b5160e01b60005260046000fd5b50633e26347b60e21b60005260045260246000fd5b346101e75760203660031901126101e7576001600160a01b036116b8611ba5565b6116c06123d7565b1680600052600460205260ff6040600020541615611723576020817f56070b80bd617fcd2f7a284861edb488830a38f9dedcd77b2cb2f4eac17743e79260005260048252604060002060ff198154169055604051908152a1602060405160018152f35b6321ac7c5f60e01b60005260045260246000fd5b346101e75760203660031901126101e7577f104eb329a192aef26eddea07c2af5ad2587792e62b37ed4045b6ba59bc5540fc60206004356117766123d7565b8060005260088252611798816001600160a01b0360406000205416151561211e565b806000526008825260406000206001600160a01b03198154169055604051908152a1602060405160018152f35b346101e75760203660031901126101e757610e816117e4600435611fea565b604051918291602083526020830190611d3c565b346101e75760203660031901126101e757600435600052600560205260206040600020610e8181549160028101546005820154916006810154926007820154936118bf6001600160a01b0360088501541661185560098601611c50565b906001600160a01b03600a87015416976001600160a01b03600b8801541694600c8801549661188b600e600d8b01549a01611c50565b996040519e8f9e8f908152015260408d015260608c015260808b015260a08a015261018060c08a0152610180890190611d17565b9460e0880152610100870152610120860152610140850152838203610160850152611d17565b346101e75760603660031901126101e7576118fe611ba5565b602435906001600160a01b03821682036101e7577ff0c57e16840df040f15088dc2f81fe391c3923bec73e23a9662efc9c229c6a005460ff8160401c16159267ffffffffffffffff821680159081611b03575b6001149081611af9575b159081611af0575b50611adf5767ffffffffffffffff1982166001177ff0c57e16840df040f15088dc2f81fe391c3923bec73e23a9662efc9c229c6a00556119ce9184611aa0575b506119ac61241f565b6119b461241f565b6119bd336122a6565b6119c860443561223c565b5061234c565b506001600160a01b037f9016d09d72d40fdae2fd8ceac6b6234c7706214fd39c1cd1e609a0528c19930054166001600160a01b03821603611a8e575b50611a1157005b68ff0000000000000000197ff0c57e16840df040f15088dc2f81fe391c3923bec73e23a9662efc9c229c6a0054167ff0c57e16840df040f15088dc2f81fe391c3923bec73e23a9662efc9c229c6a00557fc7f505b2f371ae2175ee4913f4499e1f2633a7b5936321eed1cdaeb6115181d2602060405160018152a1005b611a9a9061023d6123d7565b81611a0a565b68ffffffffffffffffff191668010000000000000001177ff0c57e16840df040f15088dc2f81fe391c3923bec73e23a9662efc9c229c6a0055846119a3565b63f92ee8a960e01b60005260046000fd5b90501585611963565b303b15915061195b565b859150611951565b346101e75760203660031901126101e757600435600052600860205260206001600160a01b0360406000205416604051908152f35b346101e75760203660031901126101e757600435806000526005602052611b7a816001600160a01b03600860406000200154161515611f3f565b6000526006602052600260406000206001810154600052016020526020604060002054604051908152f35b600435906001600160a01b03821682036101e757565b90600182811c92168015611beb575b6020831014611bd557565b634e487b7160e01b600052602260045260246000fd5b91607f1691611bca565b6101c0810190811067ffffffffffffffff8211176113f557604052565b6040810190811067ffffffffffffffff8211176113f557604052565b90601f8019910116810190811067ffffffffffffffff8211176113f557604052565b9060405191826000825492611c6484611bbb565b8084529360018116908115611cd25750600114611c8b575b50611c8992500383611c2e565b565b90506000929192526020600020906000915b818310611cb6575050906020611c899282010138611c7c565b6020919350806001915483858901015201910190918492611c9d565b905060209250611c8994915060ff191682840152151560051b82010138611c7c565b60005b838110611d075750506000910152565b8181015183820152602001611cf7565b90602091611d3081518092818552858086019101611cf4565b601f01601f1916010190565b919091805183526020810151602084016000905b60028210611e415750505060408101516060840152606081015192608081016000905b60028210611e2b575050611e28929350608082015160c082015260a082015160e082015260c08201516101008201526001600160a01b0360e0830151166101208201526101a0611dd6610100840151610200610140850152610200840190611d17565b926001600160a01b03610120820151166101608401526001600160a01b0361014082015116610180840152610160810151828401526101808101516101c08401520151906101e0818403910152611d17565b90565b6020806001928851815201960191019094611d73565b60208060019263ffffffff865116815201930191019091611d50565b67ffffffffffffffff81116113f557601f01601f191660200190565b81601f820112156101e757803590611e9082611e5d565b92611e9e6040519485611c2e565b828452602083830101116101e757816000926020809301838601378301015290565b9060406003198301126101e757600435916024359067ffffffffffffffff82116101e757611e2891600401611e79565b60606003198201126101e7576004359160243567ffffffffffffffff81116101e75782611f1f91600401611e79565b916044359067ffffffffffffffff82116101e757611e2891600401611e79565b15611f475750565b63cd6f4a4f60e01b60005260045260246000fd5b60405190611f6882611bf5565b60606101a0836000815260408051611f808282611c2e565b813682376020830152600081830152805190611f9c8183611c2e565b3682378382015260006080820152600060a0820152600060c0820152600060e08201528261010082015260006101208201526000610140820152600061016082015260006101808201520152565b90611ff3611f5b565b5081600052600560205260406000209160405161200f81611bf5565b8354815260405163ffffffff6001860154818116835260201c166020820152612039604082611c2e565b6020820152600284015460408201526040518060038601906000905b6002821061210857505050611c8992918161207960406001600160a01b0394611c2e565b606082015260058601546080820152600686015460a0820152600786015460c08201526120f8600e836008890154169760e084019889526120bc60098201611c50565b61010085015284600a8201541661012085015284600b82015416610140850152600c810154610160850152600d81015461018085015201611c50565b6101a08201529451161515611f3f565b6001602081928554815201930191019091612055565b156121265750565b6381c4951960e01b60005260045260246000fd5b156121425750565b63166b4d0360e01b60005260045260246000fd5b908160209103126101e7575180151581036101e75790565b611e289392606092825260208201528160408201520190611d17565b156121925750565b604051632f9f8ab960e01b8152602060048201529081906121b7906024830190611d17565b0390fd5b8181106121c6575050565b600081556001016121bb565b60243563ffffffff811681036101e75790565b359063ffffffff821682036101e757565b6024906000905b6002821061220a57505050565b60208060019263ffffffff61221e876121e5565b168152019301910190916121fd565b60001981146104d25760010190565b60207fba0716ba1ee2ea8ecc4c64119b4537cdb42a99d82acf92af5b87607b8b523552916122686123d7565b80600155604051908152a1600190565b919060408301926000905b6002821061229057505050565b6020806001928551815201930191019091612283565b6001600160a01b03168015612336576001600160a01b037f9016d09d72d40fdae2fd8ceac6b6234c7706214fd39c1cd1e609a0528c19930054826001600160a01b03198216177f9016d09d72d40fdae2fd8ceac6b6234c7706214fd39c1cd1e609a0528c19930055167f8be0079c531659141344cd1fd0a4f28419497f9722a3daafe3b4186f6b6457e0600080a3565b631e4fbdf760e01b600052600060045260246000fd5b6001600160a01b039061235d6123d7565b16801515806123c2575b156123ae576020817f80052b810d39120cf6c976cca504a21703f585521dc7a41c6d241090e6c579b6926001600160a01b03196000541617600055604051908152a1600190565b6375ac4eb760e11b60005260045260246000fd5b506001600160a01b0360005416811415612367565b6001600160a01b037f9016d09d72d40fdae2fd8ceac6b6234c7706214fd39c1cd1e609a0528c1993005416330361240a57565b63118cdaa760e01b6000523360045260246000fd5b60ff7ff0c57e16840df040f15088dc2f81fe391c3923bec73e23a9662efc9c229c6a005460401c161561244e57565b631afcd79f60e31b60005260046000fdfea164736f6c634300081b000a",
  "libraries": {
    "PoseidonT3": "0x3333333C0A88F9BE4fd23ed0536F9B6c427e3B93"
  },
  "devdoc": {
    "errors": {
      "InvalidInitialization()": [
        {
          "details": "The contract is already initialized."
        }
      ],
      "NotInitializing()": [
        {
          "details": "The contract is not initializing."
        }
      ],
      "OwnableInvalidOwner(address)": [
        {
          "details": "The owner is not a valid owner account. (eg. `address(0)`)"
        }
      ],
      "OwnableUnauthorizedAccount(address)": [
        {
          "details": "The caller account is not authorized to perform an operation."
        }
      ]
    },
    "events": {
      "CiphernodeRegistrySet(address)": {
        "params": {
          "ciphernodeRegistry": "The address of the CiphernodeRegistry contract."
        }
      },
      "CiphertextOutputPublished(uint256,bytes)": {
        "params": {
          "ciphertextOutput": "ABI encoded ciphertext output.",
          "e3Id": "ID of the E3."
        }
      },
      "E3Activated(uint256,uint256,bytes)": {
        "params": {
          "committeePublicKey": "Public key of the committee.",
          "e3Id": "ID of the E3.",
          "expiration": "Timestamp when committee duties expire."
        }
      },
      "E3ProgramDisabled(address)": {
        "params": {
          "e3Program": "The address of the E3 Program."
        }
      },
      "E3ProgramEnabled(address)": {
        "params": {
          "e3Program": "The address of the E3 Program."
        }
      },
      "E3Requested(uint256,(uint256,uint32[2],uint256,uint256[2],uint256,uint256,bytes32,address,bytes,address,address,bytes32,bytes32,bytes),address,address)": {
        "params": {
          "e3": "Details of the E3.",
          "e3Id": "ID of the E3.",
          "e3Program": "Address of the Computation module selected.",
          "filter": "Address of the pool of nodes from which the Cipher Node committee was selected."
        }
      },
      "EncryptionSchemeDisabled(bytes32)": {
        "params": {
          "encryptionSchemeId": "The ID of the encryption scheme that was disabled."
        }
      },
      "EncryptionSchemeEnabled(bytes32)": {
        "params": {
          "encryptionSchemeId": "The ID of the encryption scheme that was enabled."
        }
      },
      "Initialized(uint64)": {
        "details": "Triggered when the contract has been initialized or reinitialized."
      },
      "InputPublished(uint256,bytes,uint256,uint256)": {
        "params": {
          "data": "ABI encoded input data.",
          "e3Id": "ID of the E3."
        }
      },
      "MaxDurationSet(uint256)": {
        "params": {
          "maxDuration": "The maximum duration of a computation in seconds."
        }
      },
      "PlaintextOutputPublished(uint256,bytes)": {
        "params": {
          "e3Id": "ID of the E3.",
          "plaintextOutput": "ABI encoded plaintext output."
        }
      }
    },
    "kind": "dev",
    "methods": {
      "activate(uint256,bytes)": {
        "details": "This function MUST emit the E3Activated event.This function MUST revert if the given E3 has not yet been requested.This function MUST revert if the selected node committee has not yet published a public key.",
        "params": {
          "e3Id": "ID of the E3.",
          "publicKey": "Public key of the committee."
        },
        "returns": {
          "success": "True if the E3 was successfully activated."
        }
      },
      "constructor": {
        "params": {
          "_maxDuration": "The maximum duration of a computation in seconds",
          "_owner": "The owner of this contract"
        }
      },
      "getE3(uint256)": {
        "details": "This function MUST revert if the E3 does not exist.",
        "params": {
          "e3Id": "ID of the E3."
        },
        "returns": {
          "e3": "The struct representing the requested E3."
        }
      },
      "getInputRoot(uint256)": {
        "details": "This function MUST revert if the E3 does not exist.",
        "params": {
          "e3Id": "ID of the E3."
        },
        "returns": {
          "_0": "The root of the input merkle tree."
        }
      },
      "initialize(address,address,uint256)": {
        "params": {
          "_maxDuration": "The maximum duration of a computation in seconds",
          "_owner": "The owner of this contract"
        }
      },
      "owner()": {
        "details": "Returns the address of the current owner."
      },
      "publishCiphertextOutput(uint256,bytes,bytes)": {
        "details": "This function MUST emit the CiphertextOutputPublished event.",
        "params": {
          "ciphertextOutput": "ABI encoded output data to verify.",
          "e3Id": "ID of the E3.",
          "proof": "ABI encoded data to verify the ciphertextOutput."
        },
        "returns": {
          "success": "True if the output was successfully published."
        }
      },
      "publishInput(uint256,bytes)": {
        "details": "This function MUST revert if the E3 is not yet activated.This function MUST emit the InputPublished event.",
        "params": {
          "data": "ABI encoded input data to publish.",
          "e3Id": "ID of the E3."
        },
        "returns": {
          "success": "True if the input was successfully published."
        }
      },
      "publishPlaintextOutput(uint256,bytes,bytes)": {
        "details": "This function MUST revert if the output has not been published.This function MUST emit the PlaintextOutputPublished event.",
        "params": {
          "e3Id": "ID of the E3.",
          "plaintextOutput": "ABI encoded plaintext output.",
          "proof": "ABI encoded data to verify the plaintextOutput."
        }
      },
      "renounceOwnership()": {
        "details": "Leaves the contract without owner. It will not be possible to call `onlyOwner` functions. Can only be called by the current owner. NOTE: Renouncing ownership will leave the contract without an owner, thereby disabling any functionality that is only available to the owner."
      },
      "request(address,uint32[2],uint256[2],uint256,address,bytes,bytes)": {
        "details": "This function MUST emit the E3Requested event.",
        "params": {
          "computeProviderParams": "ABI encoded compute provider parameters.",
          "duration": "The duration of the computation in seconds.",
          "e3Program": "Address of the E3 Program.",
          "e3ProgramParams": "ABI encoded computation parameters.",
          "filter": "IDs of the pool of nodes from which to select the committee.",
          "threshold": "The M/N threshold for the committee."
        },
        "returns": {
          "e3": "The E3 struct.",
          "e3Id": "ID of the E3."
        }
      },
      "setMaxDuration(uint256)": {
        "params": {
          "_maxDuration": "The maximum duration of a computation in seconds."
        },
        "returns": {
          "success": "True if the max duration was successfully set."
        }
      },
      "transferOwnership(address)": {
        "details": "Transfers ownership of the contract to a new account (`newOwner`). Can only be called by the current owner."
      }
    },
    "version": 1
  },
  "userdoc": {
    "events": {
      "CiphernodeRegistrySet(address)": {
        "notice": "This event MUST be emitted any time the CiphernodeRegistry is set."
      },
      "CiphertextOutputPublished(uint256,bytes)": {
        "notice": "This event MUST be emitted when the ciphertext output of an Encrypted Execution Environment (E3) is successfully published."
      },
      "E3Activated(uint256,uint256,bytes)": {
        "notice": "This event MUST be emitted when an Encrypted Execution Environment (E3) is successfully activated."
      },
      "E3ProgramDisabled(address)": {
        "notice": "This event MUST be emitted any time a E3 Program is disabled."
      },
      "E3ProgramEnabled(address)": {
        "notice": "This event MUST be emitted any time a E3 Program is enabled."
      },
      "E3Requested(uint256,(uint256,uint32[2],uint256,uint256[2],uint256,uint256,bytes32,address,bytes,address,address,bytes32,bytes32,bytes),address,address)": {
        "notice": "This event MUST be emitted when an Encrypted Execution Environment (E3) is successfully requested."
      },
      "EncryptionSchemeDisabled(bytes32)": {
        "notice": "This event MUST be emitted any time an encryption scheme is disabled."
      },
      "EncryptionSchemeEnabled(bytes32)": {
        "notice": "The event MUST be emitted any time an encryption scheme is enabled."
      },
      "InputPublished(uint256,bytes,uint256,uint256)": {
        "notice": "This event MUST be emitted when an input to an Encrypted Execution Environment (E3) is successfully published."
      },
      "MaxDurationSet(uint256)": {
        "notice": "This event MUST be emitted any time the `maxDuration` is set."
      },
      "PlaintextOutputPublished(uint256,bytes)": {
        "notice": "This event MUST be emitted when the plaintext output of an Encrypted Execution Environment (E3) is successfully published."
      }
    },
    "kind": "user",
    "methods": {
      "activate(uint256,bytes)": {
        "notice": "This function should be called to activate an Encrypted Execution Environment (E3) once it has been initialized and is ready for input."
      },
      "getE3(uint256)": {
        "notice": "This function should be called to retrieve the details of an Encrypted Execution Environment (E3)."
      },
      "getInputRoot(uint256)": {
        "notice": "This function returns root of the input merkle tree for a given E3."
      },
      "publishCiphertextOutput(uint256,bytes,bytes)": {
        "notice": "This function should be called to publish output data for an Encrypted Execution Environment (E3)."
      },
      "publishInput(uint256,bytes)": {
        "notice": "This function should be called to publish input data for Encrypted Execution Environment (E3)."
      },
      "publishPlaintextOutput(uint256,bytes,bytes)": {
        "notice": "This function publishes the plaintext output of an Encrypted Execution Environment (E3)."
      },
      "request(address,uint32[2],uint256[2],uint256,address,bytes,bytes)": {
        "notice": "This function should be called to request a computation within an Encrypted Execution Environment (E3)."
      },
      "setMaxDuration(uint256)": {
        "notice": "This function should be called to set the maximum duration of requested computations."
      }
    },
    "version": 1
  },
  "storageLayout": {
    "storage": [
      {
        "astId": 1382,
        "contract": "contracts/Enclave.sol:Enclave",
        "label": "ciphernodeRegistry",
        "offset": 0,
        "slot": "0",
        "type": "t_contract(ICiphernodeRegistry)2534"
      },
      {
        "astId": 1384,
        "contract": "contracts/Enclave.sol:Enclave",
        "label": "maxDuration",
        "offset": 0,
        "slot": "1",
        "type": "t_uint256"
      },
      {
        "astId": 1386,
        "contract": "contracts/Enclave.sol:Enclave",
        "label": "nexte3Id",
        "offset": 0,
        "slot": "2",
        "type": "t_uint256"
      },
      {
        "astId": 1388,
        "contract": "contracts/Enclave.sol:Enclave",
        "label": "requests",
        "offset": 0,
        "slot": "3",
        "type": "t_uint256"
      },
      {
        "astId": 1393,
        "contract": "contracts/Enclave.sol:Enclave",
        "label": "e3Programs",
        "offset": 0,
        "slot": "4",
        "type": "t_mapping(t_contract(IE3Program)2628,t_bool)"
      },
      {
        "astId": 1398,
        "contract": "contracts/Enclave.sol:Enclave",
        "label": "e3s",
        "offset": 0,
        "slot": "5",
        "type": "t_mapping(t_uint256,t_struct(E3)2594_storage)"
      },
      {
        "astId": 1403,
        "contract": "contracts/Enclave.sol:Enclave",
        "label": "inputs",
        "offset": 0,
        "slot": "6",
        "type": "t_mapping(t_uint256,t_struct(LeanIMTData)518_storage)"
      },
      {
        "astId": 1407,
        "contract": "contracts/Enclave.sol:Enclave",
        "label": "inputCounts",
        "offset": 0,
        "slot": "7",
        "type": "t_mapping(t_uint256,t_uint256)"
      },
      {
        "astId": 1412,
        "contract": "contracts/Enclave.sol:Enclave",
        "label": "decryptionVerifiers",
        "offset": 0,
        "slot": "8",
        "type": "t_mapping(t_bytes32,t_contract(IDecryptionVerifier)2549)"
      }
    ],
    "types": {
      "t_array(t_uint256)2_storage": {
        "base": "t_uint256",
        "encoding": "inplace",
        "label": "uint256[2]",
        "numberOfBytes": "64"
      },
      "t_array(t_uint32)2_storage": {
        "base": "t_uint32",
        "encoding": "inplace",
        "label": "uint32[2]",
        "numberOfBytes": "32"
      },
      "t_bool": {
        "encoding": "inplace",
        "label": "bool",
        "numberOfBytes": "1"
      },
      "t_bytes32": {
        "encoding": "inplace",
        "label": "bytes32",
        "numberOfBytes": "32"
      },
      "t_bytes_storage": {
        "encoding": "bytes",
        "label": "bytes",
        "numberOfBytes": "32"
      },
      "t_contract(ICiphernodeRegistry)2534": {
        "encoding": "inplace",
        "label": "contract ICiphernodeRegistry",
        "numberOfBytes": "20"
      },
      "t_contract(IDecryptionVerifier)2549": {
        "encoding": "inplace",
        "label": "contract IDecryptionVerifier",
        "numberOfBytes": "20"
      },
      "t_contract(IE3Program)2628": {
        "encoding": "inplace",
        "label": "contract IE3Program",
        "numberOfBytes": "20"
      },
      "t_contract(IInputValidator)2823": {
        "encoding": "inplace",
        "label": "contract IInputValidator",
        "numberOfBytes": "20"
      },
      "t_mapping(t_bytes32,t_contract(IDecryptionVerifier)2549)": {
        "encoding": "mapping",
        "key": "t_bytes32",
        "label": "mapping(bytes32 => contract IDecryptionVerifier)",
        "numberOfBytes": "32",
        "value": "t_contract(IDecryptionVerifier)2549"
      },
      "t_mapping(t_contract(IE3Program)2628,t_bool)": {
        "encoding": "mapping",
        "key": "t_contract(IE3Program)2628",
        "label": "mapping(contract IE3Program => bool)",
        "numberOfBytes": "32",
        "value": "t_bool"
      },
      "t_mapping(t_uint256,t_struct(E3)2594_storage)": {
        "encoding": "mapping",
        "key": "t_uint256",
        "label": "mapping(uint256 => struct E3)",
        "numberOfBytes": "32",
        "value": "t_struct(E3)2594_storage"
      },
      "t_mapping(t_uint256,t_struct(LeanIMTData)518_storage)": {
        "encoding": "mapping",
        "key": "t_uint256",
        "label": "mapping(uint256 => struct LeanIMTData)",
        "numberOfBytes": "32",
        "value": "t_struct(LeanIMTData)518_storage"
      },
      "t_mapping(t_uint256,t_uint256)": {
        "encoding": "mapping",
        "key": "t_uint256",
        "label": "mapping(uint256 => uint256)",
        "numberOfBytes": "32",
        "value": "t_uint256"
      },
      "t_struct(E3)2594_storage": {
        "encoding": "inplace",
        "label": "struct E3",
        "members": [
          {
            "astId": 2560,
            "contract": "contracts/Enclave.sol:Enclave",
            "label": "seed",
            "offset": 0,
            "slot": "0",
            "type": "t_uint256"
          },
          {
            "astId": 2564,
            "contract": "contracts/Enclave.sol:Enclave",
            "label": "threshold",
            "offset": 0,
            "slot": "1",
            "type": "t_array(t_uint32)2_storage"
          },
          {
            "astId": 2566,
            "contract": "contracts/Enclave.sol:Enclave",
            "label": "requestBlock",
            "offset": 0,
            "slot": "2",
            "type": "t_uint256"
          },
          {
            "astId": 2570,
            "contract": "contracts/Enclave.sol:Enclave",
            "label": "startWindow",
            "offset": 0,
            "slot": "3",
            "type": "t_array(t_uint256)2_storage"
          },
          {
            "astId": 2572,
            "contract": "contracts/Enclave.sol:Enclave",
            "label": "duration",
            "offset": 0,
            "slot": "5",
            "type": "t_uint256"
          },
          {
            "astId": 2574,
            "contract": "contracts/Enclave.sol:Enclave",
            "label": "expiration",
            "offset": 0,
            "slot": "6",
            "type": "t_uint256"
          },
          {
            "astId": 2576,
            "contract": "contracts/Enclave.sol:Enclave",
            "label": "encryptionSchemeId",
            "offset": 0,
            "slot": "7",
            "type": "t_bytes32"
          },
          {
            "astId": 2579,
            "contract": "contracts/Enclave.sol:Enclave",
            "label": "e3Program",
            "offset": 0,
            "slot": "8",
            "type": "t_contract(IE3Program)2628"
          },
          {
            "astId": 2581,
            "contract": "contracts/Enclave.sol:Enclave",
            "label": "e3ProgramParams",
            "offset": 0,
            "slot": "9",
            "type": "t_bytes_storage"
          },
          {
            "astId": 2584,
            "contract": "contracts/Enclave.sol:Enclave",
            "label": "inputValidator",
            "offset": 0,
            "slot": "10",
            "type": "t_contract(IInputValidator)2823"
          },
          {
            "astId": 2587,
            "contract": "contracts/Enclave.sol:Enclave",
            "label": "decryptionVerifier",
            "offset": 0,
            "slot": "11",
            "type": "t_contract(IDecryptionVerifier)2549"
          },
          {
            "astId": 2589,
            "contract": "contracts/Enclave.sol:Enclave",
            "label": "committeePublicKey",
            "offset": 0,
            "slot": "12",
            "type": "t_bytes32"
          },
          {
            "astId": 2591,
            "contract": "contracts/Enclave.sol:Enclave",
            "label": "ciphertextOutput",
            "offset": 0,
            "slot": "13",
            "type": "t_bytes32"
          },
          {
            "astId": 2593,
            "contract": "contracts/Enclave.sol:Enclave",
            "label": "plaintextOutput",
            "offset": 0,
            "slot": "14",
            "type": "t_bytes_storage"
          }
        ],
        "numberOfBytes": "480"
      },
      "t_struct(LeanIMTData)518_storage": {
        "encoding": "inplace",
        "label": "struct LeanIMTData",
        "members": [
          {
            "astId": 507,
            "contract": "contracts/Enclave.sol:Enclave",
            "label": "size",
            "offset": 0,
            "slot": "0",
            "type": "t_uint256"
          },
          {
            "astId": 509,
            "contract": "contracts/Enclave.sol:Enclave",
            "label": "depth",
            "offset": 0,
            "slot": "1",
            "type": "t_uint256"
          },
          {
            "astId": 513,
            "contract": "contracts/Enclave.sol:Enclave",
            "label": "sideNodes",
            "offset": 0,
            "slot": "2",
            "type": "t_mapping(t_uint256,t_uint256)"
          },
          {
            "astId": 517,
            "contract": "contracts/Enclave.sol:Enclave",
            "label": "leaves",
            "offset": 0,
            "slot": "3",
            "type": "t_mapping(t_uint256,t_uint256)"
          }
        ],
        "numberOfBytes": "128"
      },
      "t_uint256": {
        "encoding": "inplace",
        "label": "uint256",
        "numberOfBytes": "32"
      },
      "t_uint32": {
        "encoding": "inplace",
        "label": "uint32",
        "numberOfBytes": "4"
      }
    }
  }
}