{
  "address": "0x8C8EfB661eb4Fea3b82aF8253F0Eb542E06A0EA2",
  "abi": [
    {
      "inputs": [
        {
          "internalType": "contract IInputValidator",
          "name": "_inputValidator",
          "type": "address"
        }
      ],
      "stateMutability": "nonpayable",
      "type": "constructor"
    },
    {
      "inputs": [
        {
          "internalType": "bytes",
          "name": "e3ProgramParams",
          "type": "bytes"
        },
        {
          "internalType": "bytes",
          "name": "computeProviderParams",
          "type": "bytes"
        }
      ],
      "name": "invalidParams",
      "type": "error"
    },
    {
      "inputs": [],
      "name": "ENCRYPTION_SCHEME_ID",
      "outputs": [
        {
          "internalType": "bytes32",
          "name": "",
          "type": "bytes32"
        }
      ],
      "stateMutability": "view",
      "type": "function"
    },
    {
      "inputs": [
        {
          "internalType": "contract IInputValidator",
          "name": "_inputValidator",
          "type": "address"
        }
      ],
      "name": "setInputValidator",
      "outputs": [],
      "stateMutability": "nonpayable",
      "type": "function"
    },
    {
      "inputs": [
        {
          "internalType": "uint256",
          "name": "",
          "type": "uint256"
        },
        {
          "internalType": "uint256",
          "name": "",
          "type": "uint256"
        },
        {
          "internalType": "bytes",
          "name": "e3ProgramParams",
          "type": "bytes"
        },
        {
          "internalType": "bytes",
          "name": "computeProviderParams",
          "type": "bytes"
        }
      ],
      "name": "validate",
      "outputs": [
        {
          "internalType": "bytes32",
          "name": "encryptionSchemeId",
          "type": "bytes32"
        },
        {
          "internalType": "contract IInputValidator",
          "name": "inputValidator",
          "type": "address"
        }
      ],
      "stateMutability": "view",
      "type": "function"
    },
    {
      "inputs": [
        {
          "internalType": "uint256",
          "name": "",
          "type": "uint256"
        },
        {
          "internalType": "bytes32",
          "name": "",
          "type": "bytes32"
        },
        {
          "internalType": "bytes",
          "name": "data",
          "type": "bytes"
        }
      ],
      "name": "verify",
      "outputs": [
        {
          "internalType": "bool",
          "name": "success",
          "type": "bool"
        }
      ],
      "stateMutability": "pure",
      "type": "function"
    }
  ],
  "transactionHash": "0x48a20810f36ae8d8d1f91a2207e9cd920512c069dcf8f106a70e6e1ad0be2759",
  "args": [
    "0xd6e450c59c3b4886507e608B39AcAcd1E06C06c6"
  ],
  "numDeployments": 1,
  "solcInputHash": "3d9e1a948fbfdecab1738e926b737452",
  "bytecode": "0x608034607057601f61037138819003918201601f19168301916001600160401b03831184841017607557808492602094604052833981010312607057516001600160a01b03811690819003607057600080546001600160a01b0319169190911790556040516102e5908161008c8239f35b600080fd5b634e487b7160e01b600052604160045260246000fdfe6080604052600436101561001257600080fd5b60003560e01c80632f0e1bbf146101c95780635d42800d1461016957806378d891871461012e5763a61d7e3e1461004857600080fd5b346101295760803660031901126101295760443567ffffffffffffffff811161012957610079903690600401610218565b60643567ffffffffffffffff811161012957610099903690600401610218565b9060208251036100eb57604073ffffffffffffffffffffffffffffffffffffffff600054168151907f2c2a814a0495f913a3a312fc4771e37552bc14f8a2d4075a08122d356f0849c682526020820152f35b610125610113926040519384936312bed5ff60e31b8552604060048601526044850190610297565b83810360031901602485015290610297565b0390fd5b600080fd5b346101295760003660031901126101295760206040517f2c2a814a0495f913a3a312fc4771e37552bc14f8a2d4075a08122d356f0849c68152f35b346101295760203660031901126101295760043573ffffffffffffffffffffffffffffffffffffffff8116809103610129577fffffffffffffffffffffffff00000000000000000000000000000000000000006000541617600055600080f35b346101295760603660031901126101295760443567ffffffffffffffff8111610129576101fa903690600401610218565b60009051610210575b6020906040519015158152f35b506001610203565b81601f820112156101295780359067ffffffffffffffff82116102815760405192601f8301601f19908116603f0116840167ffffffffffffffff811185821017610281576040528284526020838301011161012957816000926020809301838601378301015290565b634e487b7160e01b600052604160045260246000fd5b919082519283825260005b8481106102c3575050826000602080949584010152601f8019910116010190565b806020809284010151828286010152016102a256fea164736f6c634300081b000a",
  "devdoc": {
    "kind": "dev",
    "methods": {},
    "version": 1
  },
  "userdoc": {
    "kind": "user",
    "methods": {},
    "version": 1
  },
  "storageLayout": {
    "storage": [
      {
        "astId": 3634,
        "contract": "contracts/test/MockE3Program.sol:MockE3Program",
        "label": "storageInputValidator",
        "offset": 0,
        "slot": "0",
        "type": "t_contract(IInputValidator)2828"
      }
    ],
    "types": {
      "t_contract(IInputValidator)2828": {
        "encoding": "inplace",
        "label": "contract IInputValidator",
        "numberOfBytes": "20"
      }
    }
  }
}