{
  "address": "0x5886DA898774c6036B0957db10d1FdA979Ae42da",
  "abi": [
    {
      "inputs": [
        {
          "internalType": "address",
          "name": "",
          "type": "address"
        },
        {
          "internalType": "bytes",
          "name": "params",
          "type": "bytes"
        }
      ],
      "name": "validate",
      "outputs": [
        {
          "internalType": "bytes",
          "name": "input",
          "type": "bytes"
        },
        {
          "internalType": "bool",
          "name": "success",
          "type": "bool"
        }
      ],
      "stateMutability": "pure",
      "type": "function"
    }
  ],
  "transactionHash": "0x047b00b9d4caaf80dbfb021987ef0e1cf3181b34b67059e4c59b1effa7fce6d9",
  "args": [],
  "numDeployments": 1,
  "solcInputHash": "21fe30cc06e4cb96958a78cd2e5aab1b",
  "bytecode": "0x60808060405234601557610161908161001b8239f35b600080fdfe6080600436101561000f57600080fd5b60003560e01c63caf927851461002457600080fd5b346101395760403660031901126101395760043573ffffffffffffffffffffffffffffffffffffffff8116036101395760243567ffffffffffffffff811161013957366023820112156101395780600401359067ffffffffffffffff821161013e57601f8201601f19908116603f0116830167ffffffffffffffff81118482101761013e576040528183523660248383010111610139578160009260246020930183860137830101528051600303610131576000905b60405180926040825282519283604084015260005b84811061011957505091606092600084838501015215156020830152601f80199101168101030190f35b602082820181015160608884010152869450016100ef565b6001906100da565b600080fd5b634e487b7160e01b600052604160045260246000fdfea164736f6c634300081b000a",
  "devdoc": {
    "kind": "dev",
    "methods": {},
    "version": 1
  },
  "userdoc": {
    "kind": "user",
    "methods": {},
    "version": 1
  },
  "storageLayout": {
    "storage": [],
    "types": null
  }
}