{
  "address": "0xA707C73146757ebe00FAcD22e96Cd9e0cCA5baC7",
  "abi": [
    {
      "inputs": [],
      "name": "invalidParams",
      "type": "error"
    },
    {
      "inputs": [
        {
          "internalType": "uint256",
          "name": "",
          "type": "uint256"
        },
        {
          "internalType": "uint256",
          "name": "",
          "type": "uint256"
        },
        {
          "internalType": "bytes",
          "name": "params",
          "type": "bytes"
        }
      ],
      "name": "validate",
      "outputs": [
        {
          "internalType": "contract IDecryptionVerifier",
          "name": "decryptionVerifier",
          "type": "address"
        }
      ],
      "stateMutability": "pure",
      "type": "function"
    }
  ],
  "transactionHash": "0x2e08b6f5257abdd783e14d7a284626f942326f5199607c3c2d48053f2e65ca81",
  "args": [],
  "numDeployments": 1,
  "solcInputHash": "21fe30cc06e4cb96958a78cd2e5aab1b",
  "bytecode": "0x6080806040523460155761015d908161001b8239f35b600080fdfe6080604052600436101561001257600080fd5b60003560e01c6323e7fd591461002757600080fd5b346100ea5760603660031901126100ea5760443567ffffffffffffffff81116100ea57366023820112156100ea5780600401359067ffffffffffffffff82116100ef57604051601f8301601f19908116603f0116810167ffffffffffffffff8111828210176100ef5760405282815236602484840101116100ea5760006020846100e69560246100bf96018386013783010152610105565b60405173ffffffffffffffffffffffffffffffffffffffff90911681529081906020820190565b0390f35b600080fd5b634e487b7160e01b600052604160045260246000fd5b602081510361013f576020818051810103126100ea576020015173ffffffffffffffffffffffffffffffffffffffff811681036100ea5790565b63be64db2760e01b60005260046000fdfea164736f6c634300081b000a",
  "devdoc": {
    "kind": "dev",
    "methods": {},
    "version": 1
  },
  "userdoc": {
    "kind": "user",
    "methods": {},
    "version": 1
  },
  "storageLayout": {
    "storage": [],
    "types": null
  }
}