{
  "address": "0x4c19b2b2cE63129B494Cb0b0eCa4a2f761C649D6",
  "abi": [
    {
      "inputs": [
        {
          "internalType": "address",
          "name": "_owner",
          "type": "address"
        },
        {
          "internalType": "address",
          "name": "_enclave",
          "type": "address"
        }
      ],
      "stateMutability": "nonpayable",
      "type": "constructor"
    },
    {
      "inputs": [],
      "name": "CommitteeAlreadyExists",
      "type": "error"
    },
    {
      "inputs": [],
      "name": "CommitteeAlreadyPublished",
      "type": "error"
    },
    {
      "inputs": [],
      "name": "CommitteeDoesNotExist",
      "type": "error"
    },
    {
      "inputs": [],
      "name": "CommitteeNotPublished",
      "type": "error"
    },
    {
      "inputs": [],
      "name": "InvalidInitialization",
      "type": "error"
    },
    {
      "inputs": [],
      "name": "NotInitializing",
      "type": "error"
    },
    {
      "inputs": [],
      "name": "OnlyRegistry",
      "type": "error"
    },
    {
      "inputs": [
        {
          "internalType": "address",
          "name": "owner",
          "type": "address"
        }
      ],
      "name": "OwnableInvalidOwner",
      "type": "error"
    },
    {
      "inputs": [
        {
          "internalType": "address",
          "name": "account",
          "type": "address"
        }
      ],
      "name": "OwnableUnauthorizedAccount",
      "type": "error"
    },
    {
      "anonymous": false,
      "inputs": [
        {
          "indexed": false,
          "internalType": "uint64",
          "name": "version",
          "type": "uint64"
        }
      ],
      "name": "Initialized",
      "type": "event"
    },
    {
      "anonymous": false,
      "inputs": [
        {
          "indexed": true,
          "internalType": "address",
          "name": "previousOwner",
          "type": "address"
        },
        {
          "indexed": true,
          "internalType": "address",
          "name": "newOwner",
          "type": "address"
        }
      ],
      "name": "OwnershipTransferred",
      "type": "event"
    },
    {
      "inputs": [
        {
          "internalType": "uint256",
          "name": "e3",
          "type": "uint256"
        }
      ],
      "name": "committees",
      "outputs": [
        {
          "internalType": "bytes",
          "name": "publicKey",
          "type": "bytes"
        }
      ],
      "stateMutability": "view",
      "type": "function"
    },
    {
      "inputs": [
        {
          "internalType": "address",
          "name": "_owner",
          "type": "address"
        },
        {
          "internalType": "address",
          "name": "_registry",
          "type": "address"
        }
      ],
      "name": "initialize",
      "outputs": [],
      "stateMutability": "nonpayable",
      "type": "function"
    },
    {
      "inputs": [],
      "name": "owner",
      "outputs": [
        {
          "internalType": "address",
          "name": "",
          "type": "address"
        }
      ],
      "stateMutability": "view",
      "type": "function"
    },
    {
      "inputs": [
        {
          "internalType": "uint256",
          "name": "e3Id",
          "type": "uint256"
        },
        {
          "internalType": "address[]",
          "name": "nodes",
          "type": "address[]"
        },
        {
          "internalType": "bytes",
          "name": "publicKey",
          "type": "bytes"
        }
      ],
      "name": "publishCommittee",
      "outputs": [],
      "stateMutability": "nonpayable",
      "type": "function"
    },
    {
      "inputs": [],
      "name": "registry",
      "outputs": [
        {
          "internalType": "address",
          "name": "",
          "type": "address"
        }
      ],
      "stateMutability": "view",
      "type": "function"
    },
    {
      "inputs": [],
      "name": "renounceOwnership",
      "outputs": [],
      "stateMutability": "nonpayable",
      "type": "function"
    },
    {
      "inputs": [
        {
          "internalType": "uint256",
          "name": "e3Id",
          "type": "uint256"
        },
        {
          "internalType": "uint32[2]",
          "name": "threshold",
          "type": "uint32[2]"
        }
      ],
      "name": "requestCommittee",
      "outputs": [
        {
          "internalType": "bool",
          "name": "success",
          "type": "bool"
        }
      ],
      "stateMutability": "nonpayable",
      "type": "function"
    },
    {
      "inputs": [
        {
          "internalType": "address",
          "name": "_registry",
          "type": "address"
        }
      ],
      "name": "setRegistry",
      "outputs": [],
      "stateMutability": "nonpayable",
      "type": "function"
    },
    {
      "inputs": [
        {
          "internalType": "address",
          "name": "newOwner",
          "type": "address"
        }
      ],
      "name": "transferOwnership",
      "outputs": [],
      "stateMutability": "nonpayable",
      "type": "function"
    }
  ],
  "transactionHash": "0x3e1cd2b9beba7d5ca0540a7dc817b897998eed25f69128ab8c18e72213a607bb",
  "args": [
    "0x485E60C486671E932fd9C53d4110cdEab1E7F0eb",
    "0xF9E3aeB059D699Ac4541625DE81062d6D8ad7e85"
  ],
  "numDeployments": 1,
  "solcInputHash": "d0e6e4f19028714f394c36db62dff2be",
  "bytecode": "0x6080346101d657601f610e7c38819003918201601f19168301916001600160401b038311848410176101db5780849260409485528339810103126101d657610052602061004b836101f1565b92016101f1565b600080516020610e5c83398151915254604081901c60ff16159290916001600160401b038316801590816101ce575b60011490816101c4575b1590816101bb575b506101aa576001600160401b03198316600117600080516020610e5c8339815191525561010f928461017f575b506100c961028d565b6100d161028d565b6100da33610205565b6100e26102bb565b600080546001600160a01b0319166001600160a01b039290921691909117905561010a6102bb565b610205565b610123575b604051610b5890816103048239f35b68ff000000000000000019600080516020610e5c8339815191525416600080516020610e5c833981519152557fc7f505b2f371ae2175ee4913f4499e1f2633a7b5936321eed1cdaeb6115181d2602060405160018152a1610114565b6001600160481b0319166801000000000000000117600080516020610e5c83398151915255386100c0565b63f92ee8a960e01b60005260046000fd5b90501538610093565b303b15915061008b565b859150610081565b600080fd5b634e487b7160e01b600052604160045260246000fd5b51906001600160a01b03821682036101d657565b6001600160a01b03168015610277577f9016d09d72d40fdae2fd8ceac6b6234c7706214fd39c1cd1e609a0528c19930080546001600160a01b0319811683179091556001600160a01b03167f8be0079c531659141344cd1fd0a4f28419497f9722a3daafe3b4186f6b6457e0600080a3565b631e4fbdf760e01b600052600060045260246000fd5b60ff600080516020610e5c8339815191525460401c16156102aa57565b631afcd79f60e31b60005260046000fd5b7f9016d09d72d40fdae2fd8ceac6b6234c7706214fd39c1cd1e609a0528c199300546001600160a01b031633036102ee57565b63118cdaa760e01b6000523360045260246000fdfe608080604052600436101561001357600080fd5b600090813560e01c90816329f73b9c14610480575080632b20a4f614610435578063485cc9551461023d578063715018a6146101a45780637b1039991461017e5780638da5cb5b14610138578063a91ee0dc146100f9578063f2fde38b146100cc5763f5e820fd1461008457600080fd5b346100c95760203660031901126100c9576100b1600260406100c593600435815260016020522001610921565b6040519182916020835260208301906109c5565b0390f35b80fd5b50346100c95760203660031901126100c9576100f66100e96108cc565b6100f1610ac3565b610a1d565b80f35b50346100c95760203660031901126100c9576001600160a01b0361011b6108cc565b610123610ac3565b166001600160a01b0319600054161760005580f35b50346100c957806003193601126100c95760206001600160a01b037f9016d09d72d40fdae2fd8ceac6b6234c7706214fd39c1cd1e609a0528c1993005416604051908152f35b50346100c957806003193601126100c9576001600160a01b036020915416604051908152f35b50346100c957806003193601126100c9576101bd610ac3565b806001600160a01b037f9016d09d72d40fdae2fd8ceac6b6234c7706214fd39c1cd1e609a0528c199300546001600160a01b031981167f9016d09d72d40fdae2fd8ceac6b6234c7706214fd39c1cd1e609a0528c19930055167f8be0079c531659141344cd1fd0a4f28419497f9722a3daafe3b4186f6b6457e08280a380f35b50346100c95760403660031901126100c9576102576108cc565b602435906001600160a01b0382168203610431577ff0c57e16840df040f15088dc2f81fe391c3923bec73e23a9662efc9c229c6a00549160ff8360401c16159267ffffffffffffffff811680159081610429575b600114908161041f575b159081610416575b506104075767ffffffffffffffff1981166001177ff0c57e16840df040f15088dc2f81fe391c3923bec73e23a9662efc9c229c6a005561034392916001600160a01b0391856103c8575b50610310610b0b565b610318610b0b565b61032133610a1d565b610329610ac3565b166001600160a01b031960005416176000556100f1610ac3565b61034a5780f35b68ff0000000000000000197ff0c57e16840df040f15088dc2f81fe391c3923bec73e23a9662efc9c229c6a0054167ff0c57e16840df040f15088dc2f81fe391c3923bec73e23a9662efc9c229c6a00557fc7f505b2f371ae2175ee4913f4499e1f2633a7b5936321eed1cdaeb6115181d2602060405160018152a180f35b68ffffffffffffffffff191668010000000000000001177ff0c57e16840df040f15088dc2f81fe391c3923bec73e23a9662efc9c229c6a005538610307565b63f92ee8a960e01b8552600485fd5b905015386102bd565b303b1591506102b5565b8591506102ab565b8280fd5b50346100c95760603660031901126100c957366064116100c957806001600160a01b03600492541633036104745760016020526334c2a65d60e11b8152fd5b6310f5403960e31b8152fd5b82346100c95760603660031901126100c9576004356024359267ffffffffffffffff841161043157366023850112156104315783600401359367ffffffffffffffff8511610880578460051b946104da6020870184610894565b82526020820190602482968201019036821161084457602401915b81831061085c575050506044359167ffffffffffffffff831161070b573660238401121561070b57826004013567ffffffffffffffff81116108485760405193610549601f8301601f191660200186610894565b8185523660248383010111610844578186926024602093018388013785010152610571610ac3565b80845260016020526040842060028101907fc5d2460186f7233c927e7db2dcc703c0e500b653ca82273b7bfad8045d85a4706105ac83610921565b60208151910120036108355783519067ffffffffffffffff821161082157680100000000000000008211610821578054828255808310610806575b508790875260208720875b8381106107e95750505050835167ffffffffffffffff81116107d55761061882546108e7565b601f811161079a575b50806020601f821160011461073957879161072e575b508160011b916000199060031b1c19161790555b6001600160a01b0384541660405192604084019060208086015251809152606084019690865b81811061070f5750505061069283869796959603601f198101855284610894565b803b1561070b578392836106cd936106df6040519889968795869463d9bbec9560e01b865260048601526060602486015260648501906109c5565b838103600319016044850152906109c5565b03925af180156106fe576106f05780f35b6106f991610894565b818180f35b50604051903d90823e3d90fd5b8380fd5b82516001600160a01b0316895260209889019890920191600101610671565b905085015188610637565b8388528088209150601f198316885b81811061078257509083600194939210610769575b5050811b01905561064b565b87015160001960f88460031b161c19169055888061075d565b9192602060018192868c015181550194019201610748565b6107c59083885260208820601f840160051c810191602085106107cb575b601f0160051c0190610a06565b87610621565b90915081906107b8565b634e487b7160e01b86526041600452602486fd5b60019060206001600160a01b0385511694019381840155016105f2565b8188526020882061081b918101908401610a06565b886105e7565b634e487b7160e01b87526041600452602487fd5b63632a22bb60e01b8652600486fd5b8580fd5b634e487b7160e01b85526041600452602485fd5b82356001600160a01b038116810361087c578152602092830192016104f5565b8680fd5b634e487b7160e01b84526041600452602484fd5b90601f8019910116810190811067ffffffffffffffff8211176108b657604052565b634e487b7160e01b600052604160045260246000fd5b600435906001600160a01b03821682036108e257565b600080fd5b90600182811c92168015610917575b602083101461090157565b634e487b7160e01b600052602260045260246000fd5b91607f16916108f6565b9060405191826000825492610935846108e7565b80845293600181169081156109a3575060011461095c575b5061095a92500383610894565b565b90506000929192526020600020906000915b81831061098757505090602061095a928201013861094d565b602091935080600191548385890101520191019091849261096e565b90506020925061095a94915060ff191682840152151560051b8201013861094d565b919082519283825260005b8481106109f1575050826000602080949584010152601f8019910116010190565b806020809284010151828286010152016109d0565b818110610a11575050565b60008155600101610a06565b6001600160a01b03168015610aad576001600160a01b037f9016d09d72d40fdae2fd8ceac6b6234c7706214fd39c1cd1e609a0528c19930054826001600160a01b03198216177f9016d09d72d40fdae2fd8ceac6b6234c7706214fd39c1cd1e609a0528c19930055167f8be0079c531659141344cd1fd0a4f28419497f9722a3daafe3b4186f6b6457e0600080a3565b631e4fbdf760e01b600052600060045260246000fd5b6001600160a01b037f9016d09d72d40fdae2fd8ceac6b6234c7706214fd39c1cd1e609a0528c19930054163303610af657565b63118cdaa760e01b6000523360045260246000fd5b60ff7ff0c57e16840df040f15088dc2f81fe391c3923bec73e23a9662efc9c229c6a005460401c1615610b3a57565b631afcd79f60e31b60005260046000fdfea164736f6c634300081a000af0c57e16840df040f15088dc2f81fe391c3923bec73e23a9662efc9c229c6a00",
  "devdoc": {
    "errors": {
      "InvalidInitialization()": [
        {
          "details": "The contract is already initialized."
        }
      ],
      "NotInitializing()": [
        {
          "details": "The contract is not initializing."
        }
      ],
      "OwnableInvalidOwner(address)": [
        {
          "details": "The owner is not a valid owner account. (eg. `address(0)`)"
        }
      ],
      "OwnableUnauthorizedAccount(address)": [
        {
          "details": "The caller account is not authorized to perform an operation."
        }
      ]
    },
    "events": {
      "Initialized(uint64)": {
        "details": "Triggered when the contract has been initialized or reinitialized."
      }
    },
    "kind": "dev",
    "methods": {
      "owner()": {
        "details": "Returns the address of the current owner."
      },
      "renounceOwnership()": {
        "details": "Leaves the contract without owner. It will not be possible to call `onlyOwner` functions. Can only be called by the current owner. NOTE: Renouncing ownership will leave the contract without an owner, thereby disabling any functionality that is only available to the owner."
      },
      "transferOwnership(address)": {
        "details": "Transfers ownership of the contract to a new account (`newOwner`). Can only be called by the current owner."
      }
    },
    "version": 1
  },
  "userdoc": {
    "kind": "user",
    "methods": {},
    "version": 1
  },
  "storageLayout": {
    "storage": [
      {
        "astId": 2140,
        "contract": "contracts/registry/NaiveRegistryFilter.sol:NaiveRegistryFilter",
        "label": "registry",
        "offset": 0,
        "slot": "0",
        "type": "t_address"
      },
      {
        "astId": 2145,
        "contract": "contracts/registry/NaiveRegistryFilter.sol:NaiveRegistryFilter",
        "label": "committees",
        "offset": 0,
        "slot": "1",
        "type": "t_mapping(t_uint256,t_struct(Committee)2138_storage)"
      }
    ],
    "types": {
      "t_address": {
        "encoding": "inplace",
        "label": "address",
        "numberOfBytes": "20"
      },
      "t_array(t_address)dyn_storage": {
        "base": "t_address",
        "encoding": "dynamic_array",
        "label": "address[]",
        "numberOfBytes": "32"
      },
      "t_array(t_uint32)2_storage": {
        "base": "t_uint32",
        "encoding": "inplace",
        "label": "uint32[2]",
        "numberOfBytes": "32"
      },
      "t_bytes_storage": {
        "encoding": "bytes",
        "label": "bytes",
        "numberOfBytes": "32"
      },
      "t_mapping(t_uint256,t_struct(Committee)2138_storage)": {
        "encoding": "mapping",
        "key": "t_uint256",
        "label": "mapping(uint256 => struct NaiveRegistryFilter.Committee)",
        "numberOfBytes": "32",
        "value": "t_struct(Committee)2138_storage"
      },
      "t_struct(Committee)2138_storage": {
        "encoding": "inplace",
        "label": "struct NaiveRegistryFilter.Committee",
        "members": [
          {
            "astId": 2131,
            "contract": "contracts/registry/NaiveRegistryFilter.sol:NaiveRegistryFilter",
            "label": "nodes",
            "offset": 0,
            "slot": "0",
            "type": "t_array(t_address)dyn_storage"
          },
          {
            "astId": 2135,
            "contract": "contracts/registry/NaiveRegistryFilter.sol:NaiveRegistryFilter",
            "label": "threshold",
            "offset": 0,
            "slot": "1",
            "type": "t_array(t_uint32)2_storage"
          },
          {
            "astId": 2137,
            "contract": "contracts/registry/NaiveRegistryFilter.sol:NaiveRegistryFilter",
            "label": "publicKey",
            "offset": 0,
            "slot": "2",
            "type": "t_bytes_storage"
          }
        ],
        "numberOfBytes": "96"
      },
      "t_uint256": {
        "encoding": "inplace",
        "label": "uint256",
        "numberOfBytes": "32"
      },
      "t_uint32": {
        "encoding": "inplace",
        "label": "uint32",
        "numberOfBytes": "4"
      }
    }
  }
}