{
  "address": "0x1C768fB51e9D33EE1eE9E725cE9241f73a0A2047",
  "abi": [
    {
      "inputs": [
        {
          "internalType": "uint256",
          "name": "",
          "type": "uint256"
        },
        {
          "internalType": "bytes32",
          "name": "",
          "type": "bytes32"
        },
        {
          "internalType": "bytes",
          "name": "data",
          "type": "bytes"
        }
      ],
      "name": "verify",
      "outputs": [
        {
          "internalType": "bool",
          "name": "success",
          "type": "bool"
        }
      ],
      "stateMutability": "pure",
      "type": "function"
    }
  ],
  "transactionHash": "0x5c5d61983080c09c801c48fa04b050b7310abe2dab1b69e313f8820ac57f34dd",
  "args": [],
  "numDeployments": 1,
  "solcInputHash": "c9b7037486bd8b1125ffad462d6531cb",
  "bytecode": "0x6080806040523460145760e9908161001a8239f35b600080fdfe60806004361015600e57600080fd5b60003560e01c632f0e1bbf14602257600080fd5b3460c157606036600319011260c15760443567ffffffffffffffff811160c1573660238201121560c15780600401359067ffffffffffffffff821160c657601f8201601f19908116603f0116830167ffffffffffffffff81118482101760c657604052818352366024838301011160c1578160009260246020930183860137830101526000905160ba575b6020906040519015158152f35b50600160ad565b600080fd5b634e487b7160e01b600052604160045260246000fdfea164736f6c634300081b000a",
  "devdoc": {
    "kind": "dev",
    "methods": {},
    "version": 1
  },
  "userdoc": {
    "kind": "user",
    "methods": {},
    "version": 1
  },
  "storageLayout": {
    "storage": [],
    "types": null
  }
}