{
  "address": "0xc7fe6Ee2e3e3Da8E1448B3531f92c676B06257b5",
  "abi": [
    {
      "inputs": [
        {
          "internalType": "contract IInputValidator",
          "name": "_inputValidator",
          "type": "address"
        }
      ],
      "stateMutability": "nonpayable",
      "type": "constructor"
    },
    {
      "inputs": [],
      "name": "E3AlreadyInitialized",
      "type": "error"
    },
    {
      "inputs": [],
      "name": "InvalidInputValidator",
      "type": "error"
    },
    {
      "inputs": [
        {
          "internalType": "bytes",
          "name": "e3ProgramParams",
          "type": "bytes"
        },
        {
          "internalType": "bytes",
          "name": "computeProviderParams",
          "type": "bytes"
        }
      ],
      "name": "invalidParams",
      "type": "error"
    },
    {
      "inputs": [],
      "name": "ENCRYPTION_SCHEME_ID",
      "outputs": [
        {
          "internalType": "bytes32",
          "name": "",
          "type": "bytes32"
        }
      ],
      "stateMutability": "view",
      "type": "function"
    },
    {
      "inputs": [],
      "name": "inputValidator",
      "outputs": [
        {
          "internalType": "contract IInputValidator",
          "name": "",
          "type": "address"
        }
      ],
      "stateMutability": "view",
      "type": "function"
    },
    {
      "inputs": [
        {
          "internalType": "uint256",
          "name": "e3Id",
          "type": "uint256"
        }
      ],
      "name": "paramsHashes",
      "outputs": [
        {
          "internalType": "bytes32",
          "name": "paramsHash",
          "type": "bytes32"
        }
      ],
      "stateMutability": "view",
      "type": "function"
    },
    {
      "inputs": [
        {
          "internalType": "uint256",
          "name": "e3Id",
          "type": "uint256"
        },
        {
          "internalType": "uint256",
          "name": "",
          "type": "uint256"
        },
        {
          "internalType": "bytes",
          "name": "e3ProgramParams",
          "type": "bytes"
        },
        {
          "internalType": "bytes",
          "name": "computeProviderParams",
          "type": "bytes"
        }
      ],
      "name": "validate",
      "outputs": [
        {
          "internalType": "bytes32",
          "name": "",
          "type": "bytes32"
        },
        {
          "internalType": "contract IInputValidator",
          "name": "",
          "type": "address"
        }
      ],
      "stateMutability": "nonpayable",
      "type": "function"
    },
    {
      "inputs": [
        {
          "internalType": "uint256",
          "name": "",
          "type": "uint256"
        },
        {
          "internalType": "bytes32",
          "name": "",
          "type": "bytes32"
        },
        {
          "internalType": "bytes",
          "name": "data",
          "type": "bytes"
        }
      ],
      "name": "verify",
      "outputs": [
        {
          "internalType": "bool",
          "name": "success",
          "type": "bool"
        }
      ],
      "stateMutability": "pure",
      "type": "function"
    }
  ],
  "transactionHash": "0x3876bae2247b8651c1c466eab1db3a97142acfe6206f3b7e5e5b9433b9211f91",
  "args": [
    "0xe2be22b924CAF680500497f5Ba77A927EbdeD1Ae"
  ],
  "numDeployments": 2,
  "solcInputHash": "f32a0aa4ee06fa210859a817cc9dafc5",
  "bytecode": "0x608034608657601f61040c38819003918201601f19168301916001600160401b03831184841017608b57808492602094604052833981010312608657516001600160a01b038116908190036086578015607557600080546001600160a01b03191691909117905560405161036a90816100a28239f35b6310160a0760e11b60005260046000fd5b600080fd5b634e487b7160e01b600052604160045260246000fdfe608080604052600436101561001357600080fd5b60003560e01c908163143c083614610277575080632f0e1bbf1461021757806378d89187146101dc578063a3926079146101a85763a61d7e3e1461005657600080fd5b346101a35760803660031901126101a35760043560443567ffffffffffffffff81116101a35761008a90369060040161030e565b9060643567ffffffffffffffff81116101a3576100ab90369060040161030e565b60208103610163575050826000526001602052604060002054610152576100f4916100d736828461029f565b60208151910120846000526001602052604060002055369161029f565b60208151910120906000526001602052604060002055604073ffffffffffffffffffffffffffffffffffffffff600054168151907f2c2a814a0495f913a3a312fc4771e37552bc14f8a2d4075a08122d356f0849c682526020820152f35b6335751e3760e11b60005260046000fd5b61019f92945061018d6040519586956312bed5ff60e31b875260406004880152604487019161033c565b8481036003190160248601529161033c565b0390fd5b600080fd5b346101a35760003660031901126101a357602073ffffffffffffffffffffffffffffffffffffffff60005416604051908152f35b346101a35760003660031901126101a35760206040517f2c2a814a0495f913a3a312fc4771e37552bc14f8a2d4075a08122d356f0849c68152f35b346101a35760603660031901126101a35760443567ffffffffffffffff81116101a357366023820112156101a35761025990369060248160040135910161029f565b6000905161026f575b6020906040519015158152f35b506001610262565b346101a35760203660031901126101a357602090600435600052600182526040600020548152f35b92919267ffffffffffffffff82116102f85760405191601f8101601f19908116603f0116830167ffffffffffffffff8111848210176102f8576040528294818452818301116101a3578281602093846000960137010152565b634e487b7160e01b600052604160045260246000fd5b9181601f840112156101a35782359167ffffffffffffffff83116101a357602083818601950101116101a357565b908060209392818452848401376000828201840152601f01601f191601019056fea164736f6c634300081b000a",
  "devdoc": {
    "kind": "dev",
    "methods": {},
    "version": 1
  },
  "userdoc": {
    "kind": "user",
    "methods": {},
    "version": 1
  },
  "storageLayout": {
    "storage": [
      {
        "astId": 71,
        "contract": "contracts/test/MockE3Program.sol:MockE3Program",
        "label": "inputValidator",
        "offset": 0,
        "slot": "0",
        "type": "t_contract(IInputValidator)46"
      },
      {
        "astId": 75,
        "contract": "contracts/test/MockE3Program.sol:MockE3Program",
        "label": "paramsHashes",
        "offset": 0,
        "slot": "1",
        "type": "t_mapping(t_uint256,t_bytes32)"
      }
    ],
    "types": {
      "t_bytes32": {
        "encoding": "inplace",
        "label": "bytes32",
        "numberOfBytes": "32"
      },
      "t_contract(IInputValidator)46": {
        "encoding": "inplace",
        "label": "contract IInputValidator",
        "numberOfBytes": "20"
      },
      "t_mapping(t_uint256,t_bytes32)": {
        "encoding": "mapping",
        "key": "t_uint256",
        "label": "mapping(uint256 => bytes32)",
        "numberOfBytes": "32",
        "value": "t_bytes32"
      },
      "t_uint256": {
        "encoding": "inplace",
        "label": "uint256",
        "numberOfBytes": "32"
      }
    }
  }
}