{
  "address": "0xe2be22b924CAF680500497f5Ba77A927EbdeD1Ae",
  "abi": [
    {
      "inputs": [],
      "name": "InvalidInput",
      "type": "error"
    },
    {
      "inputs": [
        {
          "internalType": "address",
          "name": "sender",
          "type": "address"
        },
        {
          "internalType": "bytes",
          "name": "data",
          "type": "bytes"
        }
      ],
      "name": "validate",
      "outputs": [
        {
          "internalType": "bytes",
          "name": "input",
          "type": "bytes"
        }
      ],
      "stateMutability": "pure",
      "type": "function"
    }
  ],
  "transactionHash": "0xe3bc8ded11d3d01c8274925fb6098ead7d18e415696d76147e7ae07cff5e240c",
  "args": [],
  "numDeployments": 2,
  "solcInputHash": "f32a0aa4ee06fa210859a817cc9dafc5",
  "bytecode": "0x60808060405234601557610172908161001b8239f35b600080fdfe6080600436101561000f57600080fd5b60003560e01c63caf927851461002457600080fd5b3461014a57604036600319011261014a5760043573ffffffffffffffffffffffffffffffffffffffff811680910361014a5760243567ffffffffffffffff811161014a573660238201121561014a5780600401359067ffffffffffffffff821161014f57601f8201601f19908116603f0116840167ffffffffffffffff81118582101761014f57604052818452366024838301011161014a578160009260246020930183870137840101526003825114908115610141575b506101305760405190602082528181519182602083015260005b8381106101185750508160006040809484010152601f80199101168101030190f35b602082820181015160408784010152859350016100f6565b63b4fa3fb360e01b60005260046000fd5b905015386100dc565b600080fd5b634e487b7160e01b600052604160045260246000fdfea164736f6c634300081b000a",
  "devdoc": {
    "kind": "dev",
    "methods": {
      "validate(address,bytes)": {
        "params": {
          "data": "The input to be verified.",
          "sender": "The account that is submitting the input."
        },
        "returns": {
          "input": "The decoded, policy-approved application payload."
        }
      }
    },
    "title": "MockInputValidator.",
    "version": 1
  },
  "userdoc": {
    "kind": "user",
    "methods": {
      "validate(address,bytes)": {
        "notice": "Validates input"
      }
    },
    "notice": "Enclave Input Validator",
    "version": 1
  },
  "storageLayout": {
    "storage": [],
    "types": null
  }
}