{
  "_format": "hh3-artifact-1",
  "contractName": "Enclave",
  "sourceName": "contracts/Enclave.sol",
  "abi": [
    {
      "inputs": [],
      "stateMutability": "nonpayable",
      "type": "constructor"
    },
    {
      "inputs": [
        {
          "internalType": "uint256",
          "name": "size",
          "type": "uint256"
        },
        {
          "internalType": "uint256",
          "name": "minimum",
          "type": "uint256"
        }
      ],
      "name": "BelowMinCommitteeSize",
      "type": "error"
    },
    {
      "inputs": [
        {
          "internalType": "uint256",
          "name": "threshold",
          "type": "uint256"
        },
        {
          "internalType": "uint256",
          "name": "minimum",
          "type": "uint256"
        }
      ],
      "name": "BelowMinThreshold",
      "type": "error"
    },
    {
      "inputs": [
        {
          "internalType": "uint256",
          "name": "value",
          "type": "uint256"
        }
      ],
      "name": "BpsExceedsMax",
      "type": "error"
    },
    {
      "inputs": [
        {
          "internalType": "uint256",
          "name": "e3Id",
          "type": "uint256"
        }
      ],
      "name": "CiphertextOutputAlreadyPublished",
      "type": "error"
    },
    {
      "inputs": [
        {
          "internalType": "uint256",
          "name": "e3Id",
          "type": "uint256"
        }
      ],
      "name": "CiphertextOutputNotPublished",
      "type": "error"
    },
    {
      "inputs": [
        {
          "internalType": "uint256",
          "name": "e3Id",
          "type": "uint256"
        },
        {
          "internalType": "uint256",
          "name": "expiration",
          "type": "uint256"
        }
      ],
      "name": "CommitteeDutiesCompleted",
      "type": "error"
    },
    {
      "inputs": [],
      "name": "CommitteeSelectionFailed",
      "type": "error"
    },
    {
      "inputs": [
        {
          "internalType": "enum IEnclave.CommitteeSize",
          "name": "committeeSize",
          "type": "uint8"
        }
      ],
      "name": "CommitteeSizeNotConfigured",
      "type": "error"
    },
    {
      "inputs": [
        {
          "internalType": "enum IEnclave.CommitteeSize",
          "name": "committeeSize",
          "type": "uint8"
        }
      ],
      "name": "CommitteeSizeTooSmall",
      "type": "error"
    },
    {
      "inputs": [
        {
          "internalType": "uint256",
          "name": "e3Id",
          "type": "uint256"
        }
      ],
      "name": "E3AlreadyComplete",
      "type": "error"
    },
    {
      "inputs": [
        {
          "internalType": "uint256",
          "name": "e3Id",
          "type": "uint256"
        }
      ],
      "name": "E3AlreadyFailed",
      "type": "error"
    },
    {
      "inputs": [
        {
          "internalType": "uint256",
          "name": "e3Id",
          "type": "uint256"
        }
      ],
      "name": "E3DoesNotExist",
      "type": "error"
    },
    {
      "inputs": [
        {
          "internalType": "uint256",
          "name": "e3Id",
          "type": "uint256"
        }
      ],
      "name": "E3NotFailed",
      "type": "error"
    },
    {
      "inputs": [
        {
          "internalType": "contract IE3Program",
          "name": "e3Program",
          "type": "address"
        }
      ],
      "name": "E3ProgramNotAllowed",
      "type": "error"
    },
    {
      "inputs": [
        {
          "internalType": "uint256",
          "name": "e3Id",
          "type": "uint256"
        }
      ],
      "name": "FailureConditionNotMet",
      "type": "error"
    },
    {
      "inputs": [
        {
          "internalType": "uint256",
          "name": "e3Id",
          "type": "uint256"
        },
        {
          "internalType": "uint256",
          "name": "inputDeadline",
          "type": "uint256"
        }
      ],
      "name": "InputDeadlineNotReached",
      "type": "error"
    },
    {
      "inputs": [
        {
          "internalType": "contract IBondingRegistry",
          "name": "bondingRegistry",
          "type": "address"
        }
      ],
      "name": "InvalidBondingRegistry",
      "type": "error"
    },
    {
      "inputs": [
        {
          "internalType": "contract ICiphernodeRegistry",
          "name": "ciphernodeRegistry",
          "type": "address"
        }
      ],
      "name": "InvalidCiphernodeRegistry",
      "type": "error"
    },
    {
      "inputs": [
        {
          "internalType": "uint256",
          "name": "duration",
          "type": "uint256"
        }
      ],
      "name": "InvalidDuration",
      "type": "error"
    },
    {
      "inputs": [
        {
          "internalType": "bytes32",
          "name": "encryptionSchemeId",
          "type": "bytes32"
        }
      ],
      "name": "InvalidEncryptionScheme",
      "type": "error"
    },
    {
      "inputs": [
        {
          "internalType": "contract IERC20",
          "name": "feeToken",
          "type": "address"
        }
      ],
      "name": "InvalidFeeToken",
      "type": "error"
    },
    {
      "inputs": [],
      "name": "InvalidInitialization",
      "type": "error"
    },
    {
      "inputs": [
        {
          "internalType": "uint256",
          "name": "deadline",
          "type": "uint256"
        }
      ],
      "name": "InvalidInputDeadline",
      "type": "error"
    },
    {
      "inputs": [
        {
          "internalType": "uint256",
          "name": "end",
          "type": "uint256"
        }
      ],
      "name": "InvalidInputDeadlineEnd",
      "type": "error"
    },
    {
      "inputs": [
        {
          "internalType": "uint256",
          "name": "start",
          "type": "uint256"
        }
      ],
      "name": "InvalidInputDeadlineStart",
      "type": "error"
    },
    {
      "inputs": [
        {
          "internalType": "bytes",
          "name": "output",
          "type": "bytes"
        }
      ],
      "name": "InvalidOutput",
      "type": "error"
    },
    {
      "inputs": [
        {
          "internalType": "uint256",
          "name": "e3Id",
          "type": "uint256"
        },
        {
          "internalType": "enum IEnclave.E3Stage",
          "name": "expected",
          "type": "uint8"
        },
        {
          "internalType": "enum IEnclave.E3Stage",
          "name": "actual",
          "type": "uint8"
        }
      ],
      "name": "InvalidStage",
      "type": "error"
    },
    {
      "inputs": [],
      "name": "InvalidThresholdValues",
      "type": "error"
    },
    {
      "inputs": [],
      "name": "InvalidTimeoutWindow",
      "type": "error"
    },
    {
      "inputs": [],
      "name": "MinSizeBelowMinThreshold",
      "type": "error"
    },
    {
      "inputs": [
        {
          "internalType": "address",
          "name": "module",
          "type": "address"
        }
      ],
      "name": "ModuleAlreadyEnabled",
      "type": "error"
    },
    {
      "inputs": [
        {
          "internalType": "address",
          "name": "module",
          "type": "address"
        }
      ],
      "name": "ModuleNotEnabled",
      "type": "error"
    },
    {
      "inputs": [
        {
          "internalType": "uint256",
          "name": "e3Id",
          "type": "uint256"
        }
      ],
      "name": "NoPaymentToRefund",
      "type": "error"
    },
    {
      "inputs": [],
      "name": "NotInitializing",
      "type": "error"
    },
    {
      "inputs": [],
      "name": "OnlyCiphernodeRegistry",
      "type": "error"
    },
    {
      "inputs": [],
      "name": "OnlyCiphernodeRegistryOrSlashingManager",
      "type": "error"
    },
    {
      "inputs": [],
      "name": "OnlySlashingManager",
      "type": "error"
    },
    {
      "inputs": [
        {
          "internalType": "address",
          "name": "owner",
          "type": "address"
        }
      ],
      "name": "OwnableInvalidOwner",
      "type": "error"
    },
    {
      "inputs": [
        {
          "internalType": "address",
          "name": "account",
          "type": "address"
        }
      ],
      "name": "OwnableUnauthorizedAccount",
      "type": "error"
    },
    {
      "inputs": [
        {
          "internalType": "uint256",
          "name": "value",
          "type": "uint256"
        }
      ],
      "name": "PaymentRequired",
      "type": "error"
    },
    {
      "inputs": [
        {
          "internalType": "uint256",
          "name": "e3Id",
          "type": "uint256"
        }
      ],
      "name": "PlaintextOutputAlreadyPublished",
      "type": "error"
    },
    {
      "inputs": [
        {
          "internalType": "address",
          "name": "token",
          "type": "address"
        }
      ],
      "name": "SafeERC20FailedOperation",
      "type": "error"
    },
    {
      "inputs": [
        {
          "internalType": "uint256",
          "name": "threshold",
          "type": "uint256"
        }
      ],
      "name": "ThresholdTooSmall",
      "type": "error"
    },
    {
      "inputs": [],
      "name": "TreasuryRequired",
      "type": "error"
    },
    {
      "inputs": [
        {
          "internalType": "uint256",
          "name": "value",
          "type": "uint256"
        }
      ],
      "name": "UtilizationBpsExceedsMax",
      "type": "error"
    },
    {
      "anonymous": false,
      "inputs": [
        {
          "indexed": false,
          "internalType": "address",
          "name": "bondingRegistry",
          "type": "address"
        }
      ],
      "name": "BondingRegistrySet",
      "type": "event"
    },
    {
      "anonymous": false,
      "inputs": [
        {
          "indexed": false,
          "internalType": "address",
          "name": "ciphernodeRegistry",
          "type": "address"
        }
      ],
      "name": "CiphernodeRegistrySet",
      "type": "event"
    },
    {
      "anonymous": false,
      "inputs": [
        {
          "indexed": true,
          "internalType": "uint256",
          "name": "e3Id",
          "type": "uint256"
        },
        {
          "indexed": false,
          "internalType": "bytes",
          "name": "ciphertextOutput",
          "type": "bytes"
        }
      ],
      "name": "CiphertextOutputPublished",
      "type": "event"
    },
    {
      "anonymous": false,
      "inputs": [
        {
          "indexed": true,
          "internalType": "uint256",
          "name": "e3Id",
          "type": "uint256"
        }
      ],
      "name": "CommitteeFinalized",
      "type": "event"
    },
    {
      "anonymous": false,
      "inputs": [
        {
          "indexed": true,
          "internalType": "uint256",
          "name": "e3Id",
          "type": "uint256"
        }
      ],
      "name": "CommitteeFormed",
      "type": "event"
    },
    {
      "anonymous": false,
      "inputs": [
        {
          "indexed": true,
          "internalType": "enum IEnclave.CommitteeSize",
          "name": "size",
          "type": "uint8"
        },
        {
          "indexed": false,
          "internalType": "uint32[2]",
          "name": "threshold",
          "type": "uint32[2]"
        }
      ],
      "name": "CommitteeThresholdsUpdated",
      "type": "event"
    },
    {
      "anonymous": false,
      "inputs": [
        {
          "indexed": true,
          "internalType": "uint256",
          "name": "e3Id",
          "type": "uint256"
        },
        {
          "indexed": false,
          "internalType": "enum IEnclave.E3Stage",
          "name": "failedAtStage",
          "type": "uint8"
        },
        {
          "indexed": false,
          "internalType": "enum IEnclave.FailureReason",
          "name": "reason",
          "type": "uint8"
        }
      ],
      "name": "E3Failed",
      "type": "event"
    },
    {
      "anonymous": false,
      "inputs": [
        {
          "indexed": true,
          "internalType": "uint256",
          "name": "e3Id",
          "type": "uint256"
        },
        {
          "indexed": false,
          "internalType": "uint256",
          "name": "paymentAmount",
          "type": "uint256"
        },
        {
          "indexed": false,
          "internalType": "uint256",
          "name": "honestNodeCount",
          "type": "uint256"
        }
      ],
      "name": "E3FailureProcessed",
      "type": "event"
    },
    {
      "anonymous": false,
      "inputs": [
        {
          "indexed": false,
          "internalType": "contract IE3Program",
          "name": "e3Program",
          "type": "address"
        }
      ],
      "name": "E3ProgramDisabled",
      "type": "event"
    },
    {
      "anonymous": false,
      "inputs": [
        {
          "indexed": false,
          "internalType": "contract IE3Program",
          "name": "e3Program",
          "type": "address"
        }
      ],
      "name": "E3ProgramEnabled",
      "type": "event"
    },
    {
      "anonymous": false,
      "inputs": [
        {
          "indexed": true,
          "internalType": "address",
          "name": "e3RefundManager",
          "type": "address"
        }
      ],
      "name": "E3RefundManagerSet",
      "type": "event"
    },
    {
      "anonymous": false,
      "inputs": [
        {
          "indexed": false,
          "internalType": "uint256",
          "name": "e3Id",
          "type": "uint256"
        },
        {
          "components": [
            {
              "internalType": "uint256",
              "name": "seed",
              "type": "uint256"
            },
            {
              "internalType": "enum IEnclave.CommitteeSize",
              "name": "committeeSize",
              "type": "uint8"
            },
            {
              "internalType": "uint256",
              "name": "requestBlock",
              "type": "uint256"
            },
            {
              "internalType": "uint256[2]",
              "name": "inputWindow",
              "type": "uint256[2]"
            },
            {
              "internalType": "bytes32",
              "name": "encryptionSchemeId",
              "type": "bytes32"
            },
            {
              "internalType": "contract IE3Program",
              "name": "e3Program",
              "type": "address"
            },
            {
              "internalType": "enum IEnclave.ParamSet",
              "name": "paramSet",
              "type": "uint8"
            },
            {
              "internalType": "bytes",
              "name": "customParams",
              "type": "bytes"
            },
            {
              "internalType": "contract IDecryptionVerifier",
              "name": "decryptionVerifier",
              "type": "address"
            },
            {
              "internalType": "contract IPkVerifier",
              "name": "pkVerifier",
              "type": "address"
            },
            {
              "internalType": "bytes32",
              "name": "committeePublicKey",
              "type": "bytes32"
            },
            {
              "internalType": "bytes32",
              "name": "ciphertextOutput",
              "type": "bytes32"
            },
            {
              "internalType": "bytes",
              "name": "plaintextOutput",
              "type": "bytes"
            },
            {
              "internalType": "address",
              "name": "requester",
              "type": "address"
            },
            {
              "internalType": "bool",
              "name": "proofAggregationEnabled",
              "type": "bool"
            }
          ],
          "indexed": false,
          "internalType": "struct E3",
          "name": "e3",
          "type": "tuple"
        },
        {
          "indexed": true,
          "internalType": "contract IE3Program",
          "name": "e3Program",
          "type": "address"
        }
      ],
      "name": "E3Requested",
      "type": "event"
    },
    {
      "anonymous": false,
      "inputs": [
        {
          "indexed": true,
          "internalType": "uint256",
          "name": "e3Id",
          "type": "uint256"
        },
        {
          "indexed": false,
          "internalType": "enum IEnclave.E3Stage",
          "name": "previousStage",
          "type": "uint8"
        },
        {
          "indexed": false,
          "internalType": "enum IEnclave.E3Stage",
          "name": "newStage",
          "type": "uint8"
        }
      ],
      "name": "E3StageChanged",
      "type": "event"
    },
    {
      "anonymous": false,
      "inputs": [
        {
          "indexed": false,
          "internalType": "bytes32",
          "name": "encryptionSchemeId",
          "type": "bytes32"
        }
      ],
      "name": "EncryptionSchemeDisabled",
      "type": "event"
    },
    {
      "anonymous": false,
      "inputs": [
        {
          "indexed": false,
          "internalType": "bytes32",
          "name": "encryptionSchemeId",
          "type": "bytes32"
        }
      ],
      "name": "EncryptionSchemeEnabled",
      "type": "event"
    },
    {
      "anonymous": false,
      "inputs": [
        {
          "indexed": false,
          "internalType": "address",
          "name": "feeToken",
          "type": "address"
        }
      ],
      "name": "FeeTokenSet",
      "type": "event"
    },
    {
      "anonymous": false,
      "inputs": [
        {
          "indexed": false,
          "internalType": "uint64",
          "name": "version",
          "type": "uint64"
        }
      ],
      "name": "Initialized",
      "type": "event"
    },
    {
      "anonymous": false,
      "inputs": [
        {
          "indexed": true,
          "internalType": "uint256",
          "name": "e3Id",
          "type": "uint256"
        },
        {
          "indexed": false,
          "internalType": "bytes",
          "name": "data",
          "type": "bytes"
        },
        {
          "indexed": false,
          "internalType": "uint256",
          "name": "inputHash",
          "type": "uint256"
        },
        {
          "indexed": false,
          "internalType": "uint256",
          "name": "index",
          "type": "uint256"
        }
      ],
      "name": "InputPublished",
      "type": "event"
    },
    {
      "anonymous": false,
      "inputs": [
        {
          "indexed": false,
          "internalType": "uint256",
          "name": "maxDuration",
          "type": "uint256"
        }
      ],
      "name": "MaxDurationSet",
      "type": "event"
    },
    {
      "anonymous": false,
      "inputs": [
        {
          "indexed": true,
          "internalType": "address",
          "name": "previousOwner",
          "type": "address"
        },
        {
          "indexed": true,
          "internalType": "address",
          "name": "newOwner",
          "type": "address"
        }
      ],
      "name": "OwnershipTransferred",
      "type": "event"
    },
    {
      "anonymous": false,
      "inputs": [
        {
          "indexed": false,
          "internalType": "enum IEnclave.ParamSet",
          "name": "paramSet",
          "type": "uint8"
        },
        {
          "indexed": false,
          "internalType": "bytes",
          "name": "encodedParams",
          "type": "bytes"
        }
      ],
      "name": "ParamSetRegistered",
      "type": "event"
    },
    {
      "anonymous": false,
      "inputs": [
        {
          "indexed": true,
          "internalType": "uint256",
          "name": "e3Id",
          "type": "uint256"
        },
        {
          "indexed": false,
          "internalType": "bytes",
          "name": "plaintextOutput",
          "type": "bytes"
        },
        {
          "indexed": false,
          "internalType": "bytes",
          "name": "proof",
          "type": "bytes"
        }
      ],
      "name": "PlaintextOutputPublished",
      "type": "event"
    },
    {
      "anonymous": false,
      "inputs": [
        {
          "components": [
            {
              "internalType": "uint256",
              "name": "keyGenFixedPerNode",
              "type": "uint256"
            },
            {
              "internalType": "uint256",
              "name": "keyGenPerEncryptionProof",
              "type": "uint256"
            },
            {
              "internalType": "uint256",
              "name": "coordinationPerPair",
              "type": "uint256"
            },
            {
              "internalType": "uint256",
              "name": "availabilityPerNodePerSec",
              "type": "uint256"
            },
            {
              "internalType": "uint256",
              "name": "decryptionPerNode",
              "type": "uint256"
            },
            {
              "internalType": "uint256",
              "name": "publicationBase",
              "type": "uint256"
            },
            {
              "internalType": "uint256",
              "name": "verificationPerProof",
              "type": "uint256"
            },
            {
              "internalType": "address",
              "name": "protocolTreasury",
              "type": "address"
            },
            {
              "internalType": "uint16",
              "name": "marginBps",
              "type": "uint16"
            },
            {
              "internalType": "uint16",
              "name": "protocolShareBps",
              "type": "uint16"
            },
            {
              "internalType": "uint16",
              "name": "dkgUtilizationBps",
              "type": "uint16"
            },
            {
              "internalType": "uint16",
              "name": "computeUtilizationBps",
              "type": "uint16"
            },
            {
              "internalType": "uint16",
              "name": "decryptUtilizationBps",
              "type": "uint16"
            },
            {
              "internalType": "uint32",
              "name": "minCommitteeSize",
              "type": "uint32"
            },
            {
              "internalType": "uint32",
              "name": "minThreshold",
              "type": "uint32"
            }
          ],
          "indexed": false,
          "internalType": "struct IEnclave.PricingConfig",
          "name": "config",
          "type": "tuple"
        }
      ],
      "name": "PricingConfigUpdated",
      "type": "event"
    },
    {
      "anonymous": false,
      "inputs": [
        {
          "indexed": true,
          "internalType": "uint256",
          "name": "e3Id",
          "type": "uint256"
        },
        {
          "indexed": false,
          "internalType": "address[]",
          "name": "nodes",
          "type": "address[]"
        },
        {
          "indexed": false,
          "internalType": "uint256[]",
          "name": "amounts",
          "type": "uint256[]"
        }
      ],
      "name": "RewardsDistributed",
      "type": "event"
    },
    {
      "anonymous": false,
      "inputs": [
        {
          "indexed": true,
          "internalType": "uint256",
          "name": "e3Id",
          "type": "uint256"
        },
        {
          "indexed": false,
          "internalType": "uint256",
          "name": "amount",
          "type": "uint256"
        }
      ],
      "name": "SlashedFundsEscrowed",
      "type": "event"
    },
    {
      "anonymous": false,
      "inputs": [
        {
          "indexed": true,
          "internalType": "address",
          "name": "slashingManager",
          "type": "address"
        }
      ],
      "name": "SlashingManagerSet",
      "type": "event"
    },
    {
      "anonymous": false,
      "inputs": [
        {
          "components": [
            {
              "internalType": "uint256",
              "name": "dkgWindow",
              "type": "uint256"
            },
            {
              "internalType": "uint256",
              "name": "computeWindow",
              "type": "uint256"
            },
            {
              "internalType": "uint256",
              "name": "decryptionWindow",
              "type": "uint256"
            }
          ],
          "indexed": false,
          "internalType": "struct IEnclave.E3TimeoutConfig",
          "name": "config",
          "type": "tuple"
        }
      ],
      "name": "TimeoutConfigUpdated",
      "type": "event"
    },
    {
      "inputs": [],
      "name": "bondingRegistry",
      "outputs": [
        {
          "internalType": "contract IBondingRegistry",
          "name": "",
          "type": "address"
        }
      ],
      "stateMutability": "view",
      "type": "function"
    },
    {
      "inputs": [
        {
          "internalType": "uint256",
          "name": "e3Id",
          "type": "uint256"
        }
      ],
      "name": "checkFailureCondition",
      "outputs": [
        {
          "internalType": "bool",
          "name": "canFail",
          "type": "bool"
        },
        {
          "internalType": "enum IEnclave.FailureReason",
          "name": "reason",
          "type": "uint8"
        }
      ],
      "stateMutability": "view",
      "type": "function"
    },
    {
      "inputs": [],
      "name": "ciphernodeRegistry",
      "outputs": [
        {
          "internalType": "contract ICiphernodeRegistry",
          "name": "",
          "type": "address"
        }
      ],
      "stateMutability": "view",
      "type": "function"
    },
    {
      "inputs": [
        {
          "internalType": "enum IEnclave.CommitteeSize",
          "name": "",
          "type": "uint8"
        },
        {
          "internalType": "uint256",
          "name": "",
          "type": "uint256"
        }
      ],
      "name": "committeeThresholds",
      "outputs": [
        {
          "internalType": "uint32",
          "name": "threshold",
          "type": "uint32"
        }
      ],
      "stateMutability": "view",
      "type": "function"
    },
    {
      "inputs": [
        {
          "internalType": "bytes32",
          "name": "encryptionSchemeId",
          "type": "bytes32"
        }
      ],
      "name": "decryptionVerifiers",
      "outputs": [
        {
          "internalType": "contract IDecryptionVerifier",
          "name": "decryptionVerifier",
          "type": "address"
        }
      ],
      "stateMutability": "view",
      "type": "function"
    },
    {
      "inputs": [
        {
          "internalType": "contract IE3Program",
          "name": "e3Program",
          "type": "address"
        }
      ],
      "name": "disableE3Program",
      "outputs": [],
      "stateMutability": "nonpayable",
      "type": "function"
    },
    {
      "inputs": [
        {
          "internalType": "bytes32",
          "name": "encryptionSchemeId",
          "type": "bytes32"
        }
      ],
      "name": "disableEncryptionScheme",
      "outputs": [],
      "stateMutability": "nonpayable",
      "type": "function"
    },
    {
      "inputs": [
        {
          "internalType": "uint256",
          "name": "e3Id",
          "type": "uint256"
        }
      ],
      "name": "e3Payments",
      "outputs": [
        {
          "internalType": "uint256",
          "name": "e3Payment",
          "type": "uint256"
        }
      ],
      "stateMutability": "view",
      "type": "function"
    },
    {
      "inputs": [
        {
          "internalType": "contract IE3Program",
          "name": "e3Program",
          "type": "address"
        }
      ],
      "name": "e3Programs",
      "outputs": [
        {
          "internalType": "bool",
          "name": "allowed",
          "type": "bool"
        }
      ],
      "stateMutability": "view",
      "type": "function"
    },
    {
      "inputs": [],
      "name": "e3RefundManager",
      "outputs": [
        {
          "internalType": "contract IE3RefundManager",
          "name": "",
          "type": "address"
        }
      ],
      "stateMutability": "view",
      "type": "function"
    },
    {
      "inputs": [
        {
          "internalType": "uint256",
          "name": "e3Id",
          "type": "uint256"
        }
      ],
      "name": "e3s",
      "outputs": [
        {
          "internalType": "uint256",
          "name": "seed",
          "type": "uint256"
        },
        {
          "internalType": "enum IEnclave.CommitteeSize",
          "name": "committeeSize",
          "type": "uint8"
        },
        {
          "internalType": "uint256",
          "name": "requestBlock",
          "type": "uint256"
        },
        {
          "internalType": "bytes32",
          "name": "encryptionSchemeId",
          "type": "bytes32"
        },
        {
          "internalType": "contract IE3Program",
          "name": "e3Program",
          "type": "address"
        },
        {
          "internalType": "enum IEnclave.ParamSet",
          "name": "paramSet",
          "type": "uint8"
        },
        {
          "internalType": "bytes",
          "name": "customParams",
          "type": "bytes"
        },
        {
          "internalType": "contract IDecryptionVerifier",
          "name": "decryptionVerifier",
          "type": "address"
        },
        {
          "internalType": "contract IPkVerifier",
          "name": "pkVerifier",
          "type": "address"
        },
        {
          "internalType": "bytes32",
          "name": "committeePublicKey",
          "type": "bytes32"
        },
        {
          "internalType": "bytes32",
          "name": "ciphertextOutput",
          "type": "bytes32"
        },
        {
          "internalType": "bytes",
          "name": "plaintextOutput",
          "type": "bytes"
        },
        {
          "internalType": "address",
          "name": "requester",
          "type": "address"
        },
        {
          "internalType": "bool",
          "name": "proofAggregationEnabled",
          "type": "bool"
        }
      ],
      "stateMutability": "view",
      "type": "function"
    },
    {
      "inputs": [
        {
          "internalType": "contract IE3Program",
          "name": "e3Program",
          "type": "address"
        }
      ],
      "name": "enableE3Program",
      "outputs": [],
      "stateMutability": "nonpayable",
      "type": "function"
    },
    {
      "inputs": [
        {
          "internalType": "uint256",
          "name": "e3Id",
          "type": "uint256"
        },
        {
          "internalType": "uint256",
          "name": "amount",
          "type": "uint256"
        }
      ],
      "name": "escrowSlashedFunds",
      "outputs": [],
      "stateMutability": "nonpayable",
      "type": "function"
    },
    {
      "inputs": [],
      "name": "feeToken",
      "outputs": [
        {
          "internalType": "contract IERC20",
          "name": "",
          "type": "address"
        }
      ],
      "stateMutability": "view",
      "type": "function"
    },
    {
      "inputs": [
        {
          "internalType": "uint256",
          "name": "e3Id",
          "type": "uint256"
        }
      ],
      "name": "getDeadlines",
      "outputs": [
        {
          "components": [
            {
              "internalType": "uint256",
              "name": "dkgDeadline",
              "type": "uint256"
            },
            {
              "internalType": "uint256",
              "name": "computeDeadline",
              "type": "uint256"
            },
            {
              "internalType": "uint256",
              "name": "decryptionDeadline",
              "type": "uint256"
            }
          ],
          "internalType": "struct IEnclave.E3Deadlines",
          "name": "deadlines",
          "type": "tuple"
        }
      ],
      "stateMutability": "view",
      "type": "function"
    },
    {
      "inputs": [
        {
          "internalType": "bytes32",
          "name": "encryptionSchemeId",
          "type": "bytes32"
        }
      ],
      "name": "getDecryptionVerifier",
      "outputs": [
        {
          "internalType": "contract IDecryptionVerifier",
          "name": "",
          "type": "address"
        }
      ],
      "stateMutability": "view",
      "type": "function"
    },
    {
      "inputs": [
        {
          "internalType": "uint256",
          "name": "e3Id",
          "type": "uint256"
        }
      ],
      "name": "getE3",
      "outputs": [
        {
          "components": [
            {
              "internalType": "uint256",
              "name": "seed",
              "type": "uint256"
            },
            {
              "internalType": "enum IEnclave.CommitteeSize",
              "name": "committeeSize",
              "type": "uint8"
            },
            {
              "internalType": "uint256",
              "name": "requestBlock",
              "type": "uint256"
            },
            {
              "internalType": "uint256[2]",
              "name": "inputWindow",
              "type": "uint256[2]"
            },
            {
              "internalType": "bytes32",
              "name": "encryptionSchemeId",
              "type": "bytes32"
            },
            {
              "internalType": "contract IE3Program",
              "name": "e3Program",
              "type": "address"
            },
            {
              "internalType": "enum IEnclave.ParamSet",
              "name": "paramSet",
              "type": "uint8"
            },
            {
              "internalType": "bytes",
              "name": "customParams",
              "type": "bytes"
            },
            {
              "internalType": "contract IDecryptionVerifier",
              "name": "decryptionVerifier",
              "type": "address"
            },
            {
              "internalType": "contract IPkVerifier",
              "name": "pkVerifier",
              "type": "address"
            },
            {
              "internalType": "bytes32",
              "name": "committeePublicKey",
              "type": "bytes32"
            },
            {
              "internalType": "bytes32",
              "name": "ciphertextOutput",
              "type": "bytes32"
            },
            {
              "internalType": "bytes",
              "name": "plaintextOutput",
              "type": "bytes"
            },
            {
              "internalType": "address",
              "name": "requester",
              "type": "address"
            },
            {
              "internalType": "bool",
              "name": "proofAggregationEnabled",
              "type": "bool"
            }
          ],
          "internalType": "struct E3",
          "name": "e3",
          "type": "tuple"
        }
      ],
      "stateMutability": "view",
      "type": "function"
    },
    {
      "inputs": [
        {
          "components": [
            {
              "internalType": "enum IEnclave.CommitteeSize",
              "name": "committeeSize",
              "type": "uint8"
            },
            {
              "internalType": "uint256[2]",
              "name": "inputWindow",
              "type": "uint256[2]"
            },
            {
              "internalType": "contract IE3Program",
              "name": "e3Program",
              "type": "address"
            },
            {
              "internalType": "enum IEnclave.ParamSet",
              "name": "paramSet",
              "type": "uint8"
            },
            {
              "internalType": "bytes",
              "name": "computeProviderParams",
              "type": "bytes"
            },
            {
              "internalType": "bytes",
              "name": "customParams",
              "type": "bytes"
            },
            {
              "internalType": "bool",
              "name": "proofAggregationEnabled",
              "type": "bool"
            }
          ],
          "internalType": "struct IEnclave.E3RequestParams",
          "name": "requestParams",
          "type": "tuple"
        }
      ],
      "name": "getE3Quote",
      "outputs": [
        {
          "internalType": "uint256",
          "name": "fee",
          "type": "uint256"
        }
      ],
      "stateMutability": "view",
      "type": "function"
    },
    {
      "inputs": [
        {
          "internalType": "uint256",
          "name": "e3Id",
          "type": "uint256"
        }
      ],
      "name": "getE3Stage",
      "outputs": [
        {
          "internalType": "enum IEnclave.E3Stage",
          "name": "stage",
          "type": "uint8"
        }
      ],
      "stateMutability": "view",
      "type": "function"
    },
    {
      "inputs": [
        {
          "internalType": "uint256",
          "name": "e3Id",
          "type": "uint256"
        }
      ],
      "name": "getFailureReason",
      "outputs": [
        {
          "internalType": "enum IEnclave.FailureReason",
          "name": "reason",
          "type": "uint8"
        }
      ],
      "stateMutability": "view",
      "type": "function"
    },
    {
      "inputs": [
        {
          "internalType": "bytes32",
          "name": "encryptionSchemeId",
          "type": "bytes32"
        }
      ],
      "name": "getPkVerifier",
      "outputs": [
        {
          "internalType": "contract IPkVerifier",
          "name": "",
          "type": "address"
        }
      ],
      "stateMutability": "view",
      "type": "function"
    },
    {
      "inputs": [],
      "name": "getPricingConfig",
      "outputs": [
        {
          "components": [
            {
              "internalType": "uint256",
              "name": "keyGenFixedPerNode",
              "type": "uint256"
            },
            {
              "internalType": "uint256",
              "name": "keyGenPerEncryptionProof",
              "type": "uint256"
            },
            {
              "internalType": "uint256",
              "name": "coordinationPerPair",
              "type": "uint256"
            },
            {
              "internalType": "uint256",
              "name": "availabilityPerNodePerSec",
              "type": "uint256"
            },
            {
              "internalType": "uint256",
              "name": "decryptionPerNode",
              "type": "uint256"
            },
            {
              "internalType": "uint256",
              "name": "publicationBase",
              "type": "uint256"
            },
            {
              "internalType": "uint256",
              "name": "verificationPerProof",
              "type": "uint256"
            },
            {
              "internalType": "address",
              "name": "protocolTreasury",
              "type": "address"
            },
            {
              "internalType": "uint16",
              "name": "marginBps",
              "type": "uint16"
            },
            {
              "internalType": "uint16",
              "name": "protocolShareBps",
              "type": "uint16"
            },
            {
              "internalType": "uint16",
              "name": "dkgUtilizationBps",
              "type": "uint16"
            },
            {
              "internalType": "uint16",
              "name": "computeUtilizationBps",
              "type": "uint16"
            },
            {
              "internalType": "uint16",
              "name": "decryptUtilizationBps",
              "type": "uint16"
            },
            {
              "internalType": "uint32",
              "name": "minCommitteeSize",
              "type": "uint32"
            },
            {
              "internalType": "uint32",
              "name": "minThreshold",
              "type": "uint32"
            }
          ],
          "internalType": "struct IEnclave.PricingConfig",
          "name": "",
          "type": "tuple"
        }
      ],
      "stateMutability": "view",
      "type": "function"
    },
    {
      "inputs": [
        {
          "internalType": "uint256",
          "name": "e3Id",
          "type": "uint256"
        }
      ],
      "name": "getRequester",
      "outputs": [
        {
          "internalType": "address",
          "name": "requester",
          "type": "address"
        }
      ],
      "stateMutability": "view",
      "type": "function"
    },
    {
      "inputs": [],
      "name": "getTimeoutConfig",
      "outputs": [
        {
          "components": [
            {
              "internalType": "uint256",
              "name": "dkgWindow",
              "type": "uint256"
            },
            {
              "internalType": "uint256",
              "name": "computeWindow",
              "type": "uint256"
            },
            {
              "internalType": "uint256",
              "name": "decryptionWindow",
              "type": "uint256"
            }
          ],
          "internalType": "struct IEnclave.E3TimeoutConfig",
          "name": "config",
          "type": "tuple"
        }
      ],
      "stateMutability": "view",
      "type": "function"
    },
    {
      "inputs": [
        {
          "internalType": "address",
          "name": "_owner",
          "type": "address"
        },
        {
          "internalType": "contract ICiphernodeRegistry",
          "name": "_ciphernodeRegistry",
          "type": "address"
        },
        {
          "internalType": "contract IBondingRegistry",
          "name": "_bondingRegistry",
          "type": "address"
        },
        {
          "internalType": "contract IE3RefundManager",
          "name": "_e3RefundManager",
          "type": "address"
        },
        {
          "internalType": "contract IERC20",
          "name": "_feeToken",
          "type": "address"
        },
        {
          "internalType": "uint256",
          "name": "_maxDuration",
          "type": "uint256"
        },
        {
          "components": [
            {
              "internalType": "uint256",
              "name": "dkgWindow",
              "type": "uint256"
            },
            {
              "internalType": "uint256",
              "name": "computeWindow",
              "type": "uint256"
            },
            {
              "internalType": "uint256",
              "name": "decryptionWindow",
              "type": "uint256"
            }
          ],
          "internalType": "struct IEnclave.E3TimeoutConfig",
          "name": "config",
          "type": "tuple"
        }
      ],
      "name": "initialize",
      "outputs": [],
      "stateMutability": "nonpayable",
      "type": "function"
    },
    {
      "inputs": [
        {
          "internalType": "uint256",
          "name": "e3Id",
          "type": "uint256"
        }
      ],
      "name": "markE3Failed",
      "outputs": [
        {
          "internalType": "enum IEnclave.FailureReason",
          "name": "reason",
          "type": "uint8"
        }
      ],
      "stateMutability": "nonpayable",
      "type": "function"
    },
    {
      "inputs": [],
      "name": "maxDuration",
      "outputs": [
        {
          "internalType": "uint256",
          "name": "",
          "type": "uint256"
        }
      ],
      "stateMutability": "view",
      "type": "function"
    },
    {
      "inputs": [],
      "name": "nexte3Id",
      "outputs": [
        {
          "internalType": "uint256",
          "name": "",
          "type": "uint256"
        }
      ],
      "stateMutability": "view",
      "type": "function"
    },
    {
      "inputs": [
        {
          "internalType": "uint256",
          "name": "e3Id",
          "type": "uint256"
        }
      ],
      "name": "onCommitteeFinalized",
      "outputs": [],
      "stateMutability": "nonpayable",
      "type": "function"
    },
    {
      "inputs": [
        {
          "internalType": "uint256",
          "name": "e3Id",
          "type": "uint256"
        },
        {
          "internalType": "bytes32",
          "name": "committeePublicKey",
          "type": "bytes32"
        }
      ],
      "name": "onCommitteePublished",
      "outputs": [],
      "stateMutability": "nonpayable",
      "type": "function"
    },
    {
      "inputs": [
        {
          "internalType": "uint256",
          "name": "e3Id",
          "type": "uint256"
        },
        {
          "internalType": "uint8",
          "name": "reason",
          "type": "uint8"
        }
      ],
      "name": "onE3Failed",
      "outputs": [],
      "stateMutability": "nonpayable",
      "type": "function"
    },
    {
      "inputs": [],
      "name": "owner",
      "outputs": [
        {
          "internalType": "address",
          "name": "",
          "type": "address"
        }
      ],
      "stateMutability": "view",
      "type": "function"
    },
    {
      "inputs": [
        {
          "internalType": "enum IEnclave.ParamSet",
          "name": "",
          "type": "uint8"
        }
      ],
      "name": "paramSetRegistry",
      "outputs": [
        {
          "internalType": "bytes",
          "name": "",
          "type": "bytes"
        }
      ],
      "stateMutability": "view",
      "type": "function"
    },
    {
      "inputs": [
        {
          "internalType": "bytes32",
          "name": "encryptionSchemeId",
          "type": "bytes32"
        }
      ],
      "name": "pkVerifiers",
      "outputs": [
        {
          "internalType": "contract IPkVerifier",
          "name": "pkVerifier",
          "type": "address"
        }
      ],
      "stateMutability": "view",
      "type": "function"
    },
    {
      "inputs": [
        {
          "internalType": "uint256",
          "name": "e3Id",
          "type": "uint256"
        }
      ],
      "name": "processE3Failure",
      "outputs": [],
      "stateMutability": "nonpayable",
      "type": "function"
    },
    {
      "inputs": [
        {
          "internalType": "uint256",
          "name": "e3Id",
          "type": "uint256"
        },
        {
          "internalType": "bytes",
          "name": "ciphertextOutput",
          "type": "bytes"
        },
        {
          "internalType": "bytes",
          "name": "proof",
          "type": "bytes"
        }
      ],
      "name": "publishCiphertextOutput",
      "outputs": [
        {
          "internalType": "bool",
          "name": "success",
          "type": "bool"
        }
      ],
      "stateMutability": "nonpayable",
      "type": "function"
    },
    {
      "inputs": [
        {
          "internalType": "uint256",
          "name": "e3Id",
          "type": "uint256"
        },
        {
          "internalType": "bytes",
          "name": "plaintextOutput",
          "type": "bytes"
        },
        {
          "internalType": "bytes",
          "name": "proof",
          "type": "bytes"
        },
        {
          "internalType": "bytes",
          "name": "foldProof",
          "type": "bytes"
        }
      ],
      "name": "publishPlaintextOutput",
      "outputs": [
        {
          "internalType": "bool",
          "name": "success",
          "type": "bool"
        }
      ],
      "stateMutability": "nonpayable",
      "type": "function"
    },
    {
      "inputs": [],
      "name": "renounceOwnership",
      "outputs": [],
      "stateMutability": "nonpayable",
      "type": "function"
    },
    {
      "inputs": [
        {
          "components": [
            {
              "internalType": "enum IEnclave.CommitteeSize",
              "name": "committeeSize",
              "type": "uint8"
            },
            {
              "internalType": "uint256[2]",
              "name": "inputWindow",
              "type": "uint256[2]"
            },
            {
              "internalType": "contract IE3Program",
              "name": "e3Program",
              "type": "address"
            },
            {
              "internalType": "enum IEnclave.ParamSet",
              "name": "paramSet",
              "type": "uint8"
            },
            {
              "internalType": "bytes",
              "name": "computeProviderParams",
              "type": "bytes"
            },
            {
              "internalType": "bytes",
              "name": "customParams",
              "type": "bytes"
            },
            {
              "internalType": "bool",
              "name": "proofAggregationEnabled",
              "type": "bool"
            }
          ],
          "internalType": "struct IEnclave.E3RequestParams",
          "name": "requestParams",
          "type": "tuple"
        }
      ],
      "name": "request",
      "outputs": [
        {
          "internalType": "uint256",
          "name": "e3Id",
          "type": "uint256"
        },
        {
          "components": [
            {
              "internalType": "uint256",
              "name": "seed",
              "type": "uint256"
            },
            {
              "internalType": "enum IEnclave.CommitteeSize",
              "name": "committeeSize",
              "type": "uint8"
            },
            {
              "internalType": "uint256",
              "name": "requestBlock",
              "type": "uint256"
            },
            {
              "internalType": "uint256[2]",
              "name": "inputWindow",
              "type": "uint256[2]"
            },
            {
              "internalType": "bytes32",
              "name": "encryptionSchemeId",
              "type": "bytes32"
            },
            {
              "internalType": "contract IE3Program",
              "name": "e3Program",
              "type": "address"
            },
            {
              "internalType": "enum IEnclave.ParamSet",
              "name": "paramSet",
              "type": "uint8"
            },
            {
              "internalType": "bytes",
              "name": "customParams",
              "type": "bytes"
            },
            {
              "internalType": "contract IDecryptionVerifier",
              "name": "decryptionVerifier",
              "type": "address"
            },
            {
              "internalType": "contract IPkVerifier",
              "name": "pkVerifier",
              "type": "address"
            },
            {
              "internalType": "bytes32",
              "name": "committeePublicKey",
              "type": "bytes32"
            },
            {
              "internalType": "bytes32",
              "name": "ciphertextOutput",
              "type": "bytes32"
            },
            {
              "internalType": "bytes",
              "name": "plaintextOutput",
              "type": "bytes"
            },
            {
              "internalType": "address",
              "name": "requester",
              "type": "address"
            },
            {
              "internalType": "bool",
              "name": "proofAggregationEnabled",
              "type": "bool"
            }
          ],
          "internalType": "struct E3",
          "name": "e3",
          "type": "tuple"
        }
      ],
      "stateMutability": "nonpayable",
      "type": "function"
    },
    {
      "inputs": [
        {
          "internalType": "contract IBondingRegistry",
          "name": "_bondingRegistry",
          "type": "address"
        }
      ],
      "name": "setBondingRegistry",
      "outputs": [],
      "stateMutability": "nonpayable",
      "type": "function"
    },
    {
      "inputs": [
        {
          "internalType": "contract ICiphernodeRegistry",
          "name": "_ciphernodeRegistry",
          "type": "address"
        }
      ],
      "name": "setCiphernodeRegistry",
      "outputs": [],
      "stateMutability": "nonpayable",
      "type": "function"
    },
    {
      "inputs": [
        {
          "internalType": "enum IEnclave.CommitteeSize",
          "name": "size",
          "type": "uint8"
        },
        {
          "internalType": "uint32[2]",
          "name": "threshold",
          "type": "uint32[2]"
        }
      ],
      "name": "setCommitteeThresholds",
      "outputs": [],
      "stateMutability": "nonpayable",
      "type": "function"
    },
    {
      "inputs": [
        {
          "internalType": "bytes32",
          "name": "encryptionSchemeId",
          "type": "bytes32"
        },
        {
          "internalType": "contract IDecryptionVerifier",
          "name": "decryptionVerifier",
          "type": "address"
        }
      ],
      "name": "setDecryptionVerifier",
      "outputs": [],
      "stateMutability": "nonpayable",
      "type": "function"
    },
    {
      "inputs": [
        {
          "internalType": "contract IE3RefundManager",
          "name": "_e3RefundManager",
          "type": "address"
        }
      ],
      "name": "setE3RefundManager",
      "outputs": [],
      "stateMutability": "nonpayable",
      "type": "function"
    },
    {
      "inputs": [
        {
          "internalType": "contract IERC20",
          "name": "_feeToken",
          "type": "address"
        }
      ],
      "name": "setFeeToken",
      "outputs": [],
      "stateMutability": "nonpayable",
      "type": "function"
    },
    {
      "inputs": [
        {
          "internalType": "uint256",
          "name": "_maxDuration",
          "type": "uint256"
        }
      ],
      "name": "setMaxDuration",
      "outputs": [],
      "stateMutability": "nonpayable",
      "type": "function"
    },
    {
      "inputs": [
        {
          "internalType": "enum IEnclave.ParamSet",
          "name": "paramSet",
          "type": "uint8"
        },
        {
          "internalType": "bytes",
          "name": "encodedParams",
          "type": "bytes"
        }
      ],
      "name": "setParamSet",
      "outputs": [],
      "stateMutability": "nonpayable",
      "type": "function"
    },
    {
      "inputs": [
        {
          "internalType": "bytes32",
          "name": "encryptionSchemeId",
          "type": "bytes32"
        },
        {
          "internalType": "contract IPkVerifier",
          "name": "pkVerifier",
          "type": "address"
        }
      ],
      "name": "setPkVerifier",
      "outputs": [],
      "stateMutability": "nonpayable",
      "type": "function"
    },
    {
      "inputs": [
        {
          "components": [
            {
              "internalType": "uint256",
              "name": "keyGenFixedPerNode",
              "type": "uint256"
            },
            {
              "internalType": "uint256",
              "name": "keyGenPerEncryptionProof",
              "type": "uint256"
            },
            {
              "internalType": "uint256",
              "name": "coordinationPerPair",
              "type": "uint256"
            },
            {
              "internalType": "uint256",
              "name": "availabilityPerNodePerSec",
              "type": "uint256"
            },
            {
              "internalType": "uint256",
              "name": "decryptionPerNode",
              "type": "uint256"
            },
            {
              "internalType": "uint256",
              "name": "publicationBase",
              "type": "uint256"
            },
            {
              "internalType": "uint256",
              "name": "verificationPerProof",
              "type": "uint256"
            },
            {
              "internalType": "address",
              "name": "protocolTreasury",
              "type": "address"
            },
            {
              "internalType": "uint16",
              "name": "marginBps",
              "type": "uint16"
            },
            {
              "internalType": "uint16",
              "name": "protocolShareBps",
              "type": "uint16"
            },
            {
              "internalType": "uint16",
              "name": "dkgUtilizationBps",
              "type": "uint16"
            },
            {
              "internalType": "uint16",
              "name": "computeUtilizationBps",
              "type": "uint16"
            },
            {
              "internalType": "uint16",
              "name": "decryptUtilizationBps",
              "type": "uint16"
            },
            {
              "internalType": "uint32",
              "name": "minCommitteeSize",
              "type": "uint32"
            },
            {
              "internalType": "uint32",
              "name": "minThreshold",
              "type": "uint32"
            }
          ],
          "internalType": "struct IEnclave.PricingConfig",
          "name": "config",
          "type": "tuple"
        }
      ],
      "name": "setPricingConfig",
      "outputs": [],
      "stateMutability": "nonpayable",
      "type": "function"
    },
    {
      "inputs": [
        {
          "internalType": "contract ISlashingManager",
          "name": "_slashingManager",
          "type": "address"
        }
      ],
      "name": "setSlashingManager",
      "outputs": [],
      "stateMutability": "nonpayable",
      "type": "function"
    },
    {
      "inputs": [
        {
          "components": [
            {
              "internalType": "uint256",
              "name": "dkgWindow",
              "type": "uint256"
            },
            {
              "internalType": "uint256",
              "name": "computeWindow",
              "type": "uint256"
            },
            {
              "internalType": "uint256",
              "name": "decryptionWindow",
              "type": "uint256"
            }
          ],
          "internalType": "struct IEnclave.E3TimeoutConfig",
          "name": "config",
          "type": "tuple"
        }
      ],
      "name": "setTimeoutConfig",
      "outputs": [],
      "stateMutability": "nonpayable",
      "type": "function"
    },
    {
      "inputs": [],
      "name": "slashingManager",
      "outputs": [
        {
          "internalType": "contract ISlashingManager",
          "name": "",
          "type": "address"
        }
      ],
      "stateMutability": "view",
      "type": "function"
    },
    {
      "inputs": [
        {
          "internalType": "address",
          "name": "newOwner",
          "type": "address"
        }
      ],
      "name": "transferOwnership",
      "outputs": [],
      "stateMutability": "nonpayable",
      "type": "function"
    }
  ],
  "bytecode": "0x6080604052348015600e575f5ffd5b5060156019565b60c9565b7ff0c57e16840df040f15088dc2f81fe391c3923bec73e23a9662efc9c229c6a00805468010000000000000000900460ff161560685760405163f92ee8a960e01b815260040160405180910390fd5b80546001600160401b039081161460c65780546001600160401b0319166001600160401b0390811782556040519081527fc7f505b2f371ae2175ee4913f4499e1f2633a7b5936321eed1cdaeb6115181d29060200160405180910390a15b50565b615948806100d65f395ff3fe608060405234801561000f575f5ffd5b50600436106102ce575f3560e01c80639117173c11610182578063cb649617116100e0578063f0691cba1161008f578063f0691cba14610886578063f2fde38b14610899578063f3ceba3a146108ac578063f81b8ef6146108cd578063fad8e111146108e0578063fbdb3237146108f3578063fd2f3d011461091b575f5ffd5b8063cb649617146107ef578063cbd16872146107f8578063cf0f34c41461080b578063cfbdc98d1461081e578063d8afed3e1461084d578063e59e469514610860578063ea71aa5714610873575f5ffd5b8063a87f4ab91161013c578063a87f4ab914610607578063ac3d2f4214610759578063b27392d514610781578063bb2d1b8214610794578063bff232c1146107a7578063c1ab0f1f146107ba578063c4ccafa2146107cd575f5ffd5b80639117173c146105625780639231238614610575578063929a8faf1461058857806399c6679d146105a95780639c8570c8146105d15780639e57b934146105f4575f5ffd5b80635d1684181161022f57806381476ec2116101e957806381476ec2146104e7578063830d7181146104fa578063858142431461050d5780638da5cb5b146105205780638dcdd86b146105285780638e5ce3ad1461053a57806390173a411461054d575f5ffd5b80635d1684181461047d578063647846a51461049d5780636db5c8fd146104b0578063715018a6146104b95780637c8c3b4d146104c15780637cfa9d74146104d4575f5ffd5b806336c5d38a1161028b57806336c5d38a1461039b5780634017daf0146103ca578063406ed35c146103f75780634147a360146104175780634d600e5d146104445780634e92ec63146104575780634fc772641461046a575f5ffd5b806302a3a9c9146102d25780630ef81b2f146102e757806310bc62811461032557806311bd61d91461034d57806315cce224146103755780631ba7294514610388575b5f5ffd5b6102e56102e03660046145eb565b61092e565b005b61030f6102f5366004614606565b5f908152600960205260409020546001600160a01b031690565b60405161031c919061462a565b60405180910390f35b61030f610333366004614606565b60096020525f90815260409020546001600160a01b031681565b61036061035b366004614651565b6109da565b60405163ffffffff909116815260200161031c565b6102e56103833660046145eb565b610a16565b6102e5610396366004614689565b610abb565b6103bd6103a9366004614606565b5f908152600f602052604090205460ff1690565b60405161031c91906146cb565b6103dd6103d8366004614606565b610acf565b60405161031c9e9d9c9b9a99989796959493929190614727565b61040a610405366004614606565b610c7a565b60405161031c9190614909565b610436610425366004614606565b600c6020525f908152604090205481565b60405190815260200161031c565b6102e5610452366004614926565b610f19565b6102e5610465366004614606565b611156565b6102e56104783660046145eb565b6111e5565b61049061048b3660046149ba565b611278565b60405161031c91906149d3565b60045461030f906001600160a01b031681565b61043660055481565b6102e561130f565b6102e56104cf3660046149e5565b611322565b6102e56104e2366004614606565b6113ab565b6102e56104f5366004614a13565b6114aa565b6102e5610508366004614a70565b61159e565b60015461030f906001600160a01b031681565b61030f611665565b5f5461030f906001600160a01b031681565b60035461030f906001600160a01b031681565b610555611693565b60405161031c9190614abe565b6102e5610570366004614606565b6116d9565b610555610583366004614606565b611847565b61059b610596366004614606565b6118a0565b60405161031c929190614adf565b61030f6105b7366004614606565b5f908152601060205260409020546001600160a01b031690565b6105e46105df366004614af5565b6118c7565b604051901515815260200161031c565b610436610602366004614b6c565b611b5f565b61074c604080516101e0810182525f80825260208201819052918101829052606081018290526080810182905260a0810182905260c0810182905260e08101829052610100810182905261012081018290526101408101829052610160810182905261018081018290526101a081018290526101c081019190915250604080516101e0810182526018548152601954602080830191909152601a5492820192909252601b546060820152601c546080820152601d5460a0820152601e5460c0820152601f546001600160a01b03811660e083015261ffff600160a01b82048116610100840152600160b01b82048116610120840152600160c01b82048116610140840152600160d01b82048116610160840152600160e01b90910416610180820152905463ffffffff8082166101a0840152640100000000909104166101c082015290565b60405161031c9190614ba3565b61030f610767366004614606565b5f908152600a60205260409020546001600160a01b031690565b6105e461078f366004614cb0565b6120e3565b6102e56107a2366004614d55565b612313565b6102e56107b53660046145eb565b6123cf565b6102e56107c8366004614a13565b612476565b6105e46107db3660046145eb565b60076020525f908152604090205460ff1681565b61043660065481565b6102e56108063660046149e5565b612533565b6102e5610819366004614606565b6125ed565b61084061082c366004614606565b5f908152600d602052604090205460ff1690565b60405161031c9190614d8d565b6102e561085b366004614d9b565b61262a565b6102e561086e3660046145eb565b6128b7565b6102e5610881366004614db5565b612951565b60025461030f906001600160a01b031681565b6102e56108a73660046145eb565b612bfe565b6108bf6108ba366004614b6c565b612c38565b60405161031c929190614dec565b6103bd6108db366004614606565b61359e565b6102e56108ee3660046145eb565b613738565b61030f610901366004614606565b600a6020525f90815260409020546001600160a01b031681565b6102e56109293660046145eb565b6137d0565b61093661385f565b6001600160a01b0381166109915760405162461bcd60e51b815260206004820152601f60248201527f496e76616c6964204533526566756e644d616e6167657220616464726573730060448201526064015b60405180910390fd5b600280546001600160a01b0319166001600160a01b0383169081179091556040517f9557d04c1c0b16f93f13b69aed23b3b6ab935bff3c53ac81d17896d3583542ed905f90a250565b6012602052815f5260405f2081600281106109f3575f80fd5b60089182820401919006600402915091509054906101000a900463ffffffff1681565b610a1e61385f565b6001600160a01b03811615801590610a4457506004546001600160a01b03828116911614155b8190610a645760405163eddf07f560e01b8152600401610988919061462a565b50600480546001600160a01b0319166001600160a01b0383161790556040517f722ff84c1234b2482061def5c82c6b5080c117b3cbb69d686844a051e4b8e7f390610ab090839061462a565b60405180910390a150565b610ac361385f565b610acc81613891565b50565b60086020525f9081526040902080546001820154600283015460058401546006850154600786018054959660ff95861696949593946001600160a01b03841694600160a01b90940490931692909190610b2790614e0c565b80601f0160208091040260200160405190810160405280929190818152602001828054610b5390614e0c565b8015610b9e5780601f10610b7557610100808354040283529160200191610b9e565b820191905f5260205f20905b815481529060010190602001808311610b8157829003601f168201915b50505060088401546009850154600a860154600b870154600c8801805497986001600160a01b03958616989490951696509194509291610bdd90614e0c565b80601f0160208091040260200160405190810160405280929190818152602001828054610c0990614e0c565b8015610c545780601f10610c2b57610100808354040283529160200191610c54565b820191905f5260205f20905b815481529060010190602001808311610c3757829003601f168201915b505050600d90930154919250506001600160a01b0381169060ff600160a01b909104168e565b610c82614459565b5f8281526008602090815260409182902082516101e08101909352805483526001810154909183019060ff166003811115610cbf57610cbf6146a3565b6003811115610cd057610cd06146a3565b8152600282810154602083015260408051808201808352919093019291600385019182845b815481526020019060010190808311610cf55750505091835250506005820154602082015260068201546001600160a01b0381166040830152606090910190600160a01b900460ff166001811115610d4f57610d4f6146a3565b6001811115610d6057610d606146a3565b8152602001600782018054610d7490614e0c565b80601f0160208091040260200160405190810160405280929190818152602001828054610da090614e0c565b8015610deb5780601f10610dc257610100808354040283529160200191610deb565b820191905f5260205f20905b815481529060010190602001808311610dce57829003601f168201915b505050918352505060088201546001600160a01b0390811660208301526009830154166040820152600a8201546060820152600b8201546080820152600c8201805460a090920191610e3c90614e0c565b80601f0160208091040260200160405190810160405280929190818152602001828054610e6890614e0c565b8015610eb35780601f10610e8a57610100808354040283529160200191610eb3565b820191905f5260205f20905b815481529060010190602001808311610e9657829003601f168201915b5050509183525050600d91909101546001600160a01b038082166020840152600160a01b90910460ff16151560409092019190915260a0820151919250839116610f135760405163cd6f4a4f60e01b815260040161098891815260200190565b50919050565b5f610f2261394e565b805490915060ff600160401b82041615906001600160401b03165f81158015610f485750825b90505f826001600160401b03166001148015610f635750303b155b905081158015610f71575080155b15610f8f5760405163f92ee8a960e01b815260040160405180910390fd5b845467ffffffffffffffff191660011785558315610fb957845460ff60401b1916600160401b1785555b610fc233613978565b610fcb876125ed565b610fd48b613738565b610fdd8a6128b7565b610fe68961092e565b610fef88610a16565b610ff886613891565b604080516101e08101825261c3508082526161a86020808401829052611388948401859052601460608501819052620249f0608086018190526207a12060a087018190526107d060c088018190525f60e089018190526103e86101008a015261012089018190526109c46101408a018190526101608a018b90526101808a01526101a089018190526101c090980197909752601895909555601993909355601a95909555601b94909455601c55601d55601e55601f80546001600160f01b031916690138827101388000007d60a31b179055805467ffffffffffffffff191690556110e1611665565b6001600160a01b03168c6001600160a01b031614611102576111028c612bfe565b831561114857845460ff60401b19168555604051600181527fc7f505b2f371ae2175ee4913f4499e1f2633a7b5936321eed1cdaeb6115181d29060200160405180910390a15b505050505050505050505050565b61115e61385f565b5f8181526009602052604090205481906001600160a01b0316611197576040516381c4951960e01b815260040161098891815260200190565b505f818152600960205260409081902080546001600160a01b0319169055517f104eb329a192aef26eddea07c2af5ad2587792e62b37ed4045b6ba59bc5540fc90610ab09083815260200190565b6111ed61385f565b6001600160a01b0381165f90815260076020526040902054819060ff16611228576040516321ac7c5f60e01b8152600401610988919061462a565b506001600160a01b0381165f9081526007602052604090819020805460ff19169055517f56070b80bd617fcd2f7a284861edb488830a38f9dedcd77b2cb2f4eac17743e790610ab090839061462a565b600b6020525f90815260409020805461129090614e0c565b80601f01602080910402602001604051908101604052809291908181526020018280546112bc90614e0c565b80156113075780601f106112de57610100808354040283529160200191611307565b820191905f5260205f20905b8154815290600101906020018083116112ea57829003601f168201915b505050505081565b61131761385f565b6113205f613989565b565b61132a61385f565b6001600160a01b0381161580159061135b57505f828152600a60205260409020546001600160a01b03828116911614155b829061137d576040516381c4951960e01b815260040161098891815260200190565b505f918252600a602052604090912080546001600160a01b0319166001600160a01b03909216919091179055565b5f546001600160a01b031633146113d55760405163b56831db60e01b815260040160405180910390fd5b5f818152600d602052604090205460ff1660018160068111156113fa576113fa6146a3565b1461141f57816001826040516337e1404160e01b815260040161098893929190614e3e565b5f828152600d60205260409020805460ff191660021790556015546114449042614e73565b5f838152600e602052604080822092909255905183917fc44405af9078047712501f519e1fb900c2896c62b488336f84529c72ae16e6f191a2815f51602061591c5f395f51905f526001600260405161149e929190614e86565b60405180910390a25050565b5f546001600160a01b031633146114d45760405163b56831db60e01b815260040160405180910390fd5b5f828152600860209081526040808320600d9092529091205460ff166002816006811115611504576115046146a3565b1461152957836002826040516337e1404160e01b815260040161098893929190614e3e565b5f848152600d6020526040808220805460ff19166003179055600a84018590555185917f11df18edb9bc9cd90a79068e0e208b630202148643d797d6150e7bacb733e63c91a2835f51602061591c5f395f51905f5260026003604051611590929190614e86565b60405180910390a250505050565b6115a661385f565b806115e25760405162461bcd60e51b815260206004820152600c60248201526b456d70747920706172616d7360a01b6044820152606401610988565b8181600b5f8660018111156115f9576115f96146a3565b600181111561160a5761160a6146a3565b81526020019081526020015f209182611624929190614f14565b507f6e4a4ea7f38fc775e616080b155744337e6216848e886a69c918b4ab84da219583838360405161165893929190614ff0565b60405180910390a1505050565b7f9016d09d72d40fdae2fd8ceac6b6234c7706214fd39c1cd1e609a0528c199300546001600160a01b031690565b6116b460405180606001604052805f81526020015f81526020015f81525090565b5060408051606081018252601554815260165460208201526017549181019190915290565b5f818152600d602052604090205460ff1660068160068111156116fe576116fe6146a3565b14829061172157604051637cb2d48360e11b815260040161098891815260200190565b505f828152600c60205260409020548281611752576040516345ba89d560e11b815260040161098891815260200190565b505f838152600c6020526040812081905561176c846139f9565b5f858152601160205260409020546002549192506001600160a01b03908116916117999183911685613aed565b60025460405163da19b69760e01b81526001600160a01b039091169063da19b697906117cf90889087908790879060040161505c565b5f604051808303815f87803b1580156117e6575f5ffd5b505af11580156117f8573d5f5f3e3d5ffd5b50505050847f5297818f48a66292b8b3e2caab83eec531b669bb20807fd38cf006adb2a07317848451604051611838929190918252602082015260400190565b60405180910390a25050505050565b61186860405180606001604052805f81526020015f81526020015f81525090565b505f908152600e6020908152604091829020825160608101845281548152600182015492810192909252600201549181019190915290565b5f818152600d6020526040812054819060ff166118bd8482613b4a565b9250925050915091565b5f5f6118d287610c7a565b5f888152600d602052604090205490915060ff1660038160068111156118fa576118fa6146a3565b1488600383909192611922576040516337e1404160e01b815260040161098893929190614e3e565b5050505f888152600e6020908152604091829020825160608101845281548152600182015492810183905260029091015492810192909252899042811015611986576040516308f3034360e31b815260048101929092526024820152604401610988565b50506060830151602001518990428111156119bd5760405163017e35e560e71b815260048101929092526024820152604401610988565b50506101608301518990156119e857604051637eb9cea960e11b815260040161098891815260200190565b505f88886040516119fa9291906150a7565b60408051918290039091205f8c815260086020908152838220600b01839055600d905291909120805460ff19166004179055601754909150611a3c9042614e73565b5f8b8152600e6020526040908190206002019190915560a08501519051632f0e1bbf60e01b81526001600160a01b0390911690632f0e1bbf90611a89908d9085908c908c906004016150b6565b6020604051808303815f875af1158015611aa5573d5f5f3e3d5ffd5b505050506040513d601f19601f82011682018060405250810190611ac991906150e2565b9450888886611aed57604051632f9f8ab960e01b81526004016109889291906150fd565b5050897f7cc27e4a5626cbc4f8ba1a927b0448de55e6a114bc87660331270c5109ade0718a8a604051611b219291906150fd565b60405180910390a2895f51602061591c5f395f51905f5260036004604051611b4a929190614e86565b60405180910390a25050505095945050505050565b5f80601281611b716020860186615110565b6003811115611b8257611b826146a3565b6003811115611b9357611b936146a3565b8152602081019190915260409081015f20815180830190925260028282826020028201915f905b82829054906101000a900463ffffffff1663ffffffff1681526020019060040190602082600301049283019260010382029150808411611bba579050505050505090505f81600160028110611c1157611c11615093565b602002015163ffffffff1611835f016020810190611c2f9190615110565b90611c4e5760405163286c068d60e11b81526004016109889190615129565b506020808201518251604080516101e081018252601854815260195481860152601a5491810191909152601b546060820152601c546080820152601d5460a0820152601e5460c0820152601f546001600160a01b03811660e0830152600160a01b810461ffff908116610100840152600160b01b82048116610120840152600160c01b82048116610140840152600160d01b82048116610160840152600160e01b90910416610180820152925463ffffffff8181166101a0860181905264010000000090920481166101c086015292831693919092169115611d79576101a081015163ffffffff16846001602002015163ffffffff161015865f016020810190611d589190615110565b90611d775760405163010b971d60e31b81526004016109889190615129565b505b6101c081015163ffffffff1615611dc8576101c081015184519063ffffffff9081169082161015611dc657604051630a4b6b6360e11b815263ffffffff9091166004820152602401610988565b505b60408601356020870135811015611df55760405163174b5a0760e21b815260040161098891815260200190565b506101808101516017545f9161271091611e139161ffff1690615137565b611e1d919061514e565b61271061ffff1683610160015161ffff16601560010154611e3e9190615137565b611e48919061514e565b61271061ffff1684610140015161ffff1660155f0154611e689190615137565b611e72919061514e565b5f5460408051634f87c3a560e11b8152815160208e81013594938f0135936001600160a01b031692639f0f874a92600480830193928290030181865afa158015611ebe573d5f5f3e3d5ffd5b505050506040513d601f19601f82011682018060405250810190611ee2919061516d565b611eec9190614e73565b611ef69190615184565b611f009190614e73565b611f0a9190614e73565b611f149190614e73565b90505f611f22600186615184565b611f2d906002615137565b611f38906002615137565b611f43906006614e73565b90505f85845f0151611f559190615137565b905081868560200151611f689190615137565b611f729190615137565b611f7c9082614e73565b90506001861115611fc4576002611f94600188615184565b611f9e9088615137565b8560400151611fad9190615137565b611fb7919061514e565b611fc19082614e73565b90505b81868560c00151611fd59190615137565b611fdf9190615137565b611fe99082614e73565b905082868560600151611ffc9190615137565b6120069190615137565b6120109082614e73565b90508484608001516120229190615137565b61202c9082614e73565b90506001851115612074576002612044600187615184565b61204e9087615137565b856040015161205d9190615137565b612067919061514e565b6120719082614e73565b90505b60a08401516120839082614e73565b6101008501519091506127109061209e9061ffff1682614e73565b6120a89083615137565b6120b2919061514e565b975087806120d657604051638c4fcd9360e01b815260040161098891815260200190565b5050505050505050919050565b5f5f6120ee89610c7a565b5f8a8152600d602052604090205490915060ff166004816006811115612116576121166146a3565b148a60048390919261213e576040516337e1404160e01b815260040161098893929190614e3e565b5050505f8a8152600e602090815260409182902082516060810184528154815260018201549281019290925260020154918101829052908b90428110156121a1576040516308f3034360e31b815260048101929092526024820152604401610988565b50505f8b8152600860205260409020600c016121be8a8c83614f14565b505f8b8152600d6020526040902080546005919060ff191660018302179055508261010001516001600160a01b0316635bf48e3a8b8b6040516122029291906150a7565b6040519081900381206001600160e01b031960e084901b168252612230918c908c908c908c90600401615197565b602060405180830381865afa15801561224b573d5f5f3e3d5ffd5b505050506040513d601f19601f8201168201806040525081019061226f91906150e2565b935089898561229357604051632f9f8ab960e01b81526004016109889291906150fd565b505061229e8b613cd2565b8a7f3a140076c461ebc41d74833ae0ee8bbc8079a135a63392098cd381e84350b69b8b8b8b8b6040516122d494939291906151cf565b60405180910390a28a5f51602061591c5f395f51905f52600460056040516122fd929190614e86565b60405180910390a2505050979650505050505050565b5f546001600160a01b031633148061233557506003546001600160a01b031633145b61235257604051639e75a8b560e01b815260040160405180910390fd5b5f8160ff161180156123685750600d60ff821611155b6123ad5760405162461bcd60e51b815260206004820152601660248201527524b73b30b634b2103330b4b63ab932903932b0b9b7b760511b6044820152606401610988565b6123cb828260ff16600d8111156123c6576123c66146a3565b61413d565b5050565b6123d761385f565b6001600160a01b03811661242d5760405162461bcd60e51b815260206004820152601f60248201527f496e76616c696420536c617368696e674d616e616765722061646472657373006044820152606401610988565b600380546001600160a01b0319166001600160a01b0383169081179091556040517f4ccc8ed483c7c44c3602c3c38afc2c014a8f1d2dc210dfe58ebeeeead230f8e0905f90a250565b6003546001600160a01b031633146124a1576040516357d6948d60e11b815260040160405180910390fd5b60025460405163c1ab0f1f60e01b815260048101849052602481018390526001600160a01b039091169063c1ab0f1f906044015f604051808303815f87803b1580156124eb575f5ffd5b505af11580156124fd573d5f5f3e3d5ffd5b50505050817f4f41a3b0a032ebcae925f2ace77d507435840ca4b2dbaffdd7723fa8d72ee5428260405161149e91815260200190565b61253b61385f565b6001600160a01b0381161580159061256c57505f828152600960205260409020546001600160a01b03828116911614155b829061258e576040516381c4951960e01b815260040161098891815260200190565b505f8281526009602090815260409182902080546001600160a01b0319166001600160a01b03851617905590518381527ff4041a3f914dac3bc9bf5f003ba41f28dbb84abe42f4e07c76266f5c8ceecb69910160405180910390a15050565b6125f561385f565b60058190556040518181527fba0716ba1ee2ea8ecc4c64119b4537cdb42a99d82acf92af5b87607b8b52355290602001610ab0565b61263261385f565b6127106126476101208301610100840161521a565b61ffff16111561265f6101208301610100840161521a565b90612684576040516301027fc160e21b815261ffff9091166004820152602401610988565b5061271061269a6101408301610120840161521a565b61ffff1611156126b26101408301610120840161521a565b906126d7576040516301027fc160e21b815261ffff9091166004820152602401610988565b506127106126ed6101608301610140840161521a565b61ffff1611156127056101608301610140840161521a565b9061272a57604051633239953960e01b815261ffff9091166004820152602401610988565b506127106127406101808301610160840161521a565b61ffff1611156127586101808301610160840161521a565b9061277d57604051633239953960e01b815261ffff9091166004820152602401610988565b506127106127936101a08301610180840161521a565b61ffff1611156127ab6101a08301610180840161521a565b906127d057604051633239953960e01b815261ffff9091166004820152602401610988565b506127e36101408201610120830161521a565b61ffff16158061280c57505f612800610100830160e084016145eb565b6001600160a01b031614155b6128295760405163015f92ff60e51b815260040160405180910390fd5b61283b6101e082016101c08301615251565b63ffffffff166128536101c083016101a08401615251565b63ffffffff161015612878576040516392f55c6560e01b815260040160405180910390fd5b8060186128858282615290565b9050507fbf3951313e980027eb48ce363fdb707286195ec6a0f802ac153927cf929c3fc681604051610ab0919061544e565b6128bf61385f565b6001600160a01b038116158015906128e557506001546001600160a01b03828116911614155b8190612905576040516320252f0b60e01b8152600401610988919061462a565b50600180546001600160a01b0319166001600160a01b0383161790556040517fad4055f18cdad6f4bdd71afe3a72cbeee964217943e1bde38f138289e981a9a790610ab090839061462a565b61295961385f565b6129666020820182615251565b63ffffffff1661297c6040830160208401615251565b63ffffffff16101580156129a157505f6129996020830183615251565b63ffffffff16115b6129be57604051634564ab9b60e01b815260040160405180910390fd5b604080516101e0810182526018548152601954602080830191909152601a5492820192909252601b546060820152601c546080820152601d5460a0820152601e5460c0820152601f546001600160a01b03811660e083015261ffff600160a01b82048116610100840152600160b01b82048116610120840152600160c01b82048116610140840152600160d01b82048116610160840152600160e01b90910416610180820152905463ffffffff8082166101a08401819052640100000000909204166101c083015215612af7576101a081015163ffffffff16612aa76040840160208501615251565b63ffffffff161015612abf6040840160208501615251565b826101a001519091612af457604051633ccc4c2160e21b815263ffffffff928316600482015291166024820152604401610988565b50505b6101c081015163ffffffff1615612b6e576101c081015163ffffffff16612b216020840184615251565b63ffffffff161015612b366020840184615251565b826101c001519091612b6b5760405163156c4e5b60e11b815263ffffffff928316600482015291166024820152604401610988565b50505b8160125f856003811115612b8457612b846146a3565b6003811115612b9557612b956146a3565b815260208101919091526040015f20612baf9160026144d6565b50826003811115612bc257612bc26146a3565b7f8b56fae526eee054f0849759a99fc7d4ff3823824ebf097a56f7d78adb6b34fa83604051612bf19190615558565b60405180910390a2505050565b612c0661385f565b6001600160a01b038116612c2f575f604051631e4fbdf760e01b8152600401610988919061462a565b610acc81613989565b5f612c41614459565b5f601281612c526020870187615110565b6003811115612c6357612c636146a3565b6003811115612c7457612c746146a3565b8152602081019190915260409081015f20815180830190925260028282826020028201915f905b82829054906101000a900463ffffffff1663ffffffff1681526020019060040190602082600301049283019260010382029150808411612c9b579050505050505090505f81600160028110612cf257612cf2615093565b602002015163ffffffff1611845f016020810190612d109190615110565b90612d2f5760405163286c068d60e11b81526004016109889190615129565b50602084013542811015612d5957604051630b99e87960e01b815260040161098891815260200190565b5060408401356020850135811015612d875760405163174b5a0760e21b815260040161098891815260200190565b506017546016545f9190612d9f426040890135615184565b612da99190614e73565b612db39190614e73565b905060055481108190612ddc576040516313b783af60e21b815260040161098891815260200190565b5060075f612df060808801606089016145eb565b6001600160a01b0316815260208101919091526040015f205460ff16612e1c60808701606088016145eb565b90612e3b5760405163295a6a6f60e11b8152600401610988919061462a565b505f612e4686611b5f565b60068054965090915085905f612e5b83615598565b9091555050604080514460208201529081018690525f9060600160408051601f1981840301815291815281516020928301205f898152600c84528281208690556004546011855283822080546001600160a01b03199081166001600160a01b0393841617909155601f805460138852868520805461ffff191661ffff600160b01b909304929092169190911790555460148752858420805483169190931617909155600d8552838220805460ff191660011790556010909452829020805433941693909317909255601654919250612f369190890135614e73565b5f878152600e6020908152604090912060010191909155818652612f5c90880188615110565b85602001906003811115612f7257612f726146a3565b90816003811115612f8557612f856146a3565b905250436040808701919091528051808201825290602089019060029083908390808284375f920191909152505050606080870191909152612fcd90608089019089016145eb565b6001600160a01b031660a080870191909152612fee908801608089016149ba565b8560c001906001811115613004576130046146a3565b90816001811115613017576130176146a3565b90525061302760c08801886155b0565b8080601f0160208091040260200160405190810160405280939291908181526020018383808284375f9201919091525050505060e0808701919091526130749061010089019089016155f2565b15156101c08601525f610140860181905261016086018190526040805160208101909152908152610180860152336101a086018190526004546130c4916001600160a01b03909116903085614298565b5f600b816130d860a08b0160808c016149ba565b60018111156130e9576130e96146a3565b60018111156130fa576130fa6146a3565b81526020019081526020015f20805461311290614e0c565b80601f016020809104026020016040519081016040528092919081815260200182805461313e90614e0c565b80156131895780601f1061316057610100808354040283529160200191613189565b820191905f5260205f20905b81548152906001019060200180831161316c57829003601f168201915b505050505090505f8151116131e05760405162461bcd60e51b815260206004820152601c60248201527f42465620706172616d20736574206e6f742072656769737465726564000000006044820152606401610988565b5f6131f160808a0160608b016145eb565b6001600160a01b031663fefd9a8b89858561320f60a08f018f6155b0565b8f8060c0019061321f91906155b0565b6040518863ffffffff1660e01b8152600401613241979695949392919061560d565b6020604051808303815f875af115801561325d573d5f5f3e3d5ffd5b505050506040513d601f19601f82011682018060405250810190613281919061516d565b5f818152600960205260409020549091506001600160a01b031681816132bd576040516381c4951960e01b815260040161098891815260200190565b505f828152600a60205260409020546001600160a01b031682816132f7576040516381c4951960e01b815260040161098891815260200190565b50608089018390526001600160a01b038083166101008b015281166101208a01525f8a81526008602090815260409091208a518155908a0151600180830180548d94939260ff199190911690836003811115613355576133556146a3565b02179055506040820151816002015560608201518160030190600261337b929190614577565b506080820151600582015560a08201516006820180546001600160a01b039092166001600160a01b031983168117825560c0850151926001600160a81b03191617600160a01b8360018111156133d3576133d36146a3565b021790555060e082015160078201906133ec9082615661565b506101008201516008820180546001600160a01b039283166001600160a01b031991821617909155610120840151600984018054919093169116179055610140820151600a820155610160820151600b820155610180820151600c8201906134549082615661565b506101a0820151600d90910180546101c0909301511515600160a01b026001600160a81b03199093166001600160a01b0392831617929092179091555f5460405163291a691b60e01b815291169063291a691b906134ba908d9089908d90600401615716565b6020604051808303815f875af11580156134d6573d5f5f3e3d5ffd5b505050506040513d601f19601f820116820180604052508101906134fa91906150e2565b61351757604051630d8dbe2560e01b815260040160405180910390fd5b61352760808c0160608d016145eb565b6001600160a01b03167f5090c9764b5cd13df7afc0013f733dfbe6eaf1b6ddc22a5e291fa387efd4c15e8b8b604051613561929190614dec565b60405180910390a2895f51602061591c5f395f51905f525f6001604051613589929190614e86565b60405180910390a25050505050505050915091565b5f818152600d602052604081205460ff16818160068111156135c2576135c26146a3565b036135e757826001826040516337e1404160e01b815260040161098893929190614e3e565b60058160068111156135fb576135fb6146a3565b0361361c5760405163462c7bed60e01b815260048101849052602401610988565b6006816006811115613630576136306146a3565b0361365157604051633de16e3560e11b815260048101849052602401610988565b5f61365c8483613b4a565b935090508061368157604051639f65d93560e01b815260048101859052602401610988565b5f848152600d6020526040902080546006919060ff191660018302179055505f848152600f60205260409020805484919060ff1916600183600d8111156136ca576136ca6146a3565b0217905550835f51602061591c5f395f51905f528360066040516136ef929190614e86565b60405180910390a2837fe20209be7caae6e76291267cfa711353981274bf127e94f16eb9ec44b68582bb838560405161372992919061575b565b60405180910390a25050919050565b61374061385f565b6001600160a01b0381161580159061376557505f546001600160a01b03828116911614155b8190613785576040516375ac4eb760e11b8152600401610988919061462a565b505f80546001600160a01b0319166001600160a01b0383161790556040517f80052b810d39120cf6c976cca504a21703f585521dc7a41c6d241090e6c579b690610ab090839061462a565b6001600160a01b0381165f90815260076020526040902054819060ff161561380c5760405163b29d459560e01b8152600401610988919061462a565b506001600160a01b0381165f9081526007602052604090819020805460ff19166001179055517fb8d368517268f297fff00825d67d098763117d061360d31027be5b2e1a59d46790610ab090839061462a565b33613868611665565b6001600160a01b031614611320573360405163118cdaa760e01b8152600401610988919061462a565b80356138b05760405163055f269d60e01b815260040160405180910390fd5b5f8160200135116138d45760405163055f269d60e01b815260040160405180910390fd5b5f8160400135116138f85760405163055f269d60e01b815260040160405180910390fd5b80356015819055602080830135601681905560408085013560178190558151948552928401919091528201527f7e86ba16b805e2835af5c5b7aa5a942ced8bcc1fb95a05fbe42dae3862350a1690606001610ab0565b5f807ff0c57e16840df040f15088dc2f81fe391c3923bec73e23a9662efc9c229c6a005b92915050565b6139806142d7565b610acc816142fc565b7f9016d09d72d40fdae2fd8ceac6b6234c7706214fd39c1cd1e609a0528c19930080546001600160a01b031981166001600160a01b03848116918217845560405192169182907f8be0079c531659141344cd1fd0a4f28419497f9722a3daafe3b4186f6b6457e0905f90a3505050565b5f818152600f602052604090205460609060ff16600181600d811115613a2157613a216146a3565b1480613a3e5750600281600d811115613a3c57613a3c6146a3565b145b15613a76575f5b604051908082528060200260200182016040528015613a6e578160200160208202803683370190505b509392505050565b5f5460405162beb08960e51b8152600481018590526001600160a01b03909116906317d61120906024015f60405180830381865afa925050508015613adc57506040513d5f823e601f3d908101601f19168201604052613ad99190810190615781565b60015b613ae6575f613a45565b9392505050565b613b4583846001600160a01b031663a9059cbb8585604051602401613b13929190615849565b604051602081830303815290604052915060e01b6020820180516001600160e01b038381831617835250505050614304565b505050565b5f828152600e60209081526040808320815160608101835281548152600182015493810193909352600201548282015282549051632800d82960e01b81526004810186905283929183916001600160a01b0390911690632800d82990602401602060405180830381865afa158015613bc4573d5f5f3e3d5ffd5b505050506040513d601f19601f82011682018060405250810190613be8919061516d565b90506001856006811115613bfe57613bfe6146a3565b148015613c0a57508042115b15613c1d57600180935093505050613ccb565b6002856006811115613c3157613c316146a3565b148015613c3e5750815142115b15613c525760016003935093505050613ccb565b6003856006811115613c6657613c666146a3565b148015613c765750816020015142115b15613c8a5760016006935093505050613ccb565b6004856006811115613c9e57613c9e6146a3565b148015613cae5750816040015142115b15613cc2576001600a935093505050613ccb565b5f5f9350935050505b9250929050565b5f805460405162beb08960e51b8152600481018490526001600160a01b03909116906317d61120906024015f60405180830381865afa158015613d17573d5f5f3e3d5ffd5b505050506040513d5f823e601f3d908101601f19168201604052613d3e9190810190615781565b80515f848152600c60209081526040808320805490849055601190925282205493945091926001600160a01b031690829003613ddc576002546040516341489f1560e01b81526001600160a01b03909116906341489f1590613da890889088908690600401615862565b5f604051808303815f87803b158015613dbf575f5ffd5b505af1158015613dd1573d5f5f3e3d5ffd5b505050505050505050565b825f03613e7d575f858152601060205260409020546001600160a01b03168015613e1457613e146001600160a01b0383168285613aed565b6002546040516341489f1560e01b81526001600160a01b03909116906341489f1590613e4890899089908790600401615862565b5f604051808303815f87803b158015613e5f575f5ffd5b505af1158015613e71573d5f5f3e3d5ffd5b50505050505050505050565b5f85815260136020908152604080832054601490925282205461ffff909116906001600160a01b03168115801590613ebd57506001600160a01b03811615155b15613ef957612710613ed361ffff841687615137565b613edd919061514e565b92508215613ef957613ef96001600160a01b0385168285613aed565b5f613f048487615184565b90505f876001600160401b03811115613f1f57613f1f614ea1565b604051908082528060200260200182016040528015613f48578160200160208202803683370190505b5090505f613f56898461514e565b90505f805b8a811015613f955782848281518110613f7657613f76615093565b6020908102919091010152613f8b8383614e73565b9150600101613f5b565b505f613fa18286615184565b90508015613fde578084613fb660018e615184565b81518110613fc657613fc6615093565b60200260200101818151613fda9190614e73565b9052505b600154613ff8906001600160a01b038b8116911687614367565b60015f9054906101000a90046001600160a01b03166001600160a01b031663dd8c818e8a8e876040518463ffffffff1660e01b815260040161403c939291906158c2565b5f604051808303815f87803b158015614053575f5ffd5b505af1158015614065573d5f5f3e3d5ffd5b505060015461408392506001600160a01b038c81169250165f614367565b8c7fac9fe8ad7f55eac03284399116ecafc104f10459773f4cdf47063c46e5be335a8d866040516140b59291906158f7565b60405180910390a260025f9054906101000a90046001600160a01b03166001600160a01b03166341489f158e8e8c6040518463ffffffff1660e01b815260040161410193929190615862565b5f604051808303815f87803b158015614118575f5ffd5b505af115801561412a573d5f5f3e3d5ffd5b5050505050505050505050505050505050565b5f828152600d602052604081205460ff1690816006811115614161576141616146a3565b0361418657826001826040516337e1404160e01b815260040161098893929190614e3e565b600581600681111561419a5761419a6146a3565b036141bb5760405163462c7bed60e01b815260048101849052602401610988565b60068160068111156141cf576141cf6146a3565b036141f057604051633de16e3560e11b815260048101849052602401610988565b5f838152600d6020526040902080546006919060ff191660018302179055505f838152600f60205260409020805483919060ff1916600183600d811115614239576142396146a3565b0217905550825f51602061591c5f395f51905f5282600660405161425e929190614e86565b60405180910390a2827fe20209be7caae6e76291267cfa711353981274bf127e94f16eb9ec44b68582bb8284604051612bf192919061575b565b6040516001600160a01b0384811660248301528381166044830152606482018390526142d19186918216906323b872dd90608401613b13565b50505050565b6142df6143f7565b61132057604051631afcd79f60e31b815260040160405180910390fd5b612c066142d7565b5f5f60205f8451602086015f885af180614323576040513d5f823e3d81fd5b50505f513d9150811561433a578060011415614347565b6001600160a01b0384163b155b156142d15783604051635274afe760e01b8152600401610988919061462a565b5f836001600160a01b031663095ea7b3848460405160240161438a929190615849565b604051602081830303815290604052915060e01b6020820180516001600160e01b03838183161783525050505090506143c38482614410565b6142d1576143ed84856001600160a01b031663095ea7b3865f604051602401613b13929190615849565b6142d18482614304565b5f61440061394e565b54600160401b900460ff16919050565b5f5f5f5f60205f8651602088015f8a5af192503d91505f51905082801561444f57508115614441578060011461444f565b5f866001600160a01b03163b115b9695505050505050565b604080516101e081019091525f808252602082019081526020015f81526020016144816145a5565b81525f602082018190526040820181905260608083018290526080830181905260a0830182905260c0830182905260e08301829052610100830182905261012083015261014082018190526101609091015290565b600183019183908215614567579160200282015f5b8382111561453557833563ffffffff1683826101000a81548163ffffffff021916908363ffffffff16021790555092602001926004016020816003010492830192600103026144eb565b80156145655782816101000a81549063ffffffff0219169055600401602081600301049283019260010302614535565b505b506145739291506145c3565b5090565b8260028101928215614567579160200282015b8281111561456757825182559160200191906001019061458a565b60405180604001604052806002906020820280368337509192915050565b5b80821115614573575f81556001016145c4565b6001600160a01b0381168114610acc575f5ffd5b5f602082840312156145fb575f5ffd5b8135613ae6816145d7565b5f60208284031215614616575f5ffd5b5035919050565b6001600160a01b03169052565b6001600160a01b0391909116815260200190565b80356004811061464c575f5ffd5b919050565b5f5f60408385031215614662575f5ffd5b61466b8361463e565b946020939093013593505050565b5f60608284031215610f13575f5ffd5b5f60608284031215614699575f5ffd5b613ae68383614679565b634e487b7160e01b5f52602160045260245ffd5b600e81106146c7576146c76146a3565b9052565b6020810161397282846146b7565b600481106146c7576146c76146a3565b600281106146c7576146c76146a3565b5f81518084528060208401602086015e5f602082860101526020601f19601f83011685010191505092915050565b8e8152614737602082018f6146d9565b8c60408201528b6060820152614750608082018c61461d565b61475d60a082018b6146e9565b6101c060c08201525f6147746101c083018b6146f9565b61478160e084018b61461d565b61478f61010084018a61461d565b87610120840152866101408401528281036101608401526147b081876146f9565b9150506147c161018083018561461d565b8215156101a08301529f9e505050505050505050505050505050565b805f5b60028110156142d15781518452602093840193909101906001016147e0565b805182525f602082015161481660208501826146d9565b5060408201516040840152606082015161483360608501826147dd565b50608082015160a084015260a082015161485060c085018261461d565b5060c082015161486360e08501826146e9565b5060e08201516102006101008501526148806102008501826146f9565b905061010083015161489661012086018261461d565b506101208301516148ab61014086018261461d565b506101408301516101608501526101608301516101808501526101808301518482036101a08601526148dd82826146f9565b9150506101a08301516148f46101c086018261461d565b506101c08301518015156101e0860152613a6e565b602081525f613ae660208301846147ff565b803561464c816145d7565b5f5f5f5f5f5f5f610120888a03121561493d575f5ffd5b8735614948816145d7565b96506020880135614958816145d7565b95506040880135614968816145d7565b94506060880135614978816145d7565b93506080880135614988816145d7565b925060a0880135915061499e8960c08a01614679565b905092959891949750929550565b80356002811061464c575f5ffd5b5f602082840312156149ca575f5ffd5b613ae6826149ac565b602081525f613ae660208301846146f9565b5f5f604083850312156149f6575f5ffd5b823591506020830135614a08816145d7565b809150509250929050565b5f5f60408385031215614a24575f5ffd5b50508035926020909101359150565b5f5f83601f840112614a43575f5ffd5b5081356001600160401b03811115614a59575f5ffd5b602083019150836020828501011115613ccb575f5ffd5b5f5f5f60408486031215614a82575f5ffd5b614a8b846149ac565b925060208401356001600160401b03811115614aa5575f5ffd5b614ab186828701614a33565b9497909650939450505050565b81518152602080830151908201526040808301519082015260608101613972565b821515815260408101613ae660208301846146b7565b5f5f5f5f5f60608688031215614b09575f5ffd5b8535945060208601356001600160401b03811115614b25575f5ffd5b614b3188828901614a33565b90955093505060408601356001600160401b03811115614b4f575f5ffd5b614b5b88828901614a33565b969995985093965092949392505050565b5f60208284031215614b7c575f5ffd5b81356001600160401b03811115614b91575f5ffd5b82016101008185031215613ae6575f5ffd5b5f6101e082019050825182526020830151602083015260408301516040830152606083015160608301526080830151608083015260a083015160a083015260c083015160c083015260e0830151614bfd60e084018261461d565b50610100830151614c1561010084018261ffff169052565b50610120830151614c2d61012084018261ffff169052565b50610140830151614c4561014084018261ffff169052565b50610160830151614c5d61016084018261ffff169052565b50610180830151614c7561018084018261ffff169052565b506101a0830151614c8f6101a084018263ffffffff169052565b506101c0830151614ca96101c084018263ffffffff169052565b5092915050565b5f5f5f5f5f5f5f6080888a031215614cc6575f5ffd5b8735965060208801356001600160401b03811115614ce2575f5ffd5b614cee8a828b01614a33565b90975095505060408801356001600160401b03811115614d0c575f5ffd5b614d188a828b01614a33565b90955093505060608801356001600160401b03811115614d36575f5ffd5b614d428a828b01614a33565b989b979a50959850939692959293505050565b5f5f60408385031215614d66575f5ffd5b82359150602083013560ff81168114614a08575f5ffd5b600781106146c7576146c76146a3565b602081016139728284614d7d565b5f6101e0828403128015614dad575f5ffd5b509092915050565b5f5f60608385031215614dc6575f5ffd5b614dcf8361463e565b915083606084011115614de0575f5ffd5b50926020919091019150565b828152604060208201525f614e0460408301846147ff565b949350505050565b600181811c90821680614e2057607f821691505b602082108103610f1357634e487b7160e01b5f52602260045260245ffd5b83815260608101614e526020830185614d7d565b614e046040830184614d7d565b634e487b7160e01b5f52601160045260245ffd5b8082018082111561397257613972614e5f565b60408101614e948285614d7d565b613ae66020830184614d7d565b634e487b7160e01b5f52604160045260245ffd5b601f821115613b4557805f5260205f20601f840160051c81016020851015614eda5750805b601f840160051c820191505b81811015614ef9575f8155600101614ee6565b5050505050565b5f19600383901b1c191660019190911b1790565b6001600160401b03831115614f2b57614f2b614ea1565b614f3f83614f398354614e0c565b83614eb5565b5f601f841160018114614f6b575f8515614f595750838201355b614f638682614f00565b845550614ef9565b5f83815260208120601f198716915b82811015614f9a5786850135825560209485019460019092019101614f7a565b5086821015614fb6575f1960f88860031b161c19848701351681555b505060018560011b0183555050505050565b81835281816020850137505f828201602090810191909152601f909101601f19169091010190565b614ffa81856146e9565b604060208201525f615010604083018486614fc8565b95945050505050565b5f8151808452602084019350602083015f5b828110156150525781516001600160a01b031686526020958601959091019060010161502b565b5093949350505050565b848152836020820152608060408201525f61507a6080830185615019565b905060018060a01b038316606083015295945050505050565b634e487b7160e01b5f52603260045260245ffd5b818382375f9101908152919050565b848152836020820152606060408201525f61444f606083018486614fc8565b8015158114610acc575f5ffd5b5f602082840312156150f2575f5ffd5b8151613ae6816150d5565b602081525f614e04602083018486614fc8565b5f60208284031215615120575f5ffd5b613ae68261463e565b6020810161397282846146d9565b808202811582820484141761397257613972614e5f565b5f8261516857634e487b7160e01b5f52601260045260245ffd5b500490565b5f6020828403121561517d575f5ffd5b5051919050565b8181038181111561397257613972614e5f565b858152606060208201525f6151b0606083018688614fc8565b82810360408401526151c3818587614fc8565b98975050505050505050565b604081525f6151e2604083018688614fc8565b82810360208401526151f5818587614fc8565b979650505050505050565b61ffff81168114610acc575f5ffd5b803561464c81615200565b5f6020828403121561522a575f5ffd5b8135613ae681615200565b63ffffffff81168114610acc575f5ffd5b803561464c81615235565b5f60208284031215615261575f5ffd5b8135613ae681615235565b5f8135613972816145d7565b5f813561397281615200565b5f813561397281615235565b813581556020820135600182015560408201356002820155606082013560038201556080820135600482015560a0820135600582015560c08201356006820155600781016153006152e360e0850161526c565b82546001600160a01b0319166001600160a01b0391909116178255565b6153306153106101008501615278565b82805461ffff60a01b191660a09290921b61ffff60a01b16919091179055565b6153606153406101208501615278565b82805461ffff60b01b191660b09290921b61ffff60b01b16919091179055565b6153906153706101408501615278565b82805461ffff60c01b191660c09290921b61ffff60c01b16919091179055565b6153c06153a06101608501615278565b82805461ffff60d01b191660d09290921b61ffff60d01b16919091179055565b6153f06153d06101808501615278565b82805461ffff60e01b191660e09290921b61ffff60e01b16919091179055565b506008810161541c6154056101a08501615284565b825463ffffffff191663ffffffff91909116178255565b613b4561542c6101c08501615284565b825467ffffffff00000000191660209190911b67ffffffff0000000016178255565b813581526020808301359082015260408083013590820152606080830135908201526080808301359082015260a0808301359082015260c080830135908201526101e0810161549f60e0840161491b565b6154ac60e084018261461d565b506154ba610100840161520f565b61ffff166101008301526154d1610120840161520f565b61ffff166101208301526154e8610140840161520f565b61ffff166101408301526154ff610160840161520f565b61ffff16610160830152615516610180840161520f565b61ffff1661018083015261552d6101a08401615246565b63ffffffff166101a08301526155466101c08401615246565b63ffffffff81166101c0840152614ca9565b6040810181835f5b600281101561558f57813561557481615235565b63ffffffff1683526020928301929190910190600101615560565b50505092915050565b5f600182016155a9576155a9614e5f565b5060010190565b5f5f8335601e198436030181126155c5575f5ffd5b8301803591506001600160401b038211156155de575f5ffd5b602001915036819003821315613ccb575f5ffd5b5f60208284031215615602575f5ffd5b8135613ae6816150d5565b87815286602082015260a060408201525f61562b60a08301886146f9565b828103606084015261563e818789614fc8565b90508281036080840152615653818587614fc8565b9a9950505050505050505050565b81516001600160401b0381111561567a5761567a614ea1565b61568e816156888454614e0c565b84614eb5565b6020601f8211600181146156bb575f83156156a95750848201515b6156b38482614f00565b855550614ef9565b5f84815260208120601f198516915b828110156156ea57878501518255602094850194600190920191016156ca565b508482101561570757868401515f19600387901b60f8161c191681555b50505050600190811b01905550565b838152602081018390526080810160408201835f5b600281101561575057815163ffffffff1683526020928301929091019060010161572b565b505050949350505050565b604081016157698285614d7d565b613ae660208301846146b7565b805161464c816145d7565b5f60208284031215615791575f5ffd5b81516001600160401b038111156157a6575f5ffd5b8201601f810184136157b6575f5ffd5b80516001600160401b038111156157cf576157cf614ea1565b8060051b604051601f19603f83011681018181106001600160401b03821117156157fb576157fb614ea1565b604052918252602081840181019290810187841115615818575f5ffd5b6020850194505b8385101561583e5761583085615776565b81526020948501940161581f565b509695505050505050565b6001600160a01b03929092168252602082015260400190565b838152606060208201525f61587a6060830185615019565b905060018060a01b0383166040830152949350505050565b5f8151808452602084019350602083015f5b828110156150525781518652602095860195909101906001016158a4565b6001600160a01b03841681526060602082018190525f906158e590830185615019565b828103604084015261444f8185615892565b604081525f6159096040830185615019565b8281036020840152615010818561589256fe1b418a230a21d37a078bf8f16decbde8ccceacd77159371f62f0d4ea00d19967a164736f6c634300081c000a",
  "linkReferences": {},
  "deployedLinkReferences": {},
  "immutableReferences": {},
  "inputSourceName": "project/contracts/Enclave.sol",
  "buildInfoId": "solc-0_8_28-5001586370e544afe3682c8bcabe8ae3f3167a96"
}