{
  "_format": "hh3-artifact-1",
  "contractName": "Enclave",
  "sourceName": "contracts/Enclave.sol",
  "abi": [
    {
      "inputs": [],
      "stateMutability": "nonpayable",
      "type": "constructor"
    },
    {
      "inputs": [
        {
          "internalType": "uint256",
          "name": "size",
          "type": "uint256"
        },
        {
          "internalType": "uint256",
          "name": "minimum",
          "type": "uint256"
        }
      ],
      "name": "BelowMinCommitteeSize",
      "type": "error"
    },
    {
      "inputs": [
        {
          "internalType": "uint256",
          "name": "threshold",
          "type": "uint256"
        },
        {
          "internalType": "uint256",
          "name": "minimum",
          "type": "uint256"
        }
      ],
      "name": "BelowMinThreshold",
      "type": "error"
    },
    {
      "inputs": [
        {
          "internalType": "uint256",
          "name": "value",
          "type": "uint256"
        }
      ],
      "name": "BpsExceedsMax",
      "type": "error"
    },
    {
      "inputs": [
        {
          "internalType": "uint256",
          "name": "e3Id",
          "type": "uint256"
        }
      ],
      "name": "CiphertextOutputAlreadyPublished",
      "type": "error"
    },
    {
      "inputs": [
        {
          "internalType": "uint256",
          "name": "e3Id",
          "type": "uint256"
        }
      ],
      "name": "CiphertextOutputNotPublished",
      "type": "error"
    },
    {
      "inputs": [
        {
          "internalType": "uint256",
          "name": "e3Id",
          "type": "uint256"
        },
        {
          "internalType": "uint256",
          "name": "expiration",
          "type": "uint256"
        }
      ],
      "name": "CommitteeDutiesCompleted",
      "type": "error"
    },
    {
      "inputs": [],
      "name": "CommitteeSelectionFailed",
      "type": "error"
    },
    {
      "inputs": [
        {
          "internalType": "enum IEnclave.CommitteeSize",
          "name": "committeeSize",
          "type": "uint8"
        }
      ],
      "name": "CommitteeSizeNotConfigured",
      "type": "error"
    },
    {
      "inputs": [
        {
          "internalType": "enum IEnclave.CommitteeSize",
          "name": "committeeSize",
          "type": "uint8"
        }
      ],
      "name": "CommitteeSizeTooSmall",
      "type": "error"
    },
    {
      "inputs": [
        {
          "internalType": "uint256",
          "name": "e3Id",
          "type": "uint256"
        }
      ],
      "name": "E3AlreadyComplete",
      "type": "error"
    },
    {
      "inputs": [
        {
          "internalType": "uint256",
          "name": "e3Id",
          "type": "uint256"
        }
      ],
      "name": "E3AlreadyFailed",
      "type": "error"
    },
    {
      "inputs": [
        {
          "internalType": "uint256",
          "name": "e3Id",
          "type": "uint256"
        }
      ],
      "name": "E3DoesNotExist",
      "type": "error"
    },
    {
      "inputs": [
        {
          "internalType": "uint256",
          "name": "e3Id",
          "type": "uint256"
        }
      ],
      "name": "E3NotFailed",
      "type": "error"
    },
    {
      "inputs": [
        {
          "internalType": "contract IE3Program",
          "name": "e3Program",
          "type": "address"
        }
      ],
      "name": "E3ProgramNotAllowed",
      "type": "error"
    },
    {
      "inputs": [
        {
          "internalType": "uint256",
          "name": "e3Id",
          "type": "uint256"
        }
      ],
      "name": "FailureConditionNotMet",
      "type": "error"
    },
    {
      "inputs": [
        {
          "internalType": "uint256",
          "name": "e3Id",
          "type": "uint256"
        },
        {
          "internalType": "uint256",
          "name": "inputDeadline",
          "type": "uint256"
        }
      ],
      "name": "InputDeadlineNotReached",
      "type": "error"
    },
    {
      "inputs": [
        {
          "internalType": "contract IBondingRegistry",
          "name": "bondingRegistry",
          "type": "address"
        }
      ],
      "name": "InvalidBondingRegistry",
      "type": "error"
    },
    {
      "inputs": [
        {
          "internalType": "contract ICiphernodeRegistry",
          "name": "ciphernodeRegistry",
          "type": "address"
        }
      ],
      "name": "InvalidCiphernodeRegistry",
      "type": "error"
    },
    {
      "inputs": [
        {
          "internalType": "uint256",
          "name": "duration",
          "type": "uint256"
        }
      ],
      "name": "InvalidDuration",
      "type": "error"
    },
    {
      "inputs": [
        {
          "internalType": "bytes32",
          "name": "encryptionSchemeId",
          "type": "bytes32"
        }
      ],
      "name": "InvalidEncryptionScheme",
      "type": "error"
    },
    {
      "inputs": [
        {
          "internalType": "contract IERC20",
          "name": "feeToken",
          "type": "address"
        }
      ],
      "name": "InvalidFeeToken",
      "type": "error"
    },
    {
      "inputs": [],
      "name": "InvalidInitialization",
      "type": "error"
    },
    {
      "inputs": [
        {
          "internalType": "uint256",
          "name": "deadline",
          "type": "uint256"
        }
      ],
      "name": "InvalidInputDeadline",
      "type": "error"
    },
    {
      "inputs": [
        {
          "internalType": "uint256",
          "name": "end",
          "type": "uint256"
        }
      ],
      "name": "InvalidInputDeadlineEnd",
      "type": "error"
    },
    {
      "inputs": [
        {
          "internalType": "uint256",
          "name": "start",
          "type": "uint256"
        }
      ],
      "name": "InvalidInputDeadlineStart",
      "type": "error"
    },
    {
      "inputs": [
        {
          "internalType": "bytes",
          "name": "output",
          "type": "bytes"
        }
      ],
      "name": "InvalidOutput",
      "type": "error"
    },
    {
      "inputs": [
        {
          "internalType": "uint256",
          "name": "e3Id",
          "type": "uint256"
        },
        {
          "internalType": "enum IEnclave.E3Stage",
          "name": "expected",
          "type": "uint8"
        },
        {
          "internalType": "enum IEnclave.E3Stage",
          "name": "actual",
          "type": "uint8"
        }
      ],
      "name": "InvalidStage",
      "type": "error"
    },
    {
      "inputs": [],
      "name": "InvalidThresholdValues",
      "type": "error"
    },
    {
      "inputs": [],
      "name": "InvalidTimeoutWindow",
      "type": "error"
    },
    {
      "inputs": [],
      "name": "MinSizeBelowMinThreshold",
      "type": "error"
    },
    {
      "inputs": [
        {
          "internalType": "address",
          "name": "module",
          "type": "address"
        }
      ],
      "name": "ModuleAlreadyEnabled",
      "type": "error"
    },
    {
      "inputs": [
        {
          "internalType": "address",
          "name": "module",
          "type": "address"
        }
      ],
      "name": "ModuleNotEnabled",
      "type": "error"
    },
    {
      "inputs": [
        {
          "internalType": "uint256",
          "name": "e3Id",
          "type": "uint256"
        }
      ],
      "name": "NoPaymentToRefund",
      "type": "error"
    },
    {
      "inputs": [],
      "name": "NotInitializing",
      "type": "error"
    },
    {
      "inputs": [],
      "name": "OnlyCiphernodeRegistry",
      "type": "error"
    },
    {
      "inputs": [],
      "name": "OnlyCiphernodeRegistryOrSlashingManager",
      "type": "error"
    },
    {
      "inputs": [],
      "name": "OnlySlashingManager",
      "type": "error"
    },
    {
      "inputs": [
        {
          "internalType": "address",
          "name": "owner",
          "type": "address"
        }
      ],
      "name": "OwnableInvalidOwner",
      "type": "error"
    },
    {
      "inputs": [
        {
          "internalType": "address",
          "name": "account",
          "type": "address"
        }
      ],
      "name": "OwnableUnauthorizedAccount",
      "type": "error"
    },
    {
      "inputs": [
        {
          "internalType": "uint256",
          "name": "value",
          "type": "uint256"
        }
      ],
      "name": "PaymentRequired",
      "type": "error"
    },
    {
      "inputs": [
        {
          "internalType": "uint256",
          "name": "e3Id",
          "type": "uint256"
        }
      ],
      "name": "PlaintextOutputAlreadyPublished",
      "type": "error"
    },
    {
      "inputs": [
        {
          "internalType": "address",
          "name": "token",
          "type": "address"
        }
      ],
      "name": "SafeERC20FailedOperation",
      "type": "error"
    },
    {
      "inputs": [
        {
          "internalType": "uint256",
          "name": "threshold",
          "type": "uint256"
        }
      ],
      "name": "ThresholdTooSmall",
      "type": "error"
    },
    {
      "inputs": [],
      "name": "TreasuryRequired",
      "type": "error"
    },
    {
      "inputs": [
        {
          "internalType": "uint256",
          "name": "value",
          "type": "uint256"
        }
      ],
      "name": "UtilizationBpsExceedsMax",
      "type": "error"
    },
    {
      "anonymous": false,
      "inputs": [
        {
          "indexed": false,
          "internalType": "bytes[]",
          "name": "e3ProgramParams",
          "type": "bytes[]"
        }
      ],
      "name": "AllowedE3ProgramsParamsSet",
      "type": "event"
    },
    {
      "anonymous": false,
      "inputs": [
        {
          "indexed": false,
          "internalType": "address",
          "name": "bondingRegistry",
          "type": "address"
        }
      ],
      "name": "BondingRegistrySet",
      "type": "event"
    },
    {
      "anonymous": false,
      "inputs": [
        {
          "indexed": false,
          "internalType": "address",
          "name": "ciphernodeRegistry",
          "type": "address"
        }
      ],
      "name": "CiphernodeRegistrySet",
      "type": "event"
    },
    {
      "anonymous": false,
      "inputs": [
        {
          "indexed": true,
          "internalType": "uint256",
          "name": "e3Id",
          "type": "uint256"
        },
        {
          "indexed": false,
          "internalType": "bytes",
          "name": "ciphertextOutput",
          "type": "bytes"
        }
      ],
      "name": "CiphertextOutputPublished",
      "type": "event"
    },
    {
      "anonymous": false,
      "inputs": [
        {
          "indexed": true,
          "internalType": "uint256",
          "name": "e3Id",
          "type": "uint256"
        }
      ],
      "name": "CommitteeFinalized",
      "type": "event"
    },
    {
      "anonymous": false,
      "inputs": [
        {
          "indexed": true,
          "internalType": "uint256",
          "name": "e3Id",
          "type": "uint256"
        }
      ],
      "name": "CommitteeFormed",
      "type": "event"
    },
    {
      "anonymous": false,
      "inputs": [
        {
          "indexed": true,
          "internalType": "enum IEnclave.CommitteeSize",
          "name": "size",
          "type": "uint8"
        },
        {
          "indexed": false,
          "internalType": "uint32[2]",
          "name": "threshold",
          "type": "uint32[2]"
        }
      ],
      "name": "CommitteeThresholdsUpdated",
      "type": "event"
    },
    {
      "anonymous": false,
      "inputs": [
        {
          "indexed": true,
          "internalType": "uint256",
          "name": "e3Id",
          "type": "uint256"
        },
        {
          "indexed": false,
          "internalType": "enum IEnclave.E3Stage",
          "name": "failedAtStage",
          "type": "uint8"
        },
        {
          "indexed": false,
          "internalType": "enum IEnclave.FailureReason",
          "name": "reason",
          "type": "uint8"
        }
      ],
      "name": "E3Failed",
      "type": "event"
    },
    {
      "anonymous": false,
      "inputs": [
        {
          "indexed": true,
          "internalType": "uint256",
          "name": "e3Id",
          "type": "uint256"
        },
        {
          "indexed": false,
          "internalType": "uint256",
          "name": "paymentAmount",
          "type": "uint256"
        },
        {
          "indexed": false,
          "internalType": "uint256",
          "name": "honestNodeCount",
          "type": "uint256"
        }
      ],
      "name": "E3FailureProcessed",
      "type": "event"
    },
    {
      "anonymous": false,
      "inputs": [
        {
          "indexed": false,
          "internalType": "contract IE3Program",
          "name": "e3Program",
          "type": "address"
        }
      ],
      "name": "E3ProgramDisabled",
      "type": "event"
    },
    {
      "anonymous": false,
      "inputs": [
        {
          "indexed": false,
          "internalType": "contract IE3Program",
          "name": "e3Program",
          "type": "address"
        }
      ],
      "name": "E3ProgramEnabled",
      "type": "event"
    },
    {
      "anonymous": false,
      "inputs": [
        {
          "indexed": false,
          "internalType": "bytes[]",
          "name": "e3ProgramParams",
          "type": "bytes[]"
        }
      ],
      "name": "E3ProgramsParamsRemoved",
      "type": "event"
    },
    {
      "anonymous": false,
      "inputs": [
        {
          "indexed": true,
          "internalType": "address",
          "name": "e3RefundManager",
          "type": "address"
        }
      ],
      "name": "E3RefundManagerSet",
      "type": "event"
    },
    {
      "anonymous": false,
      "inputs": [
        {
          "indexed": false,
          "internalType": "uint256",
          "name": "e3Id",
          "type": "uint256"
        },
        {
          "components": [
            {
              "internalType": "uint256",
              "name": "seed",
              "type": "uint256"
            },
            {
              "internalType": "enum IEnclave.CommitteeSize",
              "name": "committeeSize",
              "type": "uint8"
            },
            {
              "internalType": "uint256",
              "name": "requestBlock",
              "type": "uint256"
            },
            {
              "internalType": "uint256[2]",
              "name": "inputWindow",
              "type": "uint256[2]"
            },
            {
              "internalType": "bytes32",
              "name": "encryptionSchemeId",
              "type": "bytes32"
            },
            {
              "internalType": "contract IE3Program",
              "name": "e3Program",
              "type": "address"
            },
            {
              "internalType": "bytes",
              "name": "e3ProgramParams",
              "type": "bytes"
            },
            {
              "internalType": "bytes",
              "name": "customParams",
              "type": "bytes"
            },
            {
              "internalType": "contract IDecryptionVerifier",
              "name": "decryptionVerifier",
              "type": "address"
            },
            {
              "internalType": "contract IPkVerifier",
              "name": "pkVerifier",
              "type": "address"
            },
            {
              "internalType": "bytes32",
              "name": "committeePublicKey",
              "type": "bytes32"
            },
            {
              "internalType": "bytes32",
              "name": "ciphertextOutput",
              "type": "bytes32"
            },
            {
              "internalType": "bytes",
              "name": "plaintextOutput",
              "type": "bytes"
            },
            {
              "internalType": "address",
              "name": "requester",
              "type": "address"
            },
            {
              "internalType": "bool",
              "name": "proofAggregationEnabled",
              "type": "bool"
            }
          ],
          "indexed": false,
          "internalType": "struct E3",
          "name": "e3",
          "type": "tuple"
        },
        {
          "indexed": true,
          "internalType": "contract IE3Program",
          "name": "e3Program",
          "type": "address"
        }
      ],
      "name": "E3Requested",
      "type": "event"
    },
    {
      "anonymous": false,
      "inputs": [
        {
          "indexed": true,
          "internalType": "uint256",
          "name": "e3Id",
          "type": "uint256"
        },
        {
          "indexed": false,
          "internalType": "enum IEnclave.E3Stage",
          "name": "previousStage",
          "type": "uint8"
        },
        {
          "indexed": false,
          "internalType": "enum IEnclave.E3Stage",
          "name": "newStage",
          "type": "uint8"
        }
      ],
      "name": "E3StageChanged",
      "type": "event"
    },
    {
      "anonymous": false,
      "inputs": [
        {
          "indexed": false,
          "internalType": "bytes32",
          "name": "encryptionSchemeId",
          "type": "bytes32"
        }
      ],
      "name": "EncryptionSchemeDisabled",
      "type": "event"
    },
    {
      "anonymous": false,
      "inputs": [
        {
          "indexed": false,
          "internalType": "bytes32",
          "name": "encryptionSchemeId",
          "type": "bytes32"
        }
      ],
      "name": "EncryptionSchemeEnabled",
      "type": "event"
    },
    {
      "anonymous": false,
      "inputs": [
        {
          "indexed": false,
          "internalType": "address",
          "name": "feeToken",
          "type": "address"
        }
      ],
      "name": "FeeTokenSet",
      "type": "event"
    },
    {
      "anonymous": false,
      "inputs": [
        {
          "indexed": false,
          "internalType": "uint64",
          "name": "version",
          "type": "uint64"
        }
      ],
      "name": "Initialized",
      "type": "event"
    },
    {
      "anonymous": false,
      "inputs": [
        {
          "indexed": true,
          "internalType": "uint256",
          "name": "e3Id",
          "type": "uint256"
        },
        {
          "indexed": false,
          "internalType": "bytes",
          "name": "data",
          "type": "bytes"
        },
        {
          "indexed": false,
          "internalType": "uint256",
          "name": "inputHash",
          "type": "uint256"
        },
        {
          "indexed": false,
          "internalType": "uint256",
          "name": "index",
          "type": "uint256"
        }
      ],
      "name": "InputPublished",
      "type": "event"
    },
    {
      "anonymous": false,
      "inputs": [
        {
          "indexed": false,
          "internalType": "uint256",
          "name": "maxDuration",
          "type": "uint256"
        }
      ],
      "name": "MaxDurationSet",
      "type": "event"
    },
    {
      "anonymous": false,
      "inputs": [
        {
          "indexed": true,
          "internalType": "address",
          "name": "previousOwner",
          "type": "address"
        },
        {
          "indexed": true,
          "internalType": "address",
          "name": "newOwner",
          "type": "address"
        }
      ],
      "name": "OwnershipTransferred",
      "type": "event"
    },
    {
      "anonymous": false,
      "inputs": [
        {
          "indexed": true,
          "internalType": "uint256",
          "name": "e3Id",
          "type": "uint256"
        },
        {
          "indexed": false,
          "internalType": "bytes",
          "name": "plaintextOutput",
          "type": "bytes"
        },
        {
          "indexed": false,
          "internalType": "bytes",
          "name": "proof",
          "type": "bytes"
        }
      ],
      "name": "PlaintextOutputPublished",
      "type": "event"
    },
    {
      "anonymous": false,
      "inputs": [
        {
          "components": [
            {
              "internalType": "uint256",
              "name": "keyGenFixedPerNode",
              "type": "uint256"
            },
            {
              "internalType": "uint256",
              "name": "keyGenPerEncryptionProof",
              "type": "uint256"
            },
            {
              "internalType": "uint256",
              "name": "coordinationPerPair",
              "type": "uint256"
            },
            {
              "internalType": "uint256",
              "name": "availabilityPerNodePerSec",
              "type": "uint256"
            },
            {
              "internalType": "uint256",
              "name": "decryptionPerNode",
              "type": "uint256"
            },
            {
              "internalType": "uint256",
              "name": "publicationBase",
              "type": "uint256"
            },
            {
              "internalType": "uint256",
              "name": "verificationPerProof",
              "type": "uint256"
            },
            {
              "internalType": "address",
              "name": "protocolTreasury",
              "type": "address"
            },
            {
              "internalType": "uint16",
              "name": "marginBps",
              "type": "uint16"
            },
            {
              "internalType": "uint16",
              "name": "protocolShareBps",
              "type": "uint16"
            },
            {
              "internalType": "uint16",
              "name": "dkgUtilizationBps",
              "type": "uint16"
            },
            {
              "internalType": "uint16",
              "name": "computeUtilizationBps",
              "type": "uint16"
            },
            {
              "internalType": "uint16",
              "name": "decryptUtilizationBps",
              "type": "uint16"
            },
            {
              "internalType": "uint32",
              "name": "minCommitteeSize",
              "type": "uint32"
            },
            {
              "internalType": "uint32",
              "name": "minThreshold",
              "type": "uint32"
            }
          ],
          "indexed": false,
          "internalType": "struct IEnclave.PricingConfig",
          "name": "config",
          "type": "tuple"
        }
      ],
      "name": "PricingConfigUpdated",
      "type": "event"
    },
    {
      "anonymous": false,
      "inputs": [
        {
          "indexed": true,
          "internalType": "uint256",
          "name": "e3Id",
          "type": "uint256"
        },
        {
          "indexed": false,
          "internalType": "address[]",
          "name": "nodes",
          "type": "address[]"
        },
        {
          "indexed": false,
          "internalType": "uint256[]",
          "name": "amounts",
          "type": "uint256[]"
        }
      ],
      "name": "RewardsDistributed",
      "type": "event"
    },
    {
      "anonymous": false,
      "inputs": [
        {
          "indexed": true,
          "internalType": "uint256",
          "name": "e3Id",
          "type": "uint256"
        },
        {
          "indexed": false,
          "internalType": "uint256",
          "name": "amount",
          "type": "uint256"
        }
      ],
      "name": "SlashedFundsEscrowed",
      "type": "event"
    },
    {
      "anonymous": false,
      "inputs": [
        {
          "indexed": true,
          "internalType": "address",
          "name": "slashingManager",
          "type": "address"
        }
      ],
      "name": "SlashingManagerSet",
      "type": "event"
    },
    {
      "anonymous": false,
      "inputs": [
        {
          "components": [
            {
              "internalType": "uint256",
              "name": "dkgWindow",
              "type": "uint256"
            },
            {
              "internalType": "uint256",
              "name": "computeWindow",
              "type": "uint256"
            },
            {
              "internalType": "uint256",
              "name": "decryptionWindow",
              "type": "uint256"
            }
          ],
          "indexed": false,
          "internalType": "struct IEnclave.E3TimeoutConfig",
          "name": "config",
          "type": "tuple"
        }
      ],
      "name": "TimeoutConfigUpdated",
      "type": "event"
    },
    {
      "inputs": [],
      "name": "bondingRegistry",
      "outputs": [
        {
          "internalType": "contract IBondingRegistry",
          "name": "",
          "type": "address"
        }
      ],
      "stateMutability": "view",
      "type": "function"
    },
    {
      "inputs": [
        {
          "internalType": "uint256",
          "name": "e3Id",
          "type": "uint256"
        }
      ],
      "name": "checkFailureCondition",
      "outputs": [
        {
          "internalType": "bool",
          "name": "canFail",
          "type": "bool"
        },
        {
          "internalType": "enum IEnclave.FailureReason",
          "name": "reason",
          "type": "uint8"
        }
      ],
      "stateMutability": "view",
      "type": "function"
    },
    {
      "inputs": [],
      "name": "ciphernodeRegistry",
      "outputs": [
        {
          "internalType": "contract ICiphernodeRegistry",
          "name": "",
          "type": "address"
        }
      ],
      "stateMutability": "view",
      "type": "function"
    },
    {
      "inputs": [
        {
          "internalType": "enum IEnclave.CommitteeSize",
          "name": "",
          "type": "uint8"
        },
        {
          "internalType": "uint256",
          "name": "",
          "type": "uint256"
        }
      ],
      "name": "committeeThresholds",
      "outputs": [
        {
          "internalType": "uint32",
          "name": "threshold",
          "type": "uint32"
        }
      ],
      "stateMutability": "view",
      "type": "function"
    },
    {
      "inputs": [
        {
          "internalType": "bytes32",
          "name": "encryptionSchemeId",
          "type": "bytes32"
        }
      ],
      "name": "decryptionVerifiers",
      "outputs": [
        {
          "internalType": "contract IDecryptionVerifier",
          "name": "decryptionVerifier",
          "type": "address"
        }
      ],
      "stateMutability": "view",
      "type": "function"
    },
    {
      "inputs": [
        {
          "internalType": "contract IE3Program",
          "name": "e3Program",
          "type": "address"
        }
      ],
      "name": "disableE3Program",
      "outputs": [],
      "stateMutability": "nonpayable",
      "type": "function"
    },
    {
      "inputs": [
        {
          "internalType": "bytes32",
          "name": "encryptionSchemeId",
          "type": "bytes32"
        }
      ],
      "name": "disableEncryptionScheme",
      "outputs": [],
      "stateMutability": "nonpayable",
      "type": "function"
    },
    {
      "inputs": [
        {
          "internalType": "uint256",
          "name": "e3Id",
          "type": "uint256"
        }
      ],
      "name": "e3Payments",
      "outputs": [
        {
          "internalType": "uint256",
          "name": "e3Payment",
          "type": "uint256"
        }
      ],
      "stateMutability": "view",
      "type": "function"
    },
    {
      "inputs": [
        {
          "internalType": "contract IE3Program",
          "name": "e3Program",
          "type": "address"
        }
      ],
      "name": "e3Programs",
      "outputs": [
        {
          "internalType": "bool",
          "name": "allowed",
          "type": "bool"
        }
      ],
      "stateMutability": "view",
      "type": "function"
    },
    {
      "inputs": [
        {
          "internalType": "bytes",
          "name": "e3ProgramParams",
          "type": "bytes"
        }
      ],
      "name": "e3ProgramsParams",
      "outputs": [
        {
          "internalType": "bool",
          "name": "allowed",
          "type": "bool"
        }
      ],
      "stateMutability": "view",
      "type": "function"
    },
    {
      "inputs": [],
      "name": "e3RefundManager",
      "outputs": [
        {
          "internalType": "contract IE3RefundManager",
          "name": "",
          "type": "address"
        }
      ],
      "stateMutability": "view",
      "type": "function"
    },
    {
      "inputs": [
        {
          "internalType": "uint256",
          "name": "e3Id",
          "type": "uint256"
        }
      ],
      "name": "e3s",
      "outputs": [
        {
          "internalType": "uint256",
          "name": "seed",
          "type": "uint256"
        },
        {
          "internalType": "enum IEnclave.CommitteeSize",
          "name": "committeeSize",
          "type": "uint8"
        },
        {
          "internalType": "uint256",
          "name": "requestBlock",
          "type": "uint256"
        },
        {
          "internalType": "bytes32",
          "name": "encryptionSchemeId",
          "type": "bytes32"
        },
        {
          "internalType": "contract IE3Program",
          "name": "e3Program",
          "type": "address"
        },
        {
          "internalType": "bytes",
          "name": "e3ProgramParams",
          "type": "bytes"
        },
        {
          "internalType": "bytes",
          "name": "customParams",
          "type": "bytes"
        },
        {
          "internalType": "contract IDecryptionVerifier",
          "name": "decryptionVerifier",
          "type": "address"
        },
        {
          "internalType": "contract IPkVerifier",
          "name": "pkVerifier",
          "type": "address"
        },
        {
          "internalType": "bytes32",
          "name": "committeePublicKey",
          "type": "bytes32"
        },
        {
          "internalType": "bytes32",
          "name": "ciphertextOutput",
          "type": "bytes32"
        },
        {
          "internalType": "bytes",
          "name": "plaintextOutput",
          "type": "bytes"
        },
        {
          "internalType": "address",
          "name": "requester",
          "type": "address"
        },
        {
          "internalType": "bool",
          "name": "proofAggregationEnabled",
          "type": "bool"
        }
      ],
      "stateMutability": "view",
      "type": "function"
    },
    {
      "inputs": [
        {
          "internalType": "contract IE3Program",
          "name": "e3Program",
          "type": "address"
        }
      ],
      "name": "enableE3Program",
      "outputs": [],
      "stateMutability": "nonpayable",
      "type": "function"
    },
    {
      "inputs": [
        {
          "internalType": "uint256",
          "name": "e3Id",
          "type": "uint256"
        },
        {
          "internalType": "uint256",
          "name": "amount",
          "type": "uint256"
        }
      ],
      "name": "escrowSlashedFunds",
      "outputs": [],
      "stateMutability": "nonpayable",
      "type": "function"
    },
    {
      "inputs": [],
      "name": "feeToken",
      "outputs": [
        {
          "internalType": "contract IERC20",
          "name": "",
          "type": "address"
        }
      ],
      "stateMutability": "view",
      "type": "function"
    },
    {
      "inputs": [
        {
          "internalType": "uint256",
          "name": "e3Id",
          "type": "uint256"
        }
      ],
      "name": "getDeadlines",
      "outputs": [
        {
          "components": [
            {
              "internalType": "uint256",
              "name": "dkgDeadline",
              "type": "uint256"
            },
            {
              "internalType": "uint256",
              "name": "computeDeadline",
              "type": "uint256"
            },
            {
              "internalType": "uint256",
              "name": "decryptionDeadline",
              "type": "uint256"
            }
          ],
          "internalType": "struct IEnclave.E3Deadlines",
          "name": "deadlines",
          "type": "tuple"
        }
      ],
      "stateMutability": "view",
      "type": "function"
    },
    {
      "inputs": [
        {
          "internalType": "bytes32",
          "name": "encryptionSchemeId",
          "type": "bytes32"
        }
      ],
      "name": "getDecryptionVerifier",
      "outputs": [
        {
          "internalType": "contract IDecryptionVerifier",
          "name": "",
          "type": "address"
        }
      ],
      "stateMutability": "view",
      "type": "function"
    },
    {
      "inputs": [
        {
          "internalType": "uint256",
          "name": "e3Id",
          "type": "uint256"
        }
      ],
      "name": "getE3",
      "outputs": [
        {
          "components": [
            {
              "internalType": "uint256",
              "name": "seed",
              "type": "uint256"
            },
            {
              "internalType": "enum IEnclave.CommitteeSize",
              "name": "committeeSize",
              "type": "uint8"
            },
            {
              "internalType": "uint256",
              "name": "requestBlock",
              "type": "uint256"
            },
            {
              "internalType": "uint256[2]",
              "name": "inputWindow",
              "type": "uint256[2]"
            },
            {
              "internalType": "bytes32",
              "name": "encryptionSchemeId",
              "type": "bytes32"
            },
            {
              "internalType": "contract IE3Program",
              "name": "e3Program",
              "type": "address"
            },
            {
              "internalType": "bytes",
              "name": "e3ProgramParams",
              "type": "bytes"
            },
            {
              "internalType": "bytes",
              "name": "customParams",
              "type": "bytes"
            },
            {
              "internalType": "contract IDecryptionVerifier",
              "name": "decryptionVerifier",
              "type": "address"
            },
            {
              "internalType": "contract IPkVerifier",
              "name": "pkVerifier",
              "type": "address"
            },
            {
              "internalType": "bytes32",
              "name": "committeePublicKey",
              "type": "bytes32"
            },
            {
              "internalType": "bytes32",
              "name": "ciphertextOutput",
              "type": "bytes32"
            },
            {
              "internalType": "bytes",
              "name": "plaintextOutput",
              "type": "bytes"
            },
            {
              "internalType": "address",
              "name": "requester",
              "type": "address"
            },
            {
              "internalType": "bool",
              "name": "proofAggregationEnabled",
              "type": "bool"
            }
          ],
          "internalType": "struct E3",
          "name": "e3",
          "type": "tuple"
        }
      ],
      "stateMutability": "view",
      "type": "function"
    },
    {
      "inputs": [
        {
          "components": [
            {
              "internalType": "enum IEnclave.CommitteeSize",
              "name": "committeeSize",
              "type": "uint8"
            },
            {
              "internalType": "uint256[2]",
              "name": "inputWindow",
              "type": "uint256[2]"
            },
            {
              "internalType": "contract IE3Program",
              "name": "e3Program",
              "type": "address"
            },
            {
              "internalType": "bytes",
              "name": "e3ProgramParams",
              "type": "bytes"
            },
            {
              "internalType": "bytes",
              "name": "computeProviderParams",
              "type": "bytes"
            },
            {
              "internalType": "bytes",
              "name": "customParams",
              "type": "bytes"
            },
            {
              "internalType": "bool",
              "name": "proofAggregationEnabled",
              "type": "bool"
            }
          ],
          "internalType": "struct IEnclave.E3RequestParams",
          "name": "requestParams",
          "type": "tuple"
        }
      ],
      "name": "getE3Quote",
      "outputs": [
        {
          "internalType": "uint256",
          "name": "fee",
          "type": "uint256"
        }
      ],
      "stateMutability": "view",
      "type": "function"
    },
    {
      "inputs": [
        {
          "internalType": "uint256",
          "name": "e3Id",
          "type": "uint256"
        }
      ],
      "name": "getE3Stage",
      "outputs": [
        {
          "internalType": "enum IEnclave.E3Stage",
          "name": "stage",
          "type": "uint8"
        }
      ],
      "stateMutability": "view",
      "type": "function"
    },
    {
      "inputs": [
        {
          "internalType": "uint256",
          "name": "e3Id",
          "type": "uint256"
        }
      ],
      "name": "getFailureReason",
      "outputs": [
        {
          "internalType": "enum IEnclave.FailureReason",
          "name": "reason",
          "type": "uint8"
        }
      ],
      "stateMutability": "view",
      "type": "function"
    },
    {
      "inputs": [
        {
          "internalType": "bytes32",
          "name": "encryptionSchemeId",
          "type": "bytes32"
        }
      ],
      "name": "getPkVerifier",
      "outputs": [
        {
          "internalType": "contract IPkVerifier",
          "name": "",
          "type": "address"
        }
      ],
      "stateMutability": "view",
      "type": "function"
    },
    {
      "inputs": [],
      "name": "getPricingConfig",
      "outputs": [
        {
          "components": [
            {
              "internalType": "uint256",
              "name": "keyGenFixedPerNode",
              "type": "uint256"
            },
            {
              "internalType": "uint256",
              "name": "keyGenPerEncryptionProof",
              "type": "uint256"
            },
            {
              "internalType": "uint256",
              "name": "coordinationPerPair",
              "type": "uint256"
            },
            {
              "internalType": "uint256",
              "name": "availabilityPerNodePerSec",
              "type": "uint256"
            },
            {
              "internalType": "uint256",
              "name": "decryptionPerNode",
              "type": "uint256"
            },
            {
              "internalType": "uint256",
              "name": "publicationBase",
              "type": "uint256"
            },
            {
              "internalType": "uint256",
              "name": "verificationPerProof",
              "type": "uint256"
            },
            {
              "internalType": "address",
              "name": "protocolTreasury",
              "type": "address"
            },
            {
              "internalType": "uint16",
              "name": "marginBps",
              "type": "uint16"
            },
            {
              "internalType": "uint16",
              "name": "protocolShareBps",
              "type": "uint16"
            },
            {
              "internalType": "uint16",
              "name": "dkgUtilizationBps",
              "type": "uint16"
            },
            {
              "internalType": "uint16",
              "name": "computeUtilizationBps",
              "type": "uint16"
            },
            {
              "internalType": "uint16",
              "name": "decryptUtilizationBps",
              "type": "uint16"
            },
            {
              "internalType": "uint32",
              "name": "minCommitteeSize",
              "type": "uint32"
            },
            {
              "internalType": "uint32",
              "name": "minThreshold",
              "type": "uint32"
            }
          ],
          "internalType": "struct IEnclave.PricingConfig",
          "name": "",
          "type": "tuple"
        }
      ],
      "stateMutability": "view",
      "type": "function"
    },
    {
      "inputs": [
        {
          "internalType": "uint256",
          "name": "e3Id",
          "type": "uint256"
        }
      ],
      "name": "getRequester",
      "outputs": [
        {
          "internalType": "address",
          "name": "requester",
          "type": "address"
        }
      ],
      "stateMutability": "view",
      "type": "function"
    },
    {
      "inputs": [],
      "name": "getTimeoutConfig",
      "outputs": [
        {
          "components": [
            {
              "internalType": "uint256",
              "name": "dkgWindow",
              "type": "uint256"
            },
            {
              "internalType": "uint256",
              "name": "computeWindow",
              "type": "uint256"
            },
            {
              "internalType": "uint256",
              "name": "decryptionWindow",
              "type": "uint256"
            }
          ],
          "internalType": "struct IEnclave.E3TimeoutConfig",
          "name": "config",
          "type": "tuple"
        }
      ],
      "stateMutability": "view",
      "type": "function"
    },
    {
      "inputs": [
        {
          "internalType": "address",
          "name": "_owner",
          "type": "address"
        },
        {
          "internalType": "contract ICiphernodeRegistry",
          "name": "_ciphernodeRegistry",
          "type": "address"
        },
        {
          "internalType": "contract IBondingRegistry",
          "name": "_bondingRegistry",
          "type": "address"
        },
        {
          "internalType": "contract IE3RefundManager",
          "name": "_e3RefundManager",
          "type": "address"
        },
        {
          "internalType": "contract IERC20",
          "name": "_feeToken",
          "type": "address"
        },
        {
          "internalType": "uint256",
          "name": "_maxDuration",
          "type": "uint256"
        },
        {
          "components": [
            {
              "internalType": "uint256",
              "name": "dkgWindow",
              "type": "uint256"
            },
            {
              "internalType": "uint256",
              "name": "computeWindow",
              "type": "uint256"
            },
            {
              "internalType": "uint256",
              "name": "decryptionWindow",
              "type": "uint256"
            }
          ],
          "internalType": "struct IEnclave.E3TimeoutConfig",
          "name": "config",
          "type": "tuple"
        },
        {
          "internalType": "bytes[]",
          "name": "_e3ProgramsParams",
          "type": "bytes[]"
        }
      ],
      "name": "initialize",
      "outputs": [],
      "stateMutability": "nonpayable",
      "type": "function"
    },
    {
      "inputs": [
        {
          "internalType": "uint256",
          "name": "e3Id",
          "type": "uint256"
        }
      ],
      "name": "markE3Failed",
      "outputs": [
        {
          "internalType": "enum IEnclave.FailureReason",
          "name": "reason",
          "type": "uint8"
        }
      ],
      "stateMutability": "nonpayable",
      "type": "function"
    },
    {
      "inputs": [],
      "name": "maxDuration",
      "outputs": [
        {
          "internalType": "uint256",
          "name": "",
          "type": "uint256"
        }
      ],
      "stateMutability": "view",
      "type": "function"
    },
    {
      "inputs": [],
      "name": "nexte3Id",
      "outputs": [
        {
          "internalType": "uint256",
          "name": "",
          "type": "uint256"
        }
      ],
      "stateMutability": "view",
      "type": "function"
    },
    {
      "inputs": [
        {
          "internalType": "uint256",
          "name": "e3Id",
          "type": "uint256"
        }
      ],
      "name": "onCommitteeFinalized",
      "outputs": [],
      "stateMutability": "nonpayable",
      "type": "function"
    },
    {
      "inputs": [
        {
          "internalType": "uint256",
          "name": "e3Id",
          "type": "uint256"
        },
        {
          "internalType": "bytes32",
          "name": "committeePublicKey",
          "type": "bytes32"
        }
      ],
      "name": "onCommitteePublished",
      "outputs": [],
      "stateMutability": "nonpayable",
      "type": "function"
    },
    {
      "inputs": [
        {
          "internalType": "uint256",
          "name": "e3Id",
          "type": "uint256"
        },
        {
          "internalType": "uint8",
          "name": "reason",
          "type": "uint8"
        }
      ],
      "name": "onE3Failed",
      "outputs": [],
      "stateMutability": "nonpayable",
      "type": "function"
    },
    {
      "inputs": [],
      "name": "owner",
      "outputs": [
        {
          "internalType": "address",
          "name": "",
          "type": "address"
        }
      ],
      "stateMutability": "view",
      "type": "function"
    },
    {
      "inputs": [
        {
          "internalType": "bytes32",
          "name": "encryptionSchemeId",
          "type": "bytes32"
        }
      ],
      "name": "pkVerifiers",
      "outputs": [
        {
          "internalType": "contract IPkVerifier",
          "name": "pkVerifier",
          "type": "address"
        }
      ],
      "stateMutability": "view",
      "type": "function"
    },
    {
      "inputs": [
        {
          "internalType": "uint256",
          "name": "e3Id",
          "type": "uint256"
        }
      ],
      "name": "processE3Failure",
      "outputs": [],
      "stateMutability": "nonpayable",
      "type": "function"
    },
    {
      "inputs": [
        {
          "internalType": "uint256",
          "name": "e3Id",
          "type": "uint256"
        },
        {
          "internalType": "bytes",
          "name": "ciphertextOutput",
          "type": "bytes"
        },
        {
          "internalType": "bytes",
          "name": "proof",
          "type": "bytes"
        }
      ],
      "name": "publishCiphertextOutput",
      "outputs": [
        {
          "internalType": "bool",
          "name": "success",
          "type": "bool"
        }
      ],
      "stateMutability": "nonpayable",
      "type": "function"
    },
    {
      "inputs": [
        {
          "internalType": "uint256",
          "name": "e3Id",
          "type": "uint256"
        },
        {
          "internalType": "bytes",
          "name": "plaintextOutput",
          "type": "bytes"
        },
        {
          "internalType": "bytes",
          "name": "proof",
          "type": "bytes"
        },
        {
          "internalType": "bytes",
          "name": "foldProof",
          "type": "bytes"
        }
      ],
      "name": "publishPlaintextOutput",
      "outputs": [
        {
          "internalType": "bool",
          "name": "success",
          "type": "bool"
        }
      ],
      "stateMutability": "nonpayable",
      "type": "function"
    },
    {
      "inputs": [
        {
          "internalType": "bytes[]",
          "name": "_e3ProgramsParams",
          "type": "bytes[]"
        }
      ],
      "name": "removeE3ProgramsParams",
      "outputs": [],
      "stateMutability": "nonpayable",
      "type": "function"
    },
    {
      "inputs": [],
      "name": "renounceOwnership",
      "outputs": [],
      "stateMutability": "nonpayable",
      "type": "function"
    },
    {
      "inputs": [
        {
          "components": [
            {
              "internalType": "enum IEnclave.CommitteeSize",
              "name": "committeeSize",
              "type": "uint8"
            },
            {
              "internalType": "uint256[2]",
              "name": "inputWindow",
              "type": "uint256[2]"
            },
            {
              "internalType": "contract IE3Program",
              "name": "e3Program",
              "type": "address"
            },
            {
              "internalType": "bytes",
              "name": "e3ProgramParams",
              "type": "bytes"
            },
            {
              "internalType": "bytes",
              "name": "computeProviderParams",
              "type": "bytes"
            },
            {
              "internalType": "bytes",
              "name": "customParams",
              "type": "bytes"
            },
            {
              "internalType": "bool",
              "name": "proofAggregationEnabled",
              "type": "bool"
            }
          ],
          "internalType": "struct IEnclave.E3RequestParams",
          "name": "requestParams",
          "type": "tuple"
        }
      ],
      "name": "request",
      "outputs": [
        {
          "internalType": "uint256",
          "name": "e3Id",
          "type": "uint256"
        },
        {
          "components": [
            {
              "internalType": "uint256",
              "name": "seed",
              "type": "uint256"
            },
            {
              "internalType": "enum IEnclave.CommitteeSize",
              "name": "committeeSize",
              "type": "uint8"
            },
            {
              "internalType": "uint256",
              "name": "requestBlock",
              "type": "uint256"
            },
            {
              "internalType": "uint256[2]",
              "name": "inputWindow",
              "type": "uint256[2]"
            },
            {
              "internalType": "bytes32",
              "name": "encryptionSchemeId",
              "type": "bytes32"
            },
            {
              "internalType": "contract IE3Program",
              "name": "e3Program",
              "type": "address"
            },
            {
              "internalType": "bytes",
              "name": "e3ProgramParams",
              "type": "bytes"
            },
            {
              "internalType": "bytes",
              "name": "customParams",
              "type": "bytes"
            },
            {
              "internalType": "contract IDecryptionVerifier",
              "name": "decryptionVerifier",
              "type": "address"
            },
            {
              "internalType": "contract IPkVerifier",
              "name": "pkVerifier",
              "type": "address"
            },
            {
              "internalType": "bytes32",
              "name": "committeePublicKey",
              "type": "bytes32"
            },
            {
              "internalType": "bytes32",
              "name": "ciphertextOutput",
              "type": "bytes32"
            },
            {
              "internalType": "bytes",
              "name": "plaintextOutput",
              "type": "bytes"
            },
            {
              "internalType": "address",
              "name": "requester",
              "type": "address"
            },
            {
              "internalType": "bool",
              "name": "proofAggregationEnabled",
              "type": "bool"
            }
          ],
          "internalType": "struct E3",
          "name": "e3",
          "type": "tuple"
        }
      ],
      "stateMutability": "nonpayable",
      "type": "function"
    },
    {
      "inputs": [
        {
          "internalType": "contract IBondingRegistry",
          "name": "_bondingRegistry",
          "type": "address"
        }
      ],
      "name": "setBondingRegistry",
      "outputs": [],
      "stateMutability": "nonpayable",
      "type": "function"
    },
    {
      "inputs": [
        {
          "internalType": "contract ICiphernodeRegistry",
          "name": "_ciphernodeRegistry",
          "type": "address"
        }
      ],
      "name": "setCiphernodeRegistry",
      "outputs": [],
      "stateMutability": "nonpayable",
      "type": "function"
    },
    {
      "inputs": [
        {
          "internalType": "enum IEnclave.CommitteeSize",
          "name": "size",
          "type": "uint8"
        },
        {
          "internalType": "uint32[2]",
          "name": "threshold",
          "type": "uint32[2]"
        }
      ],
      "name": "setCommitteeThresholds",
      "outputs": [],
      "stateMutability": "nonpayable",
      "type": "function"
    },
    {
      "inputs": [
        {
          "internalType": "bytes32",
          "name": "encryptionSchemeId",
          "type": "bytes32"
        },
        {
          "internalType": "contract IDecryptionVerifier",
          "name": "decryptionVerifier",
          "type": "address"
        }
      ],
      "name": "setDecryptionVerifier",
      "outputs": [],
      "stateMutability": "nonpayable",
      "type": "function"
    },
    {
      "inputs": [
        {
          "internalType": "bytes[]",
          "name": "_e3ProgramsParams",
          "type": "bytes[]"
        }
      ],
      "name": "setE3ProgramsParams",
      "outputs": [],
      "stateMutability": "nonpayable",
      "type": "function"
    },
    {
      "inputs": [
        {
          "internalType": "contract IE3RefundManager",
          "name": "_e3RefundManager",
          "type": "address"
        }
      ],
      "name": "setE3RefundManager",
      "outputs": [],
      "stateMutability": "nonpayable",
      "type": "function"
    },
    {
      "inputs": [
        {
          "internalType": "contract IERC20",
          "name": "_feeToken",
          "type": "address"
        }
      ],
      "name": "setFeeToken",
      "outputs": [],
      "stateMutability": "nonpayable",
      "type": "function"
    },
    {
      "inputs": [
        {
          "internalType": "uint256",
          "name": "_maxDuration",
          "type": "uint256"
        }
      ],
      "name": "setMaxDuration",
      "outputs": [],
      "stateMutability": "nonpayable",
      "type": "function"
    },
    {
      "inputs": [
        {
          "internalType": "bytes32",
          "name": "encryptionSchemeId",
          "type": "bytes32"
        },
        {
          "internalType": "contract IPkVerifier",
          "name": "pkVerifier",
          "type": "address"
        }
      ],
      "name": "setPkVerifier",
      "outputs": [],
      "stateMutability": "nonpayable",
      "type": "function"
    },
    {
      "inputs": [
        {
          "components": [
            {
              "internalType": "uint256",
              "name": "keyGenFixedPerNode",
              "type": "uint256"
            },
            {
              "internalType": "uint256",
              "name": "keyGenPerEncryptionProof",
              "type": "uint256"
            },
            {
              "internalType": "uint256",
              "name": "coordinationPerPair",
              "type": "uint256"
            },
            {
              "internalType": "uint256",
              "name": "availabilityPerNodePerSec",
              "type": "uint256"
            },
            {
              "internalType": "uint256",
              "name": "decryptionPerNode",
              "type": "uint256"
            },
            {
              "internalType": "uint256",
              "name": "publicationBase",
              "type": "uint256"
            },
            {
              "internalType": "uint256",
              "name": "verificationPerProof",
              "type": "uint256"
            },
            {
              "internalType": "address",
              "name": "protocolTreasury",
              "type": "address"
            },
            {
              "internalType": "uint16",
              "name": "marginBps",
              "type": "uint16"
            },
            {
              "internalType": "uint16",
              "name": "protocolShareBps",
              "type": "uint16"
            },
            {
              "internalType": "uint16",
              "name": "dkgUtilizationBps",
              "type": "uint16"
            },
            {
              "internalType": "uint16",
              "name": "computeUtilizationBps",
              "type": "uint16"
            },
            {
              "internalType": "uint16",
              "name": "decryptUtilizationBps",
              "type": "uint16"
            },
            {
              "internalType": "uint32",
              "name": "minCommitteeSize",
              "type": "uint32"
            },
            {
              "internalType": "uint32",
              "name": "minThreshold",
              "type": "uint32"
            }
          ],
          "internalType": "struct IEnclave.PricingConfig",
          "name": "config",
          "type": "tuple"
        }
      ],
      "name": "setPricingConfig",
      "outputs": [],
      "stateMutability": "nonpayable",
      "type": "function"
    },
    {
      "inputs": [
        {
          "internalType": "contract ISlashingManager",
          "name": "_slashingManager",
          "type": "address"
        }
      ],
      "name": "setSlashingManager",
      "outputs": [],
      "stateMutability": "nonpayable",
      "type": "function"
    },
    {
      "inputs": [
        {
          "components": [
            {
              "internalType": "uint256",
              "name": "dkgWindow",
              "type": "uint256"
            },
            {
              "internalType": "uint256",
              "name": "computeWindow",
              "type": "uint256"
            },
            {
              "internalType": "uint256",
              "name": "decryptionWindow",
              "type": "uint256"
            }
          ],
          "internalType": "struct IEnclave.E3TimeoutConfig",
          "name": "config",
          "type": "tuple"
        }
      ],
      "name": "setTimeoutConfig",
      "outputs": [],
      "stateMutability": "nonpayable",
      "type": "function"
    },
    {
      "inputs": [],
      "name": "slashingManager",
      "outputs": [
        {
          "internalType": "contract ISlashingManager",
          "name": "",
          "type": "address"
        }
      ],
      "stateMutability": "view",
      "type": "function"
    },
    {
      "inputs": [
        {
          "internalType": "address",
          "name": "newOwner",
          "type": "address"
        }
      ],
      "name": "transferOwnership",
      "outputs": [],
      "stateMutability": "nonpayable",
      "type": "function"
    }
  ],
  "bytecode": "0x608060405234801561000f575f5ffd5b506100397fe656be3265e90fa4d968add9e86b2c380a1048c3b0c9aca474e4e4e1b2187eb4610046565b61004161005c565b610137565b6100598161010d60201b615e491760201c565b50565b7ff0c57e16840df040f15088dc2f81fe391c3923bec73e23a9662efc9c229c6a00805468010000000000000000900460ff16156100ac5760405163f92ee8a960e01b815260040160405180910390fd5b80546001600160401b03908116146100595780546001600160401b0319166001600160401b0390811782556040519081527fc7f505b2f371ae2175ee4913f4499e1f2633a7b5936321eed1cdaeb6115181d29060200160405180910390a150565b60405181815273c0bec0bec0bec0bec0bec0bec0bec0bec0bec0be905f80602083855afa50505050565b618e38806101445f395ff3fe608060405234801561000f575f5ffd5b50600436106102d9575f3560e01c80639117173c11610182578063cb649617116100e0578063ea71aa571161008f578063ea71aa5714610726578063f0691cba14610739578063f2fde38b1461074c578063f81b8ef61461075f578063fad8e11114610772578063fbdb323714610785578063fd2f3d01146107ad575f5ffd5b8063cb6496171461069e578063cbd16872146106a7578063cf0f34c4146106ba578063cfbdc98d146106cd578063d8afed3e146106ed578063da16fb2f14610700578063e59e469514610713575f5ffd5b8063ac3d2f421161013c578063ac3d2f421461060a578063b27392d51461061d578063b68fd1be14610630578063bb2d1b8214610643578063bff232c114610656578063c1ab0f1f14610669578063c4ccafa21461067c575f5ffd5b80639117173c14610588578063923123861461059b578063929a8faf146105ae57806399c6679d146105cf5780639c8570c8146105e2578063a87f4ab9146105f5575f5ffd5b80634fc772641161023a5780637cfa9d74116101e95780637cfa9d741461050d57806381476ec21461052057806385814243146105335780638da5cb5b146105465780638dcdd86b1461054e5780638e5ce3ad1461056057806390173a4114610573575f5ffd5b80634fc772641461048f57806364226409146104a2578063647846a5146104c35780636db5c8fd146104d6578063715018a6146104df57806377868ae4146104e75780637c8c3b4d146104fa575f5ffd5b80631ba72945116102965780631ba729451461039157806336c5d38a146103a45780634017daf0146103c4578063406ed35c146103f15780634147a36014610411578063459d92941461043e5780634e92ec631461047c575f5ffd5b806301d12f1c146102dd57806302a3a9c9146102f25780630ef81b2f1461030557806310bc62811461032e57806311bd61d91461035657806315cce2241461037e575b5f5ffd5b6102f06102eb366004617a50565b6107c0565b005b6102f0610300366004617b00565b610bca565b610318610313366004617b22565b610cf9565b6040516103259190617b46565b60405180910390f35b61031861033c366004617b22565b60096020525f90815260409020546001600160a01b031681565b610369610364366004617b68565b610d3e565b60405163ffffffff9091168152602001610325565b6102f061038c366004617b00565b610d7a565b6102f061039f366004617b90565b610e99565b6103b76103b2366004617b22565b610ed6565b6040516103259190617bd2565b6103d76103d2366004617b22565b610f15565b6040516103259e9d9c9b9a99989796959493929190617c1e565b6104046103ff366004617b22565b61113f565b6040516103259190617e0e565b61043061041f366004617b22565b600c6020525f908152604090205481565b604051908152602001610325565b61046c61044c366004617e20565b8051602081830181018051600b8252928201919093012091525460ff1681565b6040519015158152602001610325565b6102f061048a366004617b22565b611490565b6102f061049d366004617b00565b611598565b6104b56104b0366004617e59565b6116a5565b604051610325929190617e90565b600454610318906001600160a01b031681565b61043060055481565b6102f0612600565b6102f06104f5366004617ea8565b612613565b6102f0610508366004617ed9565b612778565b6102f061051b366004617b22565b612853565b6102f061052e366004617f07565b612aeb565b600154610318906001600160a01b031681565b610318612da7565b5f54610318906001600160a01b031681565b600354610318906001600160a01b031681565b61057b612dd5565b6040516103259190617f27565b6102f0610596366004617b22565b612e44565b61057b6105a9366004617b22565b613151565b6105c16105bc366004617b22565b6131d3565b604051610325929190617f48565b6103186105dd366004617b22565b61324c565b61046c6105f0366004617f9b565b613291565b6105fd61378d565b6040516103259190618012565b610318610618366004617b22565b6138f8565b61046c61062b36600461811f565b61393d565b6102f061063e366004617ea8565b613d56565b6102f06106513660046181c4565b613eba565b6102f0610664366004617b00565b61401a565b6102f0610677366004617f07565b614144565b61046c61068a366004617b00565b60076020525f908152604090205460ff1681565b61043060065481565b6102f06106b5366004617ed9565b6142a5565b6102f06106c8366004617b22565b6143d2565b6106e06106db366004617b22565b614461565b60405161032591906181fc565b6102f06106fb36600461820a565b6144a0565b61043061070e366004617e59565b61489e565b6102f0610721366004617b00565b615294565b6102f0610734366004618224565b6153a8565b600254610318906001600160a01b031681565b6102f061075a366004617b00565b6157f9565b6103b761076d366004617b22565b615833565b6102f0610780366004617b00565b615c2e565b610318610793366004617b22565b600a6020525f90815260409020546001600160a01b031681565b6102f06107bb366004617b00565b615d40565b5f6107c9615e73565b805490915060ff600160401b82041615906001600160401b03165f811580156107ef5750825b90505f826001600160401b0316600114801561080a5750303b155b905081158015610818575080155b156108365760405163f92ee8a960e01b815260040160405180910390fd5b845467ffffffffffffffff19166001178555831561086057845460ff60401b1916600160401b1785555b6108897f285de78115353f9dd1f85a348f3e80cc273fb31463bbf45c7898676d206471f2615e9d565b61089233615ea6565b6108bb7fa4410a36f6e2a762b64077efd83bb973c387e7b22cbccab6ae4b883a49668ae4615e9d565b6108c4886143d2565b6108ed7f154f900a4d6bef0a9041eff5048b391166b1f91e3d8f756e5f00da176224b109615e9d565b6108f68c615c2e565b61091f7f469c43ebeb20980be40c4e1448d77ca8c811c10fc71adee869ca596c6bafce5d615e9d565b6109288b615294565b6109517fed0ddeff325e227c7a659d1dfafd479e17be02294d3d2d05356794376b3fcde2615e9d565b61095a8a610bca565b6109837f310b1600b4701f7b11a1440a93012f2f8392c88354d2a5e858966a6ad3a36dbe615e9d565b61098c89610d7a565b6109b57f5781ca3677cfd071dc69a9f85fefee0c5374c1c40226205703f559a8eae4c220615e9d565b6109be87615eb7565b6109e77f80d9948e6cf01c32a6581f6ef4b13d16ff644d9d3894f81b0596e9455d9c938b615e9d565b6109f086613d56565b610a197f7341cfb83c1741312cd48d2e2922ae5ed7b2bb524c5ff6801c9289675e971d52615e9d565b604080516101e08101825261c3508082526161a86020808401829052611388948401859052601460608501819052620249f0608086018190526207a12060a087018190526107d060c088018190525f60e089018190526103e86101008a015261012089018190526109c46101408a018190526101608a018b90526101808a01526101a089018190526101c090980197909752601895909555601993909355601a95909555601b94909455601c55601d55601e55601f80546001600160f01b031916690138827101388000007d60a31b179055805467ffffffffffffffff19169055610b237ff45a452b1f75cda6ad22e2ea6fb533baba6c035e9368b6b119ff8daefbf68688615e9d565b610b2b612da7565b6001600160a01b03168d6001600160a01b031614610b7557610b6c7f27a8b2a12dbdf986d1c773b4d084a4db2e5d8b7ef0f8369b4056f16803a40872615e9d565b610b758d6157f9565b8315610bbb57845460ff60401b19168555604051600181527fc7f505b2f371ae2175ee4913f4499e1f2633a7b5936321eed1cdaeb6115181d29060200160405180910390a15b50505050505050505050505050565b610bd2616047565b610bfb7fff4b669e7e4a783ca9fa6668194e43fddb3bf8faf82e09b38bf642459102c462615e9d565b6001600160a01b038116610c565760405162461bcd60e51b815260206004820152601f60248201527f496e76616c6964204533526566756e644d616e6167657220616464726573730060448201526064015b60405180910390fd5b610c7f7f99318f6f0962d378807fe3cbf94255f289fce0a53df2bde8c0fb896c283d178b615e9d565b600280546001600160a01b0319166001600160a01b038316179055610cc37f9052986d72abd20949de0fc919729cabf1e07b183a91380d2ec4a6626ab00ed5615e9d565b6040516001600160a01b038216907f9557d04c1c0b16f93f13b69aed23b3b6ab935bff3c53ac81d17896d3583542ed905f90a250565b5f610d237f75879b413bb6409813d9f229ed82b24e9e9769f8b08b8b113c74e9e85c20fe06615e9d565b505f908152600960205260409020546001600160a01b031690565b6012602052815f5260405f208160028110610d57575f80fd5b60089182820401919006600402915091509054906101000a900463ffffffff1681565b610d82616047565b610dab7f798c8a7010a86113c9646fcf27174f46a95d2fb8b5a6237d7681d4c64b705fe3615e9d565b6001600160a01b03811615801590610dd157506004546001600160a01b03828116911614155b8190610df15760405163eddf07f560e01b8152600401610c4d9190617b46565b50610e1b7fde99a504539fd87b49ac43d3dc39b1cd0f86a9039a99233f6c37470406f59ce0615e9d565b600480546001600160a01b0319166001600160a01b038316179055610e5f7f3a34424d80ffd728124c249377dbe563a1dc7f1845d9f8329981cbfc2a943127615e9d565b7f722ff84c1234b2482061def5c82c6b5080c117b3cbb69d686844a051e4b8e7f381604051610e8e9190617b46565b60405180910390a150565b610ea1616047565b610eca7fd974225aced53603ef72594f793d49699ba6c6341923024676f8995327908360615e9d565b610ed381615eb7565b50565b5f610f007f9168938d1df35d4a0a148cf239f2af9a4e2172486e0fc39f3ed51c6eb32ce268615e9d565b505f908152600f602052604090205460ff1690565b60086020525f9081526040902080546001820154600283015460058401546006850154600786018054959660ff90951695939492936001600160a01b039092169291610f609061825b565b80601f0160208091040260200160405190810160405280929190818152602001828054610f8c9061825b565b8015610fd75780601f10610fae57610100808354040283529160200191610fd7565b820191905f5260205f20905b815481529060010190602001808311610fba57829003601f168201915b505050505090806008018054610fec9061825b565b80601f01602080910402602001604051908101604052809291908181526020018280546110189061825b565b80156110635780601f1061103a57610100808354040283529160200191611063565b820191905f5260205f20905b81548152906001019060200180831161104657829003601f168201915b5050506009840154600a850154600b860154600c870154600d8801805497986001600160a01b039586169894909516965091945092916110a29061825b565b80601f01602080910402602001604051908101604052809291908181526020018280546110ce9061825b565b80156111195780601f106110f057610100808354040283529160200191611119565b820191905f5260205f20905b8154815290600101906020018083116110fc57829003601f168201915b505050600e90930154919250506001600160a01b0381169060ff600160a01b909104168e565b611147617735565b6111707f311d238829b5d702498834bca799dde6c199dbbf536af31ed2133784fd9727da615e9d565b5f8281526008602090815260409182902082516101e08101909352805483526001810154909183019060ff1660038111156111ad576111ad617baa565b60038111156111be576111be617baa565b8152600282810154602083015260408051808201808352919093019291600385019182845b8154815260200190600101908083116111e35750505091835250506005820154602082015260068201546001600160a01b031660408201526007820180546060909201916112309061825b565b80601f016020809104026020016040519081016040528092919081815260200182805461125c9061825b565b80156112a75780601f1061127e576101008083540402835291602001916112a7565b820191905f5260205f20905b81548152906001019060200180831161128a57829003601f168201915b505050505081526020016008820180546112c09061825b565b80601f01602080910402602001604051908101604052809291908181526020018280546112ec9061825b565b80156113375780601f1061130e57610100808354040283529160200191611337565b820191905f5260205f20905b81548152906001019060200180831161131a57829003601f168201915b505050918352505060098201546001600160a01b039081166020830152600a830154166040820152600b8201546060820152600c8201546080820152600d8201805460a0909201916113889061825b565b80601f01602080910402602001604051908101604052809291908181526020018280546113b49061825b565b80156113ff5780601f106113d6576101008083540402835291602001916113ff565b820191905f5260205f20905b8154815290600101906020018083116113e257829003601f168201915b5050509183525050600e91909101546001600160a01b0381166020830152600160a01b900460ff161515604090910152905061145a7fedcef8ca9545febbbc38445328f84b7e6064e5deb71ba7116fc12609b7c3043c615e9d565b60a081015182906001600160a01b031661148a5760405163cd6f4a4f60e01b8152600401610c4d91815260200190565b50919050565b611498616047565b6114c17f0d41060113c8fe247ec71f73789f098602a6663fbccbe312e7a8e32f8c564364615e9d565b5f8181526009602052604090205481906001600160a01b03166114fa576040516381c4951960e01b8152600401610c4d91815260200190565b506115247f2179ee1cca46ba5dd9e65617b71818831ebb63d09ebc806372effd85e895665a615e9d565b5f81815260096020526040902080546001600160a01b03191690556115687fa9667d9b7c9ea56cac711dc3d3f45f0890b50e1025c85c6b74cf5fe38a6c3c0b615e9d565b6040518181527f104eb329a192aef26eddea07c2af5ad2587792e62b37ed4045b6ba59bc5540fc90602001610e8e565b6115a0616047565b6115c97f1a38a6d6c27091a2c27004037624fa56841304012667dd3f904a48953b21b741615e9d565b6001600160a01b0381165f90815260076020526040902054819060ff16611604576040516321ac7c5f60e01b8152600401610c4d9190617b46565b5061162e7f53c9b1f24d3b8dbd1db5141f6215ce14b138d89c38f581d2ed0d07b4b01bb955615e9d565b6001600160a01b0381165f908152600760205260409020805460ff191690556116767fed3c8a6a4bf7aefe4bf83f18b601638a19dfe70d8b6344ea7539adfa6de3fb70615e9d565b7f56070b80bd617fcd2f7a284861edb488830a38f9dedcd77b2cb2f4eac17743e781604051610e8e9190617b46565b5f6116ae617735565b6116d77f8003858a905a92148ddaca14e27c41e7979d22915072abaf13ea77a34fe61453615e9d565b5f6012816116e8602087018761828d565b60038111156116f9576116f9617baa565b600381111561170a5761170a617baa565b8152602081019190915260409081015f20815180830190925260028282826020028201915f905b82829054906101000a900463ffffffff1663ffffffff16815260200190600401906020826003010492830192600103820291508084116117315790505050505050905061179d7f56c4d10e234d4787b780237abdaf623f0ed43545bcef3df4aa9c6a6379cc8a69615e9d565b60208082015163ffffffff161515906117b89086018661828d565b906117d75760405163286c068d60e11b8152600401610c4d91906182ba565b506118017f9070c05d925f95fe0dec3d6c6fc81f3fd89bfc44c33fa8d52602026ddd2f9813615e9d565b60208401354281101561182a57604051630b99e87960e01b8152600401610c4d91815260200190565b506118547fe9cdc7e79f18791877f870d30c55dd32e0c89e4892f0f82b9d3758e413c5cbbe615e9d565b604084013560208501358110156118815760405163174b5a0760e21b8152600401610c4d91815260200190565b506118ab7f7f75ac882e03c1fa8d716941af01900ece239773aaec4886c927c4eda2cff591615e9d565b6017546016545f91906118c24260408901356182dc565b6118cc91906182ef565b6118d691906182ef565b90506119017f0bb016931113849850e438810c409ee0785918197a3a919db440780924de5f7e615e9d565b60055481108190611928576040516313b783af60e21b8152600401610c4d91815260200190565b506119527fd591cb3e806a1f9cf7538617d11e5a8182de529a6fa3e74e4f82a0319db9b5e9615e9d565b60075f6119656080880160608901617b00565b6001600160a01b0316815260208101919091526040015f205460ff166119916080870160608801617b00565b906119b05760405163295a6a6f60e11b8152600401610c4d9190617b46565b506119da7fc6302803b8014137eaded5be702deb905567de727c0688f41520b1ef486a63bd615e9d565b5f6119e48661489e565b9050611a0f7ffd43f693ffbf03b939612775d6a208313c2448d1b2e1ea442c0b2f6716508c54615e9d565b6006549450611a3d7f11cdae1e4d8094d11839a65f28f5a096f1ad65edfdfb5a29fecf25b4663ea268615e9d565b60068054905f611a4c83618302565b9190505550611a7a7f443ac6db70386b5e9ee183f0bb0cf158468b4c19b2c828da2ff647ad3d3cab11615e9d565b604080514460208083019190915281830188905282518083038401815260609092019092528051910120611acd7ff2ffa1ee6c4e32279924dc0a3fe8e5384228e54e5520648026d89f9cf5ad90fd615e9d565b5f868152600c60205260409020829055611b067fcc99bad895d11b44ae111a9e8aa48b245e3a9908d136aa402795deff67ccbc90615e9d565b6004545f87815260116020526040902080546001600160a01b0319166001600160a01b03909216919091179055611b5c7f860aa37afc424d1d26c62046077a0b4a27323eb339cedc74da0b062405dcefaf615e9d565b601f545f8781526013602052604090208054600160b01b90920461ffff1661ffff19909216919091179055611bb07f805bd31c033cb8e05c9b76d306946f1d32f3915d532d3861e31ed1705801f64a615e9d565b601f545f87815260146020526040902080546001600160a01b0319166001600160a01b03909216919091179055611c067f137164fd617263d875771f2a66223392e12ee3585d388190ca88033ada3acdfd615e9d565b5f868152600d60205260409020805460ff19166001179055611c477f205223c75bc9b764508b639bb39de6f9ccd6774d553e0f8d585fd5c68568f7b4615e9d565b5f86815260106020526040902080546001600160a01b03191633179055611c8d7f1e91ec3a8069246d7ac8b1f1d71aa20df455943d2637ae16ac7e4aad1bee1c9a615e9d565b601654611c9e9060408901356182ef565b5f878152600e6020526040902060010155611cd87f67ac20a180fcada87875b6d61993f6a2d313339e8dbfcd585ff09ebaaaca7294615e9d565b808552611d047f9ca028869ee1d9ad98c51ba45586adf43c57508c46509b62860bc24accfe98d0615e9d565b611d11602088018861828d565b85602001906003811115611d2757611d27617baa565b90816003811115611d3a57611d3a617baa565b905250611d667f2d449d5b7f1df98d9406bd23eb198a0878ced8de1c0bfecea33088d92ff193b1615e9d565b436040860152611d957f4ec1bce825549968fcbe19ce8bafe42858592a3ce50443c792d492e04b3c90dc615e9d565b60408051808201825290602089019060029083908390808284375f9201919091525050506060860152611de77fca4e177729fa56941f3f9f364f84f132685dc31a8c66af42db6e910a6fdb6844615e9d565b611df76080880160608901617b00565b6001600160a01b031660a0860152611e2e7f518df50213518ffd10d432e86eafd54cabd72ec46a80e733f3a673be18f0f883615e9d565b611e3b608088018861831a565b8080601f0160208091040260200160405190810160405280939291908181526020018383808284375f9201919091525050505060c0860152611e9c7ffc9dfe0db9b6e703f1aa9a403740072d06cb8f317f91d61d367f9505fc980014615e9d565b611ea960c088018861831a565b8080601f0160208091040260200160405190810160405280939291908181526020018383808284375f9201919091525050505060e0860152611f0a7fb75779e7acf7b5c53a985eb27198eb230a594a3694a6559d1ce5a85891ca9d50615e9d565b611f1b610100880160e08901618369565b15156101c0860152611f4c7f1b877520a0c4148c7e4c29dae565156a7a1e55fc9dbc3d2018e2325d1a99ceaa615e9d565b5f610140860152611f7c7fbd93bc38c39d312ca4dd073a6bfa0fc8f08f9a13606e0ad06af6f187928058ae615e9d565b5f610160860152611fac7fbdb3faafec0ae8282125f4c203012bb65572408e05b8c0e6b5d5697443df08a2615e9d565b60408051602081019091525f8152610180860152611fe97f3d067d8dde8da7118f7b888c4ac47a63f7b7348b096e1e6156abdb40fd0410d6615e9d565b336101a08601526120197f1252d54bc98c4e433cfd1b0b38c82403d8d7b244a153adc44131d134391aba07615e9d565b600454612031906001600160a01b0316333085616079565b61205a7f79a6a5b0603dfbe7645a635e5e5cacab53ef0e52914780642e9a1021b50b84fc615e9d565b5f61206b6080890160608a01617b00565b6001600160a01b031663fefd9a8b888461208860808d018d61831a565b61209560a08f018f61831a565b8f8060c001906120a5919061831a565b6040518963ffffffff1660e01b81526004016120c89897969594939291906183ac565b6020604051808303815f875af11580156120e4573d5f5f3e3d5ffd5b505050506040513d601f19601f820116820180604052508101906121089190618402565b90506121337f5236744ed7c388ca58efe28d2c7bcea97765087c3abca9f9d61b2f7c955a34fa615e9d565b5f818152600960205260409020546001600160a01b03166121737fcbce91a15710e50197e7d4e3551da0d00cf14414eb72586cc7001ad5c4f7d4fa615e9d565b5f8281526009602052604090205482906001600160a01b03166121ac576040516381c4951960e01b8152600401610c4d91815260200190565b506121d67fb95fdd8a0032d4962b6e7fbcbc7c298c5dd0b50a34ebdfa4c66340dcd8cf6887615e9d565b5f828152600a60205260409020546001600160a01b03166122167f9bcdca2146c283839a78a11855b944ad7a70e3539ff9437dbc0dd63e6e73289c615e9d565b826001600160a01b038216612241576040516381c4951960e01b8152600401610c4d91815260200190565b5061226b7f4c730e8c10c6cd7059c6009938eb8450534fc70f9486ee37ad86a9e477c0c71b615e9d565b6080880183905261229b7ff81f65d1ee88691c21eaa6a09906a3ce11022f23932a109879b0ed5804517cee615e9d565b6001600160a01b0382166101008901526122d47f56bf174d50f3726dcd2ee46cad658f852e17a5787c989199e86066c86572e4b7615e9d565b6001600160a01b03811661012089015261230d7fb2496c35aef16d5c761e07f1087da754e3bd40a82de0f6c21888c553d8a32ad0615e9d565b5f8981526008602090815260409091208951815590890151600180830180548c94939260ff199091169083600381111561234957612349617baa565b02179055506040820151816002015560608201518160030190600261236f9291906177b2565b506080820151600582015560a08201516006820180546001600160a01b0319166001600160a01b0390921691909117905560c082015160078201906123b49082618471565b5060e082015160088201906123c99082618471565b506101008201516009820180546001600160a01b039283166001600160a01b031991821617909155610120840151600a84018054919093169116179055610140820151600b820155610160820151600c820155610180820151600d8201906124319082618471565b506101a0820151600e90910180546101c0909301511515600160a01b026001600160a81b03199093166001600160a01b03909216919091179190911790556124987f2412bc4a62b403c262aa2fecd307edff2e80c404844e7f75c02ba8a1a4a68723615e9d565b5f5460405163291a691b60e01b81526001600160a01b039091169063291a691b906124cb908c9088908c90600401618526565b6020604051808303815f875af11580156124e7573d5f5f3e3d5ffd5b505050506040513d601f19601f8201168201806040525081019061250b919061856b565b61252857604051630d8dbe2560e01b815260040160405180910390fd5b6125517fbda3d0204aeeb9cd8cb18b5e64cf192ddcd704fc81fabbfd72ed51eab4863cb8615e9d565b61256160808b0160608c01617b00565b6001600160a01b03167f5904e83d57e704fba4d92c5617f6b50ae993cd42d78babfcb239d0a6775f30708a8a60405161259b929190617e90565b60405180910390a26125cc7f0f53ad254ba91c17b5916f3f1bdaa9369d596de07bf2f7e5eb038a8e833597a5615e9d565b885f516020618e0c5f395f51905f525f60016040516125ec929190618586565b60405180910390a250505050505050915091565b612608616047565b6126115f6160e6565b565b61261b616047565b6126447fe236d86b454b2e0de9c71a39450e3695cad6e8650901d8f2597638d3c6ff0fc9615e9d565b805161266f7f1530cc80bd834644073059b0f88f8b3c35f635307885905d09741697a500ee7e615e9d565b5f5b81811015612713576126a27f2bf87e2a8d6b7f320bbc13b248541fd9640da54555f20c517879b78069b011c3615e9d565b6126cb7f7687563921a0e74c01b85b1caacf9da7c433f82996815c07f7ae4c49f16c2f5d615e9d565b600b8382815181106126df576126df6182a6565b60200260200101516040516126f491906185a1565b908152604051908190036020019020805460ff19169055600101612671565b5061273d7fea441449bb4a5c7cf0ecf50dc35e74bb07aad33cd7091df191bb86fafc3a4a08615e9d565b7fd1b46e030b48add7bc03225cc5a6f403970976b36983f99ec31d535d627fc7db8260405161276c91906185b7565b60405180910390a15050565b612780616047565b6127a97f8304a9aa83783ba5e28ecd7eda8f330949de815b481ba7691de3c18046ad4ca1615e9d565b6001600160a01b038116158015906127da57505f828152600a60205260409020546001600160a01b03828116911614155b82906127fc576040516381c4951960e01b8152600401610c4d91815260200190565b506128267f47c488c317d7af6fe387f25ba4106530e2ad49fea19ae0c88335b259e1212fad615e9d565b5f918252600a602052604090912080546001600160a01b0319166001600160a01b03909216919091179055565b61287c7f5022752d25cfd4c46caf33722effb45db71e9ba12ae889f91cc439cab403a81f615e9d565b5f546001600160a01b031633146128a65760405163b56831db60e01b815260040160405180910390fd5b6128cf7f5546b0181188c8d91db88f2fb44e8b3c4bc950d2f03470d2fa79a491147218c4615e9d565b6128f87f834ca2e7bdfb12ca15d4ee97e9c779a1a22582d8c6738c651bb9ec1262ec1f3b615e9d565b5f818152600d602052604090205460ff166129327f6a189995c8825578d36bf551d587c2253963c8bbf47c512ba51fbc890fc04236615e9d565b600181600681111561294657612946617baa565b146129bd576129747f6abb8fab8f3c5c87d4a4685d5a8bb19d53dc93c4751da1497dc616d4f7b39673615e9d565b61299d7f93c11201602c70b40de0fbab78bcb84deedf1d7e3122b753e955545e0b3f3ab0615e9d565b816001826040516337e1404160e01b8152600401610c4d9392919061861a565b6129e67ffe0344796d9f3bd656baf9d80d684552ad009d2198e7d8d20d77cfeaeb85258a615e9d565b5f828152600d60205260409020805460ff19166002179055612a277f553e2dcb4d772bd13398bfb3bae887533c5b1071e612b756c46b840f4058f399615e9d565b601554612a3490426182ef565b5f838152600e6020526040902055612a6b7f705ac12468228386d532916461ce680a36fa63db1683ebd0337195f975474fc6615e9d565b60405182907fc44405af9078047712501f519e1fb900c2896c62b488336f84529c72ae16e6f1905f90a2612abe7f52e943f429fc47f2c6b3d42c01f2165282a94176b897c71c50b7816445248dcc615e9d565b815f516020618e0c5f395f51905f5260016002604051612adf929190618586565b60405180910390a25050565b612b147f5022752d25cfd4c46caf33722effb45db71e9ba12ae889f91cc439cab403a81f615e9d565b5f546001600160a01b03163314612b3e5760405163b56831db60e01b815260040160405180910390fd5b612b677f5546b0181188c8d91db88f2fb44e8b3c4bc950d2f03470d2fa79a491147218c4615e9d565b612b907f9c2c961d21373555bba733692bdf85d907c1b9ee0a113e7f9f904b6b558c6464615e9d565b5f828152600860205260409020612bc67f2e921c99603f1bdb6d5802f0babcd7ecdda2a2e7ae4ff099fe72d303dd1e7512615e9d565b5f838152600d602052604090205460ff16612c007f35d6ac9e4208dcd25b15aa459bd53df9bc4612f946b6e4b8d499d9576c9e3b56615e9d565b6002816006811115612c1457612c14617baa565b14612c8b57612c427f715a5b2b20dc6ae2b1221235e6a0e998d2cbc1c21f065dc38b6f77ba877796a5615e9d565b612c6b7fdebfe61d9744a4c41b452163405003990ba3a34cdea2f81c77292ec8b8839cc7615e9d565b836002826040516337e1404160e01b8152600401610c4d9392919061861a565b612cb47f0a05d8dda76a000b30def85e26f95d64931bd0c1dbf1cde805d12c33eb8bb954615e9d565b5f848152600d60205260409020805460ff19166003179055612cf57f91d7f62497a7211f619b95d6748e79e13bafb1bfc9e114ac8c9b7c937159a6aa615e9d565b600b8201839055612d257f46df6d0876e256a4fc35350bc35f1bc5642f9b01ab4642864ed15e96dca0da6d615e9d565b60405184907f11df18edb9bc9cd90a79068e0e208b630202148643d797d6150e7bacb733e63c905f90a2612d787f947a19cd8a2e2a01328cd63c0a9cc960e740327b1eda63ea1f944ba2b96f0d8b615e9d565b835f516020618e0c5f395f51905f5260026003604051612d99929190618586565b60405180910390a250505050565b7f9016d09d72d40fdae2fd8ceac6b6234c7706214fd39c1cd1e609a0528c199300546001600160a01b031690565b612df660405180606001604052805f81526020015f81526020015f81525090565b612e1f7fb652a6b568ebac757cc03daad0eb898bc55dfd92f78610bd490c4b3264d3bca8615e9d565b5060408051606081018252601554815260165460208201526017549181019190915290565b612e6d7f7f13220a00d5cb1eebfde822c09bb394eacbedfc9cc66e6e4bcc7b1216542b69615e9d565b5f818152600d602052604090205460ff16612ea77f3fe5846f174b2042c1be245eebd9853516582c3983d9cd136e849e08656c3950615e9d565b6006816006811115612ebb57612ebb617baa565b148290612ede57604051637cb2d48360e11b8152600401610c4d91815260200190565b50612f087faab309b5a3ebc24629c25e69f9db353bf7700646831d3ff98550e35932540263615e9d565b5f828152600c6020526040902054612f3f7fc5920951a0a455b8b1fcd20fe206683dabccd78c10bd7a84533b4bfff10bfeb5615e9d565b8281612f61576040516345ba89d560e11b8152600401610c4d91815260200190565b50612f8b7f943d04188dfd49242a10ae7901241304e8a25f32a5ea4c33d82bb64abedae7d9615e9d565b5f838152600c6020526040812055612fc27fd259bd8d98f0ec9ce740673b3b88ac3acc130c47bb0d6166ed1d8a6319702909615e9d565b5f612fcc84616156565b9050612ff77f7751ca541a343ca8d104d4bcde81e6f90d97417f1df484049705c11eefc6bdc9615e9d565b5f848152601160205260409020546001600160a01b03166130377f7de82b9fb0db4e81effc7fecc9abd61baf69babf2fa2f64db9d4414df9b93160615e9d565b600254613051906001600160a01b0383811691168561636a565b61307a7f6ef780e91310190d8f3ea47005ab31dfd793c8d71d2f57d2770d72f195b934b9615e9d565b60025460405163da19b69760e01b81526001600160a01b039091169063da19b697906130b090889087908790879060040161867e565b5f604051808303815f87803b1580156130c7575f5ffd5b505af11580156130d9573d5f5f3e3d5ffd5b505050506131067f1685ea639834012b858fc687386e44acbea2879643a63ab30471b94a0c36a1b8615e9d565b847f5297818f48a66292b8b3e2caab83eec531b669bb20807fd38cf006adb2a07317848451604051613142929190918252602082015260400190565b60405180910390a25050505050565b61317260405180606001604052805f81526020015f81526020015f81525090565b61319b7fb026509b24209a0a61c862a20b18abc62d869d3098e67c6a89e82e24b927e8bd615e9d565b505f908152600e6020908152604091829020825160608101845281548152600182015492810192909252600201549181019190915290565b5f5f6131fe7fb49e9e5cd9b3047ce549755518b6fdb7042378c18c0321f92dc7265ed6c355f3615e9d565b5f838152600d602052604090205460ff166132387ffba4dd4a5f4aa520a65421435336054fca7ad7479e57dd017564003c2df47e72615e9d565b6132428482616395565b9250925050915091565b5f6132767f4c6c95d81ef5d78acf9d1bd38289cfe38d8075b2ec780defe2c8792d8d90cf2f615e9d565b505f908152601060205260409020546001600160a01b031690565b5f6132bb7f7b061ef08e8cb471a87535fe5a3140ce5ec335901a57c2aa427dd053550410d1615e9d565b5f6132c58761113f565b90506132f07f4f68fce853e96d7e03b6398cee4302b0b804417345bf9cbfb9cca4473564a7cd615e9d565b5f878152600d602052604090205460ff1661332a7f8cdd761f21bf8bf002e460d528e6d8c3779392ec500a156578f7876faa80a078615e9d565b600381600681111561333e5761333e617baa565b1488600383909192613366576040516337e1404160e01b8152600401610c4d9392919061861a565b5050506133927f2e6058c9fb8ad120628aafcaee72e6c9089f39b068261be121e4425c0759caf0615e9d565b5f888152600e602090815260409182902082516060810184528154815260018201549281019290925260020154918101919091526133ef7f6d71f1716878cd837cee1a33ee86c36d759ee1164e4d4a05c26c897bd081d584615e9d565b6020810151899042811015613420576040516308f3034360e31b815260048101929092526024820152604401610c4d565b505061344b7f61fe29a822c8f58a00c25493934b130e5715918664121d8cc3d766cc19ef29be615e9d565b6060830151602001518990428111156134805760405163017e35e560e71b815260048101929092526024820152604401610c4d565b50506134ab7f18cb1645d0de90ea0aaf68ca3930615e605e070a09db7a83f9f47748eb17ef62615e9d565b6101608301518990156134d457604051637eb9cea960e11b8152600401610c4d91815260200190565b506134fe7f17634b44bdd4183cc3d1ad0cbfccbf7babf7670d78783f501c561faa40446a79615e9d565b5f888860405161350f9291906186b5565b604051809103902090506135427ff70a55a4eebf9b2af247aa3cbe0cbec93448860ac1abfea465c7c3d3a4b80d47615e9d565b5f8a8152600860205260409020600c0181905561357e7fcc3ee21361626d9dac68230362f7cabec318a9f36b92f6c8f4b102d907eeabf7615e9d565b5f8a8152600d60205260409020805460ff191660041790556135bf7fa3b0dcd94d069afa803b8932d30238b06a9bfcf78f629eb7f9168f4e60544b1c615e9d565b6017546135cc90426182ef565b5f8b8152600e60205260409020600201556136067f0f24187886b875fe070d72c97e124845b2c0c248acf0293f9549472b21262acf615e9d565b8360a001516001600160a01b0316632f0e1bbf8b838a8a6040518563ffffffff1660e01b815260040161363c94939291906186c4565b6020604051808303815f875af1158015613658573d5f5f3e3d5ffd5b505050506040513d601f19601f8201168201806040525081019061367c919061856b565b94506136a77f4007ce7afca34a0a8fb4732b811be7d80dc24a1c4a10201e8f74ceebed597357615e9d565b8888866136c957604051632f9f8ab960e01b8152600401610c4d9291906186e3565b50506136f47f9977e3d09971c7686e367d427dee5253486350dfb44e9c2a68e64ca63e5922ed615e9d565b897f7cc27e4a5626cbc4f8ba1a927b0448de55e6a114bc87660331270c5109ade0718a8a6040516137269291906186e3565b60405180910390a26137577f7926257710809e9e911b33bbfd98c3981c6d0236e75972a28b2399c2ad8bbf3c615e9d565b895f516020618e0c5f395f51905f5260036004604051613778929190618586565b60405180910390a25050505095945050505050565b604080516101e0810182525f80825260208201819052918101829052606081018290526080810182905260a0810182905260c0810182905260e08101829052610100810182905261012081018290526101408101829052610160810182905261018081018290526101a081018290526101c081019190915261382e7f754b4c417969378f199478bf710f93c947294f105f5c1969aa122e8c36c8b389615e9d565b50604080516101e0810182526018548152601954602080830191909152601a5492820192909252601b546060820152601c546080820152601d5460a0820152601e5460c0820152601f546001600160a01b03811660e083015261ffff600160a01b82048116610100840152600160b01b82048116610120840152600160c01b82048116610140840152600160d01b82048116610160840152600160e01b90910416610180820152905463ffffffff8082166101a0840152640100000000909104166101c082015290565b5f6139227fc58d769610730fe54a22d29cfa71f313db5649e3a897f7fb48f21d89d632a04e615e9d565b505f908152600a60205260409020546001600160a01b031690565b5f6139677f6e0ab9aa4e70a24a92c89627b2d77188f799f7eacbbf8fae83038067cbae704a615e9d565b5f6139718961113f565b905061399c7f580a46f13c86c6bd261d06182ea028418f91339554e1c8fe59ae22267e966847615e9d565b5f898152600d602052604090205460ff166139d67fc679baf34bdec26833fbd85bd4dae4099ac93f5b4eef62e96f01e91c3e6dc180615e9d565b60048160068111156139ea576139ea617baa565b148a600483909192613a12576040516337e1404160e01b8152600401610c4d9392919061861a565b505050613a3e7f20db41cb9ca76f1ad948e2215292d7d6b6459bc9424f4992a3b59050d23803a5615e9d565b5f8a8152600e60209081526040918290208251606081018452815481526001820154928101929092526002015491810191909152613a9b7f70ffa71bb1e73c2398b3a63c0232cb43e6b966ad14ef84c95cdf4c4123809cb9615e9d565b60408101518b9042811015613acc576040516308f3034360e31b815260048101929092526024820152604401610c4d565b5050613af77fcc74791c172f37b8f8f57a960ae2cdf33b03419138bd86737a5de58c21f395c7615e9d565b5f8b8152600860205260409020600d01613b128a8c836186f6565b50613b3c7f2164aa5ef243854cc3cc4df12fb7eee37ce02bf39d8c69ea9dc04f6c7e35a2b6615e9d565b5f8b8152600d60205260409020805460ff19166005179055613b7d7fb79811ebb367213f50e76f1da135f28124e05af53883da854c979571d8feeac3615e9d565b8261010001516001600160a01b0316635bf48e3a8b8b604051613ba19291906186b5565b6040519081900381206001600160e01b031960e084901b168252613bcf918c908c908c908c906004016187aa565b602060405180830381865afa158015613bea573d5f5f3e3d5ffd5b505050506040513d601f19601f82011682018060405250810190613c0e919061856b565b9350613c397f76d19a89e18c783a583b57431fbbfa21f296a73295ca66db1d07887cedaf3981615e9d565b898985613c5b57604051632f9f8ab960e01b8152600401610c4d9291906186e3565b5050613c867fda7023ca83b8db8086dbb120bb2320212d315b44053a7d44cd1cd0619bfcf886615e9d565b613c8f8b616786565b613cb87fa54a63a0606339be6a014b1c69c3c6c851974ff65020be0f90bde7a8781174d9615e9d565b8a7f3a140076c461ebc41d74833ae0ee8bbc8079a135a63392098cd381e84350b69b8b8b8b8b604051613cee94939291906187e2565b60405180910390a2613d1f7f30ec72bafcdba56bbbc5106a004b29a28600972bb8047acca7a4550c6a360b59615e9d565b8a5f516020618e0c5f395f51905f5260046005604051613d40929190618586565b60405180910390a2505050979650505050505050565b613d5e616047565b613d877fadf9e22eb12d83828efc0e094f5b6f9ff4f6c31baf745cc6bd9b02fdce44cb4f615e9d565b8051613db27faa80968c9dafb6b7c792a8cfe35c49abd1cc5018601e257cf7ada9fa69e25efa615e9d565b5f5b81811015613e6157613de57fa487044ca928ba1af4c7eae686c39900e0b2cc7bc3a4558bd71c1de88b46ec59615e9d565b613e0e7fd250623580666abc9e44e8640c64a4b7e247b7b1a9fd5af2b0667920f072d16e615e9d565b6001600b848381518110613e2457613e246182a6565b6020026020010151604051613e3991906185a1565b908152604051908190036020019020805491151560ff19909216919091179055600101613db4565b50613e8b7f9bb894408e0da69957115ac4b8ef4b9b9868db51eb1598cc58cb5c315f2313d7615e9d565b7f027b83cad653f54850fef6faa8c705f73a53e7f8de50a3a33ac1e0e3a5c0be818260405161276c91906185b7565b613ee37fb7ca37ffe2bced4657edca44cda54320fd19ec5dcdd6c5abaffd70e4dcbd9c9a615e9d565b5f546001600160a01b0316331480613f0557506003546001600160a01b031633145b613f2257604051639e75a8b560e01b815260040160405180910390fd5b613f4b7f5da51b086dec702debdaf0166d2997d34f515edcace313834c7653143d99eed5615e9d565b613f747ff7f7e71655b9b96ed3d58d5b71fe5bb48204aa72dd60f18089954cf2feabe858615e9d565b5f8160ff16118015613f8a5750600d60ff821611155b613fcf5760405162461bcd60e51b815260206004820152601660248201527524b73b30b634b2103330b4b63ab932903932b0b9b7b760511b6044820152606401610c4d565b613ff87fa70d2fcbe1f3e3a66c4ce497efa54ec81efb64ae4f9d6d7ab394ad190904294c615e9d565b614016828260ff16600d81111561401157614011617baa565b6172ec565b5050565b614022616047565b61404b7feec6e930c58104e079570d5220d9e7482e65348296766aa43f2ede1f31f87f64615e9d565b6001600160a01b0381166140a15760405162461bcd60e51b815260206004820152601f60248201527f496e76616c696420536c617368696e674d616e616765722061646472657373006044820152606401610c4d565b6140ca7fe7ac46ccc4b9a49fffd85447f30fddf6d3c8fe57bf7d500f070c4ad121dc4d69615e9d565b600380546001600160a01b0319166001600160a01b03831617905561410e7f83de516544e3cca7ae4e62539abcaaeb68256587fe29680cc0066d00d24ccf4f615e9d565b6040516001600160a01b038216907f4ccc8ed483c7c44c3602c3c38afc2c014a8f1d2dc210dfe58ebeeeead230f8e0905f90a250565b61416d7f78936131d195a540999146eca1fa766402d60c82ee2a226430a6bb0cd2f27ad5615e9d565b6003546001600160a01b03163314614198576040516357d6948d60e11b815260040160405180910390fd5b6141c17f1b1bc9e9dd5885ec658db09588c3665c06f30d3bfbdf47efb89ef5662888bca1615e9d565b6141ea7f2e0c5472caaabbf3067d73dc12e64f5c9acd0efe1388b034b1009fb8e0756d45615e9d565b60025460405163c1ab0f1f60e01b815260048101849052602481018390526001600160a01b039091169063c1ab0f1f906044015f604051808303815f87803b158015614234575f5ffd5b505af1158015614246573d5f5f3e3d5ffd5b505050506142737feaa909d78f1f90941b8d3a77a7a60941b23a79c146d168e887e993aceaf57030615e9d565b817f4f41a3b0a032ebcae925f2ace77d507435840ca4b2dbaffdd7723fa8d72ee54282604051612adf91815260200190565b6142ad616047565b6142d67f96672bdd2b5313f794b2a39ba95c13d1b62c4b7c4e93389106b86b96b3493191615e9d565b6001600160a01b0381161580159061430757505f828152600960205260409020546001600160a01b03828116911614155b8290614329576040516381c4951960e01b8152600401610c4d91815260200190565b506143537fb635941193f75631bd5bd7575e2f1b4f3f5d76b0b24e3f27cbbc2af2c1895879615e9d565b5f82815260096020526040902080546001600160a01b0319166001600160a01b0383161790556143a27f223ab122ac5dfc21ad5f75cd162868a67c59baa588751630f5e0f9080589cf1b615e9d565b6040518281527ff4041a3f914dac3bc9bf5f003ba41f28dbb84abe42f4e07c76266f5c8ceecb699060200161276c565b6143da616047565b6144037ff6cd3f37ed80a863958c23ed4d04a1d787837393c2d0ad5d85803d2da2069fe1615e9d565b60058190556144317fe87832f9a2052e50c2510c779c8bfb2332115044b2811d4d9b211976abef4890615e9d565b6040518181527fba0716ba1ee2ea8ecc4c64119b4537cdb42a99d82acf92af5b87607b8b52355290602001610e8e565b5f61448b7f0213d622272bd278035ec5bd0500570db7c053667a50846bad515dade5398545615e9d565b505f908152600d602052604090205460ff1690565b6144a8616047565b6144d17f5747b247d53d3092de74bfdbbe9a73749f93673d1d55a014ef2246f2ee2b6e41615e9d565b6127106144e66101208301610100840161882d565b61ffff1611156144fe6101208301610100840161882d565b90614523576040516301027fc160e21b815261ffff9091166004820152602401610c4d565b5061454d7f4906a2ec4f587d7278fd6572f5f5fd4f39fe8ae96ea6733cd19fdb65a1c705ad615e9d565b6127106145626101408301610120840161882d565b61ffff16111561457a6101408301610120840161882d565b9061459f576040516301027fc160e21b815261ffff9091166004820152602401610c4d565b506145c97fd20b1ed4ac2b77165a86843e9a7bcf800749628bb906be1604b1f23c699d329a615e9d565b6127106145de6101608301610140840161882d565b61ffff1611156145f66101608301610140840161882d565b9061461b57604051633239953960e01b815261ffff9091166004820152602401610c4d565b506146457f38cf9831c26acd0e62e3031c983f2675ed785085b940b70e859c69c52d887373615e9d565b61271061465a6101808301610160840161882d565b61ffff1611156146726101808301610160840161882d565b9061469757604051633239953960e01b815261ffff9091166004820152602401610c4d565b506146c17ffaa0f52aa607dcff5eecc268f8883d779c4f07d4ef1eaa6386ce35be8c564711615e9d565b6127106146d66101a08301610180840161882d565b61ffff1611156146ee6101a08301610180840161882d565b9061471357604051633239953960e01b815261ffff9091166004820152602401610c4d565b5061473d7f14f50c0ca07eb47fcfea441ca1f8d128ad0643fa38e12973206a99949c5fa111615e9d565b61474f6101408201610120830161882d565b61ffff16158061477857505f61476c610100830160e08401617b00565b6001600160a01b031614155b6147955760405163015f92ff60e51b815260040160405180910390fd5b6147be7f5b4fa8c20eb9254849f77c1b702f07acd00a638592e976b008ec175527d8e214615e9d565b6147d06101e082016101c08301618864565b63ffffffff166147e86101c083016101a08401618864565b63ffffffff16101561480d576040516392f55c6560e01b815260040160405180910390fd5b6148367f66712325b327e050cbfd5cc766e9f04ee9d294fb2591e56bd2d31ca7e749a667615e9d565b80601861484382826188a3565b90505061486f7fe6b05c9bf78e75b99e8ab15d8f584dc26501e802b7bae011701e615b12901eb8615e9d565b7fbf3951313e980027eb48ce363fdb707286195ec6a0f802ac153927cf929c3fc681604051610e8e9190618a61565b5f6148c87fd8e49a3a6847564b7ac362a760df636f115fa0938bcce4b7cc69692e4117f867615e9d565b5f6012816148d9602086018661828d565b60038111156148ea576148ea617baa565b60038111156148fb576148fb617baa565b8152602081019190915260409081015f20815180830190925260028282826020028201915f905b82829054906101000a900463ffffffff1663ffffffff16815260200190600401906020826003010492830192600103820291508084116149225790505050505050905061498e7fe1f98a23c49557af5279238e78f0a58823a8d1ed4b94cfe8bc8d2037a635694e615e9d565b60208082015163ffffffff161515906149a99085018561828d565b906149c85760405163286c068d60e11b8152600401610c4d91906182ba565b506149f27faa5daaf1c935db082728c03855b7dea3a29b649063986a0938f5398214997f97615e9d565b602081015163ffffffff16614a267fbb96a1a70a4d96f39e6d13aab81efaba605a34d604c894543f9f51baf005936e615e9d565b815163ffffffff16614a577f531419472253ead6242ca50c615d1fa4bd451c7d6db7cf0bd5c9b2d4b73898da615e9d565b604080516101e0810182526018548152601954602080830191909152601a5492820192909252601b546060820152601c546080820152601d5460a0820152601e5460c0820152601f546001600160a01b03811660e083015261ffff600160a01b82048116610100840152600160b01b82048116610120840152600160c01b82048116610140840152600160d01b82048116610160840152600160e01b90910416610180820152905463ffffffff8082166101a0840152640100000000909104166101c0820152614b467f4ad58d7f594c4ac12210d9126ebade2c9a52f6b57ffd856fbdb8ef789632a793615e9d565b6101a081015163ffffffff1615614bf857614b807f9b55ed7f11a1b079d29df4c910fce059d5e7e49b44bdcf44797d4cd059c1315b615e9d565b614ba97fb975ffc2a657c02c714db037178da70ad33f0e5de679c21c90eb88041ce20755615e9d565b6101a081015163ffffffff16846001602002015163ffffffff161015865f016020810190614bd7919061828d565b90614bf65760405163010b971d60e31b8152600401610c4d91906182ba565b505b614c217f4bc5db67c45dc8900bf526184fab156e7531e302c6a871526dfb4ea81ef45b18615e9d565b6101c081015163ffffffff1615614cc257614c5b7ff7b37c6d8aeb25f24c4df257a04b156c64be7367e1fb21272b19e3ac4d41d969615e9d565b614c847f03535cada388373617ced7fa564eb76e16f52645dc6d64b437028f7d41bc0ef9615e9d565b6101c081015184519063ffffffff9081169082161015614cc057604051630a4b6b6360e11b815263ffffffff9091166004820152602401610c4d565b505b614ceb7f3156c4fbad41a6a1c32c18beca9db622b996b0b3bf8d0c457dd06dc2b7d4bab7615e9d565b60408601356020870135811015614d185760405163174b5a0760e21b8152600401610c4d91815260200190565b50614d427fc831aeef18338ec139f5dba56d81bfc0a65ce6b9b50cf9de3e2763328bf742eb615e9d565b6101808101516017545f9161271091614d5f9161ffff1690618b6b565b614d699190618b82565b61271061ffff1683610160015161ffff16601560010154614d8a9190618b6b565b614d949190618b82565b61271061ffff1684610140015161ffff1660155f0154614db49190618b6b565b614dbe9190618b82565b5f5460408051634f87c3a560e11b8152815160208e81013594938f0135936001600160a01b031692639f0f874a92600480830193928290030181865afa158015614e0a573d5f5f3e3d5ffd5b505050506040513d601f19601f82011682018060405250810190614e2e9190618402565b614e3891906182ef565b614e4291906182dc565b614e4c91906182ef565b614e5691906182ef565b614e6091906182ef565b9050614e8b7f6db91a72eea2f940dafda8b64843e307d39f6f443e23ea6372d0298ecfd69392615e9d565b5f614e976001866182dc565b614ea2906002618b6b565b614ead906002618b6b565b614eb89060066182ef565b9050614ee37fe38330ddbd9b1f7570f7fc25ee3093b73ec2fa7bae6d7d3ba94637cc93adeb7c615e9d565b82515f90614ef2908790618b6b565b9050614f1d7f0bb075a1049aef12c039a72b62f99945ec265cfc260699325b237d08b490ece1615e9d565b81868560200151614f2e9190618b6b565b614f389190618b6b565b614f4290826182ef565b9050614f6d7fc92a0eab6b4463d4294d30ce90fd8dc1cb80a559e8e072104efa99acc31ab250615e9d565b600186111561500557614f9f7fa544356d0f1b9d4aa38ff93779cf6664df7a1286f5a9861d72b114e398d4b711615e9d565b614fc87f060c2f4e57b080efa195a6deee826da72b9afff40e66ca1965b99ca8354a4ce8615e9d565b6002614fd56001886182dc565b614fdf9088618b6b565b8560400151614fee9190618b6b565b614ff89190618b82565b61500290826182ef565b90505b61502e7f7b9ad7408ea942f35ed3ffe04e7516ab3cca1c2e1df877260700749fd52a1c75615e9d565b81868560c0015161503f9190618b6b565b6150499190618b6b565b61505390826182ef565b905061507e7ffd5c35aae534444067a54e6708f5e7ad26e2385bcd735056b75730a4f7ca4729615e9d565b8286856060015161508f9190618b6b565b6150999190618b6b565b6150a390826182ef565b90506150ce7ff829dd205d385dcb875ec8312158dea70798a8443c8872378eec96adf5e47734615e9d565b8484608001516150de9190618b6b565b6150e890826182ef565b90506151137fa2e85cfb71eba14585b7c5a6654050b7093d86c7afd5561c8dcb39bdecdd8a57615e9d565b60018511156151ab576151457f50a546932da81020e75f9a8548af9f92a5e338f1b4f12eaa5e5aa02ae69c6b0b615e9d565b61516e7fc5101062b459d728f1cf51548d7536ecb7b2876807d6c02a89203132dde36a6d615e9d565b600261517b6001876182dc565b6151859087618b6b565b85604001516151949190618b6b565b61519e9190618b82565b6151a890826182ef565b90505b6151d47fa507d25a79e7bbeebf328038d2b97a7773918d23d4fa268b19123ffe64adf509615e9d565b60a08401516151e390826182ef565b905061520e7f7b184f91e756576ba74dd9d7cf4fe80ba6b22123a46f064fadaa1d70ed964aea615e9d565b610100840151612710906152269061ffff16826182ef565b6152309083618b6b565b61523a9190618b82565b97506152657f4f0ad307cf50d0ba1bd434dca8a18fba1c4d9cbb350411b4e7a0d2eaab151458615e9d565b878061528757604051638c4fcd9360e01b8152600401610c4d91815260200190565b5050505050505050919050565b61529c616047565b6152c57f13af56abf99299ef9bcbc7656e00ee529ba922af009a8d5348685d499df4ed2d615e9d565b6001600160a01b038116158015906152eb57506001546001600160a01b03828116911614155b819061530b576040516320252f0b60e01b8152600401610c4d9190617b46565b506153357f485f7fea41bc518fed9ffdd0afc1f1bcca7efb98b0270935cf6473540efa3641615e9d565b600180546001600160a01b0319166001600160a01b0383161790556153797f2abf9d416482ecc381b21c328537c7fcaff58dfe566629d53e70f16c14bf15a2615e9d565b7fad4055f18cdad6f4bdd71afe3a72cbeee964217943e1bde38f138289e981a9a781604051610e8e9190617b46565b6153b0616047565b6153d97f26a05d9978310dd3e92a7be36995eea7d1513ef8529382cb097af98c387bd091615e9d565b6153e66020820182618864565b63ffffffff166153fc6040830160208401618864565b63ffffffff161015801561542157505f6154196020830183618864565b63ffffffff16115b61543e57604051634564ab9b60e01b815260040160405180910390fd5b6154677f5f93aa0ab87f8d52235841194b2303eaf771348306bea453a8e5646b340393d8615e9d565b604080516101e0810182526018548152601954602080830191909152601a5492820192909252601b546060820152601c546080820152601d5460a0820152601e5460c0820152601f546001600160a01b03811660e083015261ffff600160a01b82048116610100840152600160b01b82048116610120840152600160c01b82048116610140840152600160d01b82048116610160840152600160e01b90910416610180820152905463ffffffff8082166101a0840152640100000000909104166101c08201526155567f0c7482faa6598a70e96b49ac40882808ba348ddb1461b2069466b0f1f6ae4909615e9d565b6101a081015163ffffffff1615615625576155907f4da87157fe543ab077ee8240f5058ad59c836084882fcb7b5e3c066081ba19f9615e9d565b6155b97f740d193a7bfb41ca439d6a439ffd5cd77f4202abf6ef2efac2a06c0fec9af74c615e9d565b6101a081015163ffffffff166155d56040840160208501618864565b63ffffffff1610156155ed6040840160208501618864565b826101a00151909161562257604051633ccc4c2160e21b815263ffffffff928316600482015291166024820152604401610c4d565b50505b61564e7f9f64d9558401b00e51e06fe60ee5a4a6c314ac2a1fc804a7a15cb74b9426f920615e9d565b6101c081015163ffffffff1615615717576156887f1e16433a603cc4a7b88115ee262f811ed4b650ee141bf3e2f63b88403a9237a3615e9d565b6156b17f72edc7400b72521849697050459ca09e8d6025f3a85ffc8eef9caba54a491628615e9d565b6101c081015163ffffffff166156ca6020840184618864565b63ffffffff1610156156df6020840184618864565b826101c0015190916157145760405163156c4e5b60e11b815263ffffffff928316600482015291166024820152604401610c4d565b50505b6157407f742e21211b2d55faa29e5aedf31d10d6f766240fda065104fdceb7ac24ee6cc3615e9d565b8160125f85600381111561575657615756617baa565b600381111561576757615767617baa565b815260208101919091526040015f206157819160026177f0565b506157ab7f4d497ecb1ecca7878aa67e63e33aa9d7481c310d80f08ba392ad190a78595576615e9d565b8260038111156157bd576157bd617baa565b7f8b56fae526eee054f0849759a99fc7d4ff3823824ebf097a56f7d78adb6b34fa836040516157ec9190618ba1565b60405180910390a2505050565b615801616047565b6001600160a01b03811661582a575f604051631e4fbdf760e01b8152600401610c4d9190617b46565b610ed3816160e6565b5f61585d7fb248d8a8e27fcf16faaf5283fdf18743f06e02b9b8e25ba327a014cab70f15a3615e9d565b5f828152600d602052604090205460ff166158977f178bfd1374549ea49542888b3194b98d74fdfc2c03974857d03256b5cac51a13615e9d565b5f8160068111156158aa576158aa617baa565b036158f8576158d87f27ea85f6201c93700d2798ef750a4a060843bb2dc9b2b8e51df96c842e08bf12615e9d565b826001826040516337e1404160e01b8152600401610c4d9392919061861a565b6159217f1d60ee9cae7b08f417f5d65f956ad333b1d4b495339e460a115ca39adaad7768615e9d565b600581600681111561593557615935617baa565b0361597f576159637f372c4f275f78aaa7dc824a95422f132df5b718f5de9d9db7a30a4c63c71ebfc8615e9d565b60405163462c7bed60e01b815260048101849052602401610c4d565b6159a87f34184a6269d7e006cb636d9375b17b75e840bcc2132adf436f33e4d348274f2f615e9d565b60068160068111156159bc576159bc617baa565b03615a06576159ea7f031db86bdf6d9d0d237ba4cf0acfe804fc7e6b8ec29888695e456dacdb037c25615e9d565b604051633de16e3560e11b815260048101849052602401610c4d565b615a2f7f7bca837fae482997cf9cfbcb0e258207130b68368ef79b89197e64fcf102dfee615e9d565b5f615a597f6933e9a959486c83bf2abee49e2205ee1b5d6d216d1eeeb1bec52a46d5e8e2cb615e9d565b615a638483616395565b93509050615a907f3cbcc980feb509da1a13fecc1439a969b3dd486e3fe89019da5095140e3d7503615e9d565b80615ada57615abe7f0884262ed788f7b7b5a558090bfe78353c062dd68a9b7c8d086d7f8914f85ec0615e9d565b604051639f65d93560e01b815260048101859052602401610c4d565b615b037f9e2fc7b7c0470910566a31f6bdc5f0bbc05b1d3b3f57c24173697d93c627877b615e9d565b5f848152600d60205260409020805460ff19166006179055615b447ff7ed0f61e51826bffa608692ca0b240e3c42d4e67a47574750f6e7a753fe74b8615e9d565b5f848152600f60205260409020805484919060ff1916600183600d811115615b6e57615b6e617baa565b0217905550615b9c7fcda469132a099900547b67c36db541a72e1d1e0503900e09e522541fb7c21de9615e9d565b835f516020618e0c5f395f51905f52836006604051615bbc929190618586565b60405180910390a2615bed7fd600bd176b17deb64d9233fb0033927a6004d980cddccf66ed608a2416eda083615e9d565b837fe20209be7caae6e76291267cfa711353981274bf127e94f16eb9ec44b68582bb8385604051615c1f929190618be1565b60405180910390a25050919050565b615c36616047565b615c5f7f5061c047f079b2a343d53dc65c0a3ba61081d0e9512dc2ba38338b7ab949c96c615e9d565b6001600160a01b03811615801590615c8457505f546001600160a01b03828116911614155b8190615ca4576040516375ac4eb760e11b8152600401610c4d9190617b46565b50615cce7f41671875ccc9876faa6da0a60210ab7ebf9a2d11b10ae6d5cabddacbdbd2d259615e9d565b5f80546001600160a01b0319166001600160a01b038316179055615d117f311ef33bdbc873776a6c12967436d6af7f13f1984057874abe22b02a8cd04ef0615e9d565b7f80052b810d39120cf6c976cca504a21703f585521dc7a41c6d241090e6c579b681604051610e8e9190617b46565b615d697f1f47c6f477df3393936f6b8f2eb59d30c60459a31cdb9880dc345b5007fe3e59615e9d565b6001600160a01b0381165f90815260076020526040902054819060ff1615615da55760405163b29d459560e01b8152600401610c4d9190617b46565b50615dcf7fa2509ff6797ca6a29be51cd5546e4e9557b51aa196ba83d5ab2cabcfe85d261b615e9d565b6001600160a01b0381165f908152600760205260409020805460ff19166001179055615e1a7fb26e23d59cad15802930990ebb6c6d71a9a8eb88ea51b04da974afd8477929e2615e9d565b7fb8d368517268f297fff00825d67d098763117d061360d31027be5b2e1a59d46781604051610e8e9190617b46565b60405181815273c0bec0bec0bec0bec0bec0bec0bec0bec0bec0be905f80602083855afa50505050565b5f807ff0c57e16840df040f15088dc2f81fe391c3923bec73e23a9662efc9c229c6a005b92915050565b610ed381615e49565b615eae6175ab565b610ed3816175d0565b615ee07f1b0068f7621050119ee1a0077102dc521dc6a4236ea56e189937c80a29d6d262615e9d565b8035615eff5760405163055f269d60e01b815260040160405180910390fd5b615f287fb5a99ef35e209ded70d209fc973589da73b78becbc81b67808ce77ab525e3854615e9d565b5f816020013511615f4c5760405163055f269d60e01b815260040160405180910390fd5b615f757fb6d925a9b878c472c8aac241f32488d4c9361fdc2915fb4a93aa3b350c892824615e9d565b5f816040013511615f995760405163055f269d60e01b815260040160405180910390fd5b615fc27f9967872bf5b01b235e6dd3ea0bab5dfe60c6aa741fe624826bb558f6b4317ebd615e9d565b8035601555602081013560165560408101356017556160007ff801e54447085c5f1a8dbe54a37f5609f108e60dd232fde67ef15bd49a5761e5615e9d565b60408051823581526020808401359082015281830135918101919091527f7e86ba16b805e2835af5c5b7aa5a942ced8bcc1fb95a05fbe42dae3862350a1690606001610e8e565b33616050612da7565b6001600160a01b031614612611573360405163118cdaa760e01b8152600401610c4d9190617b46565b6040516001600160a01b0384811660248301528381166044830152606482018390526160e09186918216906323b872dd906084015b604051602081830303815290604052915060e01b6020820180516001600160e01b0383818316178352505050506175d8565b50505050565b7f9016d09d72d40fdae2fd8ceac6b6234c7706214fd39c1cd1e609a0528c19930080546001600160a01b031981166001600160a01b03848116918217845560405192169182907f8be0079c531659141344cd1fd0a4f28419497f9722a3daafe3b4186f6b6457e0905f90a3505050565b60606161817f10fd041664a16ce3463eb90ff88cdc2403744b6cc877b8eec32a5e7319646014615e9d565b5f828152600f602052604090205460ff166161bb7f78656486456237d387b6155054a7476fb14a66a1277659c914cd9c32c75fd934615e9d565b600181600d8111156161cf576161cf617baa565b14806161ec5750600281600d8111156161ea576161ea617baa565b145b1561625c5761621a7fc0f4b470f2349216f148b7631a7472c07cd1108afdee09ac316e5ae2200fd0a7615e9d565b6162437f9243e5e70bb109ba82d15d82054c989c106a643c2006d0cc54d53f28189250ef615e9d565b604080515f80825260208201909252905b509392505050565b6162857f0d66d0cb25597a6c96560edaed89571ae773928f1df6ce0ffc56add3fffbf101615e9d565b5f5460405162beb08960e51b8152600481018590526001600160a01b03909116906317d61120906024015f60405180830381865afa9250505080156162eb57506040513d5f823e601f3d908101601f191682016040526162e89190810190618c57565b60015b616318576162437fe1a48f540b7860f10ac0f94bb4c77d9c30e712a0a77ffeca4c3d16bf4eb5eefe615e9d565b6163417fd501b77807a0e0fdbb64c3e64e0c0977baf683f96e7d7f075a1177e0501183e2615e9d565b6162547f4213f85919e636a0049a565b950aa2cb834a8adadc2b2ca37af5f1dbd2ef12cf615e9d565b61639083846001600160a01b031663a9059cbb85856040516024016160ae929190618d1c565b505050565b5f5f6163bf7e95ecaee17b56bcf6ec079d7d39f66619dd48b9d3568eee3f1b04474e88b1fc615e9d565b5f848152600e6020908152604091829020825160608101845281548152600182015492810192909252600201549181019190915261641c7f2696971e880e48b4a043eec0fc1e9181712c46da5e3857e3000cb1fea49561ff615e9d565b5f8054604051632800d82960e01b8152600481018890526001600160a01b0390911690632800d82990602401602060405180830381865afa158015616463573d5f5f3e3d5ffd5b505050506040513d601f19601f820116820180604052508101906164879190618402565b90506164b27f4d5dac32d90b185ffe924f095bb7b5d99b8b2551cc8d2b540f688e9487a7b7dd615e9d565b60018560068111156164c6576164c6617baa565b1480156164d257508042115b15616537576165007f167aa46430c1ac8883794a369fb4249a1e25dd619047f774e83e4e535d1d358b615e9d565b6165297fe50f95030b05b0a6ef401b33671a5737567c91d1e77abd876438387f07c02df3615e9d565b60018093509350505061677f565b6165607fe030a435a302abef69972a62f19e64837517a272503ce14ed4a6119293495fa7615e9d565b600285600681111561657457616574617baa565b1480156165815750815142115b156165e7576165af7f8438e03601151dc66f72f27aeabf66562abe63c652bf20311836964bb3a5814a615e9d565b6165d87f3e54f2995756ee42052f4b39f6ac924a7253f2a9b320c29c9b6db2951df62ef1615e9d565b6001600393509350505061677f565b6166107f2341bf1b6cd44a5d92829bdd6f00411c5e2e1d6a585c229a46a9d97f484d21d2615e9d565b600385600681111561662457616624617baa565b1480156166345750816020015142115b1561669a576166627f940a50f3cbe184399967ba4dd73065dd7a432f75cb855664bd984366cf3f7d89615e9d565b61668b7fc799fdf04da621aa6f4424b9cd998e86be7b872437d27f12197cdd4203e0b9ab615e9d565b6001600693509350505061677f565b6166c37fd6cc086389e257e63632d57c2cc1d9b92ca0232d5c2a4aca233d2e148acd548a615e9d565b60048560068111156166d7576166d7617baa565b1480156166e75750816040015142115b1561674d576167157f9efd44075c299bf62da512b3db14bb25bc2123f09903479f506233e668c11d4f615e9d565b61673e7fc7d7f29b04b29132da7dc5287e79c9e9d414ef60e1549ccaafb54ea2a5fb75dc615e9d565b6001600a93509350505061677f565b6167767f7b41a80f37fc8ebda68344856276e7d1412a0c054ce371182bd1639daa95895e615e9d565b5f5f9350935050505b9250929050565b6167af7f82904fc2af23d1feb14c2996a5febc5a4b422cd4e522afed4721d703a295ac02615e9d565b5f805460405162beb08960e51b8152600481018490526001600160a01b03909116906317d61120906024015f60405180830381865afa1580156167f4573d5f5f3e3d5ffd5b505050506040513d5f823e601f3d908101601f1916820160405261681b9190810190618c57565b5090506168477ffb6d2e87f69a70c37402e756cb1b37f6cbbb7d6f2153c3896ebc3e72af1080f5615e9d565b80516168727fff6565984a7444638380284d9953cdecd6fcafea040805254dce18cb2dcd6abe615e9d565b5f838152600c60205260409020546168a97f7f96b02679463a5a7c89f3bc256fbfcd7a97fac1f40b5bd77dd23990c01ab286615e9d565b5f848152600c60205260408120556168e07f0ebb6aa7afb9d58787677c99f0cc214650905dbb7938031b14f4d1274b1a2305615e9d565b5f848152601160205260409020546001600160a01b03166169207f178bc320ea38b7980e5c0fee6190f1a21c2dfeee32c2cf4dcc17884b30709307615e9d565b815f03616a0a576169507fc815eb19f931031519a36fa9f620adca2bdff76ac5b07fadbe69e1b1dc02a241615e9d565b6169797f06a7f46bffe46466e7b7fd371b1442bb1698aafb09b6230200c73a8bf44b423f615e9d565b6002546040516341489f1560e01b81526001600160a01b03909116906341489f15906169ad90889088908690600401618d35565b5f604051808303815f87803b1580156169c4575f5ffd5b505af11580156169d6573d5f5f3e3d5ffd5b50505050616a037fe5507a2543437c9b7cc9c0baec7b472815f7ba954b558031881485a9d1986c68615e9d565b5050505050565b616a337fb75093a31764102418ac5b806618b76fc86d92d390d125554f6fe9fd2e45a325615e9d565b825f03616bfc57616a637f4dd5dbf37a4a752b0833d76e669bf9684f438a78e802b9db19e6dc9d3d19b0cd615e9d565b616a8c7f28fc5c9996cc86abfb24fdd6bfdb61ce580abf30e0fc22354d34e918f5b76954615e9d565b5f858152601060205260409020546001600160a01b0316616acc7f69d0141b01418e7ed3cd98f9544f91f899569c07363f3fcd5b650cd5e5aaadfa615e9d565b6001600160a01b03811615616b4157616b047f5eebee51e99d89a07558a2fae8e649159ccc57828f88161750722ad947990ec6615e9d565b616b2d7f57d58480434ba4e0efc68059a1e9ddba0790210bafdefc71a6c3fd49d4af5542615e9d565b616b416001600160a01b038316828561636a565b616b6a7fb398a12219679518d5784323c6d9f618e287c5d3b518f85abd75bfa7f74dc888615e9d565b6002546040516341489f1560e01b81526001600160a01b03909116906341489f1590616b9e90899089908790600401618d35565b5f604051808303815f87803b158015616bb5575f5ffd5b505af1158015616bc7573d5f5f3e3d5ffd5b50505050616bf47f28b1d65249a907d80b583fd78c1b86a812c05bc5e6f1fcbe32ad739bb11248e3615e9d565b505050505050565b616c257f5483622ef316a7918ece64cc7b5b9bf0d3d456fb34c0f30712611800058ef967615e9d565b5f616c4f7f10f24b390bdc31e6c41cc109f94418a712bd16c3059979a60f15060dcbb5d73b615e9d565b5f8681526013602052604090205461ffff16616c8a7f5f1a6411a68d15a7a0ba9df626910739554d19f87254e25c5d9ccf567c4eba85615e9d565b5f878152601460205260409020546001600160a01b0316616cca7fbee320211555dd958ace3003ae0f12a500dce210e46dad6e51b80f8a25a0ea38615e9d565b5f8261ffff16118015616ce557506001600160a01b03811615155b15616dee57616d137f448541011cd2357031539a89e45282f0b352681c9e873682033925adaad82394615e9d565b616d3c7fa8e2aa9f3a96dd0f3f094b9b7f4bfec980b13e7da116d4998cb49360b3b4b5db615e9d565b612710616d4d61ffff841687618b6b565b616d579190618b82565b9250616d827f1e0e6788f4a4a13125eda62c1cdbeb32dead95ad9dfe52b9479aa097427ecfbf615e9d565b8215616dee57616db17f24df550a4fa4217caf3f4bd1beaa65ad0979de9a6e298e6e1ea1e07b46b8e5a9615e9d565b616dda7fd4f147d8802573e7b099f78292ecad099fc25a7d46651f85152d27dee0189cae615e9d565b616dee6001600160a01b038516828561636a565b616e177f5be8c5822caff1453c8c8a31538294d0d4d0fd35479674f25d5d3c5160845bfe615e9d565b5f616e2284876182dc565b9050616e4d7fd17dee1d06b977e3a718ad492ef74b375b18d2b4db27c16213f24a8f409900cb615e9d565b5f876001600160401b03811115616e6657616e666178f2565b604051908082528060200260200182016040528015616e8f578160200160208202803683370190505b509050616ebb7f0f4ff011dd5d935b0729b626e9984f56a6d4ac0551a064e79a936af9ee5b4d26615e9d565b5f616ec68984618b82565b9050616ef17f90fa848790a1769d8c80271c25cda9bff6f5cb4009d08e656e9d109effcb7ab3615e9d565b5f616f1b7fe368f1cdc1a7d913e84984c364f1acfaed3197460815f0ad70e4a6675ffc902c615e9d565b5f5b8a811015616fd357616f4e7f99ef4cb145fb5869f79be49fefa8178cdf116919524b2be4ef0d94f434784a8e615e9d565b616f777fd7de3ea798c03da84f5205865ecf03f324482ad387dd4c4e2b8ba709b889c3b9615e9d565b82848281518110616f8a57616f8a6182a6565b602002602001018181525050616fbf7f0db418cb1d3cdbd5b35bcc95c01399d7fc85e8d850e0aec99fc41d9093a185d4615e9d565b616fc983836182ef565b9150600101616f1d565b50616ffd7f522f0889ae55b16d676bec2ee2b4d058ea0a683d72cbd7ae6dc4004b408d21c7615e9d565b5f61700882866182dc565b90506170337f0f79be9699ea3c1c3f94c591437ae6b06fc90077489fffd9ec16da160a5f69d0615e9d565b80156170c0576170627f6ce1b03e69f719846e3883d05c93546a8645ae92fb893e245a94bde0a88e1d4c615e9d565b61708b7f3270a55b4169dba18cbf2f2ab26bb00ab2f70ee8396d19faa020e188c075b0cf615e9d565b808461709860018e6182dc565b815181106170a8576170a86182a6565b602002602001018181516170bc91906182ef565b9052505b6170e97f5a94c4cd10a5ea2a60ad191d8155def7231503ae7ecced229b0f88fcbc4b3f3c615e9d565b600154617103906001600160a01b038b811691168761763b565b61712c7f677fd56ad770e562b283fd76d1faf4528c294f205bc56a60d161d29ce08cb0ac615e9d565b60015f9054906101000a90046001600160a01b03166001600160a01b031663dd8c818e8a8e876040518463ffffffff1660e01b815260040161717093929190618d95565b5f604051808303815f87803b158015617187575f5ffd5b505af1158015617199573d5f5f3e3d5ffd5b505050506171c67fcd912030d455d884b3f9350622985a7a53488d6df22e8ce9b4b69ca5a298b7ab615e9d565b6001546171e0906001600160a01b038b811691165f61763b565b6172097fd6c649988c086204e3f2d36a7a286190e260a2469d4c8bfa5660e87357e3384e615e9d565b8c7fac9fe8ad7f55eac03284399116ecafc104f10459773f4cdf47063c46e5be335a8d8660405161723b929190618dca565b60405180910390a261726c7fd9983a6c9fc74835165a7e3ea9a40f9905ca959aa7145fdfe6b71dfe4c4d2ccd615e9d565b60025f9054906101000a90046001600160a01b03166001600160a01b03166341489f158e8e8c6040518463ffffffff1660e01b81526004016172b093929190618d35565b5f604051808303815f87803b1580156172c7575f5ffd5b505af11580156172d9573d5f5f3e3d5ffd5b5050505050505050505050505050505050565b6173157f60bf3ae31e64c0bd286e7392ea9e11a01c67a398e2342ee00d535d0c759da9a7615e9d565b5f828152600d602052604090205460ff1661734f7f9bc2842a0e734e5be9a5e41aef1b0d1be126d125f6692dd4f791bc354f64c749615e9d565b5f81600681111561736257617362617baa565b03617390576158d87f678b14f217140985a34a3af15a127d56a2c88ac30ae57c1042fccf8d7ef6207c615e9d565b6173b97fcb462f66c3db0caec68a0d2f012942cd0be0ff2a7a51e8c3ae33b1d619c5cb2d615e9d565b60058160068111156173cd576173cd617baa565b036173fb576159637fad2c4fe48d8caa2a538732fa75f67c03c5fb5ef9a22795f3d0710fd2d243c08b615e9d565b6174247f28aee643fe1cdef7c7f0e6f972e482620edeeddb3ca0b05edc209affbed1f308615e9d565b600681600681111561743857617438617baa565b03617466576159ea7fc067fd195b9498c30808263e206f95784ccd45ead31d8ff22a6e1d21ac9f45d1615e9d565b61748f7f46e3c2f6e8b2b673d1195d73094ed77927e53704fe38aa98aa41e080971d0320615e9d565b5f838152600d60205260409020805460ff191660061790556174d07f3860398a9d34d21f0fd784b046ad6119798e49b762665cdbbc780e356e960ec6615e9d565b5f838152600f60205260409020805483919060ff1916600183600d8111156174fa576174fa617baa565b02179055506175287f1070b6503c4cca7314cff6b7daad9b89f84e48d45808c04ccb86d62f3f9529e7615e9d565b825f516020618e0c5f395f51905f52826006604051617548929190618586565b60405180910390a26175797fb49bb6724b897b385d137571c55c5bb3ab653060eae9e5d22dfdcf58f6acc210615e9d565b827fe20209be7caae6e76291267cfa711353981274bf127e94f16eb9ec44b68582bb82846040516157ec929190618be1565b6175b36176cb565b61261157604051631afcd79f60e31b815260040160405180910390fd5b6158016175ab565b5f5f60205f8451602086015f885af1806175f7576040513d5f823e3d81fd5b50505f513d9150811561760e57806001141561761b565b6001600160a01b0384163b155b156160e05783604051635274afe760e01b8152600401610c4d9190617b46565b5f836001600160a01b031663095ea7b3848460405160240161765e929190618d1c565b604051602081830303815290604052915060e01b6020820180516001600160e01b038381831617835250505050905061769784826176e4565b6160e0576176c184856001600160a01b031663095ea7b3865f6040516024016160ae929190618d1c565b6160e084826175d8565b5f6176d4615e73565b54600160401b900460ff16919050565b5f5f5f5f60205f8651602088015f8a5af192503d91505f519050828015617723575081156177155780600114617723565b5f866001600160a01b03163b115b9695505050505050565b612611618df7565b604080516101e081019091525f808252602082019081526020015f815260200161775d61788c565b81525f602082018190526040820181905260608083018190526080830181905260a0830182905260c0830182905260e08301829052610100830182905261012083015261014082018190526101609091015290565b82600281019282156177e0579160200282015b828111156177e05782518255916020019190600101906177c5565b506177ec9291506178aa565b5090565b6001830191839082156177e0579160200282015f5b8382111561784f57833563ffffffff1683826101000a81548163ffffffff021916908363ffffffff1602179055509260200192600401602081600301049283019260010302617805565b801561787f5782816101000a81549063ffffffff021916905560040160208160030104928301926001030261784f565b50506177ec9291506178aa565b60405180604001604052806002906020820280368337509192915050565b5b808211156177ec575f81556001016178ab565b6001600160a01b0381168114610ed3575f5ffd5b80356178dd816178be565b919050565b5f6060828403121561148a575f5ffd5b634e487b7160e01b5f52604160045260245ffd5b604051601f8201601f191681016001600160401b038111828210171561792e5761792e6178f2565b604052919050565b5f6001600160401b0382111561794e5761794e6178f2565b5060051b60200190565b5f82601f830112617967575f5ffd5b81356001600160401b03811115617980576179806178f2565b617993601f8201601f1916602001617906565b8181528460208386010111156179a7575f5ffd5b816020850160208301375f918101602001919091529392505050565b5f82601f8301126179d2575f5ffd5b81356179e56179e082617936565b617906565b8082825260208201915060208360051b860101925085831115617a06575f5ffd5b602085015b83811015617a465780356001600160401b03811115617a28575f5ffd5b617a37886020838a0101617958565b84525060209283019201617a0b565b5095945050505050565b5f5f5f5f5f5f5f5f610140898b031215617a68575f5ffd5b8835617a73816178be565b97506020890135617a83816178be565b96506040890135617a93816178be565b95506060890135617aa3816178be565b94506080890135617ab3816178be565b935060a08901359250617ac98a60c08b016178e2565b91506101208901356001600160401b03811115617ae4575f5ffd5b617af08b828c016179c3565b9150509295985092959890939650565b5f60208284031215617b10575f5ffd5b8135617b1b816178be565b9392505050565b5f60208284031215617b32575f5ffd5b5035919050565b6001600160a01b03169052565b6001600160a01b0391909116815260200190565b8035600481106178dd575f5ffd5b5f5f60408385031215617b79575f5ffd5b617b8283617b5a565b946020939093013593505050565b5f60608284031215617ba0575f5ffd5b617b1b83836178e2565b634e487b7160e01b5f52602160045260245ffd5b600e8110617bce57617bce617baa565b9052565b60208101615e978284617bbe565b60048110617bce57617bce617baa565b5f81518084528060208401602086015e5f602082860101526020601f19601f83011685010191505092915050565b8e8152617c2e602082018f617be0565b8c60408201528b6060820152617c47608082018c617b39565b6101c060a08201525f617c5e6101c083018c617bf0565b82810360c0840152617c70818c617bf0565b9050617c7f60e084018b617b39565b617c8d61010084018a617b39565b8761012084015286610140840152828103610160840152617cae8187617bf0565b915050617cbf610180830185617b39565b8215156101a08301529f9e505050505050505050505050505050565b805f5b60028110156160e0578151845260209384019390910190600101617cde565b805182525f6020820151617d146020850182617be0565b50604082015160408401526060820151617d316060850182617cdb565b50608082015160a084015260a0820151617d4e60c0850182617b39565b5060c082015161020060e0850152617d6a610200850182617bf0565b905060e0830151848203610100860152617d848282617bf0565b915050610100830151617d9b610120860182617b39565b50610120830151617db0610140860182617b39565b506101408301516101608501526101608301516101808501526101808301518482036101a0860152617de28282617bf0565b9150506101a0830151617df96101c0860182617b39565b506101c08301518015156101e0860152616254565b602081525f617b1b6020830184617cfd565b5f60208284031215617e30575f5ffd5b81356001600160401b03811115617e45575f5ffd5b617e5184828501617958565b949350505050565b5f60208284031215617e69575f5ffd5b81356001600160401b03811115617e7e575f5ffd5b82016101008185031215617b1b575f5ffd5b828152604060208201525f617e516040830184617cfd565b5f60208284031215617eb8575f5ffd5b81356001600160401b03811115617ecd575f5ffd5b617e51848285016179c3565b5f5f60408385031215617eea575f5ffd5b823591506020830135617efc816178be565b809150509250929050565b5f5f60408385031215617f18575f5ffd5b50508035926020909101359150565b81518152602080830151908201526040808301519082015260608101615e97565b821515815260408101617b1b6020830184617bbe565b5f5f83601f840112617f6e575f5ffd5b5081356001600160401b03811115617f84575f5ffd5b60208301915083602082850101111561677f575f5ffd5b5f5f5f5f5f60608688031215617faf575f5ffd5b8535945060208601356001600160401b03811115617fcb575f5ffd5b617fd788828901617f5e565b90955093505060408601356001600160401b03811115617ff5575f5ffd5b61800188828901617f5e565b969995985093965092949392505050565b5f6101e082019050825182526020830151602083015260408301516040830152606083015160608301526080830151608083015260a083015160a083015260c083015160c083015260e083015161806c60e0840182617b39565b5061010083015161808461010084018261ffff169052565b5061012083015161809c61012084018261ffff169052565b506101408301516180b461014084018261ffff169052565b506101608301516180cc61016084018261ffff169052565b506101808301516180e461018084018261ffff169052565b506101a08301516180fe6101a084018263ffffffff169052565b506101c08301516181186101c084018263ffffffff169052565b5092915050565b5f5f5f5f5f5f5f6080888a031215618135575f5ffd5b8735965060208801356001600160401b03811115618151575f5ffd5b61815d8a828b01617f5e565b90975095505060408801356001600160401b0381111561817b575f5ffd5b6181878a828b01617f5e565b90955093505060608801356001600160401b038111156181a5575f5ffd5b6181b18a828b01617f5e565b989b979a50959850939692959293505050565b5f5f604083850312156181d5575f5ffd5b82359150602083013560ff81168114617efc575f5ffd5b60078110617bce57617bce617baa565b60208101615e9782846181ec565b5f6101e082840312801561821c575f5ffd5b509092915050565b5f5f60608385031215618235575f5ffd5b61823e83617b5a565b91508360608401111561824f575f5ffd5b50926020919091019150565b600181811c9082168061826f57607f821691505b60208210810361148a57634e487b7160e01b5f52602260045260245ffd5b5f6020828403121561829d575f5ffd5b617b1b82617b5a565b634e487b7160e01b5f52603260045260245ffd5b60208101615e978284617be0565b634e487b7160e01b5f52601160045260245ffd5b81810381811115615e9757615e976182c8565b80820180821115615e9757615e976182c8565b5f60018201618313576183136182c8565b5060010190565b5f5f8335601e1984360301811261832f575f5ffd5b8301803591506001600160401b03821115618348575f5ffd5b60200191503681900382131561677f575f5ffd5b8015158114610ed3575f5ffd5b5f60208284031215618379575f5ffd5b8135617b1b8161835c565b81835281816020850137505f828201602090810191909152601f909101601f19169091010190565b88815287602082015260a060408201525f6183cb60a08301888a618384565b82810360608401526183de818789618384565b905082810360808401526183f3818587618384565b9b9a5050505050505050505050565b5f60208284031215618412575f5ffd5b5051919050565b601f82111561639057805f5260205f20601f840160051c8101602085101561843e5750805b601f840160051c820191505b81811015616a03575f815560010161844a565b5f19600383901b1c191660019190911b1790565b81516001600160401b0381111561848a5761848a6178f2565b61849e81618498845461825b565b84618419565b6020601f8211600181146184cb575f83156184b95750848201515b6184c3848261845d565b855550616a03565b5f84815260208120601f198516915b828110156184fa57878501518255602094850194600190920191016184da565b508482101561851757868401515f19600387901b60f8161c191681555b50505050600190811b01905550565b838152602081018390526080810160408201835f5b600281101561856057815163ffffffff1683526020928301929091019060010161853b565b505050949350505050565b5f6020828403121561857b575f5ffd5b8151617b1b8161835c565b6040810161859482856181ec565b617b1b60208301846181ec565b5f82518060208501845e5f920191825250919050565b5f602082016020835280845180835260408501915060408160051b8601019250602086015f5b8281101561860e57603f198786030184526185f9858351617bf0565b945060209384019391909101906001016185dd565b50929695505050505050565b8381526060810161862e60208301856181ec565b617e5160408301846181ec565b5f8151808452602084019350602083015f5b828110156186745781516001600160a01b031686526020958601959091019060010161864d565b5093949350505050565b848152836020820152608060408201525f61869c608083018561863b565b905060018060a01b038316606083015295945050505050565b818382375f9101908152919050565b848152836020820152606060408201525f617723606083018486618384565b602081525f617e51602083018486618384565b6001600160401b0383111561870d5761870d6178f2565b6187218361871b835461825b565b83618419565b5f601f84116001811461874d575f851561873b5750838201355b618745868261845d565b845550616a03565b5f83815260208120601f198716915b8281101561877c578685013582556020948501946001909201910161875c565b5086821015618798575f1960f88860031b161c19848701351681555b505060018560011b0183555050505050565b858152606060208201525f6187c3606083018688618384565b82810360408401526187d6818587618384565b98975050505050505050565b604081525f6187f5604083018688618384565b8281036020840152618808818587618384565b979650505050505050565b61ffff81168114610ed3575f5ffd5b80356178dd81618813565b5f6020828403121561883d575f5ffd5b8135617b1b81618813565b63ffffffff81168114610ed3575f5ffd5b80356178dd81618848565b5f60208284031215618874575f5ffd5b8135617b1b81618848565b5f8135615e97816178be565b5f8135615e9781618813565b5f8135615e9781618848565b813581556020820135600182015560408201356002820155606082013560038201556080820135600482015560a0820135600582015560c08201356006820155600781016189136188f660e0850161887f565b82546001600160a01b0319166001600160a01b0391909116178255565b618943618923610100850161888b565b82805461ffff60a01b191660a09290921b61ffff60a01b16919091179055565b618973618953610120850161888b565b82805461ffff60b01b191660b09290921b61ffff60b01b16919091179055565b6189a3618983610140850161888b565b82805461ffff60c01b191660c09290921b61ffff60c01b16919091179055565b6189d36189b3610160850161888b565b82805461ffff60d01b191660d09290921b61ffff60d01b16919091179055565b618a036189e3610180850161888b565b82805461ffff60e01b191660e09290921b61ffff60e01b16919091179055565b5060088101618a2f618a186101a08501618897565b825463ffffffff191663ffffffff91909116178255565b616390618a3f6101c08501618897565b825467ffffffff00000000191660209190911b67ffffffff0000000016178255565b813581526020808301359082015260408083013590820152606080830135908201526080808301359082015260a0808301359082015260c080830135908201526101e08101618ab260e084016178d2565b618abf60e0840182617b39565b50618acd6101008401618822565b61ffff16610100830152618ae46101208401618822565b61ffff16610120830152618afb6101408401618822565b61ffff16610140830152618b126101608401618822565b61ffff16610160830152618b296101808401618822565b61ffff16610180830152618b406101a08401618859565b63ffffffff166101a0830152618b596101c08401618859565b63ffffffff81166101c0840152618118565b8082028115828204841417615e9757615e976182c8565b5f82618b9c57634e487b7160e01b5f52601260045260245ffd5b500490565b6040810181835f5b6002811015618bd8578135618bbd81618848565b63ffffffff1683526020928301929190910190600101618ba9565b50505092915050565b60408101618bef82856181ec565b617b1b6020830184617bbe565b5f82601f830112618c0b575f5ffd5b8151618c196179e082617936565b8082825260208201915060208360051b860101925085831115618c3a575f5ffd5b602085015b83811015617a46578051835260209283019201618c3f565b5f5f60408385031215618c68575f5ffd5b82516001600160401b03811115618c7d575f5ffd5b8301601f81018513618c8d575f5ffd5b8051618c9b6179e082617936565b8082825260208201915060208360051b850101925087831115618cbc575f5ffd5b6020840193505b82841015618ce7578351618cd6816178be565b825260209384019390910190618cc3565b8095505050505060208301516001600160401b03811115618d06575f5ffd5b618d1285828601618bfc565b9150509250929050565b6001600160a01b03929092168252602082015260400190565b838152606060208201525f618d4d606083018561863b565b905060018060a01b0383166040830152949350505050565b5f8151808452602084019350602083015f5b82811015618674578151865260209586019590910190600101618d77565b6001600160a01b03841681526060602082018190525f90618db89083018561863b565b82810360408401526177238185618d65565b604081525f618ddc604083018561863b565b8281036020840152618dee8185618d65565b95945050505050565b634e487b7160e01b5f52605160045260245ffdfe1b418a230a21d37a078bf8f16decbde8ccceacd77159371f62f0d4ea00d19967a164736f6c634300081c000a",
  "linkReferences": {},
  "deployedLinkReferences": {},
  "immutableReferences": {},
  "inputSourceName": "project/contracts/Enclave.sol",
  "buildInfoId": "solc-0_8_28-8e4ddba5351ffe479fc9c79b4375f45de89a5d3b"
}