{
  "_format": "hh3-artifact-1",
  "contractName": "Enclave",
  "sourceName": "contracts/Enclave.sol",
  "abi": [
    {
      "inputs": [],
      "stateMutability": "nonpayable",
      "type": "constructor"
    },
    {
      "inputs": [
        {
          "internalType": "uint256",
          "name": "size",
          "type": "uint256"
        },
        {
          "internalType": "uint256",
          "name": "minimum",
          "type": "uint256"
        }
      ],
      "name": "BelowMinCommitteeSize",
      "type": "error"
    },
    {
      "inputs": [
        {
          "internalType": "uint256",
          "name": "threshold",
          "type": "uint256"
        },
        {
          "internalType": "uint256",
          "name": "minimum",
          "type": "uint256"
        }
      ],
      "name": "BelowMinThreshold",
      "type": "error"
    },
    {
      "inputs": [
        {
          "internalType": "uint256",
          "name": "value",
          "type": "uint256"
        }
      ],
      "name": "BpsExceedsMax",
      "type": "error"
    },
    {
      "inputs": [
        {
          "internalType": "uint256",
          "name": "e3Id",
          "type": "uint256"
        }
      ],
      "name": "CiphertextOutputAlreadyPublished",
      "type": "error"
    },
    {
      "inputs": [
        {
          "internalType": "uint256",
          "name": "e3Id",
          "type": "uint256"
        }
      ],
      "name": "CiphertextOutputNotPublished",
      "type": "error"
    },
    {
      "inputs": [
        {
          "internalType": "uint256",
          "name": "e3Id",
          "type": "uint256"
        },
        {
          "internalType": "uint256",
          "name": "expiration",
          "type": "uint256"
        }
      ],
      "name": "CommitteeDutiesCompleted",
      "type": "error"
    },
    {
      "inputs": [],
      "name": "CommitteeSelectionFailed",
      "type": "error"
    },
    {
      "inputs": [
        {
          "internalType": "enum IEnclave.CommitteeSize",
          "name": "committeeSize",
          "type": "uint8"
        }
      ],
      "name": "CommitteeSizeNotConfigured",
      "type": "error"
    },
    {
      "inputs": [
        {
          "internalType": "enum IEnclave.CommitteeSize",
          "name": "committeeSize",
          "type": "uint8"
        }
      ],
      "name": "CommitteeSizeTooSmall",
      "type": "error"
    },
    {
      "inputs": [
        {
          "internalType": "uint256",
          "name": "e3Id",
          "type": "uint256"
        }
      ],
      "name": "E3AlreadyComplete",
      "type": "error"
    },
    {
      "inputs": [
        {
          "internalType": "uint256",
          "name": "e3Id",
          "type": "uint256"
        }
      ],
      "name": "E3AlreadyFailed",
      "type": "error"
    },
    {
      "inputs": [
        {
          "internalType": "uint256",
          "name": "e3Id",
          "type": "uint256"
        }
      ],
      "name": "E3DoesNotExist",
      "type": "error"
    },
    {
      "inputs": [
        {
          "internalType": "uint256",
          "name": "e3Id",
          "type": "uint256"
        }
      ],
      "name": "E3NotFailed",
      "type": "error"
    },
    {
      "inputs": [
        {
          "internalType": "contract IE3Program",
          "name": "e3Program",
          "type": "address"
        }
      ],
      "name": "E3ProgramNotAllowed",
      "type": "error"
    },
    {
      "inputs": [
        {
          "internalType": "uint256",
          "name": "e3Id",
          "type": "uint256"
        }
      ],
      "name": "FailureConditionNotMet",
      "type": "error"
    },
    {
      "inputs": [
        {
          "internalType": "uint256",
          "name": "e3Id",
          "type": "uint256"
        },
        {
          "internalType": "uint256",
          "name": "inputDeadline",
          "type": "uint256"
        }
      ],
      "name": "InputDeadlineNotReached",
      "type": "error"
    },
    {
      "inputs": [
        {
          "internalType": "contract IBondingRegistry",
          "name": "bondingRegistry",
          "type": "address"
        }
      ],
      "name": "InvalidBondingRegistry",
      "type": "error"
    },
    {
      "inputs": [
        {
          "internalType": "contract ICiphernodeRegistry",
          "name": "ciphernodeRegistry",
          "type": "address"
        }
      ],
      "name": "InvalidCiphernodeRegistry",
      "type": "error"
    },
    {
      "inputs": [
        {
          "internalType": "uint256",
          "name": "duration",
          "type": "uint256"
        }
      ],
      "name": "InvalidDuration",
      "type": "error"
    },
    {
      "inputs": [
        {
          "internalType": "bytes32",
          "name": "encryptionSchemeId",
          "type": "bytes32"
        }
      ],
      "name": "InvalidEncryptionScheme",
      "type": "error"
    },
    {
      "inputs": [
        {
          "internalType": "contract IERC20",
          "name": "feeToken",
          "type": "address"
        }
      ],
      "name": "InvalidFeeToken",
      "type": "error"
    },
    {
      "inputs": [],
      "name": "InvalidInitialization",
      "type": "error"
    },
    {
      "inputs": [
        {
          "internalType": "uint256",
          "name": "deadline",
          "type": "uint256"
        }
      ],
      "name": "InvalidInputDeadline",
      "type": "error"
    },
    {
      "inputs": [
        {
          "internalType": "uint256",
          "name": "end",
          "type": "uint256"
        }
      ],
      "name": "InvalidInputDeadlineEnd",
      "type": "error"
    },
    {
      "inputs": [
        {
          "internalType": "uint256",
          "name": "start",
          "type": "uint256"
        }
      ],
      "name": "InvalidInputDeadlineStart",
      "type": "error"
    },
    {
      "inputs": [
        {
          "internalType": "bytes",
          "name": "output",
          "type": "bytes"
        }
      ],
      "name": "InvalidOutput",
      "type": "error"
    },
    {
      "inputs": [
        {
          "internalType": "uint256",
          "name": "e3Id",
          "type": "uint256"
        },
        {
          "internalType": "enum IEnclave.E3Stage",
          "name": "expected",
          "type": "uint8"
        },
        {
          "internalType": "enum IEnclave.E3Stage",
          "name": "actual",
          "type": "uint8"
        }
      ],
      "name": "InvalidStage",
      "type": "error"
    },
    {
      "inputs": [],
      "name": "InvalidThresholdValues",
      "type": "error"
    },
    {
      "inputs": [],
      "name": "InvalidTimeoutWindow",
      "type": "error"
    },
    {
      "inputs": [],
      "name": "MinSizeBelowMinThreshold",
      "type": "error"
    },
    {
      "inputs": [
        {
          "internalType": "address",
          "name": "module",
          "type": "address"
        }
      ],
      "name": "ModuleAlreadyEnabled",
      "type": "error"
    },
    {
      "inputs": [
        {
          "internalType": "address",
          "name": "module",
          "type": "address"
        }
      ],
      "name": "ModuleNotEnabled",
      "type": "error"
    },
    {
      "inputs": [
        {
          "internalType": "uint256",
          "name": "e3Id",
          "type": "uint256"
        }
      ],
      "name": "NoPaymentToRefund",
      "type": "error"
    },
    {
      "inputs": [],
      "name": "NotInitializing",
      "type": "error"
    },
    {
      "inputs": [],
      "name": "OnlyCiphernodeRegistry",
      "type": "error"
    },
    {
      "inputs": [],
      "name": "OnlyCiphernodeRegistryOrSlashingManager",
      "type": "error"
    },
    {
      "inputs": [],
      "name": "OnlySlashingManager",
      "type": "error"
    },
    {
      "inputs": [
        {
          "internalType": "address",
          "name": "owner",
          "type": "address"
        }
      ],
      "name": "OwnableInvalidOwner",
      "type": "error"
    },
    {
      "inputs": [
        {
          "internalType": "address",
          "name": "account",
          "type": "address"
        }
      ],
      "name": "OwnableUnauthorizedAccount",
      "type": "error"
    },
    {
      "inputs": [
        {
          "internalType": "uint256",
          "name": "value",
          "type": "uint256"
        }
      ],
      "name": "PaymentRequired",
      "type": "error"
    },
    {
      "inputs": [
        {
          "internalType": "uint256",
          "name": "e3Id",
          "type": "uint256"
        }
      ],
      "name": "PlaintextOutputAlreadyPublished",
      "type": "error"
    },
    {
      "inputs": [],
      "name": "ProofRequired",
      "type": "error"
    },
    {
      "inputs": [
        {
          "internalType": "address",
          "name": "token",
          "type": "address"
        }
      ],
      "name": "SafeERC20FailedOperation",
      "type": "error"
    },
    {
      "inputs": [
        {
          "internalType": "uint256",
          "name": "threshold",
          "type": "uint256"
        }
      ],
      "name": "ThresholdTooSmall",
      "type": "error"
    },
    {
      "inputs": [],
      "name": "TreasuryRequired",
      "type": "error"
    },
    {
      "inputs": [
        {
          "internalType": "uint256",
          "name": "value",
          "type": "uint256"
        }
      ],
      "name": "UtilizationBpsExceedsMax",
      "type": "error"
    },
    {
      "anonymous": false,
      "inputs": [
        {
          "indexed": false,
          "internalType": "address",
          "name": "bondingRegistry",
          "type": "address"
        }
      ],
      "name": "BondingRegistrySet",
      "type": "event"
    },
    {
      "anonymous": false,
      "inputs": [
        {
          "indexed": false,
          "internalType": "address",
          "name": "ciphernodeRegistry",
          "type": "address"
        }
      ],
      "name": "CiphernodeRegistrySet",
      "type": "event"
    },
    {
      "anonymous": false,
      "inputs": [
        {
          "indexed": true,
          "internalType": "uint256",
          "name": "e3Id",
          "type": "uint256"
        },
        {
          "indexed": false,
          "internalType": "bytes",
          "name": "ciphertextOutput",
          "type": "bytes"
        }
      ],
      "name": "CiphertextOutputPublished",
      "type": "event"
    },
    {
      "anonymous": false,
      "inputs": [
        {
          "indexed": true,
          "internalType": "uint256",
          "name": "e3Id",
          "type": "uint256"
        }
      ],
      "name": "CommitteeFinalized",
      "type": "event"
    },
    {
      "anonymous": false,
      "inputs": [
        {
          "indexed": true,
          "internalType": "uint256",
          "name": "e3Id",
          "type": "uint256"
        }
      ],
      "name": "CommitteeFormed",
      "type": "event"
    },
    {
      "anonymous": false,
      "inputs": [
        {
          "indexed": true,
          "internalType": "enum IEnclave.CommitteeSize",
          "name": "size",
          "type": "uint8"
        },
        {
          "indexed": false,
          "internalType": "uint32[2]",
          "name": "threshold",
          "type": "uint32[2]"
        }
      ],
      "name": "CommitteeThresholdsUpdated",
      "type": "event"
    },
    {
      "anonymous": false,
      "inputs": [
        {
          "indexed": true,
          "internalType": "uint256",
          "name": "e3Id",
          "type": "uint256"
        },
        {
          "indexed": false,
          "internalType": "enum IEnclave.E3Stage",
          "name": "failedAtStage",
          "type": "uint8"
        },
        {
          "indexed": false,
          "internalType": "enum IEnclave.FailureReason",
          "name": "reason",
          "type": "uint8"
        }
      ],
      "name": "E3Failed",
      "type": "event"
    },
    {
      "anonymous": false,
      "inputs": [
        {
          "indexed": true,
          "internalType": "uint256",
          "name": "e3Id",
          "type": "uint256"
        },
        {
          "indexed": false,
          "internalType": "uint256",
          "name": "paymentAmount",
          "type": "uint256"
        },
        {
          "indexed": false,
          "internalType": "uint256",
          "name": "honestNodeCount",
          "type": "uint256"
        }
      ],
      "name": "E3FailureProcessed",
      "type": "event"
    },
    {
      "anonymous": false,
      "inputs": [
        {
          "indexed": false,
          "internalType": "contract IE3Program",
          "name": "e3Program",
          "type": "address"
        }
      ],
      "name": "E3ProgramDisabled",
      "type": "event"
    },
    {
      "anonymous": false,
      "inputs": [
        {
          "indexed": false,
          "internalType": "contract IE3Program",
          "name": "e3Program",
          "type": "address"
        }
      ],
      "name": "E3ProgramEnabled",
      "type": "event"
    },
    {
      "anonymous": false,
      "inputs": [
        {
          "indexed": true,
          "internalType": "address",
          "name": "e3RefundManager",
          "type": "address"
        }
      ],
      "name": "E3RefundManagerSet",
      "type": "event"
    },
    {
      "anonymous": false,
      "inputs": [
        {
          "indexed": false,
          "internalType": "uint256",
          "name": "e3Id",
          "type": "uint256"
        },
        {
          "components": [
            {
              "internalType": "uint256",
              "name": "seed",
              "type": "uint256"
            },
            {
              "internalType": "enum IEnclave.CommitteeSize",
              "name": "committeeSize",
              "type": "uint8"
            },
            {
              "internalType": "uint256",
              "name": "requestBlock",
              "type": "uint256"
            },
            {
              "internalType": "uint256[2]",
              "name": "inputWindow",
              "type": "uint256[2]"
            },
            {
              "internalType": "bytes32",
              "name": "encryptionSchemeId",
              "type": "bytes32"
            },
            {
              "internalType": "contract IE3Program",
              "name": "e3Program",
              "type": "address"
            },
            {
              "internalType": "uint8",
              "name": "paramSet",
              "type": "uint8"
            },
            {
              "internalType": "bytes",
              "name": "customParams",
              "type": "bytes"
            },
            {
              "internalType": "contract IDecryptionVerifier",
              "name": "decryptionVerifier",
              "type": "address"
            },
            {
              "internalType": "contract IPkVerifier",
              "name": "pkVerifier",
              "type": "address"
            },
            {
              "internalType": "bytes32",
              "name": "committeePublicKey",
              "type": "bytes32"
            },
            {
              "internalType": "bytes32",
              "name": "ciphertextOutput",
              "type": "bytes32"
            },
            {
              "internalType": "bytes",
              "name": "plaintextOutput",
              "type": "bytes"
            },
            {
              "internalType": "address",
              "name": "requester",
              "type": "address"
            },
            {
              "internalType": "bool",
              "name": "proofAggregationEnabled",
              "type": "bool"
            }
          ],
          "indexed": false,
          "internalType": "struct E3",
          "name": "e3",
          "type": "tuple"
        },
        {
          "indexed": true,
          "internalType": "contract IE3Program",
          "name": "e3Program",
          "type": "address"
        }
      ],
      "name": "E3Requested",
      "type": "event"
    },
    {
      "anonymous": false,
      "inputs": [
        {
          "indexed": true,
          "internalType": "uint256",
          "name": "e3Id",
          "type": "uint256"
        },
        {
          "indexed": false,
          "internalType": "enum IEnclave.E3Stage",
          "name": "previousStage",
          "type": "uint8"
        },
        {
          "indexed": false,
          "internalType": "enum IEnclave.E3Stage",
          "name": "newStage",
          "type": "uint8"
        }
      ],
      "name": "E3StageChanged",
      "type": "event"
    },
    {
      "anonymous": false,
      "inputs": [
        {
          "indexed": false,
          "internalType": "bytes32",
          "name": "encryptionSchemeId",
          "type": "bytes32"
        }
      ],
      "name": "EncryptionSchemeDisabled",
      "type": "event"
    },
    {
      "anonymous": false,
      "inputs": [
        {
          "indexed": false,
          "internalType": "bytes32",
          "name": "encryptionSchemeId",
          "type": "bytes32"
        }
      ],
      "name": "EncryptionSchemeEnabled",
      "type": "event"
    },
    {
      "anonymous": false,
      "inputs": [
        {
          "indexed": false,
          "internalType": "address",
          "name": "feeToken",
          "type": "address"
        }
      ],
      "name": "FeeTokenSet",
      "type": "event"
    },
    {
      "anonymous": false,
      "inputs": [
        {
          "indexed": false,
          "internalType": "uint64",
          "name": "version",
          "type": "uint64"
        }
      ],
      "name": "Initialized",
      "type": "event"
    },
    {
      "anonymous": false,
      "inputs": [
        {
          "indexed": true,
          "internalType": "uint256",
          "name": "e3Id",
          "type": "uint256"
        },
        {
          "indexed": false,
          "internalType": "bytes",
          "name": "data",
          "type": "bytes"
        },
        {
          "indexed": false,
          "internalType": "uint256",
          "name": "inputHash",
          "type": "uint256"
        },
        {
          "indexed": false,
          "internalType": "uint256",
          "name": "index",
          "type": "uint256"
        }
      ],
      "name": "InputPublished",
      "type": "event"
    },
    {
      "anonymous": false,
      "inputs": [
        {
          "indexed": false,
          "internalType": "uint256",
          "name": "maxDuration",
          "type": "uint256"
        }
      ],
      "name": "MaxDurationSet",
      "type": "event"
    },
    {
      "anonymous": false,
      "inputs": [
        {
          "indexed": true,
          "internalType": "address",
          "name": "previousOwner",
          "type": "address"
        },
        {
          "indexed": true,
          "internalType": "address",
          "name": "newOwner",
          "type": "address"
        }
      ],
      "name": "OwnershipTransferred",
      "type": "event"
    },
    {
      "anonymous": false,
      "inputs": [
        {
          "indexed": false,
          "internalType": "uint8",
          "name": "paramSet",
          "type": "uint8"
        },
        {
          "indexed": false,
          "internalType": "bytes",
          "name": "encodedParams",
          "type": "bytes"
        }
      ],
      "name": "ParamSetRegistered",
      "type": "event"
    },
    {
      "anonymous": false,
      "inputs": [
        {
          "indexed": true,
          "internalType": "bytes32",
          "name": "encryptionSchemeId",
          "type": "bytes32"
        },
        {
          "indexed": false,
          "internalType": "address",
          "name": "pkVerifier",
          "type": "address"
        }
      ],
      "name": "PkVerifierSet",
      "type": "event"
    },
    {
      "anonymous": false,
      "inputs": [
        {
          "indexed": true,
          "internalType": "uint256",
          "name": "e3Id",
          "type": "uint256"
        },
        {
          "indexed": false,
          "internalType": "bytes",
          "name": "plaintextOutput",
          "type": "bytes"
        },
        {
          "indexed": false,
          "internalType": "bytes",
          "name": "proof",
          "type": "bytes"
        }
      ],
      "name": "PlaintextOutputPublished",
      "type": "event"
    },
    {
      "anonymous": false,
      "inputs": [
        {
          "components": [
            {
              "internalType": "uint256",
              "name": "keyGenFixedPerNode",
              "type": "uint256"
            },
            {
              "internalType": "uint256",
              "name": "keyGenPerEncryptionProof",
              "type": "uint256"
            },
            {
              "internalType": "uint256",
              "name": "coordinationPerPair",
              "type": "uint256"
            },
            {
              "internalType": "uint256",
              "name": "availabilityPerNodePerSec",
              "type": "uint256"
            },
            {
              "internalType": "uint256",
              "name": "decryptionPerNode",
              "type": "uint256"
            },
            {
              "internalType": "uint256",
              "name": "publicationBase",
              "type": "uint256"
            },
            {
              "internalType": "uint256",
              "name": "verificationPerProof",
              "type": "uint256"
            },
            {
              "internalType": "address",
              "name": "protocolTreasury",
              "type": "address"
            },
            {
              "internalType": "uint16",
              "name": "marginBps",
              "type": "uint16"
            },
            {
              "internalType": "uint16",
              "name": "protocolShareBps",
              "type": "uint16"
            },
            {
              "internalType": "uint16",
              "name": "dkgUtilizationBps",
              "type": "uint16"
            },
            {
              "internalType": "uint16",
              "name": "computeUtilizationBps",
              "type": "uint16"
            },
            {
              "internalType": "uint16",
              "name": "decryptUtilizationBps",
              "type": "uint16"
            },
            {
              "internalType": "uint32",
              "name": "minCommitteeSize",
              "type": "uint32"
            },
            {
              "internalType": "uint32",
              "name": "minThreshold",
              "type": "uint32"
            }
          ],
          "indexed": false,
          "internalType": "struct IEnclave.PricingConfig",
          "name": "config",
          "type": "tuple"
        }
      ],
      "name": "PricingConfigUpdated",
      "type": "event"
    },
    {
      "anonymous": false,
      "inputs": [
        {
          "indexed": true,
          "internalType": "uint256",
          "name": "e3Id",
          "type": "uint256"
        },
        {
          "indexed": false,
          "internalType": "address[]",
          "name": "nodes",
          "type": "address[]"
        },
        {
          "indexed": false,
          "internalType": "uint256[]",
          "name": "amounts",
          "type": "uint256[]"
        }
      ],
      "name": "RewardsDistributed",
      "type": "event"
    },
    {
      "anonymous": false,
      "inputs": [
        {
          "indexed": true,
          "internalType": "uint256",
          "name": "e3Id",
          "type": "uint256"
        },
        {
          "indexed": false,
          "internalType": "uint256",
          "name": "amount",
          "type": "uint256"
        }
      ],
      "name": "SlashedFundsEscrowed",
      "type": "event"
    },
    {
      "anonymous": false,
      "inputs": [
        {
          "indexed": true,
          "internalType": "address",
          "name": "slashingManager",
          "type": "address"
        }
      ],
      "name": "SlashingManagerSet",
      "type": "event"
    },
    {
      "anonymous": false,
      "inputs": [
        {
          "components": [
            {
              "internalType": "uint256",
              "name": "dkgWindow",
              "type": "uint256"
            },
            {
              "internalType": "uint256",
              "name": "computeWindow",
              "type": "uint256"
            },
            {
              "internalType": "uint256",
              "name": "decryptionWindow",
              "type": "uint256"
            }
          ],
          "indexed": false,
          "internalType": "struct IEnclave.E3TimeoutConfig",
          "name": "config",
          "type": "tuple"
        }
      ],
      "name": "TimeoutConfigUpdated",
      "type": "event"
    },
    {
      "inputs": [],
      "name": "bondingRegistry",
      "outputs": [
        {
          "internalType": "contract IBondingRegistry",
          "name": "",
          "type": "address"
        }
      ],
      "stateMutability": "view",
      "type": "function"
    },
    {
      "inputs": [
        {
          "internalType": "uint256",
          "name": "e3Id",
          "type": "uint256"
        }
      ],
      "name": "checkFailureCondition",
      "outputs": [
        {
          "internalType": "bool",
          "name": "canFail",
          "type": "bool"
        },
        {
          "internalType": "enum IEnclave.FailureReason",
          "name": "reason",
          "type": "uint8"
        }
      ],
      "stateMutability": "view",
      "type": "function"
    },
    {
      "inputs": [],
      "name": "ciphernodeRegistry",
      "outputs": [
        {
          "internalType": "contract ICiphernodeRegistry",
          "name": "",
          "type": "address"
        }
      ],
      "stateMutability": "view",
      "type": "function"
    },
    {
      "inputs": [
        {
          "internalType": "enum IEnclave.CommitteeSize",
          "name": "",
          "type": "uint8"
        },
        {
          "internalType": "uint256",
          "name": "",
          "type": "uint256"
        }
      ],
      "name": "committeeThresholds",
      "outputs": [
        {
          "internalType": "uint32",
          "name": "threshold",
          "type": "uint32"
        }
      ],
      "stateMutability": "view",
      "type": "function"
    },
    {
      "inputs": [
        {
          "internalType": "bytes32",
          "name": "encryptionSchemeId",
          "type": "bytes32"
        }
      ],
      "name": "decryptionVerifiers",
      "outputs": [
        {
          "internalType": "contract IDecryptionVerifier",
          "name": "decryptionVerifier",
          "type": "address"
        }
      ],
      "stateMutability": "view",
      "type": "function"
    },
    {
      "inputs": [
        {
          "internalType": "contract IE3Program",
          "name": "e3Program",
          "type": "address"
        }
      ],
      "name": "disableE3Program",
      "outputs": [],
      "stateMutability": "nonpayable",
      "type": "function"
    },
    {
      "inputs": [
        {
          "internalType": "bytes32",
          "name": "encryptionSchemeId",
          "type": "bytes32"
        }
      ],
      "name": "disableEncryptionScheme",
      "outputs": [],
      "stateMutability": "nonpayable",
      "type": "function"
    },
    {
      "inputs": [
        {
          "internalType": "uint256",
          "name": "e3Id",
          "type": "uint256"
        }
      ],
      "name": "e3Payments",
      "outputs": [
        {
          "internalType": "uint256",
          "name": "e3Payment",
          "type": "uint256"
        }
      ],
      "stateMutability": "view",
      "type": "function"
    },
    {
      "inputs": [
        {
          "internalType": "contract IE3Program",
          "name": "e3Program",
          "type": "address"
        }
      ],
      "name": "e3Programs",
      "outputs": [
        {
          "internalType": "bool",
          "name": "allowed",
          "type": "bool"
        }
      ],
      "stateMutability": "view",
      "type": "function"
    },
    {
      "inputs": [],
      "name": "e3RefundManager",
      "outputs": [
        {
          "internalType": "contract IE3RefundManager",
          "name": "",
          "type": "address"
        }
      ],
      "stateMutability": "view",
      "type": "function"
    },
    {
      "inputs": [
        {
          "internalType": "uint256",
          "name": "e3Id",
          "type": "uint256"
        }
      ],
      "name": "e3s",
      "outputs": [
        {
          "internalType": "uint256",
          "name": "seed",
          "type": "uint256"
        },
        {
          "internalType": "enum IEnclave.CommitteeSize",
          "name": "committeeSize",
          "type": "uint8"
        },
        {
          "internalType": "uint256",
          "name": "requestBlock",
          "type": "uint256"
        },
        {
          "internalType": "bytes32",
          "name": "encryptionSchemeId",
          "type": "bytes32"
        },
        {
          "internalType": "contract IE3Program",
          "name": "e3Program",
          "type": "address"
        },
        {
          "internalType": "uint8",
          "name": "paramSet",
          "type": "uint8"
        },
        {
          "internalType": "bytes",
          "name": "customParams",
          "type": "bytes"
        },
        {
          "internalType": "contract IDecryptionVerifier",
          "name": "decryptionVerifier",
          "type": "address"
        },
        {
          "internalType": "contract IPkVerifier",
          "name": "pkVerifier",
          "type": "address"
        },
        {
          "internalType": "bytes32",
          "name": "committeePublicKey",
          "type": "bytes32"
        },
        {
          "internalType": "bytes32",
          "name": "ciphertextOutput",
          "type": "bytes32"
        },
        {
          "internalType": "bytes",
          "name": "plaintextOutput",
          "type": "bytes"
        },
        {
          "internalType": "address",
          "name": "requester",
          "type": "address"
        },
        {
          "internalType": "bool",
          "name": "proofAggregationEnabled",
          "type": "bool"
        }
      ],
      "stateMutability": "view",
      "type": "function"
    },
    {
      "inputs": [
        {
          "internalType": "contract IE3Program",
          "name": "e3Program",
          "type": "address"
        }
      ],
      "name": "enableE3Program",
      "outputs": [],
      "stateMutability": "nonpayable",
      "type": "function"
    },
    {
      "inputs": [
        {
          "internalType": "uint256",
          "name": "e3Id",
          "type": "uint256"
        },
        {
          "internalType": "uint256",
          "name": "amount",
          "type": "uint256"
        }
      ],
      "name": "escrowSlashedFunds",
      "outputs": [],
      "stateMutability": "nonpayable",
      "type": "function"
    },
    {
      "inputs": [],
      "name": "feeToken",
      "outputs": [
        {
          "internalType": "contract IERC20",
          "name": "",
          "type": "address"
        }
      ],
      "stateMutability": "view",
      "type": "function"
    },
    {
      "inputs": [
        {
          "internalType": "uint256",
          "name": "e3Id",
          "type": "uint256"
        }
      ],
      "name": "getDeadlines",
      "outputs": [
        {
          "components": [
            {
              "internalType": "uint256",
              "name": "dkgDeadline",
              "type": "uint256"
            },
            {
              "internalType": "uint256",
              "name": "computeDeadline",
              "type": "uint256"
            },
            {
              "internalType": "uint256",
              "name": "decryptionDeadline",
              "type": "uint256"
            }
          ],
          "internalType": "struct IEnclave.E3Deadlines",
          "name": "deadlines",
          "type": "tuple"
        }
      ],
      "stateMutability": "view",
      "type": "function"
    },
    {
      "inputs": [
        {
          "internalType": "bytes32",
          "name": "encryptionSchemeId",
          "type": "bytes32"
        }
      ],
      "name": "getDecryptionVerifier",
      "outputs": [
        {
          "internalType": "contract IDecryptionVerifier",
          "name": "",
          "type": "address"
        }
      ],
      "stateMutability": "view",
      "type": "function"
    },
    {
      "inputs": [
        {
          "internalType": "uint256",
          "name": "e3Id",
          "type": "uint256"
        }
      ],
      "name": "getE3",
      "outputs": [
        {
          "components": [
            {
              "internalType": "uint256",
              "name": "seed",
              "type": "uint256"
            },
            {
              "internalType": "enum IEnclave.CommitteeSize",
              "name": "committeeSize",
              "type": "uint8"
            },
            {
              "internalType": "uint256",
              "name": "requestBlock",
              "type": "uint256"
            },
            {
              "internalType": "uint256[2]",
              "name": "inputWindow",
              "type": "uint256[2]"
            },
            {
              "internalType": "bytes32",
              "name": "encryptionSchemeId",
              "type": "bytes32"
            },
            {
              "internalType": "contract IE3Program",
              "name": "e3Program",
              "type": "address"
            },
            {
              "internalType": "uint8",
              "name": "paramSet",
              "type": "uint8"
            },
            {
              "internalType": "bytes",
              "name": "customParams",
              "type": "bytes"
            },
            {
              "internalType": "contract IDecryptionVerifier",
              "name": "decryptionVerifier",
              "type": "address"
            },
            {
              "internalType": "contract IPkVerifier",
              "name": "pkVerifier",
              "type": "address"
            },
            {
              "internalType": "bytes32",
              "name": "committeePublicKey",
              "type": "bytes32"
            },
            {
              "internalType": "bytes32",
              "name": "ciphertextOutput",
              "type": "bytes32"
            },
            {
              "internalType": "bytes",
              "name": "plaintextOutput",
              "type": "bytes"
            },
            {
              "internalType": "address",
              "name": "requester",
              "type": "address"
            },
            {
              "internalType": "bool",
              "name": "proofAggregationEnabled",
              "type": "bool"
            }
          ],
          "internalType": "struct E3",
          "name": "e3",
          "type": "tuple"
        }
      ],
      "stateMutability": "view",
      "type": "function"
    },
    {
      "inputs": [
        {
          "components": [
            {
              "internalType": "enum IEnclave.CommitteeSize",
              "name": "committeeSize",
              "type": "uint8"
            },
            {
              "internalType": "uint256[2]",
              "name": "inputWindow",
              "type": "uint256[2]"
            },
            {
              "internalType": "contract IE3Program",
              "name": "e3Program",
              "type": "address"
            },
            {
              "internalType": "uint8",
              "name": "paramSet",
              "type": "uint8"
            },
            {
              "internalType": "bytes",
              "name": "computeProviderParams",
              "type": "bytes"
            },
            {
              "internalType": "bytes",
              "name": "customParams",
              "type": "bytes"
            },
            {
              "internalType": "bool",
              "name": "proofAggregationEnabled",
              "type": "bool"
            }
          ],
          "internalType": "struct IEnclave.E3RequestParams",
          "name": "requestParams",
          "type": "tuple"
        }
      ],
      "name": "getE3Quote",
      "outputs": [
        {
          "internalType": "uint256",
          "name": "fee",
          "type": "uint256"
        }
      ],
      "stateMutability": "view",
      "type": "function"
    },
    {
      "inputs": [
        {
          "internalType": "uint256",
          "name": "e3Id",
          "type": "uint256"
        }
      ],
      "name": "getE3Stage",
      "outputs": [
        {
          "internalType": "enum IEnclave.E3Stage",
          "name": "stage",
          "type": "uint8"
        }
      ],
      "stateMutability": "view",
      "type": "function"
    },
    {
      "inputs": [
        {
          "internalType": "uint256",
          "name": "e3Id",
          "type": "uint256"
        }
      ],
      "name": "getFailureReason",
      "outputs": [
        {
          "internalType": "enum IEnclave.FailureReason",
          "name": "reason",
          "type": "uint8"
        }
      ],
      "stateMutability": "view",
      "type": "function"
    },
    {
      "inputs": [
        {
          "internalType": "bytes32",
          "name": "encryptionSchemeId",
          "type": "bytes32"
        }
      ],
      "name": "getPkVerifier",
      "outputs": [
        {
          "internalType": "contract IPkVerifier",
          "name": "",
          "type": "address"
        }
      ],
      "stateMutability": "view",
      "type": "function"
    },
    {
      "inputs": [],
      "name": "getPricingConfig",
      "outputs": [
        {
          "components": [
            {
              "internalType": "uint256",
              "name": "keyGenFixedPerNode",
              "type": "uint256"
            },
            {
              "internalType": "uint256",
              "name": "keyGenPerEncryptionProof",
              "type": "uint256"
            },
            {
              "internalType": "uint256",
              "name": "coordinationPerPair",
              "type": "uint256"
            },
            {
              "internalType": "uint256",
              "name": "availabilityPerNodePerSec",
              "type": "uint256"
            },
            {
              "internalType": "uint256",
              "name": "decryptionPerNode",
              "type": "uint256"
            },
            {
              "internalType": "uint256",
              "name": "publicationBase",
              "type": "uint256"
            },
            {
              "internalType": "uint256",
              "name": "verificationPerProof",
              "type": "uint256"
            },
            {
              "internalType": "address",
              "name": "protocolTreasury",
              "type": "address"
            },
            {
              "internalType": "uint16",
              "name": "marginBps",
              "type": "uint16"
            },
            {
              "internalType": "uint16",
              "name": "protocolShareBps",
              "type": "uint16"
            },
            {
              "internalType": "uint16",
              "name": "dkgUtilizationBps",
              "type": "uint16"
            },
            {
              "internalType": "uint16",
              "name": "computeUtilizationBps",
              "type": "uint16"
            },
            {
              "internalType": "uint16",
              "name": "decryptUtilizationBps",
              "type": "uint16"
            },
            {
              "internalType": "uint32",
              "name": "minCommitteeSize",
              "type": "uint32"
            },
            {
              "internalType": "uint32",
              "name": "minThreshold",
              "type": "uint32"
            }
          ],
          "internalType": "struct IEnclave.PricingConfig",
          "name": "",
          "type": "tuple"
        }
      ],
      "stateMutability": "view",
      "type": "function"
    },
    {
      "inputs": [
        {
          "internalType": "uint256",
          "name": "e3Id",
          "type": "uint256"
        }
      ],
      "name": "getRequester",
      "outputs": [
        {
          "internalType": "address",
          "name": "requester",
          "type": "address"
        }
      ],
      "stateMutability": "view",
      "type": "function"
    },
    {
      "inputs": [],
      "name": "getTimeoutConfig",
      "outputs": [
        {
          "components": [
            {
              "internalType": "uint256",
              "name": "dkgWindow",
              "type": "uint256"
            },
            {
              "internalType": "uint256",
              "name": "computeWindow",
              "type": "uint256"
            },
            {
              "internalType": "uint256",
              "name": "decryptionWindow",
              "type": "uint256"
            }
          ],
          "internalType": "struct IEnclave.E3TimeoutConfig",
          "name": "config",
          "type": "tuple"
        }
      ],
      "stateMutability": "view",
      "type": "function"
    },
    {
      "inputs": [
        {
          "internalType": "address",
          "name": "_owner",
          "type": "address"
        },
        {
          "internalType": "contract ICiphernodeRegistry",
          "name": "_ciphernodeRegistry",
          "type": "address"
        },
        {
          "internalType": "contract IBondingRegistry",
          "name": "_bondingRegistry",
          "type": "address"
        },
        {
          "internalType": "contract IE3RefundManager",
          "name": "_e3RefundManager",
          "type": "address"
        },
        {
          "internalType": "contract IERC20",
          "name": "_feeToken",
          "type": "address"
        },
        {
          "internalType": "uint256",
          "name": "_maxDuration",
          "type": "uint256"
        },
        {
          "components": [
            {
              "internalType": "uint256",
              "name": "dkgWindow",
              "type": "uint256"
            },
            {
              "internalType": "uint256",
              "name": "computeWindow",
              "type": "uint256"
            },
            {
              "internalType": "uint256",
              "name": "decryptionWindow",
              "type": "uint256"
            }
          ],
          "internalType": "struct IEnclave.E3TimeoutConfig",
          "name": "config",
          "type": "tuple"
        }
      ],
      "name": "initialize",
      "outputs": [],
      "stateMutability": "nonpayable",
      "type": "function"
    },
    {
      "inputs": [
        {
          "internalType": "uint256",
          "name": "e3Id",
          "type": "uint256"
        }
      ],
      "name": "markE3Failed",
      "outputs": [
        {
          "internalType": "enum IEnclave.FailureReason",
          "name": "reason",
          "type": "uint8"
        }
      ],
      "stateMutability": "nonpayable",
      "type": "function"
    },
    {
      "inputs": [],
      "name": "maxDuration",
      "outputs": [
        {
          "internalType": "uint256",
          "name": "",
          "type": "uint256"
        }
      ],
      "stateMutability": "view",
      "type": "function"
    },
    {
      "inputs": [],
      "name": "nexte3Id",
      "outputs": [
        {
          "internalType": "uint256",
          "name": "",
          "type": "uint256"
        }
      ],
      "stateMutability": "view",
      "type": "function"
    },
    {
      "inputs": [
        {
          "internalType": "uint256",
          "name": "e3Id",
          "type": "uint256"
        }
      ],
      "name": "onCommitteeFinalized",
      "outputs": [],
      "stateMutability": "nonpayable",
      "type": "function"
    },
    {
      "inputs": [
        {
          "internalType": "uint256",
          "name": "e3Id",
          "type": "uint256"
        },
        {
          "internalType": "bytes32",
          "name": "committeePublicKey",
          "type": "bytes32"
        }
      ],
      "name": "onCommitteePublished",
      "outputs": [],
      "stateMutability": "nonpayable",
      "type": "function"
    },
    {
      "inputs": [
        {
          "internalType": "uint256",
          "name": "e3Id",
          "type": "uint256"
        },
        {
          "internalType": "uint8",
          "name": "reason",
          "type": "uint8"
        }
      ],
      "name": "onE3Failed",
      "outputs": [],
      "stateMutability": "nonpayable",
      "type": "function"
    },
    {
      "inputs": [],
      "name": "owner",
      "outputs": [
        {
          "internalType": "address",
          "name": "",
          "type": "address"
        }
      ],
      "stateMutability": "view",
      "type": "function"
    },
    {
      "inputs": [
        {
          "internalType": "uint8",
          "name": "",
          "type": "uint8"
        }
      ],
      "name": "paramSetRegistry",
      "outputs": [
        {
          "internalType": "bytes",
          "name": "",
          "type": "bytes"
        }
      ],
      "stateMutability": "view",
      "type": "function"
    },
    {
      "inputs": [
        {
          "internalType": "bytes32",
          "name": "encryptionSchemeId",
          "type": "bytes32"
        }
      ],
      "name": "pkVerifiers",
      "outputs": [
        {
          "internalType": "contract IPkVerifier",
          "name": "pkVerifier",
          "type": "address"
        }
      ],
      "stateMutability": "view",
      "type": "function"
    },
    {
      "inputs": [
        {
          "internalType": "uint256",
          "name": "e3Id",
          "type": "uint256"
        }
      ],
      "name": "processE3Failure",
      "outputs": [],
      "stateMutability": "nonpayable",
      "type": "function"
    },
    {
      "inputs": [
        {
          "internalType": "uint256",
          "name": "e3Id",
          "type": "uint256"
        },
        {
          "internalType": "bytes",
          "name": "ciphertextOutput",
          "type": "bytes"
        },
        {
          "internalType": "bytes",
          "name": "proof",
          "type": "bytes"
        }
      ],
      "name": "publishCiphertextOutput",
      "outputs": [
        {
          "internalType": "bool",
          "name": "success",
          "type": "bool"
        }
      ],
      "stateMutability": "nonpayable",
      "type": "function"
    },
    {
      "inputs": [
        {
          "internalType": "uint256",
          "name": "e3Id",
          "type": "uint256"
        },
        {
          "internalType": "bytes",
          "name": "plaintextOutput",
          "type": "bytes"
        },
        {
          "internalType": "bytes",
          "name": "proof",
          "type": "bytes"
        }
      ],
      "name": "publishPlaintextOutput",
      "outputs": [
        {
          "internalType": "bool",
          "name": "success",
          "type": "bool"
        }
      ],
      "stateMutability": "nonpayable",
      "type": "function"
    },
    {
      "inputs": [],
      "name": "renounceOwnership",
      "outputs": [],
      "stateMutability": "nonpayable",
      "type": "function"
    },
    {
      "inputs": [
        {
          "components": [
            {
              "internalType": "enum IEnclave.CommitteeSize",
              "name": "committeeSize",
              "type": "uint8"
            },
            {
              "internalType": "uint256[2]",
              "name": "inputWindow",
              "type": "uint256[2]"
            },
            {
              "internalType": "contract IE3Program",
              "name": "e3Program",
              "type": "address"
            },
            {
              "internalType": "uint8",
              "name": "paramSet",
              "type": "uint8"
            },
            {
              "internalType": "bytes",
              "name": "computeProviderParams",
              "type": "bytes"
            },
            {
              "internalType": "bytes",
              "name": "customParams",
              "type": "bytes"
            },
            {
              "internalType": "bool",
              "name": "proofAggregationEnabled",
              "type": "bool"
            }
          ],
          "internalType": "struct IEnclave.E3RequestParams",
          "name": "requestParams",
          "type": "tuple"
        }
      ],
      "name": "request",
      "outputs": [
        {
          "internalType": "uint256",
          "name": "e3Id",
          "type": "uint256"
        },
        {
          "components": [
            {
              "internalType": "uint256",
              "name": "seed",
              "type": "uint256"
            },
            {
              "internalType": "enum IEnclave.CommitteeSize",
              "name": "committeeSize",
              "type": "uint8"
            },
            {
              "internalType": "uint256",
              "name": "requestBlock",
              "type": "uint256"
            },
            {
              "internalType": "uint256[2]",
              "name": "inputWindow",
              "type": "uint256[2]"
            },
            {
              "internalType": "bytes32",
              "name": "encryptionSchemeId",
              "type": "bytes32"
            },
            {
              "internalType": "contract IE3Program",
              "name": "e3Program",
              "type": "address"
            },
            {
              "internalType": "uint8",
              "name": "paramSet",
              "type": "uint8"
            },
            {
              "internalType": "bytes",
              "name": "customParams",
              "type": "bytes"
            },
            {
              "internalType": "contract IDecryptionVerifier",
              "name": "decryptionVerifier",
              "type": "address"
            },
            {
              "internalType": "contract IPkVerifier",
              "name": "pkVerifier",
              "type": "address"
            },
            {
              "internalType": "bytes32",
              "name": "committeePublicKey",
              "type": "bytes32"
            },
            {
              "internalType": "bytes32",
              "name": "ciphertextOutput",
              "type": "bytes32"
            },
            {
              "internalType": "bytes",
              "name": "plaintextOutput",
              "type": "bytes"
            },
            {
              "internalType": "address",
              "name": "requester",
              "type": "address"
            },
            {
              "internalType": "bool",
              "name": "proofAggregationEnabled",
              "type": "bool"
            }
          ],
          "internalType": "struct E3",
          "name": "e3",
          "type": "tuple"
        }
      ],
      "stateMutability": "nonpayable",
      "type": "function"
    },
    {
      "inputs": [
        {
          "internalType": "contract IBondingRegistry",
          "name": "_bondingRegistry",
          "type": "address"
        }
      ],
      "name": "setBondingRegistry",
      "outputs": [],
      "stateMutability": "nonpayable",
      "type": "function"
    },
    {
      "inputs": [
        {
          "internalType": "contract ICiphernodeRegistry",
          "name": "_ciphernodeRegistry",
          "type": "address"
        }
      ],
      "name": "setCiphernodeRegistry",
      "outputs": [],
      "stateMutability": "nonpayable",
      "type": "function"
    },
    {
      "inputs": [
        {
          "internalType": "enum IEnclave.CommitteeSize",
          "name": "size",
          "type": "uint8"
        },
        {
          "internalType": "uint32[2]",
          "name": "threshold",
          "type": "uint32[2]"
        }
      ],
      "name": "setCommitteeThresholds",
      "outputs": [],
      "stateMutability": "nonpayable",
      "type": "function"
    },
    {
      "inputs": [
        {
          "internalType": "bytes32",
          "name": "encryptionSchemeId",
          "type": "bytes32"
        },
        {
          "internalType": "contract IDecryptionVerifier",
          "name": "decryptionVerifier",
          "type": "address"
        }
      ],
      "name": "setDecryptionVerifier",
      "outputs": [],
      "stateMutability": "nonpayable",
      "type": "function"
    },
    {
      "inputs": [
        {
          "internalType": "contract IE3RefundManager",
          "name": "_e3RefundManager",
          "type": "address"
        }
      ],
      "name": "setE3RefundManager",
      "outputs": [],
      "stateMutability": "nonpayable",
      "type": "function"
    },
    {
      "inputs": [
        {
          "internalType": "contract IERC20",
          "name": "_feeToken",
          "type": "address"
        }
      ],
      "name": "setFeeToken",
      "outputs": [],
      "stateMutability": "nonpayable",
      "type": "function"
    },
    {
      "inputs": [
        {
          "internalType": "uint256",
          "name": "_maxDuration",
          "type": "uint256"
        }
      ],
      "name": "setMaxDuration",
      "outputs": [],
      "stateMutability": "nonpayable",
      "type": "function"
    },
    {
      "inputs": [
        {
          "internalType": "uint8",
          "name": "paramSet",
          "type": "uint8"
        },
        {
          "internalType": "bytes",
          "name": "encodedParams",
          "type": "bytes"
        }
      ],
      "name": "setParamSet",
      "outputs": [],
      "stateMutability": "nonpayable",
      "type": "function"
    },
    {
      "inputs": [
        {
          "internalType": "bytes32",
          "name": "encryptionSchemeId",
          "type": "bytes32"
        },
        {
          "internalType": "contract IPkVerifier",
          "name": "pkVerifier",
          "type": "address"
        }
      ],
      "name": "setPkVerifier",
      "outputs": [],
      "stateMutability": "nonpayable",
      "type": "function"
    },
    {
      "inputs": [
        {
          "components": [
            {
              "internalType": "uint256",
              "name": "keyGenFixedPerNode",
              "type": "uint256"
            },
            {
              "internalType": "uint256",
              "name": "keyGenPerEncryptionProof",
              "type": "uint256"
            },
            {
              "internalType": "uint256",
              "name": "coordinationPerPair",
              "type": "uint256"
            },
            {
              "internalType": "uint256",
              "name": "availabilityPerNodePerSec",
              "type": "uint256"
            },
            {
              "internalType": "uint256",
              "name": "decryptionPerNode",
              "type": "uint256"
            },
            {
              "internalType": "uint256",
              "name": "publicationBase",
              "type": "uint256"
            },
            {
              "internalType": "uint256",
              "name": "verificationPerProof",
              "type": "uint256"
            },
            {
              "internalType": "address",
              "name": "protocolTreasury",
              "type": "address"
            },
            {
              "internalType": "uint16",
              "name": "marginBps",
              "type": "uint16"
            },
            {
              "internalType": "uint16",
              "name": "protocolShareBps",
              "type": "uint16"
            },
            {
              "internalType": "uint16",
              "name": "dkgUtilizationBps",
              "type": "uint16"
            },
            {
              "internalType": "uint16",
              "name": "computeUtilizationBps",
              "type": "uint16"
            },
            {
              "internalType": "uint16",
              "name": "decryptUtilizationBps",
              "type": "uint16"
            },
            {
              "internalType": "uint32",
              "name": "minCommitteeSize",
              "type": "uint32"
            },
            {
              "internalType": "uint32",
              "name": "minThreshold",
              "type": "uint32"
            }
          ],
          "internalType": "struct IEnclave.PricingConfig",
          "name": "config",
          "type": "tuple"
        }
      ],
      "name": "setPricingConfig",
      "outputs": [],
      "stateMutability": "nonpayable",
      "type": "function"
    },
    {
      "inputs": [
        {
          "internalType": "contract ISlashingManager",
          "name": "_slashingManager",
          "type": "address"
        }
      ],
      "name": "setSlashingManager",
      "outputs": [],
      "stateMutability": "nonpayable",
      "type": "function"
    },
    {
      "inputs": [
        {
          "components": [
            {
              "internalType": "uint256",
              "name": "dkgWindow",
              "type": "uint256"
            },
            {
              "internalType": "uint256",
              "name": "computeWindow",
              "type": "uint256"
            },
            {
              "internalType": "uint256",
              "name": "decryptionWindow",
              "type": "uint256"
            }
          ],
          "internalType": "struct IEnclave.E3TimeoutConfig",
          "name": "config",
          "type": "tuple"
        }
      ],
      "name": "setTimeoutConfig",
      "outputs": [],
      "stateMutability": "nonpayable",
      "type": "function"
    },
    {
      "inputs": [],
      "name": "slashingManager",
      "outputs": [
        {
          "internalType": "contract ISlashingManager",
          "name": "",
          "type": "address"
        }
      ],
      "stateMutability": "view",
      "type": "function"
    },
    {
      "inputs": [
        {
          "internalType": "address",
          "name": "newOwner",
          "type": "address"
        }
      ],
      "name": "transferOwnership",
      "outputs": [],
      "stateMutability": "nonpayable",
      "type": "function"
    }
  ],
  "bytecode": "0x6080604052348015600e575f5ffd5b5060156019565b60c9565b7ff0c57e16840df040f15088dc2f81fe391c3923bec73e23a9662efc9c229c6a00805468010000000000000000900460ff161560685760405163f92ee8a960e01b815260040160405180910390fd5b80546001600160401b039081161460c65780546001600160401b0319166001600160401b0390811782556040519081527fc7f505b2f371ae2175ee4913f4499e1f2633a7b5936321eed1cdaeb6115181d29060200160405180910390a15b50565b615af7806100d65f395ff3fe608060405234801561000f575f5ffd5b50600436106102ce575f3560e01c806390173a4111610182578063cb649617116100e0578063f0691cba1161008f578063f0691cba14610886578063f2fde38b14610899578063f3ceba3a146108ac578063f81b8ef6146108cd578063fad8e111146108e0578063fbdb3237146108f3578063fd2f3d011461091b575f5ffd5b8063cb649617146107ef578063cbd16872146107f8578063cf0f34c41461080b578063cfbdc98d1461081e578063d8afed3e1461084d578063e59e469514610860578063ea71aa5714610873575f5ffd5b80639e57b9341161013c5780639e57b93414610607578063a87f4ab91461061a578063ac3d2f421461076c578063bb2d1b8214610794578063bff232c1146107a7578063c1ab0f1f146107ba578063c4ccafa2146107cd575f5ffd5b806390173a41146105705780639117173c146105855780639231238614610598578063929a8faf146105ab57806399c6679d146105cc5780639c8570c8146105f4575f5ffd5b80635d1684181161022f5780637edcd7ab116101e95780637edcd7ab146104e757806381476ec21461050a578063830d71811461051d57806385814243146105305780638da5cb5b146105435780638dcdd86b1461054b5780638e5ce3ad1461055d575f5ffd5b80635d1684181461047d578063647846a51461049d5780636db5c8fd146104b0578063715018a6146104b95780637c8c3b4d146104c15780637cfa9d74146104d4575f5ffd5b806336c5d38a1161028b57806336c5d38a1461039b5780634017daf0146103ca578063406ed35c146103f75780634147a360146104175780634d600e5d146104445780634e92ec63146104575780634fc772641461046a575f5ffd5b806302a3a9c9146102d25780630ef81b2f146102e757806310bc62811461032557806311bd61d91461034d57806315cce224146103755780631ba7294514610388575b5f5ffd5b6102e56102e036600461478a565b61092e565b005b61030f6102f53660046147ac565b5f908152600960205260409020546001600160a01b031690565b60405161031c91906147d0565b60405180910390f35b61030f6103333660046147ac565b60096020525f90815260409020546001600160a01b031681565b61036061035b3660046147f7565b6109da565b60405163ffffffff909116815260200161031c565b6102e561038336600461478a565b610a16565b6102e561039636600461482f565b610abb565b6103bd6103a93660046147ac565b5f908152600f602052604090205460ff1690565b60405161031c9190614871565b6103dd6103d83660046147ac565b610acf565b60405161031c9e9d9c9b9a999897969594939291906148bd565b61040a6104053660046147ac565b610c7a565b60405161031c9190614a97565b6104366104253660046147ac565b600c6020525f908152604090205481565b60405190815260200161031c565b6102e5610452366004614ab4565b610ef7565b6102e56104653660046147ac565b611135565b6102e561047836600461478a565b6111c4565b61049061048b366004614b4a565b611257565b60405161031c9190614b63565b60045461030f906001600160a01b031681565b61043660055481565b6102e56112ee565b6102e56104cf366004614b75565b611301565b6102e56104e23660046147ac565b6113c1565b6104fa6104f5366004614be0565b6114b4565b604051901515815260200161031c565b6102e5610518366004614c57565b61170a565b6102e561052b366004614c77565b6117fe565b60015461030f906001600160a01b031681565b61030f61190a565b5f5461030f906001600160a01b031681565b60035461030f906001600160a01b031681565b610578611938565b60405161031c9190614cc5565b6102e56105933660046147ac565b61197e565b6105786105a63660046147ac565b611aec565b6105be6105b93660046147ac565b611b45565b60405161031c929190614ce6565b61030f6105da3660046147ac565b5f908152601060205260409020546001600160a01b031690565b6104fa610602366004614be0565b611b6c565b610436610615366004614cfc565b611e04565b61075f604080516101e0810182525f80825260208201819052918101829052606081018290526080810182905260a0810182905260c0810182905260e08101829052610100810182905261012081018290526101408101829052610160810182905261018081018290526101a081018290526101c081019190915250604080516101e0810182526018548152601954602080830191909152601a5492820192909252601b546060820152601c546080820152601d5460a0820152601e5460c0820152601f546001600160a01b03811660e083015261ffff600160a01b82048116610100840152600160b01b82048116610120840152600160c01b82048116610140840152600160d01b82048116610160840152600160e01b90910416610180820152905463ffffffff8082166101a0840152640100000000909104166101c082015290565b60405161031c9190614d33565b61030f61077a3660046147ac565b5f908152600a60205260409020546001600160a01b031690565b6102e56107a2366004614e40565b6123ce565b6102e56107b536600461478a565b61248a565b6102e56107c8366004614c57565b612531565b6104fa6107db36600461478a565b60076020525f908152604090205460ff1681565b61043660065481565b6102e5610806366004614b75565b6125ee565b6102e56108193660046147ac565b6126a8565b61084061082c3660046147ac565b5f908152600d602052604090205460ff1690565b60405161031c9190614e7a565b6102e561085b366004614e88565b6126e5565b6102e561086e36600461478a565b612972565b6102e5610881366004614ea2565b612a0c565b60025461030f906001600160a01b031681565b6102e56108a736600461478a565b612cb9565b6108bf6108ba366004614cfc565b612cf3565b60405161031c929190614ed9565b6103bd6108db3660046147ac565b613747565b6102e56108ee36600461478a565b6138e1565b61030f6109013660046147ac565b600a6020525f90815260409020546001600160a01b031681565b6102e561092936600461478a565b613979565b610936613a08565b6001600160a01b0381166109915760405162461bcd60e51b815260206004820152601f60248201527f496e76616c6964204533526566756e644d616e6167657220616464726573730060448201526064015b60405180910390fd5b600280546001600160a01b0319166001600160a01b0383169081179091556040517f9557d04c1c0b16f93f13b69aed23b3b6ab935bff3c53ac81d17896d3583542ed905f90a250565b6012602052815f5260405f2081600281106109f3575f80fd5b60089182820401919006600402915091509054906101000a900463ffffffff1681565b610a1e613a08565b6001600160a01b03811615801590610a4457506004546001600160a01b03828116911614155b8190610a645760405163eddf07f560e01b815260040161098891906147d0565b50600480546001600160a01b0319166001600160a01b0383161790556040517f722ff84c1234b2482061def5c82c6b5080c117b3cbb69d686844a051e4b8e7f390610ab09083906147d0565b60405180910390a150565b610ac3613a08565b610acc81613a3a565b50565b60086020525f9081526040902080546001820154600283015460058401546006850154600786018054959660ff95861696949593946001600160a01b03841694600160a01b90940490931692909190610b2790614ef9565b80601f0160208091040260200160405190810160405280929190818152602001828054610b5390614ef9565b8015610b9e5780601f10610b7557610100808354040283529160200191610b9e565b820191905f5260205f20905b815481529060010190602001808311610b8157829003601f168201915b50505060088401546009850154600a860154600b870154600c8801805497986001600160a01b03958616989490951696509194509291610bdd90614ef9565b80601f0160208091040260200160405190810160405280929190818152602001828054610c0990614ef9565b8015610c545780601f10610c2b57610100808354040283529160200191610c54565b820191905f5260205f20905b815481529060010190602001808311610c3757829003601f168201915b505050600d90930154919250506001600160a01b0381169060ff600160a01b909104168e565b610c826145f8565b5f8281526008602090815260409182902082516101e08101909352805483526001810154909183019060ff166003811115610cbf57610cbf614849565b6003811115610cd057610cd0614849565b8152600282810154602083015260408051808201808352919093019291600385019182845b815481526020019060010190808311610cf55750505091835250506005820154602082015260068201546001600160a01b0381166040830152600160a01b900460ff166060820152600782018054608090920191610d5290614ef9565b80601f0160208091040260200160405190810160405280929190818152602001828054610d7e90614ef9565b8015610dc95780601f10610da057610100808354040283529160200191610dc9565b820191905f5260205f20905b815481529060010190602001808311610dac57829003601f168201915b505050918352505060088201546001600160a01b0390811660208301526009830154166040820152600a8201546060820152600b8201546080820152600c8201805460a090920191610e1a90614ef9565b80601f0160208091040260200160405190810160405280929190818152602001828054610e4690614ef9565b8015610e915780601f10610e6857610100808354040283529160200191610e91565b820191905f5260205f20905b815481529060010190602001808311610e7457829003601f168201915b5050509183525050600d91909101546001600160a01b038082166020840152600160a01b90910460ff16151560409092019190915260a0820151919250839116610ef15760405163cd6f4a4f60e01b815260040161098891815260200190565b50919050565b5f610f00613af7565b805490915060ff600160401b82041615906001600160401b03165f81158015610f265750825b90505f826001600160401b03166001148015610f415750303b155b905081158015610f4f575080155b15610f6d5760405163f92ee8a960e01b815260040160405180910390fd5b845467ffffffffffffffff191660011785558315610f9757845460ff60401b1916600160401b1785555b610fa033613b21565b610fa9876126a8565b610fb28b6138e1565b610fbb8a612972565b610fc48961092e565b610fcd88610a16565b610fd686613a3a565b604080516101e081018252620186a080825261c3506020808401829052612710948401859052603260608501819052620493e060808601819052620f424060a0870181905261138860c088018190525f60e089018190526105dc6101008a015261012089018190526109c46101408a018190526101608a018390526101808a01526101a089018190526101c090980197909752601895909555601993909355601a95909555601b94909455601c55601d55601e55601f80546001600160f01b03191669027104e202710000017760a21b179055805467ffffffffffffffff191690556110c061190a565b6001600160a01b03168c6001600160a01b0316146110e1576110e18c612cb9565b831561112757845460ff60401b19168555604051600181527fc7f505b2f371ae2175ee4913f4499e1f2633a7b5936321eed1cdaeb6115181d29060200160405180910390a15b505050505050505050505050565b61113d613a08565b5f8181526009602052604090205481906001600160a01b0316611176576040516381c4951960e01b815260040161098891815260200190565b505f818152600960205260409081902080546001600160a01b0319169055517f104eb329a192aef26eddea07c2af5ad2587792e62b37ed4045b6ba59bc5540fc90610ab09083815260200190565b6111cc613a08565b6001600160a01b0381165f90815260076020526040902054819060ff16611207576040516321ac7c5f60e01b815260040161098891906147d0565b506001600160a01b0381165f9081526007602052604090819020805460ff19169055517f56070b80bd617fcd2f7a284861edb488830a38f9dedcd77b2cb2f4eac17743e790610ab09083906147d0565b600b6020525f90815260409020805461126f90614ef9565b80601f016020809104026020016040519081016040528092919081815260200182805461129b90614ef9565b80156112e65780601f106112bd576101008083540402835291602001916112e6565b820191905f5260205f20905b8154815290600101906020018083116112c957829003601f168201915b505050505081565b6112f6613a08565b6112ff5f613b32565b565b611309613a08565b6001600160a01b0381161580159061133a57505f828152600a60205260409020546001600160a01b03828116911614155b829061135c576040516381c4951960e01b815260040161098891815260200190565b505f828152600a60205260409081902080546001600160a01b0319166001600160a01b0384161790555182907f53661e3e12f23eea1e322a5352171ad3e4407d1394f869f53bb148c27e00908a906113b59084906147d0565b60405180910390a25050565b5f546001600160a01b031633146113eb5760405163b56831db60e01b815260040160405180910390fd5b5f818152600d602052604090205460ff16600181600681111561141057611410614849565b1461143557816001826040516337e1404160e01b815260040161098893929190614f2b565b5f828152600d60205260409020805460ff1916600217905560155461145a9042614f60565b5f838152600e602052604080822092909255905183917fc44405af9078047712501f519e1fb900c2896c62b488336f84529c72ae16e6f191a2815f516020615acb5f395f51905f52600160026040516113b5929190614f73565b5f5f6114bf87610c7a565b5f888152600d602052604090205490915060ff1660048160068111156114e7576114e7614849565b148860048390919261150f576040516337e1404160e01b815260040161098893929190614f2b565b5050505f888152600e60209081526040918290208251606081018452815481526001820154928101929092526002015491810182905290899042811015611572576040516308f3034360e31b815260048101929092526024820152604401610988565b50505f898152600860205260409020600c0161158f888a83615001565b505f898152600d60205260409020805460ff191660051790556101c08301511561168957846115d157604051631eae1a4d60e31b815260040160405180910390fd5b8261010001516001600160a01b031663258ae58289896040516115f59291906150b5565b6040519081900381206001600160e01b031960e084901b16825261161f918a908a906004016150ec565b602060405180830381865afa15801561163a573d5f5f3e3d5ffd5b505050506040513d601f19601f8201168201806040525081019061165e919061511b565b935087878561168257604051632f9f8ab960e01b8152600401610988929190615136565b505061168e565b600193505b61169789613ba2565b887f3a140076c461ebc41d74833ae0ee8bbc8079a135a63392098cd381e84350b69b898989896040516116cd9493929190615149565b60405180910390a2885f516020615acb5f395f51905f52600460056040516116f6929190614f73565b60405180910390a250505095945050505050565b5f546001600160a01b031633146117345760405163b56831db60e01b815260040160405180910390fd5b5f828152600860209081526040808320600d9092529091205460ff16600281600681111561176457611764614849565b1461178957836002826040516337e1404160e01b815260040161098893929190614f2b565b5f848152600d6020526040808220805460ff19166003179055600a84018590555185917f11df18edb9bc9cd90a79068e0e208b630202148643d797d6150e7bacb733e63c91a2835f516020615acb5f395f51905f52600260036040516117f0929190614f73565b60405180910390a250505050565b611806613a08565b806118425760405162461bcd60e51b815260206004820152600c60248201526b456d70747920706172616d7360a01b6044820152606401610988565b60ff83165f908152600b60205260409020805461185e90614ef9565b1590506118ad5760405162461bcd60e51b815260206004820152601b60248201527f506172616d53657420616c7265616479207265676973746572656400000000006044820152606401610988565b60ff83165f908152600b602052604090206118c9828483615001565b507f6e4a4ea7f38fc775e616080b155744337e6216848e886a69c918b4ab84da21958383836040516118fd9392919061517a565b60405180910390a1505050565b7f9016d09d72d40fdae2fd8ceac6b6234c7706214fd39c1cd1e609a0528c199300546001600160a01b031690565b61195960405180606001604052805f81526020015f81526020015f81525090565b5060408051606081018252601554815260165460208201526017549181019190915290565b5f818152600d602052604090205460ff1660068160068111156119a3576119a3614849565b1482906119c657604051637cb2d48360e11b815260040161098891815260200190565b505f828152600c602052604090205482816119f7576040516345ba89d560e11b815260040161098891815260200190565b505f838152600c60205260408120819055611a118461400e565b5f858152601160205260409020546002549192506001600160a01b0390811691611a3e91839116856140fb565b60025460405163da19b69760e01b81526001600160a01b039091169063da19b69790611a749088908790879087906004016151d9565b5f604051808303815f87803b158015611a8b575f5ffd5b505af1158015611a9d573d5f5f3e3d5ffd5b50505050847f5297818f48a66292b8b3e2caab83eec531b669bb20807fd38cf006adb2a07317848451604051611add929190918252602082015260400190565b60405180910390a25050505050565b611b0d60405180606001604052805f81526020015f81526020015f81525090565b505f908152600e6020908152604091829020825160608101845281548152600182015492810192909252600201549181019190915290565b5f818152600d6020526040812054819060ff16611b628482614158565b9250925050915091565b5f5f611b7787610c7a565b5f888152600d602052604090205490915060ff166003816006811115611b9f57611b9f614849565b1488600383909192611bc7576040516337e1404160e01b815260040161098893929190614f2b565b5050505f888152600e6020908152604091829020825160608101845281548152600182015492810183905260029091015492810192909252899042811015611c2b576040516308f3034360e31b815260048101929092526024820152604401610988565b5050606083015160200151899042811115611c625760405163017e35e560e71b815260048101929092526024820152604401610988565b5050610160830151899015611c8d57604051637eb9cea960e11b815260040161098891815260200190565b505f8888604051611c9f9291906150b5565b60408051918290039091205f8c815260086020908152838220600b01839055600d905291909120805460ff19166004179055601754909150611ce19042614f60565b5f8b8152600e6020526040908190206002019190915560a08501519051632f0e1bbf60e01b81526001600160a01b0390911690632f0e1bbf90611d2e908d9085908c908c90600401615224565b6020604051808303815f875af1158015611d4a573d5f5f3e3d5ffd5b505050506040513d601f19601f82011682018060405250810190611d6e919061511b565b9450888886611d9257604051632f9f8ab960e01b8152600401610988929190615136565b5050897f7cc27e4a5626cbc4f8ba1a927b0448de55e6a114bc87660331270c5109ade0718a8a604051611dc6929190615136565b60405180910390a2895f516020615acb5f395f51905f5260036004604051611def929190614f73565b60405180910390a25050505095945050505050565b5f80600b81611e1960a0860160808701614b4a565b60ff1660ff1681526020019081526020015f208054611e3790614ef9565b905011611e565760405162461bcd60e51b815260040161098890615243565b5f601281611e67602086018661527a565b6003811115611e7857611e78614849565b6003811115611e8957611e89614849565b8152602081019190915260409081015f20815180830190925260028282826020028201915f905b82829054906101000a900463ffffffff1663ffffffff1681526020019060040190602082600301049283019260010382029150808411611eb0579050505050505090505f81600160028110611f0757611f07615210565b602002015163ffffffff1611835f016020810190611f25919061527a565b90611f445760405163286c068d60e11b81526004016109889190615293565b506020808201518251604080516101e081018252601854815260195481860152601a5491810191909152601b546060820152601c546080820152601d5460a0820152601e5460c0820152601f546001600160a01b03811660e0830152600160a01b810461ffff908116610100840152600160b01b82048116610120840152600160c01b82048116610140840152600160d01b82048116610160840152600160e01b90910416610180820152925463ffffffff8181166101a0860181905264010000000090920481166101c08601529283169391909216911561206f576101a081015163ffffffff16846001602002015163ffffffff161015865f01602081019061204e919061527a565b9061206d5760405163010b971d60e31b81526004016109889190615293565b505b6101c081015163ffffffff16156120be576101c081015184519063ffffffff90811690821610156120bc57604051630a4b6b6360e11b815263ffffffff9091166004820152602401610988565b505b604086013560208701358110156120eb5760405163174b5a0760e21b815260040161098891815260200190565b506101808101516017545f91612710916121099161ffff16906152a1565b61211391906152b8565b61271061ffff1683610160015161ffff1660156001015461213491906152a1565b61213e91906152b8565b61271061ffff1684610140015161ffff1660155f015461215e91906152a1565b61216891906152b8565b5f5460408051634f87c3a560e11b8152815160208e81013594938f0135936001600160a01b031692639f0f874a92600480830193928290030181865afa1580156121b4573d5f5f3e3d5ffd5b505050506040513d601f19601f820116820180604052508101906121d891906152d7565b6121e29190614f60565b6121ec91906152ee565b6121f69190614f60565b6122009190614f60565b61220a9190614f60565b90505f6122186001866152ee565b6122239060046152a1565b61222e90600e614f60565b90505f85845f015161224091906152a1565b90508186856020015161225391906152a1565b61225d91906152a1565b6122679082614f60565b905060018611156122af57600261227f6001886152ee565b61228990886152a1565b856040015161229891906152a1565b6122a291906152b8565b6122ac9082614f60565b90505b81868560c001516122c091906152a1565b6122ca91906152a1565b6122d49082614f60565b9050828685606001516122e791906152a1565b6122f191906152a1565b6122fb9082614f60565b905084846080015161230d91906152a1565b6123179082614f60565b9050600185111561235f57600261232f6001876152ee565b61233990876152a1565b856040015161234891906152a1565b61235291906152b8565b61235c9082614f60565b90505b60a084015161236e9082614f60565b610100850151909150612710906123899061ffff1682614f60565b61239390836152a1565b61239d91906152b8565b975087806123c157604051638c4fcd9360e01b815260040161098891815260200190565b5050505050505050919050565b5f546001600160a01b03163314806123f057506003546001600160a01b031633145b61240d57604051639e75a8b560e01b815260040160405180910390fd5b5f8160ff161180156124235750600d60ff821611155b6124685760405162461bcd60e51b815260206004820152601660248201527524b73b30b634b2103330b4b63ab932903932b0b9b7b760511b6044820152606401610988565b612486828260ff16600d81111561248157612481614849565b6142e0565b5050565b612492613a08565b6001600160a01b0381166124e85760405162461bcd60e51b815260206004820152601f60248201527f496e76616c696420536c617368696e674d616e616765722061646472657373006044820152606401610988565b600380546001600160a01b0319166001600160a01b0383169081179091556040517f4ccc8ed483c7c44c3602c3c38afc2c014a8f1d2dc210dfe58ebeeeead230f8e0905f90a250565b6003546001600160a01b0316331461255c576040516357d6948d60e11b815260040160405180910390fd5b60025460405163c1ab0f1f60e01b815260048101849052602481018390526001600160a01b039091169063c1ab0f1f906044015f604051808303815f87803b1580156125a6575f5ffd5b505af11580156125b8573d5f5f3e3d5ffd5b50505050817f4f41a3b0a032ebcae925f2ace77d507435840ca4b2dbaffdd7723fa8d72ee542826040516113b591815260200190565b6125f6613a08565b6001600160a01b0381161580159061262757505f828152600960205260409020546001600160a01b03828116911614155b8290612649576040516381c4951960e01b815260040161098891815260200190565b505f8281526009602090815260409182902080546001600160a01b0319166001600160a01b03851617905590518381527ff4041a3f914dac3bc9bf5f003ba41f28dbb84abe42f4e07c76266f5c8ceecb69910160405180910390a15050565b6126b0613a08565b60058190556040518181527fba0716ba1ee2ea8ecc4c64119b4537cdb42a99d82acf92af5b87607b8b52355290602001610ab0565b6126ed613a08565b6127106127026101208301610100840161531b565b61ffff16111561271a6101208301610100840161531b565b9061273f576040516301027fc160e21b815261ffff9091166004820152602401610988565b506127106127556101408301610120840161531b565b61ffff16111561276d6101408301610120840161531b565b90612792576040516301027fc160e21b815261ffff9091166004820152602401610988565b506127106127a86101608301610140840161531b565b61ffff1611156127c06101608301610140840161531b565b906127e557604051633239953960e01b815261ffff9091166004820152602401610988565b506127106127fb6101808301610160840161531b565b61ffff1611156128136101808301610160840161531b565b9061283857604051633239953960e01b815261ffff9091166004820152602401610988565b5061271061284e6101a08301610180840161531b565b61ffff1611156128666101a08301610180840161531b565b9061288b57604051633239953960e01b815261ffff9091166004820152602401610988565b5061289e6101408201610120830161531b565b61ffff1615806128c757505f6128bb610100830160e0840161478a565b6001600160a01b031614155b6128e45760405163015f92ff60e51b815260040160405180910390fd5b6128f66101e082016101c08301615352565b63ffffffff1661290e6101c083016101a08401615352565b63ffffffff161015612933576040516392f55c6560e01b815260040160405180910390fd5b8060186129408282615391565b9050507fbf3951313e980027eb48ce363fdb707286195ec6a0f802ac153927cf929c3fc681604051610ab0919061554f565b61297a613a08565b6001600160a01b038116158015906129a057506001546001600160a01b03828116911614155b81906129c0576040516320252f0b60e01b815260040161098891906147d0565b50600180546001600160a01b0319166001600160a01b0383161790556040517fad4055f18cdad6f4bdd71afe3a72cbeee964217943e1bde38f138289e981a9a790610ab09083906147d0565b612a14613a08565b612a216020820182615352565b63ffffffff16612a376040830160208401615352565b63ffffffff1610158015612a5c57505f612a546020830183615352565b63ffffffff16115b612a7957604051634564ab9b60e01b815260040160405180910390fd5b604080516101e0810182526018548152601954602080830191909152601a5492820192909252601b546060820152601c546080820152601d5460a0820152601e5460c0820152601f546001600160a01b03811660e083015261ffff600160a01b82048116610100840152600160b01b82048116610120840152600160c01b82048116610140840152600160d01b82048116610160840152600160e01b90910416610180820152905463ffffffff8082166101a08401819052640100000000909204166101c083015215612bb2576101a081015163ffffffff16612b626040840160208501615352565b63ffffffff161015612b7a6040840160208501615352565b826101a001519091612baf57604051633ccc4c2160e21b815263ffffffff928316600482015291166024820152604401610988565b50505b6101c081015163ffffffff1615612c29576101c081015163ffffffff16612bdc6020840184615352565b63ffffffff161015612bf16020840184615352565b826101c001519091612c265760405163156c4e5b60e11b815263ffffffff928316600482015291166024820152604401610988565b50505b8160125f856003811115612c3f57612c3f614849565b6003811115612c5057612c50614849565b815260208101919091526040015f20612c6a916002614675565b50826003811115612c7d57612c7d614849565b7f8b56fae526eee054f0849759a99fc7d4ff3823824ebf097a56f7d78adb6b34fa83604051612cac9190615659565b60405180910390a2505050565b612cc1613a08565b6001600160a01b038116612cea575f604051631e4fbdf760e01b815260040161098891906147d0565b610acc81613b32565b5f612cfc6145f8565b5f601281612d0d602087018761527a565b6003811115612d1e57612d1e614849565b6003811115612d2f57612d2f614849565b8152602081019190915260409081015f20815180830190925260028282826020028201915f905b82829054906101000a900463ffffffff1663ffffffff1681526020019060040190602082600301049283019260010382029150808411612d56579050505050505090505f81600160028110612dad57612dad615210565b602002015163ffffffff1611845f016020810190612dcb919061527a565b90612dea5760405163286c068d60e11b81526004016109889190615293565b50602084013542811015612e1457604051630b99e87960e01b815260040161098891815260200190565b5060408401356020850135811015612e425760405163174b5a0760e21b815260040161098891815260200190565b506017546016545f9190612e5a4260408901356152ee565b612e649190614f60565b612e6e9190614f60565b905060055481108190612e97576040516313b783af60e21b815260040161098891815260200190565b5060075f612eab608088016060890161478a565b6001600160a01b0316815260208101919091526040015f205460ff16612ed7608087016060880161478a565b90612ef65760405163295a6a6f60e11b815260040161098891906147d0565b505f612f0186611e04565b60068054965090915085905f612f1683615699565b9091555050604080514460208201529081018690525f9060600160408051601f1981840301815291815281516020928301205f898152600c84528281208690556004546011855283822080546001600160a01b03199081166001600160a01b0393841617909155601f805460138852868520805461ffff191661ffff600160b01b909304929092169190911790555460148752858420805483169190931617909155600d8552838220805460ff191660011790556010909452829020805433941693909317909255601654919250612ff19190890135614f60565b5f878152600e60209081526040909120600101919091558186526130179088018861527a565b8560200190600381111561302d5761302d614849565b9081600381111561304057613040614849565b905250436040808701919091528051808201825290602089019060029083908390808284375f920191909152505050606080870191909152613088906080890190890161478a565b6001600160a01b031660a0808701919091526130a990880160808901614b4a565b60ff1660c0808701919091526130c1908801886156b1565b8080601f0160208091040260200160405190810160405280939291908181526020018383808284375f9201919091525050505060e08087019190915261310e9061010089019089016156f3565b15156101c08601525f610140860181905261016086018190526040805160208101909152818152610180870152336101a0870152600b8161315560a08b0160808c01614b4a565b60ff1660ff1681526020019081526020015f20805461317390614ef9565b80601f016020809104026020016040519081016040528092919081815260200182805461319f90614ef9565b80156131ea5780601f106131c1576101008083540402835291602001916131ea565b820191905f5260205f20905b8154815290600101906020018083116131cd57829003601f168201915b505050505090505f8151116132115760405162461bcd60e51b815260040161098890615243565b5f61322260808a0160608b0161478a565b6001600160a01b031663fefd9a8b89858561324060a08f018f6156b1565b8f8060c0019061325091906156b1565b6040518863ffffffff1660e01b8152600401613272979695949392919061570e565b6020604051808303815f875af115801561328e573d5f5f3e3d5ffd5b505050506040513d601f19601f820116820180604052508101906132b291906152d7565b5f818152600960205260409020549091506001600160a01b031681816132ee576040516381c4951960e01b815260040161098891815260200190565b505f828152600a60205260409020546001600160a01b03168281613328576040516381c4951960e01b815260040161098891815260200190565b50608089018390526001600160a01b038083166101008b015281166101208a01525f8a81526008602090815260409091208a518155908a0151600180830180548d94939260ff19919091169083600381111561338657613386614849565b0217905550604082015181600201556060820151816003019060026133ac929190614716565b506080820151600582015560a082015160068201805460c085015160ff16600160a01b026001600160a81b03199091166001600160a01b039093169290921791909117905560e082015160078201906134059082615762565b506101008201516008820180546001600160a01b039283166001600160a01b031991821617909155610120840151600984018054919093169116179055610140820151600a820155610160820151600b820155610180820151600c82019061346d9082615762565b506101a0820151600d90910180546101c0909301511515600160a01b026001600160a81b03199093166001600160a01b0392831617929092179091556004546134b9911633308961443b565b608089018390526001600160a01b038083166101008b015281166101208a01525f8a81526008602090815260409091208a518155908a0151600180830180548d94939260ff19919091169083600381111561351657613516614849565b02179055506040820151816002015560608201518160030190600261353c929190614716565b506080820151600582015560a082015160068201805460c085015160ff16600160a01b026001600160a81b03199091166001600160a01b039093169290921791909117905560e082015160078201906135959082615762565b506101008201516008820180546001600160a01b039283166001600160a01b031991821617909155610120840151600984018054919093169116179055610140820151600a820155610160820151600b820155610180820151600c8201906135fd9082615762565b506101a0820151600d90910180546101c0909301511515600160a01b026001600160a81b03199093166001600160a01b0392831617929092179091555f5460405163291a691b60e01b815291169063291a691b90613663908d9089908d90600401615817565b6020604051808303815f875af115801561367f573d5f5f3e3d5ffd5b505050506040513d601f19601f820116820180604052508101906136a3919061511b565b6136c057604051630d8dbe2560e01b815260040160405180910390fd5b6136d060808c0160608d0161478a565b6001600160a01b03167f5090c9764b5cd13df7afc0013f733dfbe6eaf1b6ddc22a5e291fa387efd4c15e8b8b60405161370a929190614ed9565b60405180910390a2895f516020615acb5f395f51905f525f6001604051613732929190614f73565b60405180910390a25050505050505050915091565b5f818152600d602052604081205460ff168181600681111561376b5761376b614849565b0361379057826001826040516337e1404160e01b815260040161098893929190614f2b565b60058160068111156137a4576137a4614849565b036137c55760405163462c7bed60e01b815260048101849052602401610988565b60068160068111156137d9576137d9614849565b036137fa57604051633de16e3560e11b815260048101849052602401610988565b5f6138058483614158565b935090508061382a57604051639f65d93560e01b815260048101859052602401610988565b5f848152600d6020526040902080546006919060ff191660018302179055505f848152600f60205260409020805484919060ff1916600183600d81111561387357613873614849565b0217905550835f516020615acb5f395f51905f52836006604051613898929190614f73565b60405180910390a2837fe20209be7caae6e76291267cfa711353981274bf127e94f16eb9ec44b68582bb83856040516138d292919061585c565b60405180910390a25050919050565b6138e9613a08565b6001600160a01b0381161580159061390e57505f546001600160a01b03828116911614155b819061392e576040516375ac4eb760e11b815260040161098891906147d0565b505f80546001600160a01b0319166001600160a01b0383161790556040517f80052b810d39120cf6c976cca504a21703f585521dc7a41c6d241090e6c579b690610ab09083906147d0565b6001600160a01b0381165f90815260076020526040902054819060ff16156139b55760405163b29d459560e01b815260040161098891906147d0565b506001600160a01b0381165f9081526007602052604090819020805460ff19166001179055517fb8d368517268f297fff00825d67d098763117d061360d31027be5b2e1a59d46790610ab09083906147d0565b33613a1161190a565b6001600160a01b0316146112ff573360405163118cdaa760e01b815260040161098891906147d0565b8035613a595760405163055f269d60e01b815260040160405180910390fd5b5f816020013511613a7d5760405163055f269d60e01b815260040160405180910390fd5b5f816040013511613aa15760405163055f269d60e01b815260040160405180910390fd5b80356015819055602080830135601681905560408085013560178190558151948552928401919091528201527f7e86ba16b805e2835af5c5b7aa5a942ced8bcc1fb95a05fbe42dae3862350a1690606001610ab0565b5f807ff0c57e16840df040f15088dc2f81fe391c3923bec73e23a9662efc9c229c6a005b92915050565b613b2961447a565b610acc8161449f565b7f9016d09d72d40fdae2fd8ceac6b6234c7706214fd39c1cd1e609a0528c19930080546001600160a01b031981166001600160a01b03848116918217845560405192169182907f8be0079c531659141344cd1fd0a4f28419497f9722a3daafe3b4186f6b6457e0905f90a3505050565b5f805460405162beb08960e51b8152600481018490526001600160a01b03909116906317d61120906024015f60405180830381865afa158015613be7573d5f5f3e3d5ffd5b505050506040513d5f823e601f3d908101601f19168201604052613c0e9190810190615933565b5080515f848152600c60209081526040808320805490849055601190925282205493945091926001600160a01b031690829003613cad576002546040516341489f1560e01b81526001600160a01b03909116906341489f1590613c79908890889086906004016159f8565b5f604051808303815f87803b158015613c90575f5ffd5b505af1158015613ca2573d5f5f3e3d5ffd5b505050505050505050565b825f03613d4e575f858152601060205260409020546001600160a01b03168015613ce557613ce56001600160a01b03831682856140fb565b6002546040516341489f1560e01b81526001600160a01b03909116906341489f1590613d19908990899087906004016159f8565b5f604051808303815f87803b158015613d30575f5ffd5b505af1158015613d42573d5f5f3e3d5ffd5b50505050505050505050565b5f85815260136020908152604080832054601490925282205461ffff909116906001600160a01b03168115801590613d8e57506001600160a01b03811615155b15613dca57612710613da461ffff8416876152a1565b613dae91906152b8565b92508215613dca57613dca6001600160a01b03851682856140fb565b5f613dd584876152ee565b90505f876001600160401b03811115613df057613df0614f8e565b604051908082528060200260200182016040528015613e19578160200160208202803683370190505b5090505f613e2789846152b8565b90505f805b8a811015613e665782848281518110613e4757613e47615210565b6020908102919091010152613e5c8383614f60565b9150600101613e2c565b505f613e7282866152ee565b90508015613eaf578084613e8760018e6152ee565b81518110613e9757613e97615210565b60200260200101818151613eab9190614f60565b9052505b600154613ec9906001600160a01b038b81169116876144a7565b60015f9054906101000a90046001600160a01b03166001600160a01b031663dd8c818e8a8e876040518463ffffffff1660e01b8152600401613f0d93929190615a58565b5f604051808303815f87803b158015613f24575f5ffd5b505af1158015613f36573d5f5f3e3d5ffd5b5050600154613f5492506001600160a01b038c81169250165f6144a7565b8c7fac9fe8ad7f55eac03284399116ecafc104f10459773f4cdf47063c46e5be335a8d86604051613f86929190615a8d565b60405180910390a260025f9054906101000a90046001600160a01b03166001600160a01b03166341489f158e8e8c6040518463ffffffff1660e01b8152600401613fd2939291906159f8565b5f604051808303815f87803b158015613fe9575f5ffd5b505af1158015613ffb573d5f5f3e3d5ffd5b5050505050505050505050505050505050565b5f818152600f602052604090205460609060ff16600181600d81111561403657614036614849565b14806140535750600281600d81111561405157614051614849565b145b1561408b575f5b604051908082528060200260200182016040528015614083578160200160208202803683370190505b509392505050565b5f5460405162beb08960e51b8152600481018590526001600160a01b03909116906317d61120906024015f60405180830381865afa9250505080156140f157506040513d5f823e601f3d908101601f191682016040526140ee9190810190615933565b60015b614083575f61405a565b61415383846001600160a01b031663a9059cbb8585604051602401614121929190615ab1565b604051602081830303815290604052915060e01b6020820180516001600160e01b038381831617835250505050614533565b505050565b5f828152600e60209081526040808320815160608101835281548152600182015493810193909352600201548282015282549051632800d82960e01b81526004810186905283929183916001600160a01b0390911690632800d82990602401602060405180830381865afa1580156141d2573d5f5f3e3d5ffd5b505050506040513d601f19601f820116820180604052508101906141f691906152d7565b9050600185600681111561420c5761420c614849565b14801561421857508042115b1561422b576001809350935050506142d9565b600285600681111561423f5761423f614849565b14801561424c5750815142115b1561426057600160039350935050506142d9565b600385600681111561427457614274614849565b1480156142845750816020015142115b1561429857600160069350935050506142d9565b60048560068111156142ac576142ac614849565b1480156142bc5750816040015142115b156142d0576001600a9350935050506142d9565b5f5f9350935050505b9250929050565b5f828152600d602052604081205460ff169081600681111561430457614304614849565b0361432957826001826040516337e1404160e01b815260040161098893929190614f2b565b600581600681111561433d5761433d614849565b0361435e5760405163462c7bed60e01b815260048101849052602401610988565b600681600681111561437257614372614849565b0361439357604051633de16e3560e11b815260048101849052602401610988565b5f838152600d6020526040902080546006919060ff191660018302179055505f838152600f60205260409020805483919060ff1916600183600d8111156143dc576143dc614849565b0217905550825f516020615acb5f395f51905f52826006604051614401929190614f73565b60405180910390a2827fe20209be7caae6e76291267cfa711353981274bf127e94f16eb9ec44b68582bb8284604051612cac92919061585c565b6040516001600160a01b0384811660248301528381166044830152606482018390526144749186918216906323b872dd90608401614121565b50505050565b614482614596565b6112ff57604051631afcd79f60e31b815260040160405180910390fd5b612cc161447a565b5f836001600160a01b031663095ea7b384846040516024016144ca929190615ab1565b604051602081830303815290604052915060e01b6020820180516001600160e01b038381831617835250505050905061450384826145af565b6144745761452d84856001600160a01b031663095ea7b3865f604051602401614121929190615ab1565b61447484825b5f5f60205f8451602086015f885af180614552576040513d5f823e3d81fd5b50505f513d91508115614569578060011415614576565b6001600160a01b0384163b155b156144745783604051635274afe760e01b815260040161098891906147d0565b5f61459f613af7565b54600160401b900460ff16919050565b5f5f5f5f60205f8651602088015f8a5af192503d91505f5190508280156145ee575081156145e057806001146145ee565b5f866001600160a01b03163b115b9695505050505050565b604080516101e081019091525f808252602082019081526020015f8152602001614620614744565b81525f602082018190526040820181905260608083018290526080830181905260a0830182905260c0830182905260e08301829052610100830182905261012083015261014082018190526101609091015290565b600183019183908215614706579160200282015f5b838211156146d457833563ffffffff1683826101000a81548163ffffffff021916908363ffffffff160217905550926020019260040160208160030104928301926001030261468a565b80156147045782816101000a81549063ffffffff02191690556004016020816003010492830192600103026146d4565b505b50614712929150614762565b5090565b8260028101928215614706579160200282015b82811115614706578251825591602001919060010190614729565b60405180604001604052806002906020820280368337509192915050565b5b80821115614712575f8155600101614763565b6001600160a01b0381168114610acc575f5ffd5b5f6020828403121561479a575f5ffd5b81356147a581614776565b9392505050565b5f602082840312156147bc575f5ffd5b5035919050565b6001600160a01b03169052565b6001600160a01b0391909116815260200190565b8035600481106147f2575f5ffd5b919050565b5f5f60408385031215614808575f5ffd5b614811836147e4565b946020939093013593505050565b5f60608284031215610ef1575f5ffd5b5f6060828403121561483f575f5ffd5b6147a5838361481f565b634e487b7160e01b5f52602160045260245ffd5b600e811061486d5761486d614849565b9052565b60208101613b1b828461485d565b6004811061486d5761486d614849565b5f81518084528060208401602086015e5f602082860101526020601f19601f83011685010191505092915050565b8e81526148cd602082018f61487f565b8c60408201528b60608201526148e6608082018c6147c3565b60ff8a1660a08201526101c060c08201525f6149066101c083018b61488f565b61491360e084018b6147c3565b61492161010084018a6147c3565b8761012084015286610140840152828103610160840152614942818761488f565b9150506149536101808301856147c3565b8215156101a08301529f9e505050505050505050505050505050565b805f5b6002811015614474578151845260209384019390910190600101614972565b805182525f60208201516149a8602085018261487f565b506040820151604084015260608201516149c5606085018261496f565b50608082015160a084015260a08201516149e260c08501826147c3565b5060c082015160ff811660e08501525060e0820151610200610100850152614a0e61020085018261488f565b9050610100830151614a246101208601826147c3565b50610120830151614a396101408601826147c3565b506101408301516101608501526101608301516101808501526101808301518482036101a0860152614a6b828261488f565b9150506101a0830151614a826101c08601826147c3565b506101c08301518015156101e0860152614083565b602081525f6147a56020830184614991565b80356147f281614776565b5f5f5f5f5f5f5f610120888a031215614acb575f5ffd5b8735614ad681614776565b96506020880135614ae681614776565b95506040880135614af681614776565b94506060880135614b0681614776565b93506080880135614b1681614776565b925060a08801359150614b2c8960c08a0161481f565b905092959891949750929550565b803560ff811681146147f2575f5ffd5b5f60208284031215614b5a575f5ffd5b6147a582614b3a565b602081525f6147a5602083018461488f565b5f5f60408385031215614b86575f5ffd5b823591506020830135614b9881614776565b809150509250929050565b5f5f83601f840112614bb3575f5ffd5b5081356001600160401b03811115614bc9575f5ffd5b6020830191508360208285010111156142d9575f5ffd5b5f5f5f5f5f60608688031215614bf4575f5ffd5b8535945060208601356001600160401b03811115614c10575f5ffd5b614c1c88828901614ba3565b90955093505060408601356001600160401b03811115614c3a575f5ffd5b614c4688828901614ba3565b969995985093965092949392505050565b5f5f60408385031215614c68575f5ffd5b50508035926020909101359150565b5f5f5f60408486031215614c89575f5ffd5b614c9284614b3a565b925060208401356001600160401b03811115614cac575f5ffd5b614cb886828701614ba3565b9497909650939450505050565b81518152602080830151908201526040808301519082015260608101613b1b565b8215158152604081016147a5602083018461485d565b5f60208284031215614d0c575f5ffd5b81356001600160401b03811115614d21575f5ffd5b820161010081850312156147a5575f5ffd5b5f6101e082019050825182526020830151602083015260408301516040830152606083015160608301526080830151608083015260a083015160a083015260c083015160c083015260e0830151614d8d60e08401826147c3565b50610100830151614da561010084018261ffff169052565b50610120830151614dbd61012084018261ffff169052565b50610140830151614dd561014084018261ffff169052565b50610160830151614ded61016084018261ffff169052565b50610180830151614e0561018084018261ffff169052565b506101a0830151614e1f6101a084018263ffffffff169052565b506101c0830151614e396101c084018263ffffffff169052565b5092915050565b5f5f60408385031215614e51575f5ffd5b82359150614e6160208401614b3a565b90509250929050565b6007811061486d5761486d614849565b60208101613b1b8284614e6a565b5f6101e0828403128015614e9a575f5ffd5b509092915050565b5f5f60608385031215614eb3575f5ffd5b614ebc836147e4565b915083606084011115614ecd575f5ffd5b50926020919091019150565b828152604060208201525f614ef16040830184614991565b949350505050565b600181811c90821680614f0d57607f821691505b602082108103610ef157634e487b7160e01b5f52602260045260245ffd5b83815260608101614f3f6020830185614e6a565b614ef16040830184614e6a565b634e487b7160e01b5f52601160045260245ffd5b80820180821115613b1b57613b1b614f4c565b60408101614f818285614e6a565b6147a56020830184614e6a565b634e487b7160e01b5f52604160045260245ffd5b601f82111561415357805f5260205f20601f840160051c81016020851015614fc75750805b601f840160051c820191505b81811015614fe6575f8155600101614fd3565b5050505050565b5f19600383901b1c191660019190911b1790565b6001600160401b0383111561501857615018614f8e565b61502c836150268354614ef9565b83614fa2565b5f601f841160018114615058575f85156150465750838201355b6150508682614fed565b845550614fe6565b5f83815260208120601f198716915b828110156150875786850135825560209485019460019092019101615067565b50868210156150a3575f1960f88860031b161c19848701351681555b505060018560011b0183555050505050565b818382375f9101908152919050565b81835281816020850137505f828201602090810191909152601f909101601f19169091010190565b838152604060208201525f6151056040830184866150c4565b95945050505050565b8015158114610acc575f5ffd5b5f6020828403121561512b575f5ffd5b81516147a58161510e565b602081525f614ef16020830184866150c4565b604081525f61515c6040830186886150c4565b828103602084015261516f8185876150c4565b979650505050505050565b60ff84168152604060208201525f6151056040830184866150c4565b5f8151808452602084019350602083015f5b828110156151cf5781516001600160a01b03168652602095860195909101906001016151a8565b5093949350505050565b848152836020820152608060408201525f6151f76080830185615196565b905060018060a01b038316606083015295945050505050565b634e487b7160e01b5f52603260045260245ffd5b848152836020820152606060408201525f6145ee6060830184866150c4565b6020808252601c908201527f42465620706172616d20736574206e6f74207265676973746572656400000000604082015260600190565b5f6020828403121561528a575f5ffd5b6147a5826147e4565b60208101613b1b828461487f565b8082028115828204841417613b1b57613b1b614f4c565b5f826152d257634e487b7160e01b5f52601260045260245ffd5b500490565b5f602082840312156152e7575f5ffd5b5051919050565b81810381811115613b1b57613b1b614f4c565b61ffff81168114610acc575f5ffd5b80356147f281615301565b5f6020828403121561532b575f5ffd5b81356147a581615301565b63ffffffff81168114610acc575f5ffd5b80356147f281615336565b5f60208284031215615362575f5ffd5b81356147a581615336565b5f8135613b1b81614776565b5f8135613b1b81615301565b5f8135613b1b81615336565b813581556020820135600182015560408201356002820155606082013560038201556080820135600482015560a0820135600582015560c08201356006820155600781016154016153e460e0850161536d565b82546001600160a01b0319166001600160a01b0391909116178255565b6154316154116101008501615379565b82805461ffff60a01b191660a09290921b61ffff60a01b16919091179055565b6154616154416101208501615379565b82805461ffff60b01b191660b09290921b61ffff60b01b16919091179055565b6154916154716101408501615379565b82805461ffff60c01b191660c09290921b61ffff60c01b16919091179055565b6154c16154a16101608501615379565b82805461ffff60d01b191660d09290921b61ffff60d01b16919091179055565b6154f16154d16101808501615379565b82805461ffff60e01b191660e09290921b61ffff60e01b16919091179055565b506008810161551d6155066101a08501615385565b825463ffffffff191663ffffffff91909116178255565b61415361552d6101c08501615385565b825467ffffffff00000000191660209190911b67ffffffff0000000016178255565b813581526020808301359082015260408083013590820152606080830135908201526080808301359082015260a0808301359082015260c080830135908201526101e081016155a060e08401614aa9565b6155ad60e08401826147c3565b506155bb6101008401615310565b61ffff166101008301526155d26101208401615310565b61ffff166101208301526155e96101408401615310565b61ffff166101408301526156006101608401615310565b61ffff166101608301526156176101808401615310565b61ffff1661018083015261562e6101a08401615347565b63ffffffff166101a08301526156476101c08401615347565b63ffffffff81166101c0840152614e39565b6040810181835f5b600281101561569057813561567581615336565b63ffffffff1683526020928301929190910190600101615661565b50505092915050565b5f600182016156aa576156aa614f4c565b5060010190565b5f5f8335601e198436030181126156c6575f5ffd5b8301803591506001600160401b038211156156df575f5ffd5b6020019150368190038213156142d9575f5ffd5b5f60208284031215615703575f5ffd5b81356147a58161510e565b87815286602082015260a060408201525f61572c60a083018861488f565b828103606084015261573f8187896150c4565b905082810360808401526157548185876150c4565b9a9950505050505050505050565b81516001600160401b0381111561577b5761577b614f8e565b61578f816157898454614ef9565b84614fa2565b6020601f8211600181146157bc575f83156157aa5750848201515b6157b48482614fed565b855550614fe6565b5f84815260208120601f198516915b828110156157eb57878501518255602094850194600190920191016157cb565b508482101561580857868401515f19600387901b60f8161c191681555b50505050600190811b01905550565b838152602081018390526080810160408201835f5b600281101561585157815163ffffffff1683526020928301929091019060010161582c565b505050949350505050565b6040810161586a8285614e6a565b6147a5602083018461485d565b604051601f8201601f191681016001600160401b038111828210171561589f5761589f614f8e565b604052919050565b5f6001600160401b038211156158bf576158bf614f8e565b5060051b60200190565b5f82601f8301126158d8575f5ffd5b81516158eb6158e6826158a7565b615877565b8082825260208201915060208360051b86010192508583111561590c575f5ffd5b602085015b83811015615929578051835260209283019201615911565b5095945050505050565b5f5f60408385031215615944575f5ffd5b82516001600160401b03811115615959575f5ffd5b8301601f81018513615969575f5ffd5b80516159776158e6826158a7565b8082825260208201915060208360051b850101925087831115615998575f5ffd5b6020840193505b828410156159c35783516159b281614776565b82526020938401939091019061599f565b8095505050505060208301516001600160401b038111156159e2575f5ffd5b6159ee858286016158c9565b9150509250929050565b838152606060208201525f615a106060830185615196565b905060018060a01b0383166040830152949350505050565b5f8151808452602084019350602083015f5b828110156151cf578151865260209586019590910190600101615a3a565b6001600160a01b03841681526060602082018190525f90615a7b90830185615196565b82810360408401526145ee8185615a28565b604081525f615a9f6040830185615196565b82810360208401526151058185615a28565b6001600160a01b0392909216825260208201526040019056fe1b418a230a21d37a078bf8f16decbde8ccceacd77159371f62f0d4ea00d19967a164736f6c634300081c000a",
  "linkReferences": {},
  "deployedLinkReferences": {},
  "immutableReferences": {},
  "inputSourceName": "project/contracts/Enclave.sol",
  "buildInfoId": "solc-0_8_28-2705a75bc2d2d1f8b1e08ebca4cc37d76480abc8"
}