{
  "_format": "hh3-artifact-1",
  "contractName": "Enclave",
  "sourceName": "contracts/Enclave.sol",
  "abi": [
    {
      "inputs": [],
      "stateMutability": "nonpayable",
      "type": "constructor"
    },
    {
      "inputs": [
        {
          "internalType": "uint256",
          "name": "e3Id",
          "type": "uint256"
        }
      ],
      "name": "CiphertextOutputAlreadyPublished",
      "type": "error"
    },
    {
      "inputs": [
        {
          "internalType": "uint256",
          "name": "e3Id",
          "type": "uint256"
        }
      ],
      "name": "CiphertextOutputNotPublished",
      "type": "error"
    },
    {
      "inputs": [
        {
          "internalType": "uint256",
          "name": "e3Id",
          "type": "uint256"
        },
        {
          "internalType": "uint256",
          "name": "expiration",
          "type": "uint256"
        }
      ],
      "name": "CommitteeDutiesCompleted",
      "type": "error"
    },
    {
      "inputs": [],
      "name": "CommitteeSelectionFailed",
      "type": "error"
    },
    {
      "inputs": [
        {
          "internalType": "enum IEnclave.CommitteeSize",
          "name": "committeeSize",
          "type": "uint8"
        }
      ],
      "name": "CommitteeSizeNotConfigured",
      "type": "error"
    },
    {
      "inputs": [
        {
          "internalType": "uint256",
          "name": "e3Id",
          "type": "uint256"
        }
      ],
      "name": "E3AlreadyComplete",
      "type": "error"
    },
    {
      "inputs": [
        {
          "internalType": "uint256",
          "name": "e3Id",
          "type": "uint256"
        }
      ],
      "name": "E3AlreadyFailed",
      "type": "error"
    },
    {
      "inputs": [
        {
          "internalType": "uint256",
          "name": "e3Id",
          "type": "uint256"
        }
      ],
      "name": "E3DoesNotExist",
      "type": "error"
    },
    {
      "inputs": [
        {
          "internalType": "contract IE3Program",
          "name": "e3Program",
          "type": "address"
        }
      ],
      "name": "E3ProgramNotAllowed",
      "type": "error"
    },
    {
      "inputs": [
        {
          "internalType": "uint256",
          "name": "e3Id",
          "type": "uint256"
        }
      ],
      "name": "FailureConditionNotMet",
      "type": "error"
    },
    {
      "inputs": [
        {
          "internalType": "uint256",
          "name": "e3Id",
          "type": "uint256"
        },
        {
          "internalType": "uint256",
          "name": "inputDeadline",
          "type": "uint256"
        }
      ],
      "name": "InputDeadlineNotReached",
      "type": "error"
    },
    {
      "inputs": [
        {
          "internalType": "contract IBondingRegistry",
          "name": "bondingRegistry",
          "type": "address"
        }
      ],
      "name": "InvalidBondingRegistry",
      "type": "error"
    },
    {
      "inputs": [
        {
          "internalType": "contract ICiphernodeRegistry",
          "name": "ciphernodeRegistry",
          "type": "address"
        }
      ],
      "name": "InvalidCiphernodeRegistry",
      "type": "error"
    },
    {
      "inputs": [
        {
          "internalType": "uint256",
          "name": "duration",
          "type": "uint256"
        }
      ],
      "name": "InvalidDuration",
      "type": "error"
    },
    {
      "inputs": [
        {
          "internalType": "bytes32",
          "name": "encryptionSchemeId",
          "type": "bytes32"
        }
      ],
      "name": "InvalidEncryptionScheme",
      "type": "error"
    },
    {
      "inputs": [
        {
          "internalType": "contract IERC20",
          "name": "feeToken",
          "type": "address"
        }
      ],
      "name": "InvalidFeeToken",
      "type": "error"
    },
    {
      "inputs": [],
      "name": "InvalidInitialization",
      "type": "error"
    },
    {
      "inputs": [
        {
          "internalType": "uint256",
          "name": "deadline",
          "type": "uint256"
        }
      ],
      "name": "InvalidInputDeadline",
      "type": "error"
    },
    {
      "inputs": [
        {
          "internalType": "uint256",
          "name": "end",
          "type": "uint256"
        }
      ],
      "name": "InvalidInputDeadlineEnd",
      "type": "error"
    },
    {
      "inputs": [
        {
          "internalType": "uint256",
          "name": "start",
          "type": "uint256"
        }
      ],
      "name": "InvalidInputDeadlineStart",
      "type": "error"
    },
    {
      "inputs": [
        {
          "internalType": "bytes",
          "name": "output",
          "type": "bytes"
        }
      ],
      "name": "InvalidOutput",
      "type": "error"
    },
    {
      "inputs": [
        {
          "internalType": "uint256",
          "name": "e3Id",
          "type": "uint256"
        },
        {
          "internalType": "enum IEnclave.E3Stage",
          "name": "expected",
          "type": "uint8"
        },
        {
          "internalType": "enum IEnclave.E3Stage",
          "name": "actual",
          "type": "uint8"
        }
      ],
      "name": "InvalidStage",
      "type": "error"
    },
    {
      "inputs": [
        {
          "internalType": "address",
          "name": "module",
          "type": "address"
        }
      ],
      "name": "ModuleAlreadyEnabled",
      "type": "error"
    },
    {
      "inputs": [
        {
          "internalType": "address",
          "name": "module",
          "type": "address"
        }
      ],
      "name": "ModuleNotEnabled",
      "type": "error"
    },
    {
      "inputs": [],
      "name": "NotInitializing",
      "type": "error"
    },
    {
      "inputs": [
        {
          "internalType": "address",
          "name": "owner",
          "type": "address"
        }
      ],
      "name": "OwnableInvalidOwner",
      "type": "error"
    },
    {
      "inputs": [
        {
          "internalType": "address",
          "name": "account",
          "type": "address"
        }
      ],
      "name": "OwnableUnauthorizedAccount",
      "type": "error"
    },
    {
      "inputs": [
        {
          "internalType": "uint256",
          "name": "value",
          "type": "uint256"
        }
      ],
      "name": "PaymentRequired",
      "type": "error"
    },
    {
      "inputs": [
        {
          "internalType": "uint256",
          "name": "e3Id",
          "type": "uint256"
        }
      ],
      "name": "PlaintextOutputAlreadyPublished",
      "type": "error"
    },
    {
      "inputs": [
        {
          "internalType": "address",
          "name": "token",
          "type": "address"
        }
      ],
      "name": "SafeERC20FailedOperation",
      "type": "error"
    },
    {
      "anonymous": false,
      "inputs": [
        {
          "indexed": false,
          "internalType": "bytes[]",
          "name": "e3ProgramParams",
          "type": "bytes[]"
        }
      ],
      "name": "AllowedE3ProgramsParamsSet",
      "type": "event"
    },
    {
      "anonymous": false,
      "inputs": [
        {
          "indexed": false,
          "internalType": "address",
          "name": "bondingRegistry",
          "type": "address"
        }
      ],
      "name": "BondingRegistrySet",
      "type": "event"
    },
    {
      "anonymous": false,
      "inputs": [
        {
          "indexed": false,
          "internalType": "address",
          "name": "ciphernodeRegistry",
          "type": "address"
        }
      ],
      "name": "CiphernodeRegistrySet",
      "type": "event"
    },
    {
      "anonymous": false,
      "inputs": [
        {
          "indexed": true,
          "internalType": "uint256",
          "name": "e3Id",
          "type": "uint256"
        },
        {
          "indexed": false,
          "internalType": "bytes",
          "name": "ciphertextOutput",
          "type": "bytes"
        }
      ],
      "name": "CiphertextOutputPublished",
      "type": "event"
    },
    {
      "anonymous": false,
      "inputs": [
        {
          "indexed": true,
          "internalType": "uint256",
          "name": "e3Id",
          "type": "uint256"
        }
      ],
      "name": "CommitteeFinalized",
      "type": "event"
    },
    {
      "anonymous": false,
      "inputs": [
        {
          "indexed": true,
          "internalType": "uint256",
          "name": "e3Id",
          "type": "uint256"
        }
      ],
      "name": "CommitteeFormed",
      "type": "event"
    },
    {
      "anonymous": false,
      "inputs": [
        {
          "indexed": true,
          "internalType": "enum IEnclave.CommitteeSize",
          "name": "size",
          "type": "uint8"
        },
        {
          "indexed": false,
          "internalType": "uint32[2]",
          "name": "threshold",
          "type": "uint32[2]"
        }
      ],
      "name": "CommitteeThresholdsUpdated",
      "type": "event"
    },
    {
      "anonymous": false,
      "inputs": [
        {
          "indexed": true,
          "internalType": "uint256",
          "name": "e3Id",
          "type": "uint256"
        },
        {
          "indexed": false,
          "internalType": "enum IEnclave.E3Stage",
          "name": "failedAtStage",
          "type": "uint8"
        },
        {
          "indexed": false,
          "internalType": "enum IEnclave.FailureReason",
          "name": "reason",
          "type": "uint8"
        }
      ],
      "name": "E3Failed",
      "type": "event"
    },
    {
      "anonymous": false,
      "inputs": [
        {
          "indexed": true,
          "internalType": "uint256",
          "name": "e3Id",
          "type": "uint256"
        },
        {
          "indexed": false,
          "internalType": "uint256",
          "name": "paymentAmount",
          "type": "uint256"
        },
        {
          "indexed": false,
          "internalType": "uint256",
          "name": "honestNodeCount",
          "type": "uint256"
        }
      ],
      "name": "E3FailureProcessed",
      "type": "event"
    },
    {
      "anonymous": false,
      "inputs": [
        {
          "indexed": false,
          "internalType": "contract IE3Program",
          "name": "e3Program",
          "type": "address"
        }
      ],
      "name": "E3ProgramDisabled",
      "type": "event"
    },
    {
      "anonymous": false,
      "inputs": [
        {
          "indexed": false,
          "internalType": "contract IE3Program",
          "name": "e3Program",
          "type": "address"
        }
      ],
      "name": "E3ProgramEnabled",
      "type": "event"
    },
    {
      "anonymous": false,
      "inputs": [
        {
          "indexed": false,
          "internalType": "bytes[]",
          "name": "e3ProgramParams",
          "type": "bytes[]"
        }
      ],
      "name": "E3ProgramsParamsRemoved",
      "type": "event"
    },
    {
      "anonymous": false,
      "inputs": [
        {
          "indexed": true,
          "internalType": "address",
          "name": "e3RefundManager",
          "type": "address"
        }
      ],
      "name": "E3RefundManagerSet",
      "type": "event"
    },
    {
      "anonymous": false,
      "inputs": [
        {
          "indexed": false,
          "internalType": "uint256",
          "name": "e3Id",
          "type": "uint256"
        },
        {
          "components": [
            {
              "internalType": "uint256",
              "name": "seed",
              "type": "uint256"
            },
            {
              "internalType": "enum IEnclave.CommitteeSize",
              "name": "committeeSize",
              "type": "uint8"
            },
            {
              "internalType": "uint256",
              "name": "requestBlock",
              "type": "uint256"
            },
            {
              "internalType": "uint256[2]",
              "name": "inputWindow",
              "type": "uint256[2]"
            },
            {
              "internalType": "bytes32",
              "name": "encryptionSchemeId",
              "type": "bytes32"
            },
            {
              "internalType": "contract IE3Program",
              "name": "e3Program",
              "type": "address"
            },
            {
              "internalType": "bytes",
              "name": "e3ProgramParams",
              "type": "bytes"
            },
            {
              "internalType": "bytes",
              "name": "customParams",
              "type": "bytes"
            },
            {
              "internalType": "contract IDecryptionVerifier",
              "name": "decryptionVerifier",
              "type": "address"
            },
            {
              "internalType": "contract IPkVerifier",
              "name": "pkVerifier",
              "type": "address"
            },
            {
              "internalType": "bytes32",
              "name": "committeePublicKey",
              "type": "bytes32"
            },
            {
              "internalType": "bytes32",
              "name": "ciphertextOutput",
              "type": "bytes32"
            },
            {
              "internalType": "bytes",
              "name": "plaintextOutput",
              "type": "bytes"
            },
            {
              "internalType": "address",
              "name": "requester",
              "type": "address"
            },
            {
              "internalType": "bool",
              "name": "proofAggregationEnabled",
              "type": "bool"
            }
          ],
          "indexed": false,
          "internalType": "struct E3",
          "name": "e3",
          "type": "tuple"
        },
        {
          "indexed": true,
          "internalType": "contract IE3Program",
          "name": "e3Program",
          "type": "address"
        }
      ],
      "name": "E3Requested",
      "type": "event"
    },
    {
      "anonymous": false,
      "inputs": [
        {
          "indexed": true,
          "internalType": "uint256",
          "name": "e3Id",
          "type": "uint256"
        },
        {
          "indexed": false,
          "internalType": "enum IEnclave.E3Stage",
          "name": "previousStage",
          "type": "uint8"
        },
        {
          "indexed": false,
          "internalType": "enum IEnclave.E3Stage",
          "name": "newStage",
          "type": "uint8"
        }
      ],
      "name": "E3StageChanged",
      "type": "event"
    },
    {
      "anonymous": false,
      "inputs": [
        {
          "indexed": false,
          "internalType": "bytes32",
          "name": "encryptionSchemeId",
          "type": "bytes32"
        }
      ],
      "name": "EncryptionSchemeDisabled",
      "type": "event"
    },
    {
      "anonymous": false,
      "inputs": [
        {
          "indexed": false,
          "internalType": "bytes32",
          "name": "encryptionSchemeId",
          "type": "bytes32"
        }
      ],
      "name": "EncryptionSchemeEnabled",
      "type": "event"
    },
    {
      "anonymous": false,
      "inputs": [
        {
          "indexed": false,
          "internalType": "address",
          "name": "feeToken",
          "type": "address"
        }
      ],
      "name": "FeeTokenSet",
      "type": "event"
    },
    {
      "anonymous": false,
      "inputs": [
        {
          "indexed": false,
          "internalType": "uint64",
          "name": "version",
          "type": "uint64"
        }
      ],
      "name": "Initialized",
      "type": "event"
    },
    {
      "anonymous": false,
      "inputs": [
        {
          "indexed": true,
          "internalType": "uint256",
          "name": "e3Id",
          "type": "uint256"
        },
        {
          "indexed": false,
          "internalType": "bytes",
          "name": "data",
          "type": "bytes"
        },
        {
          "indexed": false,
          "internalType": "uint256",
          "name": "inputHash",
          "type": "uint256"
        },
        {
          "indexed": false,
          "internalType": "uint256",
          "name": "index",
          "type": "uint256"
        }
      ],
      "name": "InputPublished",
      "type": "event"
    },
    {
      "anonymous": false,
      "inputs": [
        {
          "indexed": false,
          "internalType": "uint256",
          "name": "maxDuration",
          "type": "uint256"
        }
      ],
      "name": "MaxDurationSet",
      "type": "event"
    },
    {
      "anonymous": false,
      "inputs": [
        {
          "indexed": true,
          "internalType": "address",
          "name": "previousOwner",
          "type": "address"
        },
        {
          "indexed": true,
          "internalType": "address",
          "name": "newOwner",
          "type": "address"
        }
      ],
      "name": "OwnershipTransferred",
      "type": "event"
    },
    {
      "anonymous": false,
      "inputs": [
        {
          "indexed": true,
          "internalType": "uint256",
          "name": "e3Id",
          "type": "uint256"
        },
        {
          "indexed": false,
          "internalType": "bytes",
          "name": "plaintextOutput",
          "type": "bytes"
        }
      ],
      "name": "PlaintextOutputPublished",
      "type": "event"
    },
    {
      "anonymous": false,
      "inputs": [
        {
          "indexed": true,
          "internalType": "uint256",
          "name": "e3Id",
          "type": "uint256"
        },
        {
          "indexed": false,
          "internalType": "address[]",
          "name": "nodes",
          "type": "address[]"
        },
        {
          "indexed": false,
          "internalType": "uint256[]",
          "name": "amounts",
          "type": "uint256[]"
        }
      ],
      "name": "RewardsDistributed",
      "type": "event"
    },
    {
      "anonymous": false,
      "inputs": [
        {
          "indexed": true,
          "internalType": "uint256",
          "name": "e3Id",
          "type": "uint256"
        },
        {
          "indexed": false,
          "internalType": "uint256",
          "name": "amount",
          "type": "uint256"
        }
      ],
      "name": "SlashedFundsEscrowed",
      "type": "event"
    },
    {
      "anonymous": false,
      "inputs": [
        {
          "indexed": true,
          "internalType": "address",
          "name": "slashingManager",
          "type": "address"
        }
      ],
      "name": "SlashingManagerSet",
      "type": "event"
    },
    {
      "anonymous": false,
      "inputs": [
        {
          "components": [
            {
              "internalType": "uint256",
              "name": "dkgWindow",
              "type": "uint256"
            },
            {
              "internalType": "uint256",
              "name": "computeWindow",
              "type": "uint256"
            },
            {
              "internalType": "uint256",
              "name": "decryptionWindow",
              "type": "uint256"
            }
          ],
          "indexed": false,
          "internalType": "struct IEnclave.E3TimeoutConfig",
          "name": "config",
          "type": "tuple"
        }
      ],
      "name": "TimeoutConfigUpdated",
      "type": "event"
    },
    {
      "inputs": [],
      "name": "bondingRegistry",
      "outputs": [
        {
          "internalType": "contract IBondingRegistry",
          "name": "",
          "type": "address"
        }
      ],
      "stateMutability": "view",
      "type": "function"
    },
    {
      "inputs": [
        {
          "internalType": "uint256",
          "name": "e3Id",
          "type": "uint256"
        }
      ],
      "name": "checkFailureCondition",
      "outputs": [
        {
          "internalType": "bool",
          "name": "canFail",
          "type": "bool"
        },
        {
          "internalType": "enum IEnclave.FailureReason",
          "name": "reason",
          "type": "uint8"
        }
      ],
      "stateMutability": "view",
      "type": "function"
    },
    {
      "inputs": [],
      "name": "ciphernodeRegistry",
      "outputs": [
        {
          "internalType": "contract ICiphernodeRegistry",
          "name": "",
          "type": "address"
        }
      ],
      "stateMutability": "view",
      "type": "function"
    },
    {
      "inputs": [
        {
          "internalType": "enum IEnclave.CommitteeSize",
          "name": "",
          "type": "uint8"
        },
        {
          "internalType": "uint256",
          "name": "",
          "type": "uint256"
        }
      ],
      "name": "committeeThresholds",
      "outputs": [
        {
          "internalType": "uint32",
          "name": "threshold",
          "type": "uint32"
        }
      ],
      "stateMutability": "view",
      "type": "function"
    },
    {
      "inputs": [
        {
          "internalType": "bytes32",
          "name": "encryptionSchemeId",
          "type": "bytes32"
        }
      ],
      "name": "decryptionVerifiers",
      "outputs": [
        {
          "internalType": "contract IDecryptionVerifier",
          "name": "decryptionVerifier",
          "type": "address"
        }
      ],
      "stateMutability": "view",
      "type": "function"
    },
    {
      "inputs": [
        {
          "internalType": "contract IE3Program",
          "name": "e3Program",
          "type": "address"
        }
      ],
      "name": "disableE3Program",
      "outputs": [],
      "stateMutability": "nonpayable",
      "type": "function"
    },
    {
      "inputs": [
        {
          "internalType": "bytes32",
          "name": "encryptionSchemeId",
          "type": "bytes32"
        }
      ],
      "name": "disableEncryptionScheme",
      "outputs": [],
      "stateMutability": "nonpayable",
      "type": "function"
    },
    {
      "inputs": [
        {
          "internalType": "uint256",
          "name": "e3Id",
          "type": "uint256"
        }
      ],
      "name": "e3Payments",
      "outputs": [
        {
          "internalType": "uint256",
          "name": "e3Payment",
          "type": "uint256"
        }
      ],
      "stateMutability": "view",
      "type": "function"
    },
    {
      "inputs": [
        {
          "internalType": "contract IE3Program",
          "name": "e3Program",
          "type": "address"
        }
      ],
      "name": "e3Programs",
      "outputs": [
        {
          "internalType": "bool",
          "name": "allowed",
          "type": "bool"
        }
      ],
      "stateMutability": "view",
      "type": "function"
    },
    {
      "inputs": [
        {
          "internalType": "bytes",
          "name": "e3ProgramParams",
          "type": "bytes"
        }
      ],
      "name": "e3ProgramsParams",
      "outputs": [
        {
          "internalType": "bool",
          "name": "allowed",
          "type": "bool"
        }
      ],
      "stateMutability": "view",
      "type": "function"
    },
    {
      "inputs": [],
      "name": "e3RefundManager",
      "outputs": [
        {
          "internalType": "contract IE3RefundManager",
          "name": "",
          "type": "address"
        }
      ],
      "stateMutability": "view",
      "type": "function"
    },
    {
      "inputs": [
        {
          "internalType": "uint256",
          "name": "e3Id",
          "type": "uint256"
        }
      ],
      "name": "e3s",
      "outputs": [
        {
          "internalType": "uint256",
          "name": "seed",
          "type": "uint256"
        },
        {
          "internalType": "enum IEnclave.CommitteeSize",
          "name": "committeeSize",
          "type": "uint8"
        },
        {
          "internalType": "uint256",
          "name": "requestBlock",
          "type": "uint256"
        },
        {
          "internalType": "bytes32",
          "name": "encryptionSchemeId",
          "type": "bytes32"
        },
        {
          "internalType": "contract IE3Program",
          "name": "e3Program",
          "type": "address"
        },
        {
          "internalType": "bytes",
          "name": "e3ProgramParams",
          "type": "bytes"
        },
        {
          "internalType": "bytes",
          "name": "customParams",
          "type": "bytes"
        },
        {
          "internalType": "contract IDecryptionVerifier",
          "name": "decryptionVerifier",
          "type": "address"
        },
        {
          "internalType": "contract IPkVerifier",
          "name": "pkVerifier",
          "type": "address"
        },
        {
          "internalType": "bytes32",
          "name": "committeePublicKey",
          "type": "bytes32"
        },
        {
          "internalType": "bytes32",
          "name": "ciphertextOutput",
          "type": "bytes32"
        },
        {
          "internalType": "bytes",
          "name": "plaintextOutput",
          "type": "bytes"
        },
        {
          "internalType": "address",
          "name": "requester",
          "type": "address"
        },
        {
          "internalType": "bool",
          "name": "proofAggregationEnabled",
          "type": "bool"
        }
      ],
      "stateMutability": "view",
      "type": "function"
    },
    {
      "inputs": [
        {
          "internalType": "contract IE3Program",
          "name": "e3Program",
          "type": "address"
        }
      ],
      "name": "enableE3Program",
      "outputs": [],
      "stateMutability": "nonpayable",
      "type": "function"
    },
    {
      "inputs": [
        {
          "internalType": "uint256",
          "name": "e3Id",
          "type": "uint256"
        },
        {
          "internalType": "uint256",
          "name": "amount",
          "type": "uint256"
        }
      ],
      "name": "escrowSlashedFunds",
      "outputs": [],
      "stateMutability": "nonpayable",
      "type": "function"
    },
    {
      "inputs": [],
      "name": "feeToken",
      "outputs": [
        {
          "internalType": "contract IERC20",
          "name": "",
          "type": "address"
        }
      ],
      "stateMutability": "view",
      "type": "function"
    },
    {
      "inputs": [
        {
          "internalType": "uint256",
          "name": "e3Id",
          "type": "uint256"
        }
      ],
      "name": "getDeadlines",
      "outputs": [
        {
          "components": [
            {
              "internalType": "uint256",
              "name": "dkgDeadline",
              "type": "uint256"
            },
            {
              "internalType": "uint256",
              "name": "computeDeadline",
              "type": "uint256"
            },
            {
              "internalType": "uint256",
              "name": "decryptionDeadline",
              "type": "uint256"
            }
          ],
          "internalType": "struct IEnclave.E3Deadlines",
          "name": "deadlines",
          "type": "tuple"
        }
      ],
      "stateMutability": "view",
      "type": "function"
    },
    {
      "inputs": [
        {
          "internalType": "bytes32",
          "name": "encryptionSchemeId",
          "type": "bytes32"
        }
      ],
      "name": "getDecryptionVerifier",
      "outputs": [
        {
          "internalType": "contract IDecryptionVerifier",
          "name": "",
          "type": "address"
        }
      ],
      "stateMutability": "view",
      "type": "function"
    },
    {
      "inputs": [
        {
          "internalType": "uint256",
          "name": "e3Id",
          "type": "uint256"
        }
      ],
      "name": "getE3",
      "outputs": [
        {
          "components": [
            {
              "internalType": "uint256",
              "name": "seed",
              "type": "uint256"
            },
            {
              "internalType": "enum IEnclave.CommitteeSize",
              "name": "committeeSize",
              "type": "uint8"
            },
            {
              "internalType": "uint256",
              "name": "requestBlock",
              "type": "uint256"
            },
            {
              "internalType": "uint256[2]",
              "name": "inputWindow",
              "type": "uint256[2]"
            },
            {
              "internalType": "bytes32",
              "name": "encryptionSchemeId",
              "type": "bytes32"
            },
            {
              "internalType": "contract IE3Program",
              "name": "e3Program",
              "type": "address"
            },
            {
              "internalType": "bytes",
              "name": "e3ProgramParams",
              "type": "bytes"
            },
            {
              "internalType": "bytes",
              "name": "customParams",
              "type": "bytes"
            },
            {
              "internalType": "contract IDecryptionVerifier",
              "name": "decryptionVerifier",
              "type": "address"
            },
            {
              "internalType": "contract IPkVerifier",
              "name": "pkVerifier",
              "type": "address"
            },
            {
              "internalType": "bytes32",
              "name": "committeePublicKey",
              "type": "bytes32"
            },
            {
              "internalType": "bytes32",
              "name": "ciphertextOutput",
              "type": "bytes32"
            },
            {
              "internalType": "bytes",
              "name": "plaintextOutput",
              "type": "bytes"
            },
            {
              "internalType": "address",
              "name": "requester",
              "type": "address"
            },
            {
              "internalType": "bool",
              "name": "proofAggregationEnabled",
              "type": "bool"
            }
          ],
          "internalType": "struct E3",
          "name": "e3",
          "type": "tuple"
        }
      ],
      "stateMutability": "view",
      "type": "function"
    },
    {
      "inputs": [
        {
          "components": [
            {
              "internalType": "enum IEnclave.CommitteeSize",
              "name": "committeeSize",
              "type": "uint8"
            },
            {
              "internalType": "uint256[2]",
              "name": "inputWindow",
              "type": "uint256[2]"
            },
            {
              "internalType": "contract IE3Program",
              "name": "e3Program",
              "type": "address"
            },
            {
              "internalType": "bytes",
              "name": "e3ProgramParams",
              "type": "bytes"
            },
            {
              "internalType": "bytes",
              "name": "computeProviderParams",
              "type": "bytes"
            },
            {
              "internalType": "bytes",
              "name": "customParams",
              "type": "bytes"
            },
            {
              "internalType": "bool",
              "name": "proofAggregationEnabled",
              "type": "bool"
            }
          ],
          "internalType": "struct IEnclave.E3RequestParams",
          "name": "",
          "type": "tuple"
        }
      ],
      "name": "getE3Quote",
      "outputs": [
        {
          "internalType": "uint256",
          "name": "fee",
          "type": "uint256"
        }
      ],
      "stateMutability": "pure",
      "type": "function"
    },
    {
      "inputs": [
        {
          "internalType": "uint256",
          "name": "e3Id",
          "type": "uint256"
        }
      ],
      "name": "getE3Stage",
      "outputs": [
        {
          "internalType": "enum IEnclave.E3Stage",
          "name": "stage",
          "type": "uint8"
        }
      ],
      "stateMutability": "view",
      "type": "function"
    },
    {
      "inputs": [
        {
          "internalType": "uint256",
          "name": "e3Id",
          "type": "uint256"
        }
      ],
      "name": "getFailureReason",
      "outputs": [
        {
          "internalType": "enum IEnclave.FailureReason",
          "name": "reason",
          "type": "uint8"
        }
      ],
      "stateMutability": "view",
      "type": "function"
    },
    {
      "inputs": [
        {
          "internalType": "bytes32",
          "name": "encryptionSchemeId",
          "type": "bytes32"
        }
      ],
      "name": "getPkVerifier",
      "outputs": [
        {
          "internalType": "contract IPkVerifier",
          "name": "",
          "type": "address"
        }
      ],
      "stateMutability": "view",
      "type": "function"
    },
    {
      "inputs": [
        {
          "internalType": "uint256",
          "name": "e3Id",
          "type": "uint256"
        }
      ],
      "name": "getRequester",
      "outputs": [
        {
          "internalType": "address",
          "name": "requester",
          "type": "address"
        }
      ],
      "stateMutability": "view",
      "type": "function"
    },
    {
      "inputs": [],
      "name": "getTimeoutConfig",
      "outputs": [
        {
          "components": [
            {
              "internalType": "uint256",
              "name": "dkgWindow",
              "type": "uint256"
            },
            {
              "internalType": "uint256",
              "name": "computeWindow",
              "type": "uint256"
            },
            {
              "internalType": "uint256",
              "name": "decryptionWindow",
              "type": "uint256"
            }
          ],
          "internalType": "struct IEnclave.E3TimeoutConfig",
          "name": "config",
          "type": "tuple"
        }
      ],
      "stateMutability": "view",
      "type": "function"
    },
    {
      "inputs": [
        {
          "internalType": "address",
          "name": "_owner",
          "type": "address"
        },
        {
          "internalType": "contract ICiphernodeRegistry",
          "name": "_ciphernodeRegistry",
          "type": "address"
        },
        {
          "internalType": "contract IBondingRegistry",
          "name": "_bondingRegistry",
          "type": "address"
        },
        {
          "internalType": "contract IE3RefundManager",
          "name": "_e3RefundManager",
          "type": "address"
        },
        {
          "internalType": "contract IERC20",
          "name": "_feeToken",
          "type": "address"
        },
        {
          "internalType": "uint256",
          "name": "_maxDuration",
          "type": "uint256"
        },
        {
          "components": [
            {
              "internalType": "uint256",
              "name": "dkgWindow",
              "type": "uint256"
            },
            {
              "internalType": "uint256",
              "name": "computeWindow",
              "type": "uint256"
            },
            {
              "internalType": "uint256",
              "name": "decryptionWindow",
              "type": "uint256"
            }
          ],
          "internalType": "struct IEnclave.E3TimeoutConfig",
          "name": "config",
          "type": "tuple"
        },
        {
          "internalType": "bytes[]",
          "name": "_e3ProgramsParams",
          "type": "bytes[]"
        }
      ],
      "name": "initialize",
      "outputs": [],
      "stateMutability": "nonpayable",
      "type": "function"
    },
    {
      "inputs": [
        {
          "internalType": "uint256",
          "name": "e3Id",
          "type": "uint256"
        }
      ],
      "name": "markE3Failed",
      "outputs": [
        {
          "internalType": "enum IEnclave.FailureReason",
          "name": "reason",
          "type": "uint8"
        }
      ],
      "stateMutability": "nonpayable",
      "type": "function"
    },
    {
      "inputs": [],
      "name": "maxDuration",
      "outputs": [
        {
          "internalType": "uint256",
          "name": "",
          "type": "uint256"
        }
      ],
      "stateMutability": "view",
      "type": "function"
    },
    {
      "inputs": [],
      "name": "nexte3Id",
      "outputs": [
        {
          "internalType": "uint256",
          "name": "",
          "type": "uint256"
        }
      ],
      "stateMutability": "view",
      "type": "function"
    },
    {
      "inputs": [
        {
          "internalType": "uint256",
          "name": "e3Id",
          "type": "uint256"
        }
      ],
      "name": "onCommitteeFinalized",
      "outputs": [],
      "stateMutability": "nonpayable",
      "type": "function"
    },
    {
      "inputs": [
        {
          "internalType": "uint256",
          "name": "e3Id",
          "type": "uint256"
        },
        {
          "internalType": "bytes32",
          "name": "committeePublicKey",
          "type": "bytes32"
        }
      ],
      "name": "onCommitteePublished",
      "outputs": [],
      "stateMutability": "nonpayable",
      "type": "function"
    },
    {
      "inputs": [
        {
          "internalType": "uint256",
          "name": "e3Id",
          "type": "uint256"
        },
        {
          "internalType": "uint8",
          "name": "reason",
          "type": "uint8"
        }
      ],
      "name": "onE3Failed",
      "outputs": [],
      "stateMutability": "nonpayable",
      "type": "function"
    },
    {
      "inputs": [],
      "name": "owner",
      "outputs": [
        {
          "internalType": "address",
          "name": "",
          "type": "address"
        }
      ],
      "stateMutability": "view",
      "type": "function"
    },
    {
      "inputs": [
        {
          "internalType": "bytes32",
          "name": "encryptionSchemeId",
          "type": "bytes32"
        }
      ],
      "name": "pkVerifiers",
      "outputs": [
        {
          "internalType": "contract IPkVerifier",
          "name": "pkVerifier",
          "type": "address"
        }
      ],
      "stateMutability": "view",
      "type": "function"
    },
    {
      "inputs": [
        {
          "internalType": "uint256",
          "name": "e3Id",
          "type": "uint256"
        }
      ],
      "name": "processE3Failure",
      "outputs": [],
      "stateMutability": "nonpayable",
      "type": "function"
    },
    {
      "inputs": [
        {
          "internalType": "uint256",
          "name": "e3Id",
          "type": "uint256"
        },
        {
          "internalType": "bytes",
          "name": "ciphertextOutput",
          "type": "bytes"
        },
        {
          "internalType": "bytes",
          "name": "proof",
          "type": "bytes"
        }
      ],
      "name": "publishCiphertextOutput",
      "outputs": [
        {
          "internalType": "bool",
          "name": "success",
          "type": "bool"
        }
      ],
      "stateMutability": "nonpayable",
      "type": "function"
    },
    {
      "inputs": [
        {
          "internalType": "uint256",
          "name": "e3Id",
          "type": "uint256"
        },
        {
          "internalType": "bytes",
          "name": "plaintextOutput",
          "type": "bytes"
        },
        {
          "internalType": "bytes",
          "name": "proof",
          "type": "bytes"
        }
      ],
      "name": "publishPlaintextOutput",
      "outputs": [
        {
          "internalType": "bool",
          "name": "success",
          "type": "bool"
        }
      ],
      "stateMutability": "nonpayable",
      "type": "function"
    },
    {
      "inputs": [
        {
          "internalType": "bytes[]",
          "name": "_e3ProgramsParams",
          "type": "bytes[]"
        }
      ],
      "name": "removeE3ProgramsParams",
      "outputs": [],
      "stateMutability": "nonpayable",
      "type": "function"
    },
    {
      "inputs": [],
      "name": "renounceOwnership",
      "outputs": [],
      "stateMutability": "nonpayable",
      "type": "function"
    },
    {
      "inputs": [
        {
          "components": [
            {
              "internalType": "enum IEnclave.CommitteeSize",
              "name": "committeeSize",
              "type": "uint8"
            },
            {
              "internalType": "uint256[2]",
              "name": "inputWindow",
              "type": "uint256[2]"
            },
            {
              "internalType": "contract IE3Program",
              "name": "e3Program",
              "type": "address"
            },
            {
              "internalType": "bytes",
              "name": "e3ProgramParams",
              "type": "bytes"
            },
            {
              "internalType": "bytes",
              "name": "computeProviderParams",
              "type": "bytes"
            },
            {
              "internalType": "bytes",
              "name": "customParams",
              "type": "bytes"
            },
            {
              "internalType": "bool",
              "name": "proofAggregationEnabled",
              "type": "bool"
            }
          ],
          "internalType": "struct IEnclave.E3RequestParams",
          "name": "requestParams",
          "type": "tuple"
        }
      ],
      "name": "request",
      "outputs": [
        {
          "internalType": "uint256",
          "name": "e3Id",
          "type": "uint256"
        },
        {
          "components": [
            {
              "internalType": "uint256",
              "name": "seed",
              "type": "uint256"
            },
            {
              "internalType": "enum IEnclave.CommitteeSize",
              "name": "committeeSize",
              "type": "uint8"
            },
            {
              "internalType": "uint256",
              "name": "requestBlock",
              "type": "uint256"
            },
            {
              "internalType": "uint256[2]",
              "name": "inputWindow",
              "type": "uint256[2]"
            },
            {
              "internalType": "bytes32",
              "name": "encryptionSchemeId",
              "type": "bytes32"
            },
            {
              "internalType": "contract IE3Program",
              "name": "e3Program",
              "type": "address"
            },
            {
              "internalType": "bytes",
              "name": "e3ProgramParams",
              "type": "bytes"
            },
            {
              "internalType": "bytes",
              "name": "customParams",
              "type": "bytes"
            },
            {
              "internalType": "contract IDecryptionVerifier",
              "name": "decryptionVerifier",
              "type": "address"
            },
            {
              "internalType": "contract IPkVerifier",
              "name": "pkVerifier",
              "type": "address"
            },
            {
              "internalType": "bytes32",
              "name": "committeePublicKey",
              "type": "bytes32"
            },
            {
              "internalType": "bytes32",
              "name": "ciphertextOutput",
              "type": "bytes32"
            },
            {
              "internalType": "bytes",
              "name": "plaintextOutput",
              "type": "bytes"
            },
            {
              "internalType": "address",
              "name": "requester",
              "type": "address"
            },
            {
              "internalType": "bool",
              "name": "proofAggregationEnabled",
              "type": "bool"
            }
          ],
          "internalType": "struct E3",
          "name": "e3",
          "type": "tuple"
        }
      ],
      "stateMutability": "nonpayable",
      "type": "function"
    },
    {
      "inputs": [
        {
          "internalType": "contract IBondingRegistry",
          "name": "_bondingRegistry",
          "type": "address"
        }
      ],
      "name": "setBondingRegistry",
      "outputs": [],
      "stateMutability": "nonpayable",
      "type": "function"
    },
    {
      "inputs": [
        {
          "internalType": "contract ICiphernodeRegistry",
          "name": "_ciphernodeRegistry",
          "type": "address"
        }
      ],
      "name": "setCiphernodeRegistry",
      "outputs": [],
      "stateMutability": "nonpayable",
      "type": "function"
    },
    {
      "inputs": [
        {
          "internalType": "enum IEnclave.CommitteeSize",
          "name": "size",
          "type": "uint8"
        },
        {
          "internalType": "uint32[2]",
          "name": "threshold",
          "type": "uint32[2]"
        }
      ],
      "name": "setCommitteeThresholds",
      "outputs": [],
      "stateMutability": "nonpayable",
      "type": "function"
    },
    {
      "inputs": [
        {
          "internalType": "bytes32",
          "name": "encryptionSchemeId",
          "type": "bytes32"
        },
        {
          "internalType": "contract IDecryptionVerifier",
          "name": "decryptionVerifier",
          "type": "address"
        }
      ],
      "name": "setDecryptionVerifier",
      "outputs": [],
      "stateMutability": "nonpayable",
      "type": "function"
    },
    {
      "inputs": [
        {
          "internalType": "bytes[]",
          "name": "_e3ProgramsParams",
          "type": "bytes[]"
        }
      ],
      "name": "setE3ProgramsParams",
      "outputs": [],
      "stateMutability": "nonpayable",
      "type": "function"
    },
    {
      "inputs": [
        {
          "internalType": "contract IE3RefundManager",
          "name": "_e3RefundManager",
          "type": "address"
        }
      ],
      "name": "setE3RefundManager",
      "outputs": [],
      "stateMutability": "nonpayable",
      "type": "function"
    },
    {
      "inputs": [
        {
          "internalType": "contract IERC20",
          "name": "_feeToken",
          "type": "address"
        }
      ],
      "name": "setFeeToken",
      "outputs": [],
      "stateMutability": "nonpayable",
      "type": "function"
    },
    {
      "inputs": [
        {
          "internalType": "uint256",
          "name": "_maxDuration",
          "type": "uint256"
        }
      ],
      "name": "setMaxDuration",
      "outputs": [],
      "stateMutability": "nonpayable",
      "type": "function"
    },
    {
      "inputs": [
        {
          "internalType": "bytes32",
          "name": "encryptionSchemeId",
          "type": "bytes32"
        },
        {
          "internalType": "contract IPkVerifier",
          "name": "pkVerifier",
          "type": "address"
        }
      ],
      "name": "setPkVerifier",
      "outputs": [],
      "stateMutability": "nonpayable",
      "type": "function"
    },
    {
      "inputs": [
        {
          "internalType": "contract ISlashingManager",
          "name": "_slashingManager",
          "type": "address"
        }
      ],
      "name": "setSlashingManager",
      "outputs": [],
      "stateMutability": "nonpayable",
      "type": "function"
    },
    {
      "inputs": [
        {
          "components": [
            {
              "internalType": "uint256",
              "name": "dkgWindow",
              "type": "uint256"
            },
            {
              "internalType": "uint256",
              "name": "computeWindow",
              "type": "uint256"
            },
            {
              "internalType": "uint256",
              "name": "decryptionWindow",
              "type": "uint256"
            }
          ],
          "internalType": "struct IEnclave.E3TimeoutConfig",
          "name": "config",
          "type": "tuple"
        }
      ],
      "name": "setTimeoutConfig",
      "outputs": [],
      "stateMutability": "nonpayable",
      "type": "function"
    },
    {
      "inputs": [],
      "name": "slashingManager",
      "outputs": [
        {
          "internalType": "contract ISlashingManager",
          "name": "",
          "type": "address"
        }
      ],
      "stateMutability": "view",
      "type": "function"
    },
    {
      "inputs": [
        {
          "internalType": "address",
          "name": "newOwner",
          "type": "address"
        }
      ],
      "name": "transferOwnership",
      "outputs": [],
      "stateMutability": "nonpayable",
      "type": "function"
    }
  ],
  "bytecode": "0x6080604052348015600e575f5ffd5b5060156019565b60c9565b7ff0c57e16840df040f15088dc2f81fe391c3923bec73e23a9662efc9c229c6a00805468010000000000000000900460ff161560685760405163f92ee8a960e01b815260040160405180910390fd5b80546001600160401b039081161460c65780546001600160401b0319166001600160401b0390811782556040519081527fc7f505b2f371ae2175ee4913f4499e1f2633a7b5936321eed1cdaeb6115181d29060200160405180910390a15b50565b614949806100d65f395ff3fe608060405234801561000f575f5ffd5b50600436106102c3575f3560e01c80638e5ce3ad11610177578063cb649617116100d5578063ea71aa571161008f578063ea71aa5714610745578063f0691cba14610758578063f2fde38b1461076b578063f81b8ef61461077e578063fad8e11114610791578063fbdb3237146107a4578063fd2f3d01146107cc575f5ffd5b8063cb649617146106c1578063cbd16872146106ca578063cf0f34c4146106dd578063cfbdc98d146106f0578063da16fb2f1461071f578063e59e469514610732575f5ffd5b80639c8570c8116101315780639c8570c814610618578063ac3d2f421461062b578063b68fd1be14610653578063bb2d1b8214610666578063bff232c114610679578063c1ab0f1f1461068c578063c4ccafa21461069f575f5ffd5b80638e5ce3ad1461058157806390173a41146105945780639117173c146105a957806392312386146105bc578063929a8faf146105cf57806399c6679d146105f0575f5ffd5b80634fc77264116102245780637c8c3b4d116101de5780637c8c3b4d146105085780637cfa9d741461051b5780637edcd7ab1461052e57806381476ec21461054157806385814243146105545780638da5cb5b146105675780638dcdd86b1461056f575f5ffd5b80634fc772641461049d57806364226409146104b0578063647846a5146104d15780636db5c8fd146104e4578063715018a6146104ed57806377868ae4146104f5575f5ffd5b80631ba72945116102805780631ba729451461039057806336c5d38a146103a35780634017daf0146103d2578063406ed35c146103ff5780634147a3601461041f578063459d92941461044c5780634e92ec631461048a575f5ffd5b806301d12f1c146102c757806302a3a9c9146102dc5780630ef81b2f146102ef57806310bc62811461032d57806311bd61d91461035557806315cce2241461037d575b5f5ffd5b6102da6102d5366004613b31565b6107df565b005b6102da6102ea366004613be1565b610945565b6103176102fd366004613bfc565b5f908152600960205260409020546001600160a01b031690565b6040516103249190613c20565b60405180910390f35b61031761033b366004613bfc565b60096020525f90815260409020546001600160a01b031681565b610368610363366004613c47565b6109f1565b60405163ffffffff9091168152602001610324565b6102da61038b366004613be1565b610a2d565b6102da61039e366004613c6f565b610ad2565b6103c56103b1366004613bfc565b5f908152600f602052604090205460ff1690565b6040516103249190613cb1565b6103e56103e0366004613bfc565b610ae6565b6040516103249e9d9c9b9a99989796959493929190613cfd565b61041261040d366004613bfc565b610d10565b6040516103249190613eed565b61043e61042d366004613bfc565b600c6020525f908152604090205481565b604051908152602001610324565b61047a61045a366004613eff565b8051602081830181018051600b8252928201919093012091525460ff1681565b6040519015158152602001610324565b6102da610498366004613bfc565b61100d565b6102da6104ab366004613be1565b61109c565b6104c36104be366004613f38565b61112f565b604051610324929190613f6f565b600454610317906001600160a01b031681565b61043e60055481565b6102da61193b565b6102da610503366004613f87565b61194e565b6102da610516366004613fb8565b6119e6565b6102da610529366004613bfc565b611a6f565b61047a61053c366004614023565b611b6d565b6102da61054f36600461409a565b611d93565b600154610317906001600160a01b031681565b610317611e86565b5f54610317906001600160a01b031681565b600354610317906001600160a01b031681565b61059c611eb4565b60405161032491906140ba565b6102da6105b7366004613bfc565b611efa565b61059c6105ca366004613bfc565b6120a2565b6105e26105dd366004613bfc565b6120fb565b6040516103249291906140db565b6103176105fe366004613bfc565b5f908152601060205260409020546001600160a01b031690565b61047a610626366004614023565b612122565b610317610639366004613bfc565b5f908152600a60205260409020546001600160a01b031690565b6102da610661366004613f87565b6123ba565b6102da6106743660046140f1565b612451565b6102da610687366004613be1565b61253c565b6102da61069a36600461409a565b6125e3565b61047a6106ad366004613be1565b60076020525f908152604090205460ff1681565b61043e60065481565b6102da6106d8366004613fb8565b6126c6565b6102da6106eb366004613bfc565b612779565b6107126106fe366004613bfc565b5f908152600d602052604090205460ff1690565b6040516103249190614129565b61043e61072d366004613f38565b6127b6565b6102da610740366004613be1565b6127c0565b6102da610753366004614137565b61285a565b600254610317906001600160a01b031681565b6102da610779366004613be1565b61296d565b6103c561078c366004613bfc565b6129a7565b6102da61079f366004613be1565b612b41565b6103176107b2366004613bfc565b600a6020525f90815260409020546001600160a01b031681565b6102da6107da366004613be1565b612bd9565b5f6107e8612c68565b805490915060ff600160401b82041615906001600160401b03165f8115801561080e5750825b90505f826001600160401b031660011480156108295750303b155b905081158015610837575080155b156108555760405163f92ee8a960e01b815260040160405180910390fd5b845467ffffffffffffffff19166001178555831561087f57845460ff60401b1916600160401b1785555b61088833612c92565b61089188612779565b61089a8c612b41565b6108a38b6127c0565b6108ac8a610945565b6108b589610a2d565b6108be87612ca3565b6108c7866123ba565b6108cf611e86565b6001600160a01b03168d6001600160a01b0316146108f0576108f08d61296d565b831561093657845460ff60401b19168555604051600181527fc7f505b2f371ae2175ee4913f4499e1f2633a7b5936321eed1cdaeb6115181d29060200160405180910390a15b50505050505050505050505050565b61094d612dd7565b6001600160a01b0381166109a85760405162461bcd60e51b815260206004820152601f60248201527f496e76616c6964204533526566756e644d616e6167657220616464726573730060448201526064015b60405180910390fd5b600280546001600160a01b0319166001600160a01b0383169081179091556040517f9557d04c1c0b16f93f13b69aed23b3b6ab935bff3c53ac81d17896d3583542ed905f90a250565b6012602052815f5260405f208160028110610a0a575f80fd5b60089182820401919006600402915091509054906101000a900463ffffffff1681565b610a35612dd7565b6001600160a01b03811615801590610a5b57506004546001600160a01b03828116911614155b8190610a7b5760405163eddf07f560e01b815260040161099f9190613c20565b50600480546001600160a01b0319166001600160a01b0383161790556040517f722ff84c1234b2482061def5c82c6b5080c117b3cbb69d686844a051e4b8e7f390610ac7908390613c20565b60405180910390a150565b610ada612dd7565b610ae381612ca3565b50565b60086020525f9081526040902080546001820154600283015460058401546006850154600786018054959660ff90951695939492936001600160a01b039092169291610b319061416e565b80601f0160208091040260200160405190810160405280929190818152602001828054610b5d9061416e565b8015610ba85780601f10610b7f57610100808354040283529160200191610ba8565b820191905f5260205f20905b815481529060010190602001808311610b8b57829003601f168201915b505050505090806008018054610bbd9061416e565b80601f0160208091040260200160405190810160405280929190818152602001828054610be99061416e565b8015610c345780601f10610c0b57610100808354040283529160200191610c34565b820191905f5260205f20905b815481529060010190602001808311610c1757829003601f168201915b5050506009840154600a850154600b860154600c870154600d8801805497986001600160a01b03958616989490951696509194509291610c739061416e565b80601f0160208091040260200160405190810160405280929190818152602001828054610c9f9061416e565b8015610cea5780601f10610cc157610100808354040283529160200191610cea565b820191905f5260205f20905b815481529060010190602001808311610ccd57829003601f168201915b505050600e90930154919250506001600160a01b0381169060ff600160a01b909104168e565b610d18613826565b5f8281526008602090815260409182902082516101e08101909352805483526001810154909183019060ff166003811115610d5557610d55613c89565b6003811115610d6657610d66613c89565b8152600282810154602083015260408051808201808352919093019291600385019182845b815481526020019060010190808311610d8b5750505091835250506005820154602082015260068201546001600160a01b03166040820152600782018054606090920191610dd89061416e565b80601f0160208091040260200160405190810160405280929190818152602001828054610e049061416e565b8015610e4f5780601f10610e2657610100808354040283529160200191610e4f565b820191905f5260205f20905b815481529060010190602001808311610e3257829003601f168201915b50505050508152602001600882018054610e689061416e565b80601f0160208091040260200160405190810160405280929190818152602001828054610e949061416e565b8015610edf5780601f10610eb657610100808354040283529160200191610edf565b820191905f5260205f20905b815481529060010190602001808311610ec257829003601f168201915b505050918352505060098201546001600160a01b039081166020830152600a830154166040820152600b8201546060820152600c8201546080820152600d8201805460a090920191610f309061416e565b80601f0160208091040260200160405190810160405280929190818152602001828054610f5c9061416e565b8015610fa75780601f10610f7e57610100808354040283529160200191610fa7565b820191905f5260205f20905b815481529060010190602001808311610f8a57829003601f168201915b5050509183525050600e91909101546001600160a01b038082166020840152600160a01b90910460ff16151560409092019190915260a08201519192508391166110075760405163cd6f4a4f60e01b815260040161099f91815260200190565b50919050565b611015612dd7565b5f8181526009602052604090205481906001600160a01b031661104e576040516381c4951960e01b815260040161099f91815260200190565b505f818152600960205260409081902080546001600160a01b0319169055517f104eb329a192aef26eddea07c2af5ad2587792e62b37ed4045b6ba59bc5540fc90610ac79083815260200190565b6110a4612dd7565b6001600160a01b0381165f90815260076020526040902054819060ff166110df576040516321ac7c5f60e01b815260040161099f9190613c20565b506001600160a01b0381165f9081526007602052604090819020805460ff19169055517f56070b80bd617fcd2f7a284861edb488830a38f9dedcd77b2cb2f4eac17743e790610ac7908390613c20565b5f611138613826565b5f60128161114960208701876141a0565b600381111561115a5761115a613c89565b600381111561116b5761116b613c89565b8152602081019190915260409081015f20815180830190925260028282826020028201915f905b82829054906101000a900463ffffffff1663ffffffff1681526020019060040190602082600301049283019260010382029150808411611192579050505050505090505f816001600281106111e9576111e96141b9565b602002015163ffffffff1611845f01602081019061120791906141a0565b906112265760405163286c068d60e11b815260040161099f91906141cd565b5060208401354281101561125057604051630b99e87960e01b815260040161099f91815260200190565b506040840135602085013581101561127e5760405163174b5a0760e21b815260040161099f91815260200190565b506015546014545f91906112964260408901356141ef565b6112a09190614202565b6112aa9190614202565b9050600554811081906112d3576040516313b783af60e21b815260040161099f91815260200190565b5060075f6112e76080880160608901613be1565b6001600160a01b0316815260208101919091526040015f205460ff166113136080870160608801613be1565b906113325760405163295a6a6f60e11b815260040161099f9190613c20565b505f61133d866127b6565b60068054965090915085905f61135283614215565b9091555050604080514460208201529081018690525f9060600160408051808303601f1901815291815281516020928301205f898152600c84528281208690556004546011855283822080546001600160a01b039092166001600160a01b0319928316179055600d8552838220805460ff1916600117905560109094528290208054339416939093179092556014549192506113f19190890135614202565b5f878152600e6020908152604090912060010191909155818652611417908801886141a0565b8560200190600381111561142d5761142d613c89565b9081600381111561144057611440613c89565b905250436040808701919091528051808201825290602089019060029083908390808284375f9201919091525050506060808701919091526114889060808901908901613be1565b6001600160a01b031660a08601526114a3608088018861422d565b8080601f0160208091040260200160405190810160405280939291908181526020018383808284375f9201919091525050505060c0808701919091526114eb9088018861422d565b8080601f0160208091040260200160405190810160405280939291908181526020018383808284375f9201919091525050505060e08087019190915261153890610100890190890161427c565b15156101c08601525f610140860181905261016086018190526040805160208101909152908152610180860152336101a08601819052600454611588916001600160a01b03909116903085612e09565b5f6115996080890160608a01613be1565b6001600160a01b031663fefd9a8b88846115b660808d018d61422d565b6115c360a08f018f61422d565b8f8060c001906115d3919061422d565b6040518963ffffffff1660e01b81526004016115f69897969594939291906142bf565b6020604051808303815f875af1158015611612573d5f5f3e3d5ffd5b505050506040513d601f19601f820116820180604052508101906116369190614315565b5f818152600960205260409020549091506001600160a01b03168181611672576040516381c4951960e01b815260040161099f91815260200190565b505f828152600a60205260409020546001600160a01b031682816116ac576040516381c4951960e01b815260040161099f91815260200190565b50608088018390526001600160a01b038083166101008a015281166101208901525f8981526008602090815260409091208951815590890151600180830180548c94939260ff19919091169083600381111561170a5761170a613c89565b0217905550604082015181600201556060820151816003019060026117309291906138a3565b506080820151600582015560a08201516006820180546001600160a01b0319166001600160a01b0390921691909117905560c08201516007820190611775908261438b565b5060e0820151600882019061178a908261438b565b506101008201516009820180546001600160a01b039283166001600160a01b031991821617909155610120840151600a84018054919093169116179055610140820151600b820155610160820151600c820155610180820151600d8201906117f2908261438b565b506101a0820151600e90910180546101c0909301511515600160a01b026001600160a81b03199093166001600160a01b0392831617929092179091555f5460405163291a691b60e01b815291169063291a691b90611858908c9088908c90600401614440565b6020604051808303815f875af1158015611874573d5f5f3e3d5ffd5b505050506040513d601f19601f820116820180604052508101906118989190614485565b6118b557604051630d8dbe2560e01b815260040160405180910390fd5b6118c560808b0160608c01613be1565b6001600160a01b03167f5904e83d57e704fba4d92c5617f6b50ae993cd42d78babfcb239d0a6775f30708a8a6040516118ff929190613f6f565b60405180910390a2885f51602061491d5f395f51905f525f60016040516119279291906144a0565b60405180910390a250505050505050915091565b611943612dd7565b61194c5f612e76565b565b611956612dd7565b80515f5b818110156119aa57600b838281518110611976576119766141b9565b602002602001015160405161198b91906144bb565b908152604051908190036020019020805460ff1916905560010161195a565b507fd1b46e030b48add7bc03225cc5a6f403970976b36983f99ec31d535d627fc7db826040516119da91906144d1565b60405180910390a15050565b6119ee612dd7565b6001600160a01b03811615801590611a1f57505f828152600a60205260409020546001600160a01b03828116911614155b8290611a41576040516381c4951960e01b815260040161099f91815260200190565b505f918252600a602052604090912080546001600160a01b0319166001600160a01b03909216919091179055565b5f546001600160a01b03163314611a985760405162461bcd60e51b815260040161099f90614534565b5f818152600d602052604090205460ff166001816006811115611abd57611abd613c89565b14611ae257816001826040516337e1404160e01b815260040161099f93929190614565565b5f828152600d60205260409020805460ff19166002179055601354611b079042614202565b5f838152600e602052604080822092909255905183917fc44405af9078047712501f519e1fb900c2896c62b488336f84529c72ae16e6f191a2815f51602061491d5f395f51905f5260016002604051611b619291906144a0565b60405180910390a25050565b5f5f611b7887610d10565b5f888152600d602052604090205490915060ff166004816006811115611ba057611ba0613c89565b1488600483909192611bc8576040516337e1404160e01b815260040161099f93929190614565565b5050505f888152600e60209081526040918290208251606081018452815481526001820154928101929092526002015491810182905290899042811015611c2b576040516308f3034360e31b81526004810192909252602482015260440161099f565b50505f898152600860205260409020600d01611c48888a83614586565b505f898152600d6020526040902080546005919060ff191660018302179055508261010001516001600160a01b031663258ae5828989604051611c8c92919061463a565b6040519081900381206001600160e01b031960e084901b168252611cb6918a908a90600401614649565b602060405180830381865afa158015611cd1573d5f5f3e3d5ffd5b505050506040513d601f19601f82011682018060405250810190611cf59190614485565b9350878785611d1957604051632f9f8ab960e01b815260040161099f92919061466b565b5050611d2489612ee6565b887f02a24c3402076671e129905ba4579d884b1f94ded1c07fc03d26d11b60bca1698989604051611d5692919061466b565b60405180910390a2885f51602061491d5f395f51905f5260046005604051611d7f9291906144a0565b60405180910390a250505095945050505050565b5f546001600160a01b03163314611dbc5760405162461bcd60e51b815260040161099f90614534565b5f828152600860209081526040808320600d9092529091205460ff166002816006811115611dec57611dec613c89565b14611e1157836002826040516337e1404160e01b815260040161099f93929190614565565b5f848152600d6020526040808220805460ff19166003179055600b84018590555185917f11df18edb9bc9cd90a79068e0e208b630202148643d797d6150e7bacb733e63c91a2835f51602061491d5f395f51905f5260026003604051611e789291906144a0565b60405180910390a250505050565b7f9016d09d72d40fdae2fd8ceac6b6234c7706214fd39c1cd1e609a0528c199300546001600160a01b031690565b611ed560405180606001604052805f81526020015f81526020015f81525090565b5060408051606081018252601354815260145460208201526015549181019190915290565b5f818152600d602052604090205460ff166006816006811115611f1f57611f1f613c89565b14611f5c5760405162461bcd60e51b815260206004820152600d60248201526c114cc81b9bdd0819985a5b1959609a1b604482015260640161099f565b5f828152600c602052604090205480611fae5760405162461bcd60e51b8152602060048201526014602482015273139bc81c185e5b595b9d081d1bc81c99599d5b9960621b604482015260640161099f565b5f838152600c60205260408120819055611fc784613295565b5f858152601160205260409020546002549192506001600160a01b0390811691611ff49183911685613389565b60025460405163da19b69760e01b81526001600160a01b039091169063da19b6979061202a9088908790879087906004016146c1565b5f604051808303815f87803b158015612041575f5ffd5b505af1158015612053573d5f5f3e3d5ffd5b50505050847f5297818f48a66292b8b3e2caab83eec531b669bb20807fd38cf006adb2a07317848451604051612093929190918252602082015260400190565b60405180910390a25050505050565b6120c360405180606001604052805f81526020015f81526020015f81525090565b505f908152600e6020908152604091829020825160608101845281548152600182015492810192909252600201549181019190915290565b5f818152600d6020526040812054819060ff1661211884826133b4565b9250925050915091565b5f5f61212d87610d10565b5f888152600d602052604090205490915060ff16600381600681111561215557612155613c89565b148860038390919261217d576040516337e1404160e01b815260040161099f93929190614565565b5050505f888152600e60209081526040918290208251606081018452815481526001820154928101839052600290910154928101929092528990428110156121e1576040516308f3034360e31b81526004810192909252602482015260440161099f565b50506060830151602001518990428111156122185760405163017e35e560e71b81526004810192909252602482015260440161099f565b505061016083015189901561224357604051637eb9cea960e11b815260040161099f91815260200190565b505f888860405161225592919061463a565b60408051918290039091205f8c815260086020908152838220600c01839055600d905291909120805460ff191660041790556015549091506122979042614202565b5f8b8152600e6020526040908190206002019190915560a08501519051632f0e1bbf60e01b81526001600160a01b0390911690632f0e1bbf906122e4908d9085908c908c906004016146f8565b6020604051808303815f875af1158015612300573d5f5f3e3d5ffd5b505050506040513d601f19601f820116820180604052508101906123249190614485565b945088888661234857604051632f9f8ab960e01b815260040161099f92919061466b565b5050897f7cc27e4a5626cbc4f8ba1a927b0448de55e6a114bc87660331270c5109ade0718a8a60405161237c92919061466b565b60405180910390a2895f51602061491d5f395f51905f52600360046040516123a59291906144a0565b60405180910390a25050505095945050505050565b6123c2612dd7565b80515f5b81811015612421576001600b8483815181106123e4576123e46141b9565b60200260200101516040516123f991906144bb565b908152604051908190036020019020805491151560ff199092169190911790556001016123c6565b507f027b83cad653f54850fef6faa8c705f73a53e7f8de50a3a33ac1e0e3a5c0be81826040516119da91906144d1565b5f546001600160a01b031633148061247357506003546001600160a01b031633145b6124bf5760405162461bcd60e51b815260206004820152601c60248201527f4f6e6c79205265676973747279206f7220536c617368696e674d677200000000604482015260640161099f565b5f8160ff161180156124d55750600d60ff821611155b61251a5760405162461bcd60e51b815260206004820152601660248201527524b73b30b634b2103330b4b63ab932903932b0b9b7b760511b604482015260640161099f565b612538828260ff16600d81111561253357612533613c89565b61353c565b5050565b612544612dd7565b6001600160a01b03811661259a5760405162461bcd60e51b815260206004820152601f60248201527f496e76616c696420536c617368696e674d616e61676572206164647265737300604482015260640161099f565b600380546001600160a01b0319166001600160a01b0383169081179091556040517f4ccc8ed483c7c44c3602c3c38afc2c014a8f1d2dc210dfe58ebeeeead230f8e0905f90a250565b6003546001600160a01b031633146126345760405162461bcd60e51b815260206004820152601460248201527327b7363c9029b630b9b434b733a6b0b730b3b2b960611b604482015260640161099f565b60025460405163c1ab0f1f60e01b815260048101849052602481018390526001600160a01b039091169063c1ab0f1f906044015f604051808303815f87803b15801561267e575f5ffd5b505af1158015612690573d5f5f3e3d5ffd5b50505050817f4f41a3b0a032ebcae925f2ace77d507435840ca4b2dbaffdd7723fa8d72ee54282604051611b6191815260200190565b6126ce612dd7565b6001600160a01b038116158015906126ff57505f828152600960205260409020546001600160a01b03828116911614155b8290612721576040516381c4951960e01b815260040161099f91815260200190565b505f8281526009602090815260409182902080546001600160a01b0319166001600160a01b03851617905590518381527ff4041a3f914dac3bc9bf5f003ba41f28dbb84abe42f4e07c76266f5c8ceecb6991016119da565b612781612dd7565b60058190556040518181527fba0716ba1ee2ea8ecc4c64119b4537cdb42a99d82acf92af5b87607b8b52355290602001610ac7565b620f424080611007565b6127c8612dd7565b6001600160a01b038116158015906127ee57506001546001600160a01b03828116911614155b819061280e576040516320252f0b60e01b815260040161099f9190613c20565b50600180546001600160a01b0319166001600160a01b0383161790556040517fad4055f18cdad6f4bdd71afe3a72cbeee964217943e1bde38f138289e981a9a790610ac7908390613c20565b612862612dd7565b61286f602082018261472a565b63ffffffff16612885604083016020840161472a565b63ffffffff16101580156128aa57505f6128a2602083018361472a565b63ffffffff16115b6128ea5760405162461bcd60e51b8152602060048201526011602482015270125b9d985b1a59081d1a1c995cda1bdb19607a1b604482015260640161099f565b8060125f84600381111561290057612900613c89565b600381111561291157612911613c89565b815260208101919091526040015f2061292b9160026138e1565b5081600381111561293e5761293e613c89565b7f8b56fae526eee054f0849759a99fc7d4ff3823824ebf097a56f7d78adb6b34fa82604051611b619190614743565b612975612dd7565b6001600160a01b03811661299e575f604051631e4fbdf760e01b815260040161099f9190613c20565b610ae381612e76565b5f818152600d602052604081205460ff16818160068111156129cb576129cb613c89565b036129f057826001826040516337e1404160e01b815260040161099f93929190614565565b6005816006811115612a0457612a04613c89565b03612a255760405163462c7bed60e01b81526004810184905260240161099f565b6006816006811115612a3957612a39613c89565b03612a5a57604051633de16e3560e11b81526004810184905260240161099f565b5f612a6584836133b4565b9350905080612a8a57604051639f65d93560e01b81526004810185905260240161099f565b5f848152600d6020526040902080546006919060ff191660018302179055505f848152600f60205260409020805484919060ff1916600183600d811115612ad357612ad3613c89565b0217905550835f51602061491d5f395f51905f52836006604051612af89291906144a0565b60405180910390a2837fe20209be7caae6e76291267cfa711353981274bf127e94f16eb9ec44b68582bb8385604051612b32929190614781565b60405180910390a25050919050565b612b49612dd7565b6001600160a01b03811615801590612b6e57505f546001600160a01b03828116911614155b8190612b8e576040516375ac4eb760e11b815260040161099f9190613c20565b505f80546001600160a01b0319166001600160a01b0383161790556040517f80052b810d39120cf6c976cca504a21703f585521dc7a41c6d241090e6c579b690610ac7908390613c20565b6001600160a01b0381165f90815260076020526040902054819060ff1615612c155760405163b29d459560e01b815260040161099f9190613c20565b506001600160a01b0381165f9081526007602052604090819020805460ff19166001179055517fb8d368517268f297fff00825d67d098763117d061360d31027be5b2e1a59d46790610ac7908390613c20565b5f807ff0c57e16840df040f15088dc2f81fe391c3923bec73e23a9662efc9c229c6a005b92915050565b612c9a6136a4565b610ae3816136c9565b8035612ce65760405162461bcd60e51b8152602060048201526012602482015271496e76616c696420444b472077696e646f7760701b604482015260640161099f565b5f816020013511612d325760405162461bcd60e51b8152602060048201526016602482015275496e76616c696420636f6d707574652077696e646f7760501b604482015260640161099f565b5f816040013511612d815760405162461bcd60e51b8152602060048201526019602482015278496e76616c69642064656372797074696f6e2077696e646f7760381b604482015260640161099f565b80356013819055602080830135601481905560408085013560158190558151948552928401919091528201527f7e86ba16b805e2835af5c5b7aa5a942ced8bcc1fb95a05fbe42dae3862350a1690606001610ac7565b33612de0611e86565b6001600160a01b03161461194c573360405163118cdaa760e01b815260040161099f9190613c20565b6040516001600160a01b038481166024830152838116604483015260648201839052612e709186918216906323b872dd906084015b604051602081830303815290604052915060e01b6020820180516001600160e01b0383818316178352505050506136d1565b50505050565b7f9016d09d72d40fdae2fd8ceac6b6234c7706214fd39c1cd1e609a0528c19930080546001600160a01b031981166001600160a01b03848116918217845560405192169182907f8be0079c531659141344cd1fd0a4f28419497f9722a3daafe3b4186f6b6457e0905f90a3505050565b5f805460405162beb08960e51b8152600481018490526001600160a01b03909116906317d61120906024015f60405180830381865afa158015612f2b573d5f5f3e3d5ffd5b505050506040513d5f823e601f3d908101601f19168201604052612f52919081019061479c565b80515f848152600c60209081526040808320805490849055601190925282205493945091926001600160a01b031690829003612ff0576002546040516341489f1560e01b81526001600160a01b03909116906341489f1590612fbc9088908890869060040161482b565b5f604051808303815f87803b158015612fd3575f5ffd5b505af1158015612fe5573d5f5f3e3d5ffd5b505050505050505050565b825f03613091575f858152601060205260409020546001600160a01b03168015613028576130286001600160a01b0383168285613389565b6002546040516341489f1560e01b81526001600160a01b03909116906341489f159061305c9089908990879060040161482b565b5f604051808303815f87803b158015613073575f5ffd5b505af1158015613085573d5f5f3e3d5ffd5b50505050505050505050565b5f836001600160401b038111156130aa576130aa6139d3565b6040519080825280602002602001820160405280156130d3578160200160208202803683370190505b5090505f6130e1858561485b565b90505f805b868110156131205782848281518110613101576131016141b9565b60209081029190910101526131168383614202565b91506001016130e6565b505f61312c82876141ef565b9050801561316957808461314160018a6141ef565b81518110613151576131516141b9565b602002602001018181516131659190614202565b9052505b600154613183906001600160a01b03878116911688613734565b600154604051636ec640c760e11b81526001600160a01b039091169063dd8c818e906131b79088908c9089906004016148aa565b5f604051808303815f87803b1580156131ce575f5ffd5b505af11580156131e0573d5f5f3e3d5ffd5b50506001546131fe92506001600160a01b038881169250165f613734565b887fac9fe8ad7f55eac03284399116ecafc104f10459773f4cdf47063c46e5be335a89866040516132309291906148df565b60405180910390a26002546040516341489f1560e01b81526001600160a01b03909116906341489f159061326c908c908c908a9060040161482b565b5f604051808303815f87803b158015613283575f5ffd5b505af1158015610936573d5f5f3e3d5ffd5b5f818152600f602052604090205460609060ff16600181600d8111156132bd576132bd613c89565b14806132da5750600281600d8111156132d8576132d8613c89565b145b15613312575f5b60405190808252806020026020018201604052801561330a578160200160208202803683370190505b509392505050565b5f5460405162beb08960e51b8152600481018590526001600160a01b03909116906317d61120906024015f60405180830381865afa92505050801561337857506040513d5f823e601f3d908101601f19168201604052613375919081019061479c565b60015b613382575f6132e1565b9392505050565b6133af83846001600160a01b031663a9059cbb8585604051602401612e3e929190614903565b505050565b5f828152600e60209081526040808320815160608101835281548152600182015493810193909352600201548282015282549051632800d82960e01b81526004810186905283929183916001600160a01b0390911690632800d82990602401602060405180830381865afa15801561342e573d5f5f3e3d5ffd5b505050506040513d601f19601f820116820180604052508101906134529190614315565b9050600185600681111561346857613468613c89565b14801561347457508042115b1561348757600180935093505050613535565b600285600681111561349b5761349b613c89565b1480156134a85750815142115b156134bc5760016003935093505050613535565b60038560068111156134d0576134d0613c89565b1480156134e05750816020015142115b156134f45760016006935093505050613535565b600485600681111561350857613508613c89565b1480156135185750816040015142115b1561352c576001600a935093505050613535565b5f5f9350935050505b9250929050565b5f828152600d602052604081205460ff169081600681111561356057613560613c89565b0361358557826001826040516337e1404160e01b815260040161099f93929190614565565b600581600681111561359957613599613c89565b036135ba5760405163462c7bed60e01b81526004810184905260240161099f565b60068160068111156135ce576135ce613c89565b036135ef57604051633de16e3560e11b81526004810184905260240161099f565b5f838152600d6020526040902080546006919060ff191660018302179055505f838152600f60205260409020805483919060ff1916600183600d81111561363857613638613c89565b0217905550825f51602061491d5f395f51905f5282600660405161365d9291906144a0565b60405180910390a2827fe20209be7caae6e76291267cfa711353981274bf127e94f16eb9ec44b68582bb8284604051613697929190614781565b60405180910390a2505050565b6136ac6137c4565b61194c57604051631afcd79f60e31b815260040160405180910390fd5b6129756136a4565b5f5f60205f8451602086015f885af1806136f0576040513d5f823e3d81fd5b50505f513d91508115613707578060011415613714565b6001600160a01b0384163b155b15612e705783604051635274afe760e01b815260040161099f9190613c20565b5f836001600160a01b031663095ea7b38484604051602401613757929190614903565b604051602081830303815290604052915060e01b6020820180516001600160e01b038381831617835250505050905061379084826137dd565b612e70576137ba84856001600160a01b031663095ea7b3865f604051602401612e3e929190614903565b612e7084826136d1565b5f6137cd612c68565b54600160401b900460ff16919050565b5f5f5f5f60205f8651602088015f8a5af192503d91505f51905082801561381c5750811561380e578060011461381c565b5f866001600160a01b03163b115b9695505050505050565b604080516101e081019091525f808252602082019081526020015f815260200161384e61397d565b81525f602082018190526040820181905260608083018190526080830181905260a0830182905260c0830182905260e08301829052610100830182905261012083015261014082018190526101609091015290565b82600281019282156138d1579160200282015b828111156138d15782518255916020019190600101906138b6565b506138dd92915061399b565b5090565b6001830191839082156138d1579160200282015f5b8382111561394057833563ffffffff1683826101000a81548163ffffffff021916908363ffffffff16021790555092602001926004016020816003010492830192600103026138f6565b80156139705782816101000a81549063ffffffff0219169055600401602081600301049283019260010302613940565b50506138dd92915061399b565b60405180604001604052806002906020820280368337509192915050565b5b808211156138dd575f815560010161399c565b6001600160a01b0381168114610ae3575f5ffd5b5f60608284031215611007575f5ffd5b634e487b7160e01b5f52604160045260245ffd5b604051601f8201601f191681016001600160401b0381118282101715613a0f57613a0f6139d3565b604052919050565b5f6001600160401b03821115613a2f57613a2f6139d3565b5060051b60200190565b5f82601f830112613a48575f5ffd5b81356001600160401b03811115613a6157613a616139d3565b613a74601f8201601f19166020016139e7565b818152846020838601011115613a88575f5ffd5b816020850160208301375f918101602001919091529392505050565b5f82601f830112613ab3575f5ffd5b8135613ac6613ac182613a17565b6139e7565b8082825260208201915060208360051b860101925085831115613ae7575f5ffd5b602085015b83811015613b275780356001600160401b03811115613b09575f5ffd5b613b18886020838a0101613a39565b84525060209283019201613aec565b5095945050505050565b5f5f5f5f5f5f5f5f610140898b031215613b49575f5ffd5b8835613b54816139af565b97506020890135613b64816139af565b96506040890135613b74816139af565b95506060890135613b84816139af565b94506080890135613b94816139af565b935060a08901359250613baa8a60c08b016139c3565b91506101208901356001600160401b03811115613bc5575f5ffd5b613bd18b828c01613aa4565b9150509295985092959890939650565b5f60208284031215613bf1575f5ffd5b8135613382816139af565b5f60208284031215613c0c575f5ffd5b5035919050565b6001600160a01b03169052565b6001600160a01b0391909116815260200190565b803560048110613c42575f5ffd5b919050565b5f5f60408385031215613c58575f5ffd5b613c6183613c34565b946020939093013593505050565b5f60608284031215613c7f575f5ffd5b61338283836139c3565b634e487b7160e01b5f52602160045260245ffd5b600e8110613cad57613cad613c89565b9052565b60208101612c8c8284613c9d565b60048110613cad57613cad613c89565b5f81518084528060208401602086015e5f602082860101526020601f19601f83011685010191505092915050565b8e8152613d0d602082018f613cbf565b8c60408201528b6060820152613d26608082018c613c13565b6101c060a08201525f613d3d6101c083018c613ccf565b82810360c0840152613d4f818c613ccf565b9050613d5e60e084018b613c13565b613d6c61010084018a613c13565b8761012084015286610140840152828103610160840152613d8d8187613ccf565b915050613d9e610180830185613c13565b8215156101a08301529f9e505050505050505050505050505050565b805f5b6002811015612e70578151845260209384019390910190600101613dbd565b805182525f6020820151613df36020850182613cbf565b50604082015160408401526060820151613e106060850182613dba565b50608082015160a084015260a0820151613e2d60c0850182613c13565b5060c082015161020060e0850152613e49610200850182613ccf565b905060e0830151848203610100860152613e638282613ccf565b915050610100830151613e7a610120860182613c13565b50610120830151613e8f610140860182613c13565b506101408301516101608501526101608301516101808501526101808301518482036101a0860152613ec18282613ccf565b9150506101a0830151613ed86101c0860182613c13565b506101c08301518015156101e086015261330a565b602081525f6133826020830184613ddc565b5f60208284031215613f0f575f5ffd5b81356001600160401b03811115613f24575f5ffd5b613f3084828501613a39565b949350505050565b5f60208284031215613f48575f5ffd5b81356001600160401b03811115613f5d575f5ffd5b82016101008185031215613382575f5ffd5b828152604060208201525f613f306040830184613ddc565b5f60208284031215613f97575f5ffd5b81356001600160401b03811115613fac575f5ffd5b613f3084828501613aa4565b5f5f60408385031215613fc9575f5ffd5b823591506020830135613fdb816139af565b809150509250929050565b5f5f83601f840112613ff6575f5ffd5b5081356001600160401b0381111561400c575f5ffd5b602083019150836020828501011115613535575f5ffd5b5f5f5f5f5f60608688031215614037575f5ffd5b8535945060208601356001600160401b03811115614053575f5ffd5b61405f88828901613fe6565b90955093505060408601356001600160401b0381111561407d575f5ffd5b61408988828901613fe6565b969995985093965092949392505050565b5f5f604083850312156140ab575f5ffd5b50508035926020909101359150565b81518152602080830151908201526040808301519082015260608101612c8c565b8215158152604081016133826020830184613c9d565b5f5f60408385031215614102575f5ffd5b82359150602083013560ff81168114613fdb575f5ffd5b60078110613cad57613cad613c89565b60208101612c8c8284614119565b5f5f60608385031215614148575f5ffd5b61415183613c34565b915083606084011115614162575f5ffd5b50926020919091019150565b600181811c9082168061418257607f821691505b60208210810361100757634e487b7160e01b5f52602260045260245ffd5b5f602082840312156141b0575f5ffd5b61338282613c34565b634e487b7160e01b5f52603260045260245ffd5b60208101612c8c8284613cbf565b634e487b7160e01b5f52601160045260245ffd5b81810381811115612c8c57612c8c6141db565b80820180821115612c8c57612c8c6141db565b5f60018201614226576142266141db565b5060010190565b5f5f8335601e19843603018112614242575f5ffd5b8301803591506001600160401b0382111561425b575f5ffd5b602001915036819003821315613535575f5ffd5b8015158114610ae3575f5ffd5b5f6020828403121561428c575f5ffd5b81356133828161426f565b81835281816020850137505f828201602090810191909152601f909101601f19169091010190565b88815287602082015260a060408201525f6142de60a08301888a614297565b82810360608401526142f1818789614297565b90508281036080840152614306818587614297565b9b9a5050505050505050505050565b5f60208284031215614325575f5ffd5b5051919050565b601f8211156133af57805f5260205f20601f840160051c810160208510156143515750805b601f840160051c820191505b81811015614370575f815560010161435d565b5050505050565b5f19600383901b1c191660019190911b1790565b81516001600160401b038111156143a4576143a46139d3565b6143b8816143b2845461416e565b8461432c565b6020601f8211600181146143e5575f83156143d35750848201515b6143dd8482614377565b855550614370565b5f84815260208120601f198516915b8281101561441457878501518255602094850194600190920191016143f4565b508482101561443157868401515f19600387901b60f8161c191681555b50505050600190811b01905550565b838152602081018390526080810160408201835f5b600281101561447a57815163ffffffff16835260209283019290910190600101614455565b505050949350505050565b5f60208284031215614495575f5ffd5b81516133828161426f565b604081016144ae8285614119565b6133826020830184614119565b5f82518060208501845e5f920191825250919050565b5f602082016020835280845180835260408501915060408160051b8601019250602086015f5b8281101561452857603f19878603018452614513858351613ccf565b945060209384019391909101906001016144f7565b50929695505050505050565b6020808252601790820152764f6e6c79204369706865726e6f6465526567697374727960481b604082015260600190565b838152606081016145796020830185614119565b613f306040830184614119565b6001600160401b0383111561459d5761459d6139d3565b6145b1836145ab835461416e565b8361432c565b5f601f8411600181146145dd575f85156145cb5750838201355b6145d58682614377565b845550614370565b5f83815260208120601f198716915b8281101561460c57868501358255602094850194600190920191016145ec565b5086821015614628575f1960f88860031b161c19848701351681555b505060018560011b0183555050505050565b818382375f9101908152919050565b838152604060208201525f614662604083018486614297565b95945050505050565b602081525f613f30602083018486614297565b5f8151808452602084019350602083015f5b828110156146b75781516001600160a01b0316865260209586019590910190600101614690565b5093949350505050565b848152836020820152608060408201525f6146df608083018561467e565b905060018060a01b038316606083015295945050505050565b848152836020820152606060408201525f61381c606083018486614297565b803563ffffffff81168114613c42575f5ffd5b5f6020828403121561473a575f5ffd5b61338282614717565b6040810181835f5b60028110156147785763ffffffff61476283614717565b168352602092830192919091019060010161474b565b50505092915050565b6040810161478f8285614119565b6133826020830184613c9d565b5f602082840312156147ac575f5ffd5b81516001600160401b038111156147c1575f5ffd5b8201601f810184136147d1575f5ffd5b80516147df613ac182613a17565b8082825260208201915060208360051b850101925086831115614800575f5ffd5b6020840193505b8284101561381c57835161481a816139af565b825260209384019390910190614807565b838152606060208201525f614843606083018561467e565b905060018060a01b0383166040830152949350505050565b5f8261487557634e487b7160e01b5f52601260045260245ffd5b500490565b5f8151808452602084019350602083015f5b828110156146b757815186526020958601959091019060010161488c565b6001600160a01b03841681526060602082018190525f906148cd9083018561467e565b828103604084015261381c818561487a565b604081525f6148f1604083018561467e565b8281036020840152614662818561487a565b6001600160a01b0392909216825260208201526040019056fe1b418a230a21d37a078bf8f16decbde8ccceacd77159371f62f0d4ea00d19967a164736f6c634300081c000a",
  "linkReferences": {},
  "deployedLinkReferences": {},
  "immutableReferences": {},
  "inputSourceName": "project/contracts/Enclave.sol",
  "buildInfoId": "solc-0_8_28-48efe0838d1e7fb2ef1a3cba330cb80744c9a50e"
}