{
  "_format": "hh3-artifact-1",
  "contractName": "Enclave",
  "sourceName": "contracts/Enclave.sol",
  "abi": [
    {
      "inputs": [],
      "stateMutability": "nonpayable",
      "type": "constructor"
    },
    {
      "inputs": [
        {
          "internalType": "uint256",
          "name": "e3Id",
          "type": "uint256"
        }
      ],
      "name": "CiphertextOutputAlreadyPublished",
      "type": "error"
    },
    {
      "inputs": [
        {
          "internalType": "uint256",
          "name": "e3Id",
          "type": "uint256"
        }
      ],
      "name": "CiphertextOutputNotPublished",
      "type": "error"
    },
    {
      "inputs": [
        {
          "internalType": "uint256",
          "name": "e3Id",
          "type": "uint256"
        },
        {
          "internalType": "uint256",
          "name": "expiration",
          "type": "uint256"
        }
      ],
      "name": "CommitteeDutiesCompleted",
      "type": "error"
    },
    {
      "inputs": [],
      "name": "CommitteeSelectionFailed",
      "type": "error"
    },
    {
      "inputs": [
        {
          "internalType": "enum IEnclave.CommitteeSize",
          "name": "committeeSize",
          "type": "uint8"
        }
      ],
      "name": "CommitteeSizeNotConfigured",
      "type": "error"
    },
    {
      "inputs": [
        {
          "internalType": "uint256",
          "name": "e3Id",
          "type": "uint256"
        }
      ],
      "name": "E3AlreadyComplete",
      "type": "error"
    },
    {
      "inputs": [
        {
          "internalType": "uint256",
          "name": "e3Id",
          "type": "uint256"
        }
      ],
      "name": "E3AlreadyFailed",
      "type": "error"
    },
    {
      "inputs": [
        {
          "internalType": "uint256",
          "name": "e3Id",
          "type": "uint256"
        }
      ],
      "name": "E3DoesNotExist",
      "type": "error"
    },
    {
      "inputs": [
        {
          "internalType": "contract IE3Program",
          "name": "e3Program",
          "type": "address"
        }
      ],
      "name": "E3ProgramNotAllowed",
      "type": "error"
    },
    {
      "inputs": [
        {
          "internalType": "uint256",
          "name": "e3Id",
          "type": "uint256"
        }
      ],
      "name": "FailureConditionNotMet",
      "type": "error"
    },
    {
      "inputs": [
        {
          "internalType": "uint256",
          "name": "e3Id",
          "type": "uint256"
        },
        {
          "internalType": "uint256",
          "name": "inputDeadline",
          "type": "uint256"
        }
      ],
      "name": "InputDeadlineNotReached",
      "type": "error"
    },
    {
      "inputs": [
        {
          "internalType": "contract IBondingRegistry",
          "name": "bondingRegistry",
          "type": "address"
        }
      ],
      "name": "InvalidBondingRegistry",
      "type": "error"
    },
    {
      "inputs": [
        {
          "internalType": "contract ICiphernodeRegistry",
          "name": "ciphernodeRegistry",
          "type": "address"
        }
      ],
      "name": "InvalidCiphernodeRegistry",
      "type": "error"
    },
    {
      "inputs": [
        {
          "internalType": "uint256",
          "name": "duration",
          "type": "uint256"
        }
      ],
      "name": "InvalidDuration",
      "type": "error"
    },
    {
      "inputs": [
        {
          "internalType": "bytes32",
          "name": "encryptionSchemeId",
          "type": "bytes32"
        }
      ],
      "name": "InvalidEncryptionScheme",
      "type": "error"
    },
    {
      "inputs": [
        {
          "internalType": "contract IERC20",
          "name": "feeToken",
          "type": "address"
        }
      ],
      "name": "InvalidFeeToken",
      "type": "error"
    },
    {
      "inputs": [],
      "name": "InvalidInitialization",
      "type": "error"
    },
    {
      "inputs": [
        {
          "internalType": "uint256",
          "name": "deadline",
          "type": "uint256"
        }
      ],
      "name": "InvalidInputDeadline",
      "type": "error"
    },
    {
      "inputs": [
        {
          "internalType": "uint256",
          "name": "end",
          "type": "uint256"
        }
      ],
      "name": "InvalidInputDeadlineEnd",
      "type": "error"
    },
    {
      "inputs": [
        {
          "internalType": "uint256",
          "name": "start",
          "type": "uint256"
        }
      ],
      "name": "InvalidInputDeadlineStart",
      "type": "error"
    },
    {
      "inputs": [
        {
          "internalType": "bytes",
          "name": "output",
          "type": "bytes"
        }
      ],
      "name": "InvalidOutput",
      "type": "error"
    },
    {
      "inputs": [
        {
          "internalType": "uint256",
          "name": "e3Id",
          "type": "uint256"
        },
        {
          "internalType": "enum IEnclave.E3Stage",
          "name": "expected",
          "type": "uint8"
        },
        {
          "internalType": "enum IEnclave.E3Stage",
          "name": "actual",
          "type": "uint8"
        }
      ],
      "name": "InvalidStage",
      "type": "error"
    },
    {
      "inputs": [
        {
          "internalType": "address",
          "name": "module",
          "type": "address"
        }
      ],
      "name": "ModuleAlreadyEnabled",
      "type": "error"
    },
    {
      "inputs": [
        {
          "internalType": "address",
          "name": "module",
          "type": "address"
        }
      ],
      "name": "ModuleNotEnabled",
      "type": "error"
    },
    {
      "inputs": [],
      "name": "NotInitializing",
      "type": "error"
    },
    {
      "inputs": [
        {
          "internalType": "address",
          "name": "owner",
          "type": "address"
        }
      ],
      "name": "OwnableInvalidOwner",
      "type": "error"
    },
    {
      "inputs": [
        {
          "internalType": "address",
          "name": "account",
          "type": "address"
        }
      ],
      "name": "OwnableUnauthorizedAccount",
      "type": "error"
    },
    {
      "inputs": [
        {
          "internalType": "uint256",
          "name": "value",
          "type": "uint256"
        }
      ],
      "name": "PaymentRequired",
      "type": "error"
    },
    {
      "inputs": [
        {
          "internalType": "uint256",
          "name": "e3Id",
          "type": "uint256"
        }
      ],
      "name": "PlaintextOutputAlreadyPublished",
      "type": "error"
    },
    {
      "inputs": [
        {
          "internalType": "address",
          "name": "token",
          "type": "address"
        }
      ],
      "name": "SafeERC20FailedOperation",
      "type": "error"
    },
    {
      "anonymous": false,
      "inputs": [
        {
          "indexed": false,
          "internalType": "bytes[]",
          "name": "e3ProgramParams",
          "type": "bytes[]"
        }
      ],
      "name": "AllowedE3ProgramsParamsSet",
      "type": "event"
    },
    {
      "anonymous": false,
      "inputs": [
        {
          "indexed": false,
          "internalType": "address",
          "name": "bondingRegistry",
          "type": "address"
        }
      ],
      "name": "BondingRegistrySet",
      "type": "event"
    },
    {
      "anonymous": false,
      "inputs": [
        {
          "indexed": false,
          "internalType": "address",
          "name": "ciphernodeRegistry",
          "type": "address"
        }
      ],
      "name": "CiphernodeRegistrySet",
      "type": "event"
    },
    {
      "anonymous": false,
      "inputs": [
        {
          "indexed": true,
          "internalType": "uint256",
          "name": "e3Id",
          "type": "uint256"
        },
        {
          "indexed": false,
          "internalType": "bytes",
          "name": "ciphertextOutput",
          "type": "bytes"
        }
      ],
      "name": "CiphertextOutputPublished",
      "type": "event"
    },
    {
      "anonymous": false,
      "inputs": [
        {
          "indexed": true,
          "internalType": "uint256",
          "name": "e3Id",
          "type": "uint256"
        }
      ],
      "name": "CommitteeFinalized",
      "type": "event"
    },
    {
      "anonymous": false,
      "inputs": [
        {
          "indexed": true,
          "internalType": "uint256",
          "name": "e3Id",
          "type": "uint256"
        }
      ],
      "name": "CommitteeFormed",
      "type": "event"
    },
    {
      "anonymous": false,
      "inputs": [
        {
          "indexed": true,
          "internalType": "enum IEnclave.CommitteeSize",
          "name": "size",
          "type": "uint8"
        },
        {
          "indexed": false,
          "internalType": "uint32[2]",
          "name": "threshold",
          "type": "uint32[2]"
        }
      ],
      "name": "CommitteeThresholdsUpdated",
      "type": "event"
    },
    {
      "anonymous": false,
      "inputs": [
        {
          "indexed": true,
          "internalType": "uint256",
          "name": "e3Id",
          "type": "uint256"
        },
        {
          "indexed": false,
          "internalType": "enum IEnclave.E3Stage",
          "name": "failedAtStage",
          "type": "uint8"
        },
        {
          "indexed": false,
          "internalType": "enum IEnclave.FailureReason",
          "name": "reason",
          "type": "uint8"
        }
      ],
      "name": "E3Failed",
      "type": "event"
    },
    {
      "anonymous": false,
      "inputs": [
        {
          "indexed": true,
          "internalType": "uint256",
          "name": "e3Id",
          "type": "uint256"
        },
        {
          "indexed": false,
          "internalType": "uint256",
          "name": "paymentAmount",
          "type": "uint256"
        },
        {
          "indexed": false,
          "internalType": "uint256",
          "name": "honestNodeCount",
          "type": "uint256"
        }
      ],
      "name": "E3FailureProcessed",
      "type": "event"
    },
    {
      "anonymous": false,
      "inputs": [
        {
          "indexed": false,
          "internalType": "contract IE3Program",
          "name": "e3Program",
          "type": "address"
        }
      ],
      "name": "E3ProgramDisabled",
      "type": "event"
    },
    {
      "anonymous": false,
      "inputs": [
        {
          "indexed": false,
          "internalType": "contract IE3Program",
          "name": "e3Program",
          "type": "address"
        }
      ],
      "name": "E3ProgramEnabled",
      "type": "event"
    },
    {
      "anonymous": false,
      "inputs": [
        {
          "indexed": false,
          "internalType": "bytes[]",
          "name": "e3ProgramParams",
          "type": "bytes[]"
        }
      ],
      "name": "E3ProgramsParamsRemoved",
      "type": "event"
    },
    {
      "anonymous": false,
      "inputs": [
        {
          "indexed": true,
          "internalType": "address",
          "name": "e3RefundManager",
          "type": "address"
        }
      ],
      "name": "E3RefundManagerSet",
      "type": "event"
    },
    {
      "anonymous": false,
      "inputs": [
        {
          "indexed": false,
          "internalType": "uint256",
          "name": "e3Id",
          "type": "uint256"
        },
        {
          "components": [
            {
              "internalType": "uint256",
              "name": "seed",
              "type": "uint256"
            },
            {
              "internalType": "enum IEnclave.CommitteeSize",
              "name": "committeeSize",
              "type": "uint8"
            },
            {
              "internalType": "uint256",
              "name": "requestBlock",
              "type": "uint256"
            },
            {
              "internalType": "uint256[2]",
              "name": "inputWindow",
              "type": "uint256[2]"
            },
            {
              "internalType": "bytes32",
              "name": "encryptionSchemeId",
              "type": "bytes32"
            },
            {
              "internalType": "contract IE3Program",
              "name": "e3Program",
              "type": "address"
            },
            {
              "internalType": "bytes",
              "name": "e3ProgramParams",
              "type": "bytes"
            },
            {
              "internalType": "bytes",
              "name": "customParams",
              "type": "bytes"
            },
            {
              "internalType": "contract IDecryptionVerifier",
              "name": "decryptionVerifier",
              "type": "address"
            },
            {
              "internalType": "contract IPkVerifier",
              "name": "pkVerifier",
              "type": "address"
            },
            {
              "internalType": "bytes32",
              "name": "committeePublicKey",
              "type": "bytes32"
            },
            {
              "internalType": "bytes32",
              "name": "ciphertextOutput",
              "type": "bytes32"
            },
            {
              "internalType": "bytes",
              "name": "plaintextOutput",
              "type": "bytes"
            },
            {
              "internalType": "address",
              "name": "requester",
              "type": "address"
            },
            {
              "internalType": "bool",
              "name": "proofAggregationEnabled",
              "type": "bool"
            }
          ],
          "indexed": false,
          "internalType": "struct E3",
          "name": "e3",
          "type": "tuple"
        },
        {
          "indexed": true,
          "internalType": "contract IE3Program",
          "name": "e3Program",
          "type": "address"
        }
      ],
      "name": "E3Requested",
      "type": "event"
    },
    {
      "anonymous": false,
      "inputs": [
        {
          "indexed": true,
          "internalType": "uint256",
          "name": "e3Id",
          "type": "uint256"
        },
        {
          "indexed": false,
          "internalType": "enum IEnclave.E3Stage",
          "name": "previousStage",
          "type": "uint8"
        },
        {
          "indexed": false,
          "internalType": "enum IEnclave.E3Stage",
          "name": "newStage",
          "type": "uint8"
        }
      ],
      "name": "E3StageChanged",
      "type": "event"
    },
    {
      "anonymous": false,
      "inputs": [
        {
          "indexed": false,
          "internalType": "bytes32",
          "name": "encryptionSchemeId",
          "type": "bytes32"
        }
      ],
      "name": "EncryptionSchemeDisabled",
      "type": "event"
    },
    {
      "anonymous": false,
      "inputs": [
        {
          "indexed": false,
          "internalType": "bytes32",
          "name": "encryptionSchemeId",
          "type": "bytes32"
        }
      ],
      "name": "EncryptionSchemeEnabled",
      "type": "event"
    },
    {
      "anonymous": false,
      "inputs": [
        {
          "indexed": false,
          "internalType": "address",
          "name": "feeToken",
          "type": "address"
        }
      ],
      "name": "FeeTokenSet",
      "type": "event"
    },
    {
      "anonymous": false,
      "inputs": [
        {
          "indexed": false,
          "internalType": "uint64",
          "name": "version",
          "type": "uint64"
        }
      ],
      "name": "Initialized",
      "type": "event"
    },
    {
      "anonymous": false,
      "inputs": [
        {
          "indexed": true,
          "internalType": "uint256",
          "name": "e3Id",
          "type": "uint256"
        },
        {
          "indexed": false,
          "internalType": "bytes",
          "name": "data",
          "type": "bytes"
        },
        {
          "indexed": false,
          "internalType": "uint256",
          "name": "inputHash",
          "type": "uint256"
        },
        {
          "indexed": false,
          "internalType": "uint256",
          "name": "index",
          "type": "uint256"
        }
      ],
      "name": "InputPublished",
      "type": "event"
    },
    {
      "anonymous": false,
      "inputs": [
        {
          "indexed": false,
          "internalType": "uint256",
          "name": "maxDuration",
          "type": "uint256"
        }
      ],
      "name": "MaxDurationSet",
      "type": "event"
    },
    {
      "anonymous": false,
      "inputs": [
        {
          "indexed": true,
          "internalType": "address",
          "name": "previousOwner",
          "type": "address"
        },
        {
          "indexed": true,
          "internalType": "address",
          "name": "newOwner",
          "type": "address"
        }
      ],
      "name": "OwnershipTransferred",
      "type": "event"
    },
    {
      "anonymous": false,
      "inputs": [
        {
          "indexed": true,
          "internalType": "uint256",
          "name": "e3Id",
          "type": "uint256"
        },
        {
          "indexed": false,
          "internalType": "bytes",
          "name": "plaintextOutput",
          "type": "bytes"
        }
      ],
      "name": "PlaintextOutputPublished",
      "type": "event"
    },
    {
      "anonymous": false,
      "inputs": [
        {
          "indexed": true,
          "internalType": "uint256",
          "name": "e3Id",
          "type": "uint256"
        },
        {
          "indexed": false,
          "internalType": "address[]",
          "name": "nodes",
          "type": "address[]"
        },
        {
          "indexed": false,
          "internalType": "uint256[]",
          "name": "amounts",
          "type": "uint256[]"
        }
      ],
      "name": "RewardsDistributed",
      "type": "event"
    },
    {
      "anonymous": false,
      "inputs": [
        {
          "indexed": true,
          "internalType": "uint256",
          "name": "e3Id",
          "type": "uint256"
        },
        {
          "indexed": false,
          "internalType": "uint256",
          "name": "amount",
          "type": "uint256"
        }
      ],
      "name": "SlashedFundsEscrowed",
      "type": "event"
    },
    {
      "anonymous": false,
      "inputs": [
        {
          "indexed": true,
          "internalType": "address",
          "name": "slashingManager",
          "type": "address"
        }
      ],
      "name": "SlashingManagerSet",
      "type": "event"
    },
    {
      "anonymous": false,
      "inputs": [
        {
          "components": [
            {
              "internalType": "uint256",
              "name": "dkgWindow",
              "type": "uint256"
            },
            {
              "internalType": "uint256",
              "name": "computeWindow",
              "type": "uint256"
            },
            {
              "internalType": "uint256",
              "name": "decryptionWindow",
              "type": "uint256"
            }
          ],
          "indexed": false,
          "internalType": "struct IEnclave.E3TimeoutConfig",
          "name": "config",
          "type": "tuple"
        }
      ],
      "name": "TimeoutConfigUpdated",
      "type": "event"
    },
    {
      "inputs": [],
      "name": "bondingRegistry",
      "outputs": [
        {
          "internalType": "contract IBondingRegistry",
          "name": "",
          "type": "address"
        }
      ],
      "stateMutability": "view",
      "type": "function"
    },
    {
      "inputs": [
        {
          "internalType": "uint256",
          "name": "e3Id",
          "type": "uint256"
        }
      ],
      "name": "checkFailureCondition",
      "outputs": [
        {
          "internalType": "bool",
          "name": "canFail",
          "type": "bool"
        },
        {
          "internalType": "enum IEnclave.FailureReason",
          "name": "reason",
          "type": "uint8"
        }
      ],
      "stateMutability": "view",
      "type": "function"
    },
    {
      "inputs": [],
      "name": "ciphernodeRegistry",
      "outputs": [
        {
          "internalType": "contract ICiphernodeRegistry",
          "name": "",
          "type": "address"
        }
      ],
      "stateMutability": "view",
      "type": "function"
    },
    {
      "inputs": [
        {
          "internalType": "enum IEnclave.CommitteeSize",
          "name": "",
          "type": "uint8"
        },
        {
          "internalType": "uint256",
          "name": "",
          "type": "uint256"
        }
      ],
      "name": "committeeThresholds",
      "outputs": [
        {
          "internalType": "uint32",
          "name": "threshold",
          "type": "uint32"
        }
      ],
      "stateMutability": "view",
      "type": "function"
    },
    {
      "inputs": [
        {
          "internalType": "bytes32",
          "name": "encryptionSchemeId",
          "type": "bytes32"
        }
      ],
      "name": "decryptionVerifiers",
      "outputs": [
        {
          "internalType": "contract IDecryptionVerifier",
          "name": "decryptionVerifier",
          "type": "address"
        }
      ],
      "stateMutability": "view",
      "type": "function"
    },
    {
      "inputs": [
        {
          "internalType": "contract IE3Program",
          "name": "e3Program",
          "type": "address"
        }
      ],
      "name": "disableE3Program",
      "outputs": [],
      "stateMutability": "nonpayable",
      "type": "function"
    },
    {
      "inputs": [
        {
          "internalType": "bytes32",
          "name": "encryptionSchemeId",
          "type": "bytes32"
        }
      ],
      "name": "disableEncryptionScheme",
      "outputs": [],
      "stateMutability": "nonpayable",
      "type": "function"
    },
    {
      "inputs": [
        {
          "internalType": "uint256",
          "name": "e3Id",
          "type": "uint256"
        }
      ],
      "name": "e3Payments",
      "outputs": [
        {
          "internalType": "uint256",
          "name": "e3Payment",
          "type": "uint256"
        }
      ],
      "stateMutability": "view",
      "type": "function"
    },
    {
      "inputs": [
        {
          "internalType": "contract IE3Program",
          "name": "e3Program",
          "type": "address"
        }
      ],
      "name": "e3Programs",
      "outputs": [
        {
          "internalType": "bool",
          "name": "allowed",
          "type": "bool"
        }
      ],
      "stateMutability": "view",
      "type": "function"
    },
    {
      "inputs": [
        {
          "internalType": "bytes",
          "name": "e3ProgramParams",
          "type": "bytes"
        }
      ],
      "name": "e3ProgramsParams",
      "outputs": [
        {
          "internalType": "bool",
          "name": "allowed",
          "type": "bool"
        }
      ],
      "stateMutability": "view",
      "type": "function"
    },
    {
      "inputs": [],
      "name": "e3RefundManager",
      "outputs": [
        {
          "internalType": "contract IE3RefundManager",
          "name": "",
          "type": "address"
        }
      ],
      "stateMutability": "view",
      "type": "function"
    },
    {
      "inputs": [
        {
          "internalType": "uint256",
          "name": "e3Id",
          "type": "uint256"
        }
      ],
      "name": "e3s",
      "outputs": [
        {
          "internalType": "uint256",
          "name": "seed",
          "type": "uint256"
        },
        {
          "internalType": "enum IEnclave.CommitteeSize",
          "name": "committeeSize",
          "type": "uint8"
        },
        {
          "internalType": "uint256",
          "name": "requestBlock",
          "type": "uint256"
        },
        {
          "internalType": "bytes32",
          "name": "encryptionSchemeId",
          "type": "bytes32"
        },
        {
          "internalType": "contract IE3Program",
          "name": "e3Program",
          "type": "address"
        },
        {
          "internalType": "bytes",
          "name": "e3ProgramParams",
          "type": "bytes"
        },
        {
          "internalType": "bytes",
          "name": "customParams",
          "type": "bytes"
        },
        {
          "internalType": "contract IDecryptionVerifier",
          "name": "decryptionVerifier",
          "type": "address"
        },
        {
          "internalType": "contract IPkVerifier",
          "name": "pkVerifier",
          "type": "address"
        },
        {
          "internalType": "bytes32",
          "name": "committeePublicKey",
          "type": "bytes32"
        },
        {
          "internalType": "bytes32",
          "name": "ciphertextOutput",
          "type": "bytes32"
        },
        {
          "internalType": "bytes",
          "name": "plaintextOutput",
          "type": "bytes"
        },
        {
          "internalType": "address",
          "name": "requester",
          "type": "address"
        },
        {
          "internalType": "bool",
          "name": "proofAggregationEnabled",
          "type": "bool"
        }
      ],
      "stateMutability": "view",
      "type": "function"
    },
    {
      "inputs": [
        {
          "internalType": "contract IE3Program",
          "name": "e3Program",
          "type": "address"
        }
      ],
      "name": "enableE3Program",
      "outputs": [],
      "stateMutability": "nonpayable",
      "type": "function"
    },
    {
      "inputs": [
        {
          "internalType": "uint256",
          "name": "e3Id",
          "type": "uint256"
        },
        {
          "internalType": "uint256",
          "name": "amount",
          "type": "uint256"
        }
      ],
      "name": "escrowSlashedFunds",
      "outputs": [],
      "stateMutability": "nonpayable",
      "type": "function"
    },
    {
      "inputs": [],
      "name": "feeToken",
      "outputs": [
        {
          "internalType": "contract IERC20",
          "name": "",
          "type": "address"
        }
      ],
      "stateMutability": "view",
      "type": "function"
    },
    {
      "inputs": [
        {
          "internalType": "uint256",
          "name": "e3Id",
          "type": "uint256"
        }
      ],
      "name": "getDeadlines",
      "outputs": [
        {
          "components": [
            {
              "internalType": "uint256",
              "name": "dkgDeadline",
              "type": "uint256"
            },
            {
              "internalType": "uint256",
              "name": "computeDeadline",
              "type": "uint256"
            },
            {
              "internalType": "uint256",
              "name": "decryptionDeadline",
              "type": "uint256"
            }
          ],
          "internalType": "struct IEnclave.E3Deadlines",
          "name": "deadlines",
          "type": "tuple"
        }
      ],
      "stateMutability": "view",
      "type": "function"
    },
    {
      "inputs": [
        {
          "internalType": "bytes32",
          "name": "encryptionSchemeId",
          "type": "bytes32"
        }
      ],
      "name": "getDecryptionVerifier",
      "outputs": [
        {
          "internalType": "contract IDecryptionVerifier",
          "name": "",
          "type": "address"
        }
      ],
      "stateMutability": "view",
      "type": "function"
    },
    {
      "inputs": [
        {
          "internalType": "uint256",
          "name": "e3Id",
          "type": "uint256"
        }
      ],
      "name": "getE3",
      "outputs": [
        {
          "components": [
            {
              "internalType": "uint256",
              "name": "seed",
              "type": "uint256"
            },
            {
              "internalType": "enum IEnclave.CommitteeSize",
              "name": "committeeSize",
              "type": "uint8"
            },
            {
              "internalType": "uint256",
              "name": "requestBlock",
              "type": "uint256"
            },
            {
              "internalType": "uint256[2]",
              "name": "inputWindow",
              "type": "uint256[2]"
            },
            {
              "internalType": "bytes32",
              "name": "encryptionSchemeId",
              "type": "bytes32"
            },
            {
              "internalType": "contract IE3Program",
              "name": "e3Program",
              "type": "address"
            },
            {
              "internalType": "bytes",
              "name": "e3ProgramParams",
              "type": "bytes"
            },
            {
              "internalType": "bytes",
              "name": "customParams",
              "type": "bytes"
            },
            {
              "internalType": "contract IDecryptionVerifier",
              "name": "decryptionVerifier",
              "type": "address"
            },
            {
              "internalType": "contract IPkVerifier",
              "name": "pkVerifier",
              "type": "address"
            },
            {
              "internalType": "bytes32",
              "name": "committeePublicKey",
              "type": "bytes32"
            },
            {
              "internalType": "bytes32",
              "name": "ciphertextOutput",
              "type": "bytes32"
            },
            {
              "internalType": "bytes",
              "name": "plaintextOutput",
              "type": "bytes"
            },
            {
              "internalType": "address",
              "name": "requester",
              "type": "address"
            },
            {
              "internalType": "bool",
              "name": "proofAggregationEnabled",
              "type": "bool"
            }
          ],
          "internalType": "struct E3",
          "name": "e3",
          "type": "tuple"
        }
      ],
      "stateMutability": "view",
      "type": "function"
    },
    {
      "inputs": [
        {
          "components": [
            {
              "internalType": "enum IEnclave.CommitteeSize",
              "name": "committeeSize",
              "type": "uint8"
            },
            {
              "internalType": "uint256[2]",
              "name": "inputWindow",
              "type": "uint256[2]"
            },
            {
              "internalType": "contract IE3Program",
              "name": "e3Program",
              "type": "address"
            },
            {
              "internalType": "bytes",
              "name": "e3ProgramParams",
              "type": "bytes"
            },
            {
              "internalType": "bytes",
              "name": "computeProviderParams",
              "type": "bytes"
            },
            {
              "internalType": "bytes",
              "name": "customParams",
              "type": "bytes"
            },
            {
              "internalType": "bool",
              "name": "proofAggregationEnabled",
              "type": "bool"
            }
          ],
          "internalType": "struct IEnclave.E3RequestParams",
          "name": "",
          "type": "tuple"
        }
      ],
      "name": "getE3Quote",
      "outputs": [
        {
          "internalType": "uint256",
          "name": "fee",
          "type": "uint256"
        }
      ],
      "stateMutability": "pure",
      "type": "function"
    },
    {
      "inputs": [
        {
          "internalType": "uint256",
          "name": "e3Id",
          "type": "uint256"
        }
      ],
      "name": "getE3Stage",
      "outputs": [
        {
          "internalType": "enum IEnclave.E3Stage",
          "name": "stage",
          "type": "uint8"
        }
      ],
      "stateMutability": "view",
      "type": "function"
    },
    {
      "inputs": [
        {
          "internalType": "uint256",
          "name": "e3Id",
          "type": "uint256"
        }
      ],
      "name": "getFailureReason",
      "outputs": [
        {
          "internalType": "enum IEnclave.FailureReason",
          "name": "reason",
          "type": "uint8"
        }
      ],
      "stateMutability": "view",
      "type": "function"
    },
    {
      "inputs": [
        {
          "internalType": "bytes32",
          "name": "encryptionSchemeId",
          "type": "bytes32"
        }
      ],
      "name": "getPkVerifier",
      "outputs": [
        {
          "internalType": "contract IPkVerifier",
          "name": "",
          "type": "address"
        }
      ],
      "stateMutability": "view",
      "type": "function"
    },
    {
      "inputs": [
        {
          "internalType": "uint256",
          "name": "e3Id",
          "type": "uint256"
        }
      ],
      "name": "getRequester",
      "outputs": [
        {
          "internalType": "address",
          "name": "requester",
          "type": "address"
        }
      ],
      "stateMutability": "view",
      "type": "function"
    },
    {
      "inputs": [],
      "name": "getTimeoutConfig",
      "outputs": [
        {
          "components": [
            {
              "internalType": "uint256",
              "name": "dkgWindow",
              "type": "uint256"
            },
            {
              "internalType": "uint256",
              "name": "computeWindow",
              "type": "uint256"
            },
            {
              "internalType": "uint256",
              "name": "decryptionWindow",
              "type": "uint256"
            }
          ],
          "internalType": "struct IEnclave.E3TimeoutConfig",
          "name": "config",
          "type": "tuple"
        }
      ],
      "stateMutability": "view",
      "type": "function"
    },
    {
      "inputs": [
        {
          "internalType": "address",
          "name": "_owner",
          "type": "address"
        },
        {
          "internalType": "contract ICiphernodeRegistry",
          "name": "_ciphernodeRegistry",
          "type": "address"
        },
        {
          "internalType": "contract IBondingRegistry",
          "name": "_bondingRegistry",
          "type": "address"
        },
        {
          "internalType": "contract IE3RefundManager",
          "name": "_e3RefundManager",
          "type": "address"
        },
        {
          "internalType": "contract IERC20",
          "name": "_feeToken",
          "type": "address"
        },
        {
          "internalType": "uint256",
          "name": "_maxDuration",
          "type": "uint256"
        },
        {
          "components": [
            {
              "internalType": "uint256",
              "name": "dkgWindow",
              "type": "uint256"
            },
            {
              "internalType": "uint256",
              "name": "computeWindow",
              "type": "uint256"
            },
            {
              "internalType": "uint256",
              "name": "decryptionWindow",
              "type": "uint256"
            }
          ],
          "internalType": "struct IEnclave.E3TimeoutConfig",
          "name": "config",
          "type": "tuple"
        },
        {
          "internalType": "bytes[]",
          "name": "_e3ProgramsParams",
          "type": "bytes[]"
        }
      ],
      "name": "initialize",
      "outputs": [],
      "stateMutability": "nonpayable",
      "type": "function"
    },
    {
      "inputs": [
        {
          "internalType": "uint256",
          "name": "e3Id",
          "type": "uint256"
        }
      ],
      "name": "markE3Failed",
      "outputs": [
        {
          "internalType": "enum IEnclave.FailureReason",
          "name": "reason",
          "type": "uint8"
        }
      ],
      "stateMutability": "nonpayable",
      "type": "function"
    },
    {
      "inputs": [],
      "name": "maxDuration",
      "outputs": [
        {
          "internalType": "uint256",
          "name": "",
          "type": "uint256"
        }
      ],
      "stateMutability": "view",
      "type": "function"
    },
    {
      "inputs": [],
      "name": "nexte3Id",
      "outputs": [
        {
          "internalType": "uint256",
          "name": "",
          "type": "uint256"
        }
      ],
      "stateMutability": "view",
      "type": "function"
    },
    {
      "inputs": [
        {
          "internalType": "uint256",
          "name": "e3Id",
          "type": "uint256"
        }
      ],
      "name": "onCommitteeFinalized",
      "outputs": [],
      "stateMutability": "nonpayable",
      "type": "function"
    },
    {
      "inputs": [
        {
          "internalType": "uint256",
          "name": "e3Id",
          "type": "uint256"
        },
        {
          "internalType": "bytes32",
          "name": "committeePublicKey",
          "type": "bytes32"
        }
      ],
      "name": "onCommitteePublished",
      "outputs": [],
      "stateMutability": "nonpayable",
      "type": "function"
    },
    {
      "inputs": [
        {
          "internalType": "uint256",
          "name": "e3Id",
          "type": "uint256"
        },
        {
          "internalType": "uint8",
          "name": "reason",
          "type": "uint8"
        }
      ],
      "name": "onE3Failed",
      "outputs": [],
      "stateMutability": "nonpayable",
      "type": "function"
    },
    {
      "inputs": [],
      "name": "owner",
      "outputs": [
        {
          "internalType": "address",
          "name": "",
          "type": "address"
        }
      ],
      "stateMutability": "view",
      "type": "function"
    },
    {
      "inputs": [
        {
          "internalType": "bytes32",
          "name": "encryptionSchemeId",
          "type": "bytes32"
        }
      ],
      "name": "pkVerifiers",
      "outputs": [
        {
          "internalType": "contract IPkVerifier",
          "name": "pkVerifier",
          "type": "address"
        }
      ],
      "stateMutability": "view",
      "type": "function"
    },
    {
      "inputs": [
        {
          "internalType": "uint256",
          "name": "e3Id",
          "type": "uint256"
        }
      ],
      "name": "processE3Failure",
      "outputs": [],
      "stateMutability": "nonpayable",
      "type": "function"
    },
    {
      "inputs": [
        {
          "internalType": "uint256",
          "name": "e3Id",
          "type": "uint256"
        },
        {
          "internalType": "bytes",
          "name": "ciphertextOutput",
          "type": "bytes"
        },
        {
          "internalType": "bytes",
          "name": "proof",
          "type": "bytes"
        }
      ],
      "name": "publishCiphertextOutput",
      "outputs": [
        {
          "internalType": "bool",
          "name": "success",
          "type": "bool"
        }
      ],
      "stateMutability": "nonpayable",
      "type": "function"
    },
    {
      "inputs": [
        {
          "internalType": "uint256",
          "name": "e3Id",
          "type": "uint256"
        },
        {
          "internalType": "bytes",
          "name": "plaintextOutput",
          "type": "bytes"
        },
        {
          "internalType": "bytes",
          "name": "proof",
          "type": "bytes"
        },
        {
          "internalType": "bytes",
          "name": "foldProof",
          "type": "bytes"
        }
      ],
      "name": "publishPlaintextOutput",
      "outputs": [
        {
          "internalType": "bool",
          "name": "success",
          "type": "bool"
        }
      ],
      "stateMutability": "nonpayable",
      "type": "function"
    },
    {
      "inputs": [
        {
          "internalType": "bytes[]",
          "name": "_e3ProgramsParams",
          "type": "bytes[]"
        }
      ],
      "name": "removeE3ProgramsParams",
      "outputs": [],
      "stateMutability": "nonpayable",
      "type": "function"
    },
    {
      "inputs": [],
      "name": "renounceOwnership",
      "outputs": [],
      "stateMutability": "nonpayable",
      "type": "function"
    },
    {
      "inputs": [
        {
          "components": [
            {
              "internalType": "enum IEnclave.CommitteeSize",
              "name": "committeeSize",
              "type": "uint8"
            },
            {
              "internalType": "uint256[2]",
              "name": "inputWindow",
              "type": "uint256[2]"
            },
            {
              "internalType": "contract IE3Program",
              "name": "e3Program",
              "type": "address"
            },
            {
              "internalType": "bytes",
              "name": "e3ProgramParams",
              "type": "bytes"
            },
            {
              "internalType": "bytes",
              "name": "computeProviderParams",
              "type": "bytes"
            },
            {
              "internalType": "bytes",
              "name": "customParams",
              "type": "bytes"
            },
            {
              "internalType": "bool",
              "name": "proofAggregationEnabled",
              "type": "bool"
            }
          ],
          "internalType": "struct IEnclave.E3RequestParams",
          "name": "requestParams",
          "type": "tuple"
        }
      ],
      "name": "request",
      "outputs": [
        {
          "internalType": "uint256",
          "name": "e3Id",
          "type": "uint256"
        },
        {
          "components": [
            {
              "internalType": "uint256",
              "name": "seed",
              "type": "uint256"
            },
            {
              "internalType": "enum IEnclave.CommitteeSize",
              "name": "committeeSize",
              "type": "uint8"
            },
            {
              "internalType": "uint256",
              "name": "requestBlock",
              "type": "uint256"
            },
            {
              "internalType": "uint256[2]",
              "name": "inputWindow",
              "type": "uint256[2]"
            },
            {
              "internalType": "bytes32",
              "name": "encryptionSchemeId",
              "type": "bytes32"
            },
            {
              "internalType": "contract IE3Program",
              "name": "e3Program",
              "type": "address"
            },
            {
              "internalType": "bytes",
              "name": "e3ProgramParams",
              "type": "bytes"
            },
            {
              "internalType": "bytes",
              "name": "customParams",
              "type": "bytes"
            },
            {
              "internalType": "contract IDecryptionVerifier",
              "name": "decryptionVerifier",
              "type": "address"
            },
            {
              "internalType": "contract IPkVerifier",
              "name": "pkVerifier",
              "type": "address"
            },
            {
              "internalType": "bytes32",
              "name": "committeePublicKey",
              "type": "bytes32"
            },
            {
              "internalType": "bytes32",
              "name": "ciphertextOutput",
              "type": "bytes32"
            },
            {
              "internalType": "bytes",
              "name": "plaintextOutput",
              "type": "bytes"
            },
            {
              "internalType": "address",
              "name": "requester",
              "type": "address"
            },
            {
              "internalType": "bool",
              "name": "proofAggregationEnabled",
              "type": "bool"
            }
          ],
          "internalType": "struct E3",
          "name": "e3",
          "type": "tuple"
        }
      ],
      "stateMutability": "nonpayable",
      "type": "function"
    },
    {
      "inputs": [
        {
          "internalType": "contract IBondingRegistry",
          "name": "_bondingRegistry",
          "type": "address"
        }
      ],
      "name": "setBondingRegistry",
      "outputs": [],
      "stateMutability": "nonpayable",
      "type": "function"
    },
    {
      "inputs": [
        {
          "internalType": "contract ICiphernodeRegistry",
          "name": "_ciphernodeRegistry",
          "type": "address"
        }
      ],
      "name": "setCiphernodeRegistry",
      "outputs": [],
      "stateMutability": "nonpayable",
      "type": "function"
    },
    {
      "inputs": [
        {
          "internalType": "enum IEnclave.CommitteeSize",
          "name": "size",
          "type": "uint8"
        },
        {
          "internalType": "uint32[2]",
          "name": "threshold",
          "type": "uint32[2]"
        }
      ],
      "name": "setCommitteeThresholds",
      "outputs": [],
      "stateMutability": "nonpayable",
      "type": "function"
    },
    {
      "inputs": [
        {
          "internalType": "bytes32",
          "name": "encryptionSchemeId",
          "type": "bytes32"
        },
        {
          "internalType": "contract IDecryptionVerifier",
          "name": "decryptionVerifier",
          "type": "address"
        }
      ],
      "name": "setDecryptionVerifier",
      "outputs": [],
      "stateMutability": "nonpayable",
      "type": "function"
    },
    {
      "inputs": [
        {
          "internalType": "bytes[]",
          "name": "_e3ProgramsParams",
          "type": "bytes[]"
        }
      ],
      "name": "setE3ProgramsParams",
      "outputs": [],
      "stateMutability": "nonpayable",
      "type": "function"
    },
    {
      "inputs": [
        {
          "internalType": "contract IE3RefundManager",
          "name": "_e3RefundManager",
          "type": "address"
        }
      ],
      "name": "setE3RefundManager",
      "outputs": [],
      "stateMutability": "nonpayable",
      "type": "function"
    },
    {
      "inputs": [
        {
          "internalType": "contract IERC20",
          "name": "_feeToken",
          "type": "address"
        }
      ],
      "name": "setFeeToken",
      "outputs": [],
      "stateMutability": "nonpayable",
      "type": "function"
    },
    {
      "inputs": [
        {
          "internalType": "uint256",
          "name": "_maxDuration",
          "type": "uint256"
        }
      ],
      "name": "setMaxDuration",
      "outputs": [],
      "stateMutability": "nonpayable",
      "type": "function"
    },
    {
      "inputs": [
        {
          "internalType": "bytes32",
          "name": "encryptionSchemeId",
          "type": "bytes32"
        },
        {
          "internalType": "contract IPkVerifier",
          "name": "pkVerifier",
          "type": "address"
        }
      ],
      "name": "setPkVerifier",
      "outputs": [],
      "stateMutability": "nonpayable",
      "type": "function"
    },
    {
      "inputs": [
        {
          "internalType": "contract ISlashingManager",
          "name": "_slashingManager",
          "type": "address"
        }
      ],
      "name": "setSlashingManager",
      "outputs": [],
      "stateMutability": "nonpayable",
      "type": "function"
    },
    {
      "inputs": [
        {
          "components": [
            {
              "internalType": "uint256",
              "name": "dkgWindow",
              "type": "uint256"
            },
            {
              "internalType": "uint256",
              "name": "computeWindow",
              "type": "uint256"
            },
            {
              "internalType": "uint256",
              "name": "decryptionWindow",
              "type": "uint256"
            }
          ],
          "internalType": "struct IEnclave.E3TimeoutConfig",
          "name": "config",
          "type": "tuple"
        }
      ],
      "name": "setTimeoutConfig",
      "outputs": [],
      "stateMutability": "nonpayable",
      "type": "function"
    },
    {
      "inputs": [],
      "name": "slashingManager",
      "outputs": [
        {
          "internalType": "contract ISlashingManager",
          "name": "",
          "type": "address"
        }
      ],
      "stateMutability": "view",
      "type": "function"
    },
    {
      "inputs": [
        {
          "internalType": "address",
          "name": "newOwner",
          "type": "address"
        }
      ],
      "name": "transferOwnership",
      "outputs": [],
      "stateMutability": "nonpayable",
      "type": "function"
    }
  ],
  "bytecode": "0x6080604052348015600e575f5ffd5b5060156019565b60c9565b7ff0c57e16840df040f15088dc2f81fe391c3923bec73e23a9662efc9c229c6a00805468010000000000000000900460ff161560685760405163f92ee8a960e01b815260040160405180910390fd5b80546001600160401b039081161460c65780546001600160401b0319166001600160401b0390811782556040519081527fc7f505b2f371ae2175ee4913f4499e1f2633a7b5936321eed1cdaeb6115181d29060200160405180910390a15b50565b614a13806100d65f395ff3fe608060405234801561000f575f5ffd5b50600436106102c3575f3560e01c806390173a4111610177578063cb649617116100d5578063ea71aa571161008f578063ea71aa5714610745578063f0691cba14610758578063f2fde38b1461076b578063f81b8ef61461077e578063fad8e11114610791578063fbdb3237146107a4578063fd2f3d01146107cc575f5ffd5b8063cb649617146106c1578063cbd16872146106ca578063cf0f34c4146106dd578063cfbdc98d146106f0578063da16fb2f1461071f578063e59e469514610732575f5ffd5b8063ac3d2f4211610131578063ac3d2f4214610618578063b27392d514610640578063b68fd1be14610653578063bb2d1b8214610666578063bff232c114610679578063c1ab0f1f1461068c578063c4ccafa21461069f575f5ffd5b806390173a41146105815780639117173c1461059657806392312386146105a9578063929a8faf146105bc57806399c6679d146105dd5780639c8570c814610605575f5ffd5b80634fc77264116102245780637c8c3b4d116101de5780637c8c3b4d146105085780637cfa9d741461051b57806381476ec21461052e57806385814243146105415780638da5cb5b146105545780638dcdd86b1461055c5780638e5ce3ad1461056e575f5ffd5b80634fc772641461049d57806364226409146104b0578063647846a5146104d15780636db5c8fd146104e4578063715018a6146104ed57806377868ae4146104f5575f5ffd5b80631ba72945116102805780631ba729451461039057806336c5d38a146103a35780634017daf0146103d2578063406ed35c146103ff5780634147a3601461041f578063459d92941461044c5780634e92ec631461048a575f5ffd5b806301d12f1c146102c757806302a3a9c9146102dc5780630ef81b2f146102ef57806310bc62811461032d57806311bd61d91461035557806315cce2241461037d575b5f5ffd5b6102da6102d5366004613b37565b6107df565b005b6102da6102ea366004613be7565b610945565b6103176102fd366004613c02565b5f908152600960205260409020546001600160a01b031690565b6040516103249190613c26565b60405180910390f35b61031761033b366004613c02565b60096020525f90815260409020546001600160a01b031681565b610368610363366004613c4d565b6109f1565b60405163ffffffff9091168152602001610324565b6102da61038b366004613be7565b610a2d565b6102da61039e366004613c75565b610ad2565b6103c56103b1366004613c02565b5f908152600f602052604090205460ff1690565b6040516103249190613cb7565b6103e56103e0366004613c02565b610ae6565b6040516103249e9d9c9b9a99989796959493929190613d03565b61041261040d366004613c02565b610d10565b6040516103249190613ef3565b61043e61042d366004613c02565b600c6020525f908152604090205481565b604051908152602001610324565b61047a61045a366004613f05565b8051602081830181018051600b8252928201919093012091525460ff1681565b6040519015158152602001610324565b6102da610498366004613c02565b61100d565b6102da6104ab366004613be7565b61109c565b6104c36104be366004613f3e565b61112f565b604051610324929190613f75565b600454610317906001600160a01b031681565b61043e60055481565b6102da61193b565b6102da610503366004613f8d565b61194e565b6102da610516366004613fbe565b6119e6565b6102da610529366004613c02565b611a6f565b6102da61053c366004613fec565b611b6d565b600154610317906001600160a01b031681565b610317611c60565b5f54610317906001600160a01b031681565b600354610317906001600160a01b031681565b610589611c8e565b604051610324919061400c565b6102da6105a4366004613c02565b611cd4565b6105896105b7366004613c02565b611e7c565b6105cf6105ca366004613c02565b611ed5565b60405161032492919061402d565b6103176105eb366004613c02565b5f908152601060205260409020546001600160a01b031690565b61047a610613366004614080565b611efc565b610317610626366004613c02565b5f908152600a60205260409020546001600160a01b031690565b61047a61064e3660046140f7565b612194565b6102da610661366004613f8d565b6123c0565b6102da61067436600461419c565b612457565b6102da610687366004613be7565b612542565b6102da61069a366004613fec565b6125e9565b61047a6106ad366004613be7565b60076020525f908152604090205460ff1681565b61043e60065481565b6102da6106d8366004613fbe565b6126cc565b6102da6106eb366004613c02565b61277f565b6107126106fe366004613c02565b5f908152600d602052604090205460ff1690565b60405161032491906141d4565b61043e61072d366004613f3e565b6127bc565b6102da610740366004613be7565b6127c6565b6102da6107533660046141e2565b612860565b600254610317906001600160a01b031681565b6102da610779366004613be7565b612973565b6103c561078c366004613c02565b6129ad565b6102da61079f366004613be7565b612b47565b6103176107b2366004613c02565b600a6020525f90815260409020546001600160a01b031681565b6102da6107da366004613be7565b612bdf565b5f6107e8612c6e565b805490915060ff600160401b82041615906001600160401b03165f8115801561080e5750825b90505f826001600160401b031660011480156108295750303b155b905081158015610837575080155b156108555760405163f92ee8a960e01b815260040160405180910390fd5b845467ffffffffffffffff19166001178555831561087f57845460ff60401b1916600160401b1785555b61088833612c98565b6108918861277f565b61089a8c612b47565b6108a38b6127c6565b6108ac8a610945565b6108b589610a2d565b6108be87612ca9565b6108c7866123c0565b6108cf611c60565b6001600160a01b03168d6001600160a01b0316146108f0576108f08d612973565b831561093657845460ff60401b19168555604051600181527fc7f505b2f371ae2175ee4913f4499e1f2633a7b5936321eed1cdaeb6115181d29060200160405180910390a15b50505050505050505050505050565b61094d612ddd565b6001600160a01b0381166109a85760405162461bcd60e51b815260206004820152601f60248201527f496e76616c6964204533526566756e644d616e6167657220616464726573730060448201526064015b60405180910390fd5b600280546001600160a01b0319166001600160a01b0383169081179091556040517f9557d04c1c0b16f93f13b69aed23b3b6ab935bff3c53ac81d17896d3583542ed905f90a250565b6012602052815f5260405f208160028110610a0a575f80fd5b60089182820401919006600402915091509054906101000a900463ffffffff1681565b610a35612ddd565b6001600160a01b03811615801590610a5b57506004546001600160a01b03828116911614155b8190610a7b5760405163eddf07f560e01b815260040161099f9190613c26565b50600480546001600160a01b0319166001600160a01b0383161790556040517f722ff84c1234b2482061def5c82c6b5080c117b3cbb69d686844a051e4b8e7f390610ac7908390613c26565b60405180910390a150565b610ada612ddd565b610ae381612ca9565b50565b60086020525f9081526040902080546001820154600283015460058401546006850154600786018054959660ff90951695939492936001600160a01b039092169291610b3190614219565b80601f0160208091040260200160405190810160405280929190818152602001828054610b5d90614219565b8015610ba85780601f10610b7f57610100808354040283529160200191610ba8565b820191905f5260205f20905b815481529060010190602001808311610b8b57829003601f168201915b505050505090806008018054610bbd90614219565b80601f0160208091040260200160405190810160405280929190818152602001828054610be990614219565b8015610c345780601f10610c0b57610100808354040283529160200191610c34565b820191905f5260205f20905b815481529060010190602001808311610c1757829003601f168201915b5050506009840154600a850154600b860154600c870154600d8801805497986001600160a01b03958616989490951696509194509291610c7390614219565b80601f0160208091040260200160405190810160405280929190818152602001828054610c9f90614219565b8015610cea5780601f10610cc157610100808354040283529160200191610cea565b820191905f5260205f20905b815481529060010190602001808311610ccd57829003601f168201915b505050600e90930154919250506001600160a01b0381169060ff600160a01b909104168e565b610d1861382c565b5f8281526008602090815260409182902082516101e08101909352805483526001810154909183019060ff166003811115610d5557610d55613c8f565b6003811115610d6657610d66613c8f565b8152600282810154602083015260408051808201808352919093019291600385019182845b815481526020019060010190808311610d8b5750505091835250506005820154602082015260068201546001600160a01b03166040820152600782018054606090920191610dd890614219565b80601f0160208091040260200160405190810160405280929190818152602001828054610e0490614219565b8015610e4f5780601f10610e2657610100808354040283529160200191610e4f565b820191905f5260205f20905b815481529060010190602001808311610e3257829003601f168201915b50505050508152602001600882018054610e6890614219565b80601f0160208091040260200160405190810160405280929190818152602001828054610e9490614219565b8015610edf5780601f10610eb657610100808354040283529160200191610edf565b820191905f5260205f20905b815481529060010190602001808311610ec257829003601f168201915b505050918352505060098201546001600160a01b039081166020830152600a830154166040820152600b8201546060820152600c8201546080820152600d8201805460a090920191610f3090614219565b80601f0160208091040260200160405190810160405280929190818152602001828054610f5c90614219565b8015610fa75780601f10610f7e57610100808354040283529160200191610fa7565b820191905f5260205f20905b815481529060010190602001808311610f8a57829003601f168201915b5050509183525050600e91909101546001600160a01b038082166020840152600160a01b90910460ff16151560409092019190915260a08201519192508391166110075760405163cd6f4a4f60e01b815260040161099f91815260200190565b50919050565b611015612ddd565b5f8181526009602052604090205481906001600160a01b031661104e576040516381c4951960e01b815260040161099f91815260200190565b505f818152600960205260409081902080546001600160a01b0319169055517f104eb329a192aef26eddea07c2af5ad2587792e62b37ed4045b6ba59bc5540fc90610ac79083815260200190565b6110a4612ddd565b6001600160a01b0381165f90815260076020526040902054819060ff166110df576040516321ac7c5f60e01b815260040161099f9190613c26565b506001600160a01b0381165f9081526007602052604090819020805460ff19169055517f56070b80bd617fcd2f7a284861edb488830a38f9dedcd77b2cb2f4eac17743e790610ac7908390613c26565b5f61113861382c565b5f601281611149602087018761424b565b600381111561115a5761115a613c8f565b600381111561116b5761116b613c8f565b8152602081019190915260409081015f20815180830190925260028282826020028201915f905b82829054906101000a900463ffffffff1663ffffffff1681526020019060040190602082600301049283019260010382029150808411611192579050505050505090505f816001600281106111e9576111e9614264565b602002015163ffffffff1611845f016020810190611207919061424b565b906112265760405163286c068d60e11b815260040161099f9190614278565b5060208401354281101561125057604051630b99e87960e01b815260040161099f91815260200190565b506040840135602085013581101561127e5760405163174b5a0760e21b815260040161099f91815260200190565b506015546014545f919061129642604089013561429a565b6112a091906142ad565b6112aa91906142ad565b9050600554811081906112d3576040516313b783af60e21b815260040161099f91815260200190565b5060075f6112e76080880160608901613be7565b6001600160a01b0316815260208101919091526040015f205460ff166113136080870160608801613be7565b906113325760405163295a6a6f60e11b815260040161099f9190613c26565b505f61133d866127bc565b60068054965090915085905f611352836142c0565b9091555050604080514460208201529081018690525f9060600160408051808303601f1901815291815281516020928301205f898152600c84528281208690556004546011855283822080546001600160a01b039092166001600160a01b0319928316179055600d8552838220805460ff1916600117905560109094528290208054339416939093179092556014549192506113f191908901356142ad565b5f878152600e60209081526040909120600101919091558186526114179088018861424b565b8560200190600381111561142d5761142d613c8f565b9081600381111561144057611440613c8f565b905250436040808701919091528051808201825290602089019060029083908390808284375f9201919091525050506060808701919091526114889060808901908901613be7565b6001600160a01b031660a08601526114a360808801886142d8565b8080601f0160208091040260200160405190810160405280939291908181526020018383808284375f9201919091525050505060c0808701919091526114eb908801886142d8565b8080601f0160208091040260200160405190810160405280939291908181526020018383808284375f9201919091525050505060e080870191909152611538906101008901908901614327565b15156101c08601525f610140860181905261016086018190526040805160208101909152908152610180860152336101a08601819052600454611588916001600160a01b03909116903085612e0f565b5f6115996080890160608a01613be7565b6001600160a01b031663fefd9a8b88846115b660808d018d6142d8565b6115c360a08f018f6142d8565b8f8060c001906115d391906142d8565b6040518963ffffffff1660e01b81526004016115f698979695949392919061436a565b6020604051808303815f875af1158015611612573d5f5f3e3d5ffd5b505050506040513d601f19601f8201168201806040525081019061163691906143c0565b5f818152600960205260409020549091506001600160a01b03168181611672576040516381c4951960e01b815260040161099f91815260200190565b505f828152600a60205260409020546001600160a01b031682816116ac576040516381c4951960e01b815260040161099f91815260200190565b50608088018390526001600160a01b038083166101008a015281166101208901525f8981526008602090815260409091208951815590890151600180830180548c94939260ff19919091169083600381111561170a5761170a613c8f565b0217905550604082015181600201556060820151816003019060026117309291906138a9565b506080820151600582015560a08201516006820180546001600160a01b0319166001600160a01b0390921691909117905560c082015160078201906117759082614436565b5060e0820151600882019061178a9082614436565b506101008201516009820180546001600160a01b039283166001600160a01b031991821617909155610120840151600a84018054919093169116179055610140820151600b820155610160820151600c820155610180820151600d8201906117f29082614436565b506101a0820151600e90910180546101c0909301511515600160a01b026001600160a81b03199093166001600160a01b0392831617929092179091555f5460405163291a691b60e01b815291169063291a691b90611858908c9088908c906004016144eb565b6020604051808303815f875af1158015611874573d5f5f3e3d5ffd5b505050506040513d601f19601f820116820180604052508101906118989190614530565b6118b557604051630d8dbe2560e01b815260040160405180910390fd5b6118c560808b0160608c01613be7565b6001600160a01b03167f5904e83d57e704fba4d92c5617f6b50ae993cd42d78babfcb239d0a6775f30708a8a6040516118ff929190613f75565b60405180910390a2885f5160206149e75f395f51905f525f600160405161192792919061454b565b60405180910390a250505050505050915091565b611943612ddd565b61194c5f612e7c565b565b611956612ddd565b80515f5b818110156119aa57600b83828151811061197657611976614264565b602002602001015160405161198b9190614566565b908152604051908190036020019020805460ff1916905560010161195a565b507fd1b46e030b48add7bc03225cc5a6f403970976b36983f99ec31d535d627fc7db826040516119da919061457c565b60405180910390a15050565b6119ee612ddd565b6001600160a01b03811615801590611a1f57505f828152600a60205260409020546001600160a01b03828116911614155b8290611a41576040516381c4951960e01b815260040161099f91815260200190565b505f918252600a602052604090912080546001600160a01b0319166001600160a01b03909216919091179055565b5f546001600160a01b03163314611a985760405162461bcd60e51b815260040161099f906145df565b5f818152600d602052604090205460ff166001816006811115611abd57611abd613c8f565b14611ae257816001826040516337e1404160e01b815260040161099f93929190614610565b5f828152600d60205260409020805460ff19166002179055601354611b0790426142ad565b5f838152600e602052604080822092909255905183917fc44405af9078047712501f519e1fb900c2896c62b488336f84529c72ae16e6f191a2815f5160206149e75f395f51905f5260016002604051611b6192919061454b565b60405180910390a25050565b5f546001600160a01b03163314611b965760405162461bcd60e51b815260040161099f906145df565b5f828152600860209081526040808320600d9092529091205460ff166002816006811115611bc657611bc6613c8f565b14611beb57836002826040516337e1404160e01b815260040161099f93929190614610565b5f848152600d6020526040808220805460ff19166003179055600b84018590555185917f11df18edb9bc9cd90a79068e0e208b630202148643d797d6150e7bacb733e63c91a2835f5160206149e75f395f51905f5260026003604051611c5292919061454b565b60405180910390a250505050565b7f9016d09d72d40fdae2fd8ceac6b6234c7706214fd39c1cd1e609a0528c199300546001600160a01b031690565b611caf60405180606001604052805f81526020015f81526020015f81525090565b5060408051606081018252601354815260145460208201526015549181019190915290565b5f818152600d602052604090205460ff166006816006811115611cf957611cf9613c8f565b14611d365760405162461bcd60e51b815260206004820152600d60248201526c114cc81b9bdd0819985a5b1959609a1b604482015260640161099f565b5f828152600c602052604090205480611d885760405162461bcd60e51b8152602060048201526014602482015273139bc81c185e5b595b9d081d1bc81c99599d5b9960621b604482015260640161099f565b5f838152600c60205260408120819055611da184612eec565b5f858152601160205260409020546002549192506001600160a01b0390811691611dce9183911685612fe0565b60025460405163da19b69760e01b81526001600160a01b039091169063da19b69790611e04908890879087908790600401614674565b5f604051808303815f87803b158015611e1b575f5ffd5b505af1158015611e2d573d5f5f3e3d5ffd5b50505050847f5297818f48a66292b8b3e2caab83eec531b669bb20807fd38cf006adb2a07317848451604051611e6d929190918252602082015260400190565b60405180910390a25050505050565b611e9d60405180606001604052805f81526020015f81526020015f81525090565b505f908152600e6020908152604091829020825160608101845281548152600182015492810192909252600201549181019190915290565b5f818152600d6020526040812054819060ff16611ef2848261300b565b9250925050915091565b5f5f611f0787610d10565b5f888152600d602052604090205490915060ff166003816006811115611f2f57611f2f613c8f565b1488600383909192611f57576040516337e1404160e01b815260040161099f93929190614610565b5050505f888152600e6020908152604091829020825160608101845281548152600182015492810183905260029091015492810192909252899042811015611fbb576040516308f3034360e31b81526004810192909252602482015260440161099f565b5050606083015160200151899042811115611ff25760405163017e35e560e71b81526004810192909252602482015260440161099f565b505061016083015189901561201d57604051637eb9cea960e11b815260040161099f91815260200190565b505f888860405161202f9291906146ab565b60408051918290039091205f8c815260086020908152838220600c01839055600d905291909120805460ff1916600417905560155490915061207190426142ad565b5f8b8152600e6020526040908190206002019190915560a08501519051632f0e1bbf60e01b81526001600160a01b0390911690632f0e1bbf906120be908d9085908c908c906004016146ba565b6020604051808303815f875af11580156120da573d5f5f3e3d5ffd5b505050506040513d601f19601f820116820180604052508101906120fe9190614530565b945088888661212257604051632f9f8ab960e01b815260040161099f9291906146d9565b5050897f7cc27e4a5626cbc4f8ba1a927b0448de55e6a114bc87660331270c5109ade0718a8a6040516121569291906146d9565b60405180910390a2895f5160206149e75f395f51905f526003600460405161217f92919061454b565b60405180910390a25050505095945050505050565b5f5f61219f89610d10565b5f8a8152600d602052604090205490915060ff1660048160068111156121c7576121c7613c8f565b148a6004839091926121ef576040516337e1404160e01b815260040161099f93929190614610565b5050505f8a8152600e602090815260409182902082516060810184528154815260018201549281019290925260020154918101829052908b9042811015612252576040516308f3034360e31b81526004810192909252602482015260440161099f565b50505f8b8152600860205260409020600d0161226f8a8c836146ec565b505f8b8152600d6020526040902080546005919060ff191660018302179055508261010001516001600160a01b0316635bf48e3a8b8b6040516122b39291906146ab565b6040519081900381206001600160e01b031960e084901b1682526122e1918c908c908c908c906004016147a0565b602060405180830381865afa1580156122fc573d5f5f3e3d5ffd5b505050506040513d601f19601f820116820180604052508101906123209190614530565b935089898561234457604051632f9f8ab960e01b815260040161099f9291906146d9565b505061234f8b613193565b8a7f02a24c3402076671e129905ba4579d884b1f94ded1c07fc03d26d11b60bca1698b8b6040516123819291906146d9565b60405180910390a28a5f5160206149e75f395f51905f52600460056040516123aa92919061454b565b60405180910390a2505050979650505050505050565b6123c8612ddd565b80515f5b81811015612427576001600b8483815181106123ea576123ea614264565b60200260200101516040516123ff9190614566565b908152604051908190036020019020805491151560ff199092169190911790556001016123cc565b507f027b83cad653f54850fef6faa8c705f73a53e7f8de50a3a33ac1e0e3a5c0be81826040516119da919061457c565b5f546001600160a01b031633148061247957506003546001600160a01b031633145b6124c55760405162461bcd60e51b815260206004820152601c60248201527f4f6e6c79205265676973747279206f7220536c617368696e674d677200000000604482015260640161099f565b5f8160ff161180156124db5750600d60ff821611155b6125205760405162461bcd60e51b815260206004820152601660248201527524b73b30b634b2103330b4b63ab932903932b0b9b7b760511b604482015260640161099f565b61253e828260ff16600d81111561253957612539613c8f565b613542565b5050565b61254a612ddd565b6001600160a01b0381166125a05760405162461bcd60e51b815260206004820152601f60248201527f496e76616c696420536c617368696e674d616e61676572206164647265737300604482015260640161099f565b600380546001600160a01b0319166001600160a01b0383169081179091556040517f4ccc8ed483c7c44c3602c3c38afc2c014a8f1d2dc210dfe58ebeeeead230f8e0905f90a250565b6003546001600160a01b0316331461263a5760405162461bcd60e51b815260206004820152601460248201527327b7363c9029b630b9b434b733a6b0b730b3b2b960611b604482015260640161099f565b60025460405163c1ab0f1f60e01b815260048101849052602481018390526001600160a01b039091169063c1ab0f1f906044015f604051808303815f87803b158015612684575f5ffd5b505af1158015612696573d5f5f3e3d5ffd5b50505050817f4f41a3b0a032ebcae925f2ace77d507435840ca4b2dbaffdd7723fa8d72ee54282604051611b6191815260200190565b6126d4612ddd565b6001600160a01b0381161580159061270557505f828152600960205260409020546001600160a01b03828116911614155b8290612727576040516381c4951960e01b815260040161099f91815260200190565b505f8281526009602090815260409182902080546001600160a01b0319166001600160a01b03851617905590518381527ff4041a3f914dac3bc9bf5f003ba41f28dbb84abe42f4e07c76266f5c8ceecb6991016119da565b612787612ddd565b60058190556040518181527fba0716ba1ee2ea8ecc4c64119b4537cdb42a99d82acf92af5b87607b8b52355290602001610ac7565b620f424080611007565b6127ce612ddd565b6001600160a01b038116158015906127f457506001546001600160a01b03828116911614155b8190612814576040516320252f0b60e01b815260040161099f9190613c26565b50600180546001600160a01b0319166001600160a01b0383161790556040517fad4055f18cdad6f4bdd71afe3a72cbeee964217943e1bde38f138289e981a9a790610ac7908390613c26565b612868612ddd565b61287560208201826147eb565b63ffffffff1661288b60408301602084016147eb565b63ffffffff16101580156128b057505f6128a860208301836147eb565b63ffffffff16115b6128f05760405162461bcd60e51b8152602060048201526011602482015270125b9d985b1a59081d1a1c995cda1bdb19607a1b604482015260640161099f565b8060125f84600381111561290657612906613c8f565b600381111561291757612917613c8f565b815260208101919091526040015f206129319160026138e7565b5081600381111561294457612944613c8f565b7f8b56fae526eee054f0849759a99fc7d4ff3823824ebf097a56f7d78adb6b34fa82604051611b619190614804565b61297b612ddd565b6001600160a01b0381166129a4575f604051631e4fbdf760e01b815260040161099f9190613c26565b610ae381612e7c565b5f818152600d602052604081205460ff16818160068111156129d1576129d1613c8f565b036129f657826001826040516337e1404160e01b815260040161099f93929190614610565b6005816006811115612a0a57612a0a613c8f565b03612a2b5760405163462c7bed60e01b81526004810184905260240161099f565b6006816006811115612a3f57612a3f613c8f565b03612a6057604051633de16e3560e11b81526004810184905260240161099f565b5f612a6b848361300b565b9350905080612a9057604051639f65d93560e01b81526004810185905260240161099f565b5f848152600d6020526040902080546006919060ff191660018302179055505f848152600f60205260409020805484919060ff1916600183600d811115612ad957612ad9613c8f565b0217905550835f5160206149e75f395f51905f52836006604051612afe92919061454b565b60405180910390a2837fe20209be7caae6e76291267cfa711353981274bf127e94f16eb9ec44b68582bb8385604051612b38929190614842565b60405180910390a25050919050565b612b4f612ddd565b6001600160a01b03811615801590612b7457505f546001600160a01b03828116911614155b8190612b94576040516375ac4eb760e11b815260040161099f9190613c26565b505f80546001600160a01b0319166001600160a01b0383161790556040517f80052b810d39120cf6c976cca504a21703f585521dc7a41c6d241090e6c579b690610ac7908390613c26565b6001600160a01b0381165f90815260076020526040902054819060ff1615612c1b5760405163b29d459560e01b815260040161099f9190613c26565b506001600160a01b0381165f9081526007602052604090819020805460ff19166001179055517fb8d368517268f297fff00825d67d098763117d061360d31027be5b2e1a59d46790610ac7908390613c26565b5f807ff0c57e16840df040f15088dc2f81fe391c3923bec73e23a9662efc9c229c6a005b92915050565b612ca06136aa565b610ae3816136cf565b8035612cec5760405162461bcd60e51b8152602060048201526012602482015271496e76616c696420444b472077696e646f7760701b604482015260640161099f565b5f816020013511612d385760405162461bcd60e51b8152602060048201526016602482015275496e76616c696420636f6d707574652077696e646f7760501b604482015260640161099f565b5f816040013511612d875760405162461bcd60e51b8152602060048201526019602482015278496e76616c69642064656372797074696f6e2077696e646f7760381b604482015260640161099f565b80356013819055602080830135601481905560408085013560158190558151948552928401919091528201527f7e86ba16b805e2835af5c5b7aa5a942ced8bcc1fb95a05fbe42dae3862350a1690606001610ac7565b33612de6611c60565b6001600160a01b03161461194c573360405163118cdaa760e01b815260040161099f9190613c26565b6040516001600160a01b038481166024830152838116604483015260648201839052612e769186918216906323b872dd906084015b604051602081830303815290604052915060e01b6020820180516001600160e01b0383818316178352505050506136d7565b50505050565b7f9016d09d72d40fdae2fd8ceac6b6234c7706214fd39c1cd1e609a0528c19930080546001600160a01b031981166001600160a01b03848116918217845560405192169182907f8be0079c531659141344cd1fd0a4f28419497f9722a3daafe3b4186f6b6457e0905f90a3505050565b5f818152600f602052604090205460609060ff16600181600d811115612f1457612f14613c8f565b1480612f315750600281600d811115612f2f57612f2f613c8f565b145b15612f69575f5b604051908082528060200260200182016040528015612f61578160200160208202803683370190505b509392505050565b5f5460405162beb08960e51b8152600481018590526001600160a01b03909116906317d61120906024015f60405180830381865afa925050508015612fcf57506040513d5f823e601f3d908101601f19168201604052612fcc919081019061485d565b60015b612fd9575f612f38565b9392505050565b61300683846001600160a01b031663a9059cbb8585604051602401612e449291906148ec565b505050565b5f828152600e60209081526040808320815160608101835281548152600182015493810193909352600201548282015282549051632800d82960e01b81526004810186905283929183916001600160a01b0390911690632800d82990602401602060405180830381865afa158015613085573d5f5f3e3d5ffd5b505050506040513d601f19601f820116820180604052508101906130a991906143c0565b905060018560068111156130bf576130bf613c8f565b1480156130cb57508042115b156130de5760018093509350505061318c565b60028560068111156130f2576130f2613c8f565b1480156130ff5750815142115b15613113576001600393509350505061318c565b600385600681111561312757613127613c8f565b1480156131375750816020015142115b1561314b576001600693509350505061318c565b600485600681111561315f5761315f613c8f565b14801561316f5750816040015142115b15613183576001600a93509350505061318c565b5f5f9350935050505b9250929050565b5f805460405162beb08960e51b8152600481018490526001600160a01b03909116906317d61120906024015f60405180830381865afa1580156131d8573d5f5f3e3d5ffd5b505050506040513d5f823e601f3d908101601f191682016040526131ff919081019061485d565b80515f848152600c60209081526040808320805490849055601190925282205493945091926001600160a01b03169082900361329d576002546040516341489f1560e01b81526001600160a01b03909116906341489f159061326990889088908690600401614905565b5f604051808303815f87803b158015613280575f5ffd5b505af1158015613292573d5f5f3e3d5ffd5b505050505050505050565b825f0361333e575f858152601060205260409020546001600160a01b031680156132d5576132d56001600160a01b0383168285612fe0565b6002546040516341489f1560e01b81526001600160a01b03909116906341489f159061330990899089908790600401614905565b5f604051808303815f87803b158015613320575f5ffd5b505af1158015613332573d5f5f3e3d5ffd5b50505050505050505050565b5f836001600160401b03811115613357576133576139d9565b604051908082528060200260200182016040528015613380578160200160208202803683370190505b5090505f61338e8585614935565b90505f805b868110156133cd57828482815181106133ae576133ae614264565b60209081029190910101526133c383836142ad565b9150600101613393565b505f6133d9828761429a565b905080156134165780846133ee60018a61429a565b815181106133fe576133fe614264565b6020026020010181815161341291906142ad565b9052505b600154613430906001600160a01b0387811691168861373a565b600154604051636ec640c760e11b81526001600160a01b039091169063dd8c818e906134649088908c908990600401614984565b5f604051808303815f87803b15801561347b575f5ffd5b505af115801561348d573d5f5f3e3d5ffd5b50506001546134ab92506001600160a01b038881169250165f61373a565b887fac9fe8ad7f55eac03284399116ecafc104f10459773f4cdf47063c46e5be335a89866040516134dd9291906149b9565b60405180910390a26002546040516341489f1560e01b81526001600160a01b03909116906341489f1590613519908c908c908a90600401614905565b5f604051808303815f87803b158015613530575f5ffd5b505af1158015610936573d5f5f3e3d5ffd5b5f828152600d602052604081205460ff169081600681111561356657613566613c8f565b0361358b57826001826040516337e1404160e01b815260040161099f93929190614610565b600581600681111561359f5761359f613c8f565b036135c05760405163462c7bed60e01b81526004810184905260240161099f565b60068160068111156135d4576135d4613c8f565b036135f557604051633de16e3560e11b81526004810184905260240161099f565b5f838152600d6020526040902080546006919060ff191660018302179055505f838152600f60205260409020805483919060ff1916600183600d81111561363e5761363e613c8f565b0217905550825f5160206149e75f395f51905f5282600660405161366392919061454b565b60405180910390a2827fe20209be7caae6e76291267cfa711353981274bf127e94f16eb9ec44b68582bb828460405161369d929190614842565b60405180910390a2505050565b6136b26137ca565b61194c57604051631afcd79f60e31b815260040160405180910390fd5b61297b6136aa565b5f5f60205f8451602086015f885af1806136f6576040513d5f823e3d81fd5b50505f513d9150811561370d57806001141561371a565b6001600160a01b0384163b155b15612e765783604051635274afe760e01b815260040161099f9190613c26565b5f836001600160a01b031663095ea7b3848460405160240161375d9291906148ec565b604051602081830303815290604052915060e01b6020820180516001600160e01b038381831617835250505050905061379684826137e3565b612e76576137c084856001600160a01b031663095ea7b3865f604051602401612e449291906148ec565b612e7684826136d7565b5f6137d3612c6e565b54600160401b900460ff16919050565b5f5f5f5f60205f8651602088015f8a5af192503d91505f519050828015613822575081156138145780600114613822565b5f866001600160a01b03163b115b9695505050505050565b604080516101e081019091525f808252602082019081526020015f8152602001613854613983565b81525f602082018190526040820181905260608083018190526080830181905260a0830182905260c0830182905260e08301829052610100830182905261012083015261014082018190526101609091015290565b82600281019282156138d7579160200282015b828111156138d75782518255916020019190600101906138bc565b506138e39291506139a1565b5090565b6001830191839082156138d7579160200282015f5b8382111561394657833563ffffffff1683826101000a81548163ffffffff021916908363ffffffff16021790555092602001926004016020816003010492830192600103026138fc565b80156139765782816101000a81549063ffffffff0219169055600401602081600301049283019260010302613946565b50506138e39291506139a1565b60405180604001604052806002906020820280368337509192915050565b5b808211156138e3575f81556001016139a2565b6001600160a01b0381168114610ae3575f5ffd5b5f60608284031215611007575f5ffd5b634e487b7160e01b5f52604160045260245ffd5b604051601f8201601f191681016001600160401b0381118282101715613a1557613a156139d9565b604052919050565b5f6001600160401b03821115613a3557613a356139d9565b5060051b60200190565b5f82601f830112613a4e575f5ffd5b81356001600160401b03811115613a6757613a676139d9565b613a7a601f8201601f19166020016139ed565b818152846020838601011115613a8e575f5ffd5b816020850160208301375f918101602001919091529392505050565b5f82601f830112613ab9575f5ffd5b8135613acc613ac782613a1d565b6139ed565b8082825260208201915060208360051b860101925085831115613aed575f5ffd5b602085015b83811015613b2d5780356001600160401b03811115613b0f575f5ffd5b613b1e886020838a0101613a3f565b84525060209283019201613af2565b5095945050505050565b5f5f5f5f5f5f5f5f610140898b031215613b4f575f5ffd5b8835613b5a816139b5565b97506020890135613b6a816139b5565b96506040890135613b7a816139b5565b95506060890135613b8a816139b5565b94506080890135613b9a816139b5565b935060a08901359250613bb08a60c08b016139c9565b91506101208901356001600160401b03811115613bcb575f5ffd5b613bd78b828c01613aaa565b9150509295985092959890939650565b5f60208284031215613bf7575f5ffd5b8135612fd9816139b5565b5f60208284031215613c12575f5ffd5b5035919050565b6001600160a01b03169052565b6001600160a01b0391909116815260200190565b803560048110613c48575f5ffd5b919050565b5f5f60408385031215613c5e575f5ffd5b613c6783613c3a565b946020939093013593505050565b5f60608284031215613c85575f5ffd5b612fd983836139c9565b634e487b7160e01b5f52602160045260245ffd5b600e8110613cb357613cb3613c8f565b9052565b60208101612c928284613ca3565b60048110613cb357613cb3613c8f565b5f81518084528060208401602086015e5f602082860101526020601f19601f83011685010191505092915050565b8e8152613d13602082018f613cc5565b8c60408201528b6060820152613d2c608082018c613c19565b6101c060a08201525f613d436101c083018c613cd5565b82810360c0840152613d55818c613cd5565b9050613d6460e084018b613c19565b613d7261010084018a613c19565b8761012084015286610140840152828103610160840152613d938187613cd5565b915050613da4610180830185613c19565b8215156101a08301529f9e505050505050505050505050505050565b805f5b6002811015612e76578151845260209384019390910190600101613dc3565b805182525f6020820151613df96020850182613cc5565b50604082015160408401526060820151613e166060850182613dc0565b50608082015160a084015260a0820151613e3360c0850182613c19565b5060c082015161020060e0850152613e4f610200850182613cd5565b905060e0830151848203610100860152613e698282613cd5565b915050610100830151613e80610120860182613c19565b50610120830151613e95610140860182613c19565b506101408301516101608501526101608301516101808501526101808301518482036101a0860152613ec78282613cd5565b9150506101a0830151613ede6101c0860182613c19565b506101c08301518015156101e0860152612f61565b602081525f612fd96020830184613de2565b5f60208284031215613f15575f5ffd5b81356001600160401b03811115613f2a575f5ffd5b613f3684828501613a3f565b949350505050565b5f60208284031215613f4e575f5ffd5b81356001600160401b03811115613f63575f5ffd5b82016101008185031215612fd9575f5ffd5b828152604060208201525f613f366040830184613de2565b5f60208284031215613f9d575f5ffd5b81356001600160401b03811115613fb2575f5ffd5b613f3684828501613aaa565b5f5f60408385031215613fcf575f5ffd5b823591506020830135613fe1816139b5565b809150509250929050565b5f5f60408385031215613ffd575f5ffd5b50508035926020909101359150565b81518152602080830151908201526040808301519082015260608101612c92565b821515815260408101612fd96020830184613ca3565b5f5f83601f840112614053575f5ffd5b5081356001600160401b03811115614069575f5ffd5b60208301915083602082850101111561318c575f5ffd5b5f5f5f5f5f60608688031215614094575f5ffd5b8535945060208601356001600160401b038111156140b0575f5ffd5b6140bc88828901614043565b90955093505060408601356001600160401b038111156140da575f5ffd5b6140e688828901614043565b969995985093965092949392505050565b5f5f5f5f5f5f5f6080888a03121561410d575f5ffd5b8735965060208801356001600160401b03811115614129575f5ffd5b6141358a828b01614043565b90975095505060408801356001600160401b03811115614153575f5ffd5b61415f8a828b01614043565b90955093505060608801356001600160401b0381111561417d575f5ffd5b6141898a828b01614043565b989b979a50959850939692959293505050565b5f5f604083850312156141ad575f5ffd5b82359150602083013560ff81168114613fe1575f5ffd5b60078110613cb357613cb3613c8f565b60208101612c9282846141c4565b5f5f606083850312156141f3575f5ffd5b6141fc83613c3a565b91508360608401111561420d575f5ffd5b50926020919091019150565b600181811c9082168061422d57607f821691505b60208210810361100757634e487b7160e01b5f52602260045260245ffd5b5f6020828403121561425b575f5ffd5b612fd982613c3a565b634e487b7160e01b5f52603260045260245ffd5b60208101612c928284613cc5565b634e487b7160e01b5f52601160045260245ffd5b81810381811115612c9257612c92614286565b80820180821115612c9257612c92614286565b5f600182016142d1576142d1614286565b5060010190565b5f5f8335601e198436030181126142ed575f5ffd5b8301803591506001600160401b03821115614306575f5ffd5b60200191503681900382131561318c575f5ffd5b8015158114610ae3575f5ffd5b5f60208284031215614337575f5ffd5b8135612fd98161431a565b81835281816020850137505f828201602090810191909152601f909101601f19169091010190565b88815287602082015260a060408201525f61438960a08301888a614342565b828103606084015261439c818789614342565b905082810360808401526143b1818587614342565b9b9a5050505050505050505050565b5f602082840312156143d0575f5ffd5b5051919050565b601f82111561300657805f5260205f20601f840160051c810160208510156143fc5750805b601f840160051c820191505b8181101561441b575f8155600101614408565b5050505050565b5f19600383901b1c191660019190911b1790565b81516001600160401b0381111561444f5761444f6139d9565b6144638161445d8454614219565b846143d7565b6020601f821160018114614490575f831561447e5750848201515b6144888482614422565b85555061441b565b5f84815260208120601f198516915b828110156144bf578785015182556020948501946001909201910161449f565b50848210156144dc57868401515f19600387901b60f8161c191681555b50505050600190811b01905550565b838152602081018390526080810160408201835f5b600281101561452557815163ffffffff16835260209283019290910190600101614500565b505050949350505050565b5f60208284031215614540575f5ffd5b8151612fd98161431a565b6040810161455982856141c4565b612fd960208301846141c4565b5f82518060208501845e5f920191825250919050565b5f602082016020835280845180835260408501915060408160051b8601019250602086015f5b828110156145d357603f198786030184526145be858351613cd5565b945060209384019391909101906001016145a2565b50929695505050505050565b6020808252601790820152764f6e6c79204369706865726e6f6465526567697374727960481b604082015260600190565b8381526060810161462460208301856141c4565b613f3660408301846141c4565b5f8151808452602084019350602083015f5b8281101561466a5781516001600160a01b0316865260209586019590910190600101614643565b5093949350505050565b848152836020820152608060408201525f6146926080830185614631565b905060018060a01b038316606083015295945050505050565b818382375f9101908152919050565b848152836020820152606060408201525f613822606083018486614342565b602081525f613f36602083018486614342565b6001600160401b03831115614703576147036139d9565b614717836147118354614219565b836143d7565b5f601f841160018114614743575f85156147315750838201355b61473b8682614422565b84555061441b565b5f83815260208120601f198716915b828110156147725786850135825560209485019460019092019101614752565b508682101561478e575f1960f88860031b161c19848701351681555b505060018560011b0183555050505050565b858152606060208201525f6147b9606083018688614342565b82810360408401526147cc818587614342565b98975050505050505050565b803563ffffffff81168114613c48575f5ffd5b5f602082840312156147fb575f5ffd5b612fd9826147d8565b6040810181835f5b60028110156148395763ffffffff614823836147d8565b168352602092830192919091019060010161480c565b50505092915050565b6040810161485082856141c4565b612fd96020830184613ca3565b5f6020828403121561486d575f5ffd5b81516001600160401b03811115614882575f5ffd5b8201601f81018413614892575f5ffd5b80516148a0613ac782613a1d565b8082825260208201915060208360051b8501019250868311156148c1575f5ffd5b6020840193505b828410156138225783516148db816139b5565b8252602093840193909101906148c8565b6001600160a01b03929092168252602082015260400190565b838152606060208201525f61491d6060830185614631565b905060018060a01b0383166040830152949350505050565b5f8261494f57634e487b7160e01b5f52601260045260245ffd5b500490565b5f8151808452602084019350602083015f5b8281101561466a578151865260209586019590910190600101614966565b6001600160a01b03841681526060602082018190525f906149a790830185614631565b82810360408401526138228185614954565b604081525f6149cb6040830185614631565b82810360208401526149dd8185614954565b9594505050505056fe1b418a230a21d37a078bf8f16decbde8ccceacd77159371f62f0d4ea00d19967a164736f6c634300081c000a",
  "linkReferences": {},
  "deployedLinkReferences": {},
  "immutableReferences": {},
  "inputSourceName": "project/contracts/Enclave.sol",
  "buildInfoId": "solc-0_8_28-561f4408bcfee777a1360e3f4f4b4e2d1bea7249"
}