{
  "_format": "hh3-artifact-1",
  "contractName": "Enclave",
  "sourceName": "contracts/Enclave.sol",
  "abi": [
    {
      "inputs": [],
      "stateMutability": "nonpayable",
      "type": "constructor"
    },
    {
      "inputs": [
        {
          "internalType": "uint256",
          "name": "size",
          "type": "uint256"
        },
        {
          "internalType": "uint256",
          "name": "minimum",
          "type": "uint256"
        }
      ],
      "name": "BelowMinCommitteeSize",
      "type": "error"
    },
    {
      "inputs": [
        {
          "internalType": "uint256",
          "name": "threshold",
          "type": "uint256"
        },
        {
          "internalType": "uint256",
          "name": "minimum",
          "type": "uint256"
        }
      ],
      "name": "BelowMinThreshold",
      "type": "error"
    },
    {
      "inputs": [
        {
          "internalType": "uint256",
          "name": "value",
          "type": "uint256"
        }
      ],
      "name": "BpsExceedsMax",
      "type": "error"
    },
    {
      "inputs": [
        {
          "internalType": "uint256",
          "name": "e3Id",
          "type": "uint256"
        }
      ],
      "name": "CiphertextOutputAlreadyPublished",
      "type": "error"
    },
    {
      "inputs": [
        {
          "internalType": "uint256",
          "name": "e3Id",
          "type": "uint256"
        }
      ],
      "name": "CiphertextOutputNotPublished",
      "type": "error"
    },
    {
      "inputs": [
        {
          "internalType": "uint256",
          "name": "e3Id",
          "type": "uint256"
        },
        {
          "internalType": "uint256",
          "name": "expiration",
          "type": "uint256"
        }
      ],
      "name": "CommitteeDutiesCompleted",
      "type": "error"
    },
    {
      "inputs": [],
      "name": "CommitteeSelectionFailed",
      "type": "error"
    },
    {
      "inputs": [
        {
          "internalType": "enum IEnclave.CommitteeSize",
          "name": "committeeSize",
          "type": "uint8"
        }
      ],
      "name": "CommitteeSizeNotConfigured",
      "type": "error"
    },
    {
      "inputs": [
        {
          "internalType": "enum IEnclave.CommitteeSize",
          "name": "committeeSize",
          "type": "uint8"
        }
      ],
      "name": "CommitteeSizeTooSmall",
      "type": "error"
    },
    {
      "inputs": [
        {
          "internalType": "uint256",
          "name": "e3Id",
          "type": "uint256"
        }
      ],
      "name": "E3AlreadyComplete",
      "type": "error"
    },
    {
      "inputs": [
        {
          "internalType": "uint256",
          "name": "e3Id",
          "type": "uint256"
        }
      ],
      "name": "E3AlreadyFailed",
      "type": "error"
    },
    {
      "inputs": [
        {
          "internalType": "uint256",
          "name": "e3Id",
          "type": "uint256"
        }
      ],
      "name": "E3DoesNotExist",
      "type": "error"
    },
    {
      "inputs": [
        {
          "internalType": "uint256",
          "name": "e3Id",
          "type": "uint256"
        }
      ],
      "name": "E3NotFailed",
      "type": "error"
    },
    {
      "inputs": [
        {
          "internalType": "contract IE3Program",
          "name": "e3Program",
          "type": "address"
        }
      ],
      "name": "E3ProgramNotAllowed",
      "type": "error"
    },
    {
      "inputs": [
        {
          "internalType": "uint256",
          "name": "e3Id",
          "type": "uint256"
        }
      ],
      "name": "FailureConditionNotMet",
      "type": "error"
    },
    {
      "inputs": [
        {
          "internalType": "uint256",
          "name": "e3Id",
          "type": "uint256"
        },
        {
          "internalType": "uint256",
          "name": "inputDeadline",
          "type": "uint256"
        }
      ],
      "name": "InputDeadlineNotReached",
      "type": "error"
    },
    {
      "inputs": [
        {
          "internalType": "contract IBondingRegistry",
          "name": "bondingRegistry",
          "type": "address"
        }
      ],
      "name": "InvalidBondingRegistry",
      "type": "error"
    },
    {
      "inputs": [
        {
          "internalType": "contract ICiphernodeRegistry",
          "name": "ciphernodeRegistry",
          "type": "address"
        }
      ],
      "name": "InvalidCiphernodeRegistry",
      "type": "error"
    },
    {
      "inputs": [
        {
          "internalType": "uint256",
          "name": "duration",
          "type": "uint256"
        }
      ],
      "name": "InvalidDuration",
      "type": "error"
    },
    {
      "inputs": [
        {
          "internalType": "bytes32",
          "name": "encryptionSchemeId",
          "type": "bytes32"
        }
      ],
      "name": "InvalidEncryptionScheme",
      "type": "error"
    },
    {
      "inputs": [
        {
          "internalType": "contract IERC20",
          "name": "feeToken",
          "type": "address"
        }
      ],
      "name": "InvalidFeeToken",
      "type": "error"
    },
    {
      "inputs": [],
      "name": "InvalidInitialization",
      "type": "error"
    },
    {
      "inputs": [
        {
          "internalType": "uint256",
          "name": "deadline",
          "type": "uint256"
        }
      ],
      "name": "InvalidInputDeadline",
      "type": "error"
    },
    {
      "inputs": [
        {
          "internalType": "uint256",
          "name": "end",
          "type": "uint256"
        }
      ],
      "name": "InvalidInputDeadlineEnd",
      "type": "error"
    },
    {
      "inputs": [
        {
          "internalType": "uint256",
          "name": "start",
          "type": "uint256"
        }
      ],
      "name": "InvalidInputDeadlineStart",
      "type": "error"
    },
    {
      "inputs": [
        {
          "internalType": "bytes",
          "name": "output",
          "type": "bytes"
        }
      ],
      "name": "InvalidOutput",
      "type": "error"
    },
    {
      "inputs": [
        {
          "internalType": "uint256",
          "name": "e3Id",
          "type": "uint256"
        },
        {
          "internalType": "enum IEnclave.E3Stage",
          "name": "expected",
          "type": "uint8"
        },
        {
          "internalType": "enum IEnclave.E3Stage",
          "name": "actual",
          "type": "uint8"
        }
      ],
      "name": "InvalidStage",
      "type": "error"
    },
    {
      "inputs": [],
      "name": "InvalidThresholdValues",
      "type": "error"
    },
    {
      "inputs": [],
      "name": "InvalidTimeoutWindow",
      "type": "error"
    },
    {
      "inputs": [],
      "name": "MinSizeBelowMinThreshold",
      "type": "error"
    },
    {
      "inputs": [
        {
          "internalType": "address",
          "name": "module",
          "type": "address"
        }
      ],
      "name": "ModuleAlreadyEnabled",
      "type": "error"
    },
    {
      "inputs": [
        {
          "internalType": "address",
          "name": "module",
          "type": "address"
        }
      ],
      "name": "ModuleNotEnabled",
      "type": "error"
    },
    {
      "inputs": [
        {
          "internalType": "uint256",
          "name": "e3Id",
          "type": "uint256"
        }
      ],
      "name": "NoPaymentToRefund",
      "type": "error"
    },
    {
      "inputs": [],
      "name": "NotInitializing",
      "type": "error"
    },
    {
      "inputs": [],
      "name": "OnlyCiphernodeRegistry",
      "type": "error"
    },
    {
      "inputs": [],
      "name": "OnlyCiphernodeRegistryOrSlashingManager",
      "type": "error"
    },
    {
      "inputs": [],
      "name": "OnlySlashingManager",
      "type": "error"
    },
    {
      "inputs": [
        {
          "internalType": "address",
          "name": "owner",
          "type": "address"
        }
      ],
      "name": "OwnableInvalidOwner",
      "type": "error"
    },
    {
      "inputs": [
        {
          "internalType": "address",
          "name": "account",
          "type": "address"
        }
      ],
      "name": "OwnableUnauthorizedAccount",
      "type": "error"
    },
    {
      "inputs": [
        {
          "internalType": "uint256",
          "name": "value",
          "type": "uint256"
        }
      ],
      "name": "PaymentRequired",
      "type": "error"
    },
    {
      "inputs": [
        {
          "internalType": "uint256",
          "name": "e3Id",
          "type": "uint256"
        }
      ],
      "name": "PlaintextOutputAlreadyPublished",
      "type": "error"
    },
    {
      "inputs": [
        {
          "internalType": "address",
          "name": "token",
          "type": "address"
        }
      ],
      "name": "SafeERC20FailedOperation",
      "type": "error"
    },
    {
      "inputs": [
        {
          "internalType": "uint256",
          "name": "threshold",
          "type": "uint256"
        }
      ],
      "name": "ThresholdTooSmall",
      "type": "error"
    },
    {
      "inputs": [],
      "name": "TreasuryRequired",
      "type": "error"
    },
    {
      "inputs": [
        {
          "internalType": "uint256",
          "name": "value",
          "type": "uint256"
        }
      ],
      "name": "UtilizationBpsExceedsMax",
      "type": "error"
    },
    {
      "anonymous": false,
      "inputs": [
        {
          "indexed": false,
          "internalType": "address",
          "name": "bondingRegistry",
          "type": "address"
        }
      ],
      "name": "BondingRegistrySet",
      "type": "event"
    },
    {
      "anonymous": false,
      "inputs": [
        {
          "indexed": false,
          "internalType": "address",
          "name": "ciphernodeRegistry",
          "type": "address"
        }
      ],
      "name": "CiphernodeRegistrySet",
      "type": "event"
    },
    {
      "anonymous": false,
      "inputs": [
        {
          "indexed": true,
          "internalType": "uint256",
          "name": "e3Id",
          "type": "uint256"
        },
        {
          "indexed": false,
          "internalType": "bytes",
          "name": "ciphertextOutput",
          "type": "bytes"
        }
      ],
      "name": "CiphertextOutputPublished",
      "type": "event"
    },
    {
      "anonymous": false,
      "inputs": [
        {
          "indexed": true,
          "internalType": "uint256",
          "name": "e3Id",
          "type": "uint256"
        }
      ],
      "name": "CommitteeFinalized",
      "type": "event"
    },
    {
      "anonymous": false,
      "inputs": [
        {
          "indexed": true,
          "internalType": "uint256",
          "name": "e3Id",
          "type": "uint256"
        }
      ],
      "name": "CommitteeFormed",
      "type": "event"
    },
    {
      "anonymous": false,
      "inputs": [
        {
          "indexed": true,
          "internalType": "enum IEnclave.CommitteeSize",
          "name": "size",
          "type": "uint8"
        },
        {
          "indexed": false,
          "internalType": "uint32[2]",
          "name": "threshold",
          "type": "uint32[2]"
        }
      ],
      "name": "CommitteeThresholdsUpdated",
      "type": "event"
    },
    {
      "anonymous": false,
      "inputs": [
        {
          "indexed": true,
          "internalType": "uint256",
          "name": "e3Id",
          "type": "uint256"
        },
        {
          "indexed": false,
          "internalType": "enum IEnclave.E3Stage",
          "name": "failedAtStage",
          "type": "uint8"
        },
        {
          "indexed": false,
          "internalType": "enum IEnclave.FailureReason",
          "name": "reason",
          "type": "uint8"
        }
      ],
      "name": "E3Failed",
      "type": "event"
    },
    {
      "anonymous": false,
      "inputs": [
        {
          "indexed": true,
          "internalType": "uint256",
          "name": "e3Id",
          "type": "uint256"
        },
        {
          "indexed": false,
          "internalType": "uint256",
          "name": "paymentAmount",
          "type": "uint256"
        },
        {
          "indexed": false,
          "internalType": "uint256",
          "name": "honestNodeCount",
          "type": "uint256"
        }
      ],
      "name": "E3FailureProcessed",
      "type": "event"
    },
    {
      "anonymous": false,
      "inputs": [
        {
          "indexed": false,
          "internalType": "contract IE3Program",
          "name": "e3Program",
          "type": "address"
        }
      ],
      "name": "E3ProgramDisabled",
      "type": "event"
    },
    {
      "anonymous": false,
      "inputs": [
        {
          "indexed": false,
          "internalType": "contract IE3Program",
          "name": "e3Program",
          "type": "address"
        }
      ],
      "name": "E3ProgramEnabled",
      "type": "event"
    },
    {
      "anonymous": false,
      "inputs": [
        {
          "indexed": true,
          "internalType": "address",
          "name": "e3RefundManager",
          "type": "address"
        }
      ],
      "name": "E3RefundManagerSet",
      "type": "event"
    },
    {
      "anonymous": false,
      "inputs": [
        {
          "indexed": false,
          "internalType": "uint256",
          "name": "e3Id",
          "type": "uint256"
        },
        {
          "components": [
            {
              "internalType": "uint256",
              "name": "seed",
              "type": "uint256"
            },
            {
              "internalType": "enum IEnclave.CommitteeSize",
              "name": "committeeSize",
              "type": "uint8"
            },
            {
              "internalType": "uint256",
              "name": "requestBlock",
              "type": "uint256"
            },
            {
              "internalType": "uint256[2]",
              "name": "inputWindow",
              "type": "uint256[2]"
            },
            {
              "internalType": "bytes32",
              "name": "encryptionSchemeId",
              "type": "bytes32"
            },
            {
              "internalType": "contract IE3Program",
              "name": "e3Program",
              "type": "address"
            },
            {
              "internalType": "uint8",
              "name": "paramSet",
              "type": "uint8"
            },
            {
              "internalType": "bytes",
              "name": "customParams",
              "type": "bytes"
            },
            {
              "internalType": "contract IDecryptionVerifier",
              "name": "decryptionVerifier",
              "type": "address"
            },
            {
              "internalType": "contract IPkVerifier",
              "name": "pkVerifier",
              "type": "address"
            },
            {
              "internalType": "bytes32",
              "name": "committeePublicKey",
              "type": "bytes32"
            },
            {
              "internalType": "bytes32",
              "name": "ciphertextOutput",
              "type": "bytes32"
            },
            {
              "internalType": "bytes",
              "name": "plaintextOutput",
              "type": "bytes"
            },
            {
              "internalType": "address",
              "name": "requester",
              "type": "address"
            },
            {
              "internalType": "bool",
              "name": "proofAggregationEnabled",
              "type": "bool"
            }
          ],
          "indexed": false,
          "internalType": "struct E3",
          "name": "e3",
          "type": "tuple"
        },
        {
          "indexed": true,
          "internalType": "contract IE3Program",
          "name": "e3Program",
          "type": "address"
        }
      ],
      "name": "E3Requested",
      "type": "event"
    },
    {
      "anonymous": false,
      "inputs": [
        {
          "indexed": true,
          "internalType": "uint256",
          "name": "e3Id",
          "type": "uint256"
        },
        {
          "indexed": false,
          "internalType": "enum IEnclave.E3Stage",
          "name": "previousStage",
          "type": "uint8"
        },
        {
          "indexed": false,
          "internalType": "enum IEnclave.E3Stage",
          "name": "newStage",
          "type": "uint8"
        }
      ],
      "name": "E3StageChanged",
      "type": "event"
    },
    {
      "anonymous": false,
      "inputs": [
        {
          "indexed": false,
          "internalType": "bytes32",
          "name": "encryptionSchemeId",
          "type": "bytes32"
        }
      ],
      "name": "EncryptionSchemeDisabled",
      "type": "event"
    },
    {
      "anonymous": false,
      "inputs": [
        {
          "indexed": false,
          "internalType": "bytes32",
          "name": "encryptionSchemeId",
          "type": "bytes32"
        }
      ],
      "name": "EncryptionSchemeEnabled",
      "type": "event"
    },
    {
      "anonymous": false,
      "inputs": [
        {
          "indexed": false,
          "internalType": "address",
          "name": "feeToken",
          "type": "address"
        }
      ],
      "name": "FeeTokenSet",
      "type": "event"
    },
    {
      "anonymous": false,
      "inputs": [
        {
          "indexed": false,
          "internalType": "uint64",
          "name": "version",
          "type": "uint64"
        }
      ],
      "name": "Initialized",
      "type": "event"
    },
    {
      "anonymous": false,
      "inputs": [
        {
          "indexed": true,
          "internalType": "uint256",
          "name": "e3Id",
          "type": "uint256"
        },
        {
          "indexed": false,
          "internalType": "bytes",
          "name": "data",
          "type": "bytes"
        },
        {
          "indexed": false,
          "internalType": "uint256",
          "name": "inputHash",
          "type": "uint256"
        },
        {
          "indexed": false,
          "internalType": "uint256",
          "name": "index",
          "type": "uint256"
        }
      ],
      "name": "InputPublished",
      "type": "event"
    },
    {
      "anonymous": false,
      "inputs": [
        {
          "indexed": false,
          "internalType": "uint256",
          "name": "maxDuration",
          "type": "uint256"
        }
      ],
      "name": "MaxDurationSet",
      "type": "event"
    },
    {
      "anonymous": false,
      "inputs": [
        {
          "indexed": true,
          "internalType": "address",
          "name": "previousOwner",
          "type": "address"
        },
        {
          "indexed": true,
          "internalType": "address",
          "name": "newOwner",
          "type": "address"
        }
      ],
      "name": "OwnershipTransferred",
      "type": "event"
    },
    {
      "anonymous": false,
      "inputs": [
        {
          "indexed": false,
          "internalType": "uint8",
          "name": "paramSet",
          "type": "uint8"
        },
        {
          "indexed": false,
          "internalType": "bytes",
          "name": "encodedParams",
          "type": "bytes"
        }
      ],
      "name": "ParamSetRegistered",
      "type": "event"
    },
    {
      "anonymous": false,
      "inputs": [
        {
          "indexed": true,
          "internalType": "uint256",
          "name": "e3Id",
          "type": "uint256"
        },
        {
          "indexed": false,
          "internalType": "bytes",
          "name": "plaintextOutput",
          "type": "bytes"
        },
        {
          "indexed": false,
          "internalType": "bytes",
          "name": "proof",
          "type": "bytes"
        }
      ],
      "name": "PlaintextOutputPublished",
      "type": "event"
    },
    {
      "anonymous": false,
      "inputs": [
        {
          "components": [
            {
              "internalType": "uint256",
              "name": "keyGenFixedPerNode",
              "type": "uint256"
            },
            {
              "internalType": "uint256",
              "name": "keyGenPerEncryptionProof",
              "type": "uint256"
            },
            {
              "internalType": "uint256",
              "name": "coordinationPerPair",
              "type": "uint256"
            },
            {
              "internalType": "uint256",
              "name": "availabilityPerNodePerSec",
              "type": "uint256"
            },
            {
              "internalType": "uint256",
              "name": "decryptionPerNode",
              "type": "uint256"
            },
            {
              "internalType": "uint256",
              "name": "publicationBase",
              "type": "uint256"
            },
            {
              "internalType": "uint256",
              "name": "verificationPerProof",
              "type": "uint256"
            },
            {
              "internalType": "address",
              "name": "protocolTreasury",
              "type": "address"
            },
            {
              "internalType": "uint16",
              "name": "marginBps",
              "type": "uint16"
            },
            {
              "internalType": "uint16",
              "name": "protocolShareBps",
              "type": "uint16"
            },
            {
              "internalType": "uint16",
              "name": "dkgUtilizationBps",
              "type": "uint16"
            },
            {
              "internalType": "uint16",
              "name": "computeUtilizationBps",
              "type": "uint16"
            },
            {
              "internalType": "uint16",
              "name": "decryptUtilizationBps",
              "type": "uint16"
            },
            {
              "internalType": "uint32",
              "name": "minCommitteeSize",
              "type": "uint32"
            },
            {
              "internalType": "uint32",
              "name": "minThreshold",
              "type": "uint32"
            }
          ],
          "indexed": false,
          "internalType": "struct IEnclave.PricingConfig",
          "name": "config",
          "type": "tuple"
        }
      ],
      "name": "PricingConfigUpdated",
      "type": "event"
    },
    {
      "anonymous": false,
      "inputs": [
        {
          "indexed": true,
          "internalType": "uint256",
          "name": "e3Id",
          "type": "uint256"
        },
        {
          "indexed": false,
          "internalType": "address[]",
          "name": "nodes",
          "type": "address[]"
        },
        {
          "indexed": false,
          "internalType": "uint256[]",
          "name": "amounts",
          "type": "uint256[]"
        }
      ],
      "name": "RewardsDistributed",
      "type": "event"
    },
    {
      "anonymous": false,
      "inputs": [
        {
          "indexed": true,
          "internalType": "uint256",
          "name": "e3Id",
          "type": "uint256"
        },
        {
          "indexed": false,
          "internalType": "uint256",
          "name": "amount",
          "type": "uint256"
        }
      ],
      "name": "SlashedFundsEscrowed",
      "type": "event"
    },
    {
      "anonymous": false,
      "inputs": [
        {
          "indexed": true,
          "internalType": "address",
          "name": "slashingManager",
          "type": "address"
        }
      ],
      "name": "SlashingManagerSet",
      "type": "event"
    },
    {
      "anonymous": false,
      "inputs": [
        {
          "components": [
            {
              "internalType": "uint256",
              "name": "dkgWindow",
              "type": "uint256"
            },
            {
              "internalType": "uint256",
              "name": "computeWindow",
              "type": "uint256"
            },
            {
              "internalType": "uint256",
              "name": "decryptionWindow",
              "type": "uint256"
            }
          ],
          "indexed": false,
          "internalType": "struct IEnclave.E3TimeoutConfig",
          "name": "config",
          "type": "tuple"
        }
      ],
      "name": "TimeoutConfigUpdated",
      "type": "event"
    },
    {
      "inputs": [],
      "name": "bondingRegistry",
      "outputs": [
        {
          "internalType": "contract IBondingRegistry",
          "name": "",
          "type": "address"
        }
      ],
      "stateMutability": "view",
      "type": "function"
    },
    {
      "inputs": [
        {
          "internalType": "uint256",
          "name": "e3Id",
          "type": "uint256"
        }
      ],
      "name": "checkFailureCondition",
      "outputs": [
        {
          "internalType": "bool",
          "name": "canFail",
          "type": "bool"
        },
        {
          "internalType": "enum IEnclave.FailureReason",
          "name": "reason",
          "type": "uint8"
        }
      ],
      "stateMutability": "view",
      "type": "function"
    },
    {
      "inputs": [],
      "name": "ciphernodeRegistry",
      "outputs": [
        {
          "internalType": "contract ICiphernodeRegistry",
          "name": "",
          "type": "address"
        }
      ],
      "stateMutability": "view",
      "type": "function"
    },
    {
      "inputs": [
        {
          "internalType": "enum IEnclave.CommitteeSize",
          "name": "",
          "type": "uint8"
        },
        {
          "internalType": "uint256",
          "name": "",
          "type": "uint256"
        }
      ],
      "name": "committeeThresholds",
      "outputs": [
        {
          "internalType": "uint32",
          "name": "threshold",
          "type": "uint32"
        }
      ],
      "stateMutability": "view",
      "type": "function"
    },
    {
      "inputs": [
        {
          "internalType": "bytes32",
          "name": "encryptionSchemeId",
          "type": "bytes32"
        }
      ],
      "name": "decryptionVerifiers",
      "outputs": [
        {
          "internalType": "contract IDecryptionVerifier",
          "name": "decryptionVerifier",
          "type": "address"
        }
      ],
      "stateMutability": "view",
      "type": "function"
    },
    {
      "inputs": [
        {
          "internalType": "contract IE3Program",
          "name": "e3Program",
          "type": "address"
        }
      ],
      "name": "disableE3Program",
      "outputs": [],
      "stateMutability": "nonpayable",
      "type": "function"
    },
    {
      "inputs": [
        {
          "internalType": "bytes32",
          "name": "encryptionSchemeId",
          "type": "bytes32"
        }
      ],
      "name": "disableEncryptionScheme",
      "outputs": [],
      "stateMutability": "nonpayable",
      "type": "function"
    },
    {
      "inputs": [
        {
          "internalType": "uint256",
          "name": "e3Id",
          "type": "uint256"
        }
      ],
      "name": "e3Payments",
      "outputs": [
        {
          "internalType": "uint256",
          "name": "e3Payment",
          "type": "uint256"
        }
      ],
      "stateMutability": "view",
      "type": "function"
    },
    {
      "inputs": [
        {
          "internalType": "contract IE3Program",
          "name": "e3Program",
          "type": "address"
        }
      ],
      "name": "e3Programs",
      "outputs": [
        {
          "internalType": "bool",
          "name": "allowed",
          "type": "bool"
        }
      ],
      "stateMutability": "view",
      "type": "function"
    },
    {
      "inputs": [],
      "name": "e3RefundManager",
      "outputs": [
        {
          "internalType": "contract IE3RefundManager",
          "name": "",
          "type": "address"
        }
      ],
      "stateMutability": "view",
      "type": "function"
    },
    {
      "inputs": [
        {
          "internalType": "uint256",
          "name": "e3Id",
          "type": "uint256"
        }
      ],
      "name": "e3s",
      "outputs": [
        {
          "internalType": "uint256",
          "name": "seed",
          "type": "uint256"
        },
        {
          "internalType": "enum IEnclave.CommitteeSize",
          "name": "committeeSize",
          "type": "uint8"
        },
        {
          "internalType": "uint256",
          "name": "requestBlock",
          "type": "uint256"
        },
        {
          "internalType": "bytes32",
          "name": "encryptionSchemeId",
          "type": "bytes32"
        },
        {
          "internalType": "contract IE3Program",
          "name": "e3Program",
          "type": "address"
        },
        {
          "internalType": "uint8",
          "name": "paramSet",
          "type": "uint8"
        },
        {
          "internalType": "bytes",
          "name": "customParams",
          "type": "bytes"
        },
        {
          "internalType": "contract IDecryptionVerifier",
          "name": "decryptionVerifier",
          "type": "address"
        },
        {
          "internalType": "contract IPkVerifier",
          "name": "pkVerifier",
          "type": "address"
        },
        {
          "internalType": "bytes32",
          "name": "committeePublicKey",
          "type": "bytes32"
        },
        {
          "internalType": "bytes32",
          "name": "ciphertextOutput",
          "type": "bytes32"
        },
        {
          "internalType": "bytes",
          "name": "plaintextOutput",
          "type": "bytes"
        },
        {
          "internalType": "address",
          "name": "requester",
          "type": "address"
        },
        {
          "internalType": "bool",
          "name": "proofAggregationEnabled",
          "type": "bool"
        }
      ],
      "stateMutability": "view",
      "type": "function"
    },
    {
      "inputs": [
        {
          "internalType": "contract IE3Program",
          "name": "e3Program",
          "type": "address"
        }
      ],
      "name": "enableE3Program",
      "outputs": [],
      "stateMutability": "nonpayable",
      "type": "function"
    },
    {
      "inputs": [
        {
          "internalType": "uint256",
          "name": "e3Id",
          "type": "uint256"
        },
        {
          "internalType": "uint256",
          "name": "amount",
          "type": "uint256"
        }
      ],
      "name": "escrowSlashedFunds",
      "outputs": [],
      "stateMutability": "nonpayable",
      "type": "function"
    },
    {
      "inputs": [],
      "name": "feeToken",
      "outputs": [
        {
          "internalType": "contract IERC20",
          "name": "",
          "type": "address"
        }
      ],
      "stateMutability": "view",
      "type": "function"
    },
    {
      "inputs": [
        {
          "internalType": "uint256",
          "name": "e3Id",
          "type": "uint256"
        }
      ],
      "name": "getDeadlines",
      "outputs": [
        {
          "components": [
            {
              "internalType": "uint256",
              "name": "dkgDeadline",
              "type": "uint256"
            },
            {
              "internalType": "uint256",
              "name": "computeDeadline",
              "type": "uint256"
            },
            {
              "internalType": "uint256",
              "name": "decryptionDeadline",
              "type": "uint256"
            }
          ],
          "internalType": "struct IEnclave.E3Deadlines",
          "name": "deadlines",
          "type": "tuple"
        }
      ],
      "stateMutability": "view",
      "type": "function"
    },
    {
      "inputs": [
        {
          "internalType": "bytes32",
          "name": "encryptionSchemeId",
          "type": "bytes32"
        }
      ],
      "name": "getDecryptionVerifier",
      "outputs": [
        {
          "internalType": "contract IDecryptionVerifier",
          "name": "",
          "type": "address"
        }
      ],
      "stateMutability": "view",
      "type": "function"
    },
    {
      "inputs": [
        {
          "internalType": "uint256",
          "name": "e3Id",
          "type": "uint256"
        }
      ],
      "name": "getE3",
      "outputs": [
        {
          "components": [
            {
              "internalType": "uint256",
              "name": "seed",
              "type": "uint256"
            },
            {
              "internalType": "enum IEnclave.CommitteeSize",
              "name": "committeeSize",
              "type": "uint8"
            },
            {
              "internalType": "uint256",
              "name": "requestBlock",
              "type": "uint256"
            },
            {
              "internalType": "uint256[2]",
              "name": "inputWindow",
              "type": "uint256[2]"
            },
            {
              "internalType": "bytes32",
              "name": "encryptionSchemeId",
              "type": "bytes32"
            },
            {
              "internalType": "contract IE3Program",
              "name": "e3Program",
              "type": "address"
            },
            {
              "internalType": "uint8",
              "name": "paramSet",
              "type": "uint8"
            },
            {
              "internalType": "bytes",
              "name": "customParams",
              "type": "bytes"
            },
            {
              "internalType": "contract IDecryptionVerifier",
              "name": "decryptionVerifier",
              "type": "address"
            },
            {
              "internalType": "contract IPkVerifier",
              "name": "pkVerifier",
              "type": "address"
            },
            {
              "internalType": "bytes32",
              "name": "committeePublicKey",
              "type": "bytes32"
            },
            {
              "internalType": "bytes32",
              "name": "ciphertextOutput",
              "type": "bytes32"
            },
            {
              "internalType": "bytes",
              "name": "plaintextOutput",
              "type": "bytes"
            },
            {
              "internalType": "address",
              "name": "requester",
              "type": "address"
            },
            {
              "internalType": "bool",
              "name": "proofAggregationEnabled",
              "type": "bool"
            }
          ],
          "internalType": "struct E3",
          "name": "e3",
          "type": "tuple"
        }
      ],
      "stateMutability": "view",
      "type": "function"
    },
    {
      "inputs": [
        {
          "components": [
            {
              "internalType": "enum IEnclave.CommitteeSize",
              "name": "committeeSize",
              "type": "uint8"
            },
            {
              "internalType": "uint256[2]",
              "name": "inputWindow",
              "type": "uint256[2]"
            },
            {
              "internalType": "contract IE3Program",
              "name": "e3Program",
              "type": "address"
            },
            {
              "internalType": "uint8",
              "name": "paramSet",
              "type": "uint8"
            },
            {
              "internalType": "bytes",
              "name": "computeProviderParams",
              "type": "bytes"
            },
            {
              "internalType": "bytes",
              "name": "customParams",
              "type": "bytes"
            },
            {
              "internalType": "bool",
              "name": "proofAggregationEnabled",
              "type": "bool"
            }
          ],
          "internalType": "struct IEnclave.E3RequestParams",
          "name": "requestParams",
          "type": "tuple"
        }
      ],
      "name": "getE3Quote",
      "outputs": [
        {
          "internalType": "uint256",
          "name": "fee",
          "type": "uint256"
        }
      ],
      "stateMutability": "view",
      "type": "function"
    },
    {
      "inputs": [
        {
          "internalType": "uint256",
          "name": "e3Id",
          "type": "uint256"
        }
      ],
      "name": "getE3Stage",
      "outputs": [
        {
          "internalType": "enum IEnclave.E3Stage",
          "name": "stage",
          "type": "uint8"
        }
      ],
      "stateMutability": "view",
      "type": "function"
    },
    {
      "inputs": [
        {
          "internalType": "uint256",
          "name": "e3Id",
          "type": "uint256"
        }
      ],
      "name": "getFailureReason",
      "outputs": [
        {
          "internalType": "enum IEnclave.FailureReason",
          "name": "reason",
          "type": "uint8"
        }
      ],
      "stateMutability": "view",
      "type": "function"
    },
    {
      "inputs": [
        {
          "internalType": "bytes32",
          "name": "encryptionSchemeId",
          "type": "bytes32"
        }
      ],
      "name": "getPkVerifier",
      "outputs": [
        {
          "internalType": "contract IPkVerifier",
          "name": "",
          "type": "address"
        }
      ],
      "stateMutability": "view",
      "type": "function"
    },
    {
      "inputs": [],
      "name": "getPricingConfig",
      "outputs": [
        {
          "components": [
            {
              "internalType": "uint256",
              "name": "keyGenFixedPerNode",
              "type": "uint256"
            },
            {
              "internalType": "uint256",
              "name": "keyGenPerEncryptionProof",
              "type": "uint256"
            },
            {
              "internalType": "uint256",
              "name": "coordinationPerPair",
              "type": "uint256"
            },
            {
              "internalType": "uint256",
              "name": "availabilityPerNodePerSec",
              "type": "uint256"
            },
            {
              "internalType": "uint256",
              "name": "decryptionPerNode",
              "type": "uint256"
            },
            {
              "internalType": "uint256",
              "name": "publicationBase",
              "type": "uint256"
            },
            {
              "internalType": "uint256",
              "name": "verificationPerProof",
              "type": "uint256"
            },
            {
              "internalType": "address",
              "name": "protocolTreasury",
              "type": "address"
            },
            {
              "internalType": "uint16",
              "name": "marginBps",
              "type": "uint16"
            },
            {
              "internalType": "uint16",
              "name": "protocolShareBps",
              "type": "uint16"
            },
            {
              "internalType": "uint16",
              "name": "dkgUtilizationBps",
              "type": "uint16"
            },
            {
              "internalType": "uint16",
              "name": "computeUtilizationBps",
              "type": "uint16"
            },
            {
              "internalType": "uint16",
              "name": "decryptUtilizationBps",
              "type": "uint16"
            },
            {
              "internalType": "uint32",
              "name": "minCommitteeSize",
              "type": "uint32"
            },
            {
              "internalType": "uint32",
              "name": "minThreshold",
              "type": "uint32"
            }
          ],
          "internalType": "struct IEnclave.PricingConfig",
          "name": "",
          "type": "tuple"
        }
      ],
      "stateMutability": "view",
      "type": "function"
    },
    {
      "inputs": [
        {
          "internalType": "uint256",
          "name": "e3Id",
          "type": "uint256"
        }
      ],
      "name": "getRequester",
      "outputs": [
        {
          "internalType": "address",
          "name": "requester",
          "type": "address"
        }
      ],
      "stateMutability": "view",
      "type": "function"
    },
    {
      "inputs": [],
      "name": "getTimeoutConfig",
      "outputs": [
        {
          "components": [
            {
              "internalType": "uint256",
              "name": "dkgWindow",
              "type": "uint256"
            },
            {
              "internalType": "uint256",
              "name": "computeWindow",
              "type": "uint256"
            },
            {
              "internalType": "uint256",
              "name": "decryptionWindow",
              "type": "uint256"
            }
          ],
          "internalType": "struct IEnclave.E3TimeoutConfig",
          "name": "config",
          "type": "tuple"
        }
      ],
      "stateMutability": "view",
      "type": "function"
    },
    {
      "inputs": [
        {
          "internalType": "address",
          "name": "_owner",
          "type": "address"
        },
        {
          "internalType": "contract ICiphernodeRegistry",
          "name": "_ciphernodeRegistry",
          "type": "address"
        },
        {
          "internalType": "contract IBondingRegistry",
          "name": "_bondingRegistry",
          "type": "address"
        },
        {
          "internalType": "contract IE3RefundManager",
          "name": "_e3RefundManager",
          "type": "address"
        },
        {
          "internalType": "contract IERC20",
          "name": "_feeToken",
          "type": "address"
        },
        {
          "internalType": "uint256",
          "name": "_maxDuration",
          "type": "uint256"
        },
        {
          "components": [
            {
              "internalType": "uint256",
              "name": "dkgWindow",
              "type": "uint256"
            },
            {
              "internalType": "uint256",
              "name": "computeWindow",
              "type": "uint256"
            },
            {
              "internalType": "uint256",
              "name": "decryptionWindow",
              "type": "uint256"
            }
          ],
          "internalType": "struct IEnclave.E3TimeoutConfig",
          "name": "config",
          "type": "tuple"
        }
      ],
      "name": "initialize",
      "outputs": [],
      "stateMutability": "nonpayable",
      "type": "function"
    },
    {
      "inputs": [
        {
          "internalType": "uint256",
          "name": "e3Id",
          "type": "uint256"
        }
      ],
      "name": "markE3Failed",
      "outputs": [
        {
          "internalType": "enum IEnclave.FailureReason",
          "name": "reason",
          "type": "uint8"
        }
      ],
      "stateMutability": "nonpayable",
      "type": "function"
    },
    {
      "inputs": [],
      "name": "maxDuration",
      "outputs": [
        {
          "internalType": "uint256",
          "name": "",
          "type": "uint256"
        }
      ],
      "stateMutability": "view",
      "type": "function"
    },
    {
      "inputs": [],
      "name": "nexte3Id",
      "outputs": [
        {
          "internalType": "uint256",
          "name": "",
          "type": "uint256"
        }
      ],
      "stateMutability": "view",
      "type": "function"
    },
    {
      "inputs": [
        {
          "internalType": "uint256",
          "name": "e3Id",
          "type": "uint256"
        }
      ],
      "name": "onCommitteeFinalized",
      "outputs": [],
      "stateMutability": "nonpayable",
      "type": "function"
    },
    {
      "inputs": [
        {
          "internalType": "uint256",
          "name": "e3Id",
          "type": "uint256"
        },
        {
          "internalType": "bytes32",
          "name": "committeePublicKey",
          "type": "bytes32"
        }
      ],
      "name": "onCommitteePublished",
      "outputs": [],
      "stateMutability": "nonpayable",
      "type": "function"
    },
    {
      "inputs": [
        {
          "internalType": "uint256",
          "name": "e3Id",
          "type": "uint256"
        },
        {
          "internalType": "uint8",
          "name": "reason",
          "type": "uint8"
        }
      ],
      "name": "onE3Failed",
      "outputs": [],
      "stateMutability": "nonpayable",
      "type": "function"
    },
    {
      "inputs": [],
      "name": "owner",
      "outputs": [
        {
          "internalType": "address",
          "name": "",
          "type": "address"
        }
      ],
      "stateMutability": "view",
      "type": "function"
    },
    {
      "inputs": [
        {
          "internalType": "uint8",
          "name": "",
          "type": "uint8"
        }
      ],
      "name": "paramSetRegistry",
      "outputs": [
        {
          "internalType": "bytes",
          "name": "",
          "type": "bytes"
        }
      ],
      "stateMutability": "view",
      "type": "function"
    },
    {
      "inputs": [
        {
          "internalType": "bytes32",
          "name": "encryptionSchemeId",
          "type": "bytes32"
        }
      ],
      "name": "pkVerifiers",
      "outputs": [
        {
          "internalType": "contract IPkVerifier",
          "name": "pkVerifier",
          "type": "address"
        }
      ],
      "stateMutability": "view",
      "type": "function"
    },
    {
      "inputs": [
        {
          "internalType": "uint256",
          "name": "e3Id",
          "type": "uint256"
        }
      ],
      "name": "processE3Failure",
      "outputs": [],
      "stateMutability": "nonpayable",
      "type": "function"
    },
    {
      "inputs": [
        {
          "internalType": "uint256",
          "name": "e3Id",
          "type": "uint256"
        },
        {
          "internalType": "bytes",
          "name": "ciphertextOutput",
          "type": "bytes"
        },
        {
          "internalType": "bytes",
          "name": "proof",
          "type": "bytes"
        }
      ],
      "name": "publishCiphertextOutput",
      "outputs": [
        {
          "internalType": "bool",
          "name": "success",
          "type": "bool"
        }
      ],
      "stateMutability": "nonpayable",
      "type": "function"
    },
    {
      "inputs": [
        {
          "internalType": "uint256",
          "name": "e3Id",
          "type": "uint256"
        },
        {
          "internalType": "bytes",
          "name": "plaintextOutput",
          "type": "bytes"
        },
        {
          "internalType": "bytes",
          "name": "proof",
          "type": "bytes"
        },
        {
          "internalType": "bytes",
          "name": "foldProof",
          "type": "bytes"
        }
      ],
      "name": "publishPlaintextOutput",
      "outputs": [
        {
          "internalType": "bool",
          "name": "success",
          "type": "bool"
        }
      ],
      "stateMutability": "nonpayable",
      "type": "function"
    },
    {
      "inputs": [],
      "name": "renounceOwnership",
      "outputs": [],
      "stateMutability": "nonpayable",
      "type": "function"
    },
    {
      "inputs": [
        {
          "components": [
            {
              "internalType": "enum IEnclave.CommitteeSize",
              "name": "committeeSize",
              "type": "uint8"
            },
            {
              "internalType": "uint256[2]",
              "name": "inputWindow",
              "type": "uint256[2]"
            },
            {
              "internalType": "contract IE3Program",
              "name": "e3Program",
              "type": "address"
            },
            {
              "internalType": "uint8",
              "name": "paramSet",
              "type": "uint8"
            },
            {
              "internalType": "bytes",
              "name": "computeProviderParams",
              "type": "bytes"
            },
            {
              "internalType": "bytes",
              "name": "customParams",
              "type": "bytes"
            },
            {
              "internalType": "bool",
              "name": "proofAggregationEnabled",
              "type": "bool"
            }
          ],
          "internalType": "struct IEnclave.E3RequestParams",
          "name": "requestParams",
          "type": "tuple"
        }
      ],
      "name": "request",
      "outputs": [
        {
          "internalType": "uint256",
          "name": "e3Id",
          "type": "uint256"
        },
        {
          "components": [
            {
              "internalType": "uint256",
              "name": "seed",
              "type": "uint256"
            },
            {
              "internalType": "enum IEnclave.CommitteeSize",
              "name": "committeeSize",
              "type": "uint8"
            },
            {
              "internalType": "uint256",
              "name": "requestBlock",
              "type": "uint256"
            },
            {
              "internalType": "uint256[2]",
              "name": "inputWindow",
              "type": "uint256[2]"
            },
            {
              "internalType": "bytes32",
              "name": "encryptionSchemeId",
              "type": "bytes32"
            },
            {
              "internalType": "contract IE3Program",
              "name": "e3Program",
              "type": "address"
            },
            {
              "internalType": "uint8",
              "name": "paramSet",
              "type": "uint8"
            },
            {
              "internalType": "bytes",
              "name": "customParams",
              "type": "bytes"
            },
            {
              "internalType": "contract IDecryptionVerifier",
              "name": "decryptionVerifier",
              "type": "address"
            },
            {
              "internalType": "contract IPkVerifier",
              "name": "pkVerifier",
              "type": "address"
            },
            {
              "internalType": "bytes32",
              "name": "committeePublicKey",
              "type": "bytes32"
            },
            {
              "internalType": "bytes32",
              "name": "ciphertextOutput",
              "type": "bytes32"
            },
            {
              "internalType": "bytes",
              "name": "plaintextOutput",
              "type": "bytes"
            },
            {
              "internalType": "address",
              "name": "requester",
              "type": "address"
            },
            {
              "internalType": "bool",
              "name": "proofAggregationEnabled",
              "type": "bool"
            }
          ],
          "internalType": "struct E3",
          "name": "e3",
          "type": "tuple"
        }
      ],
      "stateMutability": "nonpayable",
      "type": "function"
    },
    {
      "inputs": [
        {
          "internalType": "contract IBondingRegistry",
          "name": "_bondingRegistry",
          "type": "address"
        }
      ],
      "name": "setBondingRegistry",
      "outputs": [],
      "stateMutability": "nonpayable",
      "type": "function"
    },
    {
      "inputs": [
        {
          "internalType": "contract ICiphernodeRegistry",
          "name": "_ciphernodeRegistry",
          "type": "address"
        }
      ],
      "name": "setCiphernodeRegistry",
      "outputs": [],
      "stateMutability": "nonpayable",
      "type": "function"
    },
    {
      "inputs": [
        {
          "internalType": "enum IEnclave.CommitteeSize",
          "name": "size",
          "type": "uint8"
        },
        {
          "internalType": "uint32[2]",
          "name": "threshold",
          "type": "uint32[2]"
        }
      ],
      "name": "setCommitteeThresholds",
      "outputs": [],
      "stateMutability": "nonpayable",
      "type": "function"
    },
    {
      "inputs": [
        {
          "internalType": "bytes32",
          "name": "encryptionSchemeId",
          "type": "bytes32"
        },
        {
          "internalType": "contract IDecryptionVerifier",
          "name": "decryptionVerifier",
          "type": "address"
        }
      ],
      "name": "setDecryptionVerifier",
      "outputs": [],
      "stateMutability": "nonpayable",
      "type": "function"
    },
    {
      "inputs": [
        {
          "internalType": "contract IE3RefundManager",
          "name": "_e3RefundManager",
          "type": "address"
        }
      ],
      "name": "setE3RefundManager",
      "outputs": [],
      "stateMutability": "nonpayable",
      "type": "function"
    },
    {
      "inputs": [
        {
          "internalType": "contract IERC20",
          "name": "_feeToken",
          "type": "address"
        }
      ],
      "name": "setFeeToken",
      "outputs": [],
      "stateMutability": "nonpayable",
      "type": "function"
    },
    {
      "inputs": [
        {
          "internalType": "uint256",
          "name": "_maxDuration",
          "type": "uint256"
        }
      ],
      "name": "setMaxDuration",
      "outputs": [],
      "stateMutability": "nonpayable",
      "type": "function"
    },
    {
      "inputs": [
        {
          "internalType": "uint8",
          "name": "paramSet",
          "type": "uint8"
        },
        {
          "internalType": "bytes",
          "name": "encodedParams",
          "type": "bytes"
        }
      ],
      "name": "setParamSet",
      "outputs": [],
      "stateMutability": "nonpayable",
      "type": "function"
    },
    {
      "inputs": [
        {
          "internalType": "bytes32",
          "name": "encryptionSchemeId",
          "type": "bytes32"
        },
        {
          "internalType": "contract IPkVerifier",
          "name": "pkVerifier",
          "type": "address"
        }
      ],
      "name": "setPkVerifier",
      "outputs": [],
      "stateMutability": "nonpayable",
      "type": "function"
    },
    {
      "inputs": [
        {
          "components": [
            {
              "internalType": "uint256",
              "name": "keyGenFixedPerNode",
              "type": "uint256"
            },
            {
              "internalType": "uint256",
              "name": "keyGenPerEncryptionProof",
              "type": "uint256"
            },
            {
              "internalType": "uint256",
              "name": "coordinationPerPair",
              "type": "uint256"
            },
            {
              "internalType": "uint256",
              "name": "availabilityPerNodePerSec",
              "type": "uint256"
            },
            {
              "internalType": "uint256",
              "name": "decryptionPerNode",
              "type": "uint256"
            },
            {
              "internalType": "uint256",
              "name": "publicationBase",
              "type": "uint256"
            },
            {
              "internalType": "uint256",
              "name": "verificationPerProof",
              "type": "uint256"
            },
            {
              "internalType": "address",
              "name": "protocolTreasury",
              "type": "address"
            },
            {
              "internalType": "uint16",
              "name": "marginBps",
              "type": "uint16"
            },
            {
              "internalType": "uint16",
              "name": "protocolShareBps",
              "type": "uint16"
            },
            {
              "internalType": "uint16",
              "name": "dkgUtilizationBps",
              "type": "uint16"
            },
            {
              "internalType": "uint16",
              "name": "computeUtilizationBps",
              "type": "uint16"
            },
            {
              "internalType": "uint16",
              "name": "decryptUtilizationBps",
              "type": "uint16"
            },
            {
              "internalType": "uint32",
              "name": "minCommitteeSize",
              "type": "uint32"
            },
            {
              "internalType": "uint32",
              "name": "minThreshold",
              "type": "uint32"
            }
          ],
          "internalType": "struct IEnclave.PricingConfig",
          "name": "config",
          "type": "tuple"
        }
      ],
      "name": "setPricingConfig",
      "outputs": [],
      "stateMutability": "nonpayable",
      "type": "function"
    },
    {
      "inputs": [
        {
          "internalType": "contract ISlashingManager",
          "name": "_slashingManager",
          "type": "address"
        }
      ],
      "name": "setSlashingManager",
      "outputs": [],
      "stateMutability": "nonpayable",
      "type": "function"
    },
    {
      "inputs": [
        {
          "components": [
            {
              "internalType": "uint256",
              "name": "dkgWindow",
              "type": "uint256"
            },
            {
              "internalType": "uint256",
              "name": "computeWindow",
              "type": "uint256"
            },
            {
              "internalType": "uint256",
              "name": "decryptionWindow",
              "type": "uint256"
            }
          ],
          "internalType": "struct IEnclave.E3TimeoutConfig",
          "name": "config",
          "type": "tuple"
        }
      ],
      "name": "setTimeoutConfig",
      "outputs": [],
      "stateMutability": "nonpayable",
      "type": "function"
    },
    {
      "inputs": [],
      "name": "slashingManager",
      "outputs": [
        {
          "internalType": "contract ISlashingManager",
          "name": "",
          "type": "address"
        }
      ],
      "stateMutability": "view",
      "type": "function"
    },
    {
      "inputs": [
        {
          "internalType": "address",
          "name": "newOwner",
          "type": "address"
        }
      ],
      "name": "transferOwnership",
      "outputs": [],
      "stateMutability": "nonpayable",
      "type": "function"
    }
  ],
  "bytecode": "0x6080604052348015600e575f5ffd5b5060156019565b60c9565b7ff0c57e16840df040f15088dc2f81fe391c3923bec73e23a9662efc9c229c6a00805468010000000000000000900460ff161560685760405163f92ee8a960e01b815260040160405180910390fd5b80546001600160401b039081161460c65780546001600160401b0319166001600160401b0390811782556040519081527fc7f505b2f371ae2175ee4913f4499e1f2633a7b5936321eed1cdaeb6115181d29060200160405180910390a15b50565b615a05806100d65f395ff3fe608060405234801561000f575f5ffd5b50600436106102ce575f3560e01c80639117173c11610182578063cb649617116100e0578063f0691cba1161008f578063f0691cba14610886578063f2fde38b14610899578063f3ceba3a146108ac578063f81b8ef6146108cd578063fad8e111146108e0578063fbdb3237146108f3578063fd2f3d011461091b575f5ffd5b8063cb649617146107ef578063cbd16872146107f8578063cf0f34c41461080b578063cfbdc98d1461081e578063d8afed3e1461084d578063e59e469514610860578063ea71aa5714610873575f5ffd5b8063a87f4ab91161013c578063a87f4ab914610607578063ac3d2f4214610759578063b27392d514610781578063bb2d1b8214610794578063bff232c1146107a7578063c1ab0f1f146107ba578063c4ccafa2146107cd575f5ffd5b80639117173c146105625780639231238614610575578063929a8faf1461058857806399c6679d146105a95780639c8570c8146105d15780639e57b934146105f4575f5ffd5b80635d1684181161022f57806381476ec2116101e957806381476ec2146104e7578063830d7181146104fa578063858142431461050d5780638da5cb5b146105205780638dcdd86b146105285780638e5ce3ad1461053a57806390173a411461054d575f5ffd5b80635d1684181461047d578063647846a51461049d5780636db5c8fd146104b0578063715018a6146104b95780637c8c3b4d146104c15780637cfa9d74146104d4575f5ffd5b806336c5d38a1161028b57806336c5d38a1461039b5780634017daf0146103ca578063406ed35c146103f75780634147a360146104175780634d600e5d146104445780634e92ec63146104575780634fc772641461046a575f5ffd5b806302a3a9c9146102d25780630ef81b2f146102e757806310bc62811461032557806311bd61d91461034d57806315cce224146103755780631ba7294514610388575b5f5ffd5b6102e56102e03660046145d4565b61092e565b005b61030f6102f53660046145f6565b5f908152600960205260409020546001600160a01b031690565b60405161031c919061461a565b60405180910390f35b61030f6103333660046145f6565b60096020525f90815260409020546001600160a01b031681565b61036061035b366004614641565b6109da565b60405163ffffffff909116815260200161031c565b6102e56103833660046145d4565b610a16565b6102e5610396366004614679565b610abb565b6103bd6103a93660046145f6565b5f908152600f602052604090205460ff1690565b60405161031c91906146bb565b6103dd6103d83660046145f6565b610acf565b60405161031c9e9d9c9b9a99989796959493929190614707565b61040a6104053660046145f6565b610c7a565b60405161031c91906148e1565b6104366104253660046145f6565b600c6020525f908152604090205481565b60405190815260200161031c565b6102e56104523660046148fe565b610ef7565b6102e56104653660046145f6565b611134565b6102e56104783660046145d4565b6111c3565b61049061048b366004614994565b611256565b60405161031c91906149ad565b60045461030f906001600160a01b031681565b61043660055481565b6102e56112ed565b6102e56104cf3660046149bf565b611300565b6102e56104e23660046145f6565b611389565b6102e56104f53660046149ed565b611488565b6102e5610508366004614a4a565b61157c565b60015461030f906001600160a01b031681565b61030f611688565b5f5461030f906001600160a01b031681565b60035461030f906001600160a01b031681565b6105556116b6565b60405161031c9190614a98565b6102e56105703660046145f6565b6116fc565b6105556105833660046145f6565b61186a565b61059b6105963660046145f6565b6118c3565b60405161031c929190614ab9565b61030f6105b73660046145f6565b5f908152601060205260409020546001600160a01b031690565b6105e46105df366004614acf565b6118ea565b604051901515815260200161031c565b610436610602366004614b46565b611b82565b61074c604080516101e0810182525f80825260208201819052918101829052606081018290526080810182905260a0810182905260c0810182905260e08101829052610100810182905261012081018290526101408101829052610160810182905261018081018290526101a081018290526101c081019190915250604080516101e0810182526018548152601954602080830191909152601a5492820192909252601b546060820152601c546080820152601d5460a0820152601e5460c0820152601f546001600160a01b03811660e083015261ffff600160a01b82048116610100840152600160b01b82048116610120840152600160c01b82048116610140840152600160d01b82048116610160840152600160e01b90910416610180820152905463ffffffff8082166101a0840152640100000000909104166101c082015290565b60405161031c9190614b7d565b61030f6107673660046145f6565b5f908152600a60205260409020546001600160a01b031690565b6105e461078f366004614c8a565b612157565b6102e56107a2366004614d2f565b612387565b6102e56107b53660046145d4565b612443565b6102e56107c83660046149ed565b6124ea565b6105e46107db3660046145d4565b60076020525f908152604090205460ff1681565b61043660065481565b6102e56108063660046149bf565b6125a7565b6102e56108193660046145f6565b612661565b61084061082c3660046145f6565b5f908152600d602052604090205460ff1690565b60405161031c9190614d69565b6102e561085b366004614d77565b61269e565b6102e561086e3660046145d4565b61292b565b6102e5610881366004614d91565b6129c5565b60025461030f906001600160a01b031681565b6102e56108a73660046145d4565b612c72565b6108bf6108ba366004614b46565b612cac565b60405161031c929190614dc8565b6103bd6108db3660046145f6565b61358d565b6102e56108ee3660046145d4565b613727565b61030f6109013660046145f6565b600a6020525f90815260409020546001600160a01b031681565b6102e56109293660046145d4565b6137bf565b61093661384e565b6001600160a01b0381166109915760405162461bcd60e51b815260206004820152601f60248201527f496e76616c6964204533526566756e644d616e6167657220616464726573730060448201526064015b60405180910390fd5b600280546001600160a01b0319166001600160a01b0383169081179091556040517f9557d04c1c0b16f93f13b69aed23b3b6ab935bff3c53ac81d17896d3583542ed905f90a250565b6012602052815f5260405f2081600281106109f3575f80fd5b60089182820401919006600402915091509054906101000a900463ffffffff1681565b610a1e61384e565b6001600160a01b03811615801590610a4457506004546001600160a01b03828116911614155b8190610a645760405163eddf07f560e01b8152600401610988919061461a565b50600480546001600160a01b0319166001600160a01b0383161790556040517f722ff84c1234b2482061def5c82c6b5080c117b3cbb69d686844a051e4b8e7f390610ab090839061461a565b60405180910390a150565b610ac361384e565b610acc81613880565b50565b60086020525f9081526040902080546001820154600283015460058401546006850154600786018054959660ff95861696949593946001600160a01b03841694600160a01b90940490931692909190610b2790614de8565b80601f0160208091040260200160405190810160405280929190818152602001828054610b5390614de8565b8015610b9e5780601f10610b7557610100808354040283529160200191610b9e565b820191905f5260205f20905b815481529060010190602001808311610b8157829003601f168201915b50505060088401546009850154600a860154600b870154600c8801805497986001600160a01b03958616989490951696509194509291610bdd90614de8565b80601f0160208091040260200160405190810160405280929190818152602001828054610c0990614de8565b8015610c545780601f10610c2b57610100808354040283529160200191610c54565b820191905f5260205f20905b815481529060010190602001808311610c3757829003601f168201915b505050600d90930154919250506001600160a01b0381169060ff600160a01b909104168e565b610c82614442565b5f8281526008602090815260409182902082516101e08101909352805483526001810154909183019060ff166003811115610cbf57610cbf614693565b6003811115610cd057610cd0614693565b8152600282810154602083015260408051808201808352919093019291600385019182845b815481526020019060010190808311610cf55750505091835250506005820154602082015260068201546001600160a01b0381166040830152600160a01b900460ff166060820152600782018054608090920191610d5290614de8565b80601f0160208091040260200160405190810160405280929190818152602001828054610d7e90614de8565b8015610dc95780601f10610da057610100808354040283529160200191610dc9565b820191905f5260205f20905b815481529060010190602001808311610dac57829003601f168201915b505050918352505060088201546001600160a01b0390811660208301526009830154166040820152600a8201546060820152600b8201546080820152600c8201805460a090920191610e1a90614de8565b80601f0160208091040260200160405190810160405280929190818152602001828054610e4690614de8565b8015610e915780601f10610e6857610100808354040283529160200191610e91565b820191905f5260205f20905b815481529060010190602001808311610e7457829003601f168201915b5050509183525050600d91909101546001600160a01b038082166020840152600160a01b90910460ff16151560409092019190915260a0820151919250839116610ef15760405163cd6f4a4f60e01b815260040161098891815260200190565b50919050565b5f610f0061393d565b805490915060ff600160401b82041615906001600160401b03165f81158015610f265750825b90505f826001600160401b03166001148015610f415750303b155b905081158015610f4f575080155b15610f6d5760405163f92ee8a960e01b815260040160405180910390fd5b845467ffffffffffffffff191660011785558315610f9757845460ff60401b1916600160401b1785555b610fa033613967565b610fa987612661565b610fb28b613727565b610fbb8a61292b565b610fc48961092e565b610fcd88610a16565b610fd686613880565b604080516101e08101825261c3508082526161a86020808401829052611388948401859052601460608501819052620249f0608086018190526207a12060a087018190526107d060c088018190525f60e089018190526103e86101008a015261012089018190526109c46101408a018190526101608a018b90526101808a01526101a089018190526101c090980197909752601895909555601993909355601a95909555601b94909455601c55601d55601e55601f80546001600160f01b031916690138827101388000007d60a31b179055805467ffffffffffffffff191690556110bf611688565b6001600160a01b03168c6001600160a01b0316146110e0576110e08c612c72565b831561112657845460ff60401b19168555604051600181527fc7f505b2f371ae2175ee4913f4499e1f2633a7b5936321eed1cdaeb6115181d29060200160405180910390a15b505050505050505050505050565b61113c61384e565b5f8181526009602052604090205481906001600160a01b0316611175576040516381c4951960e01b815260040161098891815260200190565b505f818152600960205260409081902080546001600160a01b0319169055517f104eb329a192aef26eddea07c2af5ad2587792e62b37ed4045b6ba59bc5540fc90610ab09083815260200190565b6111cb61384e565b6001600160a01b0381165f90815260076020526040902054819060ff16611206576040516321ac7c5f60e01b8152600401610988919061461a565b506001600160a01b0381165f9081526007602052604090819020805460ff19169055517f56070b80bd617fcd2f7a284861edb488830a38f9dedcd77b2cb2f4eac17743e790610ab090839061461a565b600b6020525f90815260409020805461126e90614de8565b80601f016020809104026020016040519081016040528092919081815260200182805461129a90614de8565b80156112e55780601f106112bc576101008083540402835291602001916112e5565b820191905f5260205f20905b8154815290600101906020018083116112c857829003601f168201915b505050505081565b6112f561384e565b6112fe5f613978565b565b61130861384e565b6001600160a01b0381161580159061133957505f828152600a60205260409020546001600160a01b03828116911614155b829061135b576040516381c4951960e01b815260040161098891815260200190565b505f918252600a602052604090912080546001600160a01b0319166001600160a01b03909216919091179055565b5f546001600160a01b031633146113b35760405163b56831db60e01b815260040160405180910390fd5b5f818152600d602052604090205460ff1660018160068111156113d8576113d8614693565b146113fd57816001826040516337e1404160e01b815260040161098893929190614e1a565b5f828152600d60205260409020805460ff191660021790556015546114229042614e4f565b5f838152600e602052604080822092909255905183917fc44405af9078047712501f519e1fb900c2896c62b488336f84529c72ae16e6f191a2815f5160206159d95f395f51905f526001600260405161147c929190614e62565b60405180910390a25050565b5f546001600160a01b031633146114b25760405163b56831db60e01b815260040160405180910390fd5b5f828152600860209081526040808320600d9092529091205460ff1660028160068111156114e2576114e2614693565b1461150757836002826040516337e1404160e01b815260040161098893929190614e1a565b5f848152600d6020526040808220805460ff19166003179055600a84018590555185917f11df18edb9bc9cd90a79068e0e208b630202148643d797d6150e7bacb733e63c91a2835f5160206159d95f395f51905f526002600360405161156e929190614e62565b60405180910390a250505050565b61158461384e565b806115c05760405162461bcd60e51b815260206004820152600c60248201526b456d70747920706172616d7360a01b6044820152606401610988565b60ff83165f908152600b6020526040902080546115dc90614de8565b15905061162b5760405162461bcd60e51b815260206004820152601b60248201527f506172616d53657420616c7265616479207265676973746572656400000000006044820152606401610988565b60ff83165f908152600b60205260409020611647828483614ef0565b507f6e4a4ea7f38fc775e616080b155744337e6216848e886a69c918b4ab84da219583838360405161167b93929190614fcc565b60405180910390a1505050565b7f9016d09d72d40fdae2fd8ceac6b6234c7706214fd39c1cd1e609a0528c199300546001600160a01b031690565b6116d760405180606001604052805f81526020015f81526020015f81525090565b5060408051606081018252601554815260165460208201526017549181019190915290565b5f818152600d602052604090205460ff16600681600681111561172157611721614693565b14829061174457604051637cb2d48360e11b815260040161098891815260200190565b505f828152600c60205260409020548281611775576040516345ba89d560e11b815260040161098891815260200190565b505f838152600c6020526040812081905561178f846139e8565b5f858152601160205260409020546002549192506001600160a01b03908116916117bc9183911685613ad5565b60025460405163da19b69760e01b81526001600160a01b039091169063da19b697906117f2908890879087908790600401615034565b5f604051808303815f87803b158015611809575f5ffd5b505af115801561181b573d5f5f3e3d5ffd5b50505050847f5297818f48a66292b8b3e2caab83eec531b669bb20807fd38cf006adb2a0731784845160405161185b929190918252602082015260400190565b60405180910390a25050505050565b61188b60405180606001604052805f81526020015f81526020015f81525090565b505f908152600e6020908152604091829020825160608101845281548152600182015492810192909252600201549181019190915290565b5f818152600d6020526040812054819060ff166118e08482613b32565b9250925050915091565b5f5f6118f587610c7a565b5f888152600d602052604090205490915060ff16600381600681111561191d5761191d614693565b1488600383909192611945576040516337e1404160e01b815260040161098893929190614e1a565b5050505f888152600e60209081526040918290208251606081018452815481526001820154928101839052600290910154928101929092528990428110156119a9576040516308f3034360e31b815260048101929092526024820152604401610988565b50506060830151602001518990428111156119e05760405163017e35e560e71b815260048101929092526024820152604401610988565b5050610160830151899015611a0b57604051637eb9cea960e11b815260040161098891815260200190565b505f8888604051611a1d92919061507f565b60408051918290039091205f8c815260086020908152838220600b01839055600d905291909120805460ff19166004179055601754909150611a5f9042614e4f565b5f8b8152600e6020526040908190206002019190915560a08501519051632f0e1bbf60e01b81526001600160a01b0390911690632f0e1bbf90611aac908d9085908c908c9060040161508e565b6020604051808303815f875af1158015611ac8573d5f5f3e3d5ffd5b505050506040513d601f19601f82011682018060405250810190611aec91906150ba565b9450888886611b1057604051632f9f8ab960e01b81526004016109889291906150d5565b5050897f7cc27e4a5626cbc4f8ba1a927b0448de55e6a114bc87660331270c5109ade0718a8a604051611b449291906150d5565b60405180910390a2895f5160206159d95f395f51905f5260036004604051611b6d929190614e62565b60405180910390a25050505095945050505050565b5f80600b81611b9760a0860160808701614994565b60ff1660ff1681526020019081526020015f208054611bb590614de8565b905011611bd45760405162461bcd60e51b8152600401610988906150e8565b5f601281611be5602086018661511f565b6003811115611bf657611bf6614693565b6003811115611c0757611c07614693565b8152602081019190915260409081015f20815180830190925260028282826020028201915f905b82829054906101000a900463ffffffff1663ffffffff1681526020019060040190602082600301049283019260010382029150808411611c2e579050505050505090505f81600160028110611c8557611c8561506b565b602002015163ffffffff1611835f016020810190611ca3919061511f565b90611cc25760405163286c068d60e11b81526004016109889190615138565b506020808201518251604080516101e081018252601854815260195481860152601a5491810191909152601b546060820152601c546080820152601d5460a0820152601e5460c0820152601f546001600160a01b03811660e0830152600160a01b810461ffff908116610100840152600160b01b82048116610120840152600160c01b82048116610140840152600160d01b82048116610160840152600160e01b90910416610180820152925463ffffffff8181166101a0860181905264010000000090920481166101c086015292831693919092169115611ded576101a081015163ffffffff16846001602002015163ffffffff161015865f016020810190611dcc919061511f565b90611deb5760405163010b971d60e31b81526004016109889190615138565b505b6101c081015163ffffffff1615611e3c576101c081015184519063ffffffff9081169082161015611e3a57604051630a4b6b6360e11b815263ffffffff9091166004820152602401610988565b505b60408601356020870135811015611e695760405163174b5a0760e21b815260040161098891815260200190565b506101808101516017545f9161271091611e879161ffff1690615146565b611e91919061515d565b61271061ffff1683610160015161ffff16601560010154611eb29190615146565b611ebc919061515d565b61271061ffff1684610140015161ffff1660155f0154611edc9190615146565b611ee6919061515d565b5f5460408051634f87c3a560e11b8152815160208e81013594938f0135936001600160a01b031692639f0f874a92600480830193928290030181865afa158015611f32573d5f5f3e3d5ffd5b505050506040513d601f19601f82011682018060405250810190611f56919061517c565b611f609190614e4f565b611f6a9190615193565b611f749190614e4f565b611f7e9190614e4f565b611f889190614e4f565b90505f611f96600186615193565b611fa1906002615146565b611fac906002615146565b611fb7906006614e4f565b90505f85845f0151611fc99190615146565b905081868560200151611fdc9190615146565b611fe69190615146565b611ff09082614e4f565b90506001861115612038576002612008600188615193565b6120129088615146565b85604001516120219190615146565b61202b919061515d565b6120359082614e4f565b90505b81868560c001516120499190615146565b6120539190615146565b61205d9082614e4f565b9050828685606001516120709190615146565b61207a9190615146565b6120849082614e4f565b90508484608001516120969190615146565b6120a09082614e4f565b905060018511156120e85760026120b8600187615193565b6120c29087615146565b85604001516120d19190615146565b6120db919061515d565b6120e59082614e4f565b90505b60a08401516120f79082614e4f565b610100850151909150612710906121129061ffff1682614e4f565b61211c9083615146565b612126919061515d565b9750878061214a57604051638c4fcd9360e01b815260040161098891815260200190565b5050505050505050919050565b5f5f61216289610c7a565b5f8a8152600d602052604090205490915060ff16600481600681111561218a5761218a614693565b148a6004839091926121b2576040516337e1404160e01b815260040161098893929190614e1a565b5050505f8a8152600e602090815260409182902082516060810184528154815260018201549281019290925260020154918101829052908b9042811015612215576040516308f3034360e31b815260048101929092526024820152604401610988565b50505f8b8152600860205260409020600c016122328a8c83614ef0565b505f8b8152600d6020526040902080546005919060ff191660018302179055508261010001516001600160a01b0316635bf48e3a8b8b60405161227692919061507f565b6040519081900381206001600160e01b031960e084901b1682526122a4918c908c908c908c906004016151a6565b602060405180830381865afa1580156122bf573d5f5f3e3d5ffd5b505050506040513d601f19601f820116820180604052508101906122e391906150ba565b935089898561230757604051632f9f8ab960e01b81526004016109889291906150d5565b50506123128b613cba565b8a7f3a140076c461ebc41d74833ae0ee8bbc8079a135a63392098cd381e84350b69b8b8b8b8b60405161234894939291906151de565b60405180910390a28a5f5160206159d95f395f51905f5260046005604051612371929190614e62565b60405180910390a2505050979650505050505050565b5f546001600160a01b03163314806123a957506003546001600160a01b031633145b6123c657604051639e75a8b560e01b815260040160405180910390fd5b5f8160ff161180156123dc5750600d60ff821611155b6124215760405162461bcd60e51b815260206004820152601660248201527524b73b30b634b2103330b4b63ab932903932b0b9b7b760511b6044820152606401610988565b61243f828260ff16600d81111561243a5761243a614693565b614126565b5050565b61244b61384e565b6001600160a01b0381166124a15760405162461bcd60e51b815260206004820152601f60248201527f496e76616c696420536c617368696e674d616e616765722061646472657373006044820152606401610988565b600380546001600160a01b0319166001600160a01b0383169081179091556040517f4ccc8ed483c7c44c3602c3c38afc2c014a8f1d2dc210dfe58ebeeeead230f8e0905f90a250565b6003546001600160a01b03163314612515576040516357d6948d60e11b815260040160405180910390fd5b60025460405163c1ab0f1f60e01b815260048101849052602481018390526001600160a01b039091169063c1ab0f1f906044015f604051808303815f87803b15801561255f575f5ffd5b505af1158015612571573d5f5f3e3d5ffd5b50505050817f4f41a3b0a032ebcae925f2ace77d507435840ca4b2dbaffdd7723fa8d72ee5428260405161147c91815260200190565b6125af61384e565b6001600160a01b038116158015906125e057505f828152600960205260409020546001600160a01b03828116911614155b8290612602576040516381c4951960e01b815260040161098891815260200190565b505f8281526009602090815260409182902080546001600160a01b0319166001600160a01b03851617905590518381527ff4041a3f914dac3bc9bf5f003ba41f28dbb84abe42f4e07c76266f5c8ceecb69910160405180910390a15050565b61266961384e565b60058190556040518181527fba0716ba1ee2ea8ecc4c64119b4537cdb42a99d82acf92af5b87607b8b52355290602001610ab0565b6126a661384e565b6127106126bb61012083016101008401615229565b61ffff1611156126d361012083016101008401615229565b906126f8576040516301027fc160e21b815261ffff9091166004820152602401610988565b5061271061270e61014083016101208401615229565b61ffff16111561272661014083016101208401615229565b9061274b576040516301027fc160e21b815261ffff9091166004820152602401610988565b5061271061276161016083016101408401615229565b61ffff16111561277961016083016101408401615229565b9061279e57604051633239953960e01b815261ffff9091166004820152602401610988565b506127106127b461018083016101608401615229565b61ffff1611156127cc61018083016101608401615229565b906127f157604051633239953960e01b815261ffff9091166004820152602401610988565b506127106128076101a083016101808401615229565b61ffff16111561281f6101a083016101808401615229565b9061284457604051633239953960e01b815261ffff9091166004820152602401610988565b5061285761014082016101208301615229565b61ffff16158061288057505f612874610100830160e084016145d4565b6001600160a01b031614155b61289d5760405163015f92ff60e51b815260040160405180910390fd5b6128af6101e082016101c08301615260565b63ffffffff166128c76101c083016101a08401615260565b63ffffffff1610156128ec576040516392f55c6560e01b815260040160405180910390fd5b8060186128f9828261529f565b9050507fbf3951313e980027eb48ce363fdb707286195ec6a0f802ac153927cf929c3fc681604051610ab0919061545d565b61293361384e565b6001600160a01b0381161580159061295957506001546001600160a01b03828116911614155b8190612979576040516320252f0b60e01b8152600401610988919061461a565b50600180546001600160a01b0319166001600160a01b0383161790556040517fad4055f18cdad6f4bdd71afe3a72cbeee964217943e1bde38f138289e981a9a790610ab090839061461a565b6129cd61384e565b6129da6020820182615260565b63ffffffff166129f06040830160208401615260565b63ffffffff1610158015612a1557505f612a0d6020830183615260565b63ffffffff16115b612a3257604051634564ab9b60e01b815260040160405180910390fd5b604080516101e0810182526018548152601954602080830191909152601a5492820192909252601b546060820152601c546080820152601d5460a0820152601e5460c0820152601f546001600160a01b03811660e083015261ffff600160a01b82048116610100840152600160b01b82048116610120840152600160c01b82048116610140840152600160d01b82048116610160840152600160e01b90910416610180820152905463ffffffff8082166101a08401819052640100000000909204166101c083015215612b6b576101a081015163ffffffff16612b1b6040840160208501615260565b63ffffffff161015612b336040840160208501615260565b826101a001519091612b6857604051633ccc4c2160e21b815263ffffffff928316600482015291166024820152604401610988565b50505b6101c081015163ffffffff1615612be2576101c081015163ffffffff16612b956020840184615260565b63ffffffff161015612baa6020840184615260565b826101c001519091612bdf5760405163156c4e5b60e11b815263ffffffff928316600482015291166024820152604401610988565b50505b8160125f856003811115612bf857612bf8614693565b6003811115612c0957612c09614693565b815260208101919091526040015f20612c239160026144bf565b50826003811115612c3657612c36614693565b7f8b56fae526eee054f0849759a99fc7d4ff3823824ebf097a56f7d78adb6b34fa83604051612c659190615567565b60405180910390a2505050565b612c7a61384e565b6001600160a01b038116612ca3575f604051631e4fbdf760e01b8152600401610988919061461a565b610acc81613978565b5f612cb5614442565b5f601281612cc6602087018761511f565b6003811115612cd757612cd7614693565b6003811115612ce857612ce8614693565b8152602081019190915260409081015f20815180830190925260028282826020028201915f905b82829054906101000a900463ffffffff1663ffffffff1681526020019060040190602082600301049283019260010382029150808411612d0f579050505050505090505f81600160028110612d6657612d6661506b565b602002015163ffffffff1611845f016020810190612d84919061511f565b90612da35760405163286c068d60e11b81526004016109889190615138565b50602084013542811015612dcd57604051630b99e87960e01b815260040161098891815260200190565b5060408401356020850135811015612dfb5760405163174b5a0760e21b815260040161098891815260200190565b506017546016545f9190612e13426040890135615193565b612e1d9190614e4f565b612e279190614e4f565b905060055481108190612e50576040516313b783af60e21b815260040161098891815260200190565b5060075f612e6460808801606089016145d4565b6001600160a01b0316815260208101919091526040015f205460ff16612e9060808701606088016145d4565b90612eaf5760405163295a6a6f60e11b8152600401610988919061461a565b505f612eba86611b82565b60068054965090915085905f612ecf836155a7565b9091555050604080514460208201529081018690525f9060600160408051601f1981840301815291815281516020928301205f898152600c84528281208690556004546011855283822080546001600160a01b03199081166001600160a01b0393841617909155601f805460138852868520805461ffff191661ffff600160b01b909304929092169190911790555460148752858420805483169190931617909155600d8552838220805460ff191660011790556010909452829020805433941693909317909255601654919250612faa9190890135614e4f565b5f878152600e6020908152604090912060010191909155818652612fd09088018861511f565b85602001906003811115612fe657612fe6614693565b90816003811115612ff957612ff9614693565b905250436040808701919091528051808201825290602089019060029083908390808284375f92019190915250505060608087019190915261304190608089019089016145d4565b6001600160a01b031660a08087019190915261306290880160808901614994565b60ff1660c08087019190915261307a908801886155bf565b8080601f0160208091040260200160405190810160405280939291908181526020018383808284375f9201919091525050505060e0808701919091526130c7906101008901908901615601565b15156101c08601525f610140860181905261016086018190526040805160208101909152908152610180860152336101a08601819052600454613117916001600160a01b03909116903085614281565b5f600b8161312b60a08b0160808c01614994565b60ff1660ff1681526020019081526020015f20805461314990614de8565b80601f016020809104026020016040519081016040528092919081815260200182805461317590614de8565b80156131c05780601f10613197576101008083540402835291602001916131c0565b820191905f5260205f20905b8154815290600101906020018083116131a357829003601f168201915b505050505090505f8151116131e75760405162461bcd60e51b8152600401610988906150e8565b5f6131f860808a0160608b016145d4565b6001600160a01b031663fefd9a8b89858561321660a08f018f6155bf565b8f8060c0019061322691906155bf565b6040518863ffffffff1660e01b8152600401613248979695949392919061561c565b6020604051808303815f875af1158015613264573d5f5f3e3d5ffd5b505050506040513d601f19601f82011682018060405250810190613288919061517c565b5f818152600960205260409020549091506001600160a01b031681816132c4576040516381c4951960e01b815260040161098891815260200190565b505f828152600a60205260409020546001600160a01b031682816132fe576040516381c4951960e01b815260040161098891815260200190565b50608089018390526001600160a01b038083166101008b015281166101208a01525f8a81526008602090815260409091208a518155908a0151600180830180548d94939260ff19919091169083600381111561335c5761335c614693565b021790555060408201518160020155606082015181600301906002613382929190614560565b506080820151600582015560a082015160068201805460c085015160ff16600160a01b026001600160a81b03199091166001600160a01b039093169290921791909117905560e082015160078201906133db9082615670565b506101008201516008820180546001600160a01b039283166001600160a01b031991821617909155610120840151600984018054919093169116179055610140820151600a820155610160820151600b820155610180820151600c8201906134439082615670565b506101a0820151600d90910180546101c0909301511515600160a01b026001600160a81b03199093166001600160a01b0392831617929092179091555f5460405163291a691b60e01b815291169063291a691b906134a9908d9089908d90600401615725565b6020604051808303815f875af11580156134c5573d5f5f3e3d5ffd5b505050506040513d601f19601f820116820180604052508101906134e991906150ba565b61350657604051630d8dbe2560e01b815260040160405180910390fd5b61351660808c0160608d016145d4565b6001600160a01b03167f5090c9764b5cd13df7afc0013f733dfbe6eaf1b6ddc22a5e291fa387efd4c15e8b8b604051613550929190614dc8565b60405180910390a2895f5160206159d95f395f51905f525f6001604051613578929190614e62565b60405180910390a25050505050505050915091565b5f818152600d602052604081205460ff16818160068111156135b1576135b1614693565b036135d657826001826040516337e1404160e01b815260040161098893929190614e1a565b60058160068111156135ea576135ea614693565b0361360b5760405163462c7bed60e01b815260048101849052602401610988565b600681600681111561361f5761361f614693565b0361364057604051633de16e3560e11b815260048101849052602401610988565b5f61364b8483613b32565b935090508061367057604051639f65d93560e01b815260048101859052602401610988565b5f848152600d6020526040902080546006919060ff191660018302179055505f848152600f60205260409020805484919060ff1916600183600d8111156136b9576136b9614693565b0217905550835f5160206159d95f395f51905f528360066040516136de929190614e62565b60405180910390a2837fe20209be7caae6e76291267cfa711353981274bf127e94f16eb9ec44b68582bb838560405161371892919061576a565b60405180910390a25050919050565b61372f61384e565b6001600160a01b0381161580159061375457505f546001600160a01b03828116911614155b8190613774576040516375ac4eb760e11b8152600401610988919061461a565b505f80546001600160a01b0319166001600160a01b0383161790556040517f80052b810d39120cf6c976cca504a21703f585521dc7a41c6d241090e6c579b690610ab090839061461a565b6001600160a01b0381165f90815260076020526040902054819060ff16156137fb5760405163b29d459560e01b8152600401610988919061461a565b506001600160a01b0381165f9081526007602052604090819020805460ff19166001179055517fb8d368517268f297fff00825d67d098763117d061360d31027be5b2e1a59d46790610ab090839061461a565b33613857611688565b6001600160a01b0316146112fe573360405163118cdaa760e01b8152600401610988919061461a565b803561389f5760405163055f269d60e01b815260040160405180910390fd5b5f8160200135116138c35760405163055f269d60e01b815260040160405180910390fd5b5f8160400135116138e75760405163055f269d60e01b815260040160405180910390fd5b80356015819055602080830135601681905560408085013560178190558151948552928401919091528201527f7e86ba16b805e2835af5c5b7aa5a942ced8bcc1fb95a05fbe42dae3862350a1690606001610ab0565b5f807ff0c57e16840df040f15088dc2f81fe391c3923bec73e23a9662efc9c229c6a005b92915050565b61396f6142c0565b610acc816142e5565b7f9016d09d72d40fdae2fd8ceac6b6234c7706214fd39c1cd1e609a0528c19930080546001600160a01b031981166001600160a01b03848116918217845560405192169182907f8be0079c531659141344cd1fd0a4f28419497f9722a3daafe3b4186f6b6457e0905f90a3505050565b5f818152600f602052604090205460609060ff16600181600d811115613a1057613a10614693565b1480613a2d5750600281600d811115613a2b57613a2b614693565b145b15613a65575f5b604051908082528060200260200182016040528015613a5d578160200160208202803683370190505b509392505050565b5f5460405162beb08960e51b8152600481018590526001600160a01b03909116906317d61120906024015f60405180830381865afa925050508015613acb57506040513d5f823e601f3d908101601f19168201604052613ac89190810190615841565b60015b613a5d575f613a34565b613b2d83846001600160a01b031663a9059cbb8585604051602401613afb929190615906565b604051602081830303815290604052915060e01b6020820180516001600160e01b0383818316178352505050506142ed565b505050565b5f828152600e60209081526040808320815160608101835281548152600182015493810193909352600201548282015282549051632800d82960e01b81526004810186905283929183916001600160a01b0390911690632800d82990602401602060405180830381865afa158015613bac573d5f5f3e3d5ffd5b505050506040513d601f19601f82011682018060405250810190613bd0919061517c565b90506001856006811115613be657613be6614693565b148015613bf257508042115b15613c0557600180935093505050613cb3565b6002856006811115613c1957613c19614693565b148015613c265750815142115b15613c3a5760016003935093505050613cb3565b6003856006811115613c4e57613c4e614693565b148015613c5e5750816020015142115b15613c725760016006935093505050613cb3565b6004856006811115613c8657613c86614693565b148015613c965750816040015142115b15613caa576001600a935093505050613cb3565b5f5f9350935050505b9250929050565b5f805460405162beb08960e51b8152600481018490526001600160a01b03909116906317d61120906024015f60405180830381865afa158015613cff573d5f5f3e3d5ffd5b505050506040513d5f823e601f3d908101601f19168201604052613d269190810190615841565b5080515f848152600c60209081526040808320805490849055601190925282205493945091926001600160a01b031690829003613dc5576002546040516341489f1560e01b81526001600160a01b03909116906341489f1590613d919088908890869060040161591f565b5f604051808303815f87803b158015613da8575f5ffd5b505af1158015613dba573d5f5f3e3d5ffd5b505050505050505050565b825f03613e66575f858152601060205260409020546001600160a01b03168015613dfd57613dfd6001600160a01b0383168285613ad5565b6002546040516341489f1560e01b81526001600160a01b03909116906341489f1590613e319089908990879060040161591f565b5f604051808303815f87803b158015613e48575f5ffd5b505af1158015613e5a573d5f5f3e3d5ffd5b50505050505050505050565b5f85815260136020908152604080832054601490925282205461ffff909116906001600160a01b03168115801590613ea657506001600160a01b03811615155b15613ee257612710613ebc61ffff841687615146565b613ec6919061515d565b92508215613ee257613ee26001600160a01b0385168285613ad5565b5f613eed8487615193565b90505f876001600160401b03811115613f0857613f08614e7d565b604051908082528060200260200182016040528015613f31578160200160208202803683370190505b5090505f613f3f898461515d565b90505f805b8a811015613f7e5782848281518110613f5f57613f5f61506b565b6020908102919091010152613f748383614e4f565b9150600101613f44565b505f613f8a8286615193565b90508015613fc7578084613f9f60018e615193565b81518110613faf57613faf61506b565b60200260200101818151613fc39190614e4f565b9052505b600154613fe1906001600160a01b038b8116911687614350565b60015f9054906101000a90046001600160a01b03166001600160a01b031663dd8c818e8a8e876040518463ffffffff1660e01b81526004016140259392919061597f565b5f604051808303815f87803b15801561403c575f5ffd5b505af115801561404e573d5f5f3e3d5ffd5b505060015461406c92506001600160a01b038c81169250165f614350565b8c7fac9fe8ad7f55eac03284399116ecafc104f10459773f4cdf47063c46e5be335a8d8660405161409e9291906159b4565b60405180910390a260025f9054906101000a90046001600160a01b03166001600160a01b03166341489f158e8e8c6040518463ffffffff1660e01b81526004016140ea9392919061591f565b5f604051808303815f87803b158015614101575f5ffd5b505af1158015614113573d5f5f3e3d5ffd5b5050505050505050505050505050505050565b5f828152600d602052604081205460ff169081600681111561414a5761414a614693565b0361416f57826001826040516337e1404160e01b815260040161098893929190614e1a565b600581600681111561418357614183614693565b036141a45760405163462c7bed60e01b815260048101849052602401610988565b60068160068111156141b8576141b8614693565b036141d957604051633de16e3560e11b815260048101849052602401610988565b5f838152600d6020526040902080546006919060ff191660018302179055505f838152600f60205260409020805483919060ff1916600183600d81111561422257614222614693565b0217905550825f5160206159d95f395f51905f52826006604051614247929190614e62565b60405180910390a2827fe20209be7caae6e76291267cfa711353981274bf127e94f16eb9ec44b68582bb8284604051612c6592919061576a565b6040516001600160a01b0384811660248301528381166044830152606482018390526142ba9186918216906323b872dd90608401613afb565b50505050565b6142c86143e0565b6112fe57604051631afcd79f60e31b815260040160405180910390fd5b612c7a6142c0565b5f5f60205f8451602086015f885af18061430c576040513d5f823e3d81fd5b50505f513d91508115614323578060011415614330565b6001600160a01b0384163b155b156142ba5783604051635274afe760e01b8152600401610988919061461a565b5f836001600160a01b031663095ea7b38484604051602401614373929190615906565b604051602081830303815290604052915060e01b6020820180516001600160e01b03838183161783525050505090506143ac84826143f9565b6142ba576143d684856001600160a01b031663095ea7b3865f604051602401613afb929190615906565b6142ba84826142ed565b5f6143e961393d565b54600160401b900460ff16919050565b5f5f5f5f60205f8651602088015f8a5af192503d91505f5190508280156144385750811561442a5780600114614438565b5f866001600160a01b03163b115b9695505050505050565b604080516101e081019091525f808252602082019081526020015f815260200161446a61458e565b81525f602082018190526040820181905260608083018290526080830181905260a0830182905260c0830182905260e08301829052610100830182905261012083015261014082018190526101609091015290565b600183019183908215614550579160200282015f5b8382111561451e57833563ffffffff1683826101000a81548163ffffffff021916908363ffffffff16021790555092602001926004016020816003010492830192600103026144d4565b801561454e5782816101000a81549063ffffffff021916905560040160208160030104928301926001030261451e565b505b5061455c9291506145ac565b5090565b8260028101928215614550579160200282015b82811115614550578251825591602001919060010190614573565b60405180604001604052806002906020820280368337509192915050565b5b8082111561455c575f81556001016145ad565b6001600160a01b0381168114610acc575f5ffd5b5f602082840312156145e4575f5ffd5b81356145ef816145c0565b9392505050565b5f60208284031215614606575f5ffd5b5035919050565b6001600160a01b03169052565b6001600160a01b0391909116815260200190565b80356004811061463c575f5ffd5b919050565b5f5f60408385031215614652575f5ffd5b61465b8361462e565b946020939093013593505050565b5f60608284031215610ef1575f5ffd5b5f60608284031215614689575f5ffd5b6145ef8383614669565b634e487b7160e01b5f52602160045260245ffd5b600e81106146b7576146b7614693565b9052565b6020810161396182846146a7565b600481106146b7576146b7614693565b5f81518084528060208401602086015e5f602082860101526020601f19601f83011685010191505092915050565b8e8152614717602082018f6146c9565b8c60408201528b6060820152614730608082018c61460d565b60ff8a1660a08201526101c060c08201525f6147506101c083018b6146d9565b61475d60e084018b61460d565b61476b61010084018a61460d565b876101208401528661014084015282810361016084015261478c81876146d9565b91505061479d61018083018561460d565b8215156101a08301529f9e505050505050505050505050505050565b805f5b60028110156142ba5781518452602093840193909101906001016147bc565b805182525f60208201516147f260208501826146c9565b5060408201516040840152606082015161480f60608501826147b9565b50608082015160a084015260a082015161482c60c085018261460d565b5060c082015160ff811660e08501525060e08201516102006101008501526148586102008501826146d9565b905061010083015161486e61012086018261460d565b5061012083015161488361014086018261460d565b506101408301516101608501526101608301516101808501526101808301518482036101a08601526148b582826146d9565b9150506101a08301516148cc6101c086018261460d565b506101c08301518015156101e0860152613a5d565b602081525f6145ef60208301846147db565b803561463c816145c0565b5f5f5f5f5f5f5f610120888a031215614915575f5ffd5b8735614920816145c0565b96506020880135614930816145c0565b95506040880135614940816145c0565b94506060880135614950816145c0565b93506080880135614960816145c0565b925060a088013591506149768960c08a01614669565b905092959891949750929550565b803560ff8116811461463c575f5ffd5b5f602082840312156149a4575f5ffd5b6145ef82614984565b602081525f6145ef60208301846146d9565b5f5f604083850312156149d0575f5ffd5b8235915060208301356149e2816145c0565b809150509250929050565b5f5f604083850312156149fe575f5ffd5b50508035926020909101359150565b5f5f83601f840112614a1d575f5ffd5b5081356001600160401b03811115614a33575f5ffd5b602083019150836020828501011115613cb3575f5ffd5b5f5f5f60408486031215614a5c575f5ffd5b614a6584614984565b925060208401356001600160401b03811115614a7f575f5ffd5b614a8b86828701614a0d565b9497909650939450505050565b81518152602080830151908201526040808301519082015260608101613961565b8215158152604081016145ef60208301846146a7565b5f5f5f5f5f60608688031215614ae3575f5ffd5b8535945060208601356001600160401b03811115614aff575f5ffd5b614b0b88828901614a0d565b90955093505060408601356001600160401b03811115614b29575f5ffd5b614b3588828901614a0d565b969995985093965092949392505050565b5f60208284031215614b56575f5ffd5b81356001600160401b03811115614b6b575f5ffd5b820161010081850312156145ef575f5ffd5b5f6101e082019050825182526020830151602083015260408301516040830152606083015160608301526080830151608083015260a083015160a083015260c083015160c083015260e0830151614bd760e084018261460d565b50610100830151614bef61010084018261ffff169052565b50610120830151614c0761012084018261ffff169052565b50610140830151614c1f61014084018261ffff169052565b50610160830151614c3761016084018261ffff169052565b50610180830151614c4f61018084018261ffff169052565b506101a0830151614c696101a084018263ffffffff169052565b506101c0830151614c836101c084018263ffffffff169052565b5092915050565b5f5f5f5f5f5f5f6080888a031215614ca0575f5ffd5b8735965060208801356001600160401b03811115614cbc575f5ffd5b614cc88a828b01614a0d565b90975095505060408801356001600160401b03811115614ce6575f5ffd5b614cf28a828b01614a0d565b90955093505060608801356001600160401b03811115614d10575f5ffd5b614d1c8a828b01614a0d565b989b979a50959850939692959293505050565b5f5f60408385031215614d40575f5ffd5b82359150614d5060208401614984565b90509250929050565b600781106146b7576146b7614693565b602081016139618284614d59565b5f6101e0828403128015614d89575f5ffd5b509092915050565b5f5f60608385031215614da2575f5ffd5b614dab8361462e565b915083606084011115614dbc575f5ffd5b50926020919091019150565b828152604060208201525f614de060408301846147db565b949350505050565b600181811c90821680614dfc57607f821691505b602082108103610ef157634e487b7160e01b5f52602260045260245ffd5b83815260608101614e2e6020830185614d59565b614de06040830184614d59565b634e487b7160e01b5f52601160045260245ffd5b8082018082111561396157613961614e3b565b60408101614e708285614d59565b6145ef6020830184614d59565b634e487b7160e01b5f52604160045260245ffd5b601f821115613b2d57805f5260205f20601f840160051c81016020851015614eb65750805b601f840160051c820191505b81811015614ed5575f8155600101614ec2565b5050505050565b5f19600383901b1c191660019190911b1790565b6001600160401b03831115614f0757614f07614e7d565b614f1b83614f158354614de8565b83614e91565b5f601f841160018114614f47575f8515614f355750838201355b614f3f8682614edc565b845550614ed5565b5f83815260208120601f198716915b82811015614f765786850135825560209485019460019092019101614f56565b5086821015614f92575f1960f88860031b161c19848701351681555b505060018560011b0183555050505050565b81835281816020850137505f828201602090810191909152601f909101601f19169091010190565b60ff84168152604060208201525f614fe8604083018486614fa4565b95945050505050565b5f8151808452602084019350602083015f5b8281101561502a5781516001600160a01b0316865260209586019590910190600101615003565b5093949350505050565b848152836020820152608060408201525f6150526080830185614ff1565b905060018060a01b038316606083015295945050505050565b634e487b7160e01b5f52603260045260245ffd5b818382375f9101908152919050565b848152836020820152606060408201525f614438606083018486614fa4565b8015158114610acc575f5ffd5b5f602082840312156150ca575f5ffd5b81516145ef816150ad565b602081525f614de0602083018486614fa4565b6020808252601c908201527f42465620706172616d20736574206e6f74207265676973746572656400000000604082015260600190565b5f6020828403121561512f575f5ffd5b6145ef8261462e565b6020810161396182846146c9565b808202811582820484141761396157613961614e3b565b5f8261517757634e487b7160e01b5f52601260045260245ffd5b500490565b5f6020828403121561518c575f5ffd5b5051919050565b8181038181111561396157613961614e3b565b858152606060208201525f6151bf606083018688614fa4565b82810360408401526151d2818587614fa4565b98975050505050505050565b604081525f6151f1604083018688614fa4565b8281036020840152615204818587614fa4565b979650505050505050565b61ffff81168114610acc575f5ffd5b803561463c8161520f565b5f60208284031215615239575f5ffd5b81356145ef8161520f565b63ffffffff81168114610acc575f5ffd5b803561463c81615244565b5f60208284031215615270575f5ffd5b81356145ef81615244565b5f8135613961816145c0565b5f81356139618161520f565b5f813561396181615244565b813581556020820135600182015560408201356002820155606082013560038201556080820135600482015560a0820135600582015560c082013560068201556007810161530f6152f260e0850161527b565b82546001600160a01b0319166001600160a01b0391909116178255565b61533f61531f6101008501615287565b82805461ffff60a01b191660a09290921b61ffff60a01b16919091179055565b61536f61534f6101208501615287565b82805461ffff60b01b191660b09290921b61ffff60b01b16919091179055565b61539f61537f6101408501615287565b82805461ffff60c01b191660c09290921b61ffff60c01b16919091179055565b6153cf6153af6101608501615287565b82805461ffff60d01b191660d09290921b61ffff60d01b16919091179055565b6153ff6153df6101808501615287565b82805461ffff60e01b191660e09290921b61ffff60e01b16919091179055565b506008810161542b6154146101a08501615293565b825463ffffffff191663ffffffff91909116178255565b613b2d61543b6101c08501615293565b825467ffffffff00000000191660209190911b67ffffffff0000000016178255565b813581526020808301359082015260408083013590820152606080830135908201526080808301359082015260a0808301359082015260c080830135908201526101e081016154ae60e084016148f3565b6154bb60e084018261460d565b506154c9610100840161521e565b61ffff166101008301526154e0610120840161521e565b61ffff166101208301526154f7610140840161521e565b61ffff1661014083015261550e610160840161521e565b61ffff16610160830152615525610180840161521e565b61ffff1661018083015261553c6101a08401615255565b63ffffffff166101a08301526155556101c08401615255565b63ffffffff81166101c0840152614c83565b6040810181835f5b600281101561559e57813561558381615244565b63ffffffff168352602092830192919091019060010161556f565b50505092915050565b5f600182016155b8576155b8614e3b565b5060010190565b5f5f8335601e198436030181126155d4575f5ffd5b8301803591506001600160401b038211156155ed575f5ffd5b602001915036819003821315613cb3575f5ffd5b5f60208284031215615611575f5ffd5b81356145ef816150ad565b87815286602082015260a060408201525f61563a60a08301886146d9565b828103606084015261564d818789614fa4565b90508281036080840152615662818587614fa4565b9a9950505050505050505050565b81516001600160401b0381111561568957615689614e7d565b61569d816156978454614de8565b84614e91565b6020601f8211600181146156ca575f83156156b85750848201515b6156c28482614edc565b855550614ed5565b5f84815260208120601f198516915b828110156156f957878501518255602094850194600190920191016156d9565b508482101561571657868401515f19600387901b60f8161c191681555b50505050600190811b01905550565b838152602081018390526080810160408201835f5b600281101561575f57815163ffffffff1683526020928301929091019060010161573a565b505050949350505050565b604081016157788285614d59565b6145ef60208301846146a7565b604051601f8201601f191681016001600160401b03811182821017156157ad576157ad614e7d565b604052919050565b5f6001600160401b038211156157cd576157cd614e7d565b5060051b60200190565b5f82601f8301126157e6575f5ffd5b81516157f96157f4826157b5565b615785565b8082825260208201915060208360051b86010192508583111561581a575f5ffd5b602085015b8381101561583757805183526020928301920161581f565b5095945050505050565b5f5f60408385031215615852575f5ffd5b82516001600160401b03811115615867575f5ffd5b8301601f81018513615877575f5ffd5b80516158856157f4826157b5565b8082825260208201915060208360051b8501019250878311156158a6575f5ffd5b6020840193505b828410156158d15783516158c0816145c0565b8252602093840193909101906158ad565b8095505050505060208301516001600160401b038111156158f0575f5ffd5b6158fc858286016157d7565b9150509250929050565b6001600160a01b03929092168252602082015260400190565b838152606060208201525f6159376060830185614ff1565b905060018060a01b0383166040830152949350505050565b5f8151808452602084019350602083015f5b8281101561502a578151865260209586019590910190600101615961565b6001600160a01b03841681526060602082018190525f906159a290830185614ff1565b8281036040840152614438818561594f565b604081525f6159c66040830185614ff1565b8281036020840152614fe8818561594f56fe1b418a230a21d37a078bf8f16decbde8ccceacd77159371f62f0d4ea00d19967a164736f6c634300081c000a",
  "linkReferences": {},
  "deployedLinkReferences": {},
  "immutableReferences": {},
  "inputSourceName": "project/contracts/Enclave.sol",
  "buildInfoId": "solc-0_8_28-450dba89e3316019924fd97da52afa696f4be931"
}