{
  "_format": "hh3-artifact-1",
  "contractName": "Enclave",
  "sourceName": "contracts/Enclave.sol",
  "abi": [
    {
      "inputs": [],
      "stateMutability": "nonpayable",
      "type": "constructor"
    },
    {
      "inputs": [
        {
          "internalType": "uint256",
          "name": "size",
          "type": "uint256"
        },
        {
          "internalType": "uint256",
          "name": "minimum",
          "type": "uint256"
        }
      ],
      "name": "BelowMinCommitteeSize",
      "type": "error"
    },
    {
      "inputs": [
        {
          "internalType": "uint256",
          "name": "threshold",
          "type": "uint256"
        },
        {
          "internalType": "uint256",
          "name": "minimum",
          "type": "uint256"
        }
      ],
      "name": "BelowMinThreshold",
      "type": "error"
    },
    {
      "inputs": [
        {
          "internalType": "uint256",
          "name": "value",
          "type": "uint256"
        }
      ],
      "name": "BpsExceedsMax",
      "type": "error"
    },
    {
      "inputs": [
        {
          "internalType": "uint256",
          "name": "e3Id",
          "type": "uint256"
        }
      ],
      "name": "CiphertextOutputAlreadyPublished",
      "type": "error"
    },
    {
      "inputs": [
        {
          "internalType": "uint256",
          "name": "e3Id",
          "type": "uint256"
        }
      ],
      "name": "CiphertextOutputNotPublished",
      "type": "error"
    },
    {
      "inputs": [
        {
          "internalType": "uint256",
          "name": "e3Id",
          "type": "uint256"
        },
        {
          "internalType": "uint256",
          "name": "expiration",
          "type": "uint256"
        }
      ],
      "name": "CommitteeDutiesCompleted",
      "type": "error"
    },
    {
      "inputs": [],
      "name": "CommitteeSelectionFailed",
      "type": "error"
    },
    {
      "inputs": [
        {
          "internalType": "enum IEnclave.CommitteeSize",
          "name": "committeeSize",
          "type": "uint8"
        }
      ],
      "name": "CommitteeSizeNotConfigured",
      "type": "error"
    },
    {
      "inputs": [
        {
          "internalType": "enum IEnclave.CommitteeSize",
          "name": "committeeSize",
          "type": "uint8"
        }
      ],
      "name": "CommitteeSizeTooSmall",
      "type": "error"
    },
    {
      "inputs": [
        {
          "internalType": "uint256",
          "name": "e3Id",
          "type": "uint256"
        }
      ],
      "name": "E3AlreadyComplete",
      "type": "error"
    },
    {
      "inputs": [
        {
          "internalType": "uint256",
          "name": "e3Id",
          "type": "uint256"
        }
      ],
      "name": "E3AlreadyFailed",
      "type": "error"
    },
    {
      "inputs": [
        {
          "internalType": "uint256",
          "name": "e3Id",
          "type": "uint256"
        }
      ],
      "name": "E3DoesNotExist",
      "type": "error"
    },
    {
      "inputs": [
        {
          "internalType": "uint256",
          "name": "e3Id",
          "type": "uint256"
        }
      ],
      "name": "E3NotFailed",
      "type": "error"
    },
    {
      "inputs": [
        {
          "internalType": "contract IE3Program",
          "name": "e3Program",
          "type": "address"
        }
      ],
      "name": "E3ProgramNotAllowed",
      "type": "error"
    },
    {
      "inputs": [
        {
          "internalType": "uint256",
          "name": "e3Id",
          "type": "uint256"
        }
      ],
      "name": "FailureConditionNotMet",
      "type": "error"
    },
    {
      "inputs": [
        {
          "internalType": "uint256",
          "name": "e3Id",
          "type": "uint256"
        },
        {
          "internalType": "uint256",
          "name": "inputDeadline",
          "type": "uint256"
        }
      ],
      "name": "InputDeadlineNotReached",
      "type": "error"
    },
    {
      "inputs": [
        {
          "internalType": "contract IBondingRegistry",
          "name": "bondingRegistry",
          "type": "address"
        }
      ],
      "name": "InvalidBondingRegistry",
      "type": "error"
    },
    {
      "inputs": [
        {
          "internalType": "contract ICiphernodeRegistry",
          "name": "ciphernodeRegistry",
          "type": "address"
        }
      ],
      "name": "InvalidCiphernodeRegistry",
      "type": "error"
    },
    {
      "inputs": [
        {
          "internalType": "uint256",
          "name": "duration",
          "type": "uint256"
        }
      ],
      "name": "InvalidDuration",
      "type": "error"
    },
    {
      "inputs": [
        {
          "internalType": "bytes32",
          "name": "encryptionSchemeId",
          "type": "bytes32"
        }
      ],
      "name": "InvalidEncryptionScheme",
      "type": "error"
    },
    {
      "inputs": [
        {
          "internalType": "contract IERC20",
          "name": "feeToken",
          "type": "address"
        }
      ],
      "name": "InvalidFeeToken",
      "type": "error"
    },
    {
      "inputs": [],
      "name": "InvalidInitialization",
      "type": "error"
    },
    {
      "inputs": [
        {
          "internalType": "uint256",
          "name": "deadline",
          "type": "uint256"
        }
      ],
      "name": "InvalidInputDeadline",
      "type": "error"
    },
    {
      "inputs": [
        {
          "internalType": "uint256",
          "name": "end",
          "type": "uint256"
        }
      ],
      "name": "InvalidInputDeadlineEnd",
      "type": "error"
    },
    {
      "inputs": [
        {
          "internalType": "uint256",
          "name": "start",
          "type": "uint256"
        }
      ],
      "name": "InvalidInputDeadlineStart",
      "type": "error"
    },
    {
      "inputs": [
        {
          "internalType": "bytes",
          "name": "output",
          "type": "bytes"
        }
      ],
      "name": "InvalidOutput",
      "type": "error"
    },
    {
      "inputs": [
        {
          "internalType": "uint256",
          "name": "e3Id",
          "type": "uint256"
        },
        {
          "internalType": "enum IEnclave.E3Stage",
          "name": "expected",
          "type": "uint8"
        },
        {
          "internalType": "enum IEnclave.E3Stage",
          "name": "actual",
          "type": "uint8"
        }
      ],
      "name": "InvalidStage",
      "type": "error"
    },
    {
      "inputs": [],
      "name": "InvalidThresholdValues",
      "type": "error"
    },
    {
      "inputs": [],
      "name": "InvalidTimeoutWindow",
      "type": "error"
    },
    {
      "inputs": [],
      "name": "MinSizeBelowMinThreshold",
      "type": "error"
    },
    {
      "inputs": [
        {
          "internalType": "address",
          "name": "module",
          "type": "address"
        }
      ],
      "name": "ModuleAlreadyEnabled",
      "type": "error"
    },
    {
      "inputs": [
        {
          "internalType": "address",
          "name": "module",
          "type": "address"
        }
      ],
      "name": "ModuleNotEnabled",
      "type": "error"
    },
    {
      "inputs": [
        {
          "internalType": "uint256",
          "name": "e3Id",
          "type": "uint256"
        }
      ],
      "name": "NoPaymentToRefund",
      "type": "error"
    },
    {
      "inputs": [],
      "name": "NotInitializing",
      "type": "error"
    },
    {
      "inputs": [],
      "name": "OnlyCiphernodeRegistry",
      "type": "error"
    },
    {
      "inputs": [],
      "name": "OnlyCiphernodeRegistryOrSlashingManager",
      "type": "error"
    },
    {
      "inputs": [],
      "name": "OnlySlashingManager",
      "type": "error"
    },
    {
      "inputs": [
        {
          "internalType": "address",
          "name": "owner",
          "type": "address"
        }
      ],
      "name": "OwnableInvalidOwner",
      "type": "error"
    },
    {
      "inputs": [
        {
          "internalType": "address",
          "name": "account",
          "type": "address"
        }
      ],
      "name": "OwnableUnauthorizedAccount",
      "type": "error"
    },
    {
      "inputs": [
        {
          "internalType": "uint256",
          "name": "value",
          "type": "uint256"
        }
      ],
      "name": "PaymentRequired",
      "type": "error"
    },
    {
      "inputs": [
        {
          "internalType": "uint256",
          "name": "e3Id",
          "type": "uint256"
        }
      ],
      "name": "PlaintextOutputAlreadyPublished",
      "type": "error"
    },
    {
      "inputs": [
        {
          "internalType": "address",
          "name": "token",
          "type": "address"
        }
      ],
      "name": "SafeERC20FailedOperation",
      "type": "error"
    },
    {
      "inputs": [
        {
          "internalType": "uint256",
          "name": "threshold",
          "type": "uint256"
        }
      ],
      "name": "ThresholdTooSmall",
      "type": "error"
    },
    {
      "inputs": [],
      "name": "TreasuryRequired",
      "type": "error"
    },
    {
      "inputs": [
        {
          "internalType": "uint256",
          "name": "value",
          "type": "uint256"
        }
      ],
      "name": "UtilizationBpsExceedsMax",
      "type": "error"
    },
    {
      "anonymous": false,
      "inputs": [
        {
          "indexed": false,
          "internalType": "bytes[]",
          "name": "e3ProgramParams",
          "type": "bytes[]"
        }
      ],
      "name": "AllowedE3ProgramsParamsSet",
      "type": "event"
    },
    {
      "anonymous": false,
      "inputs": [
        {
          "indexed": false,
          "internalType": "address",
          "name": "bondingRegistry",
          "type": "address"
        }
      ],
      "name": "BondingRegistrySet",
      "type": "event"
    },
    {
      "anonymous": false,
      "inputs": [
        {
          "indexed": false,
          "internalType": "address",
          "name": "ciphernodeRegistry",
          "type": "address"
        }
      ],
      "name": "CiphernodeRegistrySet",
      "type": "event"
    },
    {
      "anonymous": false,
      "inputs": [
        {
          "indexed": true,
          "internalType": "uint256",
          "name": "e3Id",
          "type": "uint256"
        },
        {
          "indexed": false,
          "internalType": "bytes",
          "name": "ciphertextOutput",
          "type": "bytes"
        }
      ],
      "name": "CiphertextOutputPublished",
      "type": "event"
    },
    {
      "anonymous": false,
      "inputs": [
        {
          "indexed": true,
          "internalType": "uint256",
          "name": "e3Id",
          "type": "uint256"
        }
      ],
      "name": "CommitteeFinalized",
      "type": "event"
    },
    {
      "anonymous": false,
      "inputs": [
        {
          "indexed": true,
          "internalType": "uint256",
          "name": "e3Id",
          "type": "uint256"
        }
      ],
      "name": "CommitteeFormed",
      "type": "event"
    },
    {
      "anonymous": false,
      "inputs": [
        {
          "indexed": true,
          "internalType": "enum IEnclave.CommitteeSize",
          "name": "size",
          "type": "uint8"
        },
        {
          "indexed": false,
          "internalType": "uint32[2]",
          "name": "threshold",
          "type": "uint32[2]"
        }
      ],
      "name": "CommitteeThresholdsUpdated",
      "type": "event"
    },
    {
      "anonymous": false,
      "inputs": [
        {
          "indexed": true,
          "internalType": "uint256",
          "name": "e3Id",
          "type": "uint256"
        },
        {
          "indexed": false,
          "internalType": "enum IEnclave.E3Stage",
          "name": "failedAtStage",
          "type": "uint8"
        },
        {
          "indexed": false,
          "internalType": "enum IEnclave.FailureReason",
          "name": "reason",
          "type": "uint8"
        }
      ],
      "name": "E3Failed",
      "type": "event"
    },
    {
      "anonymous": false,
      "inputs": [
        {
          "indexed": true,
          "internalType": "uint256",
          "name": "e3Id",
          "type": "uint256"
        },
        {
          "indexed": false,
          "internalType": "uint256",
          "name": "paymentAmount",
          "type": "uint256"
        },
        {
          "indexed": false,
          "internalType": "uint256",
          "name": "honestNodeCount",
          "type": "uint256"
        }
      ],
      "name": "E3FailureProcessed",
      "type": "event"
    },
    {
      "anonymous": false,
      "inputs": [
        {
          "indexed": false,
          "internalType": "contract IE3Program",
          "name": "e3Program",
          "type": "address"
        }
      ],
      "name": "E3ProgramDisabled",
      "type": "event"
    },
    {
      "anonymous": false,
      "inputs": [
        {
          "indexed": false,
          "internalType": "contract IE3Program",
          "name": "e3Program",
          "type": "address"
        }
      ],
      "name": "E3ProgramEnabled",
      "type": "event"
    },
    {
      "anonymous": false,
      "inputs": [
        {
          "indexed": false,
          "internalType": "bytes[]",
          "name": "e3ProgramParams",
          "type": "bytes[]"
        }
      ],
      "name": "E3ProgramsParamsRemoved",
      "type": "event"
    },
    {
      "anonymous": false,
      "inputs": [
        {
          "indexed": true,
          "internalType": "address",
          "name": "e3RefundManager",
          "type": "address"
        }
      ],
      "name": "E3RefundManagerSet",
      "type": "event"
    },
    {
      "anonymous": false,
      "inputs": [
        {
          "indexed": false,
          "internalType": "uint256",
          "name": "e3Id",
          "type": "uint256"
        },
        {
          "components": [
            {
              "internalType": "uint256",
              "name": "seed",
              "type": "uint256"
            },
            {
              "internalType": "enum IEnclave.CommitteeSize",
              "name": "committeeSize",
              "type": "uint8"
            },
            {
              "internalType": "uint256",
              "name": "requestBlock",
              "type": "uint256"
            },
            {
              "internalType": "uint256[2]",
              "name": "inputWindow",
              "type": "uint256[2]"
            },
            {
              "internalType": "bytes32",
              "name": "encryptionSchemeId",
              "type": "bytes32"
            },
            {
              "internalType": "contract IE3Program",
              "name": "e3Program",
              "type": "address"
            },
            {
              "internalType": "bytes",
              "name": "e3ProgramParams",
              "type": "bytes"
            },
            {
              "internalType": "bytes",
              "name": "customParams",
              "type": "bytes"
            },
            {
              "internalType": "contract IDecryptionVerifier",
              "name": "decryptionVerifier",
              "type": "address"
            },
            {
              "internalType": "contract IPkVerifier",
              "name": "pkVerifier",
              "type": "address"
            },
            {
              "internalType": "bytes32",
              "name": "committeePublicKey",
              "type": "bytes32"
            },
            {
              "internalType": "bytes32",
              "name": "ciphertextOutput",
              "type": "bytes32"
            },
            {
              "internalType": "bytes",
              "name": "plaintextOutput",
              "type": "bytes"
            },
            {
              "internalType": "address",
              "name": "requester",
              "type": "address"
            },
            {
              "internalType": "bool",
              "name": "proofAggregationEnabled",
              "type": "bool"
            }
          ],
          "indexed": false,
          "internalType": "struct E3",
          "name": "e3",
          "type": "tuple"
        },
        {
          "indexed": true,
          "internalType": "contract IE3Program",
          "name": "e3Program",
          "type": "address"
        }
      ],
      "name": "E3Requested",
      "type": "event"
    },
    {
      "anonymous": false,
      "inputs": [
        {
          "indexed": true,
          "internalType": "uint256",
          "name": "e3Id",
          "type": "uint256"
        },
        {
          "indexed": false,
          "internalType": "enum IEnclave.E3Stage",
          "name": "previousStage",
          "type": "uint8"
        },
        {
          "indexed": false,
          "internalType": "enum IEnclave.E3Stage",
          "name": "newStage",
          "type": "uint8"
        }
      ],
      "name": "E3StageChanged",
      "type": "event"
    },
    {
      "anonymous": false,
      "inputs": [
        {
          "indexed": false,
          "internalType": "bytes32",
          "name": "encryptionSchemeId",
          "type": "bytes32"
        }
      ],
      "name": "EncryptionSchemeDisabled",
      "type": "event"
    },
    {
      "anonymous": false,
      "inputs": [
        {
          "indexed": false,
          "internalType": "bytes32",
          "name": "encryptionSchemeId",
          "type": "bytes32"
        }
      ],
      "name": "EncryptionSchemeEnabled",
      "type": "event"
    },
    {
      "anonymous": false,
      "inputs": [
        {
          "indexed": false,
          "internalType": "address",
          "name": "feeToken",
          "type": "address"
        }
      ],
      "name": "FeeTokenSet",
      "type": "event"
    },
    {
      "anonymous": false,
      "inputs": [
        {
          "indexed": false,
          "internalType": "uint64",
          "name": "version",
          "type": "uint64"
        }
      ],
      "name": "Initialized",
      "type": "event"
    },
    {
      "anonymous": false,
      "inputs": [
        {
          "indexed": true,
          "internalType": "uint256",
          "name": "e3Id",
          "type": "uint256"
        },
        {
          "indexed": false,
          "internalType": "bytes",
          "name": "data",
          "type": "bytes"
        },
        {
          "indexed": false,
          "internalType": "uint256",
          "name": "inputHash",
          "type": "uint256"
        },
        {
          "indexed": false,
          "internalType": "uint256",
          "name": "index",
          "type": "uint256"
        }
      ],
      "name": "InputPublished",
      "type": "event"
    },
    {
      "anonymous": false,
      "inputs": [
        {
          "indexed": false,
          "internalType": "uint256",
          "name": "maxDuration",
          "type": "uint256"
        }
      ],
      "name": "MaxDurationSet",
      "type": "event"
    },
    {
      "anonymous": false,
      "inputs": [
        {
          "indexed": true,
          "internalType": "address",
          "name": "previousOwner",
          "type": "address"
        },
        {
          "indexed": true,
          "internalType": "address",
          "name": "newOwner",
          "type": "address"
        }
      ],
      "name": "OwnershipTransferred",
      "type": "event"
    },
    {
      "anonymous": false,
      "inputs": [
        {
          "indexed": true,
          "internalType": "uint256",
          "name": "e3Id",
          "type": "uint256"
        },
        {
          "indexed": false,
          "internalType": "bytes",
          "name": "plaintextOutput",
          "type": "bytes"
        },
        {
          "indexed": false,
          "internalType": "bytes",
          "name": "proof",
          "type": "bytes"
        }
      ],
      "name": "PlaintextOutputPublished",
      "type": "event"
    },
    {
      "anonymous": false,
      "inputs": [
        {
          "components": [
            {
              "internalType": "uint256",
              "name": "keyGenFixedPerNode",
              "type": "uint256"
            },
            {
              "internalType": "uint256",
              "name": "keyGenPerEncryptionProof",
              "type": "uint256"
            },
            {
              "internalType": "uint256",
              "name": "coordinationPerPair",
              "type": "uint256"
            },
            {
              "internalType": "uint256",
              "name": "availabilityPerNodePerSec",
              "type": "uint256"
            },
            {
              "internalType": "uint256",
              "name": "decryptionPerNode",
              "type": "uint256"
            },
            {
              "internalType": "uint256",
              "name": "publicationBase",
              "type": "uint256"
            },
            {
              "internalType": "uint256",
              "name": "verificationPerProof",
              "type": "uint256"
            },
            {
              "internalType": "address",
              "name": "protocolTreasury",
              "type": "address"
            },
            {
              "internalType": "uint16",
              "name": "marginBps",
              "type": "uint16"
            },
            {
              "internalType": "uint16",
              "name": "protocolShareBps",
              "type": "uint16"
            },
            {
              "internalType": "uint16",
              "name": "dkgUtilizationBps",
              "type": "uint16"
            },
            {
              "internalType": "uint16",
              "name": "computeUtilizationBps",
              "type": "uint16"
            },
            {
              "internalType": "uint16",
              "name": "decryptUtilizationBps",
              "type": "uint16"
            },
            {
              "internalType": "uint32",
              "name": "minCommitteeSize",
              "type": "uint32"
            },
            {
              "internalType": "uint32",
              "name": "minThreshold",
              "type": "uint32"
            }
          ],
          "indexed": false,
          "internalType": "struct IEnclave.PricingConfig",
          "name": "config",
          "type": "tuple"
        }
      ],
      "name": "PricingConfigUpdated",
      "type": "event"
    },
    {
      "anonymous": false,
      "inputs": [
        {
          "indexed": true,
          "internalType": "uint256",
          "name": "e3Id",
          "type": "uint256"
        },
        {
          "indexed": false,
          "internalType": "address[]",
          "name": "nodes",
          "type": "address[]"
        },
        {
          "indexed": false,
          "internalType": "uint256[]",
          "name": "amounts",
          "type": "uint256[]"
        }
      ],
      "name": "RewardsDistributed",
      "type": "event"
    },
    {
      "anonymous": false,
      "inputs": [
        {
          "indexed": true,
          "internalType": "uint256",
          "name": "e3Id",
          "type": "uint256"
        },
        {
          "indexed": false,
          "internalType": "uint256",
          "name": "amount",
          "type": "uint256"
        }
      ],
      "name": "SlashedFundsEscrowed",
      "type": "event"
    },
    {
      "anonymous": false,
      "inputs": [
        {
          "indexed": true,
          "internalType": "address",
          "name": "slashingManager",
          "type": "address"
        }
      ],
      "name": "SlashingManagerSet",
      "type": "event"
    },
    {
      "anonymous": false,
      "inputs": [
        {
          "components": [
            {
              "internalType": "uint256",
              "name": "dkgWindow",
              "type": "uint256"
            },
            {
              "internalType": "uint256",
              "name": "computeWindow",
              "type": "uint256"
            },
            {
              "internalType": "uint256",
              "name": "decryptionWindow",
              "type": "uint256"
            }
          ],
          "indexed": false,
          "internalType": "struct IEnclave.E3TimeoutConfig",
          "name": "config",
          "type": "tuple"
        }
      ],
      "name": "TimeoutConfigUpdated",
      "type": "event"
    },
    {
      "inputs": [],
      "name": "bondingRegistry",
      "outputs": [
        {
          "internalType": "contract IBondingRegistry",
          "name": "",
          "type": "address"
        }
      ],
      "stateMutability": "view",
      "type": "function"
    },
    {
      "inputs": [
        {
          "internalType": "uint256",
          "name": "e3Id",
          "type": "uint256"
        }
      ],
      "name": "checkFailureCondition",
      "outputs": [
        {
          "internalType": "bool",
          "name": "canFail",
          "type": "bool"
        },
        {
          "internalType": "enum IEnclave.FailureReason",
          "name": "reason",
          "type": "uint8"
        }
      ],
      "stateMutability": "view",
      "type": "function"
    },
    {
      "inputs": [],
      "name": "ciphernodeRegistry",
      "outputs": [
        {
          "internalType": "contract ICiphernodeRegistry",
          "name": "",
          "type": "address"
        }
      ],
      "stateMutability": "view",
      "type": "function"
    },
    {
      "inputs": [
        {
          "internalType": "enum IEnclave.CommitteeSize",
          "name": "",
          "type": "uint8"
        },
        {
          "internalType": "uint256",
          "name": "",
          "type": "uint256"
        }
      ],
      "name": "committeeThresholds",
      "outputs": [
        {
          "internalType": "uint32",
          "name": "threshold",
          "type": "uint32"
        }
      ],
      "stateMutability": "view",
      "type": "function"
    },
    {
      "inputs": [
        {
          "internalType": "bytes32",
          "name": "encryptionSchemeId",
          "type": "bytes32"
        }
      ],
      "name": "decryptionVerifiers",
      "outputs": [
        {
          "internalType": "contract IDecryptionVerifier",
          "name": "decryptionVerifier",
          "type": "address"
        }
      ],
      "stateMutability": "view",
      "type": "function"
    },
    {
      "inputs": [
        {
          "internalType": "contract IE3Program",
          "name": "e3Program",
          "type": "address"
        }
      ],
      "name": "disableE3Program",
      "outputs": [],
      "stateMutability": "nonpayable",
      "type": "function"
    },
    {
      "inputs": [
        {
          "internalType": "bytes32",
          "name": "encryptionSchemeId",
          "type": "bytes32"
        }
      ],
      "name": "disableEncryptionScheme",
      "outputs": [],
      "stateMutability": "nonpayable",
      "type": "function"
    },
    {
      "inputs": [
        {
          "internalType": "uint256",
          "name": "e3Id",
          "type": "uint256"
        }
      ],
      "name": "e3Payments",
      "outputs": [
        {
          "internalType": "uint256",
          "name": "e3Payment",
          "type": "uint256"
        }
      ],
      "stateMutability": "view",
      "type": "function"
    },
    {
      "inputs": [
        {
          "internalType": "contract IE3Program",
          "name": "e3Program",
          "type": "address"
        }
      ],
      "name": "e3Programs",
      "outputs": [
        {
          "internalType": "bool",
          "name": "allowed",
          "type": "bool"
        }
      ],
      "stateMutability": "view",
      "type": "function"
    },
    {
      "inputs": [
        {
          "internalType": "bytes",
          "name": "e3ProgramParams",
          "type": "bytes"
        }
      ],
      "name": "e3ProgramsParams",
      "outputs": [
        {
          "internalType": "bool",
          "name": "allowed",
          "type": "bool"
        }
      ],
      "stateMutability": "view",
      "type": "function"
    },
    {
      "inputs": [],
      "name": "e3RefundManager",
      "outputs": [
        {
          "internalType": "contract IE3RefundManager",
          "name": "",
          "type": "address"
        }
      ],
      "stateMutability": "view",
      "type": "function"
    },
    {
      "inputs": [
        {
          "internalType": "uint256",
          "name": "e3Id",
          "type": "uint256"
        }
      ],
      "name": "e3s",
      "outputs": [
        {
          "internalType": "uint256",
          "name": "seed",
          "type": "uint256"
        },
        {
          "internalType": "enum IEnclave.CommitteeSize",
          "name": "committeeSize",
          "type": "uint8"
        },
        {
          "internalType": "uint256",
          "name": "requestBlock",
          "type": "uint256"
        },
        {
          "internalType": "bytes32",
          "name": "encryptionSchemeId",
          "type": "bytes32"
        },
        {
          "internalType": "contract IE3Program",
          "name": "e3Program",
          "type": "address"
        },
        {
          "internalType": "bytes",
          "name": "e3ProgramParams",
          "type": "bytes"
        },
        {
          "internalType": "bytes",
          "name": "customParams",
          "type": "bytes"
        },
        {
          "internalType": "contract IDecryptionVerifier",
          "name": "decryptionVerifier",
          "type": "address"
        },
        {
          "internalType": "contract IPkVerifier",
          "name": "pkVerifier",
          "type": "address"
        },
        {
          "internalType": "bytes32",
          "name": "committeePublicKey",
          "type": "bytes32"
        },
        {
          "internalType": "bytes32",
          "name": "ciphertextOutput",
          "type": "bytes32"
        },
        {
          "internalType": "bytes",
          "name": "plaintextOutput",
          "type": "bytes"
        },
        {
          "internalType": "address",
          "name": "requester",
          "type": "address"
        },
        {
          "internalType": "bool",
          "name": "proofAggregationEnabled",
          "type": "bool"
        }
      ],
      "stateMutability": "view",
      "type": "function"
    },
    {
      "inputs": [
        {
          "internalType": "contract IE3Program",
          "name": "e3Program",
          "type": "address"
        }
      ],
      "name": "enableE3Program",
      "outputs": [],
      "stateMutability": "nonpayable",
      "type": "function"
    },
    {
      "inputs": [
        {
          "internalType": "uint256",
          "name": "e3Id",
          "type": "uint256"
        },
        {
          "internalType": "uint256",
          "name": "amount",
          "type": "uint256"
        }
      ],
      "name": "escrowSlashedFunds",
      "outputs": [],
      "stateMutability": "nonpayable",
      "type": "function"
    },
    {
      "inputs": [],
      "name": "feeToken",
      "outputs": [
        {
          "internalType": "contract IERC20",
          "name": "",
          "type": "address"
        }
      ],
      "stateMutability": "view",
      "type": "function"
    },
    {
      "inputs": [
        {
          "internalType": "uint256",
          "name": "e3Id",
          "type": "uint256"
        }
      ],
      "name": "getDeadlines",
      "outputs": [
        {
          "components": [
            {
              "internalType": "uint256",
              "name": "dkgDeadline",
              "type": "uint256"
            },
            {
              "internalType": "uint256",
              "name": "computeDeadline",
              "type": "uint256"
            },
            {
              "internalType": "uint256",
              "name": "decryptionDeadline",
              "type": "uint256"
            }
          ],
          "internalType": "struct IEnclave.E3Deadlines",
          "name": "deadlines",
          "type": "tuple"
        }
      ],
      "stateMutability": "view",
      "type": "function"
    },
    {
      "inputs": [
        {
          "internalType": "bytes32",
          "name": "encryptionSchemeId",
          "type": "bytes32"
        }
      ],
      "name": "getDecryptionVerifier",
      "outputs": [
        {
          "internalType": "contract IDecryptionVerifier",
          "name": "",
          "type": "address"
        }
      ],
      "stateMutability": "view",
      "type": "function"
    },
    {
      "inputs": [
        {
          "internalType": "uint256",
          "name": "e3Id",
          "type": "uint256"
        }
      ],
      "name": "getE3",
      "outputs": [
        {
          "components": [
            {
              "internalType": "uint256",
              "name": "seed",
              "type": "uint256"
            },
            {
              "internalType": "enum IEnclave.CommitteeSize",
              "name": "committeeSize",
              "type": "uint8"
            },
            {
              "internalType": "uint256",
              "name": "requestBlock",
              "type": "uint256"
            },
            {
              "internalType": "uint256[2]",
              "name": "inputWindow",
              "type": "uint256[2]"
            },
            {
              "internalType": "bytes32",
              "name": "encryptionSchemeId",
              "type": "bytes32"
            },
            {
              "internalType": "contract IE3Program",
              "name": "e3Program",
              "type": "address"
            },
            {
              "internalType": "bytes",
              "name": "e3ProgramParams",
              "type": "bytes"
            },
            {
              "internalType": "bytes",
              "name": "customParams",
              "type": "bytes"
            },
            {
              "internalType": "contract IDecryptionVerifier",
              "name": "decryptionVerifier",
              "type": "address"
            },
            {
              "internalType": "contract IPkVerifier",
              "name": "pkVerifier",
              "type": "address"
            },
            {
              "internalType": "bytes32",
              "name": "committeePublicKey",
              "type": "bytes32"
            },
            {
              "internalType": "bytes32",
              "name": "ciphertextOutput",
              "type": "bytes32"
            },
            {
              "internalType": "bytes",
              "name": "plaintextOutput",
              "type": "bytes"
            },
            {
              "internalType": "address",
              "name": "requester",
              "type": "address"
            },
            {
              "internalType": "bool",
              "name": "proofAggregationEnabled",
              "type": "bool"
            }
          ],
          "internalType": "struct E3",
          "name": "e3",
          "type": "tuple"
        }
      ],
      "stateMutability": "view",
      "type": "function"
    },
    {
      "inputs": [
        {
          "components": [
            {
              "internalType": "enum IEnclave.CommitteeSize",
              "name": "committeeSize",
              "type": "uint8"
            },
            {
              "internalType": "uint256[2]",
              "name": "inputWindow",
              "type": "uint256[2]"
            },
            {
              "internalType": "contract IE3Program",
              "name": "e3Program",
              "type": "address"
            },
            {
              "internalType": "bytes",
              "name": "e3ProgramParams",
              "type": "bytes"
            },
            {
              "internalType": "bytes",
              "name": "computeProviderParams",
              "type": "bytes"
            },
            {
              "internalType": "bytes",
              "name": "customParams",
              "type": "bytes"
            },
            {
              "internalType": "bool",
              "name": "proofAggregationEnabled",
              "type": "bool"
            }
          ],
          "internalType": "struct IEnclave.E3RequestParams",
          "name": "requestParams",
          "type": "tuple"
        }
      ],
      "name": "getE3Quote",
      "outputs": [
        {
          "internalType": "uint256",
          "name": "fee",
          "type": "uint256"
        }
      ],
      "stateMutability": "view",
      "type": "function"
    },
    {
      "inputs": [
        {
          "internalType": "uint256",
          "name": "e3Id",
          "type": "uint256"
        }
      ],
      "name": "getE3Stage",
      "outputs": [
        {
          "internalType": "enum IEnclave.E3Stage",
          "name": "stage",
          "type": "uint8"
        }
      ],
      "stateMutability": "view",
      "type": "function"
    },
    {
      "inputs": [
        {
          "internalType": "uint256",
          "name": "e3Id",
          "type": "uint256"
        }
      ],
      "name": "getFailureReason",
      "outputs": [
        {
          "internalType": "enum IEnclave.FailureReason",
          "name": "reason",
          "type": "uint8"
        }
      ],
      "stateMutability": "view",
      "type": "function"
    },
    {
      "inputs": [
        {
          "internalType": "bytes32",
          "name": "encryptionSchemeId",
          "type": "bytes32"
        }
      ],
      "name": "getPkVerifier",
      "outputs": [
        {
          "internalType": "contract IPkVerifier",
          "name": "",
          "type": "address"
        }
      ],
      "stateMutability": "view",
      "type": "function"
    },
    {
      "inputs": [],
      "name": "getPricingConfig",
      "outputs": [
        {
          "components": [
            {
              "internalType": "uint256",
              "name": "keyGenFixedPerNode",
              "type": "uint256"
            },
            {
              "internalType": "uint256",
              "name": "keyGenPerEncryptionProof",
              "type": "uint256"
            },
            {
              "internalType": "uint256",
              "name": "coordinationPerPair",
              "type": "uint256"
            },
            {
              "internalType": "uint256",
              "name": "availabilityPerNodePerSec",
              "type": "uint256"
            },
            {
              "internalType": "uint256",
              "name": "decryptionPerNode",
              "type": "uint256"
            },
            {
              "internalType": "uint256",
              "name": "publicationBase",
              "type": "uint256"
            },
            {
              "internalType": "uint256",
              "name": "verificationPerProof",
              "type": "uint256"
            },
            {
              "internalType": "address",
              "name": "protocolTreasury",
              "type": "address"
            },
            {
              "internalType": "uint16",
              "name": "marginBps",
              "type": "uint16"
            },
            {
              "internalType": "uint16",
              "name": "protocolShareBps",
              "type": "uint16"
            },
            {
              "internalType": "uint16",
              "name": "dkgUtilizationBps",
              "type": "uint16"
            },
            {
              "internalType": "uint16",
              "name": "computeUtilizationBps",
              "type": "uint16"
            },
            {
              "internalType": "uint16",
              "name": "decryptUtilizationBps",
              "type": "uint16"
            },
            {
              "internalType": "uint32",
              "name": "minCommitteeSize",
              "type": "uint32"
            },
            {
              "internalType": "uint32",
              "name": "minThreshold",
              "type": "uint32"
            }
          ],
          "internalType": "struct IEnclave.PricingConfig",
          "name": "",
          "type": "tuple"
        }
      ],
      "stateMutability": "view",
      "type": "function"
    },
    {
      "inputs": [
        {
          "internalType": "uint256",
          "name": "e3Id",
          "type": "uint256"
        }
      ],
      "name": "getRequester",
      "outputs": [
        {
          "internalType": "address",
          "name": "requester",
          "type": "address"
        }
      ],
      "stateMutability": "view",
      "type": "function"
    },
    {
      "inputs": [],
      "name": "getTimeoutConfig",
      "outputs": [
        {
          "components": [
            {
              "internalType": "uint256",
              "name": "dkgWindow",
              "type": "uint256"
            },
            {
              "internalType": "uint256",
              "name": "computeWindow",
              "type": "uint256"
            },
            {
              "internalType": "uint256",
              "name": "decryptionWindow",
              "type": "uint256"
            }
          ],
          "internalType": "struct IEnclave.E3TimeoutConfig",
          "name": "config",
          "type": "tuple"
        }
      ],
      "stateMutability": "view",
      "type": "function"
    },
    {
      "inputs": [
        {
          "internalType": "address",
          "name": "_owner",
          "type": "address"
        },
        {
          "internalType": "contract ICiphernodeRegistry",
          "name": "_ciphernodeRegistry",
          "type": "address"
        },
        {
          "internalType": "contract IBondingRegistry",
          "name": "_bondingRegistry",
          "type": "address"
        },
        {
          "internalType": "contract IE3RefundManager",
          "name": "_e3RefundManager",
          "type": "address"
        },
        {
          "internalType": "contract IERC20",
          "name": "_feeToken",
          "type": "address"
        },
        {
          "internalType": "uint256",
          "name": "_maxDuration",
          "type": "uint256"
        },
        {
          "components": [
            {
              "internalType": "uint256",
              "name": "dkgWindow",
              "type": "uint256"
            },
            {
              "internalType": "uint256",
              "name": "computeWindow",
              "type": "uint256"
            },
            {
              "internalType": "uint256",
              "name": "decryptionWindow",
              "type": "uint256"
            }
          ],
          "internalType": "struct IEnclave.E3TimeoutConfig",
          "name": "config",
          "type": "tuple"
        },
        {
          "internalType": "bytes[]",
          "name": "_e3ProgramsParams",
          "type": "bytes[]"
        }
      ],
      "name": "initialize",
      "outputs": [],
      "stateMutability": "nonpayable",
      "type": "function"
    },
    {
      "inputs": [
        {
          "internalType": "uint256",
          "name": "e3Id",
          "type": "uint256"
        }
      ],
      "name": "markE3Failed",
      "outputs": [
        {
          "internalType": "enum IEnclave.FailureReason",
          "name": "reason",
          "type": "uint8"
        }
      ],
      "stateMutability": "nonpayable",
      "type": "function"
    },
    {
      "inputs": [],
      "name": "maxDuration",
      "outputs": [
        {
          "internalType": "uint256",
          "name": "",
          "type": "uint256"
        }
      ],
      "stateMutability": "view",
      "type": "function"
    },
    {
      "inputs": [],
      "name": "nexte3Id",
      "outputs": [
        {
          "internalType": "uint256",
          "name": "",
          "type": "uint256"
        }
      ],
      "stateMutability": "view",
      "type": "function"
    },
    {
      "inputs": [
        {
          "internalType": "uint256",
          "name": "e3Id",
          "type": "uint256"
        }
      ],
      "name": "onCommitteeFinalized",
      "outputs": [],
      "stateMutability": "nonpayable",
      "type": "function"
    },
    {
      "inputs": [
        {
          "internalType": "uint256",
          "name": "e3Id",
          "type": "uint256"
        },
        {
          "internalType": "bytes32",
          "name": "committeePublicKey",
          "type": "bytes32"
        }
      ],
      "name": "onCommitteePublished",
      "outputs": [],
      "stateMutability": "nonpayable",
      "type": "function"
    },
    {
      "inputs": [
        {
          "internalType": "uint256",
          "name": "e3Id",
          "type": "uint256"
        },
        {
          "internalType": "uint8",
          "name": "reason",
          "type": "uint8"
        }
      ],
      "name": "onE3Failed",
      "outputs": [],
      "stateMutability": "nonpayable",
      "type": "function"
    },
    {
      "inputs": [],
      "name": "owner",
      "outputs": [
        {
          "internalType": "address",
          "name": "",
          "type": "address"
        }
      ],
      "stateMutability": "view",
      "type": "function"
    },
    {
      "inputs": [
        {
          "internalType": "bytes32",
          "name": "encryptionSchemeId",
          "type": "bytes32"
        }
      ],
      "name": "pkVerifiers",
      "outputs": [
        {
          "internalType": "contract IPkVerifier",
          "name": "pkVerifier",
          "type": "address"
        }
      ],
      "stateMutability": "view",
      "type": "function"
    },
    {
      "inputs": [
        {
          "internalType": "uint256",
          "name": "e3Id",
          "type": "uint256"
        }
      ],
      "name": "processE3Failure",
      "outputs": [],
      "stateMutability": "nonpayable",
      "type": "function"
    },
    {
      "inputs": [
        {
          "internalType": "uint256",
          "name": "e3Id",
          "type": "uint256"
        },
        {
          "internalType": "bytes",
          "name": "ciphertextOutput",
          "type": "bytes"
        },
        {
          "internalType": "bytes",
          "name": "proof",
          "type": "bytes"
        }
      ],
      "name": "publishCiphertextOutput",
      "outputs": [
        {
          "internalType": "bool",
          "name": "success",
          "type": "bool"
        }
      ],
      "stateMutability": "nonpayable",
      "type": "function"
    },
    {
      "inputs": [
        {
          "internalType": "uint256",
          "name": "e3Id",
          "type": "uint256"
        },
        {
          "internalType": "bytes",
          "name": "plaintextOutput",
          "type": "bytes"
        },
        {
          "internalType": "bytes",
          "name": "proof",
          "type": "bytes"
        },
        {
          "internalType": "bytes",
          "name": "foldProof",
          "type": "bytes"
        }
      ],
      "name": "publishPlaintextOutput",
      "outputs": [
        {
          "internalType": "bool",
          "name": "success",
          "type": "bool"
        }
      ],
      "stateMutability": "nonpayable",
      "type": "function"
    },
    {
      "inputs": [
        {
          "internalType": "bytes[]",
          "name": "_e3ProgramsParams",
          "type": "bytes[]"
        }
      ],
      "name": "removeE3ProgramsParams",
      "outputs": [],
      "stateMutability": "nonpayable",
      "type": "function"
    },
    {
      "inputs": [],
      "name": "renounceOwnership",
      "outputs": [],
      "stateMutability": "nonpayable",
      "type": "function"
    },
    {
      "inputs": [
        {
          "components": [
            {
              "internalType": "enum IEnclave.CommitteeSize",
              "name": "committeeSize",
              "type": "uint8"
            },
            {
              "internalType": "uint256[2]",
              "name": "inputWindow",
              "type": "uint256[2]"
            },
            {
              "internalType": "contract IE3Program",
              "name": "e3Program",
              "type": "address"
            },
            {
              "internalType": "bytes",
              "name": "e3ProgramParams",
              "type": "bytes"
            },
            {
              "internalType": "bytes",
              "name": "computeProviderParams",
              "type": "bytes"
            },
            {
              "internalType": "bytes",
              "name": "customParams",
              "type": "bytes"
            },
            {
              "internalType": "bool",
              "name": "proofAggregationEnabled",
              "type": "bool"
            }
          ],
          "internalType": "struct IEnclave.E3RequestParams",
          "name": "requestParams",
          "type": "tuple"
        }
      ],
      "name": "request",
      "outputs": [
        {
          "internalType": "uint256",
          "name": "e3Id",
          "type": "uint256"
        },
        {
          "components": [
            {
              "internalType": "uint256",
              "name": "seed",
              "type": "uint256"
            },
            {
              "internalType": "enum IEnclave.CommitteeSize",
              "name": "committeeSize",
              "type": "uint8"
            },
            {
              "internalType": "uint256",
              "name": "requestBlock",
              "type": "uint256"
            },
            {
              "internalType": "uint256[2]",
              "name": "inputWindow",
              "type": "uint256[2]"
            },
            {
              "internalType": "bytes32",
              "name": "encryptionSchemeId",
              "type": "bytes32"
            },
            {
              "internalType": "contract IE3Program",
              "name": "e3Program",
              "type": "address"
            },
            {
              "internalType": "bytes",
              "name": "e3ProgramParams",
              "type": "bytes"
            },
            {
              "internalType": "bytes",
              "name": "customParams",
              "type": "bytes"
            },
            {
              "internalType": "contract IDecryptionVerifier",
              "name": "decryptionVerifier",
              "type": "address"
            },
            {
              "internalType": "contract IPkVerifier",
              "name": "pkVerifier",
              "type": "address"
            },
            {
              "internalType": "bytes32",
              "name": "committeePublicKey",
              "type": "bytes32"
            },
            {
              "internalType": "bytes32",
              "name": "ciphertextOutput",
              "type": "bytes32"
            },
            {
              "internalType": "bytes",
              "name": "plaintextOutput",
              "type": "bytes"
            },
            {
              "internalType": "address",
              "name": "requester",
              "type": "address"
            },
            {
              "internalType": "bool",
              "name": "proofAggregationEnabled",
              "type": "bool"
            }
          ],
          "internalType": "struct E3",
          "name": "e3",
          "type": "tuple"
        }
      ],
      "stateMutability": "nonpayable",
      "type": "function"
    },
    {
      "inputs": [
        {
          "internalType": "contract IBondingRegistry",
          "name": "_bondingRegistry",
          "type": "address"
        }
      ],
      "name": "setBondingRegistry",
      "outputs": [],
      "stateMutability": "nonpayable",
      "type": "function"
    },
    {
      "inputs": [
        {
          "internalType": "contract ICiphernodeRegistry",
          "name": "_ciphernodeRegistry",
          "type": "address"
        }
      ],
      "name": "setCiphernodeRegistry",
      "outputs": [],
      "stateMutability": "nonpayable",
      "type": "function"
    },
    {
      "inputs": [
        {
          "internalType": "enum IEnclave.CommitteeSize",
          "name": "size",
          "type": "uint8"
        },
        {
          "internalType": "uint32[2]",
          "name": "threshold",
          "type": "uint32[2]"
        }
      ],
      "name": "setCommitteeThresholds",
      "outputs": [],
      "stateMutability": "nonpayable",
      "type": "function"
    },
    {
      "inputs": [
        {
          "internalType": "bytes32",
          "name": "encryptionSchemeId",
          "type": "bytes32"
        },
        {
          "internalType": "contract IDecryptionVerifier",
          "name": "decryptionVerifier",
          "type": "address"
        }
      ],
      "name": "setDecryptionVerifier",
      "outputs": [],
      "stateMutability": "nonpayable",
      "type": "function"
    },
    {
      "inputs": [
        {
          "internalType": "bytes[]",
          "name": "_e3ProgramsParams",
          "type": "bytes[]"
        }
      ],
      "name": "setE3ProgramsParams",
      "outputs": [],
      "stateMutability": "nonpayable",
      "type": "function"
    },
    {
      "inputs": [
        {
          "internalType": "contract IE3RefundManager",
          "name": "_e3RefundManager",
          "type": "address"
        }
      ],
      "name": "setE3RefundManager",
      "outputs": [],
      "stateMutability": "nonpayable",
      "type": "function"
    },
    {
      "inputs": [
        {
          "internalType": "contract IERC20",
          "name": "_feeToken",
          "type": "address"
        }
      ],
      "name": "setFeeToken",
      "outputs": [],
      "stateMutability": "nonpayable",
      "type": "function"
    },
    {
      "inputs": [
        {
          "internalType": "uint256",
          "name": "_maxDuration",
          "type": "uint256"
        }
      ],
      "name": "setMaxDuration",
      "outputs": [],
      "stateMutability": "nonpayable",
      "type": "function"
    },
    {
      "inputs": [
        {
          "internalType": "bytes32",
          "name": "encryptionSchemeId",
          "type": "bytes32"
        },
        {
          "internalType": "contract IPkVerifier",
          "name": "pkVerifier",
          "type": "address"
        }
      ],
      "name": "setPkVerifier",
      "outputs": [],
      "stateMutability": "nonpayable",
      "type": "function"
    },
    {
      "inputs": [
        {
          "components": [
            {
              "internalType": "uint256",
              "name": "keyGenFixedPerNode",
              "type": "uint256"
            },
            {
              "internalType": "uint256",
              "name": "keyGenPerEncryptionProof",
              "type": "uint256"
            },
            {
              "internalType": "uint256",
              "name": "coordinationPerPair",
              "type": "uint256"
            },
            {
              "internalType": "uint256",
              "name": "availabilityPerNodePerSec",
              "type": "uint256"
            },
            {
              "internalType": "uint256",
              "name": "decryptionPerNode",
              "type": "uint256"
            },
            {
              "internalType": "uint256",
              "name": "publicationBase",
              "type": "uint256"
            },
            {
              "internalType": "uint256",
              "name": "verificationPerProof",
              "type": "uint256"
            },
            {
              "internalType": "address",
              "name": "protocolTreasury",
              "type": "address"
            },
            {
              "internalType": "uint16",
              "name": "marginBps",
              "type": "uint16"
            },
            {
              "internalType": "uint16",
              "name": "protocolShareBps",
              "type": "uint16"
            },
            {
              "internalType": "uint16",
              "name": "dkgUtilizationBps",
              "type": "uint16"
            },
            {
              "internalType": "uint16",
              "name": "computeUtilizationBps",
              "type": "uint16"
            },
            {
              "internalType": "uint16",
              "name": "decryptUtilizationBps",
              "type": "uint16"
            },
            {
              "internalType": "uint32",
              "name": "minCommitteeSize",
              "type": "uint32"
            },
            {
              "internalType": "uint32",
              "name": "minThreshold",
              "type": "uint32"
            }
          ],
          "internalType": "struct IEnclave.PricingConfig",
          "name": "config",
          "type": "tuple"
        }
      ],
      "name": "setPricingConfig",
      "outputs": [],
      "stateMutability": "nonpayable",
      "type": "function"
    },
    {
      "inputs": [
        {
          "internalType": "contract ISlashingManager",
          "name": "_slashingManager",
          "type": "address"
        }
      ],
      "name": "setSlashingManager",
      "outputs": [],
      "stateMutability": "nonpayable",
      "type": "function"
    },
    {
      "inputs": [
        {
          "components": [
            {
              "internalType": "uint256",
              "name": "dkgWindow",
              "type": "uint256"
            },
            {
              "internalType": "uint256",
              "name": "computeWindow",
              "type": "uint256"
            },
            {
              "internalType": "uint256",
              "name": "decryptionWindow",
              "type": "uint256"
            }
          ],
          "internalType": "struct IEnclave.E3TimeoutConfig",
          "name": "config",
          "type": "tuple"
        }
      ],
      "name": "setTimeoutConfig",
      "outputs": [],
      "stateMutability": "nonpayable",
      "type": "function"
    },
    {
      "inputs": [],
      "name": "slashingManager",
      "outputs": [
        {
          "internalType": "contract ISlashingManager",
          "name": "",
          "type": "address"
        }
      ],
      "stateMutability": "view",
      "type": "function"
    },
    {
      "inputs": [
        {
          "internalType": "address",
          "name": "newOwner",
          "type": "address"
        }
      ],
      "name": "transferOwnership",
      "outputs": [],
      "stateMutability": "nonpayable",
      "type": "function"
    }
  ],
  "bytecode": "0x6080604052348015600e575f5ffd5b5060156019565b60c9565b7ff0c57e16840df040f15088dc2f81fe391c3923bec73e23a9662efc9c229c6a00805468010000000000000000900460ff161560685760405163f92ee8a960e01b815260040160405180910390fd5b80546001600160401b039081161460c65780546001600160401b0319166001600160401b0390811782556040519081527fc7f505b2f371ae2175ee4913f4499e1f2633a7b5936321eed1cdaeb6115181d29060200160405180910390a15b50565b615b04806100d65f395ff3fe608060405234801561000f575f5ffd5b50600436106102d9575f3560e01c80639117173c11610182578063cb649617116100e0578063ea71aa571161008f578063ea71aa57146108c0578063f0691cba146108d3578063f2fde38b146108e6578063f81b8ef6146108f9578063fad8e1111461090c578063fbdb32371461091f578063fd2f3d0114610947575f5ffd5b8063cb64961714610829578063cbd1687214610832578063cf0f34c414610845578063cfbdc98d14610858578063d8afed3e14610887578063da16fb2f1461089a578063e59e4695146108ad575f5ffd5b8063ac3d2f421161013c578063ac3d2f4214610780578063b27392d5146107a8578063b68fd1be146107bb578063bb2d1b82146107ce578063bff232c1146107e1578063c1ab0f1f146107f4578063c4ccafa214610807575f5ffd5b80639117173c146105ac57806392312386146105bf578063929a8faf146105d257806399c6679d146105f35780639c8570c81461061b578063a87f4ab91461062e575f5ffd5b80634fc772641161023a5780637cfa9d74116101e95780637cfa9d741461053157806381476ec21461054457806385814243146105575780638da5cb5b1461056a5780638dcdd86b146105725780638e5ce3ad1461058457806390173a4114610597575f5ffd5b80634fc77264146104b357806364226409146104c6578063647846a5146104e75780636db5c8fd146104fa578063715018a61461050357806377868ae41461050b5780637c8c3b4d1461051e575f5ffd5b80631ba72945116102965780631ba72945146103a657806336c5d38a146103b95780634017daf0146103e8578063406ed35c146104155780634147a36014610435578063459d9294146104625780634e92ec63146104a0575f5ffd5b806301d12f1c146102dd57806302a3a9c9146102f25780630ef81b2f1461030557806310bc62811461034357806311bd61d91461036b57806315cce22414610393575b5f5ffd5b6102f06102eb366004614729565b61095a565b005b6102f06103003660046147d9565b610ba1565b61032d6103133660046147fb565b5f908152600960205260409020546001600160a01b031690565b60405161033a919061481f565b60405180910390f35b61032d6103513660046147fb565b60096020525f90815260409020546001600160a01b031681565b61037e610379366004614841565b610c4d565b60405163ffffffff909116815260200161033a565b6102f06103a13660046147d9565b610c89565b6102f06103b4366004614869565b610d2e565b6103db6103c73660046147fb565b5f908152600f602052604090205460ff1690565b60405161033a91906148ab565b6103fb6103f63660046147fb565b610d42565b60405161033a9e9d9c9b9a999897969594939291906148f7565b6104286104233660046147fb565b610f6c565b60405161033a9190614ae7565b6104546104433660046147fb565b600c6020525f908152604090205481565b60405190815260200161033a565b610490610470366004614af9565b8051602081830181018051600b8252928201919093012091525460ff1681565b604051901515815260200161033a565b6102f06104ae3660046147fb565b611269565b6102f06104c13660046147d9565b6112f8565b6104d96104d4366004614b32565b61138b565b60405161033a929190614b69565b60045461032d906001600160a01b031681565b61045460055481565b6102f0611bd3565b6102f0610519366004614b81565b611be6565b6102f061052c366004614bb2565b611c7e565b6102f061053f3660046147fb565b611d07565b6102f0610552366004614be0565b611e06565b60015461032d906001600160a01b031681565b61032d611efa565b5f5461032d906001600160a01b031681565b60035461032d906001600160a01b031681565b61059f611f28565b60405161033a9190614c00565b6102f06105ba3660046147fb565b611f6e565b61059f6105cd3660046147fb565b6120dc565b6105e56105e03660046147fb565b612135565b60405161033a929190614c21565b61032d6106013660046147fb565b5f908152601060205260409020546001600160a01b031690565b610490610629366004614c74565b61215c565b610773604080516101e0810182525f80825260208201819052918101829052606081018290526080810182905260a0810182905260c0810182905260e08101829052610100810182905261012081018290526101408101829052610160810182905261018081018290526101a081018290526101c081019190915250604080516101e0810182526018548152601954602080830191909152601a5492820192909252601b546060820152601c546080820152601d5460a0820152601e5460c0820152601f546001600160a01b03811660e083015261ffff600160a01b82048116610100840152600160b01b82048116610120840152600160c01b82048116610140840152600160d01b82048116610160840152600160e01b90910416610180820152905463ffffffff8082166101a0840152640100000000909104166101c082015290565b60405161033a9190614ceb565b61032d61078e3660046147fb565b5f908152600a60205260409020546001600160a01b031690565b6104906107b6366004614df8565b6123f4565b6102f06107c9366004614b81565b612624565b6102f06107dc366004614e9d565b6126bb565b6102f06107ef3660046147d9565b612777565b6102f0610802366004614be0565b61281e565b6104906108153660046147d9565b60076020525f908152604090205460ff1681565b61045460065481565b6102f0610840366004614bb2565b6128db565b6102f06108533660046147fb565b61298e565b61087a6108663660046147fb565b5f908152600d602052604090205460ff1690565b60405161033a9190614ed5565b6102f0610895366004614ee3565b6129cb565b6104546108a8366004614b32565b612c58565b6102f06108bb3660046147d9565b6131dc565b6102f06108ce366004614efd565b613276565b60025461032d906001600160a01b031681565b6102f06108f43660046147d9565b613523565b6103db6109073660046147fb565b61355d565b6102f061091a3660046147d9565b6136f7565b61032d61092d3660046147fb565b600a6020525f90815260409020546001600160a01b031681565b6102f06109553660046147d9565b61378f565b5f61096361381e565b805490915060ff600160401b82041615906001600160401b03165f811580156109895750825b90505f826001600160401b031660011480156109a45750303b155b9050811580156109b2575080155b156109d05760405163f92ee8a960e01b815260040160405180910390fd5b845467ffffffffffffffff1916600117855583156109fa57845460ff60401b1916600160401b1785555b610a0333613848565b610a0c8861298e565b610a158c6136f7565b610a1e8b6131dc565b610a278a610ba1565b610a3089610c89565b610a3987613859565b610a4286612624565b604080516101e08101825261c3508082526161a86020808401829052611388948401859052601460608501819052620249f0608086018190526207a12060a087018190526107d060c088018190525f60e089018190526103e86101008a015261012089018190526109c46101408a018190526101608a018b90526101808a01526101a089018190526101c090980197909752601895909555601993909355601a95909555601b94909455601c55601d55601e55601f80546001600160f01b031916690138827101388000007d60a31b179055805467ffffffffffffffff19169055610b2b611efa565b6001600160a01b03168d6001600160a01b031614610b4c57610b4c8d613523565b8315610b9257845460ff60401b19168555604051600181527fc7f505b2f371ae2175ee4913f4499e1f2633a7b5936321eed1cdaeb6115181d29060200160405180910390a15b50505050505050505050505050565b610ba9613916565b6001600160a01b038116610c045760405162461bcd60e51b815260206004820152601f60248201527f496e76616c6964204533526566756e644d616e6167657220616464726573730060448201526064015b60405180910390fd5b600280546001600160a01b0319166001600160a01b0383169081179091556040517f9557d04c1c0b16f93f13b69aed23b3b6ab935bff3c53ac81d17896d3583542ed905f90a250565b6012602052815f5260405f208160028110610c66575f80fd5b60089182820401919006600402915091509054906101000a900463ffffffff1681565b610c91613916565b6001600160a01b03811615801590610cb757506004546001600160a01b03828116911614155b8190610cd75760405163eddf07f560e01b8152600401610bfb919061481f565b50600480546001600160a01b0319166001600160a01b0383161790556040517f722ff84c1234b2482061def5c82c6b5080c117b3cbb69d686844a051e4b8e7f390610d2390839061481f565b60405180910390a150565b610d36613916565b610d3f81613859565b50565b60086020525f9081526040902080546001820154600283015460058401546006850154600786018054959660ff90951695939492936001600160a01b039092169291610d8d90614f34565b80601f0160208091040260200160405190810160405280929190818152602001828054610db990614f34565b8015610e045780601f10610ddb57610100808354040283529160200191610e04565b820191905f5260205f20905b815481529060010190602001808311610de757829003601f168201915b505050505090806008018054610e1990614f34565b80601f0160208091040260200160405190810160405280929190818152602001828054610e4590614f34565b8015610e905780601f10610e6757610100808354040283529160200191610e90565b820191905f5260205f20905b815481529060010190602001808311610e7357829003601f168201915b5050506009840154600a850154600b860154600c870154600d8801805497986001600160a01b03958616989490951696509194509291610ecf90614f34565b80601f0160208091040260200160405190810160405280929190818152602001828054610efb90614f34565b8015610f465780601f10610f1d57610100808354040283529160200191610f46565b820191905f5260205f20905b815481529060010190602001808311610f2957829003601f168201915b505050600e90930154919250506001600160a01b0381169060ff600160a01b909104168e565b610f7461440e565b5f8281526008602090815260409182902082516101e08101909352805483526001810154909183019060ff166003811115610fb157610fb1614883565b6003811115610fc257610fc2614883565b8152600282810154602083015260408051808201808352919093019291600385019182845b815481526020019060010190808311610fe75750505091835250506005820154602082015260068201546001600160a01b0316604082015260078201805460609092019161103490614f34565b80601f016020809104026020016040519081016040528092919081815260200182805461106090614f34565b80156110ab5780601f10611082576101008083540402835291602001916110ab565b820191905f5260205f20905b81548152906001019060200180831161108e57829003601f168201915b505050505081526020016008820180546110c490614f34565b80601f01602080910402602001604051908101604052809291908181526020018280546110f090614f34565b801561113b5780601f106111125761010080835404028352916020019161113b565b820191905f5260205f20905b81548152906001019060200180831161111e57829003601f168201915b505050918352505060098201546001600160a01b039081166020830152600a830154166040820152600b8201546060820152600c8201546080820152600d8201805460a09092019161118c90614f34565b80601f01602080910402602001604051908101604052809291908181526020018280546111b890614f34565b80156112035780601f106111da57610100808354040283529160200191611203565b820191905f5260205f20905b8154815290600101906020018083116111e657829003601f168201915b5050509183525050600e91909101546001600160a01b038082166020840152600160a01b90910460ff16151560409092019190915260a08201519192508391166112635760405163cd6f4a4f60e01b8152600401610bfb91815260200190565b50919050565b611271613916565b5f8181526009602052604090205481906001600160a01b03166112aa576040516381c4951960e01b8152600401610bfb91815260200190565b505f818152600960205260409081902080546001600160a01b0319169055517f104eb329a192aef26eddea07c2af5ad2587792e62b37ed4045b6ba59bc5540fc90610d239083815260200190565b611300613916565b6001600160a01b0381165f90815260076020526040902054819060ff1661133b576040516321ac7c5f60e01b8152600401610bfb919061481f565b506001600160a01b0381165f9081526007602052604090819020805460ff19169055517f56070b80bd617fcd2f7a284861edb488830a38f9dedcd77b2cb2f4eac17743e790610d2390839061481f565b5f61139461440e565b5f6012816113a56020870187614f66565b60038111156113b6576113b6614883565b60038111156113c7576113c7614883565b8152602081019190915260409081015f20815180830190925260028282826020028201915f905b82829054906101000a900463ffffffff1663ffffffff16815260200190600401906020826003010492830192600103820291508084116113ee579050505050505090505f8160016002811061144557611445614f7f565b602002015163ffffffff1611845f0160208101906114639190614f66565b906114825760405163286c068d60e11b8152600401610bfb9190614f93565b506020840135428110156114ac57604051630b99e87960e01b8152600401610bfb91815260200190565b50604084013560208501358110156114da5760405163174b5a0760e21b8152600401610bfb91815260200190565b506017546016545f91906114f2426040890135614fb5565b6114fc9190614fc8565b6115069190614fc8565b90506005548110819061152f576040516313b783af60e21b8152600401610bfb91815260200190565b5060075f61154360808801606089016147d9565b6001600160a01b0316815260208101919091526040015f205460ff1661156f60808701606088016147d9565b9061158e5760405163295a6a6f60e11b8152600401610bfb919061481f565b505f61159986612c58565b60068054965090915085905f6115ae83614fdb565b9091555050604080514460208201529081018690525f9060600160408051601f1981840301815291815281516020928301205f898152600c84528281208690556004546011855283822080546001600160a01b03199081166001600160a01b0393841617909155601f805460138852868520805461ffff191661ffff600160b01b909304929092169190911790555460148752858420805483169190931617909155600d8552838220805460ff1916600117905560109094528290208054339416939093179092556016549192506116899190890135614fc8565b5f878152600e60209081526040909120600101919091558186526116af90880188614f66565b856020019060038111156116c5576116c5614883565b908160038111156116d8576116d8614883565b905250436040808701919091528051808201825290602089019060029083908390808284375f92019190915250505060608087019190915261172090608089019089016147d9565b6001600160a01b031660a086015261173b6080880188614ff3565b8080601f0160208091040260200160405190810160405280939291908181526020018383808284375f9201919091525050505060c08087019190915261178390880188614ff3565b8080601f0160208091040260200160405190810160405280939291908181526020018383808284375f9201919091525050505060e0808701919091526117d0906101008901908901615042565b15156101c08601525f610140860181905261016086018190526040805160208101909152908152610180860152336101a08601819052600454611820916001600160a01b03909116903085613948565b5f6118316080890160608a016147d9565b6001600160a01b031663fefd9a8b888461184e60808d018d614ff3565b61185b60a08f018f614ff3565b8f8060c0019061186b9190614ff3565b6040518963ffffffff1660e01b815260040161188e989796959493929190615085565b6020604051808303815f875af11580156118aa573d5f5f3e3d5ffd5b505050506040513d601f19601f820116820180604052508101906118ce91906150db565b5f818152600960205260409020549091506001600160a01b0316818161190a576040516381c4951960e01b8152600401610bfb91815260200190565b505f828152600a60205260409020546001600160a01b03168281611944576040516381c4951960e01b8152600401610bfb91815260200190565b50608088018390526001600160a01b038083166101008a015281166101208901525f8981526008602090815260409091208951815590890151600180830180548c94939260ff1991909116908360038111156119a2576119a2614883565b0217905550604082015181600201556060820151816003019060026119c892919061448b565b506080820151600582015560a08201516006820180546001600160a01b0319166001600160a01b0390921691909117905560c08201516007820190611a0d9082615151565b5060e08201516008820190611a229082615151565b506101008201516009820180546001600160a01b039283166001600160a01b031991821617909155610120840151600a84018054919093169116179055610140820151600b820155610160820151600c820155610180820151600d820190611a8a9082615151565b506101a0820151600e90910180546101c0909301511515600160a01b026001600160a81b03199093166001600160a01b0392831617929092179091555f5460405163291a691b60e01b815291169063291a691b90611af0908c9088908c90600401615206565b6020604051808303815f875af1158015611b0c573d5f5f3e3d5ffd5b505050506040513d601f19601f82011682018060405250810190611b30919061524b565b611b4d57604051630d8dbe2560e01b815260040160405180910390fd5b611b5d60808b0160608c016147d9565b6001600160a01b03167f5904e83d57e704fba4d92c5617f6b50ae993cd42d78babfcb239d0a6775f30708a8a604051611b97929190614b69565b60405180910390a2885f516020615ad85f395f51905f525f6001604051611bbf929190615266565b60405180910390a250505050505050915091565b611bdb613916565b611be45f6139b5565b565b611bee613916565b80515f5b81811015611c4257600b838281518110611c0e57611c0e614f7f565b6020026020010151604051611c239190615281565b908152604051908190036020019020805460ff19169055600101611bf2565b507fd1b46e030b48add7bc03225cc5a6f403970976b36983f99ec31d535d627fc7db82604051611c729190615297565b60405180910390a15050565b611c86613916565b6001600160a01b03811615801590611cb757505f828152600a60205260409020546001600160a01b03828116911614155b8290611cd9576040516381c4951960e01b8152600401610bfb91815260200190565b505f918252600a602052604090912080546001600160a01b0319166001600160a01b03909216919091179055565b5f546001600160a01b03163314611d315760405163b56831db60e01b815260040160405180910390fd5b5f818152600d602052604090205460ff166001816006811115611d5657611d56614883565b14611d7b57816001826040516337e1404160e01b8152600401610bfb939291906152fa565b5f828152600d60205260409020805460ff19166002179055601554611da09042614fc8565b5f838152600e602052604080822092909255905183917fc44405af9078047712501f519e1fb900c2896c62b488336f84529c72ae16e6f191a2815f516020615ad85f395f51905f5260016002604051611dfa929190615266565b60405180910390a25050565b5f546001600160a01b03163314611e305760405163b56831db60e01b815260040160405180910390fd5b5f828152600860209081526040808320600d9092529091205460ff166002816006811115611e6057611e60614883565b14611e8557836002826040516337e1404160e01b8152600401610bfb939291906152fa565b5f848152600d6020526040808220805460ff19166003179055600b84018590555185917f11df18edb9bc9cd90a79068e0e208b630202148643d797d6150e7bacb733e63c91a2835f516020615ad85f395f51905f5260026003604051611eec929190615266565b60405180910390a250505050565b7f9016d09d72d40fdae2fd8ceac6b6234c7706214fd39c1cd1e609a0528c199300546001600160a01b031690565b611f4960405180606001604052805f81526020015f81526020015f81525090565b5060408051606081018252601554815260165460208201526017549181019190915290565b5f818152600d602052604090205460ff166006816006811115611f9357611f93614883565b148290611fb657604051637cb2d48360e11b8152600401610bfb91815260200190565b505f828152600c60205260409020548281611fe7576040516345ba89d560e11b8152600401610bfb91815260200190565b505f838152600c6020526040812081905561200184613a25565b5f858152601160205260409020546002549192506001600160a01b039081169161202e9183911685613b12565b60025460405163da19b69760e01b81526001600160a01b039091169063da19b6979061206490889087908790879060040161535e565b5f604051808303815f87803b15801561207b575f5ffd5b505af115801561208d573d5f5f3e3d5ffd5b50505050847f5297818f48a66292b8b3e2caab83eec531b669bb20807fd38cf006adb2a073178484516040516120cd929190918252602082015260400190565b60405180910390a25050505050565b6120fd60405180606001604052805f81526020015f81526020015f81525090565b505f908152600e6020908152604091829020825160608101845281548152600182015492810192909252600201549181019190915290565b5f818152600d6020526040812054819060ff166121528482613b3d565b9250925050915091565b5f5f61216787610f6c565b5f888152600d602052604090205490915060ff16600381600681111561218f5761218f614883565b14886003839091926121b7576040516337e1404160e01b8152600401610bfb939291906152fa565b5050505f888152600e602090815260409182902082516060810184528154815260018201549281018390526002909101549281019290925289904281101561221b576040516308f3034360e31b815260048101929092526024820152604401610bfb565b50506060830151602001518990428111156122525760405163017e35e560e71b815260048101929092526024820152604401610bfb565b505061016083015189901561227d57604051637eb9cea960e11b8152600401610bfb91815260200190565b505f888860405161228f929190615395565b60408051918290039091205f8c815260086020908152838220600c01839055600d905291909120805460ff191660041790556017549091506122d19042614fc8565b5f8b8152600e6020526040908190206002019190915560a08501519051632f0e1bbf60e01b81526001600160a01b0390911690632f0e1bbf9061231e908d9085908c908c906004016153a4565b6020604051808303815f875af115801561233a573d5f5f3e3d5ffd5b505050506040513d601f19601f8201168201806040525081019061235e919061524b565b945088888661238257604051632f9f8ab960e01b8152600401610bfb9291906153c3565b5050897f7cc27e4a5626cbc4f8ba1a927b0448de55e6a114bc87660331270c5109ade0718a8a6040516123b69291906153c3565b60405180910390a2895f516020615ad85f395f51905f52600360046040516123df929190615266565b60405180910390a25050505095945050505050565b5f5f6123ff89610f6c565b5f8a8152600d602052604090205490915060ff16600481600681111561242757612427614883565b148a60048390919261244f576040516337e1404160e01b8152600401610bfb939291906152fa565b5050505f8a8152600e602090815260409182902082516060810184528154815260018201549281019290925260020154918101829052908b90428110156124b2576040516308f3034360e31b815260048101929092526024820152604401610bfb565b50505f8b8152600860205260409020600d016124cf8a8c836153d6565b505f8b8152600d6020526040902080546005919060ff191660018302179055508261010001516001600160a01b0316635bf48e3a8b8b604051612513929190615395565b6040519081900381206001600160e01b031960e084901b168252612541918c908c908c908c9060040161548a565b602060405180830381865afa15801561255c573d5f5f3e3d5ffd5b505050506040513d601f19601f82011682018060405250810190612580919061524b565b93508989856125a457604051632f9f8ab960e01b8152600401610bfb9291906153c3565b50506125af8b613cc5565b8a7f3a140076c461ebc41d74833ae0ee8bbc8079a135a63392098cd381e84350b69b8b8b8b8b6040516125e594939291906154c2565b60405180910390a28a5f516020615ad85f395f51905f526004600560405161260e929190615266565b60405180910390a2505050979650505050505050565b61262c613916565b80515f5b8181101561268b576001600b84838151811061264e5761264e614f7f565b60200260200101516040516126639190615281565b908152604051908190036020019020805491151560ff19909216919091179055600101612630565b507f027b83cad653f54850fef6faa8c705f73a53e7f8de50a3a33ac1e0e3a5c0be8182604051611c729190615297565b5f546001600160a01b03163314806126dd57506003546001600160a01b031633145b6126fa57604051639e75a8b560e01b815260040160405180910390fd5b5f8160ff161180156127105750600d60ff821611155b6127555760405162461bcd60e51b815260206004820152601660248201527524b73b30b634b2103330b4b63ab932903932b0b9b7b760511b6044820152606401610bfb565b612773828260ff16600d81111561276e5761276e614883565b614131565b5050565b61277f613916565b6001600160a01b0381166127d55760405162461bcd60e51b815260206004820152601f60248201527f496e76616c696420536c617368696e674d616e616765722061646472657373006044820152606401610bfb565b600380546001600160a01b0319166001600160a01b0383169081179091556040517f4ccc8ed483c7c44c3602c3c38afc2c014a8f1d2dc210dfe58ebeeeead230f8e0905f90a250565b6003546001600160a01b03163314612849576040516357d6948d60e11b815260040160405180910390fd5b60025460405163c1ab0f1f60e01b815260048101849052602481018390526001600160a01b039091169063c1ab0f1f906044015f604051808303815f87803b158015612893575f5ffd5b505af11580156128a5573d5f5f3e3d5ffd5b50505050817f4f41a3b0a032ebcae925f2ace77d507435840ca4b2dbaffdd7723fa8d72ee54282604051611dfa91815260200190565b6128e3613916565b6001600160a01b0381161580159061291457505f828152600960205260409020546001600160a01b03828116911614155b8290612936576040516381c4951960e01b8152600401610bfb91815260200190565b505f8281526009602090815260409182902080546001600160a01b0319166001600160a01b03851617905590518381527ff4041a3f914dac3bc9bf5f003ba41f28dbb84abe42f4e07c76266f5c8ceecb699101611c72565b612996613916565b60058190556040518181527fba0716ba1ee2ea8ecc4c64119b4537cdb42a99d82acf92af5b87607b8b52355290602001610d23565b6129d3613916565b6127106129e86101208301610100840161550d565b61ffff161115612a006101208301610100840161550d565b90612a25576040516301027fc160e21b815261ffff9091166004820152602401610bfb565b50612710612a3b6101408301610120840161550d565b61ffff161115612a536101408301610120840161550d565b90612a78576040516301027fc160e21b815261ffff9091166004820152602401610bfb565b50612710612a8e6101608301610140840161550d565b61ffff161115612aa66101608301610140840161550d565b90612acb57604051633239953960e01b815261ffff9091166004820152602401610bfb565b50612710612ae16101808301610160840161550d565b61ffff161115612af96101808301610160840161550d565b90612b1e57604051633239953960e01b815261ffff9091166004820152602401610bfb565b50612710612b346101a08301610180840161550d565b61ffff161115612b4c6101a08301610180840161550d565b90612b7157604051633239953960e01b815261ffff9091166004820152602401610bfb565b50612b846101408201610120830161550d565b61ffff161580612bad57505f612ba1610100830160e084016147d9565b6001600160a01b031614155b612bca5760405163015f92ff60e51b815260040160405180910390fd5b612bdc6101e082016101c08301615544565b63ffffffff16612bf46101c083016101a08401615544565b63ffffffff161015612c19576040516392f55c6560e01b815260040160405180910390fd5b806018612c268282615583565b9050507fbf3951313e980027eb48ce363fdb707286195ec6a0f802ac153927cf929c3fc681604051610d239190615741565b5f80601281612c6a6020860186614f66565b6003811115612c7b57612c7b614883565b6003811115612c8c57612c8c614883565b8152602081019190915260409081015f20815180830190925260028282826020028201915f905b82829054906101000a900463ffffffff1663ffffffff1681526020019060040190602082600301049283019260010382029150808411612cb3579050505050505090505f81600160028110612d0a57612d0a614f7f565b602002015163ffffffff1611835f016020810190612d289190614f66565b90612d475760405163286c068d60e11b8152600401610bfb9190614f93565b506020808201518251604080516101e081018252601854815260195481860152601a5491810191909152601b546060820152601c546080820152601d5460a0820152601e5460c0820152601f546001600160a01b03811660e0830152600160a01b810461ffff908116610100840152600160b01b82048116610120840152600160c01b82048116610140840152600160d01b82048116610160840152600160e01b90910416610180820152925463ffffffff8181166101a0860181905264010000000090920481166101c086015292831693919092169115612e72576101a081015163ffffffff16846001602002015163ffffffff161015865f016020810190612e519190614f66565b90612e705760405163010b971d60e31b8152600401610bfb9190614f93565b505b6101c081015163ffffffff1615612ec1576101c081015184519063ffffffff9081169082161015612ebf57604051630a4b6b6360e11b815263ffffffff9091166004820152602401610bfb565b505b60408601356020870135811015612eee5760405163174b5a0760e21b8152600401610bfb91815260200190565b506101808101516017545f9161271091612f0c9161ffff169061584b565b612f169190615862565b61271061ffff1683610160015161ffff16601560010154612f37919061584b565b612f419190615862565b61271061ffff1684610140015161ffff1660155f0154612f61919061584b565b612f6b9190615862565b5f5460408051634f87c3a560e11b8152815160208e81013594938f0135936001600160a01b031692639f0f874a92600480830193928290030181865afa158015612fb7573d5f5f3e3d5ffd5b505050506040513d601f19601f82011682018060405250810190612fdb91906150db565b612fe59190614fc8565b612fef9190614fb5565b612ff99190614fc8565b6130039190614fc8565b61300d9190614fc8565b90505f61301b600186614fb5565b61302690600261584b565b61303190600261584b565b61303c906006614fc8565b90505f85845f015161304e919061584b565b905081868560200151613061919061584b565b61306b919061584b565b6130759082614fc8565b905060018611156130bd57600261308d600188614fb5565b613097908861584b565b85604001516130a6919061584b565b6130b09190615862565b6130ba9082614fc8565b90505b81868560c001516130ce919061584b565b6130d8919061584b565b6130e29082614fc8565b9050828685606001516130f5919061584b565b6130ff919061584b565b6131099082614fc8565b905084846080015161311b919061584b565b6131259082614fc8565b9050600185111561316d57600261313d600187614fb5565b613147908761584b565b8560400151613156919061584b565b6131609190615862565b61316a9082614fc8565b90505b60a084015161317c9082614fc8565b610100850151909150612710906131979061ffff1682614fc8565b6131a1908361584b565b6131ab9190615862565b975087806131cf57604051638c4fcd9360e01b8152600401610bfb91815260200190565b5050505050505050919050565b6131e4613916565b6001600160a01b0381161580159061320a57506001546001600160a01b03828116911614155b819061322a576040516320252f0b60e01b8152600401610bfb919061481f565b50600180546001600160a01b0319166001600160a01b0383161790556040517fad4055f18cdad6f4bdd71afe3a72cbeee964217943e1bde38f138289e981a9a790610d2390839061481f565b61327e613916565b61328b6020820182615544565b63ffffffff166132a16040830160208401615544565b63ffffffff16101580156132c657505f6132be6020830183615544565b63ffffffff16115b6132e357604051634564ab9b60e01b815260040160405180910390fd5b604080516101e0810182526018548152601954602080830191909152601a5492820192909252601b546060820152601c546080820152601d5460a0820152601e5460c0820152601f546001600160a01b03811660e083015261ffff600160a01b82048116610100840152600160b01b82048116610120840152600160c01b82048116610140840152600160d01b82048116610160840152600160e01b90910416610180820152905463ffffffff8082166101a08401819052640100000000909204166101c08301521561341c576101a081015163ffffffff166133cc6040840160208501615544565b63ffffffff1610156133e46040840160208501615544565b826101a00151909161341957604051633ccc4c2160e21b815263ffffffff928316600482015291166024820152604401610bfb565b50505b6101c081015163ffffffff1615613493576101c081015163ffffffff166134466020840184615544565b63ffffffff16101561345b6020840184615544565b826101c0015190916134905760405163156c4e5b60e11b815263ffffffff928316600482015291166024820152604401610bfb565b50505b8160125f8560038111156134a9576134a9614883565b60038111156134ba576134ba614883565b815260208101919091526040015f206134d49160026144c9565b508260038111156134e7576134e7614883565b7f8b56fae526eee054f0849759a99fc7d4ff3823824ebf097a56f7d78adb6b34fa836040516135169190615881565b60405180910390a2505050565b61352b613916565b6001600160a01b038116613554575f604051631e4fbdf760e01b8152600401610bfb919061481f565b610d3f816139b5565b5f818152600d602052604081205460ff168181600681111561358157613581614883565b036135a657826001826040516337e1404160e01b8152600401610bfb939291906152fa565b60058160068111156135ba576135ba614883565b036135db5760405163462c7bed60e01b815260048101849052602401610bfb565b60068160068111156135ef576135ef614883565b0361361057604051633de16e3560e11b815260048101849052602401610bfb565b5f61361b8483613b3d565b935090508061364057604051639f65d93560e01b815260048101859052602401610bfb565b5f848152600d6020526040902080546006919060ff191660018302179055505f848152600f60205260409020805484919060ff1916600183600d81111561368957613689614883565b0217905550835f516020615ad85f395f51905f528360066040516136ae929190615266565b60405180910390a2837fe20209be7caae6e76291267cfa711353981274bf127e94f16eb9ec44b68582bb83856040516136e89291906158c1565b60405180910390a25050919050565b6136ff613916565b6001600160a01b0381161580159061372457505f546001600160a01b03828116911614155b8190613744576040516375ac4eb760e11b8152600401610bfb919061481f565b505f80546001600160a01b0319166001600160a01b0383161790556040517f80052b810d39120cf6c976cca504a21703f585521dc7a41c6d241090e6c579b690610d2390839061481f565b6001600160a01b0381165f90815260076020526040902054819060ff16156137cb5760405163b29d459560e01b8152600401610bfb919061481f565b506001600160a01b0381165f9081526007602052604090819020805460ff19166001179055517fb8d368517268f297fff00825d67d098763117d061360d31027be5b2e1a59d46790610d2390839061481f565b5f807ff0c57e16840df040f15088dc2f81fe391c3923bec73e23a9662efc9c229c6a005b92915050565b61385061428c565b610d3f816142b1565b80356138785760405163055f269d60e01b815260040160405180910390fd5b5f81602001351161389c5760405163055f269d60e01b815260040160405180910390fd5b5f8160400135116138c05760405163055f269d60e01b815260040160405180910390fd5b80356015819055602080830135601681905560408085013560178190558151948552928401919091528201527f7e86ba16b805e2835af5c5b7aa5a942ced8bcc1fb95a05fbe42dae3862350a1690606001610d23565b3361391f611efa565b6001600160a01b031614611be4573360405163118cdaa760e01b8152600401610bfb919061481f565b6040516001600160a01b0384811660248301528381166044830152606482018390526139af9186918216906323b872dd906084015b604051602081830303815290604052915060e01b6020820180516001600160e01b0383818316178352505050506142b9565b50505050565b7f9016d09d72d40fdae2fd8ceac6b6234c7706214fd39c1cd1e609a0528c19930080546001600160a01b031981166001600160a01b03848116918217845560405192169182907f8be0079c531659141344cd1fd0a4f28419497f9722a3daafe3b4186f6b6457e0905f90a3505050565b5f818152600f602052604090205460609060ff16600181600d811115613a4d57613a4d614883565b1480613a6a5750600281600d811115613a6857613a68614883565b145b15613aa2575f5b604051908082528060200260200182016040528015613a9a578160200160208202803683370190505b509392505050565b5f5460405162beb08960e51b8152600481018590526001600160a01b03909116906317d61120906024015f60405180830381865afa925050508015613b0857506040513d5f823e601f3d908101601f19168201604052613b059190810190615937565b60015b613a9a575f613a71565b613b3883846001600160a01b031663a9059cbb858560405160240161397d9291906159fc565b505050565b5f828152600e60209081526040808320815160608101835281548152600182015493810193909352600201548282015282549051632800d82960e01b81526004810186905283929183916001600160a01b0390911690632800d82990602401602060405180830381865afa158015613bb7573d5f5f3e3d5ffd5b505050506040513d601f19601f82011682018060405250810190613bdb91906150db565b90506001856006811115613bf157613bf1614883565b148015613bfd57508042115b15613c1057600180935093505050613cbe565b6002856006811115613c2457613c24614883565b148015613c315750815142115b15613c455760016003935093505050613cbe565b6003856006811115613c5957613c59614883565b148015613c695750816020015142115b15613c7d5760016006935093505050613cbe565b6004856006811115613c9157613c91614883565b148015613ca15750816040015142115b15613cb5576001600a935093505050613cbe565b5f5f9350935050505b9250929050565b5f805460405162beb08960e51b8152600481018490526001600160a01b03909116906317d61120906024015f60405180830381865afa158015613d0a573d5f5f3e3d5ffd5b505050506040513d5f823e601f3d908101601f19168201604052613d319190810190615937565b5080515f848152600c60209081526040808320805490849055601190925282205493945091926001600160a01b031690829003613dd0576002546040516341489f1560e01b81526001600160a01b03909116906341489f1590613d9c90889088908690600401615a15565b5f604051808303815f87803b158015613db3575f5ffd5b505af1158015613dc5573d5f5f3e3d5ffd5b505050505050505050565b825f03613e71575f858152601060205260409020546001600160a01b03168015613e0857613e086001600160a01b0383168285613b12565b6002546040516341489f1560e01b81526001600160a01b03909116906341489f1590613e3c90899089908790600401615a15565b5f604051808303815f87803b158015613e53575f5ffd5b505af1158015613e65573d5f5f3e3d5ffd5b50505050505050505050565b5f85815260136020908152604080832054601490925282205461ffff909116906001600160a01b03168115801590613eb157506001600160a01b03811615155b15613eed57612710613ec761ffff84168761584b565b613ed19190615862565b92508215613eed57613eed6001600160a01b0385168285613b12565b5f613ef88487614fb5565b90505f876001600160401b03811115613f1357613f136145cb565b604051908082528060200260200182016040528015613f3c578160200160208202803683370190505b5090505f613f4a8984615862565b90505f805b8a811015613f895782848281518110613f6a57613f6a614f7f565b6020908102919091010152613f7f8383614fc8565b9150600101613f4f565b505f613f958286614fb5565b90508015613fd2578084613faa60018e614fb5565b81518110613fba57613fba614f7f565b60200260200101818151613fce9190614fc8565b9052505b600154613fec906001600160a01b038b811691168761431c565b60015f9054906101000a90046001600160a01b03166001600160a01b031663dd8c818e8a8e876040518463ffffffff1660e01b815260040161403093929190615a75565b5f604051808303815f87803b158015614047575f5ffd5b505af1158015614059573d5f5f3e3d5ffd5b505060015461407792506001600160a01b038c81169250165f61431c565b8c7fac9fe8ad7f55eac03284399116ecafc104f10459773f4cdf47063c46e5be335a8d866040516140a9929190615aaa565b60405180910390a260025f9054906101000a90046001600160a01b03166001600160a01b03166341489f158e8e8c6040518463ffffffff1660e01b81526004016140f593929190615a15565b5f604051808303815f87803b15801561410c575f5ffd5b505af115801561411e573d5f5f3e3d5ffd5b5050505050505050505050505050505050565b5f828152600d602052604081205460ff169081600681111561415557614155614883565b0361417a57826001826040516337e1404160e01b8152600401610bfb939291906152fa565b600581600681111561418e5761418e614883565b036141af5760405163462c7bed60e01b815260048101849052602401610bfb565b60068160068111156141c3576141c3614883565b036141e457604051633de16e3560e11b815260048101849052602401610bfb565b5f838152600d6020526040902080546006919060ff191660018302179055505f838152600f60205260409020805483919060ff1916600183600d81111561422d5761422d614883565b0217905550825f516020615ad85f395f51905f52826006604051614252929190615266565b60405180910390a2827fe20209be7caae6e76291267cfa711353981274bf127e94f16eb9ec44b68582bb82846040516135169291906158c1565b6142946143ac565b611be457604051631afcd79f60e31b815260040160405180910390fd5b61352b61428c565b5f5f60205f8451602086015f885af1806142d8576040513d5f823e3d81fd5b50505f513d915081156142ef5780600114156142fc565b6001600160a01b0384163b155b156139af5783604051635274afe760e01b8152600401610bfb919061481f565b5f836001600160a01b031663095ea7b3848460405160240161433f9291906159fc565b604051602081830303815290604052915060e01b6020820180516001600160e01b038381831617835250505050905061437884826143c5565b6139af576143a284856001600160a01b031663095ea7b3865f60405160240161397d9291906159fc565b6139af84826142b9565b5f6143b561381e565b54600160401b900460ff16919050565b5f5f5f5f60205f8651602088015f8a5af192503d91505f519050828015614404575081156143f65780600114614404565b5f866001600160a01b03163b115b9695505050505050565b604080516101e081019091525f808252602082019081526020015f8152602001614436614565565b81525f602082018190526040820181905260608083018190526080830181905260a0830182905260c0830182905260e08301829052610100830182905261012083015261014082018190526101609091015290565b82600281019282156144b9579160200282015b828111156144b957825182559160200191906001019061449e565b506144c5929150614583565b5090565b6001830191839082156144b9579160200282015f5b8382111561452857833563ffffffff1683826101000a81548163ffffffff021916908363ffffffff16021790555092602001926004016020816003010492830192600103026144de565b80156145585782816101000a81549063ffffffff0219169055600401602081600301049283019260010302614528565b50506144c5929150614583565b60405180604001604052806002906020820280368337509192915050565b5b808211156144c5575f8155600101614584565b6001600160a01b0381168114610d3f575f5ffd5b80356145b681614597565b919050565b5f60608284031215611263575f5ffd5b634e487b7160e01b5f52604160045260245ffd5b604051601f8201601f191681016001600160401b0381118282101715614607576146076145cb565b604052919050565b5f6001600160401b03821115614627576146276145cb565b5060051b60200190565b5f82601f830112614640575f5ffd5b81356001600160401b03811115614659576146596145cb565b61466c601f8201601f19166020016145df565b818152846020838601011115614680575f5ffd5b816020850160208301375f918101602001919091529392505050565b5f82601f8301126146ab575f5ffd5b81356146be6146b98261460f565b6145df565b8082825260208201915060208360051b8601019250858311156146df575f5ffd5b602085015b8381101561471f5780356001600160401b03811115614701575f5ffd5b614710886020838a0101614631565b845250602092830192016146e4565b5095945050505050565b5f5f5f5f5f5f5f5f610140898b031215614741575f5ffd5b883561474c81614597565b9750602089013561475c81614597565b9650604089013561476c81614597565b9550606089013561477c81614597565b9450608089013561478c81614597565b935060a089013592506147a28a60c08b016145bb565b91506101208901356001600160401b038111156147bd575f5ffd5b6147c98b828c0161469c565b9150509295985092959890939650565b5f602082840312156147e9575f5ffd5b81356147f481614597565b9392505050565b5f6020828403121561480b575f5ffd5b5035919050565b6001600160a01b03169052565b6001600160a01b0391909116815260200190565b8035600481106145b6575f5ffd5b5f5f60408385031215614852575f5ffd5b61485b83614833565b946020939093013593505050565b5f60608284031215614879575f5ffd5b6147f483836145bb565b634e487b7160e01b5f52602160045260245ffd5b600e81106148a7576148a7614883565b9052565b602081016138428284614897565b600481106148a7576148a7614883565b5f81518084528060208401602086015e5f602082860101526020601f19601f83011685010191505092915050565b8e8152614907602082018f6148b9565b8c60408201528b6060820152614920608082018c614812565b6101c060a08201525f6149376101c083018c6148c9565b82810360c0840152614949818c6148c9565b905061495860e084018b614812565b61496661010084018a614812565b876101208401528661014084015282810361016084015261498781876148c9565b915050614998610180830185614812565b8215156101a08301529f9e505050505050505050505050505050565b805f5b60028110156139af5781518452602093840193909101906001016149b7565b805182525f60208201516149ed60208501826148b9565b50604082015160408401526060820151614a0a60608501826149b4565b50608082015160a084015260a0820151614a2760c0850182614812565b5060c082015161020060e0850152614a436102008501826148c9565b905060e0830151848203610100860152614a5d82826148c9565b915050610100830151614a74610120860182614812565b50610120830151614a89610140860182614812565b506101408301516101608501526101608301516101808501526101808301518482036101a0860152614abb82826148c9565b9150506101a0830151614ad26101c0860182614812565b506101c08301518015156101e0860152613a9a565b602081525f6147f460208301846149d6565b5f60208284031215614b09575f5ffd5b81356001600160401b03811115614b1e575f5ffd5b614b2a84828501614631565b949350505050565b5f60208284031215614b42575f5ffd5b81356001600160401b03811115614b57575f5ffd5b820161010081850312156147f4575f5ffd5b828152604060208201525f614b2a60408301846149d6565b5f60208284031215614b91575f5ffd5b81356001600160401b03811115614ba6575f5ffd5b614b2a8482850161469c565b5f5f60408385031215614bc3575f5ffd5b823591506020830135614bd581614597565b809150509250929050565b5f5f60408385031215614bf1575f5ffd5b50508035926020909101359150565b81518152602080830151908201526040808301519082015260608101613842565b8215158152604081016147f46020830184614897565b5f5f83601f840112614c47575f5ffd5b5081356001600160401b03811115614c5d575f5ffd5b602083019150836020828501011115613cbe575f5ffd5b5f5f5f5f5f60608688031215614c88575f5ffd5b8535945060208601356001600160401b03811115614ca4575f5ffd5b614cb088828901614c37565b90955093505060408601356001600160401b03811115614cce575f5ffd5b614cda88828901614c37565b969995985093965092949392505050565b5f6101e082019050825182526020830151602083015260408301516040830152606083015160608301526080830151608083015260a083015160a083015260c083015160c083015260e0830151614d4560e0840182614812565b50610100830151614d5d61010084018261ffff169052565b50610120830151614d7561012084018261ffff169052565b50610140830151614d8d61014084018261ffff169052565b50610160830151614da561016084018261ffff169052565b50610180830151614dbd61018084018261ffff169052565b506101a0830151614dd76101a084018263ffffffff169052565b506101c0830151614df16101c084018263ffffffff169052565b5092915050565b5f5f5f5f5f5f5f6080888a031215614e0e575f5ffd5b8735965060208801356001600160401b03811115614e2a575f5ffd5b614e368a828b01614c37565b90975095505060408801356001600160401b03811115614e54575f5ffd5b614e608a828b01614c37565b90955093505060608801356001600160401b03811115614e7e575f5ffd5b614e8a8a828b01614c37565b989b979a50959850939692959293505050565b5f5f60408385031215614eae575f5ffd5b82359150602083013560ff81168114614bd5575f5ffd5b600781106148a7576148a7614883565b602081016138428284614ec5565b5f6101e0828403128015614ef5575f5ffd5b509092915050565b5f5f60608385031215614f0e575f5ffd5b614f1783614833565b915083606084011115614f28575f5ffd5b50926020919091019150565b600181811c90821680614f4857607f821691505b60208210810361126357634e487b7160e01b5f52602260045260245ffd5b5f60208284031215614f76575f5ffd5b6147f482614833565b634e487b7160e01b5f52603260045260245ffd5b6020810161384282846148b9565b634e487b7160e01b5f52601160045260245ffd5b8181038181111561384257613842614fa1565b8082018082111561384257613842614fa1565b5f60018201614fec57614fec614fa1565b5060010190565b5f5f8335601e19843603018112615008575f5ffd5b8301803591506001600160401b03821115615021575f5ffd5b602001915036819003821315613cbe575f5ffd5b8015158114610d3f575f5ffd5b5f60208284031215615052575f5ffd5b81356147f481615035565b81835281816020850137505f828201602090810191909152601f909101601f19169091010190565b88815287602082015260a060408201525f6150a460a08301888a61505d565b82810360608401526150b781878961505d565b905082810360808401526150cc81858761505d565b9b9a5050505050505050505050565b5f602082840312156150eb575f5ffd5b5051919050565b601f821115613b3857805f5260205f20601f840160051c810160208510156151175750805b601f840160051c820191505b81811015615136575f8155600101615123565b5050505050565b5f19600383901b1c191660019190911b1790565b81516001600160401b0381111561516a5761516a6145cb565b61517e816151788454614f34565b846150f2565b6020601f8211600181146151ab575f83156151995750848201515b6151a3848261513d565b855550615136565b5f84815260208120601f198516915b828110156151da57878501518255602094850194600190920191016151ba565b50848210156151f757868401515f19600387901b60f8161c191681555b50505050600190811b01905550565b838152602081018390526080810160408201835f5b600281101561524057815163ffffffff1683526020928301929091019060010161521b565b505050949350505050565b5f6020828403121561525b575f5ffd5b81516147f481615035565b604081016152748285614ec5565b6147f46020830184614ec5565b5f82518060208501845e5f920191825250919050565b5f602082016020835280845180835260408501915060408160051b8601019250602086015f5b828110156152ee57603f198786030184526152d98583516148c9565b945060209384019391909101906001016152bd565b50929695505050505050565b8381526060810161530e6020830185614ec5565b614b2a6040830184614ec5565b5f8151808452602084019350602083015f5b828110156153545781516001600160a01b031686526020958601959091019060010161532d565b5093949350505050565b848152836020820152608060408201525f61537c608083018561531b565b905060018060a01b038316606083015295945050505050565b818382375f9101908152919050565b848152836020820152606060408201525f61440460608301848661505d565b602081525f614b2a60208301848661505d565b6001600160401b038311156153ed576153ed6145cb565b615401836153fb8354614f34565b836150f2565b5f601f84116001811461542d575f851561541b5750838201355b615425868261513d565b845550615136565b5f83815260208120601f198716915b8281101561545c578685013582556020948501946001909201910161543c565b5086821015615478575f1960f88860031b161c19848701351681555b505060018560011b0183555050505050565b858152606060208201525f6154a360608301868861505d565b82810360408401526154b681858761505d565b98975050505050505050565b604081525f6154d560408301868861505d565b82810360208401526154e881858761505d565b979650505050505050565b61ffff81168114610d3f575f5ffd5b80356145b6816154f3565b5f6020828403121561551d575f5ffd5b81356147f4816154f3565b63ffffffff81168114610d3f575f5ffd5b80356145b681615528565b5f60208284031215615554575f5ffd5b81356147f481615528565b5f813561384281614597565b5f8135613842816154f3565b5f813561384281615528565b813581556020820135600182015560408201356002820155606082013560038201556080820135600482015560a0820135600582015560c08201356006820155600781016155f36155d660e0850161555f565b82546001600160a01b0319166001600160a01b0391909116178255565b615623615603610100850161556b565b82805461ffff60a01b191660a09290921b61ffff60a01b16919091179055565b615653615633610120850161556b565b82805461ffff60b01b191660b09290921b61ffff60b01b16919091179055565b615683615663610140850161556b565b82805461ffff60c01b191660c09290921b61ffff60c01b16919091179055565b6156b3615693610160850161556b565b82805461ffff60d01b191660d09290921b61ffff60d01b16919091179055565b6156e36156c3610180850161556b565b82805461ffff60e01b191660e09290921b61ffff60e01b16919091179055565b506008810161570f6156f86101a08501615577565b825463ffffffff191663ffffffff91909116178255565b613b3861571f6101c08501615577565b825467ffffffff00000000191660209190911b67ffffffff0000000016178255565b813581526020808301359082015260408083013590820152606080830135908201526080808301359082015260a0808301359082015260c080830135908201526101e0810161579260e084016145ab565b61579f60e0840182614812565b506157ad6101008401615502565b61ffff166101008301526157c46101208401615502565b61ffff166101208301526157db6101408401615502565b61ffff166101408301526157f26101608401615502565b61ffff166101608301526158096101808401615502565b61ffff166101808301526158206101a08401615539565b63ffffffff166101a08301526158396101c08401615539565b63ffffffff81166101c0840152614df1565b808202811582820484141761384257613842614fa1565b5f8261587c57634e487b7160e01b5f52601260045260245ffd5b500490565b6040810181835f5b60028110156158b857813561589d81615528565b63ffffffff1683526020928301929190910190600101615889565b50505092915050565b604081016158cf8285614ec5565b6147f46020830184614897565b5f82601f8301126158eb575f5ffd5b81516158f96146b98261460f565b8082825260208201915060208360051b86010192508583111561591a575f5ffd5b602085015b8381101561471f57805183526020928301920161591f565b5f5f60408385031215615948575f5ffd5b82516001600160401b0381111561595d575f5ffd5b8301601f8101851361596d575f5ffd5b805161597b6146b98261460f565b8082825260208201915060208360051b85010192508783111561599c575f5ffd5b6020840193505b828410156159c75783516159b681614597565b8252602093840193909101906159a3565b8095505050505060208301516001600160401b038111156159e6575f5ffd5b6159f2858286016158dc565b9150509250929050565b6001600160a01b03929092168252602082015260400190565b838152606060208201525f615a2d606083018561531b565b905060018060a01b0383166040830152949350505050565b5f8151808452602084019350602083015f5b82811015615354578151865260209586019590910190600101615a57565b6001600160a01b03841681526060602082018190525f90615a989083018561531b565b82810360408401526144048185615a45565b604081525f615abc604083018561531b565b8281036020840152615ace8185615a45565b9594505050505056fe1b418a230a21d37a078bf8f16decbde8ccceacd77159371f62f0d4ea00d19967a164736f6c634300081c000a",
  "linkReferences": {},
  "deployedLinkReferences": {},
  "immutableReferences": {},
  "inputSourceName": "project/contracts/Enclave.sol",
  "buildInfoId": "solc-0_8_28-361d4ed525b2a26ac9b3313fd80fb3038fddef8a"
}