{
  "_format": "hh3-artifact-1",
  "contractName": "Enclave",
  "sourceName": "contracts/Enclave.sol",
  "abi": [
    {
      "inputs": [],
      "stateMutability": "nonpayable",
      "type": "constructor"
    },
    {
      "inputs": [
        {
          "internalType": "uint256",
          "name": "size",
          "type": "uint256"
        },
        {
          "internalType": "uint256",
          "name": "minimum",
          "type": "uint256"
        }
      ],
      "name": "BelowMinCommitteeSize",
      "type": "error"
    },
    {
      "inputs": [
        {
          "internalType": "uint256",
          "name": "threshold",
          "type": "uint256"
        },
        {
          "internalType": "uint256",
          "name": "minimum",
          "type": "uint256"
        }
      ],
      "name": "BelowMinThreshold",
      "type": "error"
    },
    {
      "inputs": [
        {
          "internalType": "uint256",
          "name": "value",
          "type": "uint256"
        }
      ],
      "name": "BpsExceedsMax",
      "type": "error"
    },
    {
      "inputs": [
        {
          "internalType": "uint256",
          "name": "e3Id",
          "type": "uint256"
        }
      ],
      "name": "CiphertextOutputAlreadyPublished",
      "type": "error"
    },
    {
      "inputs": [
        {
          "internalType": "uint256",
          "name": "e3Id",
          "type": "uint256"
        }
      ],
      "name": "CiphertextOutputNotPublished",
      "type": "error"
    },
    {
      "inputs": [
        {
          "internalType": "uint256",
          "name": "e3Id",
          "type": "uint256"
        },
        {
          "internalType": "uint256",
          "name": "expiration",
          "type": "uint256"
        }
      ],
      "name": "CommitteeDutiesCompleted",
      "type": "error"
    },
    {
      "inputs": [],
      "name": "CommitteeSelectionFailed",
      "type": "error"
    },
    {
      "inputs": [
        {
          "internalType": "enum IEnclave.CommitteeSize",
          "name": "committeeSize",
          "type": "uint8"
        }
      ],
      "name": "CommitteeSizeNotConfigured",
      "type": "error"
    },
    {
      "inputs": [
        {
          "internalType": "enum IEnclave.CommitteeSize",
          "name": "committeeSize",
          "type": "uint8"
        }
      ],
      "name": "CommitteeSizeTooSmall",
      "type": "error"
    },
    {
      "inputs": [
        {
          "internalType": "uint256",
          "name": "e3Id",
          "type": "uint256"
        }
      ],
      "name": "E3AlreadyComplete",
      "type": "error"
    },
    {
      "inputs": [
        {
          "internalType": "uint256",
          "name": "e3Id",
          "type": "uint256"
        }
      ],
      "name": "E3AlreadyFailed",
      "type": "error"
    },
    {
      "inputs": [
        {
          "internalType": "uint256",
          "name": "e3Id",
          "type": "uint256"
        }
      ],
      "name": "E3DoesNotExist",
      "type": "error"
    },
    {
      "inputs": [
        {
          "internalType": "uint256",
          "name": "e3Id",
          "type": "uint256"
        }
      ],
      "name": "E3NotFailed",
      "type": "error"
    },
    {
      "inputs": [
        {
          "internalType": "contract IE3Program",
          "name": "e3Program",
          "type": "address"
        }
      ],
      "name": "E3ProgramNotAllowed",
      "type": "error"
    },
    {
      "inputs": [
        {
          "internalType": "uint256",
          "name": "e3Id",
          "type": "uint256"
        }
      ],
      "name": "FailureConditionNotMet",
      "type": "error"
    },
    {
      "inputs": [
        {
          "internalType": "uint256",
          "name": "e3Id",
          "type": "uint256"
        },
        {
          "internalType": "uint256",
          "name": "inputDeadline",
          "type": "uint256"
        }
      ],
      "name": "InputDeadlineNotReached",
      "type": "error"
    },
    {
      "inputs": [
        {
          "internalType": "contract IBondingRegistry",
          "name": "bondingRegistry",
          "type": "address"
        }
      ],
      "name": "InvalidBondingRegistry",
      "type": "error"
    },
    {
      "inputs": [
        {
          "internalType": "contract ICiphernodeRegistry",
          "name": "ciphernodeRegistry",
          "type": "address"
        }
      ],
      "name": "InvalidCiphernodeRegistry",
      "type": "error"
    },
    {
      "inputs": [
        {
          "internalType": "uint256",
          "name": "duration",
          "type": "uint256"
        }
      ],
      "name": "InvalidDuration",
      "type": "error"
    },
    {
      "inputs": [
        {
          "internalType": "bytes32",
          "name": "encryptionSchemeId",
          "type": "bytes32"
        }
      ],
      "name": "InvalidEncryptionScheme",
      "type": "error"
    },
    {
      "inputs": [
        {
          "internalType": "contract IERC20",
          "name": "feeToken",
          "type": "address"
        }
      ],
      "name": "InvalidFeeToken",
      "type": "error"
    },
    {
      "inputs": [],
      "name": "InvalidInitialization",
      "type": "error"
    },
    {
      "inputs": [
        {
          "internalType": "uint256",
          "name": "deadline",
          "type": "uint256"
        }
      ],
      "name": "InvalidInputDeadline",
      "type": "error"
    },
    {
      "inputs": [
        {
          "internalType": "uint256",
          "name": "end",
          "type": "uint256"
        }
      ],
      "name": "InvalidInputDeadlineEnd",
      "type": "error"
    },
    {
      "inputs": [
        {
          "internalType": "uint256",
          "name": "start",
          "type": "uint256"
        }
      ],
      "name": "InvalidInputDeadlineStart",
      "type": "error"
    },
    {
      "inputs": [
        {
          "internalType": "bytes",
          "name": "output",
          "type": "bytes"
        }
      ],
      "name": "InvalidOutput",
      "type": "error"
    },
    {
      "inputs": [
        {
          "internalType": "uint256",
          "name": "e3Id",
          "type": "uint256"
        },
        {
          "internalType": "enum IEnclave.E3Stage",
          "name": "expected",
          "type": "uint8"
        },
        {
          "internalType": "enum IEnclave.E3Stage",
          "name": "actual",
          "type": "uint8"
        }
      ],
      "name": "InvalidStage",
      "type": "error"
    },
    {
      "inputs": [],
      "name": "InvalidThresholdValues",
      "type": "error"
    },
    {
      "inputs": [],
      "name": "InvalidTimeoutWindow",
      "type": "error"
    },
    {
      "inputs": [],
      "name": "MinSizeBelowMinThreshold",
      "type": "error"
    },
    {
      "inputs": [
        {
          "internalType": "address",
          "name": "module",
          "type": "address"
        }
      ],
      "name": "ModuleAlreadyEnabled",
      "type": "error"
    },
    {
      "inputs": [
        {
          "internalType": "address",
          "name": "module",
          "type": "address"
        }
      ],
      "name": "ModuleNotEnabled",
      "type": "error"
    },
    {
      "inputs": [
        {
          "internalType": "uint256",
          "name": "e3Id",
          "type": "uint256"
        }
      ],
      "name": "NoPaymentToRefund",
      "type": "error"
    },
    {
      "inputs": [],
      "name": "NotInitializing",
      "type": "error"
    },
    {
      "inputs": [],
      "name": "OnlyCiphernodeRegistry",
      "type": "error"
    },
    {
      "inputs": [],
      "name": "OnlyCiphernodeRegistryOrSlashingManager",
      "type": "error"
    },
    {
      "inputs": [],
      "name": "OnlySlashingManager",
      "type": "error"
    },
    {
      "inputs": [
        {
          "internalType": "address",
          "name": "owner",
          "type": "address"
        }
      ],
      "name": "OwnableInvalidOwner",
      "type": "error"
    },
    {
      "inputs": [
        {
          "internalType": "address",
          "name": "account",
          "type": "address"
        }
      ],
      "name": "OwnableUnauthorizedAccount",
      "type": "error"
    },
    {
      "inputs": [
        {
          "internalType": "uint256",
          "name": "value",
          "type": "uint256"
        }
      ],
      "name": "PaymentRequired",
      "type": "error"
    },
    {
      "inputs": [
        {
          "internalType": "uint256",
          "name": "e3Id",
          "type": "uint256"
        }
      ],
      "name": "PlaintextOutputAlreadyPublished",
      "type": "error"
    },
    {
      "inputs": [],
      "name": "ProofRequired",
      "type": "error"
    },
    {
      "inputs": [
        {
          "internalType": "address",
          "name": "token",
          "type": "address"
        }
      ],
      "name": "SafeERC20FailedOperation",
      "type": "error"
    },
    {
      "inputs": [
        {
          "internalType": "uint256",
          "name": "threshold",
          "type": "uint256"
        }
      ],
      "name": "ThresholdTooSmall",
      "type": "error"
    },
    {
      "inputs": [],
      "name": "TreasuryRequired",
      "type": "error"
    },
    {
      "inputs": [
        {
          "internalType": "uint256",
          "name": "value",
          "type": "uint256"
        }
      ],
      "name": "UtilizationBpsExceedsMax",
      "type": "error"
    },
    {
      "anonymous": false,
      "inputs": [
        {
          "indexed": false,
          "internalType": "address",
          "name": "bondingRegistry",
          "type": "address"
        }
      ],
      "name": "BondingRegistrySet",
      "type": "event"
    },
    {
      "anonymous": false,
      "inputs": [
        {
          "indexed": false,
          "internalType": "address",
          "name": "ciphernodeRegistry",
          "type": "address"
        }
      ],
      "name": "CiphernodeRegistrySet",
      "type": "event"
    },
    {
      "anonymous": false,
      "inputs": [
        {
          "indexed": true,
          "internalType": "uint256",
          "name": "e3Id",
          "type": "uint256"
        },
        {
          "indexed": false,
          "internalType": "bytes",
          "name": "ciphertextOutput",
          "type": "bytes"
        }
      ],
      "name": "CiphertextOutputPublished",
      "type": "event"
    },
    {
      "anonymous": false,
      "inputs": [
        {
          "indexed": true,
          "internalType": "uint256",
          "name": "e3Id",
          "type": "uint256"
        }
      ],
      "name": "CommitteeFinalized",
      "type": "event"
    },
    {
      "anonymous": false,
      "inputs": [
        {
          "indexed": true,
          "internalType": "uint256",
          "name": "e3Id",
          "type": "uint256"
        }
      ],
      "name": "CommitteeFormed",
      "type": "event"
    },
    {
      "anonymous": false,
      "inputs": [
        {
          "indexed": true,
          "internalType": "enum IEnclave.CommitteeSize",
          "name": "size",
          "type": "uint8"
        },
        {
          "indexed": false,
          "internalType": "uint32[2]",
          "name": "threshold",
          "type": "uint32[2]"
        }
      ],
      "name": "CommitteeThresholdsUpdated",
      "type": "event"
    },
    {
      "anonymous": false,
      "inputs": [
        {
          "indexed": true,
          "internalType": "uint256",
          "name": "e3Id",
          "type": "uint256"
        },
        {
          "indexed": false,
          "internalType": "enum IEnclave.E3Stage",
          "name": "failedAtStage",
          "type": "uint8"
        },
        {
          "indexed": false,
          "internalType": "enum IEnclave.FailureReason",
          "name": "reason",
          "type": "uint8"
        }
      ],
      "name": "E3Failed",
      "type": "event"
    },
    {
      "anonymous": false,
      "inputs": [
        {
          "indexed": true,
          "internalType": "uint256",
          "name": "e3Id",
          "type": "uint256"
        },
        {
          "indexed": false,
          "internalType": "uint256",
          "name": "paymentAmount",
          "type": "uint256"
        },
        {
          "indexed": false,
          "internalType": "uint256",
          "name": "honestNodeCount",
          "type": "uint256"
        }
      ],
      "name": "E3FailureProcessed",
      "type": "event"
    },
    {
      "anonymous": false,
      "inputs": [
        {
          "indexed": false,
          "internalType": "contract IE3Program",
          "name": "e3Program",
          "type": "address"
        }
      ],
      "name": "E3ProgramDisabled",
      "type": "event"
    },
    {
      "anonymous": false,
      "inputs": [
        {
          "indexed": false,
          "internalType": "contract IE3Program",
          "name": "e3Program",
          "type": "address"
        }
      ],
      "name": "E3ProgramEnabled",
      "type": "event"
    },
    {
      "anonymous": false,
      "inputs": [
        {
          "indexed": true,
          "internalType": "address",
          "name": "e3RefundManager",
          "type": "address"
        }
      ],
      "name": "E3RefundManagerSet",
      "type": "event"
    },
    {
      "anonymous": false,
      "inputs": [
        {
          "indexed": false,
          "internalType": "uint256",
          "name": "e3Id",
          "type": "uint256"
        },
        {
          "components": [
            {
              "internalType": "uint256",
              "name": "seed",
              "type": "uint256"
            },
            {
              "internalType": "enum IEnclave.CommitteeSize",
              "name": "committeeSize",
              "type": "uint8"
            },
            {
              "internalType": "uint256",
              "name": "requestBlock",
              "type": "uint256"
            },
            {
              "internalType": "uint256[2]",
              "name": "inputWindow",
              "type": "uint256[2]"
            },
            {
              "internalType": "bytes32",
              "name": "encryptionSchemeId",
              "type": "bytes32"
            },
            {
              "internalType": "contract IE3Program",
              "name": "e3Program",
              "type": "address"
            },
            {
              "internalType": "uint8",
              "name": "paramSet",
              "type": "uint8"
            },
            {
              "internalType": "bytes",
              "name": "customParams",
              "type": "bytes"
            },
            {
              "internalType": "contract IDecryptionVerifier",
              "name": "decryptionVerifier",
              "type": "address"
            },
            {
              "internalType": "contract IPkVerifier",
              "name": "pkVerifier",
              "type": "address"
            },
            {
              "internalType": "bytes32",
              "name": "committeePublicKey",
              "type": "bytes32"
            },
            {
              "internalType": "bytes32",
              "name": "ciphertextOutput",
              "type": "bytes32"
            },
            {
              "internalType": "bytes",
              "name": "plaintextOutput",
              "type": "bytes"
            },
            {
              "internalType": "address",
              "name": "requester",
              "type": "address"
            },
            {
              "internalType": "bool",
              "name": "proofAggregationEnabled",
              "type": "bool"
            }
          ],
          "indexed": false,
          "internalType": "struct E3",
          "name": "e3",
          "type": "tuple"
        },
        {
          "indexed": true,
          "internalType": "contract IE3Program",
          "name": "e3Program",
          "type": "address"
        }
      ],
      "name": "E3Requested",
      "type": "event"
    },
    {
      "anonymous": false,
      "inputs": [
        {
          "indexed": true,
          "internalType": "uint256",
          "name": "e3Id",
          "type": "uint256"
        },
        {
          "indexed": false,
          "internalType": "enum IEnclave.E3Stage",
          "name": "previousStage",
          "type": "uint8"
        },
        {
          "indexed": false,
          "internalType": "enum IEnclave.E3Stage",
          "name": "newStage",
          "type": "uint8"
        }
      ],
      "name": "E3StageChanged",
      "type": "event"
    },
    {
      "anonymous": false,
      "inputs": [
        {
          "indexed": false,
          "internalType": "bytes32",
          "name": "encryptionSchemeId",
          "type": "bytes32"
        }
      ],
      "name": "EncryptionSchemeDisabled",
      "type": "event"
    },
    {
      "anonymous": false,
      "inputs": [
        {
          "indexed": false,
          "internalType": "bytes32",
          "name": "encryptionSchemeId",
          "type": "bytes32"
        }
      ],
      "name": "EncryptionSchemeEnabled",
      "type": "event"
    },
    {
      "anonymous": false,
      "inputs": [
        {
          "indexed": false,
          "internalType": "address",
          "name": "feeToken",
          "type": "address"
        }
      ],
      "name": "FeeTokenSet",
      "type": "event"
    },
    {
      "anonymous": false,
      "inputs": [
        {
          "indexed": false,
          "internalType": "uint64",
          "name": "version",
          "type": "uint64"
        }
      ],
      "name": "Initialized",
      "type": "event"
    },
    {
      "anonymous": false,
      "inputs": [
        {
          "indexed": true,
          "internalType": "uint256",
          "name": "e3Id",
          "type": "uint256"
        },
        {
          "indexed": false,
          "internalType": "bytes",
          "name": "data",
          "type": "bytes"
        },
        {
          "indexed": false,
          "internalType": "uint256",
          "name": "inputHash",
          "type": "uint256"
        },
        {
          "indexed": false,
          "internalType": "uint256",
          "name": "index",
          "type": "uint256"
        }
      ],
      "name": "InputPublished",
      "type": "event"
    },
    {
      "anonymous": false,
      "inputs": [
        {
          "indexed": false,
          "internalType": "uint256",
          "name": "maxDuration",
          "type": "uint256"
        }
      ],
      "name": "MaxDurationSet",
      "type": "event"
    },
    {
      "anonymous": false,
      "inputs": [
        {
          "indexed": true,
          "internalType": "address",
          "name": "previousOwner",
          "type": "address"
        },
        {
          "indexed": true,
          "internalType": "address",
          "name": "newOwner",
          "type": "address"
        }
      ],
      "name": "OwnershipTransferred",
      "type": "event"
    },
    {
      "anonymous": false,
      "inputs": [
        {
          "indexed": false,
          "internalType": "uint8",
          "name": "paramSet",
          "type": "uint8"
        },
        {
          "indexed": false,
          "internalType": "bytes",
          "name": "encodedParams",
          "type": "bytes"
        }
      ],
      "name": "ParamSetRegistered",
      "type": "event"
    },
    {
      "anonymous": false,
      "inputs": [
        {
          "indexed": true,
          "internalType": "bytes32",
          "name": "encryptionSchemeId",
          "type": "bytes32"
        },
        {
          "indexed": false,
          "internalType": "address",
          "name": "pkVerifier",
          "type": "address"
        }
      ],
      "name": "PkVerifierSet",
      "type": "event"
    },
    {
      "anonymous": false,
      "inputs": [
        {
          "indexed": true,
          "internalType": "uint256",
          "name": "e3Id",
          "type": "uint256"
        },
        {
          "indexed": false,
          "internalType": "bytes",
          "name": "plaintextOutput",
          "type": "bytes"
        },
        {
          "indexed": false,
          "internalType": "bytes",
          "name": "proof",
          "type": "bytes"
        }
      ],
      "name": "PlaintextOutputPublished",
      "type": "event"
    },
    {
      "anonymous": false,
      "inputs": [
        {
          "components": [
            {
              "internalType": "uint256",
              "name": "keyGenFixedPerNode",
              "type": "uint256"
            },
            {
              "internalType": "uint256",
              "name": "keyGenPerEncryptionProof",
              "type": "uint256"
            },
            {
              "internalType": "uint256",
              "name": "coordinationPerPair",
              "type": "uint256"
            },
            {
              "internalType": "uint256",
              "name": "availabilityPerNodePerSec",
              "type": "uint256"
            },
            {
              "internalType": "uint256",
              "name": "decryptionPerNode",
              "type": "uint256"
            },
            {
              "internalType": "uint256",
              "name": "publicationBase",
              "type": "uint256"
            },
            {
              "internalType": "uint256",
              "name": "verificationPerProof",
              "type": "uint256"
            },
            {
              "internalType": "address",
              "name": "protocolTreasury",
              "type": "address"
            },
            {
              "internalType": "uint16",
              "name": "marginBps",
              "type": "uint16"
            },
            {
              "internalType": "uint16",
              "name": "protocolShareBps",
              "type": "uint16"
            },
            {
              "internalType": "uint16",
              "name": "dkgUtilizationBps",
              "type": "uint16"
            },
            {
              "internalType": "uint16",
              "name": "computeUtilizationBps",
              "type": "uint16"
            },
            {
              "internalType": "uint16",
              "name": "decryptUtilizationBps",
              "type": "uint16"
            },
            {
              "internalType": "uint32",
              "name": "minCommitteeSize",
              "type": "uint32"
            },
            {
              "internalType": "uint32",
              "name": "minThreshold",
              "type": "uint32"
            }
          ],
          "indexed": false,
          "internalType": "struct IEnclave.PricingConfig",
          "name": "config",
          "type": "tuple"
        }
      ],
      "name": "PricingConfigUpdated",
      "type": "event"
    },
    {
      "anonymous": false,
      "inputs": [
        {
          "indexed": true,
          "internalType": "uint256",
          "name": "e3Id",
          "type": "uint256"
        },
        {
          "indexed": false,
          "internalType": "address[]",
          "name": "nodes",
          "type": "address[]"
        },
        {
          "indexed": false,
          "internalType": "uint256[]",
          "name": "amounts",
          "type": "uint256[]"
        }
      ],
      "name": "RewardsDistributed",
      "type": "event"
    },
    {
      "anonymous": false,
      "inputs": [
        {
          "indexed": true,
          "internalType": "uint256",
          "name": "e3Id",
          "type": "uint256"
        },
        {
          "indexed": false,
          "internalType": "uint256",
          "name": "amount",
          "type": "uint256"
        }
      ],
      "name": "SlashedFundsEscrowed",
      "type": "event"
    },
    {
      "anonymous": false,
      "inputs": [
        {
          "indexed": true,
          "internalType": "address",
          "name": "slashingManager",
          "type": "address"
        }
      ],
      "name": "SlashingManagerSet",
      "type": "event"
    },
    {
      "anonymous": false,
      "inputs": [
        {
          "components": [
            {
              "internalType": "uint256",
              "name": "dkgWindow",
              "type": "uint256"
            },
            {
              "internalType": "uint256",
              "name": "computeWindow",
              "type": "uint256"
            },
            {
              "internalType": "uint256",
              "name": "decryptionWindow",
              "type": "uint256"
            }
          ],
          "indexed": false,
          "internalType": "struct IEnclave.E3TimeoutConfig",
          "name": "config",
          "type": "tuple"
        }
      ],
      "name": "TimeoutConfigUpdated",
      "type": "event"
    },
    {
      "inputs": [],
      "name": "bondingRegistry",
      "outputs": [
        {
          "internalType": "contract IBondingRegistry",
          "name": "",
          "type": "address"
        }
      ],
      "stateMutability": "view",
      "type": "function"
    },
    {
      "inputs": [
        {
          "internalType": "uint256",
          "name": "e3Id",
          "type": "uint256"
        }
      ],
      "name": "checkFailureCondition",
      "outputs": [
        {
          "internalType": "bool",
          "name": "canFail",
          "type": "bool"
        },
        {
          "internalType": "enum IEnclave.FailureReason",
          "name": "reason",
          "type": "uint8"
        }
      ],
      "stateMutability": "view",
      "type": "function"
    },
    {
      "inputs": [],
      "name": "ciphernodeRegistry",
      "outputs": [
        {
          "internalType": "contract ICiphernodeRegistry",
          "name": "",
          "type": "address"
        }
      ],
      "stateMutability": "view",
      "type": "function"
    },
    {
      "inputs": [
        {
          "internalType": "enum IEnclave.CommitteeSize",
          "name": "",
          "type": "uint8"
        },
        {
          "internalType": "uint256",
          "name": "",
          "type": "uint256"
        }
      ],
      "name": "committeeThresholds",
      "outputs": [
        {
          "internalType": "uint32",
          "name": "threshold",
          "type": "uint32"
        }
      ],
      "stateMutability": "view",
      "type": "function"
    },
    {
      "inputs": [
        {
          "internalType": "bytes32",
          "name": "encryptionSchemeId",
          "type": "bytes32"
        }
      ],
      "name": "decryptionVerifiers",
      "outputs": [
        {
          "internalType": "contract IDecryptionVerifier",
          "name": "decryptionVerifier",
          "type": "address"
        }
      ],
      "stateMutability": "view",
      "type": "function"
    },
    {
      "inputs": [
        {
          "internalType": "contract IE3Program",
          "name": "e3Program",
          "type": "address"
        }
      ],
      "name": "disableE3Program",
      "outputs": [],
      "stateMutability": "nonpayable",
      "type": "function"
    },
    {
      "inputs": [
        {
          "internalType": "bytes32",
          "name": "encryptionSchemeId",
          "type": "bytes32"
        }
      ],
      "name": "disableEncryptionScheme",
      "outputs": [],
      "stateMutability": "nonpayable",
      "type": "function"
    },
    {
      "inputs": [
        {
          "internalType": "uint256",
          "name": "e3Id",
          "type": "uint256"
        }
      ],
      "name": "e3Payments",
      "outputs": [
        {
          "internalType": "uint256",
          "name": "e3Payment",
          "type": "uint256"
        }
      ],
      "stateMutability": "view",
      "type": "function"
    },
    {
      "inputs": [
        {
          "internalType": "contract IE3Program",
          "name": "e3Program",
          "type": "address"
        }
      ],
      "name": "e3Programs",
      "outputs": [
        {
          "internalType": "bool",
          "name": "allowed",
          "type": "bool"
        }
      ],
      "stateMutability": "view",
      "type": "function"
    },
    {
      "inputs": [],
      "name": "e3RefundManager",
      "outputs": [
        {
          "internalType": "contract IE3RefundManager",
          "name": "",
          "type": "address"
        }
      ],
      "stateMutability": "view",
      "type": "function"
    },
    {
      "inputs": [
        {
          "internalType": "uint256",
          "name": "e3Id",
          "type": "uint256"
        }
      ],
      "name": "e3s",
      "outputs": [
        {
          "internalType": "uint256",
          "name": "seed",
          "type": "uint256"
        },
        {
          "internalType": "enum IEnclave.CommitteeSize",
          "name": "committeeSize",
          "type": "uint8"
        },
        {
          "internalType": "uint256",
          "name": "requestBlock",
          "type": "uint256"
        },
        {
          "internalType": "bytes32",
          "name": "encryptionSchemeId",
          "type": "bytes32"
        },
        {
          "internalType": "contract IE3Program",
          "name": "e3Program",
          "type": "address"
        },
        {
          "internalType": "uint8",
          "name": "paramSet",
          "type": "uint8"
        },
        {
          "internalType": "bytes",
          "name": "customParams",
          "type": "bytes"
        },
        {
          "internalType": "contract IDecryptionVerifier",
          "name": "decryptionVerifier",
          "type": "address"
        },
        {
          "internalType": "contract IPkVerifier",
          "name": "pkVerifier",
          "type": "address"
        },
        {
          "internalType": "bytes32",
          "name": "committeePublicKey",
          "type": "bytes32"
        },
        {
          "internalType": "bytes32",
          "name": "ciphertextOutput",
          "type": "bytes32"
        },
        {
          "internalType": "bytes",
          "name": "plaintextOutput",
          "type": "bytes"
        },
        {
          "internalType": "address",
          "name": "requester",
          "type": "address"
        },
        {
          "internalType": "bool",
          "name": "proofAggregationEnabled",
          "type": "bool"
        }
      ],
      "stateMutability": "view",
      "type": "function"
    },
    {
      "inputs": [
        {
          "internalType": "contract IE3Program",
          "name": "e3Program",
          "type": "address"
        }
      ],
      "name": "enableE3Program",
      "outputs": [],
      "stateMutability": "nonpayable",
      "type": "function"
    },
    {
      "inputs": [
        {
          "internalType": "uint256",
          "name": "e3Id",
          "type": "uint256"
        },
        {
          "internalType": "uint256",
          "name": "amount",
          "type": "uint256"
        }
      ],
      "name": "escrowSlashedFunds",
      "outputs": [],
      "stateMutability": "nonpayable",
      "type": "function"
    },
    {
      "inputs": [],
      "name": "feeToken",
      "outputs": [
        {
          "internalType": "contract IERC20",
          "name": "",
          "type": "address"
        }
      ],
      "stateMutability": "view",
      "type": "function"
    },
    {
      "inputs": [
        {
          "internalType": "uint256",
          "name": "e3Id",
          "type": "uint256"
        }
      ],
      "name": "getDeadlines",
      "outputs": [
        {
          "components": [
            {
              "internalType": "uint256",
              "name": "dkgDeadline",
              "type": "uint256"
            },
            {
              "internalType": "uint256",
              "name": "computeDeadline",
              "type": "uint256"
            },
            {
              "internalType": "uint256",
              "name": "decryptionDeadline",
              "type": "uint256"
            }
          ],
          "internalType": "struct IEnclave.E3Deadlines",
          "name": "deadlines",
          "type": "tuple"
        }
      ],
      "stateMutability": "view",
      "type": "function"
    },
    {
      "inputs": [
        {
          "internalType": "bytes32",
          "name": "encryptionSchemeId",
          "type": "bytes32"
        }
      ],
      "name": "getDecryptionVerifier",
      "outputs": [
        {
          "internalType": "contract IDecryptionVerifier",
          "name": "",
          "type": "address"
        }
      ],
      "stateMutability": "view",
      "type": "function"
    },
    {
      "inputs": [
        {
          "internalType": "uint256",
          "name": "e3Id",
          "type": "uint256"
        }
      ],
      "name": "getE3",
      "outputs": [
        {
          "components": [
            {
              "internalType": "uint256",
              "name": "seed",
              "type": "uint256"
            },
            {
              "internalType": "enum IEnclave.CommitteeSize",
              "name": "committeeSize",
              "type": "uint8"
            },
            {
              "internalType": "uint256",
              "name": "requestBlock",
              "type": "uint256"
            },
            {
              "internalType": "uint256[2]",
              "name": "inputWindow",
              "type": "uint256[2]"
            },
            {
              "internalType": "bytes32",
              "name": "encryptionSchemeId",
              "type": "bytes32"
            },
            {
              "internalType": "contract IE3Program",
              "name": "e3Program",
              "type": "address"
            },
            {
              "internalType": "uint8",
              "name": "paramSet",
              "type": "uint8"
            },
            {
              "internalType": "bytes",
              "name": "customParams",
              "type": "bytes"
            },
            {
              "internalType": "contract IDecryptionVerifier",
              "name": "decryptionVerifier",
              "type": "address"
            },
            {
              "internalType": "contract IPkVerifier",
              "name": "pkVerifier",
              "type": "address"
            },
            {
              "internalType": "bytes32",
              "name": "committeePublicKey",
              "type": "bytes32"
            },
            {
              "internalType": "bytes32",
              "name": "ciphertextOutput",
              "type": "bytes32"
            },
            {
              "internalType": "bytes",
              "name": "plaintextOutput",
              "type": "bytes"
            },
            {
              "internalType": "address",
              "name": "requester",
              "type": "address"
            },
            {
              "internalType": "bool",
              "name": "proofAggregationEnabled",
              "type": "bool"
            }
          ],
          "internalType": "struct E3",
          "name": "e3",
          "type": "tuple"
        }
      ],
      "stateMutability": "view",
      "type": "function"
    },
    {
      "inputs": [
        {
          "components": [
            {
              "internalType": "enum IEnclave.CommitteeSize",
              "name": "committeeSize",
              "type": "uint8"
            },
            {
              "internalType": "uint256[2]",
              "name": "inputWindow",
              "type": "uint256[2]"
            },
            {
              "internalType": "contract IE3Program",
              "name": "e3Program",
              "type": "address"
            },
            {
              "internalType": "uint8",
              "name": "paramSet",
              "type": "uint8"
            },
            {
              "internalType": "bytes",
              "name": "computeProviderParams",
              "type": "bytes"
            },
            {
              "internalType": "bytes",
              "name": "customParams",
              "type": "bytes"
            },
            {
              "internalType": "bool",
              "name": "proofAggregationEnabled",
              "type": "bool"
            }
          ],
          "internalType": "struct IEnclave.E3RequestParams",
          "name": "requestParams",
          "type": "tuple"
        }
      ],
      "name": "getE3Quote",
      "outputs": [
        {
          "internalType": "uint256",
          "name": "fee",
          "type": "uint256"
        }
      ],
      "stateMutability": "view",
      "type": "function"
    },
    {
      "inputs": [
        {
          "internalType": "uint256",
          "name": "e3Id",
          "type": "uint256"
        }
      ],
      "name": "getE3Stage",
      "outputs": [
        {
          "internalType": "enum IEnclave.E3Stage",
          "name": "stage",
          "type": "uint8"
        }
      ],
      "stateMutability": "view",
      "type": "function"
    },
    {
      "inputs": [
        {
          "internalType": "uint256",
          "name": "e3Id",
          "type": "uint256"
        }
      ],
      "name": "getFailureReason",
      "outputs": [
        {
          "internalType": "enum IEnclave.FailureReason",
          "name": "reason",
          "type": "uint8"
        }
      ],
      "stateMutability": "view",
      "type": "function"
    },
    {
      "inputs": [
        {
          "internalType": "bytes32",
          "name": "encryptionSchemeId",
          "type": "bytes32"
        }
      ],
      "name": "getPkVerifier",
      "outputs": [
        {
          "internalType": "contract IPkVerifier",
          "name": "",
          "type": "address"
        }
      ],
      "stateMutability": "view",
      "type": "function"
    },
    {
      "inputs": [],
      "name": "getPricingConfig",
      "outputs": [
        {
          "components": [
            {
              "internalType": "uint256",
              "name": "keyGenFixedPerNode",
              "type": "uint256"
            },
            {
              "internalType": "uint256",
              "name": "keyGenPerEncryptionProof",
              "type": "uint256"
            },
            {
              "internalType": "uint256",
              "name": "coordinationPerPair",
              "type": "uint256"
            },
            {
              "internalType": "uint256",
              "name": "availabilityPerNodePerSec",
              "type": "uint256"
            },
            {
              "internalType": "uint256",
              "name": "decryptionPerNode",
              "type": "uint256"
            },
            {
              "internalType": "uint256",
              "name": "publicationBase",
              "type": "uint256"
            },
            {
              "internalType": "uint256",
              "name": "verificationPerProof",
              "type": "uint256"
            },
            {
              "internalType": "address",
              "name": "protocolTreasury",
              "type": "address"
            },
            {
              "internalType": "uint16",
              "name": "marginBps",
              "type": "uint16"
            },
            {
              "internalType": "uint16",
              "name": "protocolShareBps",
              "type": "uint16"
            },
            {
              "internalType": "uint16",
              "name": "dkgUtilizationBps",
              "type": "uint16"
            },
            {
              "internalType": "uint16",
              "name": "computeUtilizationBps",
              "type": "uint16"
            },
            {
              "internalType": "uint16",
              "name": "decryptUtilizationBps",
              "type": "uint16"
            },
            {
              "internalType": "uint32",
              "name": "minCommitteeSize",
              "type": "uint32"
            },
            {
              "internalType": "uint32",
              "name": "minThreshold",
              "type": "uint32"
            }
          ],
          "internalType": "struct IEnclave.PricingConfig",
          "name": "",
          "type": "tuple"
        }
      ],
      "stateMutability": "view",
      "type": "function"
    },
    {
      "inputs": [
        {
          "internalType": "uint256",
          "name": "e3Id",
          "type": "uint256"
        }
      ],
      "name": "getRequester",
      "outputs": [
        {
          "internalType": "address",
          "name": "requester",
          "type": "address"
        }
      ],
      "stateMutability": "view",
      "type": "function"
    },
    {
      "inputs": [],
      "name": "getTimeoutConfig",
      "outputs": [
        {
          "components": [
            {
              "internalType": "uint256",
              "name": "dkgWindow",
              "type": "uint256"
            },
            {
              "internalType": "uint256",
              "name": "computeWindow",
              "type": "uint256"
            },
            {
              "internalType": "uint256",
              "name": "decryptionWindow",
              "type": "uint256"
            }
          ],
          "internalType": "struct IEnclave.E3TimeoutConfig",
          "name": "config",
          "type": "tuple"
        }
      ],
      "stateMutability": "view",
      "type": "function"
    },
    {
      "inputs": [
        {
          "internalType": "address",
          "name": "_owner",
          "type": "address"
        },
        {
          "internalType": "contract ICiphernodeRegistry",
          "name": "_ciphernodeRegistry",
          "type": "address"
        },
        {
          "internalType": "contract IBondingRegistry",
          "name": "_bondingRegistry",
          "type": "address"
        },
        {
          "internalType": "contract IE3RefundManager",
          "name": "_e3RefundManager",
          "type": "address"
        },
        {
          "internalType": "contract IERC20",
          "name": "_feeToken",
          "type": "address"
        },
        {
          "internalType": "uint256",
          "name": "_maxDuration",
          "type": "uint256"
        },
        {
          "components": [
            {
              "internalType": "uint256",
              "name": "dkgWindow",
              "type": "uint256"
            },
            {
              "internalType": "uint256",
              "name": "computeWindow",
              "type": "uint256"
            },
            {
              "internalType": "uint256",
              "name": "decryptionWindow",
              "type": "uint256"
            }
          ],
          "internalType": "struct IEnclave.E3TimeoutConfig",
          "name": "config",
          "type": "tuple"
        }
      ],
      "name": "initialize",
      "outputs": [],
      "stateMutability": "nonpayable",
      "type": "function"
    },
    {
      "inputs": [
        {
          "internalType": "uint256",
          "name": "e3Id",
          "type": "uint256"
        }
      ],
      "name": "markE3Failed",
      "outputs": [
        {
          "internalType": "enum IEnclave.FailureReason",
          "name": "reason",
          "type": "uint8"
        }
      ],
      "stateMutability": "nonpayable",
      "type": "function"
    },
    {
      "inputs": [],
      "name": "maxDuration",
      "outputs": [
        {
          "internalType": "uint256",
          "name": "",
          "type": "uint256"
        }
      ],
      "stateMutability": "view",
      "type": "function"
    },
    {
      "inputs": [],
      "name": "nexte3Id",
      "outputs": [
        {
          "internalType": "uint256",
          "name": "",
          "type": "uint256"
        }
      ],
      "stateMutability": "view",
      "type": "function"
    },
    {
      "inputs": [
        {
          "internalType": "uint256",
          "name": "e3Id",
          "type": "uint256"
        }
      ],
      "name": "onCommitteeFinalized",
      "outputs": [],
      "stateMutability": "nonpayable",
      "type": "function"
    },
    {
      "inputs": [
        {
          "internalType": "uint256",
          "name": "e3Id",
          "type": "uint256"
        },
        {
          "internalType": "bytes32",
          "name": "committeePublicKey",
          "type": "bytes32"
        }
      ],
      "name": "onCommitteePublished",
      "outputs": [],
      "stateMutability": "nonpayable",
      "type": "function"
    },
    {
      "inputs": [
        {
          "internalType": "uint256",
          "name": "e3Id",
          "type": "uint256"
        },
        {
          "internalType": "uint8",
          "name": "reason",
          "type": "uint8"
        }
      ],
      "name": "onE3Failed",
      "outputs": [],
      "stateMutability": "nonpayable",
      "type": "function"
    },
    {
      "inputs": [],
      "name": "owner",
      "outputs": [
        {
          "internalType": "address",
          "name": "",
          "type": "address"
        }
      ],
      "stateMutability": "view",
      "type": "function"
    },
    {
      "inputs": [
        {
          "internalType": "uint8",
          "name": "",
          "type": "uint8"
        }
      ],
      "name": "paramSetRegistry",
      "outputs": [
        {
          "internalType": "bytes",
          "name": "",
          "type": "bytes"
        }
      ],
      "stateMutability": "view",
      "type": "function"
    },
    {
      "inputs": [
        {
          "internalType": "bytes32",
          "name": "encryptionSchemeId",
          "type": "bytes32"
        }
      ],
      "name": "pkVerifiers",
      "outputs": [
        {
          "internalType": "contract IPkVerifier",
          "name": "pkVerifier",
          "type": "address"
        }
      ],
      "stateMutability": "view",
      "type": "function"
    },
    {
      "inputs": [
        {
          "internalType": "uint256",
          "name": "e3Id",
          "type": "uint256"
        }
      ],
      "name": "processE3Failure",
      "outputs": [],
      "stateMutability": "nonpayable",
      "type": "function"
    },
    {
      "inputs": [
        {
          "internalType": "uint256",
          "name": "e3Id",
          "type": "uint256"
        },
        {
          "internalType": "bytes",
          "name": "ciphertextOutput",
          "type": "bytes"
        },
        {
          "internalType": "bytes",
          "name": "proof",
          "type": "bytes"
        }
      ],
      "name": "publishCiphertextOutput",
      "outputs": [
        {
          "internalType": "bool",
          "name": "success",
          "type": "bool"
        }
      ],
      "stateMutability": "nonpayable",
      "type": "function"
    },
    {
      "inputs": [
        {
          "internalType": "uint256",
          "name": "e3Id",
          "type": "uint256"
        },
        {
          "internalType": "bytes",
          "name": "plaintextOutput",
          "type": "bytes"
        },
        {
          "internalType": "bytes",
          "name": "proof",
          "type": "bytes"
        }
      ],
      "name": "publishPlaintextOutput",
      "outputs": [
        {
          "internalType": "bool",
          "name": "success",
          "type": "bool"
        }
      ],
      "stateMutability": "nonpayable",
      "type": "function"
    },
    {
      "inputs": [],
      "name": "renounceOwnership",
      "outputs": [],
      "stateMutability": "nonpayable",
      "type": "function"
    },
    {
      "inputs": [
        {
          "components": [
            {
              "internalType": "enum IEnclave.CommitteeSize",
              "name": "committeeSize",
              "type": "uint8"
            },
            {
              "internalType": "uint256[2]",
              "name": "inputWindow",
              "type": "uint256[2]"
            },
            {
              "internalType": "contract IE3Program",
              "name": "e3Program",
              "type": "address"
            },
            {
              "internalType": "uint8",
              "name": "paramSet",
              "type": "uint8"
            },
            {
              "internalType": "bytes",
              "name": "computeProviderParams",
              "type": "bytes"
            },
            {
              "internalType": "bytes",
              "name": "customParams",
              "type": "bytes"
            },
            {
              "internalType": "bool",
              "name": "proofAggregationEnabled",
              "type": "bool"
            }
          ],
          "internalType": "struct IEnclave.E3RequestParams",
          "name": "requestParams",
          "type": "tuple"
        }
      ],
      "name": "request",
      "outputs": [
        {
          "internalType": "uint256",
          "name": "e3Id",
          "type": "uint256"
        },
        {
          "components": [
            {
              "internalType": "uint256",
              "name": "seed",
              "type": "uint256"
            },
            {
              "internalType": "enum IEnclave.CommitteeSize",
              "name": "committeeSize",
              "type": "uint8"
            },
            {
              "internalType": "uint256",
              "name": "requestBlock",
              "type": "uint256"
            },
            {
              "internalType": "uint256[2]",
              "name": "inputWindow",
              "type": "uint256[2]"
            },
            {
              "internalType": "bytes32",
              "name": "encryptionSchemeId",
              "type": "bytes32"
            },
            {
              "internalType": "contract IE3Program",
              "name": "e3Program",
              "type": "address"
            },
            {
              "internalType": "uint8",
              "name": "paramSet",
              "type": "uint8"
            },
            {
              "internalType": "bytes",
              "name": "customParams",
              "type": "bytes"
            },
            {
              "internalType": "contract IDecryptionVerifier",
              "name": "decryptionVerifier",
              "type": "address"
            },
            {
              "internalType": "contract IPkVerifier",
              "name": "pkVerifier",
              "type": "address"
            },
            {
              "internalType": "bytes32",
              "name": "committeePublicKey",
              "type": "bytes32"
            },
            {
              "internalType": "bytes32",
              "name": "ciphertextOutput",
              "type": "bytes32"
            },
            {
              "internalType": "bytes",
              "name": "plaintextOutput",
              "type": "bytes"
            },
            {
              "internalType": "address",
              "name": "requester",
              "type": "address"
            },
            {
              "internalType": "bool",
              "name": "proofAggregationEnabled",
              "type": "bool"
            }
          ],
          "internalType": "struct E3",
          "name": "e3",
          "type": "tuple"
        }
      ],
      "stateMutability": "nonpayable",
      "type": "function"
    },
    {
      "inputs": [
        {
          "internalType": "contract IBondingRegistry",
          "name": "_bondingRegistry",
          "type": "address"
        }
      ],
      "name": "setBondingRegistry",
      "outputs": [],
      "stateMutability": "nonpayable",
      "type": "function"
    },
    {
      "inputs": [
        {
          "internalType": "contract ICiphernodeRegistry",
          "name": "_ciphernodeRegistry",
          "type": "address"
        }
      ],
      "name": "setCiphernodeRegistry",
      "outputs": [],
      "stateMutability": "nonpayable",
      "type": "function"
    },
    {
      "inputs": [
        {
          "internalType": "enum IEnclave.CommitteeSize",
          "name": "size",
          "type": "uint8"
        },
        {
          "internalType": "uint32[2]",
          "name": "threshold",
          "type": "uint32[2]"
        }
      ],
      "name": "setCommitteeThresholds",
      "outputs": [],
      "stateMutability": "nonpayable",
      "type": "function"
    },
    {
      "inputs": [
        {
          "internalType": "bytes32",
          "name": "encryptionSchemeId",
          "type": "bytes32"
        },
        {
          "internalType": "contract IDecryptionVerifier",
          "name": "decryptionVerifier",
          "type": "address"
        }
      ],
      "name": "setDecryptionVerifier",
      "outputs": [],
      "stateMutability": "nonpayable",
      "type": "function"
    },
    {
      "inputs": [
        {
          "internalType": "contract IE3RefundManager",
          "name": "_e3RefundManager",
          "type": "address"
        }
      ],
      "name": "setE3RefundManager",
      "outputs": [],
      "stateMutability": "nonpayable",
      "type": "function"
    },
    {
      "inputs": [
        {
          "internalType": "contract IERC20",
          "name": "_feeToken",
          "type": "address"
        }
      ],
      "name": "setFeeToken",
      "outputs": [],
      "stateMutability": "nonpayable",
      "type": "function"
    },
    {
      "inputs": [
        {
          "internalType": "uint256",
          "name": "_maxDuration",
          "type": "uint256"
        }
      ],
      "name": "setMaxDuration",
      "outputs": [],
      "stateMutability": "nonpayable",
      "type": "function"
    },
    {
      "inputs": [
        {
          "internalType": "uint8",
          "name": "paramSet",
          "type": "uint8"
        },
        {
          "internalType": "bytes",
          "name": "encodedParams",
          "type": "bytes"
        }
      ],
      "name": "setParamSet",
      "outputs": [],
      "stateMutability": "nonpayable",
      "type": "function"
    },
    {
      "inputs": [
        {
          "internalType": "bytes32",
          "name": "encryptionSchemeId",
          "type": "bytes32"
        },
        {
          "internalType": "contract IPkVerifier",
          "name": "pkVerifier",
          "type": "address"
        }
      ],
      "name": "setPkVerifier",
      "outputs": [],
      "stateMutability": "nonpayable",
      "type": "function"
    },
    {
      "inputs": [
        {
          "components": [
            {
              "internalType": "uint256",
              "name": "keyGenFixedPerNode",
              "type": "uint256"
            },
            {
              "internalType": "uint256",
              "name": "keyGenPerEncryptionProof",
              "type": "uint256"
            },
            {
              "internalType": "uint256",
              "name": "coordinationPerPair",
              "type": "uint256"
            },
            {
              "internalType": "uint256",
              "name": "availabilityPerNodePerSec",
              "type": "uint256"
            },
            {
              "internalType": "uint256",
              "name": "decryptionPerNode",
              "type": "uint256"
            },
            {
              "internalType": "uint256",
              "name": "publicationBase",
              "type": "uint256"
            },
            {
              "internalType": "uint256",
              "name": "verificationPerProof",
              "type": "uint256"
            },
            {
              "internalType": "address",
              "name": "protocolTreasury",
              "type": "address"
            },
            {
              "internalType": "uint16",
              "name": "marginBps",
              "type": "uint16"
            },
            {
              "internalType": "uint16",
              "name": "protocolShareBps",
              "type": "uint16"
            },
            {
              "internalType": "uint16",
              "name": "dkgUtilizationBps",
              "type": "uint16"
            },
            {
              "internalType": "uint16",
              "name": "computeUtilizationBps",
              "type": "uint16"
            },
            {
              "internalType": "uint16",
              "name": "decryptUtilizationBps",
              "type": "uint16"
            },
            {
              "internalType": "uint32",
              "name": "minCommitteeSize",
              "type": "uint32"
            },
            {
              "internalType": "uint32",
              "name": "minThreshold",
              "type": "uint32"
            }
          ],
          "internalType": "struct IEnclave.PricingConfig",
          "name": "config",
          "type": "tuple"
        }
      ],
      "name": "setPricingConfig",
      "outputs": [],
      "stateMutability": "nonpayable",
      "type": "function"
    },
    {
      "inputs": [
        {
          "internalType": "contract ISlashingManager",
          "name": "_slashingManager",
          "type": "address"
        }
      ],
      "name": "setSlashingManager",
      "outputs": [],
      "stateMutability": "nonpayable",
      "type": "function"
    },
    {
      "inputs": [
        {
          "components": [
            {
              "internalType": "uint256",
              "name": "dkgWindow",
              "type": "uint256"
            },
            {
              "internalType": "uint256",
              "name": "computeWindow",
              "type": "uint256"
            },
            {
              "internalType": "uint256",
              "name": "decryptionWindow",
              "type": "uint256"
            }
          ],
          "internalType": "struct IEnclave.E3TimeoutConfig",
          "name": "config",
          "type": "tuple"
        }
      ],
      "name": "setTimeoutConfig",
      "outputs": [],
      "stateMutability": "nonpayable",
      "type": "function"
    },
    {
      "inputs": [],
      "name": "slashingManager",
      "outputs": [
        {
          "internalType": "contract ISlashingManager",
          "name": "",
          "type": "address"
        }
      ],
      "stateMutability": "view",
      "type": "function"
    },
    {
      "inputs": [
        {
          "internalType": "address",
          "name": "newOwner",
          "type": "address"
        }
      ],
      "name": "transferOwnership",
      "outputs": [],
      "stateMutability": "nonpayable",
      "type": "function"
    }
  ],
  "bytecode": "0x6080604052348015600e575f5ffd5b5060156019565b60c9565b7ff0c57e16840df040f15088dc2f81fe391c3923bec73e23a9662efc9c229c6a00805468010000000000000000900460ff161560685760405163f92ee8a960e01b815260040160405180910390fd5b80546001600160401b039081161460c65780546001600160401b0319166001600160401b0390811782556040519081527fc7f505b2f371ae2175ee4913f4499e1f2633a7b5936321eed1cdaeb6115181d29060200160405180910390a15b50565b6159d7806100d65f395ff3fe608060405234801561000f575f5ffd5b50600436106102ce575f3560e01c806390173a4111610182578063cb649617116100e0578063f0691cba1161008f578063f0691cba14610886578063f2fde38b14610899578063f3ceba3a146108ac578063f81b8ef6146108cd578063fad8e111146108e0578063fbdb3237146108f3578063fd2f3d011461091b575f5ffd5b8063cb649617146107ef578063cbd16872146107f8578063cf0f34c41461080b578063cfbdc98d1461081e578063d8afed3e1461084d578063e59e469514610860578063ea71aa5714610873575f5ffd5b80639e57b9341161013c5780639e57b93414610607578063a87f4ab91461061a578063ac3d2f421461076c578063bb2d1b8214610794578063bff232c1146107a7578063c1ab0f1f146107ba578063c4ccafa2146107cd575f5ffd5b806390173a41146105705780639117173c146105855780639231238614610598578063929a8faf146105ab57806399c6679d146105cc5780639c8570c8146105f4575f5ffd5b80635d1684181161022f5780637edcd7ab116101e95780637edcd7ab146104e757806381476ec21461050a578063830d71811461051d57806385814243146105305780638da5cb5b146105435780638dcdd86b1461054b5780638e5ce3ad1461055d575f5ffd5b80635d1684181461047d578063647846a51461049d5780636db5c8fd146104b0578063715018a6146104b95780637c8c3b4d146104c15780637cfa9d74146104d4575f5ffd5b806336c5d38a1161028b57806336c5d38a1461039b5780634017daf0146103ca578063406ed35c146103f75780634147a360146104175780634d600e5d146104445780634e92ec63146104575780634fc772641461046a575f5ffd5b806302a3a9c9146102d25780630ef81b2f146102e757806310bc62811461032557806311bd61d91461034d57806315cce224146103755780631ba7294514610388575b5f5ffd5b6102e56102e0366004614683565b61092e565b005b61030f6102f53660046146a5565b5f908152600960205260409020546001600160a01b031690565b60405161031c91906146c9565b60405180910390f35b61030f6103333660046146a5565b60096020525f90815260409020546001600160a01b031681565b61036061035b3660046146f0565b6109da565b60405163ffffffff909116815260200161031c565b6102e5610383366004614683565b610a16565b6102e5610396366004614728565b610abb565b6103bd6103a93660046146a5565b5f908152600f602052604090205460ff1690565b60405161031c919061476a565b6103dd6103d83660046146a5565b610acf565b60405161031c9e9d9c9b9a999897969594939291906147b6565b61040a6104053660046146a5565b610c7a565b60405161031c9190614990565b6104366104253660046146a5565b600c6020525f908152604090205481565b60405190815260200161031c565b6102e56104523660046149ad565b610ef7565b6102e56104653660046146a5565b611135565b6102e5610478366004614683565b6111c4565b61049061048b366004614a43565b611257565b60405161031c9190614a5c565b60045461030f906001600160a01b031681565b61043660055481565b6102e56112ee565b6102e56104cf366004614a6e565b611301565b6102e56104e23660046146a5565b6113c1565b6104fa6104f5366004614ad9565b6114b4565b604051901515815260200161031c565b6102e5610518366004614b50565b61177a565b6102e561052b366004614b70565b61186e565b60015461030f906001600160a01b031681565b61030f61197a565b5f5461030f906001600160a01b031681565b60035461030f906001600160a01b031681565b6105786119a8565b60405161031c9190614bbe565b6102e56105933660046146a5565b6119ee565b6105786105a63660046146a5565b611b5c565b6105be6105b93660046146a5565b611bb5565b60405161031c929190614bdf565b61030f6105da3660046146a5565b5f908152601060205260409020546001600160a01b031690565b6104fa610602366004614ad9565b611bdc565b610436610615366004614bf5565b611e74565b61075f604080516101e0810182525f80825260208201819052918101829052606081018290526080810182905260a0810182905260c0810182905260e08101829052610100810182905261012081018290526101408101829052610160810182905261018081018290526101a081018290526101c081019190915250604080516101e0810182526018548152601954602080830191909152601a5492820192909252601b546060820152601c546080820152601d5460a0820152601e5460c0820152601f546001600160a01b03811660e083015261ffff600160a01b82048116610100840152600160b01b82048116610120840152600160c01b82048116610140840152600160d01b82048116610160840152600160e01b90910416610180820152905463ffffffff8082166101a0840152640100000000909104166101c082015290565b60405161031c9190614c2c565b61030f61077a3660046146a5565b5f908152600a60205260409020546001600160a01b031690565b6102e56107a2366004614d39565b61243e565b6102e56107b5366004614683565b6124fa565b6102e56107c8366004614b50565b6125a1565b6104fa6107db366004614683565b60076020525f908152604090205460ff1681565b61043660065481565b6102e5610806366004614a6e565b61265e565b6102e56108193660046146a5565b612718565b61084061082c3660046146a5565b5f908152600d602052604090205460ff1690565b60405161031c9190614d73565b6102e561085b366004614d81565b612755565b6102e561086e366004614683565b6129e2565b6102e5610881366004614d9b565b612a7c565b60025461030f906001600160a01b031681565b6102e56108a7366004614683565b612d29565b6108bf6108ba366004614bf5565b612d63565b60405161031c929190614dd2565b6103bd6108db3660046146a5565b613640565b6102e56108ee366004614683565b6137da565b61030f6109013660046146a5565b600a6020525f90815260409020546001600160a01b031681565b6102e5610929366004614683565b613872565b610936613901565b6001600160a01b0381166109915760405162461bcd60e51b815260206004820152601f60248201527f496e76616c6964204533526566756e644d616e6167657220616464726573730060448201526064015b60405180910390fd5b600280546001600160a01b0319166001600160a01b0383169081179091556040517f9557d04c1c0b16f93f13b69aed23b3b6ab935bff3c53ac81d17896d3583542ed905f90a250565b6012602052815f5260405f2081600281106109f3575f80fd5b60089182820401919006600402915091509054906101000a900463ffffffff1681565b610a1e613901565b6001600160a01b03811615801590610a4457506004546001600160a01b03828116911614155b8190610a645760405163eddf07f560e01b815260040161098891906146c9565b50600480546001600160a01b0319166001600160a01b0383161790556040517f722ff84c1234b2482061def5c82c6b5080c117b3cbb69d686844a051e4b8e7f390610ab09083906146c9565b60405180910390a150565b610ac3613901565b610acc81613933565b50565b60086020525f9081526040902080546001820154600283015460058401546006850154600786018054959660ff95861696949593946001600160a01b03841694600160a01b90940490931692909190610b2790614df2565b80601f0160208091040260200160405190810160405280929190818152602001828054610b5390614df2565b8015610b9e5780601f10610b7557610100808354040283529160200191610b9e565b820191905f5260205f20905b815481529060010190602001808311610b8157829003601f168201915b50505060088401546009850154600a860154600b870154600c8801805497986001600160a01b03958616989490951696509194509291610bdd90614df2565b80601f0160208091040260200160405190810160405280929190818152602001828054610c0990614df2565b8015610c545780601f10610c2b57610100808354040283529160200191610c54565b820191905f5260205f20905b815481529060010190602001808311610c3757829003601f168201915b505050600d90930154919250506001600160a01b0381169060ff600160a01b909104168e565b610c826144f1565b5f8281526008602090815260409182902082516101e08101909352805483526001810154909183019060ff166003811115610cbf57610cbf614742565b6003811115610cd057610cd0614742565b8152600282810154602083015260408051808201808352919093019291600385019182845b815481526020019060010190808311610cf55750505091835250506005820154602082015260068201546001600160a01b0381166040830152600160a01b900460ff166060820152600782018054608090920191610d5290614df2565b80601f0160208091040260200160405190810160405280929190818152602001828054610d7e90614df2565b8015610dc95780601f10610da057610100808354040283529160200191610dc9565b820191905f5260205f20905b815481529060010190602001808311610dac57829003601f168201915b505050918352505060088201546001600160a01b0390811660208301526009830154166040820152600a8201546060820152600b8201546080820152600c8201805460a090920191610e1a90614df2565b80601f0160208091040260200160405190810160405280929190818152602001828054610e4690614df2565b8015610e915780601f10610e6857610100808354040283529160200191610e91565b820191905f5260205f20905b815481529060010190602001808311610e7457829003601f168201915b5050509183525050600d91909101546001600160a01b038082166020840152600160a01b90910460ff16151560409092019190915260a0820151919250839116610ef15760405163cd6f4a4f60e01b815260040161098891815260200190565b50919050565b5f610f006139f0565b805490915060ff600160401b82041615906001600160401b03165f81158015610f265750825b90505f826001600160401b03166001148015610f415750303b155b905081158015610f4f575080155b15610f6d5760405163f92ee8a960e01b815260040160405180910390fd5b845467ffffffffffffffff191660011785558315610f9757845460ff60401b1916600160401b1785555b610fa033613a1a565b610fa987612718565b610fb28b6137da565b610fbb8a6129e2565b610fc48961092e565b610fcd88610a16565b610fd686613933565b604080516101e081018252620186a080825261c3506020808401829052612710948401859052603260608501819052620493e060808601819052620f424060a0870181905261138860c088018190525f60e089018190526105dc6101008a015261012089018190526109c46101408a018190526101608a018390526101808a01526101a089018190526101c090980197909752601895909555601993909355601a95909555601b94909455601c55601d55601e55601f80546001600160f01b03191669027104e202710000017760a21b179055805467ffffffffffffffff191690556110c061197a565b6001600160a01b03168c6001600160a01b0316146110e1576110e18c612d29565b831561112757845460ff60401b19168555604051600181527fc7f505b2f371ae2175ee4913f4499e1f2633a7b5936321eed1cdaeb6115181d29060200160405180910390a15b505050505050505050505050565b61113d613901565b5f8181526009602052604090205481906001600160a01b0316611176576040516381c4951960e01b815260040161098891815260200190565b505f818152600960205260409081902080546001600160a01b0319169055517f104eb329a192aef26eddea07c2af5ad2587792e62b37ed4045b6ba59bc5540fc90610ab09083815260200190565b6111cc613901565b6001600160a01b0381165f90815260076020526040902054819060ff16611207576040516321ac7c5f60e01b815260040161098891906146c9565b506001600160a01b0381165f9081526007602052604090819020805460ff19169055517f56070b80bd617fcd2f7a284861edb488830a38f9dedcd77b2cb2f4eac17743e790610ab09083906146c9565b600b6020525f90815260409020805461126f90614df2565b80601f016020809104026020016040519081016040528092919081815260200182805461129b90614df2565b80156112e65780601f106112bd576101008083540402835291602001916112e6565b820191905f5260205f20905b8154815290600101906020018083116112c957829003601f168201915b505050505081565b6112f6613901565b6112ff5f613a2b565b565b611309613901565b6001600160a01b0381161580159061133a57505f828152600a60205260409020546001600160a01b03828116911614155b829061135c576040516381c4951960e01b815260040161098891815260200190565b505f828152600a60205260409081902080546001600160a01b0319166001600160a01b0384161790555182907f53661e3e12f23eea1e322a5352171ad3e4407d1394f869f53bb148c27e00908a906113b59084906146c9565b60405180910390a25050565b5f546001600160a01b031633146113eb5760405163b56831db60e01b815260040160405180910390fd5b5f818152600d602052604090205460ff16600181600681111561141057611410614742565b1461143557816001826040516337e1404160e01b815260040161098893929190614e24565b5f828152600d60205260409020805460ff1916600217905560155461145a9042614e59565b5f838152600e602052604080822092909255905183917fc44405af9078047712501f519e1fb900c2896c62b488336f84529c72ae16e6f191a2815f5160206159ab5f395f51905f52600160026040516113b5929190614e6c565b5f5f6114bf87610c7a565b5f888152600d602052604090205490915060ff1660048160068111156114e7576114e7614742565b148860048390919261150f576040516337e1404160e01b815260040161098893929190614e24565b5050505f888152600e60209081526040918290208251606081018452815481526001820154928101929092526002015491810182905290899042811015611572576040516308f3034360e31b815260048101929092526024820152604401610988565b50505f898152600860205260409020600c0161158f888a83614efa565b505f898152600d60205260409020805460ff191660051790556101c0830151156116f957846115d157604051631eae1a4d60e31b815260040160405180910390fd5b5f80546040516304cd0b0d60e11b8152600481018c90526001600160a01b039091169063099a161a90602401602060405180830381865afa158015611618573d5f5f3e3d5ffd5b505050506040513d601f19601f8201168201806040525081019061163c9190614fae565b90508361010001516001600160a01b031663de12c6408a8a604051611662929190614fc5565b6040519081900381206001600160e01b031960e084901b16825261168e9185908c908c90600401614ffc565b602060405180830381865afa1580156116a9573d5f5f3e3d5ffd5b505050506040513d601f19601f820116820180604052508101906116cd9190615028565b94508888866116f157604051632f9f8ab960e01b8152600401610988929190615043565b5050506116fe565b600193505b61170789613a9b565b887f3a140076c461ebc41d74833ae0ee8bbc8079a135a63392098cd381e84350b69b8989898960405161173d9493929190615056565b60405180910390a2885f5160206159ab5f395f51905f5260046005604051611766929190614e6c565b60405180910390a250505095945050505050565b5f546001600160a01b031633146117a45760405163b56831db60e01b815260040160405180910390fd5b5f828152600860209081526040808320600d9092529091205460ff1660028160068111156117d4576117d4614742565b146117f957836002826040516337e1404160e01b815260040161098893929190614e24565b5f848152600d6020526040808220805460ff19166003179055600a84018590555185917f11df18edb9bc9cd90a79068e0e208b630202148643d797d6150e7bacb733e63c91a2835f5160206159ab5f395f51905f5260026003604051611860929190614e6c565b60405180910390a250505050565b611876613901565b806118b25760405162461bcd60e51b815260206004820152600c60248201526b456d70747920706172616d7360a01b6044820152606401610988565b60ff83165f908152600b6020526040902080546118ce90614df2565b15905061191d5760405162461bcd60e51b815260206004820152601b60248201527f506172616d53657420616c7265616479207265676973746572656400000000006044820152606401610988565b60ff83165f908152600b60205260409020611939828483614efa565b507f6e4a4ea7f38fc775e616080b155744337e6216848e886a69c918b4ab84da219583838360405161196d93929190615087565b60405180910390a1505050565b7f9016d09d72d40fdae2fd8ceac6b6234c7706214fd39c1cd1e609a0528c199300546001600160a01b031690565b6119c960405180606001604052805f81526020015f81526020015f81525090565b5060408051606081018252601554815260165460208201526017549181019190915290565b5f818152600d602052604090205460ff166006816006811115611a1357611a13614742565b148290611a3657604051637cb2d48360e11b815260040161098891815260200190565b505f828152600c60205260409020548281611a67576040516345ba89d560e11b815260040161098891815260200190565b505f838152600c60205260408120819055611a8184613f07565b5f858152601160205260409020546002549192506001600160a01b0390811691611aae9183911685613ff4565b60025460405163da19b69760e01b81526001600160a01b039091169063da19b69790611ae49088908790879087906004016150ef565b5f604051808303815f87803b158015611afb575f5ffd5b505af1158015611b0d573d5f5f3e3d5ffd5b50505050847f5297818f48a66292b8b3e2caab83eec531b669bb20807fd38cf006adb2a07317848451604051611b4d929190918252602082015260400190565b60405180910390a25050505050565b611b7d60405180606001604052805f81526020015f81526020015f81525090565b505f908152600e6020908152604091829020825160608101845281548152600182015492810192909252600201549181019190915290565b5f818152600d6020526040812054819060ff16611bd28482614051565b9250925050915091565b5f5f611be787610c7a565b5f888152600d602052604090205490915060ff166003816006811115611c0f57611c0f614742565b1488600383909192611c37576040516337e1404160e01b815260040161098893929190614e24565b5050505f888152600e6020908152604091829020825160608101845281548152600182015492810183905260029091015492810192909252899042811015611c9b576040516308f3034360e31b815260048101929092526024820152604401610988565b5050606083015160200151899042811115611cd25760405163017e35e560e71b815260048101929092526024820152604401610988565b5050610160830151899015611cfd57604051637eb9cea960e11b815260040161098891815260200190565b505f8888604051611d0f929190614fc5565b60408051918290039091205f8c815260086020908152838220600b01839055600d905291909120805460ff19166004179055601754909150611d519042614e59565b5f8b8152600e6020526040908190206002019190915560a08501519051632f0e1bbf60e01b81526001600160a01b0390911690632f0e1bbf90611d9e908d9085908c908c90600401614ffc565b6020604051808303815f875af1158015611dba573d5f5f3e3d5ffd5b505050506040513d601f19601f82011682018060405250810190611dde9190615028565b9450888886611e0257604051632f9f8ab960e01b8152600401610988929190615043565b5050897f7cc27e4a5626cbc4f8ba1a927b0448de55e6a114bc87660331270c5109ade0718a8a604051611e36929190615043565b60405180910390a2895f5160206159ab5f395f51905f5260036004604051611e5f929190614e6c565b60405180910390a25050505095945050505050565b5f80600b81611e8960a0860160808701614a43565b60ff1660ff1681526020019081526020015f208054611ea790614df2565b905011611ec65760405162461bcd60e51b81526004016109889061513a565b5f601281611ed76020860186615171565b6003811115611ee857611ee8614742565b6003811115611ef957611ef9614742565b8152602081019190915260409081015f20815180830190925260028282826020028201915f905b82829054906101000a900463ffffffff1663ffffffff1681526020019060040190602082600301049283019260010382029150808411611f20579050505050505090505f81600160028110611f7757611f77615126565b602002015163ffffffff1611835f016020810190611f959190615171565b90611fb45760405163286c068d60e11b8152600401610988919061518a565b506020808201518251604080516101e081018252601854815260195481860152601a5491810191909152601b546060820152601c546080820152601d5460a0820152601e5460c0820152601f546001600160a01b03811660e0830152600160a01b810461ffff908116610100840152600160b01b82048116610120840152600160c01b82048116610140840152600160d01b82048116610160840152600160e01b90910416610180820152925463ffffffff8181166101a0860181905264010000000090920481166101c0860152928316939190921691156120df576101a081015163ffffffff16846001602002015163ffffffff161015865f0160208101906120be9190615171565b906120dd5760405163010b971d60e31b8152600401610988919061518a565b505b6101c081015163ffffffff161561212e576101c081015184519063ffffffff908116908216101561212c57604051630a4b6b6360e11b815263ffffffff9091166004820152602401610988565b505b6040860135602087013581101561215b5760405163174b5a0760e21b815260040161098891815260200190565b506101808101516017545f91612710916121799161ffff1690615198565b61218391906151af565b61271061ffff1683610160015161ffff166015600101546121a49190615198565b6121ae91906151af565b61271061ffff1684610140015161ffff1660155f01546121ce9190615198565b6121d891906151af565b5f5460408051634f87c3a560e11b8152815160208e81013594938f0135936001600160a01b031692639f0f874a92600480830193928290030181865afa158015612224573d5f5f3e3d5ffd5b505050506040513d601f19601f820116820180604052508101906122489190614fae565b6122529190614e59565b61225c91906151ce565b6122669190614e59565b6122709190614e59565b61227a9190614e59565b90505f6122886001866151ce565b612293906004615198565b61229e90600e614e59565b90505f85845f01516122b09190615198565b9050818685602001516122c39190615198565b6122cd9190615198565b6122d79082614e59565b9050600186111561231f5760026122ef6001886151ce565b6122f99088615198565b85604001516123089190615198565b61231291906151af565b61231c9082614e59565b90505b81868560c001516123309190615198565b61233a9190615198565b6123449082614e59565b9050828685606001516123579190615198565b6123619190615198565b61236b9082614e59565b905084846080015161237d9190615198565b6123879082614e59565b905060018511156123cf57600261239f6001876151ce565b6123a99087615198565b85604001516123b89190615198565b6123c291906151af565b6123cc9082614e59565b90505b60a08401516123de9082614e59565b610100850151909150612710906123f99061ffff1682614e59565b6124039083615198565b61240d91906151af565b9750878061243157604051638c4fcd9360e01b815260040161098891815260200190565b5050505050505050919050565b5f546001600160a01b031633148061246057506003546001600160a01b031633145b61247d57604051639e75a8b560e01b815260040160405180910390fd5b5f8160ff161180156124935750600d60ff821611155b6124d85760405162461bcd60e51b815260206004820152601660248201527524b73b30b634b2103330b4b63ab932903932b0b9b7b760511b6044820152606401610988565b6124f6828260ff16600d8111156124f1576124f1614742565b6141d9565b5050565b612502613901565b6001600160a01b0381166125585760405162461bcd60e51b815260206004820152601f60248201527f496e76616c696420536c617368696e674d616e616765722061646472657373006044820152606401610988565b600380546001600160a01b0319166001600160a01b0383169081179091556040517f4ccc8ed483c7c44c3602c3c38afc2c014a8f1d2dc210dfe58ebeeeead230f8e0905f90a250565b6003546001600160a01b031633146125cc576040516357d6948d60e11b815260040160405180910390fd5b60025460405163c1ab0f1f60e01b815260048101849052602481018390526001600160a01b039091169063c1ab0f1f906044015f604051808303815f87803b158015612616575f5ffd5b505af1158015612628573d5f5f3e3d5ffd5b50505050817f4f41a3b0a032ebcae925f2ace77d507435840ca4b2dbaffdd7723fa8d72ee542826040516113b591815260200190565b612666613901565b6001600160a01b0381161580159061269757505f828152600960205260409020546001600160a01b03828116911614155b82906126b9576040516381c4951960e01b815260040161098891815260200190565b505f8281526009602090815260409182902080546001600160a01b0319166001600160a01b03851617905590518381527ff4041a3f914dac3bc9bf5f003ba41f28dbb84abe42f4e07c76266f5c8ceecb69910160405180910390a15050565b612720613901565b60058190556040518181527fba0716ba1ee2ea8ecc4c64119b4537cdb42a99d82acf92af5b87607b8b52355290602001610ab0565b61275d613901565b612710612772610120830161010084016151fb565b61ffff16111561278a610120830161010084016151fb565b906127af576040516301027fc160e21b815261ffff9091166004820152602401610988565b506127106127c5610140830161012084016151fb565b61ffff1611156127dd610140830161012084016151fb565b90612802576040516301027fc160e21b815261ffff9091166004820152602401610988565b50612710612818610160830161014084016151fb565b61ffff161115612830610160830161014084016151fb565b9061285557604051633239953960e01b815261ffff9091166004820152602401610988565b5061271061286b610180830161016084016151fb565b61ffff161115612883610180830161016084016151fb565b906128a857604051633239953960e01b815261ffff9091166004820152602401610988565b506127106128be6101a0830161018084016151fb565b61ffff1611156128d66101a0830161018084016151fb565b906128fb57604051633239953960e01b815261ffff9091166004820152602401610988565b5061290e610140820161012083016151fb565b61ffff16158061293757505f61292b610100830160e08401614683565b6001600160a01b031614155b6129545760405163015f92ff60e51b815260040160405180910390fd5b6129666101e082016101c08301615232565b63ffffffff1661297e6101c083016101a08401615232565b63ffffffff1610156129a3576040516392f55c6560e01b815260040160405180910390fd5b8060186129b08282615271565b9050507fbf3951313e980027eb48ce363fdb707286195ec6a0f802ac153927cf929c3fc681604051610ab0919061542f565b6129ea613901565b6001600160a01b03811615801590612a1057506001546001600160a01b03828116911614155b8190612a30576040516320252f0b60e01b815260040161098891906146c9565b50600180546001600160a01b0319166001600160a01b0383161790556040517fad4055f18cdad6f4bdd71afe3a72cbeee964217943e1bde38f138289e981a9a790610ab09083906146c9565b612a84613901565b612a916020820182615232565b63ffffffff16612aa76040830160208401615232565b63ffffffff1610158015612acc57505f612ac46020830183615232565b63ffffffff16115b612ae957604051634564ab9b60e01b815260040160405180910390fd5b604080516101e0810182526018548152601954602080830191909152601a5492820192909252601b546060820152601c546080820152601d5460a0820152601e5460c0820152601f546001600160a01b03811660e083015261ffff600160a01b82048116610100840152600160b01b82048116610120840152600160c01b82048116610140840152600160d01b82048116610160840152600160e01b90910416610180820152905463ffffffff8082166101a08401819052640100000000909204166101c083015215612c22576101a081015163ffffffff16612bd26040840160208501615232565b63ffffffff161015612bea6040840160208501615232565b826101a001519091612c1f57604051633ccc4c2160e21b815263ffffffff928316600482015291166024820152604401610988565b50505b6101c081015163ffffffff1615612c99576101c081015163ffffffff16612c4c6020840184615232565b63ffffffff161015612c616020840184615232565b826101c001519091612c965760405163156c4e5b60e11b815263ffffffff928316600482015291166024820152604401610988565b50505b8160125f856003811115612caf57612caf614742565b6003811115612cc057612cc0614742565b815260208101919091526040015f20612cda91600261456e565b50826003811115612ced57612ced614742565b7f8b56fae526eee054f0849759a99fc7d4ff3823824ebf097a56f7d78adb6b34fa83604051612d1c9190615539565b60405180910390a2505050565b612d31613901565b6001600160a01b038116612d5a575f604051631e4fbdf760e01b815260040161098891906146c9565b610acc81613a2b565b5f612d6c6144f1565b5f601281612d7d6020870187615171565b6003811115612d8e57612d8e614742565b6003811115612d9f57612d9f614742565b8152602081019190915260409081015f20815180830190925260028282826020028201915f905b82829054906101000a900463ffffffff1663ffffffff1681526020019060040190602082600301049283019260010382029150808411612dc6579050505050505090505f81600160028110612e1d57612e1d615126565b602002015163ffffffff1611845f016020810190612e3b9190615171565b90612e5a5760405163286c068d60e11b8152600401610988919061518a565b50602084013542811015612e8457604051630b99e87960e01b815260040161098891815260200190565b5060408401356020850135811015612eb25760405163174b5a0760e21b815260040161098891815260200190565b506017546016545f9190612eca4260408901356151ce565b612ed49190614e59565b612ede9190614e59565b905060055481108190612f07576040516313b783af60e21b815260040161098891815260200190565b5060075f612f1b6080880160608901614683565b6001600160a01b0316815260208101919091526040015f205460ff16612f476080870160608801614683565b90612f665760405163295a6a6f60e11b815260040161098891906146c9565b505f612f7186611e74565b60068054965090915085905f612f8683615579565b9091555050604080514460208201529081018690525f9060600160408051601f1981840301815291815281516020928301205f898152600c84528281208690556004546011855283822080546001600160a01b03199081166001600160a01b0393841617909155601f805460138852868520805461ffff191661ffff600160b01b909304929092169190911790555460148752858420805483169190931617909155600d8552838220805460ff1916600117905560109094528290208054339416939093179092556016549192506130619190890135614e59565b5f878152600e602090815260409091206001019190915581865261308790880188615171565b8560200190600381111561309d5761309d614742565b908160038111156130b0576130b0614742565b905250436040808701919091528051808201825290602089019060029083908390808284375f9201919091525050506060808701919091526130f89060808901908901614683565b6001600160a01b031660a08087019190915261311990880160808901614a43565b60ff1660c08087019190915261313190880188615591565b8080601f0160208091040260200160405190810160405280939291908181526020018383808284375f9201919091525050505060e08087019190915261317e9061010089019089016155d3565b15156101c08601525f610140860181905261016086018190526040805160208101909152818152610180870152336101a0870152600b816131c560a08b0160808c01614a43565b60ff1660ff1681526020019081526020015f2080546131e390614df2565b80601f016020809104026020016040519081016040528092919081815260200182805461320f90614df2565b801561325a5780601f106132315761010080835404028352916020019161325a565b820191905f5260205f20905b81548152906001019060200180831161323d57829003601f168201915b505050505090505f8151116132815760405162461bcd60e51b81526004016109889061513a565b5f61329260808a0160608b01614683565b6001600160a01b031663fefd9a8b8985856132b060a08f018f615591565b8f8060c001906132c09190615591565b6040518863ffffffff1660e01b81526004016132e297969594939291906155ee565b6020604051808303815f875af11580156132fe573d5f5f3e3d5ffd5b505050506040513d601f19601f820116820180604052508101906133229190614fae565b5f818152600960205260409020549091506001600160a01b0316818161335e576040516381c4951960e01b815260040161098891815260200190565b505f828152600a60205260409020546001600160a01b03168281613398576040516381c4951960e01b815260040161098891815260200190565b50608089018390526001600160a01b038083166101008b015281166101208a01525f8a81526008602090815260409091208a518155908a0151600180830180548d94939260ff1991909116908360038111156133f6576133f6614742565b02179055506040820151816002015560608201518160030190600261341c92919061460f565b506080820151600582015560a082015160068201805460c085015160ff16600160a01b026001600160a81b03199091166001600160a01b039093169290921791909117905560e082015160078201906134759082615642565b506101008201516008820180546001600160a01b039283166001600160a01b031991821617909155610120840151600984018054919093169116179055610140820151600a820155610160820151600b820155610180820151600c8201906134dd9082615642565b506101a0820151600d90910180546101c0909301511515600160a01b026001600160a81b03199093166001600160a01b0392831617929092179091556004546135299116333089614334565b5f5460405163291a691b60e01b81526001600160a01b039091169063291a691b9061355c908d9089908d906004016156f7565b6020604051808303815f875af1158015613578573d5f5f3e3d5ffd5b505050506040513d601f19601f8201168201806040525081019061359c9190615028565b6135b957604051630d8dbe2560e01b815260040160405180910390fd5b6135c960808c0160608d01614683565b6001600160a01b03167f5090c9764b5cd13df7afc0013f733dfbe6eaf1b6ddc22a5e291fa387efd4c15e8b8b604051613603929190614dd2565b60405180910390a2895f5160206159ab5f395f51905f525f600160405161362b929190614e6c565b60405180910390a25050505050505050915091565b5f818152600d602052604081205460ff168181600681111561366457613664614742565b0361368957826001826040516337e1404160e01b815260040161098893929190614e24565b600581600681111561369d5761369d614742565b036136be5760405163462c7bed60e01b815260048101849052602401610988565b60068160068111156136d2576136d2614742565b036136f357604051633de16e3560e11b815260048101849052602401610988565b5f6136fe8483614051565b935090508061372357604051639f65d93560e01b815260048101859052602401610988565b5f848152600d6020526040902080546006919060ff191660018302179055505f848152600f60205260409020805484919060ff1916600183600d81111561376c5761376c614742565b0217905550835f5160206159ab5f395f51905f52836006604051613791929190614e6c565b60405180910390a2837fe20209be7caae6e76291267cfa711353981274bf127e94f16eb9ec44b68582bb83856040516137cb92919061573c565b60405180910390a25050919050565b6137e2613901565b6001600160a01b0381161580159061380757505f546001600160a01b03828116911614155b8190613827576040516375ac4eb760e11b815260040161098891906146c9565b505f80546001600160a01b0319166001600160a01b0383161790556040517f80052b810d39120cf6c976cca504a21703f585521dc7a41c6d241090e6c579b690610ab09083906146c9565b6001600160a01b0381165f90815260076020526040902054819060ff16156138ae5760405163b29d459560e01b815260040161098891906146c9565b506001600160a01b0381165f9081526007602052604090819020805460ff19166001179055517fb8d368517268f297fff00825d67d098763117d061360d31027be5b2e1a59d46790610ab09083906146c9565b3361390a61197a565b6001600160a01b0316146112ff573360405163118cdaa760e01b815260040161098891906146c9565b80356139525760405163055f269d60e01b815260040160405180910390fd5b5f8160200135116139765760405163055f269d60e01b815260040160405180910390fd5b5f81604001351161399a5760405163055f269d60e01b815260040160405180910390fd5b80356015819055602080830135601681905560408085013560178190558151948552928401919091528201527f7e86ba16b805e2835af5c5b7aa5a942ced8bcc1fb95a05fbe42dae3862350a1690606001610ab0565b5f807ff0c57e16840df040f15088dc2f81fe391c3923bec73e23a9662efc9c229c6a005b92915050565b613a22614373565b610acc81614398565b7f9016d09d72d40fdae2fd8ceac6b6234c7706214fd39c1cd1e609a0528c19930080546001600160a01b031981166001600160a01b03848116918217845560405192169182907f8be0079c531659141344cd1fd0a4f28419497f9722a3daafe3b4186f6b6457e0905f90a3505050565b5f805460405162beb08960e51b8152600481018490526001600160a01b03909116906317d61120906024015f60405180830381865afa158015613ae0573d5f5f3e3d5ffd5b505050506040513d5f823e601f3d908101601f19168201604052613b079190810190615813565b5080515f848152600c60209081526040808320805490849055601190925282205493945091926001600160a01b031690829003613ba6576002546040516341489f1560e01b81526001600160a01b03909116906341489f1590613b72908890889086906004016158d8565b5f604051808303815f87803b158015613b89575f5ffd5b505af1158015613b9b573d5f5f3e3d5ffd5b505050505050505050565b825f03613c47575f858152601060205260409020546001600160a01b03168015613bde57613bde6001600160a01b0383168285613ff4565b6002546040516341489f1560e01b81526001600160a01b03909116906341489f1590613c12908990899087906004016158d8565b5f604051808303815f87803b158015613c29575f5ffd5b505af1158015613c3b573d5f5f3e3d5ffd5b50505050505050505050565b5f85815260136020908152604080832054601490925282205461ffff909116906001600160a01b03168115801590613c8757506001600160a01b03811615155b15613cc357612710613c9d61ffff841687615198565b613ca791906151af565b92508215613cc357613cc36001600160a01b0385168285613ff4565b5f613cce84876151ce565b90505f876001600160401b03811115613ce957613ce9614e87565b604051908082528060200260200182016040528015613d12578160200160208202803683370190505b5090505f613d2089846151af565b90505f805b8a811015613d5f5782848281518110613d4057613d40615126565b6020908102919091010152613d558383614e59565b9150600101613d25565b505f613d6b82866151ce565b90508015613da8578084613d8060018e6151ce565b81518110613d9057613d90615126565b60200260200101818151613da49190614e59565b9052505b600154613dc2906001600160a01b038b81169116876143a0565b60015f9054906101000a90046001600160a01b03166001600160a01b031663dd8c818e8a8e876040518463ffffffff1660e01b8152600401613e0693929190615938565b5f604051808303815f87803b158015613e1d575f5ffd5b505af1158015613e2f573d5f5f3e3d5ffd5b5050600154613e4d92506001600160a01b038c81169250165f6143a0565b8c7fac9fe8ad7f55eac03284399116ecafc104f10459773f4cdf47063c46e5be335a8d86604051613e7f92919061596d565b60405180910390a260025f9054906101000a90046001600160a01b03166001600160a01b03166341489f158e8e8c6040518463ffffffff1660e01b8152600401613ecb939291906158d8565b5f604051808303815f87803b158015613ee2575f5ffd5b505af1158015613ef4573d5f5f3e3d5ffd5b5050505050505050505050505050505050565b5f818152600f602052604090205460609060ff16600181600d811115613f2f57613f2f614742565b1480613f4c5750600281600d811115613f4a57613f4a614742565b145b15613f84575f5b604051908082528060200260200182016040528015613f7c578160200160208202803683370190505b509392505050565b5f5460405162beb08960e51b8152600481018590526001600160a01b03909116906317d61120906024015f60405180830381865afa925050508015613fea57506040513d5f823e601f3d908101601f19168201604052613fe79190810190615813565b60015b613f7c575f613f53565b61404c83846001600160a01b031663a9059cbb858560405160240161401a929190615991565b604051602081830303815290604052915060e01b6020820180516001600160e01b03838183161783525050505061442c565b505050565b5f828152600e60209081526040808320815160608101835281548152600182015493810193909352600201548282015282549051632800d82960e01b81526004810186905283929183916001600160a01b0390911690632800d82990602401602060405180830381865afa1580156140cb573d5f5f3e3d5ffd5b505050506040513d601f19601f820116820180604052508101906140ef9190614fae565b9050600185600681111561410557614105614742565b14801561411157508042115b15614124576001809350935050506141d2565b600285600681111561413857614138614742565b1480156141455750815142115b1561415957600160039350935050506141d2565b600385600681111561416d5761416d614742565b14801561417d5750816020015142115b1561419157600160069350935050506141d2565b60048560068111156141a5576141a5614742565b1480156141b55750816040015142115b156141c9576001600a9350935050506141d2565b5f5f9350935050505b9250929050565b5f828152600d602052604081205460ff16908160068111156141fd576141fd614742565b0361422257826001826040516337e1404160e01b815260040161098893929190614e24565b600581600681111561423657614236614742565b036142575760405163462c7bed60e01b815260048101849052602401610988565b600681600681111561426b5761426b614742565b0361428c57604051633de16e3560e11b815260048101849052602401610988565b5f838152600d6020526040902080546006919060ff191660018302179055505f838152600f60205260409020805483919060ff1916600183600d8111156142d5576142d5614742565b0217905550825f5160206159ab5f395f51905f528260066040516142fa929190614e6c565b60405180910390a2827fe20209be7caae6e76291267cfa711353981274bf127e94f16eb9ec44b68582bb8284604051612d1c92919061573c565b6040516001600160a01b03848116602483015283811660448301526064820183905261436d9186918216906323b872dd9060840161401a565b50505050565b61437b61448f565b6112ff57604051631afcd79f60e31b815260040160405180910390fd5b612d31614373565b5f836001600160a01b031663095ea7b384846040516024016143c3929190615991565b604051602081830303815290604052915060e01b6020820180516001600160e01b03838183161783525050505090506143fc84826144a8565b61436d5761442684856001600160a01b031663095ea7b3865f60405160240161401a929190615991565b61436d84825b5f5f60205f8451602086015f885af18061444b576040513d5f823e3d81fd5b50505f513d9150811561446257806001141561446f565b6001600160a01b0384163b155b1561436d5783604051635274afe760e01b815260040161098891906146c9565b5f6144986139f0565b54600160401b900460ff16919050565b5f5f5f5f60205f8651602088015f8a5af192503d91505f5190508280156144e7575081156144d957806001146144e7565b5f866001600160a01b03163b115b9695505050505050565b604080516101e081019091525f808252602082019081526020015f815260200161451961463d565b81525f602082018190526040820181905260608083018290526080830181905260a0830182905260c0830182905260e08301829052610100830182905261012083015261014082018190526101609091015290565b6001830191839082156145ff579160200282015f5b838211156145cd57833563ffffffff1683826101000a81548163ffffffff021916908363ffffffff1602179055509260200192600401602081600301049283019260010302614583565b80156145fd5782816101000a81549063ffffffff02191690556004016020816003010492830192600103026145cd565b505b5061460b92915061465b565b5090565b82600281019282156145ff579160200282015b828111156145ff578251825591602001919060010190614622565b60405180604001604052806002906020820280368337509192915050565b5b8082111561460b575f815560010161465c565b6001600160a01b0381168114610acc575f5ffd5b5f60208284031215614693575f5ffd5b813561469e8161466f565b9392505050565b5f602082840312156146b5575f5ffd5b5035919050565b6001600160a01b03169052565b6001600160a01b0391909116815260200190565b8035600481106146eb575f5ffd5b919050565b5f5f60408385031215614701575f5ffd5b61470a836146dd565b946020939093013593505050565b5f60608284031215610ef1575f5ffd5b5f60608284031215614738575f5ffd5b61469e8383614718565b634e487b7160e01b5f52602160045260245ffd5b600e811061476657614766614742565b9052565b60208101613a148284614756565b6004811061476657614766614742565b5f81518084528060208401602086015e5f602082860101526020601f19601f83011685010191505092915050565b8e81526147c6602082018f614778565b8c60408201528b60608201526147df608082018c6146bc565b60ff8a1660a08201526101c060c08201525f6147ff6101c083018b614788565b61480c60e084018b6146bc565b61481a61010084018a6146bc565b876101208401528661014084015282810361016084015261483b8187614788565b91505061484c6101808301856146bc565b8215156101a08301529f9e505050505050505050505050505050565b805f5b600281101561436d57815184526020938401939091019060010161486b565b805182525f60208201516148a16020850182614778565b506040820151604084015260608201516148be6060850182614868565b50608082015160a084015260a08201516148db60c08501826146bc565b5060c082015160ff811660e08501525060e0820151610200610100850152614907610200850182614788565b905061010083015161491d6101208601826146bc565b506101208301516149326101408601826146bc565b506101408301516101608501526101608301516101808501526101808301518482036101a08601526149648282614788565b9150506101a083015161497b6101c08601826146bc565b506101c08301518015156101e0860152613f7c565b602081525f61469e602083018461488a565b80356146eb8161466f565b5f5f5f5f5f5f5f610120888a0312156149c4575f5ffd5b87356149cf8161466f565b965060208801356149df8161466f565b955060408801356149ef8161466f565b945060608801356149ff8161466f565b93506080880135614a0f8161466f565b925060a08801359150614a258960c08a01614718565b905092959891949750929550565b803560ff811681146146eb575f5ffd5b5f60208284031215614a53575f5ffd5b61469e82614a33565b602081525f61469e6020830184614788565b5f5f60408385031215614a7f575f5ffd5b823591506020830135614a918161466f565b809150509250929050565b5f5f83601f840112614aac575f5ffd5b5081356001600160401b03811115614ac2575f5ffd5b6020830191508360208285010111156141d2575f5ffd5b5f5f5f5f5f60608688031215614aed575f5ffd5b8535945060208601356001600160401b03811115614b09575f5ffd5b614b1588828901614a9c565b90955093505060408601356001600160401b03811115614b33575f5ffd5b614b3f88828901614a9c565b969995985093965092949392505050565b5f5f60408385031215614b61575f5ffd5b50508035926020909101359150565b5f5f5f60408486031215614b82575f5ffd5b614b8b84614a33565b925060208401356001600160401b03811115614ba5575f5ffd5b614bb186828701614a9c565b9497909650939450505050565b81518152602080830151908201526040808301519082015260608101613a14565b82151581526040810161469e6020830184614756565b5f60208284031215614c05575f5ffd5b81356001600160401b03811115614c1a575f5ffd5b8201610100818503121561469e575f5ffd5b5f6101e082019050825182526020830151602083015260408301516040830152606083015160608301526080830151608083015260a083015160a083015260c083015160c083015260e0830151614c8660e08401826146bc565b50610100830151614c9e61010084018261ffff169052565b50610120830151614cb661012084018261ffff169052565b50610140830151614cce61014084018261ffff169052565b50610160830151614ce661016084018261ffff169052565b50610180830151614cfe61018084018261ffff169052565b506101a0830151614d186101a084018263ffffffff169052565b506101c0830151614d326101c084018263ffffffff169052565b5092915050565b5f5f60408385031215614d4a575f5ffd5b82359150614d5a60208401614a33565b90509250929050565b6007811061476657614766614742565b60208101613a148284614d63565b5f6101e0828403128015614d93575f5ffd5b509092915050565b5f5f60608385031215614dac575f5ffd5b614db5836146dd565b915083606084011115614dc6575f5ffd5b50926020919091019150565b828152604060208201525f614dea604083018461488a565b949350505050565b600181811c90821680614e0657607f821691505b602082108103610ef157634e487b7160e01b5f52602260045260245ffd5b83815260608101614e386020830185614d63565b614dea6040830184614d63565b634e487b7160e01b5f52601160045260245ffd5b80820180821115613a1457613a14614e45565b60408101614e7a8285614d63565b61469e6020830184614d63565b634e487b7160e01b5f52604160045260245ffd5b601f82111561404c57805f5260205f20601f840160051c81016020851015614ec05750805b601f840160051c820191505b81811015614edf575f8155600101614ecc565b5050505050565b5f19600383901b1c191660019190911b1790565b6001600160401b03831115614f1157614f11614e87565b614f2583614f1f8354614df2565b83614e9b565b5f601f841160018114614f51575f8515614f3f5750838201355b614f498682614ee6565b845550614edf565b5f83815260208120601f198716915b82811015614f805786850135825560209485019460019092019101614f60565b5086821015614f9c575f1960f88860031b161c19848701351681555b505060018560011b0183555050505050565b5f60208284031215614fbe575f5ffd5b5051919050565b818382375f9101908152919050565b81835281816020850137505f828201602090810191909152601f909101601f19169091010190565b848152836020820152606060408201525f6144e7606083018486614fd4565b8015158114610acc575f5ffd5b5f60208284031215615038575f5ffd5b815161469e8161501b565b602081525f614dea602083018486614fd4565b604081525f615069604083018688614fd4565b828103602084015261507c818587614fd4565b979650505050505050565b60ff84168152604060208201525f6150a3604083018486614fd4565b95945050505050565b5f8151808452602084019350602083015f5b828110156150e55781516001600160a01b03168652602095860195909101906001016150be565b5093949350505050565b848152836020820152608060408201525f61510d60808301856150ac565b905060018060a01b038316606083015295945050505050565b634e487b7160e01b5f52603260045260245ffd5b6020808252601c908201527f42465620706172616d20736574206e6f74207265676973746572656400000000604082015260600190565b5f60208284031215615181575f5ffd5b61469e826146dd565b60208101613a148284614778565b8082028115828204841417613a1457613a14614e45565b5f826151c957634e487b7160e01b5f52601260045260245ffd5b500490565b81810381811115613a1457613a14614e45565b61ffff81168114610acc575f5ffd5b80356146eb816151e1565b5f6020828403121561520b575f5ffd5b813561469e816151e1565b63ffffffff81168114610acc575f5ffd5b80356146eb81615216565b5f60208284031215615242575f5ffd5b813561469e81615216565b5f8135613a148161466f565b5f8135613a14816151e1565b5f8135613a1481615216565b813581556020820135600182015560408201356002820155606082013560038201556080820135600482015560a0820135600582015560c08201356006820155600781016152e16152c460e0850161524d565b82546001600160a01b0319166001600160a01b0391909116178255565b6153116152f16101008501615259565b82805461ffff60a01b191660a09290921b61ffff60a01b16919091179055565b6153416153216101208501615259565b82805461ffff60b01b191660b09290921b61ffff60b01b16919091179055565b6153716153516101408501615259565b82805461ffff60c01b191660c09290921b61ffff60c01b16919091179055565b6153a16153816101608501615259565b82805461ffff60d01b191660d09290921b61ffff60d01b16919091179055565b6153d16153b16101808501615259565b82805461ffff60e01b191660e09290921b61ffff60e01b16919091179055565b50600881016153fd6153e66101a08501615265565b825463ffffffff191663ffffffff91909116178255565b61404c61540d6101c08501615265565b825467ffffffff00000000191660209190911b67ffffffff0000000016178255565b813581526020808301359082015260408083013590820152606080830135908201526080808301359082015260a0808301359082015260c080830135908201526101e0810161548060e084016149a2565b61548d60e08401826146bc565b5061549b61010084016151f0565b61ffff166101008301526154b261012084016151f0565b61ffff166101208301526154c961014084016151f0565b61ffff166101408301526154e061016084016151f0565b61ffff166101608301526154f761018084016151f0565b61ffff1661018083015261550e6101a08401615227565b63ffffffff166101a08301526155276101c08401615227565b63ffffffff81166101c0840152614d32565b6040810181835f5b600281101561557057813561555581615216565b63ffffffff1683526020928301929190910190600101615541565b50505092915050565b5f6001820161558a5761558a614e45565b5060010190565b5f5f8335601e198436030181126155a6575f5ffd5b8301803591506001600160401b038211156155bf575f5ffd5b6020019150368190038213156141d2575f5ffd5b5f602082840312156155e3575f5ffd5b813561469e8161501b565b87815286602082015260a060408201525f61560c60a0830188614788565b828103606084015261561f818789614fd4565b90508281036080840152615634818587614fd4565b9a9950505050505050505050565b81516001600160401b0381111561565b5761565b614e87565b61566f816156698454614df2565b84614e9b565b6020601f82116001811461569c575f831561568a5750848201515b6156948482614ee6565b855550614edf565b5f84815260208120601f198516915b828110156156cb57878501518255602094850194600190920191016156ab565b50848210156156e857868401515f19600387901b60f8161c191681555b50505050600190811b01905550565b838152602081018390526080810160408201835f5b600281101561573157815163ffffffff1683526020928301929091019060010161570c565b505050949350505050565b6040810161574a8285614d63565b61469e6020830184614756565b604051601f8201601f191681016001600160401b038111828210171561577f5761577f614e87565b604052919050565b5f6001600160401b0382111561579f5761579f614e87565b5060051b60200190565b5f82601f8301126157b8575f5ffd5b81516157cb6157c682615787565b615757565b8082825260208201915060208360051b8601019250858311156157ec575f5ffd5b602085015b838110156158095780518352602092830192016157f1565b5095945050505050565b5f5f60408385031215615824575f5ffd5b82516001600160401b03811115615839575f5ffd5b8301601f81018513615849575f5ffd5b80516158576157c682615787565b8082825260208201915060208360051b850101925087831115615878575f5ffd5b6020840193505b828410156158a35783516158928161466f565b82526020938401939091019061587f565b8095505050505060208301516001600160401b038111156158c2575f5ffd5b6158ce858286016157a9565b9150509250929050565b838152606060208201525f6158f060608301856150ac565b905060018060a01b0383166040830152949350505050565b5f8151808452602084019350602083015f5b828110156150e557815186526020958601959091019060010161591a565b6001600160a01b03841681526060602082018190525f9061595b908301856150ac565b82810360408401526144e78185615908565b604081525f61597f60408301856150ac565b82810360208401526150a38185615908565b6001600160a01b0392909216825260208201526040019056fe1b418a230a21d37a078bf8f16decbde8ccceacd77159371f62f0d4ea00d19967a164736f6c634300081c000a",
  "linkReferences": {},
  "deployedLinkReferences": {},
  "immutableReferences": {},
  "inputSourceName": "project/contracts/Enclave.sol",
  "buildInfoId": "solc-0_8_28-ce9a7610acb826f83b656ea800eb1bae5dae3ce6"
}