{
  "_format": "hh3-artifact-1",
  "contractName": "Enclave",
  "sourceName": "contracts/Enclave.sol",
  "abi": [
    {
      "inputs": [],
      "stateMutability": "nonpayable",
      "type": "constructor"
    },
    {
      "inputs": [
        {
          "internalType": "uint256",
          "name": "size",
          "type": "uint256"
        },
        {
          "internalType": "uint256",
          "name": "minimum",
          "type": "uint256"
        }
      ],
      "name": "BelowMinCommitteeSize",
      "type": "error"
    },
    {
      "inputs": [
        {
          "internalType": "uint256",
          "name": "threshold",
          "type": "uint256"
        },
        {
          "internalType": "uint256",
          "name": "minimum",
          "type": "uint256"
        }
      ],
      "name": "BelowMinThreshold",
      "type": "error"
    },
    {
      "inputs": [
        {
          "internalType": "uint256",
          "name": "value",
          "type": "uint256"
        }
      ],
      "name": "BpsExceedsMax",
      "type": "error"
    },
    {
      "inputs": [
        {
          "internalType": "uint256",
          "name": "e3Id",
          "type": "uint256"
        }
      ],
      "name": "CiphertextOutputAlreadyPublished",
      "type": "error"
    },
    {
      "inputs": [
        {
          "internalType": "uint256",
          "name": "e3Id",
          "type": "uint256"
        }
      ],
      "name": "CiphertextOutputNotPublished",
      "type": "error"
    },
    {
      "inputs": [
        {
          "internalType": "uint256",
          "name": "e3Id",
          "type": "uint256"
        },
        {
          "internalType": "uint256",
          "name": "expiration",
          "type": "uint256"
        }
      ],
      "name": "CommitteeDutiesCompleted",
      "type": "error"
    },
    {
      "inputs": [],
      "name": "CommitteeSelectionFailed",
      "type": "error"
    },
    {
      "inputs": [
        {
          "internalType": "enum IEnclave.CommitteeSize",
          "name": "committeeSize",
          "type": "uint8"
        }
      ],
      "name": "CommitteeSizeNotConfigured",
      "type": "error"
    },
    {
      "inputs": [
        {
          "internalType": "enum IEnclave.CommitteeSize",
          "name": "committeeSize",
          "type": "uint8"
        }
      ],
      "name": "CommitteeSizeTooSmall",
      "type": "error"
    },
    {
      "inputs": [
        {
          "internalType": "uint256",
          "name": "e3Id",
          "type": "uint256"
        }
      ],
      "name": "E3AlreadyComplete",
      "type": "error"
    },
    {
      "inputs": [
        {
          "internalType": "uint256",
          "name": "e3Id",
          "type": "uint256"
        }
      ],
      "name": "E3AlreadyFailed",
      "type": "error"
    },
    {
      "inputs": [
        {
          "internalType": "uint256",
          "name": "e3Id",
          "type": "uint256"
        }
      ],
      "name": "E3DoesNotExist",
      "type": "error"
    },
    {
      "inputs": [
        {
          "internalType": "uint256",
          "name": "e3Id",
          "type": "uint256"
        }
      ],
      "name": "E3NotFailed",
      "type": "error"
    },
    {
      "inputs": [
        {
          "internalType": "contract IE3Program",
          "name": "e3Program",
          "type": "address"
        }
      ],
      "name": "E3ProgramNotAllowed",
      "type": "error"
    },
    {
      "inputs": [
        {
          "internalType": "uint256",
          "name": "e3Id",
          "type": "uint256"
        }
      ],
      "name": "FailureConditionNotMet",
      "type": "error"
    },
    {
      "inputs": [
        {
          "internalType": "contract IERC20",
          "name": "token",
          "type": "address"
        }
      ],
      "name": "FeeTokenNotAllowed",
      "type": "error"
    },
    {
      "inputs": [
        {
          "internalType": "uint256",
          "name": "e3Id",
          "type": "uint256"
        },
        {
          "internalType": "uint256",
          "name": "inputDeadline",
          "type": "uint256"
        }
      ],
      "name": "InputDeadlineNotReached",
      "type": "error"
    },
    {
      "inputs": [
        {
          "internalType": "contract IBondingRegistry",
          "name": "bondingRegistry",
          "type": "address"
        }
      ],
      "name": "InvalidBondingRegistry",
      "type": "error"
    },
    {
      "inputs": [
        {
          "internalType": "contract ICiphernodeRegistry",
          "name": "ciphernodeRegistry",
          "type": "address"
        }
      ],
      "name": "InvalidCiphernodeRegistry",
      "type": "error"
    },
    {
      "inputs": [
        {
          "internalType": "uint256",
          "name": "duration",
          "type": "uint256"
        }
      ],
      "name": "InvalidDuration",
      "type": "error"
    },
    {
      "inputs": [
        {
          "internalType": "bytes32",
          "name": "encryptionSchemeId",
          "type": "bytes32"
        }
      ],
      "name": "InvalidEncryptionScheme",
      "type": "error"
    },
    {
      "inputs": [
        {
          "internalType": "contract IERC20",
          "name": "feeToken",
          "type": "address"
        }
      ],
      "name": "InvalidFeeToken",
      "type": "error"
    },
    {
      "inputs": [],
      "name": "InvalidInitialization",
      "type": "error"
    },
    {
      "inputs": [
        {
          "internalType": "uint256",
          "name": "deadline",
          "type": "uint256"
        }
      ],
      "name": "InvalidInputDeadline",
      "type": "error"
    },
    {
      "inputs": [
        {
          "internalType": "uint256",
          "name": "end",
          "type": "uint256"
        }
      ],
      "name": "InvalidInputDeadlineEnd",
      "type": "error"
    },
    {
      "inputs": [
        {
          "internalType": "uint256",
          "name": "start",
          "type": "uint256"
        }
      ],
      "name": "InvalidInputDeadlineStart",
      "type": "error"
    },
    {
      "inputs": [
        {
          "internalType": "bytes",
          "name": "output",
          "type": "bytes"
        }
      ],
      "name": "InvalidOutput",
      "type": "error"
    },
    {
      "inputs": [
        {
          "internalType": "uint256",
          "name": "e3Id",
          "type": "uint256"
        },
        {
          "internalType": "enum IEnclave.E3Stage",
          "name": "expected",
          "type": "uint8"
        },
        {
          "internalType": "enum IEnclave.E3Stage",
          "name": "actual",
          "type": "uint8"
        }
      ],
      "name": "InvalidStage",
      "type": "error"
    },
    {
      "inputs": [],
      "name": "InvalidThresholdValues",
      "type": "error"
    },
    {
      "inputs": [],
      "name": "InvalidTimeoutWindow",
      "type": "error"
    },
    {
      "inputs": [
        {
          "internalType": "uint256",
          "name": "e3Id",
          "type": "uint256"
        },
        {
          "internalType": "uint256",
          "name": "gracePeriodEnds",
          "type": "uint256"
        }
      ],
      "name": "MarkE3FailedInGracePeriod",
      "type": "error"
    },
    {
      "inputs": [
        {
          "internalType": "uint256",
          "name": "quoted",
          "type": "uint256"
        },
        {
          "internalType": "uint256",
          "name": "maxFee",
          "type": "uint256"
        }
      ],
      "name": "MaxFeeExceeded",
      "type": "error"
    },
    {
      "inputs": [],
      "name": "MinSizeBelowMinThreshold",
      "type": "error"
    },
    {
      "inputs": [
        {
          "internalType": "address",
          "name": "module",
          "type": "address"
        }
      ],
      "name": "ModuleAlreadyEnabled",
      "type": "error"
    },
    {
      "inputs": [
        {
          "internalType": "address",
          "name": "module",
          "type": "address"
        }
      ],
      "name": "ModuleNotEnabled",
      "type": "error"
    },
    {
      "inputs": [
        {
          "internalType": "uint256",
          "name": "e3Id",
          "type": "uint256"
        }
      ],
      "name": "NoPaymentToRefund",
      "type": "error"
    },
    {
      "inputs": [],
      "name": "NotInitializing",
      "type": "error"
    },
    {
      "inputs": [],
      "name": "NothingToClaim",
      "type": "error"
    },
    {
      "inputs": [],
      "name": "OnlyCiphernodeRegistry",
      "type": "error"
    },
    {
      "inputs": [],
      "name": "OnlyCiphernodeRegistryOrSlashingManager",
      "type": "error"
    },
    {
      "inputs": [],
      "name": "OnlySlashingManager",
      "type": "error"
    },
    {
      "inputs": [
        {
          "internalType": "address",
          "name": "owner",
          "type": "address"
        }
      ],
      "name": "OwnableInvalidOwner",
      "type": "error"
    },
    {
      "inputs": [
        {
          "internalType": "address",
          "name": "account",
          "type": "address"
        }
      ],
      "name": "OwnableUnauthorizedAccount",
      "type": "error"
    },
    {
      "inputs": [
        {
          "internalType": "uint256",
          "name": "value",
          "type": "uint256"
        }
      ],
      "name": "PaymentRequired",
      "type": "error"
    },
    {
      "inputs": [
        {
          "internalType": "uint256",
          "name": "e3Id",
          "type": "uint256"
        }
      ],
      "name": "PlaintextOutputAlreadyPublished",
      "type": "error"
    },
    {
      "inputs": [],
      "name": "ProofRequired",
      "type": "error"
    },
    {
      "inputs": [],
      "name": "ReentrancyGuardReentrantCall",
      "type": "error"
    },
    {
      "inputs": [],
      "name": "RenounceOwnershipDisabled",
      "type": "error"
    },
    {
      "inputs": [
        {
          "internalType": "address",
          "name": "token",
          "type": "address"
        }
      ],
      "name": "SafeERC20FailedOperation",
      "type": "error"
    },
    {
      "inputs": [
        {
          "internalType": "uint256",
          "name": "threshold",
          "type": "uint256"
        }
      ],
      "name": "ThresholdTooSmall",
      "type": "error"
    },
    {
      "inputs": [],
      "name": "TreasuryRequired",
      "type": "error"
    },
    {
      "inputs": [
        {
          "internalType": "uint256",
          "name": "value",
          "type": "uint256"
        }
      ],
      "name": "UtilizationBpsExceedsMax",
      "type": "error"
    },
    {
      "anonymous": false,
      "inputs": [
        {
          "indexed": false,
          "internalType": "address",
          "name": "bondingRegistry",
          "type": "address"
        }
      ],
      "name": "BondingRegistrySet",
      "type": "event"
    },
    {
      "anonymous": false,
      "inputs": [
        {
          "indexed": false,
          "internalType": "address",
          "name": "ciphernodeRegistry",
          "type": "address"
        }
      ],
      "name": "CiphernodeRegistrySet",
      "type": "event"
    },
    {
      "anonymous": false,
      "inputs": [
        {
          "indexed": true,
          "internalType": "uint256",
          "name": "e3Id",
          "type": "uint256"
        },
        {
          "indexed": false,
          "internalType": "bytes",
          "name": "ciphertextOutput",
          "type": "bytes"
        }
      ],
      "name": "CiphertextOutputPublished",
      "type": "event"
    },
    {
      "anonymous": false,
      "inputs": [
        {
          "indexed": true,
          "internalType": "uint256",
          "name": "e3Id",
          "type": "uint256"
        }
      ],
      "name": "CommitteeFinalized",
      "type": "event"
    },
    {
      "anonymous": false,
      "inputs": [
        {
          "indexed": true,
          "internalType": "uint256",
          "name": "e3Id",
          "type": "uint256"
        }
      ],
      "name": "CommitteeFormed",
      "type": "event"
    },
    {
      "anonymous": false,
      "inputs": [
        {
          "indexed": true,
          "internalType": "enum IEnclave.CommitteeSize",
          "name": "size",
          "type": "uint8"
        },
        {
          "indexed": false,
          "internalType": "uint32[2]",
          "name": "threshold",
          "type": "uint32[2]"
        }
      ],
      "name": "CommitteeThresholdsUpdated",
      "type": "event"
    },
    {
      "anonymous": false,
      "inputs": [
        {
          "indexed": true,
          "internalType": "uint256",
          "name": "e3Id",
          "type": "uint256"
        },
        {
          "indexed": false,
          "internalType": "enum IEnclave.E3Stage",
          "name": "failedAtStage",
          "type": "uint8"
        },
        {
          "indexed": false,
          "internalType": "enum IEnclave.FailureReason",
          "name": "reason",
          "type": "uint8"
        }
      ],
      "name": "E3Failed",
      "type": "event"
    },
    {
      "anonymous": false,
      "inputs": [
        {
          "indexed": true,
          "internalType": "uint256",
          "name": "e3Id",
          "type": "uint256"
        },
        {
          "indexed": false,
          "internalType": "uint256",
          "name": "paymentAmount",
          "type": "uint256"
        },
        {
          "indexed": false,
          "internalType": "uint256",
          "name": "honestNodeCount",
          "type": "uint256"
        }
      ],
      "name": "E3FailureProcessed",
      "type": "event"
    },
    {
      "anonymous": false,
      "inputs": [
        {
          "indexed": false,
          "internalType": "contract IE3Program",
          "name": "e3Program",
          "type": "address"
        }
      ],
      "name": "E3ProgramDisabled",
      "type": "event"
    },
    {
      "anonymous": false,
      "inputs": [
        {
          "indexed": false,
          "internalType": "contract IE3Program",
          "name": "e3Program",
          "type": "address"
        }
      ],
      "name": "E3ProgramEnabled",
      "type": "event"
    },
    {
      "anonymous": false,
      "inputs": [
        {
          "indexed": true,
          "internalType": "address",
          "name": "e3RefundManager",
          "type": "address"
        }
      ],
      "name": "E3RefundManagerSet",
      "type": "event"
    },
    {
      "anonymous": false,
      "inputs": [
        {
          "indexed": false,
          "internalType": "uint256",
          "name": "e3Id",
          "type": "uint256"
        },
        {
          "components": [
            {
              "internalType": "uint256",
              "name": "seed",
              "type": "uint256"
            },
            {
              "internalType": "enum IEnclave.CommitteeSize",
              "name": "committeeSize",
              "type": "uint8"
            },
            {
              "internalType": "uint256",
              "name": "requestBlock",
              "type": "uint256"
            },
            {
              "internalType": "uint256[2]",
              "name": "inputWindow",
              "type": "uint256[2]"
            },
            {
              "internalType": "bytes32",
              "name": "encryptionSchemeId",
              "type": "bytes32"
            },
            {
              "internalType": "contract IE3Program",
              "name": "e3Program",
              "type": "address"
            },
            {
              "internalType": "uint8",
              "name": "paramSet",
              "type": "uint8"
            },
            {
              "internalType": "bytes",
              "name": "customParams",
              "type": "bytes"
            },
            {
              "internalType": "contract IDecryptionVerifier",
              "name": "decryptionVerifier",
              "type": "address"
            },
            {
              "internalType": "contract IPkVerifier",
              "name": "pkVerifier",
              "type": "address"
            },
            {
              "internalType": "bytes32",
              "name": "committeePublicKey",
              "type": "bytes32"
            },
            {
              "internalType": "bytes32",
              "name": "ciphertextOutput",
              "type": "bytes32"
            },
            {
              "internalType": "bytes",
              "name": "plaintextOutput",
              "type": "bytes"
            },
            {
              "internalType": "address",
              "name": "requester",
              "type": "address"
            },
            {
              "internalType": "bool",
              "name": "proofAggregationEnabled",
              "type": "bool"
            }
          ],
          "indexed": false,
          "internalType": "struct E3",
          "name": "e3",
          "type": "tuple"
        },
        {
          "indexed": true,
          "internalType": "contract IE3Program",
          "name": "e3Program",
          "type": "address"
        }
      ],
      "name": "E3Requested",
      "type": "event"
    },
    {
      "anonymous": false,
      "inputs": [
        {
          "indexed": true,
          "internalType": "uint256",
          "name": "e3Id",
          "type": "uint256"
        },
        {
          "indexed": false,
          "internalType": "enum IEnclave.E3Stage",
          "name": "previousStage",
          "type": "uint8"
        },
        {
          "indexed": false,
          "internalType": "enum IEnclave.E3Stage",
          "name": "newStage",
          "type": "uint8"
        }
      ],
      "name": "E3StageChanged",
      "type": "event"
    },
    {
      "anonymous": false,
      "inputs": [
        {
          "indexed": false,
          "internalType": "bytes32",
          "name": "encryptionSchemeId",
          "type": "bytes32"
        }
      ],
      "name": "EncryptionSchemeDisabled",
      "type": "event"
    },
    {
      "anonymous": false,
      "inputs": [
        {
          "indexed": false,
          "internalType": "bytes32",
          "name": "encryptionSchemeId",
          "type": "bytes32"
        }
      ],
      "name": "EncryptionSchemeEnabled",
      "type": "event"
    },
    {
      "anonymous": false,
      "inputs": [
        {
          "indexed": true,
          "internalType": "contract IERC20",
          "name": "token",
          "type": "address"
        },
        {
          "indexed": false,
          "internalType": "bool",
          "name": "allowed",
          "type": "bool"
        }
      ],
      "name": "FeeTokenAllowed",
      "type": "event"
    },
    {
      "anonymous": false,
      "inputs": [
        {
          "indexed": false,
          "internalType": "address",
          "name": "feeToken",
          "type": "address"
        }
      ],
      "name": "FeeTokenSet",
      "type": "event"
    },
    {
      "anonymous": false,
      "inputs": [
        {
          "indexed": false,
          "internalType": "uint64",
          "name": "version",
          "type": "uint64"
        }
      ],
      "name": "Initialized",
      "type": "event"
    },
    {
      "anonymous": false,
      "inputs": [
        {
          "indexed": true,
          "internalType": "uint256",
          "name": "e3Id",
          "type": "uint256"
        },
        {
          "indexed": false,
          "internalType": "bytes",
          "name": "data",
          "type": "bytes"
        },
        {
          "indexed": false,
          "internalType": "uint256",
          "name": "inputHash",
          "type": "uint256"
        },
        {
          "indexed": false,
          "internalType": "uint256",
          "name": "index",
          "type": "uint256"
        }
      ],
      "name": "InputPublished",
      "type": "event"
    },
    {
      "anonymous": false,
      "inputs": [
        {
          "indexed": false,
          "internalType": "uint256",
          "name": "gracePeriod",
          "type": "uint256"
        }
      ],
      "name": "MarkFailedGracePeriodSet",
      "type": "event"
    },
    {
      "anonymous": false,
      "inputs": [
        {
          "indexed": false,
          "internalType": "uint256",
          "name": "maxDuration",
          "type": "uint256"
        }
      ],
      "name": "MaxDurationSet",
      "type": "event"
    },
    {
      "anonymous": false,
      "inputs": [
        {
          "indexed": true,
          "internalType": "address",
          "name": "previousOwner",
          "type": "address"
        },
        {
          "indexed": true,
          "internalType": "address",
          "name": "newOwner",
          "type": "address"
        }
      ],
      "name": "OwnershipTransferStarted",
      "type": "event"
    },
    {
      "anonymous": false,
      "inputs": [
        {
          "indexed": true,
          "internalType": "address",
          "name": "previousOwner",
          "type": "address"
        },
        {
          "indexed": true,
          "internalType": "address",
          "name": "newOwner",
          "type": "address"
        }
      ],
      "name": "OwnershipTransferred",
      "type": "event"
    },
    {
      "anonymous": false,
      "inputs": [
        {
          "indexed": false,
          "internalType": "uint8",
          "name": "paramSet",
          "type": "uint8"
        },
        {
          "indexed": false,
          "internalType": "bytes",
          "name": "encodedParams",
          "type": "bytes"
        }
      ],
      "name": "ParamSetRegistered",
      "type": "event"
    },
    {
      "anonymous": false,
      "inputs": [
        {
          "indexed": false,
          "internalType": "uint8",
          "name": "paramSet",
          "type": "uint8"
        },
        {
          "indexed": false,
          "internalType": "bytes",
          "name": "previousEncodedParams",
          "type": "bytes"
        },
        {
          "indexed": false,
          "internalType": "bytes",
          "name": "newEncodedParams",
          "type": "bytes"
        }
      ],
      "name": "ParamSetUpdated",
      "type": "event"
    },
    {
      "anonymous": false,
      "inputs": [
        {
          "indexed": true,
          "internalType": "bytes32",
          "name": "encryptionSchemeId",
          "type": "bytes32"
        },
        {
          "indexed": true,
          "internalType": "contract IPkVerifier",
          "name": "pkVerifier",
          "type": "address"
        }
      ],
      "name": "PkVerifierSet",
      "type": "event"
    },
    {
      "anonymous": false,
      "inputs": [
        {
          "indexed": true,
          "internalType": "uint256",
          "name": "e3Id",
          "type": "uint256"
        },
        {
          "indexed": false,
          "internalType": "bytes",
          "name": "plaintextOutput",
          "type": "bytes"
        },
        {
          "indexed": false,
          "internalType": "bytes",
          "name": "proof",
          "type": "bytes"
        }
      ],
      "name": "PlaintextOutputPublished",
      "type": "event"
    },
    {
      "anonymous": false,
      "inputs": [
        {
          "components": [
            {
              "internalType": "uint256",
              "name": "keyGenFixedPerNode",
              "type": "uint256"
            },
            {
              "internalType": "uint256",
              "name": "keyGenPerEncryptionProof",
              "type": "uint256"
            },
            {
              "internalType": "uint256",
              "name": "coordinationPerPair",
              "type": "uint256"
            },
            {
              "internalType": "uint256",
              "name": "availabilityPerNodePerSec",
              "type": "uint256"
            },
            {
              "internalType": "uint256",
              "name": "decryptionPerNode",
              "type": "uint256"
            },
            {
              "internalType": "uint256",
              "name": "publicationBase",
              "type": "uint256"
            },
            {
              "internalType": "uint256",
              "name": "verificationPerProof",
              "type": "uint256"
            },
            {
              "internalType": "address",
              "name": "protocolTreasury",
              "type": "address"
            },
            {
              "internalType": "uint16",
              "name": "marginBps",
              "type": "uint16"
            },
            {
              "internalType": "uint16",
              "name": "protocolShareBps",
              "type": "uint16"
            },
            {
              "internalType": "uint16",
              "name": "dkgUtilizationBps",
              "type": "uint16"
            },
            {
              "internalType": "uint16",
              "name": "computeUtilizationBps",
              "type": "uint16"
            },
            {
              "internalType": "uint16",
              "name": "decryptUtilizationBps",
              "type": "uint16"
            },
            {
              "internalType": "uint32",
              "name": "minCommitteeSize",
              "type": "uint32"
            },
            {
              "internalType": "uint32",
              "name": "minThreshold",
              "type": "uint32"
            }
          ],
          "indexed": false,
          "internalType": "struct IEnclave.PricingConfig",
          "name": "config",
          "type": "tuple"
        }
      ],
      "name": "PricingConfigUpdated",
      "type": "event"
    },
    {
      "anonymous": false,
      "inputs": [
        {
          "indexed": true,
          "internalType": "uint256",
          "name": "e3Id",
          "type": "uint256"
        },
        {
          "indexed": true,
          "internalType": "address",
          "name": "account",
          "type": "address"
        },
        {
          "indexed": true,
          "internalType": "contract IERC20",
          "name": "token",
          "type": "address"
        },
        {
          "indexed": false,
          "internalType": "uint256",
          "name": "amount",
          "type": "uint256"
        }
      ],
      "name": "RewardClaimed",
      "type": "event"
    },
    {
      "anonymous": false,
      "inputs": [
        {
          "indexed": true,
          "internalType": "uint256",
          "name": "e3Id",
          "type": "uint256"
        },
        {
          "indexed": true,
          "internalType": "address",
          "name": "account",
          "type": "address"
        },
        {
          "indexed": true,
          "internalType": "contract IERC20",
          "name": "token",
          "type": "address"
        },
        {
          "indexed": false,
          "internalType": "uint256",
          "name": "amount",
          "type": "uint256"
        }
      ],
      "name": "RewardCredited",
      "type": "event"
    },
    {
      "anonymous": false,
      "inputs": [
        {
          "indexed": true,
          "internalType": "uint256",
          "name": "e3Id",
          "type": "uint256"
        },
        {
          "indexed": false,
          "internalType": "address[]",
          "name": "nodes",
          "type": "address[]"
        },
        {
          "indexed": false,
          "internalType": "uint256[]",
          "name": "amounts",
          "type": "uint256[]"
        }
      ],
      "name": "RewardsDistributed",
      "type": "event"
    },
    {
      "anonymous": false,
      "inputs": [
        {
          "indexed": true,
          "internalType": "uint256",
          "name": "e3Id",
          "type": "uint256"
        },
        {
          "indexed": false,
          "internalType": "uint256",
          "name": "amount",
          "type": "uint256"
        }
      ],
      "name": "SlashedFundsEscrowed",
      "type": "event"
    },
    {
      "anonymous": false,
      "inputs": [
        {
          "indexed": true,
          "internalType": "address",
          "name": "slashingManager",
          "type": "address"
        }
      ],
      "name": "SlashingManagerSet",
      "type": "event"
    },
    {
      "anonymous": false,
      "inputs": [
        {
          "components": [
            {
              "internalType": "uint256",
              "name": "dkgWindow",
              "type": "uint256"
            },
            {
              "internalType": "uint256",
              "name": "computeWindow",
              "type": "uint256"
            },
            {
              "internalType": "uint256",
              "name": "decryptionWindow",
              "type": "uint256"
            }
          ],
          "indexed": false,
          "internalType": "struct IEnclave.E3TimeoutConfig",
          "name": "config",
          "type": "tuple"
        }
      ],
      "name": "TimeoutConfigUpdated",
      "type": "event"
    },
    {
      "anonymous": false,
      "inputs": [
        {
          "indexed": true,
          "internalType": "address",
          "name": "treasury",
          "type": "address"
        },
        {
          "indexed": true,
          "internalType": "contract IERC20",
          "name": "token",
          "type": "address"
        },
        {
          "indexed": false,
          "internalType": "uint256",
          "name": "amount",
          "type": "uint256"
        }
      ],
      "name": "TreasuryClaimed",
      "type": "event"
    },
    {
      "anonymous": false,
      "inputs": [
        {
          "indexed": true,
          "internalType": "uint256",
          "name": "e3Id",
          "type": "uint256"
        },
        {
          "indexed": true,
          "internalType": "address",
          "name": "treasury",
          "type": "address"
        },
        {
          "indexed": true,
          "internalType": "contract IERC20",
          "name": "token",
          "type": "address"
        },
        {
          "indexed": false,
          "internalType": "uint256",
          "name": "amount",
          "type": "uint256"
        }
      ],
      "name": "TreasuryCredited",
      "type": "event"
    },
    {
      "inputs": [],
      "name": "MAX_COMMITTEE_SIZE",
      "outputs": [
        {
          "internalType": "uint32",
          "name": "",
          "type": "uint32"
        }
      ],
      "stateMutability": "view",
      "type": "function"
    },
    {
      "inputs": [],
      "name": "MAX_DURATION_CAP",
      "outputs": [
        {
          "internalType": "uint256",
          "name": "",
          "type": "uint256"
        }
      ],
      "stateMutability": "view",
      "type": "function"
    },
    {
      "inputs": [],
      "name": "MAX_MARGIN_BPS",
      "outputs": [
        {
          "internalType": "uint16",
          "name": "",
          "type": "uint16"
        }
      ],
      "stateMutability": "view",
      "type": "function"
    },
    {
      "inputs": [],
      "name": "MAX_PROTOCOL_SHARE_BPS",
      "outputs": [
        {
          "internalType": "uint16",
          "name": "",
          "type": "uint16"
        }
      ],
      "stateMutability": "view",
      "type": "function"
    },
    {
      "inputs": [],
      "name": "MAX_TIMEOUT_WINDOW",
      "outputs": [
        {
          "internalType": "uint256",
          "name": "",
          "type": "uint256"
        }
      ],
      "stateMutability": "view",
      "type": "function"
    },
    {
      "inputs": [],
      "name": "acceptOwnership",
      "outputs": [],
      "stateMutability": "nonpayable",
      "type": "function"
    },
    {
      "inputs": [],
      "name": "bondingRegistry",
      "outputs": [
        {
          "internalType": "contract IBondingRegistry",
          "name": "",
          "type": "address"
        }
      ],
      "stateMutability": "view",
      "type": "function"
    },
    {
      "inputs": [
        {
          "internalType": "uint256",
          "name": "e3Id",
          "type": "uint256"
        }
      ],
      "name": "checkFailureCondition",
      "outputs": [
        {
          "internalType": "bool",
          "name": "canFail",
          "type": "bool"
        },
        {
          "internalType": "enum IEnclave.FailureReason",
          "name": "reason",
          "type": "uint8"
        }
      ],
      "stateMutability": "view",
      "type": "function"
    },
    {
      "inputs": [],
      "name": "ciphernodeRegistry",
      "outputs": [
        {
          "internalType": "contract ICiphernodeRegistry",
          "name": "",
          "type": "address"
        }
      ],
      "stateMutability": "view",
      "type": "function"
    },
    {
      "inputs": [
        {
          "internalType": "uint256",
          "name": "e3Id",
          "type": "uint256"
        }
      ],
      "name": "claimReward",
      "outputs": [
        {
          "internalType": "uint256",
          "name": "amount",
          "type": "uint256"
        }
      ],
      "stateMutability": "nonpayable",
      "type": "function"
    },
    {
      "inputs": [
        {
          "internalType": "uint256[]",
          "name": "e3Ids",
          "type": "uint256[]"
        }
      ],
      "name": "claimRewards",
      "outputs": [
        {
          "internalType": "uint256",
          "name": "totalClaimed",
          "type": "uint256"
        }
      ],
      "stateMutability": "nonpayable",
      "type": "function"
    },
    {
      "inputs": [
        {
          "internalType": "enum IEnclave.CommitteeSize",
          "name": "",
          "type": "uint8"
        },
        {
          "internalType": "uint256",
          "name": "",
          "type": "uint256"
        }
      ],
      "name": "committeeThresholds",
      "outputs": [
        {
          "internalType": "uint32",
          "name": "threshold",
          "type": "uint32"
        }
      ],
      "stateMutability": "view",
      "type": "function"
    },
    {
      "inputs": [
        {
          "internalType": "bytes32",
          "name": "encryptionSchemeId",
          "type": "bytes32"
        }
      ],
      "name": "decryptionVerifiers",
      "outputs": [
        {
          "internalType": "contract IDecryptionVerifier",
          "name": "decryptionVerifier",
          "type": "address"
        }
      ],
      "stateMutability": "view",
      "type": "function"
    },
    {
      "inputs": [
        {
          "internalType": "contract IE3Program",
          "name": "e3Program",
          "type": "address"
        }
      ],
      "name": "disableE3Program",
      "outputs": [],
      "stateMutability": "nonpayable",
      "type": "function"
    },
    {
      "inputs": [
        {
          "internalType": "bytes32",
          "name": "encryptionSchemeId",
          "type": "bytes32"
        }
      ],
      "name": "disableEncryptionScheme",
      "outputs": [],
      "stateMutability": "nonpayable",
      "type": "function"
    },
    {
      "inputs": [
        {
          "internalType": "uint256",
          "name": "e3Id",
          "type": "uint256"
        }
      ],
      "name": "e3Payments",
      "outputs": [
        {
          "internalType": "uint256",
          "name": "e3Payment",
          "type": "uint256"
        }
      ],
      "stateMutability": "view",
      "type": "function"
    },
    {
      "inputs": [
        {
          "internalType": "contract IE3Program",
          "name": "e3Program",
          "type": "address"
        }
      ],
      "name": "e3Programs",
      "outputs": [
        {
          "internalType": "bool",
          "name": "allowed",
          "type": "bool"
        }
      ],
      "stateMutability": "view",
      "type": "function"
    },
    {
      "inputs": [],
      "name": "e3RefundManager",
      "outputs": [
        {
          "internalType": "contract IE3RefundManager",
          "name": "",
          "type": "address"
        }
      ],
      "stateMutability": "view",
      "type": "function"
    },
    {
      "inputs": [
        {
          "internalType": "uint256",
          "name": "e3Id",
          "type": "uint256"
        }
      ],
      "name": "e3s",
      "outputs": [
        {
          "internalType": "uint256",
          "name": "seed",
          "type": "uint256"
        },
        {
          "internalType": "enum IEnclave.CommitteeSize",
          "name": "committeeSize",
          "type": "uint8"
        },
        {
          "internalType": "uint256",
          "name": "requestBlock",
          "type": "uint256"
        },
        {
          "internalType": "bytes32",
          "name": "encryptionSchemeId",
          "type": "bytes32"
        },
        {
          "internalType": "contract IE3Program",
          "name": "e3Program",
          "type": "address"
        },
        {
          "internalType": "uint8",
          "name": "paramSet",
          "type": "uint8"
        },
        {
          "internalType": "bytes",
          "name": "customParams",
          "type": "bytes"
        },
        {
          "internalType": "contract IDecryptionVerifier",
          "name": "decryptionVerifier",
          "type": "address"
        },
        {
          "internalType": "contract IPkVerifier",
          "name": "pkVerifier",
          "type": "address"
        },
        {
          "internalType": "bytes32",
          "name": "committeePublicKey",
          "type": "bytes32"
        },
        {
          "internalType": "bytes32",
          "name": "ciphertextOutput",
          "type": "bytes32"
        },
        {
          "internalType": "bytes",
          "name": "plaintextOutput",
          "type": "bytes"
        },
        {
          "internalType": "address",
          "name": "requester",
          "type": "address"
        },
        {
          "internalType": "bool",
          "name": "proofAggregationEnabled",
          "type": "bool"
        }
      ],
      "stateMutability": "view",
      "type": "function"
    },
    {
      "inputs": [
        {
          "internalType": "contract IE3Program",
          "name": "e3Program",
          "type": "address"
        }
      ],
      "name": "enableE3Program",
      "outputs": [],
      "stateMutability": "nonpayable",
      "type": "function"
    },
    {
      "inputs": [
        {
          "internalType": "uint256",
          "name": "e3Id",
          "type": "uint256"
        },
        {
          "internalType": "uint256",
          "name": "amount",
          "type": "uint256"
        }
      ],
      "name": "escrowSlashedFunds",
      "outputs": [],
      "stateMutability": "nonpayable",
      "type": "function"
    },
    {
      "inputs": [],
      "name": "feeToken",
      "outputs": [
        {
          "internalType": "contract IERC20",
          "name": "",
          "type": "address"
        }
      ],
      "stateMutability": "view",
      "type": "function"
    },
    {
      "inputs": [
        {
          "internalType": "uint256",
          "name": "e3Id",
          "type": "uint256"
        }
      ],
      "name": "getDeadlines",
      "outputs": [
        {
          "components": [
            {
              "internalType": "uint256",
              "name": "dkgDeadline",
              "type": "uint256"
            },
            {
              "internalType": "uint256",
              "name": "computeDeadline",
              "type": "uint256"
            },
            {
              "internalType": "uint256",
              "name": "decryptionDeadline",
              "type": "uint256"
            }
          ],
          "internalType": "struct IEnclave.E3Deadlines",
          "name": "deadlines",
          "type": "tuple"
        }
      ],
      "stateMutability": "view",
      "type": "function"
    },
    {
      "inputs": [
        {
          "internalType": "bytes32",
          "name": "encryptionSchemeId",
          "type": "bytes32"
        }
      ],
      "name": "getDecryptionVerifier",
      "outputs": [
        {
          "internalType": "contract IDecryptionVerifier",
          "name": "",
          "type": "address"
        }
      ],
      "stateMutability": "view",
      "type": "function"
    },
    {
      "inputs": [
        {
          "internalType": "uint256",
          "name": "e3Id",
          "type": "uint256"
        }
      ],
      "name": "getE3",
      "outputs": [
        {
          "components": [
            {
              "internalType": "uint256",
              "name": "seed",
              "type": "uint256"
            },
            {
              "internalType": "enum IEnclave.CommitteeSize",
              "name": "committeeSize",
              "type": "uint8"
            },
            {
              "internalType": "uint256",
              "name": "requestBlock",
              "type": "uint256"
            },
            {
              "internalType": "uint256[2]",
              "name": "inputWindow",
              "type": "uint256[2]"
            },
            {
              "internalType": "bytes32",
              "name": "encryptionSchemeId",
              "type": "bytes32"
            },
            {
              "internalType": "contract IE3Program",
              "name": "e3Program",
              "type": "address"
            },
            {
              "internalType": "uint8",
              "name": "paramSet",
              "type": "uint8"
            },
            {
              "internalType": "bytes",
              "name": "customParams",
              "type": "bytes"
            },
            {
              "internalType": "contract IDecryptionVerifier",
              "name": "decryptionVerifier",
              "type": "address"
            },
            {
              "internalType": "contract IPkVerifier",
              "name": "pkVerifier",
              "type": "address"
            },
            {
              "internalType": "bytes32",
              "name": "committeePublicKey",
              "type": "bytes32"
            },
            {
              "internalType": "bytes32",
              "name": "ciphertextOutput",
              "type": "bytes32"
            },
            {
              "internalType": "bytes",
              "name": "plaintextOutput",
              "type": "bytes"
            },
            {
              "internalType": "address",
              "name": "requester",
              "type": "address"
            },
            {
              "internalType": "bool",
              "name": "proofAggregationEnabled",
              "type": "bool"
            }
          ],
          "internalType": "struct E3",
          "name": "e3",
          "type": "tuple"
        }
      ],
      "stateMutability": "view",
      "type": "function"
    },
    {
      "inputs": [
        {
          "components": [
            {
              "internalType": "enum IEnclave.CommitteeSize",
              "name": "committeeSize",
              "type": "uint8"
            },
            {
              "internalType": "uint256[2]",
              "name": "inputWindow",
              "type": "uint256[2]"
            },
            {
              "internalType": "contract IE3Program",
              "name": "e3Program",
              "type": "address"
            },
            {
              "internalType": "uint8",
              "name": "paramSet",
              "type": "uint8"
            },
            {
              "internalType": "bytes",
              "name": "computeProviderParams",
              "type": "bytes"
            },
            {
              "internalType": "bytes",
              "name": "customParams",
              "type": "bytes"
            },
            {
              "internalType": "bool",
              "name": "proofAggregationEnabled",
              "type": "bool"
            },
            {
              "internalType": "uint256",
              "name": "maxFee",
              "type": "uint256"
            }
          ],
          "internalType": "struct IEnclave.E3RequestParams",
          "name": "requestParams",
          "type": "tuple"
        }
      ],
      "name": "getE3Quote",
      "outputs": [
        {
          "internalType": "uint256",
          "name": "fee",
          "type": "uint256"
        }
      ],
      "stateMutability": "view",
      "type": "function"
    },
    {
      "inputs": [
        {
          "internalType": "uint256",
          "name": "e3Id",
          "type": "uint256"
        }
      ],
      "name": "getE3Stage",
      "outputs": [
        {
          "internalType": "enum IEnclave.E3Stage",
          "name": "stage",
          "type": "uint8"
        }
      ],
      "stateMutability": "view",
      "type": "function"
    },
    {
      "inputs": [
        {
          "internalType": "uint256",
          "name": "e3Id",
          "type": "uint256"
        }
      ],
      "name": "getFailureReason",
      "outputs": [
        {
          "internalType": "enum IEnclave.FailureReason",
          "name": "reason",
          "type": "uint8"
        }
      ],
      "stateMutability": "view",
      "type": "function"
    },
    {
      "inputs": [
        {
          "internalType": "bytes32",
          "name": "encryptionSchemeId",
          "type": "bytes32"
        }
      ],
      "name": "getPkVerifier",
      "outputs": [
        {
          "internalType": "contract IPkVerifier",
          "name": "",
          "type": "address"
        }
      ],
      "stateMutability": "view",
      "type": "function"
    },
    {
      "inputs": [],
      "name": "getPricingConfig",
      "outputs": [
        {
          "components": [
            {
              "internalType": "uint256",
              "name": "keyGenFixedPerNode",
              "type": "uint256"
            },
            {
              "internalType": "uint256",
              "name": "keyGenPerEncryptionProof",
              "type": "uint256"
            },
            {
              "internalType": "uint256",
              "name": "coordinationPerPair",
              "type": "uint256"
            },
            {
              "internalType": "uint256",
              "name": "availabilityPerNodePerSec",
              "type": "uint256"
            },
            {
              "internalType": "uint256",
              "name": "decryptionPerNode",
              "type": "uint256"
            },
            {
              "internalType": "uint256",
              "name": "publicationBase",
              "type": "uint256"
            },
            {
              "internalType": "uint256",
              "name": "verificationPerProof",
              "type": "uint256"
            },
            {
              "internalType": "address",
              "name": "protocolTreasury",
              "type": "address"
            },
            {
              "internalType": "uint16",
              "name": "marginBps",
              "type": "uint16"
            },
            {
              "internalType": "uint16",
              "name": "protocolShareBps",
              "type": "uint16"
            },
            {
              "internalType": "uint16",
              "name": "dkgUtilizationBps",
              "type": "uint16"
            },
            {
              "internalType": "uint16",
              "name": "computeUtilizationBps",
              "type": "uint16"
            },
            {
              "internalType": "uint16",
              "name": "decryptUtilizationBps",
              "type": "uint16"
            },
            {
              "internalType": "uint32",
              "name": "minCommitteeSize",
              "type": "uint32"
            },
            {
              "internalType": "uint32",
              "name": "minThreshold",
              "type": "uint32"
            }
          ],
          "internalType": "struct IEnclave.PricingConfig",
          "name": "",
          "type": "tuple"
        }
      ],
      "stateMutability": "view",
      "type": "function"
    },
    {
      "inputs": [
        {
          "internalType": "uint256",
          "name": "e3Id",
          "type": "uint256"
        }
      ],
      "name": "getRequester",
      "outputs": [
        {
          "internalType": "address",
          "name": "requester",
          "type": "address"
        }
      ],
      "stateMutability": "view",
      "type": "function"
    },
    {
      "inputs": [],
      "name": "getTimeoutConfig",
      "outputs": [
        {
          "components": [
            {
              "internalType": "uint256",
              "name": "dkgWindow",
              "type": "uint256"
            },
            {
              "internalType": "uint256",
              "name": "computeWindow",
              "type": "uint256"
            },
            {
              "internalType": "uint256",
              "name": "decryptionWindow",
              "type": "uint256"
            }
          ],
          "internalType": "struct IEnclave.E3TimeoutConfig",
          "name": "config",
          "type": "tuple"
        }
      ],
      "stateMutability": "view",
      "type": "function"
    },
    {
      "inputs": [
        {
          "internalType": "address",
          "name": "_owner",
          "type": "address"
        },
        {
          "internalType": "contract ICiphernodeRegistry",
          "name": "_ciphernodeRegistry",
          "type": "address"
        },
        {
          "internalType": "contract IBondingRegistry",
          "name": "_bondingRegistry",
          "type": "address"
        },
        {
          "internalType": "contract IE3RefundManager",
          "name": "_e3RefundManager",
          "type": "address"
        },
        {
          "internalType": "contract IERC20",
          "name": "_feeToken",
          "type": "address"
        },
        {
          "internalType": "uint256",
          "name": "_maxDuration",
          "type": "uint256"
        },
        {
          "components": [
            {
              "internalType": "uint256",
              "name": "dkgWindow",
              "type": "uint256"
            },
            {
              "internalType": "uint256",
              "name": "computeWindow",
              "type": "uint256"
            },
            {
              "internalType": "uint256",
              "name": "decryptionWindow",
              "type": "uint256"
            }
          ],
          "internalType": "struct IEnclave.E3TimeoutConfig",
          "name": "config",
          "type": "tuple"
        }
      ],
      "name": "initialize",
      "outputs": [],
      "stateMutability": "nonpayable",
      "type": "function"
    },
    {
      "inputs": [
        {
          "internalType": "contract IERC20",
          "name": "token",
          "type": "address"
        }
      ],
      "name": "isFeeTokenAllowed",
      "outputs": [
        {
          "internalType": "bool",
          "name": "",
          "type": "bool"
        }
      ],
      "stateMutability": "view",
      "type": "function"
    },
    {
      "inputs": [
        {
          "internalType": "uint256",
          "name": "e3Id",
          "type": "uint256"
        }
      ],
      "name": "markE3Failed",
      "outputs": [
        {
          "internalType": "enum IEnclave.FailureReason",
          "name": "reason",
          "type": "uint8"
        }
      ],
      "stateMutability": "nonpayable",
      "type": "function"
    },
    {
      "inputs": [],
      "name": "markFailedGracePeriod",
      "outputs": [
        {
          "internalType": "uint256",
          "name": "",
          "type": "uint256"
        }
      ],
      "stateMutability": "view",
      "type": "function"
    },
    {
      "inputs": [],
      "name": "maxDuration",
      "outputs": [
        {
          "internalType": "uint256",
          "name": "",
          "type": "uint256"
        }
      ],
      "stateMutability": "view",
      "type": "function"
    },
    {
      "inputs": [],
      "name": "nexte3Id",
      "outputs": [
        {
          "internalType": "uint256",
          "name": "",
          "type": "uint256"
        }
      ],
      "stateMutability": "view",
      "type": "function"
    },
    {
      "inputs": [
        {
          "internalType": "uint256",
          "name": "e3Id",
          "type": "uint256"
        }
      ],
      "name": "onCommitteeFinalized",
      "outputs": [],
      "stateMutability": "nonpayable",
      "type": "function"
    },
    {
      "inputs": [
        {
          "internalType": "uint256",
          "name": "e3Id",
          "type": "uint256"
        },
        {
          "internalType": "bytes32",
          "name": "committeePublicKey",
          "type": "bytes32"
        }
      ],
      "name": "onCommitteePublished",
      "outputs": [],
      "stateMutability": "nonpayable",
      "type": "function"
    },
    {
      "inputs": [
        {
          "internalType": "uint256",
          "name": "e3Id",
          "type": "uint256"
        },
        {
          "internalType": "uint8",
          "name": "reason",
          "type": "uint8"
        }
      ],
      "name": "onE3Failed",
      "outputs": [],
      "stateMutability": "nonpayable",
      "type": "function"
    },
    {
      "inputs": [],
      "name": "owner",
      "outputs": [
        {
          "internalType": "address",
          "name": "",
          "type": "address"
        }
      ],
      "stateMutability": "view",
      "type": "function"
    },
    {
      "inputs": [
        {
          "internalType": "uint8",
          "name": "",
          "type": "uint8"
        }
      ],
      "name": "paramSetRegistry",
      "outputs": [
        {
          "internalType": "bytes",
          "name": "",
          "type": "bytes"
        }
      ],
      "stateMutability": "view",
      "type": "function"
    },
    {
      "inputs": [],
      "name": "pendingOwner",
      "outputs": [
        {
          "internalType": "address",
          "name": "",
          "type": "address"
        }
      ],
      "stateMutability": "view",
      "type": "function"
    },
    {
      "inputs": [
        {
          "internalType": "uint256",
          "name": "e3Id",
          "type": "uint256"
        },
        {
          "internalType": "address",
          "name": "account",
          "type": "address"
        }
      ],
      "name": "pendingReward",
      "outputs": [
        {
          "internalType": "uint256",
          "name": "",
          "type": "uint256"
        }
      ],
      "stateMutability": "view",
      "type": "function"
    },
    {
      "inputs": [
        {
          "internalType": "address",
          "name": "treasury",
          "type": "address"
        },
        {
          "internalType": "contract IERC20",
          "name": "token",
          "type": "address"
        }
      ],
      "name": "pendingTreasuryClaim",
      "outputs": [
        {
          "internalType": "uint256",
          "name": "",
          "type": "uint256"
        }
      ],
      "stateMutability": "view",
      "type": "function"
    },
    {
      "inputs": [
        {
          "internalType": "bytes32",
          "name": "encryptionSchemeId",
          "type": "bytes32"
        }
      ],
      "name": "pkVerifiers",
      "outputs": [
        {
          "internalType": "contract IPkVerifier",
          "name": "pkVerifier",
          "type": "address"
        }
      ],
      "stateMutability": "view",
      "type": "function"
    },
    {
      "inputs": [
        {
          "internalType": "uint256",
          "name": "e3Id",
          "type": "uint256"
        }
      ],
      "name": "processE3Failure",
      "outputs": [],
      "stateMutability": "nonpayable",
      "type": "function"
    },
    {
      "inputs": [
        {
          "internalType": "uint256",
          "name": "e3Id",
          "type": "uint256"
        },
        {
          "internalType": "bytes",
          "name": "ciphertextOutput",
          "type": "bytes"
        },
        {
          "internalType": "bytes",
          "name": "proof",
          "type": "bytes"
        }
      ],
      "name": "publishCiphertextOutput",
      "outputs": [
        {
          "internalType": "bool",
          "name": "success",
          "type": "bool"
        }
      ],
      "stateMutability": "nonpayable",
      "type": "function"
    },
    {
      "inputs": [
        {
          "internalType": "uint256",
          "name": "e3Id",
          "type": "uint256"
        },
        {
          "internalType": "bytes",
          "name": "plaintextOutput",
          "type": "bytes"
        },
        {
          "internalType": "bytes",
          "name": "proof",
          "type": "bytes"
        }
      ],
      "name": "publishPlaintextOutput",
      "outputs": [
        {
          "internalType": "bool",
          "name": "success",
          "type": "bool"
        }
      ],
      "stateMutability": "nonpayable",
      "type": "function"
    },
    {
      "inputs": [],
      "name": "renounceOwnership",
      "outputs": [],
      "stateMutability": "view",
      "type": "function"
    },
    {
      "inputs": [
        {
          "components": [
            {
              "internalType": "enum IEnclave.CommitteeSize",
              "name": "committeeSize",
              "type": "uint8"
            },
            {
              "internalType": "uint256[2]",
              "name": "inputWindow",
              "type": "uint256[2]"
            },
            {
              "internalType": "contract IE3Program",
              "name": "e3Program",
              "type": "address"
            },
            {
              "internalType": "uint8",
              "name": "paramSet",
              "type": "uint8"
            },
            {
              "internalType": "bytes",
              "name": "computeProviderParams",
              "type": "bytes"
            },
            {
              "internalType": "bytes",
              "name": "customParams",
              "type": "bytes"
            },
            {
              "internalType": "bool",
              "name": "proofAggregationEnabled",
              "type": "bool"
            },
            {
              "internalType": "uint256",
              "name": "maxFee",
              "type": "uint256"
            }
          ],
          "internalType": "struct IEnclave.E3RequestParams",
          "name": "requestParams",
          "type": "tuple"
        }
      ],
      "name": "request",
      "outputs": [
        {
          "internalType": "uint256",
          "name": "e3Id",
          "type": "uint256"
        },
        {
          "components": [
            {
              "internalType": "uint256",
              "name": "seed",
              "type": "uint256"
            },
            {
              "internalType": "enum IEnclave.CommitteeSize",
              "name": "committeeSize",
              "type": "uint8"
            },
            {
              "internalType": "uint256",
              "name": "requestBlock",
              "type": "uint256"
            },
            {
              "internalType": "uint256[2]",
              "name": "inputWindow",
              "type": "uint256[2]"
            },
            {
              "internalType": "bytes32",
              "name": "encryptionSchemeId",
              "type": "bytes32"
            },
            {
              "internalType": "contract IE3Program",
              "name": "e3Program",
              "type": "address"
            },
            {
              "internalType": "uint8",
              "name": "paramSet",
              "type": "uint8"
            },
            {
              "internalType": "bytes",
              "name": "customParams",
              "type": "bytes"
            },
            {
              "internalType": "contract IDecryptionVerifier",
              "name": "decryptionVerifier",
              "type": "address"
            },
            {
              "internalType": "contract IPkVerifier",
              "name": "pkVerifier",
              "type": "address"
            },
            {
              "internalType": "bytes32",
              "name": "committeePublicKey",
              "type": "bytes32"
            },
            {
              "internalType": "bytes32",
              "name": "ciphertextOutput",
              "type": "bytes32"
            },
            {
              "internalType": "bytes",
              "name": "plaintextOutput",
              "type": "bytes"
            },
            {
              "internalType": "address",
              "name": "requester",
              "type": "address"
            },
            {
              "internalType": "bool",
              "name": "proofAggregationEnabled",
              "type": "bool"
            }
          ],
          "internalType": "struct E3",
          "name": "e3",
          "type": "tuple"
        }
      ],
      "stateMutability": "nonpayable",
      "type": "function"
    },
    {
      "inputs": [
        {
          "internalType": "contract IBondingRegistry",
          "name": "_bondingRegistry",
          "type": "address"
        }
      ],
      "name": "setBondingRegistry",
      "outputs": [],
      "stateMutability": "nonpayable",
      "type": "function"
    },
    {
      "inputs": [
        {
          "internalType": "contract ICiphernodeRegistry",
          "name": "_ciphernodeRegistry",
          "type": "address"
        }
      ],
      "name": "setCiphernodeRegistry",
      "outputs": [],
      "stateMutability": "nonpayable",
      "type": "function"
    },
    {
      "inputs": [
        {
          "internalType": "enum IEnclave.CommitteeSize",
          "name": "size",
          "type": "uint8"
        },
        {
          "internalType": "uint32[2]",
          "name": "threshold",
          "type": "uint32[2]"
        }
      ],
      "name": "setCommitteeThresholds",
      "outputs": [],
      "stateMutability": "nonpayable",
      "type": "function"
    },
    {
      "inputs": [
        {
          "internalType": "bytes32",
          "name": "encryptionSchemeId",
          "type": "bytes32"
        },
        {
          "internalType": "contract IDecryptionVerifier",
          "name": "decryptionVerifier",
          "type": "address"
        }
      ],
      "name": "setDecryptionVerifier",
      "outputs": [],
      "stateMutability": "nonpayable",
      "type": "function"
    },
    {
      "inputs": [
        {
          "internalType": "contract IE3RefundManager",
          "name": "_e3RefundManager",
          "type": "address"
        }
      ],
      "name": "setE3RefundManager",
      "outputs": [],
      "stateMutability": "nonpayable",
      "type": "function"
    },
    {
      "inputs": [
        {
          "internalType": "contract IERC20",
          "name": "_feeToken",
          "type": "address"
        }
      ],
      "name": "setFeeToken",
      "outputs": [],
      "stateMutability": "nonpayable",
      "type": "function"
    },
    {
      "inputs": [
        {
          "internalType": "contract IERC20",
          "name": "token",
          "type": "address"
        },
        {
          "internalType": "bool",
          "name": "allowed",
          "type": "bool"
        }
      ],
      "name": "setFeeTokenAllowed",
      "outputs": [],
      "stateMutability": "nonpayable",
      "type": "function"
    },
    {
      "inputs": [
        {
          "internalType": "uint256",
          "name": "gracePeriod",
          "type": "uint256"
        }
      ],
      "name": "setMarkFailedGracePeriod",
      "outputs": [],
      "stateMutability": "nonpayable",
      "type": "function"
    },
    {
      "inputs": [
        {
          "internalType": "uint256",
          "name": "_maxDuration",
          "type": "uint256"
        }
      ],
      "name": "setMaxDuration",
      "outputs": [],
      "stateMutability": "nonpayable",
      "type": "function"
    },
    {
      "inputs": [
        {
          "internalType": "uint8",
          "name": "paramSet",
          "type": "uint8"
        },
        {
          "internalType": "bytes",
          "name": "encodedParams",
          "type": "bytes"
        }
      ],
      "name": "setParamSet",
      "outputs": [],
      "stateMutability": "nonpayable",
      "type": "function"
    },
    {
      "inputs": [
        {
          "internalType": "bytes32",
          "name": "encryptionSchemeId",
          "type": "bytes32"
        },
        {
          "internalType": "contract IPkVerifier",
          "name": "pkVerifier",
          "type": "address"
        }
      ],
      "name": "setPkVerifier",
      "outputs": [],
      "stateMutability": "nonpayable",
      "type": "function"
    },
    {
      "inputs": [
        {
          "components": [
            {
              "internalType": "uint256",
              "name": "keyGenFixedPerNode",
              "type": "uint256"
            },
            {
              "internalType": "uint256",
              "name": "keyGenPerEncryptionProof",
              "type": "uint256"
            },
            {
              "internalType": "uint256",
              "name": "coordinationPerPair",
              "type": "uint256"
            },
            {
              "internalType": "uint256",
              "name": "availabilityPerNodePerSec",
              "type": "uint256"
            },
            {
              "internalType": "uint256",
              "name": "decryptionPerNode",
              "type": "uint256"
            },
            {
              "internalType": "uint256",
              "name": "publicationBase",
              "type": "uint256"
            },
            {
              "internalType": "uint256",
              "name": "verificationPerProof",
              "type": "uint256"
            },
            {
              "internalType": "address",
              "name": "protocolTreasury",
              "type": "address"
            },
            {
              "internalType": "uint16",
              "name": "marginBps",
              "type": "uint16"
            },
            {
              "internalType": "uint16",
              "name": "protocolShareBps",
              "type": "uint16"
            },
            {
              "internalType": "uint16",
              "name": "dkgUtilizationBps",
              "type": "uint16"
            },
            {
              "internalType": "uint16",
              "name": "computeUtilizationBps",
              "type": "uint16"
            },
            {
              "internalType": "uint16",
              "name": "decryptUtilizationBps",
              "type": "uint16"
            },
            {
              "internalType": "uint32",
              "name": "minCommitteeSize",
              "type": "uint32"
            },
            {
              "internalType": "uint32",
              "name": "minThreshold",
              "type": "uint32"
            }
          ],
          "internalType": "struct IEnclave.PricingConfig",
          "name": "config",
          "type": "tuple"
        }
      ],
      "name": "setPricingConfig",
      "outputs": [],
      "stateMutability": "nonpayable",
      "type": "function"
    },
    {
      "inputs": [
        {
          "internalType": "contract ISlashingManager",
          "name": "_slashingManager",
          "type": "address"
        }
      ],
      "name": "setSlashingManager",
      "outputs": [],
      "stateMutability": "nonpayable",
      "type": "function"
    },
    {
      "inputs": [
        {
          "components": [
            {
              "internalType": "uint256",
              "name": "dkgWindow",
              "type": "uint256"
            },
            {
              "internalType": "uint256",
              "name": "computeWindow",
              "type": "uint256"
            },
            {
              "internalType": "uint256",
              "name": "decryptionWindow",
              "type": "uint256"
            }
          ],
          "internalType": "struct IEnclave.E3TimeoutConfig",
          "name": "config",
          "type": "tuple"
        }
      ],
      "name": "setTimeoutConfig",
      "outputs": [],
      "stateMutability": "nonpayable",
      "type": "function"
    },
    {
      "inputs": [],
      "name": "slashingManager",
      "outputs": [
        {
          "internalType": "contract ISlashingManager",
          "name": "",
          "type": "address"
        }
      ],
      "stateMutability": "view",
      "type": "function"
    },
    {
      "inputs": [
        {
          "internalType": "bytes4",
          "name": "interfaceId",
          "type": "bytes4"
        }
      ],
      "name": "supportsInterface",
      "outputs": [
        {
          "internalType": "bool",
          "name": "",
          "type": "bool"
        }
      ],
      "stateMutability": "pure",
      "type": "function"
    },
    {
      "inputs": [
        {
          "internalType": "address",
          "name": "newOwner",
          "type": "address"
        }
      ],
      "name": "transferOwnership",
      "outputs": [],
      "stateMutability": "nonpayable",
      "type": "function"
    },
    {
      "inputs": [
        {
          "internalType": "contract IERC20",
          "name": "token",
          "type": "address"
        }
      ],
      "name": "treasuryClaim",
      "outputs": [
        {
          "internalType": "uint256",
          "name": "amount",
          "type": "uint256"
        }
      ],
      "stateMutability": "nonpayable",
      "type": "function"
    }
  ],
  "bytecode": "0x6080604052348015600f57600080fd5b506016601a565b60ca565b7ff0c57e16840df040f15088dc2f81fe391c3923bec73e23a9662efc9c229c6a00805468010000000000000000900460ff161560695760405163f92ee8a960e01b815260040160405180910390fd5b80546001600160401b039081161460c75780546001600160401b0319166001600160401b0390811782556040519081527fc7f505b2f371ae2175ee4913f4499e1f2633a7b5936321eed1cdaeb6115181d29060200160405180910390a15b50565b615ffc806100d96000396000f3fe608060405234801561001057600080fd5b50600436106103225760003560e01c806301ffc9a71461032757806302a3a9c91461034f5780630ef81b2f1461036457806310bc62811461039a57806311bd61d9146103c357806315cce224146103eb5780631ba72945146103fe5780632712225914610411578063351c2edd1461042d57806336c5d38a1461044e5780634017daf01461047e5780634044de3214610411578063406ed35c146104ab5780634147a360146104cb5780634d600e5d146104eb5780634e92ec63146104fe5780634fc77264146105115780635d168418146105245780635d204718146105445780635eac623914610570578063647846a5146105835780636db5c8fd14610596578063715018a61461059f57806374137f37146105a7578063779a0606146105ba57806379ba5097146105c55780637c8c3b4d146105cd5780637cfa9d74146105e05780637deccb97146105f35780637edcd7ab146105fd5780637f10792d1461061057806381476ec214610619578063830d71811461062c578063858142431461063f57806386d63bee146106525780638da5cb5b146106655780638dcdd86b1461066d5780638e5ce3ad1461068057806390173a41146106935780639117173c146106a857806392312386146106bb578063929a8faf146106ce57806398969e82146106ef57806399c6679d146107255780639c8570c81461074e5780639d0e5af614610761578063a87f4ab91461076a578063a8990a2f146108bc578063ac3d2f42146108cf578063ae169a50146108f8578063bb2d1b821461090b578063bd8a80e01461091e578063bff232c11461093f578063c1ab0f1f14610952578063c4ccafa214610965578063cb64961714610988578063cbd1687214610991578063cf0f34c4146109a4578063cfbdc98d146109b7578063d8afed3e146109e7578063e30c3978146109fa578063e53c1a9314610a02578063e59e469514610a3b578063ea71aa5714610a4e578063f0691cba14610a61578063f2fde38b14610a74578063f81b8ef614610a87578063fad8e11114610a9a578063fbdb323714610aad578063fd2f3d0114610ad6575b600080fd5b61033a61033536600461483f565b610ae9565b60405190151581526020015b60405180910390f35b61036261035d366004614885565b610b20565b005b61038d6103723660046148a2565b6000908152600960205260409020546001600160a01b031690565b60405161034691906148c8565b61038d6103a83660046148a2565b6009602052600090815260409020546001600160a01b031681565b6103d66103d13660046148eb565b610b85565b60405163ffffffff9091168152602001610346565b6103626103f9366004614885565b610bc4565b61036261040c366004614927565b610cd3565b61041a61138881565b60405161ffff9091168152602001610346565b61044061043b366004614885565b610ce7565b604051908152602001610346565b61047161045c3660046148a2565b6000908152600f602052604090205460ff1690565b604051610346919061496d565b61049161048c3660046148a2565b610db2565b6040516103469e9d9c9b9a999897969594939291906149d1565b6104be6104b93660046148a2565b610f62565b6040516103469190614bae565b6104406104d93660046148a2565b600c6020526000908152604090205481565b6103626104f9366004614bcc565b6111e4565b61036261050c3660046148a2565b6113b9565b61036261051f366004614885565b61144a565b610537610532366004614c68565b6114df565b6040516103469190614c83565b61033a610552366004614885565b6001600160a01b031660009081526021602052604090205460ff1690565b61044061057e366004614c96565b611579565b60045461038d906001600160a01b031681565b61044060055481565b6103626115f0565b6104406105b5366004614d0b565b611614565b6104406301e1338081565b61036261195d565b6103626105db366004614d46565b611999565b6103626105ee3660046148a2565b611a4f565b61044062278d0081565b61033a61060b366004614db7565b611b53565b6103d661010081565b610362610627366004614e34565b611e86565b61036261063a366004614e56565b611f7e565b60015461038d906001600160a01b031681565b6103626106603660046148a2565b6120da565b61038d612117565b60005461038d906001600160a01b031681565b60035461038d906001600160a01b031681565b61069b612132565b6040516103469190614ea8565b6103626106b63660046148a2565b61217b565b61069b6106c93660046148a2565b6122e9565b6106e16106dc3660046148a2565b612346565b604051610346929190614ec9565b6104406106fd366004614d46565b60009182526022602090815260408084206001600160a01b0393909316845291905290205490565b61038d6107333660046148a2565b6000908152601060205260409020546001600160a01b031690565b61033a61075c366004614db7565b612370565b61044060245481565b6108af604080516101e081018252600080825260208201819052918101829052606081018290526080810182905260a0810182905260c0810182905260e08101829052610100810182905261012081018290526101408101829052610160810182905261018081018290526101a081018290526101c081019190915250604080516101e0810182526018548152601954602080830191909152601a5492820192909252601b546060820152601c546080820152601d5460a0820152601e5460c0820152601f546001600160a01b03811660e083015261ffff600160a01b82048116610100840152600160b01b82048116610120840152600160c01b82048116610140840152600160d01b82048116610160840152600160e01b90910416610180820152905463ffffffff8082166101a0840152600160201b909104166101c082015290565b6040516103469190614edf565b6103626108ca366004614ffb565b6125f7565b61038d6108dd3660046148a2565b6000908152600a60205260409020546001600160a01b031690565b6104406109063660046148a2565b61266f565b610362610919366004615029565b6126ae565b61093161092c366004614d0b565b612730565b604051610346929190615055565b61036261094d366004614885565b612fc4565b610362610960366004614e34565b613029565b61033a610973366004614885565b60076020526000908152604090205460ff1681565b61044060065481565b61036261099f366004614d46565b6130ea565b6103626109b23660046148a2565b6131a6565b6109da6109c53660046148a2565b6000908152600d602052604090205460ff1690565b604051610346919061507e565b6103626109f536600461508c565b61321a565b61038d6132ca565b610440610a103660046150a8565b6001600160a01b03918216600090815260236020908152604080832093909416825291909152205490565b610362610a49366004614885565b6132d5565b610362610a5c3660046150d6565b61336f565b60025461038d906001600160a01b031681565b610362610a82366004614885565b613536565b610471610a953660046148a2565b6135a7565b610362610aa8366004614885565b61381f565b61038d610abb3660046148a2565b600a602052600090815260409020546001600160a01b031681565b610362610ae4366004614885565b6138b9565b60006001600160e01b0319821663f7bbe5ab60e01b1480610b1a57506301ffc9a760e01b6001600160e01b03198316145b92915050565b610b2861394a565b6001600160a01b038116610b3b57600080fd5b600280546001600160a01b0319166001600160a01b0383169081179091556040517f9557d04c1c0b16f93f13b69aed23b3b6ab935bff3c53ac81d17896d3583542ed90600090a250565b60126020528160005260406000208160028110610ba157600080fd5b60089182820401919006600402915091509054906101000a900463ffffffff1681565b610bcc61394a565b6001600160a01b03811615801590610bf257506004546001600160a01b03828116911614155b8190610c1b5760405163eddf07f560e01b8152600401610c1291906148c8565b60405180910390fd5b50600480546001600160a01b0319166001600160a01b03831690811790915560009081526021602052604090205460ff16610c99576001600160a01b038116600081815260216020908152604091829020805460ff191660019081179091559151918252600080516020615fd0833981519152910160405180910390a25b7f722ff84c1234b2482061def5c82c6b5080c117b3cbb69d686844a051e4b8e7f381604051610cc891906148c8565b60405180910390a150565b610cdb61394a565b610ce48161397e565b50565b6000610cf1613a2e565b503360009081526023602090815260408083206001600160a01b038516845290915290205480610d34576040516312d37ee560e31b815260040160405180910390fd5b3360008181526023602090815260408083206001600160a01b0387168085529252822091909155610d659183613a64565b6040518181526001600160a01b0383169033907f6458407f0340d4c9ab27e2a8e4cc46dc2773a24dca8086eef793c12bb811a29a9060200160405180910390a3610dad613ac8565b919050565b600860205260009081526040902080546001820154600283015460058401546006850154600786018054959660ff95861696949593946001600160a01b03841694600160a01b90940490931692909190610e0b90615110565b80601f0160208091040260200160405190810160405280929190818152602001828054610e3790615110565b8015610e845780601f10610e5957610100808354040283529160200191610e84565b820191906000526020600020905b815481529060010190602001808311610e6757829003601f168201915b50505060088401546009850154600a860154600b870154600c8801805497986001600160a01b03958616989490951696509194509291610ec390615110565b80601f0160208091040260200160405190810160405280929190818152602001828054610eef90615110565b8015610f3c5780601f10610f1157610100808354040283529160200191610f3c565b820191906000526020600020905b815481529060010190602001808311610f1f57829003601f168201915b505050600d90930154919250506001600160a01b0381169060ff600160a01b909104168e565b610f6a6146b1565b60008281526008602090815260409182902082516101e08101909352805483526001810154909183019060ff166003811115610fa857610fa8614943565b6003811115610fb957610fb9614943565b8152600282810154602083015260408051808201808352919093019291600385019182845b815481526020019060010190808311610fde5750505091835250506005820154602082015260068201546001600160a01b0381166040830152600160a01b900460ff16606082015260078201805460809092019161103b90615110565b80601f016020809104026020016040519081016040528092919081815260200182805461106790615110565b80156110b45780601f10611089576101008083540402835291602001916110b4565b820191906000526020600020905b81548152906001019060200180831161109757829003601f168201915b505050918352505060088201546001600160a01b0390811660208301526009830154166040820152600a8201546060820152600b8201546080820152600c8201805460a09092019161110590615110565b80601f016020809104026020016040519081016040528092919081815260200182805461113190615110565b801561117e5780601f106111535761010080835404028352916020019161117e565b820191906000526020600020905b81548152906001019060200180831161116157829003601f168201915b5050509183525050600d91909101546001600160a01b038082166020840152600160a01b90910460ff16151560409092019190915260a08201519192508391166111de5760405163cd6f4a4f60e01b8152600401610c1291815260200190565b50919050565b60006111ee613ad9565b805490915060ff600160401b82041615906001600160401b03166000811580156112155750825b90506000826001600160401b031660011480156112315750303b155b90508115801561123f575080155b1561125d5760405163f92ee8a960e01b815260040160405180910390fd5b84546001600160401b0319166001178555831561128657845460ff60401b1916600160401b1785555b6001600160a01b038c1661129957600080fd5b6112a233613b02565b6112aa613b13565b6112b3876131a6565b6112bc8b61381f565b6112c58a6132d5565b6112ce89610b20565b6112d788610bc4565b6112e08661397e565b73__$7d5fcb3ae6c8ef655f31d78f0108bdc679$__63764346ff6040518163ffffffff1660e01b815260040160006040518083038186803b15801561132457600080fd5b505af4158015611338573d6000803e3d6000fd5b50505050611344612117565b6001600160a01b03168c6001600160a01b031614611365576113658c613b23565b83156113ab57845460ff60401b19168555604051600181527fc7f505b2f371ae2175ee4913f4499e1f2633a7b5936321eed1cdaeb6115181d29060200160405180910390a15b505050505050505050505050565b6113c161394a565b60008181526009602052604090205481906001600160a01b03166113fb576040516381c4951960e01b8152600401610c1291815260200190565b506000818152600960205260409081902080546001600160a01b0319169055517f104eb329a192aef26eddea07c2af5ad2587792e62b37ed4045b6ba59bc5540fc90610cc89083815260200190565b61145261394a565b6001600160a01b038116600090815260076020526040902054819060ff1661148e576040516321ac7c5f60e01b8152600401610c1291906148c8565b506001600160a01b03811660009081526007602052604090819020805460ff19169055517f56070b80bd617fcd2f7a284861edb488830a38f9dedcd77b2cb2f4eac17743e790610cc89083906148c8565b600b60205260009081526040902080546114f890615110565b80601f016020809104026020016040519081016040528092919081815260200182805461152490615110565b80156115715780601f1061154657610100808354040283529160200191611571565b820191906000526020600020905b81548152906001019060200180831161155457829003601f168201915b505050505081565b6000611583613a2e565b8160005b818110156115c5576115b18585838181106115a4576115a4615144565b9050602002013533613b46565b6115bb9084615170565b9250600101611587565b50600082116115e7576040516312d37ee560e31b815260040160405180910390fd5b50610b1a613ac8565b6115f861394a565b6040516001623f026d60e01b0319815260040160405180910390fd5b600080600b8161162a60a0860160808701614c68565b60ff1660ff168152602001908152602001600020805461164990615110565b90501161165557600080fd5b60006012816116676020860186615183565b600381111561167857611678614943565b600381111561168957611689614943565b815260208101919091526040908101600020815180830190925260028282826020028201916000905b82829054906101000a900463ffffffff1663ffffffff16815260200190600401906020826003010492830192600103820291508084116116b25790505050604080516101e0810182526018548152601954602080830191909152601a5492820192909252601b546060820152601c546080820152601d5460a0820152601e5460c0820152601f546001600160a01b03811660e083015261ffff600160a01b82048116610100840152600160b01b82048116610120840152600160c01b82048116610140840152600160d01b82048116610160840152600160e01b90910416610180820152815463ffffffff8082166101a0840152600160201b909104166101c082015294955073__$7d5fcb3ae6c8ef655f31d78f0108bdc679$__9350634ff2c9f592508591506117e590880188615183565b60038111156117f6576117f6614943565b846101a00151856101c001516040518563ffffffff1660e01b815260040161182194939291906151c7565b60006040518083038186803b15801561183957600080fd5b505af415801561184d573d6000803e3d6000fd5b5050505073__$7d5fcb3ae6c8ef655f31d78f0108bdc679$__634ae7776b6018601560008054906101000a90046001600160a01b03166001600160a01b0316639f0f874a6040518163ffffffff1660e01b8152600401602060405180830381865afa1580156118c0573d6000803e3d6000fd5b505050506040513d601f19601f820116820180604052508101906118e491906151fa565b604080516001600160e01b031960e087901b16815261191494939291899160208d0135918d013590600401615213565b602060405180830381865af4158015611931573d6000803e3d6000fd5b505050506040513d601f19601f8201168201806040525081019061195591906151fa565b949350505050565b33806119676132ca565b6001600160a01b031614611990578060405163118cdaa760e01b8152600401610c1291906148c8565b610ce481613b23565b6119a161394a565b6001600160a01b038116158015906119d357506000828152600a60205260409020546001600160a01b03828116911614155b82906119f5576040516381c4951960e01b8152600401610c1291815260200190565b506000828152600a602052604080822080546001600160a01b0319166001600160a01b0385169081179091559051909184917f53661e3e12f23eea1e322a5352171ad3e4407d1394f869f53bb148c27e00908a9190a35050565b6000546001600160a01b03163314611a7a5760405163b56831db60e01b815260040160405180910390fd5b6000818152600d602052604090205460ff166001816006811115611aa057611aa0614943565b14611ac557816001826040516337e1404160e01b8152600401610c129392919061532d565b6000828152600d60205260409020805460ff19166002179055601554611aeb9042615170565b6000838152600e602052604080822092909255905183917fc44405af9078047712501f519e1fb900c2896c62b488336f84529c72ae16e6f191a281600080516020615f9083398151915260016002604051611b4792919061534e565b60405180910390a25050565b6000611b5d613a2e565b6000611b6887610f62565b6000888152600d602052604090205490915060ff166004816006811115611b9157611b91614943565b1488600483909192611bb9576040516337e1404160e01b8152600401610c129392919061532d565b5050506000888152600e60209081526040918290208251606081018452815481526001820154928101929092526002015491810182905290899042811015611c16576040516308f3034360e31b8152600401610c12929190615369565b50506000898152600860205260409020600c01611c34888a836153f0565b506000898152600d60205260409020805460ff191660051790556101c083015115611dfc5784611c7757604051631eae1a4d60e31b815260040160405180910390fd5b610100830151600054604051630651434d60e51b8152600481018c90526001600160a01b039283169263073ce0eb928d9291169063ca2869a090602401602060405180830381865afa158015611cd1573d6000803e3d6000fd5b505050506040513d601f19601f82011682018060405250810190611cf591906151fa565b600054604051630a01649360e41b8152600481018f90526001600160a01b039091169063a016493090602401600060405180830381865afa158015611d3e573d6000803e3d6000fd5b505050506040513d6000823e601f3d908101601f19168201604052611d669190810190615572565b8761016001518861014001518e8e604051611d829291906155a6565b6040519081900381206001600160e01b031960e089901b168252611db19695949392918f908f90600401615624565b602060405180830381865afa158015611dce573d6000803e3d6000fd5b505050506040513d601f19601f82011682018060405250810190611df29190615677565b5060019350611e01565b600193505b611e0a89613c0d565b887f3a140076c461ebc41d74833ae0ee8bbc8079a135a63392098cd381e84350b69b89898989604051611e409493929190615694565b60405180910390a288600080516020615f9083398151915260046005604051611e6a92919061534e565b60405180910390a2505050611e7d613ac8565b95945050505050565b6000546001600160a01b03163314611eb15760405163b56831db60e01b815260040160405180910390fd5b6000828152600860209081526040808320600d9092529091205460ff166002816006811115611ee257611ee2614943565b14611f0757836002826040516337e1404160e01b8152600401610c129392919061532d565b6000848152600d6020526040808220805460ff19166003179055600a84018590555185917f11df18edb9bc9cd90a79068e0e208b630202148643d797d6150e7bacb733e63c91a283600080516020615f9083398151915260026003604051611f7092919061534e565b60405180910390a250505050565b611f8661394a565b80611f9057600080fd5b60ff83166000908152600b602052604081208054611fad90615110565b80601f0160208091040260200160405190810160405280929190818152602001828054611fd990615110565b80156120265780601f10611ffb57610100808354040283529160200191612026565b820191906000526020600020905b81548152906001019060200180831161200957829003601f168201915b5050505060ff86166000908152600b6020526040902091925061204c90508385836153f0565b508051600003612096577f6e4a4ea7f38fc775e616080b155744337e6216848e886a69c918b4ab84da2195848484604051612089939291906156c6565b60405180910390a16120d4565b7f6eec8996f69c99beec779c1669adc196781eac49caf298b71ae09c7ebc6467ce848285856040516120cb94939291906156e3565b60405180910390a15b50505050565b6120e261394a565b60248190556040518181527f626be19f07270f3ff739849263a0cfde670d32d05f3ce9419313c38e014ed24190602001610cc8565b600080612122614016565b546001600160a01b031692915050565b61215660405180606001604052806000815260200160008152602001600081525090565b5060408051606081018252601554815260165460208201526017549181019190915290565b6000818152600d602052604090205460ff1660068160068111156121a1576121a1614943565b1482906121c457604051637cb2d48360e11b8152600401610c1291815260200190565b506000828152600c602052604090205482816121f6576040516345ba89d560e11b8152600401610c1291815260200190565b506000838152600c602052604081208190556122118461403a565b6000858152601160205260409020546002549192506001600160a01b039081169161223f9183911685613a64565b60025460405163da19b69760e01b81526001600160a01b039091169063da19b69790612275908890879087908790600401615712565b600060405180830381600087803b15801561228f57600080fd5b505af11580156122a3573d6000803e3d6000fd5b50505050847f5297818f48a66292b8b3e2caab83eec531b669bb20807fd38cf006adb2a073178484516040516122da929190615369565b60405180910390a25050505050565b61230d60405180606001604052806000815260200160008152602001600081525090565b506000908152600e6020908152604091829020825160608101845281548152600182015492810192909252600201549181019190915290565b6000818152600d6020526040812054819060ff16612364848261412d565b50909590945092505050565b600061237a613a2e565b600061238587610f62565b6000888152600d6020908152604080832054600e835292819020815160608101835281548152600182015493810193909352600201549082015291925060ff169073__$7d5fcb3ae6c8ef655f31d78f0108bdc679$__631a2dd41d8a8460068111156123f3576123f3614943565b60208501516060880151600160200201516101608901516040516001600160e01b031960e088901b168152600481019590955260ff90931660248501526044840191909152606483015260848201524260a482015260c40160006040518083038186803b15801561246357600080fd5b505af4158015612477573d6000803e3d6000fd5b505050506000888860405161248d9291906155a6565b604080519182900390912060008c815260086020908152838220600b01839055600d905291909120805460ff191660041790556017549091506124d09042615170565b60008b8152600e6020526040908190206002019190915560a08501519051632f0e1bbf60e01b81526001600160a01b0390911690632f0e1bbf9061251e908d9085908c908c9060040161574a565b6020604051808303816000875af115801561253d573d6000803e3d6000fd5b505050506040513d601f19601f820116820180604052508101906125619190615677565b945088888661258557604051632f9f8ab960e01b8152600401610c12929190615774565b5050897f7cc27e4a5626cbc4f8ba1a927b0448de55e6a114bc87660331270c5109ade0718a8a6040516125b9929190615774565b60405180910390a289600080516020615f90833981519152600360046040516125e392919061534e565b60405180910390a250505050611e7d613ac8565b6125ff61394a565b816001600160a01b0381166126285760405163eddf07f560e01b8152600401610c1291906148c8565b506001600160a01b038216600081815260216020908152604091829020805460ff19168515159081179091559151918252600080516020615fd08339815191529101611b47565b6000612679613a2e565b6126838233613b46565b9050600081116126a6576040516312d37ee560e31b815260040160405180910390fd5b610dad613ac8565b6000546001600160a01b03163314806126d157506003546001600160a01b031633145b6126ee57604051639e75a8b560e01b815260040160405180910390fd5b60008160ff161180156127055750600d60ff821611155b61270e57600080fd5b61272c828260ff16600d81111561272757612727614943565b614161565b5050565b600061273a6146b1565b612742613a2e565b6004546001600160a01b031660008181526021602052604090205460ff1661277e576040516335b99e4360e11b8152600401610c1291906148c8565b5060006012816127916020870187615183565b60038111156127a2576127a2614943565b60038111156127b3576127b3614943565b815260208101919091526040908101600020815180830190925260028282826020028201916000905b82829054906101000a900463ffffffff1663ffffffff16815260200190600401906020826003010492830192600103820291508084116127dc57905050505050509050600760008560600160208101906128369190614885565b6001600160a01b0316815260208101919091526040016000205460ff166128636080860160608701614885565b906128825760405163295a6a6f60e11b8152600401610c1291906148c8565b50600061288e85611614565b6016546017546005546040516355eb7bc760e11b815293945073__$7d5fcb3ae6c8ef655f31d78f0108bdc679$__9363abd6f78e936128df9360208c0193429389906101008f013590600401615788565b60006040518083038186803b1580156128f757600080fd5b505af415801561290b573d6000803e3d6000fd5b505060068054965086925090506000612923836157c2565b91905055506000448560405160200161293d929190615369565b60408051808303601f1901815291815281516020928301206000888152600c84528281208690556004546011855283822080546001600160a01b039283166001600160a01b031991821617909155601f8054601388528685208054600160b01b90920461ffff1661ffff19909216919091179055546014875285842080549190931690821617909155600d8552838220805460ff191660011790556010909452829020805490931633179092556016549192506129fd9190880135615170565b6000868152600e6020908152604090912060010191909155818552612a2490870187615183565b84602001906003811115612a3a57612a3a614943565b90816003811115612a4d57612a4d614943565b905250426040808601919091528051808201825290602088019060029083908390808284376000920191909152505050606080860191909152612a969060808801908801614885565b6001600160a01b031660a080860191909152612ab790870160808801614c68565b60ff1660c080860191909152612acf908701876157db565b8080601f01602080910402602001604051908101604052809392919081815260200183838082843760009201919091525050505060e080860191909152612b1d906101008801908801615821565b15156101c0850152336101a08501819052600454612b48916001600160a01b0390911690308561428f565b6000600b81612b5d60a08a0160808b01614c68565b60ff1660ff1681526020019081526020016000208054612b7c90615110565b80601f0160208091040260200160405190810160405280929190818152602001828054612ba890615110565b8015612bf55780601f10612bca57610100808354040283529160200191612bf5565b820191906000526020600020905b815481529060010190602001808311612bd857829003601f168201915b505050505090506000815111612c0a57600080fd5b6000612c1c6080890160608a01614885565b6001600160a01b031663fefd9a8b888585612c3a60a08e018e6157db565b8e8060c00190612c4a91906157db565b6040518863ffffffff1660e01b8152600401612c6c979695949392919061583e565b6020604051808303816000875af1158015612c8b573d6000803e3d6000fd5b505050506040513d601f19601f82011682018060405250810190612caf91906151fa565b6000818152600960205260409020549091506001600160a01b03168181612cec576040516381c4951960e01b8152600401610c1291815260200190565b506000828152600a60205260409020546001600160a01b03168281612d27576040516381c4951960e01b8152600401610c1291815260200190565b50608088018390526001600160a01b038083166101008a0152811661012089015260008981526008602090815260409091208951815590890151600180830180548c94939260ff199190911690836003811115612d8657612d86614943565b021790555060408201518160020155606082015181600301906002612dac929190614731565b506080820151600582015560a082015160068201805460c085015160ff16600160a01b026001600160a81b03199091166001600160a01b039093169290921791909117905560e08201516007820190612e059082615893565b506101008201516008820180546001600160a01b039283166001600160a01b031991821617909155610120840151600984018054919093169116179055610140820151600a820155610160820151600b820155610180820151600c820190612e6d9082615893565b506101a0820151600d90910180546101c0909301511515600160a01b026001600160a81b03199093166001600160a01b03928316179290921790915560005460405163291a691b60e01b815291169063291a691b90612ed4908c9089908c9060040161594b565b6020604051808303816000875af1158015612ef3573d6000803e3d6000fd5b505050506040513d601f19601f82011682018060405250810190612f179190615677565b612f3457604051630d8dbe2560e01b815260040160405180910390fd5b612f4460808b0160608c01614885565b6001600160a01b03167f5090c9764b5cd13df7afc0013f733dfbe6eaf1b6ddc22a5e291fa387efd4c15e8a8a604051612f7e929190615055565b60405180910390a288600080516020615f9083398151915260006001604051612fa892919061534e565b60405180910390a250505050505050612fbf613ac8565b915091565b612fcc61394a565b6001600160a01b038116612fdf57600080fd5b600380546001600160a01b0319166001600160a01b0383169081179091556040517f4ccc8ed483c7c44c3602c3c38afc2c014a8f1d2dc210dfe58ebeeeead230f8e090600090a250565b6003546001600160a01b03163314613054576040516357d6948d60e11b815260040160405180910390fd5b60025460405163c1ab0f1f60e01b81526001600160a01b039091169063c1ab0f1f906130869085908590600401615369565b600060405180830381600087803b1580156130a057600080fd5b505af11580156130b4573d6000803e3d6000fd5b50505050817f4f41a3b0a032ebcae925f2ace77d507435840ca4b2dbaffdd7723fa8d72ee54282604051611b4791815260200190565b6130f261394a565b6001600160a01b0381161580159061312457506000828152600960205260409020546001600160a01b03828116911614155b8290613146576040516381c4951960e01b8152600401610c1291815260200190565b5060008281526009602090815260409182902080546001600160a01b0319166001600160a01b03851617905590518381527ff4041a3f914dac3bc9bf5f003ba41f28dbb84abe42f4e07c76266f5c8ceecb69910160405180910390a15050565b6131ae61394a565b6000811180156131c257506301e133808111155b81906131e4576040516313b783af60e21b8152600401610c1291815260200190565b5060058190556040518181527fba0716ba1ee2ea8ecc4c64119b4537cdb42a99d82acf92af5b87607b8b52355290602001610cc8565b61322261394a565b60405163de5fa95560e01b815273__$7d5fcb3ae6c8ef655f31d78f0108bdc679$__9063de5fa95590613259908490600401615ace565b60006040518083038186803b15801561327157600080fd5b505af4158015613285573d6000803e3d6000fd5b5050505080601881816132989190615b04565b9050507fbf3951313e980027eb48ce363fdb707286195ec6a0f802ac153927cf929c3fc681604051610cc89190615ace565b6000806121226142c8565b6132dd61394a565b6001600160a01b0381161580159061330357506001546001600160a01b03828116911614155b8190613323576040516320252f0b60e01b8152600401610c1291906148c8565b50600180546001600160a01b0319166001600160a01b0383161790556040517fad4055f18cdad6f4bdd71afe3a72cbeee964217943e1bde38f138289e981a9a790610cc89083906148c8565b61337761394a565b604080516101e0810182526018548152601954602080830191909152601a5482840152601b546060830152601c546080830152601d5460a0830152601e5460c0830152601f546001600160a01b03811660e084015261ffff600160a01b82048116610100850152600160b01b82048116610120850152600160c01b82048116610140850152600160d01b82048116610160850152600160e01b909104166101808301525463ffffffff8082166101a08401819052600160201b909204166101c08301819052925163588370a960e11b8152919273__$7d5fcb3ae6c8ef655f31d78f0108bdc679$__9263b106e15292613474928792600401615cc4565b60006040518083038186803b15801561348c57600080fd5b505af41580156134a0573d6000803e3d6000fd5b5050505081601260008560038111156134bb576134bb614943565b60038111156134cc576134cc614943565b815260208101919091526040016000206134e791600261476f565b508260038111156134fa576134fa614943565b7f8b56fae526eee054f0849759a99fc7d4ff3823824ebf097a56f7d78adb6b34fa836040516135299190615d1f565b60405180910390a2505050565b61353e61394a565b60006135486142c8565b80546001600160a01b0319166001600160a01b038416908117825590915061356e612117565b6001600160a01b03167f38d16b8cac22d99fc7c124b9cd0de2d3fa1faef420bfe791d8c362d765e2270060405160405180910390a35050565b6000818152600d602052604081205460ff1673__$7d5fcb3ae6c8ef655f31d78f0108bdc679$__637e262a6f848360068111156135e6576135e6614943565b6040516001600160e01b031960e085901b168152600481019290925260ff16602482015260440160006040518083038186803b15801561362557600080fd5b505af4158015613639573d6000803e3d6000fd5b5050505060008061364a858461412d565b90955090925090508161367357604051639f65d93560e01b815260048101869052602401610c12565b60245480156137755760006136888284615170565b905080421080156136b057506000878152601060205260409020546001600160a01b03163314155b80156136d557506136bf612117565b6001600160a01b0316336001600160a01b031614155b8015613751575060005460405163a8a4d69b60e01b8152600481018990523360248201526001600160a01b039091169063a8a4d69b90604401602060405180830381865afa15801561372b573d6000803e3d6000fd5b505050506040513d601f19601f8201168201806040525081019061374f9190615677565b155b156137735786816040516324d4b88f60e21b8152600401610c12929190615369565b505b6000868152600d6020526040902080546006919060ff191660018302179055506000868152600f60205260409020805486919060ff1916600183600d8111156137c0576137c0614943565b021790555085600080516020615f908339815191528560066040516137e692919061534e565b60405180910390a285600080516020615fb0833981519152858760405161380e929190615d60565b60405180910390a250505050919050565b61382761394a565b6001600160a01b0381161580159061384d57506000546001600160a01b03828116911614155b819061386d576040516375ac4eb760e11b8152600401610c1291906148c8565b50600080546001600160a01b0319166001600160a01b0383161790556040517f80052b810d39120cf6c976cca504a21703f585521dc7a41c6d241090e6c579b690610cc89083906148c8565b6001600160a01b038116600090815260076020526040902054819060ff16156138f65760405163b29d459560e01b8152600401610c1291906148c8565b506001600160a01b03811660009081526007602052604090819020805460ff19166001179055517fb8d368517268f297fff00825d67d098763117d061360d31027be5b2e1a59d46790610cc89083906148c8565b33613953612117565b6001600160a01b03161461397c573360405163118cdaa760e01b8152600401610c1291906148c8565b565b6040516336523a5f60e01b815273__$7d5fcb3ae6c8ef655f31d78f0108bdc679$__906336523a5f906139ba90849062278d0090600401615d94565b60006040518083038186803b1580156139d257600080fd5b505af41580156139e6573d6000803e3d6000fd5b5050508135601555506020810135601655604080820135601755517f7e86ba16b805e2835af5c5b7aa5a942ced8bcc1fb95a05fbe42dae3862350a1690610cc8908390615daf565b6000613a386142ec565b805490915060011901613a5e57604051633ee5aeb560e01b815260040160405180910390fd5b60029055565b6040516001600160a01b03838116602483015260448201839052613ac391859182169063a9059cbb906064015b604051602081830303815290604052915060e01b6020820180516001600160e01b038381831617835250505050614310565b505050565b6000613ad26142ec565b6001905550565b6000807ff0c57e16840df040f15088dc2f81fe391c3923bec73e23a9662efc9c229c6a00610b1a565b613b0a614378565b610ce48161439d565b613b1b614378565b61397c6143cf565b6000613b2d6142c8565b80546001600160a01b0319168155905061272c826143d7565b60008281526022602090815260408083206001600160a01b038516845290915281205490819003613b7957506000610b1a565b60008381526022602090815260408083206001600160a01b03808716855290835281842084905586845260119092529091205416613bb8818484613a64565b806001600160a01b0316836001600160a01b0316857fd7566a1f449b7ee89a6af29f319e117c231ea862057eb65395ca2bf70283b1c885604051613bfe91815260200190565b60405180910390a45092915050565b6000805460405162beb08960e51b8152600481018490526001600160a01b03909116906317d6112090602401600060405180830381865afa158015613c56573d6000803e3d6000fd5b505050506040513d6000823e601f3d908101601f19168201604052613c7e9190810190615e1b565b5080516000848152600c60209081526040808320805490849055601190925282205493945091926001600160a01b031690829003613d23576002546040516341489f1560e01b81526001600160a01b03909116906341489f1590613cea90889088908690600401615e84565b600060405180830381600087803b158015613d0457600080fd5b505af1158015613d18573d6000803e3d6000fd5b505050505050505050565b82600003613dcb576000858152601060205260409020546001600160a01b03168015613d5d57613d5d6001600160a01b0383168285613a64565b6002546040516341489f1560e01b81526001600160a01b03909116906341489f1590613d9190899089908790600401615e84565b600060405180830381600087803b158015613dab57600080fd5b505af1158015613dbf573d6000803e3d6000fd5b50505050505050505050565b600085815260136020908152604080832054601490925282205461ffff909116906001600160a01b03168115801590613e0c57506001600160a01b03811615155b15613ec157612710613e2261ffff841687615eb5565b613e2c9190615ecc565b92508215613ec1576001600160a01b03808216600090815260236020908152604080832093881683529290529081208054859290613e6b908490615170565b92505081905550836001600160a01b0316816001600160a01b0316897f62d886e26db625296d628b1cf7f47f83051f9d83e216a8ad38041673a2058f9a86604051613eb891815260200190565b60405180910390a45b6000613ecd8487615eee565b60405160016233c60b60e11b031981526004810182905260248101899052604481018b905290915060009073__$7d5fcb3ae6c8ef655f31d78f0108bdc679$__9063ff9873ea90606401600060405180830381865af4158015613f34573d6000803e3d6000fd5b505050506040513d6000823e601f3d908101601f19168201604052613f5c9190810190615f01565b9050613f6a8a8a8389614433565b897fac9fe8ad7f55eac03284399116ecafc104f10459773f4cdf47063c46e5be335a8a83604051613f9c929190615f35565b60405180910390a26002546040516341489f1560e01b81526001600160a01b03909116906341489f1590613fd8908d908d908b90600401615e84565b600060405180830381600087803b158015613ff257600080fd5b505af1158015614006573d6000803e3d6000fd5b5050505050505050505050505050565b7f9016d09d72d40fdae2fd8ceac6b6234c7706214fd39c1cd1e609a0528c19930090565b6000818152600f602052604090205460609060ff16600181600d81111561406357614063614943565b14806140805750600281600d81111561407e5761407e614943565b145b156140b95760005b6040519080825280602002602001820160405280156140b1578160200160208202803683370190505b509392505050565b60005460405162beb08960e51b8152600481018590526001600160a01b03909116906317d6112090602401600060405180830381865afa92505050801561412257506040513d6000823e601f3d908101601f1916820160405261411f9190810190615e1b565b60015b6140b1576000614088565b600080600061413c8585614548565b92509050801580159061414e57508042115b92508261415a57600091505b9250925092565b6000828152600d602052604090205460ff1673__$7d5fcb3ae6c8ef655f31d78f0108bdc679$__637e262a6f848360068111156141a0576141a0614943565b6040516001600160e01b031960e085901b168152600481019290925260ff16602482015260440160006040518083038186803b1580156141df57600080fd5b505af41580156141f3573d6000803e3d6000fd5b5050506000848152600d6020526040902080546006925060ff191660018302179055506000838152600f60205260409020805483919060ff1916600183600d81111561424157614241614943565b021790555082600080516020615f9083398151915282600660405161426792919061534e565b60405180910390a282600080516020615fb08339815191528284604051613529929190615d60565b6040516001600160a01b0384811660248301528381166044830152606482018390526120d49186918216906323b872dd90608401613a91565b7f237e158222e3e6968b72b9db0d8043aacf074ad9f650f0d1606b4d82ee432c0090565b7f9b779b17422d0df92223018b32b4d1fa46e071723d6817e2486d003becc55f0090565b600080602060008451602086016000885af180614333576040513d6000823e3d81fd5b50506000513d9150811561434b578060011415614358565b6001600160a01b0384163b155b156120d45783604051635274afe760e01b8152600401610c1291906148c8565b614380614697565b61397c57604051631afcd79f60e31b815260040160405180910390fd5b6143a5614378565b6001600160a01b038116611990576000604051631e4fbdf760e01b8152600401610c1291906148c8565b613ac8614378565b60006143e1614016565b80546001600160a01b038481166001600160a01b031983168117845560405193945091169182907f8be0079c531659141344cd1fd0a4f28419497f9722a3daafe3b4186f6b6457e090600090a3505050565b825160005b8181101561454057600084828151811061445457614454615144565b602002602001015190508060000361446c5750614538565b6000878152602260205260408120875183929089908690811061449157614491615144565b60200260200101516001600160a01b03166001600160a01b0316815260200190815260200160002060008282546144c89190615170565b92505081905550836001600160a01b03168683815181106144eb576144eb615144565b60200260200101516001600160a01b0316887fdf636f3c38711e6702b8ef7055cc13b79e969206c537757c1fee37dbbc71df748460405161452e91815260200190565b60405180910390a4505b600101614438565b505050505050565b600080600183600681111561455f5761455f614943565b036145dc57600054604051632800d82960e01b8152600481018690526001600160a01b0390911690632800d82990602401602060405180830381865afa1580156145ad573d6000803e3d6000fd5b505050506040513d601f19601f820116820180604052508101906145d191906151fa565b600191509150614690565b6000848152600e6020908152604091829020825160608101845281548152600182015492810192909252600290810154928201929092529084600681111561462657614626614943565b036146375751915060039050614690565b600384600681111561464b5761464b614943565b0361465f5760200151915060069050614690565b600484600681111561467357614673614943565b0361468757604001519150600a9050614690565b60008092509250505b9250929050565b60006146a1613ad9565b54600160401b900460ff16919050565b604080516101e08101909152600080825260208201908152602001600081526020016146db61480c565b81526000602082018190526040820181905260608083018290526080830181905260a0830182905260c0830182905260e08301829052610100830182905261012083015261014082018190526101609091015290565b826002810192821561475f579160200282015b8281111561475f578251825591602001919060010190614744565b5061476b92915061482a565b5090565b60018301918390821561475f5791602002820160005b838211156147cf57833563ffffffff1683826101000a81548163ffffffff021916908363ffffffff1602179055509260200192600401602081600301049283019260010302614785565b80156147ff5782816101000a81549063ffffffff02191690556004016020816003010492830192600103026147cf565b505061476b92915061482a565b60405180604001604052806002906020820280368337509192915050565b5b8082111561476b576000815560010161482b565b60006020828403121561485157600080fd5b81356001600160e01b03198116811461486957600080fd5b9392505050565b6001600160a01b0381168114610ce457600080fd5b60006020828403121561489757600080fd5b813561486981614870565b6000602082840312156148b457600080fd5b5035919050565b6001600160a01b03169052565b6001600160a01b0391909116815260200190565b803560048110610dad57600080fd5b600080604083850312156148fe57600080fd5b614907836148dc565b946020939093013593505050565b6000606082840312156111de57600080fd5b60006060828403121561493957600080fd5b6148698383614915565b634e487b7160e01b600052602160045260246000fd5b600e811061496957614969614943565b9052565b60208101610b1a8284614959565b6004811061496957614969614943565b6000815180845260005b818110156149b157602081850181015186830182015201614995565b506000602082860101526020601f19601f83011685010191505092915050565b8e81526149e1602082018f61497b565b8c60408201528b60608201526149fa608082018c6148bb565b60ff8a1660a08201526101c060c08201526000614a1b6101c083018b61498b565b614a2860e084018b6148bb565b614a3661010084018a6148bb565b8761012084015286610140840152828103610160840152614a57818761498b565b915050614a686101808301856148bb565b8215156101a08301529f9e505050505050505050505050505050565b8060005b60028110156120d4578151845260209384019390910190600101614a88565b8051825260006020820151614abf602085018261497b565b50604082015160408401526060820151614adc6060850182614a84565b50608082015160a084015260a0820151614af960c08501826148bb565b5060c082015160ff811660e08501525060e0820151610200610100850152614b2561020085018261498b565b9050610100830151614b3b6101208601826148bb565b50610120830151614b506101408601826148bb565b506101408301516101608501526101608301516101808501526101808301518482036101a0860152614b82828261498b565b9150506101a0830151614b996101c08601826148bb565b506101c08301518015156101e08601526140b1565b6020815260006148696020830184614aa7565b8035610dad81614870565b6000806000806000806000610120888a031215614be857600080fd5b8735614bf381614870565b96506020880135614c0381614870565b95506040880135614c1381614870565b94506060880135614c2381614870565b93506080880135614c3381614870565b925060a08801359150614c498960c08a01614915565b905092959891949750929550565b803560ff81168114610dad57600080fd5b600060208284031215614c7a57600080fd5b61486982614c57565b602081526000614869602083018461498b565b60008060208385031215614ca957600080fd5b82356001600160401b03811115614cbf57600080fd5b8301601f81018513614cd057600080fd5b80356001600160401b03811115614ce657600080fd5b8560208260051b8401011115614cfb57600080fd5b6020919091019590945092505050565b600060208284031215614d1d57600080fd5b81356001600160401b03811115614d3357600080fd5b8201610120818503121561486957600080fd5b60008060408385031215614d5957600080fd5b823591506020830135614d6b81614870565b809150509250929050565b60008083601f840112614d8857600080fd5b5081356001600160401b03811115614d9f57600080fd5b60208301915083602082850101111561469057600080fd5b600080600080600060608688031215614dcf57600080fd5b8535945060208601356001600160401b03811115614dec57600080fd5b614df888828901614d76565b90955093505060408601356001600160401b03811115614e1757600080fd5b614e2388828901614d76565b969995985093965092949392505050565b60008060408385031215614e4757600080fd5b50508035926020909101359150565b600080600060408486031215614e6b57600080fd5b614e7484614c57565b925060208401356001600160401b03811115614e8f57600080fd5b614e9b86828701614d76565b9497909650939450505050565b81518152602080830151908201526040808301519082015260608101610b1a565b8215158152604081016148696020830184614959565b60006101e082019050825182526020830151602083015260408301516040830152606083015160608301526080830151608083015260a083015160a083015260c083015160c083015260e0830151614f3a60e08401826148bb565b50610100830151614f5261010084018261ffff169052565b50610120830151614f6a61012084018261ffff169052565b50610140830151614f8261014084018261ffff169052565b50610160830151614f9a61016084018261ffff169052565b50610180830151614fb261018084018261ffff169052565b506101a0830151614fcc6101a084018263ffffffff169052565b506101c0830151614fe66101c084018263ffffffff169052565b5092915050565b8015158114610ce457600080fd5b6000806040838503121561500e57600080fd5b823561501981614870565b91506020830135614d6b81614fed565b6000806040838503121561503c57600080fd5b8235915061504c60208401614c57565b90509250929050565b8281526040602082015260006119556040830184614aa7565b6007811061496957614969614943565b60208101610b1a828461506e565b60006101e08284031280156150a057600080fd5b509092915050565b600080604083850312156150bb57600080fd5b82356150c681614870565b91506020830135614d6b81614870565b600080606083850312156150e957600080fd5b6150f2836148dc565b91508360608401111561510457600080fd5b50926020919091019150565b600181811c9082168061512457607f821691505b6020821081036111de57634e487b7160e01b600052602260045260246000fd5b634e487b7160e01b600052603260045260246000fd5b634e487b7160e01b600052601160045260246000fd5b80820180821115610b1a57610b1a61515a565b60006020828403121561519557600080fd5b614869826148dc565b8060005b60028110156120d457815163ffffffff168452602093840193909101906001016151a2565b60a081016151d5828761519e565b60ff94909416604082015263ffffffff92831660608201529116608090910152919050565b60006020828403121561520c57600080fd5b5051919050565b8654815260018701546020820152600287015460408201526003870154606082015260048701546080820152600587015460a0820152600687015460c082015260078701546102e082019061527460e084016001600160a01b0383166148bb565b60a081901c61ffff1661010084015260b081901c61ffff1661012084015260c081901c61ffff1661014084015260d081901c61ffff1661016084015260e081901c61ffff1661018084015250600888015463ffffffff81166101a0840152602081901c63ffffffff166101c08401525086546101e0830152600187015461020083015260028701546102208301528561024083015261531761026083018661519e565b6102a08201939093526102c00152949350505050565b83815260608101615341602083018561506e565b611955604083018461506e565b6040810161535c828561506e565b614869602083018461506e565b918252602082015260400190565b634e487b7160e01b600052604160045260246000fd5b601f821115613ac357806000526020600020601f840160051c810160208510156153b45750805b601f840160051c820191505b818110156153d457600081556001016153c0565b5050505050565b600019600383901b1c191660019190911b1790565b6001600160401b0383111561540757615407615377565b61541b836154158354615110565b8361538d565b6000601f84116001811461544957600085156154375750838201355b61544186826153db565b8455506153d4565b600083815260209020601f19861690835b8281101561547a578685013582556020948501946001909201910161545a565b50868210156154975760001960f88860031b161c19848701351681555b505060018560011b0183555050505050565b604051601f8201601f191681016001600160401b03811182821017156154d1576154d1615377565b604052919050565b60006001600160401b038211156154f2576154f2615377565b5060051b60200190565b600082601f83011261550d57600080fd5b815161552061551b826154d9565b6154a9565b8082825260208201915060208360051b86010192508583111561554257600080fd5b602085015b8381101561556857805161555a81614870565b835260209283019201615547565b5095945050505050565b60006020828403121561558457600080fd5b81516001600160401b0381111561559a57600080fd5b611955848285016154fc565b8183823760009101908152919050565b600081518084526020840193506020830160005b828110156155f15781516001600160a01b03168652602095860195909101906001016155ca565b5093949350505050565b81835281816020850137506000828201602090810191909152601f909101601f19169091010190565b88815287602082015260e06040820152600061564360e08301896155b6565b8760608401528660808401528560a084015282810360c08401526156688185876155fb565b9b9a5050505050505050505050565b60006020828403121561568957600080fd5b815161486981614fed565b6040815260006156a86040830186886155fb565b82810360208401526156bb8185876155fb565b979650505050505050565b60ff84168152604060208201526000611e7d6040830184866155fb565b60ff851681526060602082015260006156ff606083018661498b565b82810360408401526156bb8185876155fb565b84815283602082015260806040820152600061573160808301856155b6565b905060018060a01b038316606083015295945050505050565b84815283602082015260606040820152600061576a6060830184866155fb565b9695505050505050565b6020815260006119556020830184866155fb565b610100810160408983378760408301528660608301528560808301528460a08301528360c08301528260e083015298975050505050505050565b6000600182016157d4576157d461515a565b5060010190565b6000808335601e198436030181126157f257600080fd5b8301803591506001600160401b0382111561580c57600080fd5b60200191503681900382131561469057600080fd5b60006020828403121561583357600080fd5b813561486981614fed565b87815286602082015260a06040820152600061585d60a083018861498b565b82810360608401526158708187896155fb565b905082810360808401526158858185876155fb565b9a9950505050505050505050565b81516001600160401b038111156158ac576158ac615377565b6158c0816158ba8454615110565b8461538d565b6020601f8211600181146158ee57600083156158dc5750848201515b6158e684826153db565b8555506153d4565b600084815260208120601f198516915b8281101561591e57878501518255602094850194600190920191016158fe565b508482101561593c5786840151600019600387901b60f8161c191681555b50505050600190811b01905550565b8381526020810183905260808101604082018360005b600281101561598657815163ffffffff16835260209283019290910190600101615961565b505050949350505050565b61ffff81168114610ce457600080fd5b8035610dad81615991565b63ffffffff81168114610ce457600080fd5b8035610dad816159ac565b803582526020808201359083015260408082013590830152606080820135908301526080808201359083015260a0808201359083015260c08082013590830152615a1560e08201614bc1565b615a2260e08401826148bb565b50615a3061010082016159a1565b61ffff16610100830152615a4761012082016159a1565b61ffff16610120830152615a5e61014082016159a1565b61ffff16610140830152615a7561016082016159a1565b61ffff16610160830152615a8c61018082016159a1565b61ffff16610180830152615aa36101a082016159be565b63ffffffff166101a0830152615abc6101c082016159be565b63ffffffff81166101c0840152505050565b6101e08101610b1a82846159c9565b60008135610b1a81614870565b60008135610b1a81615991565b60008135610b1a816159ac565b813581556020820135600182015560408201356002820155606082013560038201556080820135600482015560a0820135600582015560c0820135600682015560078101615b74615b5760e08501615add565b82546001600160a01b0319166001600160a01b0391909116178255565b615ba4615b846101008501615aea565b82805461ffff60a01b191660a09290921b61ffff60a01b16919091179055565b615bd4615bb46101208501615aea565b82805461ffff60b01b191660b09290921b61ffff60b01b16919091179055565b615c04615be46101408501615aea565b82805461ffff60c01b191660c09290921b61ffff60c01b16919091179055565b615c34615c146101608501615aea565b82805461ffff60d01b191660d09290921b61ffff60d01b16919091179055565b615c64615c446101808501615aea565b82805461ffff60e01b191660e09290921b61ffff60e01b16919091179055565b5060088101615c90615c796101a08501615af7565b825463ffffffff191663ffffffff91909116178255565b613ac3615ca06101c08501615af7565b82805463ffffffff60201b191660209290921b63ffffffff60201b16919091179055565b60808101818560005b6002811015615cfc578135615ce1816159ac565b63ffffffff1683526020928301929190910190600101615ccd565b50505063ffffffff8416604083015263ffffffff83166060830152949350505050565b60408101818360005b6002811015615d57578135615d3c816159ac565b63ffffffff1683526020928301929190910190600101615d28565b50505092915050565b60408101615d6e828561506e565b6148696020830184614959565b8035825260208082013590830152604090810135910152565b60808101615da28285615d7b565b8260608301529392505050565b60608101610b1a8284615d7b565b600082601f830112615dce57600080fd5b8151615ddc61551b826154d9565b8082825260208201915060208360051b860101925085831115615dfe57600080fd5b602085015b83811015615568578051835260209283019201615e03565b60008060408385031215615e2e57600080fd5b82516001600160401b03811115615e4457600080fd5b615e50858286016154fc565b602085015190935090506001600160401b03811115615e6e57600080fd5b615e7a85828601615dbd565b9150509250929050565b838152606060208201526000615e9d60608301856155b6565b905060018060a01b0383166040830152949350505050565b8082028115828204841417610b1a57610b1a61515a565b600082615ee957634e487b7160e01b600052601260045260246000fd5b500490565b81810381811115610b1a57610b1a61515a565b600060208284031215615f1357600080fd5b81516001600160401b03811115615f2957600080fd5b61195584828501615dbd565b604081526000615f4860408301856155b6565b828103602084015280845180835260208301915060208601925060005b81811015615f83578351835260209384019390920191600101615f65565b5090969550505050505056fe1b418a230a21d37a078bf8f16decbde8ccceacd77159371f62f0d4ea00d19967e20209be7caae6e76291267cfa711353981274bf127e94f16eb9ec44b68582bbbe98ad384b5e8da1954c30278ba3c2c981c7eafb2c01126a9d4b275f88fad77da164736f6c634300081c000a",
  "linkReferences": {
    "project/contracts/lib/EnclavePricing.sol": {
      "EnclavePricing": [
        {
          "length": 20,
          "start": 5051
        },
        {
          "length": 20,
          "start": 6291
        },
        {
          "length": 20,
          "start": 6444
        },
        {
          "length": 20,
          "start": 9377
        },
        {
          "length": 20,
          "start": 10626
        },
        {
          "length": 20,
          "start": 13066
        },
        {
          "length": 20,
          "start": 13605
        },
        {
          "length": 20,
          "start": 13972
        },
        {
          "length": 20,
          "start": 14950
        },
        {
          "length": 20,
          "start": 16339
        },
        {
          "length": 20,
          "start": 16974
        }
      ]
    }
  },
  "deployedLinkReferences": {
    "project/contracts/lib/EnclavePricing.sol": {
      "EnclavePricing": [
        {
          "length": 20,
          "start": 4834
        },
        {
          "length": 20,
          "start": 6074
        },
        {
          "length": 20,
          "start": 6227
        },
        {
          "length": 20,
          "start": 9160
        },
        {
          "length": 20,
          "start": 10409
        },
        {
          "length": 20,
          "start": 12849
        },
        {
          "length": 20,
          "start": 13388
        },
        {
          "length": 20,
          "start": 13755
        },
        {
          "length": 20,
          "start": 14733
        },
        {
          "length": 20,
          "start": 16122
        },
        {
          "length": 20,
          "start": 16757
        }
      ]
    }
  },
  "immutableReferences": {},
  "inputSourceName": "project/contracts/Enclave.sol",
  "buildInfoId": "solc-0_8_28-08316200c2ed027c032ded4708a03faf67f258a3"
}