{
  "_format": "hh3-artifact-1",
  "contractName": "Enclave",
  "sourceName": "contracts/Enclave.sol",
  "abi": [
    {
      "inputs": [],
      "stateMutability": "nonpayable",
      "type": "constructor"
    },
    {
      "inputs": [
        {
          "internalType": "uint256",
          "name": "size",
          "type": "uint256"
        },
        {
          "internalType": "uint256",
          "name": "minimum",
          "type": "uint256"
        }
      ],
      "name": "BelowMinCommitteeSize",
      "type": "error"
    },
    {
      "inputs": [
        {
          "internalType": "uint256",
          "name": "threshold",
          "type": "uint256"
        },
        {
          "internalType": "uint256",
          "name": "minimum",
          "type": "uint256"
        }
      ],
      "name": "BelowMinThreshold",
      "type": "error"
    },
    {
      "inputs": [
        {
          "internalType": "uint256",
          "name": "value",
          "type": "uint256"
        }
      ],
      "name": "BpsExceedsMax",
      "type": "error"
    },
    {
      "inputs": [
        {
          "internalType": "uint256",
          "name": "e3Id",
          "type": "uint256"
        }
      ],
      "name": "CiphertextOutputAlreadyPublished",
      "type": "error"
    },
    {
      "inputs": [
        {
          "internalType": "uint256",
          "name": "e3Id",
          "type": "uint256"
        }
      ],
      "name": "CiphertextOutputNotPublished",
      "type": "error"
    },
    {
      "inputs": [
        {
          "internalType": "uint256",
          "name": "e3Id",
          "type": "uint256"
        },
        {
          "internalType": "uint256",
          "name": "expiration",
          "type": "uint256"
        }
      ],
      "name": "CommitteeDutiesCompleted",
      "type": "error"
    },
    {
      "inputs": [],
      "name": "CommitteeSelectionFailed",
      "type": "error"
    },
    {
      "inputs": [
        {
          "internalType": "enum IEnclave.CommitteeSize",
          "name": "committeeSize",
          "type": "uint8"
        }
      ],
      "name": "CommitteeSizeNotConfigured",
      "type": "error"
    },
    {
      "inputs": [
        {
          "internalType": "enum IEnclave.CommitteeSize",
          "name": "committeeSize",
          "type": "uint8"
        }
      ],
      "name": "CommitteeSizeTooSmall",
      "type": "error"
    },
    {
      "inputs": [
        {
          "internalType": "uint256",
          "name": "e3Id",
          "type": "uint256"
        }
      ],
      "name": "E3AlreadyComplete",
      "type": "error"
    },
    {
      "inputs": [
        {
          "internalType": "uint256",
          "name": "e3Id",
          "type": "uint256"
        }
      ],
      "name": "E3AlreadyFailed",
      "type": "error"
    },
    {
      "inputs": [
        {
          "internalType": "uint256",
          "name": "e3Id",
          "type": "uint256"
        }
      ],
      "name": "E3DoesNotExist",
      "type": "error"
    },
    {
      "inputs": [
        {
          "internalType": "uint256",
          "name": "e3Id",
          "type": "uint256"
        }
      ],
      "name": "E3NotFailed",
      "type": "error"
    },
    {
      "inputs": [
        {
          "internalType": "contract IE3Program",
          "name": "e3Program",
          "type": "address"
        }
      ],
      "name": "E3ProgramNotAllowed",
      "type": "error"
    },
    {
      "inputs": [
        {
          "internalType": "uint256",
          "name": "e3Id",
          "type": "uint256"
        }
      ],
      "name": "FailureConditionNotMet",
      "type": "error"
    },
    {
      "inputs": [
        {
          "internalType": "contract IERC20",
          "name": "token",
          "type": "address"
        }
      ],
      "name": "FeeTokenNotAllowed",
      "type": "error"
    },
    {
      "inputs": [
        {
          "internalType": "uint256",
          "name": "e3Id",
          "type": "uint256"
        },
        {
          "internalType": "uint256",
          "name": "inputDeadline",
          "type": "uint256"
        }
      ],
      "name": "InputDeadlineNotReached",
      "type": "error"
    },
    {
      "inputs": [
        {
          "internalType": "contract IBondingRegistry",
          "name": "bondingRegistry",
          "type": "address"
        }
      ],
      "name": "InvalidBondingRegistry",
      "type": "error"
    },
    {
      "inputs": [
        {
          "internalType": "contract ICiphernodeRegistry",
          "name": "ciphernodeRegistry",
          "type": "address"
        }
      ],
      "name": "InvalidCiphernodeRegistry",
      "type": "error"
    },
    {
      "inputs": [
        {
          "internalType": "uint256",
          "name": "duration",
          "type": "uint256"
        }
      ],
      "name": "InvalidDuration",
      "type": "error"
    },
    {
      "inputs": [
        {
          "internalType": "bytes32",
          "name": "encryptionSchemeId",
          "type": "bytes32"
        }
      ],
      "name": "InvalidEncryptionScheme",
      "type": "error"
    },
    {
      "inputs": [
        {
          "internalType": "contract IERC20",
          "name": "feeToken",
          "type": "address"
        }
      ],
      "name": "InvalidFeeToken",
      "type": "error"
    },
    {
      "inputs": [],
      "name": "InvalidInitialization",
      "type": "error"
    },
    {
      "inputs": [
        {
          "internalType": "uint256",
          "name": "deadline",
          "type": "uint256"
        }
      ],
      "name": "InvalidInputDeadline",
      "type": "error"
    },
    {
      "inputs": [
        {
          "internalType": "uint256",
          "name": "end",
          "type": "uint256"
        }
      ],
      "name": "InvalidInputDeadlineEnd",
      "type": "error"
    },
    {
      "inputs": [
        {
          "internalType": "uint256",
          "name": "start",
          "type": "uint256"
        }
      ],
      "name": "InvalidInputDeadlineStart",
      "type": "error"
    },
    {
      "inputs": [
        {
          "internalType": "bytes",
          "name": "output",
          "type": "bytes"
        }
      ],
      "name": "InvalidOutput",
      "type": "error"
    },
    {
      "inputs": [
        {
          "internalType": "uint256",
          "name": "e3Id",
          "type": "uint256"
        },
        {
          "internalType": "enum IEnclave.E3Stage",
          "name": "expected",
          "type": "uint8"
        },
        {
          "internalType": "enum IEnclave.E3Stage",
          "name": "actual",
          "type": "uint8"
        }
      ],
      "name": "InvalidStage",
      "type": "error"
    },
    {
      "inputs": [],
      "name": "InvalidThresholdValues",
      "type": "error"
    },
    {
      "inputs": [],
      "name": "InvalidTimeoutWindow",
      "type": "error"
    },
    {
      "inputs": [
        {
          "internalType": "uint256",
          "name": "e3Id",
          "type": "uint256"
        },
        {
          "internalType": "uint256",
          "name": "gracePeriodEnds",
          "type": "uint256"
        }
      ],
      "name": "MarkE3FailedInGracePeriod",
      "type": "error"
    },
    {
      "inputs": [],
      "name": "MinSizeBelowMinThreshold",
      "type": "error"
    },
    {
      "inputs": [
        {
          "internalType": "address",
          "name": "module",
          "type": "address"
        }
      ],
      "name": "ModuleAlreadyEnabled",
      "type": "error"
    },
    {
      "inputs": [
        {
          "internalType": "address",
          "name": "module",
          "type": "address"
        }
      ],
      "name": "ModuleNotEnabled",
      "type": "error"
    },
    {
      "inputs": [
        {
          "internalType": "uint256",
          "name": "e3Id",
          "type": "uint256"
        }
      ],
      "name": "NoPaymentToRefund",
      "type": "error"
    },
    {
      "inputs": [],
      "name": "NotInitializing",
      "type": "error"
    },
    {
      "inputs": [],
      "name": "NothingToClaim",
      "type": "error"
    },
    {
      "inputs": [],
      "name": "OnlyCiphernodeRegistry",
      "type": "error"
    },
    {
      "inputs": [],
      "name": "OnlyCiphernodeRegistryOrSlashingManager",
      "type": "error"
    },
    {
      "inputs": [],
      "name": "OnlySlashingManager",
      "type": "error"
    },
    {
      "inputs": [
        {
          "internalType": "address",
          "name": "owner",
          "type": "address"
        }
      ],
      "name": "OwnableInvalidOwner",
      "type": "error"
    },
    {
      "inputs": [
        {
          "internalType": "address",
          "name": "account",
          "type": "address"
        }
      ],
      "name": "OwnableUnauthorizedAccount",
      "type": "error"
    },
    {
      "inputs": [
        {
          "internalType": "uint256",
          "name": "value",
          "type": "uint256"
        }
      ],
      "name": "PaymentRequired",
      "type": "error"
    },
    {
      "inputs": [
        {
          "internalType": "uint256",
          "name": "e3Id",
          "type": "uint256"
        }
      ],
      "name": "PlaintextOutputAlreadyPublished",
      "type": "error"
    },
    {
      "inputs": [],
      "name": "ProofRequired",
      "type": "error"
    },
    {
      "inputs": [],
      "name": "ReentrancyGuardReentrantCall",
      "type": "error"
    },
    {
      "inputs": [],
      "name": "RenounceOwnershipDisabled",
      "type": "error"
    },
    {
      "inputs": [
        {
          "internalType": "address",
          "name": "token",
          "type": "address"
        }
      ],
      "name": "SafeERC20FailedOperation",
      "type": "error"
    },
    {
      "inputs": [
        {
          "internalType": "uint256",
          "name": "threshold",
          "type": "uint256"
        }
      ],
      "name": "ThresholdTooSmall",
      "type": "error"
    },
    {
      "inputs": [],
      "name": "TreasuryRequired",
      "type": "error"
    },
    {
      "inputs": [
        {
          "internalType": "uint256",
          "name": "value",
          "type": "uint256"
        }
      ],
      "name": "UtilizationBpsExceedsMax",
      "type": "error"
    },
    {
      "anonymous": false,
      "inputs": [
        {
          "indexed": false,
          "internalType": "address",
          "name": "bondingRegistry",
          "type": "address"
        }
      ],
      "name": "BondingRegistrySet",
      "type": "event"
    },
    {
      "anonymous": false,
      "inputs": [
        {
          "indexed": false,
          "internalType": "address",
          "name": "ciphernodeRegistry",
          "type": "address"
        }
      ],
      "name": "CiphernodeRegistrySet",
      "type": "event"
    },
    {
      "anonymous": false,
      "inputs": [
        {
          "indexed": true,
          "internalType": "uint256",
          "name": "e3Id",
          "type": "uint256"
        },
        {
          "indexed": false,
          "internalType": "bytes",
          "name": "ciphertextOutput",
          "type": "bytes"
        }
      ],
      "name": "CiphertextOutputPublished",
      "type": "event"
    },
    {
      "anonymous": false,
      "inputs": [
        {
          "indexed": true,
          "internalType": "uint256",
          "name": "e3Id",
          "type": "uint256"
        }
      ],
      "name": "CommitteeFinalized",
      "type": "event"
    },
    {
      "anonymous": false,
      "inputs": [
        {
          "indexed": true,
          "internalType": "uint256",
          "name": "e3Id",
          "type": "uint256"
        }
      ],
      "name": "CommitteeFormed",
      "type": "event"
    },
    {
      "anonymous": false,
      "inputs": [
        {
          "indexed": true,
          "internalType": "enum IEnclave.CommitteeSize",
          "name": "size",
          "type": "uint8"
        },
        {
          "indexed": false,
          "internalType": "uint32[2]",
          "name": "threshold",
          "type": "uint32[2]"
        }
      ],
      "name": "CommitteeThresholdsUpdated",
      "type": "event"
    },
    {
      "anonymous": false,
      "inputs": [
        {
          "indexed": true,
          "internalType": "uint256",
          "name": "e3Id",
          "type": "uint256"
        },
        {
          "indexed": false,
          "internalType": "enum IEnclave.E3Stage",
          "name": "failedAtStage",
          "type": "uint8"
        },
        {
          "indexed": false,
          "internalType": "enum IEnclave.FailureReason",
          "name": "reason",
          "type": "uint8"
        }
      ],
      "name": "E3Failed",
      "type": "event"
    },
    {
      "anonymous": false,
      "inputs": [
        {
          "indexed": true,
          "internalType": "uint256",
          "name": "e3Id",
          "type": "uint256"
        },
        {
          "indexed": false,
          "internalType": "uint256",
          "name": "paymentAmount",
          "type": "uint256"
        },
        {
          "indexed": false,
          "internalType": "uint256",
          "name": "honestNodeCount",
          "type": "uint256"
        }
      ],
      "name": "E3FailureProcessed",
      "type": "event"
    },
    {
      "anonymous": false,
      "inputs": [
        {
          "indexed": false,
          "internalType": "contract IE3Program",
          "name": "e3Program",
          "type": "address"
        }
      ],
      "name": "E3ProgramDisabled",
      "type": "event"
    },
    {
      "anonymous": false,
      "inputs": [
        {
          "indexed": false,
          "internalType": "contract IE3Program",
          "name": "e3Program",
          "type": "address"
        }
      ],
      "name": "E3ProgramEnabled",
      "type": "event"
    },
    {
      "anonymous": false,
      "inputs": [
        {
          "indexed": true,
          "internalType": "address",
          "name": "e3RefundManager",
          "type": "address"
        }
      ],
      "name": "E3RefundManagerSet",
      "type": "event"
    },
    {
      "anonymous": false,
      "inputs": [
        {
          "indexed": false,
          "internalType": "uint256",
          "name": "e3Id",
          "type": "uint256"
        },
        {
          "components": [
            {
              "internalType": "uint256",
              "name": "seed",
              "type": "uint256"
            },
            {
              "internalType": "enum IEnclave.CommitteeSize",
              "name": "committeeSize",
              "type": "uint8"
            },
            {
              "internalType": "uint256",
              "name": "requestBlock",
              "type": "uint256"
            },
            {
              "internalType": "uint256[2]",
              "name": "inputWindow",
              "type": "uint256[2]"
            },
            {
              "internalType": "bytes32",
              "name": "encryptionSchemeId",
              "type": "bytes32"
            },
            {
              "internalType": "contract IE3Program",
              "name": "e3Program",
              "type": "address"
            },
            {
              "internalType": "uint8",
              "name": "paramSet",
              "type": "uint8"
            },
            {
              "internalType": "bytes",
              "name": "customParams",
              "type": "bytes"
            },
            {
              "internalType": "contract IDecryptionVerifier",
              "name": "decryptionVerifier",
              "type": "address"
            },
            {
              "internalType": "contract IPkVerifier",
              "name": "pkVerifier",
              "type": "address"
            },
            {
              "internalType": "bytes32",
              "name": "committeePublicKey",
              "type": "bytes32"
            },
            {
              "internalType": "bytes32",
              "name": "ciphertextOutput",
              "type": "bytes32"
            },
            {
              "internalType": "bytes",
              "name": "plaintextOutput",
              "type": "bytes"
            },
            {
              "internalType": "address",
              "name": "requester",
              "type": "address"
            },
            {
              "internalType": "bool",
              "name": "proofAggregationEnabled",
              "type": "bool"
            }
          ],
          "indexed": false,
          "internalType": "struct E3",
          "name": "e3",
          "type": "tuple"
        },
        {
          "indexed": true,
          "internalType": "contract IE3Program",
          "name": "e3Program",
          "type": "address"
        }
      ],
      "name": "E3Requested",
      "type": "event"
    },
    {
      "anonymous": false,
      "inputs": [
        {
          "indexed": true,
          "internalType": "uint256",
          "name": "e3Id",
          "type": "uint256"
        },
        {
          "indexed": false,
          "internalType": "enum IEnclave.E3Stage",
          "name": "previousStage",
          "type": "uint8"
        },
        {
          "indexed": false,
          "internalType": "enum IEnclave.E3Stage",
          "name": "newStage",
          "type": "uint8"
        }
      ],
      "name": "E3StageChanged",
      "type": "event"
    },
    {
      "anonymous": false,
      "inputs": [
        {
          "indexed": false,
          "internalType": "bytes32",
          "name": "encryptionSchemeId",
          "type": "bytes32"
        }
      ],
      "name": "EncryptionSchemeDisabled",
      "type": "event"
    },
    {
      "anonymous": false,
      "inputs": [
        {
          "indexed": false,
          "internalType": "bytes32",
          "name": "encryptionSchemeId",
          "type": "bytes32"
        }
      ],
      "name": "EncryptionSchemeEnabled",
      "type": "event"
    },
    {
      "anonymous": false,
      "inputs": [
        {
          "indexed": true,
          "internalType": "contract IERC20",
          "name": "token",
          "type": "address"
        },
        {
          "indexed": false,
          "internalType": "bool",
          "name": "allowed",
          "type": "bool"
        }
      ],
      "name": "FeeTokenAllowed",
      "type": "event"
    },
    {
      "anonymous": false,
      "inputs": [
        {
          "indexed": false,
          "internalType": "address",
          "name": "feeToken",
          "type": "address"
        }
      ],
      "name": "FeeTokenSet",
      "type": "event"
    },
    {
      "anonymous": false,
      "inputs": [
        {
          "indexed": false,
          "internalType": "uint64",
          "name": "version",
          "type": "uint64"
        }
      ],
      "name": "Initialized",
      "type": "event"
    },
    {
      "anonymous": false,
      "inputs": [
        {
          "indexed": true,
          "internalType": "uint256",
          "name": "e3Id",
          "type": "uint256"
        },
        {
          "indexed": false,
          "internalType": "bytes",
          "name": "data",
          "type": "bytes"
        },
        {
          "indexed": false,
          "internalType": "uint256",
          "name": "inputHash",
          "type": "uint256"
        },
        {
          "indexed": false,
          "internalType": "uint256",
          "name": "index",
          "type": "uint256"
        }
      ],
      "name": "InputPublished",
      "type": "event"
    },
    {
      "anonymous": false,
      "inputs": [
        {
          "indexed": false,
          "internalType": "uint256",
          "name": "gracePeriod",
          "type": "uint256"
        }
      ],
      "name": "MarkFailedGracePeriodSet",
      "type": "event"
    },
    {
      "anonymous": false,
      "inputs": [
        {
          "indexed": false,
          "internalType": "uint256",
          "name": "maxDuration",
          "type": "uint256"
        }
      ],
      "name": "MaxDurationSet",
      "type": "event"
    },
    {
      "anonymous": false,
      "inputs": [
        {
          "indexed": true,
          "internalType": "address",
          "name": "previousOwner",
          "type": "address"
        },
        {
          "indexed": true,
          "internalType": "address",
          "name": "newOwner",
          "type": "address"
        }
      ],
      "name": "OwnershipTransferStarted",
      "type": "event"
    },
    {
      "anonymous": false,
      "inputs": [
        {
          "indexed": true,
          "internalType": "address",
          "name": "previousOwner",
          "type": "address"
        },
        {
          "indexed": true,
          "internalType": "address",
          "name": "newOwner",
          "type": "address"
        }
      ],
      "name": "OwnershipTransferred",
      "type": "event"
    },
    {
      "anonymous": false,
      "inputs": [
        {
          "indexed": false,
          "internalType": "uint8",
          "name": "paramSet",
          "type": "uint8"
        },
        {
          "indexed": false,
          "internalType": "bytes",
          "name": "encodedParams",
          "type": "bytes"
        }
      ],
      "name": "ParamSetRegistered",
      "type": "event"
    },
    {
      "anonymous": false,
      "inputs": [
        {
          "indexed": false,
          "internalType": "uint8",
          "name": "paramSet",
          "type": "uint8"
        },
        {
          "indexed": false,
          "internalType": "bytes",
          "name": "previousEncodedParams",
          "type": "bytes"
        },
        {
          "indexed": false,
          "internalType": "bytes",
          "name": "newEncodedParams",
          "type": "bytes"
        }
      ],
      "name": "ParamSetUpdated",
      "type": "event"
    },
    {
      "anonymous": false,
      "inputs": [
        {
          "indexed": true,
          "internalType": "bytes32",
          "name": "encryptionSchemeId",
          "type": "bytes32"
        },
        {
          "indexed": true,
          "internalType": "contract IPkVerifier",
          "name": "pkVerifier",
          "type": "address"
        }
      ],
      "name": "PkVerifierSet",
      "type": "event"
    },
    {
      "anonymous": false,
      "inputs": [
        {
          "indexed": true,
          "internalType": "uint256",
          "name": "e3Id",
          "type": "uint256"
        },
        {
          "indexed": false,
          "internalType": "bytes",
          "name": "plaintextOutput",
          "type": "bytes"
        },
        {
          "indexed": false,
          "internalType": "bytes",
          "name": "proof",
          "type": "bytes"
        }
      ],
      "name": "PlaintextOutputPublished",
      "type": "event"
    },
    {
      "anonymous": false,
      "inputs": [
        {
          "components": [
            {
              "internalType": "uint256",
              "name": "keyGenFixedPerNode",
              "type": "uint256"
            },
            {
              "internalType": "uint256",
              "name": "keyGenPerEncryptionProof",
              "type": "uint256"
            },
            {
              "internalType": "uint256",
              "name": "coordinationPerPair",
              "type": "uint256"
            },
            {
              "internalType": "uint256",
              "name": "availabilityPerNodePerSec",
              "type": "uint256"
            },
            {
              "internalType": "uint256",
              "name": "decryptionPerNode",
              "type": "uint256"
            },
            {
              "internalType": "uint256",
              "name": "publicationBase",
              "type": "uint256"
            },
            {
              "internalType": "uint256",
              "name": "verificationPerProof",
              "type": "uint256"
            },
            {
              "internalType": "address",
              "name": "protocolTreasury",
              "type": "address"
            },
            {
              "internalType": "uint16",
              "name": "marginBps",
              "type": "uint16"
            },
            {
              "internalType": "uint16",
              "name": "protocolShareBps",
              "type": "uint16"
            },
            {
              "internalType": "uint16",
              "name": "dkgUtilizationBps",
              "type": "uint16"
            },
            {
              "internalType": "uint16",
              "name": "computeUtilizationBps",
              "type": "uint16"
            },
            {
              "internalType": "uint16",
              "name": "decryptUtilizationBps",
              "type": "uint16"
            },
            {
              "internalType": "uint32",
              "name": "minCommitteeSize",
              "type": "uint32"
            },
            {
              "internalType": "uint32",
              "name": "minThreshold",
              "type": "uint32"
            }
          ],
          "indexed": false,
          "internalType": "struct IEnclave.PricingConfig",
          "name": "config",
          "type": "tuple"
        }
      ],
      "name": "PricingConfigUpdated",
      "type": "event"
    },
    {
      "anonymous": false,
      "inputs": [
        {
          "indexed": true,
          "internalType": "uint256",
          "name": "e3Id",
          "type": "uint256"
        },
        {
          "indexed": true,
          "internalType": "address",
          "name": "account",
          "type": "address"
        },
        {
          "indexed": true,
          "internalType": "contract IERC20",
          "name": "token",
          "type": "address"
        },
        {
          "indexed": false,
          "internalType": "uint256",
          "name": "amount",
          "type": "uint256"
        }
      ],
      "name": "RewardClaimed",
      "type": "event"
    },
    {
      "anonymous": false,
      "inputs": [
        {
          "indexed": true,
          "internalType": "uint256",
          "name": "e3Id",
          "type": "uint256"
        },
        {
          "indexed": true,
          "internalType": "address",
          "name": "account",
          "type": "address"
        },
        {
          "indexed": true,
          "internalType": "contract IERC20",
          "name": "token",
          "type": "address"
        },
        {
          "indexed": false,
          "internalType": "uint256",
          "name": "amount",
          "type": "uint256"
        }
      ],
      "name": "RewardCredited",
      "type": "event"
    },
    {
      "anonymous": false,
      "inputs": [
        {
          "indexed": true,
          "internalType": "uint256",
          "name": "e3Id",
          "type": "uint256"
        },
        {
          "indexed": false,
          "internalType": "address[]",
          "name": "nodes",
          "type": "address[]"
        },
        {
          "indexed": false,
          "internalType": "uint256[]",
          "name": "amounts",
          "type": "uint256[]"
        }
      ],
      "name": "RewardsDistributed",
      "type": "event"
    },
    {
      "anonymous": false,
      "inputs": [
        {
          "indexed": true,
          "internalType": "uint256",
          "name": "e3Id",
          "type": "uint256"
        },
        {
          "indexed": false,
          "internalType": "uint256",
          "name": "amount",
          "type": "uint256"
        }
      ],
      "name": "SlashedFundsEscrowed",
      "type": "event"
    },
    {
      "anonymous": false,
      "inputs": [
        {
          "indexed": true,
          "internalType": "address",
          "name": "slashingManager",
          "type": "address"
        }
      ],
      "name": "SlashingManagerSet",
      "type": "event"
    },
    {
      "anonymous": false,
      "inputs": [
        {
          "components": [
            {
              "internalType": "uint256",
              "name": "dkgWindow",
              "type": "uint256"
            },
            {
              "internalType": "uint256",
              "name": "computeWindow",
              "type": "uint256"
            },
            {
              "internalType": "uint256",
              "name": "decryptionWindow",
              "type": "uint256"
            }
          ],
          "indexed": false,
          "internalType": "struct IEnclave.E3TimeoutConfig",
          "name": "config",
          "type": "tuple"
        }
      ],
      "name": "TimeoutConfigUpdated",
      "type": "event"
    },
    {
      "anonymous": false,
      "inputs": [
        {
          "indexed": true,
          "internalType": "address",
          "name": "treasury",
          "type": "address"
        },
        {
          "indexed": true,
          "internalType": "contract IERC20",
          "name": "token",
          "type": "address"
        },
        {
          "indexed": false,
          "internalType": "uint256",
          "name": "amount",
          "type": "uint256"
        }
      ],
      "name": "TreasuryClaimed",
      "type": "event"
    },
    {
      "anonymous": false,
      "inputs": [
        {
          "indexed": true,
          "internalType": "uint256",
          "name": "e3Id",
          "type": "uint256"
        },
        {
          "indexed": true,
          "internalType": "address",
          "name": "treasury",
          "type": "address"
        },
        {
          "indexed": true,
          "internalType": "contract IERC20",
          "name": "token",
          "type": "address"
        },
        {
          "indexed": false,
          "internalType": "uint256",
          "name": "amount",
          "type": "uint256"
        }
      ],
      "name": "TreasuryCredited",
      "type": "event"
    },
    {
      "inputs": [],
      "name": "MAX_COMMITTEE_SIZE",
      "outputs": [
        {
          "internalType": "uint32",
          "name": "",
          "type": "uint32"
        }
      ],
      "stateMutability": "view",
      "type": "function"
    },
    {
      "inputs": [],
      "name": "MAX_DURATION_CAP",
      "outputs": [
        {
          "internalType": "uint256",
          "name": "",
          "type": "uint256"
        }
      ],
      "stateMutability": "view",
      "type": "function"
    },
    {
      "inputs": [],
      "name": "MAX_MARGIN_BPS",
      "outputs": [
        {
          "internalType": "uint16",
          "name": "",
          "type": "uint16"
        }
      ],
      "stateMutability": "view",
      "type": "function"
    },
    {
      "inputs": [],
      "name": "MAX_PROTOCOL_SHARE_BPS",
      "outputs": [
        {
          "internalType": "uint16",
          "name": "",
          "type": "uint16"
        }
      ],
      "stateMutability": "view",
      "type": "function"
    },
    {
      "inputs": [],
      "name": "MAX_TIMEOUT_WINDOW",
      "outputs": [
        {
          "internalType": "uint256",
          "name": "",
          "type": "uint256"
        }
      ],
      "stateMutability": "view",
      "type": "function"
    },
    {
      "inputs": [],
      "name": "acceptOwnership",
      "outputs": [],
      "stateMutability": "nonpayable",
      "type": "function"
    },
    {
      "inputs": [],
      "name": "bondingRegistry",
      "outputs": [
        {
          "internalType": "contract IBondingRegistry",
          "name": "",
          "type": "address"
        }
      ],
      "stateMutability": "view",
      "type": "function"
    },
    {
      "inputs": [
        {
          "internalType": "uint256",
          "name": "e3Id",
          "type": "uint256"
        }
      ],
      "name": "checkFailureCondition",
      "outputs": [
        {
          "internalType": "bool",
          "name": "canFail",
          "type": "bool"
        },
        {
          "internalType": "enum IEnclave.FailureReason",
          "name": "reason",
          "type": "uint8"
        }
      ],
      "stateMutability": "view",
      "type": "function"
    },
    {
      "inputs": [],
      "name": "ciphernodeRegistry",
      "outputs": [
        {
          "internalType": "contract ICiphernodeRegistry",
          "name": "",
          "type": "address"
        }
      ],
      "stateMutability": "view",
      "type": "function"
    },
    {
      "inputs": [
        {
          "internalType": "uint256",
          "name": "e3Id",
          "type": "uint256"
        }
      ],
      "name": "claimReward",
      "outputs": [
        {
          "internalType": "uint256",
          "name": "amount",
          "type": "uint256"
        }
      ],
      "stateMutability": "nonpayable",
      "type": "function"
    },
    {
      "inputs": [
        {
          "internalType": "uint256[]",
          "name": "e3Ids",
          "type": "uint256[]"
        }
      ],
      "name": "claimRewards",
      "outputs": [
        {
          "internalType": "uint256",
          "name": "totalClaimed",
          "type": "uint256"
        }
      ],
      "stateMutability": "nonpayable",
      "type": "function"
    },
    {
      "inputs": [
        {
          "internalType": "enum IEnclave.CommitteeSize",
          "name": "",
          "type": "uint8"
        },
        {
          "internalType": "uint256",
          "name": "",
          "type": "uint256"
        }
      ],
      "name": "committeeThresholds",
      "outputs": [
        {
          "internalType": "uint32",
          "name": "threshold",
          "type": "uint32"
        }
      ],
      "stateMutability": "view",
      "type": "function"
    },
    {
      "inputs": [
        {
          "internalType": "bytes32",
          "name": "encryptionSchemeId",
          "type": "bytes32"
        }
      ],
      "name": "decryptionVerifiers",
      "outputs": [
        {
          "internalType": "contract IDecryptionVerifier",
          "name": "decryptionVerifier",
          "type": "address"
        }
      ],
      "stateMutability": "view",
      "type": "function"
    },
    {
      "inputs": [
        {
          "internalType": "contract IE3Program",
          "name": "e3Program",
          "type": "address"
        }
      ],
      "name": "disableE3Program",
      "outputs": [],
      "stateMutability": "nonpayable",
      "type": "function"
    },
    {
      "inputs": [
        {
          "internalType": "bytes32",
          "name": "encryptionSchemeId",
          "type": "bytes32"
        }
      ],
      "name": "disableEncryptionScheme",
      "outputs": [],
      "stateMutability": "nonpayable",
      "type": "function"
    },
    {
      "inputs": [
        {
          "internalType": "uint256",
          "name": "e3Id",
          "type": "uint256"
        }
      ],
      "name": "e3Payments",
      "outputs": [
        {
          "internalType": "uint256",
          "name": "e3Payment",
          "type": "uint256"
        }
      ],
      "stateMutability": "view",
      "type": "function"
    },
    {
      "inputs": [
        {
          "internalType": "contract IE3Program",
          "name": "e3Program",
          "type": "address"
        }
      ],
      "name": "e3Programs",
      "outputs": [
        {
          "internalType": "bool",
          "name": "allowed",
          "type": "bool"
        }
      ],
      "stateMutability": "view",
      "type": "function"
    },
    {
      "inputs": [],
      "name": "e3RefundManager",
      "outputs": [
        {
          "internalType": "contract IE3RefundManager",
          "name": "",
          "type": "address"
        }
      ],
      "stateMutability": "view",
      "type": "function"
    },
    {
      "inputs": [
        {
          "internalType": "uint256",
          "name": "e3Id",
          "type": "uint256"
        }
      ],
      "name": "e3s",
      "outputs": [
        {
          "internalType": "uint256",
          "name": "seed",
          "type": "uint256"
        },
        {
          "internalType": "enum IEnclave.CommitteeSize",
          "name": "committeeSize",
          "type": "uint8"
        },
        {
          "internalType": "uint256",
          "name": "requestBlock",
          "type": "uint256"
        },
        {
          "internalType": "bytes32",
          "name": "encryptionSchemeId",
          "type": "bytes32"
        },
        {
          "internalType": "contract IE3Program",
          "name": "e3Program",
          "type": "address"
        },
        {
          "internalType": "uint8",
          "name": "paramSet",
          "type": "uint8"
        },
        {
          "internalType": "bytes",
          "name": "customParams",
          "type": "bytes"
        },
        {
          "internalType": "contract IDecryptionVerifier",
          "name": "decryptionVerifier",
          "type": "address"
        },
        {
          "internalType": "contract IPkVerifier",
          "name": "pkVerifier",
          "type": "address"
        },
        {
          "internalType": "bytes32",
          "name": "committeePublicKey",
          "type": "bytes32"
        },
        {
          "internalType": "bytes32",
          "name": "ciphertextOutput",
          "type": "bytes32"
        },
        {
          "internalType": "bytes",
          "name": "plaintextOutput",
          "type": "bytes"
        },
        {
          "internalType": "address",
          "name": "requester",
          "type": "address"
        },
        {
          "internalType": "bool",
          "name": "proofAggregationEnabled",
          "type": "bool"
        }
      ],
      "stateMutability": "view",
      "type": "function"
    },
    {
      "inputs": [
        {
          "internalType": "contract IE3Program",
          "name": "e3Program",
          "type": "address"
        }
      ],
      "name": "enableE3Program",
      "outputs": [],
      "stateMutability": "nonpayable",
      "type": "function"
    },
    {
      "inputs": [
        {
          "internalType": "uint256",
          "name": "e3Id",
          "type": "uint256"
        },
        {
          "internalType": "uint256",
          "name": "amount",
          "type": "uint256"
        }
      ],
      "name": "escrowSlashedFunds",
      "outputs": [],
      "stateMutability": "nonpayable",
      "type": "function"
    },
    {
      "inputs": [],
      "name": "feeToken",
      "outputs": [
        {
          "internalType": "contract IERC20",
          "name": "",
          "type": "address"
        }
      ],
      "stateMutability": "view",
      "type": "function"
    },
    {
      "inputs": [
        {
          "internalType": "uint256",
          "name": "e3Id",
          "type": "uint256"
        }
      ],
      "name": "getDeadlines",
      "outputs": [
        {
          "components": [
            {
              "internalType": "uint256",
              "name": "dkgDeadline",
              "type": "uint256"
            },
            {
              "internalType": "uint256",
              "name": "computeDeadline",
              "type": "uint256"
            },
            {
              "internalType": "uint256",
              "name": "decryptionDeadline",
              "type": "uint256"
            }
          ],
          "internalType": "struct IEnclave.E3Deadlines",
          "name": "deadlines",
          "type": "tuple"
        }
      ],
      "stateMutability": "view",
      "type": "function"
    },
    {
      "inputs": [
        {
          "internalType": "bytes32",
          "name": "encryptionSchemeId",
          "type": "bytes32"
        }
      ],
      "name": "getDecryptionVerifier",
      "outputs": [
        {
          "internalType": "contract IDecryptionVerifier",
          "name": "",
          "type": "address"
        }
      ],
      "stateMutability": "view",
      "type": "function"
    },
    {
      "inputs": [
        {
          "internalType": "uint256",
          "name": "e3Id",
          "type": "uint256"
        }
      ],
      "name": "getE3",
      "outputs": [
        {
          "components": [
            {
              "internalType": "uint256",
              "name": "seed",
              "type": "uint256"
            },
            {
              "internalType": "enum IEnclave.CommitteeSize",
              "name": "committeeSize",
              "type": "uint8"
            },
            {
              "internalType": "uint256",
              "name": "requestBlock",
              "type": "uint256"
            },
            {
              "internalType": "uint256[2]",
              "name": "inputWindow",
              "type": "uint256[2]"
            },
            {
              "internalType": "bytes32",
              "name": "encryptionSchemeId",
              "type": "bytes32"
            },
            {
              "internalType": "contract IE3Program",
              "name": "e3Program",
              "type": "address"
            },
            {
              "internalType": "uint8",
              "name": "paramSet",
              "type": "uint8"
            },
            {
              "internalType": "bytes",
              "name": "customParams",
              "type": "bytes"
            },
            {
              "internalType": "contract IDecryptionVerifier",
              "name": "decryptionVerifier",
              "type": "address"
            },
            {
              "internalType": "contract IPkVerifier",
              "name": "pkVerifier",
              "type": "address"
            },
            {
              "internalType": "bytes32",
              "name": "committeePublicKey",
              "type": "bytes32"
            },
            {
              "internalType": "bytes32",
              "name": "ciphertextOutput",
              "type": "bytes32"
            },
            {
              "internalType": "bytes",
              "name": "plaintextOutput",
              "type": "bytes"
            },
            {
              "internalType": "address",
              "name": "requester",
              "type": "address"
            },
            {
              "internalType": "bool",
              "name": "proofAggregationEnabled",
              "type": "bool"
            }
          ],
          "internalType": "struct E3",
          "name": "e3",
          "type": "tuple"
        }
      ],
      "stateMutability": "view",
      "type": "function"
    },
    {
      "inputs": [
        {
          "components": [
            {
              "internalType": "enum IEnclave.CommitteeSize",
              "name": "committeeSize",
              "type": "uint8"
            },
            {
              "internalType": "uint256[2]",
              "name": "inputWindow",
              "type": "uint256[2]"
            },
            {
              "internalType": "contract IE3Program",
              "name": "e3Program",
              "type": "address"
            },
            {
              "internalType": "uint8",
              "name": "paramSet",
              "type": "uint8"
            },
            {
              "internalType": "bytes",
              "name": "computeProviderParams",
              "type": "bytes"
            },
            {
              "internalType": "bytes",
              "name": "customParams",
              "type": "bytes"
            },
            {
              "internalType": "bool",
              "name": "proofAggregationEnabled",
              "type": "bool"
            }
          ],
          "internalType": "struct IEnclave.E3RequestParams",
          "name": "requestParams",
          "type": "tuple"
        }
      ],
      "name": "getE3Quote",
      "outputs": [
        {
          "internalType": "uint256",
          "name": "fee",
          "type": "uint256"
        }
      ],
      "stateMutability": "view",
      "type": "function"
    },
    {
      "inputs": [
        {
          "internalType": "uint256",
          "name": "e3Id",
          "type": "uint256"
        }
      ],
      "name": "getE3Stage",
      "outputs": [
        {
          "internalType": "enum IEnclave.E3Stage",
          "name": "stage",
          "type": "uint8"
        }
      ],
      "stateMutability": "view",
      "type": "function"
    },
    {
      "inputs": [
        {
          "internalType": "uint256",
          "name": "e3Id",
          "type": "uint256"
        }
      ],
      "name": "getFailureReason",
      "outputs": [
        {
          "internalType": "enum IEnclave.FailureReason",
          "name": "reason",
          "type": "uint8"
        }
      ],
      "stateMutability": "view",
      "type": "function"
    },
    {
      "inputs": [
        {
          "internalType": "bytes32",
          "name": "encryptionSchemeId",
          "type": "bytes32"
        }
      ],
      "name": "getPkVerifier",
      "outputs": [
        {
          "internalType": "contract IPkVerifier",
          "name": "",
          "type": "address"
        }
      ],
      "stateMutability": "view",
      "type": "function"
    },
    {
      "inputs": [],
      "name": "getPricingConfig",
      "outputs": [
        {
          "components": [
            {
              "internalType": "uint256",
              "name": "keyGenFixedPerNode",
              "type": "uint256"
            },
            {
              "internalType": "uint256",
              "name": "keyGenPerEncryptionProof",
              "type": "uint256"
            },
            {
              "internalType": "uint256",
              "name": "coordinationPerPair",
              "type": "uint256"
            },
            {
              "internalType": "uint256",
              "name": "availabilityPerNodePerSec",
              "type": "uint256"
            },
            {
              "internalType": "uint256",
              "name": "decryptionPerNode",
              "type": "uint256"
            },
            {
              "internalType": "uint256",
              "name": "publicationBase",
              "type": "uint256"
            },
            {
              "internalType": "uint256",
              "name": "verificationPerProof",
              "type": "uint256"
            },
            {
              "internalType": "address",
              "name": "protocolTreasury",
              "type": "address"
            },
            {
              "internalType": "uint16",
              "name": "marginBps",
              "type": "uint16"
            },
            {
              "internalType": "uint16",
              "name": "protocolShareBps",
              "type": "uint16"
            },
            {
              "internalType": "uint16",
              "name": "dkgUtilizationBps",
              "type": "uint16"
            },
            {
              "internalType": "uint16",
              "name": "computeUtilizationBps",
              "type": "uint16"
            },
            {
              "internalType": "uint16",
              "name": "decryptUtilizationBps",
              "type": "uint16"
            },
            {
              "internalType": "uint32",
              "name": "minCommitteeSize",
              "type": "uint32"
            },
            {
              "internalType": "uint32",
              "name": "minThreshold",
              "type": "uint32"
            }
          ],
          "internalType": "struct IEnclave.PricingConfig",
          "name": "",
          "type": "tuple"
        }
      ],
      "stateMutability": "view",
      "type": "function"
    },
    {
      "inputs": [
        {
          "internalType": "uint256",
          "name": "e3Id",
          "type": "uint256"
        }
      ],
      "name": "getRequester",
      "outputs": [
        {
          "internalType": "address",
          "name": "requester",
          "type": "address"
        }
      ],
      "stateMutability": "view",
      "type": "function"
    },
    {
      "inputs": [],
      "name": "getTimeoutConfig",
      "outputs": [
        {
          "components": [
            {
              "internalType": "uint256",
              "name": "dkgWindow",
              "type": "uint256"
            },
            {
              "internalType": "uint256",
              "name": "computeWindow",
              "type": "uint256"
            },
            {
              "internalType": "uint256",
              "name": "decryptionWindow",
              "type": "uint256"
            }
          ],
          "internalType": "struct IEnclave.E3TimeoutConfig",
          "name": "config",
          "type": "tuple"
        }
      ],
      "stateMutability": "view",
      "type": "function"
    },
    {
      "inputs": [
        {
          "internalType": "address",
          "name": "_owner",
          "type": "address"
        },
        {
          "internalType": "contract ICiphernodeRegistry",
          "name": "_ciphernodeRegistry",
          "type": "address"
        },
        {
          "internalType": "contract IBondingRegistry",
          "name": "_bondingRegistry",
          "type": "address"
        },
        {
          "internalType": "contract IE3RefundManager",
          "name": "_e3RefundManager",
          "type": "address"
        },
        {
          "internalType": "contract IERC20",
          "name": "_feeToken",
          "type": "address"
        },
        {
          "internalType": "uint256",
          "name": "_maxDuration",
          "type": "uint256"
        },
        {
          "components": [
            {
              "internalType": "uint256",
              "name": "dkgWindow",
              "type": "uint256"
            },
            {
              "internalType": "uint256",
              "name": "computeWindow",
              "type": "uint256"
            },
            {
              "internalType": "uint256",
              "name": "decryptionWindow",
              "type": "uint256"
            }
          ],
          "internalType": "struct IEnclave.E3TimeoutConfig",
          "name": "config",
          "type": "tuple"
        }
      ],
      "name": "initialize",
      "outputs": [],
      "stateMutability": "nonpayable",
      "type": "function"
    },
    {
      "inputs": [
        {
          "internalType": "contract IERC20",
          "name": "token",
          "type": "address"
        }
      ],
      "name": "isFeeTokenAllowed",
      "outputs": [
        {
          "internalType": "bool",
          "name": "",
          "type": "bool"
        }
      ],
      "stateMutability": "view",
      "type": "function"
    },
    {
      "inputs": [
        {
          "internalType": "uint256",
          "name": "e3Id",
          "type": "uint256"
        }
      ],
      "name": "markE3Failed",
      "outputs": [
        {
          "internalType": "enum IEnclave.FailureReason",
          "name": "reason",
          "type": "uint8"
        }
      ],
      "stateMutability": "nonpayable",
      "type": "function"
    },
    {
      "inputs": [],
      "name": "markFailedGracePeriod",
      "outputs": [
        {
          "internalType": "uint256",
          "name": "",
          "type": "uint256"
        }
      ],
      "stateMutability": "view",
      "type": "function"
    },
    {
      "inputs": [],
      "name": "maxDuration",
      "outputs": [
        {
          "internalType": "uint256",
          "name": "",
          "type": "uint256"
        }
      ],
      "stateMutability": "view",
      "type": "function"
    },
    {
      "inputs": [],
      "name": "nexte3Id",
      "outputs": [
        {
          "internalType": "uint256",
          "name": "",
          "type": "uint256"
        }
      ],
      "stateMutability": "view",
      "type": "function"
    },
    {
      "inputs": [
        {
          "internalType": "uint256",
          "name": "e3Id",
          "type": "uint256"
        }
      ],
      "name": "onCommitteeFinalized",
      "outputs": [],
      "stateMutability": "nonpayable",
      "type": "function"
    },
    {
      "inputs": [
        {
          "internalType": "uint256",
          "name": "e3Id",
          "type": "uint256"
        },
        {
          "internalType": "bytes32",
          "name": "committeePublicKey",
          "type": "bytes32"
        }
      ],
      "name": "onCommitteePublished",
      "outputs": [],
      "stateMutability": "nonpayable",
      "type": "function"
    },
    {
      "inputs": [
        {
          "internalType": "uint256",
          "name": "e3Id",
          "type": "uint256"
        },
        {
          "internalType": "uint8",
          "name": "reason",
          "type": "uint8"
        }
      ],
      "name": "onE3Failed",
      "outputs": [],
      "stateMutability": "nonpayable",
      "type": "function"
    },
    {
      "inputs": [],
      "name": "owner",
      "outputs": [
        {
          "internalType": "address",
          "name": "",
          "type": "address"
        }
      ],
      "stateMutability": "view",
      "type": "function"
    },
    {
      "inputs": [
        {
          "internalType": "uint8",
          "name": "",
          "type": "uint8"
        }
      ],
      "name": "paramSetRegistry",
      "outputs": [
        {
          "internalType": "bytes",
          "name": "",
          "type": "bytes"
        }
      ],
      "stateMutability": "view",
      "type": "function"
    },
    {
      "inputs": [],
      "name": "pendingOwner",
      "outputs": [
        {
          "internalType": "address",
          "name": "",
          "type": "address"
        }
      ],
      "stateMutability": "view",
      "type": "function"
    },
    {
      "inputs": [
        {
          "internalType": "uint256",
          "name": "e3Id",
          "type": "uint256"
        },
        {
          "internalType": "address",
          "name": "account",
          "type": "address"
        }
      ],
      "name": "pendingReward",
      "outputs": [
        {
          "internalType": "uint256",
          "name": "",
          "type": "uint256"
        }
      ],
      "stateMutability": "view",
      "type": "function"
    },
    {
      "inputs": [
        {
          "internalType": "address",
          "name": "treasury",
          "type": "address"
        },
        {
          "internalType": "contract IERC20",
          "name": "token",
          "type": "address"
        }
      ],
      "name": "pendingTreasuryClaim",
      "outputs": [
        {
          "internalType": "uint256",
          "name": "",
          "type": "uint256"
        }
      ],
      "stateMutability": "view",
      "type": "function"
    },
    {
      "inputs": [
        {
          "internalType": "bytes32",
          "name": "encryptionSchemeId",
          "type": "bytes32"
        }
      ],
      "name": "pkVerifiers",
      "outputs": [
        {
          "internalType": "contract IPkVerifier",
          "name": "pkVerifier",
          "type": "address"
        }
      ],
      "stateMutability": "view",
      "type": "function"
    },
    {
      "inputs": [
        {
          "internalType": "uint256",
          "name": "e3Id",
          "type": "uint256"
        }
      ],
      "name": "processE3Failure",
      "outputs": [],
      "stateMutability": "nonpayable",
      "type": "function"
    },
    {
      "inputs": [
        {
          "internalType": "uint256",
          "name": "e3Id",
          "type": "uint256"
        },
        {
          "internalType": "bytes",
          "name": "ciphertextOutput",
          "type": "bytes"
        },
        {
          "internalType": "bytes",
          "name": "proof",
          "type": "bytes"
        }
      ],
      "name": "publishCiphertextOutput",
      "outputs": [
        {
          "internalType": "bool",
          "name": "success",
          "type": "bool"
        }
      ],
      "stateMutability": "nonpayable",
      "type": "function"
    },
    {
      "inputs": [
        {
          "internalType": "uint256",
          "name": "e3Id",
          "type": "uint256"
        },
        {
          "internalType": "bytes",
          "name": "plaintextOutput",
          "type": "bytes"
        },
        {
          "internalType": "bytes",
          "name": "proof",
          "type": "bytes"
        }
      ],
      "name": "publishPlaintextOutput",
      "outputs": [
        {
          "internalType": "bool",
          "name": "success",
          "type": "bool"
        }
      ],
      "stateMutability": "nonpayable",
      "type": "function"
    },
    {
      "inputs": [],
      "name": "renounceOwnership",
      "outputs": [],
      "stateMutability": "view",
      "type": "function"
    },
    {
      "inputs": [
        {
          "components": [
            {
              "internalType": "enum IEnclave.CommitteeSize",
              "name": "committeeSize",
              "type": "uint8"
            },
            {
              "internalType": "uint256[2]",
              "name": "inputWindow",
              "type": "uint256[2]"
            },
            {
              "internalType": "contract IE3Program",
              "name": "e3Program",
              "type": "address"
            },
            {
              "internalType": "uint8",
              "name": "paramSet",
              "type": "uint8"
            },
            {
              "internalType": "bytes",
              "name": "computeProviderParams",
              "type": "bytes"
            },
            {
              "internalType": "bytes",
              "name": "customParams",
              "type": "bytes"
            },
            {
              "internalType": "bool",
              "name": "proofAggregationEnabled",
              "type": "bool"
            }
          ],
          "internalType": "struct IEnclave.E3RequestParams",
          "name": "requestParams",
          "type": "tuple"
        }
      ],
      "name": "request",
      "outputs": [
        {
          "internalType": "uint256",
          "name": "e3Id",
          "type": "uint256"
        },
        {
          "components": [
            {
              "internalType": "uint256",
              "name": "seed",
              "type": "uint256"
            },
            {
              "internalType": "enum IEnclave.CommitteeSize",
              "name": "committeeSize",
              "type": "uint8"
            },
            {
              "internalType": "uint256",
              "name": "requestBlock",
              "type": "uint256"
            },
            {
              "internalType": "uint256[2]",
              "name": "inputWindow",
              "type": "uint256[2]"
            },
            {
              "internalType": "bytes32",
              "name": "encryptionSchemeId",
              "type": "bytes32"
            },
            {
              "internalType": "contract IE3Program",
              "name": "e3Program",
              "type": "address"
            },
            {
              "internalType": "uint8",
              "name": "paramSet",
              "type": "uint8"
            },
            {
              "internalType": "bytes",
              "name": "customParams",
              "type": "bytes"
            },
            {
              "internalType": "contract IDecryptionVerifier",
              "name": "decryptionVerifier",
              "type": "address"
            },
            {
              "internalType": "contract IPkVerifier",
              "name": "pkVerifier",
              "type": "address"
            },
            {
              "internalType": "bytes32",
              "name": "committeePublicKey",
              "type": "bytes32"
            },
            {
              "internalType": "bytes32",
              "name": "ciphertextOutput",
              "type": "bytes32"
            },
            {
              "internalType": "bytes",
              "name": "plaintextOutput",
              "type": "bytes"
            },
            {
              "internalType": "address",
              "name": "requester",
              "type": "address"
            },
            {
              "internalType": "bool",
              "name": "proofAggregationEnabled",
              "type": "bool"
            }
          ],
          "internalType": "struct E3",
          "name": "e3",
          "type": "tuple"
        }
      ],
      "stateMutability": "nonpayable",
      "type": "function"
    },
    {
      "inputs": [
        {
          "internalType": "contract IBondingRegistry",
          "name": "_bondingRegistry",
          "type": "address"
        }
      ],
      "name": "setBondingRegistry",
      "outputs": [],
      "stateMutability": "nonpayable",
      "type": "function"
    },
    {
      "inputs": [
        {
          "internalType": "contract ICiphernodeRegistry",
          "name": "_ciphernodeRegistry",
          "type": "address"
        }
      ],
      "name": "setCiphernodeRegistry",
      "outputs": [],
      "stateMutability": "nonpayable",
      "type": "function"
    },
    {
      "inputs": [
        {
          "internalType": "enum IEnclave.CommitteeSize",
          "name": "size",
          "type": "uint8"
        },
        {
          "internalType": "uint32[2]",
          "name": "threshold",
          "type": "uint32[2]"
        }
      ],
      "name": "setCommitteeThresholds",
      "outputs": [],
      "stateMutability": "nonpayable",
      "type": "function"
    },
    {
      "inputs": [
        {
          "internalType": "bytes32",
          "name": "encryptionSchemeId",
          "type": "bytes32"
        },
        {
          "internalType": "contract IDecryptionVerifier",
          "name": "decryptionVerifier",
          "type": "address"
        }
      ],
      "name": "setDecryptionVerifier",
      "outputs": [],
      "stateMutability": "nonpayable",
      "type": "function"
    },
    {
      "inputs": [
        {
          "internalType": "contract IE3RefundManager",
          "name": "_e3RefundManager",
          "type": "address"
        }
      ],
      "name": "setE3RefundManager",
      "outputs": [],
      "stateMutability": "nonpayable",
      "type": "function"
    },
    {
      "inputs": [
        {
          "internalType": "contract IERC20",
          "name": "_feeToken",
          "type": "address"
        }
      ],
      "name": "setFeeToken",
      "outputs": [],
      "stateMutability": "nonpayable",
      "type": "function"
    },
    {
      "inputs": [
        {
          "internalType": "contract IERC20",
          "name": "token",
          "type": "address"
        },
        {
          "internalType": "bool",
          "name": "allowed",
          "type": "bool"
        }
      ],
      "name": "setFeeTokenAllowed",
      "outputs": [],
      "stateMutability": "nonpayable",
      "type": "function"
    },
    {
      "inputs": [
        {
          "internalType": "uint256",
          "name": "gracePeriod",
          "type": "uint256"
        }
      ],
      "name": "setMarkFailedGracePeriod",
      "outputs": [],
      "stateMutability": "nonpayable",
      "type": "function"
    },
    {
      "inputs": [
        {
          "internalType": "uint256",
          "name": "_maxDuration",
          "type": "uint256"
        }
      ],
      "name": "setMaxDuration",
      "outputs": [],
      "stateMutability": "nonpayable",
      "type": "function"
    },
    {
      "inputs": [
        {
          "internalType": "uint8",
          "name": "paramSet",
          "type": "uint8"
        },
        {
          "internalType": "bytes",
          "name": "encodedParams",
          "type": "bytes"
        }
      ],
      "name": "setParamSet",
      "outputs": [],
      "stateMutability": "nonpayable",
      "type": "function"
    },
    {
      "inputs": [
        {
          "internalType": "bytes32",
          "name": "encryptionSchemeId",
          "type": "bytes32"
        },
        {
          "internalType": "contract IPkVerifier",
          "name": "pkVerifier",
          "type": "address"
        }
      ],
      "name": "setPkVerifier",
      "outputs": [],
      "stateMutability": "nonpayable",
      "type": "function"
    },
    {
      "inputs": [
        {
          "components": [
            {
              "internalType": "uint256",
              "name": "keyGenFixedPerNode",
              "type": "uint256"
            },
            {
              "internalType": "uint256",
              "name": "keyGenPerEncryptionProof",
              "type": "uint256"
            },
            {
              "internalType": "uint256",
              "name": "coordinationPerPair",
              "type": "uint256"
            },
            {
              "internalType": "uint256",
              "name": "availabilityPerNodePerSec",
              "type": "uint256"
            },
            {
              "internalType": "uint256",
              "name": "decryptionPerNode",
              "type": "uint256"
            },
            {
              "internalType": "uint256",
              "name": "publicationBase",
              "type": "uint256"
            },
            {
              "internalType": "uint256",
              "name": "verificationPerProof",
              "type": "uint256"
            },
            {
              "internalType": "address",
              "name": "protocolTreasury",
              "type": "address"
            },
            {
              "internalType": "uint16",
              "name": "marginBps",
              "type": "uint16"
            },
            {
              "internalType": "uint16",
              "name": "protocolShareBps",
              "type": "uint16"
            },
            {
              "internalType": "uint16",
              "name": "dkgUtilizationBps",
              "type": "uint16"
            },
            {
              "internalType": "uint16",
              "name": "computeUtilizationBps",
              "type": "uint16"
            },
            {
              "internalType": "uint16",
              "name": "decryptUtilizationBps",
              "type": "uint16"
            },
            {
              "internalType": "uint32",
              "name": "minCommitteeSize",
              "type": "uint32"
            },
            {
              "internalType": "uint32",
              "name": "minThreshold",
              "type": "uint32"
            }
          ],
          "internalType": "struct IEnclave.PricingConfig",
          "name": "config",
          "type": "tuple"
        }
      ],
      "name": "setPricingConfig",
      "outputs": [],
      "stateMutability": "nonpayable",
      "type": "function"
    },
    {
      "inputs": [
        {
          "internalType": "contract ISlashingManager",
          "name": "_slashingManager",
          "type": "address"
        }
      ],
      "name": "setSlashingManager",
      "outputs": [],
      "stateMutability": "nonpayable",
      "type": "function"
    },
    {
      "inputs": [
        {
          "components": [
            {
              "internalType": "uint256",
              "name": "dkgWindow",
              "type": "uint256"
            },
            {
              "internalType": "uint256",
              "name": "computeWindow",
              "type": "uint256"
            },
            {
              "internalType": "uint256",
              "name": "decryptionWindow",
              "type": "uint256"
            }
          ],
          "internalType": "struct IEnclave.E3TimeoutConfig",
          "name": "config",
          "type": "tuple"
        }
      ],
      "name": "setTimeoutConfig",
      "outputs": [],
      "stateMutability": "nonpayable",
      "type": "function"
    },
    {
      "inputs": [],
      "name": "slashingManager",
      "outputs": [
        {
          "internalType": "contract ISlashingManager",
          "name": "",
          "type": "address"
        }
      ],
      "stateMutability": "view",
      "type": "function"
    },
    {
      "inputs": [
        {
          "internalType": "bytes4",
          "name": "interfaceId",
          "type": "bytes4"
        }
      ],
      "name": "supportsInterface",
      "outputs": [
        {
          "internalType": "bool",
          "name": "",
          "type": "bool"
        }
      ],
      "stateMutability": "pure",
      "type": "function"
    },
    {
      "inputs": [
        {
          "internalType": "address",
          "name": "newOwner",
          "type": "address"
        }
      ],
      "name": "transferOwnership",
      "outputs": [],
      "stateMutability": "nonpayable",
      "type": "function"
    },
    {
      "inputs": [
        {
          "internalType": "contract IERC20",
          "name": "token",
          "type": "address"
        }
      ],
      "name": "treasuryClaim",
      "outputs": [
        {
          "internalType": "uint256",
          "name": "amount",
          "type": "uint256"
        }
      ],
      "stateMutability": "nonpayable",
      "type": "function"
    }
  ],
  "bytecode": "0x6080604052348015600f57600080fd5b506016601a565b60ca565b7ff0c57e16840df040f15088dc2f81fe391c3923bec73e23a9662efc9c229c6a00805468010000000000000000900460ff161560695760405163f92ee8a960e01b815260040160405180910390fd5b80546001600160401b039081161460c75780546001600160401b0319166001600160401b0390811782556040519081527fc7f505b2f371ae2175ee4913f4499e1f2633a7b5936321eed1cdaeb6115181d29060200160405180910390a15b50565b61606d806100d96000396000f3fe608060405234801561001057600080fd5b50600436106103225760003560e01c806301ffc9a71461032757806302a3a9c91461034f5780630ef81b2f1461036457806310bc62811461039a57806311bd61d9146103c357806315cce224146103eb5780631ba72945146103fe5780632712225914610411578063351c2edd1461042d57806336c5d38a1461044e5780634017daf01461047e5780634044de3214610411578063406ed35c146104ab5780634147a360146104cb5780634d600e5d146104eb5780634e92ec63146104fe5780634fc77264146105115780635d168418146105245780635d204718146105445780635eac623914610570578063647846a5146105835780636db5c8fd14610596578063715018a61461059f578063779a0606146105a757806379ba5097146105b25780637c8c3b4d146105ba5780637cfa9d74146105cd5780637deccb97146105e05780637edcd7ab146105ea5780637f10792d146105fd57806381476ec214610606578063830d718114610619578063858142431461062c57806386d63bee1461063f5780638da5cb5b146106525780638dcdd86b1461065a5780638e5ce3ad1461066d57806390173a41146106805780639117173c1461069557806392312386146106a8578063929a8faf146106bb57806398969e82146106dc57806399c6679d146107125780639c8570c81461073b5780639d0e5af61461074e5780639e57b93414610757578063a87f4ab91461076a578063a8990a2f146108bc578063ac3d2f42146108cf578063ae169a50146108f8578063bb2d1b821461090b578063bff232c11461091e578063c1ab0f1f14610931578063c4ccafa214610944578063cb64961714610967578063cbd1687214610970578063cf0f34c414610983578063cfbdc98d14610996578063d8afed3e146109c6578063e30c3978146109d9578063e53c1a93146109e1578063e59e469514610a1a578063ea71aa5714610a2d578063f0691cba14610a40578063f2fde38b14610a53578063f3ceba3a14610a66578063f81b8ef614610a87578063fad8e11114610a9a578063fbdb323714610aad578063fd2f3d0114610ad6575b600080fd5b61033a6103353660046148b0565b610ae9565b60405190151581526020015b60405180910390f35b61036261035d3660046148f6565b610b20565b005b61038d610372366004614913565b6000908152600960205260409020546001600160a01b031690565b6040516103469190614939565b61038d6103a8366004614913565b6009602052600090815260409020546001600160a01b031681565b6103d66103d136600461495c565b610b85565b60405163ffffffff9091168152602001610346565b6103626103f93660046148f6565b610bc4565b61036261040c366004614998565b610cd3565b61041a61138881565b60405161ffff9091168152602001610346565b61044061043b3660046148f6565b610ce7565b604051908152602001610346565b61047161045c366004614913565b6000908152600f602052604090205460ff1690565b60405161034691906149de565b61049161048c366004614913565b610db2565b6040516103469e9d9c9b9a99989796959493929190614a42565b6104be6104b9366004614913565b610f62565b6040516103469190614c1f565b6104406104d9366004614913565b600c6020526000908152604090205481565b6103626104f9366004614c3d565b6111e4565b61036261050c366004614913565b6113b9565b61036261051f3660046148f6565b61144a565b610537610532366004614cd9565b6114df565b6040516103469190614cf4565b61033a6105523660046148f6565b6001600160a01b031660009081526021602052604090205460ff1690565b61044061057e366004614d07565b611579565b60045461038d906001600160a01b031681565b61044060055481565b6103626115f0565b6104406301e1338081565b610362611614565b6103626105c8366004614d7c565b611650565b6103626105db366004614913565b611706565b61044062278d0081565b61033a6105f8366004614ded565b61180a565b6103d661010081565b610362610614366004614e6a565b611bc3565b610362610627366004614e8c565b611cbb565b60015461038d906001600160a01b031681565b61036261064d366004614913565b611e17565b61038d611e54565b60005461038d906001600160a01b031681565b60035461038d906001600160a01b031681565b610688611e6f565b6040516103469190614ede565b6103626106a3366004614913565b611eb8565b6106886106b6366004614913565b612026565b6106ce6106c9366004614913565b612083565b604051610346929190614eff565b6104406106ea366004614d7c565b60009182526022602090815260408084206001600160a01b0393909316845291905290205490565b61038d610720366004614913565b6000908152601060205260409020546001600160a01b031690565b61033a610749366004614ded565b6120ad565b61044060245481565b610440610765366004614f15565b612334565b6108af604080516101e081018252600080825260208201819052918101829052606081018290526080810182905260a0810182905260c0810182905260e08101829052610100810182905261012081018290526101408101829052610160810182905261018081018290526101a081018290526101c081019190915250604080516101e0810182526018548152601954602080830191909152601a5492820192909252601b546060820152601c546080820152601d5460a0820152601e5460c0820152601f546001600160a01b03811660e083015261ffff600160a01b82048116610100840152600160b01b82048116610120840152600160c01b82048116610140840152600160d01b82048116610160840152600160e01b90910416610180820152905463ffffffff8082166101a0840152600160201b909104166101c082015290565b6040516103469190614f50565b6103626108ca36600461506c565b61267d565b61038d6108dd366004614913565b6000908152600a60205260409020546001600160a01b031690565b610440610906366004614913565b6126f5565b61036261091936600461509a565b612734565b61036261092c3660046148f6565b6127b6565b61036261093f366004614e6a565b61281b565b61033a6109523660046148f6565b60076020526000908152604090205460ff1681565b61044060065481565b61036261097e366004614d7c565b6128dc565b610362610991366004614913565b612998565b6109b96109a4366004614913565b6000908152600d602052604090205460ff1690565b60405161034691906150d6565b6103626109d43660046150e4565b612a0c565b61038d612abc565b6104406109ef366004615100565b6001600160a01b03918216600090815260236020908152604080832093909416825291909152205490565b610362610a283660046148f6565b612ac7565b610362610a3b36600461512e565b612b61565b60025461038d906001600160a01b031681565b610362610a613660046148f6565b612d28565b610a79610a74366004614f15565b612d99565b604051610346929190615168565b610471610a95366004614913565b613623565b610362610aa83660046148f6565b61389b565b61038d610abb366004614913565b600a602052600090815260409020546001600160a01b031681565b610362610ae43660046148f6565b613935565b60006001600160e01b031982166329dd8cb960e11b1480610b1a57506301ffc9a760e01b6001600160e01b03198316145b92915050565b610b286139c6565b6001600160a01b038116610b3b57600080fd5b600280546001600160a01b0319166001600160a01b0383169081179091556040517f9557d04c1c0b16f93f13b69aed23b3b6ab935bff3c53ac81d17896d3583542ed90600090a250565b60126020528160005260406000208160028110610ba157600080fd5b60089182820401919006600402915091509054906101000a900463ffffffff1681565b610bcc6139c6565b6001600160a01b03811615801590610bf257506004546001600160a01b03828116911614155b8190610c1b5760405163eddf07f560e01b8152600401610c129190614939565b60405180910390fd5b50600480546001600160a01b0319166001600160a01b03831690811790915560009081526021602052604090205460ff16610c99576001600160a01b038116600081815260216020908152604091829020805460ff191660019081179091559151918252600080516020616041833981519152910160405180910390a25b7f722ff84c1234b2482061def5c82c6b5080c117b3cbb69d686844a051e4b8e7f381604051610cc89190614939565b60405180910390a150565b610cdb6139c6565b610ce4816139fa565b50565b6000610cf1613aaa565b503360009081526023602090815260408083206001600160a01b038516845290915290205480610d34576040516312d37ee560e31b815260040160405180910390fd5b3360008181526023602090815260408083206001600160a01b0387168085529252822091909155610d659183613ae0565b6040518181526001600160a01b0383169033907f6458407f0340d4c9ab27e2a8e4cc46dc2773a24dca8086eef793c12bb811a29a9060200160405180910390a3610dad613b44565b919050565b600860205260009081526040902080546001820154600283015460058401546006850154600786018054959660ff95861696949593946001600160a01b03841694600160a01b90940490931692909190610e0b90615181565b80601f0160208091040260200160405190810160405280929190818152602001828054610e3790615181565b8015610e845780601f10610e5957610100808354040283529160200191610e84565b820191906000526020600020905b815481529060010190602001808311610e6757829003601f168201915b50505060088401546009850154600a860154600b870154600c8801805497986001600160a01b03958616989490951696509194509291610ec390615181565b80601f0160208091040260200160405190810160405280929190818152602001828054610eef90615181565b8015610f3c5780601f10610f1157610100808354040283529160200191610f3c565b820191906000526020600020905b815481529060010190602001808311610f1f57829003601f168201915b505050600d90930154919250506001600160a01b0381169060ff600160a01b909104168e565b610f6a61472d565b60008281526008602090815260409182902082516101e08101909352805483526001810154909183019060ff166003811115610fa857610fa86149b4565b6003811115610fb957610fb96149b4565b8152600282810154602083015260408051808201808352919093019291600385019182845b815481526020019060010190808311610fde5750505091835250506005820154602082015260068201546001600160a01b0381166040830152600160a01b900460ff16606082015260078201805460809092019161103b90615181565b80601f016020809104026020016040519081016040528092919081815260200182805461106790615181565b80156110b45780601f10611089576101008083540402835291602001916110b4565b820191906000526020600020905b81548152906001019060200180831161109757829003601f168201915b505050918352505060088201546001600160a01b0390811660208301526009830154166040820152600a8201546060820152600b8201546080820152600c8201805460a09092019161110590615181565b80601f016020809104026020016040519081016040528092919081815260200182805461113190615181565b801561117e5780601f106111535761010080835404028352916020019161117e565b820191906000526020600020905b81548152906001019060200180831161116157829003601f168201915b5050509183525050600d91909101546001600160a01b038082166020840152600160a01b90910460ff16151560409092019190915260a08201519192508391166111de5760405163cd6f4a4f60e01b8152600401610c1291815260200190565b50919050565b60006111ee613b55565b805490915060ff600160401b82041615906001600160401b03166000811580156112155750825b90506000826001600160401b031660011480156112315750303b155b90508115801561123f575080155b1561125d5760405163f92ee8a960e01b815260040160405180910390fd5b84546001600160401b0319166001178555831561128657845460ff60401b1916600160401b1785555b6001600160a01b038c1661129957600080fd5b6112a233613b7e565b6112aa613b8f565b6112b387612998565b6112bc8b61389b565b6112c58a612ac7565b6112ce89610b20565b6112d788610bc4565b6112e0866139fa565b73__$7d5fcb3ae6c8ef655f31d78f0108bdc679$__63764346ff6040518163ffffffff1660e01b815260040160006040518083038186803b15801561132457600080fd5b505af4158015611338573d6000803e3d6000fd5b50505050611344611e54565b6001600160a01b03168c6001600160a01b031614611365576113658c613b9f565b83156113ab57845460ff60401b19168555604051600181527fc7f505b2f371ae2175ee4913f4499e1f2633a7b5936321eed1cdaeb6115181d29060200160405180910390a15b505050505050505050505050565b6113c16139c6565b60008181526009602052604090205481906001600160a01b03166113fb576040516381c4951960e01b8152600401610c1291815260200190565b506000818152600960205260409081902080546001600160a01b0319169055517f104eb329a192aef26eddea07c2af5ad2587792e62b37ed4045b6ba59bc5540fc90610cc89083815260200190565b6114526139c6565b6001600160a01b038116600090815260076020526040902054819060ff1661148e576040516321ac7c5f60e01b8152600401610c129190614939565b506001600160a01b03811660009081526007602052604090819020805460ff19169055517f56070b80bd617fcd2f7a284861edb488830a38f9dedcd77b2cb2f4eac17743e790610cc8908390614939565b600b60205260009081526040902080546114f890615181565b80601f016020809104026020016040519081016040528092919081815260200182805461152490615181565b80156115715780601f1061154657610100808354040283529160200191611571565b820191906000526020600020905b81548152906001019060200180831161155457829003601f168201915b505050505081565b6000611583613aaa565b8160005b818110156115c5576115b18585838181106115a4576115a46151b5565b9050602002013533613bc2565b6115bb90846151e1565b9250600101611587565b50600082116115e7576040516312d37ee560e31b815260040160405180910390fd5b50610b1a613b44565b6115f86139c6565b6040516001623f026d60e01b0319815260040160405180910390fd5b338061161e612abc565b6001600160a01b031614611647578060405163118cdaa760e01b8152600401610c129190614939565b610ce481613b9f565b6116586139c6565b6001600160a01b0381161580159061168a57506000828152600a60205260409020546001600160a01b03828116911614155b82906116ac576040516381c4951960e01b8152600401610c1291815260200190565b506000828152600a602052604080822080546001600160a01b0319166001600160a01b0385169081179091559051909184917f53661e3e12f23eea1e322a5352171ad3e4407d1394f869f53bb148c27e00908a9190a35050565b6000546001600160a01b031633146117315760405163b56831db60e01b815260040160405180910390fd5b6000818152600d602052604090205460ff166001816006811115611757576117576149b4565b1461177c57816001826040516337e1404160e01b8152600401610c12939291906151f4565b6000828152600d60205260409020805460ff191660021790556015546117a290426151e1565b6000838152600e602052604080822092909255905183917fc44405af9078047712501f519e1fb900c2896c62b488336f84529c72ae16e6f191a281600080516020616001833981519152600160026040516117fe929190615215565b60405180910390a25050565b6000611814613aaa565b600061181f87610f62565b6000888152600d602052604090205490915060ff166004816006811115611848576118486149b4565b1488600483909192611870576040516337e1404160e01b8152600401610c12939291906151f4565b5050506000888152600e602090815260409182902082516060810184528154815260018201549281019290925260020154918101829052908990428110156118cd576040516308f3034360e31b8152600401610c12929190615230565b50506000898152600860205260409020600c016118eb888a836152b7565b506000898152600d60205260409020805460ff191660051790556101c083015115611b39578461192e57604051631eae1a4d60e31b815260040160405180910390fd5b600080546040516304cd0b0d60e11b8152600481018c90526001600160a01b039091169063099a161a90602401602060405180830381865afa158015611978573d6000803e3d6000fd5b505050506040513d601f19601f8201168201806040525081019061199c9190615370565b610100850151600054604051630651434d60e51b8152600481018e90529293506001600160a01b039182169263c342d8ae928e92169063ca2869a090602401602060405180830381865afa1580156119f8573d6000803e3d6000fd5b505050506040513d601f19601f82011682018060405250810190611a1c9190615370565b60008054906101000a90046001600160a01b03166001600160a01b031663a01649308f6040518263ffffffff1660e01b8152600401611a5d91815260200190565b600060405180830381865afa158015611a7a573d6000803e3d6000fd5b505050506040513d6000823e601f3d908101601f19168201604052611aa29190810190615452565b8861016001518961014001518f8f604051611abe929190615486565b6040518091039020888f8f6040518a63ffffffff1660e01b8152600401611aed99989796959493929190615504565b602060405180830381865afa158015611b0a573d6000803e3d6000fd5b505050506040513d601f19601f82011682018060405250810190611b2e9190615560565b506001945050611b3e565b600193505b611b4789613c89565b887f3a140076c461ebc41d74833ae0ee8bbc8079a135a63392098cd381e84350b69b89898989604051611b7d949392919061557d565b60405180910390a28860008051602061600183398151915260046005604051611ba7929190615215565b60405180910390a2505050611bba613b44565b95945050505050565b6000546001600160a01b03163314611bee5760405163b56831db60e01b815260040160405180910390fd5b6000828152600860209081526040808320600d9092529091205460ff166002816006811115611c1f57611c1f6149b4565b14611c4457836002826040516337e1404160e01b8152600401610c12939291906151f4565b6000848152600d6020526040808220805460ff19166003179055600a84018590555185917f11df18edb9bc9cd90a79068e0e208b630202148643d797d6150e7bacb733e63c91a28360008051602061600183398151915260026003604051611cad929190615215565b60405180910390a250505050565b611cc36139c6565b80611ccd57600080fd5b60ff83166000908152600b602052604081208054611cea90615181565b80601f0160208091040260200160405190810160405280929190818152602001828054611d1690615181565b8015611d635780601f10611d3857610100808354040283529160200191611d63565b820191906000526020600020905b815481529060010190602001808311611d4657829003601f168201915b5050505060ff86166000908152600b60205260409020919250611d8990508385836152b7565b508051600003611dd3577f6e4a4ea7f38fc775e616080b155744337e6216848e886a69c918b4ab84da2195848484604051611dc6939291906155af565b60405180910390a1611e11565b7f6eec8996f69c99beec779c1669adc196781eac49caf298b71ae09c7ebc6467ce84828585604051611e0894939291906155cc565b60405180910390a15b50505050565b611e1f6139c6565b60248190556040518181527f626be19f07270f3ff739849263a0cfde670d32d05f3ce9419313c38e014ed24190602001610cc8565b600080611e5f614092565b546001600160a01b031692915050565b611e9360405180606001604052806000815260200160008152602001600081525090565b5060408051606081018252601554815260165460208201526017549181019190915290565b6000818152600d602052604090205460ff166006816006811115611ede57611ede6149b4565b148290611f0157604051637cb2d48360e11b8152600401610c1291815260200190565b506000828152600c60205260409020548281611f33576040516345ba89d560e11b8152600401610c1291815260200190565b506000838152600c60205260408120819055611f4e846140b6565b6000858152601160205260409020546002549192506001600160a01b0390811691611f7c9183911685613ae0565b60025460405163da19b69760e01b81526001600160a01b039091169063da19b69790611fb29088908790879087906004016155fb565b600060405180830381600087803b158015611fcc57600080fd5b505af1158015611fe0573d6000803e3d6000fd5b50505050847f5297818f48a66292b8b3e2caab83eec531b669bb20807fd38cf006adb2a07317848451604051612017929190615230565b60405180910390a25050505050565b61204a60405180606001604052806000815260200160008152602001600081525090565b506000908152600e6020908152604091829020825160608101845281548152600182015492810192909252600201549181019190915290565b6000818152600d6020526040812054819060ff166120a184826141a9565b50909590945092505050565b60006120b7613aaa565b60006120c287610f62565b6000888152600d6020908152604080832054600e835292819020815160608101835281548152600182015493810193909352600201549082015291925060ff169073__$7d5fcb3ae6c8ef655f31d78f0108bdc679$__631a2dd41d8a846006811115612130576121306149b4565b60208501516060880151600160200201516101608901516040516001600160e01b031960e088901b168152600481019590955260ff90931660248501526044840191909152606483015260848201524260a482015260c40160006040518083038186803b1580156121a057600080fd5b505af41580156121b4573d6000803e3d6000fd5b50505050600088886040516121ca929190615486565b604080519182900390912060008c815260086020908152838220600b01839055600d905291909120805460ff1916600417905560175490915061220d90426151e1565b60008b8152600e6020526040908190206002019190915560a08501519051632f0e1bbf60e01b81526001600160a01b0390911690632f0e1bbf9061225b908d9085908c908c90600401615633565b6020604051808303816000875af115801561227a573d6000803e3d6000fd5b505050506040513d601f19601f8201168201806040525081019061229e9190615560565b94508888866122c257604051632f9f8ab960e01b8152600401610c1292919061565d565b5050897f7cc27e4a5626cbc4f8ba1a927b0448de55e6a114bc87660331270c5109ade0718a8a6040516122f692919061565d565b60405180910390a28960008051602061600183398151915260036004604051612320929190615215565b60405180910390a250505050611bba613b44565b600080600b8161234a60a0860160808701614cd9565b60ff1660ff168152602001908152602001600020805461236990615181565b90501161237557600080fd5b60006012816123876020860186615671565b6003811115612398576123986149b4565b60038111156123a9576123a96149b4565b815260208101919091526040908101600020815180830190925260028282826020028201916000905b82829054906101000a900463ffffffff1663ffffffff16815260200190600401906020826003010492830192600103820291508084116123d25790505050604080516101e0810182526018548152601954602080830191909152601a5492820192909252601b546060820152601c546080820152601d5460a0820152601e5460c0820152601f546001600160a01b03811660e083015261ffff600160a01b82048116610100840152600160b01b82048116610120840152600160c01b82048116610140840152600160d01b82048116610160840152600160e01b90910416610180820152815463ffffffff8082166101a0840152600160201b909104166101c082015294955073__$7d5fcb3ae6c8ef655f31d78f0108bdc679$__9350634ff2c9f5925085915061250590880188615671565b6003811115612516576125166149b4565b846101a00151856101c001516040518563ffffffff1660e01b815260040161254194939291906156b5565b60006040518083038186803b15801561255957600080fd5b505af415801561256d573d6000803e3d6000fd5b5050505073__$7d5fcb3ae6c8ef655f31d78f0108bdc679$__634ae7776b6018601560008054906101000a90046001600160a01b03166001600160a01b0316639f0f874a6040518163ffffffff1660e01b8152600401602060405180830381865afa1580156125e0573d6000803e3d6000fd5b505050506040513d601f19601f820116820180604052508101906126049190615370565b604080516001600160e01b031960e087901b16815261263494939291899160208d0135918d0135906004016156e8565b602060405180830381865af4158015612651573d6000803e3d6000fd5b505050506040513d601f19601f820116820180604052508101906126759190615370565b949350505050565b6126856139c6565b816001600160a01b0381166126ae5760405163eddf07f560e01b8152600401610c129190614939565b506001600160a01b038216600081815260216020908152604091829020805460ff1916851515908117909155915191825260008051602061604183398151915291016117fe565b60006126ff613aaa565b6127098233613bc2565b90506000811161272c576040516312d37ee560e31b815260040160405180910390fd5b610dad613b44565b6000546001600160a01b031633148061275757506003546001600160a01b031633145b61277457604051639e75a8b560e01b815260040160405180910390fd5b60008160ff1611801561278b5750600d60ff821611155b61279457600080fd5b6127b2828260ff16600d8111156127ad576127ad6149b4565b6141dd565b5050565b6127be6139c6565b6001600160a01b0381166127d157600080fd5b600380546001600160a01b0319166001600160a01b0383169081179091556040517f4ccc8ed483c7c44c3602c3c38afc2c014a8f1d2dc210dfe58ebeeeead230f8e090600090a250565b6003546001600160a01b03163314612846576040516357d6948d60e11b815260040160405180910390fd5b60025460405163c1ab0f1f60e01b81526001600160a01b039091169063c1ab0f1f906128789085908590600401615230565b600060405180830381600087803b15801561289257600080fd5b505af11580156128a6573d6000803e3d6000fd5b50505050817f4f41a3b0a032ebcae925f2ace77d507435840ca4b2dbaffdd7723fa8d72ee542826040516117fe91815260200190565b6128e46139c6565b6001600160a01b0381161580159061291657506000828152600960205260409020546001600160a01b03828116911614155b8290612938576040516381c4951960e01b8152600401610c1291815260200190565b5060008281526009602090815260409182902080546001600160a01b0319166001600160a01b03851617905590518381527ff4041a3f914dac3bc9bf5f003ba41f28dbb84abe42f4e07c76266f5c8ceecb69910160405180910390a15050565b6129a06139c6565b6000811180156129b457506301e133808111155b81906129d6576040516313b783af60e21b8152600401610c1291815260200190565b5060058190556040518181527fba0716ba1ee2ea8ecc4c64119b4537cdb42a99d82acf92af5b87607b8b52355290602001610cc8565b612a146139c6565b60405163de5fa95560e01b815273__$7d5fcb3ae6c8ef655f31d78f0108bdc679$__9063de5fa95590612a4b90849060040161593f565b60006040518083038186803b158015612a6357600080fd5b505af4158015612a77573d6000803e3d6000fd5b505050508060188181612a8a9190615975565b9050507fbf3951313e980027eb48ce363fdb707286195ec6a0f802ac153927cf929c3fc681604051610cc8919061593f565b600080611e5f61430b565b612acf6139c6565b6001600160a01b03811615801590612af557506001546001600160a01b03828116911614155b8190612b15576040516320252f0b60e01b8152600401610c129190614939565b50600180546001600160a01b0319166001600160a01b0383161790556040517fad4055f18cdad6f4bdd71afe3a72cbeee964217943e1bde38f138289e981a9a790610cc8908390614939565b612b696139c6565b604080516101e0810182526018548152601954602080830191909152601a5482840152601b546060830152601c546080830152601d5460a0830152601e5460c0830152601f546001600160a01b03811660e084015261ffff600160a01b82048116610100850152600160b01b82048116610120850152600160c01b82048116610140850152600160d01b82048116610160850152600160e01b909104166101808301525463ffffffff8082166101a08401819052600160201b909204166101c08301819052925163588370a960e11b8152919273__$7d5fcb3ae6c8ef655f31d78f0108bdc679$__9263b106e15292612c66928792600401615b35565b60006040518083038186803b158015612c7e57600080fd5b505af4158015612c92573d6000803e3d6000fd5b505050508160126000856003811115612cad57612cad6149b4565b6003811115612cbe57612cbe6149b4565b81526020810191909152604001600020612cd99160026147ad565b50826003811115612cec57612cec6149b4565b7f8b56fae526eee054f0849759a99fc7d4ff3823824ebf097a56f7d78adb6b34fa83604051612d1b9190615b90565b60405180910390a2505050565b612d306139c6565b6000612d3a61430b565b80546001600160a01b0319166001600160a01b0384169081178255909150612d60611e54565b6001600160a01b03167f38d16b8cac22d99fc7c124b9cd0de2d3fa1faef420bfe791d8c362d765e2270060405160405180910390a35050565b6000612da361472d565b612dab613aaa565b6004546001600160a01b031660008181526021602052604090205460ff16612de7576040516335b99e4360e11b8152600401610c129190614939565b506000601281612dfa6020870187615671565b6003811115612e0b57612e0b6149b4565b6003811115612e1c57612e1c6149b4565b815260208101919091526040908101600020815180830190925260028282826020028201916000905b82829054906101000a900463ffffffff1663ffffffff1681526020019060040190602082600301049283019260010382029150808411612e455790505050505050905060076000856060016020810190612e9f91906148f6565b6001600160a01b0316815260208101919091526040016000205460ff16612ecc60808601606087016148f6565b90612eeb5760405163295a6a6f60e11b8152600401610c129190614939565b506000612ef785612334565b601654601754600554604051637cad360760e01b815293945073__$7d5fcb3ae6c8ef655f31d78f0108bdc679$__93637cad360793612f419360208c019342938990600401615bd1565b60006040518083038186803b158015612f5957600080fd5b505af4158015612f6d573d6000803e3d6000fd5b505060068054965086925090506000612f8583615c02565b919050555060004485604051602001612f9f929190615230565b60408051808303601f1901815291815281516020928301206000888152600c84528281208690556004546011855283822080546001600160a01b039283166001600160a01b031991821617909155601f8054601388528685208054600160b01b90920461ffff1661ffff19909216919091179055546014875285842080549190931690821617909155600d8552838220805460ff1916600117905560109094528290208054909316331790925560165491925061305f91908801356151e1565b6000868152600e602090815260409091206001019190915581855261308690870187615671565b8460200190600381111561309c5761309c6149b4565b908160038111156130af576130af6149b4565b9052504260408086019190915280518082018252906020880190600290839083908082843760009201919091525050506060808601919091526130f890608088019088016148f6565b6001600160a01b031660a08086019190915261311990870160808801614cd9565b60ff1660c08086019190915261313190870187615c1b565b8080601f01602080910402602001604051908101604052809392919081815260200183838082843760009201919091525050505060e08086019190915261317f906101008801908801615c61565b15156101c0850152336101a08501526000600b816131a360a08a0160808b01614cd9565b60ff1660ff16815260200190815260200160002080546131c290615181565b80601f01602080910402602001604051908101604052809291908181526020018280546131ee90615181565b801561323b5780601f106132105761010080835404028352916020019161323b565b820191906000526020600020905b81548152906001019060200180831161321e57829003601f168201915b50505050509050600081511161325057600080fd5b60006132626080890160608a016148f6565b6001600160a01b031663fefd9a8b88858561328060a08e018e615c1b565b8e8060c001906132909190615c1b565b6040518863ffffffff1660e01b81526004016132b29796959493929190615c7e565b6020604051808303816000875af11580156132d1573d6000803e3d6000fd5b505050506040513d601f19601f820116820180604052508101906132f59190615370565b6000818152600960205260409020549091506001600160a01b03168181613332576040516381c4951960e01b8152600401610c1291815260200190565b506000828152600a60205260409020546001600160a01b0316828161336d576040516381c4951960e01b8152600401610c1291815260200190565b50608088018390526001600160a01b038083166101008a0152811661012089015260008981526008602090815260409091208951815590890151600180830180548c94939260ff1991909116908360038111156133cc576133cc6149b4565b0217905550604082015181600201556060820151816003019060026133f292919061484f565b506080820151600582015560a082015160068201805460c085015160ff16600160a01b026001600160a81b03199091166001600160a01b039093169290921791909117905560e0820151600782019061344b9082615cd3565b506101008201516008820180546001600160a01b039283166001600160a01b031991821617909155610120840151600984018054919093169116179055610140820151600a820155610160820151600b820155610180820151600c8201906134b39082615cd3565b506101a0820151600d90910180546101c0909301511515600160a01b026001600160a81b03199093166001600160a01b0392831617929092179091556004546134ff911633308961432f565b60005460405163291a691b60e01b81526001600160a01b039091169063291a691b90613533908c9089908c90600401615d8b565b6020604051808303816000875af1158015613552573d6000803e3d6000fd5b505050506040513d601f19601f820116820180604052508101906135769190615560565b61359357604051630d8dbe2560e01b815260040160405180910390fd5b6135a360808b0160608c016148f6565b6001600160a01b03167f5090c9764b5cd13df7afc0013f733dfbe6eaf1b6ddc22a5e291fa387efd4c15e8a8a6040516135dd929190615168565b60405180910390a28860008051602061600183398151915260006001604051613607929190615215565b60405180910390a25050505050505061361e613b44565b915091565b6000818152600d602052604081205460ff1673__$7d5fcb3ae6c8ef655f31d78f0108bdc679$__637e262a6f84836006811115613662576136626149b4565b6040516001600160e01b031960e085901b168152600481019290925260ff16602482015260440160006040518083038186803b1580156136a157600080fd5b505af41580156136b5573d6000803e3d6000fd5b505050506000806136c685846141a9565b9095509092509050816136ef57604051639f65d93560e01b815260048101869052602401610c12565b60245480156137f157600061370482846151e1565b9050804210801561372c57506000878152601060205260409020546001600160a01b03163314155b8015613751575061373b611e54565b6001600160a01b0316336001600160a01b031614155b80156137cd575060005460405163a8a4d69b60e01b8152600481018990523360248201526001600160a01b039091169063a8a4d69b90604401602060405180830381865afa1580156137a7573d6000803e3d6000fd5b505050506040513d601f19601f820116820180604052508101906137cb9190615560565b155b156137ef5786816040516324d4b88f60e21b8152600401610c12929190615230565b505b6000868152600d6020526040902080546006919060ff191660018302179055506000868152600f60205260409020805486919060ff1916600183600d81111561383c5761383c6149b4565b021790555085600080516020616001833981519152856006604051613862929190615215565b60405180910390a285600080516020616021833981519152858760405161388a929190615dd1565b60405180910390a250505050919050565b6138a36139c6565b6001600160a01b038116158015906138c957506000546001600160a01b03828116911614155b81906138e9576040516375ac4eb760e11b8152600401610c129190614939565b50600080546001600160a01b0319166001600160a01b0383161790556040517f80052b810d39120cf6c976cca504a21703f585521dc7a41c6d241090e6c579b690610cc8908390614939565b6001600160a01b038116600090815260076020526040902054819060ff16156139725760405163b29d459560e01b8152600401610c129190614939565b506001600160a01b03811660009081526007602052604090819020805460ff19166001179055517fb8d368517268f297fff00825d67d098763117d061360d31027be5b2e1a59d46790610cc8908390614939565b336139cf611e54565b6001600160a01b0316146139f8573360405163118cdaa760e01b8152600401610c129190614939565b565b6040516336523a5f60e01b815273__$7d5fcb3ae6c8ef655f31d78f0108bdc679$__906336523a5f90613a3690849062278d0090600401615e05565b60006040518083038186803b158015613a4e57600080fd5b505af4158015613a62573d6000803e3d6000fd5b5050508135601555506020810135601655604080820135601755517f7e86ba16b805e2835af5c5b7aa5a942ced8bcc1fb95a05fbe42dae3862350a1690610cc8908390615e20565b6000613ab4614368565b805490915060011901613ada57604051633ee5aeb560e01b815260040160405180910390fd5b60029055565b6040516001600160a01b03838116602483015260448201839052613b3f91859182169063a9059cbb906064015b604051602081830303815290604052915060e01b6020820180516001600160e01b03838183161783525050505061438c565b505050565b6000613b4e614368565b6001905550565b6000807ff0c57e16840df040f15088dc2f81fe391c3923bec73e23a9662efc9c229c6a00610b1a565b613b866143f4565b610ce481614419565b613b976143f4565b6139f861444b565b6000613ba961430b565b80546001600160a01b031916815590506127b282614453565b60008281526022602090815260408083206001600160a01b038516845290915281205490819003613bf557506000610b1a565b60008381526022602090815260408083206001600160a01b03808716855290835281842084905586845260119092529091205416613c34818484613ae0565b806001600160a01b0316836001600160a01b0316857fd7566a1f449b7ee89a6af29f319e117c231ea862057eb65395ca2bf70283b1c885604051613c7a91815260200190565b60405180910390a45092915050565b6000805460405162beb08960e51b8152600481018490526001600160a01b03909116906317d6112090602401600060405180830381865afa158015613cd2573d6000803e3d6000fd5b505050506040513d6000823e601f3d908101601f19168201604052613cfa9190810190615e8c565b5080516000848152600c60209081526040808320805490849055601190925282205493945091926001600160a01b031690829003613d9f576002546040516341489f1560e01b81526001600160a01b03909116906341489f1590613d6690889088908690600401615ef5565b600060405180830381600087803b158015613d8057600080fd5b505af1158015613d94573d6000803e3d6000fd5b505050505050505050565b82600003613e47576000858152601060205260409020546001600160a01b03168015613dd957613dd96001600160a01b0383168285613ae0565b6002546040516341489f1560e01b81526001600160a01b03909116906341489f1590613e0d90899089908790600401615ef5565b600060405180830381600087803b158015613e2757600080fd5b505af1158015613e3b573d6000803e3d6000fd5b50505050505050505050565b600085815260136020908152604080832054601490925282205461ffff909116906001600160a01b03168115801590613e8857506001600160a01b03811615155b15613f3d57612710613e9e61ffff841687615f26565b613ea89190615f3d565b92508215613f3d576001600160a01b03808216600090815260236020908152604080832093881683529290529081208054859290613ee79084906151e1565b92505081905550836001600160a01b0316816001600160a01b0316897f62d886e26db625296d628b1cf7f47f83051f9d83e216a8ad38041673a2058f9a86604051613f3491815260200190565b60405180910390a45b6000613f498487615f5f565b60405160016233c60b60e11b031981526004810182905260248101899052604481018b905290915060009073__$7d5fcb3ae6c8ef655f31d78f0108bdc679$__9063ff9873ea90606401600060405180830381865af4158015613fb0573d6000803e3d6000fd5b505050506040513d6000823e601f3d908101601f19168201604052613fd89190810190615f72565b9050613fe68a8a83896144af565b897fac9fe8ad7f55eac03284399116ecafc104f10459773f4cdf47063c46e5be335a8a83604051614018929190615fa6565b60405180910390a26002546040516341489f1560e01b81526001600160a01b03909116906341489f1590614054908d908d908b90600401615ef5565b600060405180830381600087803b15801561406e57600080fd5b505af1158015614082573d6000803e3d6000fd5b5050505050505050505050505050565b7f9016d09d72d40fdae2fd8ceac6b6234c7706214fd39c1cd1e609a0528c19930090565b6000818152600f602052604090205460609060ff16600181600d8111156140df576140df6149b4565b14806140fc5750600281600d8111156140fa576140fa6149b4565b145b156141355760005b60405190808252806020026020018201604052801561412d578160200160208202803683370190505b509392505050565b60005460405162beb08960e51b8152600481018590526001600160a01b03909116906317d6112090602401600060405180830381865afa92505050801561419e57506040513d6000823e601f3d908101601f1916820160405261419b9190810190615e8c565b60015b61412d576000614104565b60008060006141b885856145c4565b9250905080158015906141ca57508042115b9250826141d657600091505b9250925092565b6000828152600d602052604090205460ff1673__$7d5fcb3ae6c8ef655f31d78f0108bdc679$__637e262a6f8483600681111561421c5761421c6149b4565b6040516001600160e01b031960e085901b168152600481019290925260ff16602482015260440160006040518083038186803b15801561425b57600080fd5b505af415801561426f573d6000803e3d6000fd5b5050506000848152600d6020526040902080546006925060ff191660018302179055506000838152600f60205260409020805483919060ff1916600183600d8111156142bd576142bd6149b4565b0217905550826000805160206160018339815191528260066040516142e3929190615215565b60405180910390a2826000805160206160218339815191528284604051612d1b929190615dd1565b7f237e158222e3e6968b72b9db0d8043aacf074ad9f650f0d1606b4d82ee432c0090565b6040516001600160a01b038481166024830152838116604483015260648201839052611e119186918216906323b872dd90608401613b0d565b7f9b779b17422d0df92223018b32b4d1fa46e071723d6817e2486d003becc55f0090565b600080602060008451602086016000885af1806143af576040513d6000823e3d81fd5b50506000513d915081156143c75780600114156143d4565b6001600160a01b0384163b155b15611e115783604051635274afe760e01b8152600401610c129190614939565b6143fc614713565b6139f857604051631afcd79f60e31b815260040160405180910390fd5b6144216143f4565b6001600160a01b038116611647576000604051631e4fbdf760e01b8152600401610c129190614939565b613b446143f4565b600061445d614092565b80546001600160a01b038481166001600160a01b031983168117845560405193945091169182907f8be0079c531659141344cd1fd0a4f28419497f9722a3daafe3b4186f6b6457e090600090a3505050565b825160005b818110156145bc5760008482815181106144d0576144d06151b5565b60200260200101519050806000036144e857506145b4565b6000878152602260205260408120875183929089908690811061450d5761450d6151b5565b60200260200101516001600160a01b03166001600160a01b03168152602001908152602001600020600082825461454491906151e1565b92505081905550836001600160a01b0316868381518110614567576145676151b5565b60200260200101516001600160a01b0316887fdf636f3c38711e6702b8ef7055cc13b79e969206c537757c1fee37dbbc71df74846040516145aa91815260200190565b60405180910390a4505b6001016144b4565b505050505050565b60008060018360068111156145db576145db6149b4565b0361465857600054604051632800d82960e01b8152600481018690526001600160a01b0390911690632800d82990602401602060405180830381865afa158015614629573d6000803e3d6000fd5b505050506040513d601f19601f8201168201806040525081019061464d9190615370565b60019150915061470c565b6000848152600e602090815260409182902082516060810184528154815260018201549281019290925260029081015492820192909252908460068111156146a2576146a26149b4565b036146b3575191506003905061470c565b60038460068111156146c7576146c76149b4565b036146db576020015191506006905061470c565b60048460068111156146ef576146ef6149b4565b0361470357604001519150600a905061470c565b60008092509250505b9250929050565b600061471d613b55565b54600160401b900460ff16919050565b604080516101e081019091526000808252602082019081526020016000815260200161475761487d565b81526000602082018190526040820181905260608083018290526080830181905260a0830182905260c0830182905260e08301829052610100830182905261012083015261014082018190526101609091015290565b60018301918390821561483f5791602002820160005b8382111561480d57833563ffffffff1683826101000a81548163ffffffff021916908363ffffffff16021790555092602001926004016020816003010492830192600103026147c3565b801561483d5782816101000a81549063ffffffff021916905560040160208160030104928301926001030261480d565b505b5061484b92915061489b565b5090565b826002810192821561483f579160200282015b8281111561483f578251825591602001919060010190614862565b60405180604001604052806002906020820280368337509192915050565b5b8082111561484b576000815560010161489c565b6000602082840312156148c257600080fd5b81356001600160e01b0319811681146148da57600080fd5b9392505050565b6001600160a01b0381168114610ce457600080fd5b60006020828403121561490857600080fd5b81356148da816148e1565b60006020828403121561492557600080fd5b5035919050565b6001600160a01b03169052565b6001600160a01b0391909116815260200190565b803560048110610dad57600080fd5b6000806040838503121561496f57600080fd5b6149788361494d565b946020939093013593505050565b6000606082840312156111de57600080fd5b6000606082840312156149aa57600080fd5b6148da8383614986565b634e487b7160e01b600052602160045260246000fd5b600e81106149da576149da6149b4565b9052565b60208101610b1a82846149ca565b600481106149da576149da6149b4565b6000815180845260005b81811015614a2257602081850181015186830182015201614a06565b506000602082860101526020601f19601f83011685010191505092915050565b8e8152614a52602082018f6149ec565b8c60408201528b6060820152614a6b608082018c61492c565b60ff8a1660a08201526101c060c08201526000614a8c6101c083018b6149fc565b614a9960e084018b61492c565b614aa761010084018a61492c565b8761012084015286610140840152828103610160840152614ac881876149fc565b915050614ad961018083018561492c565b8215156101a08301529f9e505050505050505050505050505050565b8060005b6002811015611e11578151845260209384019390910190600101614af9565b8051825260006020820151614b3060208501826149ec565b50604082015160408401526060820151614b4d6060850182614af5565b50608082015160a084015260a0820151614b6a60c085018261492c565b5060c082015160ff811660e08501525060e0820151610200610100850152614b966102008501826149fc565b9050610100830151614bac61012086018261492c565b50610120830151614bc161014086018261492c565b506101408301516101608501526101608301516101808501526101808301518482036101a0860152614bf382826149fc565b9150506101a0830151614c0a6101c086018261492c565b506101c08301518015156101e086015261412d565b6020815260006148da6020830184614b18565b8035610dad816148e1565b6000806000806000806000610120888a031215614c5957600080fd5b8735614c64816148e1565b96506020880135614c74816148e1565b95506040880135614c84816148e1565b94506060880135614c94816148e1565b93506080880135614ca4816148e1565b925060a08801359150614cba8960c08a01614986565b905092959891949750929550565b803560ff81168114610dad57600080fd5b600060208284031215614ceb57600080fd5b6148da82614cc8565b6020815260006148da60208301846149fc565b60008060208385031215614d1a57600080fd5b82356001600160401b03811115614d3057600080fd5b8301601f81018513614d4157600080fd5b80356001600160401b03811115614d5757600080fd5b8560208260051b8401011115614d6c57600080fd5b6020919091019590945092505050565b60008060408385031215614d8f57600080fd5b823591506020830135614da1816148e1565b809150509250929050565b60008083601f840112614dbe57600080fd5b5081356001600160401b03811115614dd557600080fd5b60208301915083602082850101111561470c57600080fd5b600080600080600060608688031215614e0557600080fd5b8535945060208601356001600160401b03811115614e2257600080fd5b614e2e88828901614dac565b90955093505060408601356001600160401b03811115614e4d57600080fd5b614e5988828901614dac565b969995985093965092949392505050565b60008060408385031215614e7d57600080fd5b50508035926020909101359150565b600080600060408486031215614ea157600080fd5b614eaa84614cc8565b925060208401356001600160401b03811115614ec557600080fd5b614ed186828701614dac565b9497909650939450505050565b81518152602080830151908201526040808301519082015260608101610b1a565b8215158152604081016148da60208301846149ca565b600060208284031215614f2757600080fd5b81356001600160401b03811115614f3d57600080fd5b820161010081850312156148da57600080fd5b60006101e082019050825182526020830151602083015260408301516040830152606083015160608301526080830151608083015260a083015160a083015260c083015160c083015260e0830151614fab60e084018261492c565b50610100830151614fc361010084018261ffff169052565b50610120830151614fdb61012084018261ffff169052565b50610140830151614ff361014084018261ffff169052565b5061016083015161500b61016084018261ffff169052565b5061018083015161502361018084018261ffff169052565b506101a083015161503d6101a084018263ffffffff169052565b506101c08301516150576101c084018263ffffffff169052565b5092915050565b8015158114610ce457600080fd5b6000806040838503121561507f57600080fd5b823561508a816148e1565b91506020830135614da18161505e565b600080604083850312156150ad57600080fd5b823591506150bd60208401614cc8565b90509250929050565b600781106149da576149da6149b4565b60208101610b1a82846150c6565b60006101e08284031280156150f857600080fd5b509092915050565b6000806040838503121561511357600080fd5b823561511e816148e1565b91506020830135614da1816148e1565b6000806060838503121561514157600080fd5b61514a8361494d565b91508360608401111561515c57600080fd5b50926020919091019150565b8281526040602082015260006126756040830184614b18565b600181811c9082168061519557607f821691505b6020821081036111de57634e487b7160e01b600052602260045260246000fd5b634e487b7160e01b600052603260045260246000fd5b634e487b7160e01b600052601160045260246000fd5b80820180821115610b1a57610b1a6151cb565b8381526060810161520860208301856150c6565b61267560408301846150c6565b6040810161522382856150c6565b6148da60208301846150c6565b918252602082015260400190565b634e487b7160e01b600052604160045260246000fd5b601f821115613b3f57806000526020600020601f840160051c8101602085101561527b5750805b601f840160051c820191505b8181101561529b5760008155600101615287565b5050505050565b600019600383901b1c191660019190911b1790565b6001600160401b038311156152ce576152ce61523e565b6152e2836152dc8354615181565b83615254565b6000601f84116001811461531057600085156152fe5750838201355b61530886826152a2565b84555061529b565b600083815260209020601f19861690835b828110156153415786850135825560209485019460019092019101615321565b508682101561535e5760001960f88860031b161c19848701351681555b505060018560011b0183555050505050565b60006020828403121561538257600080fd5b5051919050565b604051601f8201601f191681016001600160401b03811182821017156153b1576153b161523e565b604052919050565b60006001600160401b038211156153d2576153d261523e565b5060051b60200190565b600082601f8301126153ed57600080fd5b81516154006153fb826153b9565b615389565b8082825260208201915060208360051b86010192508583111561542257600080fd5b602085015b8381101561544857805161543a816148e1565b835260209283019201615427565b5095945050505050565b60006020828403121561546457600080fd5b81516001600160401b0381111561547a57600080fd5b612675848285016153dc565b8183823760009101908152919050565b600081518084526020840193506020830160005b828110156154d15781516001600160a01b03168652602095860195909101906001016154aa565b5093949350505050565b81835281816020850137506000828201602090810191909152601f909101601f19169091010190565b8981528860208201526101006040820152600061552561010083018a615496565b8860608401528760808401528660a08401528560c084015282810360e08401526155508185876154db565b9c9b505050505050505050505050565b60006020828403121561557257600080fd5b81516148da8161505e565b6040815260006155916040830186886154db565b82810360208401526155a48185876154db565b979650505050505050565b60ff84168152604060208201526000611bba6040830184866154db565b60ff851681526060602082015260006155e860608301866149fc565b82810360408401526155a48185876154db565b84815283602082015260806040820152600061561a6080830185615496565b905060018060a01b038316606083015295945050505050565b8481528360208201526060604082015260006156536060830184866154db565b9695505050505050565b6020815260006126756020830184866154db565b60006020828403121561568357600080fd5b6148da8261494d565b8060005b6002811015611e1157815163ffffffff16845260209384019390910190600101615690565b60a081016156c3828761568c565b60ff94909416604082015263ffffffff92831660608201529116608090910152919050565b8654815260018701546020820152600287015460408201526003870154606082015260048701546080820152600587015460a0820152600687015460c082015260078701546102e082019061574960e084016001600160a01b03831661492c565b60a081901c61ffff1661010084015260b081901c61ffff1661012084015260c081901c61ffff1661014084015260d081901c61ffff1661016084015260e081901c61ffff1661018084015250600888015463ffffffff81166101a0840152602081901c63ffffffff166101c08401525086546101e083015260018701546102008301526002870154610220830152856102408301526157ec61026083018661568c565b6102a08201939093526102c00152949350505050565b61ffff81168114610ce457600080fd5b8035610dad81615802565b63ffffffff81168114610ce457600080fd5b8035610dad8161581d565b803582526020808201359083015260408082013590830152606080820135908301526080808201359083015260a0808201359083015260c0808201359083015261588660e08201614c32565b61589360e084018261492c565b506158a16101008201615812565b61ffff166101008301526158b86101208201615812565b61ffff166101208301526158cf6101408201615812565b61ffff166101408301526158e66101608201615812565b61ffff166101608301526158fd6101808201615812565b61ffff166101808301526159146101a0820161582f565b63ffffffff166101a083015261592d6101c0820161582f565b63ffffffff81166101c0840152505050565b6101e08101610b1a828461583a565b60008135610b1a816148e1565b60008135610b1a81615802565b60008135610b1a8161581d565b813581556020820135600182015560408201356002820155606082013560038201556080820135600482015560a0820135600582015560c08201356006820155600781016159e56159c860e0850161594e565b82546001600160a01b0319166001600160a01b0391909116178255565b615a156159f5610100850161595b565b82805461ffff60a01b191660a09290921b61ffff60a01b16919091179055565b615a45615a25610120850161595b565b82805461ffff60b01b191660b09290921b61ffff60b01b16919091179055565b615a75615a55610140850161595b565b82805461ffff60c01b191660c09290921b61ffff60c01b16919091179055565b615aa5615a85610160850161595b565b82805461ffff60d01b191660d09290921b61ffff60d01b16919091179055565b615ad5615ab5610180850161595b565b82805461ffff60e01b191660e09290921b61ffff60e01b16919091179055565b5060088101615b01615aea6101a08501615968565b825463ffffffff191663ffffffff91909116178255565b613b3f615b116101c08501615968565b82805463ffffffff60201b191660209290921b63ffffffff60201b16919091179055565b60808101818560005b6002811015615b6d578135615b528161581d565b63ffffffff1683526020928301929190910190600101615b3e565b50505063ffffffff8416604083015263ffffffff83166060830152949350505050565b60408101818360005b6002811015615bc8578135615bad8161581d565b63ffffffff1683526020928301929190910190600101615b99565b50505092915050565b60e08101604088833760408201969096526060810194909452608084019290925260a083015260c090910152919050565b600060018201615c1457615c146151cb565b5060010190565b6000808335601e19843603018112615c3257600080fd5b8301803591506001600160401b03821115615c4c57600080fd5b60200191503681900382131561470c57600080fd5b600060208284031215615c7357600080fd5b81356148da8161505e565b87815286602082015260a060408201526000615c9d60a08301886149fc565b8281036060840152615cb08187896154db565b90508281036080840152615cc58185876154db565b9a9950505050505050505050565b81516001600160401b03811115615cec57615cec61523e565b615d0081615cfa8454615181565b84615254565b6020601f821160018114615d2e5760008315615d1c5750848201515b615d2684826152a2565b85555061529b565b600084815260208120601f198516915b82811015615d5e5787850151825560209485019460019092019101615d3e565b5084821015615d7c5786840151600019600387901b60f8161c191681555b50505050600190811b01905550565b8381526020810183905260808101604082018360005b6002811015615dc657815163ffffffff16835260209283019290910190600101615da1565b505050949350505050565b60408101615ddf82856150c6565b6148da60208301846149ca565b8035825260208082013590830152604090810135910152565b60808101615e138285615dec565b8260608301529392505050565b60608101610b1a8284615dec565b600082601f830112615e3f57600080fd5b8151615e4d6153fb826153b9565b8082825260208201915060208360051b860101925085831115615e6f57600080fd5b602085015b83811015615448578051835260209283019201615e74565b60008060408385031215615e9f57600080fd5b82516001600160401b03811115615eb557600080fd5b615ec1858286016153dc565b602085015190935090506001600160401b03811115615edf57600080fd5b615eeb85828601615e2e565b9150509250929050565b838152606060208201526000615f0e6060830185615496565b905060018060a01b0383166040830152949350505050565b8082028115828204841417610b1a57610b1a6151cb565b600082615f5a57634e487b7160e01b600052601260045260246000fd5b500490565b81810381811115610b1a57610b1a6151cb565b600060208284031215615f8457600080fd5b81516001600160401b03811115615f9a57600080fd5b61267584828501615e2e565b604081526000615fb96040830185615496565b828103602084015280845180835260208301915060208601925060005b81811015615ff4578351835260209384019390920191600101615fd6565b5090969550505050505056fe1b418a230a21d37a078bf8f16decbde8ccceacd77159371f62f0d4ea00d19967e20209be7caae6e76291267cfa711353981274bf127e94f16eb9ec44b68582bbbe98ad384b5e8da1954c30278ba3c2c981c7eafb2c01126a9d4b275f88fad77da164736f6c634300081c000a",
  "linkReferences": {
    "project/contracts/lib/EnclavePricing.sol": {
      "EnclavePricing": [
        {
          "length": 20,
          "start": 5051
        },
        {
          "length": 20,
          "start": 8670
        },
        {
          "length": 20,
          "start": 9651
        },
        {
          "length": 20,
          "start": 9804
        },
        {
          "length": 20,
          "start": 11004
        },
        {
          "length": 20,
          "start": 11543
        },
        {
          "length": 20,
          "start": 12267
        },
        {
          "length": 20,
          "start": 14096
        },
        {
          "length": 20,
          "start": 15074
        },
        {
          "length": 20,
          "start": 16463
        },
        {
          "length": 20,
          "start": 17098
        }
      ]
    }
  },
  "deployedLinkReferences": {
    "project/contracts/lib/EnclavePricing.sol": {
      "EnclavePricing": [
        {
          "length": 20,
          "start": 4834
        },
        {
          "length": 20,
          "start": 8453
        },
        {
          "length": 20,
          "start": 9434
        },
        {
          "length": 20,
          "start": 9587
        },
        {
          "length": 20,
          "start": 10787
        },
        {
          "length": 20,
          "start": 11326
        },
        {
          "length": 20,
          "start": 12050
        },
        {
          "length": 20,
          "start": 13879
        },
        {
          "length": 20,
          "start": 14857
        },
        {
          "length": 20,
          "start": 16246
        },
        {
          "length": 20,
          "start": 16881
        }
      ]
    }
  },
  "immutableReferences": {},
  "inputSourceName": "project/contracts/Enclave.sol",
  "buildInfoId": "solc-0_8_28-6326ac427a5471359bd6a3cc51e54c590daedb09"
}