{
  "_format": "hh3-artifact-1",
  "contractName": "Enclave",
  "sourceName": "contracts/Enclave.sol",
  "abi": [
    {
      "inputs": [],
      "stateMutability": "nonpayable",
      "type": "constructor"
    },
    {
      "inputs": [
        {
          "internalType": "uint256",
          "name": "e3Id",
          "type": "uint256"
        }
      ],
      "name": "CiphertextOutputAlreadyPublished",
      "type": "error"
    },
    {
      "inputs": [
        {
          "internalType": "uint256",
          "name": "e3Id",
          "type": "uint256"
        }
      ],
      "name": "CiphertextOutputNotPublished",
      "type": "error"
    },
    {
      "inputs": [
        {
          "internalType": "uint256",
          "name": "e3Id",
          "type": "uint256"
        },
        {
          "internalType": "uint256",
          "name": "expiration",
          "type": "uint256"
        }
      ],
      "name": "CommitteeDutiesCompleted",
      "type": "error"
    },
    {
      "inputs": [],
      "name": "CommitteeSelectionFailed",
      "type": "error"
    },
    {
      "inputs": [
        {
          "internalType": "enum IEnclave.CommitteeSize",
          "name": "committeeSize",
          "type": "uint8"
        }
      ],
      "name": "CommitteeSizeNotConfigured",
      "type": "error"
    },
    {
      "inputs": [
        {
          "internalType": "uint256",
          "name": "e3Id",
          "type": "uint256"
        }
      ],
      "name": "E3AlreadyComplete",
      "type": "error"
    },
    {
      "inputs": [
        {
          "internalType": "uint256",
          "name": "e3Id",
          "type": "uint256"
        }
      ],
      "name": "E3AlreadyFailed",
      "type": "error"
    },
    {
      "inputs": [
        {
          "internalType": "uint256",
          "name": "e3Id",
          "type": "uint256"
        }
      ],
      "name": "E3DoesNotExist",
      "type": "error"
    },
    {
      "inputs": [
        {
          "internalType": "contract IE3Program",
          "name": "e3Program",
          "type": "address"
        }
      ],
      "name": "E3ProgramNotAllowed",
      "type": "error"
    },
    {
      "inputs": [
        {
          "internalType": "uint256",
          "name": "e3Id",
          "type": "uint256"
        }
      ],
      "name": "FailureConditionNotMet",
      "type": "error"
    },
    {
      "inputs": [
        {
          "internalType": "uint256",
          "name": "e3Id",
          "type": "uint256"
        },
        {
          "internalType": "uint256",
          "name": "inputDeadline",
          "type": "uint256"
        }
      ],
      "name": "InputDeadlineNotReached",
      "type": "error"
    },
    {
      "inputs": [
        {
          "internalType": "contract IBondingRegistry",
          "name": "bondingRegistry",
          "type": "address"
        }
      ],
      "name": "InvalidBondingRegistry",
      "type": "error"
    },
    {
      "inputs": [
        {
          "internalType": "contract ICiphernodeRegistry",
          "name": "ciphernodeRegistry",
          "type": "address"
        }
      ],
      "name": "InvalidCiphernodeRegistry",
      "type": "error"
    },
    {
      "inputs": [
        {
          "internalType": "uint256",
          "name": "duration",
          "type": "uint256"
        }
      ],
      "name": "InvalidDuration",
      "type": "error"
    },
    {
      "inputs": [
        {
          "internalType": "bytes32",
          "name": "encryptionSchemeId",
          "type": "bytes32"
        }
      ],
      "name": "InvalidEncryptionScheme",
      "type": "error"
    },
    {
      "inputs": [
        {
          "internalType": "contract IERC20",
          "name": "feeToken",
          "type": "address"
        }
      ],
      "name": "InvalidFeeToken",
      "type": "error"
    },
    {
      "inputs": [],
      "name": "InvalidInitialization",
      "type": "error"
    },
    {
      "inputs": [
        {
          "internalType": "uint256",
          "name": "deadline",
          "type": "uint256"
        }
      ],
      "name": "InvalidInputDeadline",
      "type": "error"
    },
    {
      "inputs": [
        {
          "internalType": "uint256",
          "name": "end",
          "type": "uint256"
        }
      ],
      "name": "InvalidInputDeadlineEnd",
      "type": "error"
    },
    {
      "inputs": [
        {
          "internalType": "uint256",
          "name": "start",
          "type": "uint256"
        }
      ],
      "name": "InvalidInputDeadlineStart",
      "type": "error"
    },
    {
      "inputs": [
        {
          "internalType": "bytes",
          "name": "output",
          "type": "bytes"
        }
      ],
      "name": "InvalidOutput",
      "type": "error"
    },
    {
      "inputs": [
        {
          "internalType": "uint256",
          "name": "e3Id",
          "type": "uint256"
        },
        {
          "internalType": "enum IEnclave.E3Stage",
          "name": "expected",
          "type": "uint8"
        },
        {
          "internalType": "enum IEnclave.E3Stage",
          "name": "actual",
          "type": "uint8"
        }
      ],
      "name": "InvalidStage",
      "type": "error"
    },
    {
      "inputs": [
        {
          "internalType": "address",
          "name": "module",
          "type": "address"
        }
      ],
      "name": "ModuleAlreadyEnabled",
      "type": "error"
    },
    {
      "inputs": [
        {
          "internalType": "address",
          "name": "module",
          "type": "address"
        }
      ],
      "name": "ModuleNotEnabled",
      "type": "error"
    },
    {
      "inputs": [],
      "name": "NotInitializing",
      "type": "error"
    },
    {
      "inputs": [
        {
          "internalType": "address",
          "name": "owner",
          "type": "address"
        }
      ],
      "name": "OwnableInvalidOwner",
      "type": "error"
    },
    {
      "inputs": [
        {
          "internalType": "address",
          "name": "account",
          "type": "address"
        }
      ],
      "name": "OwnableUnauthorizedAccount",
      "type": "error"
    },
    {
      "inputs": [
        {
          "internalType": "uint256",
          "name": "value",
          "type": "uint256"
        }
      ],
      "name": "PaymentRequired",
      "type": "error"
    },
    {
      "inputs": [
        {
          "internalType": "uint256",
          "name": "e3Id",
          "type": "uint256"
        }
      ],
      "name": "PlaintextOutputAlreadyPublished",
      "type": "error"
    },
    {
      "inputs": [
        {
          "internalType": "address",
          "name": "token",
          "type": "address"
        }
      ],
      "name": "SafeERC20FailedOperation",
      "type": "error"
    },
    {
      "anonymous": false,
      "inputs": [
        {
          "indexed": false,
          "internalType": "bytes[]",
          "name": "e3ProgramParams",
          "type": "bytes[]"
        }
      ],
      "name": "AllowedE3ProgramsParamsSet",
      "type": "event"
    },
    {
      "anonymous": false,
      "inputs": [
        {
          "indexed": false,
          "internalType": "address",
          "name": "bondingRegistry",
          "type": "address"
        }
      ],
      "name": "BondingRegistrySet",
      "type": "event"
    },
    {
      "anonymous": false,
      "inputs": [
        {
          "indexed": false,
          "internalType": "address",
          "name": "ciphernodeRegistry",
          "type": "address"
        }
      ],
      "name": "CiphernodeRegistrySet",
      "type": "event"
    },
    {
      "anonymous": false,
      "inputs": [
        {
          "indexed": true,
          "internalType": "uint256",
          "name": "e3Id",
          "type": "uint256"
        },
        {
          "indexed": false,
          "internalType": "bytes",
          "name": "ciphertextOutput",
          "type": "bytes"
        }
      ],
      "name": "CiphertextOutputPublished",
      "type": "event"
    },
    {
      "anonymous": false,
      "inputs": [
        {
          "indexed": true,
          "internalType": "uint256",
          "name": "e3Id",
          "type": "uint256"
        }
      ],
      "name": "CommitteeFinalized",
      "type": "event"
    },
    {
      "anonymous": false,
      "inputs": [
        {
          "indexed": true,
          "internalType": "uint256",
          "name": "e3Id",
          "type": "uint256"
        }
      ],
      "name": "CommitteeFormed",
      "type": "event"
    },
    {
      "anonymous": false,
      "inputs": [
        {
          "indexed": true,
          "internalType": "enum IEnclave.CommitteeSize",
          "name": "size",
          "type": "uint8"
        },
        {
          "indexed": false,
          "internalType": "uint32[2]",
          "name": "threshold",
          "type": "uint32[2]"
        }
      ],
      "name": "CommitteeThresholdsUpdated",
      "type": "event"
    },
    {
      "anonymous": false,
      "inputs": [
        {
          "indexed": true,
          "internalType": "uint256",
          "name": "e3Id",
          "type": "uint256"
        },
        {
          "indexed": false,
          "internalType": "enum IEnclave.E3Stage",
          "name": "failedAtStage",
          "type": "uint8"
        },
        {
          "indexed": false,
          "internalType": "enum IEnclave.FailureReason",
          "name": "reason",
          "type": "uint8"
        }
      ],
      "name": "E3Failed",
      "type": "event"
    },
    {
      "anonymous": false,
      "inputs": [
        {
          "indexed": true,
          "internalType": "uint256",
          "name": "e3Id",
          "type": "uint256"
        },
        {
          "indexed": false,
          "internalType": "uint256",
          "name": "paymentAmount",
          "type": "uint256"
        },
        {
          "indexed": false,
          "internalType": "uint256",
          "name": "honestNodeCount",
          "type": "uint256"
        }
      ],
      "name": "E3FailureProcessed",
      "type": "event"
    },
    {
      "anonymous": false,
      "inputs": [
        {
          "indexed": false,
          "internalType": "contract IE3Program",
          "name": "e3Program",
          "type": "address"
        }
      ],
      "name": "E3ProgramDisabled",
      "type": "event"
    },
    {
      "anonymous": false,
      "inputs": [
        {
          "indexed": false,
          "internalType": "contract IE3Program",
          "name": "e3Program",
          "type": "address"
        }
      ],
      "name": "E3ProgramEnabled",
      "type": "event"
    },
    {
      "anonymous": false,
      "inputs": [
        {
          "indexed": false,
          "internalType": "bytes[]",
          "name": "e3ProgramParams",
          "type": "bytes[]"
        }
      ],
      "name": "E3ProgramsParamsRemoved",
      "type": "event"
    },
    {
      "anonymous": false,
      "inputs": [
        {
          "indexed": true,
          "internalType": "address",
          "name": "e3RefundManager",
          "type": "address"
        }
      ],
      "name": "E3RefundManagerSet",
      "type": "event"
    },
    {
      "anonymous": false,
      "inputs": [
        {
          "indexed": false,
          "internalType": "uint256",
          "name": "e3Id",
          "type": "uint256"
        },
        {
          "components": [
            {
              "internalType": "uint256",
              "name": "seed",
              "type": "uint256"
            },
            {
              "internalType": "enum IEnclave.CommitteeSize",
              "name": "committeeSize",
              "type": "uint8"
            },
            {
              "internalType": "uint256",
              "name": "requestBlock",
              "type": "uint256"
            },
            {
              "internalType": "uint256[2]",
              "name": "inputWindow",
              "type": "uint256[2]"
            },
            {
              "internalType": "bytes32",
              "name": "encryptionSchemeId",
              "type": "bytes32"
            },
            {
              "internalType": "contract IE3Program",
              "name": "e3Program",
              "type": "address"
            },
            {
              "internalType": "bytes",
              "name": "e3ProgramParams",
              "type": "bytes"
            },
            {
              "internalType": "bytes",
              "name": "customParams",
              "type": "bytes"
            },
            {
              "internalType": "contract IDecryptionVerifier",
              "name": "decryptionVerifier",
              "type": "address"
            },
            {
              "internalType": "contract IPkVerifier",
              "name": "pkVerifier",
              "type": "address"
            },
            {
              "internalType": "bytes32",
              "name": "committeePublicKey",
              "type": "bytes32"
            },
            {
              "internalType": "bytes32",
              "name": "ciphertextOutput",
              "type": "bytes32"
            },
            {
              "internalType": "bytes",
              "name": "plaintextOutput",
              "type": "bytes"
            },
            {
              "internalType": "address",
              "name": "requester",
              "type": "address"
            }
          ],
          "indexed": false,
          "internalType": "struct E3",
          "name": "e3",
          "type": "tuple"
        },
        {
          "indexed": true,
          "internalType": "contract IE3Program",
          "name": "e3Program",
          "type": "address"
        }
      ],
      "name": "E3Requested",
      "type": "event"
    },
    {
      "anonymous": false,
      "inputs": [
        {
          "indexed": true,
          "internalType": "uint256",
          "name": "e3Id",
          "type": "uint256"
        },
        {
          "indexed": false,
          "internalType": "enum IEnclave.E3Stage",
          "name": "previousStage",
          "type": "uint8"
        },
        {
          "indexed": false,
          "internalType": "enum IEnclave.E3Stage",
          "name": "newStage",
          "type": "uint8"
        }
      ],
      "name": "E3StageChanged",
      "type": "event"
    },
    {
      "anonymous": false,
      "inputs": [
        {
          "indexed": false,
          "internalType": "bytes32",
          "name": "encryptionSchemeId",
          "type": "bytes32"
        }
      ],
      "name": "EncryptionSchemeDisabled",
      "type": "event"
    },
    {
      "anonymous": false,
      "inputs": [
        {
          "indexed": false,
          "internalType": "bytes32",
          "name": "encryptionSchemeId",
          "type": "bytes32"
        }
      ],
      "name": "EncryptionSchemeEnabled",
      "type": "event"
    },
    {
      "anonymous": false,
      "inputs": [
        {
          "indexed": false,
          "internalType": "address",
          "name": "feeToken",
          "type": "address"
        }
      ],
      "name": "FeeTokenSet",
      "type": "event"
    },
    {
      "anonymous": false,
      "inputs": [
        {
          "indexed": false,
          "internalType": "uint64",
          "name": "version",
          "type": "uint64"
        }
      ],
      "name": "Initialized",
      "type": "event"
    },
    {
      "anonymous": false,
      "inputs": [
        {
          "indexed": true,
          "internalType": "uint256",
          "name": "e3Id",
          "type": "uint256"
        },
        {
          "indexed": false,
          "internalType": "bytes",
          "name": "data",
          "type": "bytes"
        },
        {
          "indexed": false,
          "internalType": "uint256",
          "name": "inputHash",
          "type": "uint256"
        },
        {
          "indexed": false,
          "internalType": "uint256",
          "name": "index",
          "type": "uint256"
        }
      ],
      "name": "InputPublished",
      "type": "event"
    },
    {
      "anonymous": false,
      "inputs": [
        {
          "indexed": false,
          "internalType": "uint256",
          "name": "maxDuration",
          "type": "uint256"
        }
      ],
      "name": "MaxDurationSet",
      "type": "event"
    },
    {
      "anonymous": false,
      "inputs": [
        {
          "indexed": true,
          "internalType": "address",
          "name": "previousOwner",
          "type": "address"
        },
        {
          "indexed": true,
          "internalType": "address",
          "name": "newOwner",
          "type": "address"
        }
      ],
      "name": "OwnershipTransferred",
      "type": "event"
    },
    {
      "anonymous": false,
      "inputs": [
        {
          "indexed": true,
          "internalType": "uint256",
          "name": "e3Id",
          "type": "uint256"
        },
        {
          "indexed": false,
          "internalType": "bytes",
          "name": "plaintextOutput",
          "type": "bytes"
        }
      ],
      "name": "PlaintextOutputPublished",
      "type": "event"
    },
    {
      "anonymous": false,
      "inputs": [
        {
          "indexed": true,
          "internalType": "uint256",
          "name": "e3Id",
          "type": "uint256"
        },
        {
          "indexed": false,
          "internalType": "address[]",
          "name": "nodes",
          "type": "address[]"
        },
        {
          "indexed": false,
          "internalType": "uint256[]",
          "name": "amounts",
          "type": "uint256[]"
        }
      ],
      "name": "RewardsDistributed",
      "type": "event"
    },
    {
      "anonymous": false,
      "inputs": [
        {
          "indexed": true,
          "internalType": "uint256",
          "name": "e3Id",
          "type": "uint256"
        },
        {
          "indexed": false,
          "internalType": "uint256",
          "name": "amount",
          "type": "uint256"
        }
      ],
      "name": "SlashedFundsEscrowed",
      "type": "event"
    },
    {
      "anonymous": false,
      "inputs": [
        {
          "indexed": true,
          "internalType": "address",
          "name": "slashingManager",
          "type": "address"
        }
      ],
      "name": "SlashingManagerSet",
      "type": "event"
    },
    {
      "anonymous": false,
      "inputs": [
        {
          "components": [
            {
              "internalType": "uint256",
              "name": "dkgWindow",
              "type": "uint256"
            },
            {
              "internalType": "uint256",
              "name": "computeWindow",
              "type": "uint256"
            },
            {
              "internalType": "uint256",
              "name": "decryptionWindow",
              "type": "uint256"
            }
          ],
          "indexed": false,
          "internalType": "struct IEnclave.E3TimeoutConfig",
          "name": "config",
          "type": "tuple"
        }
      ],
      "name": "TimeoutConfigUpdated",
      "type": "event"
    },
    {
      "inputs": [],
      "name": "bondingRegistry",
      "outputs": [
        {
          "internalType": "contract IBondingRegistry",
          "name": "",
          "type": "address"
        }
      ],
      "stateMutability": "view",
      "type": "function"
    },
    {
      "inputs": [
        {
          "internalType": "uint256",
          "name": "e3Id",
          "type": "uint256"
        }
      ],
      "name": "checkFailureCondition",
      "outputs": [
        {
          "internalType": "bool",
          "name": "canFail",
          "type": "bool"
        },
        {
          "internalType": "enum IEnclave.FailureReason",
          "name": "reason",
          "type": "uint8"
        }
      ],
      "stateMutability": "view",
      "type": "function"
    },
    {
      "inputs": [],
      "name": "ciphernodeRegistry",
      "outputs": [
        {
          "internalType": "contract ICiphernodeRegistry",
          "name": "",
          "type": "address"
        }
      ],
      "stateMutability": "view",
      "type": "function"
    },
    {
      "inputs": [
        {
          "internalType": "enum IEnclave.CommitteeSize",
          "name": "",
          "type": "uint8"
        },
        {
          "internalType": "uint256",
          "name": "",
          "type": "uint256"
        }
      ],
      "name": "committeeThresholds",
      "outputs": [
        {
          "internalType": "uint32",
          "name": "threshold",
          "type": "uint32"
        }
      ],
      "stateMutability": "view",
      "type": "function"
    },
    {
      "inputs": [
        {
          "internalType": "bytes32",
          "name": "encryptionSchemeId",
          "type": "bytes32"
        }
      ],
      "name": "decryptionVerifiers",
      "outputs": [
        {
          "internalType": "contract IDecryptionVerifier",
          "name": "decryptionVerifier",
          "type": "address"
        }
      ],
      "stateMutability": "view",
      "type": "function"
    },
    {
      "inputs": [
        {
          "internalType": "contract IE3Program",
          "name": "e3Program",
          "type": "address"
        }
      ],
      "name": "disableE3Program",
      "outputs": [],
      "stateMutability": "nonpayable",
      "type": "function"
    },
    {
      "inputs": [
        {
          "internalType": "bytes32",
          "name": "encryptionSchemeId",
          "type": "bytes32"
        }
      ],
      "name": "disableEncryptionScheme",
      "outputs": [],
      "stateMutability": "nonpayable",
      "type": "function"
    },
    {
      "inputs": [
        {
          "internalType": "uint256",
          "name": "e3Id",
          "type": "uint256"
        }
      ],
      "name": "e3Payments",
      "outputs": [
        {
          "internalType": "uint256",
          "name": "e3Payment",
          "type": "uint256"
        }
      ],
      "stateMutability": "view",
      "type": "function"
    },
    {
      "inputs": [
        {
          "internalType": "contract IE3Program",
          "name": "e3Program",
          "type": "address"
        }
      ],
      "name": "e3Programs",
      "outputs": [
        {
          "internalType": "bool",
          "name": "allowed",
          "type": "bool"
        }
      ],
      "stateMutability": "view",
      "type": "function"
    },
    {
      "inputs": [
        {
          "internalType": "bytes",
          "name": "e3ProgramParams",
          "type": "bytes"
        }
      ],
      "name": "e3ProgramsParams",
      "outputs": [
        {
          "internalType": "bool",
          "name": "allowed",
          "type": "bool"
        }
      ],
      "stateMutability": "view",
      "type": "function"
    },
    {
      "inputs": [],
      "name": "e3RefundManager",
      "outputs": [
        {
          "internalType": "contract IE3RefundManager",
          "name": "",
          "type": "address"
        }
      ],
      "stateMutability": "view",
      "type": "function"
    },
    {
      "inputs": [
        {
          "internalType": "uint256",
          "name": "e3Id",
          "type": "uint256"
        }
      ],
      "name": "e3s",
      "outputs": [
        {
          "internalType": "uint256",
          "name": "seed",
          "type": "uint256"
        },
        {
          "internalType": "enum IEnclave.CommitteeSize",
          "name": "committeeSize",
          "type": "uint8"
        },
        {
          "internalType": "uint256",
          "name": "requestBlock",
          "type": "uint256"
        },
        {
          "internalType": "bytes32",
          "name": "encryptionSchemeId",
          "type": "bytes32"
        },
        {
          "internalType": "contract IE3Program",
          "name": "e3Program",
          "type": "address"
        },
        {
          "internalType": "bytes",
          "name": "e3ProgramParams",
          "type": "bytes"
        },
        {
          "internalType": "bytes",
          "name": "customParams",
          "type": "bytes"
        },
        {
          "internalType": "contract IDecryptionVerifier",
          "name": "decryptionVerifier",
          "type": "address"
        },
        {
          "internalType": "contract IPkVerifier",
          "name": "pkVerifier",
          "type": "address"
        },
        {
          "internalType": "bytes32",
          "name": "committeePublicKey",
          "type": "bytes32"
        },
        {
          "internalType": "bytes32",
          "name": "ciphertextOutput",
          "type": "bytes32"
        },
        {
          "internalType": "bytes",
          "name": "plaintextOutput",
          "type": "bytes"
        },
        {
          "internalType": "address",
          "name": "requester",
          "type": "address"
        }
      ],
      "stateMutability": "view",
      "type": "function"
    },
    {
      "inputs": [
        {
          "internalType": "contract IE3Program",
          "name": "e3Program",
          "type": "address"
        }
      ],
      "name": "enableE3Program",
      "outputs": [],
      "stateMutability": "nonpayable",
      "type": "function"
    },
    {
      "inputs": [
        {
          "internalType": "uint256",
          "name": "e3Id",
          "type": "uint256"
        },
        {
          "internalType": "uint256",
          "name": "amount",
          "type": "uint256"
        }
      ],
      "name": "escrowSlashedFunds",
      "outputs": [],
      "stateMutability": "nonpayable",
      "type": "function"
    },
    {
      "inputs": [],
      "name": "feeToken",
      "outputs": [
        {
          "internalType": "contract IERC20",
          "name": "",
          "type": "address"
        }
      ],
      "stateMutability": "view",
      "type": "function"
    },
    {
      "inputs": [
        {
          "internalType": "uint256",
          "name": "e3Id",
          "type": "uint256"
        }
      ],
      "name": "getDeadlines",
      "outputs": [
        {
          "components": [
            {
              "internalType": "uint256",
              "name": "dkgDeadline",
              "type": "uint256"
            },
            {
              "internalType": "uint256",
              "name": "computeDeadline",
              "type": "uint256"
            },
            {
              "internalType": "uint256",
              "name": "decryptionDeadline",
              "type": "uint256"
            }
          ],
          "internalType": "struct IEnclave.E3Deadlines",
          "name": "deadlines",
          "type": "tuple"
        }
      ],
      "stateMutability": "view",
      "type": "function"
    },
    {
      "inputs": [
        {
          "internalType": "bytes32",
          "name": "encryptionSchemeId",
          "type": "bytes32"
        }
      ],
      "name": "getDecryptionVerifier",
      "outputs": [
        {
          "internalType": "contract IDecryptionVerifier",
          "name": "",
          "type": "address"
        }
      ],
      "stateMutability": "view",
      "type": "function"
    },
    {
      "inputs": [
        {
          "internalType": "uint256",
          "name": "e3Id",
          "type": "uint256"
        }
      ],
      "name": "getE3",
      "outputs": [
        {
          "components": [
            {
              "internalType": "uint256",
              "name": "seed",
              "type": "uint256"
            },
            {
              "internalType": "enum IEnclave.CommitteeSize",
              "name": "committeeSize",
              "type": "uint8"
            },
            {
              "internalType": "uint256",
              "name": "requestBlock",
              "type": "uint256"
            },
            {
              "internalType": "uint256[2]",
              "name": "inputWindow",
              "type": "uint256[2]"
            },
            {
              "internalType": "bytes32",
              "name": "encryptionSchemeId",
              "type": "bytes32"
            },
            {
              "internalType": "contract IE3Program",
              "name": "e3Program",
              "type": "address"
            },
            {
              "internalType": "bytes",
              "name": "e3ProgramParams",
              "type": "bytes"
            },
            {
              "internalType": "bytes",
              "name": "customParams",
              "type": "bytes"
            },
            {
              "internalType": "contract IDecryptionVerifier",
              "name": "decryptionVerifier",
              "type": "address"
            },
            {
              "internalType": "contract IPkVerifier",
              "name": "pkVerifier",
              "type": "address"
            },
            {
              "internalType": "bytes32",
              "name": "committeePublicKey",
              "type": "bytes32"
            },
            {
              "internalType": "bytes32",
              "name": "ciphertextOutput",
              "type": "bytes32"
            },
            {
              "internalType": "bytes",
              "name": "plaintextOutput",
              "type": "bytes"
            },
            {
              "internalType": "address",
              "name": "requester",
              "type": "address"
            }
          ],
          "internalType": "struct E3",
          "name": "e3",
          "type": "tuple"
        }
      ],
      "stateMutability": "view",
      "type": "function"
    },
    {
      "inputs": [
        {
          "components": [
            {
              "internalType": "enum IEnclave.CommitteeSize",
              "name": "committeeSize",
              "type": "uint8"
            },
            {
              "internalType": "uint256[2]",
              "name": "inputWindow",
              "type": "uint256[2]"
            },
            {
              "internalType": "contract IE3Program",
              "name": "e3Program",
              "type": "address"
            },
            {
              "internalType": "bytes",
              "name": "e3ProgramParams",
              "type": "bytes"
            },
            {
              "internalType": "bytes",
              "name": "computeProviderParams",
              "type": "bytes"
            },
            {
              "internalType": "bytes",
              "name": "customParams",
              "type": "bytes"
            }
          ],
          "internalType": "struct IEnclave.E3RequestParams",
          "name": "",
          "type": "tuple"
        }
      ],
      "name": "getE3Quote",
      "outputs": [
        {
          "internalType": "uint256",
          "name": "fee",
          "type": "uint256"
        }
      ],
      "stateMutability": "pure",
      "type": "function"
    },
    {
      "inputs": [
        {
          "internalType": "uint256",
          "name": "e3Id",
          "type": "uint256"
        }
      ],
      "name": "getE3Stage",
      "outputs": [
        {
          "internalType": "enum IEnclave.E3Stage",
          "name": "stage",
          "type": "uint8"
        }
      ],
      "stateMutability": "view",
      "type": "function"
    },
    {
      "inputs": [
        {
          "internalType": "uint256",
          "name": "e3Id",
          "type": "uint256"
        }
      ],
      "name": "getFailureReason",
      "outputs": [
        {
          "internalType": "enum IEnclave.FailureReason",
          "name": "reason",
          "type": "uint8"
        }
      ],
      "stateMutability": "view",
      "type": "function"
    },
    {
      "inputs": [
        {
          "internalType": "bytes32",
          "name": "encryptionSchemeId",
          "type": "bytes32"
        }
      ],
      "name": "getPkVerifier",
      "outputs": [
        {
          "internalType": "contract IPkVerifier",
          "name": "",
          "type": "address"
        }
      ],
      "stateMutability": "view",
      "type": "function"
    },
    {
      "inputs": [
        {
          "internalType": "uint256",
          "name": "e3Id",
          "type": "uint256"
        }
      ],
      "name": "getRequester",
      "outputs": [
        {
          "internalType": "address",
          "name": "requester",
          "type": "address"
        }
      ],
      "stateMutability": "view",
      "type": "function"
    },
    {
      "inputs": [],
      "name": "getTimeoutConfig",
      "outputs": [
        {
          "components": [
            {
              "internalType": "uint256",
              "name": "dkgWindow",
              "type": "uint256"
            },
            {
              "internalType": "uint256",
              "name": "computeWindow",
              "type": "uint256"
            },
            {
              "internalType": "uint256",
              "name": "decryptionWindow",
              "type": "uint256"
            }
          ],
          "internalType": "struct IEnclave.E3TimeoutConfig",
          "name": "config",
          "type": "tuple"
        }
      ],
      "stateMutability": "view",
      "type": "function"
    },
    {
      "inputs": [
        {
          "internalType": "address",
          "name": "_owner",
          "type": "address"
        },
        {
          "internalType": "contract ICiphernodeRegistry",
          "name": "_ciphernodeRegistry",
          "type": "address"
        },
        {
          "internalType": "contract IBondingRegistry",
          "name": "_bondingRegistry",
          "type": "address"
        },
        {
          "internalType": "contract IE3RefundManager",
          "name": "_e3RefundManager",
          "type": "address"
        },
        {
          "internalType": "contract IERC20",
          "name": "_feeToken",
          "type": "address"
        },
        {
          "internalType": "uint256",
          "name": "_maxDuration",
          "type": "uint256"
        },
        {
          "components": [
            {
              "internalType": "uint256",
              "name": "dkgWindow",
              "type": "uint256"
            },
            {
              "internalType": "uint256",
              "name": "computeWindow",
              "type": "uint256"
            },
            {
              "internalType": "uint256",
              "name": "decryptionWindow",
              "type": "uint256"
            }
          ],
          "internalType": "struct IEnclave.E3TimeoutConfig",
          "name": "config",
          "type": "tuple"
        },
        {
          "internalType": "bytes[]",
          "name": "_e3ProgramsParams",
          "type": "bytes[]"
        }
      ],
      "name": "initialize",
      "outputs": [],
      "stateMutability": "nonpayable",
      "type": "function"
    },
    {
      "inputs": [
        {
          "internalType": "uint256",
          "name": "e3Id",
          "type": "uint256"
        }
      ],
      "name": "markE3Failed",
      "outputs": [
        {
          "internalType": "enum IEnclave.FailureReason",
          "name": "reason",
          "type": "uint8"
        }
      ],
      "stateMutability": "nonpayable",
      "type": "function"
    },
    {
      "inputs": [],
      "name": "maxDuration",
      "outputs": [
        {
          "internalType": "uint256",
          "name": "",
          "type": "uint256"
        }
      ],
      "stateMutability": "view",
      "type": "function"
    },
    {
      "inputs": [],
      "name": "nexte3Id",
      "outputs": [
        {
          "internalType": "uint256",
          "name": "",
          "type": "uint256"
        }
      ],
      "stateMutability": "view",
      "type": "function"
    },
    {
      "inputs": [
        {
          "internalType": "uint256",
          "name": "e3Id",
          "type": "uint256"
        }
      ],
      "name": "onCommitteeFinalized",
      "outputs": [],
      "stateMutability": "nonpayable",
      "type": "function"
    },
    {
      "inputs": [
        {
          "internalType": "uint256",
          "name": "e3Id",
          "type": "uint256"
        },
        {
          "internalType": "bytes",
          "name": "proof",
          "type": "bytes"
        }
      ],
      "name": "onCommitteePublished",
      "outputs": [],
      "stateMutability": "nonpayable",
      "type": "function"
    },
    {
      "inputs": [
        {
          "internalType": "uint256",
          "name": "e3Id",
          "type": "uint256"
        },
        {
          "internalType": "uint8",
          "name": "reason",
          "type": "uint8"
        }
      ],
      "name": "onE3Failed",
      "outputs": [],
      "stateMutability": "nonpayable",
      "type": "function"
    },
    {
      "inputs": [],
      "name": "owner",
      "outputs": [
        {
          "internalType": "address",
          "name": "",
          "type": "address"
        }
      ],
      "stateMutability": "view",
      "type": "function"
    },
    {
      "inputs": [
        {
          "internalType": "bytes32",
          "name": "encryptionSchemeId",
          "type": "bytes32"
        }
      ],
      "name": "pkVerifiers",
      "outputs": [
        {
          "internalType": "contract IPkVerifier",
          "name": "pkVerifier",
          "type": "address"
        }
      ],
      "stateMutability": "view",
      "type": "function"
    },
    {
      "inputs": [
        {
          "internalType": "uint256",
          "name": "e3Id",
          "type": "uint256"
        }
      ],
      "name": "processE3Failure",
      "outputs": [],
      "stateMutability": "nonpayable",
      "type": "function"
    },
    {
      "inputs": [
        {
          "internalType": "uint256",
          "name": "e3Id",
          "type": "uint256"
        },
        {
          "internalType": "bytes",
          "name": "ciphertextOutput",
          "type": "bytes"
        },
        {
          "internalType": "bytes",
          "name": "proof",
          "type": "bytes"
        }
      ],
      "name": "publishCiphertextOutput",
      "outputs": [
        {
          "internalType": "bool",
          "name": "success",
          "type": "bool"
        }
      ],
      "stateMutability": "nonpayable",
      "type": "function"
    },
    {
      "inputs": [
        {
          "internalType": "uint256",
          "name": "e3Id",
          "type": "uint256"
        },
        {
          "internalType": "bytes",
          "name": "plaintextOutput",
          "type": "bytes"
        },
        {
          "internalType": "bytes",
          "name": "proof",
          "type": "bytes"
        }
      ],
      "name": "publishPlaintextOutput",
      "outputs": [
        {
          "internalType": "bool",
          "name": "success",
          "type": "bool"
        }
      ],
      "stateMutability": "nonpayable",
      "type": "function"
    },
    {
      "inputs": [
        {
          "internalType": "bytes[]",
          "name": "_e3ProgramsParams",
          "type": "bytes[]"
        }
      ],
      "name": "removeE3ProgramsParams",
      "outputs": [],
      "stateMutability": "nonpayable",
      "type": "function"
    },
    {
      "inputs": [],
      "name": "renounceOwnership",
      "outputs": [],
      "stateMutability": "nonpayable",
      "type": "function"
    },
    {
      "inputs": [
        {
          "components": [
            {
              "internalType": "enum IEnclave.CommitteeSize",
              "name": "committeeSize",
              "type": "uint8"
            },
            {
              "internalType": "uint256[2]",
              "name": "inputWindow",
              "type": "uint256[2]"
            },
            {
              "internalType": "contract IE3Program",
              "name": "e3Program",
              "type": "address"
            },
            {
              "internalType": "bytes",
              "name": "e3ProgramParams",
              "type": "bytes"
            },
            {
              "internalType": "bytes",
              "name": "computeProviderParams",
              "type": "bytes"
            },
            {
              "internalType": "bytes",
              "name": "customParams",
              "type": "bytes"
            }
          ],
          "internalType": "struct IEnclave.E3RequestParams",
          "name": "requestParams",
          "type": "tuple"
        }
      ],
      "name": "request",
      "outputs": [
        {
          "internalType": "uint256",
          "name": "e3Id",
          "type": "uint256"
        },
        {
          "components": [
            {
              "internalType": "uint256",
              "name": "seed",
              "type": "uint256"
            },
            {
              "internalType": "enum IEnclave.CommitteeSize",
              "name": "committeeSize",
              "type": "uint8"
            },
            {
              "internalType": "uint256",
              "name": "requestBlock",
              "type": "uint256"
            },
            {
              "internalType": "uint256[2]",
              "name": "inputWindow",
              "type": "uint256[2]"
            },
            {
              "internalType": "bytes32",
              "name": "encryptionSchemeId",
              "type": "bytes32"
            },
            {
              "internalType": "contract IE3Program",
              "name": "e3Program",
              "type": "address"
            },
            {
              "internalType": "bytes",
              "name": "e3ProgramParams",
              "type": "bytes"
            },
            {
              "internalType": "bytes",
              "name": "customParams",
              "type": "bytes"
            },
            {
              "internalType": "contract IDecryptionVerifier",
              "name": "decryptionVerifier",
              "type": "address"
            },
            {
              "internalType": "contract IPkVerifier",
              "name": "pkVerifier",
              "type": "address"
            },
            {
              "internalType": "bytes32",
              "name": "committeePublicKey",
              "type": "bytes32"
            },
            {
              "internalType": "bytes32",
              "name": "ciphertextOutput",
              "type": "bytes32"
            },
            {
              "internalType": "bytes",
              "name": "plaintextOutput",
              "type": "bytes"
            },
            {
              "internalType": "address",
              "name": "requester",
              "type": "address"
            }
          ],
          "internalType": "struct E3",
          "name": "e3",
          "type": "tuple"
        }
      ],
      "stateMutability": "nonpayable",
      "type": "function"
    },
    {
      "inputs": [
        {
          "internalType": "contract IBondingRegistry",
          "name": "_bondingRegistry",
          "type": "address"
        }
      ],
      "name": "setBondingRegistry",
      "outputs": [],
      "stateMutability": "nonpayable",
      "type": "function"
    },
    {
      "inputs": [
        {
          "internalType": "contract ICiphernodeRegistry",
          "name": "_ciphernodeRegistry",
          "type": "address"
        }
      ],
      "name": "setCiphernodeRegistry",
      "outputs": [],
      "stateMutability": "nonpayable",
      "type": "function"
    },
    {
      "inputs": [
        {
          "internalType": "enum IEnclave.CommitteeSize",
          "name": "size",
          "type": "uint8"
        },
        {
          "internalType": "uint32[2]",
          "name": "threshold",
          "type": "uint32[2]"
        }
      ],
      "name": "setCommitteeThresholds",
      "outputs": [],
      "stateMutability": "nonpayable",
      "type": "function"
    },
    {
      "inputs": [
        {
          "internalType": "bytes32",
          "name": "encryptionSchemeId",
          "type": "bytes32"
        },
        {
          "internalType": "contract IDecryptionVerifier",
          "name": "decryptionVerifier",
          "type": "address"
        }
      ],
      "name": "setDecryptionVerifier",
      "outputs": [],
      "stateMutability": "nonpayable",
      "type": "function"
    },
    {
      "inputs": [
        {
          "internalType": "bytes[]",
          "name": "_e3ProgramsParams",
          "type": "bytes[]"
        }
      ],
      "name": "setE3ProgramsParams",
      "outputs": [],
      "stateMutability": "nonpayable",
      "type": "function"
    },
    {
      "inputs": [
        {
          "internalType": "contract IE3RefundManager",
          "name": "_e3RefundManager",
          "type": "address"
        }
      ],
      "name": "setE3RefundManager",
      "outputs": [],
      "stateMutability": "nonpayable",
      "type": "function"
    },
    {
      "inputs": [
        {
          "internalType": "contract IERC20",
          "name": "_feeToken",
          "type": "address"
        }
      ],
      "name": "setFeeToken",
      "outputs": [],
      "stateMutability": "nonpayable",
      "type": "function"
    },
    {
      "inputs": [
        {
          "internalType": "uint256",
          "name": "_maxDuration",
          "type": "uint256"
        }
      ],
      "name": "setMaxDuration",
      "outputs": [],
      "stateMutability": "nonpayable",
      "type": "function"
    },
    {
      "inputs": [
        {
          "internalType": "bytes32",
          "name": "encryptionSchemeId",
          "type": "bytes32"
        },
        {
          "internalType": "contract IPkVerifier",
          "name": "pkVerifier",
          "type": "address"
        }
      ],
      "name": "setPkVerifier",
      "outputs": [],
      "stateMutability": "nonpayable",
      "type": "function"
    },
    {
      "inputs": [
        {
          "internalType": "contract ISlashingManager",
          "name": "_slashingManager",
          "type": "address"
        }
      ],
      "name": "setSlashingManager",
      "outputs": [],
      "stateMutability": "nonpayable",
      "type": "function"
    },
    {
      "inputs": [
        {
          "components": [
            {
              "internalType": "uint256",
              "name": "dkgWindow",
              "type": "uint256"
            },
            {
              "internalType": "uint256",
              "name": "computeWindow",
              "type": "uint256"
            },
            {
              "internalType": "uint256",
              "name": "decryptionWindow",
              "type": "uint256"
            }
          ],
          "internalType": "struct IEnclave.E3TimeoutConfig",
          "name": "config",
          "type": "tuple"
        }
      ],
      "name": "setTimeoutConfig",
      "outputs": [],
      "stateMutability": "nonpayable",
      "type": "function"
    },
    {
      "inputs": [],
      "name": "slashingManager",
      "outputs": [
        {
          "internalType": "contract ISlashingManager",
          "name": "",
          "type": "address"
        }
      ],
      "stateMutability": "view",
      "type": "function"
    },
    {
      "inputs": [
        {
          "internalType": "address",
          "name": "newOwner",
          "type": "address"
        }
      ],
      "name": "transferOwnership",
      "outputs": [],
      "stateMutability": "nonpayable",
      "type": "function"
    }
  ],
  "bytecode": "0x6080604052348015600e575f5ffd5b5060156019565b60c9565b7ff0c57e16840df040f15088dc2f81fe391c3923bec73e23a9662efc9c229c6a00805468010000000000000000900460ff161560685760405163f92ee8a960e01b815260040160405180910390fd5b80546001600160401b039081161460c65780546001600160401b0319166001600160401b0390811782556040519081527fc7f505b2f371ae2175ee4913f4499e1f2633a7b5936321eed1cdaeb6115181d29060200160405180910390a15b50565b614986806100d65f395ff3fe608060405234801561000f575f5ffd5b50600436106102c3575f3560e01c80638dcdd86b11610177578063c4ccafa2116100d5578063ea71aa571161008f578063ea71aa5714610744578063f0691cba14610757578063f2fde38b1461076a578063f81b8ef61461077d578063fad8e11114610790578063fbdb3237146107a3578063fd2f3d01146107cb575f5ffd5b8063c4ccafa2146106b1578063cb649617146106d3578063cbd16872146106dc578063cf0f34c4146106ef578063cfbdc98d14610702578063e59e469514610731575f5ffd5b806399c6679d1161013157806399c6679d146106025780639c8570c81461062a578063ac3d2f421461063d578063b68fd1be14610665578063bb2d1b8214610678578063bff232c11461068b578063c1ab0f1f1461069e575f5ffd5b80638dcdd86b146105815780638e5ce3ad1461059357806390173a41146105a65780639117173c146105bb57806392312386146105ce578063929a8faf146105e1575f5ffd5b80634147a36011610224578063715018a6116101de578063715018a61461051257806377868ae41461051a5780637c8c3b4d1461052d5780637cfa9d74146105405780637edcd7ab1461055357806385814243146105665780638da5cb5b14610579575f5ffd5b80634147a36014610473578063459d9294146104925780634e92ec63146104d05780634fc77264146104e3578063647846a5146104f65780636db5c8fd14610509575f5ffd5b8063156e6c7d11610280578063156e6c7d1461039057806315cce224146103b15780631ba72945146103c4578063343d842d146103d757806336c5d38a146103f85780634017daf014610427578063406ed35c14610453575f5ffd5b806301d12f1c146102c757806302a3a9c9146102dc5780630ad0d8d4146102ef5780630ef81b2f1461030257806310bc62811461034057806311bd61d914610368575b5f5ffd5b6102da6102d5366004613b6a565b6107de565b005b6102da6102ea366004613c1a565b610944565b6102da6102fd366004613c72565b6109f0565b61032a610310366004613cb9565b5f908152600960205260409020546001600160a01b031690565b6040516103379190613cdd565b60405180910390f35b61032a61034e366004613cb9565b60096020525f90815260409020546001600160a01b031681565b61037b610376366004613d04565b610b5c565b60405163ffffffff9091168152602001610337565b6103a361039e366004613d2c565b610b98565b604051908152602001610337565b6102da6103bf366004613c1a565b610ba4565b6102da6103d2366004613d62565b610c49565b6103ea6103e5366004613d2c565b610c5d565b604051610337929190613ef0565b61041a610406366004613cb9565b5f908152600f602052604090205460ff1690565b6040516103379190613f20565b61043a610435366004613cb9565b611439565b6040516103379d9c9b9a99989796959493929190613f2e565b610466610461366004613cb9565b611656565b6040516103379190613fe2565b6103a3610481366004613cb9565b600c6020525f908152604090205481565b6104c06104a0366004613ff4565b8051602081830181018051600b8252928201919093012091525460ff1681565b6040519015158152602001610337565b6102da6104de366004613cb9565b61193b565b6102da6104f1366004613c1a565b6119ca565b60045461032a906001600160a01b031681565b6103a360055481565b6102da611a5d565b6102da610528366004614025565b611a70565b6102da61053b366004614056565b611b08565b6102da61054e366004613cb9565b611b91565b6104c0610561366004614084565b611c8f565b60015461032a906001600160a01b031681565b61032a611eb5565b5f5461032a906001600160a01b031681565b60035461032a906001600160a01b031681565b6105ae611ee3565b60405161033791906140fb565b6102da6105c9366004613cb9565b611f29565b6105ae6105dc366004613cb9565b6120d1565b6105f46105ef366004613cb9565b61212a565b60405161033792919061411c565b61032a610610366004613cb9565b5f908152601060205260409020546001600160a01b031690565b6104c0610638366004614084565b612151565b61032a61064b366004613cb9565b5f908152600a60205260409020546001600160a01b031690565b6102da610673366004614025565b6123e9565b6102da610686366004614132565b612480565b6102da610699366004613c1a565b61256b565b6102da6106ac36600461415a565b612612565b6104c06106bf366004613c1a565b60076020525f908152604090205460ff1681565b6103a360065481565b6102da6106ea366004614056565b6126f5565b6102da6106fd366004613cb9565b6127a8565b610724610710366004613cb9565b5f908152600d602052604090205460ff1690565b604051610337919061418a565b6102da61073f366004613c1a565b6127e5565b6102da610752366004614198565b61287f565b60025461032a906001600160a01b031681565b6102da610778366004613c1a565b612992565b61041a61078b366004613cb9565b6129cc565b6102da61079e366004613c1a565b612b66565b61032a6107b1366004613cb9565b600a6020525f90815260409020546001600160a01b031681565b6102da6107d9366004613c1a565b612bfe565b5f6107e7612c8d565b805490915060ff600160401b82041615906001600160401b03165f8115801561080d5750825b90505f826001600160401b031660011480156108285750303b155b905081158015610836575080155b156108545760405163f92ee8a960e01b815260040160405180910390fd5b845467ffffffffffffffff19166001178555831561087e57845460ff60401b1916600160401b1785555b61088733612cb7565b610890886127a8565b6108998c612b66565b6108a28b6127e5565b6108ab8a610944565b6108b489610ba4565b6108bd87612cc8565b6108c6866123e9565b6108ce611eb5565b6001600160a01b03168d6001600160a01b0316146108ef576108ef8d612992565b831561093557845460ff60401b19168555604051600181527fc7f505b2f371ae2175ee4913f4499e1f2633a7b5936321eed1cdaeb6115181d29060200160405180910390a15b50505050505050505050505050565b61094c612dfc565b6001600160a01b0381166109a75760405162461bcd60e51b815260206004820152601f60248201527f496e76616c6964204533526566756e644d616e6167657220616464726573730060448201526064015b60405180910390fd5b600280546001600160a01b0319166001600160a01b0383169081179091556040517f9557d04c1c0b16f93f13b69aed23b3b6ab935bff3c53ac81d17896d3583542ed905f90a250565b5f546001600160a01b03163314610a195760405162461bcd60e51b815260040161099e906141cf565b5f838152600860209081526040808320600d9092529091205460ff166002816006811115610a4957610a49613d7c565b14610a6e57846002826040516337e1404160e01b815260040161099e93929190614200565b600a82015460405163473b057f60e11b81525f916001600160a01b031690638e760afe90610aa29088908890600401614249565b602060405180830381865afa158015610abd573d5f5f3e3d5ffd5b505050506040513d601f19601f82011682018060405250810190610ae1919061425c565b5f878152600d6020526040808220805460ff19166003179055600b86018390555191925087917f11df18edb9bc9cd90a79068e0e208b630202148643d797d6150e7bacb733e63c9190a2855f51602061495a5f395f51905f5260026003604051610b4c929190614273565b60405180910390a2505050505050565b6012602052815f5260405f208160028110610b75575f80fd5b60089182820401919006600402915091509054906101000a900463ffffffff1681565b620f4240805b50919050565b610bac612dfc565b6001600160a01b03811615801590610bd257506004546001600160a01b03828116911614155b8190610bf25760405163eddf07f560e01b815260040161099e9190613cdd565b50600480546001600160a01b0319166001600160a01b0383161790556040517f722ff84c1234b2482061def5c82c6b5080c117b3cbb69d686844a051e4b8e7f390610c3e908390613cdd565b60405180910390a150565b610c51612dfc565b610c5a81612cc8565b50565b5f610c6661384b565b5f601281610c77602087018761428e565b6003811115610c8857610c88613d7c565b6003811115610c9957610c99613d7c565b8152602081019190915260409081015f20815180830190925260028282826020028201915f905b82829054906101000a900463ffffffff1663ffffffff1681526020019060040190602082600301049283019260010382029150808411610cc0579050505050505090505f81600160028110610d1757610d176142a7565b602002015163ffffffff1611845f016020810190610d35919061428e565b90610d545760405163286c068d60e11b815260040161099e91906142bb565b50602084013542811015610d7e57604051630b99e87960e01b815260040161099e91815260200190565b5060408401356020850135811015610dac5760405163174b5a0760e21b815260040161099e91815260200190565b506015546014545f9190610dc44260408901356142dd565b610dce91906142f0565b610dd891906142f0565b905060055481108190610e01576040516313b783af60e21b815260040161099e91815260200190565b5060075f610e156080880160608901613c1a565b6001600160a01b0316815260208101919091526040015f205460ff16610e416080870160608801613c1a565b90610e605760405163295a6a6f60e11b815260040161099e9190613cdd565b505f610e6b86610b98565b60068054965090915085905f610e8083614303565b9091555050604080514460208201529081018690525f9060600160408051808303601f1901815291815281516020928301205f898152600c84528281208690556004546011855283822080546001600160a01b039092166001600160a01b0319928316179055600d8552838220805460ff191660011790556010909452829020805433941693909317909255601454919250610f1f91908901356142f0565b5f878152600e6020908152604090912060010191909155818652610f459088018861428e565b85602001906003811115610f5b57610f5b613d7c565b90816003811115610f6e57610f6e613d7c565b905250436040808701919091528051808201825290602089019060029083908390808284375f920191909152505050606080870191909152610fb69060808901908901613c1a565b6001600160a01b031660a0860152610fd1608088018861431b565b8080601f0160208091040260200160405190810160405280939291908181526020018383808284375f9201919091525050505060c0808701919091526110199088018861431b565b8080601f0160208091040260200160405190810160405280939291908181526020018383808284375f92018290525060e08a0194909452505050610140860181905261016086018190526040805160208101909152908152610180860152336101a0860181905260045461109a916001600160a01b03909116903085612e2e565b5f6110ab6080890160608a01613c1a565b6001600160a01b031663fefd9a8b88846110c860808d018d61431b565b6110d560a08f018f61431b565b8f8060c001906110e5919061431b565b6040518963ffffffff1660e01b815260040161110898979695949392919061435d565b6020604051808303815f875af1158015611124573d5f5f3e3d5ffd5b505050506040513d601f19601f82011682018060405250810190611148919061425c565b5f818152600960205260409020549091506001600160a01b03168181611184576040516381c4951960e01b815260040161099e91815260200190565b505f828152600a60205260409020546001600160a01b031682816111be576040516381c4951960e01b815260040161099e91815260200190565b50608088018390526001600160a01b038083166101008a015281166101208901525f8981526008602090815260409091208951815590890151600180830180548c94939260ff19919091169083600381111561121c5761121c613d7c565b0217905550604082015181600201556060820151816003019060026112429291906138dc565b506080820151600582015560a08201516006820180546001600160a01b0319166001600160a01b0390921691909117905560c082015160078201906112879082614444565b5060e0820151600882019061129c9082614444565b506101008201516009820180546001600160a01b039283166001600160a01b031991821617909155610120840151600a84018054919093169116179055610140820151600b820155610160820151600c820155610180820151600d8201906113049082614444565b506101a09190910151600e90910180546001600160a01b0319166001600160a01b039283161790555f5460405163291a691b60e01b815291169063291a691b90611356908c9088908c906004016144f9565b6020604051808303815f875af1158015611372573d5f5f3e3d5ffd5b505050506040513d601f19601f82011682018060405250810190611396919061453e565b6113b357604051630d8dbe2560e01b815260040160405180910390fd5b6113c360808b0160608c01613c1a565b6001600160a01b03167ffde1395b78f264cf800114fa027daab94ab4f76adce74b2dda28f21f3be186cb8a8a6040516113fd929190613ef0565b60405180910390a2885f51602061495a5f395f51905f525f6001604051611425929190614273565b60405180910390a250505050505050915091565b60086020525f9081526040902080546001820154600283015460058401546006850154600786018054959660ff90951695939492936001600160a01b039092169291611484906143b3565b80601f01602080910402602001604051908101604052809291908181526020018280546114b0906143b3565b80156114fb5780601f106114d2576101008083540402835291602001916114fb565b820191905f5260205f20905b8154815290600101906020018083116114de57829003601f168201915b505050505090806008018054611510906143b3565b80601f016020809104026020016040519081016040528092919081815260200182805461153c906143b3565b80156115875780601f1061155e57610100808354040283529160200191611587565b820191905f5260205f20905b81548152906001019060200180831161156a57829003601f168201915b5050506009840154600a850154600b860154600c870154600d8801805497986001600160a01b039586169894909516965091945092916115c6906143b3565b80601f01602080910402602001604051908101604052809291908181526020018280546115f2906143b3565b801561163d5780601f106116145761010080835404028352916020019161163d565b820191905f5260205f20905b81548152906001019060200180831161162057829003601f168201915b505050600e90930154919250506001600160a01b03168d565b61165e61384b565b5f8281526008602090815260409182902082516101c08101909352805483526001810154909183019060ff16600381111561169b5761169b613d7c565b60038111156116ac576116ac613d7c565b8152600282810154602083015260408051808201808352919093019291600385019182845b8154815260200190600101908083116116d15750505091835250506005820154602082015260068201546001600160a01b0316604082015260078201805460609092019161171e906143b3565b80601f016020809104026020016040519081016040528092919081815260200182805461174a906143b3565b80156117955780601f1061176c57610100808354040283529160200191611795565b820191905f5260205f20905b81548152906001019060200180831161177857829003601f168201915b505050505081526020016008820180546117ae906143b3565b80601f01602080910402602001604051908101604052809291908181526020018280546117da906143b3565b80156118255780601f106117fc57610100808354040283529160200191611825565b820191905f5260205f20905b81548152906001019060200180831161180857829003601f168201915b505050918352505060098201546001600160a01b039081166020830152600a830154166040820152600b8201546060820152600c8201546080820152600d8201805460a090920191611876906143b3565b80601f01602080910402602001604051908101604052809291908181526020018280546118a2906143b3565b80156118ed5780601f106118c4576101008083540402835291602001916118ed565b820191905f5260205f20905b8154815290600101906020018083116118d057829003601f168201915b5050509183525050600e91909101546001600160a01b0390811660209092019190915260a0820151919250839116610b9e5760405163cd6f4a4f60e01b815260040161099e91815260200190565b611943612dfc565b5f8181526009602052604090205481906001600160a01b031661197c576040516381c4951960e01b815260040161099e91815260200190565b505f818152600960205260409081902080546001600160a01b0319169055517f104eb329a192aef26eddea07c2af5ad2587792e62b37ed4045b6ba59bc5540fc90610c3e9083815260200190565b6119d2612dfc565b6001600160a01b0381165f90815260076020526040902054819060ff16611a0d576040516321ac7c5f60e01b815260040161099e9190613cdd565b506001600160a01b0381165f9081526007602052604090819020805460ff19169055517f56070b80bd617fcd2f7a284861edb488830a38f9dedcd77b2cb2f4eac17743e790610c3e908390613cdd565b611a65612dfc565b611a6e5f612e9b565b565b611a78612dfc565b80515f5b81811015611acc57600b838281518110611a9857611a986142a7565b6020026020010151604051611aad919061455d565b908152604051908190036020019020805460ff19169055600101611a7c565b507fd1b46e030b48add7bc03225cc5a6f403970976b36983f99ec31d535d627fc7db82604051611afc9190614573565b60405180910390a15050565b611b10612dfc565b6001600160a01b03811615801590611b4157505f828152600a60205260409020546001600160a01b03828116911614155b8290611b63576040516381c4951960e01b815260040161099e91815260200190565b505f918252600a602052604090912080546001600160a01b0319166001600160a01b03909216919091179055565b5f546001600160a01b03163314611bba5760405162461bcd60e51b815260040161099e906141cf565b5f818152600d602052604090205460ff166001816006811115611bdf57611bdf613d7c565b14611c0457816001826040516337e1404160e01b815260040161099e93929190614200565b5f828152600d60205260409020805460ff19166002179055601354611c2990426142f0565b5f838152600e602052604080822092909255905183917fc44405af9078047712501f519e1fb900c2896c62b488336f84529c72ae16e6f191a2815f51602061495a5f395f51905f5260016002604051611c83929190614273565b60405180910390a25050565b5f5f611c9a87611656565b5f888152600d602052604090205490915060ff166004816006811115611cc257611cc2613d7c565b1488600483909192611cea576040516337e1404160e01b815260040161099e93929190614200565b5050505f888152600e60209081526040918290208251606081018452815481526001820154928101929092526002015491810182905290899042811015611d4d576040516308f3034360e31b81526004810192909252602482015260440161099e565b50505f898152600860205260409020600d01611d6a888a836145d6565b505f898152600d6020526040902080546005919060ff191660018302179055508261010001516001600160a01b031663258ae5828989604051611dae92919061468a565b6040519081900381206001600160e01b031960e084901b168252611dd8918a908a90600401614699565b602060405180830381865afa158015611df3573d5f5f3e3d5ffd5b505050506040513d601f19601f82011682018060405250810190611e17919061453e565b9350878785611e3b57604051632f9f8ab960e01b815260040161099e929190614249565b5050611e4689612f0b565b887f02a24c3402076671e129905ba4579d884b1f94ded1c07fc03d26d11b60bca1698989604051611e78929190614249565b60405180910390a2885f51602061495a5f395f51905f5260046005604051611ea1929190614273565b60405180910390a250505095945050505050565b7f9016d09d72d40fdae2fd8ceac6b6234c7706214fd39c1cd1e609a0528c199300546001600160a01b031690565b611f0460405180606001604052805f81526020015f81526020015f81525090565b5060408051606081018252601354815260145460208201526015549181019190915290565b5f818152600d602052604090205460ff166006816006811115611f4e57611f4e613d7c565b14611f8b5760405162461bcd60e51b815260206004820152600d60248201526c114cc81b9bdd0819985a5b1959609a1b604482015260640161099e565b5f828152600c602052604090205480611fdd5760405162461bcd60e51b8152602060048201526014602482015273139bc81c185e5b595b9d081d1bc81c99599d5b9960621b604482015260640161099e565b5f838152600c60205260408120819055611ff6846132ba565b5f858152601160205260409020546002549192506001600160a01b039081169161202391839116856133ae565b60025460405163da19b69760e01b81526001600160a01b039091169063da19b697906120599088908790879087906004016146fe565b5f604051808303815f87803b158015612070575f5ffd5b505af1158015612082573d5f5f3e3d5ffd5b50505050847f5297818f48a66292b8b3e2caab83eec531b669bb20807fd38cf006adb2a073178484516040516120c2929190918252602082015260400190565b60405180910390a25050505050565b6120f260405180606001604052805f81526020015f81526020015f81525090565b505f908152600e6020908152604091829020825160608101845281548152600182015492810192909252600201549181019190915290565b5f818152600d6020526040812054819060ff1661214784826133d9565b9250925050915091565b5f5f61215c87611656565b5f888152600d602052604090205490915060ff16600381600681111561218457612184613d7c565b14886003839091926121ac576040516337e1404160e01b815260040161099e93929190614200565b5050505f888152600e6020908152604091829020825160608101845281548152600182015492810183905260029091015492810192909252899042811015612210576040516308f3034360e31b81526004810192909252602482015260440161099e565b50506060830151602001518990428111156122475760405163017e35e560e71b81526004810192909252602482015260440161099e565b505061016083015189901561227257604051637eb9cea960e11b815260040161099e91815260200190565b505f888860405161228492919061468a565b60408051918290039091205f8c815260086020908152838220600c01839055600d905291909120805460ff191660041790556015549091506122c690426142f0565b5f8b8152600e6020526040908190206002019190915560a08501519051632f0e1bbf60e01b81526001600160a01b0390911690632f0e1bbf90612313908d9085908c908c90600401614735565b6020604051808303815f875af115801561232f573d5f5f3e3d5ffd5b505050506040513d601f19601f82011682018060405250810190612353919061453e565b945088888661237757604051632f9f8ab960e01b815260040161099e929190614249565b5050897f7cc27e4a5626cbc4f8ba1a927b0448de55e6a114bc87660331270c5109ade0718a8a6040516123ab929190614249565b60405180910390a2895f51602061495a5f395f51905f52600360046040516123d4929190614273565b60405180910390a25050505095945050505050565b6123f1612dfc565b80515f5b81811015612450576001600b848381518110612413576124136142a7565b6020026020010151604051612428919061455d565b908152604051908190036020019020805491151560ff199092169190911790556001016123f5565b507f027b83cad653f54850fef6faa8c705f73a53e7f8de50a3a33ac1e0e3a5c0be8182604051611afc9190614573565b5f546001600160a01b03163314806124a257506003546001600160a01b031633145b6124ee5760405162461bcd60e51b815260206004820152601c60248201527f4f6e6c79205265676973747279206f7220536c617368696e674d677200000000604482015260640161099e565b5f8160ff161180156125045750600d60ff821611155b6125495760405162461bcd60e51b815260206004820152601660248201527524b73b30b634b2103330b4b63ab932903932b0b9b7b760511b604482015260640161099e565b612567828260ff16600d81111561256257612562613d7c565b613561565b5050565b612573612dfc565b6001600160a01b0381166125c95760405162461bcd60e51b815260206004820152601f60248201527f496e76616c696420536c617368696e674d616e61676572206164647265737300604482015260640161099e565b600380546001600160a01b0319166001600160a01b0383169081179091556040517f4ccc8ed483c7c44c3602c3c38afc2c014a8f1d2dc210dfe58ebeeeead230f8e0905f90a250565b6003546001600160a01b031633146126635760405162461bcd60e51b815260206004820152601460248201527327b7363c9029b630b9b434b733a6b0b730b3b2b960611b604482015260640161099e565b60025460405163c1ab0f1f60e01b815260048101849052602481018390526001600160a01b039091169063c1ab0f1f906044015f604051808303815f87803b1580156126ad575f5ffd5b505af11580156126bf573d5f5f3e3d5ffd5b50505050817f4f41a3b0a032ebcae925f2ace77d507435840ca4b2dbaffdd7723fa8d72ee54282604051611c8391815260200190565b6126fd612dfc565b6001600160a01b0381161580159061272e57505f828152600960205260409020546001600160a01b03828116911614155b8290612750576040516381c4951960e01b815260040161099e91815260200190565b505f8281526009602090815260409182902080546001600160a01b0319166001600160a01b03851617905590518381527ff4041a3f914dac3bc9bf5f003ba41f28dbb84abe42f4e07c76266f5c8ceecb699101611afc565b6127b0612dfc565b60058190556040518181527fba0716ba1ee2ea8ecc4c64119b4537cdb42a99d82acf92af5b87607b8b52355290602001610c3e565b6127ed612dfc565b6001600160a01b0381161580159061281357506001546001600160a01b03828116911614155b8190612833576040516320252f0b60e01b815260040161099e9190613cdd565b50600180546001600160a01b0319166001600160a01b0383161790556040517fad4055f18cdad6f4bdd71afe3a72cbeee964217943e1bde38f138289e981a9a790610c3e908390613cdd565b612887612dfc565b6128946020820182614767565b63ffffffff166128aa6040830160208401614767565b63ffffffff16101580156128cf57505f6128c76020830183614767565b63ffffffff16115b61290f5760405162461bcd60e51b8152602060048201526011602482015270125b9d985b1a59081d1a1c995cda1bdb19607a1b604482015260640161099e565b8060125f84600381111561292557612925613d7c565b600381111561293657612936613d7c565b815260208101919091526040015f2061295091600261391a565b5081600381111561296357612963613d7c565b7f8b56fae526eee054f0849759a99fc7d4ff3823824ebf097a56f7d78adb6b34fa82604051611c839190614780565b61299a612dfc565b6001600160a01b0381166129c3575f604051631e4fbdf760e01b815260040161099e9190613cdd565b610c5a81612e9b565b5f818152600d602052604081205460ff16818160068111156129f0576129f0613d7c565b03612a1557826001826040516337e1404160e01b815260040161099e93929190614200565b6005816006811115612a2957612a29613d7c565b03612a4a5760405163462c7bed60e01b81526004810184905260240161099e565b6006816006811115612a5e57612a5e613d7c565b03612a7f57604051633de16e3560e11b81526004810184905260240161099e565b5f612a8a84836133d9565b9350905080612aaf57604051639f65d93560e01b81526004810185905260240161099e565b5f848152600d6020526040902080546006919060ff191660018302179055505f848152600f60205260409020805484919060ff1916600183600d811115612af857612af8613d7c565b0217905550835f51602061495a5f395f51905f52836006604051612b1d929190614273565b60405180910390a2837fe20209be7caae6e76291267cfa711353981274bf127e94f16eb9ec44b68582bb8385604051612b579291906147be565b60405180910390a25050919050565b612b6e612dfc565b6001600160a01b03811615801590612b9357505f546001600160a01b03828116911614155b8190612bb3576040516375ac4eb760e11b815260040161099e9190613cdd565b505f80546001600160a01b0319166001600160a01b0383161790556040517f80052b810d39120cf6c976cca504a21703f585521dc7a41c6d241090e6c579b690610c3e908390613cdd565b6001600160a01b0381165f90815260076020526040902054819060ff1615612c3a5760405163b29d459560e01b815260040161099e9190613cdd565b506001600160a01b0381165f9081526007602052604090819020805460ff19166001179055517fb8d368517268f297fff00825d67d098763117d061360d31027be5b2e1a59d46790610c3e908390613cdd565b5f807ff0c57e16840df040f15088dc2f81fe391c3923bec73e23a9662efc9c229c6a005b92915050565b612cbf6136c9565b610c5a816136ee565b8035612d0b5760405162461bcd60e51b8152602060048201526012602482015271496e76616c696420444b472077696e646f7760701b604482015260640161099e565b5f816020013511612d575760405162461bcd60e51b8152602060048201526016602482015275496e76616c696420636f6d707574652077696e646f7760501b604482015260640161099e565b5f816040013511612da65760405162461bcd60e51b8152602060048201526019602482015278496e76616c69642064656372797074696f6e2077696e646f7760381b604482015260640161099e565b80356013819055602080830135601481905560408085013560158190558151948552928401919091528201527f7e86ba16b805e2835af5c5b7aa5a942ced8bcc1fb95a05fbe42dae3862350a1690606001610c3e565b33612e05611eb5565b6001600160a01b031614611a6e573360405163118cdaa760e01b815260040161099e9190613cdd565b6040516001600160a01b038481166024830152838116604483015260648201839052612e959186918216906323b872dd906084015b604051602081830303815290604052915060e01b6020820180516001600160e01b0383818316178352505050506136f6565b50505050565b7f9016d09d72d40fdae2fd8ceac6b6234c7706214fd39c1cd1e609a0528c19930080546001600160a01b031981166001600160a01b03848116918217845560405192169182907f8be0079c531659141344cd1fd0a4f28419497f9722a3daafe3b4186f6b6457e0905f90a3505050565b5f805460405162beb08960e51b8152600481018490526001600160a01b03909116906317d61120906024015f60405180830381865afa158015612f50573d5f5f3e3d5ffd5b505050506040513d5f823e601f3d908101601f19168201604052612f7791908101906147d9565b80515f848152600c60209081526040808320805490849055601190925282205493945091926001600160a01b031690829003613015576002546040516341489f1560e01b81526001600160a01b03909116906341489f1590612fe190889088908690600401614868565b5f604051808303815f87803b158015612ff8575f5ffd5b505af115801561300a573d5f5f3e3d5ffd5b505050505050505050565b825f036130b6575f858152601060205260409020546001600160a01b0316801561304d5761304d6001600160a01b03831682856133ae565b6002546040516341489f1560e01b81526001600160a01b03909116906341489f159061308190899089908790600401614868565b5f604051808303815f87803b158015613098575f5ffd5b505af11580156130aa573d5f5f3e3d5ffd5b50505050505050505050565b5f836001600160401b038111156130cf576130cf613a0c565b6040519080825280602002602001820160405280156130f8578160200160208202803683370190505b5090505f6131068585614898565b90505f805b868110156131455782848281518110613126576131266142a7565b602090810291909101015261313b83836142f0565b915060010161310b565b505f61315182876142dd565b9050801561318e57808461316660018a6142dd565b81518110613176576131766142a7565b6020026020010181815161318a91906142f0565b9052505b6001546131a8906001600160a01b03878116911688613759565b600154604051636ec640c760e11b81526001600160a01b039091169063dd8c818e906131dc9088908c9089906004016148e7565b5f604051808303815f87803b1580156131f3575f5ffd5b505af1158015613205573d5f5f3e3d5ffd5b505060015461322392506001600160a01b038881169250165f613759565b887fac9fe8ad7f55eac03284399116ecafc104f10459773f4cdf47063c46e5be335a898660405161325592919061491c565b60405180910390a26002546040516341489f1560e01b81526001600160a01b03909116906341489f1590613291908c908c908a90600401614868565b5f604051808303815f87803b1580156132a8575f5ffd5b505af1158015610935573d5f5f3e3d5ffd5b5f818152600f602052604090205460609060ff16600181600d8111156132e2576132e2613d7c565b14806132ff5750600281600d8111156132fd576132fd613d7c565b145b15613337575f5b60405190808252806020026020018201604052801561332f578160200160208202803683370190505b509392505050565b5f5460405162beb08960e51b8152600481018590526001600160a01b03909116906317d61120906024015f60405180830381865afa92505050801561339d57506040513d5f823e601f3d908101601f1916820160405261339a91908101906147d9565b60015b6133a7575f613306565b9392505050565b6133d483846001600160a01b031663a9059cbb8585604051602401612e63929190614940565b505050565b5f828152600e60209081526040808320815160608101835281548152600182015493810193909352600201548282015282549051632800d82960e01b81526004810186905283929183916001600160a01b0390911690632800d82990602401602060405180830381865afa158015613453573d5f5f3e3d5ffd5b505050506040513d601f19601f82011682018060405250810190613477919061425c565b9050600185600681111561348d5761348d613d7c565b14801561349957508042115b156134ac5760018093509350505061355a565b60028560068111156134c0576134c0613d7c565b1480156134cd5750815142115b156134e1576001600393509350505061355a565b60038560068111156134f5576134f5613d7c565b1480156135055750816020015142115b15613519576001600693509350505061355a565b600485600681111561352d5761352d613d7c565b14801561353d5750816040015142115b15613551576001600a93509350505061355a565b5f5f9350935050505b9250929050565b5f828152600d602052604081205460ff169081600681111561358557613585613d7c565b036135aa57826001826040516337e1404160e01b815260040161099e93929190614200565b60058160068111156135be576135be613d7c565b036135df5760405163462c7bed60e01b81526004810184905260240161099e565b60068160068111156135f3576135f3613d7c565b0361361457604051633de16e3560e11b81526004810184905260240161099e565b5f838152600d6020526040902080546006919060ff191660018302179055505f838152600f60205260409020805483919060ff1916600183600d81111561365d5761365d613d7c565b0217905550825f51602061495a5f395f51905f52826006604051613682929190614273565b60405180910390a2827fe20209be7caae6e76291267cfa711353981274bf127e94f16eb9ec44b68582bb82846040516136bc9291906147be565b60405180910390a2505050565b6136d16137e9565b611a6e57604051631afcd79f60e31b815260040160405180910390fd5b61299a6136c9565b5f5f60205f8451602086015f885af180613715576040513d5f823e3d81fd5b50505f513d9150811561372c578060011415613739565b6001600160a01b0384163b155b15612e955783604051635274afe760e01b815260040161099e9190613cdd565b5f836001600160a01b031663095ea7b3848460405160240161377c929190614940565b604051602081830303815290604052915060e01b6020820180516001600160e01b03838183161783525050505090506137b58482613802565b612e95576137df84856001600160a01b031663095ea7b3865f604051602401612e63929190614940565b612e9584826136f6565b5f6137f2612c8d565b54600160401b900460ff16919050565b5f5f5f5f60205f8651602088015f8a5af192503d91505f519050828015613841575081156138335780600114613841565b5f866001600160a01b03163b115b9695505050505050565b604080516101c081019091525f808252602082019081526020015f81526020016138736139b6565b81526020015f81526020015f6001600160a01b0316815260200160608152602001606081526020015f6001600160a01b031681526020015f6001600160a01b031681526020015f81526020015f8152602001606081526020015f6001600160a01b031681525090565b826002810192821561390a579160200282015b8281111561390a5782518255916020019190600101906138ef565b506139169291506139d4565b5090565b60018301918390821561390a579160200282015f5b8382111561397957833563ffffffff1683826101000a81548163ffffffff021916908363ffffffff160217905550926020019260040160208160030104928301926001030261392f565b80156139a95782816101000a81549063ffffffff0219169055600401602081600301049283019260010302613979565b50506139169291506139d4565b60405180604001604052806002906020820280368337509192915050565b5b80821115613916575f81556001016139d5565b6001600160a01b0381168114610c5a575f5ffd5b5f60608284031215610b9e575f5ffd5b634e487b7160e01b5f52604160045260245ffd5b604051601f8201601f191681016001600160401b0381118282101715613a4857613a48613a0c565b604052919050565b5f6001600160401b03821115613a6857613a68613a0c565b5060051b60200190565b5f82601f830112613a81575f5ffd5b81356001600160401b03811115613a9a57613a9a613a0c565b613aad601f8201601f1916602001613a20565b818152846020838601011115613ac1575f5ffd5b816020850160208301375f918101602001919091529392505050565b5f82601f830112613aec575f5ffd5b8135613aff613afa82613a50565b613a20565b8082825260208201915060208360051b860101925085831115613b20575f5ffd5b602085015b83811015613b605780356001600160401b03811115613b42575f5ffd5b613b51886020838a0101613a72565b84525060209283019201613b25565b5095945050505050565b5f5f5f5f5f5f5f5f610140898b031215613b82575f5ffd5b8835613b8d816139e8565b97506020890135613b9d816139e8565b96506040890135613bad816139e8565b95506060890135613bbd816139e8565b94506080890135613bcd816139e8565b935060a08901359250613be38a60c08b016139fc565b91506101208901356001600160401b03811115613bfe575f5ffd5b613c0a8b828c01613add565b9150509295985092959890939650565b5f60208284031215613c2a575f5ffd5b81356133a7816139e8565b5f5f83601f840112613c45575f5ffd5b5081356001600160401b03811115613c5b575f5ffd5b60208301915083602082850101111561355a575f5ffd5b5f5f5f60408486031215613c84575f5ffd5b8335925060208401356001600160401b03811115613ca0575f5ffd5b613cac86828701613c35565b9497909650939450505050565b5f60208284031215613cc9575f5ffd5b5035919050565b6001600160a01b03169052565b6001600160a01b0391909116815260200190565b803560048110613cff575f5ffd5b919050565b5f5f60408385031215613d15575f5ffd5b613d1e83613cf1565b946020939093013593505050565b5f60208284031215613d3c575f5ffd5b81356001600160401b03811115613d51575f5ffd5b820160e081850312156133a7575f5ffd5b5f60608284031215613d72575f5ffd5b6133a783836139fc565b634e487b7160e01b5f52602160045260245ffd5b60048110613da057613da0613d7c565b9052565b805f5b6002811015612e95578151845260209384019390910190600101613da7565b5f81518084528060208401602086015e5f602082860101526020601f19601f83011685010191505092915050565b805182525f6020820151613e0b6020850182613d90565b50604082015160408401526060820151613e286060850182613da4565b50608082015160a084015260a0820151613e4560c0850182613cd0565b5060c08201516101e060e0850152613e616101e0850182613dc6565b905060e0830151848203610100860152613e7b8282613dc6565b915050610100830151613e92610120860182613cd0565b50610120830151613ea7610140860182613cd0565b506101408301516101608501526101608301516101808501526101808301518482036101a0860152613ed98282613dc6565b9150506101a083015161332f6101c0860182613cd0565b828152604060208201525f613f086040830184613df4565b949350505050565b600e8110613da057613da0613d7c565b60208101612cb18284613f10565b8d8152613f3e602082018e613d90565b8b60408201528a606082015260018060a01b038a1660808201526101a060a08201525f613f6f6101a083018b613dc6565b82810360c0840152613f81818b613dc6565b9050613f9060e084018a613cd0565b613f9e610100840189613cd0565b8661012084015285610140840152828103610160840152613fbf8186613dc6565b915050613fd0610180830184613cd0565b9e9d5050505050505050505050505050565b602081525f6133a76020830184613df4565b5f60208284031215614004575f5ffd5b81356001600160401b03811115614019575f5ffd5b613f0884828501613a72565b5f60208284031215614035575f5ffd5b81356001600160401b0381111561404a575f5ffd5b613f0884828501613add565b5f5f60408385031215614067575f5ffd5b823591506020830135614079816139e8565b809150509250929050565b5f5f5f5f5f60608688031215614098575f5ffd5b8535945060208601356001600160401b038111156140b4575f5ffd5b6140c088828901613c35565b90955093505060408601356001600160401b038111156140de575f5ffd5b6140ea88828901613c35565b969995985093965092949392505050565b81518152602080830151908201526040808301519082015260608101612cb1565b8215158152604081016133a76020830184613f10565b5f5f60408385031215614143575f5ffd5b82359150602083013560ff81168114614079575f5ffd5b5f5f6040838503121561416b575f5ffd5b50508035926020909101359150565b60078110613da057613da0613d7c565b60208101612cb1828461417a565b5f5f606083850312156141a9575f5ffd5b6141b283613cf1565b9150836060840111156141c3575f5ffd5b50926020919091019150565b6020808252601790820152764f6e6c79204369706865726e6f6465526567697374727960481b604082015260600190565b83815260608101614214602083018561417a565b613f08604083018461417a565b81835281816020850137505f828201602090810191909152601f909101601f19169091010190565b602081525f613f08602083018486614221565b5f6020828403121561426c575f5ffd5b5051919050565b60408101614281828561417a565b6133a7602083018461417a565b5f6020828403121561429e575f5ffd5b6133a782613cf1565b634e487b7160e01b5f52603260045260245ffd5b60208101612cb18284613d90565b634e487b7160e01b5f52601160045260245ffd5b81810381811115612cb157612cb16142c9565b80820180821115612cb157612cb16142c9565b5f60018201614314576143146142c9565b5060010190565b5f5f8335601e19843603018112614330575f5ffd5b8301803591506001600160401b03821115614349575f5ffd5b60200191503681900382131561355a575f5ffd5b88815287602082015260a060408201525f61437c60a08301888a614221565b828103606084015261438f818789614221565b905082810360808401526143a4818587614221565b9b9a5050505050505050505050565b600181811c908216806143c757607f821691505b602082108103610b9e57634e487b7160e01b5f52602260045260245ffd5b601f8211156133d457805f5260205f20601f840160051c8101602085101561440a5750805b601f840160051c820191505b81811015614429575f8155600101614416565b5050505050565b5f19600383901b1c191660019190911b1790565b81516001600160401b0381111561445d5761445d613a0c565b6144718161446b84546143b3565b846143e5565b6020601f82116001811461449e575f831561448c5750848201515b6144968482614430565b855550614429565b5f84815260208120601f198516915b828110156144cd57878501518255602094850194600190920191016144ad565b50848210156144ea57868401515f19600387901b60f8161c191681555b50505050600190811b01905550565b838152602081018390526080810160408201835f5b600281101561453357815163ffffffff1683526020928301929091019060010161450e565b505050949350505050565b5f6020828403121561454e575f5ffd5b815180151581146133a7575f5ffd5b5f82518060208501845e5f920191825250919050565b5f602082016020835280845180835260408501915060408160051b8601019250602086015f5b828110156145ca57603f198786030184526145b5858351613dc6565b94506020938401939190910190600101614599565b50929695505050505050565b6001600160401b038311156145ed576145ed613a0c565b614601836145fb83546143b3565b836143e5565b5f601f84116001811461462d575f851561461b5750838201355b6146258682614430565b845550614429565b5f83815260208120601f198716915b8281101561465c578685013582556020948501946001909201910161463c565b5086821015614678575f1960f88860031b161c19848701351681555b505060018560011b0183555050505050565b818382375f9101908152919050565b838152604060208201525f6146b2604083018486614221565b95945050505050565b5f8151808452602084019350602083015f5b828110156146f45781516001600160a01b03168652602095860195909101906001016146cd565b5093949350505050565b848152836020820152608060408201525f61471c60808301856146bb565b905060018060a01b038316606083015295945050505050565b848152836020820152606060408201525f613841606083018486614221565b803563ffffffff81168114613cff575f5ffd5b5f60208284031215614777575f5ffd5b6133a782614754565b6040810181835f5b60028110156147b55763ffffffff61479f83614754565b1683526020928301929190910190600101614788565b50505092915050565b604081016147cc828561417a565b6133a76020830184613f10565b5f602082840312156147e9575f5ffd5b81516001600160401b038111156147fe575f5ffd5b8201601f8101841361480e575f5ffd5b805161481c613afa82613a50565b8082825260208201915060208360051b85010192508683111561483d575f5ffd5b6020840193505b82841015613841578351614857816139e8565b825260209384019390910190614844565b838152606060208201525f61488060608301856146bb565b905060018060a01b0383166040830152949350505050565b5f826148b257634e487b7160e01b5f52601260045260245ffd5b500490565b5f8151808452602084019350602083015f5b828110156146f45781518652602095860195909101906001016148c9565b6001600160a01b03841681526060602082018190525f9061490a908301856146bb565b828103604084015261384181856148b7565b604081525f61492e60408301856146bb565b82810360208401526146b281856148b7565b6001600160a01b0392909216825260208201526040019056fe1b418a230a21d37a078bf8f16decbde8ccceacd77159371f62f0d4ea00d19967a164736f6c634300081c000a",
  "linkReferences": {},
  "deployedLinkReferences": {},
  "immutableReferences": {},
  "inputSourceName": "project/contracts/Enclave.sol",
  "buildInfoId": "solc-0_8_28-16cf43f6814888a6b7f512f8d4a2a360fcb66d4c"
}